{
  "_format": "hh-sol-artifact-1",
  "contractName": "CourseDataStorage",
  "sourceName": "contracts/data/storage/course/CourseDataStorage.sol",
  "abi": [
    {
      "inputs": [
        {
          "internalType": "address",
          "name": "accessWhitelistAddress",
          "type": "address"
        }
      ],
      "stateMutability": "nonpayable",
      "type": "constructor"
    },
    {
      "inputs": [],
      "name": "getAllCourseCodes",
      "outputs": [
        {
          "internalType": "string[]",
          "name": "",
          "type": "string[]"
        }
      ],
      "stateMutability": "view",
      "type": "function"
    },
    {
      "inputs": [],
      "name": "getAllCourses",
      "outputs": [
        {
          "components": [
            {
              "internalType": "uint256",
              "name": "courseId",
              "type": "uint256"
            },
            {
              "components": [
                {
                  "internalType": "string",
                  "name": "title",
                  "type": "string"
                },
                {
                  "internalType": "string",
                  "name": "code",
                  "type": "string"
                },
                {
                  "internalType": "enum CourseDataTypes.CourseType",
                  "name": "courseType",
                  "type": "uint8"
                },
                {
                  "components": [
                    {
                      "internalType": "uint256",
                      "name": "year",
                      "type": "uint256"
                    },
                    {
                      "internalType": "enum CourseDataTypes.SemesterSeason",
                      "name": "season",
                      "type": "uint8"
                    }
                  ],
                  "internalType": "struct CourseDataTypes.Semester",
                  "name": "semester",
                  "type": "tuple"
                },
                {
                  "internalType": "string",
                  "name": "description",
                  "type": "string"
                },
                {
                  "internalType": "string",
                  "name": "examTopics",
                  "type": "string"
                },
                {
                  "internalType": "string",
                  "name": "language",
                  "type": "string"
                },
                {
                  "internalType": "uint256",
                  "name": "ects",
                  "type": "uint256"
                },
                {
                  "internalType": "uint256",
                  "name": "maxPlaces",
                  "type": "uint256"
                },
                {
                  "internalType": "uint256",
                  "name": "registrationStart",
                  "type": "uint256"
                },
                {
                  "internalType": "uint256",
                  "name": "registrationDeadline",
                  "type": "uint256"
                },
                {
                  "internalType": "uint256",
                  "name": "deregistrationDeadline",
                  "type": "uint256"
                },
                {
                  "components": [
                    {
                      "internalType": "uint256",
                      "name": "datetime",
                      "type": "uint256"
                    },
                    {
                      "internalType": "string",
                      "name": "place",
                      "type": "string"
                    }
                  ],
                  "internalType": "struct CourseDataTypes.Class[]",
                  "name": "classes",
                  "type": "tuple[]"
                },
                {
                  "components": [
                    {
                      "internalType": "uint256",
                      "name": "grade",
                      "type": "uint256"
                    },
                    {
                      "internalType": "uint256",
                      "name": "minPercentage",
                      "type": "uint256"
                    }
                  ],
                  "internalType": "struct CourseDataTypes.GradeLevel[]",
                  "name": "gradeLevels",
                  "type": "tuple[]"
                },
                {
                  "internalType": "string[]",
                  "name": "requirementCourseCodes",
                  "type": "string[]"
                }
              ],
              "internalType": "struct CourseDataTypes.CourseContent",
              "name": "courseContent",
              "type": "tuple"
            }
          ],
          "internalType": "struct CourseDataTypes.Course[]",
          "name": "",
          "type": "tuple[]"
        }
      ],
      "stateMutability": "view",
      "type": "function"
    },
    {
      "inputs": [
        {
          "internalType": "uint256",
          "name": "courseId",
          "type": "uint256"
        }
      ],
      "name": "getCourse",
      "outputs": [
        {
          "components": [
            {
              "internalType": "uint256",
              "name": "courseId",
              "type": "uint256"
            },
            {
              "components": [
                {
                  "internalType": "string",
                  "name": "title",
                  "type": "string"
                },
                {
                  "internalType": "string",
                  "name": "code",
                  "type": "string"
                },
                {
                  "internalType": "enum CourseDataTypes.CourseType",
                  "name": "courseType",
                  "type": "uint8"
                },
                {
                  "components": [
                    {
                      "internalType": "uint256",
                      "name": "year",
                      "type": "uint256"
                    },
                    {
                      "internalType": "enum CourseDataTypes.SemesterSeason",
                      "name": "season",
                      "type": "uint8"
                    }
                  ],
                  "internalType": "struct CourseDataTypes.Semester",
                  "name": "semester",
                  "type": "tuple"
                },
                {
                  "internalType": "string",
                  "name": "description",
                  "type": "string"
                },
                {
                  "internalType": "string",
                  "name": "examTopics",
                  "type": "string"
                },
                {
                  "internalType": "string",
                  "name": "language",
                  "type": "string"
                },
                {
                  "internalType": "uint256",
                  "name": "ects",
                  "type": "uint256"
                },
                {
                  "internalType": "uint256",
                  "name": "maxPlaces",
                  "type": "uint256"
                },
                {
                  "internalType": "uint256",
                  "name": "registrationStart",
                  "type": "uint256"
                },
                {
                  "internalType": "uint256",
                  "name": "registrationDeadline",
                  "type": "uint256"
                },
                {
                  "internalType": "uint256",
                  "name": "deregistrationDeadline",
                  "type": "uint256"
                },
                {
                  "components": [
                    {
                      "internalType": "uint256",
                      "name": "datetime",
                      "type": "uint256"
                    },
                    {
                      "internalType": "string",
                      "name": "place",
                      "type": "string"
                    }
                  ],
                  "internalType": "struct CourseDataTypes.Class[]",
                  "name": "classes",
                  "type": "tuple[]"
                },
                {
                  "components": [
                    {
                      "internalType": "uint256",
                      "name": "grade",
                      "type": "uint256"
                    },
                    {
                      "internalType": "uint256",
                      "name": "minPercentage",
                      "type": "uint256"
                    }
                  ],
                  "internalType": "struct CourseDataTypes.GradeLevel[]",
                  "name": "gradeLevels",
                  "type": "tuple[]"
                },
                {
                  "internalType": "string[]",
                  "name": "requirementCourseCodes",
                  "type": "string[]"
                }
              ],
              "internalType": "struct CourseDataTypes.CourseContent",
              "name": "courseContent",
              "type": "tuple"
            }
          ],
          "internalType": "struct CourseDataTypes.Course",
          "name": "",
          "type": "tuple"
        }
      ],
      "stateMutability": "view",
      "type": "function"
    },
    {
      "inputs": [
        {
          "internalType": "string",
          "name": "code",
          "type": "string"
        }
      ],
      "name": "getCourseIdsByCode",
      "outputs": [
        {
          "internalType": "uint256[]",
          "name": "",
          "type": "uint256[]"
        }
      ],
      "stateMutability": "view",
      "type": "function"
    },
    {
      "inputs": [
        {
          "internalType": "uint256",
          "name": "lecturerUId",
          "type": "uint256"
        }
      ],
      "name": "getCourseIdsOfLecturer",
      "outputs": [
        {
          "internalType": "uint256[]",
          "name": "",
          "type": "uint256[]"
        }
      ],
      "stateMutability": "view",
      "type": "function"
    },
    {
      "inputs": [
        {
          "internalType": "uint256",
          "name": "participantUId",
          "type": "uint256"
        }
      ],
      "name": "getCourseIdsOfParticipant",
      "outputs": [
        {
          "internalType": "uint256[]",
          "name": "",
          "type": "uint256[]"
        }
      ],
      "stateMutability": "view",
      "type": "function"
    },
    {
      "inputs": [
        {
          "internalType": "uint256",
          "name": "programId",
          "type": "uint256"
        }
      ],
      "name": "getCourseIdsOfStudyProgram",
      "outputs": [
        {
          "internalType": "uint256[]",
          "name": "",
          "type": "uint256[]"
        }
      ],
      "stateMutability": "view",
      "type": "function"
    },
    {
      "inputs": [
        {
          "internalType": "uint256",
          "name": "courseId",
          "type": "uint256"
        }
      ],
      "name": "getLecturerIdsOfCourse",
      "outputs": [
        {
          "internalType": "uint256[]",
          "name": "",
          "type": "uint256[]"
        }
      ],
      "stateMutability": "view",
      "type": "function"
    },
    {
      "inputs": [
        {
          "internalType": "uint256",
          "name": "courseId",
          "type": "uint256"
        }
      ],
      "name": "getParticipantIdsOfCourse",
      "outputs": [
        {
          "internalType": "uint256[]",
          "name": "",
          "type": "uint256[]"
        }
      ],
      "stateMutability": "view",
      "type": "function"
    },
    {
      "inputs": [
        {
          "internalType": "uint256",
          "name": "courseId",
          "type": "uint256"
        }
      ],
      "name": "getStudyProgramIdsOfCourse",
      "outputs": [
        {
          "internalType": "uint256[]",
          "name": "",
          "type": "uint256[]"
        }
      ],
      "stateMutability": "view",
      "type": "function"
    },
    {
      "inputs": [
        {
          "internalType": "uint256",
          "name": "courseId",
          "type": "uint256"
        },
        {
          "internalType": "uint256",
          "name": "lecturerUId",
          "type": "uint256"
        }
      ],
      "name": "removeLecturer",
      "outputs": [],
      "stateMutability": "nonpayable",
      "type": "function"
    },
    {
      "inputs": [
        {
          "internalType": "uint256",
          "name": "courseId",
          "type": "uint256"
        },
        {
          "internalType": "uint256",
          "name": "participantUId",
          "type": "uint256"
        }
      ],
      "name": "removeParticipant",
      "outputs": [],
      "stateMutability": "nonpayable",
      "type": "function"
    },
    {
      "inputs": [
        {
          "components": [
            {
              "internalType": "uint256",
              "name": "courseId",
              "type": "uint256"
            },
            {
              "components": [
                {
                  "internalType": "string",
                  "name": "title",
                  "type": "string"
                },
                {
                  "internalType": "string",
                  "name": "code",
                  "type": "string"
                },
                {
                  "internalType": "enum CourseDataTypes.CourseType",
                  "name": "courseType",
                  "type": "uint8"
                },
                {
                  "components": [
                    {
                      "internalType": "uint256",
                      "name": "year",
                      "type": "uint256"
                    },
                    {
                      "internalType": "enum CourseDataTypes.SemesterSeason",
                      "name": "season",
                      "type": "uint8"
                    }
                  ],
                  "internalType": "struct CourseDataTypes.Semester",
                  "name": "semester",
                  "type": "tuple"
                },
                {
                  "internalType": "string",
                  "name": "description",
                  "type": "string"
                },
                {
                  "internalType": "string",
                  "name": "examTopics",
                  "type": "string"
                },
                {
                  "internalType": "string",
                  "name": "language",
                  "type": "string"
                },
                {
                  "internalType": "uint256",
                  "name": "ects",
                  "type": "uint256"
                },
                {
                  "internalType": "uint256",
                  "name": "maxPlaces",
                  "type": "uint256"
                },
                {
                  "internalType": "uint256",
                  "name": "registrationStart",
                  "type": "uint256"
                },
                {
                  "internalType": "uint256",
                  "name": "registrationDeadline",
                  "type": "uint256"
                },
                {
                  "internalType": "uint256",
                  "name": "deregistrationDeadline",
                  "type": "uint256"
                },
                {
                  "components": [
                    {
                      "internalType": "uint256",
                      "name": "datetime",
                      "type": "uint256"
                    },
                    {
                      "internalType": "string",
                      "name": "place",
                      "type": "string"
                    }
                  ],
                  "internalType": "struct CourseDataTypes.Class[]",
                  "name": "classes",
                  "type": "tuple[]"
                },
                {
                  "components": [
                    {
                      "internalType": "uint256",
                      "name": "grade",
                      "type": "uint256"
                    },
                    {
                      "internalType": "uint256",
                      "name": "minPercentage",
                      "type": "uint256"
                    }
                  ],
                  "internalType": "struct CourseDataTypes.GradeLevel[]",
                  "name": "gradeLevels",
                  "type": "tuple[]"
                },
                {
                  "internalType": "string[]",
                  "name": "requirementCourseCodes",
                  "type": "string[]"
                }
              ],
              "internalType": "struct CourseDataTypes.CourseContent",
              "name": "courseContent",
              "type": "tuple"
            }
          ],
          "internalType": "struct CourseDataTypes.Course",
          "name": "course",
          "type": "tuple"
        }
      ],
      "name": "storeCourse",
      "outputs": [],
      "stateMutability": "nonpayable",
      "type": "function"
    },
    {
      "inputs": [
        {
          "internalType": "uint256",
          "name": "courseId",
          "type": "uint256"
        },
        {
          "internalType": "uint256",
          "name": "lecturerUId",
          "type": "uint256"
        }
      ],
      "name": "storeLecturer",
      "outputs": [],
      "stateMutability": "nonpayable",
      "type": "function"
    },
    {
      "inputs": [
        {
          "internalType": "uint256",
          "name": "courseId",
          "type": "uint256"
        },
        {
          "internalType": "uint256",
          "name": "participantUId",
          "type": "uint256"
        }
      ],
      "name": "storeParticipant",
      "outputs": [],
      "stateMutability": "nonpayable",
      "type": "function"
    },
    {
      "inputs": [
        {
          "internalType": "uint256",
          "name": "courseId",
          "type": "uint256"
        },
        {
          "internalType": "uint256",
          "name": "programId",
          "type": "uint256"
        }
      ],
      "name": "storeStudyProgram",
      "outputs": [],
      "stateMutability": "nonpayable",
      "type": "function"
    }
  ],
  "bytecode": "0x60806040523480156200001157600080fd5b5060405162005421380380620054218339818101604052810190620000379190620000ec565b8080806000806101000a81548173ffffffffffffffffffffffffffffffffffffffff021916908373ffffffffffffffffffffffffffffffffffffffff1602179055505050506200011e565b600080fd5b600073ffffffffffffffffffffffffffffffffffffffff82169050919050565b6000620000b48262000087565b9050919050565b620000c681620000a7565b8114620000d257600080fd5b50565b600081519050620000e681620000bb565b92915050565b60006020828403121562000105576200010462000082565b5b60006200011584828501620000d5565b91505092915050565b6152f3806200012e6000396000f3fe608060405234801561001057600080fd5b50600436106101005760003560e01c806374bfedc711610097578063bef7a57111610066578063bef7a571146102cf578063c233b21c146102ed578063cc422ded1461031d578063e22cad071461033957610100565b806374bfedc714610223578063bb68402714610253578063bc22884f14610283578063be398d87146102b357610100565b806344508ad0116100d357806344508ad01461018b57806348cd378c146101a75780634a61ddbe146101d75780634c40edf51461020757610100565b806304e48bd1146101055780630b91e28d146101235780631fc87f4914610153578063323b65241461016f575b600080fd5b61010d610369565b60405161011a9190613852565b60405180910390f35b61013d600480360381019061013891906138aa565b610b30565b60405161014a9190613914565b60405180910390f35b61016d60048036038101906101689190613936565b611291565b005b61018960048036038101906101849190613936565b611466565b005b6101a560048036038101906101a09190613936565b61163b565b005b6101c160048036038101906101bc91906138aa565b611810565b6040516101ce9190613a25565b60405180910390f35b6101f160048036038101906101ec91906138aa565b611993565b6040516101fe9190613a25565b60405180910390f35b610221600480360381019061021c9190613936565b611ad7565b005b61023d600480360381019061023891906138aa565b611cac565b60405161024a9190613a25565b60405180910390f35b61026d60048036038101906102689190613aac565b611df0565b60405161027a9190613a25565b60405180910390f35b61029d600480360381019061029891906138aa565b611f42565b6040516102aa9190613a25565b60405180910390f35b6102cd60048036038101906102c89190613936565b6120c5565b005b6102d761229a565b6040516102e49190613b7f565b60405180910390f35b610307600480360381019061030291906138aa565b61244c565b6040516103149190613a25565b60405180910390f35b61033760048036038101906103329190613bc5565b6125cf565b005b610353600480360381019061034e91906138aa565b6129f2565b6040516103609190613a25565b60405180910390f35b606060008054906101000a900473ffffffffffffffffffffffffffffffffffffffff1673ffffffffffffffffffffffffffffffffffffffff166313f44d10336040518263ffffffff1660e01b81526004016103c49190613c4f565b602060405180830381865afa1580156103e1573d6000803e3d6000fd5b505050506040513d601f19601f820116820180604052508101906104059190613ca2565b610444576040517f08c379a000000000000000000000000000000000000000000000000000000000815260040161043b90613d2c565b60405180910390fd5b600060078054905067ffffffffffffffff81111561046557610464613d4c565b5b60405190808252806020026020018201604052801561049e57816020015b61048b61305f565b8152602001906001900390816104835790505b50905060005b600780549050811015610b2857600060066000600784815481106104cb576104ca613d7b565b5b906000526020600020015481526020019081526020016000206040518060400160405290816000820154815260200160018201604051806101e001604052908160008201805461051a90613dd9565b80601f016020809104026020016040519081016040528092919081815260200182805461054690613dd9565b80156105935780601f1061056857610100808354040283529160200191610593565b820191906000526020600020905b81548152906001019060200180831161057657829003601f168201915b505050505081526020016001820180546105ac90613dd9565b80601f01602080910402602001604051908101604052809291908181526020018280546105d890613dd9565b80156106255780601f106105fa57610100808354040283529160200191610625565b820191906000526020600020905b81548152906001019060200180831161060857829003601f168201915b505050505081526020016002820160009054906101000a900460ff1660038111156106535761065261327d565b5b60038111156106655761066461327d565b5b815260200160038201604051806040016040529081600082015481526020016001820160009054906101000a900460ff1660018111156106a8576106a761327d565b5b60018111156106ba576106b961327d565b5b8152505081526020016005820180546106d290613dd9565b80601f01602080910402602001604051908101604052809291908181526020018280546106fe90613dd9565b801561074b5780601f106107205761010080835404028352916020019161074b565b820191906000526020600020905b81548152906001019060200180831161072e57829003601f168201915b5050505050815260200160068201805461076490613dd9565b80601f016020809104026020016040519081016040528092919081815260200182805461079090613dd9565b80156107dd5780601f106107b2576101008083540402835291602001916107dd565b820191906000526020600020905b8154815290600101906020018083116107c057829003601f168201915b505050505081526020016007820180546107f690613dd9565b80601f016020809104026020016040519081016040528092919081815260200182805461082290613dd9565b801561086f5780601f106108445761010080835404028352916020019161086f565b820191906000526020600020905b81548152906001019060200180831161085257829003601f168201915b505050505081526020016008820154815260200160098201548152602001600a8201548152602001600b8201548152602001600c8201548152602001600d8201805480602002602001604051908101604052809291908181526020016000905b8282101561099d57838290600052602060002090600202016040518060400160405290816000820154815260200160018201805461090c90613dd9565b80601f016020809104026020016040519081016040528092919081815260200182805461093890613dd9565b80156109855780601f1061095a57610100808354040283529160200191610985565b820191906000526020600020905b81548152906001019060200180831161096857829003601f168201915b505050505081525050815260200190600101906108cf565b505050508152602001600e8201805480602002602001604051908101604052809291908181526020016000905b82821015610a10578382906000526020600020906002020160405180604001604052908160008201548152602001600182015481525050815260200190600101906109ca565b505050508152602001600f8201805480602002602001604051908101604052809291908181526020016000905b82821015610ae9578382906000526020600020018054610a5c90613dd9565b80601f0160208091040260200160405190810160405280929190818152602001828054610a8890613dd9565b8015610ad55780601f10610aaa57610100808354040283529160200191610ad5565b820191906000526020600020905b815481529060010190602001808311610ab857829003601f168201915b505050505081526020019060010190610a3d565b505050508152505081525050905080838381518110610b0b57610b0a613d7b565b5b60200260200101819052505080610b2190613e39565b90506104a4565b508091505090565b610b3861305f565b60008054906101000a900473ffffffffffffffffffffffffffffffffffffffff1673ffffffffffffffffffffffffffffffffffffffff166313f44d10336040518263ffffffff1660e01b8152600401610b919190613c4f565b602060405180830381865afa158015610bae573d6000803e3d6000fd5b505050506040513d601f19601f82011682018060405250810190610bd29190613ca2565b610c11576040517f08c379a0000000000000000000000000000000000000000000000000000000008152600401610c0890613d2c565b60405180910390fd5b610c6660066000848152602001908152602001600020600001546040518060400160405280600981526020017f436f757273652049440000000000000000000000000000000000000000000000815250612b36565b600660008381526020019081526020016000206040518060400160405290816000820154815260200160018201604051806101e0016040529081600082018054610caf90613dd9565b80601f0160208091040260200160405190810160405280929190818152602001828054610cdb90613dd9565b8015610d285780601f10610cfd57610100808354040283529160200191610d28565b820191906000526020600020905b815481529060010190602001808311610d0b57829003601f168201915b50505050508152602001600182018054610d4190613dd9565b80601f0160208091040260200160405190810160405280929190818152602001828054610d6d90613dd9565b8015610dba5780601f10610d8f57610100808354040283529160200191610dba565b820191906000526020600020905b815481529060010190602001808311610d9d57829003601f168201915b505050505081526020016002820160009054906101000a900460ff166003811115610de857610de761327d565b5b6003811115610dfa57610df961327d565b5b815260200160038201604051806040016040529081600082015481526020016001820160009054906101000a900460ff166001811115610e3d57610e3c61327d565b5b6001811115610e4f57610e4e61327d565b5b815250508152602001600582018054610e6790613dd9565b80601f0160208091040260200160405190810160405280929190818152602001828054610e9390613dd9565b8015610ee05780601f10610eb557610100808354040283529160200191610ee0565b820191906000526020600020905b815481529060010190602001808311610ec357829003601f168201915b50505050508152602001600682018054610ef990613dd9565b80601f0160208091040260200160405190810160405280929190818152602001828054610f2590613dd9565b8015610f725780601f10610f4757610100808354040283529160200191610f72565b820191906000526020600020905b815481529060010190602001808311610f5557829003601f168201915b50505050508152602001600782018054610f8b90613dd9565b80601f0160208091040260200160405190810160405280929190818152602001828054610fb790613dd9565b80156110045780601f10610fd957610100808354040283529160200191611004565b820191906000526020600020905b815481529060010190602001808311610fe757829003601f168201915b505050505081526020016008820154815260200160098201548152602001600a8201548152602001600b8201548152602001600c8201548152602001600d8201805480602002602001604051908101604052809291908181526020016000905b828210156111325783829060005260206000209060020201604051806040016040529081600082015481526020016001820180546110a190613dd9565b80601f01602080910402602001604051908101604052809291908181526020018280546110cd90613dd9565b801561111a5780601f106110ef5761010080835404028352916020019161111a565b820191906000526020600020905b8154815290600101906020018083116110fd57829003601f168201915b50505050508152505081526020019060010190611064565b505050508152602001600e8201805480602002602001604051908101604052809291908181526020016000905b828210156111a55783829060005260206000209060020201604051806040016040529081600082015481526020016001820154815250508152602001906001019061115f565b505050508152602001600f8201805480602002602001604051908101604052809291908181526020016000905b8282101561127e5783829060005260206000200180546111f190613dd9565b80601f016020809104026020016040519081016040528092919081815260200182805461121d90613dd9565b801561126a5780601f1061123f5761010080835404028352916020019161126a565b820191906000526020600020905b81548152906001019060200180831161124d57829003601f168201915b5050505050815260200190600101906111d2565b5050505081525050815250509050919050565b60008054906101000a900473ffffffffffffffffffffffffffffffffffffffff1673ffffffffffffffffffffffffffffffffffffffff166313f44d10336040518263ffffffff1660e01b81526004016112ea9190613c4f565b602060405180830381865afa158015611307573d6000803e3d6000fd5b505050506040513d601f19601f8201168201806040525081019061132b9190613ca2565b61136a576040517f08c379a000000000000000000000000000000000000000000000000000000000815260040161136190613d2c565b60405180910390fd5b6113a9826040518060400160405280600981526020017f436f757273652049440000000000000000000000000000000000000000000000815250612ba5565b61144a816001600085815260200190815260200160002080548060200260200160405190810160405280929190818152602001828054801561140a57602002820191906000526020600020905b8154815260200190600101908083116113f6575b50505050506040518060400160405280600c81526020017f4c65637475726572207549440000000000000000000000000000000000000000815250612c14565b61145681836001612c86565b61146282826002612c86565b5050565b60008054906101000a900473ffffffffffffffffffffffffffffffffffffffff1673ffffffffffffffffffffffffffffffffffffffff166313f44d10336040518263ffffffff1660e01b81526004016114bf9190613c4f565b602060405180830381865afa1580156114dc573d6000803e3d6000fd5b505050506040513d601f19601f820116820180604052508101906115009190613ca2565b61153f576040517f08c379a000000000000000000000000000000000000000000000000000000000815260040161153690613d2c565b60405180910390fd5b61157e826040518060400160405280600981526020017f436f757273652049440000000000000000000000000000000000000000000000815250612ba5565b61161f81600160008581526020019081526020016000208054806020026020016040519081016040528092919081815260200182805480156115df57602002820191906000526020600020905b8154815260200190600101908083116115cb575b50505050506040518060400160405280600c81526020017f4c65637475726572207549440000000000000000000000000000000000000000815250612cec565b61162b81836001612d5d565b61163782826002612d5d565b5050565b60008054906101000a900473ffffffffffffffffffffffffffffffffffffffff1673ffffffffffffffffffffffffffffffffffffffff166313f44d10336040518263ffffffff1660e01b81526004016116949190613c4f565b602060405180830381865afa1580156116b1573d6000803e3d6000fd5b505050506040513d601f19601f820116820180604052508101906116d59190613ca2565b611714576040517f08c379a000000000000000000000000000000000000000000000000000000000815260040161170b90613d2c565b60405180910390fd5b611753826040518060400160405280600981526020017f436f757273652049440000000000000000000000000000000000000000000000815250612ba5565b6117f481600360008581526020019081526020016000208054806020026020016040519081016040528092919081815260200182805480156117b457602002820191906000526020600020905b8154815260200190600101908083116117a0575b50505050506040518060400160405280600f81526020017f5061727469636970616e74207549440000000000000000000000000000000000815250612cec565b61180081836003612d5d565b61180c82826004612d5d565b5050565b606060008054906101000a900473ffffffffffffffffffffffffffffffffffffffff1673ffffffffffffffffffffffffffffffffffffffff166313f44d10336040518263ffffffff1660e01b815260040161186b9190613c4f565b602060405180830381865afa158015611888573d6000803e3d6000fd5b505050506040513d601f19601f820116820180604052508101906118ac9190613ca2565b6118eb576040517f08c379a00000000000000000000000000000000000000000000000000000000081526004016118e290613d2c565b60405180910390fd5b61192a826040518060400160405280600981526020017f436f757273652049440000000000000000000000000000000000000000000000815250612ba5565b6009600083815260200190815260200160002080548060200260200160405190810160405280929190818152602001828054801561198757602002820191906000526020600020905b815481526020019060010190808311611973575b50505050509050919050565b606060008054906101000a900473ffffffffffffffffffffffffffffffffffffffff1673ffffffffffffffffffffffffffffffffffffffff166313f44d10336040518263ffffffff1660e01b81526004016119ee9190613c4f565b602060405180830381865afa158015611a0b573d6000803e3d6000fd5b505050506040513d601f19601f82011682018060405250810190611a2f9190613ca2565b611a6e576040517f08c379a0000000000000000000000000000000000000000000000000000000008152600401611a6590613d2c565b60405180910390fd5b60046000838152602001908152602001600020805480602002602001604051908101604052809291908181526020018280548015611acb57602002820191906000526020600020905b815481526020019060010190808311611ab7575b50505050509050919050565b60008054906101000a900473ffffffffffffffffffffffffffffffffffffffff1673ffffffffffffffffffffffffffffffffffffffff166313f44d10336040518263ffffffff1660e01b8152600401611b309190613c4f565b602060405180830381865afa158015611b4d573d6000803e3d6000fd5b505050506040513d601f19601f82011682018060405250810190611b719190613ca2565b611bb0576040517f08c379a0000000000000000000000000000000000000000000000000000000008152600401611ba790613d2c565b60405180910390fd5b611bef826040518060400160405280600981526020017f436f757273652049440000000000000000000000000000000000000000000000815250612ba5565b611c908160036000858152602001908152602001600020805480602002602001604051908101604052809291908181526020018280548015611c5057602002820191906000526020600020905b815481526020019060010190808311611c3c575b50505050506040518060400160405280600f81526020017f5061727469636970616e74207549440000000000000000000000000000000000815250612c14565b611c9c81836003612c86565b611ca882826004612c86565b5050565b606060008054906101000a900473ffffffffffffffffffffffffffffffffffffffff1673ffffffffffffffffffffffffffffffffffffffff166313f44d10336040518263ffffffff1660e01b8152600401611d079190613c4f565b602060405180830381865afa158015611d24573d6000803e3d6000fd5b505050506040513d601f19601f82011682018060405250810190611d489190613ca2565b611d87576040517f08c379a0000000000000000000000000000000000000000000000000000000008152600401611d7e90613d2c565b60405180910390fd5b600a6000838152602001908152602001600020805480602002602001604051908101604052809291908181526020018280548015611de457602002820191906000526020600020905b815481526020019060010190808311611dd0575b50505050509050919050565b606060008054906101000a900473ffffffffffffffffffffffffffffffffffffffff1673ffffffffffffffffffffffffffffffffffffffff166313f44d10336040518263ffffffff1660e01b8152600401611e4b9190613c4f565b602060405180830381865afa158015611e68573d6000803e3d6000fd5b505050506040513d601f19601f82011682018060405250810190611e8c9190613ca2565b611ecb576040517f08c379a0000000000000000000000000000000000000000000000000000000008152600401611ec290613d2c565b60405180910390fd5b60058383604051611edd929190613ec0565b9081526020016040518091039020805480602002602001604051908101604052809291908181526020018280548015611f3557602002820191906000526020600020905b815481526020019060010190808311611f21575b5050505050905092915050565b606060008054906101000a900473ffffffffffffffffffffffffffffffffffffffff1673ffffffffffffffffffffffffffffffffffffffff166313f44d10336040518263ffffffff1660e01b8152600401611f9d9190613c4f565b602060405180830381865afa158015611fba573d6000803e3d6000fd5b505050506040513d601f19601f82011682018060405250810190611fde9190613ca2565b61201d576040517f08c379a000000000000000000000000000000000000000000000000000000000815260040161201490613d2c565b60405180910390fd5b61205c826040518060400160405280600981526020017f436f757273652049440000000000000000000000000000000000000000000000815250612ba5565b600360008381526020019081526020016000208054806020026020016040519081016040528092919081815260200182805480156120b957602002820191906000526020600020905b8154815260200190600101908083116120a5575b50505050509050919050565b60008054906101000a900473ffffffffffffffffffffffffffffffffffffffff1673ffffffffffffffffffffffffffffffffffffffff166313f44d10336040518263ffffffff1660e01b815260040161211e9190613c4f565b602060405180830381865afa15801561213b573d6000803e3d6000fd5b505050506040513d601f19601f8201168201806040525081019061215f9190613ca2565b61219e576040517f08c379a000000000000000000000000000000000000000000000000000000000815260040161219590613d2c565b60405180910390fd5b6121dd826040518060400160405280600981526020017f436f757273652049440000000000000000000000000000000000000000000000815250612ba5565b61227e816009600085815260200190815260200160002080548060200260200160405190810160405280929190818152602001828054801561223e57602002820191906000526020600020905b81548152602001906001019080831161222a575b50505050506040518060400160405280600a81526020017f50726f6772616d20494400000000000000000000000000000000000000000000815250612c14565b61228a81836009612c86565b6122968282600a612c86565b5050565b606060008054906101000a900473ffffffffffffffffffffffffffffffffffffffff1673ffffffffffffffffffffffffffffffffffffffff166313f44d10336040518263ffffffff1660e01b81526004016122f59190613c4f565b602060405180830381865afa158015612312573d6000803e3d6000fd5b505050506040513d601f19601f820116820180604052508101906123369190613ca2565b612375576040517f08c379a000000000000000000000000000000000000000000000000000000000815260040161236c90613d2c565b60405180910390fd5b6008805480602002602001604051908101604052809291908181526020016000905b828210156124435783829060005260206000200180546123b690613dd9565b80601f01602080910402602001604051908101604052809291908181526020018280546123e290613dd9565b801561242f5780601f106124045761010080835404028352916020019161242f565b820191906000526020600020905b81548152906001019060200180831161241257829003601f168201915b505050505081526020019060010190612397565b50505050905090565b606060008054906101000a900473ffffffffffffffffffffffffffffffffffffffff1673ffffffffffffffffffffffffffffffffffffffff166313f44d10336040518263ffffffff1660e01b81526004016124a79190613c4f565b602060405180830381865afa1580156124c4573d6000803e3d6000fd5b505050506040513d601f19601f820116820180604052508101906124e89190613ca2565b612527576040517f08c379a000000000000000000000000000000000000000000000000000000000815260040161251e90613d2c565b60405180910390fd5b612566826040518060400160405280600981526020017f436f757273652049440000000000000000000000000000000000000000000000815250612ba5565b600160008381526020019081526020016000208054806020026020016040519081016040528092919081815260200182805480156125c357602002820191906000526020600020905b8154815260200190600101908083116125af575b50505050509050919050565b60008054906101000a900473ffffffffffffffffffffffffffffffffffffffff1673ffffffffffffffffffffffffffffffffffffffff166313f44d10336040518263ffffffff1660e01b81526004016126289190613c4f565b602060405180830381865afa158015612645573d6000803e3d6000fd5b505050506040513d601f19601f820116820180604052508101906126699190613ca2565b6126a8576040517f08c379a000000000000000000000000000000000000000000000000000000000815260040161269f90613d2c565b60405180910390fd5b6126eb81600001356040518060400160405280600981526020017f436f757273652049440000000000000000000000000000000000000000000000815250612ba5565b6127446006600083600001358152602001908152602001600020600001546040518060400160405280600981526020017f436f757273652049440000000000000000000000000000000000000000000000815250612da5565b600060058280602001906127589190613ee8565b80602001906127679190613f11565b604051612775929190613ec0565b9081526020016040518091039020905080826000013590806001815401808255809150506001900390600052602060002001600090919091909150558060058380602001906127c49190613ee8565b80602001906127d39190613f11565b6040516127e1929190613ec0565b90815260200160405180910390209080546127fd92919061307f565b5061293a8280602001906128119190613ee8565b80602001906128209190613f11565b8080601f016020809104026020016040519081016040528093929190818152602001838380828437600081840152601f19601f820116905080830192505050505050506008805480602002602001604051908101604052809291908181526020016000905b828210156129315783829060005260206000200180546128a490613dd9565b80601f01602080910402602001604051908101604052809291908181526020018280546128d090613dd9565b801561291d5780601f106128f25761010080835404028352916020019161291d565b820191906000526020600020905b81548152906001019060200180831161290057829003601f168201915b505050505081526020019060010190612885565b50505050612e15565b61299a5760088280602001906129509190613ee8565b806020019061295f9190613f11565b9091806001815401808255809150506001900390600052602060002001600090919290919290919290919250918261299892919061412b565b505b81600660008460000135815260200190815260200160002081816129be9190614f04565b9050506007826000013590806001815401808255809150506001900390600052602060002001600090919091909150555050565b606060008054906101000a900473ffffffffffffffffffffffffffffffffffffffff1673ffffffffffffffffffffffffffffffffffffffff166313f44d10336040518263ffffffff1660e01b8152600401612a4d9190613c4f565b602060405180830381865afa158015612a6a573d6000803e3d6000fd5b505050506040513d601f19601f82011682018060405250810190612a8e9190613ca2565b612acd576040517f08c379a0000000000000000000000000000000000000000000000000000000008152600401612ac490613d2c565b60405180910390fd5b60026000838152602001908152602001600020805480602002602001604051908101604052809291908181526020018280548015612b2a57602002820191906000526020600020905b815481526020019060010190808311612b16575b50505050509050919050565b612b3f82612e2c565b81604051602001612b509190614f8f565b60405160208183030381529060405290612ba0576040517f08c379a0000000000000000000000000000000000000000000000000000000008152600401612b979190614fea565b60405180910390fd5b505050565b612bae82612e2c565b81604051602001612bbf9190615058565b60405160208183030381529060405290612c0f576040517f08c379a0000000000000000000000000000000000000000000000000000000008152600401612c069190614fea565b60405180910390fd5b505050565b612c1e8383612e39565b1581604051602001612c309190615112565b60405160208183030381529060405290612c80576040517f08c379a0000000000000000000000000000000000000000000000000000000008152600401612c779190614fea565b60405180910390fd5b50505050565b600081600084815260200190815260200160002090508084908060018154018082558091505060019003906000526020600020016000909190919091505580826000858152602001908152602001600020908054612ce592919061307f565b5050505050565b612cf68383612e39565b81604051602001612d07919061518b565b60405160208183030381529060405290612d57576040517f08c379a0000000000000000000000000000000000000000000000000000000008152600401612d4e9190614fea565b60405180910390fd5b50505050565b60008160008481526020019081526020016000209050612d7d8482612e50565b80826000858152602001908152602001600020908054612d9e92919061307f565b5050505050565b612dae82612e2c565b1581604051602001612dc09190615204565b60405160208183030381529060405290612e10576040517f08c379a0000000000000000000000000000000000000000000000000000000008152600401612e079190614fea565b60405180910390fd5b505050565b600080612e228484612f63565b1215905092915050565b6000808214159050919050565b600080612e468484612fe8565b1215905092915050565b6000612eab8383805480602002602001604051908101604052809291908181526020018280548015612ea157602002820191906000526020600020905b815481526020019060010190808311612e8d575b5050505050612fe8565b905060008112612f5e57600081905060008190505b60018480549050612ed19190615226565b811015612f345783600182612ee6919061525a565b81548110612ef757612ef6613d7b565b5b9060005260206000200154848281548110612f1557612f14613d7b565b5b906000526020600020018190555080612f2d90613e39565b9050612ec0565b5082805480612f4657612f4561528e565b5b60019003818190600052602060002001600090559055505b505050565b600080600090505b8251811015612fbd578380519060200120838281518110612f8f57612f8e613d7b565b5b60200260200101518051906020012003612fac5780915050612fe2565b80612fb690613e39565b9050612f6b565b507fffffffffffffffffffffffffffffffffffffffffffffffffffffffffffffffff90505b92915050565b600080600090505b8251811015613034578383828151811061300d5761300c613d7b565b5b6020026020010151036130235780915050613059565b8061302d90613e39565b9050612ff0565b507fffffffffffffffffffffffffffffffffffffffffffffffffffffffffffffffff90505b92915050565b6040518060400160405280600081526020016130796130d1565b81525090565b8280548282559060005260206000209081019282156130c05760005260206000209182015b828111156130bf5782548255916001019190600101906130a4565b5b5090506130cd919061315f565b5090565b604051806101e001604052806060815260200160608152602001600060038111156130ff576130fe61327d565b5b815260200161310c61317c565b815260200160608152602001606081526020016060815260200160008152602001600081526020016000815260200160008152602001600081526020016060815260200160608152602001606081525090565b5b80821115613178576000816000905550600101613160565b5090565b604051806040016040528060008152602001600060018111156131a2576131a161327d565b5b81525090565b600081519050919050565b600082825260208201905092915050565b6000819050602082019050919050565b6000819050919050565b6131e7816131d4565b82525050565b600081519050919050565b600082825260208201905092915050565b60005b8381101561322757808201518184015260208101905061320c565b60008484015250505050565b6000601f19601f8301169050919050565b600061324f826131ed565b61325981856131f8565b9350613269818560208601613209565b61327281613233565b840191505092915050565b7f4e487b7100000000000000000000000000000000000000000000000000000000600052602160045260246000fd5b600481106132bd576132bc61327d565b5b50565b60008190506132ce826132ac565b919050565b60006132de826132c0565b9050919050565b6132ee816132d3565b82525050565b600281106133055761330461327d565b5b50565b6000819050613316826132f4565b919050565b600061332682613308565b9050919050565b6133368161331b565b82525050565b60408201600082015161335260008501826131de565b506020820151613365602085018261332d565b50505050565b600081519050919050565b600082825260208201905092915050565b6000819050602082019050919050565b60006040830160008301516133af60008601826131de565b50602083015184820360208601526133c78282613244565b9150508091505092915050565b60006133e08383613397565b905092915050565b6000602082019050919050565b60006134008261336b565b61340a8185613376565b93508360208202850161341c85613387565b8060005b85811015613458578484038952815161343985826133d4565b9450613444836133e8565b925060208a01995050600181019050613420565b50829750879550505050505092915050565b600081519050919050565b600082825260208201905092915050565b6000819050602082019050919050565b6040820160008201516134ac60008501826131de565b5060208201516134bf60208501826131de565b50505050565b60006134d18383613496565b60408301905092915050565b6000602082019050919050565b60006134f58261346a565b6134ff8185613475565b935061350a83613486565b8060005b8381101561353b57815161352288826134c5565b975061352d836134dd565b92505060018101905061350e565b5085935050505092915050565b600081519050919050565b600082825260208201905092915050565b6000819050602082019050919050565b60006135808383613244565b905092915050565b6000602082019050919050565b60006135a082613548565b6135aa8185613553565b9350836020820285016135bc85613564565b8060005b858110156135f857848403895281516135d98582613574565b94506135e483613588565b925060208a019950506001810190506135c0565b50829750879550505050505092915050565b60006102008301600083015184820360008601526136288282613244565b915050602083015184820360208601526136428282613244565b915050604083015161365760408601826132e5565b50606083015161366a606086018261333c565b50608083015184820360a08601526136828282613244565b91505060a083015184820360c086015261369c8282613244565b91505060c083015184820360e08601526136b68282613244565b91505060e08301516136cc6101008601826131de565b506101008301516136e16101208601826131de565b506101208301516136f66101408601826131de565b5061014083015161370b6101608601826131de565b506101608301516137206101808601826131de565b506101808301518482036101a086015261373a82826133f5565b9150506101a08301518482036101c086015261375682826134ea565b9150506101c08301518482036101e08601526137728282613595565b9150508091505092915050565b600060408301600083015161379760008601826131de565b50602083015184820360208601526137af828261360a565b9150508091505092915050565b60006137c8838361377f565b905092915050565b6000602082019050919050565b60006137e8826131a8565b6137f281856131b3565b935083602082028501613804856131c4565b8060005b85811015613840578484038952815161382185826137bc565b945061382c836137d0565b925060208a01995050600181019050613808565b50829750879550505050505092915050565b6000602082019050818103600083015261386c81846137dd565b905092915050565b600080fd5b600080fd5b613887816131d4565b811461389257600080fd5b50565b6000813590506138a48161387e565b92915050565b6000602082840312156138c0576138bf613874565b5b60006138ce84828501613895565b91505092915050565b60006040830160008301516138ef60008601826131de565b5060208301518482036020860152613907828261360a565b9150508091505092915050565b6000602082019050818103600083015261392e81846138d7565b905092915050565b6000806040838503121561394d5761394c613874565b5b600061395b85828601613895565b925050602061396c85828601613895565b9150509250929050565b600081519050919050565b600082825260208201905092915050565b6000819050602082019050919050565b60006139ae83836131de565b60208301905092915050565b6000602082019050919050565b60006139d282613976565b6139dc8185613981565b93506139e783613992565b8060005b83811015613a185781516139ff88826139a2565b9750613a0a836139ba565b9250506001810190506139eb565b5085935050505092915050565b60006020820190508181036000830152613a3f81846139c7565b905092915050565b600080fd5b600080fd5b600080fd5b60008083601f840112613a6c57613a6b613a47565b5b8235905067ffffffffffffffff811115613a8957613a88613a4c565b5b602083019150836001820283011115613aa557613aa4613a51565b5b9250929050565b60008060208385031215613ac357613ac2613874565b5b600083013567ffffffffffffffff811115613ae157613ae0613879565b5b613aed85828601613a56565b92509250509250929050565b600082825260208201905092915050565b6000613b1582613548565b613b1f8185613af9565b935083602082028501613b3185613564565b8060005b85811015613b6d5784840389528151613b4e8582613574565b9450613b5983613588565b925060208a01995050600181019050613b35565b50829750879550505050505092915050565b60006020820190508181036000830152613b998184613b0a565b905092915050565b600080fd5b600060408284031215613bbc57613bbb613ba1565b5b81905092915050565b600060208284031215613bdb57613bda613874565b5b600082013567ffffffffffffffff811115613bf957613bf8613879565b5b613c0584828501613ba6565b91505092915050565b600073ffffffffffffffffffffffffffffffffffffffff82169050919050565b6000613c3982613c0e565b9050919050565b613c4981613c2e565b82525050565b6000602082019050613c646000830184613c40565b92915050565b60008115159050919050565b613c7f81613c6a565b8114613c8a57600080fd5b50565b600081519050613c9c81613c76565b92915050565b600060208284031215613cb857613cb7613874565b5b6000613cc684828501613c8d565b91505092915050565b600082825260208201905092915050565b7f5468652073656e646572206973206e6f742077686974656c6973746564000000600082015250565b6000613d16601d83613ccf565b9150613d2182613ce0565b602082019050919050565b60006020820190508181036000830152613d4581613d09565b9050919050565b7f4e487b7100000000000000000000000000000000000000000000000000000000600052604160045260246000fd5b7f4e487b7100000000000000000000000000000000000000000000000000000000600052603260045260246000fd5b7f4e487b7100000000000000000000000000000000000000000000000000000000600052602260045260246000fd5b60006002820490506001821680613df157607f821691505b602082108103613e0457613e03613daa565b5b50919050565b7f4e487b7100000000000000000000000000000000000000000000000000000000600052601160045260246000fd5b6000613e44826131d4565b91507fffffffffffffffffffffffffffffffffffffffffffffffffffffffffffffffff8203613e7657613e75613e0a565b5b600182019050919050565b600081905092915050565b82818337600083830152505050565b6000613ea78385613e81565b9350613eb4838584613e8c565b82840190509392505050565b6000613ecd828486613e9b565b91508190509392505050565b600080fd5b600080fd5b600080fd5b60008235600161020003833603038112613f0557613f04613ed9565b5b80830191505092915050565b60008083356001602003843603038112613f2e57613f2d613ed9565b5b80840192508235915067ffffffffffffffff821115613f5057613f4f613ede565b5b602083019250600182023603831315613f6c57613f6b613ee3565b5b509250929050565b600082905092915050565b60008190508160005260206000209050919050565b60006020601f8301049050919050565b600082821b905092915050565b600060088302613fe17fffffffffffffffffffffffffffffffffffffffffffffffffffffffffffffffff82613fa4565b613feb8683613fa4565b95508019841693508086168417925050509392505050565b6000819050919050565b600061402861402361401e846131d4565b614003565b6131d4565b9050919050565b6000819050919050565b6140428361400d565b61405661404e8261402f565b848454613fb1565b825550505050565b600090565b61406b61405e565b614076818484614039565b505050565b5b8181101561409a5761408f600082614063565b60018101905061407c565b5050565b601f8211156140df576140b081613f7f565b6140b984613f94565b810160208510156140c8578190505b6140dc6140d485613f94565b83018261407b565b50505b505050565b600082821c905092915050565b6000614102600019846008026140e4565b1980831691505092915050565b600061411b83836140f1565b9150826002028217905092915050565b6141358383613f74565b67ffffffffffffffff81111561414e5761414d613d4c565b5b6141588254613dd9565b61416382828561409e565b6000601f8311600181146141925760008415614180578287013590505b61418a858261410f565b8655506141f2565b601f1984166141a086613f7f565b60005b828110156141c8578489013582556001820191506020850194506020810190506141a3565b868310156141e557848901356141e1601f8916826140f1565b8355505b6001600288020188555050505b50505050505050565b7f4e487b7100000000000000000000000000000000000000000000000000000000600052600060045260246000fd5b600081356142378161387e565b80915050919050565b60008160001b9050919050565b60007fffffffffffffffffffffffffffffffffffffffffffffffffffffffffffffffff61427984614240565b9350801983169250808416831791505092915050565b6142988261400d565b6142ab6142a48261402f565b835461424d565b8255505050565b6142bd83838361412b565b505050565b600481106142cf57600080fd5b50565b600081356142df816142c2565b80915050919050565b600060ff6142f584614240565b9350801983169250808416831791505092915050565b6000614316826132c0565b9050919050565b6000819050919050565b6143308261430b565b61434361433c8261431d565b83546142e8565b8255505050565b6002811061435757600080fd5b50565b600081356143678161434a565b80915050919050565b600061437b82613308565b9050919050565b6000819050919050565b61439582614370565b6143a86143a182614382565b83546142e8565b8255505050565b6000810160008301806143c18161422a565b90506143cd818461428f565b5050506001810160208301806143e28161435a565b90506143ee818461438c565b5050505050565b6143ff82826143af565b5050565b600080833560016020038436030381126144205761441f613ed9565b5b80840192508235915067ffffffffffffffff82111561444257614441613ede565b5b60208301925060208202360383131561445e5761445d613ee3565b5b509250929050565b6000819050919050565b60008235600160400383360303811261448c5761448b613ed9565b5b80830191505092915050565b600081549050919050565b60006144ae826131d4565b91506144b9836131d4565b92508282026144c7816131d4565b915082820484148315176144de576144dd613e0a565b5b5092915050565b60008190506144f58260026144a3565b9050919050565b60008190508160005260206000209050919050565b6145417fffffffffffffffffffffffffffffffffffffffffffffffffffffffffffffffff836020036008026140e4565b815481168255505050565b61455581613f7f565b61456083825461410f565b8083556000825550505050565b60208410600081146145c857601f8411600181146145965761458f868561410f565b83556145c2565b61459f83613f7f565b6145b66145ab87613f94565b82016001830161407b565b6145c0878561454c565b505b50614615565b6145d182613f7f565b6145da86613f94565b8101601f871680156145f4576145f38160018403614511565b5b61460861460088613f94565b84018361407b565b6001886002021785555050505b5050505050565b6801000000000000000084111561463657614635613d4c565b5b602083106000811461468157602085106000811461465f57614658868561410f565b835561467b565b8360ff191693508361467084613f7f565b556001866002020183555b5061468b565b6001856002020182555b5050505050565b805461469d81613dd9565b808411156146b2576146b18482848661461c565b5b808410156146c7576146c68482848661456d565b5b50505050565b818110156146eb576146e0600082614063565b6001810190506146cd565b5050565b6146fa600082614692565b50565b6000821461470e5761470d6141fb565b5b614717816146ef565b5050565b6147286000808301614063565b6147366000600183016146fd565b50565b6000821461474a576147496141fb565b5b6147538161471b565b5050565b5b818110156147765761476b600082614739565b600281019050614758565b5050565b818310156147b35761478b826144e5565b614794846144e5565b61479d836144fc565b8181018382016147ad8183614757565b50505050505b505050565b680100000000000000008211156147d2576147d1613d4c565b5b6147db81614498565b8282556147e983828461477a565b505050565b600082905092915050565b60008101600083018061480b8161422a565b9050614817818461428f565b505050600181016020830161482c8185613f11565b6148378183866142b2565b505050505050565b61484982826147f9565b5050565b61485783836147ee565b61486181836147b8565b61486a83614466565b614873836144fc565b60005b838110156148aa576148888387614470565b614892818461483f565b60208401935060028301925050600181019050614876565b50505050505050565b6148be83838361484d565b505050565b600080833560016020038436030381126148e0576148df613ed9565b5b80840192508235915067ffffffffffffffff82111561490257614901613ede565b5b60208301925060408202360383131561491e5761491d613ee3565b5b509250929050565b6000819050919050565b600081549050919050565b600081905061494b8260026144a3565b9050919050565b60008190508160005260206000209050919050565b6149746000808301614063565b614982600060018301614063565b50565b60008214614996576149956141fb565b5b61499f81614967565b5050565b5b818110156149c2576149b7600082614985565b6002810190506149a4565b5050565b818310156149ff576149d78261493b565b6149e08461493b565b6149e983614952565b8181018382016149f981836149a3565b50505050505b505050565b68010000000000000000821115614a1e57614a1d613d4c565b5b614a2781614930565b828255614a358382846149c6565b505050565b600082905092915050565b600081016000830180614a578161422a565b9050614a63818461428f565b505050600181016020830180614a788161422a565b9050614a84818461428f565b5050505050565b614a958282614a45565b5050565b614aa38383614a3a565b614aad8183614a04565b614ab683614926565b614abf83614952565b60005b83811015614aed5782614ad58184614a8b565b60408401935060028301925050600181019050614ac2565b50505050505050565b614b01838383614a99565b505050565b60008083356001602003843603038112614b2357614b22613ed9565b5b80840192508235915067ffffffffffffffff821115614b4557614b44613ede565b5b602083019250602082023603831315614b6157614b60613ee3565b5b509250929050565b6000819050919050565b600081549050919050565b60008190506001806001038301049050919050565b60008190508160005260206000209050919050565b5b81811015614bc757614bbc6000826146fd565b600181019050614ba9565b5050565b81831015614c0457614bdc82614b7e565b614be584614b7e565b614bee83614b93565b818101838201614bfe8183614ba8565b50505050505b505050565b68010000000000000000821115614c2357614c22613d4c565b5b614c2c81614b73565b828255614c3a838284614bcb565b505050565b600082905092915050565b614c548383614c3f565b614c5e8183614c09565b614c6783614b69565b614c7083614b93565b60005b83811015614ca957614c858387613f11565b614c908183866142b2565b6020850194506001840193505050600181019050614c73565b50505050505050565b614cbd838383614c4a565b505050565b6000810160008301614cd48185613f11565b614cdf8183866142b2565b505050506001810160208301614cf58185613f11565b614d008183866142b2565b50505050600281016040830180614d16816142d2565b9050614d228184614327565b505050600381016060830180614d3881846143f5565b5050506005810160a08301614d4d8185613f11565b614d588183866142b2565b505050506006810160c08301614d6e8185613f11565b614d798183866142b2565b505050506007810160e08301614d8f8185613f11565b614d9a8183866142b2565b5050505060088101610100830180614db18161422a565b9050614dbd818461428f565b50505060098101610120830180614dd38161422a565b9050614ddf818461428f565b505050600a8101610140830180614df58161422a565b9050614e01818461428f565b505050600b8101610160830180614e178161422a565b9050614e23818461428f565b505050600c8101610180830180614e398161422a565b9050614e45818461428f565b505050600d81016101a08301614e5b8185614403565b614e668183866148b3565b50505050600e81016101c08301614e7d81856148c3565b614e88818386614af6565b50505050600f81016101e08301614e9f8185614b06565b614eaa818386614cb2565b505050505050565b614ebc8282614cc2565b5050565b600081016000830180614ed28161422a565b9050614ede818461428f565b5050506001810160208301614ef38185613ee8565b614efd8184614eb2565b5050505050565b614f0e8282614ec0565b5050565b6000614f1d826131ed565b614f278185613e81565b9350614f37818560208601613209565b80840191505092915050565b7f20646f6573206e6f7420657869737420617420676976656e2049440000000000600082015250565b6000614f79601b83613e81565b9150614f8482614f43565b601b82019050919050565b6000614f9b8284614f12565b9150614fa682614f6c565b915081905092915050565b6000614fbc826131ed565b614fc68185613ccf565b9350614fd6818560208601613209565b614fdf81613233565b840191505092915050565b600060208201905081810360008301526150048184614fb1565b905092915050565b7f496e76616c696420000000000000000000000000000000000000000000000000600082015250565b6000615042600883613e81565b915061504d8261500c565b600882019050919050565b600061506382615035565b915061506f8284614f12565b915081905092915050565b7f56616c756520776974682074686520676976656e200000000000000000000000600082015250565b60006150b0601583613e81565b91506150bb8261507a565b601582019050919050565b7f2068617320616c7265616479206265656e206164646564000000000000000000600082015250565b60006150fc601783613e81565b9150615107826150c6565b601782019050919050565b600061511d826150a3565b91506151298284614f12565b9150615134826150ef565b915081905092915050565b7f20686173206e6f74206265656e20616464656400000000000000000000000000600082015250565b6000615175601383613e81565b91506151808261513f565b601382019050919050565b6000615196826150a3565b91506151a28284614f12565b91506151ad82615168565b915081905092915050565b7f20616c72656164792065786973747320617420676976656e2049440000000000600082015250565b60006151ee601b83613e81565b91506151f9826151b8565b601b82019050919050565b60006152108284614f12565b915061521b826151e1565b915081905092915050565b6000615231826131d4565b915061523c836131d4565b925082820390508181111561525457615253613e0a565b5b92915050565b6000615265826131d4565b9150615270836131d4565b925082820190508082111561528857615287613e0a565b5b92915050565b7f4e487b7100000000000000000000000000000000000000000000000000000000600052603160045260246000fdfea264697066735822122004452fce97c47f16c68fefad5192e7c3b7a4454cc167ce50ea440dc9d9dd814864736f6c63430008110033",
  "linkReferences": {},
  "deployedLinkReferences": {}
}