{
  "_format": "hh-sol-artifact-1",
  "contractName": "PerformanceDataManager",
  "sourceName": "contracts/data/datamanager/PerformanceDataManager.sol",
  "abi": [
    {
      "inputs": [
        {
          "internalType": "address",
          "name": "performanceStorageAddress",
          "type": "address"
        },
        {
          "internalType": "address",
          "name": "gradeStorageAddress",
          "type": "address"
        },
        {
          "internalType": "address",
          "name": "accessWhitelistAddress",
          "type": "address"
        }
      ],
      "stateMutability": "nonpayable",
      "type": "constructor"
    },
    {
      "inputs": [
        {
          "internalType": "uint256",
          "name": "uId",
          "type": "uint256"
        },
        {
          "internalType": "uint256",
          "name": "assessmentId",
          "type": "uint256"
        }
      ],
      "name": "getAchievedPoints",
      "outputs": [
        {
          "internalType": "uint256",
          "name": "",
          "type": "uint256"
        }
      ],
      "stateMutability": "view",
      "type": "function"
    },
    {
      "inputs": [
        {
          "internalType": "uint256",
          "name": "uId",
          "type": "uint256"
        },
        {
          "internalType": "uint256",
          "name": "assessmentId",
          "type": "uint256"
        }
      ],
      "name": "getAttendanceValue",
      "outputs": [
        {
          "internalType": "bool",
          "name": "",
          "type": "bool"
        }
      ],
      "stateMutability": "view",
      "type": "function"
    },
    {
      "inputs": [
        {
          "internalType": "uint256",
          "name": "uId",
          "type": "uint256"
        },
        {
          "internalType": "uint256",
          "name": "assessmentId",
          "type": "uint256"
        }
      ],
      "name": "getEvaluation",
      "outputs": [
        {
          "components": [
            {
              "internalType": "bool",
              "name": "isSet",
              "type": "bool"
            },
            {
              "internalType": "uint256",
              "name": "datetime",
              "type": "uint256"
            },
            {
              "internalType": "uint256",
              "name": "achievedPoints",
              "type": "uint256"
            },
            {
              "internalType": "string",
              "name": "feedback",
              "type": "string"
            },
            {
              "internalType": "uint256",
              "name": "lecturerUId",
              "type": "uint256"
            }
          ],
          "internalType": "struct PerformanceDataTypes.Evaluation",
          "name": "",
          "type": "tuple"
        }
      ],
      "stateMutability": "view",
      "type": "function"
    },
    {
      "inputs": [
        {
          "internalType": "uint256",
          "name": "uId",
          "type": "uint256"
        },
        {
          "internalType": "uint256",
          "name": "assessmentId",
          "type": "uint256"
        }
      ],
      "name": "getExamAttendance",
      "outputs": [
        {
          "components": [
            {
              "internalType": "bool",
              "name": "isSet",
              "type": "bool"
            },
            {
              "internalType": "bool",
              "name": "hasAttended",
              "type": "bool"
            },
            {
              "internalType": "uint256",
              "name": "confirmationDateTime",
              "type": "uint256"
            }
          ],
          "internalType": "struct PerformanceDataTypes.ExamAttendance",
          "name": "",
          "type": "tuple"
        }
      ],
      "stateMutability": "view",
      "type": "function"
    },
    {
      "inputs": [
        {
          "internalType": "uint256",
          "name": "uId",
          "type": "uint256"
        },
        {
          "internalType": "uint256",
          "name": "courseId",
          "type": "uint256"
        }
      ],
      "name": "getGrade",
      "outputs": [
        {
          "components": [
            {
              "internalType": "bool",
              "name": "isSet",
              "type": "bool"
            },
            {
              "internalType": "uint256",
              "name": "value",
              "type": "uint256"
            },
            {
              "internalType": "string",
              "name": "feedback",
              "type": "string"
            },
            {
              "internalType": "uint256",
              "name": "datetime",
              "type": "uint256"
            },
            {
              "internalType": "uint256",
              "name": "lecturerUId",
              "type": "uint256"
            },
            {
              "internalType": "bool",
              "name": "isFinal",
              "type": "bool"
            }
          ],
          "internalType": "struct PerformanceDataTypes.Grade",
          "name": "",
          "type": "tuple"
        }
      ],
      "stateMutability": "view",
      "type": "function"
    },
    {
      "inputs": [
        {
          "internalType": "uint256",
          "name": "uId",
          "type": "uint256"
        },
        {
          "internalType": "uint256",
          "name": "assessmentId",
          "type": "uint256"
        }
      ],
      "name": "getSubmission",
      "outputs": [
        {
          "components": [
            {
              "internalType": "bool",
              "name": "isSet",
              "type": "bool"
            },
            {
              "internalType": "uint256",
              "name": "submissionDatetime",
              "type": "uint256"
            },
            {
              "internalType": "string[]",
              "name": "documentHashes",
              "type": "string[]"
            }
          ],
          "internalType": "struct PerformanceDataTypes.Submission",
          "name": "",
          "type": "tuple"
        }
      ],
      "stateMutability": "view",
      "type": "function"
    },
    {
      "inputs": [
        {
          "internalType": "uint256",
          "name": "uId",
          "type": "uint256"
        },
        {
          "internalType": "uint256",
          "name": "assessmentId",
          "type": "uint256"
        }
      ],
      "name": "getSubmissionDeadline",
      "outputs": [
        {
          "internalType": "uint256",
          "name": "",
          "type": "uint256"
        }
      ],
      "stateMutability": "view",
      "type": "function"
    },
    {
      "inputs": [
        {
          "internalType": "uint256",
          "name": "uId",
          "type": "uint256"
        },
        {
          "internalType": "uint256",
          "name": "assessmentId",
          "type": "uint256"
        }
      ],
      "name": "isAttendanceSet",
      "outputs": [
        {
          "internalType": "bool",
          "name": "",
          "type": "bool"
        }
      ],
      "stateMutability": "view",
      "type": "function"
    },
    {
      "inputs": [
        {
          "internalType": "uint256",
          "name": "uId",
          "type": "uint256"
        },
        {
          "internalType": "uint256",
          "name": "assessmentId",
          "type": "uint256"
        }
      ],
      "name": "isEvaluationSet",
      "outputs": [
        {
          "internalType": "bool",
          "name": "",
          "type": "bool"
        }
      ],
      "stateMutability": "view",
      "type": "function"
    },
    {
      "inputs": [
        {
          "internalType": "uint256",
          "name": "uId",
          "type": "uint256"
        },
        {
          "internalType": "uint256",
          "name": "courseId",
          "type": "uint256"
        }
      ],
      "name": "isFinalGradeSet",
      "outputs": [
        {
          "internalType": "bool",
          "name": "",
          "type": "bool"
        }
      ],
      "stateMutability": "view",
      "type": "function"
    },
    {
      "inputs": [
        {
          "internalType": "uint256",
          "name": "uId",
          "type": "uint256"
        },
        {
          "internalType": "uint256",
          "name": "courseId",
          "type": "uint256"
        }
      ],
      "name": "isGradeSet",
      "outputs": [
        {
          "internalType": "bool",
          "name": "",
          "type": "bool"
        }
      ],
      "stateMutability": "view",
      "type": "function"
    },
    {
      "inputs": [
        {
          "internalType": "uint256",
          "name": "uId",
          "type": "uint256"
        },
        {
          "internalType": "uint256",
          "name": "assessmentId",
          "type": "uint256"
        }
      ],
      "name": "isSubmissionSet",
      "outputs": [
        {
          "internalType": "bool",
          "name": "",
          "type": "bool"
        }
      ],
      "stateMutability": "view",
      "type": "function"
    },
    {
      "inputs": [
        {
          "internalType": "uint256",
          "name": "uId",
          "type": "uint256"
        },
        {
          "internalType": "uint256",
          "name": "assessmentId",
          "type": "uint256"
        },
        {
          "internalType": "uint256",
          "name": "timestamp",
          "type": "uint256"
        },
        {
          "internalType": "uint256",
          "name": "achievedPoints",
          "type": "uint256"
        },
        {
          "internalType": "string",
          "name": "feedback",
          "type": "string"
        },
        {
          "internalType": "uint256",
          "name": "lecturerUId",
          "type": "uint256"
        }
      ],
      "name": "setEvaluation",
      "outputs": [],
      "stateMutability": "nonpayable",
      "type": "function"
    },
    {
      "inputs": [
        {
          "internalType": "uint256",
          "name": "uId",
          "type": "uint256"
        },
        {
          "internalType": "uint256",
          "name": "assessmentId",
          "type": "uint256"
        },
        {
          "internalType": "bool",
          "name": "hasAttended",
          "type": "bool"
        },
        {
          "internalType": "uint256",
          "name": "timestamp",
          "type": "uint256"
        }
      ],
      "name": "setExamAttendance",
      "outputs": [],
      "stateMutability": "nonpayable",
      "type": "function"
    },
    {
      "inputs": [
        {
          "internalType": "uint256",
          "name": "uId",
          "type": "uint256"
        },
        {
          "internalType": "uint256",
          "name": "courseId",
          "type": "uint256"
        },
        {
          "internalType": "uint256",
          "name": "timestamp",
          "type": "uint256"
        },
        {
          "internalType": "uint256",
          "name": "grade",
          "type": "uint256"
        },
        {
          "internalType": "string",
          "name": "feedback",
          "type": "string"
        },
        {
          "internalType": "uint256",
          "name": "lecturerUId",
          "type": "uint256"
        },
        {
          "internalType": "bool",
          "name": "isFinal",
          "type": "bool"
        }
      ],
      "name": "setGrade",
      "outputs": [],
      "stateMutability": "nonpayable",
      "type": "function"
    },
    {
      "inputs": [
        {
          "internalType": "uint256",
          "name": "uId",
          "type": "uint256"
        },
        {
          "internalType": "uint256",
          "name": "courseId",
          "type": "uint256"
        },
        {
          "internalType": "uint256",
          "name": "timestamp",
          "type": "uint256"
        },
        {
          "internalType": "uint256",
          "name": "grade",
          "type": "uint256"
        },
        {
          "internalType": "string",
          "name": "feedback",
          "type": "string"
        },
        {
          "internalType": "uint256",
          "name": "lecturerUId",
          "type": "uint256"
        },
        {
          "internalType": "bool",
          "name": "isFinal",
          "type": "bool"
        }
      ],
      "name": "setOrOverrideGrade",
      "outputs": [],
      "stateMutability": "nonpayable",
      "type": "function"
    },
    {
      "inputs": [
        {
          "internalType": "uint256",
          "name": "uId",
          "type": "uint256"
        },
        {
          "internalType": "uint256",
          "name": "assessmentId",
          "type": "uint256"
        },
        {
          "internalType": "uint256",
          "name": "timestamp",
          "type": "uint256"
        },
        {
          "internalType": "string[]",
          "name": "documentHashes",
          "type": "string[]"
        }
      ],
      "name": "setSubmission",
      "outputs": [],
      "stateMutability": "nonpayable",
      "type": "function"
    }
  ],
  "bytecode": "0x60806040523480156200001157600080fd5b50604051620037f1380380620037f183398181016040528101906200003791906200016e565b80806000806101000a81548173ffffffffffffffffffffffffffffffffffffffff021916908373ffffffffffffffffffffffffffffffffffffffff1602179055505082600160006101000a81548173ffffffffffffffffffffffffffffffffffffffff021916908373ffffffffffffffffffffffffffffffffffffffff16021790555081600260006101000a81548173ffffffffffffffffffffffffffffffffffffffff021916908373ffffffffffffffffffffffffffffffffffffffff160217905550505050620001ca565b600080fd5b600073ffffffffffffffffffffffffffffffffffffffff82169050919050565b6000620001368262000109565b9050919050565b620001488162000129565b81146200015457600080fd5b50565b60008151905062000168816200013d565b92915050565b6000806000606084860312156200018a576200018962000104565b5b60006200019a8682870162000157565b9350506020620001ad8682870162000157565b9250506040620001c08682870162000157565b9150509250925092565b61361780620001da6000396000f3fe608060405234801561001057600080fd5b506004361061010b5760003560e01c8063374a62a0116100a25780637c56af01116100715780637c56af01146102ec578063b54c676a1461031c578063b7ed70711461034c578063cfca6e971461037c578063fdd3f036146103ac5761010b565b8063374a62a01461024057806359a7dbe0146102705780635e4a73921461028c578063683391e4146102bc5761010b565b80631a2a2c4a116100de5780631a2a2c4a146101a85780631b89db2f146101d857806323f618ee146101f45780632e3b755e146102105761010b565b8063119e794414610110578063130cd8911461012c57806314457f171461015c57806315fea7d514610178575b600080fd5b61012a600480360381019061012591906122ab565b6103dc565b005b6101466004803603810190610141919061235a565b6105bc565b60405161015391906123b5565b60405180910390f35b610176600480360381019061017191906123fc565b61074a565b005b610192600480360381019061018d919061235a565b610933565b60405161019f91906123b5565b60405180910390f35b6101c260048036038101906101bd919061235a565b610ad6565b6040516101cf91906123b5565b60405180910390f35b6101f260048036038101906101ed9190612514565b610c64565b005b61020e6004803603810190610209919061259c565b610ec4565b005b61022a6004803603810190610225919061235a565b611053565b6040516102379190612612565b60405180910390f35b61025a6004803603810190610255919061235a565b6111f6565b6040516102679190612764565b60405180910390f35b61028a600480360381019061028591906123fc565b611382565b005b6102a660048036038101906102a1919061235a565b611617565b6040516102b391906127fc565b60405180910390f35b6102d660048036038101906102d1919061235a565b6117a3565b6040516102e391906123b5565b60405180910390f35b6103066004803603810190610301919061235a565b61192c565b6040516103139190612612565b60405180910390f35b6103366004803603810190610331919061235a565b611ab7565b60405161034391906123b5565b60405180910390f35b6103666004803603810190610361919061235a565b611c3d565b6040516103739190612930565b60405180910390f35b6103966004803603810190610391919061235a565b611dc9565b6040516103a391906123b5565b60405180910390f35b6103c660048036038101906103c1919061235a565b611f57565b6040516103d39190612994565b60405180910390f35b60008054906101000a900473ffffffffffffffffffffffffffffffffffffffff1673ffffffffffffffffffffffffffffffffffffffff166313f44d10336040518263ffffffff1660e01b815260040161043591906129f0565b602060405180830381865afa158015610452573d6000803e3d6000fd5b505050506040513d601f19601f820116820180604052508101906104769190612a20565b6104b5576040517f08c379a00000000000000000000000000000000000000000000000000000000081526004016104ac90612aaa565b60405180910390fd5b600160009054906101000a900473ffffffffffffffffffffffffffffffffffffffff1673ffffffffffffffffffffffffffffffffffffffff16634c37c9cf88886040518060a001604052806001151581526020018a815260200189815260200188888080601f016020809104026020016040519081016040528093929190818152602001838380828437600081840152601f19601f820116905080830192505050505050508152602001868152506040518463ffffffff1660e01b815260040161058193929190612aca565b600060405180830381600087803b15801561059b57600080fd5b505af11580156105af573d6000803e3d6000fd5b5050505050505050505050565b60008060009054906101000a900473ffffffffffffffffffffffffffffffffffffffff1673ffffffffffffffffffffffffffffffffffffffff166313f44d10336040518263ffffffff1660e01b815260040161061891906129f0565b602060405180830381865afa158015610635573d6000803e3d6000fd5b505050506040513d601f19601f820116820180604052508101906106599190612a20565b610698576040517f08c379a000000000000000000000000000000000000000000000000000000000815260040161068f90612aaa565b60405180910390fd5b6000600260009054906101000a900473ffffffffffffffffffffffffffffffffffffffff1673ffffffffffffffffffffffffffffffffffffffff16634e86434085856040518363ffffffff1660e01b81526004016106f7929190612b08565b600060405180830381865afa158015610714573d6000803e3d6000fd5b505050506040513d6000823e3d601f19601f8201168201806040525081019061073d9190612d2d565b5090508091505092915050565b60008054906101000a900473ffffffffffffffffffffffffffffffffffffffff1673ffffffffffffffffffffffffffffffffffffffff166313f44d10336040518263ffffffff1660e01b81526004016107a391906129f0565b602060405180830381865afa1580156107c0573d6000803e3d6000fd5b505050506040513d601f19601f820116820180604052508101906107e49190612a20565b610823576040517f08c379a000000000000000000000000000000000000000000000000000000000815260040161081a90612aaa565b60405180910390fd5b600260009054906101000a900473ffffffffffffffffffffffffffffffffffffffff1673ffffffffffffffffffffffffffffffffffffffff1663375c0c4f89896040518060c001604052806001151581526020018a815260200189898080601f016020809104026020016040519081016040528093929190818152602001838380828437600081840152601f19601f8201169050808301925050505050505081526020018b81526020018781526020018615158152506040518463ffffffff1660e01b81526004016108f793929190612d89565b600060405180830381600087803b15801561091157600080fd5b505af1158015610925573d6000803e3d6000fd5b505050505050505050505050565b60008060009054906101000a900473ffffffffffffffffffffffffffffffffffffffff1673ffffffffffffffffffffffffffffffffffffffff166313f44d10336040518263ffffffff1660e01b815260040161098f91906129f0565b602060405180830381865afa1580156109ac573d6000803e3d6000fd5b505050506040513d601f19601f820116820180604052508101906109d09190612a20565b610a0f576040517f08c379a0000000000000000000000000000000000000000000000000000000008152600401610a0690612aaa565b60405180910390fd5b610a1983836105bc565b610a265760009050610ad0565b600260009054906101000a900473ffffffffffffffffffffffffffffffffffffffff1673ffffffffffffffffffffffffffffffffffffffff1663374a62a084846040518363ffffffff1660e01b8152600401610a83929190612b08565b600060405180830381865afa158015610aa0573d6000803e3d6000fd5b505050506040513d6000823e3d601f19601f82011682018060405250810190610ac99190612dc7565b60a0015190505b92915050565b60008060009054906101000a900473ffffffffffffffffffffffffffffffffffffffff1673ffffffffffffffffffffffffffffffffffffffff166313f44d10336040518263ffffffff1660e01b8152600401610b3291906129f0565b602060405180830381865afa158015610b4f573d6000803e3d6000fd5b505050506040513d601f19601f82011682018060405250810190610b739190612a20565b610bb2576040517f08c379a0000000000000000000000000000000000000000000000000000000008152600401610ba990612aaa565b60405180910390fd5b6000600160009054906101000a900473ffffffffffffffffffffffffffffffffffffffff1673ffffffffffffffffffffffffffffffffffffffff1663c51e6e4785856040518363ffffffff1660e01b8152600401610c11929190612b08565b600060405180830381865afa158015610c2e573d6000803e3d6000fd5b505050506040513d6000823e3d601f19601f82011682018060405250810190610c579190612f71565b5090508091505092915050565b60008054906101000a900473ffffffffffffffffffffffffffffffffffffffff1673ffffffffffffffffffffffffffffffffffffffff166313f44d10336040518263ffffffff1660e01b8152600401610cbd91906129f0565b602060405180830381865afa158015610cda573d6000803e3d6000fd5b505050506040513d601f19601f82011682018060405250810190610cfe9190612a20565b610d3d576040517f08c379a0000000000000000000000000000000000000000000000000000000008152600401610d3490612aaa565b60405180910390fd5b60005b82829050811015610e0257610df1838383818110610d6157610d60612fcd565b5b9050602002810190610d73919061300b565b8080601f016020809104026020016040519081016040528093929190818152602001838380828437600081840152601f19601f820116905080830192505050505050506040518060400160405280600d81526020017f446f63756d656e742068617368000000000000000000000000000000000000008152506120de565b80610dfb9061309d565b9050610d40565b50600160009054906101000a900473ffffffffffffffffffffffffffffffffffffffff1673ffffffffffffffffffffffffffffffffffffffff16631f0884ea86866040518060600160405280600115158152602001888152602001878790610e6a91906131eb565b8152506040518463ffffffff1660e01b8152600401610e8b93929190613200565b600060405180830381600087803b158015610ea557600080fd5b505af1158015610eb9573d6000803e3d6000fd5b505050505050505050565b60008054906101000a900473ffffffffffffffffffffffffffffffffffffffff1673ffffffffffffffffffffffffffffffffffffffff166313f44d10336040518263ffffffff1660e01b8152600401610f1d91906129f0565b602060405180830381865afa158015610f3a573d6000803e3d6000fd5b505050506040513d601f19601f82011682018060405250810190610f5e9190612a20565b610f9d576040517f08c379a0000000000000000000000000000000000000000000000000000000008152600401610f9490612aaa565b60405180910390fd5b600160009054906101000a900473ffffffffffffffffffffffffffffffffffffffff1673ffffffffffffffffffffffffffffffffffffffff16637241bf62858560405180606001604052806001151581526020018715158152602001868152506040518463ffffffff1660e01b815260040161101b9392919061323e565b600060405180830381600087803b15801561103557600080fd5b505af1158015611049573d6000803e3d6000fd5b5050505050505050565b60008060009054906101000a900473ffffffffffffffffffffffffffffffffffffffff1673ffffffffffffffffffffffffffffffffffffffff166313f44d10336040518263ffffffff1660e01b81526004016110af91906129f0565b602060405180830381865afa1580156110cc573d6000803e3d6000fd5b505050506040513d601f19601f820116820180604052508101906110f09190612a20565b61112f576040517f08c379a000000000000000000000000000000000000000000000000000000000815260040161112690612aaa565b60405180910390fd5b6111398383611dc9565b61114657600090506111f0565b600160009054906101000a900473ffffffffffffffffffffffffffffffffffffffff1673ffffffffffffffffffffffffffffffffffffffff16635e4a739284846040518363ffffffff1660e01b81526004016111a3929190612b08565b600060405180830381865afa1580156111c0573d6000803e3d6000fd5b505050506040513d6000823e3d601f19601f820116820180604052508101906111e9919061331d565b6040015190505b92915050565b6111fe612149565b60008054906101000a900473ffffffffffffffffffffffffffffffffffffffff1673ffffffffffffffffffffffffffffffffffffffff166313f44d10336040518263ffffffff1660e01b815260040161125791906129f0565b602060405180830381865afa158015611274573d6000803e3d6000fd5b505050506040513d601f19601f820116820180604052508101906112989190612a20565b6112d7576040517f08c379a00000000000000000000000000000000000000000000000000000000081526004016112ce90612aaa565b60405180910390fd5b600260009054906101000a900473ffffffffffffffffffffffffffffffffffffffff1673ffffffffffffffffffffffffffffffffffffffff1663374a62a084846040518363ffffffff1660e01b8152600401611334929190612b08565b600060405180830381865afa158015611351573d6000803e3d6000fd5b505050506040513d6000823e3d601f19601f8201168201806040525081019061137a9190612dc7565b905092915050565b60008054906101000a900473ffffffffffffffffffffffffffffffffffffffff1673ffffffffffffffffffffffffffffffffffffffff166313f44d10336040518263ffffffff1660e01b81526004016113db91906129f0565b602060405180830381865afa1580156113f8573d6000803e3d6000fd5b505050506040513d601f19601f8201168201806040525081019061141c9190612a20565b61145b576040517f08c379a000000000000000000000000000000000000000000000000000000000815260040161145290612aaa565b60405180910390fd5b60006040518060c0016040528060011515815260200187815260200186868080601f016020809104026020016040519081016040528093929190818152602001838380828437600081840152601f19601f82011690508083019250505050505050815260200188815260200184815260200183151581525090506114df89896105bc565b1561157a57600260009054906101000a900473ffffffffffffffffffffffffffffffffffffffff1673ffffffffffffffffffffffffffffffffffffffff166342ad565e8a8a846040518463ffffffff1660e01b815260040161154393929190612d89565b600060405180830381600087803b15801561155d57600080fd5b505af1158015611571573d6000803e3d6000fd5b5050505061160c565b600260009054906101000a900473ffffffffffffffffffffffffffffffffffffffff1673ffffffffffffffffffffffffffffffffffffffff1663375c0c4f8a8a846040518463ffffffff1660e01b81526004016115d993929190612d89565b600060405180830381600087803b1580156115f357600080fd5b505af1158015611607573d6000803e3d6000fd5b505050505b505050505050505050565b61161f612183565b60008054906101000a900473ffffffffffffffffffffffffffffffffffffffff1673ffffffffffffffffffffffffffffffffffffffff166313f44d10336040518263ffffffff1660e01b815260040161167891906129f0565b602060405180830381865afa158015611695573d6000803e3d6000fd5b505050506040513d601f19601f820116820180604052508101906116b99190612a20565b6116f8576040517f08c379a00000000000000000000000000000000000000000000000000000000081526004016116ef90612aaa565b60405180910390fd5b600160009054906101000a900473ffffffffffffffffffffffffffffffffffffffff1673ffffffffffffffffffffffffffffffffffffffff16635e4a739284846040518363ffffffff1660e01b8152600401611755929190612b08565b600060405180830381865afa158015611772573d6000803e3d6000fd5b505050506040513d6000823e3d601f19601f8201168201806040525081019061179b919061331d565b905092915050565b60008060009054906101000a900473ffffffffffffffffffffffffffffffffffffffff1673ffffffffffffffffffffffffffffffffffffffff166313f44d10336040518263ffffffff1660e01b81526004016117ff91906129f0565b602060405180830381865afa15801561181c573d6000803e3d6000fd5b505050506040513d601f19601f820116820180604052508101906118409190612a20565b61187f576040517f08c379a000000000000000000000000000000000000000000000000000000000815260040161187690612aaa565b60405180910390fd5b6000600160009054906101000a900473ffffffffffffffffffffffffffffffffffffffff1673ffffffffffffffffffffffffffffffffffffffff16631359e12a85856040518363ffffffff1660e01b81526004016118de929190612b08565b608060405180830381865afa1580156118fb573d6000803e3d6000fd5b505050506040513d601f19601f8201168201806040525081019061191f91906133ca565b5090508091505092915050565b60008060009054906101000a900473ffffffffffffffffffffffffffffffffffffffff1673ffffffffffffffffffffffffffffffffffffffff166313f44d10336040518263ffffffff1660e01b815260040161198891906129f0565b602060405180830381865afa1580156119a5573d6000803e3d6000fd5b505050506040513d601f19601f820116820180604052508101906119c99190612a20565b611a08576040517f08c379a00000000000000000000000000000000000000000000000000000000081526004016119ff90612aaa565b60405180910390fd5b600160009054906101000a900473ffffffffffffffffffffffffffffffffffffffff1673ffffffffffffffffffffffffffffffffffffffff1663b7ed707184846040518363ffffffff1660e01b8152600401611a65929190612b08565b600060405180830381865afa158015611a82573d6000803e3d6000fd5b505050506040513d6000823e3d601f19601f82011682018060405250810190611aab919061340a565b60200151905092915050565b60008060009054906101000a900473ffffffffffffffffffffffffffffffffffffffff1673ffffffffffffffffffffffffffffffffffffffff166313f44d10336040518263ffffffff1660e01b8152600401611b1391906129f0565b602060405180830381865afa158015611b30573d6000803e3d6000fd5b505050506040513d601f19601f82011682018060405250810190611b549190612a20565b611b93576040517f08c379a0000000000000000000000000000000000000000000000000000000008152600401611b8a90612aaa565b60405180910390fd5b600160009054906101000a900473ffffffffffffffffffffffffffffffffffffffff1673ffffffffffffffffffffffffffffffffffffffff1663fdd3f03684846040518363ffffffff1660e01b8152600401611bf0929190612b08565b606060405180830381865afa158015611c0d573d6000803e3d6000fd5b505050506040513d601f19601f82011682018060405250810190611c319190613453565b60200151905092915050565b611c456121b4565b60008054906101000a900473ffffffffffffffffffffffffffffffffffffffff1673ffffffffffffffffffffffffffffffffffffffff166313f44d10336040518263ffffffff1660e01b8152600401611c9e91906129f0565b602060405180830381865afa158015611cbb573d6000803e3d6000fd5b505050506040513d601f19601f82011682018060405250810190611cdf9190612a20565b611d1e576040517f08c379a0000000000000000000000000000000000000000000000000000000008152600401611d1590612aaa565b60405180910390fd5b600160009054906101000a900473ffffffffffffffffffffffffffffffffffffffff1673ffffffffffffffffffffffffffffffffffffffff1663b7ed707184846040518363ffffffff1660e01b8152600401611d7b929190612b08565b600060405180830381865afa158015611d98573d6000803e3d6000fd5b505050506040513d6000823e3d601f19601f82011682018060405250810190611dc1919061340a565b905092915050565b60008060009054906101000a900473ffffffffffffffffffffffffffffffffffffffff1673ffffffffffffffffffffffffffffffffffffffff166313f44d10336040518263ffffffff1660e01b8152600401611e2591906129f0565b602060405180830381865afa158015611e42573d6000803e3d6000fd5b505050506040513d601f19601f82011682018060405250810190611e669190612a20565b611ea5576040517f08c379a0000000000000000000000000000000000000000000000000000000008152600401611e9c90612aaa565b60405180910390fd5b6000600160009054906101000a900473ffffffffffffffffffffffffffffffffffffffff1673ffffffffffffffffffffffffffffffffffffffff1663caed9c6585856040518363ffffffff1660e01b8152600401611f04929190612b08565b600060405180830381865afa158015611f21573d6000803e3d6000fd5b505050506040513d6000823e3d601f19601f82011682018060405250810190611f4a9190613480565b5090508091505092915050565b611f5f6121d7565b60008054906101000a900473ffffffffffffffffffffffffffffffffffffffff1673ffffffffffffffffffffffffffffffffffffffff166313f44d10336040518263ffffffff1660e01b8152600401611fb891906129f0565b602060405180830381865afa158015611fd5573d6000803e3d6000fd5b505050506040513d601f19601f82011682018060405250810190611ff99190612a20565b612038576040517f08c379a000000000000000000000000000000000000000000000000000000000815260040161202f90612aaa565b60405180910390fd5b600160009054906101000a900473ffffffffffffffffffffffffffffffffffffffff1673ffffffffffffffffffffffffffffffffffffffff1663fdd3f03684846040518363ffffffff1660e01b8152600401612095929190612b08565b606060405180830381865afa1580156120b2573d6000803e3d6000fd5b505050506040513d601f19601f820116820180604052508101906120d69190613453565b905092915050565b6000825111816040516020016120f49190613564565b60405160208183030381529060405290612144576040517f08c379a000000000000000000000000000000000000000000000000000000000815260040161213b91906135bf565b60405180910390fd5b505050565b6040518060c00160405280600015158152602001600081526020016060815260200160008152602001600081526020016000151581525090565b6040518060a00160405280600015158152602001600081526020016000815260200160608152602001600081525090565b604051806060016040528060001515815260200160008152602001606081525090565b6040518060600160405280600015158152602001600015158152602001600081525090565b6000604051905090565b600080fd5b600080fd5b6000819050919050565b61222381612210565b811461222e57600080fd5b50565b6000813590506122408161221a565b92915050565b600080fd5b600080fd5b600080fd5b60008083601f84011261226b5761226a612246565b5b8235905067ffffffffffffffff8111156122885761228761224b565b5b6020830191508360018202830111156122a4576122a3612250565b5b9250929050565b600080600080600080600060c0888a0312156122ca576122c9612206565b5b60006122d88a828b01612231565b97505060206122e98a828b01612231565b96505060406122fa8a828b01612231565b955050606061230b8a828b01612231565b945050608088013567ffffffffffffffff81111561232c5761232b61220b565b5b6123388a828b01612255565b935093505060a061234b8a828b01612231565b91505092959891949750929550565b6000806040838503121561237157612370612206565b5b600061237f85828601612231565b925050602061239085828601612231565b9150509250929050565b60008115159050919050565b6123af8161239a565b82525050565b60006020820190506123ca60008301846123a6565b92915050565b6123d98161239a565b81146123e457600080fd5b50565b6000813590506123f6816123d0565b92915050565b60008060008060008060008060e0898b03121561241c5761241b612206565b5b600061242a8b828c01612231565b985050602061243b8b828c01612231565b975050604061244c8b828c01612231565b965050606061245d8b828c01612231565b955050608089013567ffffffffffffffff81111561247e5761247d61220b565b5b61248a8b828c01612255565b945094505060a061249d8b828c01612231565b92505060c06124ae8b828c016123e7565b9150509295985092959890939650565b60008083601f8401126124d4576124d3612246565b5b8235905067ffffffffffffffff8111156124f1576124f061224b565b5b60208301915083602082028301111561250d5761250c612250565b5b9250929050565b6000806000806000608086880312156125305761252f612206565b5b600061253e88828901612231565b955050602061254f88828901612231565b945050604061256088828901612231565b935050606086013567ffffffffffffffff8111156125815761258061220b565b5b61258d888289016124be565b92509250509295509295909350565b600080600080608085870312156125b6576125b5612206565b5b60006125c487828801612231565b94505060206125d587828801612231565b93505060406125e6878288016123e7565b92505060606125f787828801612231565b91505092959194509250565b61260c81612210565b82525050565b60006020820190506126276000830184612603565b92915050565b6126368161239a565b82525050565b61264581612210565b82525050565b600081519050919050565b600082825260208201905092915050565b60005b8381101561268557808201518184015260208101905061266a565b60008484015250505050565b6000601f19601f8301169050919050565b60006126ad8261264b565b6126b78185612656565b93506126c7818560208601612667565b6126d081612691565b840191505092915050565b600060c0830160008301516126f3600086018261262d565b506020830151612706602086018261263c565b506040830151848203604086015261271e82826126a2565b9150506060830151612733606086018261263c565b506080830151612746608086018261263c565b5060a083015161275960a086018261262d565b508091505092915050565b6000602082019050818103600083015261277e81846126db565b905092915050565b600060a08301600083015161279e600086018261262d565b5060208301516127b1602086018261263c565b5060408301516127c4604086018261263c565b50606083015184820360608601526127dc82826126a2565b91505060808301516127f1608086018261263c565b508091505092915050565b600060208201905081810360008301526128168184612786565b905092915050565b600081519050919050565b600082825260208201905092915050565b6000819050602082019050919050565b600061285683836126a2565b905092915050565b6000602082019050919050565b60006128768261281e565b6128808185612829565b9350836020820285016128928561283a565b8060005b858110156128ce57848403895281516128af858261284a565b94506128ba8361285e565b925060208a01995050600181019050612896565b50829750879550505050505092915050565b60006060830160008301516128f8600086018261262d565b50602083015161290b602086018261263c565b5060408301518482036040860152612923828261286b565b9150508091505092915050565b6000602082019050818103600083015261294a81846128e0565b905092915050565b606082016000820151612968600085018261262d565b50602082015161297b602085018261262d565b50604082015161298e604085018261263c565b50505050565b60006060820190506129a96000830184612952565b92915050565b600073ffffffffffffffffffffffffffffffffffffffff82169050919050565b60006129da826129af565b9050919050565b6129ea816129cf565b82525050565b6000602082019050612a0560008301846129e1565b92915050565b600081519050612a1a816123d0565b92915050565b600060208284031215612a3657612a35612206565b5b6000612a4484828501612a0b565b91505092915050565b600082825260208201905092915050565b7f5468652073656e646572206973206e6f742077686974656c6973746564000000600082015250565b6000612a94601d83612a4d565b9150612a9f82612a5e565b602082019050919050565b60006020820190508181036000830152612ac381612a87565b9050919050565b6000606082019050612adf6000830186612603565b612aec6020830185612603565b8181036040830152612afe8184612786565b9050949350505050565b6000604082019050612b1d6000830185612603565b612b2a6020830184612603565b9392505050565b600080fd5b7f4e487b7100000000000000000000000000000000000000000000000000000000600052604160045260246000fd5b612b6e82612691565b810181811067ffffffffffffffff82111715612b8d57612b8c612b36565b5b80604052505050565b6000612ba06121fc565b9050612bac8282612b65565b919050565b600080fd5b600081519050612bc58161221a565b92915050565b600080fd5b600067ffffffffffffffff821115612beb57612bea612b36565b5b612bf482612691565b9050602081019050919050565b6000612c14612c0f84612bd0565b612b96565b905082815260208101848484011115612c3057612c2f612bcb565b5b612c3b848285612667565b509392505050565b600082601f830112612c5857612c57612246565b5b8151612c68848260208601612c01565b91505092915050565b600060c08284031215612c8757612c86612b31565b5b612c9160c0612b96565b90506000612ca184828501612a0b565b6000830152506020612cb584828501612bb6565b602083015250604082015167ffffffffffffffff811115612cd957612cd8612bb1565b5b612ce584828501612c43565b6040830152506060612cf984828501612bb6565b6060830152506080612d0d84828501612bb6565b60808301525060a0612d2184828501612a0b565b60a08301525092915050565b60008060408385031215612d4457612d43612206565b5b6000612d5285828601612a0b565b925050602083015167ffffffffffffffff811115612d7357612d7261220b565b5b612d7f85828601612c71565b9150509250929050565b6000606082019050612d9e6000830186612603565b612dab6020830185612603565b8181036040830152612dbd81846126db565b9050949350505050565b600060208284031215612ddd57612ddc612206565b5b600082015167ffffffffffffffff811115612dfb57612dfa61220b565b5b612e0784828501612c71565b91505092915050565b600067ffffffffffffffff821115612e2b57612e2a612b36565b5b602082029050602081019050919050565b6000612e4f612e4a84612e10565b612b96565b90508083825260208201905060208402830185811115612e7257612e71612250565b5b835b81811015612eb957805167ffffffffffffffff811115612e9757612e96612246565b5b808601612ea48982612c43565b85526020850194505050602081019050612e74565b5050509392505050565b600082601f830112612ed857612ed7612246565b5b8151612ee8848260208601612e3c565b91505092915050565b600060608284031215612f0757612f06612b31565b5b612f116060612b96565b90506000612f2184828501612a0b565b6000830152506020612f3584828501612bb6565b602083015250604082015167ffffffffffffffff811115612f5957612f58612bb1565b5b612f6584828501612ec3565b60408301525092915050565b60008060408385031215612f8857612f87612206565b5b6000612f9685828601612a0b565b925050602083015167ffffffffffffffff811115612fb757612fb661220b565b5b612fc385828601612ef1565b9150509250929050565b7f4e487b7100000000000000000000000000000000000000000000000000000000600052603260045260246000fd5b600080fd5b600080fd5b600080fd5b6000808335600160200384360303811261302857613027612ffc565b5b80840192508235915067ffffffffffffffff82111561304a57613049613001565b5b60208301925060018202360383131561306657613065613006565b5b509250929050565b7f4e487b7100000000000000000000000000000000000000000000000000000000600052601160045260246000fd5b60006130a882612210565b91507fffffffffffffffffffffffffffffffffffffffffffffffffffffffffffffffff82036130da576130d961306e565b5b600182019050919050565b82818337600083830152505050565b600061310761310284612bd0565b612b96565b90508281526020810184848401111561312357613122612bcb565b5b61312e8482856130e5565b509392505050565b600082601f83011261314b5761314a612246565b5b813561315b8482602086016130f4565b91505092915050565b600061317761317284612e10565b612b96565b9050808382526020820190506020840283018581111561319a57613199612250565b5b835b818110156131e157803567ffffffffffffffff8111156131bf576131be612246565b5b8086016131cc8982613136565b8552602085019450505060208101905061319c565b5050509392505050565b60006131f8368484613164565b905092915050565b60006060820190506132156000830186612603565b6132226020830185612603565b818103604083015261323481846128e0565b9050949350505050565b600060a0820190506132536000830186612603565b6132606020830185612603565b61326d6040830184612952565b949350505050565b600060a0828403121561328b5761328a612b31565b5b61329560a0612b96565b905060006132a584828501612a0b565b60008301525060206132b984828501612bb6565b60208301525060406132cd84828501612bb6565b604083015250606082015167ffffffffffffffff8111156132f1576132f0612bb1565b5b6132fd84828501612c43565b606083015250608061331184828501612bb6565b60808301525092915050565b60006020828403121561333357613332612206565b5b600082015167ffffffffffffffff8111156133515761335061220b565b5b61335d84828501613275565b91505092915050565b60006060828403121561337c5761337b612b31565b5b6133866060612b96565b9050600061339684828501612a0b565b60008301525060206133aa84828501612a0b565b60208301525060406133be84828501612bb6565b60408301525092915050565b600080608083850312156133e1576133e0612206565b5b60006133ef85828601612a0b565b925050602061340085828601613366565b9150509250929050565b6000602082840312156134205761341f612206565b5b600082015167ffffffffffffffff81111561343e5761343d61220b565b5b61344a84828501612ef1565b91505092915050565b60006060828403121561346957613468612206565b5b600061347784828501613366565b91505092915050565b6000806040838503121561349757613496612206565b5b60006134a585828601612a0b565b925050602083015167ffffffffffffffff8111156134c6576134c561220b565b5b6134d285828601613275565b9150509250929050565b600081905092915050565b60006134f28261264b565b6134fc81856134dc565b935061350c818560208601612667565b80840191505092915050565b7f2063616e6e6f7420626520656d70747900000000000000000000000000000000600082015250565b600061354e6010836134dc565b915061355982613518565b601082019050919050565b600061357082846134e7565b915061357b82613541565b915081905092915050565b60006135918261264b565b61359b8185612a4d565b93506135ab818560208601612667565b6135b481612691565b840191505092915050565b600060208201905081810360008301526135d98184613586565b90509291505056fea26469706673582212208f108493c8eada35149ee72711f3a69c0d353fa6f24e5010e35b84783568970564736f6c63430008110033",
  "linkReferences": {},
  "deployedLinkReferences": {}
}