{
  "_format": "hh-sol-artifact-1",
  "contractName": "PerformanceDataManager",
  "sourceName": "contracts/data/datamanager/PerformanceDataManager.sol",
  "abi": [
    {
      "inputs": [
        {
          "internalType": "address",
          "name": "performanceStorageAddress",
          "type": "address"
        },
        {
          "internalType": "address",
          "name": "gradeStorageAddress",
          "type": "address"
        },
        {
          "internalType": "address",
          "name": "accessWhitelistAddress",
          "type": "address"
        }
      ],
      "stateMutability": "nonpayable",
      "type": "constructor"
    },
    {
      "inputs": [
        {
          "internalType": "uint256",
          "name": "uId",
          "type": "uint256"
        },
        {
          "internalType": "uint256",
          "name": "assessmentId",
          "type": "uint256"
        }
      ],
      "name": "getAchievedPoints",
      "outputs": [
        {
          "internalType": "uint256",
          "name": "",
          "type": "uint256"
        }
      ],
      "stateMutability": "view",
      "type": "function"
    },
    {
      "inputs": [
        {
          "internalType": "uint256",
          "name": "uId",
          "type": "uint256"
        },
        {
          "internalType": "uint256",
          "name": "assessmentId",
          "type": "uint256"
        }
      ],
      "name": "getAttendanceValue",
      "outputs": [
        {
          "internalType": "bool",
          "name": "",
          "type": "bool"
        }
      ],
      "stateMutability": "view",
      "type": "function"
    },
    {
      "inputs": [
        {
          "internalType": "uint256",
          "name": "uId",
          "type": "uint256"
        },
        {
          "internalType": "uint256",
          "name": "assessmentId",
          "type": "uint256"
        }
      ],
      "name": "getEvaluation",
      "outputs": [
        {
          "components": [
            {
              "internalType": "bool",
              "name": "isSet",
              "type": "bool"
            },
            {
              "internalType": "uint256",
              "name": "datetime",
              "type": "uint256"
            },
            {
              "internalType": "uint256",
              "name": "achievedPoints",
              "type": "uint256"
            },
            {
              "internalType": "string",
              "name": "feedback",
              "type": "string"
            },
            {
              "internalType": "uint256",
              "name": "lecturerUId",
              "type": "uint256"
            }
          ],
          "internalType": "struct PerformanceDataTypes.Evaluation",
          "name": "",
          "type": "tuple"
        }
      ],
      "stateMutability": "view",
      "type": "function"
    },
    {
      "inputs": [
        {
          "internalType": "uint256",
          "name": "uId",
          "type": "uint256"
        },
        {
          "internalType": "uint256",
          "name": "assessmentId",
          "type": "uint256"
        }
      ],
      "name": "getEvaluatorUId",
      "outputs": [
        {
          "internalType": "uint256",
          "name": "",
          "type": "uint256"
        }
      ],
      "stateMutability": "view",
      "type": "function"
    },
    {
      "inputs": [
        {
          "internalType": "uint256",
          "name": "uId",
          "type": "uint256"
        },
        {
          "internalType": "uint256",
          "name": "assessmentId",
          "type": "uint256"
        }
      ],
      "name": "getExamAttendance",
      "outputs": [
        {
          "components": [
            {
              "internalType": "bool",
              "name": "isSet",
              "type": "bool"
            },
            {
              "internalType": "bool",
              "name": "hasAttended",
              "type": "bool"
            },
            {
              "internalType": "uint256",
              "name": "confirmationDateTime",
              "type": "uint256"
            }
          ],
          "internalType": "struct PerformanceDataTypes.ExamAttendance",
          "name": "",
          "type": "tuple"
        }
      ],
      "stateMutability": "view",
      "type": "function"
    },
    {
      "inputs": [
        {
          "internalType": "uint256",
          "name": "uId",
          "type": "uint256"
        },
        {
          "internalType": "uint256",
          "name": "courseId",
          "type": "uint256"
        }
      ],
      "name": "getGrade",
      "outputs": [
        {
          "components": [
            {
              "internalType": "bool",
              "name": "isSet",
              "type": "bool"
            },
            {
              "internalType": "uint256",
              "name": "value",
              "type": "uint256"
            },
            {
              "internalType": "string",
              "name": "feedback",
              "type": "string"
            },
            {
              "internalType": "uint256",
              "name": "datetime",
              "type": "uint256"
            },
            {
              "internalType": "uint256",
              "name": "lecturerUId",
              "type": "uint256"
            },
            {
              "internalType": "bool",
              "name": "isFinal",
              "type": "bool"
            }
          ],
          "internalType": "struct PerformanceDataTypes.Grade",
          "name": "",
          "type": "tuple"
        }
      ],
      "stateMutability": "view",
      "type": "function"
    },
    {
      "inputs": [
        {
          "internalType": "uint256",
          "name": "uId",
          "type": "uint256"
        },
        {
          "internalType": "uint256",
          "name": "courseId",
          "type": "uint256"
        }
      ],
      "name": "getGraderUId",
      "outputs": [
        {
          "internalType": "uint256",
          "name": "",
          "type": "uint256"
        }
      ],
      "stateMutability": "view",
      "type": "function"
    },
    {
      "inputs": [
        {
          "internalType": "uint256",
          "name": "uId",
          "type": "uint256"
        },
        {
          "internalType": "uint256",
          "name": "assessmentId",
          "type": "uint256"
        }
      ],
      "name": "getSubmission",
      "outputs": [
        {
          "components": [
            {
              "internalType": "bool",
              "name": "isSet",
              "type": "bool"
            },
            {
              "internalType": "uint256",
              "name": "submissionDatetime",
              "type": "uint256"
            },
            {
              "internalType": "string[]",
              "name": "documentHashes",
              "type": "string[]"
            }
          ],
          "internalType": "struct PerformanceDataTypes.Submission",
          "name": "",
          "type": "tuple"
        }
      ],
      "stateMutability": "view",
      "type": "function"
    },
    {
      "inputs": [
        {
          "internalType": "uint256",
          "name": "uId",
          "type": "uint256"
        },
        {
          "internalType": "uint256",
          "name": "assessmentId",
          "type": "uint256"
        }
      ],
      "name": "getSubmissionDeadline",
      "outputs": [
        {
          "internalType": "uint256",
          "name": "",
          "type": "uint256"
        }
      ],
      "stateMutability": "view",
      "type": "function"
    },
    {
      "inputs": [
        {
          "internalType": "uint256",
          "name": "uId",
          "type": "uint256"
        },
        {
          "internalType": "uint256",
          "name": "assessmentId",
          "type": "uint256"
        }
      ],
      "name": "isAttendanceSet",
      "outputs": [
        {
          "internalType": "bool",
          "name": "",
          "type": "bool"
        }
      ],
      "stateMutability": "view",
      "type": "function"
    },
    {
      "inputs": [
        {
          "internalType": "uint256",
          "name": "uId",
          "type": "uint256"
        },
        {
          "internalType": "uint256",
          "name": "assessmentId",
          "type": "uint256"
        }
      ],
      "name": "isEvaluationSet",
      "outputs": [
        {
          "internalType": "bool",
          "name": "",
          "type": "bool"
        }
      ],
      "stateMutability": "view",
      "type": "function"
    },
    {
      "inputs": [
        {
          "internalType": "uint256",
          "name": "uId",
          "type": "uint256"
        },
        {
          "internalType": "uint256",
          "name": "courseId",
          "type": "uint256"
        }
      ],
      "name": "isFinalGradeSet",
      "outputs": [
        {
          "internalType": "bool",
          "name": "",
          "type": "bool"
        }
      ],
      "stateMutability": "view",
      "type": "function"
    },
    {
      "inputs": [
        {
          "internalType": "uint256",
          "name": "uId",
          "type": "uint256"
        },
        {
          "internalType": "uint256",
          "name": "courseId",
          "type": "uint256"
        }
      ],
      "name": "isGradeSet",
      "outputs": [
        {
          "internalType": "bool",
          "name": "",
          "type": "bool"
        }
      ],
      "stateMutability": "view",
      "type": "function"
    },
    {
      "inputs": [
        {
          "internalType": "uint256",
          "name": "uId",
          "type": "uint256"
        },
        {
          "internalType": "uint256",
          "name": "assessmentId",
          "type": "uint256"
        }
      ],
      "name": "isSubmissionSet",
      "outputs": [
        {
          "internalType": "bool",
          "name": "",
          "type": "bool"
        }
      ],
      "stateMutability": "view",
      "type": "function"
    },
    {
      "inputs": [
        {
          "internalType": "uint256",
          "name": "uId",
          "type": "uint256"
        },
        {
          "internalType": "uint256",
          "name": "assessmentId",
          "type": "uint256"
        },
        {
          "internalType": "uint256",
          "name": "timestamp",
          "type": "uint256"
        },
        {
          "internalType": "uint256",
          "name": "achievedPoints",
          "type": "uint256"
        },
        {
          "internalType": "string",
          "name": "feedback",
          "type": "string"
        },
        {
          "internalType": "uint256",
          "name": "lecturerUId",
          "type": "uint256"
        }
      ],
      "name": "setEvaluation",
      "outputs": [],
      "stateMutability": "nonpayable",
      "type": "function"
    },
    {
      "inputs": [
        {
          "internalType": "uint256",
          "name": "uId",
          "type": "uint256"
        },
        {
          "internalType": "uint256",
          "name": "assessmentId",
          "type": "uint256"
        },
        {
          "internalType": "bool",
          "name": "hasAttended",
          "type": "bool"
        },
        {
          "internalType": "uint256",
          "name": "timestamp",
          "type": "uint256"
        }
      ],
      "name": "setExamAttendance",
      "outputs": [],
      "stateMutability": "nonpayable",
      "type": "function"
    },
    {
      "inputs": [
        {
          "internalType": "uint256",
          "name": "uId",
          "type": "uint256"
        },
        {
          "internalType": "uint256",
          "name": "courseId",
          "type": "uint256"
        },
        {
          "internalType": "uint256",
          "name": "timestamp",
          "type": "uint256"
        },
        {
          "internalType": "uint256",
          "name": "grade",
          "type": "uint256"
        },
        {
          "internalType": "string",
          "name": "feedback",
          "type": "string"
        },
        {
          "internalType": "uint256",
          "name": "lecturerUId",
          "type": "uint256"
        },
        {
          "internalType": "bool",
          "name": "isFinal",
          "type": "bool"
        }
      ],
      "name": "setGrade",
      "outputs": [],
      "stateMutability": "nonpayable",
      "type": "function"
    },
    {
      "inputs": [
        {
          "internalType": "uint256",
          "name": "uId",
          "type": "uint256"
        },
        {
          "internalType": "uint256",
          "name": "courseId",
          "type": "uint256"
        },
        {
          "internalType": "uint256",
          "name": "timestamp",
          "type": "uint256"
        },
        {
          "internalType": "uint256",
          "name": "grade",
          "type": "uint256"
        },
        {
          "internalType": "string",
          "name": "feedback",
          "type": "string"
        },
        {
          "internalType": "uint256",
          "name": "lecturerUId",
          "type": "uint256"
        },
        {
          "internalType": "bool",
          "name": "isFinal",
          "type": "bool"
        }
      ],
      "name": "setOrOverrideGrade",
      "outputs": [],
      "stateMutability": "nonpayable",
      "type": "function"
    },
    {
      "inputs": [
        {
          "internalType": "uint256",
          "name": "uId",
          "type": "uint256"
        },
        {
          "internalType": "uint256",
          "name": "assessmentId",
          "type": "uint256"
        },
        {
          "internalType": "uint256",
          "name": "timestamp",
          "type": "uint256"
        },
        {
          "internalType": "string[]",
          "name": "documentHashes",
          "type": "string[]"
        }
      ],
      "name": "setSubmission",
      "outputs": [],
      "stateMutability": "nonpayable",
      "type": "function"
    }
  ],
  "bytecode": "0x60806040523480156200001157600080fd5b5060405162003b7d38038062003b7d83398181016040528101906200003791906200016e565b80806000806101000a81548173ffffffffffffffffffffffffffffffffffffffff021916908373ffffffffffffffffffffffffffffffffffffffff1602179055505082600160006101000a81548173ffffffffffffffffffffffffffffffffffffffff021916908373ffffffffffffffffffffffffffffffffffffffff16021790555081600260006101000a81548173ffffffffffffffffffffffffffffffffffffffff021916908373ffffffffffffffffffffffffffffffffffffffff160217905550505050620001ca565b600080fd5b600073ffffffffffffffffffffffffffffffffffffffff82169050919050565b6000620001368262000109565b9050919050565b620001488162000129565b81146200015457600080fd5b50565b60008151905062000168816200013d565b92915050565b6000806000606084860312156200018a576200018962000104565b5b60006200019a8682870162000157565b9350506020620001ad8682870162000157565b9250506040620001c08682870162000157565b9150509250925092565b6139a380620001da6000396000f3fe608060405234801561001057600080fd5b50600436106101215760003560e01c806359a7dbe0116100ad578063b54c676a11610071578063b54c676a14610362578063b7ed707114610392578063cfca6e97146103c2578063d2ceb788146103f2578063fdd3f0361461042257610121565b806359a7dbe0146102865780635e4a7392146102a2578063683391e4146102d25780637c56af0114610302578063829e90d51461033257610121565b80631a2a2c4a116100f45780631a2a2c4a146101be5780631b89db2f146101ee57806323f618ee1461020a5780632e3b755e14610226578063374a62a01461025657610121565b8063119e794414610126578063130cd8911461014257806314457f171461017257806315fea7d51461018e575b600080fd5b610140600480360381019061013b9190612637565b610452565b005b61015c600480360381019061015791906126e6565b610632565b6040516101699190612741565b60405180910390f35b61018c60048036038101906101879190612788565b6107c0565b005b6101a860048036038101906101a391906126e6565b6109a9565b6040516101b59190612741565b60405180910390f35b6101d860048036038101906101d391906126e6565b610b4c565b6040516101e59190612741565b60405180910390f35b610208600480360381019061020391906128a0565b610cda565b005b610224600480360381019061021f9190612928565b610f3a565b005b610240600480360381019061023b91906126e6565b6110c9565b60405161024d919061299e565b60405180910390f35b610270600480360381019061026b91906126e6565b61126c565b60405161027d9190612af0565b60405180910390f35b6102a0600480360381019061029b9190612788565b6113f8565b005b6102bc60048036038101906102b791906126e6565b61168d565b6040516102c99190612b88565b60405180910390f35b6102ec60048036038101906102e791906126e6565b611819565b6040516102f99190612741565b60405180910390f35b61031c600480360381019061031791906126e6565b6119a2565b604051610329919061299e565b60405180910390f35b61034c600480360381019061034791906126e6565b611b2d565b604051610359919061299e565b60405180910390f35b61037c600480360381019061037791906126e6565b611cb8565b6040516103899190612741565b60405180910390f35b6103ac60048036038101906103a791906126e6565b611e3e565b6040516103b99190612cbc565b60405180910390f35b6103dc60048036038101906103d791906126e6565b611fca565b6040516103e99190612741565b60405180910390f35b61040c600480360381019061040791906126e6565b612158565b604051610419919061299e565b60405180910390f35b61043c600480360381019061043791906126e6565b6122e3565b6040516104499190612d20565b60405180910390f35b60008054906101000a900473ffffffffffffffffffffffffffffffffffffffff1673ffffffffffffffffffffffffffffffffffffffff166313f44d10336040518263ffffffff1660e01b81526004016104ab9190612d7c565b602060405180830381865afa1580156104c8573d6000803e3d6000fd5b505050506040513d601f19601f820116820180604052508101906104ec9190612dac565b61052b576040517f08c379a000000000000000000000000000000000000000000000000000000000815260040161052290612e36565b60405180910390fd5b600160009054906101000a900473ffffffffffffffffffffffffffffffffffffffff1673ffffffffffffffffffffffffffffffffffffffff16634c37c9cf88886040518060a001604052806001151581526020018a815260200189815260200188888080601f016020809104026020016040519081016040528093929190818152602001838380828437600081840152601f19601f820116905080830192505050505050508152602001868152506040518463ffffffff1660e01b81526004016105f793929190612e56565b600060405180830381600087803b15801561061157600080fd5b505af1158015610625573d6000803e3d6000fd5b5050505050505050505050565b60008060009054906101000a900473ffffffffffffffffffffffffffffffffffffffff1673ffffffffffffffffffffffffffffffffffffffff166313f44d10336040518263ffffffff1660e01b815260040161068e9190612d7c565b602060405180830381865afa1580156106ab573d6000803e3d6000fd5b505050506040513d601f19601f820116820180604052508101906106cf9190612dac565b61070e576040517f08c379a000000000000000000000000000000000000000000000000000000000815260040161070590612e36565b60405180910390fd5b6000600260009054906101000a900473ffffffffffffffffffffffffffffffffffffffff1673ffffffffffffffffffffffffffffffffffffffff16634e86434085856040518363ffffffff1660e01b815260040161076d929190612e94565b600060405180830381865afa15801561078a573d6000803e3d6000fd5b505050506040513d6000823e3d601f19601f820116820180604052508101906107b391906130b9565b5090508091505092915050565b60008054906101000a900473ffffffffffffffffffffffffffffffffffffffff1673ffffffffffffffffffffffffffffffffffffffff166313f44d10336040518263ffffffff1660e01b81526004016108199190612d7c565b602060405180830381865afa158015610836573d6000803e3d6000fd5b505050506040513d601f19601f8201168201806040525081019061085a9190612dac565b610899576040517f08c379a000000000000000000000000000000000000000000000000000000000815260040161089090612e36565b60405180910390fd5b600260009054906101000a900473ffffffffffffffffffffffffffffffffffffffff1673ffffffffffffffffffffffffffffffffffffffff1663375c0c4f89896040518060c001604052806001151581526020018a815260200189898080601f016020809104026020016040519081016040528093929190818152602001838380828437600081840152601f19601f8201169050808301925050505050505081526020018b81526020018781526020018615158152506040518463ffffffff1660e01b815260040161096d93929190613115565b600060405180830381600087803b15801561098757600080fd5b505af115801561099b573d6000803e3d6000fd5b505050505050505050505050565b60008060009054906101000a900473ffffffffffffffffffffffffffffffffffffffff1673ffffffffffffffffffffffffffffffffffffffff166313f44d10336040518263ffffffff1660e01b8152600401610a059190612d7c565b602060405180830381865afa158015610a22573d6000803e3d6000fd5b505050506040513d601f19601f82011682018060405250810190610a469190612dac565b610a85576040517f08c379a0000000000000000000000000000000000000000000000000000000008152600401610a7c90612e36565b60405180910390fd5b610a8f8383610632565b610a9c5760009050610b46565b600260009054906101000a900473ffffffffffffffffffffffffffffffffffffffff1673ffffffffffffffffffffffffffffffffffffffff1663374a62a084846040518363ffffffff1660e01b8152600401610af9929190612e94565b600060405180830381865afa158015610b16573d6000803e3d6000fd5b505050506040513d6000823e3d601f19601f82011682018060405250810190610b3f9190613153565b60a0015190505b92915050565b60008060009054906101000a900473ffffffffffffffffffffffffffffffffffffffff1673ffffffffffffffffffffffffffffffffffffffff166313f44d10336040518263ffffffff1660e01b8152600401610ba89190612d7c565b602060405180830381865afa158015610bc5573d6000803e3d6000fd5b505050506040513d601f19601f82011682018060405250810190610be99190612dac565b610c28576040517f08c379a0000000000000000000000000000000000000000000000000000000008152600401610c1f90612e36565b60405180910390fd5b6000600160009054906101000a900473ffffffffffffffffffffffffffffffffffffffff1673ffffffffffffffffffffffffffffffffffffffff1663c51e6e4785856040518363ffffffff1660e01b8152600401610c87929190612e94565b600060405180830381865afa158015610ca4573d6000803e3d6000fd5b505050506040513d6000823e3d601f19601f82011682018060405250810190610ccd91906132fd565b5090508091505092915050565b60008054906101000a900473ffffffffffffffffffffffffffffffffffffffff1673ffffffffffffffffffffffffffffffffffffffff166313f44d10336040518263ffffffff1660e01b8152600401610d339190612d7c565b602060405180830381865afa158015610d50573d6000803e3d6000fd5b505050506040513d601f19601f82011682018060405250810190610d749190612dac565b610db3576040517f08c379a0000000000000000000000000000000000000000000000000000000008152600401610daa90612e36565b60405180910390fd5b60005b82829050811015610e7857610e67838383818110610dd757610dd6613359565b5b9050602002810190610de99190613397565b8080601f016020809104026020016040519081016040528093929190818152602001838380828437600081840152601f19601f820116905080830192505050505050506040518060400160405280600d81526020017f446f63756d656e7420686173680000000000000000000000000000000000000081525061246a565b80610e7190613429565b9050610db6565b50600160009054906101000a900473ffffffffffffffffffffffffffffffffffffffff1673ffffffffffffffffffffffffffffffffffffffff16631f0884ea86866040518060600160405280600115158152602001888152602001878790610ee09190613577565b8152506040518463ffffffff1660e01b8152600401610f019392919061358c565b600060405180830381600087803b158015610f1b57600080fd5b505af1158015610f2f573d6000803e3d6000fd5b505050505050505050565b60008054906101000a900473ffffffffffffffffffffffffffffffffffffffff1673ffffffffffffffffffffffffffffffffffffffff166313f44d10336040518263ffffffff1660e01b8152600401610f939190612d7c565b602060405180830381865afa158015610fb0573d6000803e3d6000fd5b505050506040513d601f19601f82011682018060405250810190610fd49190612dac565b611013576040517f08c379a000000000000000000000000000000000000000000000000000000000815260040161100a90612e36565b60405180910390fd5b600160009054906101000a900473ffffffffffffffffffffffffffffffffffffffff1673ffffffffffffffffffffffffffffffffffffffff16637241bf62858560405180606001604052806001151581526020018715158152602001868152506040518463ffffffff1660e01b8152600401611091939291906135ca565b600060405180830381600087803b1580156110ab57600080fd5b505af11580156110bf573d6000803e3d6000fd5b5050505050505050565b60008060009054906101000a900473ffffffffffffffffffffffffffffffffffffffff1673ffffffffffffffffffffffffffffffffffffffff166313f44d10336040518263ffffffff1660e01b81526004016111259190612d7c565b602060405180830381865afa158015611142573d6000803e3d6000fd5b505050506040513d601f19601f820116820180604052508101906111669190612dac565b6111a5576040517f08c379a000000000000000000000000000000000000000000000000000000000815260040161119c90612e36565b60405180910390fd5b6111af8383611fca565b6111bc5760009050611266565b600160009054906101000a900473ffffffffffffffffffffffffffffffffffffffff1673ffffffffffffffffffffffffffffffffffffffff16635e4a739284846040518363ffffffff1660e01b8152600401611219929190612e94565b600060405180830381865afa158015611236573d6000803e3d6000fd5b505050506040513d6000823e3d601f19601f8201168201806040525081019061125f91906136a9565b6040015190505b92915050565b6112746124d5565b60008054906101000a900473ffffffffffffffffffffffffffffffffffffffff1673ffffffffffffffffffffffffffffffffffffffff166313f44d10336040518263ffffffff1660e01b81526004016112cd9190612d7c565b602060405180830381865afa1580156112ea573d6000803e3d6000fd5b505050506040513d601f19601f8201168201806040525081019061130e9190612dac565b61134d576040517f08c379a000000000000000000000000000000000000000000000000000000000815260040161134490612e36565b60405180910390fd5b600260009054906101000a900473ffffffffffffffffffffffffffffffffffffffff1673ffffffffffffffffffffffffffffffffffffffff1663374a62a084846040518363ffffffff1660e01b81526004016113aa929190612e94565b600060405180830381865afa1580156113c7573d6000803e3d6000fd5b505050506040513d6000823e3d601f19601f820116820180604052508101906113f09190613153565b905092915050565b60008054906101000a900473ffffffffffffffffffffffffffffffffffffffff1673ffffffffffffffffffffffffffffffffffffffff166313f44d10336040518263ffffffff1660e01b81526004016114519190612d7c565b602060405180830381865afa15801561146e573d6000803e3d6000fd5b505050506040513d601f19601f820116820180604052508101906114929190612dac565b6114d1576040517f08c379a00000000000000000000000000000000000000000000000000000000081526004016114c890612e36565b60405180910390fd5b60006040518060c0016040528060011515815260200187815260200186868080601f016020809104026020016040519081016040528093929190818152602001838380828437600081840152601f19601f82011690508083019250505050505050815260200188815260200184815260200183151581525090506115558989610632565b156115f057600260009054906101000a900473ffffffffffffffffffffffffffffffffffffffff1673ffffffffffffffffffffffffffffffffffffffff166342ad565e8a8a846040518463ffffffff1660e01b81526004016115b993929190613115565b600060405180830381600087803b1580156115d357600080fd5b505af11580156115e7573d6000803e3d6000fd5b50505050611682565b600260009054906101000a900473ffffffffffffffffffffffffffffffffffffffff1673ffffffffffffffffffffffffffffffffffffffff1663375c0c4f8a8a846040518463ffffffff1660e01b815260040161164f93929190613115565b600060405180830381600087803b15801561166957600080fd5b505af115801561167d573d6000803e3d6000fd5b505050505b505050505050505050565b61169561250f565b60008054906101000a900473ffffffffffffffffffffffffffffffffffffffff1673ffffffffffffffffffffffffffffffffffffffff166313f44d10336040518263ffffffff1660e01b81526004016116ee9190612d7c565b602060405180830381865afa15801561170b573d6000803e3d6000fd5b505050506040513d601f19601f8201168201806040525081019061172f9190612dac565b61176e576040517f08c379a000000000000000000000000000000000000000000000000000000000815260040161176590612e36565b60405180910390fd5b600160009054906101000a900473ffffffffffffffffffffffffffffffffffffffff1673ffffffffffffffffffffffffffffffffffffffff16635e4a739284846040518363ffffffff1660e01b81526004016117cb929190612e94565b600060405180830381865afa1580156117e8573d6000803e3d6000fd5b505050506040513d6000823e3d601f19601f8201168201806040525081019061181191906136a9565b905092915050565b60008060009054906101000a900473ffffffffffffffffffffffffffffffffffffffff1673ffffffffffffffffffffffffffffffffffffffff166313f44d10336040518263ffffffff1660e01b81526004016118759190612d7c565b602060405180830381865afa158015611892573d6000803e3d6000fd5b505050506040513d601f19601f820116820180604052508101906118b69190612dac565b6118f5576040517f08c379a00000000000000000000000000000000000000000000000000000000081526004016118ec90612e36565b60405180910390fd5b6000600160009054906101000a900473ffffffffffffffffffffffffffffffffffffffff1673ffffffffffffffffffffffffffffffffffffffff16631359e12a85856040518363ffffffff1660e01b8152600401611954929190612e94565b608060405180830381865afa158015611971573d6000803e3d6000fd5b505050506040513d601f19601f820116820180604052508101906119959190613756565b5090508091505092915050565b60008060009054906101000a900473ffffffffffffffffffffffffffffffffffffffff1673ffffffffffffffffffffffffffffffffffffffff166313f44d10336040518263ffffffff1660e01b81526004016119fe9190612d7c565b602060405180830381865afa158015611a1b573d6000803e3d6000fd5b505050506040513d601f19601f82011682018060405250810190611a3f9190612dac565b611a7e576040517f08c379a0000000000000000000000000000000000000000000000000000000008152600401611a7590612e36565b60405180910390fd5b600160009054906101000a900473ffffffffffffffffffffffffffffffffffffffff1673ffffffffffffffffffffffffffffffffffffffff1663b7ed707184846040518363ffffffff1660e01b8152600401611adb929190612e94565b600060405180830381865afa158015611af8573d6000803e3d6000fd5b505050506040513d6000823e3d601f19601f82011682018060405250810190611b219190613796565b60200151905092915050565b60008060009054906101000a900473ffffffffffffffffffffffffffffffffffffffff1673ffffffffffffffffffffffffffffffffffffffff166313f44d10336040518263ffffffff1660e01b8152600401611b899190612d7c565b602060405180830381865afa158015611ba6573d6000803e3d6000fd5b505050506040513d601f19601f82011682018060405250810190611bca9190612dac565b611c09576040517f08c379a0000000000000000000000000000000000000000000000000000000008152600401611c0090612e36565b60405180910390fd5b600160009054906101000a900473ffffffffffffffffffffffffffffffffffffffff1673ffffffffffffffffffffffffffffffffffffffff16635e4a739284846040518363ffffffff1660e01b8152600401611c66929190612e94565b600060405180830381865afa158015611c83573d6000803e3d6000fd5b505050506040513d6000823e3d601f19601f82011682018060405250810190611cac91906136a9565b60800151905092915050565b60008060009054906101000a900473ffffffffffffffffffffffffffffffffffffffff1673ffffffffffffffffffffffffffffffffffffffff166313f44d10336040518263ffffffff1660e01b8152600401611d149190612d7c565b602060405180830381865afa158015611d31573d6000803e3d6000fd5b505050506040513d601f19601f82011682018060405250810190611d559190612dac565b611d94576040517f08c379a0000000000000000000000000000000000000000000000000000000008152600401611d8b90612e36565b60405180910390fd5b600160009054906101000a900473ffffffffffffffffffffffffffffffffffffffff1673ffffffffffffffffffffffffffffffffffffffff1663fdd3f03684846040518363ffffffff1660e01b8152600401611df1929190612e94565b606060405180830381865afa158015611e0e573d6000803e3d6000fd5b505050506040513d601f19601f82011682018060405250810190611e3291906137df565b60200151905092915050565b611e46612540565b60008054906101000a900473ffffffffffffffffffffffffffffffffffffffff1673ffffffffffffffffffffffffffffffffffffffff166313f44d10336040518263ffffffff1660e01b8152600401611e9f9190612d7c565b602060405180830381865afa158015611ebc573d6000803e3d6000fd5b505050506040513d601f19601f82011682018060405250810190611ee09190612dac565b611f1f576040517f08c379a0000000000000000000000000000000000000000000000000000000008152600401611f1690612e36565b60405180910390fd5b600160009054906101000a900473ffffffffffffffffffffffffffffffffffffffff1673ffffffffffffffffffffffffffffffffffffffff1663b7ed707184846040518363ffffffff1660e01b8152600401611f7c929190612e94565b600060405180830381865afa158015611f99573d6000803e3d6000fd5b505050506040513d6000823e3d601f19601f82011682018060405250810190611fc29190613796565b905092915050565b60008060009054906101000a900473ffffffffffffffffffffffffffffffffffffffff1673ffffffffffffffffffffffffffffffffffffffff166313f44d10336040518263ffffffff1660e01b81526004016120269190612d7c565b602060405180830381865afa158015612043573d6000803e3d6000fd5b505050506040513d601f19601f820116820180604052508101906120679190612dac565b6120a6576040517f08c379a000000000000000000000000000000000000000000000000000000000815260040161209d90612e36565b60405180910390fd5b6000600160009054906101000a900473ffffffffffffffffffffffffffffffffffffffff1673ffffffffffffffffffffffffffffffffffffffff1663caed9c6585856040518363ffffffff1660e01b8152600401612105929190612e94565b600060405180830381865afa158015612122573d6000803e3d6000fd5b505050506040513d6000823e3d601f19601f8201168201806040525081019061214b919061380c565b5090508091505092915050565b60008060009054906101000a900473ffffffffffffffffffffffffffffffffffffffff1673ffffffffffffffffffffffffffffffffffffffff166313f44d10336040518263ffffffff1660e01b81526004016121b49190612d7c565b602060405180830381865afa1580156121d1573d6000803e3d6000fd5b505050506040513d601f19601f820116820180604052508101906121f59190612dac565b612234576040517f08c379a000000000000000000000000000000000000000000000000000000000815260040161222b90612e36565b60405180910390fd5b600260009054906101000a900473ffffffffffffffffffffffffffffffffffffffff1673ffffffffffffffffffffffffffffffffffffffff1663374a62a084846040518363ffffffff1660e01b8152600401612291929190612e94565b600060405180830381865afa1580156122ae573d6000803e3d6000fd5b505050506040513d6000823e3d601f19601f820116820180604052508101906122d79190613153565b60800151905092915050565b6122eb612563565b60008054906101000a900473ffffffffffffffffffffffffffffffffffffffff1673ffffffffffffffffffffffffffffffffffffffff166313f44d10336040518263ffffffff1660e01b81526004016123449190612d7c565b602060405180830381865afa158015612361573d6000803e3d6000fd5b505050506040513d601f19601f820116820180604052508101906123859190612dac565b6123c4576040517f08c379a00000000000000000000000000000000000000000000000000000000081526004016123bb90612e36565b60405180910390fd5b600160009054906101000a900473ffffffffffffffffffffffffffffffffffffffff1673ffffffffffffffffffffffffffffffffffffffff1663fdd3f03684846040518363ffffffff1660e01b8152600401612421929190612e94565b606060405180830381865afa15801561243e573d6000803e3d6000fd5b505050506040513d601f19601f8201168201806040525081019061246291906137df565b905092915050565b60008251118160405160200161248091906138f0565b604051602081830303815290604052906124d0576040517f08c379a00000000000000000000000000000000000000000000000000000000081526004016124c7919061394b565b60405180910390fd5b505050565b6040518060c00160405280600015158152602001600081526020016060815260200160008152602001600081526020016000151581525090565b6040518060a00160405280600015158152602001600081526020016000815260200160608152602001600081525090565b604051806060016040528060001515815260200160008152602001606081525090565b6040518060600160405280600015158152602001600015158152602001600081525090565b6000604051905090565b600080fd5b600080fd5b6000819050919050565b6125af8161259c565b81146125ba57600080fd5b50565b6000813590506125cc816125a6565b92915050565b600080fd5b600080fd5b600080fd5b60008083601f8401126125f7576125f66125d2565b5b8235905067ffffffffffffffff811115612614576126136125d7565b5b6020830191508360018202830111156126305761262f6125dc565b5b9250929050565b600080600080600080600060c0888a03121561265657612655612592565b5b60006126648a828b016125bd565b97505060206126758a828b016125bd565b96505060406126868a828b016125bd565b95505060606126978a828b016125bd565b945050608088013567ffffffffffffffff8111156126b8576126b7612597565b5b6126c48a828b016125e1565b935093505060a06126d78a828b016125bd565b91505092959891949750929550565b600080604083850312156126fd576126fc612592565b5b600061270b858286016125bd565b925050602061271c858286016125bd565b9150509250929050565b60008115159050919050565b61273b81612726565b82525050565b60006020820190506127566000830184612732565b92915050565b61276581612726565b811461277057600080fd5b50565b6000813590506127828161275c565b92915050565b60008060008060008060008060e0898b0312156127a8576127a7612592565b5b60006127b68b828c016125bd565b98505060206127c78b828c016125bd565b97505060406127d88b828c016125bd565b96505060606127e98b828c016125bd565b955050608089013567ffffffffffffffff81111561280a57612809612597565b5b6128168b828c016125e1565b945094505060a06128298b828c016125bd565b92505060c061283a8b828c01612773565b9150509295985092959890939650565b60008083601f8401126128605761285f6125d2565b5b8235905067ffffffffffffffff81111561287d5761287c6125d7565b5b602083019150836020820283011115612899576128986125dc565b5b9250929050565b6000806000806000608086880312156128bc576128bb612592565b5b60006128ca888289016125bd565b95505060206128db888289016125bd565b94505060406128ec888289016125bd565b935050606086013567ffffffffffffffff81111561290d5761290c612597565b5b6129198882890161284a565b92509250509295509295909350565b6000806000806080858703121561294257612941612592565b5b6000612950878288016125bd565b9450506020612961878288016125bd565b935050604061297287828801612773565b9250506060612983878288016125bd565b91505092959194509250565b6129988161259c565b82525050565b60006020820190506129b3600083018461298f565b92915050565b6129c281612726565b82525050565b6129d18161259c565b82525050565b600081519050919050565b600082825260208201905092915050565b60005b83811015612a115780820151818401526020810190506129f6565b60008484015250505050565b6000601f19601f8301169050919050565b6000612a39826129d7565b612a4381856129e2565b9350612a538185602086016129f3565b612a5c81612a1d565b840191505092915050565b600060c083016000830151612a7f60008601826129b9565b506020830151612a9260208601826129c8565b5060408301518482036040860152612aaa8282612a2e565b9150506060830151612abf60608601826129c8565b506080830151612ad260808601826129c8565b5060a0830151612ae560a08601826129b9565b508091505092915050565b60006020820190508181036000830152612b0a8184612a67565b905092915050565b600060a083016000830151612b2a60008601826129b9565b506020830151612b3d60208601826129c8565b506040830151612b5060408601826129c8565b5060608301518482036060860152612b688282612a2e565b9150506080830151612b7d60808601826129c8565b508091505092915050565b60006020820190508181036000830152612ba28184612b12565b905092915050565b600081519050919050565b600082825260208201905092915050565b6000819050602082019050919050565b6000612be28383612a2e565b905092915050565b6000602082019050919050565b6000612c0282612baa565b612c0c8185612bb5565b935083602082028501612c1e85612bc6565b8060005b85811015612c5a5784840389528151612c3b8582612bd6565b9450612c4683612bea565b925060208a01995050600181019050612c22565b50829750879550505050505092915050565b6000606083016000830151612c8460008601826129b9565b506020830151612c9760208601826129c8565b5060408301518482036040860152612caf8282612bf7565b9150508091505092915050565b60006020820190508181036000830152612cd68184612c6c565b905092915050565b606082016000820151612cf460008501826129b9565b506020820151612d0760208501826129b9565b506040820151612d1a60408501826129c8565b50505050565b6000606082019050612d356000830184612cde565b92915050565b600073ffffffffffffffffffffffffffffffffffffffff82169050919050565b6000612d6682612d3b565b9050919050565b612d7681612d5b565b82525050565b6000602082019050612d916000830184612d6d565b92915050565b600081519050612da68161275c565b92915050565b600060208284031215612dc257612dc1612592565b5b6000612dd084828501612d97565b91505092915050565b600082825260208201905092915050565b7f5468652073656e646572206973206e6f742077686974656c6973746564000000600082015250565b6000612e20601d83612dd9565b9150612e2b82612dea565b602082019050919050565b60006020820190508181036000830152612e4f81612e13565b9050919050565b6000606082019050612e6b600083018661298f565b612e78602083018561298f565b8181036040830152612e8a8184612b12565b9050949350505050565b6000604082019050612ea9600083018561298f565b612eb6602083018461298f565b9392505050565b600080fd5b7f4e487b7100000000000000000000000000000000000000000000000000000000600052604160045260246000fd5b612efa82612a1d565b810181811067ffffffffffffffff82111715612f1957612f18612ec2565b5b80604052505050565b6000612f2c612588565b9050612f388282612ef1565b919050565b600080fd5b600081519050612f51816125a6565b92915050565b600080fd5b600067ffffffffffffffff821115612f7757612f76612ec2565b5b612f8082612a1d565b9050602081019050919050565b6000612fa0612f9b84612f5c565b612f22565b905082815260208101848484011115612fbc57612fbb612f57565b5b612fc78482856129f3565b509392505050565b600082601f830112612fe457612fe36125d2565b5b8151612ff4848260208601612f8d565b91505092915050565b600060c0828403121561301357613012612ebd565b5b61301d60c0612f22565b9050600061302d84828501612d97565b600083015250602061304184828501612f42565b602083015250604082015167ffffffffffffffff81111561306557613064612f3d565b5b61307184828501612fcf565b604083015250606061308584828501612f42565b606083015250608061309984828501612f42565b60808301525060a06130ad84828501612d97565b60a08301525092915050565b600080604083850312156130d0576130cf612592565b5b60006130de85828601612d97565b925050602083015167ffffffffffffffff8111156130ff576130fe612597565b5b61310b85828601612ffd565b9150509250929050565b600060608201905061312a600083018661298f565b613137602083018561298f565b81810360408301526131498184612a67565b9050949350505050565b60006020828403121561316957613168612592565b5b600082015167ffffffffffffffff81111561318757613186612597565b5b61319384828501612ffd565b91505092915050565b600067ffffffffffffffff8211156131b7576131b6612ec2565b5b602082029050602081019050919050565b60006131db6131d68461319c565b612f22565b905080838252602082019050602084028301858111156131fe576131fd6125dc565b5b835b8181101561324557805167ffffffffffffffff811115613223576132226125d2565b5b8086016132308982612fcf565b85526020850194505050602081019050613200565b5050509392505050565b600082601f830112613264576132636125d2565b5b81516132748482602086016131c8565b91505092915050565b60006060828403121561329357613292612ebd565b5b61329d6060612f22565b905060006132ad84828501612d97565b60008301525060206132c184828501612f42565b602083015250604082015167ffffffffffffffff8111156132e5576132e4612f3d565b5b6132f18482850161324f565b60408301525092915050565b6000806040838503121561331457613313612592565b5b600061332285828601612d97565b925050602083015167ffffffffffffffff81111561334357613342612597565b5b61334f8582860161327d565b9150509250929050565b7f4e487b7100000000000000000000000000000000000000000000000000000000600052603260045260246000fd5b600080fd5b600080fd5b600080fd5b600080833560016020038436030381126133b4576133b3613388565b5b80840192508235915067ffffffffffffffff8211156133d6576133d561338d565b5b6020830192506001820236038313156133f2576133f1613392565b5b509250929050565b7f4e487b7100000000000000000000000000000000000000000000000000000000600052601160045260246000fd5b60006134348261259c565b91507fffffffffffffffffffffffffffffffffffffffffffffffffffffffffffffffff8203613466576134656133fa565b5b600182019050919050565b82818337600083830152505050565b600061349361348e84612f5c565b612f22565b9050828152602081018484840111156134af576134ae612f57565b5b6134ba848285613471565b509392505050565b600082601f8301126134d7576134d66125d2565b5b81356134e7848260208601613480565b91505092915050565b60006135036134fe8461319c565b612f22565b90508083825260208201905060208402830185811115613526576135256125dc565b5b835b8181101561356d57803567ffffffffffffffff81111561354b5761354a6125d2565b5b80860161355889826134c2565b85526020850194505050602081019050613528565b5050509392505050565b60006135843684846134f0565b905092915050565b60006060820190506135a1600083018661298f565b6135ae602083018561298f565b81810360408301526135c08184612c6c565b9050949350505050565b600060a0820190506135df600083018661298f565b6135ec602083018561298f565b6135f96040830184612cde565b949350505050565b600060a0828403121561361757613616612ebd565b5b61362160a0612f22565b9050600061363184828501612d97565b600083015250602061364584828501612f42565b602083015250604061365984828501612f42565b604083015250606082015167ffffffffffffffff81111561367d5761367c612f3d565b5b61368984828501612fcf565b606083015250608061369d84828501612f42565b60808301525092915050565b6000602082840312156136bf576136be612592565b5b600082015167ffffffffffffffff8111156136dd576136dc612597565b5b6136e984828501613601565b91505092915050565b60006060828403121561370857613707612ebd565b5b6137126060612f22565b9050600061372284828501612d97565b600083015250602061373684828501612d97565b602083015250604061374a84828501612f42565b60408301525092915050565b6000806080838503121561376d5761376c612592565b5b600061377b85828601612d97565b925050602061378c858286016136f2565b9150509250929050565b6000602082840312156137ac576137ab612592565b5b600082015167ffffffffffffffff8111156137ca576137c9612597565b5b6137d68482850161327d565b91505092915050565b6000606082840312156137f5576137f4612592565b5b6000613803848285016136f2565b91505092915050565b6000806040838503121561382357613822612592565b5b600061383185828601612d97565b925050602083015167ffffffffffffffff81111561385257613851612597565b5b61385e85828601613601565b9150509250929050565b600081905092915050565b600061387e826129d7565b6138888185613868565b93506138988185602086016129f3565b80840191505092915050565b7f2063616e6e6f7420626520656d70747900000000000000000000000000000000600082015250565b60006138da601083613868565b91506138e5826138a4565b601082019050919050565b60006138fc8284613873565b9150613907826138cd565b915081905092915050565b600061391d826129d7565b6139278185612dd9565b93506139378185602086016129f3565b61394081612a1d565b840191505092915050565b600060208201905081810360008301526139658184613912565b90509291505056fea2646970667358221220ee304d7080e950cbc3605a3d56ae5d3dbbbb79de597c3bc08bbd109ea1bf6e5464736f6c63430008110033",
  "linkReferences": {},
  "deployedLinkReferences": {}
}