{
  "_format": "hh-sol-artifact-1",
  "contractName": "PerformanceDataManager",
  "sourceName": "contracts/data/datamanager/PerformanceDataManager.sol",
  "abi": [
    {
      "inputs": [
        {
          "internalType": "address",
          "name": "performanceStorageAddress",
          "type": "address"
        },
        {
          "internalType": "address",
          "name": "gradeStorageAddress",
          "type": "address"
        },
        {
          "internalType": "address",
          "name": "accessWhitelistAddress",
          "type": "address"
        }
      ],
      "stateMutability": "nonpayable",
      "type": "constructor"
    },
    {
      "inputs": [
        {
          "internalType": "uint256",
          "name": "uId",
          "type": "uint256"
        },
        {
          "internalType": "uint256",
          "name": "assessmentId",
          "type": "uint256"
        }
      ],
      "name": "getAchievedPoints",
      "outputs": [
        {
          "internalType": "uint256",
          "name": "",
          "type": "uint256"
        }
      ],
      "stateMutability": "view",
      "type": "function"
    },
    {
      "inputs": [
        {
          "internalType": "uint256",
          "name": "uId",
          "type": "uint256"
        },
        {
          "internalType": "uint256",
          "name": "assessmentId",
          "type": "uint256"
        }
      ],
      "name": "getAttendanceValue",
      "outputs": [
        {
          "internalType": "bool",
          "name": "",
          "type": "bool"
        }
      ],
      "stateMutability": "view",
      "type": "function"
    },
    {
      "inputs": [
        {
          "internalType": "uint256",
          "name": "uId",
          "type": "uint256"
        },
        {
          "internalType": "uint256",
          "name": "assessmentId",
          "type": "uint256"
        }
      ],
      "name": "getEvaluation",
      "outputs": [
        {
          "components": [
            {
              "internalType": "bool",
              "name": "isSet",
              "type": "bool"
            },
            {
              "internalType": "uint256",
              "name": "datetime",
              "type": "uint256"
            },
            {
              "internalType": "uint256",
              "name": "achievedPoints",
              "type": "uint256"
            },
            {
              "internalType": "string",
              "name": "feedback",
              "type": "string"
            },
            {
              "internalType": "uint256",
              "name": "lecturerUId",
              "type": "uint256"
            }
          ],
          "internalType": "struct PerformanceDataTypes.Evaluation",
          "name": "",
          "type": "tuple"
        }
      ],
      "stateMutability": "view",
      "type": "function"
    },
    {
      "inputs": [
        {
          "internalType": "uint256",
          "name": "uId",
          "type": "uint256"
        },
        {
          "internalType": "uint256",
          "name": "assessmentId",
          "type": "uint256"
        }
      ],
      "name": "getEvaluatorUId",
      "outputs": [
        {
          "internalType": "uint256",
          "name": "",
          "type": "uint256"
        }
      ],
      "stateMutability": "view",
      "type": "function"
    },
    {
      "inputs": [
        {
          "internalType": "uint256",
          "name": "uId",
          "type": "uint256"
        },
        {
          "internalType": "uint256",
          "name": "assessmentId",
          "type": "uint256"
        }
      ],
      "name": "getExamAttendance",
      "outputs": [
        {
          "components": [
            {
              "internalType": "bool",
              "name": "isSet",
              "type": "bool"
            },
            {
              "internalType": "bool",
              "name": "hasAttended",
              "type": "bool"
            },
            {
              "internalType": "uint256",
              "name": "confirmationDateTime",
              "type": "uint256"
            }
          ],
          "internalType": "struct PerformanceDataTypes.ExamAttendance",
          "name": "",
          "type": "tuple"
        }
      ],
      "stateMutability": "view",
      "type": "function"
    },
    {
      "inputs": [
        {
          "internalType": "uint256",
          "name": "uId",
          "type": "uint256"
        },
        {
          "internalType": "uint256",
          "name": "courseId",
          "type": "uint256"
        }
      ],
      "name": "getGrade",
      "outputs": [
        {
          "components": [
            {
              "internalType": "bool",
              "name": "isSet",
              "type": "bool"
            },
            {
              "internalType": "uint256",
              "name": "value",
              "type": "uint256"
            },
            {
              "internalType": "string",
              "name": "feedback",
              "type": "string"
            },
            {
              "internalType": "uint256",
              "name": "datetime",
              "type": "uint256"
            },
            {
              "internalType": "uint256",
              "name": "lecturerUId",
              "type": "uint256"
            },
            {
              "internalType": "bool",
              "name": "isFinal",
              "type": "bool"
            }
          ],
          "internalType": "struct PerformanceDataTypes.Grade",
          "name": "",
          "type": "tuple"
        }
      ],
      "stateMutability": "view",
      "type": "function"
    },
    {
      "inputs": [
        {
          "internalType": "uint256",
          "name": "uId",
          "type": "uint256"
        },
        {
          "internalType": "uint256",
          "name": "courseId",
          "type": "uint256"
        }
      ],
      "name": "getGraderUId",
      "outputs": [
        {
          "internalType": "uint256",
          "name": "",
          "type": "uint256"
        }
      ],
      "stateMutability": "view",
      "type": "function"
    },
    {
      "inputs": [
        {
          "internalType": "uint256",
          "name": "uId",
          "type": "uint256"
        },
        {
          "internalType": "uint256",
          "name": "assessmentId",
          "type": "uint256"
        }
      ],
      "name": "getSubmission",
      "outputs": [
        {
          "components": [
            {
              "internalType": "bool",
              "name": "isSet",
              "type": "bool"
            },
            {
              "internalType": "uint256",
              "name": "submissionDatetime",
              "type": "uint256"
            },
            {
              "internalType": "string[]",
              "name": "documentHashes",
              "type": "string[]"
            }
          ],
          "internalType": "struct PerformanceDataTypes.Submission",
          "name": "",
          "type": "tuple"
        }
      ],
      "stateMutability": "view",
      "type": "function"
    },
    {
      "inputs": [
        {
          "internalType": "uint256",
          "name": "uId",
          "type": "uint256"
        },
        {
          "internalType": "uint256",
          "name": "assessmentId",
          "type": "uint256"
        }
      ],
      "name": "getSubmissionDeadline",
      "outputs": [
        {
          "internalType": "uint256",
          "name": "",
          "type": "uint256"
        }
      ],
      "stateMutability": "view",
      "type": "function"
    },
    {
      "inputs": [
        {
          "internalType": "uint256",
          "name": "uId",
          "type": "uint256"
        },
        {
          "internalType": "uint256",
          "name": "assessmentId",
          "type": "uint256"
        }
      ],
      "name": "isAttendanceSet",
      "outputs": [
        {
          "internalType": "bool",
          "name": "",
          "type": "bool"
        }
      ],
      "stateMutability": "view",
      "type": "function"
    },
    {
      "inputs": [
        {
          "internalType": "uint256",
          "name": "uId",
          "type": "uint256"
        },
        {
          "internalType": "uint256",
          "name": "assessmentId",
          "type": "uint256"
        }
      ],
      "name": "isEvaluationSet",
      "outputs": [
        {
          "internalType": "bool",
          "name": "",
          "type": "bool"
        }
      ],
      "stateMutability": "view",
      "type": "function"
    },
    {
      "inputs": [
        {
          "internalType": "uint256",
          "name": "uId",
          "type": "uint256"
        },
        {
          "internalType": "uint256",
          "name": "courseId",
          "type": "uint256"
        }
      ],
      "name": "isFinalGradeSet",
      "outputs": [
        {
          "internalType": "bool",
          "name": "",
          "type": "bool"
        }
      ],
      "stateMutability": "view",
      "type": "function"
    },
    {
      "inputs": [
        {
          "internalType": "uint256",
          "name": "uId",
          "type": "uint256"
        },
        {
          "internalType": "uint256",
          "name": "courseId",
          "type": "uint256"
        }
      ],
      "name": "isGradeSet",
      "outputs": [
        {
          "internalType": "bool",
          "name": "",
          "type": "bool"
        }
      ],
      "stateMutability": "view",
      "type": "function"
    },
    {
      "inputs": [
        {
          "internalType": "uint256",
          "name": "uId",
          "type": "uint256"
        },
        {
          "internalType": "uint256",
          "name": "assessmentId",
          "type": "uint256"
        }
      ],
      "name": "isSubmissionSet",
      "outputs": [
        {
          "internalType": "bool",
          "name": "",
          "type": "bool"
        }
      ],
      "stateMutability": "view",
      "type": "function"
    },
    {
      "inputs": [
        {
          "internalType": "uint256",
          "name": "uId",
          "type": "uint256"
        },
        {
          "internalType": "uint256",
          "name": "assessmentId",
          "type": "uint256"
        },
        {
          "internalType": "uint256",
          "name": "timestamp",
          "type": "uint256"
        },
        {
          "internalType": "uint256",
          "name": "achievedPoints",
          "type": "uint256"
        },
        {
          "internalType": "string",
          "name": "feedback",
          "type": "string"
        },
        {
          "internalType": "uint256",
          "name": "lecturerUId",
          "type": "uint256"
        }
      ],
      "name": "setEvaluation",
      "outputs": [],
      "stateMutability": "nonpayable",
      "type": "function"
    },
    {
      "inputs": [
        {
          "internalType": "uint256",
          "name": "uId",
          "type": "uint256"
        },
        {
          "internalType": "uint256",
          "name": "assessmentId",
          "type": "uint256"
        },
        {
          "internalType": "bool",
          "name": "hasAttended",
          "type": "bool"
        },
        {
          "internalType": "uint256",
          "name": "timestamp",
          "type": "uint256"
        }
      ],
      "name": "setExamAttendance",
      "outputs": [],
      "stateMutability": "nonpayable",
      "type": "function"
    },
    {
      "inputs": [
        {
          "internalType": "uint256",
          "name": "uId",
          "type": "uint256"
        },
        {
          "internalType": "uint256",
          "name": "courseId",
          "type": "uint256"
        },
        {
          "internalType": "uint256",
          "name": "timestamp",
          "type": "uint256"
        },
        {
          "internalType": "uint256",
          "name": "grade",
          "type": "uint256"
        },
        {
          "internalType": "string",
          "name": "feedback",
          "type": "string"
        },
        {
          "internalType": "uint256",
          "name": "lecturerUId",
          "type": "uint256"
        },
        {
          "internalType": "bool",
          "name": "isFinal",
          "type": "bool"
        }
      ],
      "name": "setGrade",
      "outputs": [],
      "stateMutability": "nonpayable",
      "type": "function"
    },
    {
      "inputs": [
        {
          "internalType": "uint256",
          "name": "uId",
          "type": "uint256"
        },
        {
          "internalType": "uint256",
          "name": "courseId",
          "type": "uint256"
        },
        {
          "internalType": "uint256",
          "name": "timestamp",
          "type": "uint256"
        },
        {
          "internalType": "uint256",
          "name": "grade",
          "type": "uint256"
        },
        {
          "internalType": "string",
          "name": "feedback",
          "type": "string"
        },
        {
          "internalType": "uint256",
          "name": "lecturerUId",
          "type": "uint256"
        },
        {
          "internalType": "bool",
          "name": "isFinal",
          "type": "bool"
        }
      ],
      "name": "setOrOverrideGrade",
      "outputs": [],
      "stateMutability": "nonpayable",
      "type": "function"
    },
    {
      "inputs": [
        {
          "internalType": "uint256",
          "name": "uId",
          "type": "uint256"
        },
        {
          "internalType": "uint256",
          "name": "assessmentId",
          "type": "uint256"
        },
        {
          "internalType": "uint256",
          "name": "timestamp",
          "type": "uint256"
        },
        {
          "internalType": "string[]",
          "name": "documentHashes",
          "type": "string[]"
        }
      ],
      "name": "setSubmission",
      "outputs": [],
      "stateMutability": "nonpayable",
      "type": "function"
    }
  ],
  "bytecode": "0x60806040523480156200001157600080fd5b5060405162003c5538038062003c5583398181016040528101906200003791906200016e565b80806000806101000a81548173ffffffffffffffffffffffffffffffffffffffff021916908373ffffffffffffffffffffffffffffffffffffffff1602179055505082600160006101000a81548173ffffffffffffffffffffffffffffffffffffffff021916908373ffffffffffffffffffffffffffffffffffffffff16021790555081600260006101000a81548173ffffffffffffffffffffffffffffffffffffffff021916908373ffffffffffffffffffffffffffffffffffffffff160217905550505050620001ca565b600080fd5b600073ffffffffffffffffffffffffffffffffffffffff82169050919050565b6000620001368262000109565b9050919050565b620001488162000129565b81146200015457600080fd5b50565b60008151905062000168816200013d565b92915050565b6000806000606084860312156200018a576200018962000104565b5b60006200019a8682870162000157565b9350506020620001ad8682870162000157565b9250506040620001c08682870162000157565b9150509250925092565b613a7b80620001da6000396000f3fe608060405234801561001057600080fd5b50600436106101215760003560e01c806359a7dbe0116100ad578063b54c676a11610071578063b54c676a14610362578063b7ed707114610392578063cfca6e97146103c2578063d2ceb788146103f2578063fdd3f0361461042257610121565b806359a7dbe0146102865780635e4a7392146102a2578063683391e4146102d25780637c56af0114610302578063829e90d51461033257610121565b80631a2a2c4a116100f45780631a2a2c4a146101be5780631b89db2f146101ee57806323f618ee1461020a5780632e3b755e14610226578063374a62a01461025657610121565b8063119e794414610126578063130cd8911461014257806314457f171461017257806315fea7d51461018e575b600080fd5b610140600480360381019061013b919061267d565b610452565b005b61015c6004803603810190610157919061272c565b610632565b6040516101699190612787565b60405180910390f35b61018c600480360381019061018791906127ce565b6107c0565b005b6101a860048036038101906101a3919061272c565b6109a9565b6040516101b59190612787565b60405180910390f35b6101d860048036038101906101d3919061272c565b610b4c565b6040516101e59190612787565b60405180910390f35b610208600480360381019061020391906128e6565b610cda565b005b610224600480360381019061021f919061296e565b610f80565b005b610240600480360381019061023b919061272c565b61110f565b60405161024d91906129e4565b60405180910390f35b610270600480360381019061026b919061272c565b6112b2565b60405161027d9190612b36565b60405180910390f35b6102a0600480360381019061029b91906127ce565b61143e565b005b6102bc60048036038101906102b7919061272c565b6116d3565b6040516102c99190612bce565b60405180910390f35b6102ec60048036038101906102e7919061272c565b61185f565b6040516102f99190612787565b60405180910390f35b61031c6004803603810190610317919061272c565b6119e8565b60405161032991906129e4565b60405180910390f35b61034c6004803603810190610347919061272c565b611b73565b60405161035991906129e4565b60405180910390f35b61037c6004803603810190610377919061272c565b611cfe565b6040516103899190612787565b60405180910390f35b6103ac60048036038101906103a7919061272c565b611e84565b6040516103b99190612d02565b60405180910390f35b6103dc60048036038101906103d7919061272c565b612010565b6040516103e99190612787565b60405180910390f35b61040c6004803603810190610407919061272c565b61219e565b60405161041991906129e4565b60405180910390f35b61043c6004803603810190610437919061272c565b612329565b6040516104499190612d66565b60405180910390f35b60008054906101000a900473ffffffffffffffffffffffffffffffffffffffff1673ffffffffffffffffffffffffffffffffffffffff166313f44d10336040518263ffffffff1660e01b81526004016104ab9190612dc2565b602060405180830381865afa1580156104c8573d6000803e3d6000fd5b505050506040513d601f19601f820116820180604052508101906104ec9190612df2565b61052b576040517f08c379a000000000000000000000000000000000000000000000000000000000815260040161052290612e7c565b60405180910390fd5b600160009054906101000a900473ffffffffffffffffffffffffffffffffffffffff1673ffffffffffffffffffffffffffffffffffffffff16634c37c9cf88886040518060a001604052806001151581526020018a815260200189815260200188888080601f016020809104026020016040519081016040528093929190818152602001838380828437600081840152601f19601f820116905080830192505050505050508152602001868152506040518463ffffffff1660e01b81526004016105f793929190612e9c565b600060405180830381600087803b15801561061157600080fd5b505af1158015610625573d6000803e3d6000fd5b5050505050505050505050565b60008060009054906101000a900473ffffffffffffffffffffffffffffffffffffffff1673ffffffffffffffffffffffffffffffffffffffff166313f44d10336040518263ffffffff1660e01b815260040161068e9190612dc2565b602060405180830381865afa1580156106ab573d6000803e3d6000fd5b505050506040513d601f19601f820116820180604052508101906106cf9190612df2565b61070e576040517f08c379a000000000000000000000000000000000000000000000000000000000815260040161070590612e7c565b60405180910390fd5b6000600260009054906101000a900473ffffffffffffffffffffffffffffffffffffffff1673ffffffffffffffffffffffffffffffffffffffff16634e86434085856040518363ffffffff1660e01b815260040161076d929190612eda565b600060405180830381865afa15801561078a573d6000803e3d6000fd5b505050506040513d6000823e3d601f19601f820116820180604052508101906107b391906130ff565b5090508091505092915050565b60008054906101000a900473ffffffffffffffffffffffffffffffffffffffff1673ffffffffffffffffffffffffffffffffffffffff166313f44d10336040518263ffffffff1660e01b81526004016108199190612dc2565b602060405180830381865afa158015610836573d6000803e3d6000fd5b505050506040513d601f19601f8201168201806040525081019061085a9190612df2565b610899576040517f08c379a000000000000000000000000000000000000000000000000000000000815260040161089090612e7c565b60405180910390fd5b600260009054906101000a900473ffffffffffffffffffffffffffffffffffffffff1673ffffffffffffffffffffffffffffffffffffffff1663375c0c4f89896040518060c001604052806001151581526020018a815260200189898080601f016020809104026020016040519081016040528093929190818152602001838380828437600081840152601f19601f8201169050808301925050505050505081526020018b81526020018781526020018615158152506040518463ffffffff1660e01b815260040161096d9392919061315b565b600060405180830381600087803b15801561098757600080fd5b505af115801561099b573d6000803e3d6000fd5b505050505050505050505050565b60008060009054906101000a900473ffffffffffffffffffffffffffffffffffffffff1673ffffffffffffffffffffffffffffffffffffffff166313f44d10336040518263ffffffff1660e01b8152600401610a059190612dc2565b602060405180830381865afa158015610a22573d6000803e3d6000fd5b505050506040513d601f19601f82011682018060405250810190610a469190612df2565b610a85576040517f08c379a0000000000000000000000000000000000000000000000000000000008152600401610a7c90612e7c565b60405180910390fd5b610a8f8383610632565b610a9c5760009050610b46565b600260009054906101000a900473ffffffffffffffffffffffffffffffffffffffff1673ffffffffffffffffffffffffffffffffffffffff1663374a62a084846040518363ffffffff1660e01b8152600401610af9929190612eda565b600060405180830381865afa158015610b16573d6000803e3d6000fd5b505050506040513d6000823e3d601f19601f82011682018060405250810190610b3f9190613199565b60a0015190505b92915050565b60008060009054906101000a900473ffffffffffffffffffffffffffffffffffffffff1673ffffffffffffffffffffffffffffffffffffffff166313f44d10336040518263ffffffff1660e01b8152600401610ba89190612dc2565b602060405180830381865afa158015610bc5573d6000803e3d6000fd5b505050506040513d601f19601f82011682018060405250810190610be99190612df2565b610c28576040517f08c379a0000000000000000000000000000000000000000000000000000000008152600401610c1f90612e7c565b60405180910390fd5b6000600160009054906101000a900473ffffffffffffffffffffffffffffffffffffffff1673ffffffffffffffffffffffffffffffffffffffff1663c51e6e4785856040518363ffffffff1660e01b8152600401610c87929190612eda565b600060405180830381865afa158015610ca4573d6000803e3d6000fd5b505050506040513d6000823e3d601f19601f82011682018060405250810190610ccd9190613343565b5090508091505092915050565b60008054906101000a900473ffffffffffffffffffffffffffffffffffffffff1673ffffffffffffffffffffffffffffffffffffffff166313f44d10336040518263ffffffff1660e01b8152600401610d339190612dc2565b602060405180830381865afa158015610d50573d6000803e3d6000fd5b505050506040513d601f19601f82011682018060405250810190610d749190612df2565b610db3576040517f08c379a0000000000000000000000000000000000000000000000000000000008152600401610daa90612e7c565b60405180910390fd5b60008282905011610df9576040517f08c379a0000000000000000000000000000000000000000000000000000000008152600401610df090613411565b60405180910390fd5b60005b82829050811015610ebe57610ead838383818110610e1d57610e1c613431565b5b9050602002810190610e2f919061346f565b8080601f016020809104026020016040519081016040528093929190818152602001838380828437600081840152601f19601f820116905080830192505050505050506040518060400160405280600d81526020017f446f63756d656e742068617368000000000000000000000000000000000000008152506124b0565b80610eb790613501565b9050610dfc565b50600160009054906101000a900473ffffffffffffffffffffffffffffffffffffffff1673ffffffffffffffffffffffffffffffffffffffff16631f0884ea86866040518060600160405280600115158152602001888152602001878790610f26919061364f565b8152506040518463ffffffff1660e01b8152600401610f4793929190613664565b600060405180830381600087803b158015610f6157600080fd5b505af1158015610f75573d6000803e3d6000fd5b505050505050505050565b60008054906101000a900473ffffffffffffffffffffffffffffffffffffffff1673ffffffffffffffffffffffffffffffffffffffff166313f44d10336040518263ffffffff1660e01b8152600401610fd99190612dc2565b602060405180830381865afa158015610ff6573d6000803e3d6000fd5b505050506040513d601f19601f8201168201806040525081019061101a9190612df2565b611059576040517f08c379a000000000000000000000000000000000000000000000000000000000815260040161105090612e7c565b60405180910390fd5b600160009054906101000a900473ffffffffffffffffffffffffffffffffffffffff1673ffffffffffffffffffffffffffffffffffffffff16637241bf62858560405180606001604052806001151581526020018715158152602001868152506040518463ffffffff1660e01b81526004016110d7939291906136a2565b600060405180830381600087803b1580156110f157600080fd5b505af1158015611105573d6000803e3d6000fd5b5050505050505050565b60008060009054906101000a900473ffffffffffffffffffffffffffffffffffffffff1673ffffffffffffffffffffffffffffffffffffffff166313f44d10336040518263ffffffff1660e01b815260040161116b9190612dc2565b602060405180830381865afa158015611188573d6000803e3d6000fd5b505050506040513d601f19601f820116820180604052508101906111ac9190612df2565b6111eb576040517f08c379a00000000000000000000000000000000000000000000000000000000081526004016111e290612e7c565b60405180910390fd5b6111f58383612010565b61120257600090506112ac565b600160009054906101000a900473ffffffffffffffffffffffffffffffffffffffff1673ffffffffffffffffffffffffffffffffffffffff16635e4a739284846040518363ffffffff1660e01b815260040161125f929190612eda565b600060405180830381865afa15801561127c573d6000803e3d6000fd5b505050506040513d6000823e3d601f19601f820116820180604052508101906112a59190613781565b6040015190505b92915050565b6112ba61251b565b60008054906101000a900473ffffffffffffffffffffffffffffffffffffffff1673ffffffffffffffffffffffffffffffffffffffff166313f44d10336040518263ffffffff1660e01b81526004016113139190612dc2565b602060405180830381865afa158015611330573d6000803e3d6000fd5b505050506040513d601f19601f820116820180604052508101906113549190612df2565b611393576040517f08c379a000000000000000000000000000000000000000000000000000000000815260040161138a90612e7c565b60405180910390fd5b600260009054906101000a900473ffffffffffffffffffffffffffffffffffffffff1673ffffffffffffffffffffffffffffffffffffffff1663374a62a084846040518363ffffffff1660e01b81526004016113f0929190612eda565b600060405180830381865afa15801561140d573d6000803e3d6000fd5b505050506040513d6000823e3d601f19601f820116820180604052508101906114369190613199565b905092915050565b60008054906101000a900473ffffffffffffffffffffffffffffffffffffffff1673ffffffffffffffffffffffffffffffffffffffff166313f44d10336040518263ffffffff1660e01b81526004016114979190612dc2565b602060405180830381865afa1580156114b4573d6000803e3d6000fd5b505050506040513d601f19601f820116820180604052508101906114d89190612df2565b611517576040517f08c379a000000000000000000000000000000000000000000000000000000000815260040161150e90612e7c565b60405180910390fd5b60006040518060c0016040528060011515815260200187815260200186868080601f016020809104026020016040519081016040528093929190818152602001838380828437600081840152601f19601f820116905080830192505050505050508152602001888152602001848152602001831515815250905061159b8989610632565b1561163657600260009054906101000a900473ffffffffffffffffffffffffffffffffffffffff1673ffffffffffffffffffffffffffffffffffffffff166342ad565e8a8a846040518463ffffffff1660e01b81526004016115ff9392919061315b565b600060405180830381600087803b15801561161957600080fd5b505af115801561162d573d6000803e3d6000fd5b505050506116c8565b600260009054906101000a900473ffffffffffffffffffffffffffffffffffffffff1673ffffffffffffffffffffffffffffffffffffffff1663375c0c4f8a8a846040518463ffffffff1660e01b81526004016116959392919061315b565b600060405180830381600087803b1580156116af57600080fd5b505af11580156116c3573d6000803e3d6000fd5b505050505b505050505050505050565b6116db612555565b60008054906101000a900473ffffffffffffffffffffffffffffffffffffffff1673ffffffffffffffffffffffffffffffffffffffff166313f44d10336040518263ffffffff1660e01b81526004016117349190612dc2565b602060405180830381865afa158015611751573d6000803e3d6000fd5b505050506040513d601f19601f820116820180604052508101906117759190612df2565b6117b4576040517f08c379a00000000000000000000000000000000000000000000000000000000081526004016117ab90612e7c565b60405180910390fd5b600160009054906101000a900473ffffffffffffffffffffffffffffffffffffffff1673ffffffffffffffffffffffffffffffffffffffff16635e4a739284846040518363ffffffff1660e01b8152600401611811929190612eda565b600060405180830381865afa15801561182e573d6000803e3d6000fd5b505050506040513d6000823e3d601f19601f820116820180604052508101906118579190613781565b905092915050565b60008060009054906101000a900473ffffffffffffffffffffffffffffffffffffffff1673ffffffffffffffffffffffffffffffffffffffff166313f44d10336040518263ffffffff1660e01b81526004016118bb9190612dc2565b602060405180830381865afa1580156118d8573d6000803e3d6000fd5b505050506040513d601f19601f820116820180604052508101906118fc9190612df2565b61193b576040517f08c379a000000000000000000000000000000000000000000000000000000000815260040161193290612e7c565b60405180910390fd5b6000600160009054906101000a900473ffffffffffffffffffffffffffffffffffffffff1673ffffffffffffffffffffffffffffffffffffffff16631359e12a85856040518363ffffffff1660e01b815260040161199a929190612eda565b608060405180830381865afa1580156119b7573d6000803e3d6000fd5b505050506040513d601f19601f820116820180604052508101906119db919061382e565b5090508091505092915050565b60008060009054906101000a900473ffffffffffffffffffffffffffffffffffffffff1673ffffffffffffffffffffffffffffffffffffffff166313f44d10336040518263ffffffff1660e01b8152600401611a449190612dc2565b602060405180830381865afa158015611a61573d6000803e3d6000fd5b505050506040513d601f19601f82011682018060405250810190611a859190612df2565b611ac4576040517f08c379a0000000000000000000000000000000000000000000000000000000008152600401611abb90612e7c565b60405180910390fd5b600160009054906101000a900473ffffffffffffffffffffffffffffffffffffffff1673ffffffffffffffffffffffffffffffffffffffff1663b7ed707184846040518363ffffffff1660e01b8152600401611b21929190612eda565b600060405180830381865afa158015611b3e573d6000803e3d6000fd5b505050506040513d6000823e3d601f19601f82011682018060405250810190611b67919061386e565b60200151905092915050565b60008060009054906101000a900473ffffffffffffffffffffffffffffffffffffffff1673ffffffffffffffffffffffffffffffffffffffff166313f44d10336040518263ffffffff1660e01b8152600401611bcf9190612dc2565b602060405180830381865afa158015611bec573d6000803e3d6000fd5b505050506040513d601f19601f82011682018060405250810190611c109190612df2565b611c4f576040517f08c379a0000000000000000000000000000000000000000000000000000000008152600401611c4690612e7c565b60405180910390fd5b600160009054906101000a900473ffffffffffffffffffffffffffffffffffffffff1673ffffffffffffffffffffffffffffffffffffffff16635e4a739284846040518363ffffffff1660e01b8152600401611cac929190612eda565b600060405180830381865afa158015611cc9573d6000803e3d6000fd5b505050506040513d6000823e3d601f19601f82011682018060405250810190611cf29190613781565b60800151905092915050565b60008060009054906101000a900473ffffffffffffffffffffffffffffffffffffffff1673ffffffffffffffffffffffffffffffffffffffff166313f44d10336040518263ffffffff1660e01b8152600401611d5a9190612dc2565b602060405180830381865afa158015611d77573d6000803e3d6000fd5b505050506040513d601f19601f82011682018060405250810190611d9b9190612df2565b611dda576040517f08c379a0000000000000000000000000000000000000000000000000000000008152600401611dd190612e7c565b60405180910390fd5b600160009054906101000a900473ffffffffffffffffffffffffffffffffffffffff1673ffffffffffffffffffffffffffffffffffffffff1663fdd3f03684846040518363ffffffff1660e01b8152600401611e37929190612eda565b606060405180830381865afa158015611e54573d6000803e3d6000fd5b505050506040513d601f19601f82011682018060405250810190611e7891906138b7565b60200151905092915050565b611e8c612586565b60008054906101000a900473ffffffffffffffffffffffffffffffffffffffff1673ffffffffffffffffffffffffffffffffffffffff166313f44d10336040518263ffffffff1660e01b8152600401611ee59190612dc2565b602060405180830381865afa158015611f02573d6000803e3d6000fd5b505050506040513d601f19601f82011682018060405250810190611f269190612df2565b611f65576040517f08c379a0000000000000000000000000000000000000000000000000000000008152600401611f5c90612e7c565b60405180910390fd5b600160009054906101000a900473ffffffffffffffffffffffffffffffffffffffff1673ffffffffffffffffffffffffffffffffffffffff1663b7ed707184846040518363ffffffff1660e01b8152600401611fc2929190612eda565b600060405180830381865afa158015611fdf573d6000803e3d6000fd5b505050506040513d6000823e3d601f19601f82011682018060405250810190612008919061386e565b905092915050565b60008060009054906101000a900473ffffffffffffffffffffffffffffffffffffffff1673ffffffffffffffffffffffffffffffffffffffff166313f44d10336040518263ffffffff1660e01b815260040161206c9190612dc2565b602060405180830381865afa158015612089573d6000803e3d6000fd5b505050506040513d601f19601f820116820180604052508101906120ad9190612df2565b6120ec576040517f08c379a00000000000000000000000000000000000000000000000000000000081526004016120e390612e7c565b60405180910390fd5b6000600160009054906101000a900473ffffffffffffffffffffffffffffffffffffffff1673ffffffffffffffffffffffffffffffffffffffff1663caed9c6585856040518363ffffffff1660e01b815260040161214b929190612eda565b600060405180830381865afa158015612168573d6000803e3d6000fd5b505050506040513d6000823e3d601f19601f8201168201806040525081019061219191906138e4565b5090508091505092915050565b60008060009054906101000a900473ffffffffffffffffffffffffffffffffffffffff1673ffffffffffffffffffffffffffffffffffffffff166313f44d10336040518263ffffffff1660e01b81526004016121fa9190612dc2565b602060405180830381865afa158015612217573d6000803e3d6000fd5b505050506040513d601f19601f8201168201806040525081019061223b9190612df2565b61227a576040517f08c379a000000000000000000000000000000000000000000000000000000000815260040161227190612e7c565b60405180910390fd5b600260009054906101000a900473ffffffffffffffffffffffffffffffffffffffff1673ffffffffffffffffffffffffffffffffffffffff1663374a62a084846040518363ffffffff1660e01b81526004016122d7929190612eda565b600060405180830381865afa1580156122f4573d6000803e3d6000fd5b505050506040513d6000823e3d601f19601f8201168201806040525081019061231d9190613199565b60800151905092915050565b6123316125a9565b60008054906101000a900473ffffffffffffffffffffffffffffffffffffffff1673ffffffffffffffffffffffffffffffffffffffff166313f44d10336040518263ffffffff1660e01b815260040161238a9190612dc2565b602060405180830381865afa1580156123a7573d6000803e3d6000fd5b505050506040513d601f19601f820116820180604052508101906123cb9190612df2565b61240a576040517f08c379a000000000000000000000000000000000000000000000000000000000815260040161240190612e7c565b60405180910390fd5b600160009054906101000a900473ffffffffffffffffffffffffffffffffffffffff1673ffffffffffffffffffffffffffffffffffffffff1663fdd3f03684846040518363ffffffff1660e01b8152600401612467929190612eda565b606060405180830381865afa158015612484573d6000803e3d6000fd5b505050506040513d601f19601f820116820180604052508101906124a891906138b7565b905092915050565b6000825111816040516020016124c691906139c8565b60405160208183030381529060405290612516576040517f08c379a000000000000000000000000000000000000000000000000000000000815260040161250d9190613a23565b60405180910390fd5b505050565b6040518060c00160405280600015158152602001600081526020016060815260200160008152602001600081526020016000151581525090565b6040518060a00160405280600015158152602001600081526020016000815260200160608152602001600081525090565b604051806060016040528060001515815260200160008152602001606081525090565b6040518060600160405280600015158152602001600015158152602001600081525090565b6000604051905090565b600080fd5b600080fd5b6000819050919050565b6125f5816125e2565b811461260057600080fd5b50565b600081359050612612816125ec565b92915050565b600080fd5b600080fd5b600080fd5b60008083601f84011261263d5761263c612618565b5b8235905067ffffffffffffffff81111561265a5761265961261d565b5b60208301915083600182028301111561267657612675612622565b5b9250929050565b600080600080600080600060c0888a03121561269c5761269b6125d8565b5b60006126aa8a828b01612603565b97505060206126bb8a828b01612603565b96505060406126cc8a828b01612603565b95505060606126dd8a828b01612603565b945050608088013567ffffffffffffffff8111156126fe576126fd6125dd565b5b61270a8a828b01612627565b935093505060a061271d8a828b01612603565b91505092959891949750929550565b60008060408385031215612743576127426125d8565b5b600061275185828601612603565b925050602061276285828601612603565b9150509250929050565b60008115159050919050565b6127818161276c565b82525050565b600060208201905061279c6000830184612778565b92915050565b6127ab8161276c565b81146127b657600080fd5b50565b6000813590506127c8816127a2565b92915050565b60008060008060008060008060e0898b0312156127ee576127ed6125d8565b5b60006127fc8b828c01612603565b985050602061280d8b828c01612603565b975050604061281e8b828c01612603565b965050606061282f8b828c01612603565b955050608089013567ffffffffffffffff8111156128505761284f6125dd565b5b61285c8b828c01612627565b945094505060a061286f8b828c01612603565b92505060c06128808b828c016127b9565b9150509295985092959890939650565b60008083601f8401126128a6576128a5612618565b5b8235905067ffffffffffffffff8111156128c3576128c261261d565b5b6020830191508360208202830111156128df576128de612622565b5b9250929050565b600080600080600060808688031215612902576129016125d8565b5b600061291088828901612603565b955050602061292188828901612603565b945050604061293288828901612603565b935050606086013567ffffffffffffffff811115612953576129526125dd565b5b61295f88828901612890565b92509250509295509295909350565b60008060008060808587031215612988576129876125d8565b5b600061299687828801612603565b94505060206129a787828801612603565b93505060406129b8878288016127b9565b92505060606129c987828801612603565b91505092959194509250565b6129de816125e2565b82525050565b60006020820190506129f960008301846129d5565b92915050565b612a088161276c565b82525050565b612a17816125e2565b82525050565b600081519050919050565b600082825260208201905092915050565b60005b83811015612a57578082015181840152602081019050612a3c565b60008484015250505050565b6000601f19601f8301169050919050565b6000612a7f82612a1d565b612a898185612a28565b9350612a99818560208601612a39565b612aa281612a63565b840191505092915050565b600060c083016000830151612ac560008601826129ff565b506020830151612ad86020860182612a0e565b5060408301518482036040860152612af08282612a74565b9150506060830151612b056060860182612a0e565b506080830151612b186080860182612a0e565b5060a0830151612b2b60a08601826129ff565b508091505092915050565b60006020820190508181036000830152612b508184612aad565b905092915050565b600060a083016000830151612b7060008601826129ff565b506020830151612b836020860182612a0e565b506040830151612b966040860182612a0e565b5060608301518482036060860152612bae8282612a74565b9150506080830151612bc36080860182612a0e565b508091505092915050565b60006020820190508181036000830152612be88184612b58565b905092915050565b600081519050919050565b600082825260208201905092915050565b6000819050602082019050919050565b6000612c288383612a74565b905092915050565b6000602082019050919050565b6000612c4882612bf0565b612c528185612bfb565b935083602082028501612c6485612c0c565b8060005b85811015612ca05784840389528151612c818582612c1c565b9450612c8c83612c30565b925060208a01995050600181019050612c68565b50829750879550505050505092915050565b6000606083016000830151612cca60008601826129ff565b506020830151612cdd6020860182612a0e565b5060408301518482036040860152612cf58282612c3d565b9150508091505092915050565b60006020820190508181036000830152612d1c8184612cb2565b905092915050565b606082016000820151612d3a60008501826129ff565b506020820151612d4d60208501826129ff565b506040820151612d606040850182612a0e565b50505050565b6000606082019050612d7b6000830184612d24565b92915050565b600073ffffffffffffffffffffffffffffffffffffffff82169050919050565b6000612dac82612d81565b9050919050565b612dbc81612da1565b82525050565b6000602082019050612dd76000830184612db3565b92915050565b600081519050612dec816127a2565b92915050565b600060208284031215612e0857612e076125d8565b5b6000612e1684828501612ddd565b91505092915050565b600082825260208201905092915050565b7f5468652073656e646572206973206e6f742077686974656c6973746564000000600082015250565b6000612e66601d83612e1f565b9150612e7182612e30565b602082019050919050565b60006020820190508181036000830152612e9581612e59565b9050919050565b6000606082019050612eb160008301866129d5565b612ebe60208301856129d5565b8181036040830152612ed08184612b58565b9050949350505050565b6000604082019050612eef60008301856129d5565b612efc60208301846129d5565b9392505050565b600080fd5b7f4e487b7100000000000000000000000000000000000000000000000000000000600052604160045260246000fd5b612f4082612a63565b810181811067ffffffffffffffff82111715612f5f57612f5e612f08565b5b80604052505050565b6000612f726125ce565b9050612f7e8282612f37565b919050565b600080fd5b600081519050612f97816125ec565b92915050565b600080fd5b600067ffffffffffffffff821115612fbd57612fbc612f08565b5b612fc682612a63565b9050602081019050919050565b6000612fe6612fe184612fa2565b612f68565b90508281526020810184848401111561300257613001612f9d565b5b61300d848285612a39565b509392505050565b600082601f83011261302a57613029612618565b5b815161303a848260208601612fd3565b91505092915050565b600060c0828403121561305957613058612f03565b5b61306360c0612f68565b9050600061307384828501612ddd565b600083015250602061308784828501612f88565b602083015250604082015167ffffffffffffffff8111156130ab576130aa612f83565b5b6130b784828501613015565b60408301525060606130cb84828501612f88565b60608301525060806130df84828501612f88565b60808301525060a06130f384828501612ddd565b60a08301525092915050565b60008060408385031215613116576131156125d8565b5b600061312485828601612ddd565b925050602083015167ffffffffffffffff811115613145576131446125dd565b5b61315185828601613043565b9150509250929050565b600060608201905061317060008301866129d5565b61317d60208301856129d5565b818103604083015261318f8184612aad565b9050949350505050565b6000602082840312156131af576131ae6125d8565b5b600082015167ffffffffffffffff8111156131cd576131cc6125dd565b5b6131d984828501613043565b91505092915050565b600067ffffffffffffffff8211156131fd576131fc612f08565b5b602082029050602081019050919050565b600061322161321c846131e2565b612f68565b9050808382526020820190506020840283018581111561324457613243612622565b5b835b8181101561328b57805167ffffffffffffffff81111561326957613268612618565b5b8086016132768982613015565b85526020850194505050602081019050613246565b5050509392505050565b600082601f8301126132aa576132a9612618565b5b81516132ba84826020860161320e565b91505092915050565b6000606082840312156132d9576132d8612f03565b5b6132e36060612f68565b905060006132f384828501612ddd565b600083015250602061330784828501612f88565b602083015250604082015167ffffffffffffffff81111561332b5761332a612f83565b5b61333784828501613295565b60408301525092915050565b6000806040838503121561335a576133596125d8565b5b600061336885828601612ddd565b925050602083015167ffffffffffffffff811115613389576133886125dd565b5b613395858286016132c3565b9150509250929050565b7f446f63756d656e7420686173686573206c6973742063616e6e6f74206265206560008201527f6d70747900000000000000000000000000000000000000000000000000000000602082015250565b60006133fb602483612e1f565b91506134068261339f565b604082019050919050565b6000602082019050818103600083015261342a816133ee565b9050919050565b7f4e487b7100000000000000000000000000000000000000000000000000000000600052603260045260246000fd5b600080fd5b600080fd5b600080fd5b6000808335600160200384360303811261348c5761348b613460565b5b80840192508235915067ffffffffffffffff8211156134ae576134ad613465565b5b6020830192506001820236038313156134ca576134c961346a565b5b509250929050565b7f4e487b7100000000000000000000000000000000000000000000000000000000600052601160045260246000fd5b600061350c826125e2565b91507fffffffffffffffffffffffffffffffffffffffffffffffffffffffffffffffff820361353e5761353d6134d2565b5b600182019050919050565b82818337600083830152505050565b600061356b61356684612fa2565b612f68565b90508281526020810184848401111561358757613586612f9d565b5b613592848285613549565b509392505050565b600082601f8301126135af576135ae612618565b5b81356135bf848260208601613558565b91505092915050565b60006135db6135d6846131e2565b612f68565b905080838252602082019050602084028301858111156135fe576135fd612622565b5b835b8181101561364557803567ffffffffffffffff81111561362357613622612618565b5b808601613630898261359a565b85526020850194505050602081019050613600565b5050509392505050565b600061365c3684846135c8565b905092915050565b600060608201905061367960008301866129d5565b61368660208301856129d5565b81810360408301526136988184612cb2565b9050949350505050565b600060a0820190506136b760008301866129d5565b6136c460208301856129d5565b6136d16040830184612d24565b949350505050565b600060a082840312156136ef576136ee612f03565b5b6136f960a0612f68565b9050600061370984828501612ddd565b600083015250602061371d84828501612f88565b602083015250604061373184828501612f88565b604083015250606082015167ffffffffffffffff81111561375557613754612f83565b5b61376184828501613015565b606083015250608061377584828501612f88565b60808301525092915050565b600060208284031215613797576137966125d8565b5b600082015167ffffffffffffffff8111156137b5576137b46125dd565b5b6137c1848285016136d9565b91505092915050565b6000606082840312156137e0576137df612f03565b5b6137ea6060612f68565b905060006137fa84828501612ddd565b600083015250602061380e84828501612ddd565b602083015250604061382284828501612f88565b60408301525092915050565b60008060808385031215613845576138446125d8565b5b600061385385828601612ddd565b9250506020613864858286016137ca565b9150509250929050565b600060208284031215613884576138836125d8565b5b600082015167ffffffffffffffff8111156138a2576138a16125dd565b5b6138ae848285016132c3565b91505092915050565b6000606082840312156138cd576138cc6125d8565b5b60006138db848285016137ca565b91505092915050565b600080604083850312156138fb576138fa6125d8565b5b600061390985828601612ddd565b925050602083015167ffffffffffffffff81111561392a576139296125dd565b5b613936858286016136d9565b9150509250929050565b600081905092915050565b600061395682612a1d565b6139608185613940565b9350613970818560208601612a39565b80840191505092915050565b7f2063616e6e6f7420626520656d70747900000000000000000000000000000000600082015250565b60006139b2601083613940565b91506139bd8261397c565b601082019050919050565b60006139d4828461394b565b91506139df826139a5565b915081905092915050565b60006139f582612a1d565b6139ff8185612e1f565b9350613a0f818560208601612a39565b613a1881612a63565b840191505092915050565b60006020820190508181036000830152613a3d81846139ea565b90509291505056fea26469706673582212204a6370c58eb4f6e7d3ed857fb7c7a1272e3bb7039927676d9f14e0e6ca72e29e64736f6c63430008110033",
  "linkReferences": {},
  "deployedLinkReferences": {}
}