{
  "_format": "hh-sol-artifact-1",
  "contractName": "GradeStorage",
  "sourceName": "contracts/data/storage/performance/GradeStorage.sol",
  "abi": [
    {
      "inputs": [
        {
          "internalType": "address",
          "name": "accessWhitelistAddress",
          "type": "address"
        }
      ],
      "stateMutability": "nonpayable",
      "type": "constructor"
    },
    {
      "inputs": [
        {
          "internalType": "uint256",
          "name": "uId",
          "type": "uint256"
        },
        {
          "internalType": "uint256",
          "name": "courseId",
          "type": "uint256"
        }
      ],
      "name": "getGrade",
      "outputs": [
        {
          "components": [
            {
              "internalType": "bool",
              "name": "isSet",
              "type": "bool"
            },
            {
              "internalType": "uint256",
              "name": "value",
              "type": "uint256"
            },
            {
              "internalType": "string",
              "name": "feedback",
              "type": "string"
            },
            {
              "internalType": "uint256",
              "name": "datetime",
              "type": "uint256"
            },
            {
              "internalType": "uint256",
              "name": "lecturerUId",
              "type": "uint256"
            },
            {
              "internalType": "bool",
              "name": "isAutomatic",
              "type": "bool"
            }
          ],
          "internalType": "struct PerformanceDataTypes.Grade",
          "name": "",
          "type": "tuple"
        }
      ],
      "stateMutability": "view",
      "type": "function"
    },
    {
      "inputs": [
        {
          "internalType": "uint256",
          "name": "uId",
          "type": "uint256"
        },
        {
          "internalType": "uint256",
          "name": "courseId",
          "type": "uint256"
        }
      ],
      "name": "getGradeIfSet",
      "outputs": [
        {
          "internalType": "bool",
          "name": "",
          "type": "bool"
        },
        {
          "components": [
            {
              "internalType": "bool",
              "name": "isSet",
              "type": "bool"
            },
            {
              "internalType": "uint256",
              "name": "value",
              "type": "uint256"
            },
            {
              "internalType": "string",
              "name": "feedback",
              "type": "string"
            },
            {
              "internalType": "uint256",
              "name": "datetime",
              "type": "uint256"
            },
            {
              "internalType": "uint256",
              "name": "lecturerUId",
              "type": "uint256"
            },
            {
              "internalType": "bool",
              "name": "isAutomatic",
              "type": "bool"
            }
          ],
          "internalType": "struct PerformanceDataTypes.Grade",
          "name": "",
          "type": "tuple"
        }
      ],
      "stateMutability": "view",
      "type": "function"
    },
    {
      "inputs": [
        {
          "internalType": "uint256",
          "name": "uId",
          "type": "uint256"
        },
        {
          "internalType": "uint256",
          "name": "courseId",
          "type": "uint256"
        },
        {
          "components": [
            {
              "internalType": "bool",
              "name": "isSet",
              "type": "bool"
            },
            {
              "internalType": "uint256",
              "name": "value",
              "type": "uint256"
            },
            {
              "internalType": "string",
              "name": "feedback",
              "type": "string"
            },
            {
              "internalType": "uint256",
              "name": "datetime",
              "type": "uint256"
            },
            {
              "internalType": "uint256",
              "name": "lecturerUId",
              "type": "uint256"
            },
            {
              "internalType": "bool",
              "name": "isAutomatic",
              "type": "bool"
            }
          ],
          "internalType": "struct PerformanceDataTypes.Grade",
          "name": "grade",
          "type": "tuple"
        }
      ],
      "name": "storeGrade",
      "outputs": [],
      "stateMutability": "nonpayable",
      "type": "function"
    },
    {
      "inputs": [
        {
          "internalType": "uint256",
          "name": "uId",
          "type": "uint256"
        },
        {
          "internalType": "uint256",
          "name": "courseId",
          "type": "uint256"
        },
        {
          "components": [
            {
              "internalType": "bool",
              "name": "isSet",
              "type": "bool"
            },
            {
              "internalType": "uint256",
              "name": "value",
              "type": "uint256"
            },
            {
              "internalType": "string",
              "name": "feedback",
              "type": "string"
            },
            {
              "internalType": "uint256",
              "name": "datetime",
              "type": "uint256"
            },
            {
              "internalType": "uint256",
              "name": "lecturerUId",
              "type": "uint256"
            },
            {
              "internalType": "bool",
              "name": "isAutomatic",
              "type": "bool"
            }
          ],
          "internalType": "struct PerformanceDataTypes.Grade",
          "name": "grade",
          "type": "tuple"
        }
      ],
      "name": "updateGrade",
      "outputs": [],
      "stateMutability": "nonpayable",
      "type": "function"
    }
  ],
  "bytecode": "0x60806040523480156200001157600080fd5b5060405162001825380380620018258339818101604052810190620000379190620000ec565b8080806000806101000a81548173ffffffffffffffffffffffffffffffffffffffff021916908373ffffffffffffffffffffffffffffffffffffffff1602179055505050506200011e565b600080fd5b600073ffffffffffffffffffffffffffffffffffffffff82169050919050565b6000620000b48262000087565b9050919050565b620000c681620000a7565b8114620000d257600080fd5b50565b600081519050620000e681620000bb565b92915050565b60006020828403121562000105576200010462000082565b5b60006200011584828501620000d5565b91505092915050565b6116f7806200012e6000396000f3fe608060405234801561001057600080fd5b506004361061004c5760003560e01c8063374a62a014610051578063375c0c4f1461008157806342ad565e1461009d5780634e864340146100b9575b600080fd5b61006b60048036038101906100669190610bc7565b6100ea565b6040516100789190610d4a565b60405180910390f35b61009b60048036038101906100969190610d90565b6103d9565b005b6100b760048036038101906100b29190610d90565b6105dc565b005b6100d360048036038101906100ce9190610bc7565b610761565b6040516100e1929190610e0e565b60405180910390f35b6100f2610b4d565b60008054906101000a900473ffffffffffffffffffffffffffffffffffffffff1673ffffffffffffffffffffffffffffffffffffffff166313f44d10336040518263ffffffff1660e01b815260040161014b9190610e7f565b602060405180830381865afa158015610168573d6000803e3d6000fd5b505050506040513d601f19601f8201168201806040525081019061018c9190610ec6565b6101cb576040517f08c379a00000000000000000000000000000000000000000000000000000000081526004016101c290610f50565b60405180910390fd5b61020a836040518060400160405280600381526020017f7549440000000000000000000000000000000000000000000000000000000000815250610a02565b610249826040518060400160405280600981526020017f436f757273652049440000000000000000000000000000000000000000000000815250610a02565b6102bc60016000858152602001908152602001600020600084815260200190815260200160002060000160009054906101000a900460ff166040518060400160405280600581526020017f4772616465000000000000000000000000000000000000000000000000000000815250610a71565b6001600084815260200190815260200160002060008381526020019081526020016000206040518060c00160405290816000820160009054906101000a900460ff161515151581526020016001820154815260200160028201805461032090610f9f565b80601f016020809104026020016040519081016040528092919081815260200182805461034c90610f9f565b80156103995780601f1061036e57610100808354040283529160200191610399565b820191906000526020600020905b81548152906001019060200180831161037c57829003601f168201915b5050505050815260200160038201548152602001600482015481526020016005820160009054906101000a900460ff161515151581525050905092915050565b60008054906101000a900473ffffffffffffffffffffffffffffffffffffffff1673ffffffffffffffffffffffffffffffffffffffff166313f44d10336040518263ffffffff1660e01b81526004016104329190610e7f565b602060405180830381865afa15801561044f573d6000803e3d6000fd5b505050506040513d601f19601f820116820180604052508101906104739190610ec6565b6104b2576040517f08c379a00000000000000000000000000000000000000000000000000000000081526004016104a990610f50565b60405180910390fd5b6104f1836040518060400160405280600381526020017f7549440000000000000000000000000000000000000000000000000000000000815250610a02565b610530826040518060400160405280600981526020017f436f757273652049440000000000000000000000000000000000000000000000815250610a02565b6105a360016000858152602001908152602001600020600084815260200190815260200160002060000160009054906101000a900460ff166040518060400160405280600581526020017f4772616465000000000000000000000000000000000000000000000000000000815250610ad8565b8060016000858152602001908152602001600020600084815260200190815260200160002081816105d491906114d2565b905050505050565b60008054906101000a900473ffffffffffffffffffffffffffffffffffffffff1673ffffffffffffffffffffffffffffffffffffffff166313f44d10336040518263ffffffff1660e01b81526004016106359190610e7f565b602060405180830381865afa158015610652573d6000803e3d6000fd5b505050506040513d601f19601f820116820180604052508101906106769190610ec6565b6106b5576040517f08c379a00000000000000000000000000000000000000000000000000000000081526004016106ac90610f50565b60405180910390fd5b61072860016000858152602001908152602001600020600084815260200190815260200160002060000160009054906101000a900460ff166040518060400160405280600581526020017f4772616465000000000000000000000000000000000000000000000000000000815250610a71565b80600160008581526020019081526020016000206000848152602001908152602001600020818161075991906114d2565b905050505050565b600061076b610b4d565b60008054906101000a900473ffffffffffffffffffffffffffffffffffffffff1673ffffffffffffffffffffffffffffffffffffffff166313f44d10336040518263ffffffff1660e01b81526004016107c49190610e7f565b602060405180830381865afa1580156107e1573d6000803e3d6000fd5b505050506040513d601f19601f820116820180604052508101906108059190610ec6565b610844576040517f08c379a000000000000000000000000000000000000000000000000000000000815260040161083b90610f50565b60405180910390fd5b610883846040518060400160405280600381526020017f7549440000000000000000000000000000000000000000000000000000000000815250610a02565b6108c2836040518060400160405280600981526020017f436f757273652049440000000000000000000000000000000000000000000000815250610a02565b60006001600086815260200190815260200160002060008581526020019081526020016000206040518060c00160405290816000820160009054906101000a900460ff161515151581526020016001820154815260200160028201805461092890610f9f565b80601f016020809104026020016040519081016040528092919081815260200182805461095490610f9f565b80156109a15780601f10610976576101008083540402835291602001916109a1565b820191906000526020600020905b81548152906001019060200180831161098457829003601f168201915b5050505050815260200160038201548152602001600482015481526020016005820160009054906101000a900460ff16151515158152505090508060000151156109f25760018192509250506109fb565b60008192509250505b9250929050565b610a0b82610b40565b81604051602001610a1c9190611568565b60405160208183030381529060405290610a6c576040517f08c379a0000000000000000000000000000000000000000000000000000000008152600401610a6391906115c3565b60405180910390fd5b505050565b8181604051602001610a839190611631565b60405160208183030381529060405290610ad3576040517f08c379a0000000000000000000000000000000000000000000000000000000008152600401610aca91906115c3565b60405180910390fd5b505050565b811581604051602001610aeb919061169f565b60405160208183030381529060405290610b3b576040517f08c379a0000000000000000000000000000000000000000000000000000000008152600401610b3291906115c3565b60405180910390fd5b505050565b6000808214159050919050565b6040518060c00160405280600015158152602001600081526020016060815260200160008152602001600081526020016000151581525090565b600080fd5b600080fd5b6000819050919050565b610ba481610b91565b8114610baf57600080fd5b50565b600081359050610bc181610b9b565b92915050565b60008060408385031215610bde57610bdd610b87565b5b6000610bec85828601610bb2565b9250506020610bfd85828601610bb2565b9150509250929050565b60008115159050919050565b610c1c81610c07565b82525050565b610c2b81610b91565b82525050565b600081519050919050565b600082825260208201905092915050565b60005b83811015610c6b578082015181840152602081019050610c50565b60008484015250505050565b6000601f19601f8301169050919050565b6000610c9382610c31565b610c9d8185610c3c565b9350610cad818560208601610c4d565b610cb681610c77565b840191505092915050565b600060c083016000830151610cd96000860182610c13565b506020830151610cec6020860182610c22565b5060408301518482036040860152610d048282610c88565b9150506060830151610d196060860182610c22565b506080830151610d2c6080860182610c22565b5060a0830151610d3f60a0860182610c13565b508091505092915050565b60006020820190508181036000830152610d648184610cc1565b905092915050565b600080fd5b600060c08284031215610d8757610d86610d6c565b5b81905092915050565b600080600060608486031215610da957610da8610b87565b5b6000610db786828701610bb2565b9350506020610dc886828701610bb2565b925050604084013567ffffffffffffffff811115610de957610de8610b8c565b5b610df586828701610d71565b9150509250925092565b610e0881610c07565b82525050565b6000604082019050610e236000830185610dff565b8181036020830152610e358184610cc1565b90509392505050565b600073ffffffffffffffffffffffffffffffffffffffff82169050919050565b6000610e6982610e3e565b9050919050565b610e7981610e5e565b82525050565b6000602082019050610e946000830184610e70565b92915050565b610ea381610c07565b8114610eae57600080fd5b50565b600081519050610ec081610e9a565b92915050565b600060208284031215610edc57610edb610b87565b5b6000610eea84828501610eb1565b91505092915050565b600082825260208201905092915050565b7f5468652073656e646572206973206e6f742077686974656c6973746564000000600082015250565b6000610f3a601d83610ef3565b9150610f4582610f04565b602082019050919050565b60006020820190508181036000830152610f6981610f2d565b9050919050565b7f4e487b7100000000000000000000000000000000000000000000000000000000600052602260045260246000fd5b60006002820490506001821680610fb757607f821691505b602082108103610fca57610fc9610f70565b5b50919050565b60008135610fdd81610e9a565b80915050919050565b60008160001b9050919050565b600060ff61100084610fe6565b9350801983169250808416831791505092915050565b600061102182610c07565b9050919050565b6000819050919050565b61103b82611016565b61104e61104782611028565b8354610ff3565b8255505050565b6000813561106281610b9b565b80915050919050565b60007fffffffffffffffffffffffffffffffffffffffffffffffffffffffffffffffff61109784610fe6565b9350801983169250808416831791505092915050565b6000819050919050565b60006110d26110cd6110c884610b91565b6110ad565b610b91565b9050919050565b6000819050919050565b6110ec826110b7565b6110ff6110f8826110d9565b835461106b565b8255505050565b600080fd5b600080fd5b600080fd5b6000808335600160200384360303811261113257611131611106565b5b80840192508235915067ffffffffffffffff8211156111545761115361110b565b5b6020830192506001820236038313156111705761116f611110565b5b509250929050565b600082905092915050565b7f4e487b7100000000000000000000000000000000000000000000000000000000600052604160045260246000fd5b60008190508160005260206000209050919050565b60006020601f8301049050919050565b600082821b905092915050565b6000600883026112147fffffffffffffffffffffffffffffffffffffffffffffffffffffffffffffffff826111d7565b61121e86836111d7565b95508019841693508086168417925050509392505050565b61123f836110b7565b61125361124b826110d9565b8484546111e4565b825550505050565b600090565b61126861125b565b611273818484611236565b505050565b5b818110156112975761128c600082611260565b600181019050611279565b5050565b601f8211156112dc576112ad816111b2565b6112b6846111c7565b810160208510156112c5578190505b6112d96112d1856111c7565b830182611278565b50505b505050565b600082821c905092915050565b60006112ff600019846008026112e1565b1980831691505092915050565b600061131883836112ee565b9150826002028217905092915050565b6113328383611178565b67ffffffffffffffff81111561134b5761134a611183565b5b6113558254610f9f565b61136082828561129b565b6000601f83116001811461138f576000841561137d578287013590505b611387858261130c565b8655506113ef565b601f19841661139d866111b2565b60005b828110156113c5578489013582556001820191506020850194506020810190506113a0565b868310156113e257848901356113de601f8916826112ee565b8355505b6001600288020188555050505b50505050505050565b611403838383611328565b505050565b60008101600083018061141a81610fd0565b90506114268184611032565b50505060018101602083018061143b81611055565b905061144781846110e3565b505050600281016040830161145c8185611115565b6114678183866113f8565b5050505060038101606083018061147d81611055565b905061148981846110e3565b50505060048101608083018061149e81611055565b90506114aa81846110e3565b5050506005810160a08301806114bf81610fd0565b90506114cb8184611032565b5050505050565b6114dc8282611408565b5050565b600081905092915050565b7f496e76616c696420000000000000000000000000000000000000000000000000600082015250565b60006115216008836114e0565b915061152c826114eb565b600882019050919050565b600061154282610c31565b61154c81856114e0565b935061155c818560208601610c4d565b80840191505092915050565b600061157382611514565b915061157f8284611537565b915081905092915050565b600061159582610c31565b61159f8185610ef3565b93506115af818560208601610c4d565b6115b881610c77565b840191505092915050565b600060208201905081810360008301526115dd818461158a565b905092915050565b7f20686173206e6f74206265656e20736574207965740000000000000000000000600082015250565b600061161b6015836114e0565b9150611626826115e5565b601582019050919050565b600061163d8284611537565b91506116488261160e565b915081905092915050565b7f2068617320616c7265616479206265656e207365740000000000000000000000600082015250565b60006116896015836114e0565b915061169482611653565b601582019050919050565b60006116ab8284611537565b91506116b68261167c565b91508190509291505056fea26469706673582212201db67bec7bfdc13331eecf928d9b22893f96207ba79c3ba6edc216dd382d249b64736f6c63430008110033",
  "linkReferences": {},
  "deployedLinkReferences": {}
}