{
  "_format": "hh-sol-artifact-1",
  "contractName": "PerformanceController",
  "sourceName": "contracts/logic/PerformanceController.sol",
  "abi": [
    {
      "inputs": [
        {
          "internalType": "address",
          "name": "addressBookAddress",
          "type": "address"
        }
      ],
      "stateMutability": "nonpayable",
      "type": "constructor"
    },
    {
      "inputs": [
        {
          "internalType": "uint256",
          "name": "assessmentId",
          "type": "uint256"
        },
        {
          "internalType": "string[]",
          "name": "documentHashes",
          "type": "string[]"
        }
      ],
      "name": "addSubmission",
      "outputs": [],
      "stateMutability": "nonpayable",
      "type": "function"
    },
    {
      "inputs": [
        {
          "internalType": "uint256",
          "name": "studentUId",
          "type": "uint256"
        },
        {
          "internalType": "uint256",
          "name": "assessmentId",
          "type": "uint256"
        },
        {
          "internalType": "bool",
          "name": "hasAttended",
          "type": "bool"
        }
      ],
      "name": "administerExamAttendance",
      "outputs": [],
      "stateMutability": "nonpayable",
      "type": "function"
    },
    {
      "inputs": [
        {
          "internalType": "uint256",
          "name": "courseId",
          "type": "uint256"
        }
      ],
      "name": "calculatePoints",
      "outputs": [
        {
          "internalType": "uint256",
          "name": "",
          "type": "uint256"
        },
        {
          "internalType": "uint256",
          "name": "",
          "type": "uint256"
        }
      ],
      "stateMutability": "view",
      "type": "function"
    },
    {
      "inputs": [
        {
          "internalType": "uint256",
          "name": "studentUId",
          "type": "uint256"
        },
        {
          "internalType": "uint256",
          "name": "courseId",
          "type": "uint256"
        }
      ],
      "name": "calculatePointsOfStudent",
      "outputs": [
        {
          "internalType": "uint256",
          "name": "",
          "type": "uint256"
        },
        {
          "internalType": "uint256",
          "name": "",
          "type": "uint256"
        }
      ],
      "stateMutability": "view",
      "type": "function"
    },
    {
      "inputs": [
        {
          "internalType": "uint256",
          "name": "studentUId",
          "type": "uint256"
        },
        {
          "internalType": "uint256",
          "name": "assessmentId",
          "type": "uint256"
        },
        {
          "internalType": "uint256",
          "name": "achievedPoints",
          "type": "uint256"
        },
        {
          "internalType": "string",
          "name": "feedback",
          "type": "string"
        }
      ],
      "name": "giveEvaluation",
      "outputs": [],
      "stateMutability": "nonpayable",
      "type": "function"
    },
    {
      "inputs": [
        {
          "internalType": "uint256",
          "name": "studentUId",
          "type": "uint256"
        },
        {
          "internalType": "uint256",
          "name": "courseId",
          "type": "uint256"
        },
        {
          "internalType": "uint256",
          "name": "grade",
          "type": "uint256"
        },
        {
          "internalType": "string",
          "name": "feedback",
          "type": "string"
        }
      ],
      "name": "giveFinalGrade",
      "outputs": [],
      "stateMutability": "nonpayable",
      "type": "function"
    }
  ],
  "bytecode": "0x60806040523480156200001157600080fd5b5060405162004bea38038062004bea8339818101604052810190620000379190620000ec565b8080806000806101000a81548173ffffffffffffffffffffffffffffffffffffffff021916908373ffffffffffffffffffffffffffffffffffffffff1602179055505050506200011e565b600080fd5b600073ffffffffffffffffffffffffffffffffffffffff82169050919050565b6000620000b48262000087565b9050919050565b620000c681620000a7565b8114620000d257600080fd5b50565b600081519050620000e681620000bb565b92915050565b60006020828403121562000105576200010462000082565b5b60006200011584828501620000d5565b91505092915050565b614abc806200012e6000396000f3fe608060405234801561001057600080fd5b50600436106100625760003560e01c8063049070c1146100675780633e6abaa61461008357806340b1ba3b146100b457806350add5d0146100d05780635a1637be146100ec578063bd42e5101461011d575b600080fd5b610081600480360381019061007c9190612fbd565b610139565b005b61009d60048036038101906100989190613010565b610593565b6040516100ab92919061305f565b60405180910390f35b6100ce60048036038101906100c991906130ed565b610744565b005b6100ea60048036038101906100e591906131cb565b610965565b005b6101066004803603810190610101919061322b565b610db4565b60405161011492919061305f565b60405180910390f35b610137600480360381019061013291906130ed565b610f51565b005b610141611209565b6001600281111561015557610154613258565b5b61015d6112cb565b73ffffffffffffffffffffffffffffffffffffffff1663dd8b2914336040518263ffffffff1660e01b815260040161019591906132c8565b602060405180830381865afa1580156101b2573d6000803e3d6000fd5b505050506040513d601f19601f820116820180604052508101906101d69190613308565b60028111156101e8576101e7613258565b5b14610228576040517f08c379a000000000000000000000000000000000000000000000000000000000815260040161021f90613392565b60405180910390fd5b60006102326112cb565b73ffffffffffffffffffffffffffffffffffffffff1663e3d7e14c336040518263ffffffff1660e01b815260040161026a91906132c8565b602060405180830381865afa158015610287573d6000803e3d6000fd5b505050506040513d601f19601f820116820180604052508101906102ab91906133c7565b905060006102b761136e565b73ffffffffffffffffffffffffffffffffffffffff1663a31cf91f856040518263ffffffff1660e01b81526004016102ef91906133f4565b602060405180830381865afa15801561030c573d6000803e3d6000fd5b505050506040513d601f19601f8201168201806040525081019061033091906133c7565b9050610344828261033f611411565b6114b4565b6103568582610351611411565b611580565b6000600181111561036a57610369613258565b5b61037261136e565b73ffffffffffffffffffffffffffffffffffffffff1663e9eb5356866040518263ffffffff1660e01b81526004016103aa91906133f4565b602060405180830381865afa1580156103c7573d6000803e3d6000fd5b505050506040513d601f19601f820116820180604052508101906103eb9190613434565b60018111156103fd576103fc613258565b5b1461043d576040517f08c379a0000000000000000000000000000000000000000000000000000000008152600401610434906134ad565b60405180910390fd5b6104478585611640565b61044f61178d565b73ffffffffffffffffffffffffffffffffffffffff1663683391e486866040518363ffffffff1660e01b815260040161048992919061305f565b602060405180830381865afa1580156104a6573d6000803e3d6000fd5b505050506040513d601f19601f820116820180604052508101906104ca91906134e2565b1561050a576040517f08c379a000000000000000000000000000000000000000000000000000000000815260040161050190613581565b60405180910390fd5b61051261178d565b73ffffffffffffffffffffffffffffffffffffffff166323f618ee868686426040518563ffffffff1660e01b815260040161055094939291906135b0565b600060405180830381600087803b15801561056a57600080fd5b505af115801561057e573d6000803e3d6000fd5b5050505061058c8582611830565b5050505050565b60008061059e611209565b600160028111156105b2576105b1613258565b5b6105ba6112cb565b73ffffffffffffffffffffffffffffffffffffffff1663dd8b2914336040518263ffffffff1660e01b81526004016105f291906132c8565b602060405180830381865afa15801561060f573d6000803e3d6000fd5b505050506040513d601f19601f820116820180604052508101906106339190613308565b600281111561064557610644613258565b5b14610685576040517f08c379a000000000000000000000000000000000000000000000000000000000815260040161067c90613392565b60405180910390fd5b600061068f6112cb565b73ffffffffffffffffffffffffffffffffffffffff1663e3d7e14c336040518263ffffffff1660e01b81526004016106c791906132c8565b602060405180830381865afa1580156106e4573d6000803e3d6000fd5b505050506040513d601f19601f8201168201806040525081019061070891906133c7565b905061071c8185610717611411565b6114b4565b61072e8585610729611411565b611580565b6107388585611852565b92509250509250929050565b61074c611209565b600160028111156107605761075f613258565b5b6107686112cb565b73ffffffffffffffffffffffffffffffffffffffff1663dd8b2914336040518263ffffffff1660e01b81526004016107a091906132c8565b602060405180830381865afa1580156107bd573d6000803e3d6000fd5b505050506040513d601f19601f820116820180604052508101906107e19190613308565b60028111156107f3576107f2613258565b5b14610833576040517f08c379a000000000000000000000000000000000000000000000000000000000815260040161082a90613392565b60405180910390fd5b600061083d6112cb565b73ffffffffffffffffffffffffffffffffffffffff1663e3d7e14c336040518263ffffffff1660e01b815260040161087591906132c8565b602060405180830381865afa158015610892573d6000803e3d6000fd5b505050506040513d601f19601f820116820180604052508101906108b691906133c7565b90506108ca81866108c5611411565b6114b4565b6108dc86866108d7611411565b611580565b6108e461178d565b73ffffffffffffffffffffffffffffffffffffffff166359a7dbe08787428888888860016040518963ffffffff1660e01b815260040161092b989796959493929190613642565b600060405180830381600087803b15801561094557600080fd5b505af1158015610959573d6000803e3d6000fd5b50505050505050505050565b61096d611209565b6000600281111561098157610980613258565b5b6109896112cb565b73ffffffffffffffffffffffffffffffffffffffff1663dd8b2914336040518263ffffffff1660e01b81526004016109c191906132c8565b602060405180830381865afa1580156109de573d6000803e3d6000fd5b505050506040513d601f19601f82011682018060405250810190610a029190613308565b6002811115610a1457610a13613258565b5b14610a54576040517f08c379a0000000000000000000000000000000000000000000000000000000008152600401610a4b90613706565b60405180910390fd5b6000610a5e6112cb565b73ffffffffffffffffffffffffffffffffffffffff1663e3d7e14c336040518263ffffffff1660e01b8152600401610a9691906132c8565b602060405180830381865afa158015610ab3573d6000803e3d6000fd5b505050506040513d601f19601f82011682018060405250810190610ad791906133c7565b90506000610ae361136e565b73ffffffffffffffffffffffffffffffffffffffff1663a31cf91f866040518263ffffffff1660e01b8152600401610b1b91906133f4565b602060405180830381865afa158015610b38573d6000803e3d6000fd5b505050506040513d601f19601f82011682018060405250810190610b5c91906133c7565b90506000610b6861136e565b73ffffffffffffffffffffffffffffffffffffffff166326f63a96876040518263ffffffff1660e01b8152600401610ba091906133f4565b602060405180830381865afa158015610bbd573d6000803e3d6000fd5b505050506040513d601f19601f82011682018060405250810190610be191906133c7565b9050610bf58383610bf0611411565b611580565b610bff8387611640565b600180811115610c1257610c11613258565b5b610c1a61136e565b73ffffffffffffffffffffffffffffffffffffffff1663e9eb5356886040518263ffffffff1660e01b8152600401610c5291906133f4565b602060405180830381865afa158015610c6f573d6000803e3d6000fd5b505050506040513d601f19601f82011682018060405250810190610c939190613434565b6001811115610ca557610ca4613258565b5b14610ce5576040517f08c379a0000000000000000000000000000000000000000000000000000000008152600401610cdc90613798565b60405180910390fd5b80421115610d28576040517f08c379a0000000000000000000000000000000000000000000000000000000008152600401610d1f9061382a565b60405180910390fd5b610d3061178d565b73ffffffffffffffffffffffffffffffffffffffff16631b89db2f84884289896040518663ffffffff1660e01b8152600401610d709594939291906139ae565b600060405180830381600087803b158015610d8a57600080fd5b505af1158015610d9e573d6000803e3d6000fd5b50505050610dac8383611830565b505050505050565b600080610dbf611209565b60006002811115610dd357610dd2613258565b5b610ddb6112cb565b73ffffffffffffffffffffffffffffffffffffffff1663dd8b2914336040518263ffffffff1660e01b8152600401610e1391906132c8565b602060405180830381865afa158015610e30573d6000803e3d6000fd5b505050506040513d601f19601f82011682018060405250810190610e549190613308565b6002811115610e6657610e65613258565b5b14610ea6576040517f08c379a0000000000000000000000000000000000000000000000000000000008152600401610e9d90613706565b60405180910390fd5b6000610eb06112cb565b73ffffffffffffffffffffffffffffffffffffffff1663e3d7e14c336040518263ffffffff1660e01b8152600401610ee891906132c8565b602060405180830381865afa158015610f05573d6000803e3d6000fd5b505050506040513d601f19601f82011682018060405250810190610f2991906133c7565b9050610f3d8185610f38611411565b611580565b610f478185611852565b9250925050915091565b610f59611209565b60016002811115610f6d57610f6c613258565b5b610f756112cb565b73ffffffffffffffffffffffffffffffffffffffff1663dd8b2914336040518263ffffffff1660e01b8152600401610fad91906132c8565b602060405180830381865afa158015610fca573d6000803e3d6000fd5b505050506040513d601f19601f82011682018060405250810190610fee9190613308565b600281111561100057610fff613258565b5b14611040576040517f08c379a000000000000000000000000000000000000000000000000000000000815260040161103790613392565b60405180910390fd5b600061104a6112cb565b73ffffffffffffffffffffffffffffffffffffffff1663e3d7e14c336040518263ffffffff1660e01b815260040161108291906132c8565b602060405180830381865afa15801561109f573d6000803e3d6000fd5b505050506040513d601f19601f820116820180604052508101906110c391906133c7565b905060006110cf61136e565b73ffffffffffffffffffffffffffffffffffffffff1663a31cf91f876040518263ffffffff1660e01b815260040161110791906133f4565b602060405180830381865afa158015611124573d6000803e3d6000fd5b505050506040513d601f19601f8201168201806040525081019061114891906133c7565b905061115c8282611157611411565b6114b4565b61116e8782611169611411565b611580565b6111788787611640565b61118061178d565b73ffffffffffffffffffffffffffffffffffffffff1663119e7944888842898989896040518863ffffffff1660e01b81526004016111c497969594939291906139fc565b600060405180830381600087803b1580156111de57600080fd5b505af11580156111f2573d6000803e3d6000fd5b505050506112008782611830565b50505050505050565b6112116112cb565b73ffffffffffffffffffffffffffffffffffffffff166338b6a3a1336040518263ffffffff1660e01b815260040161124991906132c8565b602060405180830381865afa158015611266573d6000803e3d6000fd5b505050506040513d601f19601f8201168201806040525081019061128a91906134e2565b6112c9576040517f08c379a00000000000000000000000000000000000000000000000000000000081526004016112c090613ab2565b60405180910390fd5b565b60008060009054906101000a900473ffffffffffffffffffffffffffffffffffffffff1673ffffffffffffffffffffffffffffffffffffffff1663bcaa0c5560026040518263ffffffff1660e01b81526004016113289190613b1a565b602060405180830381865afa158015611345573d6000803e3d6000fd5b505050506040513d601f19601f820116820180604052508101906113699190613b61565b905090565b60008060009054906101000a900473ffffffffffffffffffffffffffffffffffffffff1673ffffffffffffffffffffffffffffffffffffffff1663bcaa0c5560016040518263ffffffff1660e01b81526004016113cb9190613b1a565b602060405180830381865afa1580156113e8573d6000803e3d6000fd5b505050506040513d601f19601f8201168201806040525081019061140c9190613b61565b905090565b60008060009054906101000a900473ffffffffffffffffffffffffffffffffffffffff1673ffffffffffffffffffffffffffffffffffffffff1663bcaa0c5560006040518263ffffffff1660e01b815260040161146e9190613b1a565b602060405180830381865afa15801561148b573d6000803e3d6000fd5b505050506040513d601f19601f820116820180604052508101906114af9190613b61565b905090565b61153c838273ffffffffffffffffffffffffffffffffffffffff1663bd9c1b50856040518263ffffffff1660e01b81526004016114f191906133f4565b600060405180830381865afa15801561150e573d6000803e3d6000fd5b505050506040513d6000823e3d601f19601f820116820180604052508101906115379190613ccc565b6119e6565b61157b576040517f08c379a000000000000000000000000000000000000000000000000000000000815260040161157290613d87565b60405180910390fd5b505050565b8073ffffffffffffffffffffffffffffffffffffffff16633932708b84846040518363ffffffff1660e01b81526004016115bb92919061305f565b602060405180830381865afa1580156115d8573d6000803e3d6000fd5b505050506040513d601f19601f820116820180604052508101906115fc91906134e2565b61163b576040517f08c379a000000000000000000000000000000000000000000000000000000000815260040161163290613e19565b60405180910390fd5b505050565b61164861136e565b73ffffffffffffffffffffffffffffffffffffffff166330938d70826040518263ffffffff1660e01b815260040161168091906133f4565b602060405180830381865afa15801561169d573d6000803e3d6000fd5b505050506040513d601f19601f820116820180604052508101906116c191906134e2565b15611789576116ce61136e565b73ffffffffffffffffffffffffffffffffffffffff166323ff178583836040518363ffffffff1660e01b815260040161170892919061305f565b602060405180830381865afa158015611725573d6000803e3d6000fd5b505050506040513d601f19601f8201168201806040525081019061174991906134e2565b611788576040517f08c379a000000000000000000000000000000000000000000000000000000000815260040161177f90613eab565b60405180910390fd5b5b5050565b60008060009054906101000a900473ffffffffffffffffffffffffffffffffffffffff1673ffffffffffffffffffffffffffffffffffffffff1663bcaa0c5560036040518263ffffffff1660e01b81526004016117ea9190613b1a565b602060405180830381865afa158015611807573d6000803e3d6000fd5b505050506040513d601f19601f8201168201806040525081019061182b9190613b61565b905090565b61183a82826119fd565b6118448282611ea2565b61184e828261229b565b5050565b6000806000806000611864878761271f565b905060005b81518110156119d55761187a61136e565b73ffffffffffffffffffffffffffffffffffffffff1663a01a6b548383815181106118a8576118a7613ecb565b5b60200260200101516040518263ffffffff1660e01b81526004016118cc91906133f4565b602060405180830381865afa1580156118e9573d6000803e3d6000fd5b505050506040513d601f19601f8201168201806040525081019061190d91906133c7565b846119189190613f29565b935061192261178d565b73ffffffffffffffffffffffffffffffffffffffff16632e3b755e8984848151811061195157611950613ecb565b5b60200260200101516040518363ffffffff1660e01b815260040161197692919061305f565b602060405180830381865afa158015611993573d6000803e3d6000fd5b505050506040513d601f19601f820116820180604052508101906119b791906133c7565b836119c29190613f29565b9250806119ce90613f5d565b9050611869565b508183945094505050509250929050565b6000806119f384846128a6565b1215905092915050565b6000611a0761136e565b73ffffffffffffffffffffffffffffffffffffffff1663786e0785836040518263ffffffff1660e01b8152600401611a3f91906133f4565b600060405180830381865afa158015611a5c573d6000803e3d6000fd5b505050506040513d6000823e3d601f19601f82011682018060405250810190611a859190613ccc565b905060005b8151811015611e9c57600180811115611aa657611aa5613258565b5b611aae61136e565b73ffffffffffffffffffffffffffffffffffffffff1663e9eb5356848481518110611adc57611adb613ecb565b5b60200260200101516040518263ffffffff1660e01b8152600401611b0091906133f4565b602060405180830381865afa158015611b1d573d6000803e3d6000fd5b505050506040513d601f19601f82011682018060405250810190611b419190613434565b6001811115611b5357611b52613258565b5b03611e8b576000611b6261136e565b73ffffffffffffffffffffffffffffffffffffffff166326f63a96848481518110611b9057611b8f613ecb565b5b60200260200101516040518263ffffffff1660e01b8152600401611bb491906133f4565b602060405180830381865afa158015611bd1573d6000803e3d6000fd5b505050506040513d601f19601f82011682018060405250810190611bf591906133c7565b9050611bff61178d565b73ffffffffffffffffffffffffffffffffffffffff1663cfca6e9786858581518110611c2e57611c2d613ecb565b5b60200260200101516040518363ffffffff1660e01b8152600401611c5392919061305f565b602060405180830381865afa158015611c70573d6000803e3d6000fd5b505050506040513d601f19601f82011682018060405250810190611c9491906134e2565b80611c9f5750804211155b15611caa5750611e8b565b611cb261178d565b73ffffffffffffffffffffffffffffffffffffffff16631a2a2c4a86858581518110611ce157611ce0613ecb565b5b60200260200101516040518363ffffffff1660e01b8152600401611d0692919061305f565b602060405180830381865afa158015611d23573d6000803e3d6000fd5b505050506040513d601f19601f82011682018060405250810190611d4791906134e2565b1580611dee575080611d5761178d565b73ffffffffffffffffffffffffffffffffffffffff16637c56af0187868681518110611d8657611d85613ecb565b5b60200260200101516040518363ffffffff1660e01b8152600401611dab92919061305f565b602060405180830381865afa158015611dc8573d6000803e3d6000fd5b505050506040513d601f19601f82011682018060405250810190611dec91906133c7565b115b15611e8957611dfb61178d565b73ffffffffffffffffffffffffffffffffffffffff1663119e794486858581518110611e2a57611e29613ecb565b5b6020026020010151426000806040518663ffffffff1660e01b8152600401611e5695949392919061405c565b600060405180830381600087803b158015611e7057600080fd5b505af1158015611e84573d6000803e3d6000fd5b505050505b505b80611e9590613f5d565b9050611a8a565b50505050565b6000611eac61136e565b73ffffffffffffffffffffffffffffffffffffffff1663786e0785836040518263ffffffff1660e01b8152600401611ee491906133f4565b600060405180830381865afa158015611f01573d6000803e3d6000fd5b505050506040513d6000823e3d601f19601f82011682018060405250810190611f2a9190613ccc565b905060005b81518110156122955760006001811115611f4c57611f4b613258565b5b611f5461136e565b73ffffffffffffffffffffffffffffffffffffffff1663e9eb5356848481518110611f8257611f81613ecb565b5b60200260200101516040518263ffffffff1660e01b8152600401611fa691906133f4565b602060405180830381865afa158015611fc3573d6000803e3d6000fd5b505050506040513d601f19601f82011682018060405250810190611fe79190613434565b6001811115611ff957611ff8613258565b5b036122845761200661178d565b73ffffffffffffffffffffffffffffffffffffffff1663cfca6e978584848151811061203557612034613ecb565b5b60200260200101516040518363ffffffff1660e01b815260040161205a92919061305f565b602060405180830381865afa158015612077573d6000803e3d6000fd5b505050506040513d601f19601f8201168201806040525081019061209b91906134e2565b612284576120a761178d565b73ffffffffffffffffffffffffffffffffffffffff1663683391e4858484815181106120d6576120d5613ecb565b5b60200260200101516040518363ffffffff1660e01b81526004016120fb92919061305f565b602060405180830381865afa158015612118573d6000803e3d6000fd5b505050506040513d601f19601f8201168201806040525081019061213c91906134e2565b80156121e857506000151561214f61178d565b73ffffffffffffffffffffffffffffffffffffffff1663b54c676a8685858151811061217e5761217d613ecb565b5b60200260200101516040518363ffffffff1660e01b81526004016121a392919061305f565b602060405180830381865afa1580156121c0573d6000803e3d6000fd5b505050506040513d601f19601f820116820180604052508101906121e491906134e2565b1515145b15612283576121f561178d565b73ffffffffffffffffffffffffffffffffffffffff1663119e79448584848151811061222457612223613ecb565b5b6020026020010151426000806040518663ffffffff1660e01b815260040161225095949392919061410e565b600060405180830381600087803b15801561226a57600080fd5b505af115801561227e573d6000803e3d6000fd5b505050505b5b8061228e90613f5d565b9050611f2f565b50505050565b6122a361178d565b73ffffffffffffffffffffffffffffffffffffffff166315fea7d583836040518363ffffffff1660e01b81526004016122dd92919061305f565b602060405180830381865afa1580156122fa573d6000803e3d6000fd5b505050506040513d601f19601f8201168201806040525081019061231e91906134e2565b61271b57600061232e838361271f565b90506002600381111561234457612343613258565b5b61234c611411565b73ffffffffffffffffffffffffffffffffffffffff1663e9c0844a846040518263ffffffff1660e01b815260040161238491906133f4565b602060405180830381865afa1580156123a1573d6000803e3d6000fd5b505050506040513d601f19601f820116820180604052508101906123c59190614199565b60038111156123d7576123d6613258565b5b036123f05760008151036123eb575061271b565b612486565b6123f861136e565b73ffffffffffffffffffffffffffffffffffffffff1663a5478d4f836040518263ffffffff1660e01b815260040161243091906133f4565b600060405180830381865afa15801561244d573d6000803e3d6000fd5b505050506040513d6000823e3d601f19601f82011682018060405250810190612476919061451b565b5181511015612485575061271b565b5b60005b8151811015612550576124b6848383815181106124a9576124a8613ecb565b5b602002602001015161291d565b61253f576124c261178d565b73ffffffffffffffffffffffffffffffffffffffff166314457f1785854260056000806040518763ffffffff1660e01b8152600401612506969594939291906145fc565b600060405180830381600087803b15801561252057600080fd5b505af1158015612534573d6000803e3d6000fd5b50505050505061271b565b8061254990613f5d565b9050612489565b5060008061255e8585611852565b91509150600061256e8383612ac4565b9050600061257a611411565b73ffffffffffffffffffffffffffffffffffffffff1663f0659248876040518263ffffffff1660e01b81526004016125b291906133f4565b600060405180830381865afa1580156125cf573d6000803e3d6000fd5b505050506040513d6000823e3d601f19601f820116820180604052508101906125f89190614783565b905060006005905060005b82518110156126965782818151811061261f5761261e613ecb565b5b602002602001015160200151841015801561265e575061265d83828151811061264b5761264a613ecb565b5b60200260200101516000015183612ada565b5b156126855782818151811061267657612675613ecb565b5b60200260200101516000015191505b8061268f90613f5d565b9050612603565b5061269f61178d565b73ffffffffffffffffffffffffffffffffffffffff166314457f17898942856000806040518763ffffffff1660e01b81526004016126e2969594939291906147f2565b600060405180830381600087803b1580156126fc57600080fd5b505af1158015612710573d6000803e3d6000fd5b505050505050505050505b5050565b60606002600381111561273557612734613258565b5b61273d611411565b73ffffffffffffffffffffffffffffffffffffffff1663e9c0844a846040518263ffffffff1660e01b815260040161277591906133f4565b602060405180830381865afa158015612792573d6000803e3d6000fd5b505050506040513d601f19601f820116820180604052508101906127b69190614199565b60038111156127c8576127c7613258565b5b03612893576000806127da8585612ae7565b91509150811561284057612837600067ffffffffffffffff81111561280257612801613b8e565b5b6040519080825280602002602001820160405280156128305781602001602082028036833780820191505090505b5082612c9f565b925050506128a0565b600067ffffffffffffffff81111561285b5761285a613b8e565b5b6040519080825280602002602001820160405280156128895781602001602082028036833780820191505090505b50925050506128a0565b61289d8383612d7e565b90505b92915050565b600080600090505b82518110156128f257838382815181106128cb576128ca613ecb565b5b6020026020010151036128e15780915050612917565b806128eb90613f5d565b90506128ae565b507fffffffffffffffffffffffffffffffffffffffffffffffffffffffffffffffff90505b92915050565b60008061292861136e565b73ffffffffffffffffffffffffffffffffffffffff1663a31cf91f846040518263ffffffff1660e01b815260040161296091906133f4565b602060405180830381865afa15801561297d573d6000803e3d6000fd5b505050506040513d601f19601f820116820180604052508101906129a191906133c7565b90506129b584826129b0611411565b611580565b6129bd61136e565b73ffffffffffffffffffffffffffffffffffffffff16630a627852846040518263ffffffff1660e01b81526004016129f591906133f4565b602060405180830381865afa158015612a12573d6000803e3d6000fd5b505050506040513d601f19601f82011682018060405250810190612a3691906133c7565b612a3e61178d565b73ffffffffffffffffffffffffffffffffffffffff16632e3b755e86866040518363ffffffff1660e01b8152600401612a7892919061305f565b602060405180830381865afa158015612a95573d6000803e3d6000fd5b505050506040513d601f19601f82011682018060405250810190612ab991906133c7565b101591505092915050565b6000612ad283836005612efe565b905092915050565b6000818310905092915050565b6000806000612af68585612d7e565b90506000600182511015612b1257600081935093505050612c98565b81600081518110612b2657612b25613ecb565b5b6020026020010151905060005b8251811015612c8d57612b4461136e565b73ffffffffffffffffffffffffffffffffffffffff166326f63a96836040518263ffffffff1660e01b8152600401612b7c91906133f4565b602060405180830381865afa158015612b99573d6000803e3d6000fd5b505050506040513d601f19601f82011682018060405250810190612bbd91906133c7565b612bc561136e565b73ffffffffffffffffffffffffffffffffffffffff166326f63a96858481518110612bf357612bf2613ecb565b5b60200260200101516040518263ffffffff1660e01b8152600401612c1791906133f4565b602060405180830381865afa158015612c34573d6000803e3d6000fd5b505050506040513d601f19601f82011682018060405250810190612c5891906133c7565b1115612c7c57828181518110612c7157612c70613ecb565b5b602002602001015191505b80612c8690613f5d565b9050612b33565b506001819350935050505b9250929050565b6060600060018451612cb19190613f29565b67ffffffffffffffff811115612cca57612cc9613b8e565b5b604051908082528060200260200182016040528015612cf85781602001602082028036833780820191505090505b50905060005b8451811015612d5257848181518110612d1a57612d19613ecb565b5b6020026020010151828281518110612d3557612d34613ecb565b5b60200260200101818152505080612d4b90613f5d565b9050612cfe565b508281855181518110612d6857612d67613ecb565b5b6020026020010181815250508091505092915050565b60606000612d8a61136e565b73ffffffffffffffffffffffffffffffffffffffff1663786e0785846040518263ffffffff1660e01b8152600401612dc291906133f4565b600060405180830381865afa158015612ddf573d6000803e3d6000fd5b505050506040513d6000823e3d601f19601f82011682018060405250810190612e089190613ccc565b9050606060005b8251811015612ef257612e2061178d565b73ffffffffffffffffffffffffffffffffffffffff1663cfca6e9787858481518110612e4f57612e4e613ecb565b5b60200260200101516040518363ffffffff1660e01b8152600401612e7492919061305f565b602060405180830381865afa158015612e91573d6000803e3d6000fd5b505050506040513d601f19601f82011682018060405250810190612eb591906134e2565b15612ee157612ede82848381518110612ed157612ed0613ecb565b5b6020026020010151612c9f565b91505b80612eeb90613f5d565b9050612e0f565b50809250505092915050565b600081600a612f0d9190614999565b84612f1891906149e4565b9350600a8385612f289190614a55565b612f329190614a55565b90509392505050565b6000604051905090565b600080fd5b600080fd5b6000819050919050565b612f6281612f4f565b8114612f6d57600080fd5b50565b600081359050612f7f81612f59565b92915050565b60008115159050919050565b612f9a81612f85565b8114612fa557600080fd5b50565b600081359050612fb781612f91565b92915050565b600080600060608486031215612fd657612fd5612f45565b5b6000612fe486828701612f70565b9350506020612ff586828701612f70565b925050604061300686828701612fa8565b9150509250925092565b6000806040838503121561302757613026612f45565b5b600061303585828601612f70565b925050602061304685828601612f70565b9150509250929050565b61305981612f4f565b82525050565b60006040820190506130746000830185613050565b6130816020830184613050565b9392505050565b600080fd5b600080fd5b600080fd5b60008083601f8401126130ad576130ac613088565b5b8235905067ffffffffffffffff8111156130ca576130c961308d565b5b6020830191508360018202830111156130e6576130e5613092565b5b9250929050565b60008060008060006080868803121561310957613108612f45565b5b600061311788828901612f70565b955050602061312888828901612f70565b945050604061313988828901612f70565b935050606086013567ffffffffffffffff81111561315a57613159612f4a565b5b61316688828901613097565b92509250509295509295909350565b60008083601f84011261318b5761318a613088565b5b8235905067ffffffffffffffff8111156131a8576131a761308d565b5b6020830191508360208202830111156131c4576131c3613092565b5b9250929050565b6000806000604084860312156131e4576131e3612f45565b5b60006131f286828701612f70565b935050602084013567ffffffffffffffff81111561321357613212612f4a565b5b61321f86828701613175565b92509250509250925092565b60006020828403121561324157613240612f45565b5b600061324f84828501612f70565b91505092915050565b7f4e487b7100000000000000000000000000000000000000000000000000000000600052602160045260246000fd5b600073ffffffffffffffffffffffffffffffffffffffff82169050919050565b60006132b282613287565b9050919050565b6132c2816132a7565b82525050565b60006020820190506132dd60008301846132b9565b92915050565b600381106132f057600080fd5b50565b600081519050613302816132e3565b92915050565b60006020828403121561331e5761331d612f45565b5b600061332c848285016132f3565b91505092915050565b600082825260208201905092915050565b7f53656e646572206d7573742062652061206c6563747572657200000000000000600082015250565b600061337c601983613335565b915061338782613346565b602082019050919050565b600060208201905081810360008301526133ab8161336f565b9050919050565b6000815190506133c181612f59565b92915050565b6000602082840312156133dd576133dc612f45565b5b60006133eb848285016133b2565b91505092915050565b60006020820190506134096000830184613050565b92915050565b6002811061341c57600080fd5b50565b60008151905061342e8161340f565b92915050565b60006020828403121561344a57613449612f45565b5b60006134588482850161341f565b91505092915050565b7f54686973206173736573736d656e7420776173206e6f7420616e206578616d00600082015250565b6000613497601f83613335565b91506134a282613461565b602082019050919050565b600060208201905081810360008301526134c68161348a565b9050919050565b6000815190506134dc81612f91565b92915050565b6000602082840312156134f8576134f7612f45565b5b6000613506848285016134cd565b91505092915050565b7f546869732073747564656e742773206578616d20617474656e64616e6365207760008201527f617320636f6e6669726d656420616c7265616479000000000000000000000000602082015250565b600061356b603483613335565b91506135768261350f565b604082019050919050565b6000602082019050818103600083015261359a8161355e565b9050919050565b6135aa81612f85565b82525050565b60006080820190506135c56000830187613050565b6135d26020830186613050565b6135df60408301856135a1565b6135ec6060830184613050565b95945050505050565b82818337600083830152505050565b6000601f19601f8301169050919050565b60006136218385613335565b935061362e8385846135f5565b61363783613604565b840190509392505050565b600060e082019050613657600083018b613050565b613664602083018a613050565b6136716040830189613050565b61367e6060830188613050565b8181036080830152613691818688613615565b90506136a060a0830185613050565b6136ad60c08301846135a1565b9998505050505050505050565b7f53656e646572206d75737420626520612073747564656e740000000000000000600082015250565b60006136f0601883613335565b91506136fb826136ba565b602082019050919050565b6000602082019050818103600083015261371f816136e3565b9050919050565b7f54686973206173736573736d656e7420776173206e6f742061207375626d697360008201527f73696f6e00000000000000000000000000000000000000000000000000000000602082015250565b6000613782602483613335565b915061378d82613726565b604082019050919050565b600060208201905081810360008301526137b181613775565b9050919050565b7f5375626d697373696f6e206973206e6f7420706f737369626c6520616674657260008201527f2074686520646561646c696e6500000000000000000000000000000000000000602082015250565b6000613814602d83613335565b915061381f826137b8565b604082019050919050565b6000602082019050818103600083015261384381613807565b9050919050565b600082825260208201905092915050565b6000819050919050565b600082825260208201905092915050565b60006138828385613865565b935061388f8385846135f5565b61389883613604565b840190509392505050565b60006138b0848484613876565b90509392505050565b600080fd5b600080fd5b600080fd5b600080833560016020038436030381126138e5576138e46138c3565b5b83810192508235915060208301925067ffffffffffffffff82111561390d5761390c6138b9565b5b600182023603831315613923576139226138be565b5b509250929050565b6000602082019050919050565b6000613944838561384a565b9350836020840285016139568461385b565b8060005b8781101561399c57848403895261397182846138c8565b61397c8682846138a3565b95506139878461392b565b935060208b019a50505060018101905061395a565b50829750879450505050509392505050565b60006080820190506139c36000830188613050565b6139d06020830187613050565b6139dd6040830186613050565b81810360608301526139f0818486613938565b90509695505050505050565b600060c082019050613a11600083018a613050565b613a1e6020830189613050565b613a2b6040830188613050565b613a386060830187613050565b8181036080830152613a4b818587613615565b9050613a5a60a0830184613050565b98975050505050505050565b7f53656e646572206d757374206265206120726567697374657265642075736572600082015250565b6000613a9c602083613335565b9150613aa782613a66565b602082019050919050565b60006020820190508181036000830152613acb81613a8f565b9050919050565b60068110613ae357613ae2613258565b5b50565b6000819050613af482613ad2565b919050565b6000613b0482613ae6565b9050919050565b613b1481613af9565b82525050565b6000602082019050613b2f6000830184613b0b565b92915050565b613b3e816132a7565b8114613b4957600080fd5b50565b600081519050613b5b81613b35565b92915050565b600060208284031215613b7757613b76612f45565b5b6000613b8584828501613b4c565b91505092915050565b7f4e487b7100000000000000000000000000000000000000000000000000000000600052604160045260246000fd5b613bc682613604565b810181811067ffffffffffffffff82111715613be557613be4613b8e565b5b80604052505050565b6000613bf8612f3b565b9050613c048282613bbd565b919050565b600067ffffffffffffffff821115613c2457613c23613b8e565b5b602082029050602081019050919050565b6000613c48613c4384613c09565b613bee565b90508083825260208201905060208402830185811115613c6b57613c6a613092565b5b835b81811015613c945780613c8088826133b2565b845260208401935050602081019050613c6d565b5050509392505050565b600082601f830112613cb357613cb2613088565b5b8151613cc3848260208601613c35565b91505092915050565b600060208284031215613ce257613ce1612f45565b5b600082015167ffffffffffffffff811115613d0057613cff612f4a565b5b613d0c84828501613c9e565b91505092915050565b7f4c65637475726572206973206e6f74206c6563747572696e672061742074686960008201527f7320636f75727365000000000000000000000000000000000000000000000000602082015250565b6000613d71602883613335565b9150613d7c82613d15565b604082019050919050565b60006020820190508181036000830152613da081613d64565b9050919050565b7f53747564656e74206973206e6f74207265676973746572656420746f2074686560008201527f20636f7572736500000000000000000000000000000000000000000000000000602082015250565b6000613e03602783613335565b9150613e0e82613da7565b604082019050919050565b60006020820190508181036000830152613e3281613df6565b9050919050565b7f53747564656e7420646964206e6f7420726567697374657220746f207468697360008201527f2061736573736d656e7400000000000000000000000000000000000000000000602082015250565b6000613e95602a83613335565b9150613ea082613e39565b604082019050919050565b60006020820190508181036000830152613ec481613e88565b9050919050565b7f4e487b7100000000000000000000000000000000000000000000000000000000600052603260045260246000fd5b7f4e487b7100000000000000000000000000000000000000000000000000000000600052601160045260246000fd5b6000613f3482612f4f565b9150613f3f83612f4f565b9250828201905080821115613f5757613f56613efa565b5b92915050565b6000613f6882612f4f565b91507fffffffffffffffffffffffffffffffffffffffffffffffffffffffffffffffff8203613f9a57613f99613efa565b5b600182019050919050565b6000819050919050565b6000819050919050565b6000613fd4613fcf613fca84613fa5565b613faf565b612f4f565b9050919050565b613fe481613fb9565b82525050565b7f4175746f6d617469633a204e6f207375626d697373696f6e207761732068616e60008201527f64656420696e0000000000000000000000000000000000000000000000000000602082015250565b6000614046602683613335565b915061405182613fea565b604082019050919050565b600060c0820190506140716000830188613050565b61407e6020830187613050565b61408b6040830186613050565b6140986060830185613fdb565b81810360808301526140a981614039565b90506140b860a0830184613050565b9695505050505050565b7f4175746f6d617469633a204578616d20776173206e6f7420617474656e646564600082015250565b60006140f8602083613335565b9150614103826140c2565b602082019050919050565b600060c0820190506141236000830188613050565b6141306020830187613050565b61413d6040830186613050565b61414a6060830185613fdb565b818103608083015261415b816140eb565b905061416a60a0830184613050565b9695505050505050565b6004811061418157600080fd5b50565b60008151905061419381614174565b92915050565b6000602082840312156141af576141ae612f45565b5b60006141bd84828501614184565b91505092915050565b600067ffffffffffffffff8211156141e1576141e0613b8e565b5b602082029050602081019050919050565b600080fd5b600080fd5b600080fd5b600067ffffffffffffffff82111561421c5761421b613b8e565b5b61422582613604565b9050602081019050919050565b60005b83811015614250578082015181840152602081019050614235565b60008484015250505050565b600061426f61426a84614201565b613bee565b90508281526020810184848401111561428b5761428a6141fc565b5b614296848285614232565b509392505050565b600082601f8301126142b3576142b2613088565b5b81516142c384826020860161425c565b91505092915050565b600061014082840312156142e3576142e26141f2565b5b6142ee610140613bee565b9050600082015167ffffffffffffffff81111561430e5761430d6141f7565b5b61431a8482850161429e565b600083015250602061432e848285016133b2565b602083015250604082015167ffffffffffffffff811115614352576143516141f7565b5b61435e8482850161429e565b60408301525060606143728482850161341f565b6060830152506080614386848285016133b2565b60808301525060a061439a848285016133b2565b60a08301525060c06143ae848285016134cd565b60c08301525060e06143c2848285016133b2565b60e0830152506101006143d7848285016133b2565b610100830152506101206143ed848285016133b2565b6101208301525092915050565b6000604082840312156144105761440f6141f2565b5b61441a6040613bee565b9050600061442a848285016133b2565b600083015250602082015167ffffffffffffffff81111561444e5761444d6141f7565b5b61445a848285016142cc565b60208301525092915050565b6000614479614474846141c6565b613bee565b9050808382526020820190506020840283018581111561449c5761449b613092565b5b835b818110156144e357805167ffffffffffffffff8111156144c1576144c0613088565b5b8086016144ce89826143fa565b8552602085019450505060208101905061449e565b5050509392505050565b600082601f83011261450257614501613088565b5b8151614512848260208601614466565b91505092915050565b60006020828403121561453157614530612f45565b5b600082015167ffffffffffffffff81111561454f5761454e612f4a565b5b61455b848285016144ed565b91505092915050565b7f4175746f6d617469633a204174206c65617374206f6e65206f6620746865206160008201527f73736573736d656e747320646964206e6f7420726561636820746865206d696e60208201527f696d756d20706f696e7473000000000000000000000000000000000000000000604082015250565b60006145e6604b83613335565b91506145f182614564565b606082019050919050565b600060e0820190506146116000830189613050565b61461e6020830188613050565b61462b6040830187613050565b6146386060830186613050565b8181036080830152614649816145d9565b905061465860a0830185613050565b61466560c08301846135a1565b979650505050505050565b600067ffffffffffffffff82111561468b5761468a613b8e565b5b602082029050602081019050919050565b6000604082840312156146b2576146b16141f2565b5b6146bc6040613bee565b905060006146cc848285016133b2565b60008301525060206146e0848285016133b2565b60208301525092915050565b60006146ff6146fa84614670565b613bee565b9050808382526020820190506040840283018581111561472257614721613092565b5b835b8181101561474b5780614737888261469c565b845260208401935050604081019050614724565b5050509392505050565b600082601f83011261476a57614769613088565b5b815161477a8482602086016146ec565b91505092915050565b60006020828403121561479957614798612f45565b5b600082015167ffffffffffffffff8111156147b7576147b6612f4a565b5b6147c384828501614755565b91505092915050565b50565b60006147dc600083613335565b91506147e7826147cc565b600082019050919050565b600060e0820190506148076000830189613050565b6148146020830188613050565b6148216040830187613050565b61482e6060830186613050565b818103608083015261483f816147cf565b905061484e60a0830185613050565b61485b60c08301846135a1565b979650505050505050565b60008160011c9050919050565b6000808291508390505b60018511156148bd5780860481111561489957614898613efa565b5b60018516156148a85780820291505b80810290506148b685614866565b945061487d565b94509492505050565b6000826148d65760019050614992565b816148e45760009050614992565b81600181146148fa576002811461490457614933565b6001915050614992565b60ff84111561491657614915613efa565b5b8360020a91508482111561492d5761492c613efa565b5b50614992565b5060208310610133831016604e8410600b84101617156149685782820a90508381111561496357614962613efa565b5b614992565b6149758484846001614873565b9250905081840481111561498c5761498b613efa565b5b81810290505b9392505050565b60006149a482612f4f565b91506149af83612f4f565b92506149dc7fffffffffffffffffffffffffffffffffffffffffffffffffffffffffffffffff84846148c6565b905092915050565b60006149ef82612f4f565b91506149fa83612f4f565b9250828202614a0881612f4f565b91508282048414831517614a1f57614a1e613efa565b5b5092915050565b7f4e487b7100000000000000000000000000000000000000000000000000000000600052601260045260246000fd5b6000614a6082612f4f565b9150614a6b83612f4f565b925082614a7b57614a7a614a26565b5b82820490509291505056fea264697066735822122022346887453cbd4d2accbcc45834581a48cc8740771ecb98cadef59a05d2bf1464736f6c63430008110033",
  "linkReferences": {},
  "deployedLinkReferences": {}
}