{
  "_format": "hh-sol-artifact-1",
  "contractName": "PerformanceController",
  "sourceName": "contracts/logic/PerformanceController.sol",
  "abi": [
    {
      "inputs": [
        {
          "internalType": "address",
          "name": "addressBookAddress",
          "type": "address"
        }
      ],
      "stateMutability": "nonpayable",
      "type": "constructor"
    },
    {
      "inputs": [
        {
          "internalType": "uint256",
          "name": "assessmentId",
          "type": "uint256"
        },
        {
          "internalType": "string[]",
          "name": "documentHashes",
          "type": "string[]"
        }
      ],
      "name": "addSubmission",
      "outputs": [],
      "stateMutability": "nonpayable",
      "type": "function"
    },
    {
      "inputs": [
        {
          "internalType": "uint256",
          "name": "studentUId",
          "type": "uint256"
        },
        {
          "internalType": "uint256",
          "name": "assessmentId",
          "type": "uint256"
        },
        {
          "internalType": "bool",
          "name": "hasAttended",
          "type": "bool"
        }
      ],
      "name": "administerExamAttendance",
      "outputs": [],
      "stateMutability": "nonpayable",
      "type": "function"
    },
    {
      "inputs": [
        {
          "internalType": "uint256",
          "name": "courseId",
          "type": "uint256"
        }
      ],
      "name": "calculatePoints",
      "outputs": [
        {
          "internalType": "uint256",
          "name": "",
          "type": "uint256"
        },
        {
          "internalType": "uint256",
          "name": "",
          "type": "uint256"
        }
      ],
      "stateMutability": "view",
      "type": "function"
    },
    {
      "inputs": [
        {
          "internalType": "uint256",
          "name": "studentUId",
          "type": "uint256"
        },
        {
          "internalType": "uint256",
          "name": "courseId",
          "type": "uint256"
        }
      ],
      "name": "calculatePointsOfStudent",
      "outputs": [
        {
          "internalType": "uint256",
          "name": "",
          "type": "uint256"
        },
        {
          "internalType": "uint256",
          "name": "",
          "type": "uint256"
        }
      ],
      "stateMutability": "view",
      "type": "function"
    },
    {
      "inputs": [
        {
          "internalType": "uint256",
          "name": "studentUId",
          "type": "uint256"
        },
        {
          "internalType": "uint256",
          "name": "assessmentId",
          "type": "uint256"
        },
        {
          "internalType": "uint256",
          "name": "achievedPoints",
          "type": "uint256"
        },
        {
          "internalType": "string",
          "name": "feedback",
          "type": "string"
        }
      ],
      "name": "giveEvaluation",
      "outputs": [],
      "stateMutability": "nonpayable",
      "type": "function"
    },
    {
      "inputs": [
        {
          "internalType": "uint256",
          "name": "studentUId",
          "type": "uint256"
        },
        {
          "internalType": "uint256",
          "name": "courseId",
          "type": "uint256"
        },
        {
          "internalType": "uint256",
          "name": "grade",
          "type": "uint256"
        },
        {
          "internalType": "string",
          "name": "feedback",
          "type": "string"
        }
      ],
      "name": "giveFinalGrade",
      "outputs": [],
      "stateMutability": "nonpayable",
      "type": "function"
    },
    {
      "inputs": [
        {
          "internalType": "uint256",
          "name": "courseId",
          "type": "uint256"
        }
      ],
      "name": "isMinPointsAchieved",
      "outputs": [
        {
          "internalType": "bool",
          "name": "",
          "type": "bool"
        }
      ],
      "stateMutability": "view",
      "type": "function"
    },
    {
      "inputs": [
        {
          "internalType": "uint256",
          "name": "studentUId",
          "type": "uint256"
        },
        {
          "internalType": "uint256",
          "name": "courseId",
          "type": "uint256"
        }
      ],
      "name": "isMinPointsAchievedOfStudent",
      "outputs": [
        {
          "internalType": "bool",
          "name": "",
          "type": "bool"
        }
      ],
      "stateMutability": "view",
      "type": "function"
    }
  ],
  "bytecode": "0x60806040523480156200001157600080fd5b5060405162004fc638038062004fc68339818101604052810190620000379190620000ec565b8080806000806101000a81548173ffffffffffffffffffffffffffffffffffffffff021916908373ffffffffffffffffffffffffffffffffffffffff1602179055505050506200011e565b600080fd5b600073ffffffffffffffffffffffffffffffffffffffff82169050919050565b6000620000b48262000087565b9050919050565b620000c681620000a7565b8114620000d257600080fd5b50565b600081519050620000e681620000bb565b92915050565b60006020828403121562000105576200010462000082565b5b60006200011584828501620000d5565b91505092915050565b614e98806200012e6000396000f3fe608060405234801561001057600080fd5b50600436106100885760003560e01c806340b1ba3b1161005b57806340b1ba3b1461013a57806350add5d0146101565780635a1637be14610172578063bd42e510146101a357610088565b8063049070c11461008d5780630e14475f146100a95780631fc433da146100d95780633e6abaa614610109575b600080fd5b6100a760048036038101906100a2919061337e565b6101bf565b005b6100c360048036038101906100be91906133d1565b610619565b6040516100d09190613420565b60405180910390f35b6100f360048036038101906100ee919061343b565b6107b4565b6040516101009190613420565b60405180910390f35b610123600480360381019061011e91906133d1565b61093c565b604051610131929190613477565b60405180910390f35b610154600480360381019061014f9190613505565b610aed565b005b610170600480360381019061016b91906135e3565b610d0e565b005b61018c6004803603810190610187919061343b565b61115d565b60405161019a929190613477565b60405180910390f35b6101bd60048036038101906101b89190613505565b6112fa565b005b6101c76115b2565b600160028111156101db576101da613643565b5b6101e3611674565b73ffffffffffffffffffffffffffffffffffffffff1663dd8b2914336040518263ffffffff1660e01b815260040161021b91906136b3565b602060405180830381865afa158015610238573d6000803e3d6000fd5b505050506040513d601f19601f8201168201806040525081019061025c91906136f3565b600281111561026e5761026d613643565b5b146102ae576040517f08c379a00000000000000000000000000000000000000000000000000000000081526004016102a59061377d565b60405180910390fd5b60006102b8611674565b73ffffffffffffffffffffffffffffffffffffffff1663e3d7e14c336040518263ffffffff1660e01b81526004016102f091906136b3565b602060405180830381865afa15801561030d573d6000803e3d6000fd5b505050506040513d601f19601f8201168201806040525081019061033191906137b2565b9050600061033d611717565b73ffffffffffffffffffffffffffffffffffffffff1663a31cf91f856040518263ffffffff1660e01b815260040161037591906137df565b602060405180830381865afa158015610392573d6000803e3d6000fd5b505050506040513d601f19601f820116820180604052508101906103b691906137b2565b90506103ca82826103c56117ba565b61185d565b6103dc85826103d76117ba565b611929565b600060018111156103f0576103ef613643565b5b6103f8611717565b73ffffffffffffffffffffffffffffffffffffffff1663e9eb5356866040518263ffffffff1660e01b815260040161043091906137df565b602060405180830381865afa15801561044d573d6000803e3d6000fd5b505050506040513d601f19601f82011682018060405250810190610471919061381f565b600181111561048357610482613643565b5b146104c3576040517f08c379a00000000000000000000000000000000000000000000000000000000081526004016104ba90613898565b60405180910390fd5b6104cd85856119e9565b6104d5611b36565b73ffffffffffffffffffffffffffffffffffffffff1663683391e486866040518363ffffffff1660e01b815260040161050f929190613477565b602060405180830381865afa15801561052c573d6000803e3d6000fd5b505050506040513d601f19601f8201168201806040525081019061055091906138cd565b15610590576040517f08c379a00000000000000000000000000000000000000000000000000000000081526004016105879061396c565b60405180910390fd5b610598611b36565b73ffffffffffffffffffffffffffffffffffffffff166323f618ee868686426040518563ffffffff1660e01b81526004016105d6949392919061398c565b600060405180830381600087803b1580156105f057600080fd5b505af1158015610604573d6000803e3d6000fd5b505050506106128582611bd9565b5050505050565b60006106236115b2565b6001600281111561063757610636613643565b5b61063f611674565b73ffffffffffffffffffffffffffffffffffffffff1663dd8b2914336040518263ffffffff1660e01b815260040161067791906136b3565b602060405180830381865afa158015610694573d6000803e3d6000fd5b505050506040513d601f19601f820116820180604052508101906106b891906136f3565b60028111156106ca576106c9613643565b5b1461070a576040517f08c379a00000000000000000000000000000000000000000000000000000000081526004016107019061377d565b60405180910390fd5b6000610714611674565b73ffffffffffffffffffffffffffffffffffffffff1663e3d7e14c336040518263ffffffff1660e01b815260040161074c91906136b3565b602060405180830381865afa158015610769573d6000803e3d6000fd5b505050506040513d601f19601f8201168201806040525081019061078d91906137b2565b90506107a1818461079c6117ba565b61185d565b6107ab8484611bfb565b91505092915050565b60006107be6115b2565b600060028111156107d2576107d1613643565b5b6107da611674565b73ffffffffffffffffffffffffffffffffffffffff1663dd8b2914336040518263ffffffff1660e01b815260040161081291906136b3565b602060405180830381865afa15801561082f573d6000803e3d6000fd5b505050506040513d601f19601f8201168201806040525081019061085391906136f3565b600281111561086557610864613643565b5b146108a5576040517f08c379a000000000000000000000000000000000000000000000000000000000815260040161089c90613a1d565b60405180910390fd5b60006108af611674565b73ffffffffffffffffffffffffffffffffffffffff1663e3d7e14c336040518263ffffffff1660e01b81526004016108e791906136b3565b602060405180830381865afa158015610904573d6000803e3d6000fd5b505050506040513d601f19601f8201168201806040525081019061092891906137b2565b90506109348184611bfb565b915050919050565b6000806109476115b2565b6001600281111561095b5761095a613643565b5b610963611674565b73ffffffffffffffffffffffffffffffffffffffff1663dd8b2914336040518263ffffffff1660e01b815260040161099b91906136b3565b602060405180830381865afa1580156109b8573d6000803e3d6000fd5b505050506040513d601f19601f820116820180604052508101906109dc91906136f3565b60028111156109ee576109ed613643565b5b14610a2e576040517f08c379a0000000000000000000000000000000000000000000000000000000008152600401610a259061377d565b60405180910390fd5b6000610a38611674565b73ffffffffffffffffffffffffffffffffffffffff1663e3d7e14c336040518263ffffffff1660e01b8152600401610a7091906136b3565b602060405180830381865afa158015610a8d573d6000803e3d6000fd5b505050506040513d601f19601f82011682018060405250810190610ab191906137b2565b9050610ac58185610ac06117ba565b61185d565b610ad78585610ad26117ba565b611929565b610ae18585611da2565b92509250509250929050565b610af56115b2565b60016002811115610b0957610b08613643565b5b610b11611674565b73ffffffffffffffffffffffffffffffffffffffff1663dd8b2914336040518263ffffffff1660e01b8152600401610b4991906136b3565b602060405180830381865afa158015610b66573d6000803e3d6000fd5b505050506040513d601f19601f82011682018060405250810190610b8a91906136f3565b6002811115610b9c57610b9b613643565b5b14610bdc576040517f08c379a0000000000000000000000000000000000000000000000000000000008152600401610bd39061377d565b60405180910390fd5b6000610be6611674565b73ffffffffffffffffffffffffffffffffffffffff1663e3d7e14c336040518263ffffffff1660e01b8152600401610c1e91906136b3565b602060405180830381865afa158015610c3b573d6000803e3d6000fd5b505050506040513d601f19601f82011682018060405250810190610c5f91906137b2565b9050610c738186610c6e6117ba565b61185d565b610c858686610c806117ba565b611929565b610c8d611b36565b73ffffffffffffffffffffffffffffffffffffffff166359a7dbe08787428888888860016040518963ffffffff1660e01b8152600401610cd4989796959493929190613a8a565b600060405180830381600087803b158015610cee57600080fd5b505af1158015610d02573d6000803e3d6000fd5b50505050505050505050565b610d166115b2565b60006002811115610d2a57610d29613643565b5b610d32611674565b73ffffffffffffffffffffffffffffffffffffffff1663dd8b2914336040518263ffffffff1660e01b8152600401610d6a91906136b3565b602060405180830381865afa158015610d87573d6000803e3d6000fd5b505050506040513d601f19601f82011682018060405250810190610dab91906136f3565b6002811115610dbd57610dbc613643565b5b14610dfd576040517f08c379a0000000000000000000000000000000000000000000000000000000008152600401610df490613a1d565b60405180910390fd5b6000610e07611674565b73ffffffffffffffffffffffffffffffffffffffff1663e3d7e14c336040518263ffffffff1660e01b8152600401610e3f91906136b3565b602060405180830381865afa158015610e5c573d6000803e3d6000fd5b505050506040513d601f19601f82011682018060405250810190610e8091906137b2565b90506000610e8c611717565b73ffffffffffffffffffffffffffffffffffffffff1663a31cf91f866040518263ffffffff1660e01b8152600401610ec491906137df565b602060405180830381865afa158015610ee1573d6000803e3d6000fd5b505050506040513d601f19601f82011682018060405250810190610f0591906137b2565b90506000610f11611717565b73ffffffffffffffffffffffffffffffffffffffff166326f63a96876040518263ffffffff1660e01b8152600401610f4991906137df565b602060405180830381865afa158015610f66573d6000803e3d6000fd5b505050506040513d601f19601f82011682018060405250810190610f8a91906137b2565b9050610f9e8383610f996117ba565b611929565b610fa883876119e9565b600180811115610fbb57610fba613643565b5b610fc3611717565b73ffffffffffffffffffffffffffffffffffffffff1663e9eb5356886040518263ffffffff1660e01b8152600401610ffb91906137df565b602060405180830381865afa158015611018573d6000803e3d6000fd5b505050506040513d601f19601f8201168201806040525081019061103c919061381f565b600181111561104e5761104d613643565b5b1461108e576040517f08c379a000000000000000000000000000000000000000000000000000000000815260040161108590613b74565b60405180910390fd5b804211156110d1576040517f08c379a00000000000000000000000000000000000000000000000000000000081526004016110c890613c06565b60405180910390fd5b6110d9611b36565b73ffffffffffffffffffffffffffffffffffffffff16631b89db2f84884289896040518663ffffffff1660e01b8152600401611119959493929190613d8a565b600060405180830381600087803b15801561113357600080fd5b505af1158015611147573d6000803e3d6000fd5b505050506111558383611bd9565b505050505050565b6000806111686115b2565b6000600281111561117c5761117b613643565b5b611184611674565b73ffffffffffffffffffffffffffffffffffffffff1663dd8b2914336040518263ffffffff1660e01b81526004016111bc91906136b3565b602060405180830381865afa1580156111d9573d6000803e3d6000fd5b505050506040513d601f19601f820116820180604052508101906111fd91906136f3565b600281111561120f5761120e613643565b5b1461124f576040517f08c379a000000000000000000000000000000000000000000000000000000000815260040161124690613a1d565b60405180910390fd5b6000611259611674565b73ffffffffffffffffffffffffffffffffffffffff1663e3d7e14c336040518263ffffffff1660e01b815260040161129191906136b3565b602060405180830381865afa1580156112ae573d6000803e3d6000fd5b505050506040513d601f19601f820116820180604052508101906112d291906137b2565b90506112e681856112e16117ba565b611929565b6112f08185611da2565b9250925050915091565b6113026115b2565b6001600281111561131657611315613643565b5b61131e611674565b73ffffffffffffffffffffffffffffffffffffffff1663dd8b2914336040518263ffffffff1660e01b815260040161135691906136b3565b602060405180830381865afa158015611373573d6000803e3d6000fd5b505050506040513d601f19601f8201168201806040525081019061139791906136f3565b60028111156113a9576113a8613643565b5b146113e9576040517f08c379a00000000000000000000000000000000000000000000000000000000081526004016113e09061377d565b60405180910390fd5b60006113f3611674565b73ffffffffffffffffffffffffffffffffffffffff1663e3d7e14c336040518263ffffffff1660e01b815260040161142b91906136b3565b602060405180830381865afa158015611448573d6000803e3d6000fd5b505050506040513d601f19601f8201168201806040525081019061146c91906137b2565b90506000611478611717565b73ffffffffffffffffffffffffffffffffffffffff1663a31cf91f876040518263ffffffff1660e01b81526004016114b091906137df565b602060405180830381865afa1580156114cd573d6000803e3d6000fd5b505050506040513d601f19601f820116820180604052508101906114f191906137b2565b905061150582826115006117ba565b61185d565b61151787826115126117ba565b611929565b61152187876119e9565b611529611b36565b73ffffffffffffffffffffffffffffffffffffffff1663119e7944888842898989896040518863ffffffff1660e01b815260040161156d9796959493929190613dd8565b600060405180830381600087803b15801561158757600080fd5b505af115801561159b573d6000803e3d6000fd5b505050506115a98782611bd9565b50505050505050565b6115ba611674565b73ffffffffffffffffffffffffffffffffffffffff166338b6a3a1336040518263ffffffff1660e01b81526004016115f291906136b3565b602060405180830381865afa15801561160f573d6000803e3d6000fd5b505050506040513d601f19601f8201168201806040525081019061163391906138cd565b611672576040517f08c379a000000000000000000000000000000000000000000000000000000000815260040161166990613e8e565b60405180910390fd5b565b60008060009054906101000a900473ffffffffffffffffffffffffffffffffffffffff1673ffffffffffffffffffffffffffffffffffffffff1663bcaa0c5560026040518263ffffffff1660e01b81526004016116d19190613ef6565b602060405180830381865afa1580156116ee573d6000803e3d6000fd5b505050506040513d601f19601f820116820180604052508101906117129190613f3d565b905090565b60008060009054906101000a900473ffffffffffffffffffffffffffffffffffffffff1673ffffffffffffffffffffffffffffffffffffffff1663bcaa0c5560016040518263ffffffff1660e01b81526004016117749190613ef6565b602060405180830381865afa158015611791573d6000803e3d6000fd5b505050506040513d601f19601f820116820180604052508101906117b59190613f3d565b905090565b60008060009054906101000a900473ffffffffffffffffffffffffffffffffffffffff1673ffffffffffffffffffffffffffffffffffffffff1663bcaa0c5560006040518263ffffffff1660e01b81526004016118179190613ef6565b602060405180830381865afa158015611834573d6000803e3d6000fd5b505050506040513d601f19601f820116820180604052508101906118589190613f3d565b905090565b6118e5838273ffffffffffffffffffffffffffffffffffffffff1663bd9c1b50856040518263ffffffff1660e01b815260040161189a91906137df565b600060405180830381865afa1580156118b7573d6000803e3d6000fd5b505050506040513d6000823e3d601f19601f820116820180604052508101906118e091906140a8565b611f36565b611924576040517f08c379a000000000000000000000000000000000000000000000000000000000815260040161191b90614163565b60405180910390fd5b505050565b8073ffffffffffffffffffffffffffffffffffffffff16633932708b84846040518363ffffffff1660e01b8152600401611964929190613477565b602060405180830381865afa158015611981573d6000803e3d6000fd5b505050506040513d601f19601f820116820180604052508101906119a591906138cd565b6119e4576040517f08c379a00000000000000000000000000000000000000000000000000000000081526004016119db906141f5565b60405180910390fd5b505050565b6119f1611717565b73ffffffffffffffffffffffffffffffffffffffff166330938d70826040518263ffffffff1660e01b8152600401611a2991906137df565b602060405180830381865afa158015611a46573d6000803e3d6000fd5b505050506040513d601f19601f82011682018060405250810190611a6a91906138cd565b15611b3257611a77611717565b73ffffffffffffffffffffffffffffffffffffffff166323ff178583836040518363ffffffff1660e01b8152600401611ab1929190613477565b602060405180830381865afa158015611ace573d6000803e3d6000fd5b505050506040513d601f19601f82011682018060405250810190611af291906138cd565b611b31576040517f08c379a0000000000000000000000000000000000000000000000000000000008152600401611b2890614287565b60405180910390fd5b5b5050565b60008060009054906101000a900473ffffffffffffffffffffffffffffffffffffffff1673ffffffffffffffffffffffffffffffffffffffff1663bcaa0c5560036040518263ffffffff1660e01b8152600401611b939190613ef6565b602060405180830381865afa158015611bb0573d6000803e3d6000fd5b505050506040513d601f19601f82011682018060405250810190611bd49190613f3d565b905090565b611be38282611f4d565b611bed82826123f2565b611bf782826127eb565b5050565b600080611c06611717565b73ffffffffffffffffffffffffffffffffffffffff1663a31cf91f846040518263ffffffff1660e01b8152600401611c3e91906137df565b602060405180830381865afa158015611c5b573d6000803e3d6000fd5b505050506040513d601f19601f82011682018060405250810190611c7f91906137b2565b9050611c938482611c8e6117ba565b611929565b611c9b611717565b73ffffffffffffffffffffffffffffffffffffffff16630a627852846040518263ffffffff1660e01b8152600401611cd391906137df565b602060405180830381865afa158015611cf0573d6000803e3d6000fd5b505050506040513d601f19601f82011682018060405250810190611d1491906137b2565b611d1c611b36565b73ffffffffffffffffffffffffffffffffffffffff16632e3b755e86866040518363ffffffff1660e01b8152600401611d56929190613477565b602060405180830381865afa158015611d73573d6000803e3d6000fd5b505050506040513d601f19601f82011682018060405250810190611d9791906137b2565b101591505092915050565b6000806000806000611db48787612c6f565b905060005b8151811015611f2557611dca611717565b73ffffffffffffffffffffffffffffffffffffffff1663a01a6b54838381518110611df857611df76142a7565b5b60200260200101516040518263ffffffff1660e01b8152600401611e1c91906137df565b602060405180830381865afa158015611e39573d6000803e3d6000fd5b505050506040513d601f19601f82011682018060405250810190611e5d91906137b2565b84611e689190614305565b9350611e72611b36565b73ffffffffffffffffffffffffffffffffffffffff16632e3b755e89848481518110611ea157611ea06142a7565b5b60200260200101516040518363ffffffff1660e01b8152600401611ec6929190613477565b602060405180830381865afa158015611ee3573d6000803e3d6000fd5b505050506040513d601f19601f82011682018060405250810190611f0791906137b2565b83611f129190614305565b925080611f1e90614339565b9050611db9565b508183945094505050509250929050565b600080611f438484612df6565b1215905092915050565b6000611f57611717565b73ffffffffffffffffffffffffffffffffffffffff1663786e0785836040518263ffffffff1660e01b8152600401611f8f91906137df565b600060405180830381865afa158015611fac573d6000803e3d6000fd5b505050506040513d6000823e3d601f19601f82011682018060405250810190611fd591906140a8565b905060005b81518110156123ec57600180811115611ff657611ff5613643565b5b611ffe611717565b73ffffffffffffffffffffffffffffffffffffffff1663e9eb535684848151811061202c5761202b6142a7565b5b60200260200101516040518263ffffffff1660e01b815260040161205091906137df565b602060405180830381865afa15801561206d573d6000803e3d6000fd5b505050506040513d601f19601f82011682018060405250810190612091919061381f565b60018111156120a3576120a2613643565b5b036123db5760006120b2611717565b73ffffffffffffffffffffffffffffffffffffffff166326f63a968484815181106120e0576120df6142a7565b5b60200260200101516040518263ffffffff1660e01b815260040161210491906137df565b602060405180830381865afa158015612121573d6000803e3d6000fd5b505050506040513d601f19601f8201168201806040525081019061214591906137b2565b905061214f611b36565b73ffffffffffffffffffffffffffffffffffffffff1663cfca6e978685858151811061217e5761217d6142a7565b5b60200260200101516040518363ffffffff1660e01b81526004016121a3929190613477565b602060405180830381865afa1580156121c0573d6000803e3d6000fd5b505050506040513d601f19601f820116820180604052508101906121e491906138cd565b806121ef5750804211155b156121fa57506123db565b612202611b36565b73ffffffffffffffffffffffffffffffffffffffff16631a2a2c4a86858581518110612231576122306142a7565b5b60200260200101516040518363ffffffff1660e01b8152600401612256929190613477565b602060405180830381865afa158015612273573d6000803e3d6000fd5b505050506040513d601f19601f8201168201806040525081019061229791906138cd565b158061233e5750806122a7611b36565b73ffffffffffffffffffffffffffffffffffffffff16637c56af01878686815181106122d6576122d56142a7565b5b60200260200101516040518363ffffffff1660e01b81526004016122fb929190613477565b602060405180830381865afa158015612318573d6000803e3d6000fd5b505050506040513d601f19601f8201168201806040525081019061233c91906137b2565b115b156123d95761234b611b36565b73ffffffffffffffffffffffffffffffffffffffff1663119e79448685858151811061237a576123796142a7565b5b6020026020010151426000806040518663ffffffff1660e01b81526004016123a6959493929190614438565b600060405180830381600087803b1580156123c057600080fd5b505af11580156123d4573d6000803e3d6000fd5b505050505b505b806123e590614339565b9050611fda565b50505050565b60006123fc611717565b73ffffffffffffffffffffffffffffffffffffffff1663786e0785836040518263ffffffff1660e01b815260040161243491906137df565b600060405180830381865afa158015612451573d6000803e3d6000fd5b505050506040513d6000823e3d601f19601f8201168201806040525081019061247a91906140a8565b905060005b81518110156127e5576000600181111561249c5761249b613643565b5b6124a4611717565b73ffffffffffffffffffffffffffffffffffffffff1663e9eb53568484815181106124d2576124d16142a7565b5b60200260200101516040518263ffffffff1660e01b81526004016124f691906137df565b602060405180830381865afa158015612513573d6000803e3d6000fd5b505050506040513d601f19601f82011682018060405250810190612537919061381f565b600181111561254957612548613643565b5b036127d457612556611b36565b73ffffffffffffffffffffffffffffffffffffffff1663cfca6e9785848481518110612585576125846142a7565b5b60200260200101516040518363ffffffff1660e01b81526004016125aa929190613477565b602060405180830381865afa1580156125c7573d6000803e3d6000fd5b505050506040513d601f19601f820116820180604052508101906125eb91906138cd565b6127d4576125f7611b36565b73ffffffffffffffffffffffffffffffffffffffff1663683391e485848481518110612626576126256142a7565b5b60200260200101516040518363ffffffff1660e01b815260040161264b929190613477565b602060405180830381865afa158015612668573d6000803e3d6000fd5b505050506040513d601f19601f8201168201806040525081019061268c91906138cd565b801561273857506000151561269f611b36565b73ffffffffffffffffffffffffffffffffffffffff1663b54c676a868585815181106126ce576126cd6142a7565b5b60200260200101516040518363ffffffff1660e01b81526004016126f3929190613477565b602060405180830381865afa158015612710573d6000803e3d6000fd5b505050506040513d601f19601f8201168201806040525081019061273491906138cd565b1515145b156127d357612745611b36565b73ffffffffffffffffffffffffffffffffffffffff1663119e794485848481518110612774576127736142a7565b5b6020026020010151426000806040518663ffffffff1660e01b81526004016127a09594939291906144ea565b600060405180830381600087803b1580156127ba57600080fd5b505af11580156127ce573d6000803e3d6000fd5b505050505b5b806127de90614339565b905061247f565b50505050565b6127f3611b36565b73ffffffffffffffffffffffffffffffffffffffff166315fea7d583836040518363ffffffff1660e01b815260040161282d929190613477565b602060405180830381865afa15801561284a573d6000803e3d6000fd5b505050506040513d601f19601f8201168201806040525081019061286e91906138cd565b612c6b57600061287e8383612c6f565b90506002600381111561289457612893613643565b5b61289c6117ba565b73ffffffffffffffffffffffffffffffffffffffff1663e9c0844a846040518263ffffffff1660e01b81526004016128d491906137df565b602060405180830381865afa1580156128f1573d6000803e3d6000fd5b505050506040513d601f19601f820116820180604052508101906129159190614575565b600381111561292757612926613643565b5b0361294057600081510361293b5750612c6b565b6129d6565b612948611717565b73ffffffffffffffffffffffffffffffffffffffff1663a5478d4f836040518263ffffffff1660e01b815260040161298091906137df565b600060405180830381865afa15801561299d573d6000803e3d6000fd5b505050506040513d6000823e3d601f19601f820116820180604052508101906129c691906148f7565b51815110156129d55750612c6b565b5b60005b8151811015612aa057612a06848383815181106129f9576129f86142a7565b5b6020026020010151611bfb565b612a8f57612a12611b36565b73ffffffffffffffffffffffffffffffffffffffff166314457f1785854260056000806040518763ffffffff1660e01b8152600401612a56969594939291906149d8565b600060405180830381600087803b158015612a7057600080fd5b505af1158015612a84573d6000803e3d6000fd5b505050505050612c6b565b80612a9990614339565b90506129d9565b50600080612aae8585611da2565b915091506000612abe8383612e6d565b90506000612aca6117ba565b73ffffffffffffffffffffffffffffffffffffffff1663f0659248876040518263ffffffff1660e01b8152600401612b0291906137df565b600060405180830381865afa158015612b1f573d6000803e3d6000fd5b505050506040513d6000823e3d601f19601f82011682018060405250810190612b489190614b5f565b905060006005905060005b8251811015612be657828181518110612b6f57612b6e6142a7565b5b6020026020010151602001518410158015612bae5750612bad838281518110612b9b57612b9a6142a7565b5b60200260200101516000015183612e83565b5b15612bd557828181518110612bc657612bc56142a7565b5b60200260200101516000015191505b80612bdf90614339565b9050612b53565b50612bef611b36565b73ffffffffffffffffffffffffffffffffffffffff166314457f17898942856000806040518763ffffffff1660e01b8152600401612c3296959493929190614bce565b600060405180830381600087803b158015612c4c57600080fd5b505af1158015612c60573d6000803e3d6000fd5b505050505050505050505b5050565b606060026003811115612c8557612c84613643565b5b612c8d6117ba565b73ffffffffffffffffffffffffffffffffffffffff1663e9c0844a846040518263ffffffff1660e01b8152600401612cc591906137df565b602060405180830381865afa158015612ce2573d6000803e3d6000fd5b505050506040513d601f19601f82011682018060405250810190612d069190614575565b6003811115612d1857612d17613643565b5b03612de357600080612d2a8585612e90565b915091508115612d9057612d87600067ffffffffffffffff811115612d5257612d51613f6a565b5b604051908082528060200260200182016040528015612d805781602001602082028036833780820191505090505b5082613048565b92505050612df0565b600067ffffffffffffffff811115612dab57612daa613f6a565b5b604051908082528060200260200182016040528015612dd95781602001602082028036833780820191505090505b5092505050612df0565b612ded8383613127565b90505b92915050565b600080600090505b8251811015612e425783838281518110612e1b57612e1a6142a7565b5b602002602001015103612e315780915050612e67565b80612e3b90614339565b9050612dfe565b507fffffffffffffffffffffffffffffffffffffffffffffffffffffffffffffffff90505b92915050565b6000612e7b838360046132a7565b905092915050565b6000818310905092915050565b6000806000612e9f8585613127565b90506000600182511015612ebb57600081935093505050613041565b81600081518110612ecf57612ece6142a7565b5b6020026020010151905060005b825181101561303657612eed611717565b73ffffffffffffffffffffffffffffffffffffffff166326f63a96836040518263ffffffff1660e01b8152600401612f2591906137df565b602060405180830381865afa158015612f42573d6000803e3d6000fd5b505050506040513d601f19601f82011682018060405250810190612f6691906137b2565b612f6e611717565b73ffffffffffffffffffffffffffffffffffffffff166326f63a96858481518110612f9c57612f9b6142a7565b5b60200260200101516040518263ffffffff1660e01b8152600401612fc091906137df565b602060405180830381865afa158015612fdd573d6000803e3d6000fd5b505050506040513d601f19601f8201168201806040525081019061300191906137b2565b11156130255782818151811061301a576130196142a7565b5b602002602001015191505b8061302f90614339565b9050612edc565b506001819350935050505b9250929050565b606060006001845161305a9190614305565b67ffffffffffffffff81111561307357613072613f6a565b5b6040519080825280602002602001820160405280156130a15781602001602082028036833780820191505090505b50905060005b84518110156130fb578481815181106130c3576130c26142a7565b5b60200260200101518282815181106130de576130dd6142a7565b5b602002602001018181525050806130f490614339565b90506130a7565b508281855181518110613111576131106142a7565b5b6020026020010181815250508091505092915050565b60606000613133611717565b73ffffffffffffffffffffffffffffffffffffffff1663786e0785846040518263ffffffff1660e01b815260040161316b91906137df565b600060405180830381865afa158015613188573d6000803e3d6000fd5b505050506040513d6000823e3d601f19601f820116820180604052508101906131b191906140a8565b9050606060005b825181101561329b576131c9611b36565b73ffffffffffffffffffffffffffffffffffffffff1663cfca6e97878584815181106131f8576131f76142a7565b5b60200260200101516040518363ffffffff1660e01b815260040161321d929190613477565b602060405180830381865afa15801561323a573d6000803e3d6000fd5b505050506040513d601f19601f8201168201806040525081019061325e91906138cd565b1561328a576132878284838151811061327a576132796142a7565b5b6020026020010151613048565b91505b8061329490614339565b90506131b8565b50809250505092915050565b60006001826132b69190614305565b600a6132c29190614d75565b846132cd9190614dc0565b9350600a600584866132df9190614e31565b6132e99190614305565b6132f39190614e31565b90509392505050565b6000604051905090565b600080fd5b600080fd5b6000819050919050565b61332381613310565b811461332e57600080fd5b50565b6000813590506133408161331a565b92915050565b60008115159050919050565b61335b81613346565b811461336657600080fd5b50565b60008135905061337881613352565b92915050565b60008060006060848603121561339757613396613306565b5b60006133a586828701613331565b93505060206133b686828701613331565b92505060406133c786828701613369565b9150509250925092565b600080604083850312156133e8576133e7613306565b5b60006133f685828601613331565b925050602061340785828601613331565b9150509250929050565b61341a81613346565b82525050565b60006020820190506134356000830184613411565b92915050565b60006020828403121561345157613450613306565b5b600061345f84828501613331565b91505092915050565b61347181613310565b82525050565b600060408201905061348c6000830185613468565b6134996020830184613468565b9392505050565b600080fd5b600080fd5b600080fd5b60008083601f8401126134c5576134c46134a0565b5b8235905067ffffffffffffffff8111156134e2576134e16134a5565b5b6020830191508360018202830111156134fe576134fd6134aa565b5b9250929050565b60008060008060006080868803121561352157613520613306565b5b600061352f88828901613331565b955050602061354088828901613331565b945050604061355188828901613331565b935050606086013567ffffffffffffffff8111156135725761357161330b565b5b61357e888289016134af565b92509250509295509295909350565b60008083601f8401126135a3576135a26134a0565b5b8235905067ffffffffffffffff8111156135c0576135bf6134a5565b5b6020830191508360208202830111156135dc576135db6134aa565b5b9250929050565b6000806000604084860312156135fc576135fb613306565b5b600061360a86828701613331565b935050602084013567ffffffffffffffff81111561362b5761362a61330b565b5b6136378682870161358d565b92509250509250925092565b7f4e487b7100000000000000000000000000000000000000000000000000000000600052602160045260246000fd5b600073ffffffffffffffffffffffffffffffffffffffff82169050919050565b600061369d82613672565b9050919050565b6136ad81613692565b82525050565b60006020820190506136c860008301846136a4565b92915050565b600381106136db57600080fd5b50565b6000815190506136ed816136ce565b92915050565b60006020828403121561370957613708613306565b5b6000613717848285016136de565b91505092915050565b600082825260208201905092915050565b7f53656e646572206d7573742062652061206c6563747572657200000000000000600082015250565b6000613767601983613720565b915061377282613731565b602082019050919050565b600060208201905081810360008301526137968161375a565b9050919050565b6000815190506137ac8161331a565b92915050565b6000602082840312156137c8576137c7613306565b5b60006137d68482850161379d565b91505092915050565b60006020820190506137f46000830184613468565b92915050565b6002811061380757600080fd5b50565b600081519050613819816137fa565b92915050565b60006020828403121561383557613834613306565b5b60006138438482850161380a565b91505092915050565b7f54686973206173736573736d656e7420776173206e6f7420616e206578616d00600082015250565b6000613882601f83613720565b915061388d8261384c565b602082019050919050565b600060208201905081810360008301526138b181613875565b9050919050565b6000815190506138c781613352565b92915050565b6000602082840312156138e3576138e2613306565b5b60006138f1848285016138b8565b91505092915050565b7f546869732073747564656e742773206578616d20617474656e64616e6365207760008201527f617320636f6e6669726d656420616c7265616479000000000000000000000000602082015250565b6000613956603483613720565b9150613961826138fa565b604082019050919050565b6000602082019050818103600083015261398581613949565b9050919050565b60006080820190506139a16000830187613468565b6139ae6020830186613468565b6139bb6040830185613411565b6139c86060830184613468565b95945050505050565b7f53656e646572206d75737420626520612073747564656e740000000000000000600082015250565b6000613a07601883613720565b9150613a12826139d1565b602082019050919050565b60006020820190508181036000830152613a36816139fa565b9050919050565b82818337600083830152505050565b6000601f19601f8301169050919050565b6000613a698385613720565b9350613a76838584613a3d565b613a7f83613a4c565b840190509392505050565b600060e082019050613a9f600083018b613468565b613aac602083018a613468565b613ab96040830189613468565b613ac66060830188613468565b8181036080830152613ad9818688613a5d565b9050613ae860a0830185613468565b613af560c0830184613411565b9998505050505050505050565b7f54686973206173736573736d656e7420776173206e6f742061207375626d697360008201527f73696f6e00000000000000000000000000000000000000000000000000000000602082015250565b6000613b5e602483613720565b9150613b6982613b02565b604082019050919050565b60006020820190508181036000830152613b8d81613b51565b9050919050565b7f5375626d697373696f6e206973206e6f7420706f737369626c6520616674657260008201527f2074686520646561646c696e6500000000000000000000000000000000000000602082015250565b6000613bf0602d83613720565b9150613bfb82613b94565b604082019050919050565b60006020820190508181036000830152613c1f81613be3565b9050919050565b600082825260208201905092915050565b6000819050919050565b600082825260208201905092915050565b6000613c5e8385613c41565b9350613c6b838584613a3d565b613c7483613a4c565b840190509392505050565b6000613c8c848484613c52565b90509392505050565b600080fd5b600080fd5b600080fd5b60008083356001602003843603038112613cc157613cc0613c9f565b5b83810192508235915060208301925067ffffffffffffffff821115613ce957613ce8613c95565b5b600182023603831315613cff57613cfe613c9a565b5b509250929050565b6000602082019050919050565b6000613d208385613c26565b935083602084028501613d3284613c37565b8060005b87811015613d78578484038952613d4d8284613ca4565b613d58868284613c7f565b9550613d6384613d07565b935060208b019a505050600181019050613d36565b50829750879450505050509392505050565b6000608082019050613d9f6000830188613468565b613dac6020830187613468565b613db96040830186613468565b8181036060830152613dcc818486613d14565b90509695505050505050565b600060c082019050613ded600083018a613468565b613dfa6020830189613468565b613e076040830188613468565b613e146060830187613468565b8181036080830152613e27818587613a5d565b9050613e3660a0830184613468565b98975050505050505050565b7f53656e646572206d757374206265206120726567697374657265642075736572600082015250565b6000613e78602083613720565b9150613e8382613e42565b602082019050919050565b60006020820190508181036000830152613ea781613e6b565b9050919050565b60068110613ebf57613ebe613643565b5b50565b6000819050613ed082613eae565b919050565b6000613ee082613ec2565b9050919050565b613ef081613ed5565b82525050565b6000602082019050613f0b6000830184613ee7565b92915050565b613f1a81613692565b8114613f2557600080fd5b50565b600081519050613f3781613f11565b92915050565b600060208284031215613f5357613f52613306565b5b6000613f6184828501613f28565b91505092915050565b7f4e487b7100000000000000000000000000000000000000000000000000000000600052604160045260246000fd5b613fa282613a4c565b810181811067ffffffffffffffff82111715613fc157613fc0613f6a565b5b80604052505050565b6000613fd46132fc565b9050613fe08282613f99565b919050565b600067ffffffffffffffff82111561400057613fff613f6a565b5b602082029050602081019050919050565b600061402461401f84613fe5565b613fca565b90508083825260208201905060208402830185811115614047576140466134aa565b5b835b81811015614070578061405c888261379d565b845260208401935050602081019050614049565b5050509392505050565b600082601f83011261408f5761408e6134a0565b5b815161409f848260208601614011565b91505092915050565b6000602082840312156140be576140bd613306565b5b600082015167ffffffffffffffff8111156140dc576140db61330b565b5b6140e88482850161407a565b91505092915050565b7f4c65637475726572206973206e6f74206c6563747572696e672061742074686960008201527f7320636f75727365000000000000000000000000000000000000000000000000602082015250565b600061414d602883613720565b9150614158826140f1565b604082019050919050565b6000602082019050818103600083015261417c81614140565b9050919050565b7f53747564656e74206973206e6f74207265676973746572656420746f2074686560008201527f20636f7572736500000000000000000000000000000000000000000000000000602082015250565b60006141df602783613720565b91506141ea82614183565b604082019050919050565b6000602082019050818103600083015261420e816141d2565b9050919050565b7f53747564656e7420646964206e6f7420726567697374657220746f207468697360008201527f2061736573736d656e7400000000000000000000000000000000000000000000602082015250565b6000614271602a83613720565b915061427c82614215565b604082019050919050565b600060208201905081810360008301526142a081614264565b9050919050565b7f4e487b7100000000000000000000000000000000000000000000000000000000600052603260045260246000fd5b7f4e487b7100000000000000000000000000000000000000000000000000000000600052601160045260246000fd5b600061431082613310565b915061431b83613310565b9250828201905080821115614333576143326142d6565b5b92915050565b600061434482613310565b91507fffffffffffffffffffffffffffffffffffffffffffffffffffffffffffffffff8203614376576143756142d6565b5b600182019050919050565b6000819050919050565b6000819050919050565b60006143b06143ab6143a684614381565b61438b565b613310565b9050919050565b6143c081614395565b82525050565b7f4175746f6d617469633a204e6f207375626d697373696f6e207761732068616e60008201527f64656420696e0000000000000000000000000000000000000000000000000000602082015250565b6000614422602683613720565b915061442d826143c6565b604082019050919050565b600060c08201905061444d6000830188613468565b61445a6020830187613468565b6144676040830186613468565b61447460608301856143b7565b818103608083015261448581614415565b905061449460a0830184613468565b9695505050505050565b7f4175746f6d617469633a204578616d20776173206e6f7420617474656e646564600082015250565b60006144d4602083613720565b91506144df8261449e565b602082019050919050565b600060c0820190506144ff6000830188613468565b61450c6020830187613468565b6145196040830186613468565b61452660608301856143b7565b8181036080830152614537816144c7565b905061454660a0830184613468565b9695505050505050565b6004811061455d57600080fd5b50565b60008151905061456f81614550565b92915050565b60006020828403121561458b5761458a613306565b5b600061459984828501614560565b91505092915050565b600067ffffffffffffffff8211156145bd576145bc613f6a565b5b602082029050602081019050919050565b600080fd5b600080fd5b600080fd5b600067ffffffffffffffff8211156145f8576145f7613f6a565b5b61460182613a4c565b9050602081019050919050565b60005b8381101561462c578082015181840152602081019050614611565b60008484015250505050565b600061464b614646846145dd565b613fca565b905082815260208101848484011115614667576146666145d8565b5b61467284828561460e565b509392505050565b600082601f83011261468f5761468e6134a0565b5b815161469f848260208601614638565b91505092915050565b600061014082840312156146bf576146be6145ce565b5b6146ca610140613fca565b9050600082015167ffffffffffffffff8111156146ea576146e96145d3565b5b6146f68482850161467a565b600083015250602061470a8482850161379d565b602083015250604082015167ffffffffffffffff81111561472e5761472d6145d3565b5b61473a8482850161467a565b604083015250606061474e8482850161380a565b60608301525060806147628482850161379d565b60808301525060a06147768482850161379d565b60a08301525060c061478a848285016138b8565b60c08301525060e061479e8482850161379d565b60e0830152506101006147b38482850161379d565b610100830152506101206147c98482850161379d565b6101208301525092915050565b6000604082840312156147ec576147eb6145ce565b5b6147f66040613fca565b905060006148068482850161379d565b600083015250602082015167ffffffffffffffff81111561482a576148296145d3565b5b614836848285016146a8565b60208301525092915050565b6000614855614850846145a2565b613fca565b90508083825260208201905060208402830185811115614878576148776134aa565b5b835b818110156148bf57805167ffffffffffffffff81111561489d5761489c6134a0565b5b8086016148aa89826147d6565b8552602085019450505060208101905061487a565b5050509392505050565b600082601f8301126148de576148dd6134a0565b5b81516148ee848260208601614842565b91505092915050565b60006020828403121561490d5761490c613306565b5b600082015167ffffffffffffffff81111561492b5761492a61330b565b5b614937848285016148c9565b91505092915050565b7f4175746f6d617469633a204174206c65617374206f6e65206f6620746865206160008201527f73736573736d656e747320646964206e6f7420726561636820746865206d696e60208201527f696d756d20706f696e7473000000000000000000000000000000000000000000604082015250565b60006149c2604b83613720565b91506149cd82614940565b606082019050919050565b600060e0820190506149ed6000830189613468565b6149fa6020830188613468565b614a076040830187613468565b614a146060830186613468565b8181036080830152614a25816149b5565b9050614a3460a0830185613468565b614a4160c0830184613411565b979650505050505050565b600067ffffffffffffffff821115614a6757614a66613f6a565b5b602082029050602081019050919050565b600060408284031215614a8e57614a8d6145ce565b5b614a986040613fca565b90506000614aa88482850161379d565b6000830152506020614abc8482850161379d565b60208301525092915050565b6000614adb614ad684614a4c565b613fca565b90508083825260208201905060408402830185811115614afe57614afd6134aa565b5b835b81811015614b275780614b138882614a78565b845260208401935050604081019050614b00565b5050509392505050565b600082601f830112614b4657614b456134a0565b5b8151614b56848260208601614ac8565b91505092915050565b600060208284031215614b7557614b74613306565b5b600082015167ffffffffffffffff811115614b9357614b9261330b565b5b614b9f84828501614b31565b91505092915050565b50565b6000614bb8600083613720565b9150614bc382614ba8565b600082019050919050565b600060e082019050614be36000830189613468565b614bf06020830188613468565b614bfd6040830187613468565b614c0a6060830186613468565b8181036080830152614c1b81614bab565b9050614c2a60a0830185613468565b614c3760c0830184613411565b979650505050505050565b60008160011c9050919050565b6000808291508390505b6001851115614c9957808604811115614c7557614c746142d6565b5b6001851615614c845780820291505b8081029050614c9285614c42565b9450614c59565b94509492505050565b600082614cb25760019050614d6e565b81614cc05760009050614d6e565b8160018114614cd65760028114614ce057614d0f565b6001915050614d6e565b60ff841115614cf257614cf16142d6565b5b8360020a915084821115614d0957614d086142d6565b5b50614d6e565b5060208310610133831016604e8410600b8410161715614d445782820a905083811115614d3f57614d3e6142d6565b5b614d6e565b614d518484846001614c4f565b92509050818404811115614d6857614d676142d6565b5b81810290505b9392505050565b6000614d8082613310565b9150614d8b83613310565b9250614db87fffffffffffffffffffffffffffffffffffffffffffffffffffffffffffffffff8484614ca2565b905092915050565b6000614dcb82613310565b9150614dd683613310565b9250828202614de481613310565b91508282048414831517614dfb57614dfa6142d6565b5b5092915050565b7f4e487b7100000000000000000000000000000000000000000000000000000000600052601260045260246000fd5b6000614e3c82613310565b9150614e4783613310565b925082614e5757614e56614e02565b5b82820490509291505056fea264697066735822122033370068226e67a2cf51faca41ffd1c48ed20daeef71541db8bf8c0c5eb29eaa64736f6c63430008110033",
  "linkReferences": {},
  "deployedLinkReferences": {}
}