{
  "_format": "hh-sol-artifact-1",
  "contractName": "PerformanceController",
  "sourceName": "contracts/logic/PerformanceController.sol",
  "abi": [
    {
      "inputs": [
        {
          "internalType": "address",
          "name": "userDataManagerAddress",
          "type": "address"
        },
        {
          "internalType": "address",
          "name": "courseDataManagerAddress",
          "type": "address"
        },
        {
          "internalType": "address",
          "name": "assessmentDataManagerAddress",
          "type": "address"
        },
        {
          "internalType": "address",
          "name": "performanceDataManagerAddress",
          "type": "address"
        }
      ],
      "stateMutability": "nonpayable",
      "type": "constructor"
    },
    {
      "inputs": [
        {
          "internalType": "uint256",
          "name": "assessmentId",
          "type": "uint256"
        },
        {
          "internalType": "string[]",
          "name": "documentHashes",
          "type": "string[]"
        }
      ],
      "name": "addSubmission",
      "outputs": [],
      "stateMutability": "nonpayable",
      "type": "function"
    },
    {
      "inputs": [
        {
          "internalType": "uint256",
          "name": "studentUId",
          "type": "uint256"
        },
        {
          "internalType": "uint256",
          "name": "assessmentId",
          "type": "uint256"
        },
        {
          "internalType": "bool",
          "name": "hasAttended",
          "type": "bool"
        }
      ],
      "name": "administerExamAttendance",
      "outputs": [],
      "stateMutability": "nonpayable",
      "type": "function"
    },
    {
      "inputs": [
        {
          "internalType": "uint256",
          "name": "courseId",
          "type": "uint256"
        }
      ],
      "name": "calculatePoints",
      "outputs": [
        {
          "internalType": "uint256",
          "name": "",
          "type": "uint256"
        },
        {
          "internalType": "uint256",
          "name": "",
          "type": "uint256"
        }
      ],
      "stateMutability": "view",
      "type": "function"
    },
    {
      "inputs": [
        {
          "internalType": "uint256",
          "name": "studentUId",
          "type": "uint256"
        },
        {
          "internalType": "uint256",
          "name": "courseId",
          "type": "uint256"
        }
      ],
      "name": "calculatePointsOfStudent",
      "outputs": [
        {
          "internalType": "uint256",
          "name": "",
          "type": "uint256"
        },
        {
          "internalType": "uint256",
          "name": "",
          "type": "uint256"
        }
      ],
      "stateMutability": "view",
      "type": "function"
    },
    {
      "inputs": [
        {
          "internalType": "uint256",
          "name": "studentUId",
          "type": "uint256"
        },
        {
          "internalType": "uint256",
          "name": "assessmentId",
          "type": "uint256"
        },
        {
          "internalType": "uint256",
          "name": "achievedPoints",
          "type": "uint256"
        },
        {
          "internalType": "string",
          "name": "feedback",
          "type": "string"
        }
      ],
      "name": "giveEvaluation",
      "outputs": [],
      "stateMutability": "nonpayable",
      "type": "function"
    },
    {
      "inputs": [
        {
          "internalType": "uint256",
          "name": "studentUId",
          "type": "uint256"
        },
        {
          "internalType": "uint256",
          "name": "courseId",
          "type": "uint256"
        },
        {
          "internalType": "uint256",
          "name": "grade",
          "type": "uint256"
        },
        {
          "internalType": "string",
          "name": "feedback",
          "type": "string"
        }
      ],
      "name": "giveFinalGrade",
      "outputs": [],
      "stateMutability": "nonpayable",
      "type": "function"
    },
    {
      "inputs": [
        {
          "internalType": "uint256",
          "name": "courseId",
          "type": "uint256"
        }
      ],
      "name": "isMinPointsAchieved",
      "outputs": [
        {
          "internalType": "bool",
          "name": "",
          "type": "bool"
        }
      ],
      "stateMutability": "view",
      "type": "function"
    },
    {
      "inputs": [
        {
          "internalType": "uint256",
          "name": "studentUId",
          "type": "uint256"
        },
        {
          "internalType": "uint256",
          "name": "courseId",
          "type": "uint256"
        }
      ],
      "name": "isMinPointsAchievedOfStudent",
      "outputs": [
        {
          "internalType": "bool",
          "name": "",
          "type": "bool"
        }
      ],
      "stateMutability": "view",
      "type": "function"
    }
  ],
  "bytecode": "0x60806040523480156200001157600080fd5b506040516200543c3803806200543c833981810160405281019062000037919062000243565b8380806000806101000a81548173ffffffffffffffffffffffffffffffffffffffff021916908373ffffffffffffffffffffffffffffffffffffffff16021790555050506200008c84620000c960201b60201c565b6200009d816200010d60201b60201c565b620000ae836200015160201b60201c565b620000bf826200019560201b60201c565b50505050620002b5565b80600160006101000a81548173ffffffffffffffffffffffffffffffffffffffff021916908373ffffffffffffffffffffffffffffffffffffffff16021790555050565b80600460006101000a81548173ffffffffffffffffffffffffffffffffffffffff021916908373ffffffffffffffffffffffffffffffffffffffff16021790555050565b80600260006101000a81548173ffffffffffffffffffffffffffffffffffffffff021916908373ffffffffffffffffffffffffffffffffffffffff16021790555050565b80600360006101000a81548173ffffffffffffffffffffffffffffffffffffffff021916908373ffffffffffffffffffffffffffffffffffffffff16021790555050565b600080fd5b600073ffffffffffffffffffffffffffffffffffffffff82169050919050565b60006200020b82620001de565b9050919050565b6200021d81620001fe565b81146200022957600080fd5b50565b6000815190506200023d8162000212565b92915050565b6000806000806080858703121562000260576200025f620001d9565b5b600062000270878288016200022c565b945050602062000283878288016200022c565b935050604062000296878288016200022c565b9250506060620002a9878288016200022c565b91505092959194509250565b61517780620002c56000396000f3fe608060405234801561001057600080fd5b50600436106100885760003560e01c806340b1ba3b1161005b57806340b1ba3b1461013a57806350add5d0146101565780635a1637be14610172578063bd42e510146101a357610088565b8063049070c11461008d5780630e14475f146100a95780631fc433da146100d95780633e6abaa614610109575b600080fd5b6100a760048036038101906100a29190613785565b6101bf565b005b6100c360048036038101906100be91906137d8565b6106e7565b6040516100d09190613827565b60405180910390f35b6100f360048036038101906100ee9190613842565b6108c9565b6040516101009190613827565b60405180910390f35b610123600480360381019061011e91906137d8565b610a7c565b60405161013192919061387e565b60405180910390f35b610154600480360381019061014f919061390c565b610c8f565b005b610170600480360381019061016b91906139ea565b610f2d565b005b61018c60048036038101906101879190613842565b61142f565b60405161019a92919061387e565b60405180910390f35b6101bd60048036038101906101b8919061390c565b611613565b005b600160028111156101d3576101d2613a4a565b5b60008054906101000a900473ffffffffffffffffffffffffffffffffffffffff1673ffffffffffffffffffffffffffffffffffffffff1663dd8b2914336040518263ffffffff1660e01b815260040161022c9190613aba565b602060405180830381865afa158015610249573d6000803e3d6000fd5b505050506040513d601f19601f8201168201806040525081019061026d9190613afa565b600281111561027f5761027e613a4a565b5b146102bf576040517f08c379a00000000000000000000000000000000000000000000000000000000081526004016102b690613b84565b60405180910390fd5b6000600160009054906101000a900473ffffffffffffffffffffffffffffffffffffffff1673ffffffffffffffffffffffffffffffffffffffff1663e3d7e14c336040518263ffffffff1660e01b815260040161031c9190613aba565b602060405180830381865afa158015610339573d6000803e3d6000fd5b505050506040513d601f19601f8201168201806040525081019061035d9190613bb9565b90506000600360009054906101000a900473ffffffffffffffffffffffffffffffffffffffff1673ffffffffffffffffffffffffffffffffffffffff1663a31cf91f856040518263ffffffff1660e01b81526004016103bc9190613be6565b602060405180830381865afa1580156103d9573d6000803e3d6000fd5b505050506040513d601f19601f820116820180604052508101906103fd9190613bb9565b905061042c8282600260009054906101000a900473ffffffffffffffffffffffffffffffffffffffff16611963565b6104598582600260009054906101000a900473ffffffffffffffffffffffffffffffffffffffff16611a2f565b6000600181111561046d5761046c613a4a565b5b600360009054906101000a900473ffffffffffffffffffffffffffffffffffffffff1673ffffffffffffffffffffffffffffffffffffffff1663e9eb5356866040518263ffffffff1660e01b81526004016104c89190613be6565b602060405180830381865afa1580156104e5573d6000803e3d6000fd5b505050506040513d601f19601f820116820180604052508101906105099190613c26565b600181111561051b5761051a613a4a565b5b1461055b576040517f08c379a000000000000000000000000000000000000000000000000000000000815260040161055290613c9f565b60405180910390fd5b6105658585611a7e565b600460009054906101000a900473ffffffffffffffffffffffffffffffffffffffff1673ffffffffffffffffffffffffffffffffffffffff1663683391e486866040518363ffffffff1660e01b81526004016105c292919061387e565b602060405180830381865afa1580156105df573d6000803e3d6000fd5b505050506040513d601f19601f820116820180604052508101906106039190613cd4565b15610643576040517f08c379a000000000000000000000000000000000000000000000000000000000815260040161063a90613d73565b60405180910390fd5b600460009054906101000a900473ffffffffffffffffffffffffffffffffffffffff1673ffffffffffffffffffffffffffffffffffffffff166323f618ee868686426040518563ffffffff1660e01b81526004016106a49493929190613d93565b600060405180830381600087803b1580156106be57600080fd5b505af11580156106d2573d6000803e3d6000fd5b505050506106e08582611b90565b5050505050565b6000600160028111156106fd576106fc613a4a565b5b60008054906101000a900473ffffffffffffffffffffffffffffffffffffffff1673ffffffffffffffffffffffffffffffffffffffff1663dd8b2914336040518263ffffffff1660e01b81526004016107569190613aba565b602060405180830381865afa158015610773573d6000803e3d6000fd5b505050506040513d601f19601f820116820180604052508101906107979190613afa565b60028111156107a9576107a8613a4a565b5b146107e9576040517f08c379a00000000000000000000000000000000000000000000000000000000081526004016107e090613b84565b60405180910390fd5b6000600160009054906101000a900473ffffffffffffffffffffffffffffffffffffffff1673ffffffffffffffffffffffffffffffffffffffff1663e3d7e14c336040518263ffffffff1660e01b81526004016108469190613aba565b602060405180830381865afa158015610863573d6000803e3d6000fd5b505050506040513d601f19601f820116820180604052508101906108879190613bb9565b90506108b68184600260009054906101000a900473ffffffffffffffffffffffffffffffffffffffff16611963565b6108c08484611bb2565b91505092915050565b60008060028111156108de576108dd613a4a565b5b60008054906101000a900473ffffffffffffffffffffffffffffffffffffffff1673ffffffffffffffffffffffffffffffffffffffff1663dd8b2914336040518263ffffffff1660e01b81526004016109379190613aba565b602060405180830381865afa158015610954573d6000803e3d6000fd5b505050506040513d601f19601f820116820180604052508101906109789190613afa565b600281111561098a57610989613a4a565b5b146109ca576040517f08c379a00000000000000000000000000000000000000000000000000000000081526004016109c190613e24565b60405180910390fd5b6000600160009054906101000a900473ffffffffffffffffffffffffffffffffffffffff1673ffffffffffffffffffffffffffffffffffffffff1663e3d7e14c336040518263ffffffff1660e01b8152600401610a279190613aba565b602060405180830381865afa158015610a44573d6000803e3d6000fd5b505050506040513d601f19601f82011682018060405250810190610a689190613bb9565b9050610a748184611bb2565b915050919050565b60008060016002811115610a9357610a92613a4a565b5b60008054906101000a900473ffffffffffffffffffffffffffffffffffffffff1673ffffffffffffffffffffffffffffffffffffffff1663dd8b2914336040518263ffffffff1660e01b8152600401610aec9190613aba565b602060405180830381865afa158015610b09573d6000803e3d6000fd5b505050506040513d601f19601f82011682018060405250810190610b2d9190613afa565b6002811115610b3f57610b3e613a4a565b5b14610b7f576040517f08c379a0000000000000000000000000000000000000000000000000000000008152600401610b7690613b84565b60405180910390fd5b6000600160009054906101000a900473ffffffffffffffffffffffffffffffffffffffff1673ffffffffffffffffffffffffffffffffffffffff1663e3d7e14c336040518263ffffffff1660e01b8152600401610bdc9190613aba565b602060405180830381865afa158015610bf9573d6000803e3d6000fd5b505050506040513d601f19601f82011682018060405250810190610c1d9190613bb9565b9050610c4c8185600260009054906101000a900473ffffffffffffffffffffffffffffffffffffffff16611963565b610c798585600260009054906101000a900473ffffffffffffffffffffffffffffffffffffffff16611a2f565b610c838585611dc5565b92509250509250929050565b60016002811115610ca357610ca2613a4a565b5b60008054906101000a900473ffffffffffffffffffffffffffffffffffffffff1673ffffffffffffffffffffffffffffffffffffffff1663dd8b2914336040518263ffffffff1660e01b8152600401610cfc9190613aba565b602060405180830381865afa158015610d19573d6000803e3d6000fd5b505050506040513d601f19601f82011682018060405250810190610d3d9190613afa565b6002811115610d4f57610d4e613a4a565b5b14610d8f576040517f08c379a0000000000000000000000000000000000000000000000000000000008152600401610d8690613b84565b60405180910390fd5b6000600160009054906101000a900473ffffffffffffffffffffffffffffffffffffffff1673ffffffffffffffffffffffffffffffffffffffff1663e3d7e14c336040518263ffffffff1660e01b8152600401610dec9190613aba565b602060405180830381865afa158015610e09573d6000803e3d6000fd5b505050506040513d601f19601f82011682018060405250810190610e2d9190613bb9565b9050610e5c8186600260009054906101000a900473ffffffffffffffffffffffffffffffffffffffff16611963565b610e898686600260009054906101000a900473ffffffffffffffffffffffffffffffffffffffff16611a2f565b600460009054906101000a900473ffffffffffffffffffffffffffffffffffffffff1673ffffffffffffffffffffffffffffffffffffffff166359a7dbe08787428888888860016040518963ffffffff1660e01b8152600401610ef3989796959493929190613e91565b600060405180830381600087803b158015610f0d57600080fd5b505af1158015610f21573d6000803e3d6000fd5b50505050505050505050565b60006002811115610f4157610f40613a4a565b5b60008054906101000a900473ffffffffffffffffffffffffffffffffffffffff1673ffffffffffffffffffffffffffffffffffffffff1663dd8b2914336040518263ffffffff1660e01b8152600401610f9a9190613aba565b602060405180830381865afa158015610fb7573d6000803e3d6000fd5b505050506040513d601f19601f82011682018060405250810190610fdb9190613afa565b6002811115610fed57610fec613a4a565b5b1461102d576040517f08c379a000000000000000000000000000000000000000000000000000000000815260040161102490613e24565b60405180910390fd5b6000600160009054906101000a900473ffffffffffffffffffffffffffffffffffffffff1673ffffffffffffffffffffffffffffffffffffffff1663e3d7e14c336040518263ffffffff1660e01b815260040161108a9190613aba565b602060405180830381865afa1580156110a7573d6000803e3d6000fd5b505050506040513d601f19601f820116820180604052508101906110cb9190613bb9565b90506000600360009054906101000a900473ffffffffffffffffffffffffffffffffffffffff1673ffffffffffffffffffffffffffffffffffffffff1663a31cf91f866040518263ffffffff1660e01b815260040161112a9190613be6565b602060405180830381865afa158015611147573d6000803e3d6000fd5b505050506040513d601f19601f8201168201806040525081019061116b9190613bb9565b90506000600360009054906101000a900473ffffffffffffffffffffffffffffffffffffffff1673ffffffffffffffffffffffffffffffffffffffff166326f63a96876040518263ffffffff1660e01b81526004016111ca9190613be6565b602060405180830381865afa1580156111e7573d6000803e3d6000fd5b505050506040513d601f19601f8201168201806040525081019061120b9190613bb9565b905061123a8383600260009054906101000a900473ffffffffffffffffffffffffffffffffffffffff16611a2f565b6112448387611a7e565b60018081111561125757611256613a4a565b5b600360009054906101000a900473ffffffffffffffffffffffffffffffffffffffff1673ffffffffffffffffffffffffffffffffffffffff1663e9eb5356886040518263ffffffff1660e01b81526004016112b29190613be6565b602060405180830381865afa1580156112cf573d6000803e3d6000fd5b505050506040513d601f19601f820116820180604052508101906112f39190613c26565b600181111561130557611304613a4a565b5b14611345576040517f08c379a000000000000000000000000000000000000000000000000000000000815260040161133c90613f7b565b60405180910390fd5b80421115611388576040517f08c379a000000000000000000000000000000000000000000000000000000000815260040161137f9061400d565b60405180910390fd5b600460009054906101000a900473ffffffffffffffffffffffffffffffffffffffff1673ffffffffffffffffffffffffffffffffffffffff16631b89db2f84884289896040518663ffffffff1660e01b81526004016113eb959493929190614191565b600060405180830381600087803b15801561140557600080fd5b505af1158015611419573d6000803e3d6000fd5b505050506114278383611b90565b505050505050565b6000806000600281111561144657611445613a4a565b5b60008054906101000a900473ffffffffffffffffffffffffffffffffffffffff1673ffffffffffffffffffffffffffffffffffffffff1663dd8b2914336040518263ffffffff1660e01b815260040161149f9190613aba565b602060405180830381865afa1580156114bc573d6000803e3d6000fd5b505050506040513d601f19601f820116820180604052508101906114e09190613afa565b60028111156114f2576114f1613a4a565b5b14611532576040517f08c379a000000000000000000000000000000000000000000000000000000000815260040161152990613e24565b60405180910390fd5b6000600160009054906101000a900473ffffffffffffffffffffffffffffffffffffffff1673ffffffffffffffffffffffffffffffffffffffff1663e3d7e14c336040518263ffffffff1660e01b815260040161158f9190613aba565b602060405180830381865afa1580156115ac573d6000803e3d6000fd5b505050506040513d601f19601f820116820180604052508101906115d09190613bb9565b90506115ff8185600260009054906101000a900473ffffffffffffffffffffffffffffffffffffffff16611a2f565b6116098185611dc5565b9250925050915091565b6001600281111561162757611626613a4a565b5b60008054906101000a900473ffffffffffffffffffffffffffffffffffffffff1673ffffffffffffffffffffffffffffffffffffffff1663dd8b2914336040518263ffffffff1660e01b81526004016116809190613aba565b602060405180830381865afa15801561169d573d6000803e3d6000fd5b505050506040513d601f19601f820116820180604052508101906116c19190613afa565b60028111156116d3576116d2613a4a565b5b14611713576040517f08c379a000000000000000000000000000000000000000000000000000000000815260040161170a90613b84565b60405180910390fd5b6000600160009054906101000a900473ffffffffffffffffffffffffffffffffffffffff1673ffffffffffffffffffffffffffffffffffffffff1663e3d7e14c336040518263ffffffff1660e01b81526004016117709190613aba565b602060405180830381865afa15801561178d573d6000803e3d6000fd5b505050506040513d601f19601f820116820180604052508101906117b19190613bb9565b90506000600360009054906101000a900473ffffffffffffffffffffffffffffffffffffffff1673ffffffffffffffffffffffffffffffffffffffff1663a31cf91f876040518263ffffffff1660e01b81526004016118109190613be6565b602060405180830381865afa15801561182d573d6000803e3d6000fd5b505050506040513d601f19601f820116820180604052508101906118519190613bb9565b90506118808282600260009054906101000a900473ffffffffffffffffffffffffffffffffffffffff16611963565b6118ad8782600260009054906101000a900473ffffffffffffffffffffffffffffffffffffffff16611a2f565b6118b78787611a7e565b600460009054906101000a900473ffffffffffffffffffffffffffffffffffffffff1673ffffffffffffffffffffffffffffffffffffffff1663119e7944888842898989896040518863ffffffff1660e01b815260040161191e97969594939291906141df565b600060405180830381600087803b15801561193857600080fd5b505af115801561194c573d6000803e3d6000fd5b5050505061195a8782611b90565b50505050505050565b6119eb838273ffffffffffffffffffffffffffffffffffffffff1663bd9c1b50856040518263ffffffff1660e01b81526004016119a09190613be6565b600060405180830381865afa1580156119bd573d6000803e3d6000fd5b505050506040513d6000823e3d601f19601f820116820180604052508101906119e69190614387565b611f8f565b611a2a576040517f08c379a0000000000000000000000000000000000000000000000000000000008152600401611a2190614442565b60405180910390fd5b505050565b611a3a838383611fa6565b611a79576040517f08c379a0000000000000000000000000000000000000000000000000000000008152600401611a70906144d4565b60405180910390fd5b505050565b600360009054906101000a900473ffffffffffffffffffffffffffffffffffffffff1673ffffffffffffffffffffffffffffffffffffffff166330938d70826040518263ffffffff1660e01b8152600401611ad99190613be6565b602060405180830381865afa158015611af6573d6000803e3d6000fd5b505050506040513d601f19601f82011682018060405250810190611b1a9190613cd4565b15611b8c57611b4c8282600360009054906101000a900473ffffffffffffffffffffffffffffffffffffffff16612039565b611b8b576040517f08c379a0000000000000000000000000000000000000000000000000000000008152600401611b8290614566565b60405180910390fd5b5b5050565b611b9a82826120cc565b611ba4828261262e565b611bae8282612ac9565b5050565b600080600360009054906101000a900473ffffffffffffffffffffffffffffffffffffffff1673ffffffffffffffffffffffffffffffffffffffff1663a31cf91f846040518263ffffffff1660e01b8152600401611c109190613be6565b602060405180830381865afa158015611c2d573d6000803e3d6000fd5b505050506040513d601f19601f82011682018060405250810190611c519190613bb9565b9050611c808482600260009054906101000a900473ffffffffffffffffffffffffffffffffffffffff16611a2f565b600360009054906101000a900473ffffffffffffffffffffffffffffffffffffffff1673ffffffffffffffffffffffffffffffffffffffff16630a627852846040518263ffffffff1660e01b8152600401611cdb9190613be6565b602060405180830381865afa158015611cf8573d6000803e3d6000fd5b505050506040513d601f19601f82011682018060405250810190611d1c9190613bb9565b600460009054906101000a900473ffffffffffffffffffffffffffffffffffffffff1673ffffffffffffffffffffffffffffffffffffffff16632e3b755e86866040518363ffffffff1660e01b8152600401611d7992919061387e565b602060405180830381865afa158015611d96573d6000803e3d6000fd5b505050506040513d601f19601f82011682018060405250810190611dba9190613bb9565b101591505092915050565b6000806000806000611dd78787612fef565b905060005b8151811015611f7e57600360009054906101000a900473ffffffffffffffffffffffffffffffffffffffff1673ffffffffffffffffffffffffffffffffffffffff1663a01a6b54838381518110611e3657611e35614586565b5b60200260200101516040518263ffffffff1660e01b8152600401611e5a9190613be6565b602060405180830381865afa158015611e77573d6000803e3d6000fd5b505050506040513d601f19601f82011682018060405250810190611e9b9190613bb9565b84611ea691906145e4565b9350600460009054906101000a900473ffffffffffffffffffffffffffffffffffffffff1673ffffffffffffffffffffffffffffffffffffffff16632e3b755e89848481518110611efa57611ef9614586565b5b60200260200101516040518363ffffffff1660e01b8152600401611f1f92919061387e565b602060405180830381865afa158015611f3c573d6000803e3d6000fd5b505050506040513d601f19601f82011682018060405250810190611f609190613bb9565b83611f6b91906145e4565b925080611f7790614618565b9050611ddc565b508183945094505050509250929050565b600080611f9c8484613191565b1215905092915050565b6000612030848373ffffffffffffffffffffffffffffffffffffffff16636f4f5878866040518263ffffffff1660e01b8152600401611fe59190613be6565b600060405180830381865afa158015612002573d6000803e3d6000fd5b505050506040513d6000823e3d601f19601f8201168201806040525081019061202b9190614387565b611f8f565b90509392505050565b60006120c3848373ffffffffffffffffffffffffffffffffffffffff1663e285fd25866040518263ffffffff1660e01b81526004016120789190613be6565b600060405180830381865afa158015612095573d6000803e3d6000fd5b505050506040513d6000823e3d601f19601f820116820180604052508101906120be9190614387565b611f8f565b90509392505050565b6000600360009054906101000a900473ffffffffffffffffffffffffffffffffffffffff1673ffffffffffffffffffffffffffffffffffffffff1663786e0785836040518263ffffffff1660e01b81526004016121299190613be6565b600060405180830381865afa158015612146573d6000803e3d6000fd5b505050506040513d6000823e3d601f19601f8201168201806040525081019061216f9190614387565b905060005b8151811015612628576001808111156121905761218f613a4a565b5b600360009054906101000a900473ffffffffffffffffffffffffffffffffffffffff1673ffffffffffffffffffffffffffffffffffffffff1663e9eb53568484815181106121e1576121e0614586565b5b60200260200101516040518263ffffffff1660e01b81526004016122059190613be6565b602060405180830381865afa158015612222573d6000803e3d6000fd5b505050506040513d601f19601f820116820180604052508101906122469190613c26565b600181111561225857612257613a4a565b5b03612617576000600360009054906101000a900473ffffffffffffffffffffffffffffffffffffffff1673ffffffffffffffffffffffffffffffffffffffff166326f63a968484815181106122b0576122af614586565b5b60200260200101516040518263ffffffff1660e01b81526004016122d49190613be6565b602060405180830381865afa1580156122f1573d6000803e3d6000fd5b505050506040513d601f19601f820116820180604052508101906123159190613bb9565b9050600460009054906101000a900473ffffffffffffffffffffffffffffffffffffffff1673ffffffffffffffffffffffffffffffffffffffff1663cfca6e978685858151811061236957612368614586565b5b60200260200101516040518363ffffffff1660e01b815260040161238e92919061387e565b602060405180830381865afa1580156123ab573d6000803e3d6000fd5b505050506040513d601f19601f820116820180604052508101906123cf9190613cd4565b806123da5750804211155b156123e55750612617565b600460009054906101000a900473ffffffffffffffffffffffffffffffffffffffff1673ffffffffffffffffffffffffffffffffffffffff16631a2a2c4a8685858151811061243757612436614586565b5b60200260200101516040518363ffffffff1660e01b815260040161245c92919061387e565b602060405180830381865afa158015612479573d6000803e3d6000fd5b505050506040513d601f19601f8201168201806040525081019061249d9190613cd4565b158061255f575080600460009054906101000a900473ffffffffffffffffffffffffffffffffffffffff1673ffffffffffffffffffffffffffffffffffffffff16637c56af01878686815181106124f7576124f6614586565b5b60200260200101516040518363ffffffff1660e01b815260040161251c92919061387e565b602060405180830381865afa158015612539573d6000803e3d6000fd5b505050506040513d601f19601f8201168201806040525081019061255d9190613bb9565b115b1561261557600460009054906101000a900473ffffffffffffffffffffffffffffffffffffffff1673ffffffffffffffffffffffffffffffffffffffff1663119e7944868585815181106125b6576125b5614586565b5b6020026020010151426000806040518663ffffffff1660e01b81526004016125e2959493929190614717565b600060405180830381600087803b1580156125fc57600080fd5b505af1158015612610573d6000803e3d6000fd5b505050505b505b8061262190614618565b9050612174565b50505050565b6000600360009054906101000a900473ffffffffffffffffffffffffffffffffffffffff1673ffffffffffffffffffffffffffffffffffffffff1663786e0785836040518263ffffffff1660e01b815260040161268b9190613be6565b600060405180830381865afa1580156126a8573d6000803e3d6000fd5b505050506040513d6000823e3d601f19601f820116820180604052508101906126d19190614387565b905060005b8151811015612ac357600060018111156126f3576126f2613a4a565b5b600360009054906101000a900473ffffffffffffffffffffffffffffffffffffffff1673ffffffffffffffffffffffffffffffffffffffff1663e9eb535684848151811061274457612743614586565b5b60200260200101516040518263ffffffff1660e01b81526004016127689190613be6565b602060405180830381865afa158015612785573d6000803e3d6000fd5b505050506040513d601f19601f820116820180604052508101906127a99190613c26565b60018111156127bb576127ba613a4a565b5b03612ab257600460009054906101000a900473ffffffffffffffffffffffffffffffffffffffff1673ffffffffffffffffffffffffffffffffffffffff1663cfca6e978584848151811061281257612811614586565b5b60200260200101516040518363ffffffff1660e01b815260040161283792919061387e565b602060405180830381865afa158015612854573d6000803e3d6000fd5b505050506040513d601f19601f820116820180604052508101906128789190613cd4565b612ab257600460009054906101000a900473ffffffffffffffffffffffffffffffffffffffff1673ffffffffffffffffffffffffffffffffffffffff1663683391e4858484815181106128ce576128cd614586565b5b60200260200101516040518363ffffffff1660e01b81526004016128f392919061387e565b602060405180830381865afa158015612910573d6000803e3d6000fd5b505050506040513d601f19601f820116820180604052508101906129349190613cd4565b80156129fb575060001515600460009054906101000a900473ffffffffffffffffffffffffffffffffffffffff1673ffffffffffffffffffffffffffffffffffffffff1663b54c676a8685858151811061299157612990614586565b5b60200260200101516040518363ffffffff1660e01b81526004016129b692919061387e565b602060405180830381865afa1580156129d3573d6000803e3d6000fd5b505050506040513d601f19601f820116820180604052508101906129f79190613cd4565b1515145b15612ab157600460009054906101000a900473ffffffffffffffffffffffffffffffffffffffff1673ffffffffffffffffffffffffffffffffffffffff1663119e794485848481518110612a5257612a51614586565b5b6020026020010151426000806040518663ffffffff1660e01b8152600401612a7e9594939291906147c9565b600060405180830381600087803b158015612a9857600080fd5b505af1158015612aac573d6000803e3d6000fd5b505050505b5b80612abc90614618565b90506126d6565b50505050565b600460009054906101000a900473ffffffffffffffffffffffffffffffffffffffff1673ffffffffffffffffffffffffffffffffffffffff166315fea7d583836040518363ffffffff1660e01b8152600401612b2692919061387e565b602060405180830381865afa158015612b43573d6000803e3d6000fd5b505050506040513d601f19601f82011682018060405250810190612b679190613cd4565b612feb576000612b778383612fef565b905060026003811115612b8d57612b8c613a4a565b5b600260009054906101000a900473ffffffffffffffffffffffffffffffffffffffff1673ffffffffffffffffffffffffffffffffffffffff1663e9c0844a846040518263ffffffff1660e01b8152600401612be89190613be6565b602060405180830381865afa158015612c05573d6000803e3d6000fd5b505050506040513d601f19601f82011682018060405250810190612c299190614854565b6003811115612c3b57612c3a613a4a565b5b03612c54576000815103612c4f5750612feb565b612d05565b600360009054906101000a900473ffffffffffffffffffffffffffffffffffffffff1673ffffffffffffffffffffffffffffffffffffffff1663a5478d4f836040518263ffffffff1660e01b8152600401612caf9190613be6565b600060405180830381865afa158015612ccc573d6000803e3d6000fd5b505050506040513d6000823e3d601f19601f82011682018060405250810190612cf59190614bd6565b5181511015612d045750612feb565b5b60005b8151811015612dea57612d3584838381518110612d2857612d27614586565b5b6020026020010151611bb2565b612dd957600460009054906101000a900473ffffffffffffffffffffffffffffffffffffffff1673ffffffffffffffffffffffffffffffffffffffff166314457f1785854260056000806040518763ffffffff1660e01b8152600401612da096959493929190614cb7565b600060405180830381600087803b158015612dba57600080fd5b505af1158015612dce573d6000803e3d6000fd5b505050505050612feb565b80612de390614618565b9050612d08565b50600080612df88585611dc5565b915091506000612e088383613208565b90506000600260009054906101000a900473ffffffffffffffffffffffffffffffffffffffff1673ffffffffffffffffffffffffffffffffffffffff1663f0659248876040518263ffffffff1660e01b8152600401612e679190613be6565b600060405180830381865afa158015612e84573d6000803e3d6000fd5b505050506040513d6000823e3d601f19601f82011682018060405250810190612ead9190614e3e565b905060006005905060005b8251811015612f4b57828181518110612ed457612ed3614586565b5b6020026020010151602001518410158015612f135750612f12838281518110612f0057612eff614586565b5b6020026020010151600001518361321e565b5b15612f3a57828181518110612f2b57612f2a614586565b5b60200260200101516000015191505b80612f4490614618565b9050612eb8565b50600460009054906101000a900473ffffffffffffffffffffffffffffffffffffffff1673ffffffffffffffffffffffffffffffffffffffff166314457f17898942856000806040518763ffffffff1660e01b8152600401612fb296959493929190614ead565b600060405180830381600087803b158015612fcc57600080fd5b505af1158015612fe0573d6000803e3d6000fd5b505050505050505050505b5050565b60606002600381111561300557613004613a4a565b5b600260009054906101000a900473ffffffffffffffffffffffffffffffffffffffff1673ffffffffffffffffffffffffffffffffffffffff1663e9c0844a846040518263ffffffff1660e01b81526004016130609190613be6565b602060405180830381865afa15801561307d573d6000803e3d6000fd5b505050506040513d601f19601f820116820180604052508101906130a19190614854565b60038111156130b3576130b2613a4a565b5b0361317e576000806130c5858561322b565b91509150811561312b57613122600067ffffffffffffffff8111156130ed576130ec614249565b5b60405190808252806020026020018201604052801561311b5781602001602082028036833780820191505090505b5082613419565b9250505061318b565b600067ffffffffffffffff81111561314657613145614249565b5b6040519080825280602002602001820160405280156131745781602001602082028036833780820191505090505b509250505061318b565b61318883836134f8565b90505b92915050565b600080600090505b82518110156131dd57838382815181106131b6576131b5614586565b5b6020026020010151036131cc5780915050613202565b806131d690614618565b9050613199565b507fffffffffffffffffffffffffffffffffffffffffffffffffffffffffffffffff90505b92915050565b6000613216838360046136ae565b905092915050565b6000818310905092915050565b600080600061323a85856134f8565b9050600060018251101561325657600081935093505050613412565b8160008151811061326a57613269614586565b5b6020026020010151905060005b825181101561340757600360009054906101000a900473ffffffffffffffffffffffffffffffffffffffff1673ffffffffffffffffffffffffffffffffffffffff166326f63a96836040518263ffffffff1660e01b81526004016132db9190613be6565b602060405180830381865afa1580156132f8573d6000803e3d6000fd5b505050506040513d601f19601f8201168201806040525081019061331c9190613bb9565b600360009054906101000a900473ffffffffffffffffffffffffffffffffffffffff1673ffffffffffffffffffffffffffffffffffffffff166326f63a9685848151811061336d5761336c614586565b5b60200260200101516040518263ffffffff1660e01b81526004016133919190613be6565b602060405180830381865afa1580156133ae573d6000803e3d6000fd5b505050506040513d601f19601f820116820180604052508101906133d29190613bb9565b11156133f6578281815181106133eb576133ea614586565b5b602002602001015191505b8061340090614618565b9050613277565b506001819350935050505b9250929050565b606060006001845161342b91906145e4565b67ffffffffffffffff81111561344457613443614249565b5b6040519080825280602002602001820160405280156134725781602001602082028036833780820191505090505b50905060005b84518110156134cc5784818151811061349457613493614586565b5b60200260200101518282815181106134af576134ae614586565b5b602002602001018181525050806134c590614618565b9050613478565b5082818551815181106134e2576134e1614586565b5b6020026020010181815250508091505092915050565b60606000600360009054906101000a900473ffffffffffffffffffffffffffffffffffffffff1673ffffffffffffffffffffffffffffffffffffffff1663786e0785846040518263ffffffff1660e01b81526004016135579190613be6565b600060405180830381865afa158015613574573d6000803e3d6000fd5b505050506040513d6000823e3d601f19601f8201168201806040525081019061359d9190614387565b9050606060005b82518110156136a257600460009054906101000a900473ffffffffffffffffffffffffffffffffffffffff1673ffffffffffffffffffffffffffffffffffffffff1663cfca6e97878584815181106135ff576135fe614586565b5b60200260200101516040518363ffffffff1660e01b815260040161362492919061387e565b602060405180830381865afa158015613641573d6000803e3d6000fd5b505050506040513d601f19601f820116820180604052508101906136659190613cd4565b156136915761368e8284838151811061368157613680614586565b5b6020026020010151613419565b91505b8061369b90614618565b90506135a4565b50809250505092915050565b60006001826136bd91906145e4565b600a6136c99190615054565b846136d4919061509f565b9350600a600584866136e69190615110565b6136f091906145e4565b6136fa9190615110565b90509392505050565b6000604051905090565b600080fd5b600080fd5b6000819050919050565b61372a81613717565b811461373557600080fd5b50565b60008135905061374781613721565b92915050565b60008115159050919050565b6137628161374d565b811461376d57600080fd5b50565b60008135905061377f81613759565b92915050565b60008060006060848603121561379e5761379d61370d565b5b60006137ac86828701613738565b93505060206137bd86828701613738565b92505060406137ce86828701613770565b9150509250925092565b600080604083850312156137ef576137ee61370d565b5b60006137fd85828601613738565b925050602061380e85828601613738565b9150509250929050565b6138218161374d565b82525050565b600060208201905061383c6000830184613818565b92915050565b6000602082840312156138585761385761370d565b5b600061386684828501613738565b91505092915050565b61387881613717565b82525050565b6000604082019050613893600083018561386f565b6138a0602083018461386f565b9392505050565b600080fd5b600080fd5b600080fd5b60008083601f8401126138cc576138cb6138a7565b5b8235905067ffffffffffffffff8111156138e9576138e86138ac565b5b602083019150836001820283011115613905576139046138b1565b5b9250929050565b6000806000806000608086880312156139285761392761370d565b5b600061393688828901613738565b955050602061394788828901613738565b945050604061395888828901613738565b935050606086013567ffffffffffffffff81111561397957613978613712565b5b613985888289016138b6565b92509250509295509295909350565b60008083601f8401126139aa576139a96138a7565b5b8235905067ffffffffffffffff8111156139c7576139c66138ac565b5b6020830191508360208202830111156139e3576139e26138b1565b5b9250929050565b600080600060408486031215613a0357613a0261370d565b5b6000613a1186828701613738565b935050602084013567ffffffffffffffff811115613a3257613a31613712565b5b613a3e86828701613994565b92509250509250925092565b7f4e487b7100000000000000000000000000000000000000000000000000000000600052602160045260246000fd5b600073ffffffffffffffffffffffffffffffffffffffff82169050919050565b6000613aa482613a79565b9050919050565b613ab481613a99565b82525050565b6000602082019050613acf6000830184613aab565b92915050565b60038110613ae257600080fd5b50565b600081519050613af481613ad5565b92915050565b600060208284031215613b1057613b0f61370d565b5b6000613b1e84828501613ae5565b91505092915050565b600082825260208201905092915050565b7f53656e646572206d7573742062652061206c6563747572657200000000000000600082015250565b6000613b6e601983613b27565b9150613b7982613b38565b602082019050919050565b60006020820190508181036000830152613b9d81613b61565b9050919050565b600081519050613bb381613721565b92915050565b600060208284031215613bcf57613bce61370d565b5b6000613bdd84828501613ba4565b91505092915050565b6000602082019050613bfb600083018461386f565b92915050565b60028110613c0e57600080fd5b50565b600081519050613c2081613c01565b92915050565b600060208284031215613c3c57613c3b61370d565b5b6000613c4a84828501613c11565b91505092915050565b7f54686973206173736573736d656e7420776173206e6f7420616e206578616d00600082015250565b6000613c89601f83613b27565b9150613c9482613c53565b602082019050919050565b60006020820190508181036000830152613cb881613c7c565b9050919050565b600081519050613cce81613759565b92915050565b600060208284031215613cea57613ce961370d565b5b6000613cf884828501613cbf565b91505092915050565b7f546869732073747564656e742773206578616d20617474656e64616e6365207760008201527f617320636f6e6669726d656420616c7265616479000000000000000000000000602082015250565b6000613d5d603483613b27565b9150613d6882613d01565b604082019050919050565b60006020820190508181036000830152613d8c81613d50565b9050919050565b6000608082019050613da8600083018761386f565b613db5602083018661386f565b613dc26040830185613818565b613dcf606083018461386f565b95945050505050565b7f53656e646572206d75737420626520612073747564656e740000000000000000600082015250565b6000613e0e601883613b27565b9150613e1982613dd8565b602082019050919050565b60006020820190508181036000830152613e3d81613e01565b9050919050565b82818337600083830152505050565b6000601f19601f8301169050919050565b6000613e708385613b27565b9350613e7d838584613e44565b613e8683613e53565b840190509392505050565b600060e082019050613ea6600083018b61386f565b613eb3602083018a61386f565b613ec0604083018961386f565b613ecd606083018861386f565b8181036080830152613ee0818688613e64565b9050613eef60a083018561386f565b613efc60c0830184613818565b9998505050505050505050565b7f54686973206173736573736d656e7420776173206e6f742061207375626d697360008201527f73696f6e00000000000000000000000000000000000000000000000000000000602082015250565b6000613f65602483613b27565b9150613f7082613f09565b604082019050919050565b60006020820190508181036000830152613f9481613f58565b9050919050565b7f5375626d697373696f6e206973206e6f7420706f737369626c6520616674657260008201527f2074686520646561646c696e6500000000000000000000000000000000000000602082015250565b6000613ff7602d83613b27565b915061400282613f9b565b604082019050919050565b6000602082019050818103600083015261402681613fea565b9050919050565b600082825260208201905092915050565b6000819050919050565b600082825260208201905092915050565b60006140658385614048565b9350614072838584613e44565b61407b83613e53565b840190509392505050565b6000614093848484614059565b90509392505050565b600080fd5b600080fd5b600080fd5b600080833560016020038436030381126140c8576140c76140a6565b5b83810192508235915060208301925067ffffffffffffffff8211156140f0576140ef61409c565b5b600182023603831315614106576141056140a1565b5b509250929050565b6000602082019050919050565b6000614127838561402d565b9350836020840285016141398461403e565b8060005b8781101561417f57848403895261415482846140ab565b61415f868284614086565b955061416a8461410e565b935060208b019a50505060018101905061413d565b50829750879450505050509392505050565b60006080820190506141a6600083018861386f565b6141b3602083018761386f565b6141c0604083018661386f565b81810360608301526141d381848661411b565b90509695505050505050565b600060c0820190506141f4600083018a61386f565b614201602083018961386f565b61420e604083018861386f565b61421b606083018761386f565b818103608083015261422e818587613e64565b905061423d60a083018461386f565b98975050505050505050565b7f4e487b7100000000000000000000000000000000000000000000000000000000600052604160045260246000fd5b61428182613e53565b810181811067ffffffffffffffff821117156142a05761429f614249565b5b80604052505050565b60006142b3613703565b90506142bf8282614278565b919050565b600067ffffffffffffffff8211156142df576142de614249565b5b602082029050602081019050919050565b60006143036142fe846142c4565b6142a9565b90508083825260208201905060208402830185811115614326576143256138b1565b5b835b8181101561434f578061433b8882613ba4565b845260208401935050602081019050614328565b5050509392505050565b600082601f83011261436e5761436d6138a7565b5b815161437e8482602086016142f0565b91505092915050565b60006020828403121561439d5761439c61370d565b5b600082015167ffffffffffffffff8111156143bb576143ba613712565b5b6143c784828501614359565b91505092915050565b7f4c65637475726572206973206e6f74206c6563747572696e672061742074686960008201527f7320636f75727365000000000000000000000000000000000000000000000000602082015250565b600061442c602883613b27565b9150614437826143d0565b604082019050919050565b6000602082019050818103600083015261445b8161441f565b9050919050565b7f53747564656e74206973206e6f74207265676973746572656420746f2074686560008201527f20636f7572736500000000000000000000000000000000000000000000000000602082015250565b60006144be602783613b27565b91506144c982614462565b604082019050919050565b600060208201905081810360008301526144ed816144b1565b9050919050565b7f53747564656e7420646964206e6f7420726567697374657220746f207468697360008201527f2061736573736d656e7400000000000000000000000000000000000000000000602082015250565b6000614550602a83613b27565b915061455b826144f4565b604082019050919050565b6000602082019050818103600083015261457f81614543565b9050919050565b7f4e487b7100000000000000000000000000000000000000000000000000000000600052603260045260246000fd5b7f4e487b7100000000000000000000000000000000000000000000000000000000600052601160045260246000fd5b60006145ef82613717565b91506145fa83613717565b9250828201905080821115614612576146116145b5565b5b92915050565b600061462382613717565b91507fffffffffffffffffffffffffffffffffffffffffffffffffffffffffffffffff8203614655576146546145b5565b5b600182019050919050565b6000819050919050565b6000819050919050565b600061468f61468a61468584614660565b61466a565b613717565b9050919050565b61469f81614674565b82525050565b7f4175746f6d617469633a204e6f207375626d697373696f6e207761732068616e60008201527f64656420696e0000000000000000000000000000000000000000000000000000602082015250565b6000614701602683613b27565b915061470c826146a5565b604082019050919050565b600060c08201905061472c600083018861386f565b614739602083018761386f565b614746604083018661386f565b6147536060830185614696565b8181036080830152614764816146f4565b905061477360a083018461386f565b9695505050505050565b7f4175746f6d617469633a204578616d20776173206e6f7420617474656e646564600082015250565b60006147b3602083613b27565b91506147be8261477d565b602082019050919050565b600060c0820190506147de600083018861386f565b6147eb602083018761386f565b6147f8604083018661386f565b6148056060830185614696565b8181036080830152614816816147a6565b905061482560a083018461386f565b9695505050505050565b6004811061483c57600080fd5b50565b60008151905061484e8161482f565b92915050565b60006020828403121561486a5761486961370d565b5b60006148788482850161483f565b91505092915050565b600067ffffffffffffffff82111561489c5761489b614249565b5b602082029050602081019050919050565b600080fd5b600080fd5b600080fd5b600067ffffffffffffffff8211156148d7576148d6614249565b5b6148e082613e53565b9050602081019050919050565b60005b8381101561490b5780820151818401526020810190506148f0565b60008484015250505050565b600061492a614925846148bc565b6142a9565b905082815260208101848484011115614946576149456148b7565b5b6149518482856148ed565b509392505050565b600082601f83011261496e5761496d6138a7565b5b815161497e848260208601614917565b91505092915050565b6000610140828403121561499e5761499d6148ad565b5b6149a96101406142a9565b9050600082015167ffffffffffffffff8111156149c9576149c86148b2565b5b6149d584828501614959565b60008301525060206149e984828501613ba4565b602083015250604082015167ffffffffffffffff811115614a0d57614a0c6148b2565b5b614a1984828501614959565b6040830152506060614a2d84828501613c11565b6060830152506080614a4184828501613ba4565b60808301525060a0614a5584828501613ba4565b60a08301525060c0614a6984828501613cbf565b60c08301525060e0614a7d84828501613ba4565b60e083015250610100614a9284828501613ba4565b61010083015250610120614aa884828501613ba4565b6101208301525092915050565b600060408284031215614acb57614aca6148ad565b5b614ad560406142a9565b90506000614ae584828501613ba4565b600083015250602082015167ffffffffffffffff811115614b0957614b086148b2565b5b614b1584828501614987565b60208301525092915050565b6000614b34614b2f84614881565b6142a9565b90508083825260208201905060208402830185811115614b5757614b566138b1565b5b835b81811015614b9e57805167ffffffffffffffff811115614b7c57614b7b6138a7565b5b808601614b898982614ab5565b85526020850194505050602081019050614b59565b5050509392505050565b600082601f830112614bbd57614bbc6138a7565b5b8151614bcd848260208601614b21565b91505092915050565b600060208284031215614bec57614beb61370d565b5b600082015167ffffffffffffffff811115614c0a57614c09613712565b5b614c1684828501614ba8565b91505092915050565b7f4175746f6d617469633a204174206c65617374206f6e65206f6620746865206160008201527f73736573736d656e747320646964206e6f7420726561636820746865206d696e60208201527f696d756d20706f696e7473000000000000000000000000000000000000000000604082015250565b6000614ca1604b83613b27565b9150614cac82614c1f565b606082019050919050565b600060e082019050614ccc600083018961386f565b614cd9602083018861386f565b614ce6604083018761386f565b614cf3606083018661386f565b8181036080830152614d0481614c94565b9050614d1360a083018561386f565b614d2060c0830184613818565b979650505050505050565b600067ffffffffffffffff821115614d4657614d45614249565b5b602082029050602081019050919050565b600060408284031215614d6d57614d6c6148ad565b5b614d7760406142a9565b90506000614d8784828501613ba4565b6000830152506020614d9b84828501613ba4565b60208301525092915050565b6000614dba614db584614d2b565b6142a9565b90508083825260208201905060408402830185811115614ddd57614ddc6138b1565b5b835b81811015614e065780614df28882614d57565b845260208401935050604081019050614ddf565b5050509392505050565b600082601f830112614e2557614e246138a7565b5b8151614e35848260208601614da7565b91505092915050565b600060208284031215614e5457614e5361370d565b5b600082015167ffffffffffffffff811115614e7257614e71613712565b5b614e7e84828501614e10565b91505092915050565b50565b6000614e97600083613b27565b9150614ea282614e87565b600082019050919050565b600060e082019050614ec2600083018961386f565b614ecf602083018861386f565b614edc604083018761386f565b614ee9606083018661386f565b8181036080830152614efa81614e8a565b9050614f0960a083018561386f565b614f1660c0830184613818565b979650505050505050565b60008160011c9050919050565b6000808291508390505b6001851115614f7857808604811115614f5457614f536145b5565b5b6001851615614f635780820291505b8081029050614f7185614f21565b9450614f38565b94509492505050565b600082614f91576001905061504d565b81614f9f576000905061504d565b8160018114614fb55760028114614fbf57614fee565b600191505061504d565b60ff841115614fd157614fd06145b5565b5b8360020a915084821115614fe857614fe76145b5565b5b5061504d565b5060208310610133831016604e8410600b84101617156150235782820a90508381111561501e5761501d6145b5565b5b61504d565b6150308484846001614f2e565b92509050818404811115615047576150466145b5565b5b81810290505b9392505050565b600061505f82613717565b915061506a83613717565b92506150977fffffffffffffffffffffffffffffffffffffffffffffffffffffffffffffffff8484614f81565b905092915050565b60006150aa82613717565b91506150b583613717565b92508282026150c381613717565b915082820484148315176150da576150d96145b5565b5b5092915050565b7f4e487b7100000000000000000000000000000000000000000000000000000000600052601260045260246000fd5b600061511b82613717565b915061512683613717565b925082615136576151356150e1565b5b82820490509291505056fea2646970667358221220c4d41d794fd35bf8b5bf8dc8077cbc538ef4bad58fae6910ed3d43e43b4f96e864736f6c63430008110033",
  "linkReferences": {},
  "deployedLinkReferences": {}
}