{
  "_format": "hh-sol-artifact-1",
  "contractName": "AssessmentDataManager",
  "sourceName": "contracts/data/datamanager/AssessmentDataManager.sol",
  "abi": [
    {
      "inputs": [
        {
          "internalType": "address",
          "name": "assessmentDataStorageAddress",
          "type": "address"
        },
        {
          "internalType": "address",
          "name": "accessWhitelistAddress",
          "type": "address"
        }
      ],
      "stateMutability": "nonpayable",
      "type": "constructor"
    },
    {
      "inputs": [
        {
          "internalType": "uint256",
          "name": "courseId",
          "type": "uint256"
        },
        {
          "components": [
            {
              "internalType": "string",
              "name": "title",
              "type": "string"
            },
            {
              "internalType": "uint256",
              "name": "datetime",
              "type": "uint256"
            },
            {
              "internalType": "string",
              "name": "place",
              "type": "string"
            },
            {
              "internalType": "enum CourseDataTypes.AssessmentType",
              "name": "assessmentType",
              "type": "uint8"
            },
            {
              "internalType": "uint256",
              "name": "maxPoints",
              "type": "uint256"
            },
            {
              "internalType": "uint256",
              "name": "minPoints",
              "type": "uint256"
            },
            {
              "internalType": "bool",
              "name": "isRegistrationRequired",
              "type": "bool"
            },
            {
              "internalType": "uint256",
              "name": "registrationStart",
              "type": "uint256"
            },
            {
              "internalType": "uint256",
              "name": "registrationDeadline",
              "type": "uint256"
            },
            {
              "internalType": "uint256",
              "name": "deregistrationDeadline",
              "type": "uint256"
            }
          ],
          "internalType": "struct CourseDataTypes.AssessmentContent[]",
          "name": "assessmentContents",
          "type": "tuple[]"
        }
      ],
      "name": "addAssessments",
      "outputs": [],
      "stateMutability": "nonpayable",
      "type": "function"
    },
    {
      "inputs": [
        {
          "internalType": "uint256",
          "name": "assessmentId",
          "type": "uint256"
        },
        {
          "internalType": "uint256",
          "name": "uId",
          "type": "uint256"
        }
      ],
      "name": "addRegistrantToAssessment",
      "outputs": [],
      "stateMutability": "nonpayable",
      "type": "function"
    },
    {
      "inputs": [
        {
          "internalType": "uint256",
          "name": "assessmentId",
          "type": "uint256"
        }
      ],
      "name": "getAssessmentDeregistrationPeriod",
      "outputs": [
        {
          "internalType": "uint256",
          "name": "",
          "type": "uint256"
        },
        {
          "internalType": "uint256",
          "name": "",
          "type": "uint256"
        }
      ],
      "stateMutability": "view",
      "type": "function"
    },
    {
      "inputs": [
        {
          "internalType": "uint256",
          "name": "courseId",
          "type": "uint256"
        }
      ],
      "name": "getAssessmentIdsToCourseId",
      "outputs": [
        {
          "internalType": "uint256[]",
          "name": "",
          "type": "uint256[]"
        }
      ],
      "stateMutability": "view",
      "type": "function"
    },
    {
      "inputs": [
        {
          "internalType": "uint256",
          "name": "assessmentId",
          "type": "uint256"
        }
      ],
      "name": "getAssessmentMaxPoints",
      "outputs": [
        {
          "internalType": "uint256",
          "name": "",
          "type": "uint256"
        }
      ],
      "stateMutability": "view",
      "type": "function"
    },
    {
      "inputs": [
        {
          "internalType": "uint256",
          "name": "assessmentId",
          "type": "uint256"
        }
      ],
      "name": "getAssessmentMinPoints",
      "outputs": [
        {
          "internalType": "uint256",
          "name": "",
          "type": "uint256"
        }
      ],
      "stateMutability": "view",
      "type": "function"
    },
    {
      "inputs": [
        {
          "internalType": "uint256",
          "name": "assessmentId",
          "type": "uint256"
        }
      ],
      "name": "getAssessmentRegistrantIds",
      "outputs": [
        {
          "internalType": "uint256[]",
          "name": "",
          "type": "uint256[]"
        }
      ],
      "stateMutability": "view",
      "type": "function"
    },
    {
      "inputs": [
        {
          "internalType": "uint256",
          "name": "assessmentId",
          "type": "uint256"
        }
      ],
      "name": "getAssessmentRegistrationPeriod",
      "outputs": [
        {
          "internalType": "uint256",
          "name": "",
          "type": "uint256"
        },
        {
          "internalType": "uint256",
          "name": "",
          "type": "uint256"
        }
      ],
      "stateMutability": "view",
      "type": "function"
    },
    {
      "inputs": [
        {
          "internalType": "uint256",
          "name": "assessmentId",
          "type": "uint256"
        }
      ],
      "name": "getAssessmentTime",
      "outputs": [
        {
          "internalType": "uint256",
          "name": "",
          "type": "uint256"
        }
      ],
      "stateMutability": "view",
      "type": "function"
    },
    {
      "inputs": [
        {
          "internalType": "uint256",
          "name": "assessmentId",
          "type": "uint256"
        }
      ],
      "name": "getAssessmentType",
      "outputs": [
        {
          "internalType": "enum CourseDataTypes.AssessmentType",
          "name": "",
          "type": "uint8"
        }
      ],
      "stateMutability": "view",
      "type": "function"
    },
    {
      "inputs": [
        {
          "internalType": "uint256",
          "name": "courseId",
          "type": "uint256"
        }
      ],
      "name": "getAssessmentsToCourseId",
      "outputs": [
        {
          "components": [
            {
              "internalType": "uint256",
              "name": "assessmentId",
              "type": "uint256"
            },
            {
              "components": [
                {
                  "internalType": "string",
                  "name": "title",
                  "type": "string"
                },
                {
                  "internalType": "uint256",
                  "name": "datetime",
                  "type": "uint256"
                },
                {
                  "internalType": "string",
                  "name": "place",
                  "type": "string"
                },
                {
                  "internalType": "enum CourseDataTypes.AssessmentType",
                  "name": "assessmentType",
                  "type": "uint8"
                },
                {
                  "internalType": "uint256",
                  "name": "maxPoints",
                  "type": "uint256"
                },
                {
                  "internalType": "uint256",
                  "name": "minPoints",
                  "type": "uint256"
                },
                {
                  "internalType": "bool",
                  "name": "isRegistrationRequired",
                  "type": "bool"
                },
                {
                  "internalType": "uint256",
                  "name": "registrationStart",
                  "type": "uint256"
                },
                {
                  "internalType": "uint256",
                  "name": "registrationDeadline",
                  "type": "uint256"
                },
                {
                  "internalType": "uint256",
                  "name": "deregistrationDeadline",
                  "type": "uint256"
                }
              ],
              "internalType": "struct CourseDataTypes.AssessmentContent",
              "name": "content",
              "type": "tuple"
            }
          ],
          "internalType": "struct CourseDataTypes.Assessment[]",
          "name": "",
          "type": "tuple[]"
        }
      ],
      "stateMutability": "view",
      "type": "function"
    },
    {
      "inputs": [
        {
          "internalType": "uint256",
          "name": "assessmentId",
          "type": "uint256"
        }
      ],
      "name": "getCourseIdToAssessmentId",
      "outputs": [
        {
          "internalType": "uint256",
          "name": "",
          "type": "uint256"
        }
      ],
      "stateMutability": "view",
      "type": "function"
    },
    {
      "inputs": [
        {
          "internalType": "uint256",
          "name": "assessmentId",
          "type": "uint256"
        }
      ],
      "name": "isAssessmentRegistrationRequired",
      "outputs": [
        {
          "internalType": "bool",
          "name": "",
          "type": "bool"
        }
      ],
      "stateMutability": "view",
      "type": "function"
    },
    {
      "inputs": [
        {
          "internalType": "uint256",
          "name": "assessmentId",
          "type": "uint256"
        },
        {
          "internalType": "uint256",
          "name": "uId",
          "type": "uint256"
        }
      ],
      "name": "removeRegistrantFromAssessment",
      "outputs": [],
      "stateMutability": "nonpayable",
      "type": "function"
    }
  ],
  "bytecode": "0x608060405262000019620000e560201b62001c311760201c565b60026000820151816000015550503480156200003457600080fd5b506040516200312f3803806200312f83398181016040528101906200005a919062000181565b80806000806101000a81548173ffffffffffffffffffffffffffffffffffffffff021916908373ffffffffffffffffffffffffffffffffffffffff1602179055505081600160006101000a81548173ffffffffffffffffffffffffffffffffffffffff021916908373ffffffffffffffffffffffffffffffffffffffff1602179055505050620001c8565b620000ef62000104565b60405180602001604052806001815250905090565b6040518060200160405280600081525090565b600080fd5b600073ffffffffffffffffffffffffffffffffffffffff82169050919050565b600062000149826200011c565b9050919050565b6200015b816200013c565b81146200016757600080fd5b50565b6000815190506200017b8162000150565b92915050565b600080604083850312156200019b576200019a62000117565b5b6000620001ab858286016200016a565b9250506020620001be858286016200016a565b9150509250929050565b612f5780620001d86000396000f3fe608060405234801561001057600080fd5b50600436106100ea5760003560e01c8063a01a6b541161008c578063d8d5064111610066578063d8d50641146102a8578063e0d0346e146102d9578063e285fd25146102f5578063e9eb535614610325576100ea565b8063a01a6b5414610218578063a31cf91f14610248578063a5478d4f14610278576100ea565b806330938d70116100c857806330938d701461016b5780634ad541331461019b57806360dcaa46146101b7578063786e0785146101e8576100ea565b80630a627852146100ef57806326f63a961461011f5780632b00d6ca1461014f575b600080fd5b61010960048036038101906101049190611d38565b610355565b6040516101169190611d74565b60405180910390f35b61013960048036038101906101349190611d38565b6104e1565b6040516101469190611d74565b60405180910390f35b61016960048036038101906101649190611d8f565b61066d565b005b61018560048036038101906101809190611d38565b6107d9565b6040516101929190611dea565b60405180910390f35b6101b560048036038101906101b09190611e6a565b610965565b005b6101d160048036038101906101cc9190611d38565b610c84565b6040516101df929190611eca565b60405180910390f35b61020260048036038101906101fd9190611d38565b610ebc565b60405161020f9190611fb1565b60405180910390f35b610232600480360381019061022d9190611d38565b6110f0565b60405161023f9190611d74565b60405180910390f35b610262600480360381019061025d9190611d38565b61127c565b60405161026f9190611d74565b60405180910390f35b610292600480360381019061028d9190611d38565b6113fb565b60405161029f91906122c9565b60405180910390f35b6102c260048036038101906102bd9190611d38565b61157e565b6040516102d0929190611eca565b60405180910390f35b6102f360048036038101906102ee9190611d8f565b6117b6565b005b61030f600480360381019061030a9190611d38565b611922565b60405161031c9190611fb1565b60405180910390f35b61033f600480360381019061033a9190611d38565b611aa5565b60405161034c91906122fa565b60405180910390f35b60008060009054906101000a900473ffffffffffffffffffffffffffffffffffffffff1673ffffffffffffffffffffffffffffffffffffffff166313f44d10336040518263ffffffff1660e01b81526004016103b19190612356565b602060405180830381865afa1580156103ce573d6000803e3d6000fd5b505050506040513d601f19601f820116820180604052508101906103f2919061239d565b610431576040517f08c379a000000000000000000000000000000000000000000000000000000000815260040161042890612427565b60405180910390fd5b600160009054906101000a900473ffffffffffffffffffffffffffffffffffffffff1673ffffffffffffffffffffffffffffffffffffffff1663b8e51787836040518263ffffffff1660e01b815260040161048c9190611d74565b600060405180830381865afa1580156104a9573d6000803e3d6000fd5b505050506040513d6000823e3d601f19601f820116820180604052508101906104d29190612746565b6020015160a001519050919050565b60008060009054906101000a900473ffffffffffffffffffffffffffffffffffffffff1673ffffffffffffffffffffffffffffffffffffffff166313f44d10336040518263ffffffff1660e01b815260040161053d9190612356565b602060405180830381865afa15801561055a573d6000803e3d6000fd5b505050506040513d601f19601f8201168201806040525081019061057e919061239d565b6105bd576040517f08c379a00000000000000000000000000000000000000000000000000000000081526004016105b490612427565b60405180910390fd5b600160009054906101000a900473ffffffffffffffffffffffffffffffffffffffff1673ffffffffffffffffffffffffffffffffffffffff1663b8e51787836040518263ffffffff1660e01b81526004016106189190611d74565b600060405180830381865afa158015610635573d6000803e3d6000fd5b505050506040513d6000823e3d601f19601f8201168201806040525081019061065e9190612746565b60200151602001519050919050565b60008054906101000a900473ffffffffffffffffffffffffffffffffffffffff1673ffffffffffffffffffffffffffffffffffffffff166313f44d10336040518263ffffffff1660e01b81526004016106c69190612356565b602060405180830381865afa1580156106e3573d6000803e3d6000fd5b505050506040513d601f19601f82011682018060405250810190610707919061239d565b610746576040517f08c379a000000000000000000000000000000000000000000000000000000000815260040161073d90612427565b60405180910390fd5b600160009054906101000a900473ffffffffffffffffffffffffffffffffffffffff1673ffffffffffffffffffffffffffffffffffffffff1663b4ab4bab83836040518363ffffffff1660e01b81526004016107a3929190611eca565b600060405180830381600087803b1580156107bd57600080fd5b505af11580156107d1573d6000803e3d6000fd5b505050505050565b60008060009054906101000a900473ffffffffffffffffffffffffffffffffffffffff1673ffffffffffffffffffffffffffffffffffffffff166313f44d10336040518263ffffffff1660e01b81526004016108359190612356565b602060405180830381865afa158015610852573d6000803e3d6000fd5b505050506040513d601f19601f82011682018060405250810190610876919061239d565b6108b5576040517f08c379a00000000000000000000000000000000000000000000000000000000081526004016108ac90612427565b60405180910390fd5b600160009054906101000a900473ffffffffffffffffffffffffffffffffffffffff1673ffffffffffffffffffffffffffffffffffffffff1663b8e51787836040518263ffffffff1660e01b81526004016109109190611d74565b600060405180830381865afa15801561092d573d6000803e3d6000fd5b505050506040513d6000823e3d601f19601f820116820180604052508101906109569190612746565b6020015160c001519050919050565b60008054906101000a900473ffffffffffffffffffffffffffffffffffffffff1673ffffffffffffffffffffffffffffffffffffffff166313f44d10336040518263ffffffff1660e01b81526004016109be9190612356565b602060405180830381865afa1580156109db573d6000803e3d6000fd5b505050506040513d601f19601f820116820180604052508101906109ff919061239d565b610a3e576040517f08c379a0000000000000000000000000000000000000000000000000000000008152600401610a3590612427565b60405180910390fd5b60005b82829050811015610c7e57610b01838383818110610a6257610a6161278f565b5b9050602002810190610a7491906127cd565b8060000190610a8391906127f6565b8080601f016020809104026020016040519081016040528093929190818152602001838380828437600081840152601f19601f820116905080830192505050505050506040518060400160405280600581526020017f5469746c65000000000000000000000000000000000000000000000000000000815250611c4e565b828282818110610b1457610b1361278f565b5b9050602002810190610b2691906127cd565b60800135838383818110610b3d57610b3c61278f565b5b9050602002810190610b4f91906127cd565b60a001351115610b94576040517f08c379a0000000000000000000000000000000000000000000000000000000008152600401610b8b906128cb565b60405180910390fd5b600160009054906101000a900473ffffffffffffffffffffffffffffffffffffffff1673ffffffffffffffffffffffffffffffffffffffff16635bccdece856040518060400160405280610be86002611cb9565b8152602001878787818110610c0057610bff61278f565b5b9050602002810190610c1291906127cd565b610c1b90612ac2565b8152506040518363ffffffff1660e01b8152600401610c3b929190612b12565b600060405180830381600087803b158015610c5557600080fd5b505af1158015610c69573d6000803e3d6000fd5b5050505080610c7790612b71565b9050610a41565b50505050565b60008060008054906101000a900473ffffffffffffffffffffffffffffffffffffffff1673ffffffffffffffffffffffffffffffffffffffff166313f44d10336040518263ffffffff1660e01b8152600401610ce09190612356565b602060405180830381865afa158015610cfd573d6000803e3d6000fd5b505050506040513d601f19601f82011682018060405250810190610d21919061239d565b610d60576040517f08c379a0000000000000000000000000000000000000000000000000000000008152600401610d5790612427565b60405180910390fd5b600160009054906101000a900473ffffffffffffffffffffffffffffffffffffffff1673ffffffffffffffffffffffffffffffffffffffff1663b8e51787846040518263ffffffff1660e01b8152600401610dbb9190611d74565b600060405180830381865afa158015610dd8573d6000803e3d6000fd5b505050506040513d6000823e3d601f19601f82011682018060405250810190610e019190612746565b6020015160e00151600160009054906101000a900473ffffffffffffffffffffffffffffffffffffffff1673ffffffffffffffffffffffffffffffffffffffff1663b8e51787856040518263ffffffff1660e01b8152600401610e649190611d74565b600060405180830381865afa158015610e81573d6000803e3d6000fd5b505050506040513d6000823e3d601f19601f82011682018060405250810190610eaa9190612746565b60200151610120015191509150915091565b606060008054906101000a900473ffffffffffffffffffffffffffffffffffffffff1673ffffffffffffffffffffffffffffffffffffffff166313f44d10336040518263ffffffff1660e01b8152600401610f179190612356565b602060405180830381865afa158015610f34573d6000803e3d6000fd5b505050506040513d601f19601f82011682018060405250810190610f58919061239d565b610f97576040517f08c379a0000000000000000000000000000000000000000000000000000000008152600401610f8e90612427565b60405180910390fd5b6000600160009054906101000a900473ffffffffffffffffffffffffffffffffffffffff1673ffffffffffffffffffffffffffffffffffffffff1663f6554de4846040518263ffffffff1660e01b8152600401610ff49190611d74565b600060405180830381865afa158015611011573d6000803e3d6000fd5b505050506040513d6000823e3d601f19601f8201168201806040525081019061103a9190612c9a565b90506000815167ffffffffffffffff8111156110595761105861244c565b5b6040519080825280602002602001820160405280156110875781602001602082028036833780820191505090505b50905060005b82518110156110e5578281815181106110a9576110a861278f565b5b6020026020010151600001518282815181106110c8576110c761278f565b5b602002602001018181525050806110de90612b71565b905061108d565b508092505050919050565b60008060009054906101000a900473ffffffffffffffffffffffffffffffffffffffff1673ffffffffffffffffffffffffffffffffffffffff166313f44d10336040518263ffffffff1660e01b815260040161114c9190612356565b602060405180830381865afa158015611169573d6000803e3d6000fd5b505050506040513d601f19601f8201168201806040525081019061118d919061239d565b6111cc576040517f08c379a00000000000000000000000000000000000000000000000000000000081526004016111c390612427565b60405180910390fd5b600160009054906101000a900473ffffffffffffffffffffffffffffffffffffffff1673ffffffffffffffffffffffffffffffffffffffff1663b8e51787836040518263ffffffff1660e01b81526004016112279190611d74565b600060405180830381865afa158015611244573d6000803e3d6000fd5b505050506040513d6000823e3d601f19601f8201168201806040525081019061126d9190612746565b60200151608001519050919050565b60008060009054906101000a900473ffffffffffffffffffffffffffffffffffffffff1673ffffffffffffffffffffffffffffffffffffffff166313f44d10336040518263ffffffff1660e01b81526004016112d89190612356565b602060405180830381865afa1580156112f5573d6000803e3d6000fd5b505050506040513d601f19601f82011682018060405250810190611319919061239d565b611358576040517f08c379a000000000000000000000000000000000000000000000000000000000815260040161134f90612427565b60405180910390fd5b600160009054906101000a900473ffffffffffffffffffffffffffffffffffffffff1673ffffffffffffffffffffffffffffffffffffffff1663adfb1f8a836040518263ffffffff1660e01b81526004016113b39190611d74565b602060405180830381865afa1580156113d0573d6000803e3d6000fd5b505050506040513d601f19601f820116820180604052508101906113f49190612ce3565b9050919050565b606060008054906101000a900473ffffffffffffffffffffffffffffffffffffffff1673ffffffffffffffffffffffffffffffffffffffff166313f44d10336040518263ffffffff1660e01b81526004016114569190612356565b602060405180830381865afa158015611473573d6000803e3d6000fd5b505050506040513d601f19601f82011682018060405250810190611497919061239d565b6114d6576040517f08c379a00000000000000000000000000000000000000000000000000000000081526004016114cd90612427565b60405180910390fd5b600160009054906101000a900473ffffffffffffffffffffffffffffffffffffffff1673ffffffffffffffffffffffffffffffffffffffff1663f6554de4836040518263ffffffff1660e01b81526004016115319190611d74565b600060405180830381865afa15801561154e573d6000803e3d6000fd5b505050506040513d6000823e3d601f19601f820116820180604052508101906115779190612c9a565b9050919050565b60008060008054906101000a900473ffffffffffffffffffffffffffffffffffffffff1673ffffffffffffffffffffffffffffffffffffffff166313f44d10336040518263ffffffff1660e01b81526004016115da9190612356565b602060405180830381865afa1580156115f7573d6000803e3d6000fd5b505050506040513d601f19601f8201168201806040525081019061161b919061239d565b61165a576040517f08c379a000000000000000000000000000000000000000000000000000000000815260040161165190612427565b60405180910390fd5b600160009054906101000a900473ffffffffffffffffffffffffffffffffffffffff1673ffffffffffffffffffffffffffffffffffffffff1663b8e51787846040518263ffffffff1660e01b81526004016116b59190611d74565b600060405180830381865afa1580156116d2573d6000803e3d6000fd5b505050506040513d6000823e3d601f19601f820116820180604052508101906116fb9190612746565b6020015160e00151600160009054906101000a900473ffffffffffffffffffffffffffffffffffffffff1673ffffffffffffffffffffffffffffffffffffffff1663b8e51787856040518263ffffffff1660e01b815260040161175e9190611d74565b600060405180830381865afa15801561177b573d6000803e3d6000fd5b505050506040513d6000823e3d601f19601f820116820180604052508101906117a49190612746565b60200151610100015191509150915091565b60008054906101000a900473ffffffffffffffffffffffffffffffffffffffff1673ffffffffffffffffffffffffffffffffffffffff166313f44d10336040518263ffffffff1660e01b815260040161180f9190612356565b602060405180830381865afa15801561182c573d6000803e3d6000fd5b505050506040513d601f19601f82011682018060405250810190611850919061239d565b61188f576040517f08c379a000000000000000000000000000000000000000000000000000000000815260040161188690612427565b60405180910390fd5b600160009054906101000a900473ffffffffffffffffffffffffffffffffffffffff1673ffffffffffffffffffffffffffffffffffffffff1663ecd8a67783836040518363ffffffff1660e01b81526004016118ec929190611eca565b600060405180830381600087803b15801561190657600080fd5b505af115801561191a573d6000803e3d6000fd5b505050505050565b606060008054906101000a900473ffffffffffffffffffffffffffffffffffffffff1673ffffffffffffffffffffffffffffffffffffffff166313f44d10336040518263ffffffff1660e01b815260040161197d9190612356565b602060405180830381865afa15801561199a573d6000803e3d6000fd5b505050506040513d601f19601f820116820180604052508101906119be919061239d565b6119fd576040517f08c379a00000000000000000000000000000000000000000000000000000000081526004016119f490612427565b60405180910390fd5b600160009054906101000a900473ffffffffffffffffffffffffffffffffffffffff1673ffffffffffffffffffffffffffffffffffffffff1663ed373249836040518263ffffffff1660e01b8152600401611a589190611d74565b600060405180830381865afa158015611a75573d6000803e3d6000fd5b505050506040513d6000823e3d601f19601f82011682018060405250810190611a9e9190612dd3565b9050919050565b60008060009054906101000a900473ffffffffffffffffffffffffffffffffffffffff1673ffffffffffffffffffffffffffffffffffffffff166313f44d10336040518263ffffffff1660e01b8152600401611b019190612356565b602060405180830381865afa158015611b1e573d6000803e3d6000fd5b505050506040513d601f19601f82011682018060405250810190611b42919061239d565b611b81576040517f08c379a0000000000000000000000000000000000000000000000000000000008152600401611b7890612427565b60405180910390fd5b600160009054906101000a900473ffffffffffffffffffffffffffffffffffffffff1673ffffffffffffffffffffffffffffffffffffffff1663b8e51787836040518263ffffffff1660e01b8152600401611bdc9190611d74565b600060405180830381865afa158015611bf9573d6000803e3d6000fd5b505050506040513d6000823e3d601f19601f82011682018060405250810190611c229190612746565b60200151606001519050919050565b611c39611cdb565b60405180602001604052806001815250905090565b600082511181604051602001611c649190612ea4565b60405160208183030381529060405290611cb4576040517f08c379a0000000000000000000000000000000000000000000000000000000008152600401611cab9190612eff565b60405180910390fd5b505050565b6000816000016000815480929190611cd090612b71565b919050559050919050565b6040518060200160405280600081525090565b6000604051905090565b600080fd5b600080fd5b6000819050919050565b611d1581611d02565b8114611d2057600080fd5b50565b600081359050611d3281611d0c565b92915050565b600060208284031215611d4e57611d4d611cf8565b5b6000611d5c84828501611d23565b91505092915050565b611d6e81611d02565b82525050565b6000602082019050611d896000830184611d65565b92915050565b60008060408385031215611da657611da5611cf8565b5b6000611db485828601611d23565b9250506020611dc585828601611d23565b9150509250929050565b60008115159050919050565b611de481611dcf565b82525050565b6000602082019050611dff6000830184611ddb565b92915050565b600080fd5b600080fd5b600080fd5b60008083601f840112611e2a57611e29611e05565b5b8235905067ffffffffffffffff811115611e4757611e46611e0a565b5b602083019150836020820283011115611e6357611e62611e0f565b5b9250929050565b600080600060408486031215611e8357611e82611cf8565b5b6000611e9186828701611d23565b935050602084013567ffffffffffffffff811115611eb257611eb1611cfd565b5b611ebe86828701611e14565b92509250509250925092565b6000604082019050611edf6000830185611d65565b611eec6020830184611d65565b9392505050565b600081519050919050565b600082825260208201905092915050565b6000819050602082019050919050565b611f2881611d02565b82525050565b6000611f3a8383611f1f565b60208301905092915050565b6000602082019050919050565b6000611f5e82611ef3565b611f688185611efe565b9350611f7383611f0f565b8060005b83811015611fa4578151611f8b8882611f2e565b9750611f9683611f46565b925050600181019050611f77565b5085935050505092915050565b60006020820190508181036000830152611fcb8184611f53565b905092915050565b600081519050919050565b600082825260208201905092915050565b6000819050602082019050919050565b600081519050919050565b600082825260208201905092915050565b60005b8381101561203957808201518184015260208101905061201e565b60008484015250505050565b6000601f19601f8301169050919050565b600061206182611fff565b61206b818561200a565b935061207b81856020860161201b565b61208481612045565b840191505092915050565b7f4e487b7100000000000000000000000000000000000000000000000000000000600052602160045260246000fd5b600281106120cf576120ce61208f565b5b50565b60008190506120e0826120be565b919050565b60006120f0826120d2565b9050919050565b612100816120e5565b82525050565b61210f81611dcf565b82525050565b60006101408301600083015184820360008601526121338282612056565b91505060208301516121486020860182611f1f565b50604083015184820360408601526121608282612056565b915050606083015161217560608601826120f7565b5060808301516121886080860182611f1f565b5060a083015161219b60a0860182611f1f565b5060c08301516121ae60c0860182612106565b5060e08301516121c160e0860182611f1f565b506101008301516121d6610100860182611f1f565b506101208301516121eb610120860182611f1f565b508091505092915050565b600060408301600083015161220e6000860182611f1f565b50602083015184820360208601526122268282612115565b9150508091505092915050565b600061223f83836121f6565b905092915050565b6000602082019050919050565b600061225f82611fd3565b6122698185611fde565b93508360208202850161227b85611fef565b8060005b858110156122b757848403895281516122988582612233565b94506122a383612247565b925060208a0199505060018101905061227f565b50829750879550505050505092915050565b600060208201905081810360008301526122e38184612254565b905092915050565b6122f4816120e5565b82525050565b600060208201905061230f60008301846122eb565b92915050565b600073ffffffffffffffffffffffffffffffffffffffff82169050919050565b600061234082612315565b9050919050565b61235081612335565b82525050565b600060208201905061236b6000830184612347565b92915050565b61237a81611dcf565b811461238557600080fd5b50565b60008151905061239781612371565b92915050565b6000602082840312156123b3576123b2611cf8565b5b60006123c184828501612388565b91505092915050565b600082825260208201905092915050565b7f5468652073656e646572206973206e6f742077686974656c6973746564000000600082015250565b6000612411601d836123ca565b915061241c826123db565b602082019050919050565b6000602082019050818103600083015261244081612404565b9050919050565b600080fd5b7f4e487b7100000000000000000000000000000000000000000000000000000000600052604160045260246000fd5b61248482612045565b810181811067ffffffffffffffff821117156124a3576124a261244c565b5b80604052505050565b60006124b6611cee565b90506124c2828261247b565b919050565b600080fd5b6000815190506124db81611d0c565b92915050565b600080fd5b600067ffffffffffffffff8211156125015761250061244c565b5b61250a82612045565b9050602081019050919050565b600061252a612525846124e6565b6124ac565b905082815260208101848484011115612546576125456124e1565b5b61255184828561201b565b509392505050565b600082601f83011261256e5761256d611e05565b5b815161257e848260208601612517565b91505092915050565b6002811061259457600080fd5b50565b6000815190506125a681612587565b92915050565b600061014082840312156125c3576125c2612447565b5b6125ce6101406124ac565b9050600082015167ffffffffffffffff8111156125ee576125ed6124c7565b5b6125fa84828501612559565b600083015250602061260e848285016124cc565b602083015250604082015167ffffffffffffffff811115612632576126316124c7565b5b61263e84828501612559565b604083015250606061265284828501612597565b6060830152506080612666848285016124cc565b60808301525060a061267a848285016124cc565b60a08301525060c061268e84828501612388565b60c08301525060e06126a2848285016124cc565b60e0830152506101006126b7848285016124cc565b610100830152506101206126cd848285016124cc565b6101208301525092915050565b6000604082840312156126f0576126ef612447565b5b6126fa60406124ac565b9050600061270a848285016124cc565b600083015250602082015167ffffffffffffffff81111561272e5761272d6124c7565b5b61273a848285016125ac565b60208301525092915050565b60006020828403121561275c5761275b611cf8565b5b600082015167ffffffffffffffff81111561277a57612779611cfd565b5b612786848285016126da565b91505092915050565b7f4e487b7100000000000000000000000000000000000000000000000000000000600052603260045260246000fd5b600080fd5b600080fd5b600080fd5b600082356001610140038336030381126127ea576127e96127be565b5b80830191505092915050565b60008083356001602003843603038112612813576128126127be565b5b80840192508235915067ffffffffffffffff821115612835576128346127c3565b5b602083019250600182023603831315612851576128506127c8565b5b509250929050565b7f4d696e20706f696e74732063616e6e6f7420626520686967686572207468616e60008201527f206d617820706f696e7473000000000000000000000000000000000000000000602082015250565b60006128b5602b836123ca565b91506128c082612859565b604082019050919050565b600060208201905081810360008301526128e4816128a8565b9050919050565b82818337600083830152505050565b600061290d612908846124e6565b6124ac565b905082815260208101848484011115612929576129286124e1565b5b6129348482856128eb565b509392505050565b600082601f83011261295157612950611e05565b5b81356129618482602086016128fa565b91505092915050565b60008135905061297981612587565b92915050565b60008135905061298e81612371565b92915050565b600061014082840312156129ab576129aa612447565b5b6129b66101406124ac565b9050600082013567ffffffffffffffff8111156129d6576129d56124c7565b5b6129e28482850161293c565b60008301525060206129f684828501611d23565b602083015250604082013567ffffffffffffffff811115612a1a57612a196124c7565b5b612a268482850161293c565b6040830152506060612a3a8482850161296a565b6060830152506080612a4e84828501611d23565b60808301525060a0612a6284828501611d23565b60a08301525060c0612a768482850161297f565b60c08301525060e0612a8a84828501611d23565b60e083015250610100612a9f84828501611d23565b61010083015250610120612ab584828501611d23565b6101208301525092915050565b6000612ace3683612994565b9050919050565b6000604083016000830151612aed6000860182611f1f565b5060208301518482036020860152612b058282612115565b9150508091505092915050565b6000604082019050612b276000830185611d65565b8181036020830152612b398184612ad5565b90509392505050565b7f4e487b7100000000000000000000000000000000000000000000000000000000600052601160045260246000fd5b6000612b7c82611d02565b91507fffffffffffffffffffffffffffffffffffffffffffffffffffffffffffffffff8203612bae57612bad612b42565b5b600182019050919050565b600067ffffffffffffffff821115612bd457612bd361244c565b5b602082029050602081019050919050565b6000612bf8612bf384612bb9565b6124ac565b90508083825260208201905060208402830185811115612c1b57612c1a611e0f565b5b835b81811015612c6257805167ffffffffffffffff811115612c4057612c3f611e05565b5b808601612c4d89826126da565b85526020850194505050602081019050612c1d565b5050509392505050565b600082601f830112612c8157612c80611e05565b5b8151612c91848260208601612be5565b91505092915050565b600060208284031215612cb057612caf611cf8565b5b600082015167ffffffffffffffff811115612cce57612ccd611cfd565b5b612cda84828501612c6c565b91505092915050565b600060208284031215612cf957612cf8611cf8565b5b6000612d07848285016124cc565b91505092915050565b600067ffffffffffffffff821115612d2b57612d2a61244c565b5b602082029050602081019050919050565b6000612d4f612d4a84612d10565b6124ac565b90508083825260208201905060208402830185811115612d7257612d71611e0f565b5b835b81811015612d9b5780612d8788826124cc565b845260208401935050602081019050612d74565b5050509392505050565b600082601f830112612dba57612db9611e05565b5b8151612dca848260208601612d3c565b91505092915050565b600060208284031215612de957612de8611cf8565b5b600082015167ffffffffffffffff811115612e0757612e06611cfd565b5b612e1384828501612da5565b91505092915050565b600081905092915050565b6000612e3282611fff565b612e3c8185612e1c565b9350612e4c81856020860161201b565b80840191505092915050565b7f2063616e6e6f7420626520656d70747900000000000000000000000000000000600082015250565b6000612e8e601083612e1c565b9150612e9982612e58565b601082019050919050565b6000612eb08284612e27565b9150612ebb82612e81565b915081905092915050565b6000612ed182611fff565b612edb81856123ca565b9350612eeb81856020860161201b565b612ef481612045565b840191505092915050565b60006020820190508181036000830152612f198184612ec6565b90509291505056fea2646970667358221220dbd25a0236bb1ec657b41f94f5633d26b662bb847fdd57c1ce39fa70dfd6458164736f6c63430008110033",
  "linkReferences": {},
  "deployedLinkReferences": {}
}