{
  "_format": "hh-sol-artifact-1",
  "contractName": "AssessmentDataManager",
  "sourceName": "contracts/data/datamanager/AssessmentDataManager.sol",
  "abi": [
    {
      "inputs": [
        {
          "internalType": "address",
          "name": "assessmentDataStorageAddress",
          "type": "address"
        },
        {
          "internalType": "address",
          "name": "accessWhitelistAddress",
          "type": "address"
        }
      ],
      "stateMutability": "nonpayable",
      "type": "constructor"
    },
    {
      "inputs": [
        {
          "internalType": "uint256",
          "name": "courseId",
          "type": "uint256"
        },
        {
          "components": [
            {
              "internalType": "string",
              "name": "title",
              "type": "string"
            },
            {
              "internalType": "uint256",
              "name": "datetime",
              "type": "uint256"
            },
            {
              "internalType": "string",
              "name": "place",
              "type": "string"
            },
            {
              "internalType": "enum CourseDataTypes.AssessmentType",
              "name": "assessmentType",
              "type": "uint8"
            },
            {
              "internalType": "uint256",
              "name": "maxPoints",
              "type": "uint256"
            },
            {
              "internalType": "uint256",
              "name": "minPoints",
              "type": "uint256"
            },
            {
              "internalType": "bool",
              "name": "isRegistrationRequired",
              "type": "bool"
            },
            {
              "internalType": "uint256",
              "name": "registrationStart",
              "type": "uint256"
            },
            {
              "internalType": "uint256",
              "name": "registrationDeadline",
              "type": "uint256"
            },
            {
              "internalType": "uint256",
              "name": "deregistrationDeadline",
              "type": "uint256"
            }
          ],
          "internalType": "struct CourseDataTypes.AssessmentContent[]",
          "name": "assessmentContents",
          "type": "tuple[]"
        }
      ],
      "name": "addAssessments",
      "outputs": [],
      "stateMutability": "nonpayable",
      "type": "function"
    },
    {
      "inputs": [
        {
          "internalType": "uint256",
          "name": "assessmentId",
          "type": "uint256"
        },
        {
          "internalType": "uint256",
          "name": "uId",
          "type": "uint256"
        }
      ],
      "name": "addRegistrantToAssessment",
      "outputs": [],
      "stateMutability": "nonpayable",
      "type": "function"
    },
    {
      "inputs": [
        {
          "internalType": "uint256",
          "name": "assessmentId",
          "type": "uint256"
        }
      ],
      "name": "getAssessmentDeregistrationPeriod",
      "outputs": [
        {
          "internalType": "uint256",
          "name": "",
          "type": "uint256"
        },
        {
          "internalType": "uint256",
          "name": "",
          "type": "uint256"
        }
      ],
      "stateMutability": "view",
      "type": "function"
    },
    {
      "inputs": [
        {
          "internalType": "uint256",
          "name": "courseId",
          "type": "uint256"
        }
      ],
      "name": "getAssessmentIdsToCourseId",
      "outputs": [
        {
          "internalType": "uint256[]",
          "name": "",
          "type": "uint256[]"
        }
      ],
      "stateMutability": "view",
      "type": "function"
    },
    {
      "inputs": [
        {
          "internalType": "uint256",
          "name": "assessmentId",
          "type": "uint256"
        }
      ],
      "name": "getAssessmentMaxPoints",
      "outputs": [
        {
          "internalType": "uint256",
          "name": "",
          "type": "uint256"
        }
      ],
      "stateMutability": "view",
      "type": "function"
    },
    {
      "inputs": [
        {
          "internalType": "uint256",
          "name": "assessmentId",
          "type": "uint256"
        }
      ],
      "name": "getAssessmentMinPoints",
      "outputs": [
        {
          "internalType": "uint256",
          "name": "",
          "type": "uint256"
        }
      ],
      "stateMutability": "view",
      "type": "function"
    },
    {
      "inputs": [
        {
          "internalType": "uint256",
          "name": "assessmentId",
          "type": "uint256"
        }
      ],
      "name": "getAssessmentRegistrantIds",
      "outputs": [
        {
          "internalType": "uint256[]",
          "name": "",
          "type": "uint256[]"
        }
      ],
      "stateMutability": "view",
      "type": "function"
    },
    {
      "inputs": [
        {
          "internalType": "uint256",
          "name": "assessmentId",
          "type": "uint256"
        }
      ],
      "name": "getAssessmentRegistrationPeriod",
      "outputs": [
        {
          "internalType": "uint256",
          "name": "",
          "type": "uint256"
        },
        {
          "internalType": "uint256",
          "name": "",
          "type": "uint256"
        }
      ],
      "stateMutability": "view",
      "type": "function"
    },
    {
      "inputs": [
        {
          "internalType": "uint256",
          "name": "assessmentId",
          "type": "uint256"
        }
      ],
      "name": "getAssessmentTime",
      "outputs": [
        {
          "internalType": "uint256",
          "name": "",
          "type": "uint256"
        }
      ],
      "stateMutability": "view",
      "type": "function"
    },
    {
      "inputs": [
        {
          "internalType": "uint256",
          "name": "assessmentId",
          "type": "uint256"
        }
      ],
      "name": "getAssessmentType",
      "outputs": [
        {
          "internalType": "enum CourseDataTypes.AssessmentType",
          "name": "",
          "type": "uint8"
        }
      ],
      "stateMutability": "view",
      "type": "function"
    },
    {
      "inputs": [
        {
          "internalType": "uint256",
          "name": "courseId",
          "type": "uint256"
        }
      ],
      "name": "getAssessmentsToCourseId",
      "outputs": [
        {
          "components": [
            {
              "internalType": "uint256",
              "name": "assessmentId",
              "type": "uint256"
            },
            {
              "components": [
                {
                  "internalType": "string",
                  "name": "title",
                  "type": "string"
                },
                {
                  "internalType": "uint256",
                  "name": "datetime",
                  "type": "uint256"
                },
                {
                  "internalType": "string",
                  "name": "place",
                  "type": "string"
                },
                {
                  "internalType": "enum CourseDataTypes.AssessmentType",
                  "name": "assessmentType",
                  "type": "uint8"
                },
                {
                  "internalType": "uint256",
                  "name": "maxPoints",
                  "type": "uint256"
                },
                {
                  "internalType": "uint256",
                  "name": "minPoints",
                  "type": "uint256"
                },
                {
                  "internalType": "bool",
                  "name": "isRegistrationRequired",
                  "type": "bool"
                },
                {
                  "internalType": "uint256",
                  "name": "registrationStart",
                  "type": "uint256"
                },
                {
                  "internalType": "uint256",
                  "name": "registrationDeadline",
                  "type": "uint256"
                },
                {
                  "internalType": "uint256",
                  "name": "deregistrationDeadline",
                  "type": "uint256"
                }
              ],
              "internalType": "struct CourseDataTypes.AssessmentContent",
              "name": "assessmentContent",
              "type": "tuple"
            }
          ],
          "internalType": "struct CourseDataTypes.Assessment[]",
          "name": "",
          "type": "tuple[]"
        }
      ],
      "stateMutability": "view",
      "type": "function"
    },
    {
      "inputs": [
        {
          "internalType": "uint256",
          "name": "assessmentId",
          "type": "uint256"
        }
      ],
      "name": "getCourseIdToAssessmentId",
      "outputs": [
        {
          "internalType": "uint256",
          "name": "",
          "type": "uint256"
        }
      ],
      "stateMutability": "view",
      "type": "function"
    },
    {
      "inputs": [
        {
          "internalType": "uint256",
          "name": "assessmentId",
          "type": "uint256"
        }
      ],
      "name": "isAssessmentRegistrationRequired",
      "outputs": [
        {
          "internalType": "bool",
          "name": "",
          "type": "bool"
        }
      ],
      "stateMutability": "view",
      "type": "function"
    },
    {
      "inputs": [
        {
          "internalType": "uint256",
          "name": "uId",
          "type": "uint256"
        },
        {
          "internalType": "uint256",
          "name": "assessmentId",
          "type": "uint256"
        }
      ],
      "name": "isRegisteredToAssessment",
      "outputs": [
        {
          "internalType": "bool",
          "name": "",
          "type": "bool"
        }
      ],
      "stateMutability": "view",
      "type": "function"
    },
    {
      "inputs": [
        {
          "internalType": "uint256",
          "name": "assessmentId",
          "type": "uint256"
        },
        {
          "internalType": "uint256",
          "name": "uId",
          "type": "uint256"
        }
      ],
      "name": "removeRegistrantFromAssessment",
      "outputs": [],
      "stateMutability": "nonpayable",
      "type": "function"
    }
  ],
  "bytecode": "0x608060405262000019620000e560201b62001ea01760201c565b60026000820151816000015550503480156200003457600080fd5b50604051620033893803806200338983398181016040528101906200005a919062000181565b80806000806101000a81548173ffffffffffffffffffffffffffffffffffffffff021916908373ffffffffffffffffffffffffffffffffffffffff1602179055505081600160006101000a81548173ffffffffffffffffffffffffffffffffffffffff021916908373ffffffffffffffffffffffffffffffffffffffff1602179055505050620001c8565b620000ef62000104565b60405180602001604052806001815250905090565b6040518060200160405280600081525090565b600080fd5b600073ffffffffffffffffffffffffffffffffffffffff82169050919050565b600062000149826200011c565b9050919050565b6200015b816200013c565b81146200016757600080fd5b50565b6000815190506200017b8162000150565b92915050565b600080604083850312156200019b576200019a62000117565b5b6000620001ab858286016200016a565b9250506020620001be858286016200016a565b9150509250929050565b6131b180620001d86000396000f3fe608060405234801561001057600080fd5b50600436106100f55760003560e01c8063786e078511610097578063d8d5064111610066578063d8d50641146102e3578063e0d0346e14610314578063e285fd2514610330578063e9eb535614610360576100f5565b8063786e078514610223578063a01a6b5414610253578063a31cf91f14610283578063a5478d4f146102b3576100f5565b80632b00d6ca116100d35780632b00d6ca1461018a57806330938d70146101a65780634ad54133146101d657806360dcaa46146101f2576100f5565b80630a627852146100fa57806323ff17851461012a57806326f63a961461015a575b600080fd5b610114600480360381019061010f91906120bc565b610390565b60405161012191906120f8565b60405180910390f35b610144600480360381019061013f9190612113565b61051c565b604051610151919061216e565b60405180910390f35b610174600480360381019061016f91906120bc565b6106aa565b60405161018191906120f8565b60405180910390f35b6101a4600480360381019061019f9190612113565b610836565b005b6101c060048036038101906101bb91906120bc565b6109a2565b6040516101cd919061216e565b60405180910390f35b6101f060048036038101906101eb91906121ee565b610b2e565b005b61020c600480360381019061020791906120bc565b610e4d565b60405161021a92919061224e565b60405180910390f35b61023d600480360381019061023891906120bc565b611085565b60405161024a9190612335565b60405180910390f35b61026d600480360381019061026891906120bc565b611208565b60405161027a91906120f8565b60405180910390f35b61029d600480360381019061029891906120bc565b611394565b6040516102aa91906120f8565b60405180910390f35b6102cd60048036038101906102c891906120bc565b611513565b6040516102da919061264d565b60405180910390f35b6102fd60048036038101906102f891906120bc565b6117ed565b60405161030b92919061224e565b60405180910390f35b61032e60048036038101906103299190612113565b611a25565b005b61034a600480360381019061034591906120bc565b611b91565b6040516103579190612335565b60405180910390f35b61037a600480360381019061037591906120bc565b611d14565b604051610387919061267e565b60405180910390f35b60008060009054906101000a900473ffffffffffffffffffffffffffffffffffffffff1673ffffffffffffffffffffffffffffffffffffffff166313f44d10336040518263ffffffff1660e01b81526004016103ec91906126da565b602060405180830381865afa158015610409573d6000803e3d6000fd5b505050506040513d601f19601f8201168201806040525081019061042d9190612721565b61046c576040517f08c379a0000000000000000000000000000000000000000000000000000000008152600401610463906127ab565b60405180910390fd5b600160009054906101000a900473ffffffffffffffffffffffffffffffffffffffff1673ffffffffffffffffffffffffffffffffffffffff1663b8e51787836040518263ffffffff1660e01b81526004016104c791906120f8565b600060405180830381865afa1580156104e4573d6000803e3d6000fd5b505050506040513d6000823e3d601f19601f8201168201806040525081019061050d9190612aca565b6020015160a001519050919050565b60008060009054906101000a900473ffffffffffffffffffffffffffffffffffffffff1673ffffffffffffffffffffffffffffffffffffffff166313f44d10336040518263ffffffff1660e01b815260040161057891906126da565b602060405180830381865afa158015610595573d6000803e3d6000fd5b505050506040513d601f19601f820116820180604052508101906105b99190612721565b6105f8576040517f08c379a00000000000000000000000000000000000000000000000000000000081526004016105ef906127ab565b60405180910390fd5b6106a283600160009054906101000a900473ffffffffffffffffffffffffffffffffffffffff1673ffffffffffffffffffffffffffffffffffffffff1663ed373249856040518263ffffffff1660e01b815260040161065791906120f8565b600060405180830381865afa158015610674573d6000803e3d6000fd5b505050506040513d6000823e3d601f19601f8201168201806040525081019061069d9190612bd6565b611ebd565b905092915050565b60008060009054906101000a900473ffffffffffffffffffffffffffffffffffffffff1673ffffffffffffffffffffffffffffffffffffffff166313f44d10336040518263ffffffff1660e01b815260040161070691906126da565b602060405180830381865afa158015610723573d6000803e3d6000fd5b505050506040513d601f19601f820116820180604052508101906107479190612721565b610786576040517f08c379a000000000000000000000000000000000000000000000000000000000815260040161077d906127ab565b60405180910390fd5b600160009054906101000a900473ffffffffffffffffffffffffffffffffffffffff1673ffffffffffffffffffffffffffffffffffffffff1663b8e51787836040518263ffffffff1660e01b81526004016107e191906120f8565b600060405180830381865afa1580156107fe573d6000803e3d6000fd5b505050506040513d6000823e3d601f19601f820116820180604052508101906108279190612aca565b60200151602001519050919050565b60008054906101000a900473ffffffffffffffffffffffffffffffffffffffff1673ffffffffffffffffffffffffffffffffffffffff166313f44d10336040518263ffffffff1660e01b815260040161088f91906126da565b602060405180830381865afa1580156108ac573d6000803e3d6000fd5b505050506040513d601f19601f820116820180604052508101906108d09190612721565b61090f576040517f08c379a0000000000000000000000000000000000000000000000000000000008152600401610906906127ab565b60405180910390fd5b600160009054906101000a900473ffffffffffffffffffffffffffffffffffffffff1673ffffffffffffffffffffffffffffffffffffffff1663b4ab4bab83836040518363ffffffff1660e01b815260040161096c92919061224e565b600060405180830381600087803b15801561098657600080fd5b505af115801561099a573d6000803e3d6000fd5b505050505050565b60008060009054906101000a900473ffffffffffffffffffffffffffffffffffffffff1673ffffffffffffffffffffffffffffffffffffffff166313f44d10336040518263ffffffff1660e01b81526004016109fe91906126da565b602060405180830381865afa158015610a1b573d6000803e3d6000fd5b505050506040513d601f19601f82011682018060405250810190610a3f9190612721565b610a7e576040517f08c379a0000000000000000000000000000000000000000000000000000000008152600401610a75906127ab565b60405180910390fd5b600160009054906101000a900473ffffffffffffffffffffffffffffffffffffffff1673ffffffffffffffffffffffffffffffffffffffff1663b8e51787836040518263ffffffff1660e01b8152600401610ad991906120f8565b600060405180830381865afa158015610af6573d6000803e3d6000fd5b505050506040513d6000823e3d601f19601f82011682018060405250810190610b1f9190612aca565b6020015160c001519050919050565b60008054906101000a900473ffffffffffffffffffffffffffffffffffffffff1673ffffffffffffffffffffffffffffffffffffffff166313f44d10336040518263ffffffff1660e01b8152600401610b8791906126da565b602060405180830381865afa158015610ba4573d6000803e3d6000fd5b505050506040513d601f19601f82011682018060405250810190610bc89190612721565b610c07576040517f08c379a0000000000000000000000000000000000000000000000000000000008152600401610bfe906127ab565b60405180910390fd5b60005b82829050811015610e4757610cca838383818110610c2b57610c2a612c1f565b5b9050602002810190610c3d9190612c5d565b8060000190610c4c9190612c86565b8080601f016020809104026020016040519081016040528093929190818152602001838380828437600081840152601f19601f820116905080830192505050505050506040518060400160405280600581526020017f5469746c65000000000000000000000000000000000000000000000000000000815250611ed4565b828282818110610cdd57610cdc612c1f565b5b9050602002810190610cef9190612c5d565b60800135838383818110610d0657610d05612c1f565b5b9050602002810190610d189190612c5d565b60a001351115610d5d576040517f08c379a0000000000000000000000000000000000000000000000000000000008152600401610d5490612d5b565b60405180910390fd5b600160009054906101000a900473ffffffffffffffffffffffffffffffffffffffff1673ffffffffffffffffffffffffffffffffffffffff16635bccdece856040518060400160405280610db16002611f3f565b8152602001878787818110610dc957610dc8612c1f565b5b9050602002810190610ddb9190612c5d565b610de490612f52565b8152506040518363ffffffff1660e01b8152600401610e04929190612fa2565b600060405180830381600087803b158015610e1e57600080fd5b505af1158015610e32573d6000803e3d6000fd5b5050505080610e4090613001565b9050610c0a565b50505050565b60008060008054906101000a900473ffffffffffffffffffffffffffffffffffffffff1673ffffffffffffffffffffffffffffffffffffffff166313f44d10336040518263ffffffff1660e01b8152600401610ea991906126da565b602060405180830381865afa158015610ec6573d6000803e3d6000fd5b505050506040513d601f19601f82011682018060405250810190610eea9190612721565b610f29576040517f08c379a0000000000000000000000000000000000000000000000000000000008152600401610f20906127ab565b60405180910390fd5b600160009054906101000a900473ffffffffffffffffffffffffffffffffffffffff1673ffffffffffffffffffffffffffffffffffffffff1663b8e51787846040518263ffffffff1660e01b8152600401610f8491906120f8565b600060405180830381865afa158015610fa1573d6000803e3d6000fd5b505050506040513d6000823e3d601f19601f82011682018060405250810190610fca9190612aca565b6020015160e00151600160009054906101000a900473ffffffffffffffffffffffffffffffffffffffff1673ffffffffffffffffffffffffffffffffffffffff1663b8e51787856040518263ffffffff1660e01b815260040161102d91906120f8565b600060405180830381865afa15801561104a573d6000803e3d6000fd5b505050506040513d6000823e3d601f19601f820116820180604052508101906110739190612aca565b60200151610120015191509150915091565b606060008054906101000a900473ffffffffffffffffffffffffffffffffffffffff1673ffffffffffffffffffffffffffffffffffffffff166313f44d10336040518263ffffffff1660e01b81526004016110e091906126da565b602060405180830381865afa1580156110fd573d6000803e3d6000fd5b505050506040513d601f19601f820116820180604052508101906111219190612721565b611160576040517f08c379a0000000000000000000000000000000000000000000000000000000008152600401611157906127ab565b60405180910390fd5b600160009054906101000a900473ffffffffffffffffffffffffffffffffffffffff1673ffffffffffffffffffffffffffffffffffffffff1663e7e94b12836040518263ffffffff1660e01b81526004016111bb91906120f8565b600060405180830381865afa1580156111d8573d6000803e3d6000fd5b505050506040513d6000823e3d601f19601f820116820180604052508101906112019190612bd6565b9050919050565b60008060009054906101000a900473ffffffffffffffffffffffffffffffffffffffff1673ffffffffffffffffffffffffffffffffffffffff166313f44d10336040518263ffffffff1660e01b815260040161126491906126da565b602060405180830381865afa158015611281573d6000803e3d6000fd5b505050506040513d601f19601f820116820180604052508101906112a59190612721565b6112e4576040517f08c379a00000000000000000000000000000000000000000000000000000000081526004016112db906127ab565b60405180910390fd5b600160009054906101000a900473ffffffffffffffffffffffffffffffffffffffff1673ffffffffffffffffffffffffffffffffffffffff1663b8e51787836040518263ffffffff1660e01b815260040161133f91906120f8565b600060405180830381865afa15801561135c573d6000803e3d6000fd5b505050506040513d6000823e3d601f19601f820116820180604052508101906113859190612aca565b60200151608001519050919050565b60008060009054906101000a900473ffffffffffffffffffffffffffffffffffffffff1673ffffffffffffffffffffffffffffffffffffffff166313f44d10336040518263ffffffff1660e01b81526004016113f091906126da565b602060405180830381865afa15801561140d573d6000803e3d6000fd5b505050506040513d601f19601f820116820180604052508101906114319190612721565b611470576040517f08c379a0000000000000000000000000000000000000000000000000000000008152600401611467906127ab565b60405180910390fd5b600160009054906101000a900473ffffffffffffffffffffffffffffffffffffffff1673ffffffffffffffffffffffffffffffffffffffff1663adfb1f8a836040518263ffffffff1660e01b81526004016114cb91906120f8565b602060405180830381865afa1580156114e8573d6000803e3d6000fd5b505050506040513d601f19601f8201168201806040525081019061150c9190613049565b9050919050565b606060008054906101000a900473ffffffffffffffffffffffffffffffffffffffff1673ffffffffffffffffffffffffffffffffffffffff166313f44d10336040518263ffffffff1660e01b815260040161156e91906126da565b602060405180830381865afa15801561158b573d6000803e3d6000fd5b505050506040513d601f19601f820116820180604052508101906115af9190612721565b6115ee576040517f08c379a00000000000000000000000000000000000000000000000000000000081526004016115e5906127ab565b60405180910390fd5b6000600160009054906101000a900473ffffffffffffffffffffffffffffffffffffffff1673ffffffffffffffffffffffffffffffffffffffff1663e7e94b12846040518263ffffffff1660e01b815260040161164b91906120f8565b600060405180830381865afa158015611668573d6000803e3d6000fd5b505050506040513d6000823e3d601f19601f820116820180604052508101906116919190612bd6565b90506000815167ffffffffffffffff8111156116b0576116af6127d0565b5b6040519080825280602002602001820160405280156116e957816020015b6116d6611fd8565b8152602001906001900390816116ce5790505b50905060005b82518110156117e257600160009054906101000a900473ffffffffffffffffffffffffffffffffffffffff1673ffffffffffffffffffffffffffffffffffffffff1663b8e5178784838151811061174957611748612c1f565b5b60200260200101516040518263ffffffff1660e01b815260040161176d91906120f8565b600060405180830381865afa15801561178a573d6000803e3d6000fd5b505050506040513d6000823e3d601f19601f820116820180604052508101906117b39190612aca565b8282815181106117c6576117c5612c1f565b5b6020026020010181905250806117db90613001565b90506116ef565b508092505050919050565b60008060008054906101000a900473ffffffffffffffffffffffffffffffffffffffff1673ffffffffffffffffffffffffffffffffffffffff166313f44d10336040518263ffffffff1660e01b815260040161184991906126da565b602060405180830381865afa158015611866573d6000803e3d6000fd5b505050506040513d601f19601f8201168201806040525081019061188a9190612721565b6118c9576040517f08c379a00000000000000000000000000000000000000000000000000000000081526004016118c0906127ab565b60405180910390fd5b600160009054906101000a900473ffffffffffffffffffffffffffffffffffffffff1673ffffffffffffffffffffffffffffffffffffffff1663b8e51787846040518263ffffffff1660e01b815260040161192491906120f8565b600060405180830381865afa158015611941573d6000803e3d6000fd5b505050506040513d6000823e3d601f19601f8201168201806040525081019061196a9190612aca565b6020015160e00151600160009054906101000a900473ffffffffffffffffffffffffffffffffffffffff1673ffffffffffffffffffffffffffffffffffffffff1663b8e51787856040518263ffffffff1660e01b81526004016119cd91906120f8565b600060405180830381865afa1580156119ea573d6000803e3d6000fd5b505050506040513d6000823e3d601f19601f82011682018060405250810190611a139190612aca565b60200151610100015191509150915091565b60008054906101000a900473ffffffffffffffffffffffffffffffffffffffff1673ffffffffffffffffffffffffffffffffffffffff166313f44d10336040518263ffffffff1660e01b8152600401611a7e91906126da565b602060405180830381865afa158015611a9b573d6000803e3d6000fd5b505050506040513d601f19601f82011682018060405250810190611abf9190612721565b611afe576040517f08c379a0000000000000000000000000000000000000000000000000000000008152600401611af5906127ab565b60405180910390fd5b600160009054906101000a900473ffffffffffffffffffffffffffffffffffffffff1673ffffffffffffffffffffffffffffffffffffffff1663ecd8a67783836040518363ffffffff1660e01b8152600401611b5b92919061224e565b600060405180830381600087803b158015611b7557600080fd5b505af1158015611b89573d6000803e3d6000fd5b505050505050565b606060008054906101000a900473ffffffffffffffffffffffffffffffffffffffff1673ffffffffffffffffffffffffffffffffffffffff166313f44d10336040518263ffffffff1660e01b8152600401611bec91906126da565b602060405180830381865afa158015611c09573d6000803e3d6000fd5b505050506040513d601f19601f82011682018060405250810190611c2d9190612721565b611c6c576040517f08c379a0000000000000000000000000000000000000000000000000000000008152600401611c63906127ab565b60405180910390fd5b600160009054906101000a900473ffffffffffffffffffffffffffffffffffffffff1673ffffffffffffffffffffffffffffffffffffffff1663ed373249836040518263ffffffff1660e01b8152600401611cc791906120f8565b600060405180830381865afa158015611ce4573d6000803e3d6000fd5b505050506040513d6000823e3d601f19601f82011682018060405250810190611d0d9190612bd6565b9050919050565b60008060009054906101000a900473ffffffffffffffffffffffffffffffffffffffff1673ffffffffffffffffffffffffffffffffffffffff166313f44d10336040518263ffffffff1660e01b8152600401611d7091906126da565b602060405180830381865afa158015611d8d573d6000803e3d6000fd5b505050506040513d601f19601f82011682018060405250810190611db19190612721565b611df0576040517f08c379a0000000000000000000000000000000000000000000000000000000008152600401611de7906127ab565b60405180910390fd5b600160009054906101000a900473ffffffffffffffffffffffffffffffffffffffff1673ffffffffffffffffffffffffffffffffffffffff1663b8e51787836040518263ffffffff1660e01b8152600401611e4b91906120f8565b600060405180830381865afa158015611e68573d6000803e3d6000fd5b505050506040513d6000823e3d601f19601f82011682018060405250810190611e919190612aca565b60200151606001519050919050565b611ea8611ff8565b60405180602001604052806001815250905090565b600080611eca8484611f61565b1215905092915050565b600082511181604051602001611eea91906130fe565b60405160208183030381529060405290611f3a576040517f08c379a0000000000000000000000000000000000000000000000000000000008152600401611f319190613159565b60405180910390fd5b505050565b6000816000016000815480929190611f5690613001565b919050559050919050565b600080600090505b8251811015611fad5783838281518110611f8657611f85612c1f565b5b602002602001015103611f9c5780915050611fd2565b80611fa690613001565b9050611f69565b507fffffffffffffffffffffffffffffffffffffffffffffffffffffffffffffffff90505b92915050565b604051806040016040528060008152602001611ff261200b565b81525090565b6040518060200160405280600081525090565b604051806101400160405280606081526020016000815260200160608152602001600060018111156120405761203f612413565b5b815260200160008152602001600081526020016000151581526020016000815260200160008152602001600081525090565b6000604051905090565b600080fd5b600080fd5b6000819050919050565b61209981612086565b81146120a457600080fd5b50565b6000813590506120b681612090565b92915050565b6000602082840312156120d2576120d161207c565b5b60006120e0848285016120a7565b91505092915050565b6120f281612086565b82525050565b600060208201905061210d60008301846120e9565b92915050565b6000806040838503121561212a5761212961207c565b5b6000612138858286016120a7565b9250506020612149858286016120a7565b9150509250929050565b60008115159050919050565b61216881612153565b82525050565b6000602082019050612183600083018461215f565b92915050565b600080fd5b600080fd5b600080fd5b60008083601f8401126121ae576121ad612189565b5b8235905067ffffffffffffffff8111156121cb576121ca61218e565b5b6020830191508360208202830111156121e7576121e6612193565b5b9250929050565b6000806000604084860312156122075761220661207c565b5b6000612215868287016120a7565b935050602084013567ffffffffffffffff81111561223657612235612081565b5b61224286828701612198565b92509250509250925092565b600060408201905061226360008301856120e9565b61227060208301846120e9565b9392505050565b600081519050919050565b600082825260208201905092915050565b6000819050602082019050919050565b6122ac81612086565b82525050565b60006122be83836122a3565b60208301905092915050565b6000602082019050919050565b60006122e282612277565b6122ec8185612282565b93506122f783612293565b8060005b8381101561232857815161230f88826122b2565b975061231a836122ca565b9250506001810190506122fb565b5085935050505092915050565b6000602082019050818103600083015261234f81846122d7565b905092915050565b600081519050919050565b600082825260208201905092915050565b6000819050602082019050919050565b600081519050919050565b600082825260208201905092915050565b60005b838110156123bd5780820151818401526020810190506123a2565b60008484015250505050565b6000601f19601f8301169050919050565b60006123e582612383565b6123ef818561238e565b93506123ff81856020860161239f565b612408816123c9565b840191505092915050565b7f4e487b7100000000000000000000000000000000000000000000000000000000600052602160045260246000fd5b6002811061245357612452612413565b5b50565b600081905061246482612442565b919050565b600061247482612456565b9050919050565b61248481612469565b82525050565b61249381612153565b82525050565b60006101408301600083015184820360008601526124b782826123da565b91505060208301516124cc60208601826122a3565b50604083015184820360408601526124e482826123da565b91505060608301516124f9606086018261247b565b50608083015161250c60808601826122a3565b5060a083015161251f60a08601826122a3565b5060c083015161253260c086018261248a565b5060e083015161254560e08601826122a3565b5061010083015161255a6101008601826122a3565b5061012083015161256f6101208601826122a3565b508091505092915050565b600060408301600083015161259260008601826122a3565b50602083015184820360208601526125aa8282612499565b9150508091505092915050565b60006125c3838361257a565b905092915050565b6000602082019050919050565b60006125e382612357565b6125ed8185612362565b9350836020820285016125ff85612373565b8060005b8581101561263b578484038952815161261c85826125b7565b9450612627836125cb565b925060208a01995050600181019050612603565b50829750879550505050505092915050565b6000602082019050818103600083015261266781846125d8565b905092915050565b61267881612469565b82525050565b6000602082019050612693600083018461266f565b92915050565b600073ffffffffffffffffffffffffffffffffffffffff82169050919050565b60006126c482612699565b9050919050565b6126d4816126b9565b82525050565b60006020820190506126ef60008301846126cb565b92915050565b6126fe81612153565b811461270957600080fd5b50565b60008151905061271b816126f5565b92915050565b6000602082840312156127375761273661207c565b5b60006127458482850161270c565b91505092915050565b600082825260208201905092915050565b7f5468652073656e646572206973206e6f742077686974656c6973746564000000600082015250565b6000612795601d8361274e565b91506127a08261275f565b602082019050919050565b600060208201905081810360008301526127c481612788565b9050919050565b600080fd5b7f4e487b7100000000000000000000000000000000000000000000000000000000600052604160045260246000fd5b612808826123c9565b810181811067ffffffffffffffff82111715612827576128266127d0565b5b80604052505050565b600061283a612072565b905061284682826127ff565b919050565b600080fd5b60008151905061285f81612090565b92915050565b600080fd5b600067ffffffffffffffff821115612885576128846127d0565b5b61288e826123c9565b9050602081019050919050565b60006128ae6128a98461286a565b612830565b9050828152602081018484840111156128ca576128c9612865565b5b6128d584828561239f565b509392505050565b600082601f8301126128f2576128f1612189565b5b815161290284826020860161289b565b91505092915050565b6002811061291857600080fd5b50565b60008151905061292a8161290b565b92915050565b60006101408284031215612947576129466127cb565b5b612952610140612830565b9050600082015167ffffffffffffffff8111156129725761297161284b565b5b61297e848285016128dd565b600083015250602061299284828501612850565b602083015250604082015167ffffffffffffffff8111156129b6576129b561284b565b5b6129c2848285016128dd565b60408301525060606129d68482850161291b565b60608301525060806129ea84828501612850565b60808301525060a06129fe84828501612850565b60a08301525060c0612a128482850161270c565b60c08301525060e0612a2684828501612850565b60e083015250610100612a3b84828501612850565b61010083015250610120612a5184828501612850565b6101208301525092915050565b600060408284031215612a7457612a736127cb565b5b612a7e6040612830565b90506000612a8e84828501612850565b600083015250602082015167ffffffffffffffff811115612ab257612ab161284b565b5b612abe84828501612930565b60208301525092915050565b600060208284031215612ae057612adf61207c565b5b600082015167ffffffffffffffff811115612afe57612afd612081565b5b612b0a84828501612a5e565b91505092915050565b600067ffffffffffffffff821115612b2e57612b2d6127d0565b5b602082029050602081019050919050565b6000612b52612b4d84612b13565b612830565b90508083825260208201905060208402830185811115612b7557612b74612193565b5b835b81811015612b9e5780612b8a8882612850565b845260208401935050602081019050612b77565b5050509392505050565b600082601f830112612bbd57612bbc612189565b5b8151612bcd848260208601612b3f565b91505092915050565b600060208284031215612bec57612beb61207c565b5b600082015167ffffffffffffffff811115612c0a57612c09612081565b5b612c1684828501612ba8565b91505092915050565b7f4e487b7100000000000000000000000000000000000000000000000000000000600052603260045260246000fd5b600080fd5b600080fd5b600080fd5b60008235600161014003833603038112612c7a57612c79612c4e565b5b80830191505092915050565b60008083356001602003843603038112612ca357612ca2612c4e565b5b80840192508235915067ffffffffffffffff821115612cc557612cc4612c53565b5b602083019250600182023603831315612ce157612ce0612c58565b5b509250929050565b7f4d696e20706f696e74732063616e6e6f7420626520686967686572207468616e60008201527f206d617820706f696e7473000000000000000000000000000000000000000000602082015250565b6000612d45602b8361274e565b9150612d5082612ce9565b604082019050919050565b60006020820190508181036000830152612d7481612d38565b9050919050565b82818337600083830152505050565b6000612d9d612d988461286a565b612830565b905082815260208101848484011115612db957612db8612865565b5b612dc4848285612d7b565b509392505050565b600082601f830112612de157612de0612189565b5b8135612df1848260208601612d8a565b91505092915050565b600081359050612e098161290b565b92915050565b600081359050612e1e816126f5565b92915050565b60006101408284031215612e3b57612e3a6127cb565b5b612e46610140612830565b9050600082013567ffffffffffffffff811115612e6657612e6561284b565b5b612e7284828501612dcc565b6000830152506020612e86848285016120a7565b602083015250604082013567ffffffffffffffff811115612eaa57612ea961284b565b5b612eb684828501612dcc565b6040830152506060612eca84828501612dfa565b6060830152506080612ede848285016120a7565b60808301525060a0612ef2848285016120a7565b60a08301525060c0612f0684828501612e0f565b60c08301525060e0612f1a848285016120a7565b60e083015250610100612f2f848285016120a7565b61010083015250610120612f45848285016120a7565b6101208301525092915050565b6000612f5e3683612e24565b9050919050565b6000604083016000830151612f7d60008601826122a3565b5060208301518482036020860152612f958282612499565b9150508091505092915050565b6000604082019050612fb760008301856120e9565b8181036020830152612fc98184612f65565b90509392505050565b7f4e487b7100000000000000000000000000000000000000000000000000000000600052601160045260246000fd5b600061300c82612086565b91507fffffffffffffffffffffffffffffffffffffffffffffffffffffffffffffffff820361303e5761303d612fd2565b5b600182019050919050565b60006020828403121561305f5761305e61207c565b5b600061306d84828501612850565b91505092915050565b600081905092915050565b600061308c82612383565b6130968185613076565b93506130a681856020860161239f565b80840191505092915050565b7f2063616e6e6f7420626520656d70747900000000000000000000000000000000600082015250565b60006130e8601083613076565b91506130f3826130b2565b601082019050919050565b600061310a8284613081565b9150613115826130db565b915081905092915050565b600061312b82612383565b613135818561274e565b935061314581856020860161239f565b61314e816123c9565b840191505092915050565b600060208201905081810360008301526131738184613120565b90509291505056fea26469706673582212204929c8fb753c64fb8971a961bc3a2b6f35bd09ed59d018232bd263736beccc2464736f6c63430008110033",
  "linkReferences": {},
  "deployedLinkReferences": {}
}