{
  "_format": "hh-sol-artifact-1",
  "contractName": "AccessWhitelist",
  "sourceName": "contracts/accesscontrol/AccessWhitelist.sol",
  "abi": [
    {
      "inputs": [],
      "stateMutability": "nonpayable",
      "type": "constructor"
    },
    {
      "inputs": [
        {
          "internalType": "address",
          "name": "_address",
          "type": "address"
        }
      ],
      "name": "addAdmin",
      "outputs": [],
      "stateMutability": "nonpayable",
      "type": "function"
    },
    {
      "inputs": [
        {
          "internalType": "address[]",
          "name": "addresses",
          "type": "address[]"
        }
      ],
      "name": "batchAddAdmin",
      "outputs": [],
      "stateMutability": "nonpayable",
      "type": "function"
    },
    {
      "inputs": [
        {
          "internalType": "address[]",
          "name": "addresses",
          "type": "address[]"
        }
      ],
      "name": "batchGrantAccess",
      "outputs": [],
      "stateMutability": "nonpayable",
      "type": "function"
    },
    {
      "inputs": [
        {
          "internalType": "address",
          "name": "_address",
          "type": "address"
        }
      ],
      "name": "grantAccess",
      "outputs": [],
      "stateMutability": "nonpayable",
      "type": "function"
    },
    {
      "inputs": [
        {
          "internalType": "address",
          "name": "_address",
          "type": "address"
        }
      ],
      "name": "isAddressWhitelisted",
      "outputs": [
        {
          "internalType": "bool",
          "name": "",
          "type": "bool"
        }
      ],
      "stateMutability": "view",
      "type": "function"
    },
    {
      "inputs": [
        {
          "internalType": "address",
          "name": "_address",
          "type": "address"
        }
      ],
      "name": "isAdmin",
      "outputs": [
        {
          "internalType": "bool",
          "name": "",
          "type": "bool"
        }
      ],
      "stateMutability": "view",
      "type": "function"
    },
    {
      "inputs": [
        {
          "internalType": "address",
          "name": "_address",
          "type": "address"
        }
      ],
      "name": "removeAdmin",
      "outputs": [],
      "stateMutability": "nonpayable",
      "type": "function"
    },
    {
      "inputs": [
        {
          "internalType": "address",
          "name": "_address",
          "type": "address"
        }
      ],
      "name": "revokeAccess",
      "outputs": [],
      "stateMutability": "nonpayable",
      "type": "function"
    }
  ],
  "bytecode": "0x608060405234801561001057600080fd5b5060016000803373ffffffffffffffffffffffffffffffffffffffff1673ffffffffffffffffffffffffffffffffffffffff16815260200190815260200160002060006101000a81548160ff02191690831515021790555060018060003373ffffffffffffffffffffffffffffffffffffffff1673ffffffffffffffffffffffffffffffffffffffff16815260200190815260200160002060006101000a81548160ff021916908315150217905550610a99806100ce6000396000f3fe608060405234801561001057600080fd5b50600436106100885760003560e01c80632c9ab42b1161005b5780632c9ab42b146101255780636a6e1cb314610141578063704802751461015d57806385e685311461017957610088565b80630ae5e7391461008d57806313f44d10146100a95780631785f53c146100d957806324d7806c146100f5575b600080fd5b6100a760048036038101906100a291906107fb565b610195565b005b6100c360048036038101906100be91906107fb565b61027a565b6040516100d09190610843565b60405180910390f35b6100f360048036038101906100ee91906107fb565b6102d0565b005b61010f600480360381019061010a91906107fb565b6103b5565b60405161011c9190610843565b60405180910390f35b61013f600480360381019061013a91906108c3565b61040a565b005b61015b600480360381019061015691906108c3565b6104e9565b005b610177600480360381019061017291906107fb565b6105c8565b005b610193600480360381019061018e91906107fb565b6106ad565b005b6000803373ffffffffffffffffffffffffffffffffffffffff1673ffffffffffffffffffffffffffffffffffffffff16815260200190815260200160002060009054906101000a900460ff16610220576040517f08c379a000000000000000000000000000000000000000000000000000000000815260040161021790610993565b60405180910390fd5b60018060008373ffffffffffffffffffffffffffffffffffffffff1673ffffffffffffffffffffffffffffffffffffffff16815260200190815260200160002060006101000a81548160ff02191690831515021790555050565b6000600160008373ffffffffffffffffffffffffffffffffffffffff1673ffffffffffffffffffffffffffffffffffffffff16815260200190815260200160002060009054906101000a900460ff169050919050565b6000803373ffffffffffffffffffffffffffffffffffffffff1673ffffffffffffffffffffffffffffffffffffffff16815260200190815260200160002060009054906101000a900460ff1661035b576040517f08c379a000000000000000000000000000000000000000000000000000000000815260040161035290610993565b60405180910390fd5b60008060008373ffffffffffffffffffffffffffffffffffffffff1673ffffffffffffffffffffffffffffffffffffffff16815260200190815260200160002060006101000a81548160ff02191690831515021790555050565b60008060008373ffffffffffffffffffffffffffffffffffffffff1673ffffffffffffffffffffffffffffffffffffffff16815260200190815260200160002060009054906101000a900460ff169050919050565b6000803373ffffffffffffffffffffffffffffffffffffffff1673ffffffffffffffffffffffffffffffffffffffff16815260200190815260200160002060009054906101000a900460ff16610495576040517f08c379a000000000000000000000000000000000000000000000000000000000815260040161048c90610993565b60405180910390fd5b60005b828290508110156104e4576104d38383838181106104b9576104b86109b3565b5b90506020020160208101906104ce91906107fb565b6105c8565b806104dd90610a1b565b9050610498565b505050565b6000803373ffffffffffffffffffffffffffffffffffffffff1673ffffffffffffffffffffffffffffffffffffffff16815260200190815260200160002060009054906101000a900460ff16610574576040517f08c379a000000000000000000000000000000000000000000000000000000000815260040161056b90610993565b60405180910390fd5b60005b828290508110156105c3576105b2838383818110610598576105976109b3565b5b90506020020160208101906105ad91906107fb565b610195565b806105bc90610a1b565b9050610577565b505050565b6000803373ffffffffffffffffffffffffffffffffffffffff1673ffffffffffffffffffffffffffffffffffffffff16815260200190815260200160002060009054906101000a900460ff16610653576040517f08c379a000000000000000000000000000000000000000000000000000000000815260040161064a90610993565b60405180910390fd5b60016000808373ffffffffffffffffffffffffffffffffffffffff1673ffffffffffffffffffffffffffffffffffffffff16815260200190815260200160002060006101000a81548160ff02191690831515021790555050565b6000803373ffffffffffffffffffffffffffffffffffffffff1673ffffffffffffffffffffffffffffffffffffffff16815260200190815260200160002060009054906101000a900460ff16610738576040517f08c379a000000000000000000000000000000000000000000000000000000000815260040161072f90610993565b60405180910390fd5b6000600160008373ffffffffffffffffffffffffffffffffffffffff1673ffffffffffffffffffffffffffffffffffffffff16815260200190815260200160002060006101000a81548160ff02191690831515021790555050565b600080fd5b600080fd5b600073ffffffffffffffffffffffffffffffffffffffff82169050919050565b60006107c88261079d565b9050919050565b6107d8816107bd565b81146107e357600080fd5b50565b6000813590506107f5816107cf565b92915050565b60006020828403121561081157610810610793565b5b600061081f848285016107e6565b91505092915050565b60008115159050919050565b61083d81610828565b82525050565b60006020820190506108586000830184610834565b92915050565b600080fd5b600080fd5b600080fd5b60008083601f8401126108835761088261085e565b5b8235905067ffffffffffffffff8111156108a05761089f610863565b5b6020830191508360208202830111156108bc576108bb610868565b5b9250929050565b600080602083850312156108da576108d9610793565b5b600083013567ffffffffffffffff8111156108f8576108f7610798565b5b6109048582860161086d565b92509250509250929050565b600082825260208201905092915050565b7f4f6e6c792061646d696e206164647265737365732063616e2063616c6c20746860008201527f69732066756e6374696f6e000000000000000000000000000000000000000000602082015250565b600061097d602b83610910565b915061098882610921565b604082019050919050565b600060208201905081810360008301526109ac81610970565b9050919050565b7f4e487b7100000000000000000000000000000000000000000000000000000000600052603260045260246000fd5b7f4e487b7100000000000000000000000000000000000000000000000000000000600052601160045260246000fd5b6000819050919050565b6000610a2682610a11565b91507fffffffffffffffffffffffffffffffffffffffffffffffffffffffffffffffff8203610a5857610a576109e2565b5b60018201905091905056fea2646970667358221220b73068e057c184ac79842b7a688d4380e6d7fce55a666a176fbf24fe5e19ace064736f6c63430008110033",
  "linkReferences": {},
  "deployedLinkReferences": {}
}