{
  "_format": "hh-sol-artifact-1",
  "contractName": "AccessWhitelist",
  "sourceName": "contracts/accesscontrol/AccessWhitelist.sol",
  "abi": [
    {
      "inputs": [],
      "stateMutability": "nonpayable",
      "type": "constructor"
    },
    {
      "inputs": [
        {
          "internalType": "address",
          "name": "_address",
          "type": "address"
        }
      ],
      "name": "addAdmin",
      "outputs": [],
      "stateMutability": "nonpayable",
      "type": "function"
    },
    {
      "inputs": [
        {
          "internalType": "address[]",
          "name": "addresses",
          "type": "address[]"
        }
      ],
      "name": "batchAddAdmin",
      "outputs": [],
      "stateMutability": "nonpayable",
      "type": "function"
    },
    {
      "inputs": [
        {
          "internalType": "address[]",
          "name": "addresses",
          "type": "address[]"
        }
      ],
      "name": "batchGrantAccess",
      "outputs": [],
      "stateMutability": "nonpayable",
      "type": "function"
    },
    {
      "inputs": [
        {
          "internalType": "address",
          "name": "_address",
          "type": "address"
        }
      ],
      "name": "grantAccess",
      "outputs": [],
      "stateMutability": "nonpayable",
      "type": "function"
    },
    {
      "inputs": [
        {
          "internalType": "address",
          "name": "_address",
          "type": "address"
        }
      ],
      "name": "isAddressWhitelisted",
      "outputs": [
        {
          "internalType": "bool",
          "name": "",
          "type": "bool"
        }
      ],
      "stateMutability": "view",
      "type": "function"
    },
    {
      "inputs": [
        {
          "internalType": "address",
          "name": "_address",
          "type": "address"
        }
      ],
      "name": "removeAdmin",
      "outputs": [],
      "stateMutability": "nonpayable",
      "type": "function"
    },
    {
      "inputs": [
        {
          "internalType": "address",
          "name": "_address",
          "type": "address"
        }
      ],
      "name": "revokeAccess",
      "outputs": [],
      "stateMutability": "nonpayable",
      "type": "function"
    }
  ],
  "bytecode": "0x608060405234801561001057600080fd5b5060016000803373ffffffffffffffffffffffffffffffffffffffff1673ffffffffffffffffffffffffffffffffffffffff16815260200190815260200160002060006101000a81548160ff02191690831515021790555060018060003373ffffffffffffffffffffffffffffffffffffffff1673ffffffffffffffffffffffffffffffffffffffff16815260200190815260200160002060006101000a81548160ff021916908315150217905550610a09806100ce6000396000f3fe608060405234801561001057600080fd5b506004361061007d5760003560e01c80632c9ab42b1161005b5780632c9ab42b146100ea5780636a6e1cb314610106578063704802751461012257806385e685311461013e5761007d565b80630ae5e7391461008257806313f44d101461009e5780631785f53c146100ce575b600080fd5b61009c6004803603810190610097919061076b565b61015a565b005b6100b860048036038101906100b3919061076b565b61023f565b6040516100c591906107b3565b60405180910390f35b6100e860048036038101906100e3919061076b565b610295565b005b61010460048036038101906100ff9190610833565b61037a565b005b610120600480360381019061011b9190610833565b610459565b005b61013c6004803603810190610137919061076b565b610538565b005b6101586004803603810190610153919061076b565b61061d565b005b6000803373ffffffffffffffffffffffffffffffffffffffff1673ffffffffffffffffffffffffffffffffffffffff16815260200190815260200160002060009054906101000a900460ff166101e5576040517f08c379a00000000000000000000000000000000000000000000000000000000081526004016101dc90610903565b60405180910390fd5b60018060008373ffffffffffffffffffffffffffffffffffffffff1673ffffffffffffffffffffffffffffffffffffffff16815260200190815260200160002060006101000a81548160ff02191690831515021790555050565b6000600160008373ffffffffffffffffffffffffffffffffffffffff1673ffffffffffffffffffffffffffffffffffffffff16815260200190815260200160002060009054906101000a900460ff169050919050565b6000803373ffffffffffffffffffffffffffffffffffffffff1673ffffffffffffffffffffffffffffffffffffffff16815260200190815260200160002060009054906101000a900460ff16610320576040517f08c379a000000000000000000000000000000000000000000000000000000000815260040161031790610903565b60405180910390fd5b60008060008373ffffffffffffffffffffffffffffffffffffffff1673ffffffffffffffffffffffffffffffffffffffff16815260200190815260200160002060006101000a81548160ff02191690831515021790555050565b6000803373ffffffffffffffffffffffffffffffffffffffff1673ffffffffffffffffffffffffffffffffffffffff16815260200190815260200160002060009054906101000a900460ff16610405576040517f08c379a00000000000000000000000000000000000000000000000000000000081526004016103fc90610903565b60405180910390fd5b60005b828290508110156104545761044383838381811061042957610428610923565b5b905060200201602081019061043e919061076b565b610538565b8061044d9061098b565b9050610408565b505050565b6000803373ffffffffffffffffffffffffffffffffffffffff1673ffffffffffffffffffffffffffffffffffffffff16815260200190815260200160002060009054906101000a900460ff166104e4576040517f08c379a00000000000000000000000000000000000000000000000000000000081526004016104db90610903565b60405180910390fd5b60005b828290508110156105335761052283838381811061050857610507610923565b5b905060200201602081019061051d919061076b565b61015a565b8061052c9061098b565b90506104e7565b505050565b6000803373ffffffffffffffffffffffffffffffffffffffff1673ffffffffffffffffffffffffffffffffffffffff16815260200190815260200160002060009054906101000a900460ff166105c3576040517f08c379a00000000000000000000000000000000000000000000000000000000081526004016105ba90610903565b60405180910390fd5b60016000808373ffffffffffffffffffffffffffffffffffffffff1673ffffffffffffffffffffffffffffffffffffffff16815260200190815260200160002060006101000a81548160ff02191690831515021790555050565b6000803373ffffffffffffffffffffffffffffffffffffffff1673ffffffffffffffffffffffffffffffffffffffff16815260200190815260200160002060009054906101000a900460ff166106a8576040517f08c379a000000000000000000000000000000000000000000000000000000000815260040161069f90610903565b60405180910390fd5b6000600160008373ffffffffffffffffffffffffffffffffffffffff1673ffffffffffffffffffffffffffffffffffffffff16815260200190815260200160002060006101000a81548160ff02191690831515021790555050565b600080fd5b600080fd5b600073ffffffffffffffffffffffffffffffffffffffff82169050919050565b60006107388261070d565b9050919050565b6107488161072d565b811461075357600080fd5b50565b6000813590506107658161073f565b92915050565b60006020828403121561078157610780610703565b5b600061078f84828501610756565b91505092915050565b60008115159050919050565b6107ad81610798565b82525050565b60006020820190506107c860008301846107a4565b92915050565b600080fd5b600080fd5b600080fd5b60008083601f8401126107f3576107f26107ce565b5b8235905067ffffffffffffffff8111156108105761080f6107d3565b5b60208301915083602082028301111561082c5761082b6107d8565b5b9250929050565b6000806020838503121561084a57610849610703565b5b600083013567ffffffffffffffff81111561086857610867610708565b5b610874858286016107dd565b92509250509250929050565b600082825260208201905092915050565b7f4f6e6c792061646d696e206164647265737365732063616e2063616c6c20746860008201527f69732066756e6374696f6e000000000000000000000000000000000000000000602082015250565b60006108ed602b83610880565b91506108f882610891565b604082019050919050565b6000602082019050818103600083015261091c816108e0565b9050919050565b7f4e487b7100000000000000000000000000000000000000000000000000000000600052603260045260246000fd5b7f4e487b7100000000000000000000000000000000000000000000000000000000600052601160045260246000fd5b6000819050919050565b600061099682610981565b91507fffffffffffffffffffffffffffffffffffffffffffffffffffffffffffffffff82036109c8576109c7610952565b5b60018201905091905056fea26469706673582212206721eff62b2c849754bef04c1948603a71d61b40b582e3987db38d78f5b3bd3264736f6c63430008110033",
  "linkReferences": {},
  "deployedLinkReferences": {}
}