{
  "_format": "hh-sol-artifact-1",
  "contractName": "PerformanceStorage",
  "sourceName": "contracts/data/storage/performance/PerformanceStorage.sol",
  "abi": [
    {
      "inputs": [
        {
          "internalType": "address",
          "name": "accessWhitelistAddress",
          "type": "address"
        }
      ],
      "stateMutability": "nonpayable",
      "type": "constructor"
    },
    {
      "inputs": [
        {
          "internalType": "uint256",
          "name": "uId",
          "type": "uint256"
        },
        {
          "internalType": "uint256",
          "name": "assessmentId",
          "type": "uint256"
        }
      ],
      "name": "getEvaluation",
      "outputs": [
        {
          "components": [
            {
              "internalType": "bool",
              "name": "isSet",
              "type": "bool"
            },
            {
              "internalType": "uint256",
              "name": "datetime",
              "type": "uint256"
            },
            {
              "internalType": "uint256",
              "name": "achievedPoints",
              "type": "uint256"
            },
            {
              "internalType": "string",
              "name": "feedback",
              "type": "string"
            },
            {
              "internalType": "uint256",
              "name": "lecturerUId",
              "type": "uint256"
            }
          ],
          "internalType": "struct PerformanceDataTypes.Evaluation",
          "name": "",
          "type": "tuple"
        }
      ],
      "stateMutability": "view",
      "type": "function"
    },
    {
      "inputs": [
        {
          "internalType": "uint256",
          "name": "uId",
          "type": "uint256"
        },
        {
          "internalType": "uint256",
          "name": "assessmentId",
          "type": "uint256"
        }
      ],
      "name": "getEvaluationIfSet",
      "outputs": [
        {
          "internalType": "bool",
          "name": "",
          "type": "bool"
        },
        {
          "components": [
            {
              "internalType": "bool",
              "name": "isSet",
              "type": "bool"
            },
            {
              "internalType": "uint256",
              "name": "datetime",
              "type": "uint256"
            },
            {
              "internalType": "uint256",
              "name": "achievedPoints",
              "type": "uint256"
            },
            {
              "internalType": "string",
              "name": "feedback",
              "type": "string"
            },
            {
              "internalType": "uint256",
              "name": "lecturerUId",
              "type": "uint256"
            }
          ],
          "internalType": "struct PerformanceDataTypes.Evaluation",
          "name": "",
          "type": "tuple"
        }
      ],
      "stateMutability": "view",
      "type": "function"
    },
    {
      "inputs": [
        {
          "internalType": "uint256",
          "name": "uId",
          "type": "uint256"
        },
        {
          "internalType": "uint256",
          "name": "assessmentId",
          "type": "uint256"
        }
      ],
      "name": "getExamAttendance",
      "outputs": [
        {
          "components": [
            {
              "internalType": "bool",
              "name": "isSet",
              "type": "bool"
            },
            {
              "internalType": "bool",
              "name": "hasAttended",
              "type": "bool"
            },
            {
              "internalType": "uint256",
              "name": "confirmationDateTime",
              "type": "uint256"
            }
          ],
          "internalType": "struct PerformanceDataTypes.ExamAttendance",
          "name": "",
          "type": "tuple"
        }
      ],
      "stateMutability": "view",
      "type": "function"
    },
    {
      "inputs": [
        {
          "internalType": "uint256",
          "name": "uId",
          "type": "uint256"
        },
        {
          "internalType": "uint256",
          "name": "assessmentId",
          "type": "uint256"
        }
      ],
      "name": "getExamAttendanceIfSet",
      "outputs": [
        {
          "internalType": "bool",
          "name": "",
          "type": "bool"
        },
        {
          "components": [
            {
              "internalType": "bool",
              "name": "isSet",
              "type": "bool"
            },
            {
              "internalType": "bool",
              "name": "hasAttended",
              "type": "bool"
            },
            {
              "internalType": "uint256",
              "name": "confirmationDateTime",
              "type": "uint256"
            }
          ],
          "internalType": "struct PerformanceDataTypes.ExamAttendance",
          "name": "",
          "type": "tuple"
        }
      ],
      "stateMutability": "view",
      "type": "function"
    },
    {
      "inputs": [
        {
          "internalType": "uint256",
          "name": "uId",
          "type": "uint256"
        },
        {
          "internalType": "uint256",
          "name": "assessmentId",
          "type": "uint256"
        }
      ],
      "name": "getSubmission",
      "outputs": [
        {
          "components": [
            {
              "internalType": "bool",
              "name": "isSet",
              "type": "bool"
            },
            {
              "internalType": "uint256",
              "name": "submissionDatetime",
              "type": "uint256"
            },
            {
              "internalType": "string[]",
              "name": "documentHashes",
              "type": "string[]"
            }
          ],
          "internalType": "struct PerformanceDataTypes.Submission",
          "name": "",
          "type": "tuple"
        }
      ],
      "stateMutability": "view",
      "type": "function"
    },
    {
      "inputs": [
        {
          "internalType": "uint256",
          "name": "uId",
          "type": "uint256"
        },
        {
          "internalType": "uint256",
          "name": "assessmentId",
          "type": "uint256"
        }
      ],
      "name": "getSubmissionIfSet",
      "outputs": [
        {
          "internalType": "bool",
          "name": "",
          "type": "bool"
        },
        {
          "components": [
            {
              "internalType": "bool",
              "name": "isSet",
              "type": "bool"
            },
            {
              "internalType": "uint256",
              "name": "submissionDatetime",
              "type": "uint256"
            },
            {
              "internalType": "string[]",
              "name": "documentHashes",
              "type": "string[]"
            }
          ],
          "internalType": "struct PerformanceDataTypes.Submission",
          "name": "",
          "type": "tuple"
        }
      ],
      "stateMutability": "view",
      "type": "function"
    },
    {
      "inputs": [
        {
          "internalType": "uint256",
          "name": "uId",
          "type": "uint256"
        },
        {
          "internalType": "uint256",
          "name": "assessmentId",
          "type": "uint256"
        },
        {
          "components": [
            {
              "internalType": "bool",
              "name": "isSet",
              "type": "bool"
            },
            {
              "internalType": "uint256",
              "name": "datetime",
              "type": "uint256"
            },
            {
              "internalType": "uint256",
              "name": "achievedPoints",
              "type": "uint256"
            },
            {
              "internalType": "string",
              "name": "feedback",
              "type": "string"
            },
            {
              "internalType": "uint256",
              "name": "lecturerUId",
              "type": "uint256"
            }
          ],
          "internalType": "struct PerformanceDataTypes.Evaluation",
          "name": "evaluation",
          "type": "tuple"
        }
      ],
      "name": "storeEvaluation",
      "outputs": [],
      "stateMutability": "nonpayable",
      "type": "function"
    },
    {
      "inputs": [
        {
          "internalType": "uint256",
          "name": "uId",
          "type": "uint256"
        },
        {
          "internalType": "uint256",
          "name": "assessmentId",
          "type": "uint256"
        },
        {
          "components": [
            {
              "internalType": "bool",
              "name": "isSet",
              "type": "bool"
            },
            {
              "internalType": "bool",
              "name": "hasAttended",
              "type": "bool"
            },
            {
              "internalType": "uint256",
              "name": "confirmationDateTime",
              "type": "uint256"
            }
          ],
          "internalType": "struct PerformanceDataTypes.ExamAttendance",
          "name": "examAttendance",
          "type": "tuple"
        }
      ],
      "name": "storeExamAttendance",
      "outputs": [],
      "stateMutability": "nonpayable",
      "type": "function"
    },
    {
      "inputs": [
        {
          "internalType": "uint256",
          "name": "uId",
          "type": "uint256"
        },
        {
          "internalType": "uint256",
          "name": "assessmentId",
          "type": "uint256"
        },
        {
          "components": [
            {
              "internalType": "bool",
              "name": "isSet",
              "type": "bool"
            },
            {
              "internalType": "uint256",
              "name": "submissionDatetime",
              "type": "uint256"
            },
            {
              "internalType": "string[]",
              "name": "documentHashes",
              "type": "string[]"
            }
          ],
          "internalType": "struct PerformanceDataTypes.Submission",
          "name": "submission",
          "type": "tuple"
        }
      ],
      "name": "storeSubmission",
      "outputs": [],
      "stateMutability": "nonpayable",
      "type": "function"
    }
  ],
  "bytecode": "0x60806040523480156200001157600080fd5b5060405162002acd38038062002acd8339818101604052810190620000379190620000ec565b8080806000806101000a81548173ffffffffffffffffffffffffffffffffffffffff021916908373ffffffffffffffffffffffffffffffffffffffff1602179055505050506200011e565b600080fd5b600073ffffffffffffffffffffffffffffffffffffffff82169050919050565b6000620000b48262000087565b9050919050565b620000c681620000a7565b8114620000d257600080fd5b50565b600081519050620000e681620000bb565b92915050565b60006020828403121562000105576200010462000082565b5b60006200011584828501620000d5565b91505092915050565b61299f806200012e6000396000f3fe608060405234801561001057600080fd5b50600436106100935760003560e01c80637241bf62116100665780637241bf6214610131578063b7ed70711461014d578063c51e6e471461017d578063caed9c65146101ae578063fdd3f036146101df57610093565b80631359e12a146100985780631f0884ea146100c95780634c37c9cf146100e55780635e4a739214610101575b600080fd5b6100b260048036038101906100ad9190611686565b61020f565b6040516100c0929190611741565b60405180910390f35b6100e360048036038101906100de919061178e565b61038c565b005b6100ff60048036038101906100fa919061181c565b61058f565b005b61011b60048036038101906101169190611686565b610792565b6040516101289190611991565b60405180910390f35b61014b600480360381019061014691906119d2565b6109e8565b005b61016760048036038101906101629190611686565b610beb565b6040516101749190611b37565b60405180910390f35b61019760048036038101906101929190611686565b610e74565b6040516101a5929190611b59565b60405180910390f35b6101c860048036038101906101c39190611686565b6110af565b6040516101d6929190611b89565b60405180910390f35b6101f960048036038101906101f49190611686565b6112b7565b6040516102069190611bb9565b60405180910390f35b60006102196115cd565b60008054906101000a900473ffffffffffffffffffffffffffffffffffffffff1673ffffffffffffffffffffffffffffffffffffffff166313f44d10336040518263ffffffff1660e01b81526004016102729190611c15565b602060405180830381865afa15801561028f573d6000803e3d6000fd5b505050506040513d601f19601f820116820180604052508101906102b39190611c5c565b6102f2576040517f08c379a00000000000000000000000000000000000000000000000000000000081526004016102e990611ce6565b60405180910390fd5b60006002600086815260200190815260200160002060008581526020019081526020016000206040518060600160405290816000820160009054906101000a900460ff161515151581526020016000820160019054906101000a900460ff16151515158152602001600182015481525050905080600001511561037c576001819250925050610385565b60008192509250505b9250929050565b60008054906101000a900473ffffffffffffffffffffffffffffffffffffffff1673ffffffffffffffffffffffffffffffffffffffff166313f44d10336040518263ffffffff1660e01b81526004016103e59190611c15565b602060405180830381865afa158015610402573d6000803e3d6000fd5b505050506040513d601f19601f820116820180604052508101906104269190611c5c565b610465576040517f08c379a000000000000000000000000000000000000000000000000000000000815260040161045c90611ce6565b60405180910390fd5b6104a4836040518060400160405280600381526020017f7549440000000000000000000000000000000000000000000000000000000000815250611482565b6104e3826040518060400160405280600d81526020017f4173736573736d656e7420494400000000000000000000000000000000000000815250611482565b61055660016000858152602001908152602001600020600084815260200190815260200160002060000160009054906101000a900460ff166040518060400160405280600a81526020017f5375626d697373696f6e000000000000000000000000000000000000000000008152506114f1565b80600160008581526020019081526020016000206000848152602001908152602001600020818161058791906125fa565b905050505050565b60008054906101000a900473ffffffffffffffffffffffffffffffffffffffff1673ffffffffffffffffffffffffffffffffffffffff166313f44d10336040518263ffffffff1660e01b81526004016105e89190611c15565b602060405180830381865afa158015610605573d6000803e3d6000fd5b505050506040513d601f19601f820116820180604052508101906106299190611c5c565b610668576040517f08c379a000000000000000000000000000000000000000000000000000000000815260040161065f90611ce6565b60405180910390fd5b6106a7836040518060400160405280600381526020017f7549440000000000000000000000000000000000000000000000000000000000815250611482565b6106e6826040518060400160405280600d81526020017f4173736573736d656e7420494400000000000000000000000000000000000000815250611482565b61075960036000858152602001908152602001600020600084815260200190815260200160002060000160009054906101000a900460ff166040518060400160405280600a81526020017f4576616c756174696f6e000000000000000000000000000000000000000000008152506114f1565b80600360008581526020019081526020016000206000848152602001908152602001600020818161078a91906126b1565b905050505050565b61079a6115f2565b60008054906101000a900473ffffffffffffffffffffffffffffffffffffffff1673ffffffffffffffffffffffffffffffffffffffff166313f44d10336040518263ffffffff1660e01b81526004016107f39190611c15565b602060405180830381865afa158015610810573d6000803e3d6000fd5b505050506040513d601f19601f820116820180604052508101906108349190611c5c565b610873576040517f08c379a000000000000000000000000000000000000000000000000000000000815260040161086a90611ce6565b60405180910390fd5b6108e660036000858152602001908152602001600020600084815260200190815260200160002060000160009054906101000a900460ff166040518060400160405280600a81526020017f4576616c756174696f6e00000000000000000000000000000000000000000000815250611559565b6003600084815260200190815260200160002060008381526020019081526020016000206040518060a00160405290816000820160009054906101000a900460ff16151515158152602001600182015481526020016002820154815260200160038201805461095490611fdd565b80601f016020809104026020016040519081016040528092919081815260200182805461098090611fdd565b80156109cd5780601f106109a2576101008083540402835291602001916109cd565b820191906000526020600020905b8154815290600101906020018083116109b057829003601f168201915b50505050508152602001600482015481525050905092915050565b60008054906101000a900473ffffffffffffffffffffffffffffffffffffffff1673ffffffffffffffffffffffffffffffffffffffff166313f44d10336040518263ffffffff1660e01b8152600401610a419190611c15565b602060405180830381865afa158015610a5e573d6000803e3d6000fd5b505050506040513d601f19601f82011682018060405250810190610a829190611c5c565b610ac1576040517f08c379a0000000000000000000000000000000000000000000000000000000008152600401610ab890611ce6565b60405180910390fd5b610b00836040518060400160405280600381526020017f7549440000000000000000000000000000000000000000000000000000000000815250611482565b610b3f826040518060400160405280600d81526020017f4173736573736d656e7420494400000000000000000000000000000000000000815250611482565b610bb260026000858152602001908152602001600020600084815260200190815260200160002060000160009054906101000a900460ff166040518060400160405280600f81526020017f4578616d20617474656e64616e636500000000000000000000000000000000008152506114f1565b806002600085815260200190815260200160002060008481526020019081526020016000208181610be3919061277a565b905050505050565b610bf3611623565b60008054906101000a900473ffffffffffffffffffffffffffffffffffffffff1673ffffffffffffffffffffffffffffffffffffffff166313f44d10336040518263ffffffff1660e01b8152600401610c4c9190611c15565b602060405180830381865afa158015610c69573d6000803e3d6000fd5b505050506040513d601f19601f82011682018060405250810190610c8d9190611c5c565b610ccc576040517f08c379a0000000000000000000000000000000000000000000000000000000008152600401610cc390611ce6565b60405180910390fd5b610d3f60016000858152602001908152602001600020600084815260200190815260200160002060000160009054906101000a900460ff166040518060400160405280600a81526020017f5375626d697373696f6e00000000000000000000000000000000000000000000815250611559565b6001600084815260200190815260200160002060008381526020019081526020016000206040518060600160405290816000820160009054906101000a900460ff161515151581526020016001820154815260200160028201805480602002602001604051908101604052809291908181526020016000905b82821015610e64578382906000526020600020018054610dd790611fdd565b80601f0160208091040260200160405190810160405280929190818152602001828054610e0390611fdd565b8015610e505780601f10610e2557610100808354040283529160200191610e50565b820191906000526020600020905b815481529060010190602001808311610e3357829003601f168201915b505050505081526020019060010190610db8565b5050505081525050905092915050565b6000610e7e611623565b60008054906101000a900473ffffffffffffffffffffffffffffffffffffffff1673ffffffffffffffffffffffffffffffffffffffff166313f44d10336040518263ffffffff1660e01b8152600401610ed79190611c15565b602060405180830381865afa158015610ef4573d6000803e3d6000fd5b505050506040513d601f19601f82011682018060405250810190610f189190611c5c565b610f57576040517f08c379a0000000000000000000000000000000000000000000000000000000008152600401610f4e90611ce6565b60405180910390fd5b60006001600086815260200190815260200160002060008581526020019081526020016000206040518060600160405290816000820160009054906101000a900460ff161515151581526020016001820154815260200160028201805480602002602001604051908101604052809291908181526020016000905b8282101561107e578382906000526020600020018054610ff190611fdd565b80601f016020809104026020016040519081016040528092919081815260200182805461101d90611fdd565b801561106a5780601f1061103f5761010080835404028352916020019161106a565b820191906000526020600020905b81548152906001019060200180831161104d57829003601f168201915b505050505081526020019060010190610fd2565b5050505081525050905080600001511561109f5760018192509250506110a8565b60008192509250505b9250929050565b60006110b96115f2565b60008054906101000a900473ffffffffffffffffffffffffffffffffffffffff1673ffffffffffffffffffffffffffffffffffffffff166313f44d10336040518263ffffffff1660e01b81526004016111129190611c15565b602060405180830381865afa15801561112f573d6000803e3d6000fd5b505050506040513d601f19601f820116820180604052508101906111539190611c5c565b611192576040517f08c379a000000000000000000000000000000000000000000000000000000000815260040161118990611ce6565b60405180910390fd5b60006003600086815260200190815260200160002060008581526020019081526020016000206040518060a00160405290816000820160009054906101000a900460ff16151515158152602001600182015481526020016002820154815260200160038201805461120290611fdd565b80601f016020809104026020016040519081016040528092919081815260200182805461122e90611fdd565b801561127b5780601f106112505761010080835404028352916020019161127b565b820191906000526020600020905b81548152906001019060200180831161125e57829003601f168201915b5050505050815260200160048201548152505090508060000151156112a75760018192509250506112b0565b60008192509250505b9250929050565b6112bf6115cd565b60008054906101000a900473ffffffffffffffffffffffffffffffffffffffff1673ffffffffffffffffffffffffffffffffffffffff166313f44d10336040518263ffffffff1660e01b81526004016113189190611c15565b602060405180830381865afa158015611335573d6000803e3d6000fd5b505050506040513d601f19601f820116820180604052508101906113599190611c5c565b611398576040517f08c379a000000000000000000000000000000000000000000000000000000000815260040161138f90611ce6565b60405180910390fd5b61140b60026000858152602001908152602001600020600084815260200190815260200160002060000160009054906101000a900460ff166040518060400160405280600f81526020017f4578616d20617474656e64616e63650000000000000000000000000000000000815250611559565b6002600084815260200190815260200160002060008381526020019081526020016000206040518060600160405290816000820160009054906101000a900460ff161515151581526020016000820160019054906101000a900460ff16151515158152602001600182015481525050905092915050565b61148b826115c0565b8160405160200161149c9190612810565b604051602081830303815290604052906114ec576040517f08c379a00000000000000000000000000000000000000000000000000000000081526004016114e3919061286b565b60405180910390fd5b505050565b81158160405160200161150491906128d9565b60405160208183030381529060405290611554576040517f08c379a000000000000000000000000000000000000000000000000000000000815260040161154b919061286b565b60405180910390fd5b505050565b818160405160200161156b9190612947565b604051602081830303815290604052906115bb576040517f08c379a00000000000000000000000000000000000000000000000000000000081526004016115b2919061286b565b60405180910390fd5b505050565b6000808214159050919050565b6040518060600160405280600015158152602001600015158152602001600081525090565b6040518060a00160405280600015158152602001600081526020016000815260200160608152602001600081525090565b604051806060016040528060001515815260200160008152602001606081525090565b600080fd5b600080fd5b6000819050919050565b61166381611650565b811461166e57600080fd5b50565b6000813590506116808161165a565b92915050565b6000806040838503121561169d5761169c611646565b5b60006116ab85828601611671565b92505060206116bc85828601611671565b9150509250929050565b60008115159050919050565b6116db816116c6565b82525050565b6116ea816116c6565b82525050565b6116f981611650565b82525050565b60608201600082015161171560008501826116e1565b50602082015161172860208501826116e1565b50604082015161173b60408501826116f0565b50505050565b600060808201905061175660008301856116d2565b61176360208301846116ff565b9392505050565b600080fd5b6000606082840312156117855761178461176a565b5b81905092915050565b6000806000606084860312156117a7576117a6611646565b5b60006117b586828701611671565b93505060206117c686828701611671565b925050604084013567ffffffffffffffff8111156117e7576117e661164b565b5b6117f38682870161176f565b9150509250925092565b600060a082840312156118135761181261176a565b5b81905092915050565b60008060006060848603121561183557611834611646565b5b600061184386828701611671565b935050602061185486828701611671565b925050604084013567ffffffffffffffff8111156118755761187461164b565b5b611881868287016117fd565b9150509250925092565b600081519050919050565b600082825260208201905092915050565b60005b838110156118c55780820151818401526020810190506118aa565b60008484015250505050565b6000601f19601f8301169050919050565b60006118ed8261188b565b6118f78185611896565b93506119078185602086016118a7565b611910816118d1565b840191505092915050565b600060a08301600083015161193360008601826116e1565b50602083015161194660208601826116f0565b50604083015161195960408601826116f0565b506060830151848203606086015261197182826118e2565b915050608083015161198660808601826116f0565b508091505092915050565b600060208201905081810360008301526119ab818461191b565b905092915050565b6000606082840312156119c9576119c861176a565b5b81905092915050565b600080600060a084860312156119eb576119ea611646565b5b60006119f986828701611671565b9350506020611a0a86828701611671565b9250506040611a1b868287016119b3565b9150509250925092565b600081519050919050565b600082825260208201905092915050565b6000819050602082019050919050565b6000611a5d83836118e2565b905092915050565b6000602082019050919050565b6000611a7d82611a25565b611a878185611a30565b935083602082028501611a9985611a41565b8060005b85811015611ad55784840389528151611ab68582611a51565b9450611ac183611a65565b925060208a01995050600181019050611a9d565b50829750879550505050505092915050565b6000606083016000830151611aff60008601826116e1565b506020830151611b1260208601826116f0565b5060408301518482036040860152611b2a8282611a72565b9150508091505092915050565b60006020820190508181036000830152611b518184611ae7565b905092915050565b6000604082019050611b6e60008301856116d2565b8181036020830152611b808184611ae7565b90509392505050565b6000604082019050611b9e60008301856116d2565b8181036020830152611bb0818461191b565b90509392505050565b6000606082019050611bce60008301846116ff565b92915050565b600073ffffffffffffffffffffffffffffffffffffffff82169050919050565b6000611bff82611bd4565b9050919050565b611c0f81611bf4565b82525050565b6000602082019050611c2a6000830184611c06565b92915050565b611c39816116c6565b8114611c4457600080fd5b50565b600081519050611c5681611c30565b92915050565b600060208284031215611c7257611c71611646565b5b6000611c8084828501611c47565b91505092915050565b600082825260208201905092915050565b7f5468652073656e646572206973206e6f742077686974656c6973746564000000600082015250565b6000611cd0601d83611c89565b9150611cdb82611c9a565b602082019050919050565b60006020820190508181036000830152611cff81611cc3565b9050919050565b7f4e487b7100000000000000000000000000000000000000000000000000000000600052600060045260246000fd5b60008135611d4281611c30565b80915050919050565b60008160001b9050919050565b600060ff611d6584611d4b565b9350801983169250808416831791505092915050565b6000611d86826116c6565b9050919050565b6000819050919050565b611da082611d7b565b611db3611dac82611d8d565b8354611d58565b8255505050565b60008135611dc78161165a565b80915050919050565b60007fffffffffffffffffffffffffffffffffffffffffffffffffffffffffffffffff611dfc84611d4b565b9350801983169250808416831791505092915050565b6000819050919050565b6000611e37611e32611e2d84611650565b611e12565b611650565b9050919050565b6000819050919050565b611e5182611e1c565b611e64611e5d82611e3e565b8354611dd0565b8255505050565b600080fd5b600080fd5b600080fd5b60008083356001602003843603038112611e9757611e96611e6b565b5b80840192508235915067ffffffffffffffff821115611eb957611eb8611e70565b5b602083019250602082023603831315611ed557611ed4611e75565b5b509250929050565b6000819050919050565b60008083356001602003843603038112611f0457611f03611e6b565b5b80840192508235915067ffffffffffffffff821115611f2657611f25611e70565b5b602083019250600182023603831315611f4257611f41611e75565b5b509250929050565b7f4e487b7100000000000000000000000000000000000000000000000000000000600052604160045260246000fd5b600081549050919050565b60008190506001806001038301049050919050565b60008190508160005260206000209050919050565b7f4e487b7100000000000000000000000000000000000000000000000000000000600052602260045260246000fd5b60006002820490506001821680611ff557607f821691505b60208210810361200857612007611fae565b5b50919050565b60008190508160005260206000209050919050565b600082821c905092915050565b6120607fffffffffffffffffffffffffffffffffffffffffffffffffffffffffffffffff83602003600802612023565b815481168255505050565b600082821b905092915050565b6000600883026120a87fffffffffffffffffffffffffffffffffffffffffffffffffffffffffffffffff8261206b565b6120b2868361206b565b95508019841693508086168417925050509392505050565b6120d383611e1c565b6120e76120df82611e3e565b848454612078565b825550505050565b600090565b6120fc6120ef565b6121078184846120ca565b505050565b5b8181101561212b576121206000826120f4565b60018101905061210d565b5050565b600061214060001984600802612023565b1980831691505092915050565b6000612159838361212f565b9150826002028217905092915050565b6121728161200e565b61217d83825461214d565b8083556000825550505050565b60006020601f8301049050919050565b60208410600081146121f557601f8411600181146121c3576121bc868561214d565b83556121ef565b6121cc8361200e565b6121e36121d88761218a565b82016001830161210c565b6121ed8785612169565b505b50612242565b6121fe8261200e565b6122078661218a565b8101601f87168015612221576122208160018403612030565b5b61223561222d8861218a565b84018361210c565b6001886002021785555050505b5050505050565b6801000000000000000084111561226357612262611f4a565b5b60208310600081146122ae57602085106000811461228c57612285868561214d565b83556122a8565b8360ff191693508361229d8461200e565b556001866002020183555b506122b8565b6001856002020182555b5050505050565b80546122ca81611fdd565b808411156122df576122de84828486612249565b5b808410156122f4576122f38482848661219a565b5b50505050565b818110156123185761230d6000826120f4565b6001810190506122fa565b5050565b6123276000826122bf565b50565b6000821461233b5761233a611d06565b5b6123448161231c565b5050565b5b818110156123675761235c60008261232a565b600181019050612349565b5050565b818310156123a45761237c82611f84565b61238584611f84565b61238e83611f99565b81810183820161239e8183612348565b50505050505b505050565b680100000000000000008211156123c3576123c2611f4a565b5b6123cc81611f79565b8282556123da83828461236b565b505050565b600082905092915050565b600082905092915050565b601f821115612436576124078161200e565b6124108461218a565b8101602085101561241f578190505b61243361242b8561218a565b83018261210c565b50505b505050565b61244583836123ea565b67ffffffffffffffff81111561245e5761245d611f4a565b5b6124688254611fdd565b6124738282856123f5565b6000601f8311600181146124a25760008415612490578287013590505b61249a858261214d565b865550612502565b601f1984166124b08661200e565b60005b828110156124d8578489013582556001820191506020850194506020810190506124b3565b868310156124f557848901356124f1601f89168261212f565b8355505b6001600288020188555050505b50505050505050565b61251683838361243b565b505050565b61252583836123df565b61252f81836123a9565b61253883611edd565b61254183611f99565b60005b8381101561257a576125568387611ee7565b61256181838661250b565b6020850194506001840193505050600181019050612544565b50505050505050565b61258e83838361251b565b505050565b6000810160008301806125a581611d35565b90506125b18184611d97565b5050506001810160208301806125c681611dba565b90506125d28184611e48565b50505060028101604083016125e78185611e7a565b6125f2818386612583565b505050505050565b6126048282612593565b5050565b60008101600083018061261a81611d35565b90506126268184611d97565b50505060018101602083018061263b81611dba565b90506126478184611e48565b50505060028101604083018061265c81611dba565b90506126688184611e48565b505050600381016060830161267d8185611ee7565b61268881838661250b565b5050505060048101608083018061269e81611dba565b90506126aa8184611e48565b5050505050565b6126bb8282612608565b5050565b60008160081b9050919050565b600061ff006126da846126bf565b9350801983169250808416831791505092915050565b6126f982611d7b565b61270c61270582611d8d565b83546126cc565b8255505050565b60008101600083018061272581611d35565b90506127318184611d97565b50505060008101602083018061274681611d35565b905061275281846126f0565b50505060018101604083018061276781611dba565b90506127738184611e48565b5050505050565b6127848282612713565b5050565b600081905092915050565b7f496e76616c696420000000000000000000000000000000000000000000000000600082015250565b60006127c9600883612788565b91506127d482612793565b600882019050919050565b60006127ea8261188b565b6127f48185612788565b93506128048185602086016118a7565b80840191505092915050565b600061281b826127bc565b915061282782846127df565b915081905092915050565b600061283d8261188b565b6128478185611c89565b93506128578185602086016118a7565b612860816118d1565b840191505092915050565b600060208201905081810360008301526128858184612832565b905092915050565b7f2068617320616c7265616479206265656e207365740000000000000000000000600082015250565b60006128c3601583612788565b91506128ce8261288d565b601582019050919050565b60006128e582846127df565b91506128f0826128b6565b915081905092915050565b7f20686173206e6f74206265656e20736574207965740000000000000000000000600082015250565b6000612931601583612788565b915061293c826128fb565b601582019050919050565b600061295382846127df565b915061295e82612924565b91508190509291505056fea2646970667358221220efed54a6e8fc195a665e3f58f427e0800e5e4d02bffb08db859383016904902d64736f6c63430008110033",
  "linkReferences": {},
  "deployedLinkReferences": {}
}