{
  "_format": "hh-sol-artifact-1",
  "contractName": "AssessmentDataManager",
  "sourceName": "contracts/data/datamanager/AssessmentDataManager.sol",
  "abi": [
    {
      "inputs": [
        {
          "internalType": "address",
          "name": "assessmentDataStorageAddress",
          "type": "address"
        },
        {
          "internalType": "address",
          "name": "accessWhitelistAddress",
          "type": "address"
        }
      ],
      "stateMutability": "nonpayable",
      "type": "constructor"
    },
    {
      "inputs": [
        {
          "internalType": "uint256",
          "name": "assessmentId",
          "type": "uint256"
        },
        {
          "internalType": "uint256",
          "name": "uId",
          "type": "uint256"
        }
      ],
      "name": "addRegistrantToAssessment",
      "outputs": [],
      "stateMutability": "nonpayable",
      "type": "function"
    },
    {
      "inputs": [
        {
          "internalType": "uint256",
          "name": "courseId",
          "type": "uint256"
        },
        {
          "components": [
            {
              "internalType": "string",
              "name": "title",
              "type": "string"
            },
            {
              "internalType": "uint256",
              "name": "datetime",
              "type": "uint256"
            },
            {
              "internalType": "string",
              "name": "place",
              "type": "string"
            },
            {
              "internalType": "enum CourseDataTypes.AssessmentType",
              "name": "assessmentType",
              "type": "uint8"
            },
            {
              "internalType": "uint256",
              "name": "maxPoints",
              "type": "uint256"
            },
            {
              "internalType": "uint256",
              "name": "minPoints",
              "type": "uint256"
            },
            {
              "internalType": "bool",
              "name": "isRegistrationRequired",
              "type": "bool"
            },
            {
              "internalType": "uint256",
              "name": "registrationStart",
              "type": "uint256"
            },
            {
              "internalType": "uint256",
              "name": "registrationDeadline",
              "type": "uint256"
            },
            {
              "internalType": "uint256",
              "name": "deregistrationDeadline",
              "type": "uint256"
            }
          ],
          "internalType": "struct CourseDataTypes.AssessmentContent",
          "name": "assessmentContent",
          "type": "tuple"
        }
      ],
      "name": "createAssessment",
      "outputs": [
        {
          "internalType": "uint256",
          "name": "",
          "type": "uint256"
        }
      ],
      "stateMutability": "nonpayable",
      "type": "function"
    },
    {
      "inputs": [
        {
          "internalType": "uint256",
          "name": "courseId",
          "type": "uint256"
        },
        {
          "components": [
            {
              "internalType": "string",
              "name": "title",
              "type": "string"
            },
            {
              "internalType": "uint256",
              "name": "datetime",
              "type": "uint256"
            },
            {
              "internalType": "string",
              "name": "place",
              "type": "string"
            },
            {
              "internalType": "enum CourseDataTypes.AssessmentType",
              "name": "assessmentType",
              "type": "uint8"
            },
            {
              "internalType": "uint256",
              "name": "maxPoints",
              "type": "uint256"
            },
            {
              "internalType": "uint256",
              "name": "minPoints",
              "type": "uint256"
            },
            {
              "internalType": "bool",
              "name": "isRegistrationRequired",
              "type": "bool"
            },
            {
              "internalType": "uint256",
              "name": "registrationStart",
              "type": "uint256"
            },
            {
              "internalType": "uint256",
              "name": "registrationDeadline",
              "type": "uint256"
            },
            {
              "internalType": "uint256",
              "name": "deregistrationDeadline",
              "type": "uint256"
            }
          ],
          "internalType": "struct CourseDataTypes.AssessmentContent[]",
          "name": "assessmentContents",
          "type": "tuple[]"
        }
      ],
      "name": "createAssessments",
      "outputs": [
        {
          "internalType": "uint256[]",
          "name": "",
          "type": "uint256[]"
        }
      ],
      "stateMutability": "nonpayable",
      "type": "function"
    },
    {
      "inputs": [
        {
          "internalType": "uint256",
          "name": "assessmentId",
          "type": "uint256"
        }
      ],
      "name": "getAssessment",
      "outputs": [
        {
          "components": [
            {
              "internalType": "uint256",
              "name": "assessmentId",
              "type": "uint256"
            },
            {
              "components": [
                {
                  "internalType": "string",
                  "name": "title",
                  "type": "string"
                },
                {
                  "internalType": "uint256",
                  "name": "datetime",
                  "type": "uint256"
                },
                {
                  "internalType": "string",
                  "name": "place",
                  "type": "string"
                },
                {
                  "internalType": "enum CourseDataTypes.AssessmentType",
                  "name": "assessmentType",
                  "type": "uint8"
                },
                {
                  "internalType": "uint256",
                  "name": "maxPoints",
                  "type": "uint256"
                },
                {
                  "internalType": "uint256",
                  "name": "minPoints",
                  "type": "uint256"
                },
                {
                  "internalType": "bool",
                  "name": "isRegistrationRequired",
                  "type": "bool"
                },
                {
                  "internalType": "uint256",
                  "name": "registrationStart",
                  "type": "uint256"
                },
                {
                  "internalType": "uint256",
                  "name": "registrationDeadline",
                  "type": "uint256"
                },
                {
                  "internalType": "uint256",
                  "name": "deregistrationDeadline",
                  "type": "uint256"
                }
              ],
              "internalType": "struct CourseDataTypes.AssessmentContent",
              "name": "assessmentContent",
              "type": "tuple"
            }
          ],
          "internalType": "struct CourseDataTypes.Assessment",
          "name": "",
          "type": "tuple"
        }
      ],
      "stateMutability": "view",
      "type": "function"
    },
    {
      "inputs": [
        {
          "internalType": "uint256",
          "name": "assessmentId",
          "type": "uint256"
        }
      ],
      "name": "getAssessmentDeregistrationPeriod",
      "outputs": [
        {
          "internalType": "uint256",
          "name": "",
          "type": "uint256"
        },
        {
          "internalType": "uint256",
          "name": "",
          "type": "uint256"
        }
      ],
      "stateMutability": "view",
      "type": "function"
    },
    {
      "inputs": [
        {
          "internalType": "uint256",
          "name": "courseId",
          "type": "uint256"
        }
      ],
      "name": "getAssessmentIdsToCourseId",
      "outputs": [
        {
          "internalType": "uint256[]",
          "name": "",
          "type": "uint256[]"
        }
      ],
      "stateMutability": "view",
      "type": "function"
    },
    {
      "inputs": [
        {
          "internalType": "uint256",
          "name": "courseId",
          "type": "uint256"
        },
        {
          "internalType": "uint256",
          "name": "uId",
          "type": "uint256"
        }
      ],
      "name": "getAssessmentIdsToCourseIdOfUId",
      "outputs": [
        {
          "internalType": "uint256[]",
          "name": "",
          "type": "uint256[]"
        }
      ],
      "stateMutability": "view",
      "type": "function"
    },
    {
      "inputs": [
        {
          "internalType": "uint256",
          "name": "assessmentId",
          "type": "uint256"
        }
      ],
      "name": "getAssessmentMaxPoints",
      "outputs": [
        {
          "internalType": "uint256",
          "name": "",
          "type": "uint256"
        }
      ],
      "stateMutability": "view",
      "type": "function"
    },
    {
      "inputs": [
        {
          "internalType": "uint256",
          "name": "assessmentId",
          "type": "uint256"
        }
      ],
      "name": "getAssessmentMinPoints",
      "outputs": [
        {
          "internalType": "uint256",
          "name": "",
          "type": "uint256"
        }
      ],
      "stateMutability": "view",
      "type": "function"
    },
    {
      "inputs": [
        {
          "internalType": "uint256",
          "name": "assessmentId",
          "type": "uint256"
        }
      ],
      "name": "getAssessmentRegistrantIds",
      "outputs": [
        {
          "internalType": "uint256[]",
          "name": "",
          "type": "uint256[]"
        }
      ],
      "stateMutability": "view",
      "type": "function"
    },
    {
      "inputs": [
        {
          "internalType": "uint256",
          "name": "assessmentId",
          "type": "uint256"
        }
      ],
      "name": "getAssessmentRegistrationPeriod",
      "outputs": [
        {
          "internalType": "uint256",
          "name": "",
          "type": "uint256"
        },
        {
          "internalType": "uint256",
          "name": "",
          "type": "uint256"
        }
      ],
      "stateMutability": "view",
      "type": "function"
    },
    {
      "inputs": [
        {
          "internalType": "uint256",
          "name": "assessmentId",
          "type": "uint256"
        }
      ],
      "name": "getAssessmentTime",
      "outputs": [
        {
          "internalType": "uint256",
          "name": "",
          "type": "uint256"
        }
      ],
      "stateMutability": "view",
      "type": "function"
    },
    {
      "inputs": [
        {
          "internalType": "uint256",
          "name": "assessmentId",
          "type": "uint256"
        }
      ],
      "name": "getAssessmentType",
      "outputs": [
        {
          "internalType": "enum CourseDataTypes.AssessmentType",
          "name": "",
          "type": "uint8"
        }
      ],
      "stateMutability": "view",
      "type": "function"
    },
    {
      "inputs": [
        {
          "internalType": "uint256[]",
          "name": "assessmentIds",
          "type": "uint256[]"
        }
      ],
      "name": "getAssessments",
      "outputs": [
        {
          "components": [
            {
              "internalType": "uint256",
              "name": "assessmentId",
              "type": "uint256"
            },
            {
              "components": [
                {
                  "internalType": "string",
                  "name": "title",
                  "type": "string"
                },
                {
                  "internalType": "uint256",
                  "name": "datetime",
                  "type": "uint256"
                },
                {
                  "internalType": "string",
                  "name": "place",
                  "type": "string"
                },
                {
                  "internalType": "enum CourseDataTypes.AssessmentType",
                  "name": "assessmentType",
                  "type": "uint8"
                },
                {
                  "internalType": "uint256",
                  "name": "maxPoints",
                  "type": "uint256"
                },
                {
                  "internalType": "uint256",
                  "name": "minPoints",
                  "type": "uint256"
                },
                {
                  "internalType": "bool",
                  "name": "isRegistrationRequired",
                  "type": "bool"
                },
                {
                  "internalType": "uint256",
                  "name": "registrationStart",
                  "type": "uint256"
                },
                {
                  "internalType": "uint256",
                  "name": "registrationDeadline",
                  "type": "uint256"
                },
                {
                  "internalType": "uint256",
                  "name": "deregistrationDeadline",
                  "type": "uint256"
                }
              ],
              "internalType": "struct CourseDataTypes.AssessmentContent",
              "name": "assessmentContent",
              "type": "tuple"
            }
          ],
          "internalType": "struct CourseDataTypes.Assessment[]",
          "name": "",
          "type": "tuple[]"
        }
      ],
      "stateMutability": "view",
      "type": "function"
    },
    {
      "inputs": [
        {
          "internalType": "uint256",
          "name": "courseId",
          "type": "uint256"
        }
      ],
      "name": "getAssessmentsToCourseId",
      "outputs": [
        {
          "components": [
            {
              "internalType": "uint256",
              "name": "assessmentId",
              "type": "uint256"
            },
            {
              "components": [
                {
                  "internalType": "string",
                  "name": "title",
                  "type": "string"
                },
                {
                  "internalType": "uint256",
                  "name": "datetime",
                  "type": "uint256"
                },
                {
                  "internalType": "string",
                  "name": "place",
                  "type": "string"
                },
                {
                  "internalType": "enum CourseDataTypes.AssessmentType",
                  "name": "assessmentType",
                  "type": "uint8"
                },
                {
                  "internalType": "uint256",
                  "name": "maxPoints",
                  "type": "uint256"
                },
                {
                  "internalType": "uint256",
                  "name": "minPoints",
                  "type": "uint256"
                },
                {
                  "internalType": "bool",
                  "name": "isRegistrationRequired",
                  "type": "bool"
                },
                {
                  "internalType": "uint256",
                  "name": "registrationStart",
                  "type": "uint256"
                },
                {
                  "internalType": "uint256",
                  "name": "registrationDeadline",
                  "type": "uint256"
                },
                {
                  "internalType": "uint256",
                  "name": "deregistrationDeadline",
                  "type": "uint256"
                }
              ],
              "internalType": "struct CourseDataTypes.AssessmentContent",
              "name": "assessmentContent",
              "type": "tuple"
            }
          ],
          "internalType": "struct CourseDataTypes.Assessment[]",
          "name": "",
          "type": "tuple[]"
        }
      ],
      "stateMutability": "view",
      "type": "function"
    },
    {
      "inputs": [
        {
          "internalType": "uint256",
          "name": "assessmentId",
          "type": "uint256"
        }
      ],
      "name": "getCourseIdToAssessmentId",
      "outputs": [
        {
          "internalType": "uint256",
          "name": "",
          "type": "uint256"
        }
      ],
      "stateMutability": "view",
      "type": "function"
    },
    {
      "inputs": [
        {
          "internalType": "uint256",
          "name": "assessmentId",
          "type": "uint256"
        }
      ],
      "name": "isAssessmentRegistrationRequired",
      "outputs": [
        {
          "internalType": "bool",
          "name": "",
          "type": "bool"
        }
      ],
      "stateMutability": "view",
      "type": "function"
    },
    {
      "inputs": [
        {
          "internalType": "uint256",
          "name": "uId",
          "type": "uint256"
        },
        {
          "internalType": "uint256",
          "name": "assessmentId",
          "type": "uint256"
        }
      ],
      "name": "isRegisteredToAssessment",
      "outputs": [
        {
          "internalType": "bool",
          "name": "",
          "type": "bool"
        }
      ],
      "stateMutability": "view",
      "type": "function"
    },
    {
      "inputs": [
        {
          "internalType": "uint256",
          "name": "assessmentId",
          "type": "uint256"
        },
        {
          "internalType": "uint256",
          "name": "uId",
          "type": "uint256"
        }
      ],
      "name": "removeRegistrantFromAssessment",
      "outputs": [],
      "stateMutability": "nonpayable",
      "type": "function"
    }
  ],
  "bytecode": "0x608060405262000019620000e560201b620025ba1760201c565b60026000820151816000015550503480156200003457600080fd5b5060405162003cfc38038062003cfc83398181016040528101906200005a919062000181565b80806000806101000a81548173ffffffffffffffffffffffffffffffffffffffff021916908373ffffffffffffffffffffffffffffffffffffffff1602179055505081600160006101000a81548173ffffffffffffffffffffffffffffffffffffffff021916908373ffffffffffffffffffffffffffffffffffffffff1602179055505050620001c8565b620000ef62000104565b60405180602001604052806001815250905090565b6040518060200160405280600081525090565b600080fd5b600073ffffffffffffffffffffffffffffffffffffffff82169050919050565b600062000149826200011c565b9050919050565b6200015b816200013c565b81146200016757600080fd5b50565b6000815190506200017b8162000150565b92915050565b600080604083850312156200019b576200019a62000117565b5b6000620001ab858286016200016a565b9250506020620001be858286016200016a565b9150509250929050565b613b2480620001d86000396000f3fe608060405234801561001057600080fd5b50600436106101215760003560e01c8063786e0785116100ad578063d8d5064111610071578063d8d50641146103b3578063dc58e450146103e4578063e0d0346e14610414578063e285fd2514610430578063e9eb53561461046057610121565b8063786e0785146102c3578063a01a6b54146102f3578063a31cf91f14610323578063a5478d4f14610353578063b8e517871461038357610121565b806330938d70116100f457806330938d70146101d25780633b4f9500146102025780634d9383a414610232578063568c68991461026257806360dcaa461461029257610121565b80630a6278521461012657806323ff17851461015657806326f63a96146101865780632b00d6ca146101b6575b600080fd5b610140600480360381019061013b91906128b5565b610490565b60405161014d91906128f1565b60405180910390f35b610170600480360381019061016b919061290c565b61061c565b60405161017d9190612967565b60405180910390f35b6101a0600480360381019061019b91906128b5565b6107aa565b6040516101ad91906128f1565b60405180910390f35b6101d060048036038101906101cb919061290c565b610936565b005b6101ec60048036038101906101e791906128b5565b610aa2565b6040516101f99190612967565b60405180910390f35b61021c6004803603810190610217919061290c565b610c2e565b6040516102299190612a40565b60405180910390f35b61024c60048036038101906102479190612ac7565b610e29565b6040516102599190612e0a565b60405180910390f35b61027c60048036038101906102779190612e51565b610f88565b60405161028991906128f1565b60405180910390f35b6102ac60048036038101906102a791906128b5565b61123b565b6040516102ba929190612ead565b60405180910390f35b6102dd60048036038101906102d891906128b5565b611473565b6040516102ea9190612a40565b60405180910390f35b61030d600480360381019061030891906128b5565b6115f6565b60405161031a91906128f1565b60405180910390f35b61033d600480360381019061033891906128b5565b611782565b60405161034a91906128f1565b60405180910390f35b61036d600480360381019061036891906128b5565b611901565b60405161037a9190612e0a565b60405180910390f35b61039d600480360381019061039891906128b5565b611bdb565b6040516103aa9190612f13565b60405180910390f35b6103cd60048036038101906103c891906128b5565b611d64565b6040516103db929190612ead565b60405180910390f35b6103fe60048036038101906103f99190612f8b565b611f9c565b60405161040b9190612a40565b60405180910390f35b61042e6004803603810190610429919061290c565b61213f565b005b61044a600480360381019061044591906128b5565b6122ab565b6040516104579190612a40565b60405180910390f35b61047a600480360381019061047591906128b5565b61242e565b6040516104879190612ffa565b60405180910390f35b60008060009054906101000a900473ffffffffffffffffffffffffffffffffffffffff1673ffffffffffffffffffffffffffffffffffffffff166313f44d10336040518263ffffffff1660e01b81526004016104ec9190613056565b602060405180830381865afa158015610509573d6000803e3d6000fd5b505050506040513d601f19601f8201168201806040525081019061052d919061309d565b61056c576040517f08c379a000000000000000000000000000000000000000000000000000000000815260040161056390613127565b60405180910390fd5b600160009054906101000a900473ffffffffffffffffffffffffffffffffffffffff1673ffffffffffffffffffffffffffffffffffffffff1663b8e51787836040518263ffffffff1660e01b81526004016105c791906128f1565b600060405180830381865afa1580156105e4573d6000803e3d6000fd5b505050506040513d6000823e3d601f19601f8201168201806040525081019061060d9190613446565b6020015160a001519050919050565b60008060009054906101000a900473ffffffffffffffffffffffffffffffffffffffff1673ffffffffffffffffffffffffffffffffffffffff166313f44d10336040518263ffffffff1660e01b81526004016106789190613056565b602060405180830381865afa158015610695573d6000803e3d6000fd5b505050506040513d601f19601f820116820180604052508101906106b9919061309d565b6106f8576040517f08c379a00000000000000000000000000000000000000000000000000000000081526004016106ef90613127565b60405180910390fd5b6107a283600160009054906101000a900473ffffffffffffffffffffffffffffffffffffffff1673ffffffffffffffffffffffffffffffffffffffff1663ed373249856040518263ffffffff1660e01b815260040161075791906128f1565b600060405180830381865afa158015610774573d6000803e3d6000fd5b505050506040513d6000823e3d601f19601f8201168201806040525081019061079d9190613552565b6125d7565b905092915050565b60008060009054906101000a900473ffffffffffffffffffffffffffffffffffffffff1673ffffffffffffffffffffffffffffffffffffffff166313f44d10336040518263ffffffff1660e01b81526004016108069190613056565b602060405180830381865afa158015610823573d6000803e3d6000fd5b505050506040513d601f19601f82011682018060405250810190610847919061309d565b610886576040517f08c379a000000000000000000000000000000000000000000000000000000000815260040161087d90613127565b60405180910390fd5b600160009054906101000a900473ffffffffffffffffffffffffffffffffffffffff1673ffffffffffffffffffffffffffffffffffffffff1663b8e51787836040518263ffffffff1660e01b81526004016108e191906128f1565b600060405180830381865afa1580156108fe573d6000803e3d6000fd5b505050506040513d6000823e3d601f19601f820116820180604052508101906109279190613446565b60200151602001519050919050565b60008054906101000a900473ffffffffffffffffffffffffffffffffffffffff1673ffffffffffffffffffffffffffffffffffffffff166313f44d10336040518263ffffffff1660e01b815260040161098f9190613056565b602060405180830381865afa1580156109ac573d6000803e3d6000fd5b505050506040513d601f19601f820116820180604052508101906109d0919061309d565b610a0f576040517f08c379a0000000000000000000000000000000000000000000000000000000008152600401610a0690613127565b60405180910390fd5b600160009054906101000a900473ffffffffffffffffffffffffffffffffffffffff1673ffffffffffffffffffffffffffffffffffffffff1663b4ab4bab83836040518363ffffffff1660e01b8152600401610a6c929190612ead565b600060405180830381600087803b158015610a8657600080fd5b505af1158015610a9a573d6000803e3d6000fd5b505050505050565b60008060009054906101000a900473ffffffffffffffffffffffffffffffffffffffff1673ffffffffffffffffffffffffffffffffffffffff166313f44d10336040518263ffffffff1660e01b8152600401610afe9190613056565b602060405180830381865afa158015610b1b573d6000803e3d6000fd5b505050506040513d601f19601f82011682018060405250810190610b3f919061309d565b610b7e576040517f08c379a0000000000000000000000000000000000000000000000000000000008152600401610b7590613127565b60405180910390fd5b600160009054906101000a900473ffffffffffffffffffffffffffffffffffffffff1673ffffffffffffffffffffffffffffffffffffffff1663b8e51787836040518263ffffffff1660e01b8152600401610bd991906128f1565b600060405180830381865afa158015610bf6573d6000803e3d6000fd5b505050506040513d6000823e3d601f19601f82011682018060405250810190610c1f9190613446565b6020015160c001519050919050565b606060008054906101000a900473ffffffffffffffffffffffffffffffffffffffff1673ffffffffffffffffffffffffffffffffffffffff166313f44d10336040518263ffffffff1660e01b8152600401610c899190613056565b602060405180830381865afa158015610ca6573d6000803e3d6000fd5b505050506040513d601f19601f82011682018060405250810190610cca919061309d565b610d09576040517f08c379a0000000000000000000000000000000000000000000000000000000008152600401610d0090613127565b60405180910390fd5b6000600160009054906101000a900473ffffffffffffffffffffffffffffffffffffffff1673ffffffffffffffffffffffffffffffffffffffff1663e7e94b12856040518263ffffffff1660e01b8152600401610d6691906128f1565b600060405180830381865afa158015610d83573d6000803e3d6000fd5b505050506040513d6000823e3d601f19601f82011682018060405250810190610dac9190613552565b9050606060005b8251811015610e1d57610de085848381518110610dd357610dd261359b565b5b602002602001015161061c565b15610e0c57610e0982848381518110610dfc57610dfb61359b565b5b60200260200101516125ee565b91505b80610e16906135f9565b9050610db3565b50809250505092915050565b606060008383905067ffffffffffffffff811115610e4a57610e4961314c565b5b604051908082528060200260200182016040528015610e8357816020015b610e706127d1565b815260200190600190039081610e685790505b50905060005b84849050811015610f7d57600160009054906101000a900473ffffffffffffffffffffffffffffffffffffffff1673ffffffffffffffffffffffffffffffffffffffff1663b8e51787868684818110610ee557610ee461359b565b5b905060200201356040518263ffffffff1660e01b8152600401610f0891906128f1565b600060405180830381865afa158015610f25573d6000803e3d6000fd5b505050506040513d6000823e3d601f19601f82011682018060405250810190610f4e9190613446565b828281518110610f6157610f6061359b565b5b602002602001018190525080610f76906135f9565b9050610e89565b508091505092915050565b60008060009054906101000a900473ffffffffffffffffffffffffffffffffffffffff1673ffffffffffffffffffffffffffffffffffffffff166313f44d10336040518263ffffffff1660e01b8152600401610fe49190613056565b602060405180830381865afa158015611001573d6000803e3d6000fd5b505050506040513d601f19601f82011682018060405250810190611025919061309d565b611064576040517f08c379a000000000000000000000000000000000000000000000000000000000815260040161105b90613127565b60405180910390fd5b6110f58280600001906110779190613650565b8080601f016020809104026020016040519081016040528093929190818152602001838380828437600081840152601f19601f820116905080830192505050505050506040518060400160405280600581526020017f5469746c650000000000000000000000000000000000000000000000000000008152506126cd565b81608001358260a001351115611140576040517f08c379a000000000000000000000000000000000000000000000000000000000815260040161113790613725565b60405180910390fd5b600061114c6002612738565b9050600160009054906101000a900473ffffffffffffffffffffffffffffffffffffffff1673ffffffffffffffffffffffffffffffffffffffff16635bccdece856040518060400160405280858152602001876111a89061391c565b8152506040518363ffffffff1660e01b81526004016111c892919061392f565b600060405180830381600087803b1580156111e257600080fd5b505af11580156111f6573d6000803e3d6000fd5b505050507f416c1ec7e5ea8465a83d854ca2709012c86dd5d1d3395fbefb6a48a10c42c2da8160405161122991906128f1565b60405180910390a18091505092915050565b60008060008054906101000a900473ffffffffffffffffffffffffffffffffffffffff1673ffffffffffffffffffffffffffffffffffffffff166313f44d10336040518263ffffffff1660e01b81526004016112979190613056565b602060405180830381865afa1580156112b4573d6000803e3d6000fd5b505050506040513d601f19601f820116820180604052508101906112d8919061309d565b611317576040517f08c379a000000000000000000000000000000000000000000000000000000000815260040161130e90613127565b60405180910390fd5b600160009054906101000a900473ffffffffffffffffffffffffffffffffffffffff1673ffffffffffffffffffffffffffffffffffffffff1663b8e51787846040518263ffffffff1660e01b815260040161137291906128f1565b600060405180830381865afa15801561138f573d6000803e3d6000fd5b505050506040513d6000823e3d601f19601f820116820180604052508101906113b89190613446565b6020015160e00151600160009054906101000a900473ffffffffffffffffffffffffffffffffffffffff1673ffffffffffffffffffffffffffffffffffffffff1663b8e51787856040518263ffffffff1660e01b815260040161141b91906128f1565b600060405180830381865afa158015611438573d6000803e3d6000fd5b505050506040513d6000823e3d601f19601f820116820180604052508101906114619190613446565b60200151610120015191509150915091565b606060008054906101000a900473ffffffffffffffffffffffffffffffffffffffff1673ffffffffffffffffffffffffffffffffffffffff166313f44d10336040518263ffffffff1660e01b81526004016114ce9190613056565b602060405180830381865afa1580156114eb573d6000803e3d6000fd5b505050506040513d601f19601f8201168201806040525081019061150f919061309d565b61154e576040517f08c379a000000000000000000000000000000000000000000000000000000000815260040161154590613127565b60405180910390fd5b600160009054906101000a900473ffffffffffffffffffffffffffffffffffffffff1673ffffffffffffffffffffffffffffffffffffffff1663e7e94b12836040518263ffffffff1660e01b81526004016115a991906128f1565b600060405180830381865afa1580156115c6573d6000803e3d6000fd5b505050506040513d6000823e3d601f19601f820116820180604052508101906115ef9190613552565b9050919050565b60008060009054906101000a900473ffffffffffffffffffffffffffffffffffffffff1673ffffffffffffffffffffffffffffffffffffffff166313f44d10336040518263ffffffff1660e01b81526004016116529190613056565b602060405180830381865afa15801561166f573d6000803e3d6000fd5b505050506040513d601f19601f82011682018060405250810190611693919061309d565b6116d2576040517f08c379a00000000000000000000000000000000000000000000000000000000081526004016116c990613127565b60405180910390fd5b600160009054906101000a900473ffffffffffffffffffffffffffffffffffffffff1673ffffffffffffffffffffffffffffffffffffffff1663b8e51787836040518263ffffffff1660e01b815260040161172d91906128f1565b600060405180830381865afa15801561174a573d6000803e3d6000fd5b505050506040513d6000823e3d601f19601f820116820180604052508101906117739190613446565b60200151608001519050919050565b60008060009054906101000a900473ffffffffffffffffffffffffffffffffffffffff1673ffffffffffffffffffffffffffffffffffffffff166313f44d10336040518263ffffffff1660e01b81526004016117de9190613056565b602060405180830381865afa1580156117fb573d6000803e3d6000fd5b505050506040513d601f19601f8201168201806040525081019061181f919061309d565b61185e576040517f08c379a000000000000000000000000000000000000000000000000000000000815260040161185590613127565b60405180910390fd5b600160009054906101000a900473ffffffffffffffffffffffffffffffffffffffff1673ffffffffffffffffffffffffffffffffffffffff1663adfb1f8a836040518263ffffffff1660e01b81526004016118b991906128f1565b602060405180830381865afa1580156118d6573d6000803e3d6000fd5b505050506040513d601f19601f820116820180604052508101906118fa919061395f565b9050919050565b606060008054906101000a900473ffffffffffffffffffffffffffffffffffffffff1673ffffffffffffffffffffffffffffffffffffffff166313f44d10336040518263ffffffff1660e01b815260040161195c9190613056565b602060405180830381865afa158015611979573d6000803e3d6000fd5b505050506040513d601f19601f8201168201806040525081019061199d919061309d565b6119dc576040517f08c379a00000000000000000000000000000000000000000000000000000000081526004016119d390613127565b60405180910390fd5b6000600160009054906101000a900473ffffffffffffffffffffffffffffffffffffffff1673ffffffffffffffffffffffffffffffffffffffff1663e7e94b12846040518263ffffffff1660e01b8152600401611a3991906128f1565b600060405180830381865afa158015611a56573d6000803e3d6000fd5b505050506040513d6000823e3d601f19601f82011682018060405250810190611a7f9190613552565b90506000815167ffffffffffffffff811115611a9e57611a9d61314c565b5b604051908082528060200260200182016040528015611ad757816020015b611ac46127d1565b815260200190600190039081611abc5790505b50905060005b8251811015611bd057600160009054906101000a900473ffffffffffffffffffffffffffffffffffffffff1673ffffffffffffffffffffffffffffffffffffffff1663b8e51787848381518110611b3757611b3661359b565b5b60200260200101516040518263ffffffff1660e01b8152600401611b5b91906128f1565b600060405180830381865afa158015611b78573d6000803e3d6000fd5b505050506040513d6000823e3d601f19601f82011682018060405250810190611ba19190613446565b828281518110611bb457611bb361359b565b5b602002602001018190525080611bc9906135f9565b9050611add565b508092505050919050565b611be36127d1565b60008054906101000a900473ffffffffffffffffffffffffffffffffffffffff1673ffffffffffffffffffffffffffffffffffffffff166313f44d10336040518263ffffffff1660e01b8152600401611c3c9190613056565b602060405180830381865afa158015611c59573d6000803e3d6000fd5b505050506040513d601f19601f82011682018060405250810190611c7d919061309d565b611cbc576040517f08c379a0000000000000000000000000000000000000000000000000000000008152600401611cb390613127565b60405180910390fd5b600160009054906101000a900473ffffffffffffffffffffffffffffffffffffffff1673ffffffffffffffffffffffffffffffffffffffff1663b8e51787836040518263ffffffff1660e01b8152600401611d1791906128f1565b600060405180830381865afa158015611d34573d6000803e3d6000fd5b505050506040513d6000823e3d601f19601f82011682018060405250810190611d5d9190613446565b9050919050565b60008060008054906101000a900473ffffffffffffffffffffffffffffffffffffffff1673ffffffffffffffffffffffffffffffffffffffff166313f44d10336040518263ffffffff1660e01b8152600401611dc09190613056565b602060405180830381865afa158015611ddd573d6000803e3d6000fd5b505050506040513d601f19601f82011682018060405250810190611e01919061309d565b611e40576040517f08c379a0000000000000000000000000000000000000000000000000000000008152600401611e3790613127565b60405180910390fd5b600160009054906101000a900473ffffffffffffffffffffffffffffffffffffffff1673ffffffffffffffffffffffffffffffffffffffff1663b8e51787846040518263ffffffff1660e01b8152600401611e9b91906128f1565b600060405180830381865afa158015611eb8573d6000803e3d6000fd5b505050506040513d6000823e3d601f19601f82011682018060405250810190611ee19190613446565b6020015160e00151600160009054906101000a900473ffffffffffffffffffffffffffffffffffffffff1673ffffffffffffffffffffffffffffffffffffffff1663b8e51787856040518263ffffffff1660e01b8152600401611f4491906128f1565b600060405180830381865afa158015611f61573d6000803e3d6000fd5b505050506040513d6000823e3d601f19601f82011682018060405250810190611f8a9190613446565b60200151610100015191509150915091565b606060008054906101000a900473ffffffffffffffffffffffffffffffffffffffff1673ffffffffffffffffffffffffffffffffffffffff166313f44d10336040518263ffffffff1660e01b8152600401611ff79190613056565b602060405180830381865afa158015612014573d6000803e3d6000fd5b505050506040513d601f19601f82011682018060405250810190612038919061309d565b612077576040517f08c379a000000000000000000000000000000000000000000000000000000000815260040161206e90613127565b60405180910390fd5b60008383905067ffffffffffffffff8111156120965761209561314c565b5b6040519080825280602002602001820160405280156120c45781602001602082028036833780820191505090505b50905060005b8484905081101561213357612103868686848181106120ec576120eb61359b565b5b90506020028101906120fe919061398c565b610f88565b8282815181106121165761211561359b565b5b6020026020010181815250508061212c906135f9565b90506120ca565b50809150509392505050565b60008054906101000a900473ffffffffffffffffffffffffffffffffffffffff1673ffffffffffffffffffffffffffffffffffffffff166313f44d10336040518263ffffffff1660e01b81526004016121989190613056565b602060405180830381865afa1580156121b5573d6000803e3d6000fd5b505050506040513d601f19601f820116820180604052508101906121d9919061309d565b612218576040517f08c379a000000000000000000000000000000000000000000000000000000000815260040161220f90613127565b60405180910390fd5b600160009054906101000a900473ffffffffffffffffffffffffffffffffffffffff1673ffffffffffffffffffffffffffffffffffffffff1663ecd8a67783836040518363ffffffff1660e01b8152600401612275929190612ead565b600060405180830381600087803b15801561228f57600080fd5b505af11580156122a3573d6000803e3d6000fd5b505050505050565b606060008054906101000a900473ffffffffffffffffffffffffffffffffffffffff1673ffffffffffffffffffffffffffffffffffffffff166313f44d10336040518263ffffffff1660e01b81526004016123069190613056565b602060405180830381865afa158015612323573d6000803e3d6000fd5b505050506040513d601f19601f82011682018060405250810190612347919061309d565b612386576040517f08c379a000000000000000000000000000000000000000000000000000000000815260040161237d90613127565b60405180910390fd5b600160009054906101000a900473ffffffffffffffffffffffffffffffffffffffff1673ffffffffffffffffffffffffffffffffffffffff1663ed373249836040518263ffffffff1660e01b81526004016123e191906128f1565b600060405180830381865afa1580156123fe573d6000803e3d6000fd5b505050506040513d6000823e3d601f19601f820116820180604052508101906124279190613552565b9050919050565b60008060009054906101000a900473ffffffffffffffffffffffffffffffffffffffff1673ffffffffffffffffffffffffffffffffffffffff166313f44d10336040518263ffffffff1660e01b815260040161248a9190613056565b602060405180830381865afa1580156124a7573d6000803e3d6000fd5b505050506040513d601f19601f820116820180604052508101906124cb919061309d565b61250a576040517f08c379a000000000000000000000000000000000000000000000000000000000815260040161250190613127565b60405180910390fd5b600160009054906101000a900473ffffffffffffffffffffffffffffffffffffffff1673ffffffffffffffffffffffffffffffffffffffff1663b8e51787836040518263ffffffff1660e01b815260040161256591906128f1565b600060405180830381865afa158015612582573d6000803e3d6000fd5b505050506040513d6000823e3d601f19601f820116820180604052508101906125ab9190613446565b60200151606001519050919050565b6125c26127f1565b60405180602001604052806001815250905090565b6000806125e4848461275a565b1215905092915050565b606060006001845161260091906139b5565b67ffffffffffffffff8111156126195761261861314c565b5b6040519080825280602002602001820160405280156126475781602001602082028036833780820191505090505b50905060005b84518110156126a1578481815181106126695761266861359b565b5b60200260200101518282815181106126845761268361359b565b5b6020026020010181815250508061269a906135f9565b905061264d565b5082818551815181106126b7576126b661359b565b5b6020026020010181815250508091505092915050565b6000825111816040516020016126e39190613a71565b60405160208183030381529060405290612733576040517f08c379a000000000000000000000000000000000000000000000000000000000815260040161272a9190613acc565b60405180910390fd5b505050565b600081600001600081548092919061274f906135f9565b919050559050919050565b600080600090505b82518110156127a6578383828151811061277f5761277e61359b565b5b60200260200101510361279557809150506127cb565b8061279f906135f9565b9050612762565b507fffffffffffffffffffffffffffffffffffffffffffffffffffffffffffffffff90505b92915050565b6040518060400160405280600081526020016127eb612804565b81525090565b6040518060200160405280600081525090565b6040518061014001604052806060815260200160008152602001606081526020016000600181111561283957612838612bd0565b5b815260200160008152602001600081526020016000151581526020016000815260200160008152602001600081525090565b6000604051905090565b600080fd5b600080fd5b6000819050919050565b6128928161287f565b811461289d57600080fd5b50565b6000813590506128af81612889565b92915050565b6000602082840312156128cb576128ca612875565b5b60006128d9848285016128a0565b91505092915050565b6128eb8161287f565b82525050565b600060208201905061290660008301846128e2565b92915050565b6000806040838503121561292357612922612875565b5b6000612931858286016128a0565b9250506020612942858286016128a0565b9150509250929050565b60008115159050919050565b6129618161294c565b82525050565b600060208201905061297c6000830184612958565b92915050565b600081519050919050565b600082825260208201905092915050565b6000819050602082019050919050565b6129b78161287f565b82525050565b60006129c983836129ae565b60208301905092915050565b6000602082019050919050565b60006129ed82612982565b6129f7818561298d565b9350612a028361299e565b8060005b83811015612a33578151612a1a88826129bd565b9750612a25836129d5565b925050600181019050612a06565b5085935050505092915050565b60006020820190508181036000830152612a5a81846129e2565b905092915050565b600080fd5b600080fd5b600080fd5b60008083601f840112612a8757612a86612a62565b5b8235905067ffffffffffffffff811115612aa457612aa3612a67565b5b602083019150836020820283011115612ac057612abf612a6c565b5b9250929050565b60008060208385031215612ade57612add612875565b5b600083013567ffffffffffffffff811115612afc57612afb61287a565b5b612b0885828601612a71565b92509250509250929050565b600081519050919050565b600082825260208201905092915050565b6000819050602082019050919050565b600081519050919050565b600082825260208201905092915050565b60005b83811015612b7a578082015181840152602081019050612b5f565b60008484015250505050565b6000601f19601f8301169050919050565b6000612ba282612b40565b612bac8185612b4b565b9350612bbc818560208601612b5c565b612bc581612b86565b840191505092915050565b7f4e487b7100000000000000000000000000000000000000000000000000000000600052602160045260246000fd5b60028110612c1057612c0f612bd0565b5b50565b6000819050612c2182612bff565b919050565b6000612c3182612c13565b9050919050565b612c4181612c26565b82525050565b612c508161294c565b82525050565b6000610140830160008301518482036000860152612c748282612b97565b9150506020830151612c8960208601826129ae565b5060408301518482036040860152612ca18282612b97565b9150506060830151612cb66060860182612c38565b506080830151612cc960808601826129ae565b5060a0830151612cdc60a08601826129ae565b5060c0830151612cef60c0860182612c47565b5060e0830151612d0260e08601826129ae565b50610100830151612d176101008601826129ae565b50610120830151612d2c6101208601826129ae565b508091505092915050565b6000604083016000830151612d4f60008601826129ae565b5060208301518482036020860152612d678282612c56565b9150508091505092915050565b6000612d808383612d37565b905092915050565b6000602082019050919050565b6000612da082612b14565b612daa8185612b1f565b935083602082028501612dbc85612b30565b8060005b85811015612df85784840389528151612dd98582612d74565b9450612de483612d88565b925060208a01995050600181019050612dc0565b50829750879550505050505092915050565b60006020820190508181036000830152612e248184612d95565b905092915050565b600080fd5b60006101408284031215612e4857612e47612e2c565b5b81905092915050565b60008060408385031215612e6857612e67612875565b5b6000612e76858286016128a0565b925050602083013567ffffffffffffffff811115612e9757612e9661287a565b5b612ea385828601612e31565b9150509250929050565b6000604082019050612ec260008301856128e2565b612ecf60208301846128e2565b9392505050565b6000604083016000830151612eee60008601826129ae565b5060208301518482036020860152612f068282612c56565b9150508091505092915050565b60006020820190508181036000830152612f2d8184612ed6565b905092915050565b60008083601f840112612f4b57612f4a612a62565b5b8235905067ffffffffffffffff811115612f6857612f67612a67565b5b602083019150836020820283011115612f8457612f83612a6c565b5b9250929050565b600080600060408486031215612fa457612fa3612875565b5b6000612fb2868287016128a0565b935050602084013567ffffffffffffffff811115612fd357612fd261287a565b5b612fdf86828701612f35565b92509250509250925092565b612ff481612c26565b82525050565b600060208201905061300f6000830184612feb565b92915050565b600073ffffffffffffffffffffffffffffffffffffffff82169050919050565b600061304082613015565b9050919050565b61305081613035565b82525050565b600060208201905061306b6000830184613047565b92915050565b61307a8161294c565b811461308557600080fd5b50565b60008151905061309781613071565b92915050565b6000602082840312156130b3576130b2612875565b5b60006130c184828501613088565b91505092915050565b600082825260208201905092915050565b7f5468652073656e646572206973206e6f742077686974656c6973746564000000600082015250565b6000613111601d836130ca565b915061311c826130db565b602082019050919050565b6000602082019050818103600083015261314081613104565b9050919050565b600080fd5b7f4e487b7100000000000000000000000000000000000000000000000000000000600052604160045260246000fd5b61318482612b86565b810181811067ffffffffffffffff821117156131a3576131a261314c565b5b80604052505050565b60006131b661286b565b90506131c2828261317b565b919050565b600080fd5b6000815190506131db81612889565b92915050565b600080fd5b600067ffffffffffffffff8211156132015761320061314c565b5b61320a82612b86565b9050602081019050919050565b600061322a613225846131e6565b6131ac565b905082815260208101848484011115613246576132456131e1565b5b613251848285612b5c565b509392505050565b600082601f83011261326e5761326d612a62565b5b815161327e848260208601613217565b91505092915050565b6002811061329457600080fd5b50565b6000815190506132a681613287565b92915050565b600061014082840312156132c3576132c2613147565b5b6132ce6101406131ac565b9050600082015167ffffffffffffffff8111156132ee576132ed6131c7565b5b6132fa84828501613259565b600083015250602061330e848285016131cc565b602083015250604082015167ffffffffffffffff811115613332576133316131c7565b5b61333e84828501613259565b604083015250606061335284828501613297565b6060830152506080613366848285016131cc565b60808301525060a061337a848285016131cc565b60a08301525060c061338e84828501613088565b60c08301525060e06133a2848285016131cc565b60e0830152506101006133b7848285016131cc565b610100830152506101206133cd848285016131cc565b6101208301525092915050565b6000604082840312156133f0576133ef613147565b5b6133fa60406131ac565b9050600061340a848285016131cc565b600083015250602082015167ffffffffffffffff81111561342e5761342d6131c7565b5b61343a848285016132ac565b60208301525092915050565b60006020828403121561345c5761345b612875565b5b600082015167ffffffffffffffff81111561347a5761347961287a565b5b613486848285016133da565b91505092915050565b600067ffffffffffffffff8211156134aa576134a961314c565b5b602082029050602081019050919050565b60006134ce6134c98461348f565b6131ac565b905080838252602082019050602084028301858111156134f1576134f0612a6c565b5b835b8181101561351a578061350688826131cc565b8452602084019350506020810190506134f3565b5050509392505050565b600082601f83011261353957613538612a62565b5b81516135498482602086016134bb565b91505092915050565b60006020828403121561356857613567612875565b5b600082015167ffffffffffffffff8111156135865761358561287a565b5b61359284828501613524565b91505092915050565b7f4e487b7100000000000000000000000000000000000000000000000000000000600052603260045260246000fd5b7f4e487b7100000000000000000000000000000000000000000000000000000000600052601160045260246000fd5b60006136048261287f565b91507fffffffffffffffffffffffffffffffffffffffffffffffffffffffffffffffff8203613636576136356135ca565b5b600182019050919050565b600080fd5b600080fd5b600080fd5b6000808335600160200384360303811261366d5761366c613641565b5b80840192508235915067ffffffffffffffff82111561368f5761368e613646565b5b6020830192506001820236038313156136ab576136aa61364b565b5b509250929050565b7f4d696e20706f696e74732063616e6e6f7420626520686967686572207468616e60008201527f206d617820706f696e7473000000000000000000000000000000000000000000602082015250565b600061370f602b836130ca565b915061371a826136b3565b604082019050919050565b6000602082019050818103600083015261373e81613702565b9050919050565b82818337600083830152505050565b6000613767613762846131e6565b6131ac565b905082815260208101848484011115613783576137826131e1565b5b61378e848285613745565b509392505050565b600082601f8301126137ab576137aa612a62565b5b81356137bb848260208601613754565b91505092915050565b6000813590506137d381613287565b92915050565b6000813590506137e881613071565b92915050565b6000610140828403121561380557613804613147565b5b6138106101406131ac565b9050600082013567ffffffffffffffff8111156138305761382f6131c7565b5b61383c84828501613796565b6000830152506020613850848285016128a0565b602083015250604082013567ffffffffffffffff811115613874576138736131c7565b5b61388084828501613796565b6040830152506060613894848285016137c4565b60608301525060806138a8848285016128a0565b60808301525060a06138bc848285016128a0565b60a08301525060c06138d0848285016137d9565b60c08301525060e06138e4848285016128a0565b60e0830152506101006138f9848285016128a0565b6101008301525061012061390f848285016128a0565b6101208301525092915050565b600061392836836137ee565b9050919050565b600060408201905061394460008301856128e2565b81810360208301526139568184612ed6565b90509392505050565b60006020828403121561397557613974612875565b5b6000613983848285016131cc565b91505092915050565b600082356001610140038336030381126139a9576139a8613641565b5b80830191505092915050565b60006139c08261287f565b91506139cb8361287f565b92508282019050808211156139e3576139e26135ca565b5b92915050565b600081905092915050565b60006139ff82612b40565b613a0981856139e9565b9350613a19818560208601612b5c565b80840191505092915050565b7f2063616e6e6f7420626520656d70747900000000000000000000000000000000600082015250565b6000613a5b6010836139e9565b9150613a6682613a25565b601082019050919050565b6000613a7d82846139f4565b9150613a8882613a4e565b915081905092915050565b6000613a9e82612b40565b613aa881856130ca565b9350613ab8818560208601612b5c565b613ac181612b86565b840191505092915050565b60006020820190508181036000830152613ae68184613a93565b90509291505056fea26469706673582212202b1d52676503c42a4e9d237ff41b905a39b809461d344bb251e086c2c039cff864736f6c63430008110033",
  "linkReferences": {},
  "deployedLinkReferences": {}
}