{
  "_format": "hh-sol-artifact-1",
  "contractName": "AssessmentDataManager",
  "sourceName": "contracts/data/datamanager/AssessmentDataManager.sol",
  "abi": [
    {
      "inputs": [
        {
          "internalType": "address",
          "name": "assessmentDataStorageAddress",
          "type": "address"
        },
        {
          "internalType": "address",
          "name": "accessWhitelistAddress",
          "type": "address"
        }
      ],
      "stateMutability": "nonpayable",
      "type": "constructor"
    },
    {
      "inputs": [
        {
          "internalType": "uint256",
          "name": "courseId",
          "type": "uint256"
        },
        {
          "components": [
            {
              "internalType": "string",
              "name": "title",
              "type": "string"
            },
            {
              "internalType": "uint256",
              "name": "datetime",
              "type": "uint256"
            },
            {
              "internalType": "string",
              "name": "place",
              "type": "string"
            },
            {
              "internalType": "enum CourseDataTypes.AssessmentType",
              "name": "assessmentType",
              "type": "uint8"
            },
            {
              "internalType": "uint256",
              "name": "maxPoints",
              "type": "uint256"
            },
            {
              "internalType": "uint256",
              "name": "minPoints",
              "type": "uint256"
            },
            {
              "internalType": "bool",
              "name": "isRegistrationRequired",
              "type": "bool"
            },
            {
              "internalType": "uint256",
              "name": "registrationStart",
              "type": "uint256"
            },
            {
              "internalType": "uint256",
              "name": "registrationDeadline",
              "type": "uint256"
            },
            {
              "internalType": "uint256",
              "name": "deregistrationDeadline",
              "type": "uint256"
            }
          ],
          "internalType": "struct CourseDataTypes.AssessmentContent[]",
          "name": "assessmentContents",
          "type": "tuple[]"
        }
      ],
      "name": "addAssessments",
      "outputs": [],
      "stateMutability": "nonpayable",
      "type": "function"
    },
    {
      "inputs": [
        {
          "internalType": "uint256",
          "name": "assessmentId",
          "type": "uint256"
        },
        {
          "internalType": "uint256",
          "name": "uId",
          "type": "uint256"
        }
      ],
      "name": "addRegistrantToAssessment",
      "outputs": [],
      "stateMutability": "nonpayable",
      "type": "function"
    },
    {
      "inputs": [
        {
          "internalType": "uint256",
          "name": "assessmentId",
          "type": "uint256"
        }
      ],
      "name": "getAssessment",
      "outputs": [
        {
          "components": [
            {
              "internalType": "uint256",
              "name": "assessmentId",
              "type": "uint256"
            },
            {
              "components": [
                {
                  "internalType": "string",
                  "name": "title",
                  "type": "string"
                },
                {
                  "internalType": "uint256",
                  "name": "datetime",
                  "type": "uint256"
                },
                {
                  "internalType": "string",
                  "name": "place",
                  "type": "string"
                },
                {
                  "internalType": "enum CourseDataTypes.AssessmentType",
                  "name": "assessmentType",
                  "type": "uint8"
                },
                {
                  "internalType": "uint256",
                  "name": "maxPoints",
                  "type": "uint256"
                },
                {
                  "internalType": "uint256",
                  "name": "minPoints",
                  "type": "uint256"
                },
                {
                  "internalType": "bool",
                  "name": "isRegistrationRequired",
                  "type": "bool"
                },
                {
                  "internalType": "uint256",
                  "name": "registrationStart",
                  "type": "uint256"
                },
                {
                  "internalType": "uint256",
                  "name": "registrationDeadline",
                  "type": "uint256"
                },
                {
                  "internalType": "uint256",
                  "name": "deregistrationDeadline",
                  "type": "uint256"
                }
              ],
              "internalType": "struct CourseDataTypes.AssessmentContent",
              "name": "assessmentContent",
              "type": "tuple"
            }
          ],
          "internalType": "struct CourseDataTypes.Assessment",
          "name": "",
          "type": "tuple"
        }
      ],
      "stateMutability": "view",
      "type": "function"
    },
    {
      "inputs": [
        {
          "internalType": "uint256",
          "name": "assessmentId",
          "type": "uint256"
        }
      ],
      "name": "getAssessmentDeregistrationPeriod",
      "outputs": [
        {
          "internalType": "uint256",
          "name": "",
          "type": "uint256"
        },
        {
          "internalType": "uint256",
          "name": "",
          "type": "uint256"
        }
      ],
      "stateMutability": "view",
      "type": "function"
    },
    {
      "inputs": [
        {
          "internalType": "uint256",
          "name": "courseId",
          "type": "uint256"
        }
      ],
      "name": "getAssessmentIdsToCourseId",
      "outputs": [
        {
          "internalType": "uint256[]",
          "name": "",
          "type": "uint256[]"
        }
      ],
      "stateMutability": "view",
      "type": "function"
    },
    {
      "inputs": [
        {
          "internalType": "uint256",
          "name": "assessmentId",
          "type": "uint256"
        }
      ],
      "name": "getAssessmentMaxPoints",
      "outputs": [
        {
          "internalType": "uint256",
          "name": "",
          "type": "uint256"
        }
      ],
      "stateMutability": "view",
      "type": "function"
    },
    {
      "inputs": [
        {
          "internalType": "uint256",
          "name": "assessmentId",
          "type": "uint256"
        }
      ],
      "name": "getAssessmentMinPoints",
      "outputs": [
        {
          "internalType": "uint256",
          "name": "",
          "type": "uint256"
        }
      ],
      "stateMutability": "view",
      "type": "function"
    },
    {
      "inputs": [
        {
          "internalType": "uint256",
          "name": "assessmentId",
          "type": "uint256"
        }
      ],
      "name": "getAssessmentRegistrantIds",
      "outputs": [
        {
          "internalType": "uint256[]",
          "name": "",
          "type": "uint256[]"
        }
      ],
      "stateMutability": "view",
      "type": "function"
    },
    {
      "inputs": [
        {
          "internalType": "uint256",
          "name": "assessmentId",
          "type": "uint256"
        }
      ],
      "name": "getAssessmentRegistrationPeriod",
      "outputs": [
        {
          "internalType": "uint256",
          "name": "",
          "type": "uint256"
        },
        {
          "internalType": "uint256",
          "name": "",
          "type": "uint256"
        }
      ],
      "stateMutability": "view",
      "type": "function"
    },
    {
      "inputs": [
        {
          "internalType": "uint256",
          "name": "assessmentId",
          "type": "uint256"
        }
      ],
      "name": "getAssessmentTime",
      "outputs": [
        {
          "internalType": "uint256",
          "name": "",
          "type": "uint256"
        }
      ],
      "stateMutability": "view",
      "type": "function"
    },
    {
      "inputs": [
        {
          "internalType": "uint256",
          "name": "assessmentId",
          "type": "uint256"
        }
      ],
      "name": "getAssessmentType",
      "outputs": [
        {
          "internalType": "enum CourseDataTypes.AssessmentType",
          "name": "",
          "type": "uint8"
        }
      ],
      "stateMutability": "view",
      "type": "function"
    },
    {
      "inputs": [
        {
          "internalType": "uint256[]",
          "name": "assessmentIds",
          "type": "uint256[]"
        }
      ],
      "name": "getAssessments",
      "outputs": [
        {
          "components": [
            {
              "internalType": "uint256",
              "name": "assessmentId",
              "type": "uint256"
            },
            {
              "components": [
                {
                  "internalType": "string",
                  "name": "title",
                  "type": "string"
                },
                {
                  "internalType": "uint256",
                  "name": "datetime",
                  "type": "uint256"
                },
                {
                  "internalType": "string",
                  "name": "place",
                  "type": "string"
                },
                {
                  "internalType": "enum CourseDataTypes.AssessmentType",
                  "name": "assessmentType",
                  "type": "uint8"
                },
                {
                  "internalType": "uint256",
                  "name": "maxPoints",
                  "type": "uint256"
                },
                {
                  "internalType": "uint256",
                  "name": "minPoints",
                  "type": "uint256"
                },
                {
                  "internalType": "bool",
                  "name": "isRegistrationRequired",
                  "type": "bool"
                },
                {
                  "internalType": "uint256",
                  "name": "registrationStart",
                  "type": "uint256"
                },
                {
                  "internalType": "uint256",
                  "name": "registrationDeadline",
                  "type": "uint256"
                },
                {
                  "internalType": "uint256",
                  "name": "deregistrationDeadline",
                  "type": "uint256"
                }
              ],
              "internalType": "struct CourseDataTypes.AssessmentContent",
              "name": "assessmentContent",
              "type": "tuple"
            }
          ],
          "internalType": "struct CourseDataTypes.Assessment[]",
          "name": "",
          "type": "tuple[]"
        }
      ],
      "stateMutability": "view",
      "type": "function"
    },
    {
      "inputs": [
        {
          "internalType": "uint256",
          "name": "courseId",
          "type": "uint256"
        }
      ],
      "name": "getAssessmentsToCourseId",
      "outputs": [
        {
          "components": [
            {
              "internalType": "uint256",
              "name": "assessmentId",
              "type": "uint256"
            },
            {
              "components": [
                {
                  "internalType": "string",
                  "name": "title",
                  "type": "string"
                },
                {
                  "internalType": "uint256",
                  "name": "datetime",
                  "type": "uint256"
                },
                {
                  "internalType": "string",
                  "name": "place",
                  "type": "string"
                },
                {
                  "internalType": "enum CourseDataTypes.AssessmentType",
                  "name": "assessmentType",
                  "type": "uint8"
                },
                {
                  "internalType": "uint256",
                  "name": "maxPoints",
                  "type": "uint256"
                },
                {
                  "internalType": "uint256",
                  "name": "minPoints",
                  "type": "uint256"
                },
                {
                  "internalType": "bool",
                  "name": "isRegistrationRequired",
                  "type": "bool"
                },
                {
                  "internalType": "uint256",
                  "name": "registrationStart",
                  "type": "uint256"
                },
                {
                  "internalType": "uint256",
                  "name": "registrationDeadline",
                  "type": "uint256"
                },
                {
                  "internalType": "uint256",
                  "name": "deregistrationDeadline",
                  "type": "uint256"
                }
              ],
              "internalType": "struct CourseDataTypes.AssessmentContent",
              "name": "assessmentContent",
              "type": "tuple"
            }
          ],
          "internalType": "struct CourseDataTypes.Assessment[]",
          "name": "",
          "type": "tuple[]"
        }
      ],
      "stateMutability": "view",
      "type": "function"
    },
    {
      "inputs": [
        {
          "internalType": "uint256",
          "name": "assessmentId",
          "type": "uint256"
        }
      ],
      "name": "getCourseIdToAssessmentId",
      "outputs": [
        {
          "internalType": "uint256",
          "name": "",
          "type": "uint256"
        }
      ],
      "stateMutability": "view",
      "type": "function"
    },
    {
      "inputs": [
        {
          "internalType": "uint256",
          "name": "assessmentId",
          "type": "uint256"
        }
      ],
      "name": "isAssessmentRegistrationRequired",
      "outputs": [
        {
          "internalType": "bool",
          "name": "",
          "type": "bool"
        }
      ],
      "stateMutability": "view",
      "type": "function"
    },
    {
      "inputs": [
        {
          "internalType": "uint256",
          "name": "uId",
          "type": "uint256"
        },
        {
          "internalType": "uint256",
          "name": "assessmentId",
          "type": "uint256"
        }
      ],
      "name": "isRegisteredToAssessment",
      "outputs": [
        {
          "internalType": "bool",
          "name": "",
          "type": "bool"
        }
      ],
      "stateMutability": "view",
      "type": "function"
    },
    {
      "inputs": [
        {
          "internalType": "uint256",
          "name": "assessmentId",
          "type": "uint256"
        },
        {
          "internalType": "uint256",
          "name": "uId",
          "type": "uint256"
        }
      ],
      "name": "removeRegistrantFromAssessment",
      "outputs": [],
      "stateMutability": "nonpayable",
      "type": "function"
    }
  ],
  "bytecode": "0x608060405262000019620000e560201b620021fe1760201c565b60026000820151816000015550503480156200003457600080fd5b50604051620037ac380380620037ac83398181016040528101906200005a919062000181565b80806000806101000a81548173ffffffffffffffffffffffffffffffffffffffff021916908373ffffffffffffffffffffffffffffffffffffffff1602179055505081600160006101000a81548173ffffffffffffffffffffffffffffffffffffffff021916908373ffffffffffffffffffffffffffffffffffffffff1602179055505050620001c8565b620000ef62000104565b60405180602001604052806001815250905090565b6040518060200160405280600081525090565b600080fd5b600073ffffffffffffffffffffffffffffffffffffffff82169050919050565b600062000149826200011c565b9050919050565b6200015b816200013c565b81146200016757600080fd5b50565b6000815190506200017b8162000150565b92915050565b600080604083850312156200019b576200019a62000117565b5b6000620001ab858286016200016a565b9250506020620001be858286016200016a565b9150509250929050565b6135d480620001d86000396000f3fe608060405234801561001057600080fd5b506004361061010b5760003560e01c8063786e0785116100a2578063b8e5178711610071578063b8e5178714610329578063d8d5064114610359578063e0d0346e1461038a578063e285fd25146103a6578063e9eb5356146103d65761010b565b8063786e078514610269578063a01a6b5414610299578063a31cf91f146102c9578063a5478d4f146102f95761010b565b806330938d70116100de57806330938d70146101bc5780634ad54133146101ec5780634d9383a41461020857806360dcaa46146102385761010b565b80630a6278521461011057806323ff17851461014057806326f63a96146101705780632b00d6ca146101a0575b600080fd5b61012a6004803603810190610125919061241a565b610406565b6040516101379190612456565b60405180910390f35b61015a60048036038101906101559190612471565b610592565b60405161016791906124cc565b60405180910390f35b61018a6004803603810190610185919061241a565b610720565b6040516101979190612456565b60405180910390f35b6101ba60048036038101906101b59190612471565b6108ac565b005b6101d660048036038101906101d1919061241a565b610a18565b6040516101e391906124cc565b60405180910390f35b6102066004803603810190610201919061254c565b610ba4565b005b610222600480360381019061021d9190612602565b610ec3565b60405161022f9190612954565b60405180910390f35b610252600480360381019061024d919061241a565b611022565b604051610260929190612976565b60405180910390f35b610283600480360381019061027e919061241a565b61125a565b6040516102909190612a4e565b60405180910390f35b6102b360048036038101906102ae919061241a565b6113dd565b6040516102c09190612456565b60405180910390f35b6102e360048036038101906102de919061241a565b611569565b6040516102f09190612456565b60405180910390f35b610313600480360381019061030e919061241a565b6116e8565b6040516103209190612954565b60405180910390f35b610343600480360381019061033e919061241a565b6119c2565b6040516103509190612aad565b60405180910390f35b610373600480360381019061036e919061241a565b611b4b565b604051610381929190612976565b60405180910390f35b6103a4600480360381019061039f9190612471565b611d83565b005b6103c060048036038101906103bb919061241a565b611eef565b6040516103cd9190612a4e565b60405180910390f35b6103f060048036038101906103eb919061241a565b612072565b6040516103fd9190612ade565b60405180910390f35b60008060009054906101000a900473ffffffffffffffffffffffffffffffffffffffff1673ffffffffffffffffffffffffffffffffffffffff166313f44d10336040518263ffffffff1660e01b81526004016104629190612b3a565b602060405180830381865afa15801561047f573d6000803e3d6000fd5b505050506040513d601f19601f820116820180604052508101906104a39190612b81565b6104e2576040517f08c379a00000000000000000000000000000000000000000000000000000000081526004016104d990612c0b565b60405180910390fd5b600160009054906101000a900473ffffffffffffffffffffffffffffffffffffffff1673ffffffffffffffffffffffffffffffffffffffff1663b8e51787836040518263ffffffff1660e01b815260040161053d9190612456565b600060405180830381865afa15801561055a573d6000803e3d6000fd5b505050506040513d6000823e3d601f19601f820116820180604052508101906105839190612f2a565b6020015160a001519050919050565b60008060009054906101000a900473ffffffffffffffffffffffffffffffffffffffff1673ffffffffffffffffffffffffffffffffffffffff166313f44d10336040518263ffffffff1660e01b81526004016105ee9190612b3a565b602060405180830381865afa15801561060b573d6000803e3d6000fd5b505050506040513d601f19601f8201168201806040525081019061062f9190612b81565b61066e576040517f08c379a000000000000000000000000000000000000000000000000000000000815260040161066590612c0b565b60405180910390fd5b61071883600160009054906101000a900473ffffffffffffffffffffffffffffffffffffffff1673ffffffffffffffffffffffffffffffffffffffff1663ed373249856040518263ffffffff1660e01b81526004016106cd9190612456565b600060405180830381865afa1580156106ea573d6000803e3d6000fd5b505050506040513d6000823e3d601f19601f820116820180604052508101906107139190613036565b61221b565b905092915050565b60008060009054906101000a900473ffffffffffffffffffffffffffffffffffffffff1673ffffffffffffffffffffffffffffffffffffffff166313f44d10336040518263ffffffff1660e01b815260040161077c9190612b3a565b602060405180830381865afa158015610799573d6000803e3d6000fd5b505050506040513d601f19601f820116820180604052508101906107bd9190612b81565b6107fc576040517f08c379a00000000000000000000000000000000000000000000000000000000081526004016107f390612c0b565b60405180910390fd5b600160009054906101000a900473ffffffffffffffffffffffffffffffffffffffff1673ffffffffffffffffffffffffffffffffffffffff1663b8e51787836040518263ffffffff1660e01b81526004016108579190612456565b600060405180830381865afa158015610874573d6000803e3d6000fd5b505050506040513d6000823e3d601f19601f8201168201806040525081019061089d9190612f2a565b60200151602001519050919050565b60008054906101000a900473ffffffffffffffffffffffffffffffffffffffff1673ffffffffffffffffffffffffffffffffffffffff166313f44d10336040518263ffffffff1660e01b81526004016109059190612b3a565b602060405180830381865afa158015610922573d6000803e3d6000fd5b505050506040513d601f19601f820116820180604052508101906109469190612b81565b610985576040517f08c379a000000000000000000000000000000000000000000000000000000000815260040161097c90612c0b565b60405180910390fd5b600160009054906101000a900473ffffffffffffffffffffffffffffffffffffffff1673ffffffffffffffffffffffffffffffffffffffff1663b4ab4bab83836040518363ffffffff1660e01b81526004016109e2929190612976565b600060405180830381600087803b1580156109fc57600080fd5b505af1158015610a10573d6000803e3d6000fd5b505050505050565b60008060009054906101000a900473ffffffffffffffffffffffffffffffffffffffff1673ffffffffffffffffffffffffffffffffffffffff166313f44d10336040518263ffffffff1660e01b8152600401610a749190612b3a565b602060405180830381865afa158015610a91573d6000803e3d6000fd5b505050506040513d601f19601f82011682018060405250810190610ab59190612b81565b610af4576040517f08c379a0000000000000000000000000000000000000000000000000000000008152600401610aeb90612c0b565b60405180910390fd5b600160009054906101000a900473ffffffffffffffffffffffffffffffffffffffff1673ffffffffffffffffffffffffffffffffffffffff1663b8e51787836040518263ffffffff1660e01b8152600401610b4f9190612456565b600060405180830381865afa158015610b6c573d6000803e3d6000fd5b505050506040513d6000823e3d601f19601f82011682018060405250810190610b959190612f2a565b6020015160c001519050919050565b60008054906101000a900473ffffffffffffffffffffffffffffffffffffffff1673ffffffffffffffffffffffffffffffffffffffff166313f44d10336040518263ffffffff1660e01b8152600401610bfd9190612b3a565b602060405180830381865afa158015610c1a573d6000803e3d6000fd5b505050506040513d601f19601f82011682018060405250810190610c3e9190612b81565b610c7d576040517f08c379a0000000000000000000000000000000000000000000000000000000008152600401610c7490612c0b565b60405180910390fd5b60005b82829050811015610ebd57610d40838383818110610ca157610ca061307f565b5b9050602002810190610cb391906130bd565b8060000190610cc291906130e6565b8080601f016020809104026020016040519081016040528093929190818152602001838380828437600081840152601f19601f820116905080830192505050505050506040518060400160405280600581526020017f5469746c65000000000000000000000000000000000000000000000000000000815250612232565b828282818110610d5357610d5261307f565b5b9050602002810190610d6591906130bd565b60800135838383818110610d7c57610d7b61307f565b5b9050602002810190610d8e91906130bd565b60a001351115610dd3576040517f08c379a0000000000000000000000000000000000000000000000000000000008152600401610dca906131bb565b60405180910390fd5b600160009054906101000a900473ffffffffffffffffffffffffffffffffffffffff1673ffffffffffffffffffffffffffffffffffffffff16635bccdece856040518060400160405280610e27600261229d565b8152602001878787818110610e3f57610e3e61307f565b5b9050602002810190610e5191906130bd565b610e5a906133b2565b8152506040518363ffffffff1660e01b8152600401610e7a9291906133c5565b600060405180830381600087803b158015610e9457600080fd5b505af1158015610ea8573d6000803e3d6000fd5b5050505080610eb690613424565b9050610c80565b50505050565b606060008383905067ffffffffffffffff811115610ee457610ee3612c30565b5b604051908082528060200260200182016040528015610f1d57816020015b610f0a612336565b815260200190600190039081610f025790505b50905060005b8484905081101561101757600160009054906101000a900473ffffffffffffffffffffffffffffffffffffffff1673ffffffffffffffffffffffffffffffffffffffff1663b8e51787868684818110610f7f57610f7e61307f565b5b905060200201356040518263ffffffff1660e01b8152600401610fa29190612456565b600060405180830381865afa158015610fbf573d6000803e3d6000fd5b505050506040513d6000823e3d601f19601f82011682018060405250810190610fe89190612f2a565b828281518110610ffb57610ffa61307f565b5b60200260200101819052508061101090613424565b9050610f23565b508091505092915050565b60008060008054906101000a900473ffffffffffffffffffffffffffffffffffffffff1673ffffffffffffffffffffffffffffffffffffffff166313f44d10336040518263ffffffff1660e01b815260040161107e9190612b3a565b602060405180830381865afa15801561109b573d6000803e3d6000fd5b505050506040513d601f19601f820116820180604052508101906110bf9190612b81565b6110fe576040517f08c379a00000000000000000000000000000000000000000000000000000000081526004016110f590612c0b565b60405180910390fd5b600160009054906101000a900473ffffffffffffffffffffffffffffffffffffffff1673ffffffffffffffffffffffffffffffffffffffff1663b8e51787846040518263ffffffff1660e01b81526004016111599190612456565b600060405180830381865afa158015611176573d6000803e3d6000fd5b505050506040513d6000823e3d601f19601f8201168201806040525081019061119f9190612f2a565b6020015160e00151600160009054906101000a900473ffffffffffffffffffffffffffffffffffffffff1673ffffffffffffffffffffffffffffffffffffffff1663b8e51787856040518263ffffffff1660e01b81526004016112029190612456565b600060405180830381865afa15801561121f573d6000803e3d6000fd5b505050506040513d6000823e3d601f19601f820116820180604052508101906112489190612f2a565b60200151610120015191509150915091565b606060008054906101000a900473ffffffffffffffffffffffffffffffffffffffff1673ffffffffffffffffffffffffffffffffffffffff166313f44d10336040518263ffffffff1660e01b81526004016112b59190612b3a565b602060405180830381865afa1580156112d2573d6000803e3d6000fd5b505050506040513d601f19601f820116820180604052508101906112f69190612b81565b611335576040517f08c379a000000000000000000000000000000000000000000000000000000000815260040161132c90612c0b565b60405180910390fd5b600160009054906101000a900473ffffffffffffffffffffffffffffffffffffffff1673ffffffffffffffffffffffffffffffffffffffff1663e7e94b12836040518263ffffffff1660e01b81526004016113909190612456565b600060405180830381865afa1580156113ad573d6000803e3d6000fd5b505050506040513d6000823e3d601f19601f820116820180604052508101906113d69190613036565b9050919050565b60008060009054906101000a900473ffffffffffffffffffffffffffffffffffffffff1673ffffffffffffffffffffffffffffffffffffffff166313f44d10336040518263ffffffff1660e01b81526004016114399190612b3a565b602060405180830381865afa158015611456573d6000803e3d6000fd5b505050506040513d601f19601f8201168201806040525081019061147a9190612b81565b6114b9576040517f08c379a00000000000000000000000000000000000000000000000000000000081526004016114b090612c0b565b60405180910390fd5b600160009054906101000a900473ffffffffffffffffffffffffffffffffffffffff1673ffffffffffffffffffffffffffffffffffffffff1663b8e51787836040518263ffffffff1660e01b81526004016115149190612456565b600060405180830381865afa158015611531573d6000803e3d6000fd5b505050506040513d6000823e3d601f19601f8201168201806040525081019061155a9190612f2a565b60200151608001519050919050565b60008060009054906101000a900473ffffffffffffffffffffffffffffffffffffffff1673ffffffffffffffffffffffffffffffffffffffff166313f44d10336040518263ffffffff1660e01b81526004016115c59190612b3a565b602060405180830381865afa1580156115e2573d6000803e3d6000fd5b505050506040513d601f19601f820116820180604052508101906116069190612b81565b611645576040517f08c379a000000000000000000000000000000000000000000000000000000000815260040161163c90612c0b565b60405180910390fd5b600160009054906101000a900473ffffffffffffffffffffffffffffffffffffffff1673ffffffffffffffffffffffffffffffffffffffff1663adfb1f8a836040518263ffffffff1660e01b81526004016116a09190612456565b602060405180830381865afa1580156116bd573d6000803e3d6000fd5b505050506040513d601f19601f820116820180604052508101906116e1919061346c565b9050919050565b606060008054906101000a900473ffffffffffffffffffffffffffffffffffffffff1673ffffffffffffffffffffffffffffffffffffffff166313f44d10336040518263ffffffff1660e01b81526004016117439190612b3a565b602060405180830381865afa158015611760573d6000803e3d6000fd5b505050506040513d601f19601f820116820180604052508101906117849190612b81565b6117c3576040517f08c379a00000000000000000000000000000000000000000000000000000000081526004016117ba90612c0b565b60405180910390fd5b6000600160009054906101000a900473ffffffffffffffffffffffffffffffffffffffff1673ffffffffffffffffffffffffffffffffffffffff1663e7e94b12846040518263ffffffff1660e01b81526004016118209190612456565b600060405180830381865afa15801561183d573d6000803e3d6000fd5b505050506040513d6000823e3d601f19601f820116820180604052508101906118669190613036565b90506000815167ffffffffffffffff81111561188557611884612c30565b5b6040519080825280602002602001820160405280156118be57816020015b6118ab612336565b8152602001906001900390816118a35790505b50905060005b82518110156119b757600160009054906101000a900473ffffffffffffffffffffffffffffffffffffffff1673ffffffffffffffffffffffffffffffffffffffff1663b8e5178784838151811061191e5761191d61307f565b5b60200260200101516040518263ffffffff1660e01b81526004016119429190612456565b600060405180830381865afa15801561195f573d6000803e3d6000fd5b505050506040513d6000823e3d601f19601f820116820180604052508101906119889190612f2a565b82828151811061199b5761199a61307f565b5b6020026020010181905250806119b090613424565b90506118c4565b508092505050919050565b6119ca612336565b60008054906101000a900473ffffffffffffffffffffffffffffffffffffffff1673ffffffffffffffffffffffffffffffffffffffff166313f44d10336040518263ffffffff1660e01b8152600401611a239190612b3a565b602060405180830381865afa158015611a40573d6000803e3d6000fd5b505050506040513d601f19601f82011682018060405250810190611a649190612b81565b611aa3576040517f08c379a0000000000000000000000000000000000000000000000000000000008152600401611a9a90612c0b565b60405180910390fd5b600160009054906101000a900473ffffffffffffffffffffffffffffffffffffffff1673ffffffffffffffffffffffffffffffffffffffff1663b8e51787836040518263ffffffff1660e01b8152600401611afe9190612456565b600060405180830381865afa158015611b1b573d6000803e3d6000fd5b505050506040513d6000823e3d601f19601f82011682018060405250810190611b449190612f2a565b9050919050565b60008060008054906101000a900473ffffffffffffffffffffffffffffffffffffffff1673ffffffffffffffffffffffffffffffffffffffff166313f44d10336040518263ffffffff1660e01b8152600401611ba79190612b3a565b602060405180830381865afa158015611bc4573d6000803e3d6000fd5b505050506040513d601f19601f82011682018060405250810190611be89190612b81565b611c27576040517f08c379a0000000000000000000000000000000000000000000000000000000008152600401611c1e90612c0b565b60405180910390fd5b600160009054906101000a900473ffffffffffffffffffffffffffffffffffffffff1673ffffffffffffffffffffffffffffffffffffffff1663b8e51787846040518263ffffffff1660e01b8152600401611c829190612456565b600060405180830381865afa158015611c9f573d6000803e3d6000fd5b505050506040513d6000823e3d601f19601f82011682018060405250810190611cc89190612f2a565b6020015160e00151600160009054906101000a900473ffffffffffffffffffffffffffffffffffffffff1673ffffffffffffffffffffffffffffffffffffffff1663b8e51787856040518263ffffffff1660e01b8152600401611d2b9190612456565b600060405180830381865afa158015611d48573d6000803e3d6000fd5b505050506040513d6000823e3d601f19601f82011682018060405250810190611d719190612f2a565b60200151610100015191509150915091565b60008054906101000a900473ffffffffffffffffffffffffffffffffffffffff1673ffffffffffffffffffffffffffffffffffffffff166313f44d10336040518263ffffffff1660e01b8152600401611ddc9190612b3a565b602060405180830381865afa158015611df9573d6000803e3d6000fd5b505050506040513d601f19601f82011682018060405250810190611e1d9190612b81565b611e5c576040517f08c379a0000000000000000000000000000000000000000000000000000000008152600401611e5390612c0b565b60405180910390fd5b600160009054906101000a900473ffffffffffffffffffffffffffffffffffffffff1673ffffffffffffffffffffffffffffffffffffffff1663ecd8a67783836040518363ffffffff1660e01b8152600401611eb9929190612976565b600060405180830381600087803b158015611ed357600080fd5b505af1158015611ee7573d6000803e3d6000fd5b505050505050565b606060008054906101000a900473ffffffffffffffffffffffffffffffffffffffff1673ffffffffffffffffffffffffffffffffffffffff166313f44d10336040518263ffffffff1660e01b8152600401611f4a9190612b3a565b602060405180830381865afa158015611f67573d6000803e3d6000fd5b505050506040513d601f19601f82011682018060405250810190611f8b9190612b81565b611fca576040517f08c379a0000000000000000000000000000000000000000000000000000000008152600401611fc190612c0b565b60405180910390fd5b600160009054906101000a900473ffffffffffffffffffffffffffffffffffffffff1673ffffffffffffffffffffffffffffffffffffffff1663ed373249836040518263ffffffff1660e01b81526004016120259190612456565b600060405180830381865afa158015612042573d6000803e3d6000fd5b505050506040513d6000823e3d601f19601f8201168201806040525081019061206b9190613036565b9050919050565b60008060009054906101000a900473ffffffffffffffffffffffffffffffffffffffff1673ffffffffffffffffffffffffffffffffffffffff166313f44d10336040518263ffffffff1660e01b81526004016120ce9190612b3a565b602060405180830381865afa1580156120eb573d6000803e3d6000fd5b505050506040513d601f19601f8201168201806040525081019061210f9190612b81565b61214e576040517f08c379a000000000000000000000000000000000000000000000000000000000815260040161214590612c0b565b60405180910390fd5b600160009054906101000a900473ffffffffffffffffffffffffffffffffffffffff1673ffffffffffffffffffffffffffffffffffffffff1663b8e51787836040518263ffffffff1660e01b81526004016121a99190612456565b600060405180830381865afa1580156121c6573d6000803e3d6000fd5b505050506040513d6000823e3d601f19601f820116820180604052508101906121ef9190612f2a565b60200151606001519050919050565b612206612356565b60405180602001604052806001815250905090565b60008061222884846122bf565b1215905092915050565b6000825111816040516020016122489190613521565b60405160208183030381529060405290612298576040517f08c379a000000000000000000000000000000000000000000000000000000000815260040161228f919061357c565b60405180910390fd5b505050565b60008160000160008154809291906122b490613424565b919050559050919050565b600080600090505b825181101561230b57838382815181106122e4576122e361307f565b5b6020026020010151036122fa5780915050612330565b8061230490613424565b90506122c7565b507fffffffffffffffffffffffffffffffffffffffffffffffffffffffffffffffff90505b92915050565b604051806040016040528060008152602001612350612369565b81525090565b6040518060200160405280600081525090565b6040518061014001604052806060815260200160008152602001606081526020016000600181111561239e5761239d61271a565b5b815260200160008152602001600081526020016000151581526020016000815260200160008152602001600081525090565b6000604051905090565b600080fd5b600080fd5b6000819050919050565b6123f7816123e4565b811461240257600080fd5b50565b600081359050612414816123ee565b92915050565b6000602082840312156124305761242f6123da565b5b600061243e84828501612405565b91505092915050565b612450816123e4565b82525050565b600060208201905061246b6000830184612447565b92915050565b60008060408385031215612488576124876123da565b5b600061249685828601612405565b92505060206124a785828601612405565b9150509250929050565b60008115159050919050565b6124c6816124b1565b82525050565b60006020820190506124e160008301846124bd565b92915050565b600080fd5b600080fd5b600080fd5b60008083601f84011261250c5761250b6124e7565b5b8235905067ffffffffffffffff811115612529576125286124ec565b5b602083019150836020820283011115612545576125446124f1565b5b9250929050565b600080600060408486031215612565576125646123da565b5b600061257386828701612405565b935050602084013567ffffffffffffffff811115612594576125936123df565b5b6125a0868287016124f6565b92509250509250925092565b60008083601f8401126125c2576125c16124e7565b5b8235905067ffffffffffffffff8111156125df576125de6124ec565b5b6020830191508360208202830111156125fb576125fa6124f1565b5b9250929050565b60008060208385031215612619576126186123da565b5b600083013567ffffffffffffffff811115612637576126366123df565b5b612643858286016125ac565b92509250509250929050565b600081519050919050565b600082825260208201905092915050565b6000819050602082019050919050565b612684816123e4565b82525050565b600081519050919050565b600082825260208201905092915050565b60005b838110156126c45780820151818401526020810190506126a9565b60008484015250505050565b6000601f19601f8301169050919050565b60006126ec8261268a565b6126f68185612695565b93506127068185602086016126a6565b61270f816126d0565b840191505092915050565b7f4e487b7100000000000000000000000000000000000000000000000000000000600052602160045260246000fd5b6002811061275a5761275961271a565b5b50565b600081905061276b82612749565b919050565b600061277b8261275d565b9050919050565b61278b81612770565b82525050565b61279a816124b1565b82525050565b60006101408301600083015184820360008601526127be82826126e1565b91505060208301516127d3602086018261267b565b50604083015184820360408601526127eb82826126e1565b91505060608301516128006060860182612782565b506080830151612813608086018261267b565b5060a083015161282660a086018261267b565b5060c083015161283960c0860182612791565b5060e083015161284c60e086018261267b565b5061010083015161286161010086018261267b565b5061012083015161287661012086018261267b565b508091505092915050565b6000604083016000830151612899600086018261267b565b50602083015184820360208601526128b182826127a0565b9150508091505092915050565b60006128ca8383612881565b905092915050565b6000602082019050919050565b60006128ea8261264f565b6128f4818561265a565b9350836020820285016129068561266b565b8060005b85811015612942578484038952815161292385826128be565b945061292e836128d2565b925060208a0199505060018101905061290a565b50829750879550505050505092915050565b6000602082019050818103600083015261296e81846128df565b905092915050565b600060408201905061298b6000830185612447565b6129986020830184612447565b9392505050565b600081519050919050565b600082825260208201905092915050565b6000819050602082019050919050565b60006129d7838361267b565b60208301905092915050565b6000602082019050919050565b60006129fb8261299f565b612a0581856129aa565b9350612a10836129bb565b8060005b83811015612a41578151612a2888826129cb565b9750612a33836129e3565b925050600181019050612a14565b5085935050505092915050565b60006020820190508181036000830152612a6881846129f0565b905092915050565b6000604083016000830151612a88600086018261267b565b5060208301518482036020860152612aa082826127a0565b9150508091505092915050565b60006020820190508181036000830152612ac78184612a70565b905092915050565b612ad881612770565b82525050565b6000602082019050612af36000830184612acf565b92915050565b600073ffffffffffffffffffffffffffffffffffffffff82169050919050565b6000612b2482612af9565b9050919050565b612b3481612b19565b82525050565b6000602082019050612b4f6000830184612b2b565b92915050565b612b5e816124b1565b8114612b6957600080fd5b50565b600081519050612b7b81612b55565b92915050565b600060208284031215612b9757612b966123da565b5b6000612ba584828501612b6c565b91505092915050565b600082825260208201905092915050565b7f5468652073656e646572206973206e6f742077686974656c6973746564000000600082015250565b6000612bf5601d83612bae565b9150612c0082612bbf565b602082019050919050565b60006020820190508181036000830152612c2481612be8565b9050919050565b600080fd5b7f4e487b7100000000000000000000000000000000000000000000000000000000600052604160045260246000fd5b612c68826126d0565b810181811067ffffffffffffffff82111715612c8757612c86612c30565b5b80604052505050565b6000612c9a6123d0565b9050612ca68282612c5f565b919050565b600080fd5b600081519050612cbf816123ee565b92915050565b600080fd5b600067ffffffffffffffff821115612ce557612ce4612c30565b5b612cee826126d0565b9050602081019050919050565b6000612d0e612d0984612cca565b612c90565b905082815260208101848484011115612d2a57612d29612cc5565b5b612d358482856126a6565b509392505050565b600082601f830112612d5257612d516124e7565b5b8151612d62848260208601612cfb565b91505092915050565b60028110612d7857600080fd5b50565b600081519050612d8a81612d6b565b92915050565b60006101408284031215612da757612da6612c2b565b5b612db2610140612c90565b9050600082015167ffffffffffffffff811115612dd257612dd1612cab565b5b612dde84828501612d3d565b6000830152506020612df284828501612cb0565b602083015250604082015167ffffffffffffffff811115612e1657612e15612cab565b5b612e2284828501612d3d565b6040830152506060612e3684828501612d7b565b6060830152506080612e4a84828501612cb0565b60808301525060a0612e5e84828501612cb0565b60a08301525060c0612e7284828501612b6c565b60c08301525060e0612e8684828501612cb0565b60e083015250610100612e9b84828501612cb0565b61010083015250610120612eb184828501612cb0565b6101208301525092915050565b600060408284031215612ed457612ed3612c2b565b5b612ede6040612c90565b90506000612eee84828501612cb0565b600083015250602082015167ffffffffffffffff811115612f1257612f11612cab565b5b612f1e84828501612d90565b60208301525092915050565b600060208284031215612f4057612f3f6123da565b5b600082015167ffffffffffffffff811115612f5e57612f5d6123df565b5b612f6a84828501612ebe565b91505092915050565b600067ffffffffffffffff821115612f8e57612f8d612c30565b5b602082029050602081019050919050565b6000612fb2612fad84612f73565b612c90565b90508083825260208201905060208402830185811115612fd557612fd46124f1565b5b835b81811015612ffe5780612fea8882612cb0565b845260208401935050602081019050612fd7565b5050509392505050565b600082601f83011261301d5761301c6124e7565b5b815161302d848260208601612f9f565b91505092915050565b60006020828403121561304c5761304b6123da565b5b600082015167ffffffffffffffff81111561306a576130696123df565b5b61307684828501613008565b91505092915050565b7f4e487b7100000000000000000000000000000000000000000000000000000000600052603260045260246000fd5b600080fd5b600080fd5b600080fd5b600082356001610140038336030381126130da576130d96130ae565b5b80830191505092915050565b60008083356001602003843603038112613103576131026130ae565b5b80840192508235915067ffffffffffffffff821115613125576131246130b3565b5b602083019250600182023603831315613141576131406130b8565b5b509250929050565b7f4d696e20706f696e74732063616e6e6f7420626520686967686572207468616e60008201527f206d617820706f696e7473000000000000000000000000000000000000000000602082015250565b60006131a5602b83612bae565b91506131b082613149565b604082019050919050565b600060208201905081810360008301526131d481613198565b9050919050565b82818337600083830152505050565b60006131fd6131f884612cca565b612c90565b90508281526020810184848401111561321957613218612cc5565b5b6132248482856131db565b509392505050565b600082601f830112613241576132406124e7565b5b81356132518482602086016131ea565b91505092915050565b60008135905061326981612d6b565b92915050565b60008135905061327e81612b55565b92915050565b6000610140828403121561329b5761329a612c2b565b5b6132a6610140612c90565b9050600082013567ffffffffffffffff8111156132c6576132c5612cab565b5b6132d28482850161322c565b60008301525060206132e684828501612405565b602083015250604082013567ffffffffffffffff81111561330a57613309612cab565b5b6133168482850161322c565b604083015250606061332a8482850161325a565b606083015250608061333e84828501612405565b60808301525060a061335284828501612405565b60a08301525060c06133668482850161326f565b60c08301525060e061337a84828501612405565b60e08301525061010061338f84828501612405565b610100830152506101206133a584828501612405565b6101208301525092915050565b60006133be3683613284565b9050919050565b60006040820190506133da6000830185612447565b81810360208301526133ec8184612a70565b90509392505050565b7f4e487b7100000000000000000000000000000000000000000000000000000000600052601160045260246000fd5b600061342f826123e4565b91507fffffffffffffffffffffffffffffffffffffffffffffffffffffffffffffffff8203613461576134606133f5565b5b600182019050919050565b600060208284031215613482576134816123da565b5b600061349084828501612cb0565b91505092915050565b600081905092915050565b60006134af8261268a565b6134b98185613499565b93506134c98185602086016126a6565b80840191505092915050565b7f2063616e6e6f7420626520656d70747900000000000000000000000000000000600082015250565b600061350b601083613499565b9150613516826134d5565b601082019050919050565b600061352d82846134a4565b9150613538826134fe565b915081905092915050565b600061354e8261268a565b6135588185612bae565b93506135688185602086016126a6565b613571816126d0565b840191505092915050565b600060208201905081810360008301526135968184613543565b90509291505056fea26469706673582212204710e4385447622765fcd7d0fe1edd5f4bc21176fe7fcffa7e50a69abbffd42c64736f6c63430008110033",
  "linkReferences": {},
  "deployedLinkReferences": {}
}