{
  "_format": "hh-sol-artifact-1",
  "contractName": "GradeStorage",
  "sourceName": "contracts/data/storage/performance/GradeStorage.sol",
  "abi": [
    {
      "inputs": [
        {
          "internalType": "address",
          "name": "accessWhitelistAddress",
          "type": "address"
        }
      ],
      "stateMutability": "nonpayable",
      "type": "constructor"
    },
    {
      "inputs": [
        {
          "internalType": "uint256",
          "name": "uId",
          "type": "uint256"
        },
        {
          "internalType": "uint256",
          "name": "courseId",
          "type": "uint256"
        }
      ],
      "name": "getGrade",
      "outputs": [
        {
          "components": [
            {
              "internalType": "bool",
              "name": "isSet",
              "type": "bool"
            },
            {
              "internalType": "uint256",
              "name": "value",
              "type": "uint256"
            },
            {
              "internalType": "string",
              "name": "feedback",
              "type": "string"
            },
            {
              "internalType": "uint256",
              "name": "datetime",
              "type": "uint256"
            },
            {
              "internalType": "uint256",
              "name": "lecturerUId",
              "type": "uint256"
            },
            {
              "internalType": "bool",
              "name": "isFinal",
              "type": "bool"
            }
          ],
          "internalType": "struct PerformanceDataTypes.Grade",
          "name": "",
          "type": "tuple"
        }
      ],
      "stateMutability": "view",
      "type": "function"
    },
    {
      "inputs": [
        {
          "internalType": "uint256",
          "name": "uId",
          "type": "uint256"
        },
        {
          "internalType": "uint256",
          "name": "courseId",
          "type": "uint256"
        }
      ],
      "name": "getGradeIfSet",
      "outputs": [
        {
          "internalType": "bool",
          "name": "",
          "type": "bool"
        },
        {
          "components": [
            {
              "internalType": "bool",
              "name": "isSet",
              "type": "bool"
            },
            {
              "internalType": "uint256",
              "name": "value",
              "type": "uint256"
            },
            {
              "internalType": "string",
              "name": "feedback",
              "type": "string"
            },
            {
              "internalType": "uint256",
              "name": "datetime",
              "type": "uint256"
            },
            {
              "internalType": "uint256",
              "name": "lecturerUId",
              "type": "uint256"
            },
            {
              "internalType": "bool",
              "name": "isFinal",
              "type": "bool"
            }
          ],
          "internalType": "struct PerformanceDataTypes.Grade",
          "name": "",
          "type": "tuple"
        }
      ],
      "stateMutability": "view",
      "type": "function"
    },
    {
      "inputs": [
        {
          "internalType": "uint256",
          "name": "uId",
          "type": "uint256"
        },
        {
          "internalType": "uint256",
          "name": "courseId",
          "type": "uint256"
        },
        {
          "components": [
            {
              "internalType": "bool",
              "name": "isSet",
              "type": "bool"
            },
            {
              "internalType": "uint256",
              "name": "value",
              "type": "uint256"
            },
            {
              "internalType": "string",
              "name": "feedback",
              "type": "string"
            },
            {
              "internalType": "uint256",
              "name": "datetime",
              "type": "uint256"
            },
            {
              "internalType": "uint256",
              "name": "lecturerUId",
              "type": "uint256"
            },
            {
              "internalType": "bool",
              "name": "isFinal",
              "type": "bool"
            }
          ],
          "internalType": "struct PerformanceDataTypes.Grade",
          "name": "grade",
          "type": "tuple"
        }
      ],
      "name": "storeGrade",
      "outputs": [],
      "stateMutability": "nonpayable",
      "type": "function"
    },
    {
      "inputs": [
        {
          "internalType": "uint256",
          "name": "uId",
          "type": "uint256"
        },
        {
          "internalType": "uint256",
          "name": "courseId",
          "type": "uint256"
        },
        {
          "components": [
            {
              "internalType": "bool",
              "name": "isSet",
              "type": "bool"
            },
            {
              "internalType": "uint256",
              "name": "value",
              "type": "uint256"
            },
            {
              "internalType": "string",
              "name": "feedback",
              "type": "string"
            },
            {
              "internalType": "uint256",
              "name": "datetime",
              "type": "uint256"
            },
            {
              "internalType": "uint256",
              "name": "lecturerUId",
              "type": "uint256"
            },
            {
              "internalType": "bool",
              "name": "isFinal",
              "type": "bool"
            }
          ],
          "internalType": "struct PerformanceDataTypes.Grade",
          "name": "grade",
          "type": "tuple"
        }
      ],
      "name": "updateGrade",
      "outputs": [],
      "stateMutability": "nonpayable",
      "type": "function"
    }
  ],
  "bytecode": "0x60806040523480156200001157600080fd5b50604051620018a3380380620018a38339818101604052810190620000379190620000ec565b8080806000806101000a81548173ffffffffffffffffffffffffffffffffffffffff021916908373ffffffffffffffffffffffffffffffffffffffff1602179055505050506200011e565b600080fd5b600073ffffffffffffffffffffffffffffffffffffffff82169050919050565b6000620000b48262000087565b9050919050565b620000c681620000a7565b8114620000d257600080fd5b50565b600081519050620000e681620000bb565b92915050565b60006020828403121562000105576200010462000082565b5b60006200011584828501620000d5565b91505092915050565b611775806200012e6000396000f3fe608060405234801561001057600080fd5b506004361061004c5760003560e01c8063374a62a014610051578063375c0c4f1461008157806342ad565e1461009d5780634e864340146100b9575b600080fd5b61006b60048036038101906100669190610c45565b6100ea565b6040516100789190610dc8565b60405180910390f35b61009b60048036038101906100969190610e0e565b6103d9565b005b6100b760048036038101906100b29190610e0e565b6105dc565b005b6100d360048036038101906100ce9190610c45565b6107df565b6040516100e1929190610e8c565b60405180910390f35b6100f2610bcb565b60008054906101000a900473ffffffffffffffffffffffffffffffffffffffff1673ffffffffffffffffffffffffffffffffffffffff166313f44d10336040518263ffffffff1660e01b815260040161014b9190610efd565b602060405180830381865afa158015610168573d6000803e3d6000fd5b505050506040513d601f19601f8201168201806040525081019061018c9190610f44565b6101cb576040517f08c379a00000000000000000000000000000000000000000000000000000000081526004016101c290610fce565b60405180910390fd5b61020a836040518060400160405280600381526020017f7549440000000000000000000000000000000000000000000000000000000000815250610a80565b610249826040518060400160405280600981526020017f436f757273652049440000000000000000000000000000000000000000000000815250610a80565b6102bc60016000858152602001908152602001600020600084815260200190815260200160002060000160009054906101000a900460ff166040518060400160405280600581526020017f4772616465000000000000000000000000000000000000000000000000000000815250610aef565b6001600084815260200190815260200160002060008381526020019081526020016000206040518060c00160405290816000820160009054906101000a900460ff16151515158152602001600182015481526020016002820180546103209061101d565b80601f016020809104026020016040519081016040528092919081815260200182805461034c9061101d565b80156103995780601f1061036e57610100808354040283529160200191610399565b820191906000526020600020905b81548152906001019060200180831161037c57829003601f168201915b5050505050815260200160038201548152602001600482015481526020016005820160009054906101000a900460ff161515151581525050905092915050565b60008054906101000a900473ffffffffffffffffffffffffffffffffffffffff1673ffffffffffffffffffffffffffffffffffffffff166313f44d10336040518263ffffffff1660e01b81526004016104329190610efd565b602060405180830381865afa15801561044f573d6000803e3d6000fd5b505050506040513d601f19601f820116820180604052508101906104739190610f44565b6104b2576040517f08c379a00000000000000000000000000000000000000000000000000000000081526004016104a990610fce565b60405180910390fd5b6104f1836040518060400160405280600381526020017f7549440000000000000000000000000000000000000000000000000000000000815250610a80565b610530826040518060400160405280600981526020017f436f757273652049440000000000000000000000000000000000000000000000815250610a80565b6105a360016000858152602001908152602001600020600084815260200190815260200160002060000160009054906101000a900460ff166040518060400160405280600581526020017f4772616465000000000000000000000000000000000000000000000000000000815250610b56565b8060016000858152602001908152602001600020600084815260200190815260200160002081816105d49190611550565b905050505050565b60008054906101000a900473ffffffffffffffffffffffffffffffffffffffff1673ffffffffffffffffffffffffffffffffffffffff166313f44d10336040518263ffffffff1660e01b81526004016106359190610efd565b602060405180830381865afa158015610652573d6000803e3d6000fd5b505050506040513d601f19601f820116820180604052508101906106769190610f44565b6106b5576040517f08c379a00000000000000000000000000000000000000000000000000000000081526004016106ac90610fce565b60405180910390fd5b6106f4836040518060400160405280600381526020017f7549440000000000000000000000000000000000000000000000000000000000815250610a80565b610733826040518060400160405280600981526020017f436f757273652049440000000000000000000000000000000000000000000000815250610a80565b6107a660016000858152602001908152602001600020600084815260200190815260200160002060000160009054906101000a900460ff166040518060400160405280600581526020017f4772616465000000000000000000000000000000000000000000000000000000815250610aef565b8060016000858152602001908152602001600020600084815260200190815260200160002081816107d79190611550565b905050505050565b60006107e9610bcb565b60008054906101000a900473ffffffffffffffffffffffffffffffffffffffff1673ffffffffffffffffffffffffffffffffffffffff166313f44d10336040518263ffffffff1660e01b81526004016108429190610efd565b602060405180830381865afa15801561085f573d6000803e3d6000fd5b505050506040513d601f19601f820116820180604052508101906108839190610f44565b6108c2576040517f08c379a00000000000000000000000000000000000000000000000000000000081526004016108b990610fce565b60405180910390fd5b610901846040518060400160405280600381526020017f7549440000000000000000000000000000000000000000000000000000000000815250610a80565b610940836040518060400160405280600981526020017f436f757273652049440000000000000000000000000000000000000000000000815250610a80565b60006001600086815260200190815260200160002060008581526020019081526020016000206040518060c00160405290816000820160009054906101000a900460ff16151515158152602001600182015481526020016002820180546109a69061101d565b80601f01602080910402602001604051908101604052809291908181526020018280546109d29061101d565b8015610a1f5780601f106109f457610100808354040283529160200191610a1f565b820191906000526020600020905b815481529060010190602001808311610a0257829003601f168201915b5050505050815260200160038201548152602001600482015481526020016005820160009054906101000a900460ff1615151515815250509050806000015115610a70576001819250925050610a79565b60008192509250505b9250929050565b610a8982610bbe565b81604051602001610a9a91906115e6565b60405160208183030381529060405290610aea576040517f08c379a0000000000000000000000000000000000000000000000000000000008152600401610ae19190611641565b60405180910390fd5b505050565b8181604051602001610b0191906116af565b60405160208183030381529060405290610b51576040517f08c379a0000000000000000000000000000000000000000000000000000000008152600401610b489190611641565b60405180910390fd5b505050565b811581604051602001610b69919061171d565b60405160208183030381529060405290610bb9576040517f08c379a0000000000000000000000000000000000000000000000000000000008152600401610bb09190611641565b60405180910390fd5b505050565b6000808214159050919050565b6040518060c00160405280600015158152602001600081526020016060815260200160008152602001600081526020016000151581525090565b600080fd5b600080fd5b6000819050919050565b610c2281610c0f565b8114610c2d57600080fd5b50565b600081359050610c3f81610c19565b92915050565b60008060408385031215610c5c57610c5b610c05565b5b6000610c6a85828601610c30565b9250506020610c7b85828601610c30565b9150509250929050565b60008115159050919050565b610c9a81610c85565b82525050565b610ca981610c0f565b82525050565b600081519050919050565b600082825260208201905092915050565b60005b83811015610ce9578082015181840152602081019050610cce565b60008484015250505050565b6000601f19601f8301169050919050565b6000610d1182610caf565b610d1b8185610cba565b9350610d2b818560208601610ccb565b610d3481610cf5565b840191505092915050565b600060c083016000830151610d576000860182610c91565b506020830151610d6a6020860182610ca0565b5060408301518482036040860152610d828282610d06565b9150506060830151610d976060860182610ca0565b506080830151610daa6080860182610ca0565b5060a0830151610dbd60a0860182610c91565b508091505092915050565b60006020820190508181036000830152610de28184610d3f565b905092915050565b600080fd5b600060c08284031215610e0557610e04610dea565b5b81905092915050565b600080600060608486031215610e2757610e26610c05565b5b6000610e3586828701610c30565b9350506020610e4686828701610c30565b925050604084013567ffffffffffffffff811115610e6757610e66610c0a565b5b610e7386828701610def565b9150509250925092565b610e8681610c85565b82525050565b6000604082019050610ea16000830185610e7d565b8181036020830152610eb38184610d3f565b90509392505050565b600073ffffffffffffffffffffffffffffffffffffffff82169050919050565b6000610ee782610ebc565b9050919050565b610ef781610edc565b82525050565b6000602082019050610f126000830184610eee565b92915050565b610f2181610c85565b8114610f2c57600080fd5b50565b600081519050610f3e81610f18565b92915050565b600060208284031215610f5a57610f59610c05565b5b6000610f6884828501610f2f565b91505092915050565b600082825260208201905092915050565b7f5468652073656e646572206973206e6f742077686974656c6973746564000000600082015250565b6000610fb8601d83610f71565b9150610fc382610f82565b602082019050919050565b60006020820190508181036000830152610fe781610fab565b9050919050565b7f4e487b7100000000000000000000000000000000000000000000000000000000600052602260045260246000fd5b6000600282049050600182168061103557607f821691505b60208210810361104857611047610fee565b5b50919050565b6000813561105b81610f18565b80915050919050565b60008160001b9050919050565b600060ff61107e84611064565b9350801983169250808416831791505092915050565b600061109f82610c85565b9050919050565b6000819050919050565b6110b982611094565b6110cc6110c5826110a6565b8354611071565b8255505050565b600081356110e081610c19565b80915050919050565b60007fffffffffffffffffffffffffffffffffffffffffffffffffffffffffffffffff61111584611064565b9350801983169250808416831791505092915050565b6000819050919050565b600061115061114b61114684610c0f565b61112b565b610c0f565b9050919050565b6000819050919050565b61116a82611135565b61117d61117682611157565b83546110e9565b8255505050565b600080fd5b600080fd5b600080fd5b600080833560016020038436030381126111b0576111af611184565b5b80840192508235915067ffffffffffffffff8211156111d2576111d1611189565b5b6020830192506001820236038313156111ee576111ed61118e565b5b509250929050565b600082905092915050565b7f4e487b7100000000000000000000000000000000000000000000000000000000600052604160045260246000fd5b60008190508160005260206000209050919050565b60006020601f8301049050919050565b600082821b905092915050565b6000600883026112927fffffffffffffffffffffffffffffffffffffffffffffffffffffffffffffffff82611255565b61129c8683611255565b95508019841693508086168417925050509392505050565b6112bd83611135565b6112d16112c982611157565b848454611262565b825550505050565b600090565b6112e66112d9565b6112f18184846112b4565b505050565b5b818110156113155761130a6000826112de565b6001810190506112f7565b5050565b601f82111561135a5761132b81611230565b61133484611245565b81016020851015611343578190505b61135761134f85611245565b8301826112f6565b50505b505050565b600082821c905092915050565b600061137d6000198460080261135f565b1980831691505092915050565b6000611396838361136c565b9150826002028217905092915050565b6113b083836111f6565b67ffffffffffffffff8111156113c9576113c8611201565b5b6113d3825461101d565b6113de828285611319565b6000601f83116001811461140d57600084156113fb578287013590505b611405858261138a565b86555061146d565b601f19841661141b86611230565b60005b828110156114435784890135825560018201915060208501945060208101905061141e565b86831015611460578489013561145c601f89168261136c565b8355505b6001600288020188555050505b50505050505050565b6114818383836113a6565b505050565b6000810160008301806114988161104e565b90506114a481846110b0565b5050506001810160208301806114b9816110d3565b90506114c58184611161565b50505060028101604083016114da8185611193565b6114e5818386611476565b505050506003810160608301806114fb816110d3565b90506115078184611161565b50505060048101608083018061151c816110d3565b90506115288184611161565b5050506005810160a083018061153d8161104e565b905061154981846110b0565b5050505050565b61155a8282611486565b5050565b600081905092915050565b7f496e76616c696420000000000000000000000000000000000000000000000000600082015250565b600061159f60088361155e565b91506115aa82611569565b600882019050919050565b60006115c082610caf565b6115ca818561155e565b93506115da818560208601610ccb565b80840191505092915050565b60006115f182611592565b91506115fd82846115b5565b915081905092915050565b600061161382610caf565b61161d8185610f71565b935061162d818560208601610ccb565b61163681610cf5565b840191505092915050565b6000602082019050818103600083015261165b8184611608565b905092915050565b7f20686173206e6f74206265656e20736574207965740000000000000000000000600082015250565b600061169960158361155e565b91506116a482611663565b601582019050919050565b60006116bb82846115b5565b91506116c68261168c565b915081905092915050565b7f2068617320616c7265616479206265656e207365740000000000000000000000600082015250565b600061170760158361155e565b9150611712826116d1565b601582019050919050565b600061172982846115b5565b9150611734826116fa565b91508190509291505056fea2646970667358221220f3b176bd3b8f6498e2371384dc924053c9d11a68b416664cd7d9503aee33b63864736f6c63430008110033",
  "linkReferences": {},
  "deployedLinkReferences": {}
}