{
  "_format": "hh-sol-artifact-1",
  "contractName": "PerformanceController",
  "sourceName": "contracts/logic/PerformanceController.sol",
  "abi": [
    {
      "inputs": [
        {
          "internalType": "address",
          "name": "addressBookAddress",
          "type": "address"
        }
      ],
      "stateMutability": "nonpayable",
      "type": "constructor"
    },
    {
      "inputs": [
        {
          "internalType": "uint256",
          "name": "assessmentId",
          "type": "uint256"
        },
        {
          "internalType": "string[]",
          "name": "documentHashes",
          "type": "string[]"
        }
      ],
      "name": "addSubmission",
      "outputs": [],
      "stateMutability": "nonpayable",
      "type": "function"
    },
    {
      "inputs": [
        {
          "internalType": "uint256",
          "name": "studentUId",
          "type": "uint256"
        },
        {
          "internalType": "uint256",
          "name": "assessmentId",
          "type": "uint256"
        },
        {
          "internalType": "bool",
          "name": "hasAttended",
          "type": "bool"
        }
      ],
      "name": "administerExamAttendance",
      "outputs": [],
      "stateMutability": "nonpayable",
      "type": "function"
    },
    {
      "inputs": [
        {
          "internalType": "uint256",
          "name": "courseId",
          "type": "uint256"
        }
      ],
      "name": "calculatePoints",
      "outputs": [
        {
          "internalType": "uint256",
          "name": "",
          "type": "uint256"
        },
        {
          "internalType": "uint256",
          "name": "",
          "type": "uint256"
        }
      ],
      "stateMutability": "view",
      "type": "function"
    },
    {
      "inputs": [
        {
          "internalType": "uint256",
          "name": "studentUId",
          "type": "uint256"
        },
        {
          "internalType": "uint256",
          "name": "courseId",
          "type": "uint256"
        }
      ],
      "name": "calculatePointsOfStudent",
      "outputs": [
        {
          "internalType": "uint256",
          "name": "",
          "type": "uint256"
        },
        {
          "internalType": "uint256",
          "name": "",
          "type": "uint256"
        }
      ],
      "stateMutability": "view",
      "type": "function"
    },
    {
      "inputs": [
        {
          "internalType": "uint256",
          "name": "studentUId",
          "type": "uint256"
        },
        {
          "internalType": "uint256",
          "name": "assessmentId",
          "type": "uint256"
        },
        {
          "internalType": "uint256",
          "name": "achievedPoints",
          "type": "uint256"
        },
        {
          "internalType": "string",
          "name": "feedback",
          "type": "string"
        }
      ],
      "name": "giveEvaluation",
      "outputs": [],
      "stateMutability": "nonpayable",
      "type": "function"
    },
    {
      "inputs": [
        {
          "internalType": "uint256",
          "name": "studentUId",
          "type": "uint256"
        },
        {
          "internalType": "uint256",
          "name": "courseId",
          "type": "uint256"
        },
        {
          "internalType": "uint256",
          "name": "grade",
          "type": "uint256"
        },
        {
          "internalType": "string",
          "name": "feedback",
          "type": "string"
        }
      ],
      "name": "giveFinalGrade",
      "outputs": [],
      "stateMutability": "nonpayable",
      "type": "function"
    },
    {
      "inputs": [
        {
          "internalType": "uint256",
          "name": "courseId",
          "type": "uint256"
        }
      ],
      "name": "updateCourseParticipantPerformances",
      "outputs": [],
      "stateMutability": "nonpayable",
      "type": "function"
    }
  ],
  "bytecode": "0x60806040523480156200001157600080fd5b5060405162004ddb38038062004ddb8339818101604052810190620000379190620000ec565b8080806000806101000a81548173ffffffffffffffffffffffffffffffffffffffff021916908373ffffffffffffffffffffffffffffffffffffffff1602179055505050506200011e565b600080fd5b600073ffffffffffffffffffffffffffffffffffffffff82169050919050565b6000620000b48262000087565b9050919050565b620000c681620000a7565b8114620000d257600080fd5b50565b600081519050620000e681620000bb565b92915050565b60006020828403121562000105576200010462000082565b5b60006200011584828501620000d5565b91505092915050565b614cad806200012e6000396000f3fe608060405234801561001057600080fd5b506004361061007d5760003560e01c806344cb20461161005b57806344cb2046146100eb57806350add5d0146101075780635a1637be14610123578063bd42e510146101545761007d565b8063049070c1146100825780633e6abaa61461009e57806340b1ba3b146100cf575b600080fd5b61009c600480360381019061009791906131ae565b610170565b005b6100b860048036038101906100b39190613201565b6105c0565b6040516100c6929190613250565b60405180910390f35b6100e960048036038101906100e491906132de565b610771565b005b61010560048036038101906101009190613366565b610992565b005b610121600480360381019061011c91906133e9565b610be9565b005b61013d60048036038101906101389190613366565b61102e565b60405161014b929190613250565b60405180910390f35b61016e600480360381019061016991906132de565b6111cb565b005b610178611479565b6001600281111561018c5761018b613449565b5b61019461153b565b73ffffffffffffffffffffffffffffffffffffffff1663dd8b2914336040518263ffffffff1660e01b81526004016101cc91906134b9565b602060405180830381865afa1580156101e9573d6000803e3d6000fd5b505050506040513d601f19601f8201168201806040525081019061020d91906134f9565b600281111561021f5761021e613449565b5b1461025f576040517f08c379a000000000000000000000000000000000000000000000000000000000815260040161025690613583565b60405180910390fd5b600061026961153b565b73ffffffffffffffffffffffffffffffffffffffff1663e3d7e14c336040518263ffffffff1660e01b81526004016102a191906134b9565b602060405180830381865afa1580156102be573d6000803e3d6000fd5b505050506040513d601f19601f820116820180604052508101906102e291906135b8565b905060006102ee6115de565b73ffffffffffffffffffffffffffffffffffffffff1663a31cf91f856040518263ffffffff1660e01b815260040161032691906135e5565b602060405180830381865afa158015610343573d6000803e3d6000fd5b505050506040513d601f19601f8201168201806040525081019061036791906135b8565b905061037b8282610376611681565b611724565b61038d8582610388611681565b6117f0565b600060018111156103a1576103a0613449565b5b6103a96115de565b73ffffffffffffffffffffffffffffffffffffffff1663e9eb5356866040518263ffffffff1660e01b81526004016103e191906135e5565b602060405180830381865afa1580156103fe573d6000803e3d6000fd5b505050506040513d601f19601f820116820180604052508101906104229190613625565b600181111561043457610433613449565b5b14610474576040517f08c379a000000000000000000000000000000000000000000000000000000000815260040161046b9061369e565b60405180910390fd5b61047e85856118b0565b610486611976565b73ffffffffffffffffffffffffffffffffffffffff1663683391e486866040518363ffffffff1660e01b81526004016104c0929190613250565b602060405180830381865afa1580156104dd573d6000803e3d6000fd5b505050506040513d601f19601f8201168201806040525081019061050191906136d3565b15610541576040517f08c379a000000000000000000000000000000000000000000000000000000000815260040161053890613772565b60405180910390fd5b610549611976565b73ffffffffffffffffffffffffffffffffffffffff166323f618ee868686426040518563ffffffff1660e01b815260040161058794939291906137a1565b600060405180830381600087803b1580156105a157600080fd5b505af11580156105b5573d6000803e3d6000fd5b505050505050505050565b6000806105cb611479565b600160028111156105df576105de613449565b5b6105e761153b565b73ffffffffffffffffffffffffffffffffffffffff1663dd8b2914336040518263ffffffff1660e01b815260040161061f91906134b9565b602060405180830381865afa15801561063c573d6000803e3d6000fd5b505050506040513d601f19601f8201168201806040525081019061066091906134f9565b600281111561067257610671613449565b5b146106b2576040517f08c379a00000000000000000000000000000000000000000000000000000000081526004016106a990613583565b60405180910390fd5b60006106bc61153b565b73ffffffffffffffffffffffffffffffffffffffff1663e3d7e14c336040518263ffffffff1660e01b81526004016106f491906134b9565b602060405180830381865afa158015610711573d6000803e3d6000fd5b505050506040513d601f19601f8201168201806040525081019061073591906135b8565b90506107498185610744611681565b611724565b61075b8585610756611681565b6117f0565b6107658585611a19565b92509250509250929050565b610779611479565b6001600281111561078d5761078c613449565b5b61079561153b565b73ffffffffffffffffffffffffffffffffffffffff1663dd8b2914336040518263ffffffff1660e01b81526004016107cd91906134b9565b602060405180830381865afa1580156107ea573d6000803e3d6000fd5b505050506040513d601f19601f8201168201806040525081019061080e91906134f9565b60028111156108205761081f613449565b5b14610860576040517f08c379a000000000000000000000000000000000000000000000000000000000815260040161085790613583565b60405180910390fd5b600061086a61153b565b73ffffffffffffffffffffffffffffffffffffffff1663e3d7e14c336040518263ffffffff1660e01b81526004016108a291906134b9565b602060405180830381865afa1580156108bf573d6000803e3d6000fd5b505050506040513d601f19601f820116820180604052508101906108e391906135b8565b90506108f781866108f2611681565b611724565b6109098686610904611681565b6117f0565b610911611976565b73ffffffffffffffffffffffffffffffffffffffff166359a7dbe08787428888888860006040518963ffffffff1660e01b8152600401610958989796959493929190613833565b600060405180830381600087803b15801561097257600080fd5b505af1158015610986573d6000803e3d6000fd5b50505050505050505050565b61099a611479565b600160028111156109ae576109ad613449565b5b6109b661153b565b73ffffffffffffffffffffffffffffffffffffffff1663dd8b2914336040518263ffffffff1660e01b81526004016109ee91906134b9565b602060405180830381865afa158015610a0b573d6000803e3d6000fd5b505050506040513d601f19601f82011682018060405250810190610a2f91906134f9565b6002811115610a4157610a40613449565b5b14610a81576040517f08c379a0000000000000000000000000000000000000000000000000000000008152600401610a7890613583565b60405180910390fd5b6000610a8b61153b565b73ffffffffffffffffffffffffffffffffffffffff1663e3d7e14c336040518263ffffffff1660e01b8152600401610ac391906134b9565b602060405180830381865afa158015610ae0573d6000803e3d6000fd5b505050506040513d601f19601f82011682018060405250810190610b0491906135b8565b9050610b188183610b13611681565b611724565b6000610b22611681565b73ffffffffffffffffffffffffffffffffffffffff16636f4f5878846040518263ffffffff1660e01b8152600401610b5a91906135e5565b600060405180830381865afa158015610b77573d6000803e3d6000fd5b505050506040513d6000823e3d601f19601f82011682018060405250810190610ba091906139e9565b905060005b8151811015610be357610bd2828281518110610bc457610bc3613a32565b5b602002602001015185611bad565b80610bdc90613a90565b9050610ba5565b50505050565b610bf1611479565b60006002811115610c0557610c04613449565b5b610c0d61153b565b73ffffffffffffffffffffffffffffffffffffffff1663dd8b2914336040518263ffffffff1660e01b8152600401610c4591906134b9565b602060405180830381865afa158015610c62573d6000803e3d6000fd5b505050506040513d601f19601f82011682018060405250810190610c8691906134f9565b6002811115610c9857610c97613449565b5b14610cd8576040517f08c379a0000000000000000000000000000000000000000000000000000000008152600401610ccf90613b24565b60405180910390fd5b6000610ce261153b565b73ffffffffffffffffffffffffffffffffffffffff1663e3d7e14c336040518263ffffffff1660e01b8152600401610d1a91906134b9565b602060405180830381865afa158015610d37573d6000803e3d6000fd5b505050506040513d601f19601f82011682018060405250810190610d5b91906135b8565b90506000610d676115de565b73ffffffffffffffffffffffffffffffffffffffff1663a31cf91f866040518263ffffffff1660e01b8152600401610d9f91906135e5565b602060405180830381865afa158015610dbc573d6000803e3d6000fd5b505050506040513d601f19601f82011682018060405250810190610de091906135b8565b90506000610dec6115de565b73ffffffffffffffffffffffffffffffffffffffff166326f63a96876040518263ffffffff1660e01b8152600401610e2491906135e5565b602060405180830381865afa158015610e41573d6000803e3d6000fd5b505050506040513d601f19601f82011682018060405250810190610e6591906135b8565b9050610e798383610e74611681565b6117f0565b610e8383876118b0565b600180811115610e9657610e95613449565b5b610e9e6115de565b73ffffffffffffffffffffffffffffffffffffffff1663e9eb5356886040518263ffffffff1660e01b8152600401610ed691906135e5565b602060405180830381865afa158015610ef3573d6000803e3d6000fd5b505050506040513d601f19601f82011682018060405250810190610f179190613625565b6001811115610f2957610f28613449565b5b14610f69576040517f08c379a0000000000000000000000000000000000000000000000000000000008152600401610f6090613bb6565b60405180910390fd5b80421115610fac576040517f08c379a0000000000000000000000000000000000000000000000000000000008152600401610fa390613c48565b60405180910390fd5b610fb4611976565b73ffffffffffffffffffffffffffffffffffffffff166325bcbe8084884289896040518663ffffffff1660e01b8152600401610ff4959493929190613dcc565b600060405180830381600087803b15801561100e57600080fd5b505af1158015611022573d6000803e3d6000fd5b50505050505050505050565b600080611039611479565b6000600281111561104d5761104c613449565b5b61105561153b565b73ffffffffffffffffffffffffffffffffffffffff1663dd8b2914336040518263ffffffff1660e01b815260040161108d91906134b9565b602060405180830381865afa1580156110aa573d6000803e3d6000fd5b505050506040513d601f19601f820116820180604052508101906110ce91906134f9565b60028111156110e0576110df613449565b5b14611120576040517f08c379a000000000000000000000000000000000000000000000000000000000815260040161111790613b24565b60405180910390fd5b600061112a61153b565b73ffffffffffffffffffffffffffffffffffffffff1663e3d7e14c336040518263ffffffff1660e01b815260040161116291906134b9565b602060405180830381865afa15801561117f573d6000803e3d6000fd5b505050506040513d601f19601f820116820180604052508101906111a391906135b8565b90506111b781856111b2611681565b6117f0565b6111c18185611a19565b9250925050915091565b6111d3611479565b600160028111156111e7576111e6613449565b5b6111ef61153b565b73ffffffffffffffffffffffffffffffffffffffff1663dd8b2914336040518263ffffffff1660e01b815260040161122791906134b9565b602060405180830381865afa158015611244573d6000803e3d6000fd5b505050506040513d601f19601f8201168201806040525081019061126891906134f9565b600281111561127a57611279613449565b5b146112ba576040517f08c379a00000000000000000000000000000000000000000000000000000000081526004016112b190613583565b60405180910390fd5b60006112c461153b565b73ffffffffffffffffffffffffffffffffffffffff1663e3d7e14c336040518263ffffffff1660e01b81526004016112fc91906134b9565b602060405180830381865afa158015611319573d6000803e3d6000fd5b505050506040513d601f19601f8201168201806040525081019061133d91906135b8565b905060006113496115de565b73ffffffffffffffffffffffffffffffffffffffff1663a31cf91f876040518263ffffffff1660e01b815260040161138191906135e5565b602060405180830381865afa15801561139e573d6000803e3d6000fd5b505050506040513d601f19601f820116820180604052508101906113c291906135b8565b90506113d682826113d1611681565b611724565b6113e887826113e3611681565b6117f0565b6113f287876118b0565b6113fa611976565b73ffffffffffffffffffffffffffffffffffffffff166379fbc85e888842898989896040518863ffffffff1660e01b815260040161143e9796959493929190613e1a565b600060405180830381600087803b15801561145857600080fd5b505af115801561146c573d6000803e3d6000fd5b5050505050505050505050565b61148161153b565b73ffffffffffffffffffffffffffffffffffffffff166338b6a3a1336040518263ffffffff1660e01b81526004016114b991906134b9565b602060405180830381865afa1580156114d6573d6000803e3d6000fd5b505050506040513d601f19601f820116820180604052508101906114fa91906136d3565b611539576040517f08c379a000000000000000000000000000000000000000000000000000000000815260040161153090613ed0565b60405180910390fd5b565b60008060009054906101000a900473ffffffffffffffffffffffffffffffffffffffff1673ffffffffffffffffffffffffffffffffffffffff1663bcaa0c5560026040518263ffffffff1660e01b81526004016115989190613f38565b602060405180830381865afa1580156115b5573d6000803e3d6000fd5b505050506040513d601f19601f820116820180604052508101906115d99190613f7f565b905090565b60008060009054906101000a900473ffffffffffffffffffffffffffffffffffffffff1673ffffffffffffffffffffffffffffffffffffffff1663bcaa0c5560016040518263ffffffff1660e01b815260040161163b9190613f38565b602060405180830381865afa158015611658573d6000803e3d6000fd5b505050506040513d601f19601f8201168201806040525081019061167c9190613f7f565b905090565b60008060009054906101000a900473ffffffffffffffffffffffffffffffffffffffff1673ffffffffffffffffffffffffffffffffffffffff1663bcaa0c5560006040518263ffffffff1660e01b81526004016116de9190613f38565b602060405180830381865afa1580156116fb573d6000803e3d6000fd5b505050506040513d601f19601f8201168201806040525081019061171f9190613f7f565b905090565b6117ac838273ffffffffffffffffffffffffffffffffffffffff1663bd9c1b50856040518263ffffffff1660e01b815260040161176191906135e5565b600060405180830381865afa15801561177e573d6000803e3d6000fd5b505050506040513d6000823e3d601f19601f820116820180604052508101906117a791906139e9565b611bcf565b6117eb576040517f08c379a00000000000000000000000000000000000000000000000000000000081526004016117e29061401e565b60405180910390fd5b505050565b8073ffffffffffffffffffffffffffffffffffffffff16633932708b84846040518363ffffffff1660e01b815260040161182b929190613250565b602060405180830381865afa158015611848573d6000803e3d6000fd5b505050506040513d601f19601f8201168201806040525081019061186c91906136d3565b6118ab576040517f08c379a00000000000000000000000000000000000000000000000000000000081526004016118a2906140b0565b60405180910390fd5b505050565b6118b86115de565b73ffffffffffffffffffffffffffffffffffffffff166323ff178583836040518363ffffffff1660e01b81526004016118f2929190613250565b602060405180830381865afa15801561190f573d6000803e3d6000fd5b505050506040513d601f19601f8201168201806040525081019061193391906136d3565b611972576040517f08c379a000000000000000000000000000000000000000000000000000000000815260040161196990614142565b60405180910390fd5b5050565b60008060009054906101000a900473ffffffffffffffffffffffffffffffffffffffff1673ffffffffffffffffffffffffffffffffffffffff1663bcaa0c5560036040518263ffffffff1660e01b81526004016119d39190613f38565b602060405180830381865afa1580156119f0573d6000803e3d6000fd5b505050506040513d601f19601f82011682018060405250810190611a149190613f7f565b905090565b6000806000806000611a2b8787611be6565b905060005b8151811015611b9c57611a416115de565b73ffffffffffffffffffffffffffffffffffffffff1663a01a6b54838381518110611a6f57611a6e613a32565b5b60200260200101516040518263ffffffff1660e01b8152600401611a9391906135e5565b602060405180830381865afa158015611ab0573d6000803e3d6000fd5b505050506040513d601f19601f82011682018060405250810190611ad491906135b8565b84611adf9190614162565b9350611ae9611976565b73ffffffffffffffffffffffffffffffffffffffff16632e3b755e89848481518110611b1857611b17613a32565b5b60200260200101516040518363ffffffff1660e01b8152600401611b3d929190613250565b602060405180830381865afa158015611b5a573d6000803e3d6000fd5b505050506040513d601f19601f82011682018060405250810190611b7e91906135b8565b83611b899190614162565b925080611b9590613a90565b9050611a30565b508183945094505050509250929050565b611bb78282611d6d565b611bc18282612214565b611bcb828261260f565b5050565b600080611bdc8484612a95565b1215905092915050565b606060026003811115611bfc57611bfb613449565b5b611c04611681565b73ffffffffffffffffffffffffffffffffffffffff1663e9c0844a846040518263ffffffff1660e01b8152600401611c3c91906135e5565b602060405180830381865afa158015611c59573d6000803e3d6000fd5b505050506040513d601f19601f82011682018060405250810190611c7d91906141bb565b6003811115611c8f57611c8e613449565b5b03611d5a57600080611ca18585612b0c565b915091508115611d0757611cfe600067ffffffffffffffff811115611cc957611cc86138ab565b5b604051908082528060200260200182016040528015611cf75781602001602082028036833780820191505090505b5082612cc4565b92505050611d67565b600067ffffffffffffffff811115611d2257611d216138ab565b5b604051908082528060200260200182016040528015611d505781602001602082028036833780820191505090505b5092505050611d67565b611d648383612da3565b90505b92915050565b6000611d776115de565b73ffffffffffffffffffffffffffffffffffffffff16633b4f950083856040518363ffffffff1660e01b8152600401611db1929190613250565b600060405180830381865afa158015611dce573d6000803e3d6000fd5b505050506040513d6000823e3d601f19601f82011682018060405250810190611df791906139e9565b905060005b815181101561220e57600180811115611e1857611e17613449565b5b611e206115de565b73ffffffffffffffffffffffffffffffffffffffff1663e9eb5356848481518110611e4e57611e4d613a32565b5b60200260200101516040518263ffffffff1660e01b8152600401611e7291906135e5565b602060405180830381865afa158015611e8f573d6000803e3d6000fd5b505050506040513d601f19601f82011682018060405250810190611eb39190613625565b6001811115611ec557611ec4613449565b5b036121fd576000611ed46115de565b73ffffffffffffffffffffffffffffffffffffffff166326f63a96848481518110611f0257611f01613a32565b5b60200260200101516040518263ffffffff1660e01b8152600401611f2691906135e5565b602060405180830381865afa158015611f43573d6000803e3d6000fd5b505050506040513d601f19601f82011682018060405250810190611f6791906135b8565b9050611f71611976565b73ffffffffffffffffffffffffffffffffffffffff1663cfca6e9786858581518110611fa057611f9f613a32565b5b60200260200101516040518363ffffffff1660e01b8152600401611fc5929190613250565b602060405180830381865afa158015611fe2573d6000803e3d6000fd5b505050506040513d601f19601f8201168201806040525081019061200691906136d3565b806120115750804211155b1561201c57506121fd565b612024611976565b73ffffffffffffffffffffffffffffffffffffffff16631a2a2c4a8685858151811061205357612052613a32565b5b60200260200101516040518363ffffffff1660e01b8152600401612078929190613250565b602060405180830381865afa158015612095573d6000803e3d6000fd5b505050506040513d601f19601f820116820180604052508101906120b991906136d3565b15806121605750806120c9611976565b73ffffffffffffffffffffffffffffffffffffffff16637c56af01878686815181106120f8576120f7613a32565b5b60200260200101516040518363ffffffff1660e01b815260040161211d929190613250565b602060405180830381865afa15801561213a573d6000803e3d6000fd5b505050506040513d601f19601f8201168201806040525081019061215e91906135b8565b115b156121fb5761216d611976565b73ffffffffffffffffffffffffffffffffffffffff1663119e79448685858151811061219c5761219b613a32565b5b6020026020010151426000806040518663ffffffff1660e01b81526004016121c895949392919061429f565b600060405180830381600087803b1580156121e257600080fd5b505af11580156121f6573d6000803e3d6000fd5b505050505b505b8061220790613a90565b9050611dfc565b50505050565b600061221e6115de565b73ffffffffffffffffffffffffffffffffffffffff16633b4f950083856040518363ffffffff1660e01b8152600401612258929190613250565b600060405180830381865afa158015612275573d6000803e3d6000fd5b505050506040513d6000823e3d601f19601f8201168201806040525081019061229e91906139e9565b905060005b815181101561260957600060018111156122c0576122bf613449565b5b6122c86115de565b73ffffffffffffffffffffffffffffffffffffffff1663e9eb53568484815181106122f6576122f5613a32565b5b60200260200101516040518263ffffffff1660e01b815260040161231a91906135e5565b602060405180830381865afa158015612337573d6000803e3d6000fd5b505050506040513d601f19601f8201168201806040525081019061235b9190613625565b600181111561236d5761236c613449565b5b036125f85761237a611976565b73ffffffffffffffffffffffffffffffffffffffff1663cfca6e97858484815181106123a9576123a8613a32565b5b60200260200101516040518363ffffffff1660e01b81526004016123ce929190613250565b602060405180830381865afa1580156123eb573d6000803e3d6000fd5b505050506040513d601f19601f8201168201806040525081019061240f91906136d3565b6125f85761241b611976565b73ffffffffffffffffffffffffffffffffffffffff1663683391e48584848151811061244a57612449613a32565b5b60200260200101516040518363ffffffff1660e01b815260040161246f929190613250565b602060405180830381865afa15801561248c573d6000803e3d6000fd5b505050506040513d601f19601f820116820180604052508101906124b091906136d3565b801561255c5750600015156124c3611976565b73ffffffffffffffffffffffffffffffffffffffff1663b54c676a868585815181106124f2576124f1613a32565b5b60200260200101516040518363ffffffff1660e01b8152600401612517929190613250565b602060405180830381865afa158015612534573d6000803e3d6000fd5b505050506040513d601f19601f8201168201806040525081019061255891906136d3565b1515145b156125f757612569611976565b73ffffffffffffffffffffffffffffffffffffffff1663119e79448584848151811061259857612597613a32565b5b6020026020010151426000806040518663ffffffff1660e01b81526004016125c4959493929190614351565b600060405180830381600087803b1580156125de57600080fd5b505af11580156125f2573d6000803e3d6000fd5b505050505b5b8061260290613a90565b90506122a3565b50505050565b612617611976565b73ffffffffffffffffffffffffffffffffffffffff166315fea7d583836040518363ffffffff1660e01b8152600401612651929190613250565b602060405180830381865afa15801561266e573d6000803e3d6000fd5b505050506040513d601f19601f8201168201806040525081019061269291906136d3565b612a915760006126a28383611be6565b9050600260038111156126b8576126b7613449565b5b6126c0611681565b73ffffffffffffffffffffffffffffffffffffffff1663e9c0844a846040518263ffffffff1660e01b81526004016126f891906135e5565b602060405180830381865afa158015612715573d6000803e3d6000fd5b505050506040513d601f19601f8201168201806040525081019061273991906141bb565b600381111561274b5761274a613449565b5b0361276457600081510361275f5750612a91565b6127fa565b61276c6115de565b73ffffffffffffffffffffffffffffffffffffffff1663a5478d4f836040518263ffffffff1660e01b81526004016127a491906135e5565b600060405180830381865afa1580156127c1573d6000803e3d6000fd5b505050506040513d6000823e3d601f19601f820116820180604052508101906127ea919061470c565b51815110156127f95750612a91565b5b60005b81518110156128c55761282a8483838151811061281d5761281c613a32565b5b6020026020010151612f25565b6128b457612836611976565b73ffffffffffffffffffffffffffffffffffffffff166359a7dbe08585426005600060016040518763ffffffff1660e01b815260040161287b969594939291906147ed565b600060405180830381600087803b15801561289557600080fd5b505af11580156128a9573d6000803e3d6000fd5b505050505050612a91565b806128be90613a90565b90506127fd565b506000806128d38585611a19565b9150915060006128e383836130cc565b905060006128ef611681565b73ffffffffffffffffffffffffffffffffffffffff1663f0659248876040518263ffffffff1660e01b815260040161292791906135e5565b600060405180830381865afa158015612944573d6000803e3d6000fd5b505050506040513d6000823e3d601f19601f8201168201806040525081019061296d9190614974565b905060006005905060005b8251811015612a0b5782818151811061299457612993613a32565b5b60200260200101516020015184101580156129d357506129d28382815181106129c0576129bf613a32565b5b602002602001015160000151836130e2565b5b156129fa578281815181106129eb576129ea613a32565b5b60200260200101516000015191505b80612a0490613a90565b9050612978565b50612a14611976565b73ffffffffffffffffffffffffffffffffffffffff166359a7dbe089894285600060016040518763ffffffff1660e01b8152600401612a58969594939291906149e3565b600060405180830381600087803b158015612a7257600080fd5b505af1158015612a86573d6000803e3d6000fd5b505050505050505050505b5050565b600080600090505b8251811015612ae15783838281518110612aba57612ab9613a32565b5b602002602001015103612ad05780915050612b06565b80612ada90613a90565b9050612a9d565b507fffffffffffffffffffffffffffffffffffffffffffffffffffffffffffffffff90505b92915050565b6000806000612b1b8585612da3565b90506000600182511015612b3757600081935093505050612cbd565b81600081518110612b4b57612b4a613a32565b5b6020026020010151905060005b8251811015612cb257612b696115de565b73ffffffffffffffffffffffffffffffffffffffff166326f63a96836040518263ffffffff1660e01b8152600401612ba191906135e5565b602060405180830381865afa158015612bbe573d6000803e3d6000fd5b505050506040513d601f19601f82011682018060405250810190612be291906135b8565b612bea6115de565b73ffffffffffffffffffffffffffffffffffffffff166326f63a96858481518110612c1857612c17613a32565b5b60200260200101516040518263ffffffff1660e01b8152600401612c3c91906135e5565b602060405180830381865afa158015612c59573d6000803e3d6000fd5b505050506040513d601f19601f82011682018060405250810190612c7d91906135b8565b1115612ca157828181518110612c9657612c95613a32565b5b602002602001015191505b80612cab90613a90565b9050612b58565b506001819350935050505b9250929050565b6060600060018451612cd69190614162565b67ffffffffffffffff811115612cef57612cee6138ab565b5b604051908082528060200260200182016040528015612d1d5781602001602082028036833780820191505090505b50905060005b8451811015612d7757848181518110612d3f57612d3e613a32565b5b6020026020010151828281518110612d5a57612d59613a32565b5b60200260200101818152505080612d7090613a90565b9050612d23565b508281855181518110612d8d57612d8c613a32565b5b6020026020010181815250508091505092915050565b60606000612daf6115de565b73ffffffffffffffffffffffffffffffffffffffff16633b4f950084866040518363ffffffff1660e01b8152600401612de9929190613250565b600060405180830381865afa158015612e06573d6000803e3d6000fd5b505050506040513d6000823e3d601f19601f82011682018060405250810190612e2f91906139e9565b9050606060005b8251811015612f1957612e47611976565b73ffffffffffffffffffffffffffffffffffffffff1663cfca6e9787858481518110612e7657612e75613a32565b5b60200260200101516040518363ffffffff1660e01b8152600401612e9b929190613250565b602060405180830381865afa158015612eb8573d6000803e3d6000fd5b505050506040513d601f19601f82011682018060405250810190612edc91906136d3565b15612f0857612f0582848381518110612ef857612ef7613a32565b5b6020026020010151612cc4565b91505b80612f1290613a90565b9050612e36565b50809250505092915050565b600080612f306115de565b73ffffffffffffffffffffffffffffffffffffffff1663a31cf91f846040518263ffffffff1660e01b8152600401612f6891906135e5565b602060405180830381865afa158015612f85573d6000803e3d6000fd5b505050506040513d601f19601f82011682018060405250810190612fa991906135b8565b9050612fbd8482612fb8611681565b6117f0565b612fc56115de565b73ffffffffffffffffffffffffffffffffffffffff16630a627852846040518263ffffffff1660e01b8152600401612ffd91906135e5565b602060405180830381865afa15801561301a573d6000803e3d6000fd5b505050506040513d601f19601f8201168201806040525081019061303e91906135b8565b613046611976565b73ffffffffffffffffffffffffffffffffffffffff16632e3b755e86866040518363ffffffff1660e01b8152600401613080929190613250565b602060405180830381865afa15801561309d573d6000803e3d6000fd5b505050506040513d601f19601f820116820180604052508101906130c191906135b8565b101591505092915050565b60006130da838360056130ef565b905092915050565b6000818310905092915050565b600081600a6130fe9190614b8a565b846131099190614bd5565b9350600a83856131199190614c46565b6131239190614c46565b90509392505050565b6000604051905090565b600080fd5b600080fd5b6000819050919050565b61315381613140565b811461315e57600080fd5b50565b6000813590506131708161314a565b92915050565b60008115159050919050565b61318b81613176565b811461319657600080fd5b50565b6000813590506131a881613182565b92915050565b6000806000606084860312156131c7576131c6613136565b5b60006131d586828701613161565b93505060206131e686828701613161565b92505060406131f786828701613199565b9150509250925092565b6000806040838503121561321857613217613136565b5b600061322685828601613161565b925050602061323785828601613161565b9150509250929050565b61324a81613140565b82525050565b60006040820190506132656000830185613241565b6132726020830184613241565b9392505050565b600080fd5b600080fd5b600080fd5b60008083601f84011261329e5761329d613279565b5b8235905067ffffffffffffffff8111156132bb576132ba61327e565b5b6020830191508360018202830111156132d7576132d6613283565b5b9250929050565b6000806000806000608086880312156132fa576132f9613136565b5b600061330888828901613161565b955050602061331988828901613161565b945050604061332a88828901613161565b935050606086013567ffffffffffffffff81111561334b5761334a61313b565b5b61335788828901613288565b92509250509295509295909350565b60006020828403121561337c5761337b613136565b5b600061338a84828501613161565b91505092915050565b60008083601f8401126133a9576133a8613279565b5b8235905067ffffffffffffffff8111156133c6576133c561327e565b5b6020830191508360208202830111156133e2576133e1613283565b5b9250929050565b60008060006040848603121561340257613401613136565b5b600061341086828701613161565b935050602084013567ffffffffffffffff8111156134315761343061313b565b5b61343d86828701613393565b92509250509250925092565b7f4e487b7100000000000000000000000000000000000000000000000000000000600052602160045260246000fd5b600073ffffffffffffffffffffffffffffffffffffffff82169050919050565b60006134a382613478565b9050919050565b6134b381613498565b82525050565b60006020820190506134ce60008301846134aa565b92915050565b600381106134e157600080fd5b50565b6000815190506134f3816134d4565b92915050565b60006020828403121561350f5761350e613136565b5b600061351d848285016134e4565b91505092915050565b600082825260208201905092915050565b7f53656e646572206d7573742062652061206c6563747572657200000000000000600082015250565b600061356d601983613526565b915061357882613537565b602082019050919050565b6000602082019050818103600083015261359c81613560565b9050919050565b6000815190506135b28161314a565b92915050565b6000602082840312156135ce576135cd613136565b5b60006135dc848285016135a3565b91505092915050565b60006020820190506135fa6000830184613241565b92915050565b6002811061360d57600080fd5b50565b60008151905061361f81613600565b92915050565b60006020828403121561363b5761363a613136565b5b600061364984828501613610565b91505092915050565b7f54686973206173736573736d656e7420776173206e6f7420616e206578616d00600082015250565b6000613688601f83613526565b915061369382613652565b602082019050919050565b600060208201905081810360008301526136b78161367b565b9050919050565b6000815190506136cd81613182565b92915050565b6000602082840312156136e9576136e8613136565b5b60006136f7848285016136be565b91505092915050565b7f546869732073747564656e742773206578616d20617474656e64616e6365207760008201527f617320636f6e6669726d656420616c7265616479000000000000000000000000602082015250565b600061375c603483613526565b915061376782613700565b604082019050919050565b6000602082019050818103600083015261378b8161374f565b9050919050565b61379b81613176565b82525050565b60006080820190506137b66000830187613241565b6137c36020830186613241565b6137d06040830185613792565b6137dd6060830184613241565b95945050505050565b82818337600083830152505050565b6000601f19601f8301169050919050565b60006138128385613526565b935061381f8385846137e6565b613828836137f5565b840190509392505050565b600060e082019050613848600083018b613241565b613855602083018a613241565b6138626040830189613241565b61386f6060830188613241565b8181036080830152613882818688613806565b905061389160a0830185613241565b61389e60c0830184613792565b9998505050505050505050565b7f4e487b7100000000000000000000000000000000000000000000000000000000600052604160045260246000fd5b6138e3826137f5565b810181811067ffffffffffffffff82111715613902576139016138ab565b5b80604052505050565b600061391561312c565b905061392182826138da565b919050565b600067ffffffffffffffff821115613941576139406138ab565b5b602082029050602081019050919050565b600061396561396084613926565b61390b565b9050808382526020820190506020840283018581111561398857613987613283565b5b835b818110156139b1578061399d88826135a3565b84526020840193505060208101905061398a565b5050509392505050565b600082601f8301126139d0576139cf613279565b5b81516139e0848260208601613952565b91505092915050565b6000602082840312156139ff576139fe613136565b5b600082015167ffffffffffffffff811115613a1d57613a1c61313b565b5b613a29848285016139bb565b91505092915050565b7f4e487b7100000000000000000000000000000000000000000000000000000000600052603260045260246000fd5b7f4e487b7100000000000000000000000000000000000000000000000000000000600052601160045260246000fd5b6000613a9b82613140565b91507fffffffffffffffffffffffffffffffffffffffffffffffffffffffffffffffff8203613acd57613acc613a61565b5b600182019050919050565b7f53656e646572206d75737420626520612073747564656e740000000000000000600082015250565b6000613b0e601883613526565b9150613b1982613ad8565b602082019050919050565b60006020820190508181036000830152613b3d81613b01565b9050919050565b7f54686973206173736573736d656e7420776173206e6f742061207375626d697360008201527f73696f6e00000000000000000000000000000000000000000000000000000000602082015250565b6000613ba0602483613526565b9150613bab82613b44565b604082019050919050565b60006020820190508181036000830152613bcf81613b93565b9050919050565b7f5375626d697373696f6e206973206e6f7420706f737369626c6520616674657260008201527f2074686520646561646c696e6500000000000000000000000000000000000000602082015250565b6000613c32602d83613526565b9150613c3d82613bd6565b604082019050919050565b60006020820190508181036000830152613c6181613c25565b9050919050565b600082825260208201905092915050565b6000819050919050565b600082825260208201905092915050565b6000613ca08385613c83565b9350613cad8385846137e6565b613cb6836137f5565b840190509392505050565b6000613cce848484613c94565b90509392505050565b600080fd5b600080fd5b600080fd5b60008083356001602003843603038112613d0357613d02613ce1565b5b83810192508235915060208301925067ffffffffffffffff821115613d2b57613d2a613cd7565b5b600182023603831315613d4157613d40613cdc565b5b509250929050565b6000602082019050919050565b6000613d628385613c68565b935083602084028501613d7484613c79565b8060005b87811015613dba578484038952613d8f8284613ce6565b613d9a868284613cc1565b9550613da584613d49565b935060208b019a505050600181019050613d78565b50829750879450505050509392505050565b6000608082019050613de16000830188613241565b613dee6020830187613241565b613dfb6040830186613241565b8181036060830152613e0e818486613d56565b90509695505050505050565b600060c082019050613e2f600083018a613241565b613e3c6020830189613241565b613e496040830188613241565b613e566060830187613241565b8181036080830152613e69818587613806565b9050613e7860a0830184613241565b98975050505050505050565b7f53656e646572206d757374206265206120726567697374657265642075736572600082015250565b6000613eba602083613526565b9150613ec582613e84565b602082019050919050565b60006020820190508181036000830152613ee981613ead565b9050919050565b60068110613f0157613f00613449565b5b50565b6000819050613f1282613ef0565b919050565b6000613f2282613f04565b9050919050565b613f3281613f17565b82525050565b6000602082019050613f4d6000830184613f29565b92915050565b613f5c81613498565b8114613f6757600080fd5b50565b600081519050613f7981613f53565b92915050565b600060208284031215613f9557613f94613136565b5b6000613fa384828501613f6a565b91505092915050565b7f4c65637475726572206973206e6f74206c6563747572696e672061742074686960008201527f7320636f75727365000000000000000000000000000000000000000000000000602082015250565b6000614008602883613526565b915061401382613fac565b604082019050919050565b6000602082019050818103600083015261403781613ffb565b9050919050565b7f53747564656e74206973206e6f74207265676973746572656420746f2074686560008201527f20636f7572736500000000000000000000000000000000000000000000000000602082015250565b600061409a602783613526565b91506140a58261403e565b604082019050919050565b600060208201905081810360008301526140c98161408d565b9050919050565b7f53747564656e74206973206e6f74207265676973746572656420746f2074686960008201527f732061736573736d656e74000000000000000000000000000000000000000000602082015250565b600061412c602b83613526565b9150614137826140d0565b604082019050919050565b6000602082019050818103600083015261415b8161411f565b9050919050565b600061416d82613140565b915061417883613140565b92508282019050808211156141905761418f613a61565b5b92915050565b600481106141a357600080fd5b50565b6000815190506141b581614196565b92915050565b6000602082840312156141d1576141d0613136565b5b60006141df848285016141a6565b91505092915050565b6000819050919050565b6000819050919050565b600061421761421261420d846141e8565b6141f2565b613140565b9050919050565b614227816141fc565b82525050565b7f4175746f6d617469633a204e6f207375626d697373696f6e207761732068616e60008201527f64656420696e0000000000000000000000000000000000000000000000000000602082015250565b6000614289602683613526565b91506142948261422d565b604082019050919050565b600060c0820190506142b46000830188613241565b6142c16020830187613241565b6142ce6040830186613241565b6142db606083018561421e565b81810360808301526142ec8161427c565b90506142fb60a0830184613241565b9695505050505050565b7f4175746f6d617469633a204578616d20776173206e6f7420617474656e646564600082015250565b600061433b602083613526565b915061434682614305565b602082019050919050565b600060c0820190506143666000830188613241565b6143736020830187613241565b6143806040830186613241565b61438d606083018561421e565b818103608083015261439e8161432e565b90506143ad60a0830184613241565b9695505050505050565b600067ffffffffffffffff8211156143d2576143d16138ab565b5b602082029050602081019050919050565b600080fd5b600080fd5b600080fd5b600067ffffffffffffffff82111561440d5761440c6138ab565b5b614416826137f5565b9050602081019050919050565b60005b83811015614441578082015181840152602081019050614426565b60008484015250505050565b600061446061445b846143f2565b61390b565b90508281526020810184848401111561447c5761447b6143ed565b5b614487848285614423565b509392505050565b600082601f8301126144a4576144a3613279565b5b81516144b484826020860161444d565b91505092915050565b600061014082840312156144d4576144d36143e3565b5b6144df61014061390b565b9050600082015167ffffffffffffffff8111156144ff576144fe6143e8565b5b61450b8482850161448f565b600083015250602061451f848285016135a3565b602083015250604082015167ffffffffffffffff811115614543576145426143e8565b5b61454f8482850161448f565b604083015250606061456384828501613610565b6060830152506080614577848285016135a3565b60808301525060a061458b848285016135a3565b60a08301525060c061459f848285016136be565b60c08301525060e06145b3848285016135a3565b60e0830152506101006145c8848285016135a3565b610100830152506101206145de848285016135a3565b6101208301525092915050565b600060408284031215614601576146006143e3565b5b61460b604061390b565b9050600061461b848285016135a3565b600083015250602082015167ffffffffffffffff81111561463f5761463e6143e8565b5b61464b848285016144bd565b60208301525092915050565b600061466a614665846143b7565b61390b565b9050808382526020820190506020840283018581111561468d5761468c613283565b5b835b818110156146d457805167ffffffffffffffff8111156146b2576146b1613279565b5b8086016146bf89826145eb565b8552602085019450505060208101905061468f565b5050509392505050565b600082601f8301126146f3576146f2613279565b5b8151614703848260208601614657565b91505092915050565b60006020828403121561472257614721613136565b5b600082015167ffffffffffffffff8111156147405761473f61313b565b5b61474c848285016146de565b91505092915050565b7f4175746f6d617469633a204174206c65617374206f6e65206f6620746865206160008201527f73736573736d656e747320646964206e6f7420726561636820746865206d696e60208201527f696d756d20706f696e7473000000000000000000000000000000000000000000604082015250565b60006147d7604b83613526565b91506147e282614755565b606082019050919050565b600060e0820190506148026000830189613241565b61480f6020830188613241565b61481c6040830187613241565b6148296060830186613241565b818103608083015261483a816147ca565b905061484960a0830185613241565b61485660c0830184613792565b979650505050505050565b600067ffffffffffffffff82111561487c5761487b6138ab565b5b602082029050602081019050919050565b6000604082840312156148a3576148a26143e3565b5b6148ad604061390b565b905060006148bd848285016135a3565b60008301525060206148d1848285016135a3565b60208301525092915050565b60006148f06148eb84614861565b61390b565b9050808382526020820190506040840283018581111561491357614912613283565b5b835b8181101561493c5780614928888261488d565b845260208401935050604081019050614915565b5050509392505050565b600082601f83011261495b5761495a613279565b5b815161496b8482602086016148dd565b91505092915050565b60006020828403121561498a57614989613136565b5b600082015167ffffffffffffffff8111156149a8576149a761313b565b5b6149b484828501614946565b91505092915050565b50565b60006149cd600083613526565b91506149d8826149bd565b600082019050919050565b600060e0820190506149f86000830189613241565b614a056020830188613241565b614a126040830187613241565b614a1f6060830186613241565b8181036080830152614a30816149c0565b9050614a3f60a0830185613241565b614a4c60c0830184613792565b979650505050505050565b60008160011c9050919050565b6000808291508390505b6001851115614aae57808604811115614a8a57614a89613a61565b5b6001851615614a995780820291505b8081029050614aa785614a57565b9450614a6e565b94509492505050565b600082614ac75760019050614b83565b81614ad55760009050614b83565b8160018114614aeb5760028114614af557614b24565b6001915050614b83565b60ff841115614b0757614b06613a61565b5b8360020a915084821115614b1e57614b1d613a61565b5b50614b83565b5060208310610133831016604e8410600b8410161715614b595782820a905083811115614b5457614b53613a61565b5b614b83565b614b668484846001614a64565b92509050818404811115614b7d57614b7c613a61565b5b81810290505b9392505050565b6000614b9582613140565b9150614ba083613140565b9250614bcd7fffffffffffffffffffffffffffffffffffffffffffffffffffffffffffffffff8484614ab7565b905092915050565b6000614be082613140565b9150614beb83613140565b9250828202614bf981613140565b91508282048414831517614c1057614c0f613a61565b5b5092915050565b7f4e487b7100000000000000000000000000000000000000000000000000000000600052601260045260246000fd5b6000614c5182613140565b9150614c5c83613140565b925082614c6c57614c6b614c17565b5b82820490509291505056fea2646970667358221220caf6c0452581d40d238efaa8d2bede7e8c6ba2e6c5253f0b8a5f8d1346b6722864736f6c63430008110033",
  "linkReferences": {},
  "deployedLinkReferences": {}
}