{
  "_format": "hh-sol-artifact-1",
  "contractName": "CourseView",
  "sourceName": "contracts/view/CourseView.sol",
  "abi": [
    {
      "inputs": [
        {
          "internalType": "address",
          "name": "addressBookAddress",
          "type": "address"
        }
      ],
      "stateMutability": "nonpayable",
      "type": "constructor"
    },
    {
      "inputs": [],
      "name": "getAllCourseCodes",
      "outputs": [
        {
          "internalType": "string[]",
          "name": "",
          "type": "string[]"
        }
      ],
      "stateMutability": "view",
      "type": "function"
    },
    {
      "inputs": [],
      "name": "getAllCourses",
      "outputs": [
        {
          "components": [
            {
              "internalType": "uint256",
              "name": "courseId",
              "type": "uint256"
            },
            {
              "components": [
                {
                  "internalType": "string",
                  "name": "title",
                  "type": "string"
                },
                {
                  "internalType": "string",
                  "name": "code",
                  "type": "string"
                },
                {
                  "internalType": "enum CourseDataTypes.CourseType",
                  "name": "courseType",
                  "type": "uint8"
                },
                {
                  "components": [
                    {
                      "internalType": "uint256",
                      "name": "year",
                      "type": "uint256"
                    },
                    {
                      "internalType": "enum CourseDataTypes.SemesterSeason",
                      "name": "season",
                      "type": "uint8"
                    }
                  ],
                  "internalType": "struct CourseDataTypes.Semester",
                  "name": "semester",
                  "type": "tuple"
                },
                {
                  "internalType": "string",
                  "name": "description",
                  "type": "string"
                },
                {
                  "internalType": "string",
                  "name": "examTopics",
                  "type": "string"
                },
                {
                  "internalType": "string",
                  "name": "language",
                  "type": "string"
                },
                {
                  "internalType": "uint256",
                  "name": "ects",
                  "type": "uint256"
                },
                {
                  "internalType": "uint256",
                  "name": "maxPlaces",
                  "type": "uint256"
                },
                {
                  "internalType": "uint256",
                  "name": "registrationStart",
                  "type": "uint256"
                },
                {
                  "internalType": "uint256",
                  "name": "registrationDeadline",
                  "type": "uint256"
                },
                {
                  "internalType": "uint256",
                  "name": "deregistrationDeadline",
                  "type": "uint256"
                },
                {
                  "components": [
                    {
                      "internalType": "uint256",
                      "name": "datetime",
                      "type": "uint256"
                    },
                    {
                      "internalType": "string",
                      "name": "place",
                      "type": "string"
                    }
                  ],
                  "internalType": "struct CourseDataTypes.Class[]",
                  "name": "classes",
                  "type": "tuple[]"
                },
                {
                  "components": [
                    {
                      "internalType": "uint256",
                      "name": "grade",
                      "type": "uint256"
                    },
                    {
                      "internalType": "uint256",
                      "name": "minPercentage",
                      "type": "uint256"
                    }
                  ],
                  "internalType": "struct CourseDataTypes.GradeLevel[]",
                  "name": "gradeLevels",
                  "type": "tuple[]"
                },
                {
                  "internalType": "string[]",
                  "name": "requirementCourseCodes",
                  "type": "string[]"
                }
              ],
              "internalType": "struct CourseDataTypes.CourseContent",
              "name": "courseContent",
              "type": "tuple"
            }
          ],
          "internalType": "struct CourseDataTypes.Course[]",
          "name": "",
          "type": "tuple[]"
        }
      ],
      "stateMutability": "view",
      "type": "function"
    },
    {
      "inputs": [
        {
          "internalType": "uint256",
          "name": "assessmentId",
          "type": "uint256"
        }
      ],
      "name": "getAssessment",
      "outputs": [
        {
          "components": [
            {
              "internalType": "uint256",
              "name": "assessmentId",
              "type": "uint256"
            },
            {
              "components": [
                {
                  "internalType": "string",
                  "name": "title",
                  "type": "string"
                },
                {
                  "internalType": "uint256",
                  "name": "datetime",
                  "type": "uint256"
                },
                {
                  "internalType": "string",
                  "name": "place",
                  "type": "string"
                },
                {
                  "internalType": "enum CourseDataTypes.AssessmentType",
                  "name": "assessmentType",
                  "type": "uint8"
                },
                {
                  "internalType": "uint256",
                  "name": "maxPoints",
                  "type": "uint256"
                },
                {
                  "internalType": "uint256",
                  "name": "minPoints",
                  "type": "uint256"
                },
                {
                  "internalType": "bool",
                  "name": "isRegistrationRequired",
                  "type": "bool"
                },
                {
                  "internalType": "uint256",
                  "name": "registrationStart",
                  "type": "uint256"
                },
                {
                  "internalType": "uint256",
                  "name": "registrationDeadline",
                  "type": "uint256"
                },
                {
                  "internalType": "uint256",
                  "name": "deregistrationDeadline",
                  "type": "uint256"
                }
              ],
              "internalType": "struct CourseDataTypes.AssessmentContent",
              "name": "assessmentContent",
              "type": "tuple"
            }
          ],
          "internalType": "struct CourseDataTypes.Assessment",
          "name": "",
          "type": "tuple"
        }
      ],
      "stateMutability": "view",
      "type": "function"
    },
    {
      "inputs": [
        {
          "internalType": "uint256",
          "name": "assessmentId",
          "type": "uint256"
        }
      ],
      "name": "getAssessmentParticipants",
      "outputs": [
        {
          "components": [
            {
              "internalType": "uint256",
              "name": "uId",
              "type": "uint256"
            },
            {
              "components": [
                {
                  "internalType": "string",
                  "name": "firstName",
                  "type": "string"
                },
                {
                  "internalType": "string",
                  "name": "lastName",
                  "type": "string"
                },
                {
                  "internalType": "enum UserDataTypes.Gender",
                  "name": "gender",
                  "type": "uint8"
                },
                {
                  "components": [
                    {
                      "internalType": "uint256",
                      "name": "year",
                      "type": "uint256"
                    },
                    {
                      "internalType": "uint256",
                      "name": "month",
                      "type": "uint256"
                    },
                    {
                      "internalType": "uint256",
                      "name": "day",
                      "type": "uint256"
                    }
                  ],
                  "internalType": "struct UserDataTypes.Date",
                  "name": "dateOfBirth",
                  "type": "tuple"
                },
                {
                  "internalType": "string",
                  "name": "nationality",
                  "type": "string"
                },
                {
                  "internalType": "string",
                  "name": "phoneNumber",
                  "type": "string"
                },
                {
                  "internalType": "string",
                  "name": "emailAddress",
                  "type": "string"
                },
                {
                  "internalType": "enum UserDataTypes.UserRole",
                  "name": "role",
                  "type": "uint8"
                },
                {
                  "internalType": "uint256[]",
                  "name": "studyProgramIds",
                  "type": "uint256[]"
                }
              ],
              "internalType": "struct UserDataTypes.UserProfile",
              "name": "profile",
              "type": "tuple"
            }
          ],
          "internalType": "struct UserDataTypes.User[]",
          "name": "",
          "type": "tuple[]"
        }
      ],
      "stateMutability": "view",
      "type": "function"
    },
    {
      "inputs": [
        {
          "internalType": "uint256",
          "name": "courseId",
          "type": "uint256"
        }
      ],
      "name": "getAssessmentsToCourseId",
      "outputs": [
        {
          "components": [
            {
              "internalType": "uint256",
              "name": "assessmentId",
              "type": "uint256"
            },
            {
              "components": [
                {
                  "internalType": "string",
                  "name": "title",
                  "type": "string"
                },
                {
                  "internalType": "uint256",
                  "name": "datetime",
                  "type": "uint256"
                },
                {
                  "internalType": "string",
                  "name": "place",
                  "type": "string"
                },
                {
                  "internalType": "enum CourseDataTypes.AssessmentType",
                  "name": "assessmentType",
                  "type": "uint8"
                },
                {
                  "internalType": "uint256",
                  "name": "maxPoints",
                  "type": "uint256"
                },
                {
                  "internalType": "uint256",
                  "name": "minPoints",
                  "type": "uint256"
                },
                {
                  "internalType": "bool",
                  "name": "isRegistrationRequired",
                  "type": "bool"
                },
                {
                  "internalType": "uint256",
                  "name": "registrationStart",
                  "type": "uint256"
                },
                {
                  "internalType": "uint256",
                  "name": "registrationDeadline",
                  "type": "uint256"
                },
                {
                  "internalType": "uint256",
                  "name": "deregistrationDeadline",
                  "type": "uint256"
                }
              ],
              "internalType": "struct CourseDataTypes.AssessmentContent",
              "name": "assessmentContent",
              "type": "tuple"
            }
          ],
          "internalType": "struct CourseDataTypes.Assessment[]",
          "name": "",
          "type": "tuple[]"
        }
      ],
      "stateMutability": "view",
      "type": "function"
    },
    {
      "inputs": [
        {
          "internalType": "uint256",
          "name": "courseId",
          "type": "uint256"
        }
      ],
      "name": "getCourse",
      "outputs": [
        {
          "components": [
            {
              "internalType": "uint256",
              "name": "courseId",
              "type": "uint256"
            },
            {
              "components": [
                {
                  "internalType": "string",
                  "name": "title",
                  "type": "string"
                },
                {
                  "internalType": "string",
                  "name": "code",
                  "type": "string"
                },
                {
                  "internalType": "enum CourseDataTypes.CourseType",
                  "name": "courseType",
                  "type": "uint8"
                },
                {
                  "components": [
                    {
                      "internalType": "uint256",
                      "name": "year",
                      "type": "uint256"
                    },
                    {
                      "internalType": "enum CourseDataTypes.SemesterSeason",
                      "name": "season",
                      "type": "uint8"
                    }
                  ],
                  "internalType": "struct CourseDataTypes.Semester",
                  "name": "semester",
                  "type": "tuple"
                },
                {
                  "internalType": "string",
                  "name": "description",
                  "type": "string"
                },
                {
                  "internalType": "string",
                  "name": "examTopics",
                  "type": "string"
                },
                {
                  "internalType": "string",
                  "name": "language",
                  "type": "string"
                },
                {
                  "internalType": "uint256",
                  "name": "ects",
                  "type": "uint256"
                },
                {
                  "internalType": "uint256",
                  "name": "maxPlaces",
                  "type": "uint256"
                },
                {
                  "internalType": "uint256",
                  "name": "registrationStart",
                  "type": "uint256"
                },
                {
                  "internalType": "uint256",
                  "name": "registrationDeadline",
                  "type": "uint256"
                },
                {
                  "internalType": "uint256",
                  "name": "deregistrationDeadline",
                  "type": "uint256"
                },
                {
                  "components": [
                    {
                      "internalType": "uint256",
                      "name": "datetime",
                      "type": "uint256"
                    },
                    {
                      "internalType": "string",
                      "name": "place",
                      "type": "string"
                    }
                  ],
                  "internalType": "struct CourseDataTypes.Class[]",
                  "name": "classes",
                  "type": "tuple[]"
                },
                {
                  "components": [
                    {
                      "internalType": "uint256",
                      "name": "grade",
                      "type": "uint256"
                    },
                    {
                      "internalType": "uint256",
                      "name": "minPercentage",
                      "type": "uint256"
                    }
                  ],
                  "internalType": "struct CourseDataTypes.GradeLevel[]",
                  "name": "gradeLevels",
                  "type": "tuple[]"
                },
                {
                  "internalType": "string[]",
                  "name": "requirementCourseCodes",
                  "type": "string[]"
                }
              ],
              "internalType": "struct CourseDataTypes.CourseContent",
              "name": "courseContent",
              "type": "tuple"
            }
          ],
          "internalType": "struct CourseDataTypes.Course",
          "name": "",
          "type": "tuple"
        }
      ],
      "stateMutability": "view",
      "type": "function"
    },
    {
      "inputs": [
        {
          "internalType": "uint256",
          "name": "courseId",
          "type": "uint256"
        }
      ],
      "name": "getCourseParticipants",
      "outputs": [
        {
          "components": [
            {
              "internalType": "uint256",
              "name": "uId",
              "type": "uint256"
            },
            {
              "components": [
                {
                  "internalType": "string",
                  "name": "firstName",
                  "type": "string"
                },
                {
                  "internalType": "string",
                  "name": "lastName",
                  "type": "string"
                },
                {
                  "internalType": "enum UserDataTypes.Gender",
                  "name": "gender",
                  "type": "uint8"
                },
                {
                  "components": [
                    {
                      "internalType": "uint256",
                      "name": "year",
                      "type": "uint256"
                    },
                    {
                      "internalType": "uint256",
                      "name": "month",
                      "type": "uint256"
                    },
                    {
                      "internalType": "uint256",
                      "name": "day",
                      "type": "uint256"
                    }
                  ],
                  "internalType": "struct UserDataTypes.Date",
                  "name": "dateOfBirth",
                  "type": "tuple"
                },
                {
                  "internalType": "string",
                  "name": "nationality",
                  "type": "string"
                },
                {
                  "internalType": "string",
                  "name": "phoneNumber",
                  "type": "string"
                },
                {
                  "internalType": "string",
                  "name": "emailAddress",
                  "type": "string"
                },
                {
                  "internalType": "enum UserDataTypes.UserRole",
                  "name": "role",
                  "type": "uint8"
                },
                {
                  "internalType": "uint256[]",
                  "name": "studyProgramIds",
                  "type": "uint256[]"
                }
              ],
              "internalType": "struct UserDataTypes.UserProfile",
              "name": "profile",
              "type": "tuple"
            }
          ],
          "internalType": "struct UserDataTypes.User[]",
          "name": "",
          "type": "tuple[]"
        }
      ],
      "stateMutability": "view",
      "type": "function"
    },
    {
      "inputs": [
        {
          "internalType": "uint256",
          "name": "courseId",
          "type": "uint256"
        }
      ],
      "name": "getCourseParticipantsNumber",
      "outputs": [
        {
          "internalType": "uint256",
          "name": "",
          "type": "uint256"
        }
      ],
      "stateMutability": "view",
      "type": "function"
    },
    {
      "inputs": [],
      "name": "getCoursesLecturingAt",
      "outputs": [
        {
          "components": [
            {
              "internalType": "uint256",
              "name": "courseId",
              "type": "uint256"
            },
            {
              "components": [
                {
                  "internalType": "string",
                  "name": "title",
                  "type": "string"
                },
                {
                  "internalType": "string",
                  "name": "code",
                  "type": "string"
                },
                {
                  "internalType": "enum CourseDataTypes.CourseType",
                  "name": "courseType",
                  "type": "uint8"
                },
                {
                  "components": [
                    {
                      "internalType": "uint256",
                      "name": "year",
                      "type": "uint256"
                    },
                    {
                      "internalType": "enum CourseDataTypes.SemesterSeason",
                      "name": "season",
                      "type": "uint8"
                    }
                  ],
                  "internalType": "struct CourseDataTypes.Semester",
                  "name": "semester",
                  "type": "tuple"
                },
                {
                  "internalType": "string",
                  "name": "description",
                  "type": "string"
                },
                {
                  "internalType": "string",
                  "name": "examTopics",
                  "type": "string"
                },
                {
                  "internalType": "string",
                  "name": "language",
                  "type": "string"
                },
                {
                  "internalType": "uint256",
                  "name": "ects",
                  "type": "uint256"
                },
                {
                  "internalType": "uint256",
                  "name": "maxPlaces",
                  "type": "uint256"
                },
                {
                  "internalType": "uint256",
                  "name": "registrationStart",
                  "type": "uint256"
                },
                {
                  "internalType": "uint256",
                  "name": "registrationDeadline",
                  "type": "uint256"
                },
                {
                  "internalType": "uint256",
                  "name": "deregistrationDeadline",
                  "type": "uint256"
                },
                {
                  "components": [
                    {
                      "internalType": "uint256",
                      "name": "datetime",
                      "type": "uint256"
                    },
                    {
                      "internalType": "string",
                      "name": "place",
                      "type": "string"
                    }
                  ],
                  "internalType": "struct CourseDataTypes.Class[]",
                  "name": "classes",
                  "type": "tuple[]"
                },
                {
                  "components": [
                    {
                      "internalType": "uint256",
                      "name": "grade",
                      "type": "uint256"
                    },
                    {
                      "internalType": "uint256",
                      "name": "minPercentage",
                      "type": "uint256"
                    }
                  ],
                  "internalType": "struct CourseDataTypes.GradeLevel[]",
                  "name": "gradeLevels",
                  "type": "tuple[]"
                },
                {
                  "internalType": "string[]",
                  "name": "requirementCourseCodes",
                  "type": "string[]"
                }
              ],
              "internalType": "struct CourseDataTypes.CourseContent",
              "name": "courseContent",
              "type": "tuple"
            }
          ],
          "internalType": "struct CourseDataTypes.Course[]",
          "name": "",
          "type": "tuple[]"
        }
      ],
      "stateMutability": "view",
      "type": "function"
    },
    {
      "inputs": [
        {
          "internalType": "uint256",
          "name": "courseId",
          "type": "uint256"
        }
      ],
      "name": "getLecturersAtCourse",
      "outputs": [
        {
          "components": [
            {
              "internalType": "uint256",
              "name": "uId",
              "type": "uint256"
            },
            {
              "components": [
                {
                  "internalType": "string",
                  "name": "firstName",
                  "type": "string"
                },
                {
                  "internalType": "string",
                  "name": "lastName",
                  "type": "string"
                },
                {
                  "internalType": "enum UserDataTypes.Gender",
                  "name": "gender",
                  "type": "uint8"
                },
                {
                  "components": [
                    {
                      "internalType": "uint256",
                      "name": "year",
                      "type": "uint256"
                    },
                    {
                      "internalType": "uint256",
                      "name": "month",
                      "type": "uint256"
                    },
                    {
                      "internalType": "uint256",
                      "name": "day",
                      "type": "uint256"
                    }
                  ],
                  "internalType": "struct UserDataTypes.Date",
                  "name": "dateOfBirth",
                  "type": "tuple"
                },
                {
                  "internalType": "string",
                  "name": "nationality",
                  "type": "string"
                },
                {
                  "internalType": "string",
                  "name": "phoneNumber",
                  "type": "string"
                },
                {
                  "internalType": "string",
                  "name": "emailAddress",
                  "type": "string"
                },
                {
                  "internalType": "enum UserDataTypes.UserRole",
                  "name": "role",
                  "type": "uint8"
                },
                {
                  "internalType": "uint256[]",
                  "name": "studyProgramIds",
                  "type": "uint256[]"
                }
              ],
              "internalType": "struct UserDataTypes.UserProfile",
              "name": "profile",
              "type": "tuple"
            }
          ],
          "internalType": "struct UserDataTypes.User[]",
          "name": "",
          "type": "tuple[]"
        }
      ],
      "stateMutability": "view",
      "type": "function"
    },
    {
      "inputs": [
        {
          "internalType": "uint256",
          "name": "courseId",
          "type": "uint256"
        }
      ],
      "name": "getRegisteredAssessments",
      "outputs": [
        {
          "components": [
            {
              "internalType": "uint256",
              "name": "assessmentId",
              "type": "uint256"
            },
            {
              "components": [
                {
                  "internalType": "string",
                  "name": "title",
                  "type": "string"
                },
                {
                  "internalType": "uint256",
                  "name": "datetime",
                  "type": "uint256"
                },
                {
                  "internalType": "string",
                  "name": "place",
                  "type": "string"
                },
                {
                  "internalType": "enum CourseDataTypes.AssessmentType",
                  "name": "assessmentType",
                  "type": "uint8"
                },
                {
                  "internalType": "uint256",
                  "name": "maxPoints",
                  "type": "uint256"
                },
                {
                  "internalType": "uint256",
                  "name": "minPoints",
                  "type": "uint256"
                },
                {
                  "internalType": "bool",
                  "name": "isRegistrationRequired",
                  "type": "bool"
                },
                {
                  "internalType": "uint256",
                  "name": "registrationStart",
                  "type": "uint256"
                },
                {
                  "internalType": "uint256",
                  "name": "registrationDeadline",
                  "type": "uint256"
                },
                {
                  "internalType": "uint256",
                  "name": "deregistrationDeadline",
                  "type": "uint256"
                }
              ],
              "internalType": "struct CourseDataTypes.AssessmentContent",
              "name": "assessmentContent",
              "type": "tuple"
            }
          ],
          "internalType": "struct CourseDataTypes.Assessment[]",
          "name": "",
          "type": "tuple[]"
        }
      ],
      "stateMutability": "view",
      "type": "function"
    },
    {
      "inputs": [
        {
          "internalType": "uint256",
          "name": "courseId",
          "type": "uint256"
        },
        {
          "internalType": "uint256",
          "name": "studentUId",
          "type": "uint256"
        }
      ],
      "name": "getRegisteredAssessmentsOfStudent",
      "outputs": [
        {
          "components": [
            {
              "internalType": "uint256",
              "name": "assessmentId",
              "type": "uint256"
            },
            {
              "components": [
                {
                  "internalType": "string",
                  "name": "title",
                  "type": "string"
                },
                {
                  "internalType": "uint256",
                  "name": "datetime",
                  "type": "uint256"
                },
                {
                  "internalType": "string",
                  "name": "place",
                  "type": "string"
                },
                {
                  "internalType": "enum CourseDataTypes.AssessmentType",
                  "name": "assessmentType",
                  "type": "uint8"
                },
                {
                  "internalType": "uint256",
                  "name": "maxPoints",
                  "type": "uint256"
                },
                {
                  "internalType": "uint256",
                  "name": "minPoints",
                  "type": "uint256"
                },
                {
                  "internalType": "bool",
                  "name": "isRegistrationRequired",
                  "type": "bool"
                },
                {
                  "internalType": "uint256",
                  "name": "registrationStart",
                  "type": "uint256"
                },
                {
                  "internalType": "uint256",
                  "name": "registrationDeadline",
                  "type": "uint256"
                },
                {
                  "internalType": "uint256",
                  "name": "deregistrationDeadline",
                  "type": "uint256"
                }
              ],
              "internalType": "struct CourseDataTypes.AssessmentContent",
              "name": "assessmentContent",
              "type": "tuple"
            }
          ],
          "internalType": "struct CourseDataTypes.Assessment[]",
          "name": "",
          "type": "tuple[]"
        }
      ],
      "stateMutability": "view",
      "type": "function"
    },
    {
      "inputs": [],
      "name": "getRegisteredCourses",
      "outputs": [
        {
          "components": [
            {
              "internalType": "uint256",
              "name": "courseId",
              "type": "uint256"
            },
            {
              "components": [
                {
                  "internalType": "string",
                  "name": "title",
                  "type": "string"
                },
                {
                  "internalType": "string",
                  "name": "code",
                  "type": "string"
                },
                {
                  "internalType": "enum CourseDataTypes.CourseType",
                  "name": "courseType",
                  "type": "uint8"
                },
                {
                  "components": [
                    {
                      "internalType": "uint256",
                      "name": "year",
                      "type": "uint256"
                    },
                    {
                      "internalType": "enum CourseDataTypes.SemesterSeason",
                      "name": "season",
                      "type": "uint8"
                    }
                  ],
                  "internalType": "struct CourseDataTypes.Semester",
                  "name": "semester",
                  "type": "tuple"
                },
                {
                  "internalType": "string",
                  "name": "description",
                  "type": "string"
                },
                {
                  "internalType": "string",
                  "name": "examTopics",
                  "type": "string"
                },
                {
                  "internalType": "string",
                  "name": "language",
                  "type": "string"
                },
                {
                  "internalType": "uint256",
                  "name": "ects",
                  "type": "uint256"
                },
                {
                  "internalType": "uint256",
                  "name": "maxPlaces",
                  "type": "uint256"
                },
                {
                  "internalType": "uint256",
                  "name": "registrationStart",
                  "type": "uint256"
                },
                {
                  "internalType": "uint256",
                  "name": "registrationDeadline",
                  "type": "uint256"
                },
                {
                  "internalType": "uint256",
                  "name": "deregistrationDeadline",
                  "type": "uint256"
                },
                {
                  "components": [
                    {
                      "internalType": "uint256",
                      "name": "datetime",
                      "type": "uint256"
                    },
                    {
                      "internalType": "string",
                      "name": "place",
                      "type": "string"
                    }
                  ],
                  "internalType": "struct CourseDataTypes.Class[]",
                  "name": "classes",
                  "type": "tuple[]"
                },
                {
                  "components": [
                    {
                      "internalType": "uint256",
                      "name": "grade",
                      "type": "uint256"
                    },
                    {
                      "internalType": "uint256",
                      "name": "minPercentage",
                      "type": "uint256"
                    }
                  ],
                  "internalType": "struct CourseDataTypes.GradeLevel[]",
                  "name": "gradeLevels",
                  "type": "tuple[]"
                },
                {
                  "internalType": "string[]",
                  "name": "requirementCourseCodes",
                  "type": "string[]"
                }
              ],
              "internalType": "struct CourseDataTypes.CourseContent",
              "name": "courseContent",
              "type": "tuple"
            }
          ],
          "internalType": "struct CourseDataTypes.Course[]",
          "name": "",
          "type": "tuple[]"
        }
      ],
      "stateMutability": "view",
      "type": "function"
    },
    {
      "inputs": [
        {
          "internalType": "uint256",
          "name": "courseId",
          "type": "uint256"
        }
      ],
      "name": "isRegisteredAtCourse",
      "outputs": [
        {
          "internalType": "bool",
          "name": "",
          "type": "bool"
        }
      ],
      "stateMutability": "view",
      "type": "function"
    },
    {
      "inputs": [
        {
          "internalType": "uint256",
          "name": "assessmentId",
          "type": "uint256"
        }
      ],
      "name": "isRegisteredToAssessment",
      "outputs": [
        {
          "internalType": "bool",
          "name": "",
          "type": "bool"
        }
      ],
      "stateMutability": "view",
      "type": "function"
    }
  ],
  "bytecode": "0x60806040523480156200001157600080fd5b50604051620048dc380380620048dc8339818101604052810190620000379190620000ec565b8080806000806101000a81548173ffffffffffffffffffffffffffffffffffffffff021916908373ffffffffffffffffffffffffffffffffffffffff1602179055505050506200011e565b600080fd5b600073ffffffffffffffffffffffffffffffffffffffff82169050919050565b6000620000b48262000087565b9050919050565b620000c681620000a7565b8114620000d257600080fd5b50565b600081519050620000e681620000bb565b92915050565b60006020828403121562000105576200010462000082565b5b60006200011584828501620000d5565b91505092915050565b6147ae806200012e6000396000f3fe608060405234801561001057600080fd5b50600436106100f55760003560e01c8063874ad78f11610097578063bef7a57111610066578063bef7a571146102e6578063ce0a0a9314610304578063d4a647f614610322578063eecf3df814610352576100f5565b8063874ad78f1461022657806399aa3f5d14610256578063a5478d4f14610286578063b8e51787146102b6576100f5565b80630fb8f8ca116100d35780630fb8f8ca146101665780634e66b6b21461019657806360270c7c146101c65780636dd4b38f146101f6576100f5565b806304e48bd1146100fa57806308bcb4a4146101185780630b91e28d14610136575b600080fd5b610102610382565b60405161010f91906127bc565b60405180910390f35b610120610404565b60405161012d91906127bc565b60405180910390f35b610150600480360381019061014b919061281e565b610606565b60405161015d9190612888565b60405180910390f35b610180600480360381019061017b919061281e565b61069b565b60405161018d9190612aed565b60405180910390f35b6101b060048036038101906101ab919061281e565b610938565b6040516101bd9190612b1e565b60405180910390f35b6101e060048036038101906101db919061281e565b610b39565b6040516101ed9190612ea3565b60405180910390f35b610210600480360381019061020b919061281e565b610e5a565b60405161021d9190612ed4565b60405180910390f35b610240600480360381019061023b919061281e565b610eea565b60405161024d9190612b1e565b60405180910390f35b610270600480360381019061026b919061281e565b6110eb565b60405161027d9190612ea3565b60405180910390f35b6102a0600480360381019061029b919061281e565b61138c565b6040516102ad9190612aed565b60405180910390f35b6102d060048036038101906102cb919061281e565b61141b565b6040516102dd9190612f2c565b60405180910390f35b6102ee6114b0565b6040516102fb9190612fd4565b60405180910390f35b61030c611532565b60405161031991906127bc565b60405180910390f35b61033c60048036038101906103379190612ff6565b611734565b6040516103499190612aed565b60405180910390f35b61036c6004803603810190610367919061281e565b6119d2565b6040516103799190612ea3565b60405180910390f35b606061038c611aec565b73ffffffffffffffffffffffffffffffffffffffff166304e48bd16040518163ffffffff1660e01b8152600401600060405180830381865afa1580156103d6573d6000803e3d6000fd5b505050506040513d6000823e3d601f19601f820116820180604052508101906103ff91906138ed565b905090565b606061040e611b8f565b60006002811115610422576104216121e7565b5b61042a611c51565b73ffffffffffffffffffffffffffffffffffffffff1663dd8b2914336040518263ffffffff1660e01b81526004016104629190613977565b602060405180830381865afa15801561047f573d6000803e3d6000fd5b505050506040513d601f19601f820116820180604052508101906104a391906139b7565b60028111156104b5576104b46121e7565b5b146104f5576040517f08c379a00000000000000000000000000000000000000000000000000000000081526004016104ec90613a41565b60405180910390fd5b60006104ff611c51565b73ffffffffffffffffffffffffffffffffffffffff1663e3d7e14c336040518263ffffffff1660e01b81526004016105379190613977565b602060405180830381865afa158015610554573d6000803e3d6000fd5b505050506040513d601f19601f820116820180604052508101906105789190613a61565b9050610582611aec565b73ffffffffffffffffffffffffffffffffffffffff1663916ae6bb826040518263ffffffff1660e01b81526004016105ba9190612ed4565b600060405180830381865afa1580156105d7573d6000803e3d6000fd5b505050506040513d6000823e3d601f19601f8201168201806040525081019061060091906138ed565b91505090565b61060e611fb1565b610616611aec565b73ffffffffffffffffffffffffffffffffffffffff16630b91e28d836040518263ffffffff1660e01b815260040161064e9190612ed4565b600060405180830381865afa15801561066b573d6000803e3d6000fd5b505050506040513d6000823e3d601f19601f820116820180604052508101906106949190613a8e565b9050919050565b60606106a5611b8f565b600060028111156106b9576106b86121e7565b5b6106c1611c51565b73ffffffffffffffffffffffffffffffffffffffff1663dd8b2914336040518263ffffffff1660e01b81526004016106f99190613977565b602060405180830381865afa158015610716573d6000803e3d6000fd5b505050506040513d601f19601f8201168201806040525081019061073a91906139b7565b600281111561074c5761074b6121e7565b5b1461078c576040517f08c379a000000000000000000000000000000000000000000000000000000000815260040161078390613a41565b60405180910390fd5b6000610796611c51565b73ffffffffffffffffffffffffffffffffffffffff1663e3d7e14c336040518263ffffffff1660e01b81526004016107ce9190613977565b602060405180830381865afa1580156107eb573d6000803e3d6000fd5b505050506040513d601f19601f8201168201806040525081019061080f9190613a61565b9050610823818461081e611aec565b611cf4565b61082b611db4565b73ffffffffffffffffffffffffffffffffffffffff16634d9383a461084e611db4565b73ffffffffffffffffffffffffffffffffffffffff16633b4f950086856040518363ffffffff1660e01b8152600401610888929190613ad7565b600060405180830381865afa1580156108a5573d6000803e3d6000fd5b505050506040513d6000823e3d601f19601f820116820180604052508101906108ce9190613bc3565b6040518263ffffffff1660e01b81526004016108ea9190613c7b565b600060405180830381865afa158015610907573d6000803e3d6000fd5b505050506040513d6000823e3d601f19601f820116820180604052508101906109309190613f69565b915050919050565b6000610942611b8f565b60006002811115610956576109556121e7565b5b61095e611c51565b73ffffffffffffffffffffffffffffffffffffffff1663dd8b2914336040518263ffffffff1660e01b81526004016109969190613977565b602060405180830381865afa1580156109b3573d6000803e3d6000fd5b505050506040513d601f19601f820116820180604052508101906109d791906139b7565b60028111156109e9576109e86121e7565b5b14610a29576040517f08c379a0000000000000000000000000000000000000000000000000000000008152600401610a2090613a41565b60405180910390fd5b6000610a33611c51565b73ffffffffffffffffffffffffffffffffffffffff1663e3d7e14c336040518263ffffffff1660e01b8152600401610a6b9190613977565b602060405180830381865afa158015610a88573d6000803e3d6000fd5b505050506040513d601f19601f82011682018060405250810190610aac9190613a61565b9050610ab6611aec565b73ffffffffffffffffffffffffffffffffffffffff16633932708b82856040518363ffffffff1660e01b8152600401610af0929190613ad7565b602060405180830381865afa158015610b0d573d6000803e3d6000fd5b505050506040513d601f19601f82011682018060405250810190610b319190613fb2565b915050919050565b6060610b43611b8f565b60016002811115610b5757610b566121e7565b5b610b5f611c51565b73ffffffffffffffffffffffffffffffffffffffff1663dd8b2914336040518263ffffffff1660e01b8152600401610b979190613977565b602060405180830381865afa158015610bb4573d6000803e3d6000fd5b505050506040513d601f19601f82011682018060405250810190610bd891906139b7565b6002811115610bea57610be96121e7565b5b14610c2a576040517f08c379a0000000000000000000000000000000000000000000000000000000008152600401610c219061402b565b60405180910390fd5b6000610c34611c51565b73ffffffffffffffffffffffffffffffffffffffff1663e3d7e14c336040518263ffffffff1660e01b8152600401610c6c9190613977565b602060405180830381865afa158015610c89573d6000803e3d6000fd5b505050506040513d601f19601f82011682018060405250810190610cad9190613a61565b90506000610cb9611db4565b73ffffffffffffffffffffffffffffffffffffffff1663a31cf91f856040518263ffffffff1660e01b8152600401610cf19190612ed4565b602060405180830381865afa158015610d0e573d6000803e3d6000fd5b505050506040513d601f19601f82011682018060405250810190610d329190613a61565b9050610d468282610d41611aec565b611e57565b610d4e611c51565b73ffffffffffffffffffffffffffffffffffffffff1663b29d96f2610d71611db4565b73ffffffffffffffffffffffffffffffffffffffff1663e285fd25876040518263ffffffff1660e01b8152600401610da99190612ed4565b600060405180830381865afa158015610dc6573d6000803e3d6000fd5b505050506040513d6000823e3d601f19601f82011682018060405250810190610def9190613bc3565b6040518263ffffffff1660e01b8152600401610e0b9190613c7b565b600060405180830381865afa158015610e28573d6000803e3d6000fd5b505050506040513d6000823e3d601f19601f82011682018060405250810190610e5191906143ab565b92505050919050565b6000610e64611aec565b73ffffffffffffffffffffffffffffffffffffffff16636f4f5878836040518263ffffffff1660e01b8152600401610e9c9190612ed4565b600060405180830381865afa158015610eb9573d6000803e3d6000fd5b505050506040513d6000823e3d601f19601f82011682018060405250810190610ee29190613bc3565b519050919050565b6000610ef4611b8f565b60006002811115610f0857610f076121e7565b5b610f10611c51565b73ffffffffffffffffffffffffffffffffffffffff1663dd8b2914336040518263ffffffff1660e01b8152600401610f489190613977565b602060405180830381865afa158015610f65573d6000803e3d6000fd5b505050506040513d601f19601f82011682018060405250810190610f8991906139b7565b6002811115610f9b57610f9a6121e7565b5b14610fdb576040517f08c379a0000000000000000000000000000000000000000000000000000000008152600401610fd290613a41565b60405180910390fd5b6000610fe5611c51565b73ffffffffffffffffffffffffffffffffffffffff1663e3d7e14c336040518263ffffffff1660e01b815260040161101d9190613977565b602060405180830381865afa15801561103a573d6000803e3d6000fd5b505050506040513d601f19601f8201168201806040525081019061105e9190613a61565b9050611068611db4565b73ffffffffffffffffffffffffffffffffffffffff166323ff178582856040518363ffffffff1660e01b81526004016110a2929190613ad7565b602060405180830381865afa1580156110bf573d6000803e3d6000fd5b505050506040513d601f19601f820116820180604052508101906110e39190613fb2565b915050919050565b60606110f5611b8f565b60016002811115611109576111086121e7565b5b611111611c51565b73ffffffffffffffffffffffffffffffffffffffff1663dd8b2914336040518263ffffffff1660e01b81526004016111499190613977565b602060405180830381865afa158015611166573d6000803e3d6000fd5b505050506040513d601f19601f8201168201806040525081019061118a91906139b7565b600281111561119c5761119b6121e7565b5b146111dc576040517f08c379a00000000000000000000000000000000000000000000000000000000081526004016111d39061402b565b60405180910390fd5b60006111e6611c51565b73ffffffffffffffffffffffffffffffffffffffff1663e3d7e14c336040518263ffffffff1660e01b815260040161121e9190613977565b602060405180830381865afa15801561123b573d6000803e3d6000fd5b505050506040513d601f19601f8201168201806040525081019061125f9190613a61565b9050611273818461126e611aec565b611e57565b600061127d611aec565b73ffffffffffffffffffffffffffffffffffffffff16636f4f5878856040518263ffffffff1660e01b81526004016112b59190612ed4565b600060405180830381865afa1580156112d2573d6000803e3d6000fd5b505050506040513d6000823e3d601f19601f820116820180604052508101906112fb9190613bc3565b9050611305611c51565b73ffffffffffffffffffffffffffffffffffffffff1663b29d96f2826040518263ffffffff1660e01b815260040161133d9190613c7b565b600060405180830381865afa15801561135a573d6000803e3d6000fd5b505050506040513d6000823e3d601f19601f8201168201806040525081019061138391906143ab565b92505050919050565b6060611396611db4565b73ffffffffffffffffffffffffffffffffffffffff1663a5478d4f836040518263ffffffff1660e01b81526004016113ce9190612ed4565b600060405180830381865afa1580156113eb573d6000803e3d6000fd5b505050506040513d6000823e3d601f19601f820116820180604052508101906114149190613f69565b9050919050565b611423611fd1565b61142b611db4565b73ffffffffffffffffffffffffffffffffffffffff1663b8e51787836040518263ffffffff1660e01b81526004016114639190612ed4565b600060405180830381865afa158015611480573d6000803e3d6000fd5b505050506040513d6000823e3d601f19601f820116820180604052508101906114a991906143f4565b9050919050565b60606114ba611aec565b73ffffffffffffffffffffffffffffffffffffffff1663bef7a5716040518163ffffffff1660e01b8152600401600060405180830381865afa158015611504573d6000803e3d6000fd5b505050506040513d6000823e3d601f19601f8201168201806040525081019061152d919061443d565b905090565b606061153c611b8f565b600160028111156115505761154f6121e7565b5b611558611c51565b73ffffffffffffffffffffffffffffffffffffffff1663dd8b2914336040518263ffffffff1660e01b81526004016115909190613977565b602060405180830381865afa1580156115ad573d6000803e3d6000fd5b505050506040513d601f19601f820116820180604052508101906115d191906139b7565b60028111156115e3576115e26121e7565b5b14611623576040517f08c379a000000000000000000000000000000000000000000000000000000000815260040161161a9061402b565b60405180910390fd5b600061162d611c51565b73ffffffffffffffffffffffffffffffffffffffff1663e3d7e14c336040518263ffffffff1660e01b81526004016116659190613977565b602060405180830381865afa158015611682573d6000803e3d6000fd5b505050506040513d601f19601f820116820180604052508101906116a69190613a61565b90506116b0611aec565b73ffffffffffffffffffffffffffffffffffffffff16635268561f826040518263ffffffff1660e01b81526004016116e89190612ed4565b600060405180830381865afa158015611705573d6000803e3d6000fd5b505050506040513d6000823e3d601f19601f8201168201806040525081019061172e91906138ed565b91505090565b606061173e611b8f565b60016002811115611752576117516121e7565b5b61175a611c51565b73ffffffffffffffffffffffffffffffffffffffff1663dd8b2914336040518263ffffffff1660e01b81526004016117929190613977565b602060405180830381865afa1580156117af573d6000803e3d6000fd5b505050506040513d601f19601f820116820180604052508101906117d391906139b7565b60028111156117e5576117e46121e7565b5b14611825576040517f08c379a000000000000000000000000000000000000000000000000000000000815260040161181c9061402b565b60405180910390fd5b600061182f611c51565b73ffffffffffffffffffffffffffffffffffffffff1663e3d7e14c336040518263ffffffff1660e01b81526004016118679190613977565b602060405180830381865afa158015611884573d6000803e3d6000fd5b505050506040513d601f19601f820116820180604052508101906118a89190613a61565b90506118bc81856118b7611aec565b611e57565b6118c4611db4565b73ffffffffffffffffffffffffffffffffffffffff16634d9383a46118e7611db4565b73ffffffffffffffffffffffffffffffffffffffff16633b4f950087876040518363ffffffff1660e01b8152600401611921929190613ad7565b600060405180830381865afa15801561193e573d6000803e3d6000fd5b505050506040513d6000823e3d601f19601f820116820180604052508101906119679190613bc3565b6040518263ffffffff1660e01b81526004016119839190613c7b565b600060405180830381865afa1580156119a0573d6000803e3d6000fd5b505050506040513d6000823e3d601f19601f820116820180604052508101906119c99190613f69565b91505092915050565b606060006119de611aec565b73ffffffffffffffffffffffffffffffffffffffff1663bd9c1b50846040518263ffffffff1660e01b8152600401611a169190612ed4565b600060405180830381865afa158015611a33573d6000803e3d6000fd5b505050506040513d6000823e3d601f19601f82011682018060405250810190611a5c9190613bc3565b9050611a66611c51565b73ffffffffffffffffffffffffffffffffffffffff1663b29d96f2826040518263ffffffff1660e01b8152600401611a9e9190613c7b565b600060405180830381865afa158015611abb573d6000803e3d6000fd5b505050506040513d6000823e3d601f19601f82011682018060405250810190611ae491906143ab565b915050919050565b60008060009054906101000a900473ffffffffffffffffffffffffffffffffffffffff1673ffffffffffffffffffffffffffffffffffffffff1663bcaa0c5560006040518263ffffffff1660e01b8152600401611b4991906144ce565b602060405180830381865afa158015611b66573d6000803e3d6000fd5b505050506040513d601f19601f82011682018060405250810190611b8a9190614515565b905090565b611b97611c51565b73ffffffffffffffffffffffffffffffffffffffff166338b6a3a1336040518263ffffffff1660e01b8152600401611bcf9190613977565b602060405180830381865afa158015611bec573d6000803e3d6000fd5b505050506040513d601f19601f82011682018060405250810190611c109190613fb2565b611c4f576040517f08c379a0000000000000000000000000000000000000000000000000000000008152600401611c469061458e565b60405180910390fd5b565b60008060009054906101000a900473ffffffffffffffffffffffffffffffffffffffff1673ffffffffffffffffffffffffffffffffffffffff1663bcaa0c5560026040518263ffffffff1660e01b8152600401611cae91906144ce565b602060405180830381865afa158015611ccb573d6000803e3d6000fd5b505050506040513d601f19601f82011682018060405250810190611cef9190614515565b905090565b8073ffffffffffffffffffffffffffffffffffffffff16633932708b84846040518363ffffffff1660e01b8152600401611d2f929190613ad7565b602060405180830381865afa158015611d4c573d6000803e3d6000fd5b505050506040513d601f19601f82011682018060405250810190611d709190613fb2565b611daf576040517f08c379a0000000000000000000000000000000000000000000000000000000008152600401611da690614620565b60405180910390fd5b505050565b60008060009054906101000a900473ffffffffffffffffffffffffffffffffffffffff1673ffffffffffffffffffffffffffffffffffffffff1663bcaa0c5560016040518263ffffffff1660e01b8152600401611e1191906144ce565b602060405180830381865afa158015611e2e573d6000803e3d6000fd5b505050506040513d601f19601f82011682018060405250810190611e529190614515565b905090565b611edf838273ffffffffffffffffffffffffffffffffffffffff1663bd9c1b50856040518263ffffffff1660e01b8152600401611e949190612ed4565b600060405180830381865afa158015611eb1573d6000803e3d6000fd5b505050506040513d6000823e3d601f19601f82011682018060405250810190611eda9190613bc3565b611f23565b611f1e576040517f08c379a0000000000000000000000000000000000000000000000000000000008152600401611f15906146b2565b60405180910390fd5b505050565b600080611f308484611f3a565b1215905092915050565b600080600090505b8251811015611f865783838281518110611f5f57611f5e6146d2565b5b602002602001015103611f755780915050611fab565b80611f7f90614730565b9050611f42565b507fffffffffffffffffffffffffffffffffffffffffffffffffffffffffffffffff90505b92915050565b604051806040016040528060008152602001611fcb611ff1565b81525090565b604051806040016040528060008152602001611feb61207f565b81525090565b604051806101e0016040528060608152602001606081526020016000600381111561201f5761201e6121e7565b5b815260200161202c6120e6565b815260200160608152602001606081526020016060815260200160008152602001600081526020016000815260200160008152602001600081526020016060815260200160608152602001606081525090565b604051806101400160405280606081526020016000815260200160608152602001600060018111156120b4576120b36121e7565b5b815260200160008152602001600081526020016000151581526020016000815260200160008152602001600081525090565b6040518060400160405280600081526020016000600181111561210c5761210b6121e7565b5b81525090565b600081519050919050565b600082825260208201905092915050565b6000819050602082019050919050565b6000819050919050565b6121518161213e565b82525050565b600081519050919050565b600082825260208201905092915050565b60005b83811015612191578082015181840152602081019050612176565b60008484015250505050565b6000601f19601f8301169050919050565b60006121b982612157565b6121c38185612162565b93506121d3818560208601612173565b6121dc8161219d565b840191505092915050565b7f4e487b7100000000000000000000000000000000000000000000000000000000600052602160045260246000fd5b60048110612227576122266121e7565b5b50565b600081905061223882612216565b919050565b60006122488261222a565b9050919050565b6122588161223d565b82525050565b6002811061226f5761226e6121e7565b5b50565b60008190506122808261225e565b919050565b600061229082612272565b9050919050565b6122a081612285565b82525050565b6040820160008201516122bc6000850182612148565b5060208201516122cf6020850182612297565b50505050565b600081519050919050565b600082825260208201905092915050565b6000819050602082019050919050565b60006040830160008301516123196000860182612148565b506020830151848203602086015261233182826121ae565b9150508091505092915050565b600061234a8383612301565b905092915050565b6000602082019050919050565b600061236a826122d5565b61237481856122e0565b935083602082028501612386856122f1565b8060005b858110156123c257848403895281516123a3858261233e565b94506123ae83612352565b925060208a0199505060018101905061238a565b50829750879550505050505092915050565b600081519050919050565b600082825260208201905092915050565b6000819050602082019050919050565b6040820160008201516124166000850182612148565b5060208201516124296020850182612148565b50505050565b600061243b8383612400565b60408301905092915050565b6000602082019050919050565b600061245f826123d4565b61246981856123df565b9350612474836123f0565b8060005b838110156124a557815161248c888261242f565b975061249783612447565b925050600181019050612478565b5085935050505092915050565b600081519050919050565b600082825260208201905092915050565b6000819050602082019050919050565b60006124ea83836121ae565b905092915050565b6000602082019050919050565b600061250a826124b2565b61251481856124bd565b935083602082028501612526856124ce565b8060005b85811015612562578484038952815161254385826124de565b945061254e836124f2565b925060208a0199505060018101905061252a565b50829750879550505050505092915050565b600061020083016000830151848203600086015261259282826121ae565b915050602083015184820360208601526125ac82826121ae565b91505060408301516125c1604086018261224f565b5060608301516125d460608601826122a6565b50608083015184820360a08601526125ec82826121ae565b91505060a083015184820360c086015261260682826121ae565b91505060c083015184820360e086015261262082826121ae565b91505060e0830151612636610100860182612148565b5061010083015161264b610120860182612148565b50610120830151612660610140860182612148565b50610140830151612675610160860182612148565b5061016083015161268a610180860182612148565b506101808301518482036101a08601526126a4828261235f565b9150506101a08301518482036101c08601526126c08282612454565b9150506101c08301518482036101e08601526126dc82826124ff565b9150508091505092915050565b60006040830160008301516127016000860182612148565b50602083015184820360208601526127198282612574565b9150508091505092915050565b600061273283836126e9565b905092915050565b6000602082019050919050565b600061275282612112565b61275c818561211d565b93508360208202850161276e8561212e565b8060005b858110156127aa578484038952815161278b8582612726565b94506127968361273a565b925060208a01995050600181019050612772565b50829750879550505050505092915050565b600060208201905081810360008301526127d68184612747565b905092915050565b6000604051905090565b600080fd5b600080fd5b6127fb8161213e565b811461280657600080fd5b50565b600081359050612818816127f2565b92915050565b600060208284031215612834576128336127e8565b5b600061284284828501612809565b91505092915050565b60006040830160008301516128636000860182612148565b506020830151848203602086015261287b8282612574565b9150508091505092915050565b600060208201905081810360008301526128a2818461284b565b905092915050565b600081519050919050565b600082825260208201905092915050565b6000819050602082019050919050565b600281106128e7576128e66121e7565b5b50565b60008190506128f8826128d6565b919050565b6000612908826128ea565b9050919050565b612918816128fd565b82525050565b60008115159050919050565b6129338161291e565b82525050565b600061014083016000830151848203600086015261295782826121ae565b915050602083015161296c6020860182612148565b506040830151848203604086015261298482826121ae565b9150506060830151612999606086018261290f565b5060808301516129ac6080860182612148565b5060a08301516129bf60a0860182612148565b5060c08301516129d260c086018261292a565b5060e08301516129e560e0860182612148565b506101008301516129fa610100860182612148565b50610120830151612a0f610120860182612148565b508091505092915050565b6000604083016000830151612a326000860182612148565b5060208301518482036020860152612a4a8282612939565b9150508091505092915050565b6000612a638383612a1a565b905092915050565b6000602082019050919050565b6000612a83826128aa565b612a8d81856128b5565b935083602082028501612a9f856128c6565b8060005b85811015612adb5784840389528151612abc8582612a57565b9450612ac783612a6b565b925060208a01995050600181019050612aa3565b50829750879550505050505092915050565b60006020820190508181036000830152612b078184612a78565b905092915050565b612b188161291e565b82525050565b6000602082019050612b336000830184612b0f565b92915050565b600081519050919050565b600082825260208201905092915050565b6000819050602082019050919050565b60038110612b7657612b756121e7565b5b50565b6000819050612b8782612b65565b919050565b6000612b9782612b79565b9050919050565b612ba781612b8c565b82525050565b606082016000820151612bc36000850182612148565b506020820151612bd66020850182612148565b506040820151612be96040850182612148565b50505050565b60038110612c0057612bff6121e7565b5b50565b6000819050612c1182612bef565b919050565b6000612c2182612c03565b9050919050565b612c3181612c16565b82525050565b600081519050919050565b600082825260208201905092915050565b6000819050602082019050919050565b6000612c6f8383612148565b60208301905092915050565b6000602082019050919050565b6000612c9382612c37565b612c9d8185612c42565b9350612ca883612c53565b8060005b83811015612cd9578151612cc08882612c63565b9750612ccb83612c7b565b925050600181019050612cac565b5085935050505092915050565b6000610160830160008301518482036000860152612d0482826121ae565b91505060208301518482036020860152612d1e82826121ae565b9150506040830151612d336040860182612b9e565b506060830151612d466060860182612bad565b50608083015184820360c0860152612d5e82826121ae565b91505060a083015184820360e0860152612d7882826121ae565b91505060c0830151848203610100860152612d9382826121ae565b91505060e0830151612da9610120860182612c28565b50610100830151848203610140860152612dc38282612c88565b9150508091505092915050565b6000604083016000830151612de86000860182612148565b5060208301518482036020860152612e008282612ce6565b9150508091505092915050565b6000612e198383612dd0565b905092915050565b6000602082019050919050565b6000612e3982612b39565b612e438185612b44565b935083602082028501612e5585612b55565b8060005b85811015612e915784840389528151612e728582612e0d565b9450612e7d83612e21565b925060208a01995050600181019050612e59565b50829750879550505050505092915050565b60006020820190508181036000830152612ebd8184612e2e565b905092915050565b612ece8161213e565b82525050565b6000602082019050612ee96000830184612ec5565b92915050565b6000604083016000830151612f076000860182612148565b5060208301518482036020860152612f1f8282612939565b9150508091505092915050565b60006020820190508181036000830152612f468184612eef565b905092915050565b600082825260208201905092915050565b6000612f6a826124b2565b612f748185612f4e565b935083602082028501612f86856124ce565b8060005b85811015612fc25784840389528151612fa385826124de565b9450612fae836124f2565b925060208a01995050600181019050612f8a565b50829750879550505050505092915050565b60006020820190508181036000830152612fee8184612f5f565b905092915050565b6000806040838503121561300d5761300c6127e8565b5b600061301b85828601612809565b925050602061302c85828601612809565b9150509250929050565b600080fd5b7f4e487b7100000000000000000000000000000000000000000000000000000000600052604160045260246000fd5b6130738261219d565b810181811067ffffffffffffffff821117156130925761309161303b565b5b80604052505050565b60006130a56127de565b90506130b1828261306a565b919050565b600067ffffffffffffffff8211156130d1576130d061303b565b5b602082029050602081019050919050565b600080fd5b600080fd5b600080fd5b600081519050613100816127f2565b92915050565b600080fd5b600067ffffffffffffffff8211156131265761312561303b565b5b61312f8261219d565b9050602081019050919050565b600061314f61314a8461310b565b61309b565b90508281526020810184848401111561316b5761316a613106565b5b613176848285612173565b509392505050565b600082601f83011261319357613192613036565b5b81516131a384826020860161313c565b91505092915050565b600481106131b957600080fd5b50565b6000815190506131cb816131ac565b92915050565b600281106131de57600080fd5b50565b6000815190506131f0816131d1565b92915050565b60006040828403121561320c5761320b6130e7565b5b613216604061309b565b90506000613226848285016130f1565b600083015250602061323a848285016131e1565b60208301525092915050565b600067ffffffffffffffff8211156132615761326061303b565b5b602082029050602081019050919050565b600060408284031215613288576132876130e7565b5b613292604061309b565b905060006132a2848285016130f1565b600083015250602082015167ffffffffffffffff8111156132c6576132c56130ec565b5b6132d28482850161317e565b60208301525092915050565b60006132f16132ec84613246565b61309b565b90508083825260208201905060208402830185811115613314576133136130e2565b5b835b8181101561335b57805167ffffffffffffffff81111561333957613338613036565b5b8086016133468982613272565b85526020850194505050602081019050613316565b5050509392505050565b600082601f83011261337a57613379613036565b5b815161338a8482602086016132de565b91505092915050565b600067ffffffffffffffff8211156133ae576133ad61303b565b5b602082029050602081019050919050565b6000604082840312156133d5576133d46130e7565b5b6133df604061309b565b905060006133ef848285016130f1565b6000830152506020613403848285016130f1565b60208301525092915050565b600061342261341d84613393565b61309b565b90508083825260208201905060408402830185811115613445576134446130e2565b5b835b8181101561346e578061345a88826133bf565b845260208401935050604081019050613447565b5050509392505050565b600082601f83011261348d5761348c613036565b5b815161349d84826020860161340f565b91505092915050565b600067ffffffffffffffff8211156134c1576134c061303b565b5b602082029050602081019050919050565b60006134e56134e0846134a6565b61309b565b90508083825260208201905060208402830185811115613508576135076130e2565b5b835b8181101561354f57805167ffffffffffffffff81111561352d5761352c613036565b5b80860161353a898261317e565b8552602085019450505060208101905061350a565b5050509392505050565b600082601f83011261356e5761356d613036565b5b815161357e8482602086016134d2565b91505092915050565b6000610200828403121561359e5761359d6130e7565b5b6135a96101e061309b565b9050600082015167ffffffffffffffff8111156135c9576135c86130ec565b5b6135d58482850161317e565b600083015250602082015167ffffffffffffffff8111156135f9576135f86130ec565b5b6136058482850161317e565b6020830152506040613619848285016131bc565b604083015250606061362d848285016131f6565b60608301525060a082015167ffffffffffffffff811115613651576136506130ec565b5b61365d8482850161317e565b60808301525060c082015167ffffffffffffffff811115613681576136806130ec565b5b61368d8482850161317e565b60a08301525060e082015167ffffffffffffffff8111156136b1576136b06130ec565b5b6136bd8482850161317e565b60c0830152506101006136d2848285016130f1565b60e0830152506101206136e7848285016130f1565b610100830152506101406136fd848285016130f1565b61012083015250610160613713848285016130f1565b61014083015250610180613729848285016130f1565b610160830152506101a082015167ffffffffffffffff81111561374f5761374e6130ec565b5b61375b84828501613365565b610180830152506101c082015167ffffffffffffffff811115613781576137806130ec565b5b61378d84828501613478565b6101a0830152506101e082015167ffffffffffffffff8111156137b3576137b26130ec565b5b6137bf84828501613559565b6101c08301525092915050565b6000604082840312156137e2576137e16130e7565b5b6137ec604061309b565b905060006137fc848285016130f1565b600083015250602082015167ffffffffffffffff8111156138205761381f6130ec565b5b61382c84828501613587565b60208301525092915050565b600061384b613846846130b6565b61309b565b9050808382526020820190506020840283018581111561386e5761386d6130e2565b5b835b818110156138b557805167ffffffffffffffff81111561389357613892613036565b5b8086016138a089826137cc565b85526020850194505050602081019050613870565b5050509392505050565b600082601f8301126138d4576138d3613036565b5b81516138e4848260208601613838565b91505092915050565b600060208284031215613903576139026127e8565b5b600082015167ffffffffffffffff811115613921576139206127ed565b5b61392d848285016138bf565b91505092915050565b600073ffffffffffffffffffffffffffffffffffffffff82169050919050565b600061396182613936565b9050919050565b61397181613956565b82525050565b600060208201905061398c6000830184613968565b92915050565b6003811061399f57600080fd5b50565b6000815190506139b181613992565b92915050565b6000602082840312156139cd576139cc6127e8565b5b60006139db848285016139a2565b91505092915050565b600082825260208201905092915050565b7f53656e646572206d75737420626520612073747564656e740000000000000000600082015250565b6000613a2b6018836139e4565b9150613a36826139f5565b602082019050919050565b60006020820190508181036000830152613a5a81613a1e565b9050919050565b600060208284031215613a7757613a766127e8565b5b6000613a85848285016130f1565b91505092915050565b600060208284031215613aa457613aa36127e8565b5b600082015167ffffffffffffffff811115613ac257613ac16127ed565b5b613ace848285016137cc565b91505092915050565b6000604082019050613aec6000830185612ec5565b613af96020830184612ec5565b9392505050565b600067ffffffffffffffff821115613b1b57613b1a61303b565b5b602082029050602081019050919050565b6000613b3f613b3a84613b00565b61309b565b90508083825260208201905060208402830185811115613b6257613b616130e2565b5b835b81811015613b8b5780613b7788826130f1565b845260208401935050602081019050613b64565b5050509392505050565b600082601f830112613baa57613ba9613036565b5b8151613bba848260208601613b2c565b91505092915050565b600060208284031215613bd957613bd86127e8565b5b600082015167ffffffffffffffff811115613bf757613bf66127ed565b5b613c0384828501613b95565b91505092915050565b600082825260208201905092915050565b6000613c2882612c37565b613c328185613c0c565b9350613c3d83612c53565b8060005b83811015613c6e578151613c558882612c63565b9750613c6083612c7b565b925050600181019050613c41565b5085935050505092915050565b60006020820190508181036000830152613c958184613c1d565b905092915050565b600067ffffffffffffffff821115613cb857613cb761303b565b5b602082029050602081019050919050565b60028110613cd657600080fd5b50565b600081519050613ce881613cc9565b92915050565b613cf78161291e565b8114613d0257600080fd5b50565b600081519050613d1481613cee565b92915050565b60006101408284031215613d3157613d306130e7565b5b613d3c61014061309b565b9050600082015167ffffffffffffffff811115613d5c57613d5b6130ec565b5b613d688482850161317e565b6000830152506020613d7c848285016130f1565b602083015250604082015167ffffffffffffffff811115613da057613d9f6130ec565b5b613dac8482850161317e565b6040830152506060613dc084828501613cd9565b6060830152506080613dd4848285016130f1565b60808301525060a0613de8848285016130f1565b60a08301525060c0613dfc84828501613d05565b60c08301525060e0613e10848285016130f1565b60e083015250610100613e25848285016130f1565b61010083015250610120613e3b848285016130f1565b6101208301525092915050565b600060408284031215613e5e57613e5d6130e7565b5b613e68604061309b565b90506000613e78848285016130f1565b600083015250602082015167ffffffffffffffff811115613e9c57613e9b6130ec565b5b613ea884828501613d1a565b60208301525092915050565b6000613ec7613ec284613c9d565b61309b565b90508083825260208201905060208402830185811115613eea57613ee96130e2565b5b835b81811015613f3157805167ffffffffffffffff811115613f0f57613f0e613036565b5b808601613f1c8982613e48565b85526020850194505050602081019050613eec565b5050509392505050565b600082601f830112613f5057613f4f613036565b5b8151613f60848260208601613eb4565b91505092915050565b600060208284031215613f7f57613f7e6127e8565b5b600082015167ffffffffffffffff811115613f9d57613f9c6127ed565b5b613fa984828501613f3b565b91505092915050565b600060208284031215613fc857613fc76127e8565b5b6000613fd684828501613d05565b91505092915050565b7f53656e646572206d7573742062652061206c6563747572657200000000000000600082015250565b60006140156019836139e4565b915061402082613fdf565b602082019050919050565b6000602082019050818103600083015261404481614008565b9050919050565b600067ffffffffffffffff8211156140665761406561303b565b5b602082029050602081019050919050565b6003811061408457600080fd5b50565b60008151905061409681614077565b92915050565b6000606082840312156140b2576140b16130e7565b5b6140bc606061309b565b905060006140cc848285016130f1565b60008301525060206140e0848285016130f1565b60208301525060406140f4848285016130f1565b60408301525092915050565b60006101608284031215614117576141166130e7565b5b61412261012061309b565b9050600082015167ffffffffffffffff811115614142576141416130ec565b5b61414e8482850161317e565b600083015250602082015167ffffffffffffffff811115614172576141716130ec565b5b61417e8482850161317e565b602083015250604061419284828501614087565b60408301525060606141a68482850161409c565b60608301525060c082015167ffffffffffffffff8111156141ca576141c96130ec565b5b6141d68482850161317e565b60808301525060e082015167ffffffffffffffff8111156141fa576141f96130ec565b5b6142068482850161317e565b60a08301525061010082015167ffffffffffffffff81111561422b5761422a6130ec565b5b6142378482850161317e565b60c08301525061012061424c848285016139a2565b60e08301525061014082015167ffffffffffffffff811115614271576142706130ec565b5b61427d84828501613b95565b6101008301525092915050565b6000604082840312156142a05761429f6130e7565b5b6142aa604061309b565b905060006142ba848285016130f1565b600083015250602082015167ffffffffffffffff8111156142de576142dd6130ec565b5b6142ea84828501614100565b60208301525092915050565b60006143096143048461404b565b61309b565b9050808382526020820190506020840283018581111561432c5761432b6130e2565b5b835b8181101561437357805167ffffffffffffffff81111561435157614350613036565b5b80860161435e898261428a565b8552602085019450505060208101905061432e565b5050509392505050565b600082601f83011261439257614391613036565b5b81516143a28482602086016142f6565b91505092915050565b6000602082840312156143c1576143c06127e8565b5b600082015167ffffffffffffffff8111156143df576143de6127ed565b5b6143eb8482850161437d565b91505092915050565b60006020828403121561440a576144096127e8565b5b600082015167ffffffffffffffff811115614428576144276127ed565b5b61443484828501613e48565b91505092915050565b600060208284031215614453576144526127e8565b5b600082015167ffffffffffffffff811115614471576144706127ed565b5b61447d84828501613559565b91505092915050565b60068110614497576144966121e7565b5b50565b60008190506144a882614486565b919050565b60006144b88261449a565b9050919050565b6144c8816144ad565b82525050565b60006020820190506144e360008301846144bf565b92915050565b6144f281613956565b81146144fd57600080fd5b50565b60008151905061450f816144e9565b92915050565b60006020828403121561452b5761452a6127e8565b5b600061453984828501614500565b91505092915050565b7f53656e646572206d757374206265206120726567697374657265642075736572600082015250565b60006145786020836139e4565b915061458382614542565b602082019050919050565b600060208201905081810360008301526145a78161456b565b9050919050565b7f53747564656e74206973206e6f74207265676973746572656420746f2074686560008201527f20636f7572736500000000000000000000000000000000000000000000000000602082015250565b600061460a6027836139e4565b9150614615826145ae565b604082019050919050565b60006020820190508181036000830152614639816145fd565b9050919050565b7f4c65637475726572206973206e6f74206c6563747572696e672061742074686960008201527f7320636f75727365000000000000000000000000000000000000000000000000602082015250565b600061469c6028836139e4565b91506146a782614640565b604082019050919050565b600060208201905081810360008301526146cb8161468f565b9050919050565b7f4e487b7100000000000000000000000000000000000000000000000000000000600052603260045260246000fd5b7f4e487b7100000000000000000000000000000000000000000000000000000000600052601160045260246000fd5b600061473b8261213e565b91507fffffffffffffffffffffffffffffffffffffffffffffffffffffffffffffffff820361476d5761476c614701565b5b60018201905091905056fea264697066735822122035de4b6f93d1c6083d2276278b68f858aa7c1071b3f7d21ae4867c2550cb7d5b64736f6c63430008110033",
  "linkReferences": {},
  "deployedLinkReferences": {}
}