{
  "_format": "hh-sol-artifact-1",
  "contractName": "PerformanceDataManager",
  "sourceName": "contracts/data/datamanager/PerformanceDataManager.sol",
  "abi": [
    {
      "inputs": [
        {
          "internalType": "address",
          "name": "performanceStorageAddress",
          "type": "address"
        },
        {
          "internalType": "address",
          "name": "gradeStorageAddress",
          "type": "address"
        },
        {
          "internalType": "address",
          "name": "accessWhitelistAddress",
          "type": "address"
        }
      ],
      "stateMutability": "nonpayable",
      "type": "constructor"
    },
    {
      "inputs": [
        {
          "internalType": "uint256",
          "name": "uId",
          "type": "uint256"
        },
        {
          "internalType": "uint256",
          "name": "assessmentId",
          "type": "uint256"
        }
      ],
      "name": "getAchievedPoints",
      "outputs": [
        {
          "internalType": "uint256",
          "name": "",
          "type": "uint256"
        }
      ],
      "stateMutability": "view",
      "type": "function"
    },
    {
      "inputs": [
        {
          "internalType": "uint256",
          "name": "uId",
          "type": "uint256"
        },
        {
          "internalType": "uint256",
          "name": "assessmentId",
          "type": "uint256"
        }
      ],
      "name": "getAttendanceValue",
      "outputs": [
        {
          "internalType": "bool",
          "name": "",
          "type": "bool"
        }
      ],
      "stateMutability": "view",
      "type": "function"
    },
    {
      "inputs": [
        {
          "internalType": "uint256",
          "name": "uId",
          "type": "uint256"
        },
        {
          "internalType": "uint256",
          "name": "assessmentId",
          "type": "uint256"
        }
      ],
      "name": "getEvaluation",
      "outputs": [
        {
          "components": [
            {
              "internalType": "bool",
              "name": "isSet",
              "type": "bool"
            },
            {
              "internalType": "uint256",
              "name": "datetime",
              "type": "uint256"
            },
            {
              "internalType": "uint256",
              "name": "achievedPoints",
              "type": "uint256"
            },
            {
              "internalType": "string",
              "name": "feedback",
              "type": "string"
            },
            {
              "internalType": "uint256",
              "name": "lecturerUId",
              "type": "uint256"
            }
          ],
          "internalType": "struct PerformanceDataTypes.Evaluation",
          "name": "",
          "type": "tuple"
        }
      ],
      "stateMutability": "view",
      "type": "function"
    },
    {
      "inputs": [
        {
          "internalType": "uint256",
          "name": "uId",
          "type": "uint256"
        },
        {
          "internalType": "uint256",
          "name": "assessmentId",
          "type": "uint256"
        }
      ],
      "name": "getEvaluatorUId",
      "outputs": [
        {
          "internalType": "uint256",
          "name": "",
          "type": "uint256"
        }
      ],
      "stateMutability": "view",
      "type": "function"
    },
    {
      "inputs": [
        {
          "internalType": "uint256",
          "name": "uId",
          "type": "uint256"
        },
        {
          "internalType": "uint256",
          "name": "assessmentId",
          "type": "uint256"
        }
      ],
      "name": "getExamAttendance",
      "outputs": [
        {
          "components": [
            {
              "internalType": "bool",
              "name": "isSet",
              "type": "bool"
            },
            {
              "internalType": "bool",
              "name": "hasAttended",
              "type": "bool"
            },
            {
              "internalType": "uint256",
              "name": "confirmationDateTime",
              "type": "uint256"
            }
          ],
          "internalType": "struct PerformanceDataTypes.ExamAttendance",
          "name": "",
          "type": "tuple"
        }
      ],
      "stateMutability": "view",
      "type": "function"
    },
    {
      "inputs": [
        {
          "internalType": "uint256",
          "name": "uId",
          "type": "uint256"
        },
        {
          "internalType": "uint256",
          "name": "courseId",
          "type": "uint256"
        }
      ],
      "name": "getGrade",
      "outputs": [
        {
          "components": [
            {
              "internalType": "bool",
              "name": "isSet",
              "type": "bool"
            },
            {
              "internalType": "uint256",
              "name": "value",
              "type": "uint256"
            },
            {
              "internalType": "string",
              "name": "feedback",
              "type": "string"
            },
            {
              "internalType": "uint256",
              "name": "datetime",
              "type": "uint256"
            },
            {
              "internalType": "uint256",
              "name": "lecturerUId",
              "type": "uint256"
            },
            {
              "internalType": "bool",
              "name": "isAutomatic",
              "type": "bool"
            }
          ],
          "internalType": "struct PerformanceDataTypes.Grade",
          "name": "",
          "type": "tuple"
        }
      ],
      "stateMutability": "view",
      "type": "function"
    },
    {
      "inputs": [
        {
          "internalType": "uint256",
          "name": "uId",
          "type": "uint256"
        },
        {
          "internalType": "uint256",
          "name": "courseId",
          "type": "uint256"
        }
      ],
      "name": "getGraderUId",
      "outputs": [
        {
          "internalType": "uint256",
          "name": "",
          "type": "uint256"
        }
      ],
      "stateMutability": "view",
      "type": "function"
    },
    {
      "inputs": [
        {
          "internalType": "uint256",
          "name": "uId",
          "type": "uint256"
        },
        {
          "internalType": "uint256",
          "name": "assessmentId",
          "type": "uint256"
        }
      ],
      "name": "getSubmission",
      "outputs": [
        {
          "components": [
            {
              "internalType": "bool",
              "name": "isSet",
              "type": "bool"
            },
            {
              "internalType": "uint256",
              "name": "submissionDatetime",
              "type": "uint256"
            },
            {
              "internalType": "string[]",
              "name": "documentHashes",
              "type": "string[]"
            }
          ],
          "internalType": "struct PerformanceDataTypes.Submission",
          "name": "",
          "type": "tuple"
        }
      ],
      "stateMutability": "view",
      "type": "function"
    },
    {
      "inputs": [
        {
          "internalType": "uint256",
          "name": "uId",
          "type": "uint256"
        },
        {
          "internalType": "uint256",
          "name": "assessmentId",
          "type": "uint256"
        }
      ],
      "name": "getSubmissionDeadline",
      "outputs": [
        {
          "internalType": "uint256",
          "name": "",
          "type": "uint256"
        }
      ],
      "stateMutability": "view",
      "type": "function"
    },
    {
      "inputs": [
        {
          "internalType": "uint256",
          "name": "uId",
          "type": "uint256"
        },
        {
          "internalType": "uint256",
          "name": "assessmentId",
          "type": "uint256"
        }
      ],
      "name": "isAttendanceSet",
      "outputs": [
        {
          "internalType": "bool",
          "name": "",
          "type": "bool"
        }
      ],
      "stateMutability": "view",
      "type": "function"
    },
    {
      "inputs": [
        {
          "internalType": "uint256",
          "name": "uId",
          "type": "uint256"
        },
        {
          "internalType": "uint256",
          "name": "assessmentId",
          "type": "uint256"
        }
      ],
      "name": "isEvaluationSet",
      "outputs": [
        {
          "internalType": "bool",
          "name": "",
          "type": "bool"
        }
      ],
      "stateMutability": "view",
      "type": "function"
    },
    {
      "inputs": [
        {
          "internalType": "uint256",
          "name": "uId",
          "type": "uint256"
        },
        {
          "internalType": "uint256",
          "name": "courseId",
          "type": "uint256"
        }
      ],
      "name": "isFinalGradeSet",
      "outputs": [
        {
          "internalType": "bool",
          "name": "",
          "type": "bool"
        }
      ],
      "stateMutability": "view",
      "type": "function"
    },
    {
      "inputs": [
        {
          "internalType": "uint256",
          "name": "uId",
          "type": "uint256"
        },
        {
          "internalType": "uint256",
          "name": "courseId",
          "type": "uint256"
        }
      ],
      "name": "isGradeSet",
      "outputs": [
        {
          "internalType": "bool",
          "name": "",
          "type": "bool"
        }
      ],
      "stateMutability": "view",
      "type": "function"
    },
    {
      "inputs": [
        {
          "internalType": "uint256",
          "name": "uId",
          "type": "uint256"
        },
        {
          "internalType": "uint256",
          "name": "assessmentId",
          "type": "uint256"
        }
      ],
      "name": "isSubmissionSet",
      "outputs": [
        {
          "internalType": "bool",
          "name": "",
          "type": "bool"
        }
      ],
      "stateMutability": "view",
      "type": "function"
    },
    {
      "inputs": [
        {
          "internalType": "uint256",
          "name": "uId",
          "type": "uint256"
        },
        {
          "internalType": "uint256",
          "name": "assessmentId",
          "type": "uint256"
        },
        {
          "internalType": "uint256",
          "name": "timestamp",
          "type": "uint256"
        },
        {
          "internalType": "uint256",
          "name": "achievedPoints",
          "type": "uint256"
        },
        {
          "internalType": "string",
          "name": "feedback",
          "type": "string"
        },
        {
          "internalType": "uint256",
          "name": "lecturerUId",
          "type": "uint256"
        }
      ],
      "name": "setEvaluation",
      "outputs": [],
      "stateMutability": "nonpayable",
      "type": "function"
    },
    {
      "inputs": [
        {
          "internalType": "uint256",
          "name": "uId",
          "type": "uint256"
        },
        {
          "internalType": "uint256",
          "name": "assessmentId",
          "type": "uint256"
        },
        {
          "internalType": "bool",
          "name": "hasAttended",
          "type": "bool"
        },
        {
          "internalType": "uint256",
          "name": "timestamp",
          "type": "uint256"
        }
      ],
      "name": "setExamAttendance",
      "outputs": [],
      "stateMutability": "nonpayable",
      "type": "function"
    },
    {
      "inputs": [
        {
          "internalType": "uint256",
          "name": "uId",
          "type": "uint256"
        },
        {
          "internalType": "uint256",
          "name": "assessmentId",
          "type": "uint256"
        },
        {
          "internalType": "uint256",
          "name": "timestamp",
          "type": "uint256"
        },
        {
          "internalType": "uint256",
          "name": "achievedPoints",
          "type": "uint256"
        },
        {
          "internalType": "string",
          "name": "feedback",
          "type": "string"
        },
        {
          "internalType": "uint256",
          "name": "lecturerUId",
          "type": "uint256"
        }
      ],
      "name": "setOrOverrideEvaluation",
      "outputs": [],
      "stateMutability": "nonpayable",
      "type": "function"
    },
    {
      "inputs": [
        {
          "internalType": "uint256",
          "name": "uId",
          "type": "uint256"
        },
        {
          "internalType": "uint256",
          "name": "courseId",
          "type": "uint256"
        },
        {
          "internalType": "uint256",
          "name": "timestamp",
          "type": "uint256"
        },
        {
          "internalType": "uint256",
          "name": "grade",
          "type": "uint256"
        },
        {
          "internalType": "string",
          "name": "feedback",
          "type": "string"
        },
        {
          "internalType": "uint256",
          "name": "lecturerUId",
          "type": "uint256"
        },
        {
          "internalType": "bool",
          "name": "isAutomatic",
          "type": "bool"
        }
      ],
      "name": "setOrOverrideGrade",
      "outputs": [],
      "stateMutability": "nonpayable",
      "type": "function"
    },
    {
      "inputs": [
        {
          "internalType": "uint256",
          "name": "uId",
          "type": "uint256"
        },
        {
          "internalType": "uint256",
          "name": "assessmentId",
          "type": "uint256"
        },
        {
          "internalType": "uint256",
          "name": "timestamp",
          "type": "uint256"
        },
        {
          "internalType": "string[]",
          "name": "documentHashes",
          "type": "string[]"
        }
      ],
      "name": "setOrOverrideSubmission",
      "outputs": [],
      "stateMutability": "nonpayable",
      "type": "function"
    }
  ],
  "bytecode": "0x60806040523480156200001157600080fd5b5060405162003da538038062003da583398181016040528101906200003791906200016e565b80806000806101000a81548173ffffffffffffffffffffffffffffffffffffffff021916908373ffffffffffffffffffffffffffffffffffffffff1602179055505082600160006101000a81548173ffffffffffffffffffffffffffffffffffffffff021916908373ffffffffffffffffffffffffffffffffffffffff16021790555081600260006101000a81548173ffffffffffffffffffffffffffffffffffffffff021916908373ffffffffffffffffffffffffffffffffffffffff160217905550505050620001ca565b600080fd5b600073ffffffffffffffffffffffffffffffffffffffff82169050919050565b6000620001368262000109565b9050919050565b620001488162000129565b81146200015457600080fd5b50565b60008151905062000168816200013d565b92915050565b6000806000606084860312156200018a576200018962000104565b5b60006200019a8682870162000157565b9350506020620001ad8682870162000157565b9250506040620001c08682870162000157565b9150509250925092565b613bcb80620001da6000396000f3fe608060405234801561001057600080fd5b50600436106101215760003560e01c80635e4a7392116100ad578063b54c676a11610071578063b54c676a14610362578063b7ed707114610392578063cfca6e97146103c2578063d2ceb788146103f2578063fdd3f0361461042257610121565b80635e4a739214610286578063683391e4146102b657806379fbc85e146102e65780637c56af0114610302578063829e90d51461033257610121565b806323f618ee116100f457806323f618ee146101d257806325bcbe80146101ee5780632e3b755e1461020a578063374a62a01461023a57806359a7dbe01461026a57610121565b8063119e794414610126578063130cd8911461014257806315fea7d5146101725780631a2a2c4a146101a2575b600080fd5b610140600480360381019061013b91906127cd565b610452565b005b61015c6004803603810190610157919061287c565b610632565b60405161016991906128d7565b60405180910390f35b61018c6004803603810190610187919061287c565b6107c0565b60405161019991906128d7565b60405180910390f35b6101bc60048036038101906101b7919061287c565b610964565b6040516101c991906128d7565b60405180910390f35b6101ec60048036038101906101e7919061291e565b610af2565b005b610208600480360381019061020391906129db565b610c81565b005b610224600480360381019061021f919061287c565b610fd3565b6040516102319190612a72565b60405180910390f35b610254600480360381019061024f919061287c565b611176565b6040516102619190612bc4565b60405180910390f35b610284600480360381019061027f9190612be6565b611302565b005b6102a0600480360381019061029b919061287c565b611597565b6040516102ad9190612d1e565b60405180910390f35b6102d060048036038101906102cb919061287c565b611723565b6040516102dd91906128d7565b60405180910390f35b61030060048036038101906102fb91906127cd565b6118ac565b005b61031c6004803603810190610317919061287c565b611b38565b6040516103299190612a72565b60405180910390f35b61034c6004803603810190610347919061287c565b611cc3565b6040516103599190612a72565b60405180910390f35b61037c6004803603810190610377919061287c565b611e4e565b60405161038991906128d7565b60405180910390f35b6103ac60048036038101906103a7919061287c565b611fd4565b6040516103b99190612e52565b60405180910390f35b6103dc60048036038101906103d7919061287c565b612160565b6040516103e991906128d7565b60405180910390f35b61040c6004803603810190610407919061287c565b6122ee565b6040516104199190612a72565b60405180910390f35b61043c6004803603810190610437919061287c565b612479565b6040516104499190612eb6565b60405180910390f35b60008054906101000a900473ffffffffffffffffffffffffffffffffffffffff1673ffffffffffffffffffffffffffffffffffffffff166313f44d10336040518263ffffffff1660e01b81526004016104ab9190612f12565b602060405180830381865afa1580156104c8573d6000803e3d6000fd5b505050506040513d601f19601f820116820180604052508101906104ec9190612f42565b61052b576040517f08c379a000000000000000000000000000000000000000000000000000000000815260040161052290612fcc565b60405180910390fd5b600160009054906101000a900473ffffffffffffffffffffffffffffffffffffffff1673ffffffffffffffffffffffffffffffffffffffff16634c37c9cf88886040518060a001604052806001151581526020018a815260200189815260200188888080601f016020809104026020016040519081016040528093929190818152602001838380828437600081840152601f19601f820116905080830192505050505050508152602001868152506040518463ffffffff1660e01b81526004016105f793929190612fec565b600060405180830381600087803b15801561061157600080fd5b505af1158015610625573d6000803e3d6000fd5b5050505050505050505050565b60008060009054906101000a900473ffffffffffffffffffffffffffffffffffffffff1673ffffffffffffffffffffffffffffffffffffffff166313f44d10336040518263ffffffff1660e01b815260040161068e9190612f12565b602060405180830381865afa1580156106ab573d6000803e3d6000fd5b505050506040513d601f19601f820116820180604052508101906106cf9190612f42565b61070e576040517f08c379a000000000000000000000000000000000000000000000000000000000815260040161070590612fcc565b60405180910390fd5b6000600260009054906101000a900473ffffffffffffffffffffffffffffffffffffffff1673ffffffffffffffffffffffffffffffffffffffff16634e86434085856040518363ffffffff1660e01b815260040161076d92919061302a565b600060405180830381865afa15801561078a573d6000803e3d6000fd5b505050506040513d6000823e3d601f19601f820116820180604052508101906107b3919061324f565b5090508091505092915050565b60008060009054906101000a900473ffffffffffffffffffffffffffffffffffffffff1673ffffffffffffffffffffffffffffffffffffffff166313f44d10336040518263ffffffff1660e01b815260040161081c9190612f12565b602060405180830381865afa158015610839573d6000803e3d6000fd5b505050506040513d601f19601f8201168201806040525081019061085d9190612f42565b61089c576040517f08c379a000000000000000000000000000000000000000000000000000000000815260040161089390612fcc565b60405180910390fd5b6108a68383610632565b6108b3576000905061095e565b600260009054906101000a900473ffffffffffffffffffffffffffffffffffffffff1673ffffffffffffffffffffffffffffffffffffffff1663374a62a084846040518363ffffffff1660e01b815260040161091092919061302a565b600060405180830381865afa15801561092d573d6000803e3d6000fd5b505050506040513d6000823e3d601f19601f8201168201806040525081019061095691906132ab565b60a001511590505b92915050565b60008060009054906101000a900473ffffffffffffffffffffffffffffffffffffffff1673ffffffffffffffffffffffffffffffffffffffff166313f44d10336040518263ffffffff1660e01b81526004016109c09190612f12565b602060405180830381865afa1580156109dd573d6000803e3d6000fd5b505050506040513d601f19601f82011682018060405250810190610a019190612f42565b610a40576040517f08c379a0000000000000000000000000000000000000000000000000000000008152600401610a3790612fcc565b60405180910390fd5b6000600160009054906101000a900473ffffffffffffffffffffffffffffffffffffffff1673ffffffffffffffffffffffffffffffffffffffff1663c51e6e4785856040518363ffffffff1660e01b8152600401610a9f92919061302a565b600060405180830381865afa158015610abc573d6000803e3d6000fd5b505050506040513d6000823e3d601f19601f82011682018060405250810190610ae59190613455565b5090508091505092915050565b60008054906101000a900473ffffffffffffffffffffffffffffffffffffffff1673ffffffffffffffffffffffffffffffffffffffff166313f44d10336040518263ffffffff1660e01b8152600401610b4b9190612f12565b602060405180830381865afa158015610b68573d6000803e3d6000fd5b505050506040513d601f19601f82011682018060405250810190610b8c9190612f42565b610bcb576040517f08c379a0000000000000000000000000000000000000000000000000000000008152600401610bc290612fcc565b60405180910390fd5b600160009054906101000a900473ffffffffffffffffffffffffffffffffffffffff1673ffffffffffffffffffffffffffffffffffffffff16637241bf62858560405180606001604052806001151581526020018715158152602001868152506040518463ffffffff1660e01b8152600401610c49939291906134b1565b600060405180830381600087803b158015610c6357600080fd5b505af1158015610c77573d6000803e3d6000fd5b5050505050505050565b60008054906101000a900473ffffffffffffffffffffffffffffffffffffffff1673ffffffffffffffffffffffffffffffffffffffff166313f44d10336040518263ffffffff1660e01b8152600401610cda9190612f12565b602060405180830381865afa158015610cf7573d6000803e3d6000fd5b505050506040513d601f19601f82011682018060405250810190610d1b9190612f42565b610d5a576040517f08c379a0000000000000000000000000000000000000000000000000000000008152600401610d5190612fcc565b60405180910390fd5b60008282905011610da0576040517f08c379a0000000000000000000000000000000000000000000000000000000008152600401610d979061355a565b60405180910390fd5b60005b82829050811015610e6557610e54838383818110610dc457610dc361357a565b5b9050602002810190610dd691906135b8565b8080601f016020809104026020016040519081016040528093929190818152602001838380828437600081840152601f19601f820116905080830192505050505050506040518060400160405280600d81526020017f446f63756d656e74206861736800000000000000000000000000000000000000815250612600565b80610e5e9061364a565b9050610da3565b5060006040518060600160405280600115158152602001858152602001848490610e8f9190613798565b8152509050610e9e8686610964565b15610f3957600160009054906101000a900473ffffffffffffffffffffffffffffffffffffffff1673ffffffffffffffffffffffffffffffffffffffff16635e5606888787846040518463ffffffff1660e01b8152600401610f02939291906137ad565b600060405180830381600087803b158015610f1c57600080fd5b505af1158015610f30573d6000803e3d6000fd5b50505050610fcb565b600160009054906101000a900473ffffffffffffffffffffffffffffffffffffffff1673ffffffffffffffffffffffffffffffffffffffff16631f0884ea8787846040518463ffffffff1660e01b8152600401610f98939291906137ad565b600060405180830381600087803b158015610fb257600080fd5b505af1158015610fc6573d6000803e3d6000fd5b505050505b505050505050565b60008060009054906101000a900473ffffffffffffffffffffffffffffffffffffffff1673ffffffffffffffffffffffffffffffffffffffff166313f44d10336040518263ffffffff1660e01b815260040161102f9190612f12565b602060405180830381865afa15801561104c573d6000803e3d6000fd5b505050506040513d601f19601f820116820180604052508101906110709190612f42565b6110af576040517f08c379a00000000000000000000000000000000000000000000000000000000081526004016110a690612fcc565b60405180910390fd5b6110b98383612160565b6110c65760009050611170565b600160009054906101000a900473ffffffffffffffffffffffffffffffffffffffff1673ffffffffffffffffffffffffffffffffffffffff16635e4a739284846040518363ffffffff1660e01b815260040161112392919061302a565b600060405180830381865afa158015611140573d6000803e3d6000fd5b505050506040513d6000823e3d601f19601f820116820180604052508101906111699190613893565b6040015190505b92915050565b61117e61266b565b60008054906101000a900473ffffffffffffffffffffffffffffffffffffffff1673ffffffffffffffffffffffffffffffffffffffff166313f44d10336040518263ffffffff1660e01b81526004016111d79190612f12565b602060405180830381865afa1580156111f4573d6000803e3d6000fd5b505050506040513d601f19601f820116820180604052508101906112189190612f42565b611257576040517f08c379a000000000000000000000000000000000000000000000000000000000815260040161124e90612fcc565b60405180910390fd5b600260009054906101000a900473ffffffffffffffffffffffffffffffffffffffff1673ffffffffffffffffffffffffffffffffffffffff1663374a62a084846040518363ffffffff1660e01b81526004016112b492919061302a565b600060405180830381865afa1580156112d1573d6000803e3d6000fd5b505050506040513d6000823e3d601f19601f820116820180604052508101906112fa91906132ab565b905092915050565b60008054906101000a900473ffffffffffffffffffffffffffffffffffffffff1673ffffffffffffffffffffffffffffffffffffffff166313f44d10336040518263ffffffff1660e01b815260040161135b9190612f12565b602060405180830381865afa158015611378573d6000803e3d6000fd5b505050506040513d601f19601f8201168201806040525081019061139c9190612f42565b6113db576040517f08c379a00000000000000000000000000000000000000000000000000000000081526004016113d290612fcc565b60405180910390fd5b60006040518060c0016040528060011515815260200187815260200186868080601f016020809104026020016040519081016040528093929190818152602001838380828437600081840152601f19601f820116905080830192505050505050508152602001888152602001848152602001831515815250905061145f8989610632565b156114fa57600260009054906101000a900473ffffffffffffffffffffffffffffffffffffffff1673ffffffffffffffffffffffffffffffffffffffff166342ad565e8a8a846040518463ffffffff1660e01b81526004016114c3939291906138dc565b600060405180830381600087803b1580156114dd57600080fd5b505af11580156114f1573d6000803e3d6000fd5b5050505061158c565b600260009054906101000a900473ffffffffffffffffffffffffffffffffffffffff1673ffffffffffffffffffffffffffffffffffffffff1663375c0c4f8a8a846040518463ffffffff1660e01b8152600401611559939291906138dc565b600060405180830381600087803b15801561157357600080fd5b505af1158015611587573d6000803e3d6000fd5b505050505b505050505050505050565b61159f6126a5565b60008054906101000a900473ffffffffffffffffffffffffffffffffffffffff1673ffffffffffffffffffffffffffffffffffffffff166313f44d10336040518263ffffffff1660e01b81526004016115f89190612f12565b602060405180830381865afa158015611615573d6000803e3d6000fd5b505050506040513d601f19601f820116820180604052508101906116399190612f42565b611678576040517f08c379a000000000000000000000000000000000000000000000000000000000815260040161166f90612fcc565b60405180910390fd5b600160009054906101000a900473ffffffffffffffffffffffffffffffffffffffff1673ffffffffffffffffffffffffffffffffffffffff16635e4a739284846040518363ffffffff1660e01b81526004016116d592919061302a565b600060405180830381865afa1580156116f2573d6000803e3d6000fd5b505050506040513d6000823e3d601f19601f8201168201806040525081019061171b9190613893565b905092915050565b60008060009054906101000a900473ffffffffffffffffffffffffffffffffffffffff1673ffffffffffffffffffffffffffffffffffffffff166313f44d10336040518263ffffffff1660e01b815260040161177f9190612f12565b602060405180830381865afa15801561179c573d6000803e3d6000fd5b505050506040513d601f19601f820116820180604052508101906117c09190612f42565b6117ff576040517f08c379a00000000000000000000000000000000000000000000000000000000081526004016117f690612fcc565b60405180910390fd5b6000600160009054906101000a900473ffffffffffffffffffffffffffffffffffffffff1673ffffffffffffffffffffffffffffffffffffffff16631359e12a85856040518363ffffffff1660e01b815260040161185e92919061302a565b608060405180830381865afa15801561187b573d6000803e3d6000fd5b505050506040513d601f19601f8201168201806040525081019061189f919061397e565b5090508091505092915050565b60008054906101000a900473ffffffffffffffffffffffffffffffffffffffff1673ffffffffffffffffffffffffffffffffffffffff166313f44d10336040518263ffffffff1660e01b81526004016119059190612f12565b602060405180830381865afa158015611922573d6000803e3d6000fd5b505050506040513d601f19601f820116820180604052508101906119469190612f42565b611985576040517f08c379a000000000000000000000000000000000000000000000000000000000815260040161197c90612fcc565b60405180910390fd5b60006040518060a0016040528060011515815260200187815260200186815260200185858080601f016020809104026020016040519081016040528093929190818152602001838380828437600081840152601f19601f820116905080830192505050505050508152602001838152509050611a018888612160565b15611a9c57600160009054906101000a900473ffffffffffffffffffffffffffffffffffffffff1673ffffffffffffffffffffffffffffffffffffffff166356038bc08989846040518463ffffffff1660e01b8152600401611a6593929190612fec565b600060405180830381600087803b158015611a7f57600080fd5b505af1158015611a93573d6000803e3d6000fd5b50505050611b2e565b600160009054906101000a900473ffffffffffffffffffffffffffffffffffffffff1673ffffffffffffffffffffffffffffffffffffffff16634c37c9cf8989846040518463ffffffff1660e01b8152600401611afb93929190612fec565b600060405180830381600087803b158015611b1557600080fd5b505af1158015611b29573d6000803e3d6000fd5b505050505b5050505050505050565b60008060009054906101000a900473ffffffffffffffffffffffffffffffffffffffff1673ffffffffffffffffffffffffffffffffffffffff166313f44d10336040518263ffffffff1660e01b8152600401611b949190612f12565b602060405180830381865afa158015611bb1573d6000803e3d6000fd5b505050506040513d601f19601f82011682018060405250810190611bd59190612f42565b611c14576040517f08c379a0000000000000000000000000000000000000000000000000000000008152600401611c0b90612fcc565b60405180910390fd5b600160009054906101000a900473ffffffffffffffffffffffffffffffffffffffff1673ffffffffffffffffffffffffffffffffffffffff1663b7ed707184846040518363ffffffff1660e01b8152600401611c7192919061302a565b600060405180830381865afa158015611c8e573d6000803e3d6000fd5b505050506040513d6000823e3d601f19601f82011682018060405250810190611cb791906139be565b60200151905092915050565b60008060009054906101000a900473ffffffffffffffffffffffffffffffffffffffff1673ffffffffffffffffffffffffffffffffffffffff166313f44d10336040518263ffffffff1660e01b8152600401611d1f9190612f12565b602060405180830381865afa158015611d3c573d6000803e3d6000fd5b505050506040513d601f19601f82011682018060405250810190611d609190612f42565b611d9f576040517f08c379a0000000000000000000000000000000000000000000000000000000008152600401611d9690612fcc565b60405180910390fd5b600160009054906101000a900473ffffffffffffffffffffffffffffffffffffffff1673ffffffffffffffffffffffffffffffffffffffff16635e4a739284846040518363ffffffff1660e01b8152600401611dfc92919061302a565b600060405180830381865afa158015611e19573d6000803e3d6000fd5b505050506040513d6000823e3d601f19601f82011682018060405250810190611e429190613893565b60800151905092915050565b60008060009054906101000a900473ffffffffffffffffffffffffffffffffffffffff1673ffffffffffffffffffffffffffffffffffffffff166313f44d10336040518263ffffffff1660e01b8152600401611eaa9190612f12565b602060405180830381865afa158015611ec7573d6000803e3d6000fd5b505050506040513d601f19601f82011682018060405250810190611eeb9190612f42565b611f2a576040517f08c379a0000000000000000000000000000000000000000000000000000000008152600401611f2190612fcc565b60405180910390fd5b600160009054906101000a900473ffffffffffffffffffffffffffffffffffffffff1673ffffffffffffffffffffffffffffffffffffffff1663fdd3f03684846040518363ffffffff1660e01b8152600401611f8792919061302a565b606060405180830381865afa158015611fa4573d6000803e3d6000fd5b505050506040513d601f19601f82011682018060405250810190611fc89190613a07565b60200151905092915050565b611fdc6126d6565b60008054906101000a900473ffffffffffffffffffffffffffffffffffffffff1673ffffffffffffffffffffffffffffffffffffffff166313f44d10336040518263ffffffff1660e01b81526004016120359190612f12565b602060405180830381865afa158015612052573d6000803e3d6000fd5b505050506040513d601f19601f820116820180604052508101906120769190612f42565b6120b5576040517f08c379a00000000000000000000000000000000000000000000000000000000081526004016120ac90612fcc565b60405180910390fd5b600160009054906101000a900473ffffffffffffffffffffffffffffffffffffffff1673ffffffffffffffffffffffffffffffffffffffff1663b7ed707184846040518363ffffffff1660e01b815260040161211292919061302a565b600060405180830381865afa15801561212f573d6000803e3d6000fd5b505050506040513d6000823e3d601f19601f8201168201806040525081019061215891906139be565b905092915050565b60008060009054906101000a900473ffffffffffffffffffffffffffffffffffffffff1673ffffffffffffffffffffffffffffffffffffffff166313f44d10336040518263ffffffff1660e01b81526004016121bc9190612f12565b602060405180830381865afa1580156121d9573d6000803e3d6000fd5b505050506040513d601f19601f820116820180604052508101906121fd9190612f42565b61223c576040517f08c379a000000000000000000000000000000000000000000000000000000000815260040161223390612fcc565b60405180910390fd5b6000600160009054906101000a900473ffffffffffffffffffffffffffffffffffffffff1673ffffffffffffffffffffffffffffffffffffffff1663caed9c6585856040518363ffffffff1660e01b815260040161229b92919061302a565b600060405180830381865afa1580156122b8573d6000803e3d6000fd5b505050506040513d6000823e3d601f19601f820116820180604052508101906122e19190613a34565b5090508091505092915050565b60008060009054906101000a900473ffffffffffffffffffffffffffffffffffffffff1673ffffffffffffffffffffffffffffffffffffffff166313f44d10336040518263ffffffff1660e01b815260040161234a9190612f12565b602060405180830381865afa158015612367573d6000803e3d6000fd5b505050506040513d601f19601f8201168201806040525081019061238b9190612f42565b6123ca576040517f08c379a00000000000000000000000000000000000000000000000000000000081526004016123c190612fcc565b60405180910390fd5b600260009054906101000a900473ffffffffffffffffffffffffffffffffffffffff1673ffffffffffffffffffffffffffffffffffffffff1663374a62a084846040518363ffffffff1660e01b815260040161242792919061302a565b600060405180830381865afa158015612444573d6000803e3d6000fd5b505050506040513d6000823e3d601f19601f8201168201806040525081019061246d91906132ab565b60800151905092915050565b6124816126f9565b60008054906101000a900473ffffffffffffffffffffffffffffffffffffffff1673ffffffffffffffffffffffffffffffffffffffff166313f44d10336040518263ffffffff1660e01b81526004016124da9190612f12565b602060405180830381865afa1580156124f7573d6000803e3d6000fd5b505050506040513d601f19601f8201168201806040525081019061251b9190612f42565b61255a576040517f08c379a000000000000000000000000000000000000000000000000000000000815260040161255190612fcc565b60405180910390fd5b600160009054906101000a900473ffffffffffffffffffffffffffffffffffffffff1673ffffffffffffffffffffffffffffffffffffffff1663fdd3f03684846040518363ffffffff1660e01b81526004016125b792919061302a565b606060405180830381865afa1580156125d4573d6000803e3d6000fd5b505050506040513d601f19601f820116820180604052508101906125f89190613a07565b905092915050565b6000825111816040516020016126169190613b18565b60405160208183030381529060405290612666576040517f08c379a000000000000000000000000000000000000000000000000000000000815260040161265d9190613b73565b60405180910390fd5b505050565b6040518060c00160405280600015158152602001600081526020016060815260200160008152602001600081526020016000151581525090565b6040518060a00160405280600015158152602001600081526020016000815260200160608152602001600081525090565b604051806060016040528060001515815260200160008152602001606081525090565b6040518060600160405280600015158152602001600015158152602001600081525090565b6000604051905090565b600080fd5b600080fd5b6000819050919050565b61274581612732565b811461275057600080fd5b50565b6000813590506127628161273c565b92915050565b600080fd5b600080fd5b600080fd5b60008083601f84011261278d5761278c612768565b5b8235905067ffffffffffffffff8111156127aa576127a961276d565b5b6020830191508360018202830111156127c6576127c5612772565b5b9250929050565b600080600080600080600060c0888a0312156127ec576127eb612728565b5b60006127fa8a828b01612753565b975050602061280b8a828b01612753565b965050604061281c8a828b01612753565b955050606061282d8a828b01612753565b945050608088013567ffffffffffffffff81111561284e5761284d61272d565b5b61285a8a828b01612777565b935093505060a061286d8a828b01612753565b91505092959891949750929550565b6000806040838503121561289357612892612728565b5b60006128a185828601612753565b92505060206128b285828601612753565b9150509250929050565b60008115159050919050565b6128d1816128bc565b82525050565b60006020820190506128ec60008301846128c8565b92915050565b6128fb816128bc565b811461290657600080fd5b50565b600081359050612918816128f2565b92915050565b6000806000806080858703121561293857612937612728565b5b600061294687828801612753565b945050602061295787828801612753565b935050604061296887828801612909565b925050606061297987828801612753565b91505092959194509250565b60008083601f84011261299b5761299a612768565b5b8235905067ffffffffffffffff8111156129b8576129b761276d565b5b6020830191508360208202830111156129d4576129d3612772565b5b9250929050565b6000806000806000608086880312156129f7576129f6612728565b5b6000612a0588828901612753565b9550506020612a1688828901612753565b9450506040612a2788828901612753565b935050606086013567ffffffffffffffff811115612a4857612a4761272d565b5b612a5488828901612985565b92509250509295509295909350565b612a6c81612732565b82525050565b6000602082019050612a876000830184612a63565b92915050565b612a96816128bc565b82525050565b612aa581612732565b82525050565b600081519050919050565b600082825260208201905092915050565b60005b83811015612ae5578082015181840152602081019050612aca565b60008484015250505050565b6000601f19601f8301169050919050565b6000612b0d82612aab565b612b178185612ab6565b9350612b27818560208601612ac7565b612b3081612af1565b840191505092915050565b600060c083016000830151612b536000860182612a8d565b506020830151612b666020860182612a9c565b5060408301518482036040860152612b7e8282612b02565b9150506060830151612b936060860182612a9c565b506080830151612ba66080860182612a9c565b5060a0830151612bb960a0860182612a8d565b508091505092915050565b60006020820190508181036000830152612bde8184612b3b565b905092915050565b60008060008060008060008060e0898b031215612c0657612c05612728565b5b6000612c148b828c01612753565b9850506020612c258b828c01612753565b9750506040612c368b828c01612753565b9650506060612c478b828c01612753565b955050608089013567ffffffffffffffff811115612c6857612c6761272d565b5b612c748b828c01612777565b945094505060a0612c878b828c01612753565b92505060c0612c988b828c01612909565b9150509295985092959890939650565b600060a083016000830151612cc06000860182612a8d565b506020830151612cd36020860182612a9c565b506040830151612ce66040860182612a9c565b5060608301518482036060860152612cfe8282612b02565b9150506080830151612d136080860182612a9c565b508091505092915050565b60006020820190508181036000830152612d388184612ca8565b905092915050565b600081519050919050565b600082825260208201905092915050565b6000819050602082019050919050565b6000612d788383612b02565b905092915050565b6000602082019050919050565b6000612d9882612d40565b612da28185612d4b565b935083602082028501612db485612d5c565b8060005b85811015612df05784840389528151612dd18582612d6c565b9450612ddc83612d80565b925060208a01995050600181019050612db8565b50829750879550505050505092915050565b6000606083016000830151612e1a6000860182612a8d565b506020830151612e2d6020860182612a9c565b5060408301518482036040860152612e458282612d8d565b9150508091505092915050565b60006020820190508181036000830152612e6c8184612e02565b905092915050565b606082016000820151612e8a6000850182612a8d565b506020820151612e9d6020850182612a8d565b506040820151612eb06040850182612a9c565b50505050565b6000606082019050612ecb6000830184612e74565b92915050565b600073ffffffffffffffffffffffffffffffffffffffff82169050919050565b6000612efc82612ed1565b9050919050565b612f0c81612ef1565b82525050565b6000602082019050612f276000830184612f03565b92915050565b600081519050612f3c816128f2565b92915050565b600060208284031215612f5857612f57612728565b5b6000612f6684828501612f2d565b91505092915050565b600082825260208201905092915050565b7f5468652073656e646572206973206e6f742077686974656c6973746564000000600082015250565b6000612fb6601d83612f6f565b9150612fc182612f80565b602082019050919050565b60006020820190508181036000830152612fe581612fa9565b9050919050565b60006060820190506130016000830186612a63565b61300e6020830185612a63565b81810360408301526130208184612ca8565b9050949350505050565b600060408201905061303f6000830185612a63565b61304c6020830184612a63565b9392505050565b600080fd5b7f4e487b7100000000000000000000000000000000000000000000000000000000600052604160045260246000fd5b61309082612af1565b810181811067ffffffffffffffff821117156130af576130ae613058565b5b80604052505050565b60006130c261271e565b90506130ce8282613087565b919050565b600080fd5b6000815190506130e78161273c565b92915050565b600080fd5b600067ffffffffffffffff82111561310d5761310c613058565b5b61311682612af1565b9050602081019050919050565b6000613136613131846130f2565b6130b8565b905082815260208101848484011115613152576131516130ed565b5b61315d848285612ac7565b509392505050565b600082601f83011261317a57613179612768565b5b815161318a848260208601613123565b91505092915050565b600060c082840312156131a9576131a8613053565b5b6131b360c06130b8565b905060006131c384828501612f2d565b60008301525060206131d7848285016130d8565b602083015250604082015167ffffffffffffffff8111156131fb576131fa6130d3565b5b61320784828501613165565b604083015250606061321b848285016130d8565b606083015250608061322f848285016130d8565b60808301525060a061324384828501612f2d565b60a08301525092915050565b6000806040838503121561326657613265612728565b5b600061327485828601612f2d565b925050602083015167ffffffffffffffff8111156132955761329461272d565b5b6132a185828601613193565b9150509250929050565b6000602082840312156132c1576132c0612728565b5b600082015167ffffffffffffffff8111156132df576132de61272d565b5b6132eb84828501613193565b91505092915050565b600067ffffffffffffffff82111561330f5761330e613058565b5b602082029050602081019050919050565b600061333361332e846132f4565b6130b8565b9050808382526020820190506020840283018581111561335657613355612772565b5b835b8181101561339d57805167ffffffffffffffff81111561337b5761337a612768565b5b8086016133888982613165565b85526020850194505050602081019050613358565b5050509392505050565b600082601f8301126133bc576133bb612768565b5b81516133cc848260208601613320565b91505092915050565b6000606082840312156133eb576133ea613053565b5b6133f560606130b8565b9050600061340584828501612f2d565b6000830152506020613419848285016130d8565b602083015250604082015167ffffffffffffffff81111561343d5761343c6130d3565b5b613449848285016133a7565b60408301525092915050565b6000806040838503121561346c5761346b612728565b5b600061347a85828601612f2d565b925050602083015167ffffffffffffffff81111561349b5761349a61272d565b5b6134a7858286016133d5565b9150509250929050565b600060a0820190506134c66000830186612a63565b6134d36020830185612a63565b6134e06040830184612e74565b949350505050565b7f446f63756d656e7420686173686573206c6973742063616e6e6f74206265206560008201527f6d70747900000000000000000000000000000000000000000000000000000000602082015250565b6000613544602483612f6f565b915061354f826134e8565b604082019050919050565b6000602082019050818103600083015261357381613537565b9050919050565b7f4e487b7100000000000000000000000000000000000000000000000000000000600052603260045260246000fd5b600080fd5b600080fd5b600080fd5b600080833560016020038436030381126135d5576135d46135a9565b5b80840192508235915067ffffffffffffffff8211156135f7576135f66135ae565b5b602083019250600182023603831315613613576136126135b3565b5b509250929050565b7f4e487b7100000000000000000000000000000000000000000000000000000000600052601160045260246000fd5b600061365582612732565b91507fffffffffffffffffffffffffffffffffffffffffffffffffffffffffffffffff82036136875761368661361b565b5b600182019050919050565b82818337600083830152505050565b60006136b46136af846130f2565b6130b8565b9050828152602081018484840111156136d0576136cf6130ed565b5b6136db848285613692565b509392505050565b600082601f8301126136f8576136f7612768565b5b81356137088482602086016136a1565b91505092915050565b600061372461371f846132f4565b6130b8565b9050808382526020820190506020840283018581111561374757613746612772565b5b835b8181101561378e57803567ffffffffffffffff81111561376c5761376b612768565b5b80860161377989826136e3565b85526020850194505050602081019050613749565b5050509392505050565b60006137a5368484613711565b905092915050565b60006060820190506137c26000830186612a63565b6137cf6020830185612a63565b81810360408301526137e18184612e02565b9050949350505050565b600060a0828403121561380157613800613053565b5b61380b60a06130b8565b9050600061381b84828501612f2d565b600083015250602061382f848285016130d8565b6020830152506040613843848285016130d8565b604083015250606082015167ffffffffffffffff811115613867576138666130d3565b5b61387384828501613165565b6060830152506080613887848285016130d8565b60808301525092915050565b6000602082840312156138a9576138a8612728565b5b600082015167ffffffffffffffff8111156138c7576138c661272d565b5b6138d3848285016137eb565b91505092915050565b60006060820190506138f16000830186612a63565b6138fe6020830185612a63565b81810360408301526139108184612b3b565b9050949350505050565b6000606082840312156139305761392f613053565b5b61393a60606130b8565b9050600061394a84828501612f2d565b600083015250602061395e84828501612f2d565b6020830152506040613972848285016130d8565b60408301525092915050565b6000806080838503121561399557613994612728565b5b60006139a385828601612f2d565b92505060206139b48582860161391a565b9150509250929050565b6000602082840312156139d4576139d3612728565b5b600082015167ffffffffffffffff8111156139f2576139f161272d565b5b6139fe848285016133d5565b91505092915050565b600060608284031215613a1d57613a1c612728565b5b6000613a2b8482850161391a565b91505092915050565b60008060408385031215613a4b57613a4a612728565b5b6000613a5985828601612f2d565b925050602083015167ffffffffffffffff811115613a7a57613a7961272d565b5b613a86858286016137eb565b9150509250929050565b600081905092915050565b6000613aa682612aab565b613ab08185613a90565b9350613ac0818560208601612ac7565b80840191505092915050565b7f2063616e6e6f7420626520656d70747900000000000000000000000000000000600082015250565b6000613b02601083613a90565b9150613b0d82613acc565b601082019050919050565b6000613b248284613a9b565b9150613b2f82613af5565b915081905092915050565b6000613b4582612aab565b613b4f8185612f6f565b9350613b5f818560208601612ac7565b613b6881612af1565b840191505092915050565b60006020820190508181036000830152613b8d8184613b3a565b90509291505056fea2646970667358221220bcda6c75c4d7f76157955612da163a6ff555cb40b9463af82fa876725de67f4e64736f6c63430008110033",
  "linkReferences": {},
  "deployedLinkReferences": {}
}