{
  "_format": "hh-sol-artifact-1",
  "contractName": "PerformanceDataManager",
  "sourceName": "contracts/data/datamanager/PerformanceDataManager.sol",
  "abi": [
    {
      "inputs": [
        {
          "internalType": "address",
          "name": "performanceStorageAddress",
          "type": "address"
        },
        {
          "internalType": "address",
          "name": "gradeStorageAddress",
          "type": "address"
        },
        {
          "internalType": "address",
          "name": "accessWhitelistAddress",
          "type": "address"
        }
      ],
      "stateMutability": "nonpayable",
      "type": "constructor"
    },
    {
      "inputs": [
        {
          "internalType": "uint256",
          "name": "uId",
          "type": "uint256"
        },
        {
          "internalType": "uint256",
          "name": "assessmentId",
          "type": "uint256"
        }
      ],
      "name": "getAchievedPoints",
      "outputs": [
        {
          "internalType": "uint256",
          "name": "",
          "type": "uint256"
        }
      ],
      "stateMutability": "view",
      "type": "function"
    },
    {
      "inputs": [
        {
          "internalType": "uint256",
          "name": "uId",
          "type": "uint256"
        },
        {
          "internalType": "uint256",
          "name": "assessmentId",
          "type": "uint256"
        }
      ],
      "name": "getAttendanceValue",
      "outputs": [
        {
          "internalType": "bool",
          "name": "",
          "type": "bool"
        }
      ],
      "stateMutability": "view",
      "type": "function"
    },
    {
      "inputs": [
        {
          "internalType": "uint256",
          "name": "uId",
          "type": "uint256"
        },
        {
          "internalType": "uint256",
          "name": "assessmentId",
          "type": "uint256"
        }
      ],
      "name": "getEvaluation",
      "outputs": [
        {
          "components": [
            {
              "internalType": "bool",
              "name": "isSet",
              "type": "bool"
            },
            {
              "internalType": "uint256",
              "name": "datetime",
              "type": "uint256"
            },
            {
              "internalType": "uint256",
              "name": "achievedPoints",
              "type": "uint256"
            },
            {
              "internalType": "string",
              "name": "feedback",
              "type": "string"
            },
            {
              "internalType": "uint256",
              "name": "lecturerUId",
              "type": "uint256"
            }
          ],
          "internalType": "struct PerformanceDataTypes.Evaluation",
          "name": "",
          "type": "tuple"
        }
      ],
      "stateMutability": "view",
      "type": "function"
    },
    {
      "inputs": [
        {
          "internalType": "uint256",
          "name": "uId",
          "type": "uint256"
        },
        {
          "internalType": "uint256",
          "name": "assessmentId",
          "type": "uint256"
        }
      ],
      "name": "getEvaluatorUId",
      "outputs": [
        {
          "internalType": "uint256",
          "name": "",
          "type": "uint256"
        }
      ],
      "stateMutability": "view",
      "type": "function"
    },
    {
      "inputs": [
        {
          "internalType": "uint256",
          "name": "uId",
          "type": "uint256"
        },
        {
          "internalType": "uint256",
          "name": "assessmentId",
          "type": "uint256"
        }
      ],
      "name": "getExamAttendance",
      "outputs": [
        {
          "components": [
            {
              "internalType": "bool",
              "name": "isSet",
              "type": "bool"
            },
            {
              "internalType": "bool",
              "name": "hasAttended",
              "type": "bool"
            },
            {
              "internalType": "uint256",
              "name": "confirmationDateTime",
              "type": "uint256"
            }
          ],
          "internalType": "struct PerformanceDataTypes.ExamAttendance",
          "name": "",
          "type": "tuple"
        }
      ],
      "stateMutability": "view",
      "type": "function"
    },
    {
      "inputs": [
        {
          "internalType": "uint256",
          "name": "uId",
          "type": "uint256"
        },
        {
          "internalType": "uint256",
          "name": "courseId",
          "type": "uint256"
        }
      ],
      "name": "getGrade",
      "outputs": [
        {
          "components": [
            {
              "internalType": "bool",
              "name": "isSet",
              "type": "bool"
            },
            {
              "internalType": "uint256",
              "name": "value",
              "type": "uint256"
            },
            {
              "internalType": "string",
              "name": "feedback",
              "type": "string"
            },
            {
              "internalType": "uint256",
              "name": "datetime",
              "type": "uint256"
            },
            {
              "internalType": "uint256",
              "name": "lecturerUId",
              "type": "uint256"
            },
            {
              "internalType": "bool",
              "name": "isAutomatic",
              "type": "bool"
            }
          ],
          "internalType": "struct PerformanceDataTypes.Grade",
          "name": "",
          "type": "tuple"
        }
      ],
      "stateMutability": "view",
      "type": "function"
    },
    {
      "inputs": [
        {
          "internalType": "uint256",
          "name": "uId",
          "type": "uint256"
        },
        {
          "internalType": "uint256",
          "name": "courseId",
          "type": "uint256"
        }
      ],
      "name": "getGraderUId",
      "outputs": [
        {
          "internalType": "uint256",
          "name": "",
          "type": "uint256"
        }
      ],
      "stateMutability": "view",
      "type": "function"
    },
    {
      "inputs": [
        {
          "internalType": "uint256",
          "name": "uId",
          "type": "uint256"
        },
        {
          "internalType": "uint256",
          "name": "assessmentId",
          "type": "uint256"
        }
      ],
      "name": "getSubmission",
      "outputs": [
        {
          "components": [
            {
              "internalType": "bool",
              "name": "isSet",
              "type": "bool"
            },
            {
              "internalType": "uint256",
              "name": "submissionDatetime",
              "type": "uint256"
            },
            {
              "internalType": "string[]",
              "name": "documentHashes",
              "type": "string[]"
            }
          ],
          "internalType": "struct PerformanceDataTypes.Submission",
          "name": "",
          "type": "tuple"
        }
      ],
      "stateMutability": "view",
      "type": "function"
    },
    {
      "inputs": [
        {
          "internalType": "uint256",
          "name": "uId",
          "type": "uint256"
        },
        {
          "internalType": "uint256",
          "name": "assessmentId",
          "type": "uint256"
        }
      ],
      "name": "getSubmissionDeadline",
      "outputs": [
        {
          "internalType": "uint256",
          "name": "",
          "type": "uint256"
        }
      ],
      "stateMutability": "view",
      "type": "function"
    },
    {
      "inputs": [
        {
          "internalType": "uint256",
          "name": "uId",
          "type": "uint256"
        },
        {
          "internalType": "uint256",
          "name": "assessmentId",
          "type": "uint256"
        }
      ],
      "name": "isAttendanceSet",
      "outputs": [
        {
          "internalType": "bool",
          "name": "",
          "type": "bool"
        }
      ],
      "stateMutability": "view",
      "type": "function"
    },
    {
      "inputs": [
        {
          "internalType": "uint256",
          "name": "uId",
          "type": "uint256"
        },
        {
          "internalType": "uint256",
          "name": "assessmentId",
          "type": "uint256"
        }
      ],
      "name": "isEvaluationSet",
      "outputs": [
        {
          "internalType": "bool",
          "name": "",
          "type": "bool"
        }
      ],
      "stateMutability": "view",
      "type": "function"
    },
    {
      "inputs": [
        {
          "internalType": "uint256",
          "name": "uId",
          "type": "uint256"
        },
        {
          "internalType": "uint256",
          "name": "courseId",
          "type": "uint256"
        }
      ],
      "name": "isFinalGradeSet",
      "outputs": [
        {
          "internalType": "bool",
          "name": "",
          "type": "bool"
        }
      ],
      "stateMutability": "view",
      "type": "function"
    },
    {
      "inputs": [
        {
          "internalType": "uint256",
          "name": "uId",
          "type": "uint256"
        },
        {
          "internalType": "uint256",
          "name": "courseId",
          "type": "uint256"
        }
      ],
      "name": "isGradeSet",
      "outputs": [
        {
          "internalType": "bool",
          "name": "",
          "type": "bool"
        }
      ],
      "stateMutability": "view",
      "type": "function"
    },
    {
      "inputs": [
        {
          "internalType": "uint256",
          "name": "uId",
          "type": "uint256"
        },
        {
          "internalType": "uint256",
          "name": "assessmentId",
          "type": "uint256"
        }
      ],
      "name": "isSubmissionSet",
      "outputs": [
        {
          "internalType": "bool",
          "name": "",
          "type": "bool"
        }
      ],
      "stateMutability": "view",
      "type": "function"
    },
    {
      "inputs": [
        {
          "internalType": "uint256",
          "name": "uId",
          "type": "uint256"
        },
        {
          "internalType": "uint256",
          "name": "assessmentId",
          "type": "uint256"
        },
        {
          "internalType": "uint256",
          "name": "timestamp",
          "type": "uint256"
        },
        {
          "internalType": "uint256",
          "name": "achievedPoints",
          "type": "uint256"
        },
        {
          "internalType": "string",
          "name": "feedback",
          "type": "string"
        },
        {
          "internalType": "uint256",
          "name": "lecturerUId",
          "type": "uint256"
        }
      ],
      "name": "setEvaluation",
      "outputs": [],
      "stateMutability": "nonpayable",
      "type": "function"
    },
    {
      "inputs": [
        {
          "internalType": "uint256",
          "name": "uId",
          "type": "uint256"
        },
        {
          "internalType": "uint256",
          "name": "assessmentId",
          "type": "uint256"
        },
        {
          "internalType": "bool",
          "name": "hasAttended",
          "type": "bool"
        },
        {
          "internalType": "uint256",
          "name": "timestamp",
          "type": "uint256"
        }
      ],
      "name": "setExamAttendance",
      "outputs": [],
      "stateMutability": "nonpayable",
      "type": "function"
    },
    {
      "inputs": [
        {
          "internalType": "uint256",
          "name": "uId",
          "type": "uint256"
        },
        {
          "internalType": "uint256",
          "name": "courseId",
          "type": "uint256"
        },
        {
          "internalType": "uint256",
          "name": "timestamp",
          "type": "uint256"
        },
        {
          "internalType": "uint256",
          "name": "grade",
          "type": "uint256"
        },
        {
          "internalType": "string",
          "name": "feedback",
          "type": "string"
        },
        {
          "internalType": "uint256",
          "name": "lecturerUId",
          "type": "uint256"
        },
        {
          "internalType": "bool",
          "name": "isAutomatic",
          "type": "bool"
        }
      ],
      "name": "setGrade",
      "outputs": [],
      "stateMutability": "nonpayable",
      "type": "function"
    },
    {
      "inputs": [
        {
          "internalType": "uint256",
          "name": "uId",
          "type": "uint256"
        },
        {
          "internalType": "uint256",
          "name": "assessmentId",
          "type": "uint256"
        },
        {
          "internalType": "uint256",
          "name": "timestamp",
          "type": "uint256"
        },
        {
          "internalType": "uint256",
          "name": "achievedPoints",
          "type": "uint256"
        },
        {
          "internalType": "string",
          "name": "feedback",
          "type": "string"
        },
        {
          "internalType": "uint256",
          "name": "lecturerUId",
          "type": "uint256"
        }
      ],
      "name": "setOrOverrideEvaluation",
      "outputs": [],
      "stateMutability": "nonpayable",
      "type": "function"
    },
    {
      "inputs": [
        {
          "internalType": "uint256",
          "name": "uId",
          "type": "uint256"
        },
        {
          "internalType": "uint256",
          "name": "courseId",
          "type": "uint256"
        },
        {
          "internalType": "uint256",
          "name": "timestamp",
          "type": "uint256"
        },
        {
          "internalType": "uint256",
          "name": "grade",
          "type": "uint256"
        },
        {
          "internalType": "string",
          "name": "feedback",
          "type": "string"
        },
        {
          "internalType": "uint256",
          "name": "lecturerUId",
          "type": "uint256"
        },
        {
          "internalType": "bool",
          "name": "isAutomatic",
          "type": "bool"
        }
      ],
      "name": "setOrOverrideGrade",
      "outputs": [],
      "stateMutability": "nonpayable",
      "type": "function"
    },
    {
      "inputs": [
        {
          "internalType": "uint256",
          "name": "uId",
          "type": "uint256"
        },
        {
          "internalType": "uint256",
          "name": "assessmentId",
          "type": "uint256"
        },
        {
          "internalType": "uint256",
          "name": "timestamp",
          "type": "uint256"
        },
        {
          "internalType": "string[]",
          "name": "documentHashes",
          "type": "string[]"
        }
      ],
      "name": "setOrOverrideSubmission",
      "outputs": [],
      "stateMutability": "nonpayable",
      "type": "function"
    }
  ],
  "bytecode": "0x60806040523480156200001157600080fd5b5060405162003fb538038062003fb583398181016040528101906200003791906200016e565b80806000806101000a81548173ffffffffffffffffffffffffffffffffffffffff021916908373ffffffffffffffffffffffffffffffffffffffff1602179055505082600160006101000a81548173ffffffffffffffffffffffffffffffffffffffff021916908373ffffffffffffffffffffffffffffffffffffffff16021790555081600260006101000a81548173ffffffffffffffffffffffffffffffffffffffff021916908373ffffffffffffffffffffffffffffffffffffffff160217905550505050620001ca565b600080fd5b600073ffffffffffffffffffffffffffffffffffffffff82169050919050565b6000620001368262000109565b9050919050565b620001488162000129565b81146200015457600080fd5b50565b60008151905062000168816200013d565b92915050565b6000806000606084860312156200018a576200018962000104565b5b60006200019a8682870162000157565b9350506020620001ad8682870162000157565b9250506040620001c08682870162000157565b9150509250925092565b613ddb80620001da6000396000f3fe608060405234801561001057600080fd5b506004361061012c5760003560e01c80635e4a7392116100ad578063b54c676a11610071578063b54c676a14610389578063b7ed7071146103b9578063cfca6e97146103e9578063d2ceb78814610419578063fdd3f036146104495761012c565b80635e4a7392146102ad578063683391e4146102dd57806379fbc85e1461030d5780637c56af0114610329578063829e90d5146103595761012c565b806323f618ee116100f457806323f618ee146101f957806325bcbe80146102155780632e3b755e14610231578063374a62a01461026157806359a7dbe0146102915761012c565b8063119e794414610131578063130cd8911461014d57806314457f171461017d57806315fea7d5146101995780631a2a2c4a146101c9575b600080fd5b61014b600480360381019061014691906129dd565b610479565b005b61016760048036038101906101629190612a8c565b610659565b6040516101749190612ae7565b60405180910390f35b61019760048036038101906101929190612b2e565b6107e7565b005b6101b360048036038101906101ae9190612a8c565b6109d0565b6040516101c09190612ae7565b60405180910390f35b6101e360048036038101906101de9190612a8c565b610b74565b6040516101f09190612ae7565b60405180910390f35b610213600480360381019061020e9190612bf0565b610d02565b005b61022f600480360381019061022a9190612cad565b610e91565b005b61024b60048036038101906102469190612a8c565b6111e3565b6040516102589190612d44565b60405180910390f35b61027b60048036038101906102769190612a8c565b611386565b6040516102889190612e96565b60405180910390f35b6102ab60048036038101906102a69190612b2e565b611512565b005b6102c760048036038101906102c29190612a8c565b6117a7565b6040516102d49190612f2e565b60405180910390f35b6102f760048036038101906102f29190612a8c565b611933565b6040516103049190612ae7565b60405180910390f35b610327600480360381019061032291906129dd565b611abc565b005b610343600480360381019061033e9190612a8c565b611d48565b6040516103509190612d44565b60405180910390f35b610373600480360381019061036e9190612a8c565b611ed3565b6040516103809190612d44565b60405180910390f35b6103a3600480360381019061039e9190612a8c565b61205e565b6040516103b09190612ae7565b60405180910390f35b6103d360048036038101906103ce9190612a8c565b6121e4565b6040516103e09190613062565b60405180910390f35b61040360048036038101906103fe9190612a8c565b612370565b6040516104109190612ae7565b60405180910390f35b610433600480360381019061042e9190612a8c565b6124fe565b6040516104409190612d44565b60405180910390f35b610463600480360381019061045e9190612a8c565b612689565b60405161047091906130c6565b60405180910390f35b60008054906101000a900473ffffffffffffffffffffffffffffffffffffffff1673ffffffffffffffffffffffffffffffffffffffff166313f44d10336040518263ffffffff1660e01b81526004016104d29190613122565b602060405180830381865afa1580156104ef573d6000803e3d6000fd5b505050506040513d601f19601f820116820180604052508101906105139190613152565b610552576040517f08c379a0000000000000000000000000000000000000000000000000000000008152600401610549906131dc565b60405180910390fd5b600160009054906101000a900473ffffffffffffffffffffffffffffffffffffffff1673ffffffffffffffffffffffffffffffffffffffff16634c37c9cf88886040518060a001604052806001151581526020018a815260200189815260200188888080601f016020809104026020016040519081016040528093929190818152602001838380828437600081840152601f19601f820116905080830192505050505050508152602001868152506040518463ffffffff1660e01b815260040161061e939291906131fc565b600060405180830381600087803b15801561063857600080fd5b505af115801561064c573d6000803e3d6000fd5b5050505050505050505050565b60008060009054906101000a900473ffffffffffffffffffffffffffffffffffffffff1673ffffffffffffffffffffffffffffffffffffffff166313f44d10336040518263ffffffff1660e01b81526004016106b59190613122565b602060405180830381865afa1580156106d2573d6000803e3d6000fd5b505050506040513d601f19601f820116820180604052508101906106f69190613152565b610735576040517f08c379a000000000000000000000000000000000000000000000000000000000815260040161072c906131dc565b60405180910390fd5b6000600260009054906101000a900473ffffffffffffffffffffffffffffffffffffffff1673ffffffffffffffffffffffffffffffffffffffff16634e86434085856040518363ffffffff1660e01b815260040161079492919061323a565b600060405180830381865afa1580156107b1573d6000803e3d6000fd5b505050506040513d6000823e3d601f19601f820116820180604052508101906107da919061345f565b5090508091505092915050565b60008054906101000a900473ffffffffffffffffffffffffffffffffffffffff1673ffffffffffffffffffffffffffffffffffffffff166313f44d10336040518263ffffffff1660e01b81526004016108409190613122565b602060405180830381865afa15801561085d573d6000803e3d6000fd5b505050506040513d601f19601f820116820180604052508101906108819190613152565b6108c0576040517f08c379a00000000000000000000000000000000000000000000000000000000081526004016108b7906131dc565b60405180910390fd5b600260009054906101000a900473ffffffffffffffffffffffffffffffffffffffff1673ffffffffffffffffffffffffffffffffffffffff1663375c0c4f89896040518060c001604052806001151581526020018a815260200189898080601f016020809104026020016040519081016040528093929190818152602001838380828437600081840152601f19601f8201169050808301925050505050505081526020018b81526020018781526020018615158152506040518463ffffffff1660e01b8152600401610994939291906134bb565b600060405180830381600087803b1580156109ae57600080fd5b505af11580156109c2573d6000803e3d6000fd5b505050505050505050505050565b60008060009054906101000a900473ffffffffffffffffffffffffffffffffffffffff1673ffffffffffffffffffffffffffffffffffffffff166313f44d10336040518263ffffffff1660e01b8152600401610a2c9190613122565b602060405180830381865afa158015610a49573d6000803e3d6000fd5b505050506040513d601f19601f82011682018060405250810190610a6d9190613152565b610aac576040517f08c379a0000000000000000000000000000000000000000000000000000000008152600401610aa3906131dc565b60405180910390fd5b610ab68383610659565b610ac35760009050610b6e565b600260009054906101000a900473ffffffffffffffffffffffffffffffffffffffff1673ffffffffffffffffffffffffffffffffffffffff1663374a62a084846040518363ffffffff1660e01b8152600401610b2092919061323a565b600060405180830381865afa158015610b3d573d6000803e3d6000fd5b505050506040513d6000823e3d601f19601f82011682018060405250810190610b6691906134f9565b60a001511590505b92915050565b60008060009054906101000a900473ffffffffffffffffffffffffffffffffffffffff1673ffffffffffffffffffffffffffffffffffffffff166313f44d10336040518263ffffffff1660e01b8152600401610bd09190613122565b602060405180830381865afa158015610bed573d6000803e3d6000fd5b505050506040513d601f19601f82011682018060405250810190610c119190613152565b610c50576040517f08c379a0000000000000000000000000000000000000000000000000000000008152600401610c47906131dc565b60405180910390fd5b6000600160009054906101000a900473ffffffffffffffffffffffffffffffffffffffff1673ffffffffffffffffffffffffffffffffffffffff1663c51e6e4785856040518363ffffffff1660e01b8152600401610caf92919061323a565b600060405180830381865afa158015610ccc573d6000803e3d6000fd5b505050506040513d6000823e3d601f19601f82011682018060405250810190610cf591906136a3565b5090508091505092915050565b60008054906101000a900473ffffffffffffffffffffffffffffffffffffffff1673ffffffffffffffffffffffffffffffffffffffff166313f44d10336040518263ffffffff1660e01b8152600401610d5b9190613122565b602060405180830381865afa158015610d78573d6000803e3d6000fd5b505050506040513d601f19601f82011682018060405250810190610d9c9190613152565b610ddb576040517f08c379a0000000000000000000000000000000000000000000000000000000008152600401610dd2906131dc565b60405180910390fd5b600160009054906101000a900473ffffffffffffffffffffffffffffffffffffffff1673ffffffffffffffffffffffffffffffffffffffff16637241bf62858560405180606001604052806001151581526020018715158152602001868152506040518463ffffffff1660e01b8152600401610e59939291906136ff565b600060405180830381600087803b158015610e7357600080fd5b505af1158015610e87573d6000803e3d6000fd5b5050505050505050565b60008054906101000a900473ffffffffffffffffffffffffffffffffffffffff1673ffffffffffffffffffffffffffffffffffffffff166313f44d10336040518263ffffffff1660e01b8152600401610eea9190613122565b602060405180830381865afa158015610f07573d6000803e3d6000fd5b505050506040513d601f19601f82011682018060405250810190610f2b9190613152565b610f6a576040517f08c379a0000000000000000000000000000000000000000000000000000000008152600401610f61906131dc565b60405180910390fd5b60008282905011610fb0576040517f08c379a0000000000000000000000000000000000000000000000000000000008152600401610fa7906137a8565b60405180910390fd5b60005b8282905081101561107557611064838383818110610fd457610fd36137c8565b5b9050602002810190610fe69190613806565b8080601f016020809104026020016040519081016040528093929190818152602001838380828437600081840152601f19601f820116905080830192505050505050506040518060400160405280600d81526020017f446f63756d656e74206861736800000000000000000000000000000000000000815250612810565b8061106e90613898565b9050610fb3565b506000604051806060016040528060011515815260200185815260200184849061109f91906139e6565b81525090506110ae8686610b74565b1561114957600160009054906101000a900473ffffffffffffffffffffffffffffffffffffffff1673ffffffffffffffffffffffffffffffffffffffff16635e5606888787846040518463ffffffff1660e01b8152600401611112939291906139fb565b600060405180830381600087803b15801561112c57600080fd5b505af1158015611140573d6000803e3d6000fd5b505050506111db565b600160009054906101000a900473ffffffffffffffffffffffffffffffffffffffff1673ffffffffffffffffffffffffffffffffffffffff16631f0884ea8787846040518463ffffffff1660e01b81526004016111a8939291906139fb565b600060405180830381600087803b1580156111c257600080fd5b505af11580156111d6573d6000803e3d6000fd5b505050505b505050505050565b60008060009054906101000a900473ffffffffffffffffffffffffffffffffffffffff1673ffffffffffffffffffffffffffffffffffffffff166313f44d10336040518263ffffffff1660e01b815260040161123f9190613122565b602060405180830381865afa15801561125c573d6000803e3d6000fd5b505050506040513d601f19601f820116820180604052508101906112809190613152565b6112bf576040517f08c379a00000000000000000000000000000000000000000000000000000000081526004016112b6906131dc565b60405180910390fd5b6112c98383612370565b6112d65760009050611380565b600160009054906101000a900473ffffffffffffffffffffffffffffffffffffffff1673ffffffffffffffffffffffffffffffffffffffff16635e4a739284846040518363ffffffff1660e01b815260040161133392919061323a565b600060405180830381865afa158015611350573d6000803e3d6000fd5b505050506040513d6000823e3d601f19601f820116820180604052508101906113799190613ae1565b6040015190505b92915050565b61138e61287b565b60008054906101000a900473ffffffffffffffffffffffffffffffffffffffff1673ffffffffffffffffffffffffffffffffffffffff166313f44d10336040518263ffffffff1660e01b81526004016113e79190613122565b602060405180830381865afa158015611404573d6000803e3d6000fd5b505050506040513d601f19601f820116820180604052508101906114289190613152565b611467576040517f08c379a000000000000000000000000000000000000000000000000000000000815260040161145e906131dc565b60405180910390fd5b600260009054906101000a900473ffffffffffffffffffffffffffffffffffffffff1673ffffffffffffffffffffffffffffffffffffffff1663374a62a084846040518363ffffffff1660e01b81526004016114c492919061323a565b600060405180830381865afa1580156114e1573d6000803e3d6000fd5b505050506040513d6000823e3d601f19601f8201168201806040525081019061150a91906134f9565b905092915050565b60008054906101000a900473ffffffffffffffffffffffffffffffffffffffff1673ffffffffffffffffffffffffffffffffffffffff166313f44d10336040518263ffffffff1660e01b815260040161156b9190613122565b602060405180830381865afa158015611588573d6000803e3d6000fd5b505050506040513d601f19601f820116820180604052508101906115ac9190613152565b6115eb576040517f08c379a00000000000000000000000000000000000000000000000000000000081526004016115e2906131dc565b60405180910390fd5b60006040518060c0016040528060011515815260200187815260200186868080601f016020809104026020016040519081016040528093929190818152602001838380828437600081840152601f19601f820116905080830192505050505050508152602001888152602001848152602001831515815250905061166f8989610659565b1561170a57600260009054906101000a900473ffffffffffffffffffffffffffffffffffffffff1673ffffffffffffffffffffffffffffffffffffffff166342ad565e8a8a846040518463ffffffff1660e01b81526004016116d3939291906134bb565b600060405180830381600087803b1580156116ed57600080fd5b505af1158015611701573d6000803e3d6000fd5b5050505061179c565b600260009054906101000a900473ffffffffffffffffffffffffffffffffffffffff1673ffffffffffffffffffffffffffffffffffffffff1663375c0c4f8a8a846040518463ffffffff1660e01b8152600401611769939291906134bb565b600060405180830381600087803b15801561178357600080fd5b505af1158015611797573d6000803e3d6000fd5b505050505b505050505050505050565b6117af6128b5565b60008054906101000a900473ffffffffffffffffffffffffffffffffffffffff1673ffffffffffffffffffffffffffffffffffffffff166313f44d10336040518263ffffffff1660e01b81526004016118089190613122565b602060405180830381865afa158015611825573d6000803e3d6000fd5b505050506040513d601f19601f820116820180604052508101906118499190613152565b611888576040517f08c379a000000000000000000000000000000000000000000000000000000000815260040161187f906131dc565b60405180910390fd5b600160009054906101000a900473ffffffffffffffffffffffffffffffffffffffff1673ffffffffffffffffffffffffffffffffffffffff16635e4a739284846040518363ffffffff1660e01b81526004016118e592919061323a565b600060405180830381865afa158015611902573d6000803e3d6000fd5b505050506040513d6000823e3d601f19601f8201168201806040525081019061192b9190613ae1565b905092915050565b60008060009054906101000a900473ffffffffffffffffffffffffffffffffffffffff1673ffffffffffffffffffffffffffffffffffffffff166313f44d10336040518263ffffffff1660e01b815260040161198f9190613122565b602060405180830381865afa1580156119ac573d6000803e3d6000fd5b505050506040513d601f19601f820116820180604052508101906119d09190613152565b611a0f576040517f08c379a0000000000000000000000000000000000000000000000000000000008152600401611a06906131dc565b60405180910390fd5b6000600160009054906101000a900473ffffffffffffffffffffffffffffffffffffffff1673ffffffffffffffffffffffffffffffffffffffff16631359e12a85856040518363ffffffff1660e01b8152600401611a6e92919061323a565b608060405180830381865afa158015611a8b573d6000803e3d6000fd5b505050506040513d601f19601f82011682018060405250810190611aaf9190613b8e565b5090508091505092915050565b60008054906101000a900473ffffffffffffffffffffffffffffffffffffffff1673ffffffffffffffffffffffffffffffffffffffff166313f44d10336040518263ffffffff1660e01b8152600401611b159190613122565b602060405180830381865afa158015611b32573d6000803e3d6000fd5b505050506040513d601f19601f82011682018060405250810190611b569190613152565b611b95576040517f08c379a0000000000000000000000000000000000000000000000000000000008152600401611b8c906131dc565b60405180910390fd5b60006040518060a0016040528060011515815260200187815260200186815260200185858080601f016020809104026020016040519081016040528093929190818152602001838380828437600081840152601f19601f820116905080830192505050505050508152602001838152509050611c118888612370565b15611cac57600160009054906101000a900473ffffffffffffffffffffffffffffffffffffffff1673ffffffffffffffffffffffffffffffffffffffff166356038bc08989846040518463ffffffff1660e01b8152600401611c75939291906131fc565b600060405180830381600087803b158015611c8f57600080fd5b505af1158015611ca3573d6000803e3d6000fd5b50505050611d3e565b600160009054906101000a900473ffffffffffffffffffffffffffffffffffffffff1673ffffffffffffffffffffffffffffffffffffffff16634c37c9cf8989846040518463ffffffff1660e01b8152600401611d0b939291906131fc565b600060405180830381600087803b158015611d2557600080fd5b505af1158015611d39573d6000803e3d6000fd5b505050505b5050505050505050565b60008060009054906101000a900473ffffffffffffffffffffffffffffffffffffffff1673ffffffffffffffffffffffffffffffffffffffff166313f44d10336040518263ffffffff1660e01b8152600401611da49190613122565b602060405180830381865afa158015611dc1573d6000803e3d6000fd5b505050506040513d601f19601f82011682018060405250810190611de59190613152565b611e24576040517f08c379a0000000000000000000000000000000000000000000000000000000008152600401611e1b906131dc565b60405180910390fd5b600160009054906101000a900473ffffffffffffffffffffffffffffffffffffffff1673ffffffffffffffffffffffffffffffffffffffff1663b7ed707184846040518363ffffffff1660e01b8152600401611e8192919061323a565b600060405180830381865afa158015611e9e573d6000803e3d6000fd5b505050506040513d6000823e3d601f19601f82011682018060405250810190611ec79190613bce565b60200151905092915050565b60008060009054906101000a900473ffffffffffffffffffffffffffffffffffffffff1673ffffffffffffffffffffffffffffffffffffffff166313f44d10336040518263ffffffff1660e01b8152600401611f2f9190613122565b602060405180830381865afa158015611f4c573d6000803e3d6000fd5b505050506040513d601f19601f82011682018060405250810190611f709190613152565b611faf576040517f08c379a0000000000000000000000000000000000000000000000000000000008152600401611fa6906131dc565b60405180910390fd5b600160009054906101000a900473ffffffffffffffffffffffffffffffffffffffff1673ffffffffffffffffffffffffffffffffffffffff16635e4a739284846040518363ffffffff1660e01b815260040161200c92919061323a565b600060405180830381865afa158015612029573d6000803e3d6000fd5b505050506040513d6000823e3d601f19601f820116820180604052508101906120529190613ae1565b60800151905092915050565b60008060009054906101000a900473ffffffffffffffffffffffffffffffffffffffff1673ffffffffffffffffffffffffffffffffffffffff166313f44d10336040518263ffffffff1660e01b81526004016120ba9190613122565b602060405180830381865afa1580156120d7573d6000803e3d6000fd5b505050506040513d601f19601f820116820180604052508101906120fb9190613152565b61213a576040517f08c379a0000000000000000000000000000000000000000000000000000000008152600401612131906131dc565b60405180910390fd5b600160009054906101000a900473ffffffffffffffffffffffffffffffffffffffff1673ffffffffffffffffffffffffffffffffffffffff1663fdd3f03684846040518363ffffffff1660e01b815260040161219792919061323a565b606060405180830381865afa1580156121b4573d6000803e3d6000fd5b505050506040513d601f19601f820116820180604052508101906121d89190613c17565b60200151905092915050565b6121ec6128e6565b60008054906101000a900473ffffffffffffffffffffffffffffffffffffffff1673ffffffffffffffffffffffffffffffffffffffff166313f44d10336040518263ffffffff1660e01b81526004016122459190613122565b602060405180830381865afa158015612262573d6000803e3d6000fd5b505050506040513d601f19601f820116820180604052508101906122869190613152565b6122c5576040517f08c379a00000000000000000000000000000000000000000000000000000000081526004016122bc906131dc565b60405180910390fd5b600160009054906101000a900473ffffffffffffffffffffffffffffffffffffffff1673ffffffffffffffffffffffffffffffffffffffff1663b7ed707184846040518363ffffffff1660e01b815260040161232292919061323a565b600060405180830381865afa15801561233f573d6000803e3d6000fd5b505050506040513d6000823e3d601f19601f820116820180604052508101906123689190613bce565b905092915050565b60008060009054906101000a900473ffffffffffffffffffffffffffffffffffffffff1673ffffffffffffffffffffffffffffffffffffffff166313f44d10336040518263ffffffff1660e01b81526004016123cc9190613122565b602060405180830381865afa1580156123e9573d6000803e3d6000fd5b505050506040513d601f19601f8201168201806040525081019061240d9190613152565b61244c576040517f08c379a0000000000000000000000000000000000000000000000000000000008152600401612443906131dc565b60405180910390fd5b6000600160009054906101000a900473ffffffffffffffffffffffffffffffffffffffff1673ffffffffffffffffffffffffffffffffffffffff1663caed9c6585856040518363ffffffff1660e01b81526004016124ab92919061323a565b600060405180830381865afa1580156124c8573d6000803e3d6000fd5b505050506040513d6000823e3d601f19601f820116820180604052508101906124f19190613c44565b5090508091505092915050565b60008060009054906101000a900473ffffffffffffffffffffffffffffffffffffffff1673ffffffffffffffffffffffffffffffffffffffff166313f44d10336040518263ffffffff1660e01b815260040161255a9190613122565b602060405180830381865afa158015612577573d6000803e3d6000fd5b505050506040513d601f19601f8201168201806040525081019061259b9190613152565b6125da576040517f08c379a00000000000000000000000000000000000000000000000000000000081526004016125d1906131dc565b60405180910390fd5b600260009054906101000a900473ffffffffffffffffffffffffffffffffffffffff1673ffffffffffffffffffffffffffffffffffffffff1663374a62a084846040518363ffffffff1660e01b815260040161263792919061323a565b600060405180830381865afa158015612654573d6000803e3d6000fd5b505050506040513d6000823e3d601f19601f8201168201806040525081019061267d91906134f9565b60800151905092915050565b612691612909565b60008054906101000a900473ffffffffffffffffffffffffffffffffffffffff1673ffffffffffffffffffffffffffffffffffffffff166313f44d10336040518263ffffffff1660e01b81526004016126ea9190613122565b602060405180830381865afa158015612707573d6000803e3d6000fd5b505050506040513d601f19601f8201168201806040525081019061272b9190613152565b61276a576040517f08c379a0000000000000000000000000000000000000000000000000000000008152600401612761906131dc565b60405180910390fd5b600160009054906101000a900473ffffffffffffffffffffffffffffffffffffffff1673ffffffffffffffffffffffffffffffffffffffff1663fdd3f03684846040518363ffffffff1660e01b81526004016127c792919061323a565b606060405180830381865afa1580156127e4573d6000803e3d6000fd5b505050506040513d601f19601f820116820180604052508101906128089190613c17565b905092915050565b6000825111816040516020016128269190613d28565b60405160208183030381529060405290612876576040517f08c379a000000000000000000000000000000000000000000000000000000000815260040161286d9190613d83565b60405180910390fd5b505050565b6040518060c00160405280600015158152602001600081526020016060815260200160008152602001600081526020016000151581525090565b6040518060a00160405280600015158152602001600081526020016000815260200160608152602001600081525090565b604051806060016040528060001515815260200160008152602001606081525090565b6040518060600160405280600015158152602001600015158152602001600081525090565b6000604051905090565b600080fd5b600080fd5b6000819050919050565b61295581612942565b811461296057600080fd5b50565b6000813590506129728161294c565b92915050565b600080fd5b600080fd5b600080fd5b60008083601f84011261299d5761299c612978565b5b8235905067ffffffffffffffff8111156129ba576129b961297d565b5b6020830191508360018202830111156129d6576129d5612982565b5b9250929050565b600080600080600080600060c0888a0312156129fc576129fb612938565b5b6000612a0a8a828b01612963565b9750506020612a1b8a828b01612963565b9650506040612a2c8a828b01612963565b9550506060612a3d8a828b01612963565b945050608088013567ffffffffffffffff811115612a5e57612a5d61293d565b5b612a6a8a828b01612987565b935093505060a0612a7d8a828b01612963565b91505092959891949750929550565b60008060408385031215612aa357612aa2612938565b5b6000612ab185828601612963565b9250506020612ac285828601612963565b9150509250929050565b60008115159050919050565b612ae181612acc565b82525050565b6000602082019050612afc6000830184612ad8565b92915050565b612b0b81612acc565b8114612b1657600080fd5b50565b600081359050612b2881612b02565b92915050565b60008060008060008060008060e0898b031215612b4e57612b4d612938565b5b6000612b5c8b828c01612963565b9850506020612b6d8b828c01612963565b9750506040612b7e8b828c01612963565b9650506060612b8f8b828c01612963565b955050608089013567ffffffffffffffff811115612bb057612baf61293d565b5b612bbc8b828c01612987565b945094505060a0612bcf8b828c01612963565b92505060c0612be08b828c01612b19565b9150509295985092959890939650565b60008060008060808587031215612c0a57612c09612938565b5b6000612c1887828801612963565b9450506020612c2987828801612963565b9350506040612c3a87828801612b19565b9250506060612c4b87828801612963565b91505092959194509250565b60008083601f840112612c6d57612c6c612978565b5b8235905067ffffffffffffffff811115612c8a57612c8961297d565b5b602083019150836020820283011115612ca657612ca5612982565b5b9250929050565b600080600080600060808688031215612cc957612cc8612938565b5b6000612cd788828901612963565b9550506020612ce888828901612963565b9450506040612cf988828901612963565b935050606086013567ffffffffffffffff811115612d1a57612d1961293d565b5b612d2688828901612c57565b92509250509295509295909350565b612d3e81612942565b82525050565b6000602082019050612d596000830184612d35565b92915050565b612d6881612acc565b82525050565b612d7781612942565b82525050565b600081519050919050565b600082825260208201905092915050565b60005b83811015612db7578082015181840152602081019050612d9c565b60008484015250505050565b6000601f19601f8301169050919050565b6000612ddf82612d7d565b612de98185612d88565b9350612df9818560208601612d99565b612e0281612dc3565b840191505092915050565b600060c083016000830151612e256000860182612d5f565b506020830151612e386020860182612d6e565b5060408301518482036040860152612e508282612dd4565b9150506060830151612e656060860182612d6e565b506080830151612e786080860182612d6e565b5060a0830151612e8b60a0860182612d5f565b508091505092915050565b60006020820190508181036000830152612eb08184612e0d565b905092915050565b600060a083016000830151612ed06000860182612d5f565b506020830151612ee36020860182612d6e565b506040830151612ef66040860182612d6e565b5060608301518482036060860152612f0e8282612dd4565b9150506080830151612f236080860182612d6e565b508091505092915050565b60006020820190508181036000830152612f488184612eb8565b905092915050565b600081519050919050565b600082825260208201905092915050565b6000819050602082019050919050565b6000612f888383612dd4565b905092915050565b6000602082019050919050565b6000612fa882612f50565b612fb28185612f5b565b935083602082028501612fc485612f6c565b8060005b858110156130005784840389528151612fe18582612f7c565b9450612fec83612f90565b925060208a01995050600181019050612fc8565b50829750879550505050505092915050565b600060608301600083015161302a6000860182612d5f565b50602083015161303d6020860182612d6e565b50604083015184820360408601526130558282612f9d565b9150508091505092915050565b6000602082019050818103600083015261307c8184613012565b905092915050565b60608201600082015161309a6000850182612d5f565b5060208201516130ad6020850182612d5f565b5060408201516130c06040850182612d6e565b50505050565b60006060820190506130db6000830184613084565b92915050565b600073ffffffffffffffffffffffffffffffffffffffff82169050919050565b600061310c826130e1565b9050919050565b61311c81613101565b82525050565b60006020820190506131376000830184613113565b92915050565b60008151905061314c81612b02565b92915050565b60006020828403121561316857613167612938565b5b60006131768482850161313d565b91505092915050565b600082825260208201905092915050565b7f5468652073656e646572206973206e6f742077686974656c6973746564000000600082015250565b60006131c6601d8361317f565b91506131d182613190565b602082019050919050565b600060208201905081810360008301526131f5816131b9565b9050919050565b60006060820190506132116000830186612d35565b61321e6020830185612d35565b81810360408301526132308184612eb8565b9050949350505050565b600060408201905061324f6000830185612d35565b61325c6020830184612d35565b9392505050565b600080fd5b7f4e487b7100000000000000000000000000000000000000000000000000000000600052604160045260246000fd5b6132a082612dc3565b810181811067ffffffffffffffff821117156132bf576132be613268565b5b80604052505050565b60006132d261292e565b90506132de8282613297565b919050565b600080fd5b6000815190506132f78161294c565b92915050565b600080fd5b600067ffffffffffffffff82111561331d5761331c613268565b5b61332682612dc3565b9050602081019050919050565b600061334661334184613302565b6132c8565b905082815260208101848484011115613362576133616132fd565b5b61336d848285612d99565b509392505050565b600082601f83011261338a57613389612978565b5b815161339a848260208601613333565b91505092915050565b600060c082840312156133b9576133b8613263565b5b6133c360c06132c8565b905060006133d38482850161313d565b60008301525060206133e7848285016132e8565b602083015250604082015167ffffffffffffffff81111561340b5761340a6132e3565b5b61341784828501613375565b604083015250606061342b848285016132e8565b606083015250608061343f848285016132e8565b60808301525060a06134538482850161313d565b60a08301525092915050565b6000806040838503121561347657613475612938565b5b60006134848582860161313d565b925050602083015167ffffffffffffffff8111156134a5576134a461293d565b5b6134b1858286016133a3565b9150509250929050565b60006060820190506134d06000830186612d35565b6134dd6020830185612d35565b81810360408301526134ef8184612e0d565b9050949350505050565b60006020828403121561350f5761350e612938565b5b600082015167ffffffffffffffff81111561352d5761352c61293d565b5b613539848285016133a3565b91505092915050565b600067ffffffffffffffff82111561355d5761355c613268565b5b602082029050602081019050919050565b600061358161357c84613542565b6132c8565b905080838252602082019050602084028301858111156135a4576135a3612982565b5b835b818110156135eb57805167ffffffffffffffff8111156135c9576135c8612978565b5b8086016135d68982613375565b855260208501945050506020810190506135a6565b5050509392505050565b600082601f83011261360a57613609612978565b5b815161361a84826020860161356e565b91505092915050565b60006060828403121561363957613638613263565b5b61364360606132c8565b905060006136538482850161313d565b6000830152506020613667848285016132e8565b602083015250604082015167ffffffffffffffff81111561368b5761368a6132e3565b5b613697848285016135f5565b60408301525092915050565b600080604083850312156136ba576136b9612938565b5b60006136c88582860161313d565b925050602083015167ffffffffffffffff8111156136e9576136e861293d565b5b6136f585828601613623565b9150509250929050565b600060a0820190506137146000830186612d35565b6137216020830185612d35565b61372e6040830184613084565b949350505050565b7f446f63756d656e7420686173686573206c6973742063616e6e6f74206265206560008201527f6d70747900000000000000000000000000000000000000000000000000000000602082015250565b600061379260248361317f565b915061379d82613736565b604082019050919050565b600060208201905081810360008301526137c181613785565b9050919050565b7f4e487b7100000000000000000000000000000000000000000000000000000000600052603260045260246000fd5b600080fd5b600080fd5b600080fd5b60008083356001602003843603038112613823576138226137f7565b5b80840192508235915067ffffffffffffffff821115613845576138446137fc565b5b60208301925060018202360383131561386157613860613801565b5b509250929050565b7f4e487b7100000000000000000000000000000000000000000000000000000000600052601160045260246000fd5b60006138a382612942565b91507fffffffffffffffffffffffffffffffffffffffffffffffffffffffffffffffff82036138d5576138d4613869565b5b600182019050919050565b82818337600083830152505050565b60006139026138fd84613302565b6132c8565b90508281526020810184848401111561391e5761391d6132fd565b5b6139298482856138e0565b509392505050565b600082601f83011261394657613945612978565b5b81356139568482602086016138ef565b91505092915050565b600061397261396d84613542565b6132c8565b9050808382526020820190506020840283018581111561399557613994612982565b5b835b818110156139dc57803567ffffffffffffffff8111156139ba576139b9612978565b5b8086016139c78982613931565b85526020850194505050602081019050613997565b5050509392505050565b60006139f336848461395f565b905092915050565b6000606082019050613a106000830186612d35565b613a1d6020830185612d35565b8181036040830152613a2f8184613012565b9050949350505050565b600060a08284031215613a4f57613a4e613263565b5b613a5960a06132c8565b90506000613a698482850161313d565b6000830152506020613a7d848285016132e8565b6020830152506040613a91848285016132e8565b604083015250606082015167ffffffffffffffff811115613ab557613ab46132e3565b5b613ac184828501613375565b6060830152506080613ad5848285016132e8565b60808301525092915050565b600060208284031215613af757613af6612938565b5b600082015167ffffffffffffffff811115613b1557613b1461293d565b5b613b2184828501613a39565b91505092915050565b600060608284031215613b4057613b3f613263565b5b613b4a60606132c8565b90506000613b5a8482850161313d565b6000830152506020613b6e8482850161313d565b6020830152506040613b82848285016132e8565b60408301525092915050565b60008060808385031215613ba557613ba4612938565b5b6000613bb38582860161313d565b9250506020613bc485828601613b2a565b9150509250929050565b600060208284031215613be457613be3612938565b5b600082015167ffffffffffffffff811115613c0257613c0161293d565b5b613c0e84828501613623565b91505092915050565b600060608284031215613c2d57613c2c612938565b5b6000613c3b84828501613b2a565b91505092915050565b60008060408385031215613c5b57613c5a612938565b5b6000613c698582860161313d565b925050602083015167ffffffffffffffff811115613c8a57613c8961293d565b5b613c9685828601613a39565b9150509250929050565b600081905092915050565b6000613cb682612d7d565b613cc08185613ca0565b9350613cd0818560208601612d99565b80840191505092915050565b7f2063616e6e6f7420626520656d70747900000000000000000000000000000000600082015250565b6000613d12601083613ca0565b9150613d1d82613cdc565b601082019050919050565b6000613d348284613cab565b9150613d3f82613d05565b915081905092915050565b6000613d5582612d7d565b613d5f818561317f565b9350613d6f818560208601612d99565b613d7881612dc3565b840191505092915050565b60006020820190508181036000830152613d9d8184613d4a565b90509291505056fea2646970667358221220ebd9c17135a346dfee809d267999e318e339885f2f95faedfaaa593ddf5ad24764736f6c63430008110033",
  "linkReferences": {},
  "deployedLinkReferences": {}
}