{
  "_format": "hh-sol-artifact-1",
  "contractName": "Faucet",
  "sourceName": "contracts/logic/Faucet.sol",
  "abi": [
    {
      "stateMutability": "payable",
      "type": "fallback"
    },
    {
      "inputs": [
        {
          "internalType": "address",
          "name": "_address",
          "type": "address"
        }
      ],
      "name": "addAdmin",
      "outputs": [],
      "stateMutability": "nonpayable",
      "type": "function"
    },
    {
      "inputs": [
        {
          "internalType": "address[]",
          "name": "addresses",
          "type": "address[]"
        }
      ],
      "name": "batchAddAdmin",
      "outputs": [],
      "stateMutability": "nonpayable",
      "type": "function"
    },
    {
      "inputs": [
        {
          "internalType": "address",
          "name": "_address",
          "type": "address"
        }
      ],
      "name": "removeAdmin",
      "outputs": [],
      "stateMutability": "nonpayable",
      "type": "function"
    },
    {
      "inputs": [
        {
          "internalType": "address payable",
          "name": "toAddress",
          "type": "address"
        }
      ],
      "name": "sendFullAmountTokens",
      "outputs": [],
      "stateMutability": "payable",
      "type": "function"
    },
    {
      "inputs": [
        {
          "internalType": "address payable",
          "name": "toAddress",
          "type": "address"
        }
      ],
      "name": "sendInitialAmountTokens",
      "outputs": [],
      "stateMutability": "payable",
      "type": "function"
    },
    {
      "inputs": [
        {
          "internalType": "address payable",
          "name": "addressToAllocateTo",
          "type": "address"
        },
        {
          "internalType": "uint256",
          "name": "amount",
          "type": "uint256"
        }
      ],
      "name": "sendTokens",
      "outputs": [],
      "stateMutability": "nonpayable",
      "type": "function"
    },
    {
      "inputs": [
        {
          "internalType": "uint256",
          "name": "_initialAmount",
          "type": "uint256"
        },
        {
          "internalType": "uint256",
          "name": "_fullAmount",
          "type": "uint256"
        }
      ],
      "name": "setAmounts",
      "outputs": [],
      "stateMutability": "nonpayable",
      "type": "function"
    },
    {
      "stateMutability": "payable",
      "type": "receive"
    }
  ],
  "bytecode": "0x608060405267016345785d8a0000600255670de0b6b3a764000060035534801561002857600080fd5b5060016000803373ffffffffffffffffffffffffffffffffffffffff1673ffffffffffffffffffffffffffffffffffffffff16815260200190815260200160002060006101000a81548160ff021916908315150217905550610cdc8061008f6000396000f3fe6080604052600436106100745760003560e01c8063704802751161004e57806370480275146100f8578063983234b614610121578063b21224a91461014a578063fbb013f1146101665761007b565b806305ab421d1461007d5780631785f53c146100a65780632c9ab42b146100cf5761007b565b3661007b57005b005b34801561008957600080fd5b506100a4600480360381019061009f9190610887565b610182565b005b3480156100b257600080fd5b506100cd60048036038101906100c89190610905565b61036f565b005b3480156100db57600080fd5b506100f660048036038101906100f19190610997565b610454565b005b34801561010457600080fd5b5061011f600480360381019061011a9190610905565b610533565b005b34801561012d57600080fd5b50610148600480360381019061014391906109e4565b610618565b005b610164600480360381019061015f9190610a24565b6106b5565b005b610180600480360381019061017b9190610a24565b61074f565b005b6000803373ffffffffffffffffffffffffffffffffffffffff1673ffffffffffffffffffffffffffffffffffffffff16815260200190815260200160002060009054906101000a900460ff1661020d576040517f08c379a000000000000000000000000000000000000000000000000000000000815260040161020490610ad4565b60405180910390fd5b80471015610250576040517f08c379a000000000000000000000000000000000000000000000000000000000815260040161024790610b40565b60405180910390fd5b600160008373ffffffffffffffffffffffffffffffffffffffff1673ffffffffffffffffffffffffffffffffffffffff168152602001908152602001600020544210156102d2576040517f08c379a00000000000000000000000000000000000000000000000000000000081526004016102c990610bac565b60405180910390fd5b8173ffffffffffffffffffffffffffffffffffffffff166108fc829081150290604051600060405180830381858888f19350505050158015610318573d6000803e3d6000fd5b5062015180426103289190610bfb565b600160008473ffffffffffffffffffffffffffffffffffffffff1673ffffffffffffffffffffffffffffffffffffffff168152602001908152602001600020819055505050565b6000803373ffffffffffffffffffffffffffffffffffffffff1673ffffffffffffffffffffffffffffffffffffffff16815260200190815260200160002060009054906101000a900460ff166103fa576040517f08c379a00000000000000000000000000000000000000000000000000000000081526004016103f190610ad4565b60405180910390fd5b60008060008373ffffffffffffffffffffffffffffffffffffffff1673ffffffffffffffffffffffffffffffffffffffff16815260200190815260200160002060006101000a81548160ff02191690831515021790555050565b6000803373ffffffffffffffffffffffffffffffffffffffff1673ffffffffffffffffffffffffffffffffffffffff16815260200190815260200160002060009054906101000a900460ff166104df576040517f08c379a00000000000000000000000000000000000000000000000000000000081526004016104d690610ad4565b60405180910390fd5b60005b8282905081101561052e5761051d83838381811061050357610502610c2f565b5b90506020020160208101906105189190610905565b610533565b8061052790610c5e565b90506104e2565b505050565b6000803373ffffffffffffffffffffffffffffffffffffffff1673ffffffffffffffffffffffffffffffffffffffff16815260200190815260200160002060009054906101000a900460ff166105be576040517f08c379a00000000000000000000000000000000000000000000000000000000081526004016105b590610ad4565b60405180910390fd5b60016000808373ffffffffffffffffffffffffffffffffffffffff1673ffffffffffffffffffffffffffffffffffffffff16815260200190815260200160002060006101000a81548160ff02191690831515021790555050565b6000803373ffffffffffffffffffffffffffffffffffffffff1673ffffffffffffffffffffffffffffffffffffffff16815260200190815260200160002060009054906101000a900460ff166106a3576040517f08c379a000000000000000000000000000000000000000000000000000000000815260040161069a90610ad4565b60405180910390fd5b81600281905550806003819055505050565b6000803373ffffffffffffffffffffffffffffffffffffffff1673ffffffffffffffffffffffffffffffffffffffff16815260200190815260200160002060009054906101000a900460ff16610740576040517f08c379a000000000000000000000000000000000000000000000000000000000815260040161073790610ad4565b60405180910390fd5b61074c81600254610182565b50565b6000803373ffffffffffffffffffffffffffffffffffffffff1673ffffffffffffffffffffffffffffffffffffffff16815260200190815260200160002060009054906101000a900460ff166107da576040517f08c379a00000000000000000000000000000000000000000000000000000000081526004016107d190610ad4565b60405180910390fd5b6107e681600354610182565b50565b600080fd5b600080fd5b600073ffffffffffffffffffffffffffffffffffffffff82169050919050565b600061081e826107f3565b9050919050565b61082e81610813565b811461083957600080fd5b50565b60008135905061084b81610825565b92915050565b6000819050919050565b61086481610851565b811461086f57600080fd5b50565b6000813590506108818161085b565b92915050565b6000806040838503121561089e5761089d6107e9565b5b60006108ac8582860161083c565b92505060206108bd85828601610872565b9150509250929050565b60006108d2826107f3565b9050919050565b6108e2816108c7565b81146108ed57600080fd5b50565b6000813590506108ff816108d9565b92915050565b60006020828403121561091b5761091a6107e9565b5b6000610929848285016108f0565b91505092915050565b600080fd5b600080fd5b600080fd5b60008083601f84011261095757610956610932565b5b8235905067ffffffffffffffff81111561097457610973610937565b5b6020830191508360208202830111156109905761098f61093c565b5b9250929050565b600080602083850312156109ae576109ad6107e9565b5b600083013567ffffffffffffffff8111156109cc576109cb6107ee565b5b6109d885828601610941565b92509250509250929050565b600080604083850312156109fb576109fa6107e9565b5b6000610a0985828601610872565b9250506020610a1a85828601610872565b9150509250929050565b600060208284031215610a3a57610a396107e9565b5b6000610a488482850161083c565b91505092915050565b600082825260208201905092915050565b7f4f6e6c792061646d696e206164647265737365732063616e2063616c6c20746860008201527f69732066756e6374696f6e000000000000000000000000000000000000000000602082015250565b6000610abe602b83610a51565b9150610ac982610a62565b604082019050919050565b60006020820190508181036000830152610aed81610ab1565b9050919050565b7f4e6f7420656e6f7567682066756e647320696e20746865206661756365740000600082015250565b6000610b2a601e83610a51565b9150610b3582610af4565b602082019050919050565b60006020820190508181036000830152610b5981610b1d565b9050919050565b7f546f6f206672657175656e7420746f6b656e2072657175657374730000000000600082015250565b6000610b96601b83610a51565b9150610ba182610b60565b602082019050919050565b60006020820190508181036000830152610bc581610b89565b9050919050565b7f4e487b7100000000000000000000000000000000000000000000000000000000600052601160045260246000fd5b6000610c0682610851565b9150610c1183610851565b9250828201905080821115610c2957610c28610bcc565b5b92915050565b7f4e487b7100000000000000000000000000000000000000000000000000000000600052603260045260246000fd5b6000610c6982610851565b91507fffffffffffffffffffffffffffffffffffffffffffffffffffffffffffffffff8203610c9b57610c9a610bcc565b5b60018201905091905056fea2646970667358221220b367776771310daf05ac91c180770d4fe5c7d0bf64641f857afb03629c67271f64736f6c63430008110033",
  "linkReferences": {},
  "deployedLinkReferences": {}
}