{
  "_format": "hh-sol-artifact-1",
  "contractName": "Faucet",
  "sourceName": "contracts/logic/Faucet.sol",
  "abi": [
    {
      "stateMutability": "payable",
      "type": "fallback"
    },
    {
      "inputs": [
        {
          "internalType": "address",
          "name": "_address",
          "type": "address"
        }
      ],
      "name": "addAdmin",
      "outputs": [],
      "stateMutability": "nonpayable",
      "type": "function"
    },
    {
      "inputs": [
        {
          "internalType": "address[]",
          "name": "addresses",
          "type": "address[]"
        }
      ],
      "name": "batchAddAdmin",
      "outputs": [],
      "stateMutability": "nonpayable",
      "type": "function"
    },
    {
      "inputs": [
        {
          "internalType": "address",
          "name": "_address",
          "type": "address"
        }
      ],
      "name": "isAdmin",
      "outputs": [
        {
          "internalType": "bool",
          "name": "",
          "type": "bool"
        }
      ],
      "stateMutability": "view",
      "type": "function"
    },
    {
      "inputs": [
        {
          "internalType": "address",
          "name": "_address",
          "type": "address"
        }
      ],
      "name": "removeAdmin",
      "outputs": [],
      "stateMutability": "nonpayable",
      "type": "function"
    },
    {
      "inputs": [
        {
          "internalType": "address payable",
          "name": "toAddress",
          "type": "address"
        }
      ],
      "name": "sendFullAmountTokens",
      "outputs": [],
      "stateMutability": "payable",
      "type": "function"
    },
    {
      "inputs": [
        {
          "internalType": "address payable",
          "name": "toAddress",
          "type": "address"
        }
      ],
      "name": "sendInitialAmountTokens",
      "outputs": [],
      "stateMutability": "payable",
      "type": "function"
    },
    {
      "inputs": [
        {
          "internalType": "address payable",
          "name": "addressToAllocateTo",
          "type": "address"
        },
        {
          "internalType": "uint256",
          "name": "amount",
          "type": "uint256"
        }
      ],
      "name": "sendTokens",
      "outputs": [],
      "stateMutability": "nonpayable",
      "type": "function"
    },
    {
      "inputs": [
        {
          "internalType": "uint256",
          "name": "_initialAmount",
          "type": "uint256"
        },
        {
          "internalType": "uint256",
          "name": "_fullAmount",
          "type": "uint256"
        }
      ],
      "name": "setAmounts",
      "outputs": [],
      "stateMutability": "nonpayable",
      "type": "function"
    },
    {
      "stateMutability": "payable",
      "type": "receive"
    }
  ],
  "bytecode": "0x608060405267016345785d8a0000600255670de0b6b3a764000060035534801561002857600080fd5b5060016000803373ffffffffffffffffffffffffffffffffffffffff1673ffffffffffffffffffffffffffffffffffffffff16815260200190815260200160002060006101000a81548160ff021916908315150217905550610daf8061008f6000396000f3fe60806040526004361061007f5760003560e01c8063704802751161004e5780637048027514610140578063983234b614610169578063b21224a914610192578063fbb013f1146101ae57610086565b806305ab421d146100885780631785f53c146100b157806324d7806c146100da5780632c9ab42b1461011757610086565b3661008657005b005b34801561009457600080fd5b506100af60048036038101906100aa9190610924565b6101ca565b005b3480156100bd57600080fd5b506100d860048036038101906100d391906109a2565b6102e3565b005b3480156100e657600080fd5b5061010160048036038101906100fc91906109a2565b6103c8565b60405161010e91906109ea565b60405180910390f35b34801561012357600080fd5b5061013e60048036038101906101399190610a6a565b61041d565b005b34801561014c57600080fd5b50610167600480360381019061016291906109a2565b6104fc565b005b34801561017557600080fd5b50610190600480360381019061018b9190610ab7565b6105e1565b005b6101ac60048036038101906101a79190610af7565b61067e565b005b6101c860048036038101906101c39190610af7565b610718565b005b6000803373ffffffffffffffffffffffffffffffffffffffff1673ffffffffffffffffffffffffffffffffffffffff16815260200190815260200160002060009054906101000a900460ff16610255576040517f08c379a000000000000000000000000000000000000000000000000000000000815260040161024c90610ba7565b60405180910390fd5b80471015610298576040517f08c379a000000000000000000000000000000000000000000000000000000000815260040161028f90610c13565b60405180910390fd5b8173ffffffffffffffffffffffffffffffffffffffff166108fc829081150290604051600060405180830381858888f193505050501580156102de573d6000803e3d6000fd5b505050565b6000803373ffffffffffffffffffffffffffffffffffffffff1673ffffffffffffffffffffffffffffffffffffffff16815260200190815260200160002060009054906101000a900460ff1661036e576040517f08c379a000000000000000000000000000000000000000000000000000000000815260040161036590610ba7565b60405180910390fd5b60008060008373ffffffffffffffffffffffffffffffffffffffff1673ffffffffffffffffffffffffffffffffffffffff16815260200190815260200160002060006101000a81548160ff02191690831515021790555050565b60008060008373ffffffffffffffffffffffffffffffffffffffff1673ffffffffffffffffffffffffffffffffffffffff16815260200190815260200160002060009054906101000a900460ff169050919050565b6000803373ffffffffffffffffffffffffffffffffffffffff1673ffffffffffffffffffffffffffffffffffffffff16815260200190815260200160002060009054906101000a900460ff166104a8576040517f08c379a000000000000000000000000000000000000000000000000000000000815260040161049f90610ba7565b60405180910390fd5b60005b828290508110156104f7576104e68383838181106104cc576104cb610c33565b5b90506020020160208101906104e191906109a2565b6104fc565b806104f090610c91565b90506104ab565b505050565b6000803373ffffffffffffffffffffffffffffffffffffffff1673ffffffffffffffffffffffffffffffffffffffff16815260200190815260200160002060009054906101000a900460ff16610587576040517f08c379a000000000000000000000000000000000000000000000000000000000815260040161057e90610ba7565b60405180910390fd5b60016000808373ffffffffffffffffffffffffffffffffffffffff1673ffffffffffffffffffffffffffffffffffffffff16815260200190815260200160002060006101000a81548160ff02191690831515021790555050565b6000803373ffffffffffffffffffffffffffffffffffffffff1673ffffffffffffffffffffffffffffffffffffffff16815260200190815260200160002060009054906101000a900460ff1661066c576040517f08c379a000000000000000000000000000000000000000000000000000000000815260040161066390610ba7565b60405180910390fd5b81600281905550806003819055505050565b6000803373ffffffffffffffffffffffffffffffffffffffff1673ffffffffffffffffffffffffffffffffffffffff16815260200190815260200160002060009054906101000a900460ff16610709576040517f08c379a000000000000000000000000000000000000000000000000000000000815260040161070090610ba7565b60405180910390fd5b610715816002546101ca565b50565b6000803373ffffffffffffffffffffffffffffffffffffffff1673ffffffffffffffffffffffffffffffffffffffff16815260200190815260200160002060009054906101000a900460ff166107a3576040517f08c379a000000000000000000000000000000000000000000000000000000000815260040161079a90610ba7565b60405180910390fd5b600160008273ffffffffffffffffffffffffffffffffffffffff1673ffffffffffffffffffffffffffffffffffffffff16815260200190815260200160002054421015610825576040517f08c379a000000000000000000000000000000000000000000000000000000000815260040161081c90610d25565b60405180910390fd5b610831816003546101ca565b62015180426108409190610d45565b600160008373ffffffffffffffffffffffffffffffffffffffff1673ffffffffffffffffffffffffffffffffffffffff1681526020019081526020016000208190555050565b600080fd5b600080fd5b600073ffffffffffffffffffffffffffffffffffffffff82169050919050565b60006108bb82610890565b9050919050565b6108cb816108b0565b81146108d657600080fd5b50565b6000813590506108e8816108c2565b92915050565b6000819050919050565b610901816108ee565b811461090c57600080fd5b50565b60008135905061091e816108f8565b92915050565b6000806040838503121561093b5761093a610886565b5b6000610949858286016108d9565b925050602061095a8582860161090f565b9150509250929050565b600061096f82610890565b9050919050565b61097f81610964565b811461098a57600080fd5b50565b60008135905061099c81610976565b92915050565b6000602082840312156109b8576109b7610886565b5b60006109c68482850161098d565b91505092915050565b60008115159050919050565b6109e4816109cf565b82525050565b60006020820190506109ff60008301846109db565b92915050565b600080fd5b600080fd5b600080fd5b60008083601f840112610a2a57610a29610a05565b5b8235905067ffffffffffffffff811115610a4757610a46610a0a565b5b602083019150836020820283011115610a6357610a62610a0f565b5b9250929050565b60008060208385031215610a8157610a80610886565b5b600083013567ffffffffffffffff811115610a9f57610a9e61088b565b5b610aab85828601610a14565b92509250509250929050565b60008060408385031215610ace57610acd610886565b5b6000610adc8582860161090f565b9250506020610aed8582860161090f565b9150509250929050565b600060208284031215610b0d57610b0c610886565b5b6000610b1b848285016108d9565b91505092915050565b600082825260208201905092915050565b7f4f6e6c792061646d696e206164647265737365732063616e2063616c6c20746860008201527f69732066756e6374696f6e000000000000000000000000000000000000000000602082015250565b6000610b91602b83610b24565b9150610b9c82610b35565b604082019050919050565b60006020820190508181036000830152610bc081610b84565b9050919050565b7f4e6f7420656e6f7567682066756e647320696e20746865206661756365740000600082015250565b6000610bfd601e83610b24565b9150610c0882610bc7565b602082019050919050565b60006020820190508181036000830152610c2c81610bf0565b9050919050565b7f4e487b7100000000000000000000000000000000000000000000000000000000600052603260045260246000fd5b7f4e487b7100000000000000000000000000000000000000000000000000000000600052601160045260246000fd5b6000610c9c826108ee565b91507fffffffffffffffffffffffffffffffffffffffffffffffffffffffffffffffff8203610cce57610ccd610c62565b5b600182019050919050565b7f546f6f206672657175656e7420746f6b656e2072657175657374730000000000600082015250565b6000610d0f601b83610b24565b9150610d1a82610cd9565b602082019050919050565b60006020820190508181036000830152610d3e81610d02565b9050919050565b6000610d50826108ee565b9150610d5b836108ee565b9250828201905080821115610d7357610d72610c62565b5b9291505056fea264697066735822122002e571ff073616059476cac5be9708802c86881717419bf9bbb55f5c460846f364736f6c63430008110033",
  "linkReferences": {},
  "deployedLinkReferences": {}
}