{
  "_format": "hh-sol-artifact-1",
  "contractName": "Faucet",
  "sourceName": "contracts/logic/Faucet.sol",
  "abi": [
    {
      "stateMutability": "payable",
      "type": "fallback"
    },
    {
      "inputs": [
        {
          "internalType": "address",
          "name": "_address",
          "type": "address"
        }
      ],
      "name": "addAdmin",
      "outputs": [],
      "stateMutability": "nonpayable",
      "type": "function"
    },
    {
      "inputs": [
        {
          "internalType": "address[]",
          "name": "addresses",
          "type": "address[]"
        }
      ],
      "name": "batchAddAdmin",
      "outputs": [],
      "stateMutability": "nonpayable",
      "type": "function"
    },
    {
      "inputs": [],
      "name": "isSenderAdmin",
      "outputs": [
        {
          "internalType": "bool",
          "name": "",
          "type": "bool"
        }
      ],
      "stateMutability": "view",
      "type": "function"
    },
    {
      "inputs": [
        {
          "internalType": "address",
          "name": "_address",
          "type": "address"
        }
      ],
      "name": "removeAdmin",
      "outputs": [],
      "stateMutability": "nonpayable",
      "type": "function"
    },
    {
      "inputs": [
        {
          "internalType": "address payable",
          "name": "toAddress",
          "type": "address"
        }
      ],
      "name": "sendFullAmountTokens",
      "outputs": [],
      "stateMutability": "payable",
      "type": "function"
    },
    {
      "inputs": [
        {
          "internalType": "address payable",
          "name": "toAddress",
          "type": "address"
        }
      ],
      "name": "sendInitialAmountTokens",
      "outputs": [],
      "stateMutability": "payable",
      "type": "function"
    },
    {
      "inputs": [
        {
          "internalType": "address payable",
          "name": "addressToAllocateTo",
          "type": "address"
        },
        {
          "internalType": "uint256",
          "name": "amount",
          "type": "uint256"
        }
      ],
      "name": "sendTokens",
      "outputs": [],
      "stateMutability": "nonpayable",
      "type": "function"
    },
    {
      "inputs": [
        {
          "internalType": "uint256",
          "name": "_initialAmount",
          "type": "uint256"
        },
        {
          "internalType": "uint256",
          "name": "_fullAmount",
          "type": "uint256"
        }
      ],
      "name": "setAmounts",
      "outputs": [],
      "stateMutability": "nonpayable",
      "type": "function"
    },
    {
      "stateMutability": "payable",
      "type": "receive"
    }
  ],
  "bytecode": "0x608060405267016345785d8a0000600255670de0b6b3a764000060035534801561002857600080fd5b5060016000803373ffffffffffffffffffffffffffffffffffffffff1673ffffffffffffffffffffffffffffffffffffffff16815260200190815260200160002060006101000a81548160ff021916908315150217905550610d9b8061008f6000396000f3fe60806040526004361061007f5760003560e01c8063704802751161004e578063704802751461012e578063983234b614610157578063b21224a914610180578063fbb013f11461019c57610086565b806305ab421d146100885780631785f53c146100b15780631d0d4e8b146100da5780632c9ab42b1461010557610086565b3661008657005b005b34801561009457600080fd5b506100af60048036038101906100aa9190610910565b6101b8565b005b3480156100bd57600080fd5b506100d860048036038101906100d3919061098e565b6102d1565b005b3480156100e657600080fd5b506100ef6103b6565b6040516100fc91906109d6565b60405180910390f35b34801561011157600080fd5b5061012c60048036038101906101279190610a56565b610409565b005b34801561013a57600080fd5b506101556004803603810190610150919061098e565b6104e8565b005b34801561016357600080fd5b5061017e60048036038101906101799190610aa3565b6105cd565b005b61019a60048036038101906101959190610ae3565b61066a565b005b6101b660048036038101906101b19190610ae3565b610704565b005b6000803373ffffffffffffffffffffffffffffffffffffffff1673ffffffffffffffffffffffffffffffffffffffff16815260200190815260200160002060009054906101000a900460ff16610243576040517f08c379a000000000000000000000000000000000000000000000000000000000815260040161023a90610b93565b60405180910390fd5b80471015610286576040517f08c379a000000000000000000000000000000000000000000000000000000000815260040161027d90610bff565b60405180910390fd5b8173ffffffffffffffffffffffffffffffffffffffff166108fc829081150290604051600060405180830381858888f193505050501580156102cc573d6000803e3d6000fd5b505050565b6000803373ffffffffffffffffffffffffffffffffffffffff1673ffffffffffffffffffffffffffffffffffffffff16815260200190815260200160002060009054906101000a900460ff1661035c576040517f08c379a000000000000000000000000000000000000000000000000000000000815260040161035390610b93565b60405180910390fd5b60008060008373ffffffffffffffffffffffffffffffffffffffff1673ffffffffffffffffffffffffffffffffffffffff16815260200190815260200160002060006101000a81548160ff02191690831515021790555050565b60008060003373ffffffffffffffffffffffffffffffffffffffff1673ffffffffffffffffffffffffffffffffffffffff16815260200190815260200160002060009054906101000a900460ff16905090565b6000803373ffffffffffffffffffffffffffffffffffffffff1673ffffffffffffffffffffffffffffffffffffffff16815260200190815260200160002060009054906101000a900460ff16610494576040517f08c379a000000000000000000000000000000000000000000000000000000000815260040161048b90610b93565b60405180910390fd5b60005b828290508110156104e3576104d28383838181106104b8576104b7610c1f565b5b90506020020160208101906104cd919061098e565b6104e8565b806104dc90610c7d565b9050610497565b505050565b6000803373ffffffffffffffffffffffffffffffffffffffff1673ffffffffffffffffffffffffffffffffffffffff16815260200190815260200160002060009054906101000a900460ff16610573576040517f08c379a000000000000000000000000000000000000000000000000000000000815260040161056a90610b93565b60405180910390fd5b60016000808373ffffffffffffffffffffffffffffffffffffffff1673ffffffffffffffffffffffffffffffffffffffff16815260200190815260200160002060006101000a81548160ff02191690831515021790555050565b6000803373ffffffffffffffffffffffffffffffffffffffff1673ffffffffffffffffffffffffffffffffffffffff16815260200190815260200160002060009054906101000a900460ff16610658576040517f08c379a000000000000000000000000000000000000000000000000000000000815260040161064f90610b93565b60405180910390fd5b81600281905550806003819055505050565b6000803373ffffffffffffffffffffffffffffffffffffffff1673ffffffffffffffffffffffffffffffffffffffff16815260200190815260200160002060009054906101000a900460ff166106f5576040517f08c379a00000000000000000000000000000000000000000000000000000000081526004016106ec90610b93565b60405180910390fd5b610701816002546101b8565b50565b6000803373ffffffffffffffffffffffffffffffffffffffff1673ffffffffffffffffffffffffffffffffffffffff16815260200190815260200160002060009054906101000a900460ff1661078f576040517f08c379a000000000000000000000000000000000000000000000000000000000815260040161078690610b93565b60405180910390fd5b600160008273ffffffffffffffffffffffffffffffffffffffff1673ffffffffffffffffffffffffffffffffffffffff16815260200190815260200160002054421015610811576040517f08c379a000000000000000000000000000000000000000000000000000000000815260040161080890610d11565b60405180910390fd5b61081d816003546101b8565b620151804261082c9190610d31565b600160008373ffffffffffffffffffffffffffffffffffffffff1673ffffffffffffffffffffffffffffffffffffffff1681526020019081526020016000208190555050565b600080fd5b600080fd5b600073ffffffffffffffffffffffffffffffffffffffff82169050919050565b60006108a78261087c565b9050919050565b6108b78161089c565b81146108c257600080fd5b50565b6000813590506108d4816108ae565b92915050565b6000819050919050565b6108ed816108da565b81146108f857600080fd5b50565b60008135905061090a816108e4565b92915050565b6000806040838503121561092757610926610872565b5b6000610935858286016108c5565b9250506020610946858286016108fb565b9150509250929050565b600061095b8261087c565b9050919050565b61096b81610950565b811461097657600080fd5b50565b60008135905061098881610962565b92915050565b6000602082840312156109a4576109a3610872565b5b60006109b284828501610979565b91505092915050565b60008115159050919050565b6109d0816109bb565b82525050565b60006020820190506109eb60008301846109c7565b92915050565b600080fd5b600080fd5b600080fd5b60008083601f840112610a1657610a156109f1565b5b8235905067ffffffffffffffff811115610a3357610a326109f6565b5b602083019150836020820283011115610a4f57610a4e6109fb565b5b9250929050565b60008060208385031215610a6d57610a6c610872565b5b600083013567ffffffffffffffff811115610a8b57610a8a610877565b5b610a9785828601610a00565b92509250509250929050565b60008060408385031215610aba57610ab9610872565b5b6000610ac8858286016108fb565b9250506020610ad9858286016108fb565b9150509250929050565b600060208284031215610af957610af8610872565b5b6000610b07848285016108c5565b91505092915050565b600082825260208201905092915050565b7f4f6e6c792061646d696e206164647265737365732063616e2063616c6c20746860008201527f69732066756e6374696f6e000000000000000000000000000000000000000000602082015250565b6000610b7d602b83610b10565b9150610b8882610b21565b604082019050919050565b60006020820190508181036000830152610bac81610b70565b9050919050565b7f4e6f7420656e6f7567682066756e647320696e20746865206661756365740000600082015250565b6000610be9601e83610b10565b9150610bf482610bb3565b602082019050919050565b60006020820190508181036000830152610c1881610bdc565b9050919050565b7f4e487b7100000000000000000000000000000000000000000000000000000000600052603260045260246000fd5b7f4e487b7100000000000000000000000000000000000000000000000000000000600052601160045260246000fd5b6000610c88826108da565b91507fffffffffffffffffffffffffffffffffffffffffffffffffffffffffffffffff8203610cba57610cb9610c4e565b5b600182019050919050565b7f546f6f206672657175656e7420746f6b656e2072657175657374730000000000600082015250565b6000610cfb601b83610b10565b9150610d0682610cc5565b602082019050919050565b60006020820190508181036000830152610d2a81610cee565b9050919050565b6000610d3c826108da565b9150610d47836108da565b9250828201905080821115610d5f57610d5e610c4e565b5b9291505056fea264697066735822122038815ad0986edd1783d4a250560136a04ab9cef1e5bc305fd497b371fbda3eab64736f6c63430008110033",
  "linkReferences": {},
  "deployedLinkReferences": {}
}