{
  "_format": "hh-sol-artifact-1",
  "contractName": "UserView",
  "sourceName": "contracts/view/UserView.sol",
  "abi": [
    {
      "inputs": [
        {
          "internalType": "address",
          "name": "addressBookAddress",
          "type": "address"
        }
      ],
      "stateMutability": "nonpayable",
      "type": "constructor"
    },
    {
      "inputs": [],
      "name": "getAllUsers",
      "outputs": [
        {
          "components": [
            {
              "internalType": "uint256",
              "name": "uId",
              "type": "uint256"
            },
            {
              "components": [
                {
                  "internalType": "string",
                  "name": "firstName",
                  "type": "string"
                },
                {
                  "internalType": "string",
                  "name": "lastName",
                  "type": "string"
                },
                {
                  "internalType": "enum UserDataTypes.Gender",
                  "name": "gender",
                  "type": "uint8"
                },
                {
                  "components": [
                    {
                      "internalType": "uint256",
                      "name": "year",
                      "type": "uint256"
                    },
                    {
                      "internalType": "uint256",
                      "name": "month",
                      "type": "uint256"
                    },
                    {
                      "internalType": "uint256",
                      "name": "day",
                      "type": "uint256"
                    }
                  ],
                  "internalType": "struct UserDataTypes.Date",
                  "name": "dateOfBirth",
                  "type": "tuple"
                },
                {
                  "internalType": "string",
                  "name": "nationality",
                  "type": "string"
                },
                {
                  "internalType": "string",
                  "name": "phoneNumber",
                  "type": "string"
                },
                {
                  "internalType": "string",
                  "name": "emailAddress",
                  "type": "string"
                },
                {
                  "internalType": "enum UserDataTypes.UserRole",
                  "name": "role",
                  "type": "uint8"
                },
                {
                  "internalType": "uint256[]",
                  "name": "studyProgramIds",
                  "type": "uint256[]"
                }
              ],
              "internalType": "struct UserDataTypes.UserProfile",
              "name": "profile",
              "type": "tuple"
            }
          ],
          "internalType": "struct UserDataTypes.User[]",
          "name": "",
          "type": "tuple[]"
        }
      ],
      "stateMutability": "view",
      "type": "function"
    },
    {
      "inputs": [],
      "name": "getPendingRegistration",
      "outputs": [
        {
          "components": [
            {
              "internalType": "address",
              "name": "userAddress",
              "type": "address"
            },
            {
              "internalType": "enum UserDataTypes.RegistrationStatus",
              "name": "status",
              "type": "uint8"
            },
            {
              "components": [
                {
                  "internalType": "string",
                  "name": "firstName",
                  "type": "string"
                },
                {
                  "internalType": "string",
                  "name": "lastName",
                  "type": "string"
                },
                {
                  "internalType": "enum UserDataTypes.Gender",
                  "name": "gender",
                  "type": "uint8"
                },
                {
                  "components": [
                    {
                      "internalType": "uint256",
                      "name": "year",
                      "type": "uint256"
                    },
                    {
                      "internalType": "uint256",
                      "name": "month",
                      "type": "uint256"
                    },
                    {
                      "internalType": "uint256",
                      "name": "day",
                      "type": "uint256"
                    }
                  ],
                  "internalType": "struct UserDataTypes.Date",
                  "name": "dateOfBirth",
                  "type": "tuple"
                },
                {
                  "internalType": "string",
                  "name": "nationality",
                  "type": "string"
                },
                {
                  "internalType": "string",
                  "name": "phoneNumber",
                  "type": "string"
                },
                {
                  "internalType": "string",
                  "name": "emailAddress",
                  "type": "string"
                },
                {
                  "internalType": "enum UserDataTypes.UserRole",
                  "name": "role",
                  "type": "uint8"
                },
                {
                  "internalType": "uint256[]",
                  "name": "studyProgramIds",
                  "type": "uint256[]"
                }
              ],
              "internalType": "struct UserDataTypes.UserProfile",
              "name": "profile",
              "type": "tuple"
            }
          ],
          "internalType": "struct UserDataTypes.Registration",
          "name": "",
          "type": "tuple"
        }
      ],
      "stateMutability": "view",
      "type": "function"
    },
    {
      "inputs": [],
      "name": "getPendingRegistrations",
      "outputs": [
        {
          "components": [
            {
              "internalType": "address",
              "name": "userAddress",
              "type": "address"
            },
            {
              "internalType": "enum UserDataTypes.RegistrationStatus",
              "name": "status",
              "type": "uint8"
            },
            {
              "components": [
                {
                  "internalType": "string",
                  "name": "firstName",
                  "type": "string"
                },
                {
                  "internalType": "string",
                  "name": "lastName",
                  "type": "string"
                },
                {
                  "internalType": "enum UserDataTypes.Gender",
                  "name": "gender",
                  "type": "uint8"
                },
                {
                  "components": [
                    {
                      "internalType": "uint256",
                      "name": "year",
                      "type": "uint256"
                    },
                    {
                      "internalType": "uint256",
                      "name": "month",
                      "type": "uint256"
                    },
                    {
                      "internalType": "uint256",
                      "name": "day",
                      "type": "uint256"
                    }
                  ],
                  "internalType": "struct UserDataTypes.Date",
                  "name": "dateOfBirth",
                  "type": "tuple"
                },
                {
                  "internalType": "string",
                  "name": "nationality",
                  "type": "string"
                },
                {
                  "internalType": "string",
                  "name": "phoneNumber",
                  "type": "string"
                },
                {
                  "internalType": "string",
                  "name": "emailAddress",
                  "type": "string"
                },
                {
                  "internalType": "enum UserDataTypes.UserRole",
                  "name": "role",
                  "type": "uint8"
                },
                {
                  "internalType": "uint256[]",
                  "name": "studyProgramIds",
                  "type": "uint256[]"
                }
              ],
              "internalType": "struct UserDataTypes.UserProfile",
              "name": "profile",
              "type": "tuple"
            }
          ],
          "internalType": "struct UserDataTypes.Registration[]",
          "name": "",
          "type": "tuple[]"
        }
      ],
      "stateMutability": "view",
      "type": "function"
    },
    {
      "inputs": [],
      "name": "getProfile",
      "outputs": [
        {
          "components": [
            {
              "internalType": "string",
              "name": "firstName",
              "type": "string"
            },
            {
              "internalType": "string",
              "name": "lastName",
              "type": "string"
            },
            {
              "internalType": "enum UserDataTypes.Gender",
              "name": "gender",
              "type": "uint8"
            },
            {
              "components": [
                {
                  "internalType": "uint256",
                  "name": "year",
                  "type": "uint256"
                },
                {
                  "internalType": "uint256",
                  "name": "month",
                  "type": "uint256"
                },
                {
                  "internalType": "uint256",
                  "name": "day",
                  "type": "uint256"
                }
              ],
              "internalType": "struct UserDataTypes.Date",
              "name": "dateOfBirth",
              "type": "tuple"
            },
            {
              "internalType": "string",
              "name": "nationality",
              "type": "string"
            },
            {
              "internalType": "string",
              "name": "phoneNumber",
              "type": "string"
            },
            {
              "internalType": "string",
              "name": "emailAddress",
              "type": "string"
            },
            {
              "internalType": "enum UserDataTypes.UserRole",
              "name": "role",
              "type": "uint8"
            },
            {
              "internalType": "uint256[]",
              "name": "studyProgramIds",
              "type": "uint256[]"
            }
          ],
          "internalType": "struct UserDataTypes.UserProfile",
          "name": "",
          "type": "tuple"
        }
      ],
      "stateMutability": "view",
      "type": "function"
    },
    {
      "inputs": [],
      "name": "isUserRegistered",
      "outputs": [
        {
          "internalType": "bool",
          "name": "",
          "type": "bool"
        }
      ],
      "stateMutability": "view",
      "type": "function"
    },
    {
      "inputs": [],
      "name": "isUserRegistrationPending",
      "outputs": [
        {
          "internalType": "bool",
          "name": "",
          "type": "bool"
        }
      ],
      "stateMutability": "view",
      "type": "function"
    }
  ],
  "bytecode": "0x60806040523480156200001157600080fd5b5060405162001f6038038062001f608339818101604052810190620000379190620000ec565b8080806000806101000a81548173ffffffffffffffffffffffffffffffffffffffff021916908373ffffffffffffffffffffffffffffffffffffffff1602179055505050506200011e565b600080fd5b600073ffffffffffffffffffffffffffffffffffffffff82169050919050565b6000620000b48262000087565b9050919050565b620000c681620000a7565b8114620000d257600080fd5b50565b600081519050620000e681620000bb565b92915050565b60006020828403121562000105576200010462000082565b5b60006200011584828501620000d5565b91505092915050565b611e32806200012e6000396000f3fe608060405234801561001057600080fd5b50600436106100625760003560e01c806320f3665614610067578063873138f3146100855780638f0306e6146100a35780639dedeb82146100c1578063d6afc9b1146100df578063e2842d79146100fd575b600080fd5b61006f61011b565b60405161007c9190610a77565b60405180910390f35b61008d6101a3565b60405161009a9190610a77565b60405180910390f35b6100ab61022b565b6040516100b89190610eae565b60405180910390f35b6100c96102be565b6040516100d69190610fe2565b60405180910390f35b6100e761042e565b6040516100f491906110ee565b60405180910390f35b61010561054f565b604051610112919061120f565b60405180910390f35b600061012561076e565b73ffffffffffffffffffffffffffffffffffffffff16632ad7397e336040518263ffffffff1660e01b815260040161015d9190611240565b602060405180830381865afa15801561017a573d6000803e3d6000fd5b505050506040513d601f19601f8201168201806040525081019061019e919061129b565b905090565b60006101ad610811565b73ffffffffffffffffffffffffffffffffffffffff166338b6a3a1336040518263ffffffff1660e01b81526004016101e59190611240565b602060405180830381865afa158015610202573d6000803e3d6000fd5b505050506040513d601f19601f82011682018060405250810190610226919061129b565b905090565b610233610976565b61023b61076e565b73ffffffffffffffffffffffffffffffffffffffff1663f5bf01fb336040518263ffffffff1660e01b81526004016102739190611240565b600060405180830381865afa158015610290573d6000803e3d6000fd5b505050506040513d6000823e3d601f19601f820116820180604052508101906102b991906117f5565b905090565b60606102c86108b4565b6002808111156102db576102da610ad3565b5b6102e3610811565b73ffffffffffffffffffffffffffffffffffffffff1663dd8b2914336040518263ffffffff1660e01b815260040161031b9190611240565b602060405180830381865afa158015610338573d6000803e3d6000fd5b505050506040513d601f19601f8201168201806040525081019061035c919061183e565b600281111561036e5761036d610ad3565b5b146103ae576040517f08c379a00000000000000000000000000000000000000000000000000000000081526004016103a5906118ee565b60405180910390fd5b6103b661076e565b73ffffffffffffffffffffffffffffffffffffffff1663745fb1296040518163ffffffff1660e01b8152600401600060405180830381865afa158015610400573d6000803e3d6000fd5b505050506040513d6000823e3d601f19601f8201168201806040525081019061042991906119ef565b905090565b6104366109c5565b61043e6108b4565b6000610448610811565b73ffffffffffffffffffffffffffffffffffffffff1663e3d7e14c336040518263ffffffff1660e01b81526004016104809190611240565b602060405180830381865afa15801561049d573d6000803e3d6000fd5b505050506040513d601f19601f820116820180604052508101906104c19190611a38565b90506104cb610811565b73ffffffffffffffffffffffffffffffffffffffff1663f08f4f64826040518263ffffffff1660e01b81526004016105039190611a74565b600060405180830381865afa158015610520573d6000803e3d6000fd5b505050506040513d6000823e3d601f19601f820116820180604052508101906105499190611a8f565b91505090565b60606105596108b4565b6001600281111561056d5761056c610ad3565b5b610575610811565b73ffffffffffffffffffffffffffffffffffffffff1663dd8b2914336040518263ffffffff1660e01b81526004016105ad9190611240565b602060405180830381865afa1580156105ca573d6000803e3d6000fd5b505050506040513d601f19601f820116820180604052508101906105ee919061183e565b6002811115610600576105ff610ad3565b5b14806106af575060028081111561061a57610619610ad3565b5b610622610811565b73ffffffffffffffffffffffffffffffffffffffff1663dd8b2914336040518263ffffffff1660e01b815260040161065a9190611240565b602060405180830381865afa158015610677573d6000803e3d6000fd5b505050506040513d601f19601f8201168201806040525081019061069b919061183e565b60028111156106ad576106ac610ad3565b5b145b6106ee576040517f08c379a00000000000000000000000000000000000000000000000000000000081526004016106e590611b4a565b60405180910390fd5b6106f6610811565b73ffffffffffffffffffffffffffffffffffffffff1663e2842d796040518163ffffffff1660e01b8152600401600060405180830381865afa158015610740573d6000803e3d6000fd5b505050506040513d6000823e3d601f19601f820116820180604052508101906107699190611cb7565b905090565b60008060009054906101000a900473ffffffffffffffffffffffffffffffffffffffff1673ffffffffffffffffffffffffffffffffffffffff1663bcaa0c5560056040518263ffffffff1660e01b81526004016107cb9190611d48565b602060405180830381865afa1580156107e8573d6000803e3d6000fd5b505050506040513d601f19601f8201168201806040525081019061080c9190611d63565b905090565b60008060009054906101000a900473ffffffffffffffffffffffffffffffffffffffff1673ffffffffffffffffffffffffffffffffffffffff1663bcaa0c5560026040518263ffffffff1660e01b815260040161086e9190611d48565b602060405180830381865afa15801561088b573d6000803e3d6000fd5b505050506040513d601f19601f820116820180604052508101906108af9190611d63565b905090565b6108bc610811565b73ffffffffffffffffffffffffffffffffffffffff166338b6a3a1336040518263ffffffff1660e01b81526004016108f49190611240565b602060405180830381865afa158015610911573d6000803e3d6000fd5b505050506040513d601f19601f82011682018060405250810190610935919061129b565b610974576040517f08c379a000000000000000000000000000000000000000000000000000000000815260040161096b90611ddc565b60405180910390fd5b565b6040518060600160405280600073ffffffffffffffffffffffffffffffffffffffff168152602001600060028111156109b2576109b1610ad3565b5b81526020016109bf6109c5565b81525090565b6040518061012001604052806060815260200160608152602001600060028111156109f3576109f2610ad3565b5b8152602001610a00610a3b565b815260200160608152602001606081526020016060815260200160006002811115610a2e57610a2d610ad3565b5b8152602001606081525090565b60405180606001604052806000815260200160008152602001600081525090565b60008115159050919050565b610a7181610a5c565b82525050565b6000602082019050610a8c6000830184610a68565b92915050565b600073ffffffffffffffffffffffffffffffffffffffff82169050919050565b6000610abd82610a92565b9050919050565b610acd81610ab2565b82525050565b7f4e487b7100000000000000000000000000000000000000000000000000000000600052602160045260246000fd5b60038110610b1357610b12610ad3565b5b50565b6000819050610b2482610b02565b919050565b6000610b3482610b16565b9050919050565b610b4481610b29565b82525050565b600081519050919050565b600082825260208201905092915050565b60005b83811015610b84578082015181840152602081019050610b69565b60008484015250505050565b6000601f19601f8301169050919050565b6000610bac82610b4a565b610bb68185610b55565b9350610bc6818560208601610b66565b610bcf81610b90565b840191505092915050565b60038110610beb57610bea610ad3565b5b50565b6000819050610bfc82610bda565b919050565b6000610c0c82610bee565b9050919050565b610c1c81610c01565b82525050565b6000819050919050565b610c3581610c22565b82525050565b606082016000820151610c516000850182610c2c565b506020820151610c646020850182610c2c565b506040820151610c776040850182610c2c565b50505050565b60038110610c8e57610c8d610ad3565b5b50565b6000819050610c9f82610c7d565b919050565b6000610caf82610c91565b9050919050565b610cbf81610ca4565b82525050565b600081519050919050565b600082825260208201905092915050565b6000819050602082019050919050565b6000610cfd8383610c2c565b60208301905092915050565b6000602082019050919050565b6000610d2182610cc5565b610d2b8185610cd0565b9350610d3683610ce1565b8060005b83811015610d67578151610d4e8882610cf1565b9750610d5983610d09565b925050600181019050610d3a565b5085935050505092915050565b6000610160830160008301518482036000860152610d928282610ba1565b91505060208301518482036020860152610dac8282610ba1565b9150506040830151610dc16040860182610c13565b506060830151610dd46060860182610c3b565b50608083015184820360c0860152610dec8282610ba1565b91505060a083015184820360e0860152610e068282610ba1565b91505060c0830151848203610100860152610e218282610ba1565b91505060e0830151610e37610120860182610cb6565b50610100830151848203610140860152610e518282610d16565b9150508091505092915050565b6000606083016000830151610e766000860182610ac4565b506020830151610e896020860182610b3b565b5060408301518482036040860152610ea18282610d74565b9150508091505092915050565b60006020820190508181036000830152610ec88184610e5e565b905092915050565b600081519050919050565b600082825260208201905092915050565b6000819050602082019050919050565b6000606083016000830151610f146000860182610ac4565b506020830151610f276020860182610b3b565b5060408301518482036040860152610f3f8282610d74565b9150508091505092915050565b6000610f588383610efc565b905092915050565b6000602082019050919050565b6000610f7882610ed0565b610f828185610edb565b935083602082028501610f9485610eec565b8060005b85811015610fd05784840389528151610fb18582610f4c565b9450610fbc83610f60565b925060208a01995050600181019050610f98565b50829750879550505050505092915050565b60006020820190508181036000830152610ffc8184610f6d565b905092915050565b60006101608301600083015184820360008601526110228282610ba1565b9150506020830151848203602086015261103c8282610ba1565b91505060408301516110516040860182610c13565b5060608301516110646060860182610c3b565b50608083015184820360c086015261107c8282610ba1565b91505060a083015184820360e08601526110968282610ba1565b91505060c08301518482036101008601526110b18282610ba1565b91505060e08301516110c7610120860182610cb6565b506101008301518482036101408601526110e18282610d16565b9150508091505092915050565b600060208201905081810360008301526111088184611004565b905092915050565b600081519050919050565b600082825260208201905092915050565b6000819050602082019050919050565b60006040830160008301516111546000860182610c2c565b506020830151848203602086015261116c8282610d74565b9150508091505092915050565b6000611185838361113c565b905092915050565b6000602082019050919050565b60006111a582611110565b6111af818561111b565b9350836020820285016111c18561112c565b8060005b858110156111fd57848403895281516111de8582611179565b94506111e98361118d565b925060208a019950506001810190506111c5565b50829750879550505050505092915050565b60006020820190508181036000830152611229818461119a565b905092915050565b61123a81610ab2565b82525050565b60006020820190506112556000830184611231565b92915050565b6000604051905090565b600080fd5b600080fd5b61127881610a5c565b811461128357600080fd5b50565b6000815190506112958161126f565b92915050565b6000602082840312156112b1576112b0611265565b5b60006112bf84828501611286565b91505092915050565b600080fd5b7f4e487b7100000000000000000000000000000000000000000000000000000000600052604160045260246000fd5b61130582610b90565b810181811067ffffffffffffffff82111715611324576113236112cd565b5b80604052505050565b600061133761125b565b905061134382826112fc565b919050565b600080fd5b61135681610ab2565b811461136157600080fd5b50565b6000815190506113738161134d565b92915050565b6003811061138657600080fd5b50565b60008151905061139881611379565b92915050565b600080fd5b600080fd5b600067ffffffffffffffff8211156113c3576113c26112cd565b5b6113cc82610b90565b9050602081019050919050565b60006113ec6113e7846113a8565b61132d565b905082815260208101848484011115611408576114076113a3565b5b611413848285610b66565b509392505050565b600082601f8301126114305761142f61139e565b5b81516114408482602086016113d9565b91505092915050565b6003811061145657600080fd5b50565b60008151905061146881611449565b92915050565b61147781610c22565b811461148257600080fd5b50565b6000815190506114948161146e565b92915050565b6000606082840312156114b0576114af6112c8565b5b6114ba606061132d565b905060006114ca84828501611485565b60008301525060206114de84828501611485565b60208301525060406114f284828501611485565b60408301525092915050565b6003811061150b57600080fd5b50565b60008151905061151d816114fe565b92915050565b600067ffffffffffffffff82111561153e5761153d6112cd565b5b602082029050602081019050919050565b600080fd5b600061156761156284611523565b61132d565b9050808382526020820190506020840283018581111561158a5761158961154f565b5b835b818110156115b3578061159f8882611485565b84526020840193505060208101905061158c565b5050509392505050565b600082601f8301126115d2576115d161139e565b5b81516115e2848260208601611554565b91505092915050565b60006101608284031215611602576116016112c8565b5b61160d61012061132d565b9050600082015167ffffffffffffffff81111561162d5761162c611348565b5b6116398482850161141b565b600083015250602082015167ffffffffffffffff81111561165d5761165c611348565b5b6116698482850161141b565b602083015250604061167d84828501611459565b60408301525060606116918482850161149a565b60608301525060c082015167ffffffffffffffff8111156116b5576116b4611348565b5b6116c18482850161141b565b60808301525060e082015167ffffffffffffffff8111156116e5576116e4611348565b5b6116f18482850161141b565b60a08301525061010082015167ffffffffffffffff81111561171657611715611348565b5b6117228482850161141b565b60c0830152506101206117378482850161150e565b60e08301525061014082015167ffffffffffffffff81111561175c5761175b611348565b5b611768848285016115bd565b6101008301525092915050565b60006060828403121561178b5761178a6112c8565b5b611795606061132d565b905060006117a584828501611364565b60008301525060206117b984828501611389565b602083015250604082015167ffffffffffffffff8111156117dd576117dc611348565b5b6117e9848285016115eb565b60408301525092915050565b60006020828403121561180b5761180a611265565b5b600082015167ffffffffffffffff8111156118295761182861126a565b5b61183584828501611775565b91505092915050565b60006020828403121561185457611853611265565b5b60006118628482850161150e565b91505092915050565b600082825260208201905092915050565b7f53656e646572206d75737420626520612073747564792070726f6772616d206d60008201527f616e616765720000000000000000000000000000000000000000000000000000602082015250565b60006118d860268361186b565b91506118e38261187c565b604082019050919050565b60006020820190508181036000830152611907816118cb565b9050919050565b600067ffffffffffffffff821115611929576119286112cd565b5b602082029050602081019050919050565b600061194d6119488461190e565b61132d565b905080838252602082019050602084028301858111156119705761196f61154f565b5b835b818110156119b757805167ffffffffffffffff8111156119955761199461139e565b5b8086016119a28982611775565b85526020850194505050602081019050611972565b5050509392505050565b600082601f8301126119d6576119d561139e565b5b81516119e684826020860161193a565b91505092915050565b600060208284031215611a0557611a04611265565b5b600082015167ffffffffffffffff811115611a2357611a2261126a565b5b611a2f848285016119c1565b91505092915050565b600060208284031215611a4e57611a4d611265565b5b6000611a5c84828501611485565b91505092915050565b611a6e81610c22565b82525050565b6000602082019050611a896000830184611a65565b92915050565b600060208284031215611aa557611aa4611265565b5b600082015167ffffffffffffffff811115611ac357611ac261126a565b5b611acf848285016115eb565b91505092915050565b7f53656e646572206d757374206265206c65637475726572206f7220737475647960008201527f2070726f6772616d206d616e6167657200000000000000000000000000000000602082015250565b6000611b3460308361186b565b9150611b3f82611ad8565b604082019050919050565b60006020820190508181036000830152611b6381611b27565b9050919050565b600067ffffffffffffffff821115611b8557611b846112cd565b5b602082029050602081019050919050565b600060408284031215611bac57611bab6112c8565b5b611bb6604061132d565b90506000611bc684828501611485565b600083015250602082015167ffffffffffffffff811115611bea57611be9611348565b5b611bf6848285016115eb565b60208301525092915050565b6000611c15611c1084611b6a565b61132d565b90508083825260208201905060208402830185811115611c3857611c3761154f565b5b835b81811015611c7f57805167ffffffffffffffff811115611c5d57611c5c61139e565b5b808601611c6a8982611b96565b85526020850194505050602081019050611c3a565b5050509392505050565b600082601f830112611c9e57611c9d61139e565b5b8151611cae848260208601611c02565b91505092915050565b600060208284031215611ccd57611ccc611265565b5b600082015167ffffffffffffffff811115611ceb57611cea61126a565b5b611cf784828501611c89565b91505092915050565b60068110611d1157611d10610ad3565b5b50565b6000819050611d2282611d00565b919050565b6000611d3282611d14565b9050919050565b611d4281611d27565b82525050565b6000602082019050611d5d6000830184611d39565b92915050565b600060208284031215611d7957611d78611265565b5b6000611d8784828501611364565b91505092915050565b7f53656e646572206d757374206265206120726567697374657265642075736572600082015250565b6000611dc660208361186b565b9150611dd182611d90565b602082019050919050565b60006020820190508181036000830152611df581611db9565b905091905056fea26469706673582212204b63165d5b231b574819b438d465dfb507be7bf50383063db9bf9c043dfdab1164736f6c63430008110033",
  "linkReferences": {},
  "deployedLinkReferences": {}
}