{
  "_format": "hh-sol-artifact-1",
  "contractName": "UserView",
  "sourceName": "contracts/view/UserView.sol",
  "abi": [
    {
      "inputs": [
        {
          "internalType": "address",
          "name": "userDataManagerAddress",
          "type": "address"
        },
        {
          "internalType": "address",
          "name": "registrationDataManagerAddress",
          "type": "address"
        }
      ],
      "stateMutability": "nonpayable",
      "type": "constructor"
    },
    {
      "inputs": [],
      "name": "getAllUsers",
      "outputs": [
        {
          "components": [
            {
              "internalType": "uint256",
              "name": "uId",
              "type": "uint256"
            },
            {
              "components": [
                {
                  "internalType": "string",
                  "name": "firstName",
                  "type": "string"
                },
                {
                  "internalType": "string",
                  "name": "lastName",
                  "type": "string"
                },
                {
                  "internalType": "enum UserDataTypes.Gender",
                  "name": "gender",
                  "type": "uint8"
                },
                {
                  "components": [
                    {
                      "internalType": "uint256",
                      "name": "year",
                      "type": "uint256"
                    },
                    {
                      "internalType": "uint256",
                      "name": "month",
                      "type": "uint256"
                    },
                    {
                      "internalType": "uint256",
                      "name": "day",
                      "type": "uint256"
                    }
                  ],
                  "internalType": "struct UserDataTypes.Date",
                  "name": "dateOfBirth",
                  "type": "tuple"
                },
                {
                  "internalType": "string",
                  "name": "nationality",
                  "type": "string"
                },
                {
                  "internalType": "string",
                  "name": "phoneNumber",
                  "type": "string"
                },
                {
                  "internalType": "string",
                  "name": "emailAddress",
                  "type": "string"
                },
                {
                  "internalType": "enum UserDataTypes.UserRole",
                  "name": "role",
                  "type": "uint8"
                },
                {
                  "internalType": "uint256[]",
                  "name": "studyProgramIds",
                  "type": "uint256[]"
                }
              ],
              "internalType": "struct UserDataTypes.UserProfile",
              "name": "profile",
              "type": "tuple"
            }
          ],
          "internalType": "struct UserDataTypes.User[]",
          "name": "",
          "type": "tuple[]"
        }
      ],
      "stateMutability": "view",
      "type": "function"
    },
    {
      "inputs": [],
      "name": "getPendingRegistrationStatus",
      "outputs": [
        {
          "internalType": "enum UserDataTypes.RegistrationStatus",
          "name": "",
          "type": "uint8"
        }
      ],
      "stateMutability": "view",
      "type": "function"
    },
    {
      "inputs": [],
      "name": "getPendingRegistrations",
      "outputs": [
        {
          "components": [
            {
              "internalType": "address",
              "name": "userAddress",
              "type": "address"
            },
            {
              "internalType": "enum UserDataTypes.RegistrationStatus",
              "name": "status",
              "type": "uint8"
            },
            {
              "components": [
                {
                  "internalType": "string",
                  "name": "firstName",
                  "type": "string"
                },
                {
                  "internalType": "string",
                  "name": "lastName",
                  "type": "string"
                },
                {
                  "internalType": "enum UserDataTypes.Gender",
                  "name": "gender",
                  "type": "uint8"
                },
                {
                  "components": [
                    {
                      "internalType": "uint256",
                      "name": "year",
                      "type": "uint256"
                    },
                    {
                      "internalType": "uint256",
                      "name": "month",
                      "type": "uint256"
                    },
                    {
                      "internalType": "uint256",
                      "name": "day",
                      "type": "uint256"
                    }
                  ],
                  "internalType": "struct UserDataTypes.Date",
                  "name": "dateOfBirth",
                  "type": "tuple"
                },
                {
                  "internalType": "string",
                  "name": "nationality",
                  "type": "string"
                },
                {
                  "internalType": "string",
                  "name": "phoneNumber",
                  "type": "string"
                },
                {
                  "internalType": "string",
                  "name": "emailAddress",
                  "type": "string"
                },
                {
                  "internalType": "enum UserDataTypes.UserRole",
                  "name": "role",
                  "type": "uint8"
                },
                {
                  "internalType": "uint256[]",
                  "name": "studyProgramIds",
                  "type": "uint256[]"
                }
              ],
              "internalType": "struct UserDataTypes.UserProfile",
              "name": "profile",
              "type": "tuple"
            }
          ],
          "internalType": "struct UserDataTypes.Registration[]",
          "name": "",
          "type": "tuple[]"
        }
      ],
      "stateMutability": "view",
      "type": "function"
    },
    {
      "inputs": [],
      "name": "getProfile",
      "outputs": [
        {
          "components": [
            {
              "internalType": "string",
              "name": "firstName",
              "type": "string"
            },
            {
              "internalType": "string",
              "name": "lastName",
              "type": "string"
            },
            {
              "internalType": "enum UserDataTypes.Gender",
              "name": "gender",
              "type": "uint8"
            },
            {
              "components": [
                {
                  "internalType": "uint256",
                  "name": "year",
                  "type": "uint256"
                },
                {
                  "internalType": "uint256",
                  "name": "month",
                  "type": "uint256"
                },
                {
                  "internalType": "uint256",
                  "name": "day",
                  "type": "uint256"
                }
              ],
              "internalType": "struct UserDataTypes.Date",
              "name": "dateOfBirth",
              "type": "tuple"
            },
            {
              "internalType": "string",
              "name": "nationality",
              "type": "string"
            },
            {
              "internalType": "string",
              "name": "phoneNumber",
              "type": "string"
            },
            {
              "internalType": "string",
              "name": "emailAddress",
              "type": "string"
            },
            {
              "internalType": "enum UserDataTypes.UserRole",
              "name": "role",
              "type": "uint8"
            },
            {
              "internalType": "uint256[]",
              "name": "studyProgramIds",
              "type": "uint256[]"
            }
          ],
          "internalType": "struct UserDataTypes.UserProfile",
          "name": "",
          "type": "tuple"
        }
      ],
      "stateMutability": "view",
      "type": "function"
    },
    {
      "inputs": [],
      "name": "isUserRegistered",
      "outputs": [
        {
          "internalType": "bool",
          "name": "",
          "type": "bool"
        }
      ],
      "stateMutability": "view",
      "type": "function"
    }
  ],
  "bytecode": "0x60806040523480156200001157600080fd5b5060405162001de138038062001de1833981810160405281019062000037919062000197565b8180806000806101000a81548173ffffffffffffffffffffffffffffffffffffffff021916908373ffffffffffffffffffffffffffffffffffffffff16021790555050506200008c82620000a560201b60201c565b6200009d81620000e960201b60201c565b5050620001de565b80600160006101000a81548173ffffffffffffffffffffffffffffffffffffffff021916908373ffffffffffffffffffffffffffffffffffffffff16021790555050565b80600660006101000a81548173ffffffffffffffffffffffffffffffffffffffff021916908373ffffffffffffffffffffffffffffffffffffffff16021790555050565b600080fd5b600073ffffffffffffffffffffffffffffffffffffffff82169050919050565b60006200015f8262000132565b9050919050565b620001718162000152565b81146200017d57600080fd5b50565b600081519050620001918162000166565b92915050565b60008060408385031215620001b157620001b06200012d565b5b6000620001c18582860162000180565b9250506020620001d48582860162000180565b9150509250929050565b611bf380620001ee6000396000f3fe608060405234801561001057600080fd5b50600436106100575760003560e01c8063873138f31461005c5780639dedeb821461007a578063ad68677214610098578063d6afc9b1146100b6578063e2842d79146100d4575b600080fd5b6100646100f2565b604051610071919061092c565b60405180910390f35b610082610195565b60405161008f9190610e25565b60405180910390f35b6100a0610339565b6040516100ad9190610e56565b60405180910390f35b6100be6103dc565b6040516100cb9190610f5b565b60405180910390f35b6100dc610533565b6040516100e9919061107c565b60405180910390f35b6000600160009054906101000a900473ffffffffffffffffffffffffffffffffffffffff1673ffffffffffffffffffffffffffffffffffffffff166338b6a3a1336040518263ffffffff1660e01b815260040161014f91906110ad565b602060405180830381865afa15801561016c573d6000803e3d6000fd5b505050506040513d601f19601f820116820180604052508101906101909190611108565b905090565b606061019f61079f565b6002808111156101b2576101b16109b4565b5b60008054906101000a900473ffffffffffffffffffffffffffffffffffffffff1673ffffffffffffffffffffffffffffffffffffffff1663dd8b2914336040518263ffffffff1660e01b815260040161020b91906110ad565b602060405180830381865afa158015610228573d6000803e3d6000fd5b505050506040513d601f19601f8201168201806040525081019061024c919061115a565b600281111561025e5761025d6109b4565b5b1461029e576040517f08c379a00000000000000000000000000000000000000000000000000000000081526004016102959061120a565b60405180910390fd5b600660009054906101000a900473ffffffffffffffffffffffffffffffffffffffff1673ffffffffffffffffffffffffffffffffffffffff1663745fb1296040518163ffffffff1660e01b8152600401600060405180830381865afa15801561030b573d6000803e3d6000fd5b505050506040513d6000823e3d601f19601f820116820180604052508101906103349190611813565b905090565b6000600660009054906101000a900473ffffffffffffffffffffffffffffffffffffffff1673ffffffffffffffffffffffffffffffffffffffff166365b7109a336040518263ffffffff1660e01b815260040161039691906110ad565b602060405180830381865afa1580156103b3573d6000803e3d6000fd5b505050506040513d601f19601f820116820180604052508101906103d7919061185c565b905090565b6103e461087a565b6103ec61079f565b6000600160009054906101000a900473ffffffffffffffffffffffffffffffffffffffff1673ffffffffffffffffffffffffffffffffffffffff1663e3d7e14c336040518263ffffffff1660e01b815260040161044991906110ad565b602060405180830381865afa158015610466573d6000803e3d6000fd5b505050506040513d601f19601f8201168201806040525081019061048a9190611889565b9050600160009054906101000a900473ffffffffffffffffffffffffffffffffffffffff1673ffffffffffffffffffffffffffffffffffffffff1663f08f4f64826040518263ffffffff1660e01b81526004016104e791906118c5565b600060405180830381865afa158015610504573d6000803e3d6000fd5b505050506040513d6000823e3d601f19601f8201168201806040525081019061052d91906118e0565b91505090565b606061053d61079f565b60016002811115610551576105506109b4565b5b60008054906101000a900473ffffffffffffffffffffffffffffffffffffffff1673ffffffffffffffffffffffffffffffffffffffff1663dd8b2914336040518263ffffffff1660e01b81526004016105aa91906110ad565b602060405180830381865afa1580156105c7573d6000803e3d6000fd5b505050506040513d601f19601f820116820180604052508101906105eb919061115a565b60028111156105fd576105fc6109b4565b5b14806106c55750600280811115610617576106166109b4565b5b60008054906101000a900473ffffffffffffffffffffffffffffffffffffffff1673ffffffffffffffffffffffffffffffffffffffff1663dd8b2914336040518263ffffffff1660e01b815260040161067091906110ad565b602060405180830381865afa15801561068d573d6000803e3d6000fd5b505050506040513d601f19601f820116820180604052508101906106b1919061115a565b60028111156106c3576106c26109b4565b5b145b610704576040517f08c379a00000000000000000000000000000000000000000000000000000000081526004016106fb9061199b565b60405180910390fd5b600160009054906101000a900473ffffffffffffffffffffffffffffffffffffffff1673ffffffffffffffffffffffffffffffffffffffff1663e2842d796040518163ffffffff1660e01b8152600401600060405180830381865afa158015610771573d6000803e3d6000fd5b505050506040513d6000823e3d601f19601f8201168201806040525081019061079a9190611b08565b905090565b60008054906101000a900473ffffffffffffffffffffffffffffffffffffffff1673ffffffffffffffffffffffffffffffffffffffff166338b6a3a1336040518263ffffffff1660e01b81526004016107f891906110ad565b602060405180830381865afa158015610815573d6000803e3d6000fd5b505050506040513d601f19601f820116820180604052508101906108399190611108565b610878576040517f08c379a000000000000000000000000000000000000000000000000000000000815260040161086f90611b9d565b60405180910390fd5b565b6040518061012001604052806060815260200160608152602001600060028111156108a8576108a76109b4565b5b81526020016108b56108f0565b8152602001606081526020016060815260200160608152602001600060028111156108e3576108e26109b4565b5b8152602001606081525090565b60405180606001604052806000815260200160008152602001600081525090565b60008115159050919050565b61092681610911565b82525050565b6000602082019050610941600083018461091d565b92915050565b600081519050919050565b600082825260208201905092915050565b6000819050602082019050919050565b600073ffffffffffffffffffffffffffffffffffffffff82169050919050565b600061099e82610973565b9050919050565b6109ae81610993565b82525050565b7f4e487b7100000000000000000000000000000000000000000000000000000000600052602160045260246000fd5b600381106109f4576109f36109b4565b5b50565b6000819050610a05826109e3565b919050565b6000610a15826109f7565b9050919050565b610a2581610a0a565b82525050565b600081519050919050565b600082825260208201905092915050565b60005b83811015610a65578082015181840152602081019050610a4a565b60008484015250505050565b6000601f19601f8301169050919050565b6000610a8d82610a2b565b610a978185610a36565b9350610aa7818560208601610a47565b610ab081610a71565b840191505092915050565b60038110610acc57610acb6109b4565b5b50565b6000819050610add82610abb565b919050565b6000610aed82610acf565b9050919050565b610afd81610ae2565b82525050565b6000819050919050565b610b1681610b03565b82525050565b606082016000820151610b326000850182610b0d565b506020820151610b456020850182610b0d565b506040820151610b586040850182610b0d565b50505050565b60038110610b6f57610b6e6109b4565b5b50565b6000819050610b8082610b5e565b919050565b6000610b9082610b72565b9050919050565b610ba081610b85565b82525050565b600081519050919050565b600082825260208201905092915050565b6000819050602082019050919050565b6000610bde8383610b0d565b60208301905092915050565b6000602082019050919050565b6000610c0282610ba6565b610c0c8185610bb1565b9350610c1783610bc2565b8060005b83811015610c48578151610c2f8882610bd2565b9750610c3a83610bea565b925050600181019050610c1b565b5085935050505092915050565b6000610160830160008301518482036000860152610c738282610a82565b91505060208301518482036020860152610c8d8282610a82565b9150506040830151610ca26040860182610af4565b506060830151610cb56060860182610b1c565b50608083015184820360c0860152610ccd8282610a82565b91505060a083015184820360e0860152610ce78282610a82565b91505060c0830151848203610100860152610d028282610a82565b91505060e0830151610d18610120860182610b97565b50610100830151848203610140860152610d328282610bf7565b9150508091505092915050565b6000606083016000830151610d5760008601826109a5565b506020830151610d6a6020860182610a1c565b5060408301518482036040860152610d828282610c55565b9150508091505092915050565b6000610d9b8383610d3f565b905092915050565b6000602082019050919050565b6000610dbb82610947565b610dc58185610952565b935083602082028501610dd785610963565b8060005b85811015610e135784840389528151610df48582610d8f565b9450610dff83610da3565b925060208a01995050600181019050610ddb565b50829750879550505050505092915050565b60006020820190508181036000830152610e3f8184610db0565b905092915050565b610e5081610a0a565b82525050565b6000602082019050610e6b6000830184610e47565b92915050565b6000610160830160008301518482036000860152610e8f8282610a82565b91505060208301518482036020860152610ea98282610a82565b9150506040830151610ebe6040860182610af4565b506060830151610ed16060860182610b1c565b50608083015184820360c0860152610ee98282610a82565b91505060a083015184820360e0860152610f038282610a82565b91505060c0830151848203610100860152610f1e8282610a82565b91505060e0830151610f34610120860182610b97565b50610100830151848203610140860152610f4e8282610bf7565b9150508091505092915050565b60006020820190508181036000830152610f758184610e71565b905092915050565b600081519050919050565b600082825260208201905092915050565b6000819050602082019050919050565b6000604083016000830151610fc16000860182610b0d565b5060208301518482036020860152610fd98282610c55565b9150508091505092915050565b6000610ff28383610fa9565b905092915050565b6000602082019050919050565b600061101282610f7d565b61101c8185610f88565b93508360208202850161102e85610f99565b8060005b8581101561106a578484038952815161104b8582610fe6565b945061105683610ffa565b925060208a01995050600181019050611032565b50829750879550505050505092915050565b600060208201905081810360008301526110968184611007565b905092915050565b6110a781610993565b82525050565b60006020820190506110c2600083018461109e565b92915050565b6000604051905090565b600080fd5b600080fd5b6110e581610911565b81146110f057600080fd5b50565b600081519050611102816110dc565b92915050565b60006020828403121561111e5761111d6110d2565b5b600061112c848285016110f3565b91505092915050565b6003811061114257600080fd5b50565b60008151905061115481611135565b92915050565b6000602082840312156111705761116f6110d2565b5b600061117e84828501611145565b91505092915050565b600082825260208201905092915050565b7f53656e646572206d75737420626520612073747564792070726f6772616d206d60008201527f616e616765720000000000000000000000000000000000000000000000000000602082015250565b60006111f4602683611187565b91506111ff82611198565b604082019050919050565b60006020820190508181036000830152611223816111e7565b9050919050565b600080fd5b7f4e487b7100000000000000000000000000000000000000000000000000000000600052604160045260246000fd5b61126782610a71565b810181811067ffffffffffffffff821117156112865761128561122f565b5b80604052505050565b60006112996110c8565b90506112a5828261125e565b919050565b600067ffffffffffffffff8211156112c5576112c461122f565b5b602082029050602081019050919050565b600080fd5b600080fd5b600080fd5b6112ee81610993565b81146112f957600080fd5b50565b60008151905061130b816112e5565b92915050565b6003811061131e57600080fd5b50565b60008151905061133081611311565b92915050565b600080fd5b600067ffffffffffffffff8211156113565761135561122f565b5b61135f82610a71565b9050602081019050919050565b600061137f61137a8461133b565b61128f565b90508281526020810184848401111561139b5761139a611336565b5b6113a6848285610a47565b509392505050565b600082601f8301126113c3576113c261122a565b5b81516113d384826020860161136c565b91505092915050565b600381106113e957600080fd5b50565b6000815190506113fb816113dc565b92915050565b61140a81610b03565b811461141557600080fd5b50565b60008151905061142781611401565b92915050565b600060608284031215611443576114426112db565b5b61144d606061128f565b9050600061145d84828501611418565b600083015250602061147184828501611418565b602083015250604061148584828501611418565b60408301525092915050565b600067ffffffffffffffff8211156114ac576114ab61122f565b5b602082029050602081019050919050565b60006114d06114cb84611491565b61128f565b905080838252602082019050602084028301858111156114f3576114f26112d6565b5b835b8181101561151c57806115088882611418565b8452602084019350506020810190506114f5565b5050509392505050565b600082601f83011261153b5761153a61122a565b5b815161154b8482602086016114bd565b91505092915050565b6000610160828403121561156b5761156a6112db565b5b61157661012061128f565b9050600082015167ffffffffffffffff811115611596576115956112e0565b5b6115a2848285016113ae565b600083015250602082015167ffffffffffffffff8111156115c6576115c56112e0565b5b6115d2848285016113ae565b60208301525060406115e6848285016113ec565b60408301525060606115fa8482850161142d565b60608301525060c082015167ffffffffffffffff81111561161e5761161d6112e0565b5b61162a848285016113ae565b60808301525060e082015167ffffffffffffffff81111561164e5761164d6112e0565b5b61165a848285016113ae565b60a08301525061010082015167ffffffffffffffff81111561167f5761167e6112e0565b5b61168b848285016113ae565b60c0830152506101206116a084828501611145565b60e08301525061014082015167ffffffffffffffff8111156116c5576116c46112e0565b5b6116d184828501611526565b6101008301525092915050565b6000606082840312156116f4576116f36112db565b5b6116fe606061128f565b9050600061170e848285016112fc565b600083015250602061172284828501611321565b602083015250604082015167ffffffffffffffff811115611746576117456112e0565b5b61175284828501611554565b60408301525092915050565b600061177161176c846112aa565b61128f565b90508083825260208201905060208402830185811115611794576117936112d6565b5b835b818110156117db57805167ffffffffffffffff8111156117b9576117b861122a565b5b8086016117c689826116de565b85526020850194505050602081019050611796565b5050509392505050565b600082601f8301126117fa576117f961122a565b5b815161180a84826020860161175e565b91505092915050565b600060208284031215611829576118286110d2565b5b600082015167ffffffffffffffff811115611847576118466110d7565b5b611853848285016117e5565b91505092915050565b600060208284031215611872576118716110d2565b5b600061188084828501611321565b91505092915050565b60006020828403121561189f5761189e6110d2565b5b60006118ad84828501611418565b91505092915050565b6118bf81610b03565b82525050565b60006020820190506118da60008301846118b6565b92915050565b6000602082840312156118f6576118f56110d2565b5b600082015167ffffffffffffffff811115611914576119136110d7565b5b61192084828501611554565b91505092915050565b7f53656e646572206d757374206265206c65637475726572206f7220737475647960008201527f2070726f6772616d206d616e6167657200000000000000000000000000000000602082015250565b6000611985603083611187565b915061199082611929565b604082019050919050565b600060208201905081810360008301526119b481611978565b9050919050565b600067ffffffffffffffff8211156119d6576119d561122f565b5b602082029050602081019050919050565b6000604082840312156119fd576119fc6112db565b5b611a07604061128f565b90506000611a1784828501611418565b600083015250602082015167ffffffffffffffff811115611a3b57611a3a6112e0565b5b611a4784828501611554565b60208301525092915050565b6000611a66611a61846119bb565b61128f565b90508083825260208201905060208402830185811115611a8957611a886112d6565b5b835b81811015611ad057805167ffffffffffffffff811115611aae57611aad61122a565b5b808601611abb89826119e7565b85526020850194505050602081019050611a8b565b5050509392505050565b600082601f830112611aef57611aee61122a565b5b8151611aff848260208601611a53565b91505092915050565b600060208284031215611b1e57611b1d6110d2565b5b600082015167ffffffffffffffff811115611b3c57611b3b6110d7565b5b611b4884828501611ada565b91505092915050565b7f53656e646572206d757374206265206120726567697374657265642075736572600082015250565b6000611b87602083611187565b9150611b9282611b51565b602082019050919050565b60006020820190508181036000830152611bb681611b7a565b905091905056fea2646970667358221220001535d065574263441ae6e58a8032e4be71f62f00ce0fb6e3dd1a2c9c14b89c64736f6c63430008110033",
  "linkReferences": {},
  "deployedLinkReferences": {}
}