{
  "_format": "hh-sol-artifact-1",
  "contractName": "UserView",
  "sourceName": "contracts/view/UserView.sol",
  "abi": [
    {
      "inputs": [
        {
          "internalType": "address",
          "name": "userDataManagerAddress",
          "type": "address"
        },
        {
          "internalType": "address",
          "name": "registrationDataManagerAddress",
          "type": "address"
        }
      ],
      "stateMutability": "nonpayable",
      "type": "constructor"
    },
    {
      "inputs": [],
      "name": "getAllUsers",
      "outputs": [
        {
          "components": [
            {
              "internalType": "uint256",
              "name": "uId",
              "type": "uint256"
            },
            {
              "components": [
                {
                  "internalType": "string",
                  "name": "firstName",
                  "type": "string"
                },
                {
                  "internalType": "string",
                  "name": "lastName",
                  "type": "string"
                },
                {
                  "internalType": "enum UserDataTypes.Gender",
                  "name": "gender",
                  "type": "uint8"
                },
                {
                  "components": [
                    {
                      "internalType": "uint256",
                      "name": "year",
                      "type": "uint256"
                    },
                    {
                      "internalType": "uint256",
                      "name": "month",
                      "type": "uint256"
                    },
                    {
                      "internalType": "uint256",
                      "name": "day",
                      "type": "uint256"
                    }
                  ],
                  "internalType": "struct UserDataTypes.Date",
                  "name": "dateOfBirth",
                  "type": "tuple"
                },
                {
                  "internalType": "string",
                  "name": "nationality",
                  "type": "string"
                },
                {
                  "internalType": "string",
                  "name": "phoneNumber",
                  "type": "string"
                },
                {
                  "internalType": "string",
                  "name": "emailAddress",
                  "type": "string"
                },
                {
                  "internalType": "enum UserDataTypes.UserRole",
                  "name": "role",
                  "type": "uint8"
                },
                {
                  "internalType": "uint256[]",
                  "name": "studyProgramIds",
                  "type": "uint256[]"
                }
              ],
              "internalType": "struct UserDataTypes.UserProfile",
              "name": "profile",
              "type": "tuple"
            }
          ],
          "internalType": "struct UserDataTypes.User[]",
          "name": "",
          "type": "tuple[]"
        }
      ],
      "stateMutability": "view",
      "type": "function"
    },
    {
      "inputs": [],
      "name": "getPendingRegistrationStatus",
      "outputs": [
        {
          "internalType": "enum UserDataTypes.RegistrationStatus",
          "name": "",
          "type": "uint8"
        }
      ],
      "stateMutability": "view",
      "type": "function"
    },
    {
      "inputs": [],
      "name": "getPendingRegistrations",
      "outputs": [
        {
          "components": [
            {
              "internalType": "address",
              "name": "userAddress",
              "type": "address"
            },
            {
              "internalType": "enum UserDataTypes.RegistrationStatus",
              "name": "status",
              "type": "uint8"
            },
            {
              "components": [
                {
                  "internalType": "string",
                  "name": "firstName",
                  "type": "string"
                },
                {
                  "internalType": "string",
                  "name": "lastName",
                  "type": "string"
                },
                {
                  "internalType": "enum UserDataTypes.Gender",
                  "name": "gender",
                  "type": "uint8"
                },
                {
                  "components": [
                    {
                      "internalType": "uint256",
                      "name": "year",
                      "type": "uint256"
                    },
                    {
                      "internalType": "uint256",
                      "name": "month",
                      "type": "uint256"
                    },
                    {
                      "internalType": "uint256",
                      "name": "day",
                      "type": "uint256"
                    }
                  ],
                  "internalType": "struct UserDataTypes.Date",
                  "name": "dateOfBirth",
                  "type": "tuple"
                },
                {
                  "internalType": "string",
                  "name": "nationality",
                  "type": "string"
                },
                {
                  "internalType": "string",
                  "name": "phoneNumber",
                  "type": "string"
                },
                {
                  "internalType": "string",
                  "name": "emailAddress",
                  "type": "string"
                },
                {
                  "internalType": "enum UserDataTypes.UserRole",
                  "name": "role",
                  "type": "uint8"
                },
                {
                  "internalType": "uint256[]",
                  "name": "studyProgramIds",
                  "type": "uint256[]"
                }
              ],
              "internalType": "struct UserDataTypes.UserProfile",
              "name": "profile",
              "type": "tuple"
            }
          ],
          "internalType": "struct UserDataTypes.Registration[]",
          "name": "",
          "type": "tuple[]"
        }
      ],
      "stateMutability": "view",
      "type": "function"
    },
    {
      "inputs": [],
      "name": "getProfile",
      "outputs": [
        {
          "components": [
            {
              "internalType": "string",
              "name": "firstName",
              "type": "string"
            },
            {
              "internalType": "string",
              "name": "lastName",
              "type": "string"
            },
            {
              "internalType": "enum UserDataTypes.Gender",
              "name": "gender",
              "type": "uint8"
            },
            {
              "components": [
                {
                  "internalType": "uint256",
                  "name": "year",
                  "type": "uint256"
                },
                {
                  "internalType": "uint256",
                  "name": "month",
                  "type": "uint256"
                },
                {
                  "internalType": "uint256",
                  "name": "day",
                  "type": "uint256"
                }
              ],
              "internalType": "struct UserDataTypes.Date",
              "name": "dateOfBirth",
              "type": "tuple"
            },
            {
              "internalType": "string",
              "name": "nationality",
              "type": "string"
            },
            {
              "internalType": "string",
              "name": "phoneNumber",
              "type": "string"
            },
            {
              "internalType": "string",
              "name": "emailAddress",
              "type": "string"
            },
            {
              "internalType": "enum UserDataTypes.UserRole",
              "name": "role",
              "type": "uint8"
            },
            {
              "internalType": "uint256[]",
              "name": "studyProgramIds",
              "type": "uint256[]"
            }
          ],
          "internalType": "struct UserDataTypes.UserProfile",
          "name": "",
          "type": "tuple"
        }
      ],
      "stateMutability": "view",
      "type": "function"
    },
    {
      "inputs": [],
      "name": "isUserRegistered",
      "outputs": [
        {
          "internalType": "bool",
          "name": "",
          "type": "bool"
        }
      ],
      "stateMutability": "view",
      "type": "function"
    }
  ],
  "bytecode": "0x60806040523480156200001157600080fd5b5060405162001dc738038062001dc7833981810160405281019062000037919062000197565b8180806000806101000a81548173ffffffffffffffffffffffffffffffffffffffff021916908373ffffffffffffffffffffffffffffffffffffffff16021790555050506200008c82620000a560201b60201c565b6200009d81620000e960201b60201c565b5050620001de565b80600160006101000a81548173ffffffffffffffffffffffffffffffffffffffff021916908373ffffffffffffffffffffffffffffffffffffffff16021790555050565b80600660006101000a81548173ffffffffffffffffffffffffffffffffffffffff021916908373ffffffffffffffffffffffffffffffffffffffff16021790555050565b600080fd5b600073ffffffffffffffffffffffffffffffffffffffff82169050919050565b60006200015f8262000132565b9050919050565b620001718162000152565b81146200017d57600080fd5b50565b600081519050620001918162000166565b92915050565b60008060408385031215620001b157620001b06200012d565b5b6000620001c18582860162000180565b9250506020620001d48582860162000180565b9150509250929050565b611bd980620001ee6000396000f3fe608060405234801561001057600080fd5b50600436106100575760003560e01c8063873138f31461005c5780639dedeb821461007a578063ad68677214610098578063d6afc9b1146100b6578063e2842d79146100d4575b600080fd5b6100646100f2565b6040516100719190610912565b60405180910390f35b610082610195565b60405161008f9190610e0b565b60405180910390f35b6100a0610331565b6040516100ad9190610e3c565b60405180910390f35b6100be6103d4565b6040516100cb9190610f41565b60405180910390f35b6100dc6105fc565b6040516100e99190611062565b60405180910390f35b6000600160009054906101000a900473ffffffffffffffffffffffffffffffffffffffff1673ffffffffffffffffffffffffffffffffffffffff166338b6a3a1336040518263ffffffff1660e01b815260040161014f9190611093565b602060405180830381865afa15801561016c573d6000803e3d6000fd5b505050506040513d601f19601f8201168201806040525081019061019091906110ee565b905090565b60606002808111156101aa576101a961099a565b5b60008054906101000a900473ffffffffffffffffffffffffffffffffffffffff1673ffffffffffffffffffffffffffffffffffffffff1663dd8b2914336040518263ffffffff1660e01b81526004016102039190611093565b602060405180830381865afa158015610220573d6000803e3d6000fd5b505050506040513d601f19601f820116820180604052508101906102449190611140565b60028111156102565761025561099a565b5b14610296576040517f08c379a000000000000000000000000000000000000000000000000000000000815260040161028d906111f0565b60405180910390fd5b600660009054906101000a900473ffffffffffffffffffffffffffffffffffffffff1673ffffffffffffffffffffffffffffffffffffffff1663745fb1296040518163ffffffff1660e01b8152600401600060405180830381865afa158015610303573d6000803e3d6000fd5b505050506040513d6000823e3d601f19601f8201168201806040525081019061032c91906117f9565b905090565b6000600660009054906101000a900473ffffffffffffffffffffffffffffffffffffffff1673ffffffffffffffffffffffffffffffffffffffff166365b7109a336040518263ffffffff1660e01b815260040161038e9190611093565b602060405180830381865afa1580156103ab573d6000803e3d6000fd5b505050506040513d601f19601f820116820180604052508101906103cf9190611842565b905090565b6103dc610860565b60008054906101000a900473ffffffffffffffffffffffffffffffffffffffff1673ffffffffffffffffffffffffffffffffffffffff166338b6a3a1336040518263ffffffff1660e01b81526004016104359190611093565b602060405180830381865afa158015610452573d6000803e3d6000fd5b505050506040513d601f19601f8201168201806040525081019061047691906110ee565b6104b5576040517f08c379a00000000000000000000000000000000000000000000000000000000081526004016104ac906118bb565b60405180910390fd5b6000600160009054906101000a900473ffffffffffffffffffffffffffffffffffffffff1673ffffffffffffffffffffffffffffffffffffffff1663e3d7e14c336040518263ffffffff1660e01b81526004016105129190611093565b602060405180830381865afa15801561052f573d6000803e3d6000fd5b505050506040513d601f19601f8201168201806040525081019061055391906118db565b9050600160009054906101000a900473ffffffffffffffffffffffffffffffffffffffff1673ffffffffffffffffffffffffffffffffffffffff1663f08f4f64826040518263ffffffff1660e01b81526004016105b09190611917565b600060405180830381865afa1580156105cd573d6000803e3d6000fd5b505050506040513d6000823e3d601f19601f820116820180604052508101906105f69190611932565b91505090565b6060600160028111156106125761061161099a565b5b60008054906101000a900473ffffffffffffffffffffffffffffffffffffffff1673ffffffffffffffffffffffffffffffffffffffff1663dd8b2914336040518263ffffffff1660e01b815260040161066b9190611093565b602060405180830381865afa158015610688573d6000803e3d6000fd5b505050506040513d601f19601f820116820180604052508101906106ac9190611140565b60028111156106be576106bd61099a565b5b148061078657506002808111156106d8576106d761099a565b5b60008054906101000a900473ffffffffffffffffffffffffffffffffffffffff1673ffffffffffffffffffffffffffffffffffffffff1663dd8b2914336040518263ffffffff1660e01b81526004016107319190611093565b602060405180830381865afa15801561074e573d6000803e3d6000fd5b505050506040513d601f19601f820116820180604052508101906107729190611140565b60028111156107845761078361099a565b5b145b6107c5576040517f08c379a00000000000000000000000000000000000000000000000000000000081526004016107bc906119ed565b60405180910390fd5b600160009054906101000a900473ffffffffffffffffffffffffffffffffffffffff1673ffffffffffffffffffffffffffffffffffffffff1663e2842d796040518163ffffffff1660e01b8152600401600060405180830381865afa158015610832573d6000803e3d6000fd5b505050506040513d6000823e3d601f19601f8201168201806040525081019061085b9190611b5a565b905090565b60405180610120016040528060608152602001606081526020016000600281111561088e5761088d61099a565b5b815260200161089b6108d6565b8152602001606081526020016060815260200160608152602001600060028111156108c9576108c861099a565b5b8152602001606081525090565b60405180606001604052806000815260200160008152602001600081525090565b60008115159050919050565b61090c816108f7565b82525050565b60006020820190506109276000830184610903565b92915050565b600081519050919050565b600082825260208201905092915050565b6000819050602082019050919050565b600073ffffffffffffffffffffffffffffffffffffffff82169050919050565b600061098482610959565b9050919050565b61099481610979565b82525050565b7f4e487b7100000000000000000000000000000000000000000000000000000000600052602160045260246000fd5b600381106109da576109d961099a565b5b50565b60008190506109eb826109c9565b919050565b60006109fb826109dd565b9050919050565b610a0b816109f0565b82525050565b600081519050919050565b600082825260208201905092915050565b60005b83811015610a4b578082015181840152602081019050610a30565b60008484015250505050565b6000601f19601f8301169050919050565b6000610a7382610a11565b610a7d8185610a1c565b9350610a8d818560208601610a2d565b610a9681610a57565b840191505092915050565b60038110610ab257610ab161099a565b5b50565b6000819050610ac382610aa1565b919050565b6000610ad382610ab5565b9050919050565b610ae381610ac8565b82525050565b6000819050919050565b610afc81610ae9565b82525050565b606082016000820151610b186000850182610af3565b506020820151610b2b6020850182610af3565b506040820151610b3e6040850182610af3565b50505050565b60038110610b5557610b5461099a565b5b50565b6000819050610b6682610b44565b919050565b6000610b7682610b58565b9050919050565b610b8681610b6b565b82525050565b600081519050919050565b600082825260208201905092915050565b6000819050602082019050919050565b6000610bc48383610af3565b60208301905092915050565b6000602082019050919050565b6000610be882610b8c565b610bf28185610b97565b9350610bfd83610ba8565b8060005b83811015610c2e578151610c158882610bb8565b9750610c2083610bd0565b925050600181019050610c01565b5085935050505092915050565b6000610160830160008301518482036000860152610c598282610a68565b91505060208301518482036020860152610c738282610a68565b9150506040830151610c886040860182610ada565b506060830151610c9b6060860182610b02565b50608083015184820360c0860152610cb38282610a68565b91505060a083015184820360e0860152610ccd8282610a68565b91505060c0830151848203610100860152610ce88282610a68565b91505060e0830151610cfe610120860182610b7d565b50610100830151848203610140860152610d188282610bdd565b9150508091505092915050565b6000606083016000830151610d3d600086018261098b565b506020830151610d506020860182610a02565b5060408301518482036040860152610d688282610c3b565b9150508091505092915050565b6000610d818383610d25565b905092915050565b6000602082019050919050565b6000610da18261092d565b610dab8185610938565b935083602082028501610dbd85610949565b8060005b85811015610df95784840389528151610dda8582610d75565b9450610de583610d89565b925060208a01995050600181019050610dc1565b50829750879550505050505092915050565b60006020820190508181036000830152610e258184610d96565b905092915050565b610e36816109f0565b82525050565b6000602082019050610e516000830184610e2d565b92915050565b6000610160830160008301518482036000860152610e758282610a68565b91505060208301518482036020860152610e8f8282610a68565b9150506040830151610ea46040860182610ada565b506060830151610eb76060860182610b02565b50608083015184820360c0860152610ecf8282610a68565b91505060a083015184820360e0860152610ee98282610a68565b91505060c0830151848203610100860152610f048282610a68565b91505060e0830151610f1a610120860182610b7d565b50610100830151848203610140860152610f348282610bdd565b9150508091505092915050565b60006020820190508181036000830152610f5b8184610e57565b905092915050565b600081519050919050565b600082825260208201905092915050565b6000819050602082019050919050565b6000604083016000830151610fa76000860182610af3565b5060208301518482036020860152610fbf8282610c3b565b9150508091505092915050565b6000610fd88383610f8f565b905092915050565b6000602082019050919050565b6000610ff882610f63565b6110028185610f6e565b93508360208202850161101485610f7f565b8060005b8581101561105057848403895281516110318582610fcc565b945061103c83610fe0565b925060208a01995050600181019050611018565b50829750879550505050505092915050565b6000602082019050818103600083015261107c8184610fed565b905092915050565b61108d81610979565b82525050565b60006020820190506110a86000830184611084565b92915050565b6000604051905090565b600080fd5b600080fd5b6110cb816108f7565b81146110d657600080fd5b50565b6000815190506110e8816110c2565b92915050565b600060208284031215611104576111036110b8565b5b6000611112848285016110d9565b91505092915050565b6003811061112857600080fd5b50565b60008151905061113a8161111b565b92915050565b600060208284031215611156576111556110b8565b5b60006111648482850161112b565b91505092915050565b600082825260208201905092915050565b7f53656e646572206d75737420626520612073747564792070726f6772616d206d60008201527f616e616765720000000000000000000000000000000000000000000000000000602082015250565b60006111da60268361116d565b91506111e58261117e565b604082019050919050565b60006020820190508181036000830152611209816111cd565b9050919050565b600080fd5b7f4e487b7100000000000000000000000000000000000000000000000000000000600052604160045260246000fd5b61124d82610a57565b810181811067ffffffffffffffff8211171561126c5761126b611215565b5b80604052505050565b600061127f6110ae565b905061128b8282611244565b919050565b600067ffffffffffffffff8211156112ab576112aa611215565b5b602082029050602081019050919050565b600080fd5b600080fd5b600080fd5b6112d481610979565b81146112df57600080fd5b50565b6000815190506112f1816112cb565b92915050565b6003811061130457600080fd5b50565b600081519050611316816112f7565b92915050565b600080fd5b600067ffffffffffffffff82111561133c5761133b611215565b5b61134582610a57565b9050602081019050919050565b600061136561136084611321565b611275565b9050828152602081018484840111156113815761138061131c565b5b61138c848285610a2d565b509392505050565b600082601f8301126113a9576113a8611210565b5b81516113b9848260208601611352565b91505092915050565b600381106113cf57600080fd5b50565b6000815190506113e1816113c2565b92915050565b6113f081610ae9565b81146113fb57600080fd5b50565b60008151905061140d816113e7565b92915050565b600060608284031215611429576114286112c1565b5b6114336060611275565b90506000611443848285016113fe565b6000830152506020611457848285016113fe565b602083015250604061146b848285016113fe565b60408301525092915050565b600067ffffffffffffffff82111561149257611491611215565b5b602082029050602081019050919050565b60006114b66114b184611477565b611275565b905080838252602082019050602084028301858111156114d9576114d86112bc565b5b835b8181101561150257806114ee88826113fe565b8452602084019350506020810190506114db565b5050509392505050565b600082601f83011261152157611520611210565b5b81516115318482602086016114a3565b91505092915050565b60006101608284031215611551576115506112c1565b5b61155c610120611275565b9050600082015167ffffffffffffffff81111561157c5761157b6112c6565b5b61158884828501611394565b600083015250602082015167ffffffffffffffff8111156115ac576115ab6112c6565b5b6115b884828501611394565b60208301525060406115cc848285016113d2565b60408301525060606115e084828501611413565b60608301525060c082015167ffffffffffffffff811115611604576116036112c6565b5b61161084828501611394565b60808301525060e082015167ffffffffffffffff811115611634576116336112c6565b5b61164084828501611394565b60a08301525061010082015167ffffffffffffffff811115611665576116646112c6565b5b61167184828501611394565b60c0830152506101206116868482850161112b565b60e08301525061014082015167ffffffffffffffff8111156116ab576116aa6112c6565b5b6116b78482850161150c565b6101008301525092915050565b6000606082840312156116da576116d96112c1565b5b6116e46060611275565b905060006116f4848285016112e2565b600083015250602061170884828501611307565b602083015250604082015167ffffffffffffffff81111561172c5761172b6112c6565b5b6117388482850161153a565b60408301525092915050565b600061175761175284611290565b611275565b9050808382526020820190506020840283018581111561177a576117796112bc565b5b835b818110156117c157805167ffffffffffffffff81111561179f5761179e611210565b5b8086016117ac89826116c4565b8552602085019450505060208101905061177c565b5050509392505050565b600082601f8301126117e0576117df611210565b5b81516117f0848260208601611744565b91505092915050565b60006020828403121561180f5761180e6110b8565b5b600082015167ffffffffffffffff81111561182d5761182c6110bd565b5b611839848285016117cb565b91505092915050565b600060208284031215611858576118576110b8565b5b600061186684828501611307565b91505092915050565b7f53656e646572206d757374206265206120726567697374657265642075736572600082015250565b60006118a560208361116d565b91506118b08261186f565b602082019050919050565b600060208201905081810360008301526118d481611898565b9050919050565b6000602082840312156118f1576118f06110b8565b5b60006118ff848285016113fe565b91505092915050565b61191181610ae9565b82525050565b600060208201905061192c6000830184611908565b92915050565b600060208284031215611948576119476110b8565b5b600082015167ffffffffffffffff811115611966576119656110bd565b5b6119728482850161153a565b91505092915050565b7f53656e646572206d757374206265206c65637475726572206f7220737475647960008201527f2070726f6772616d206d616e6167657200000000000000000000000000000000602082015250565b60006119d760308361116d565b91506119e28261197b565b604082019050919050565b60006020820190508181036000830152611a06816119ca565b9050919050565b600067ffffffffffffffff821115611a2857611a27611215565b5b602082029050602081019050919050565b600060408284031215611a4f57611a4e6112c1565b5b611a596040611275565b90506000611a69848285016113fe565b600083015250602082015167ffffffffffffffff811115611a8d57611a8c6112c6565b5b611a998482850161153a565b60208301525092915050565b6000611ab8611ab384611a0d565b611275565b90508083825260208201905060208402830185811115611adb57611ada6112bc565b5b835b81811015611b2257805167ffffffffffffffff811115611b0057611aff611210565b5b808601611b0d8982611a39565b85526020850194505050602081019050611add565b5050509392505050565b600082601f830112611b4157611b40611210565b5b8151611b51848260208601611aa5565b91505092915050565b600060208284031215611b7057611b6f6110b8565b5b600082015167ffffffffffffffff811115611b8e57611b8d6110bd565b5b611b9a84828501611b2c565b9150509291505056fea26469706673582212205a988f1136f37bc5539d8d73d939f596be078fe878b2c52afd57fa00c34b138264736f6c63430008110033",
  "linkReferences": {},
  "deployedLinkReferences": {}
}