{
  "_format": "hh-sol-artifact-1",
  "contractName": "AssessmentDataStorage",
  "sourceName": "contracts/data/storage/assessment/AssessmentDataStorage.sol",
  "abi": [
    {
      "inputs": [
        {
          "internalType": "address",
          "name": "accessWhitelistAddress",
          "type": "address"
        }
      ],
      "stateMutability": "nonpayable",
      "type": "constructor"
    },
    {
      "inputs": [
        {
          "internalType": "uint256",
          "name": "assessmentId",
          "type": "uint256"
        }
      ],
      "name": "getAssessment",
      "outputs": [
        {
          "components": [
            {
              "internalType": "uint256",
              "name": "assessmentId",
              "type": "uint256"
            },
            {
              "components": [
                {
                  "internalType": "string",
                  "name": "title",
                  "type": "string"
                },
                {
                  "internalType": "uint256",
                  "name": "datetime",
                  "type": "uint256"
                },
                {
                  "internalType": "string",
                  "name": "place",
                  "type": "string"
                },
                {
                  "internalType": "enum CourseDataTypes.AssessmentType",
                  "name": "assessmentType",
                  "type": "uint8"
                },
                {
                  "internalType": "uint256",
                  "name": "maxPoints",
                  "type": "uint256"
                },
                {
                  "internalType": "uint256",
                  "name": "minPoints",
                  "type": "uint256"
                },
                {
                  "internalType": "bool",
                  "name": "isRegistrationRequired",
                  "type": "bool"
                },
                {
                  "internalType": "uint256",
                  "name": "registrationStart",
                  "type": "uint256"
                },
                {
                  "internalType": "uint256",
                  "name": "registrationDeadline",
                  "type": "uint256"
                },
                {
                  "internalType": "uint256",
                  "name": "deregistrationDeadline",
                  "type": "uint256"
                }
              ],
              "internalType": "struct CourseDataTypes.AssessmentContent",
              "name": "content",
              "type": "tuple"
            }
          ],
          "internalType": "struct CourseDataTypes.Assessment",
          "name": "",
          "type": "tuple"
        }
      ],
      "stateMutability": "view",
      "type": "function"
    },
    {
      "inputs": [
        {
          "internalType": "uint256",
          "name": "registrantUId",
          "type": "uint256"
        }
      ],
      "name": "getAssessmentIdsOfRegistrant",
      "outputs": [
        {
          "internalType": "uint256[]",
          "name": "",
          "type": "uint256[]"
        }
      ],
      "stateMutability": "view",
      "type": "function"
    },
    {
      "inputs": [
        {
          "internalType": "uint256",
          "name": "courseId",
          "type": "uint256"
        }
      ],
      "name": "getAssessments",
      "outputs": [
        {
          "components": [
            {
              "internalType": "uint256",
              "name": "assessmentId",
              "type": "uint256"
            },
            {
              "components": [
                {
                  "internalType": "string",
                  "name": "title",
                  "type": "string"
                },
                {
                  "internalType": "uint256",
                  "name": "datetime",
                  "type": "uint256"
                },
                {
                  "internalType": "string",
                  "name": "place",
                  "type": "string"
                },
                {
                  "internalType": "enum CourseDataTypes.AssessmentType",
                  "name": "assessmentType",
                  "type": "uint8"
                },
                {
                  "internalType": "uint256",
                  "name": "maxPoints",
                  "type": "uint256"
                },
                {
                  "internalType": "uint256",
                  "name": "minPoints",
                  "type": "uint256"
                },
                {
                  "internalType": "bool",
                  "name": "isRegistrationRequired",
                  "type": "bool"
                },
                {
                  "internalType": "uint256",
                  "name": "registrationStart",
                  "type": "uint256"
                },
                {
                  "internalType": "uint256",
                  "name": "registrationDeadline",
                  "type": "uint256"
                },
                {
                  "internalType": "uint256",
                  "name": "deregistrationDeadline",
                  "type": "uint256"
                }
              ],
              "internalType": "struct CourseDataTypes.AssessmentContent",
              "name": "content",
              "type": "tuple"
            }
          ],
          "internalType": "struct CourseDataTypes.Assessment[]",
          "name": "",
          "type": "tuple[]"
        }
      ],
      "stateMutability": "view",
      "type": "function"
    },
    {
      "inputs": [
        {
          "internalType": "uint256",
          "name": "assessmentId",
          "type": "uint256"
        }
      ],
      "name": "getCourseIdOfAssessment",
      "outputs": [
        {
          "internalType": "uint256",
          "name": "",
          "type": "uint256"
        }
      ],
      "stateMutability": "view",
      "type": "function"
    },
    {
      "inputs": [
        {
          "internalType": "uint256",
          "name": "assessmentId",
          "type": "uint256"
        }
      ],
      "name": "getRegistrantIdsOfAssessment",
      "outputs": [
        {
          "internalType": "uint256[]",
          "name": "",
          "type": "uint256[]"
        }
      ],
      "stateMutability": "view",
      "type": "function"
    },
    {
      "inputs": [
        {
          "internalType": "uint256",
          "name": "assessmentId",
          "type": "uint256"
        },
        {
          "internalType": "uint256",
          "name": "registrantUId",
          "type": "uint256"
        }
      ],
      "name": "removeRegistrant",
      "outputs": [],
      "stateMutability": "nonpayable",
      "type": "function"
    },
    {
      "inputs": [
        {
          "internalType": "uint256",
          "name": "courseId",
          "type": "uint256"
        },
        {
          "components": [
            {
              "internalType": "uint256",
              "name": "assessmentId",
              "type": "uint256"
            },
            {
              "components": [
                {
                  "internalType": "string",
                  "name": "title",
                  "type": "string"
                },
                {
                  "internalType": "uint256",
                  "name": "datetime",
                  "type": "uint256"
                },
                {
                  "internalType": "string",
                  "name": "place",
                  "type": "string"
                },
                {
                  "internalType": "enum CourseDataTypes.AssessmentType",
                  "name": "assessmentType",
                  "type": "uint8"
                },
                {
                  "internalType": "uint256",
                  "name": "maxPoints",
                  "type": "uint256"
                },
                {
                  "internalType": "uint256",
                  "name": "minPoints",
                  "type": "uint256"
                },
                {
                  "internalType": "bool",
                  "name": "isRegistrationRequired",
                  "type": "bool"
                },
                {
                  "internalType": "uint256",
                  "name": "registrationStart",
                  "type": "uint256"
                },
                {
                  "internalType": "uint256",
                  "name": "registrationDeadline",
                  "type": "uint256"
                },
                {
                  "internalType": "uint256",
                  "name": "deregistrationDeadline",
                  "type": "uint256"
                }
              ],
              "internalType": "struct CourseDataTypes.AssessmentContent",
              "name": "content",
              "type": "tuple"
            }
          ],
          "internalType": "struct CourseDataTypes.Assessment",
          "name": "assessment",
          "type": "tuple"
        }
      ],
      "name": "storeAssessment",
      "outputs": [],
      "stateMutability": "nonpayable",
      "type": "function"
    },
    {
      "inputs": [
        {
          "internalType": "uint256",
          "name": "assessmentId",
          "type": "uint256"
        },
        {
          "internalType": "uint256",
          "name": "registrantUId",
          "type": "uint256"
        }
      ],
      "name": "storeRegistrant",
      "outputs": [],
      "stateMutability": "nonpayable",
      "type": "function"
    }
  ],
  "bytecode": "0x60806040523480156200001157600080fd5b50604051620030b0380380620030b08339818101604052810190620000379190620000ec565b8080806000806101000a81548173ffffffffffffffffffffffffffffffffffffffff021916908373ffffffffffffffffffffffffffffffffffffffff1602179055505050506200011e565b600080fd5b600073ffffffffffffffffffffffffffffffffffffffff82169050919050565b6000620000b48262000087565b9050919050565b620000c681620000a7565b8114620000d257600080fd5b50565b600081519050620000e681620000bb565b92915050565b60006020828403121562000105576200010462000082565b5b60006200011584828501620000d5565b91505092915050565b612f82806200012e6000396000f3fe608060405234801561001057600080fd5b50600436106100885760003560e01c8063b8e517871161005b578063b8e5178714610125578063ecd8a67714610155578063ed37324914610171578063f6554de4146101a157610088565b806344b848741461008d5780635bccdece146100bd578063adfb1f8a146100d9578063b4ab4bab14610109575b600080fd5b6100a760048036038101906100a29190611cde565b6101d1565b6040516100b49190611dc9565b60405180910390f35b6100d760048036038101906100d29190611e0f565b610315565b005b6100f360048036038101906100ee9190611cde565b6107b4565b6040516101009190611e7a565b60405180910390f35b610123600480360381019061011e9190611e95565b610900565b005b61013f600480360381019061013a9190611cde565b610ad5565b60405161014c9190612115565b60405180910390f35b61016f600480360381019061016a9190611e95565b610e05565b005b61018b60048036038101906101869190611cde565b610fda565b6040516101989190611dc9565b60405180910390f35b6101bb60048036038101906101b69190611cde565b61115d565b6040516101c89190612236565b60405180910390f35b606060008054906101000a900473ffffffffffffffffffffffffffffffffffffffff1673ffffffffffffffffffffffffffffffffffffffff166313f44d10336040518263ffffffff1660e01b815260040161022c9190612299565b602060405180830381865afa158015610249573d6000803e3d6000fd5b505050506040513d601f19601f8201168201806040525081019061026d91906122e0565b6102ac576040517f08c379a00000000000000000000000000000000000000000000000000000000081526004016102a39061236a565b60405180910390fd5b6002600083815260200190815260200160002080548060200260200160405190810160405280929190818152602001828054801561030957602002820191906000526020600020905b8154815260200190600101908083116102f5575b50505050509050919050565b60008054906101000a900473ffffffffffffffffffffffffffffffffffffffff1673ffffffffffffffffffffffffffffffffffffffff166313f44d10336040518263ffffffff1660e01b815260040161036e9190612299565b602060405180830381865afa15801561038b573d6000803e3d6000fd5b505050506040513d601f19601f820116820180604052508101906103af91906122e0565b6103ee576040517f08c379a00000000000000000000000000000000000000000000000000000000081526004016103e59061236a565b60405180910390fd5b61042d826040518060400160405280600981526020017f436f7572736520494400000000000000000000000000000000000000000000008152506114bc565b61047081600001356040518060400160405280600d81526020017f4173736573736d656e74204944000000000000000000000000000000000000008152506114bc565b6106f981600001356106be60036000868152602001908152602001600020805480602002602001604051908101604052809291908181526020016000905b828210156106b557838290600052602060002090600b02016040518060400160405290816000820154815260200160018201604051806101400160405290816000820180546104fc906123b9565b80601f0160208091040260200160405190810160405280929190818152602001828054610528906123b9565b80156105755780601f1061054a57610100808354040283529160200191610575565b820191906000526020600020905b81548152906001019060200180831161055857829003601f168201915b5050505050815260200160018201548152602001600282018054610598906123b9565b80601f01602080910402602001604051908101604052809291908181526020018280546105c4906123b9565b80156106115780601f106105e657610100808354040283529160200191610611565b820191906000526020600020905b8154815290600101906020018083116105f457829003601f168201915b505050505081526020016003820160009054906101000a900460ff16600181111561063f5761063e611f65565b5b600181111561065157610650611f65565b5b815260200160048201548152602001600582015481526020016006820160009054906101000a900460ff16151515158152602001600782015481526020016008820154815260200160098201548152505081525050815260200190600101906104ae565b5050505061152b565b6040518060400160405280600d81526020017f4173736573736d656e74204944000000000000000000000000000000000000008152506115e0565b6000600360008481526020019081526020016000209050808290806001815401808255809150506001900390600052602060002090600b020160009091909190915081816107479190612a52565b5050806003600085815260200190815260200160002090805461076b92919061198e565b508260046000846000013581526020019081526020016000208190555081600560008460000135815260200190815260200160002081816107ac9190612a52565b905050505050565b60008060009054906101000a900473ffffffffffffffffffffffffffffffffffffffff1673ffffffffffffffffffffffffffffffffffffffff166313f44d10336040518263ffffffff1660e01b81526004016108109190612299565b602060405180830381865afa15801561082d573d6000803e3d6000fd5b505050506040513d601f19601f8201168201806040525081019061085191906122e0565b610890576040517f08c379a00000000000000000000000000000000000000000000000000000000081526004016108879061236a565b60405180910390fd5b6108e560056000848152602001908152602001600020600001546040518060400160405280600d81526020017f4173736573736d656e7420494400000000000000000000000000000000000000815250611652565b60046000838152602001908152602001600020549050919050565b60008054906101000a900473ffffffffffffffffffffffffffffffffffffffff1673ffffffffffffffffffffffffffffffffffffffff166313f44d10336040518263ffffffff1660e01b81526004016109599190612299565b602060405180830381865afa158015610976573d6000803e3d6000fd5b505050506040513d601f19601f8201168201806040525081019061099a91906122e0565b6109d9576040517f08c379a00000000000000000000000000000000000000000000000000000000081526004016109d09061236a565b60405180910390fd5b610a18826040518060400160405280600d81526020017f4173736573736d656e74204944000000000000000000000000000000000000008152506114bc565b610ab98160016000858152602001908152602001600020805480602002602001604051908101604052809291908181526020018280548015610a7957602002820191906000526020600020905b815481526020019060010190808311610a65575b50505050506040518060400160405280600e81526020017f52656769737472616e74207549440000000000000000000000000000000000008152506115e0565b610ac5818360016116c1565b610ad1828260026116c1565b5050565b610add611aca565b60008054906101000a900473ffffffffffffffffffffffffffffffffffffffff1673ffffffffffffffffffffffffffffffffffffffff166313f44d10336040518263ffffffff1660e01b8152600401610b369190612299565b602060405180830381865afa158015610b53573d6000803e3d6000fd5b505050506040513d601f19601f82011682018060405250810190610b7791906122e0565b610bb6576040517f08c379a0000000000000000000000000000000000000000000000000000000008152600401610bad9061236a565b60405180910390fd5b610c0b60056000848152602001908152602001600020600001546040518060400160405280600d81526020017f4173736573736d656e7420494400000000000000000000000000000000000000815250611652565b60056000838152602001908152602001600020604051806040016040529081600082015481526020016001820160405180610140016040529081600082018054610c54906123b9565b80601f0160208091040260200160405190810160405280929190818152602001828054610c80906123b9565b8015610ccd5780601f10610ca257610100808354040283529160200191610ccd565b820191906000526020600020905b815481529060010190602001808311610cb057829003601f168201915b5050505050815260200160018201548152602001600282018054610cf0906123b9565b80601f0160208091040260200160405190810160405280929190818152602001828054610d1c906123b9565b8015610d695780601f10610d3e57610100808354040283529160200191610d69565b820191906000526020600020905b815481529060010190602001808311610d4c57829003601f168201915b505050505081526020016003820160009054906101000a900460ff166001811115610d9757610d96611f65565b5b6001811115610da957610da8611f65565b5b815260200160048201548152602001600582015481526020016006820160009054906101000a900460ff161515151581526020016007820154815260200160088201548152602001600982015481525050815250509050919050565b60008054906101000a900473ffffffffffffffffffffffffffffffffffffffff1673ffffffffffffffffffffffffffffffffffffffff166313f44d10336040518263ffffffff1660e01b8152600401610e5e9190612299565b602060405180830381865afa158015610e7b573d6000803e3d6000fd5b505050506040513d601f19601f82011682018060405250810190610e9f91906122e0565b610ede576040517f08c379a0000000000000000000000000000000000000000000000000000000008152600401610ed59061236a565b60405180910390fd5b610f1d826040518060400160405280600d81526020017f4173736573736d656e74204944000000000000000000000000000000000000008152506114bc565b610fbe8160016000858152602001908152602001600020805480602002602001604051908101604052809291908181526020018280548015610f7e57602002820191906000526020600020905b815481526020019060010190808311610f6a575b50505050506040518060400160405280600e81526020017f52656769737472616e7420754944000000000000000000000000000000000000815250611727565b610fca81836001611798565b610fd682826002611798565b5050565b606060008054906101000a900473ffffffffffffffffffffffffffffffffffffffff1673ffffffffffffffffffffffffffffffffffffffff166313f44d10336040518263ffffffff1660e01b81526004016110359190612299565b602060405180830381865afa158015611052573d6000803e3d6000fd5b505050506040513d601f19601f8201168201806040525081019061107691906122e0565b6110b5576040517f08c379a00000000000000000000000000000000000000000000000000000000081526004016110ac9061236a565b60405180910390fd5b6110f4826040518060400160405280600d81526020017f4173736573736d656e74204944000000000000000000000000000000000000008152506114bc565b6001600083815260200190815260200160002080548060200260200160405190810160405280929190818152602001828054801561115157602002820191906000526020600020905b81548152602001906001019080831161113d575b50505050509050919050565b606060008054906101000a900473ffffffffffffffffffffffffffffffffffffffff1673ffffffffffffffffffffffffffffffffffffffff166313f44d10336040518263ffffffff1660e01b81526004016111b89190612299565b602060405180830381865afa1580156111d5573d6000803e3d6000fd5b505050506040513d601f19601f820116820180604052508101906111f991906122e0565b611238576040517f08c379a000000000000000000000000000000000000000000000000000000000815260040161122f9061236a565b60405180910390fd5b611277826040518060400160405280600981526020017f436f7572736520494400000000000000000000000000000000000000000000008152506114bc565b60036000838152602001908152602001600020805480602002602001604051908101604052809291908181526020016000905b828210156114b157838290600052602060002090600b02016040518060400160405290816000820154815260200160018201604051806101400160405290816000820180546112f8906123b9565b80601f0160208091040260200160405190810160405280929190818152602001828054611324906123b9565b80156113715780601f1061134657610100808354040283529160200191611371565b820191906000526020600020905b81548152906001019060200180831161135457829003601f168201915b5050505050815260200160018201548152602001600282018054611394906123b9565b80601f01602080910402602001604051908101604052809291908181526020018280546113c0906123b9565b801561140d5780601f106113e25761010080835404028352916020019161140d565b820191906000526020600020905b8154815290600101906020018083116113f057829003601f168201915b505050505081526020016003820160009054906101000a900460ff16600181111561143b5761143a611f65565b5b600181111561144d5761144c611f65565b5b815260200160048201548152602001600582015481526020016006820160009054906101000a900460ff16151515158152602001600782015481526020016008820154815260200160098201548152505081525050815260200190600101906112aa565b505050509050919050565b6114c5826117e0565b816040516020016114d69190612ae8565b60405160208183030381529060405290611526576040517f08c379a000000000000000000000000000000000000000000000000000000000815260040161151d9190612b43565b60405180910390fd5b505050565b60606000825167ffffffffffffffff81111561154a5761154961254e565b5b6040519080825280602002602001820160405280156115785781602001602082028036833780820191505090505b50905060005b83518110156115d65783818151811061159a57611599612b65565b5b6020026020010151600001518282815181106115b9576115b8612b65565b5b602002602001018181525050806115cf90612bc3565b905061157e565b5080915050919050565b6115ea83836117ed565b15816040516020016115fc9190612ca3565b6040516020818303038152906040529061164c576040517f08c379a00000000000000000000000000000000000000000000000000000000081526004016116439190612b43565b60405180910390fd5b50505050565b61165b826117e0565b8160405160200161166c9190612d1c565b604051602081830303815290604052906116bc576040517f08c379a00000000000000000000000000000000000000000000000000000000081526004016116b39190612b43565b60405180910390fd5b505050565b600081600084815260200190815260200160002090508084908060018154018082558091505060019003906000526020600020016000909190919091505580826000858152602001908152602001600020908054611720929190611aea565b5050505050565b61173183836117ed565b816040516020016117429190612d8a565b60405160208183030381529060405290611792576040517f08c379a00000000000000000000000000000000000000000000000000000000081526004016117899190612b43565b60405180910390fd5b50505050565b600081600084815260200190815260200160002090506117b88482611804565b808260008581526020019081526020016000209080546117d9929190611aea565b5050505050565b6000808214159050919050565b6000806117fa8484611917565b1215905092915050565b600061185f838380548060200260200160405190810160405280929190818152602001828054801561185557602002820191906000526020600020905b815481526020019060010190808311611841575b5050505050611917565b90506000811261191257600081905060008190505b600184805490506118859190612db7565b8110156118e8578360018261189a9190612deb565b815481106118ab576118aa612b65565b5b90600052602060002001548482815481106118c9576118c8612b65565b5b9060005260206000200181905550806118e190612bc3565b9050611874565b50828054806118fa576118f9612e1f565b5b60019003818190600052602060002001600090559055505b505050565b600080600090505b8251811015611963578383828151811061193c5761193b612b65565b5b6020026020010151036119525780915050611988565b8061195c90612bc3565b905061191f565b507fffffffffffffffffffffffffffffffffffffffffffffffffffffffffffffffff90505b92915050565b82805482825590600052602060002090600b028101928215611ab957600052602060002091600b0282015b82811115611ab8578282600082015481600001556001820181600101600082018160000190816119e99190612e64565b506001820154816001015560028201816002019081611a089190612e64565b506003820160009054906101000a900460ff168160030160006101000a81548160ff02191690836001811115611a4157611a40611f65565b5b021790555060048201548160040155600582015481600501556006820160009054906101000a900460ff168160060160006101000a81548160ff0219169083151502179055506007820154816007015560088201548160080155600982015481600901555050505091600b019190600b01906119b9565b5b509050611ac69190611b3c565b5090565b604051806040016040528060008152602001611ae4611bda565b81525090565b828054828255906000526020600020908101928215611b2b5760005260206000209182015b82811115611b2a578254825591600101919060010190611b0f565b5b509050611b389190611c41565b5090565b5b80821115611bd6576000808201600090556001820160008082016000611b639190611c5e565b6001820160009055600282016000611b7b9190611c5e565b6003820160006101000a81549060ff0219169055600482016000905560058201600090556006820160006101000a81549060ff0219169055600782016000905560088201600090556009820160009055505050600b01611b3d565b5090565b60405180610140016040528060608152602001600081526020016060815260200160006001811115611c0f57611c0e611f65565b5b815260200160008152602001600081526020016000151581526020016000815260200160008152602001600081525090565b5b80821115611c5a576000816000905550600101611c42565b5090565b508054611c6a906123b9565b6000825580601f10611c7c5750611c9b565b601f016020900490600052602060002090810190611c9a9190611c41565b5b50565b600080fd5b600080fd5b6000819050919050565b611cbb81611ca8565b8114611cc657600080fd5b50565b600081359050611cd881611cb2565b92915050565b600060208284031215611cf457611cf3611c9e565b5b6000611d0284828501611cc9565b91505092915050565b600081519050919050565b600082825260208201905092915050565b6000819050602082019050919050565b611d4081611ca8565b82525050565b6000611d528383611d37565b60208301905092915050565b6000602082019050919050565b6000611d7682611d0b565b611d808185611d16565b9350611d8b83611d27565b8060005b83811015611dbc578151611da38882611d46565b9750611dae83611d5e565b925050600181019050611d8f565b5085935050505092915050565b60006020820190508181036000830152611de38184611d6b565b905092915050565b600080fd5b600060408284031215611e0657611e05611deb565b5b81905092915050565b60008060408385031215611e2657611e25611c9e565b5b6000611e3485828601611cc9565b925050602083013567ffffffffffffffff811115611e5557611e54611ca3565b5b611e6185828601611df0565b9150509250929050565b611e7481611ca8565b82525050565b6000602082019050611e8f6000830184611e6b565b92915050565b60008060408385031215611eac57611eab611c9e565b5b6000611eba85828601611cc9565b9250506020611ecb85828601611cc9565b9150509250929050565b600081519050919050565b600082825260208201905092915050565b60005b83811015611f0f578082015181840152602081019050611ef4565b60008484015250505050565b6000601f19601f8301169050919050565b6000611f3782611ed5565b611f418185611ee0565b9350611f51818560208601611ef1565b611f5a81611f1b565b840191505092915050565b7f4e487b7100000000000000000000000000000000000000000000000000000000600052602160045260246000fd5b60028110611fa557611fa4611f65565b5b50565b6000819050611fb682611f94565b919050565b6000611fc682611fa8565b9050919050565b611fd681611fbb565b82525050565b60008115159050919050565b611ff181611fdc565b82525050565b60006101408301600083015184820360008601526120158282611f2c565b915050602083015161202a6020860182611d37565b50604083015184820360408601526120428282611f2c565b91505060608301516120576060860182611fcd565b50608083015161206a6080860182611d37565b5060a083015161207d60a0860182611d37565b5060c083015161209060c0860182611fe8565b5060e08301516120a360e0860182611d37565b506101008301516120b8610100860182611d37565b506101208301516120cd610120860182611d37565b508091505092915050565b60006040830160008301516120f06000860182611d37565b50602083015184820360208601526121088282611ff7565b9150508091505092915050565b6000602082019050818103600083015261212f81846120d8565b905092915050565b600081519050919050565b600082825260208201905092915050565b6000819050602082019050919050565b600060408301600083015161217b6000860182611d37565b50602083015184820360208601526121938282611ff7565b9150508091505092915050565b60006121ac8383612163565b905092915050565b6000602082019050919050565b60006121cc82612137565b6121d68185612142565b9350836020820285016121e885612153565b8060005b85811015612224578484038952815161220585826121a0565b9450612210836121b4565b925060208a019950506001810190506121ec565b50829750879550505050505092915050565b6000602082019050818103600083015261225081846121c1565b905092915050565b600073ffffffffffffffffffffffffffffffffffffffff82169050919050565b600061228382612258565b9050919050565b61229381612278565b82525050565b60006020820190506122ae600083018461228a565b92915050565b6122bd81611fdc565b81146122c857600080fd5b50565b6000815190506122da816122b4565b92915050565b6000602082840312156122f6576122f5611c9e565b5b6000612304848285016122cb565b91505092915050565b600082825260208201905092915050565b7f5468652073656e646572206973206e6f742077686974656c6973746564000000600082015250565b6000612354601d8361230d565b915061235f8261231e565b602082019050919050565b6000602082019050818103600083015261238381612347565b9050919050565b7f4e487b7100000000000000000000000000000000000000000000000000000000600052602260045260246000fd5b600060028204905060018216806123d157607f821691505b6020821081036123e4576123e361238a565b5b50919050565b600081356123f781611cb2565b80915050919050565b60008160001b9050919050565b60007fffffffffffffffffffffffffffffffffffffffffffffffffffffffffffffffff61243984612400565b9350801983169250808416831791505092915050565b6000819050919050565b600061247461246f61246a84611ca8565b61244f565b611ca8565b9050919050565b6000819050919050565b61248e82612459565b6124a161249a8261247b565b835461240d565b8255505050565b600080fd5b600080fd5b600080fd5b600082356001610140038336030381126124d4576124d36124a8565b5b80830191505092915050565b600080833560016020038436030381126124fd576124fc6124a8565b5b80840192508235915067ffffffffffffffff82111561251f5761251e6124ad565b5b60208301925060018202360383131561253b5761253a6124b2565b5b509250929050565b600082905092915050565b7f4e487b7100000000000000000000000000000000000000000000000000000000600052604160045260246000fd5b60008190508160005260206000209050919050565b60006020601f8301049050919050565b600082821b905092915050565b6000600883026125df7fffffffffffffffffffffffffffffffffffffffffffffffffffffffffffffffff826125a2565b6125e986836125a2565b95508019841693508086168417925050509392505050565b61260a83612459565b61261e6126168261247b565b8484546125af565b825550505050565b600090565b612633612626565b61263e818484612601565b505050565b5b818110156126625761265760008261262b565b600181019050612644565b5050565b601f8211156126a7576126788161257d565b61268184612592565b81016020851015612690578190505b6126a461269c85612592565b830182612643565b50505b505050565b600082821c905092915050565b60006126ca600019846008026126ac565b1980831691505092915050565b60006126e383836126b9565b9150826002028217905092915050565b6126fd8383612543565b67ffffffffffffffff8111156127165761271561254e565b5b61272082546123b9565b61272b828285612666565b6000601f83116001811461275a5760008415612748578287013590505b61275285826126d7565b8655506127ba565b601f1984166127688661257d565b60005b828110156127905784890135825560018201915060208501945060208101905061276b565b868310156127ad57848901356127a9601f8916826126b9565b8355505b6001600288020188555050505b50505050505050565b6127ce8383836126f3565b505050565b600281106127e057600080fd5b50565b600081356127f0816127d3565b80915050919050565b600060ff61280684612400565b9350801983169250808416831791505092915050565b600061282782611fa8565b9050919050565b6000819050919050565b6128418261281c565b61285461284d8261282e565b83546127f9565b8255505050565b60008135612868816122b4565b80915050919050565b600061287c82611fdc565b9050919050565b6000819050919050565b61289682612871565b6128a96128a282612883565b83546127f9565b8255505050565b60008101600083016128c281856124e0565b6128cd8183866127c3565b505050506001810160208301806128e3816123ea565b90506128ef8184612485565b505050600281016040830161290481856124e0565b61290f8183866127c3565b50505050600381016060830180612925816127e3565b90506129318184612838565b505050600481016080830180612946816123ea565b90506129528184612485565b5050506005810160a0830180612967816123ea565b90506129738184612485565b5050506006810160c08301806129888161285b565b9050612994818461288d565b5050506007810160e08301806129a9816123ea565b90506129b58184612485565b505050600881016101008301806129cb816123ea565b90506129d78184612485565b505050600981016101208301806129ed816123ea565b90506129f98184612485565b5050505050565b612a0a82826128b0565b5050565b600081016000830180612a20816123ea565b9050612a2c8184612485565b5050506001810160208301612a4181856124b7565b612a4b8184612a00565b5050505050565b612a5c8282612a0e565b5050565b600081905092915050565b7f496e76616c696420000000000000000000000000000000000000000000000000600082015250565b6000612aa1600883612a60565b9150612aac82612a6b565b600882019050919050565b6000612ac282611ed5565b612acc8185612a60565b9350612adc818560208601611ef1565b80840191505092915050565b6000612af382612a94565b9150612aff8284612ab7565b915081905092915050565b6000612b1582611ed5565b612b1f818561230d565b9350612b2f818560208601611ef1565b612b3881611f1b565b840191505092915050565b60006020820190508181036000830152612b5d8184612b0a565b905092915050565b7f4e487b7100000000000000000000000000000000000000000000000000000000600052603260045260246000fd5b7f4e487b7100000000000000000000000000000000000000000000000000000000600052601160045260246000fd5b6000612bce82611ca8565b91507fffffffffffffffffffffffffffffffffffffffffffffffffffffffffffffffff8203612c0057612bff612b94565b5b600182019050919050565b7f56616c756520776974682074686520676976656e200000000000000000000000600082015250565b6000612c41601583612a60565b9150612c4c82612c0b565b601582019050919050565b7f2068617320616c7265616479206265656e206164646564000000000000000000600082015250565b6000612c8d601783612a60565b9150612c9882612c57565b601782019050919050565b6000612cae82612c34565b9150612cba8284612ab7565b9150612cc582612c80565b915081905092915050565b7f20646f6573206e6f7420657869737420617420676976656e2049440000000000600082015250565b6000612d06601b83612a60565b9150612d1182612cd0565b601b82019050919050565b6000612d288284612ab7565b9150612d3382612cf9565b915081905092915050565b7f20686173206e6f74206265656e20616464656400000000000000000000000000600082015250565b6000612d74601383612a60565b9150612d7f82612d3e565b601382019050919050565b6000612d9582612c34565b9150612da18284612ab7565b9150612dac82612d67565b915081905092915050565b6000612dc282611ca8565b9150612dcd83611ca8565b9250828203905081811115612de557612de4612b94565b5b92915050565b6000612df682611ca8565b9150612e0183611ca8565b9250828201905080821115612e1957612e18612b94565b5b92915050565b7f4e487b7100000000000000000000000000000000000000000000000000000000600052603160045260246000fd5b600081549050612e5d816123b9565b9050919050565b818103612e72575050612f4a565b612e7b82612e4e565b67ffffffffffffffff811115612e9457612e9361254e565b5b612e9e82546123b9565b612ea9828285612666565b6000601f831160018114612ed85760008415612ec6578287015490505b612ed085826126d7565b865550612f43565b601f198416612ee68761257d565b9650612ef18661257d565b60005b82811015612f1957848901548255600182019150600185019450602081019050612ef4565b86831015612f365784890154612f32601f8916826126b9565b8355505b6001600288020188555050505b5050505050505b56fea2646970667358221220120d4fe28c356148eb595c96e365b88677bf1bd572272c7b6ae4721c5c5a354564736f6c63430008110033",
  "linkReferences": {},
  "deployedLinkReferences": {}
}