{
  "_format": "hh-sol-artifact-1",
  "contractName": "AccessWhitelist",
  "sourceName": "contracts/accesscontrol/AccessWhitelist.sol",
  "abi": [
    {
      "inputs": [],
      "stateMutability": "nonpayable",
      "type": "constructor"
    },
    {
      "inputs": [
        {
          "internalType": "address",
          "name": "_address",
          "type": "address"
        }
      ],
      "name": "addAdmin",
      "outputs": [],
      "stateMutability": "nonpayable",
      "type": "function"
    },
    {
      "inputs": [
        {
          "internalType": "address[]",
          "name": "addresses",
          "type": "address[]"
        }
      ],
      "name": "batchAddAdmin",
      "outputs": [],
      "stateMutability": "nonpayable",
      "type": "function"
    },
    {
      "inputs": [
        {
          "internalType": "address[]",
          "name": "addresses",
          "type": "address[]"
        }
      ],
      "name": "batchGrantAccess",
      "outputs": [],
      "stateMutability": "nonpayable",
      "type": "function"
    },
    {
      "inputs": [
        {
          "internalType": "address",
          "name": "_address",
          "type": "address"
        }
      ],
      "name": "grantAccess",
      "outputs": [],
      "stateMutability": "nonpayable",
      "type": "function"
    },
    {
      "inputs": [
        {
          "internalType": "address",
          "name": "_address",
          "type": "address"
        }
      ],
      "name": "isAddressWhitelisted",
      "outputs": [
        {
          "internalType": "bool",
          "name": "",
          "type": "bool"
        }
      ],
      "stateMutability": "view",
      "type": "function"
    },
    {
      "inputs": [],
      "name": "isSenderAdmin",
      "outputs": [
        {
          "internalType": "bool",
          "name": "",
          "type": "bool"
        }
      ],
      "stateMutability": "view",
      "type": "function"
    },
    {
      "inputs": [
        {
          "internalType": "address",
          "name": "_address",
          "type": "address"
        }
      ],
      "name": "removeAdmin",
      "outputs": [],
      "stateMutability": "nonpayable",
      "type": "function"
    },
    {
      "inputs": [
        {
          "internalType": "address",
          "name": "_address",
          "type": "address"
        }
      ],
      "name": "revokeAccess",
      "outputs": [],
      "stateMutability": "nonpayable",
      "type": "function"
    }
  ],
  "bytecode": "0x608060405234801561001057600080fd5b5060016000803373ffffffffffffffffffffffffffffffffffffffff1673ffffffffffffffffffffffffffffffffffffffff16815260200190815260200160002060006101000a81548160ff02191690831515021790555060018060003373ffffffffffffffffffffffffffffffffffffffff1673ffffffffffffffffffffffffffffffffffffffff16815260200190815260200160002060006101000a81548160ff021916908315150217905550610a85806100ce6000396000f3fe608060405234801561001057600080fd5b50600436106100885760003560e01c80632c9ab42b1161005b5780632c9ab42b146101135780636a6e1cb31461012f578063704802751461014b57806385e685311461016757610088565b80630ae5e7391461008d57806313f44d10146100a95780631785f53c146100d95780631d0d4e8b146100f5575b600080fd5b6100a760048036038101906100a291906107e7565b610183565b005b6100c360048036038101906100be91906107e7565b610268565b6040516100d0919061082f565b60405180910390f35b6100f360048036038101906100ee91906107e7565b6102be565b005b6100fd6103a3565b60405161010a919061082f565b60405180910390f35b61012d600480360381019061012891906108af565b6103f6565b005b610149600480360381019061014491906108af565b6104d5565b005b610165600480360381019061016091906107e7565b6105b4565b005b610181600480360381019061017c91906107e7565b610699565b005b6000803373ffffffffffffffffffffffffffffffffffffffff1673ffffffffffffffffffffffffffffffffffffffff16815260200190815260200160002060009054906101000a900460ff1661020e576040517f08c379a00000000000000000000000000000000000000000000000000000000081526004016102059061097f565b60405180910390fd5b60018060008373ffffffffffffffffffffffffffffffffffffffff1673ffffffffffffffffffffffffffffffffffffffff16815260200190815260200160002060006101000a81548160ff02191690831515021790555050565b6000600160008373ffffffffffffffffffffffffffffffffffffffff1673ffffffffffffffffffffffffffffffffffffffff16815260200190815260200160002060009054906101000a900460ff169050919050565b6000803373ffffffffffffffffffffffffffffffffffffffff1673ffffffffffffffffffffffffffffffffffffffff16815260200190815260200160002060009054906101000a900460ff16610349576040517f08c379a00000000000000000000000000000000000000000000000000000000081526004016103409061097f565b60405180910390fd5b60008060008373ffffffffffffffffffffffffffffffffffffffff1673ffffffffffffffffffffffffffffffffffffffff16815260200190815260200160002060006101000a81548160ff02191690831515021790555050565b60008060003373ffffffffffffffffffffffffffffffffffffffff1673ffffffffffffffffffffffffffffffffffffffff16815260200190815260200160002060009054906101000a900460ff16905090565b6000803373ffffffffffffffffffffffffffffffffffffffff1673ffffffffffffffffffffffffffffffffffffffff16815260200190815260200160002060009054906101000a900460ff16610481576040517f08c379a00000000000000000000000000000000000000000000000000000000081526004016104789061097f565b60405180910390fd5b60005b828290508110156104d0576104bf8383838181106104a5576104a461099f565b5b90506020020160208101906104ba91906107e7565b6105b4565b806104c990610a07565b9050610484565b505050565b6000803373ffffffffffffffffffffffffffffffffffffffff1673ffffffffffffffffffffffffffffffffffffffff16815260200190815260200160002060009054906101000a900460ff16610560576040517f08c379a00000000000000000000000000000000000000000000000000000000081526004016105579061097f565b60405180910390fd5b60005b828290508110156105af5761059e8383838181106105845761058361099f565b5b905060200201602081019061059991906107e7565b610183565b806105a890610a07565b9050610563565b505050565b6000803373ffffffffffffffffffffffffffffffffffffffff1673ffffffffffffffffffffffffffffffffffffffff16815260200190815260200160002060009054906101000a900460ff1661063f576040517f08c379a00000000000000000000000000000000000000000000000000000000081526004016106369061097f565b60405180910390fd5b60016000808373ffffffffffffffffffffffffffffffffffffffff1673ffffffffffffffffffffffffffffffffffffffff16815260200190815260200160002060006101000a81548160ff02191690831515021790555050565b6000803373ffffffffffffffffffffffffffffffffffffffff1673ffffffffffffffffffffffffffffffffffffffff16815260200190815260200160002060009054906101000a900460ff16610724576040517f08c379a000000000000000000000000000000000000000000000000000000000815260040161071b9061097f565b60405180910390fd5b6000600160008373ffffffffffffffffffffffffffffffffffffffff1673ffffffffffffffffffffffffffffffffffffffff16815260200190815260200160002060006101000a81548160ff02191690831515021790555050565b600080fd5b600080fd5b600073ffffffffffffffffffffffffffffffffffffffff82169050919050565b60006107b482610789565b9050919050565b6107c4816107a9565b81146107cf57600080fd5b50565b6000813590506107e1816107bb565b92915050565b6000602082840312156107fd576107fc61077f565b5b600061080b848285016107d2565b91505092915050565b60008115159050919050565b61082981610814565b82525050565b60006020820190506108446000830184610820565b92915050565b600080fd5b600080fd5b600080fd5b60008083601f84011261086f5761086e61084a565b5b8235905067ffffffffffffffff81111561088c5761088b61084f565b5b6020830191508360208202830111156108a8576108a7610854565b5b9250929050565b600080602083850312156108c6576108c561077f565b5b600083013567ffffffffffffffff8111156108e4576108e3610784565b5b6108f085828601610859565b92509250509250929050565b600082825260208201905092915050565b7f4f6e6c792061646d696e206164647265737365732063616e2063616c6c20746860008201527f69732066756e6374696f6e000000000000000000000000000000000000000000602082015250565b6000610969602b836108fc565b91506109748261090d565b604082019050919050565b600060208201905081810360008301526109988161095c565b9050919050565b7f4e487b7100000000000000000000000000000000000000000000000000000000600052603260045260246000fd5b7f4e487b7100000000000000000000000000000000000000000000000000000000600052601160045260246000fd5b6000819050919050565b6000610a12826109fd565b91507fffffffffffffffffffffffffffffffffffffffffffffffffffffffffffffffff8203610a4457610a436109ce565b5b60018201905091905056fea264697066735822122069bdc53dc7423e594f79819aa21ee52ac49ecd99449430466ec1ca26f1e830cf64736f6c63430008110033",
  "linkReferences": {},
  "deployedLinkReferences": {}
}