{
  "_format": "hh-sol-artifact-1",
  "contractName": "UserDataManager",
  "sourceName": "contracts/data/datamanager/UserDataManager.sol",
  "abi": [
    {
      "inputs": [
        {
          "internalType": "address",
          "name": "userStorageAddress",
          "type": "address"
        },
        {
          "internalType": "address",
          "name": "accessWhitelistAddress",
          "type": "address"
        }
      ],
      "stateMutability": "nonpayable",
      "type": "constructor"
    },
    {
      "inputs": [
        {
          "internalType": "address",
          "name": "userAddress",
          "type": "address"
        },
        {
          "components": [
            {
              "internalType": "string",
              "name": "firstName",
              "type": "string"
            },
            {
              "internalType": "string",
              "name": "lastName",
              "type": "string"
            },
            {
              "internalType": "enum UserDataTypes.Gender",
              "name": "gender",
              "type": "uint8"
            },
            {
              "components": [
                {
                  "internalType": "uint256",
                  "name": "year",
                  "type": "uint256"
                },
                {
                  "internalType": "uint256",
                  "name": "month",
                  "type": "uint256"
                },
                {
                  "internalType": "uint256",
                  "name": "day",
                  "type": "uint256"
                }
              ],
              "internalType": "struct UserDataTypes.Date",
              "name": "dateOfBirth",
              "type": "tuple"
            },
            {
              "internalType": "string",
              "name": "nationality",
              "type": "string"
            },
            {
              "internalType": "string",
              "name": "phoneNumber",
              "type": "string"
            },
            {
              "internalType": "string",
              "name": "emailAddress",
              "type": "string"
            },
            {
              "internalType": "enum UserDataTypes.UserRole",
              "name": "role",
              "type": "uint8"
            },
            {
              "internalType": "uint256[]",
              "name": "studyProgramIds",
              "type": "uint256[]"
            }
          ],
          "internalType": "struct UserDataTypes.UserProfile",
          "name": "profile",
          "type": "tuple"
        }
      ],
      "name": "createUser",
      "outputs": [
        {
          "internalType": "uint256",
          "name": "",
          "type": "uint256"
        }
      ],
      "stateMutability": "nonpayable",
      "type": "function"
    },
    {
      "inputs": [],
      "name": "getAllUsers",
      "outputs": [
        {
          "components": [
            {
              "internalType": "uint256",
              "name": "uId",
              "type": "uint256"
            },
            {
              "components": [
                {
                  "internalType": "string",
                  "name": "firstName",
                  "type": "string"
                },
                {
                  "internalType": "string",
                  "name": "lastName",
                  "type": "string"
                },
                {
                  "internalType": "enum UserDataTypes.Gender",
                  "name": "gender",
                  "type": "uint8"
                },
                {
                  "components": [
                    {
                      "internalType": "uint256",
                      "name": "year",
                      "type": "uint256"
                    },
                    {
                      "internalType": "uint256",
                      "name": "month",
                      "type": "uint256"
                    },
                    {
                      "internalType": "uint256",
                      "name": "day",
                      "type": "uint256"
                    }
                  ],
                  "internalType": "struct UserDataTypes.Date",
                  "name": "dateOfBirth",
                  "type": "tuple"
                },
                {
                  "internalType": "string",
                  "name": "nationality",
                  "type": "string"
                },
                {
                  "internalType": "string",
                  "name": "phoneNumber",
                  "type": "string"
                },
                {
                  "internalType": "string",
                  "name": "emailAddress",
                  "type": "string"
                },
                {
                  "internalType": "enum UserDataTypes.UserRole",
                  "name": "role",
                  "type": "uint8"
                },
                {
                  "internalType": "uint256[]",
                  "name": "studyProgramIds",
                  "type": "uint256[]"
                }
              ],
              "internalType": "struct UserDataTypes.UserProfile",
              "name": "profile",
              "type": "tuple"
            }
          ],
          "internalType": "struct UserDataTypes.User[]",
          "name": "",
          "type": "tuple[]"
        }
      ],
      "stateMutability": "view",
      "type": "function"
    },
    {
      "inputs": [
        {
          "internalType": "uint256",
          "name": "uId",
          "type": "uint256"
        }
      ],
      "name": "getEnrolledProgramIds",
      "outputs": [
        {
          "internalType": "uint256[]",
          "name": "",
          "type": "uint256[]"
        }
      ],
      "stateMutability": "view",
      "type": "function"
    },
    {
      "inputs": [
        {
          "internalType": "uint256",
          "name": "uId",
          "type": "uint256"
        }
      ],
      "name": "getProfile",
      "outputs": [
        {
          "components": [
            {
              "internalType": "string",
              "name": "firstName",
              "type": "string"
            },
            {
              "internalType": "string",
              "name": "lastName",
              "type": "string"
            },
            {
              "internalType": "enum UserDataTypes.Gender",
              "name": "gender",
              "type": "uint8"
            },
            {
              "components": [
                {
                  "internalType": "uint256",
                  "name": "year",
                  "type": "uint256"
                },
                {
                  "internalType": "uint256",
                  "name": "month",
                  "type": "uint256"
                },
                {
                  "internalType": "uint256",
                  "name": "day",
                  "type": "uint256"
                }
              ],
              "internalType": "struct UserDataTypes.Date",
              "name": "dateOfBirth",
              "type": "tuple"
            },
            {
              "internalType": "string",
              "name": "nationality",
              "type": "string"
            },
            {
              "internalType": "string",
              "name": "phoneNumber",
              "type": "string"
            },
            {
              "internalType": "string",
              "name": "emailAddress",
              "type": "string"
            },
            {
              "internalType": "enum UserDataTypes.UserRole",
              "name": "role",
              "type": "uint8"
            },
            {
              "internalType": "uint256[]",
              "name": "studyProgramIds",
              "type": "uint256[]"
            }
          ],
          "internalType": "struct UserDataTypes.UserProfile",
          "name": "",
          "type": "tuple"
        }
      ],
      "stateMutability": "view",
      "type": "function"
    },
    {
      "inputs": [
        {
          "internalType": "address",
          "name": "userAddress",
          "type": "address"
        }
      ],
      "name": "getUIdToAddress",
      "outputs": [
        {
          "internalType": "uint256",
          "name": "",
          "type": "uint256"
        }
      ],
      "stateMutability": "view",
      "type": "function"
    },
    {
      "inputs": [
        {
          "internalType": "uint256",
          "name": "uId",
          "type": "uint256"
        }
      ],
      "name": "getUser",
      "outputs": [
        {
          "components": [
            {
              "internalType": "uint256",
              "name": "uId",
              "type": "uint256"
            },
            {
              "components": [
                {
                  "internalType": "string",
                  "name": "firstName",
                  "type": "string"
                },
                {
                  "internalType": "string",
                  "name": "lastName",
                  "type": "string"
                },
                {
                  "internalType": "enum UserDataTypes.Gender",
                  "name": "gender",
                  "type": "uint8"
                },
                {
                  "components": [
                    {
                      "internalType": "uint256",
                      "name": "year",
                      "type": "uint256"
                    },
                    {
                      "internalType": "uint256",
                      "name": "month",
                      "type": "uint256"
                    },
                    {
                      "internalType": "uint256",
                      "name": "day",
                      "type": "uint256"
                    }
                  ],
                  "internalType": "struct UserDataTypes.Date",
                  "name": "dateOfBirth",
                  "type": "tuple"
                },
                {
                  "internalType": "string",
                  "name": "nationality",
                  "type": "string"
                },
                {
                  "internalType": "string",
                  "name": "phoneNumber",
                  "type": "string"
                },
                {
                  "internalType": "string",
                  "name": "emailAddress",
                  "type": "string"
                },
                {
                  "internalType": "enum UserDataTypes.UserRole",
                  "name": "role",
                  "type": "uint8"
                },
                {
                  "internalType": "uint256[]",
                  "name": "studyProgramIds",
                  "type": "uint256[]"
                }
              ],
              "internalType": "struct UserDataTypes.UserProfile",
              "name": "profile",
              "type": "tuple"
            }
          ],
          "internalType": "struct UserDataTypes.User",
          "name": "",
          "type": "tuple"
        }
      ],
      "stateMutability": "view",
      "type": "function"
    },
    {
      "inputs": [
        {
          "internalType": "uint256",
          "name": "uId",
          "type": "uint256"
        }
      ],
      "name": "getUserName",
      "outputs": [
        {
          "internalType": "string",
          "name": "",
          "type": "string"
        },
        {
          "internalType": "string",
          "name": "",
          "type": "string"
        }
      ],
      "stateMutability": "view",
      "type": "function"
    },
    {
      "inputs": [
        {
          "internalType": "address",
          "name": "userAddress",
          "type": "address"
        }
      ],
      "name": "getUserRoleAtAddress",
      "outputs": [
        {
          "internalType": "enum UserDataTypes.UserRole",
          "name": "",
          "type": "uint8"
        }
      ],
      "stateMutability": "view",
      "type": "function"
    },
    {
      "inputs": [
        {
          "internalType": "uint256",
          "name": "uId",
          "type": "uint256"
        }
      ],
      "name": "getUserRoleAtUId",
      "outputs": [
        {
          "internalType": "enum UserDataTypes.UserRole",
          "name": "",
          "type": "uint8"
        }
      ],
      "stateMutability": "view",
      "type": "function"
    },
    {
      "inputs": [
        {
          "internalType": "uint256[]",
          "name": "uIds",
          "type": "uint256[]"
        }
      ],
      "name": "getUsers",
      "outputs": [
        {
          "components": [
            {
              "internalType": "uint256",
              "name": "uId",
              "type": "uint256"
            },
            {
              "components": [
                {
                  "internalType": "string",
                  "name": "firstName",
                  "type": "string"
                },
                {
                  "internalType": "string",
                  "name": "lastName",
                  "type": "string"
                },
                {
                  "internalType": "enum UserDataTypes.Gender",
                  "name": "gender",
                  "type": "uint8"
                },
                {
                  "components": [
                    {
                      "internalType": "uint256",
                      "name": "year",
                      "type": "uint256"
                    },
                    {
                      "internalType": "uint256",
                      "name": "month",
                      "type": "uint256"
                    },
                    {
                      "internalType": "uint256",
                      "name": "day",
                      "type": "uint256"
                    }
                  ],
                  "internalType": "struct UserDataTypes.Date",
                  "name": "dateOfBirth",
                  "type": "tuple"
                },
                {
                  "internalType": "string",
                  "name": "nationality",
                  "type": "string"
                },
                {
                  "internalType": "string",
                  "name": "phoneNumber",
                  "type": "string"
                },
                {
                  "internalType": "string",
                  "name": "emailAddress",
                  "type": "string"
                },
                {
                  "internalType": "enum UserDataTypes.UserRole",
                  "name": "role",
                  "type": "uint8"
                },
                {
                  "internalType": "uint256[]",
                  "name": "studyProgramIds",
                  "type": "uint256[]"
                }
              ],
              "internalType": "struct UserDataTypes.UserProfile",
              "name": "profile",
              "type": "tuple"
            }
          ],
          "internalType": "struct UserDataTypes.User[]",
          "name": "",
          "type": "tuple[]"
        }
      ],
      "stateMutability": "view",
      "type": "function"
    },
    {
      "inputs": [
        {
          "internalType": "address",
          "name": "_address",
          "type": "address"
        }
      ],
      "name": "isAddressRegistered",
      "outputs": [
        {
          "internalType": "bool",
          "name": "",
          "type": "bool"
        }
      ],
      "stateMutability": "view",
      "type": "function"
    }
  ],
  "bytecode": "0x608060405262000019620000e560201b620015281760201c565b60026000820151816000015550503480156200003457600080fd5b50604051620035d2380380620035d283398181016040528101906200005a919062000181565b80806000806101000a81548173ffffffffffffffffffffffffffffffffffffffff021916908373ffffffffffffffffffffffffffffffffffffffff1602179055505081600160006101000a81548173ffffffffffffffffffffffffffffffffffffffff021916908373ffffffffffffffffffffffffffffffffffffffff1602179055505050620001c8565b620000ef62000104565b60405180602001604052806001815250905090565b6040518060200160405280600081525090565b600080fd5b600073ffffffffffffffffffffffffffffffffffffffff82169050919050565b600062000149826200011c565b9050919050565b6200015b816200013c565b81146200016757600080fd5b50565b6000815190506200017b8162000150565b92915050565b600080604083850312156200019b576200019a62000117565b5b6000620001ab858286016200016a565b9250506020620001be858286016200016a565b9150509250929050565b6133fa80620001d86000396000f3fe608060405234801561001057600080fd5b50600436106100a95760003560e01c8063b29d96f211610071578063b29d96f21461019f578063bdf3e912146101cf578063dd8b2914146101ff578063e2842d791461022f578063e3d7e14c1461024d578063f08f4f641461027d576100a9565b806338b6a3a1146100ae5780634efe9cac146100de578063749ddf701461010e578063988da80f1461013e578063b0467deb1461016f575b600080fd5b6100c860048036038101906100c39190611a44565b6102ad565b6040516100d59190611a8c565b60405180910390f35b6100f860048036038101906100f39190611add565b610438565b6040516101059190611bc8565b60405180910390f35b61012860048036038101906101239190611c0f565b6105c4565b6040516101359190611c7a565b60405180910390f35b61015860048036038101906101539190611add565b6109d9565b604051610166929190611d25565b60405180910390f35b61018960048036038101906101849190611add565b610b76565b604051610196919061203d565b60405180910390f35b6101b960048036038101906101b491906120c4565b610cff565b6040516101c69190612210565b60405180910390f35b6101e960048036038101906101e49190611add565b610e5e565b6040516101f69190612241565b60405180910390f35b61021960048036038101906102149190611a44565b610fea565b6040516102269190612241565b60405180910390f35b610237611176565b6040516102449190612210565b60405180910390f35b61026760048036038101906102629190611a44565b611213565b6040516102749190611c7a565b60405180910390f35b61029760048036038101906102929190611add565b61139b565b6040516102a49190612346565b60405180910390f35b60008060009054906101000a900473ffffffffffffffffffffffffffffffffffffffff1673ffffffffffffffffffffffffffffffffffffffff166313f44d10336040518263ffffffff1660e01b81526004016103099190612377565b602060405180830381865afa158015610326573d6000803e3d6000fd5b505050506040513d601f19601f8201168201806040525081019061034a91906123be565b610389576040517f08c379a000000000000000000000000000000000000000000000000000000000815260040161038090612437565b60405180910390fd5b6000600160009054906101000a900473ffffffffffffffffffffffffffffffffffffffff1673ffffffffffffffffffffffffffffffffffffffff166309953c2e846040518263ffffffff1660e01b81526004016103e69190612377565b600060405180830381865afa158015610403573d6000803e3d6000fd5b505050506040513d6000823e3d601f19601f8201168201806040525081019061042c91906128fe565b50905080915050919050565b606060008054906101000a900473ffffffffffffffffffffffffffffffffffffffff1673ffffffffffffffffffffffffffffffffffffffff166313f44d10336040518263ffffffff1660e01b81526004016104939190612377565b602060405180830381865afa1580156104b0573d6000803e3d6000fd5b505050506040513d601f19601f820116820180604052508101906104d491906123be565b610513576040517f08c379a000000000000000000000000000000000000000000000000000000000815260040161050a90612437565b60405180910390fd5b600160009054906101000a900473ffffffffffffffffffffffffffffffffffffffff1673ffffffffffffffffffffffffffffffffffffffff166364a48934836040518263ffffffff1660e01b815260040161056e9190611c7a565b600060405180830381865afa15801561058b573d6000803e3d6000fd5b505050506040513d6000823e3d601f19601f820116820180604052508101906105b4919061295a565b6020015161010001519050919050565b60008060009054906101000a900473ffffffffffffffffffffffffffffffffffffffff1673ffffffffffffffffffffffffffffffffffffffff166313f44d10336040518263ffffffff1660e01b81526004016106209190612377565b602060405180830381865afa15801561063d573d6000803e3d6000fd5b505050506040513d601f19601f8201168201806040525081019061066191906123be565b6106a0576040517f08c379a000000000000000000000000000000000000000000000000000000000815260040161069790612437565b60405180910390fd5b600073ffffffffffffffffffffffffffffffffffffffff168373ffffffffffffffffffffffffffffffffffffffff160361070f576040517f08c379a0000000000000000000000000000000000000000000000000000000008152600401610706906129ef565b60405180910390fd5b6107a08280600001906107229190612a1e565b8080601f016020809104026020016040519081016040528093929190818152602001838380828437600081840152601f19601f820116905080830192505050505050506040518060400160405280600a81526020017f4669727374206e616d6500000000000000000000000000000000000000000000815250611545565b6108318280602001906107b39190612a1e565b8080601f016020809104026020016040519081016040528093929190818152602001838380828437600081840152601f19601f820116905080830192505050505050506040518060400160405280600981526020017f4c617374206e616d650000000000000000000000000000000000000000000000815250611545565b6108c2828060c001906108449190612a1e565b8080601f016020809104026020016040519081016040528093929190818152602001838380828437600081840152601f19601f820116905080830192505050505050506040518060400160405280600b81526020017f4e6174696f6e616c697479000000000000000000000000000000000000000000815250611545565b6108de826060018036038101906108d99190612ae5565b6115b0565b60006108ea60026117bf565b9050600160009054906101000a900473ffffffffffffffffffffffffffffffffffffffff1673ffffffffffffffffffffffffffffffffffffffff166385ab97d28560405180604001604052808581526020018761094690612ddc565b8152506040518363ffffffff1660e01b8152600401610966929190612def565b600060405180830381600087803b15801561098057600080fd5b505af1158015610994573d6000803e3d6000fd5b505050507f416c1ec7e5ea8465a83d854ca2709012c86dd5d1d3395fbefb6a48a10c42c2da816040516109c79190611c7a565b60405180910390a18091505092915050565b60608060008054906101000a900473ffffffffffffffffffffffffffffffffffffffff1673ffffffffffffffffffffffffffffffffffffffff166313f44d10336040518263ffffffff1660e01b8152600401610a359190612377565b602060405180830381865afa158015610a52573d6000803e3d6000fd5b505050506040513d601f19601f82011682018060405250810190610a7691906123be565b610ab5576040517f08c379a0000000000000000000000000000000000000000000000000000000008152600401610aac90612437565b60405180910390fd5b6000600160009054906101000a900473ffffffffffffffffffffffffffffffffffffffff1673ffffffffffffffffffffffffffffffffffffffff166364a48934856040518263ffffffff1660e01b8152600401610b129190611c7a565b600060405180830381865afa158015610b2f573d6000803e3d6000fd5b505050506040513d6000823e3d601f19601f82011682018060405250810190610b58919061295a565b90508060200151600001518160200151602001519250925050915091565b610b7e611908565b60008054906101000a900473ffffffffffffffffffffffffffffffffffffffff1673ffffffffffffffffffffffffffffffffffffffff166313f44d10336040518263ffffffff1660e01b8152600401610bd79190612377565b602060405180830381865afa158015610bf4573d6000803e3d6000fd5b505050506040513d601f19601f82011682018060405250810190610c1891906123be565b610c57576040517f08c379a0000000000000000000000000000000000000000000000000000000008152600401610c4e90612437565b60405180910390fd5b600160009054906101000a900473ffffffffffffffffffffffffffffffffffffffff1673ffffffffffffffffffffffffffffffffffffffff166364a48934836040518263ffffffff1660e01b8152600401610cb29190611c7a565b600060405180830381865afa158015610ccf573d6000803e3d6000fd5b505050506040513d6000823e3d601f19601f82011682018060405250810190610cf8919061295a565b9050919050565b606060008383905067ffffffffffffffff811115610d2057610d1f61245c565b5b604051908082528060200260200182016040528015610d5957816020015b610d46611908565b815260200190600190039081610d3e5790505b50905060005b84849050811015610e5357600160009054906101000a900473ffffffffffffffffffffffffffffffffffffffff1673ffffffffffffffffffffffffffffffffffffffff166364a48934868684818110610dbb57610dba612e1f565b5b905060200201356040518263ffffffff1660e01b8152600401610dde9190611c7a565b600060405180830381865afa158015610dfb573d6000803e3d6000fd5b505050506040513d6000823e3d601f19601f82011682018060405250810190610e24919061295a565b828281518110610e3757610e36612e1f565b5b602002602001018190525080610e4c90612e7d565b9050610d5f565b508091505092915050565b60008060009054906101000a900473ffffffffffffffffffffffffffffffffffffffff1673ffffffffffffffffffffffffffffffffffffffff166313f44d10336040518263ffffffff1660e01b8152600401610eba9190612377565b602060405180830381865afa158015610ed7573d6000803e3d6000fd5b505050506040513d601f19601f82011682018060405250810190610efb91906123be565b610f3a576040517f08c379a0000000000000000000000000000000000000000000000000000000008152600401610f3190612437565b60405180910390fd5b600160009054906101000a900473ffffffffffffffffffffffffffffffffffffffff1673ffffffffffffffffffffffffffffffffffffffff166364a48934836040518263ffffffff1660e01b8152600401610f959190611c7a565b600060405180830381865afa158015610fb2573d6000803e3d6000fd5b505050506040513d6000823e3d601f19601f82011682018060405250810190610fdb919061295a565b6020015160e001519050919050565b60008060009054906101000a900473ffffffffffffffffffffffffffffffffffffffff1673ffffffffffffffffffffffffffffffffffffffff166313f44d10336040518263ffffffff1660e01b81526004016110469190612377565b602060405180830381865afa158015611063573d6000803e3d6000fd5b505050506040513d601f19601f8201168201806040525081019061108791906123be565b6110c6576040517f08c379a00000000000000000000000000000000000000000000000000000000081526004016110bd90612437565b60405180910390fd5b600160009054906101000a900473ffffffffffffffffffffffffffffffffffffffff1673ffffffffffffffffffffffffffffffffffffffff166369c212f6836040518263ffffffff1660e01b81526004016111219190612377565b600060405180830381865afa15801561113e573d6000803e3d6000fd5b505050506040513d6000823e3d601f19601f82011682018060405250810190611167919061295a565b6020015160e001519050919050565b6060600160009054906101000a900473ffffffffffffffffffffffffffffffffffffffff1673ffffffffffffffffffffffffffffffffffffffff1663e2842d796040518163ffffffff1660e01b8152600401600060405180830381865afa1580156111e5573d6000803e3d6000fd5b505050506040513d6000823e3d601f19601f8201168201806040525081019061120e9190612fa6565b905090565b60008060009054906101000a900473ffffffffffffffffffffffffffffffffffffffff1673ffffffffffffffffffffffffffffffffffffffff166313f44d10336040518263ffffffff1660e01b815260040161126f9190612377565b602060405180830381865afa15801561128c573d6000803e3d6000fd5b505050506040513d601f19601f820116820180604052508101906112b091906123be565b6112ef576040517f08c379a00000000000000000000000000000000000000000000000000000000081526004016112e690612437565b60405180910390fd5b600160009054906101000a900473ffffffffffffffffffffffffffffffffffffffff1673ffffffffffffffffffffffffffffffffffffffff166369c212f6836040518263ffffffff1660e01b815260040161134a9190612377565b600060405180830381865afa158015611367573d6000803e3d6000fd5b505050506040513d6000823e3d601f19601f82011682018060405250810190611390919061295a565b600001519050919050565b6113a3611928565b60008054906101000a900473ffffffffffffffffffffffffffffffffffffffff1673ffffffffffffffffffffffffffffffffffffffff166313f44d10336040518263ffffffff1660e01b81526004016113fc9190612377565b602060405180830381865afa158015611419573d6000803e3d6000fd5b505050506040513d601f19601f8201168201806040525081019061143d91906123be565b61147c576040517f08c379a000000000000000000000000000000000000000000000000000000000815260040161147390612437565b60405180910390fd5b600160009054906101000a900473ffffffffffffffffffffffffffffffffffffffff1673ffffffffffffffffffffffffffffffffffffffff166364a48934836040518263ffffffff1660e01b81526004016114d79190611c7a565b600060405180830381865afa1580156114f4573d6000803e3d6000fd5b505050506040513d6000823e3d601f19601f8201168201806040525081019061151d919061295a565b602001519050919050565b61153061199e565b60405180602001604052806001815250905090565b60008251118160405160200161155b9190613077565b604051602081830303815290604052906115ab576040517f08c379a00000000000000000000000000000000000000000000000000000000081526004016115a29190613099565b60405180910390fd5b505050565b60008160000151905060008260200151905060008360400151905060008060006115d86117e1565b92509250925082861115611621576040517f08c379a00000000000000000000000000000000000000000000000000000000081526004016116189061312d565b60405180910390fd5b828610156116d057600c851115801561163b575060018510155b61167a576040517f08c379a0000000000000000000000000000000000000000000000000000000008152600401611671906131bf565b60405180910390fd5b601f841115801561168c575060018410155b6116cb576040517f08c379a00000000000000000000000000000000000000000000000000000000081526004016116c290613251565b60405180910390fd5b6117b6565b81851115611713576040517f08c379a000000000000000000000000000000000000000000000000000000000815260040161170a906132e3565b60405180910390fd5b8185101561177157601f841115801561172d575060018410155b61176c576040517f08c379a000000000000000000000000000000000000000000000000000000000815260040161176390613251565b60405180910390fd5b6117b5565b808411156117b4576040517f08c379a00000000000000000000000000000000000000000000000000000000081526004016117ab90613375565b60405180910390fd5b5b5b50505050505050565b60008160000160008154809291906117d690612e7d565b919050559050919050565b60008060008060008060006201518042816117ff576117fe613395565b5b049050600062253d8c62010bd98301019050600062023ab1826004028161182957611828613395565b5b059050600460038262023ab102018161184557611844613395565b5b0582039150600062164b0960018401610fa0028161186657611865613395565b5b059050601f6004826105b502816118805761187f613395565b5b058403019250600061098f846050028161189d5761189c613395565b5b059050600060508261098f02816118b7576118b6613395565b5b0585039050600b82816118cd576118cc613395565b5b05945084600c026002830103915084836031860360640201019250829850819750809650505050505050828282955095509550505050909192565b604051806040016040528060008152602001611922611928565b81525090565b60405180610120016040528060608152602001606081526020016000600281111561195657611955611da6565b5b81526020016119636119b1565b81526020016060815260200160608152602001606081526020016000600281111561199157611990611da6565b5b8152602001606081525090565b6040518060200160405280600081525090565b60405180606001604052806000815260200160008152602001600081525090565b6000604051905090565b600080fd5b600080fd5b600073ffffffffffffffffffffffffffffffffffffffff82169050919050565b6000611a11826119e6565b9050919050565b611a2181611a06565b8114611a2c57600080fd5b50565b600081359050611a3e81611a18565b92915050565b600060208284031215611a5a57611a596119dc565b5b6000611a6884828501611a2f565b91505092915050565b60008115159050919050565b611a8681611a71565b82525050565b6000602082019050611aa16000830184611a7d565b92915050565b6000819050919050565b611aba81611aa7565b8114611ac557600080fd5b50565b600081359050611ad781611ab1565b92915050565b600060208284031215611af357611af26119dc565b5b6000611b0184828501611ac8565b91505092915050565b600081519050919050565b600082825260208201905092915050565b6000819050602082019050919050565b611b3f81611aa7565b82525050565b6000611b518383611b36565b60208301905092915050565b6000602082019050919050565b6000611b7582611b0a565b611b7f8185611b15565b9350611b8a83611b26565b8060005b83811015611bbb578151611ba28882611b45565b9750611bad83611b5d565b925050600181019050611b8e565b5085935050505092915050565b60006020820190508181036000830152611be28184611b6a565b905092915050565b600080fd5b60006101608284031215611c0657611c05611bea565b5b81905092915050565b60008060408385031215611c2657611c256119dc565b5b6000611c3485828601611a2f565b925050602083013567ffffffffffffffff811115611c5557611c546119e1565b5b611c6185828601611bef565b9150509250929050565b611c7481611aa7565b82525050565b6000602082019050611c8f6000830184611c6b565b92915050565b600081519050919050565b600082825260208201905092915050565b60005b83811015611ccf578082015181840152602081019050611cb4565b60008484015250505050565b6000601f19601f8301169050919050565b6000611cf782611c95565b611d018185611ca0565b9350611d11818560208601611cb1565b611d1a81611cdb565b840191505092915050565b60006040820190508181036000830152611d3f8185611cec565b90508181036020830152611d538184611cec565b90509392505050565b600082825260208201905092915050565b6000611d7882611c95565b611d828185611d5c565b9350611d92818560208601611cb1565b611d9b81611cdb565b840191505092915050565b7f4e487b7100000000000000000000000000000000000000000000000000000000600052602160045260246000fd5b60038110611de657611de5611da6565b5b50565b6000819050611df782611dd5565b919050565b6000611e0782611de9565b9050919050565b611e1781611dfc565b82525050565b606082016000820151611e336000850182611b36565b506020820151611e466020850182611b36565b506040820151611e596040850182611b36565b50505050565b60038110611e7057611e6f611da6565b5b50565b6000819050611e8182611e5f565b919050565b6000611e9182611e73565b9050919050565b611ea181611e86565b82525050565b600082825260208201905092915050565b6000611ec382611b0a565b611ecd8185611ea7565b9350611ed883611b26565b8060005b83811015611f09578151611ef08882611b45565b9750611efb83611b5d565b925050600181019050611edc565b5085935050505092915050565b6000610160830160008301518482036000860152611f348282611d6d565b91505060208301518482036020860152611f4e8282611d6d565b9150506040830151611f636040860182611e0e565b506060830151611f766060860182611e1d565b50608083015184820360c0860152611f8e8282611d6d565b91505060a083015184820360e0860152611fa88282611d6d565b91505060c0830151848203610100860152611fc38282611d6d565b91505060e0830151611fd9610120860182611e98565b50610100830151848203610140860152611ff38282611eb8565b9150508091505092915050565b60006040830160008301516120186000860182611b36565b50602083015184820360208601526120308282611f16565b9150508091505092915050565b600060208201905081810360008301526120578184612000565b905092915050565b600080fd5b600080fd5b600080fd5b60008083601f8401126120845761208361205f565b5b8235905067ffffffffffffffff8111156120a1576120a0612064565b5b6020830191508360208202830111156120bd576120bc612069565b5b9250929050565b600080602083850312156120db576120da6119dc565b5b600083013567ffffffffffffffff8111156120f9576120f86119e1565b5b6121058582860161206e565b92509250509250929050565b600081519050919050565b600082825260208201905092915050565b6000819050602082019050919050565b60006040830160008301516121556000860182611b36565b506020830151848203602086015261216d8282611f16565b9150508091505092915050565b6000612186838361213d565b905092915050565b6000602082019050919050565b60006121a682612111565b6121b0818561211c565b9350836020820285016121c28561212d565b8060005b858110156121fe57848403895281516121df858261217a565b94506121ea8361218e565b925060208a019950506001810190506121c6565b50829750879550505050505092915050565b6000602082019050818103600083015261222a818461219b565b905092915050565b61223b81611e86565b82525050565b60006020820190506122566000830184612232565b92915050565b600061016083016000830151848203600086015261227a8282611d6d565b915050602083015184820360208601526122948282611d6d565b91505060408301516122a96040860182611e0e565b5060608301516122bc6060860182611e1d565b50608083015184820360c08601526122d48282611d6d565b91505060a083015184820360e08601526122ee8282611d6d565b91505060c08301518482036101008601526123098282611d6d565b91505060e083015161231f610120860182611e98565b506101008301518482036101408601526123398282611eb8565b9150508091505092915050565b60006020820190508181036000830152612360818461225c565b905092915050565b61237181611a06565b82525050565b600060208201905061238c6000830184612368565b92915050565b61239b81611a71565b81146123a657600080fd5b50565b6000815190506123b881612392565b92915050565b6000602082840312156123d4576123d36119dc565b5b60006123e2848285016123a9565b91505092915050565b7f5468652073656e646572206973206e6f742077686974656c6973746564000000600082015250565b6000612421601d83611ca0565b915061242c826123eb565b602082019050919050565b6000602082019050818103600083015261245081612414565b9050919050565b600080fd5b7f4e487b7100000000000000000000000000000000000000000000000000000000600052604160045260246000fd5b61249482611cdb565b810181811067ffffffffffffffff821117156124b3576124b261245c565b5b80604052505050565b60006124c66119d2565b90506124d2828261248b565b919050565b600080fd5b6000815190506124eb81611ab1565b92915050565b600080fd5b600067ffffffffffffffff8211156125115761251061245c565b5b61251a82611cdb565b9050602081019050919050565b600061253a612535846124f6565b6124bc565b905082815260208101848484011115612556576125556124f1565b5b612561848285611cb1565b509392505050565b600082601f83011261257e5761257d61205f565b5b815161258e848260208601612527565b91505092915050565b600381106125a457600080fd5b50565b6000815190506125b681612597565b92915050565b6000606082840312156125d2576125d1612457565b5b6125dc60606124bc565b905060006125ec848285016124dc565b6000830152506020612600848285016124dc565b6020830152506040612614848285016124dc565b60408301525092915050565b6003811061262d57600080fd5b50565b60008151905061263f81612620565b92915050565b600067ffffffffffffffff8211156126605761265f61245c565b5b602082029050602081019050919050565b600061268461267f84612645565b6124bc565b905080838252602082019050602084028301858111156126a7576126a6612069565b5b835b818110156126d057806126bc88826124dc565b8452602084019350506020810190506126a9565b5050509392505050565b600082601f8301126126ef576126ee61205f565b5b81516126ff848260208601612671565b91505092915050565b6000610160828403121561271f5761271e612457565b5b61272a6101206124bc565b9050600082015167ffffffffffffffff81111561274a576127496124d7565b5b61275684828501612569565b600083015250602082015167ffffffffffffffff81111561277a576127796124d7565b5b61278684828501612569565b602083015250604061279a848285016125a7565b60408301525060606127ae848285016125bc565b60608301525060c082015167ffffffffffffffff8111156127d2576127d16124d7565b5b6127de84828501612569565b60808301525060e082015167ffffffffffffffff811115612802576128016124d7565b5b61280e84828501612569565b60a08301525061010082015167ffffffffffffffff811115612833576128326124d7565b5b61283f84828501612569565b60c08301525061012061285484828501612630565b60e08301525061014082015167ffffffffffffffff811115612879576128786124d7565b5b612885848285016126da565b6101008301525092915050565b6000604082840312156128a8576128a7612457565b5b6128b260406124bc565b905060006128c2848285016124dc565b600083015250602082015167ffffffffffffffff8111156128e6576128e56124d7565b5b6128f284828501612708565b60208301525092915050565b60008060408385031215612915576129146119dc565b5b6000612923858286016123a9565b925050602083015167ffffffffffffffff811115612944576129436119e1565b5b61295085828601612892565b9150509250929050565b6000602082840312156129705761296f6119dc565b5b600082015167ffffffffffffffff81111561298e5761298d6119e1565b5b61299a84828501612892565b91505092915050565b7f5468652061646472657373206d75737420626520736574000000000000000000600082015250565b60006129d9601783611ca0565b91506129e4826129a3565b602082019050919050565b60006020820190508181036000830152612a08816129cc565b9050919050565b600080fd5b600080fd5b600080fd5b60008083356001602003843603038112612a3b57612a3a612a0f565b5b80840192508235915067ffffffffffffffff821115612a5d57612a5c612a14565b5b602083019250600182023603831315612a7957612a78612a19565b5b509250929050565b600060608284031215612a9757612a96612457565b5b612aa160606124bc565b90506000612ab184828501611ac8565b6000830152506020612ac584828501611ac8565b6020830152506040612ad984828501611ac8565b60408301525092915050565b600060608284031215612afb57612afa6119dc565b5b6000612b0984828501612a81565b91505092915050565b82818337600083830152505050565b6000612b34612b2f846124f6565b6124bc565b905082815260208101848484011115612b5057612b4f6124f1565b5b612b5b848285612b12565b509392505050565b600082601f830112612b7857612b7761205f565b5b8135612b88848260208601612b21565b91505092915050565b600081359050612ba081612597565b92915050565b600081359050612bb581612620565b92915050565b6000612bce612bc984612645565b6124bc565b90508083825260208201905060208402830185811115612bf157612bf0612069565b5b835b81811015612c1a5780612c068882611ac8565b845260208401935050602081019050612bf3565b5050509392505050565b600082601f830112612c3957612c3861205f565b5b8135612c49848260208601612bbb565b91505092915050565b60006101608284031215612c6957612c68612457565b5b612c746101206124bc565b9050600082013567ffffffffffffffff811115612c9457612c936124d7565b5b612ca084828501612b63565b600083015250602082013567ffffffffffffffff811115612cc457612cc36124d7565b5b612cd084828501612b63565b6020830152506040612ce484828501612b91565b6040830152506060612cf884828501612a81565b60608301525060c082013567ffffffffffffffff811115612d1c57612d1b6124d7565b5b612d2884828501612b63565b60808301525060e082013567ffffffffffffffff811115612d4c57612d4b6124d7565b5b612d5884828501612b63565b60a08301525061010082013567ffffffffffffffff811115612d7d57612d7c6124d7565b5b612d8984828501612b63565b60c083015250610120612d9e84828501612ba6565b60e08301525061014082013567ffffffffffffffff811115612dc357612dc26124d7565b5b612dcf84828501612c24565b6101008301525092915050565b6000612de83683612c52565b9050919050565b6000604082019050612e046000830185612368565b8181036020830152612e168184612000565b90509392505050565b7f4e487b7100000000000000000000000000000000000000000000000000000000600052603260045260246000fd5b7f4e487b7100000000000000000000000000000000000000000000000000000000600052601160045260246000fd5b6000612e8882611aa7565b91507fffffffffffffffffffffffffffffffffffffffffffffffffffffffffffffffff8203612eba57612eb9612e4e565b5b600182019050919050565b600067ffffffffffffffff821115612ee057612edf61245c565b5b602082029050602081019050919050565b6000612f04612eff84612ec5565b6124bc565b90508083825260208201905060208402830185811115612f2757612f26612069565b5b835b81811015612f6e57805167ffffffffffffffff811115612f4c57612f4b61205f565b5b808601612f598982612892565b85526020850194505050602081019050612f29565b5050509392505050565b600082601f830112612f8d57612f8c61205f565b5b8151612f9d848260208601612ef1565b91505092915050565b600060208284031215612fbc57612fbb6119dc565b5b600082015167ffffffffffffffff811115612fda57612fd96119e1565b5b612fe684828501612f78565b91505092915050565b600081905092915050565b600061300582611c95565b61300f8185612fef565b935061301f818560208601611cb1565b80840191505092915050565b7f2063616e6e6f7420626520656d70747900000000000000000000000000000000600082015250565b6000613061601083612fef565b915061306c8261302b565b601082019050919050565b60006130838284612ffa565b915061308e82613054565b915081905092915050565b600060208201905081810360008301526130b38184611cec565b905092915050565b7f426972746820796561722076616c75652063616e6e6f7420626520696e20746860008201527f6520667574757265000000000000000000000000000000000000000000000000602082015250565b6000613117602883611ca0565b9150613122826130bb565b604082019050919050565b600060208201905081810360008301526131468161310a565b9050919050565b7f4269727468206d6f6e74682076616c7565206d7573742062652062657477656560008201527f6e203120616e6420313200000000000000000000000000000000000000000000602082015250565b60006131a9602a83611ca0565b91506131b48261314d565b604082019050919050565b600060208201905081810360008301526131d88161319c565b9050919050565b7f4269727468206461792076616c7565206d757374206265206265747765656e2060008201527f3120616e64203331000000000000000000000000000000000000000000000000602082015250565b600061323b602883611ca0565b9150613246826131df565b604082019050919050565b6000602082019050818103600083015261326a8161322e565b9050919050565b7f4269727468206d6f6e74682076616c75652063616e6e6f7420626520696e207460008201527f6865206675747572650000000000000000000000000000000000000000000000602082015250565b60006132cd602983611ca0565b91506132d882613271565b604082019050919050565b600060208201905081810360008301526132fc816132c0565b9050919050565b7f4269727468206461792076616c75652063616e6e6f7420626520696e2074686560008201527f2066757475726500000000000000000000000000000000000000000000000000602082015250565b600061335f602783611ca0565b915061336a82613303565b604082019050919050565b6000602082019050818103600083015261338e81613352565b9050919050565b7f4e487b7100000000000000000000000000000000000000000000000000000000600052601260045260246000fdfea2646970667358221220e091e1cef374e15622d262b9d264489c4584f43dae9557dfd97a4062942c8a6864736f6c63430008110033",
  "linkReferences": {},
  "deployedLinkReferences": {}
}