{
  "_format": "hh-sol-artifact-1",
  "contractName": "UserController",
  "sourceName": "contracts/logic/UserController.sol",
  "abi": [
    {
      "inputs": [
        {
          "internalType": "address",
          "name": "addressBookAddress",
          "type": "address"
        },
        {
          "internalType": "address payable",
          "name": "faucetAddress",
          "type": "address"
        }
      ],
      "stateMutability": "nonpayable",
      "type": "constructor"
    },
    {
      "inputs": [
        {
          "internalType": "address",
          "name": "userAddress",
          "type": "address"
        }
      ],
      "name": "acceptRegistration",
      "outputs": [],
      "stateMutability": "nonpayable",
      "type": "function"
    },
    {
      "inputs": [],
      "name": "acknowledgeRegistrationResult",
      "outputs": [],
      "stateMutability": "nonpayable",
      "type": "function"
    },
    {
      "inputs": [
        {
          "internalType": "address",
          "name": "_address",
          "type": "address"
        }
      ],
      "name": "addAdmin",
      "outputs": [],
      "stateMutability": "nonpayable",
      "type": "function"
    },
    {
      "inputs": [
        {
          "internalType": "address",
          "name": "userAddress",
          "type": "address"
        }
      ],
      "name": "adminAcceptRegistration",
      "outputs": [],
      "stateMutability": "nonpayable",
      "type": "function"
    },
    {
      "inputs": [
        {
          "internalType": "address",
          "name": "userAddress",
          "type": "address"
        }
      ],
      "name": "adminRejectRegistration",
      "outputs": [],
      "stateMutability": "nonpayable",
      "type": "function"
    },
    {
      "inputs": [
        {
          "internalType": "address[]",
          "name": "addresses",
          "type": "address[]"
        }
      ],
      "name": "batchAddAdmin",
      "outputs": [],
      "stateMutability": "nonpayable",
      "type": "function"
    },
    {
      "inputs": [],
      "name": "isAutomaticAcceptanceOn",
      "outputs": [
        {
          "internalType": "bool",
          "name": "",
          "type": "bool"
        }
      ],
      "stateMutability": "view",
      "type": "function"
    },
    {
      "inputs": [],
      "name": "isSenderAdmin",
      "outputs": [
        {
          "internalType": "bool",
          "name": "",
          "type": "bool"
        }
      ],
      "stateMutability": "view",
      "type": "function"
    },
    {
      "inputs": [
        {
          "internalType": "address",
          "name": "userAddress",
          "type": "address"
        }
      ],
      "name": "rejectRegistration",
      "outputs": [],
      "stateMutability": "nonpayable",
      "type": "function"
    },
    {
      "inputs": [
        {
          "internalType": "address",
          "name": "_address",
          "type": "address"
        }
      ],
      "name": "removeAdmin",
      "outputs": [],
      "stateMutability": "nonpayable",
      "type": "function"
    },
    {
      "inputs": [],
      "name": "requestExtraTokens",
      "outputs": [],
      "stateMutability": "nonpayable",
      "type": "function"
    },
    {
      "inputs": [
        {
          "internalType": "address",
          "name": "userAddress",
          "type": "address"
        },
        {
          "components": [
            {
              "internalType": "string",
              "name": "firstName",
              "type": "string"
            },
            {
              "internalType": "string",
              "name": "lastName",
              "type": "string"
            },
            {
              "internalType": "enum UserDataTypes.Gender",
              "name": "gender",
              "type": "uint8"
            },
            {
              "components": [
                {
                  "internalType": "uint256",
                  "name": "year",
                  "type": "uint256"
                },
                {
                  "internalType": "uint256",
                  "name": "month",
                  "type": "uint256"
                },
                {
                  "internalType": "uint256",
                  "name": "day",
                  "type": "uint256"
                }
              ],
              "internalType": "struct UserDataTypes.Date",
              "name": "dateOfBirth",
              "type": "tuple"
            },
            {
              "internalType": "string",
              "name": "nationality",
              "type": "string"
            },
            {
              "internalType": "string",
              "name": "phoneNumber",
              "type": "string"
            },
            {
              "internalType": "string",
              "name": "emailAddress",
              "type": "string"
            },
            {
              "internalType": "enum UserDataTypes.UserRole",
              "name": "role",
              "type": "uint8"
            },
            {
              "internalType": "uint256[]",
              "name": "studyProgramIds",
              "type": "uint256[]"
            }
          ],
          "internalType": "struct UserDataTypes.UserProfile",
          "name": "profile",
          "type": "tuple"
        }
      ],
      "name": "requestRegistration",
      "outputs": [],
      "stateMutability": "nonpayable",
      "type": "function"
    },
    {
      "inputs": [
        {
          "internalType": "bool",
          "name": "newValue",
          "type": "bool"
        }
      ],
      "name": "setAutomaticAcceptance",
      "outputs": [],
      "stateMutability": "nonpayable",
      "type": "function"
    }
  ],
  "bytecode": "0x60806040526000600260146101000a81548160ff0219169083151502179055503480156200002c57600080fd5b5060405162002bd138038062002bd18339818101604052810190620000529190620001e5565b8180806000806101000a81548173ffffffffffffffffffffffffffffffffffffffff021916908373ffffffffffffffffffffffffffffffffffffffff160217905550505060018060003373ffffffffffffffffffffffffffffffffffffffff1673ffffffffffffffffffffffffffffffffffffffff16815260200190815260200160002060006101000a81548160ff02191690831515021790555080600260006101000a81548173ffffffffffffffffffffffffffffffffffffffff021916908373ffffffffffffffffffffffffffffffffffffffff16021790555050506200022c565b600080fd5b600073ffffffffffffffffffffffffffffffffffffffff82169050919050565b600062000168826200013b565b9050919050565b6200017a816200015b565b81146200018657600080fd5b50565b6000815190506200019a816200016f565b92915050565b6000620001ad826200013b565b9050919050565b620001bf81620001a0565b8114620001cb57600080fd5b50565b600081519050620001df81620001b4565b92915050565b60008060408385031215620001ff57620001fe62000136565b5b60006200020f8582860162000189565b92505060206200022285828601620001ce565b9150509250929050565b612995806200023c6000396000f3fe608060405234801561001057600080fd5b50600436106100cf5760003560e01c806398f6ba431161008c578063ccc2260e11610066578063ccc2260e146101d4578063e5ba3c00146101de578063f0b41438146101fa578063f29105b114610216576100cf565b806398f6ba4314610180578063a6e701261461019c578063b204e9f3146101b8576100cf565b80631785f53c146100d45780631d0d4e8b146100f05780632c9ab42b1461010e578063382654241461012a5780636c3585dd146101465780637048027514610164575b600080fd5b6100ee60048036038101906100e991906113da565b610220565b005b6100f8610307565b6040516101059190611422565b60405180910390f35b610128600480360381019061012391906114a2565b61035b565b005b610144600480360381019061013f91906113da565b61043b565b005b61014e610537565b60405161015b9190611422565b60405180910390f35b61017e600480360381019061017991906113da565b61054a565b005b61019a600480360381019061019591906113da565b610630565b005b6101b660048036038101906101b191906113da565b6106ca565b005b6101d260048036038101906101cd91906113da565b610764565b005b6101dc610860565b005b6101f860048036038101906101f3919061151b565b6108f7565b005b610214600480360381019061020f919061156d565b6109a0565b005b61021e610baf565b005b600160003373ffffffffffffffffffffffffffffffffffffffff1673ffffffffffffffffffffffffffffffffffffffff16815260200190815260200160002060009054906101000a900460ff166102ac576040517f08c379a00000000000000000000000000000000000000000000000000000000081526004016102a39061164c565b60405180910390fd5b6000600160008373ffffffffffffffffffffffffffffffffffffffff1673ffffffffffffffffffffffffffffffffffffffff16815260200190815260200160002060006101000a81548160ff02191690831515021790555050565b6000600160003373ffffffffffffffffffffffffffffffffffffffff1673ffffffffffffffffffffffffffffffffffffffff16815260200190815260200160002060009054906101000a900460ff16905090565b600160003373ffffffffffffffffffffffffffffffffffffffff1673ffffffffffffffffffffffffffffffffffffffff16815260200190815260200160002060009054906101000a900460ff166103e7576040517f08c379a00000000000000000000000000000000000000000000000000000000081526004016103de9061164c565b60405180910390fd5b60005b828290508110156104365761042583838381811061040b5761040a61166c565b5b905060200201602081019061042091906113da565b61054a565b8061042f906116d4565b90506103ea565b505050565b610443610eeb565b6002808111156104565761045561171c565b5b61045e610fad565b73ffffffffffffffffffffffffffffffffffffffff1663dd8b2914336040518263ffffffff1660e01b8152600401610496919061175a565b602060405180830381865afa1580156104b3573d6000803e3d6000fd5b505050506040513d601f19601f820116820180604052508101906104d7919061179a565b60028111156104e9576104e861171c565b5b14610529576040517f08c379a000000000000000000000000000000000000000000000000000000000815260040161052090611839565b60405180910390fd5b610534816001611050565b50565b600260149054906101000a900460ff1681565b600160003373ffffffffffffffffffffffffffffffffffffffff1673ffffffffffffffffffffffffffffffffffffffff16815260200190815260200160002060009054906101000a900460ff166105d6576040517f08c379a00000000000000000000000000000000000000000000000000000000081526004016105cd9061164c565b60405180910390fd5b60018060008373ffffffffffffffffffffffffffffffffffffffff1673ffffffffffffffffffffffffffffffffffffffff16815260200190815260200160002060006101000a81548160ff02191690831515021790555050565b600160003373ffffffffffffffffffffffffffffffffffffffff1673ffffffffffffffffffffffffffffffffffffffff16815260200190815260200160002060009054906101000a900460ff166106bc576040517f08c379a00000000000000000000000000000000000000000000000000000000081526004016106b39061164c565b60405180910390fd5b6106c7816002611050565b50565b600160003373ffffffffffffffffffffffffffffffffffffffff1673ffffffffffffffffffffffffffffffffffffffff16815260200190815260200160002060009054906101000a900460ff16610756576040517f08c379a000000000000000000000000000000000000000000000000000000000815260040161074d9061164c565b60405180910390fd5b610761816001611050565b50565b61076c610eeb565b60028081111561077f5761077e61171c565b5b610787610fad565b73ffffffffffffffffffffffffffffffffffffffff1663dd8b2914336040518263ffffffff1660e01b81526004016107bf919061175a565b602060405180830381865afa1580156107dc573d6000803e3d6000fd5b505050506040513d601f19601f82011682018060405250810190610800919061179a565b60028111156108125761081161171c565b5b14610852576040517f08c379a000000000000000000000000000000000000000000000000000000000815260040161084990611839565b60405180910390fd5b61085d816002611050565b50565b610868610eeb565b600260009054906101000a900473ffffffffffffffffffffffffffffffffffffffff1673ffffffffffffffffffffffffffffffffffffffff1663fbb013f1336040518263ffffffff1660e01b81526004016108c3919061187a565b600060405180830381600087803b1580156108dd57600080fd5b505af11580156108f1573d6000803e3d6000fd5b50505050565b600160003373ffffffffffffffffffffffffffffffffffffffff1673ffffffffffffffffffffffffffffffffffffffff16815260200190815260200160002060009054906101000a900460ff16610983576040517f08c379a000000000000000000000000000000000000000000000000000000000815260040161097a9061164c565b60405180910390fd5b80600260146101000a81548160ff02191690831515021790555050565b600160003373ffffffffffffffffffffffffffffffffffffffff1673ffffffffffffffffffffffffffffffffffffffff16815260200190815260200160002060009054906101000a900460ff16610a2c576040517f08c379a0000000000000000000000000000000000000000000000000000000008152600401610a239061164c565b60405180910390fd5b610a358261115e565b60005b81806101400190610a4991906118a4565b9050811015610b1257610a5a611222565b73ffffffffffffffffffffffffffffffffffffffff16634e634eb583806101400190610a8691906118a4565b84818110610a9757610a9661166c565b5b905060200201356040518263ffffffff1660e01b8152600401610aba9190611916565b600060405180830381865afa158015610ad7573d6000803e3d6000fd5b505050506040513d6000823e3d601f19601f82011682018060405250810190610b009190611b2f565b5080610b0b906116d4565b9050610a38565b50610b1b6112c5565b73ffffffffffffffffffffffffffffffffffffffff166358cbfccd836000846040518463ffffffff1660e01b8152600401610b5893929190612035565b600060405180830381600087803b158015610b7257600080fd5b505af1158015610b86573d6000803e3d6000fd5b50505050600260149054906101000a900460ff1615610bab57610baa826002611050565b5b5050565b610bb83361115e565b6000610bc26112c5565b73ffffffffffffffffffffffffffffffffffffffff166365b7109a336040518263ffffffff1660e01b8152600401610bfa919061175a565b602060405180830381865afa158015610c17573d6000803e3d6000fd5b505050506040513d601f19601f82011682018060405250810190610c3b9190612098565b905060006002811115610c5157610c5061171c565b5b816002811115610c6457610c6361171c565b5b03610ca4576040517f08c379a0000000000000000000000000000000000000000000000000000000008152600401610c9b90612137565b60405180910390fd5b600280811115610cb757610cb661171c565b5b816002811115610cca57610cc961171c565b5b03610e76576000610cd96112c5565b73ffffffffffffffffffffffffffffffffffffffff1663f5bf01fb336040518263ffffffff1660e01b8152600401610d11919061175a565b600060405180830381865afa158015610d2e573d6000803e3d6000fd5b505050506040513d6000823e3d601f19601f82011682018060405250810190610d5791906124b2565b9050610d61610fad565b73ffffffffffffffffffffffffffffffffffffffff1663749ddf70826000015183604001516040518363ffffffff1660e01b8152600401610da3929190612709565b6020604051808303816000875af1158015610dc2573d6000803e3d6000fd5b505050506040513d601f19601f82011682018060405250810190610de69190612739565b50600260009054906101000a900473ffffffffffffffffffffffffffffffffffffffff1673ffffffffffffffffffffffffffffffffffffffff1663fbb013f1336040518263ffffffff1660e01b8152600401610e42919061187a565b600060405180830381600087803b158015610e5c57600080fd5b505af1158015610e70573d6000803e3d6000fd5b50505050505b610e7e6112c5565b73ffffffffffffffffffffffffffffffffffffffff1663442fb8ab336040518263ffffffff1660e01b8152600401610eb6919061175a565b600060405180830381600087803b158015610ed057600080fd5b505af1158015610ee4573d6000803e3d6000fd5b5050505050565b610ef3610fad565b73ffffffffffffffffffffffffffffffffffffffff166338b6a3a1336040518263ffffffff1660e01b8152600401610f2b919061175a565b602060405180830381865afa158015610f48573d6000803e3d6000fd5b505050506040513d601f19601f82011682018060405250810190610f6c919061277b565b610fab576040517f08c379a0000000000000000000000000000000000000000000000000000000008152600401610fa2906127f4565b60405180910390fd5b565b60008060009054906101000a900473ffffffffffffffffffffffffffffffffffffffff1673ffffffffffffffffffffffffffffffffffffffff1663bcaa0c5560026040518263ffffffff1660e01b815260040161100a919061285c565b602060405180830381865afa158015611027573d6000803e3d6000fd5b505050506040513d601f19601f8201168201806040525081019061104b9190612877565b905090565b6110598261115e565b6110616112c5565b73ffffffffffffffffffffffffffffffffffffffff166351cafe0483836040518363ffffffff1660e01b815260040161109b9291906128a4565b600060405180830381600087803b1580156110b557600080fd5b505af11580156110c9573d6000803e3d6000fd5b50505050600260009054906101000a900473ffffffffffffffffffffffffffffffffffffffff1673ffffffffffffffffffffffffffffffffffffffff1663b21224a9836040518263ffffffff1660e01b8152600401611128919061187a565b600060405180830381600087803b15801561114257600080fd5b505af1158015611156573d6000803e3d6000fd5b505050505050565b611166610fad565b73ffffffffffffffffffffffffffffffffffffffff166338b6a3a1826040518263ffffffff1660e01b815260040161119e919061175a565b602060405180830381865afa1580156111bb573d6000803e3d6000fd5b505050506040513d601f19601f820116820180604052508101906111df919061277b565b1561121f576040517f08c379a00000000000000000000000000000000000000000000000000000000081526004016112169061293f565b60405180910390fd5b50565b60008060009054906101000a900473ffffffffffffffffffffffffffffffffffffffff1673ffffffffffffffffffffffffffffffffffffffff1663bcaa0c5560046040518263ffffffff1660e01b815260040161127f919061285c565b602060405180830381865afa15801561129c573d6000803e3d6000fd5b505050506040513d601f19601f820116820180604052508101906112c09190612877565b905090565b60008060009054906101000a900473ffffffffffffffffffffffffffffffffffffffff1673ffffffffffffffffffffffffffffffffffffffff1663bcaa0c5560056040518263ffffffff1660e01b8152600401611322919061285c565b602060405180830381865afa15801561133f573d6000803e3d6000fd5b505050506040513d601f19601f820116820180604052508101906113639190612877565b905090565b6000604051905090565b600080fd5b600080fd5b600073ffffffffffffffffffffffffffffffffffffffff82169050919050565b60006113a78261137c565b9050919050565b6113b78161139c565b81146113c257600080fd5b50565b6000813590506113d4816113ae565b92915050565b6000602082840312156113f0576113ef611372565b5b60006113fe848285016113c5565b91505092915050565b60008115159050919050565b61141c81611407565b82525050565b60006020820190506114376000830184611413565b92915050565b600080fd5b600080fd5b600080fd5b60008083601f8401126114625761146161143d565b5b8235905067ffffffffffffffff81111561147f5761147e611442565b5b60208301915083602082028301111561149b5761149a611447565b5b9250929050565b600080602083850312156114b9576114b8611372565b5b600083013567ffffffffffffffff8111156114d7576114d6611377565b5b6114e38582860161144c565b92509250509250929050565b6114f881611407565b811461150357600080fd5b50565b600081359050611515816114ef565b92915050565b60006020828403121561153157611530611372565b5b600061153f84828501611506565b91505092915050565b600080fd5b6000610160828403121561156457611563611548565b5b81905092915050565b6000806040838503121561158457611583611372565b5b6000611592858286016113c5565b925050602083013567ffffffffffffffff8111156115b3576115b2611377565b5b6115bf8582860161154d565b9150509250929050565b600082825260208201905092915050565b7f4f6e6c792061646d696e206164647265737365732063616e2063616c6c20746860008201527f69732066756e6374696f6e000000000000000000000000000000000000000000602082015250565b6000611636602b836115c9565b9150611641826115da565b604082019050919050565b6000602082019050818103600083015261166581611629565b9050919050565b7f4e487b7100000000000000000000000000000000000000000000000000000000600052603260045260246000fd5b7f4e487b7100000000000000000000000000000000000000000000000000000000600052601160045260246000fd5b6000819050919050565b60006116df826116ca565b91507fffffffffffffffffffffffffffffffffffffffffffffffffffffffffffffffff82036117115761171061169b565b5b600182019050919050565b7f4e487b7100000000000000000000000000000000000000000000000000000000600052602160045260246000fd5b6117548161139c565b82525050565b600060208201905061176f600083018461174b565b92915050565b6003811061178257600080fd5b50565b60008151905061179481611775565b92915050565b6000602082840312156117b0576117af611372565b5b60006117be84828501611785565b91505092915050565b7f53656e646572206d75737420626520612073747564792070726f6772616d206d60008201527f616e616765720000000000000000000000000000000000000000000000000000602082015250565b60006118236026836115c9565b915061182e826117c7565b604082019050919050565b6000602082019050818103600083015261185281611816565b9050919050565b60006118648261137c565b9050919050565b61187481611859565b82525050565b600060208201905061188f600083018461186b565b92915050565b600080fd5b600080fd5b600080fd5b600080833560016020038436030381126118c1576118c0611895565b5b80840192508235915067ffffffffffffffff8211156118e3576118e261189a565b5b6020830192506020820236038313156118ff576118fe61189f565b5b509250929050565b611910816116ca565b82525050565b600060208201905061192b6000830184611907565b92915050565b600080fd5b6000601f19601f8301169050919050565b7f4e487b7100000000000000000000000000000000000000000000000000000000600052604160045260246000fd5b61197f82611936565b810181811067ffffffffffffffff8211171561199e5761199d611947565b5b80604052505050565b60006119b1611368565b90506119bd8282611976565b919050565b600080fd5b6119d0816116ca565b81146119db57600080fd5b50565b6000815190506119ed816119c7565b92915050565b600080fd5b600067ffffffffffffffff821115611a1357611a12611947565b5b611a1c82611936565b9050602081019050919050565b60005b83811015611a47578082015181840152602081019050611a2c565b60008484015250505050565b6000611a66611a61846119f8565b6119a7565b905082815260208101848484011115611a8257611a816119f3565b5b611a8d848285611a29565b509392505050565b600082601f830112611aaa57611aa961143d565b5b8151611aba848260208601611a53565b91505092915050565b600060408284031215611ad957611ad8611931565b5b611ae360406119a7565b90506000611af3848285016119de565b600083015250602082015167ffffffffffffffff811115611b1757611b166119c2565b5b611b2384828501611a95565b60208301525092915050565b600060208284031215611b4557611b44611372565b5b600082015167ffffffffffffffff811115611b6357611b62611377565b5b611b6f84828501611ac3565b91505092915050565b60038110611b8957611b8861171c565b5b50565b6000819050611b9a82611b78565b919050565b6000611baa82611b8c565b9050919050565b611bba81611b9f565b82525050565b600080fd5b600080fd5b600080fd5b60008083356001602003843603038112611bec57611beb611bca565b5b83810192508235915060208301925067ffffffffffffffff821115611c1457611c13611bc0565b5b600182023603831315611c2a57611c29611bc5565b5b509250929050565b600082825260208201905092915050565b82818337600083830152505050565b6000611c5e8385611c32565b9350611c6b838584611c43565b611c7483611936565b840190509392505050565b60038110611c8c57600080fd5b50565b600081359050611c9e81611c7f565b92915050565b6000611cb36020840184611c8f565b905092915050565b60038110611ccc57611ccb61171c565b5b50565b6000819050611cdd82611cbb565b919050565b6000611ced82611ccf565b9050919050565b611cfd81611ce2565b82525050565b600082905092915050565b600081359050611d1d816119c7565b92915050565b6000611d326020840184611d0e565b905092915050565b611d43816116ca565b82525050565b60608201611d5a6000830183611d23565b611d676000850182611d3a565b50611d756020830183611d23565b611d826020850182611d3a565b50611d906040830183611d23565b611d9d6040850182611d3a565b50505050565b600081359050611db281611775565b92915050565b6000611dc76020840184611da3565b905092915050565b60038110611de057611ddf61171c565b5b50565b6000819050611df182611dcf565b919050565b6000611e0182611de3565b9050919050565b611e1181611df6565b82525050565b60008083356001602003843603038112611e3457611e33611bca565b5b83810192508235915060208301925067ffffffffffffffff821115611e5c57611e5b611bc0565b5b602082023603831315611e7257611e71611bc5565b5b509250929050565b600082825260208201905092915050565b600080fd5b82818337505050565b6000611ea58385611e7a565b93507f07ffffffffffffffffffffffffffffffffffffffffffffffffffffffffffffff831115611ed857611ed7611e8b565b5b602083029250611ee9838584611e90565b82840190509392505050565b60006101608301611f096000840184611bcf565b8583036000870152611f1c838284611c52565b92505050611f2d6020840184611bcf565b8583036020870152611f40838284611c52565b92505050611f516040840184611ca4565b611f5e6040860182611cf4565b50611f6c6060840184611d03565b611f796060860182611d49565b50611f8760c0840184611bcf565b85830360c0870152611f9a838284611c52565b92505050611fab60e0840184611bcf565b85830360e0870152611fbe838284611c52565b92505050611fd0610100840184611bcf565b858303610100870152611fe4838284611c52565b92505050611ff6610120840184611db8565b612004610120860182611e08565b50612013610140840184611e17565b858303610140870152612027838284611e99565b925050508091505092915050565b600060608201905061204a600083018661174b565b6120576020830185611bb1565b81810360408301526120698184611ef5565b9050949350505050565b6003811061208057600080fd5b50565b60008151905061209281612073565b92915050565b6000602082840312156120ae576120ad611372565b5b60006120bc84828501612083565b91505092915050565b7f526567697374726174696f6e206973207374696c6c20756e646572207265766960008201527f6577000000000000000000000000000000000000000000000000000000000000602082015250565b60006121216022836115c9565b915061212c826120c5565b604082019050919050565b6000602082019050818103600083015261215081612114565b9050919050565b600081519050612166816113ae565b92915050565b60008151905061217b81611c7f565b92915050565b60006060828403121561219757612196611931565b5b6121a160606119a7565b905060006121b1848285016119de565b60008301525060206121c5848285016119de565b60208301525060406121d9848285016119de565b60408301525092915050565b600067ffffffffffffffff821115612200576121ff611947565b5b602082029050602081019050919050565b600061222461221f846121e5565b6119a7565b9050808382526020820190506020840283018581111561224757612246611447565b5b835b81811015612270578061225c88826119de565b845260208401935050602081019050612249565b5050509392505050565b600082601f83011261228f5761228e61143d565b5b815161229f848260208601612211565b91505092915050565b600061016082840312156122bf576122be611931565b5b6122ca6101206119a7565b9050600082015167ffffffffffffffff8111156122ea576122e96119c2565b5b6122f684828501611a95565b600083015250602082015167ffffffffffffffff81111561231a576123196119c2565b5b61232684828501611a95565b602083015250604061233a8482850161216c565b604083015250606061234e84828501612181565b60608301525060c082015167ffffffffffffffff811115612372576123716119c2565b5b61237e84828501611a95565b60808301525060e082015167ffffffffffffffff8111156123a2576123a16119c2565b5b6123ae84828501611a95565b60a08301525061010082015167ffffffffffffffff8111156123d3576123d26119c2565b5b6123df84828501611a95565b60c0830152506101206123f484828501611785565b60e08301525061014082015167ffffffffffffffff811115612419576124186119c2565b5b6124258482850161227a565b6101008301525092915050565b60006060828403121561244857612447611931565b5b61245260606119a7565b9050600061246284828501612157565b600083015250602061247684828501612083565b602083015250604082015167ffffffffffffffff81111561249a576124996119c2565b5b6124a6848285016122a8565b60408301525092915050565b6000602082840312156124c8576124c7611372565b5b600082015167ffffffffffffffff8111156124e6576124e5611377565b5b6124f284828501612432565b91505092915050565b600081519050919050565b6000612511826124fb565b61251b8185611c32565b935061252b818560208601611a29565b61253481611936565b840191505092915050565b6060820160008201516125556000850182611d3a565b5060208201516125686020850182611d3a565b50604082015161257b6040850182611d3a565b50505050565b600081519050919050565b6000819050602082019050919050565b60006125a88383611d3a565b60208301905092915050565b6000602082019050919050565b60006125cc82612581565b6125d68185611e7a565b93506125e18361258c565b8060005b838110156126125781516125f9888261259c565b9750612604836125b4565b9250506001810190506125e5565b5085935050505092915050565b600061016083016000830151848203600086015261263d8282612506565b915050602083015184820360208601526126578282612506565b915050604083015161266c6040860182611cf4565b50606083015161267f606086018261253f565b50608083015184820360c08601526126978282612506565b91505060a083015184820360e08601526126b18282612506565b91505060c08301518482036101008601526126cc8282612506565b91505060e08301516126e2610120860182611e08565b506101008301518482036101408601526126fc82826125c1565b9150508091505092915050565b600060408201905061271e600083018561174b565b8181036020830152612730818461261f565b90509392505050565b60006020828403121561274f5761274e611372565b5b600061275d848285016119de565b91505092915050565b600081519050612775816114ef565b92915050565b60006020828403121561279157612790611372565b5b600061279f84828501612766565b91505092915050565b7f53656e646572206d757374206265206120726567697374657265642075736572600082015250565b60006127de6020836115c9565b91506127e9826127a8565b602082019050919050565b6000602082019050818103600083015261280d816127d1565b9050919050565b600681106128255761282461171c565b5b50565b600081905061283682612814565b919050565b600061284682612828565b9050919050565b6128568161283b565b82525050565b6000602082019050612871600083018461284d565b92915050565b60006020828403121561288d5761288c611372565b5b600061289b84828501612157565b91505092915050565b60006040820190506128b9600083018561174b565b6128c66020830184611bb1565b9392505050565b7f416464726573732068617320616c7265616479206265656e207265676973746560008201527f7265640000000000000000000000000000000000000000000000000000000000602082015250565b60006129296023836115c9565b9150612934826128cd565b604082019050919050565b600060208201905081810360008301526129588161291c565b905091905056fea2646970667358221220a989b5c656bcb2590c5207488c44455b8b0673dfb8738240eb893d50ffb2cffe64736f6c63430008110033",
  "linkReferences": {},
  "deployedLinkReferences": {}
}