{
  "_format": "hh-sol-artifact-1",
  "contractName": "UserView",
  "sourceName": "contracts/view/UserView.sol",
  "abi": [
    {
      "inputs": [
        {
          "internalType": "address",
          "name": "addressBookAddress",
          "type": "address"
        }
      ],
      "stateMutability": "nonpayable",
      "type": "constructor"
    },
    {
      "inputs": [],
      "name": "getAllUsers",
      "outputs": [
        {
          "components": [
            {
              "internalType": "uint256",
              "name": "uId",
              "type": "uint256"
            },
            {
              "components": [
                {
                  "internalType": "string",
                  "name": "firstName",
                  "type": "string"
                },
                {
                  "internalType": "string",
                  "name": "lastName",
                  "type": "string"
                },
                {
                  "internalType": "enum UserDataTypes.Gender",
                  "name": "gender",
                  "type": "uint8"
                },
                {
                  "components": [
                    {
                      "internalType": "uint256",
                      "name": "year",
                      "type": "uint256"
                    },
                    {
                      "internalType": "uint256",
                      "name": "month",
                      "type": "uint256"
                    },
                    {
                      "internalType": "uint256",
                      "name": "day",
                      "type": "uint256"
                    }
                  ],
                  "internalType": "struct UserDataTypes.Date",
                  "name": "dateOfBirth",
                  "type": "tuple"
                },
                {
                  "internalType": "string",
                  "name": "nationality",
                  "type": "string"
                },
                {
                  "internalType": "string",
                  "name": "phoneNumber",
                  "type": "string"
                },
                {
                  "internalType": "string",
                  "name": "emailAddress",
                  "type": "string"
                },
                {
                  "internalType": "enum UserDataTypes.UserRole",
                  "name": "role",
                  "type": "uint8"
                },
                {
                  "internalType": "uint256[]",
                  "name": "studyProgramIds",
                  "type": "uint256[]"
                }
              ],
              "internalType": "struct UserDataTypes.UserProfile",
              "name": "profile",
              "type": "tuple"
            }
          ],
          "internalType": "struct UserDataTypes.User[]",
          "name": "",
          "type": "tuple[]"
        }
      ],
      "stateMutability": "view",
      "type": "function"
    },
    {
      "inputs": [],
      "name": "getPendingRegistration",
      "outputs": [
        {
          "components": [
            {
              "internalType": "address",
              "name": "userAddress",
              "type": "address"
            },
            {
              "internalType": "enum UserDataTypes.RegistrationStatus",
              "name": "status",
              "type": "uint8"
            },
            {
              "components": [
                {
                  "internalType": "string",
                  "name": "firstName",
                  "type": "string"
                },
                {
                  "internalType": "string",
                  "name": "lastName",
                  "type": "string"
                },
                {
                  "internalType": "enum UserDataTypes.Gender",
                  "name": "gender",
                  "type": "uint8"
                },
                {
                  "components": [
                    {
                      "internalType": "uint256",
                      "name": "year",
                      "type": "uint256"
                    },
                    {
                      "internalType": "uint256",
                      "name": "month",
                      "type": "uint256"
                    },
                    {
                      "internalType": "uint256",
                      "name": "day",
                      "type": "uint256"
                    }
                  ],
                  "internalType": "struct UserDataTypes.Date",
                  "name": "dateOfBirth",
                  "type": "tuple"
                },
                {
                  "internalType": "string",
                  "name": "nationality",
                  "type": "string"
                },
                {
                  "internalType": "string",
                  "name": "phoneNumber",
                  "type": "string"
                },
                {
                  "internalType": "string",
                  "name": "emailAddress",
                  "type": "string"
                },
                {
                  "internalType": "enum UserDataTypes.UserRole",
                  "name": "role",
                  "type": "uint8"
                },
                {
                  "internalType": "uint256[]",
                  "name": "studyProgramIds",
                  "type": "uint256[]"
                }
              ],
              "internalType": "struct UserDataTypes.UserProfile",
              "name": "profile",
              "type": "tuple"
            }
          ],
          "internalType": "struct UserDataTypes.Registration",
          "name": "",
          "type": "tuple"
        }
      ],
      "stateMutability": "view",
      "type": "function"
    },
    {
      "inputs": [],
      "name": "getPendingRegistrations",
      "outputs": [
        {
          "components": [
            {
              "internalType": "address",
              "name": "userAddress",
              "type": "address"
            },
            {
              "internalType": "enum UserDataTypes.RegistrationStatus",
              "name": "status",
              "type": "uint8"
            },
            {
              "components": [
                {
                  "internalType": "string",
                  "name": "firstName",
                  "type": "string"
                },
                {
                  "internalType": "string",
                  "name": "lastName",
                  "type": "string"
                },
                {
                  "internalType": "enum UserDataTypes.Gender",
                  "name": "gender",
                  "type": "uint8"
                },
                {
                  "components": [
                    {
                      "internalType": "uint256",
                      "name": "year",
                      "type": "uint256"
                    },
                    {
                      "internalType": "uint256",
                      "name": "month",
                      "type": "uint256"
                    },
                    {
                      "internalType": "uint256",
                      "name": "day",
                      "type": "uint256"
                    }
                  ],
                  "internalType": "struct UserDataTypes.Date",
                  "name": "dateOfBirth",
                  "type": "tuple"
                },
                {
                  "internalType": "string",
                  "name": "nationality",
                  "type": "string"
                },
                {
                  "internalType": "string",
                  "name": "phoneNumber",
                  "type": "string"
                },
                {
                  "internalType": "string",
                  "name": "emailAddress",
                  "type": "string"
                },
                {
                  "internalType": "enum UserDataTypes.UserRole",
                  "name": "role",
                  "type": "uint8"
                },
                {
                  "internalType": "uint256[]",
                  "name": "studyProgramIds",
                  "type": "uint256[]"
                }
              ],
              "internalType": "struct UserDataTypes.UserProfile",
              "name": "profile",
              "type": "tuple"
            }
          ],
          "internalType": "struct UserDataTypes.Registration[]",
          "name": "",
          "type": "tuple[]"
        }
      ],
      "stateMutability": "view",
      "type": "function"
    },
    {
      "inputs": [],
      "name": "getProfile",
      "outputs": [
        {
          "components": [
            {
              "internalType": "string",
              "name": "firstName",
              "type": "string"
            },
            {
              "internalType": "string",
              "name": "lastName",
              "type": "string"
            },
            {
              "internalType": "enum UserDataTypes.Gender",
              "name": "gender",
              "type": "uint8"
            },
            {
              "components": [
                {
                  "internalType": "uint256",
                  "name": "year",
                  "type": "uint256"
                },
                {
                  "internalType": "uint256",
                  "name": "month",
                  "type": "uint256"
                },
                {
                  "internalType": "uint256",
                  "name": "day",
                  "type": "uint256"
                }
              ],
              "internalType": "struct UserDataTypes.Date",
              "name": "dateOfBirth",
              "type": "tuple"
            },
            {
              "internalType": "string",
              "name": "nationality",
              "type": "string"
            },
            {
              "internalType": "string",
              "name": "phoneNumber",
              "type": "string"
            },
            {
              "internalType": "string",
              "name": "emailAddress",
              "type": "string"
            },
            {
              "internalType": "enum UserDataTypes.UserRole",
              "name": "role",
              "type": "uint8"
            },
            {
              "internalType": "uint256[]",
              "name": "studyProgramIds",
              "type": "uint256[]"
            }
          ],
          "internalType": "struct UserDataTypes.UserProfile",
          "name": "",
          "type": "tuple"
        }
      ],
      "stateMutability": "view",
      "type": "function"
    },
    {
      "inputs": [],
      "name": "getUId",
      "outputs": [
        {
          "internalType": "uint256",
          "name": "",
          "type": "uint256"
        }
      ],
      "stateMutability": "view",
      "type": "function"
    },
    {
      "inputs": [],
      "name": "getUserRole",
      "outputs": [
        {
          "internalType": "enum UserDataTypes.UserRole",
          "name": "",
          "type": "uint8"
        }
      ],
      "stateMutability": "view",
      "type": "function"
    },
    {
      "inputs": [],
      "name": "isUserRegistered",
      "outputs": [
        {
          "internalType": "bool",
          "name": "",
          "type": "bool"
        }
      ],
      "stateMutability": "view",
      "type": "function"
    },
    {
      "inputs": [],
      "name": "isUserRegistrationPending",
      "outputs": [
        {
          "internalType": "bool",
          "name": "",
          "type": "bool"
        }
      ],
      "stateMutability": "view",
      "type": "function"
    }
  ],
  "bytecode": "0x60806040523480156200001157600080fd5b5060405162002104380380620021048339818101604052810190620000379190620000ec565b8080806000806101000a81548173ffffffffffffffffffffffffffffffffffffffff021916908373ffffffffffffffffffffffffffffffffffffffff1602179055505050506200011e565b600080fd5b600073ffffffffffffffffffffffffffffffffffffffff82169050919050565b6000620000b48262000087565b9050919050565b620000c681620000a7565b8114620000d257600080fd5b50565b600081519050620000e681620000bb565b92915050565b60006020828403121562000105576200010462000082565b5b60006200011584828501620000d5565b91505092915050565b611fd6806200012e6000396000f3fe608060405234801561001057600080fd5b50600436106100885760003560e01c8063bf04a10d1161005b578063bf04a10d14610105578063d6afc9b114610123578063e2842d7914610141578063fbc304f11461015f57610088565b806320f366561461008d578063873138f3146100ab5780638f0306e6146100c95780639dedeb82146100e7575b600080fd5b61009561017d565b6040516100a29190610bf1565b60405180910390f35b6100b3610205565b6040516100c09190610bf1565b60405180910390f35b6100d161028d565b6040516100de9190611028565b60405180910390f35b6100ef610320565b6040516100fc919061115c565b60405180910390f35b61010d610490565b60405161011a919061118d565b60405180910390f35b61012b610518565b6040516101389190611292565b60405180910390f35b610149610639565b60405161015691906113b3565b60405180910390f35b610167610858565b60405161017491906113e4565b60405180910390f35b60006101876108e8565b73ffffffffffffffffffffffffffffffffffffffff16632ad7397e336040518263ffffffff1660e01b81526004016101bf919061140e565b602060405180830381865afa1580156101dc573d6000803e3d6000fd5b505050506040513d601f19601f820116820180604052508101906102009190611469565b905090565b600061020f61098b565b73ffffffffffffffffffffffffffffffffffffffff166338b6a3a1336040518263ffffffff1660e01b8152600401610247919061140e565b602060405180830381865afa158015610264573d6000803e3d6000fd5b505050506040513d601f19601f820116820180604052508101906102889190611469565b905090565b610295610af0565b61029d6108e8565b73ffffffffffffffffffffffffffffffffffffffff1663f5bf01fb336040518263ffffffff1660e01b81526004016102d5919061140e565b600060405180830381865afa1580156102f2573d6000803e3d6000fd5b505050506040513d6000823e3d601f19601f8201168201806040525081019061031b91906119c3565b905090565b606061032a610a2e565b60028081111561033d5761033c610c4d565b5b61034561098b565b73ffffffffffffffffffffffffffffffffffffffff1663dd8b2914336040518263ffffffff1660e01b815260040161037d919061140e565b602060405180830381865afa15801561039a573d6000803e3d6000fd5b505050506040513d601f19601f820116820180604052508101906103be9190611a0c565b60028111156103d0576103cf610c4d565b5b14610410576040517f08c379a000000000000000000000000000000000000000000000000000000000815260040161040790611abc565b60405180910390fd5b6104186108e8565b73ffffffffffffffffffffffffffffffffffffffff1663745fb1296040518163ffffffff1660e01b8152600401600060405180830381865afa158015610462573d6000803e3d6000fd5b505050506040513d6000823e3d601f19601f8201168201806040525081019061048b9190611bbd565b905090565b600061049a61098b565b73ffffffffffffffffffffffffffffffffffffffff1663dd8b2914336040518263ffffffff1660e01b81526004016104d2919061140e565b602060405180830381865afa1580156104ef573d6000803e3d6000fd5b505050506040513d601f19601f820116820180604052508101906105139190611a0c565b905090565b610520610b3f565b610528610a2e565b600061053261098b565b73ffffffffffffffffffffffffffffffffffffffff1663e3d7e14c336040518263ffffffff1660e01b815260040161056a919061140e565b602060405180830381865afa158015610587573d6000803e3d6000fd5b505050506040513d601f19601f820116820180604052508101906105ab9190611c06565b90506105b561098b565b73ffffffffffffffffffffffffffffffffffffffff1663f08f4f64826040518263ffffffff1660e01b81526004016105ed91906113e4565b600060405180830381865afa15801561060a573d6000803e3d6000fd5b505050506040513d6000823e3d601f19601f820116820180604052508101906106339190611c33565b91505090565b6060610643610a2e565b6001600281111561065757610656610c4d565b5b61065f61098b565b73ffffffffffffffffffffffffffffffffffffffff1663dd8b2914336040518263ffffffff1660e01b8152600401610697919061140e565b602060405180830381865afa1580156106b4573d6000803e3d6000fd5b505050506040513d601f19601f820116820180604052508101906106d89190611a0c565b60028111156106ea576106e9610c4d565b5b1480610799575060028081111561070457610703610c4d565b5b61070c61098b565b73ffffffffffffffffffffffffffffffffffffffff1663dd8b2914336040518263ffffffff1660e01b8152600401610744919061140e565b602060405180830381865afa158015610761573d6000803e3d6000fd5b505050506040513d601f19601f820116820180604052508101906107859190611a0c565b600281111561079757610796610c4d565b5b145b6107d8576040517f08c379a00000000000000000000000000000000000000000000000000000000081526004016107cf90611cee565b60405180910390fd5b6107e061098b565b73ffffffffffffffffffffffffffffffffffffffff1663e2842d796040518163ffffffff1660e01b8152600401600060405180830381865afa15801561082a573d6000803e3d6000fd5b505050506040513d6000823e3d601f19601f820116820180604052508101906108539190611e5b565b905090565b6000610862610a2e565b61086a61098b565b73ffffffffffffffffffffffffffffffffffffffff1663e3d7e14c336040518263ffffffff1660e01b81526004016108a2919061140e565b602060405180830381865afa1580156108bf573d6000803e3d6000fd5b505050506040513d601f19601f820116820180604052508101906108e39190611c06565b905090565b60008060009054906101000a900473ffffffffffffffffffffffffffffffffffffffff1673ffffffffffffffffffffffffffffffffffffffff1663bcaa0c5560056040518263ffffffff1660e01b81526004016109459190611eec565b602060405180830381865afa158015610962573d6000803e3d6000fd5b505050506040513d601f19601f820116820180604052508101906109869190611f07565b905090565b60008060009054906101000a900473ffffffffffffffffffffffffffffffffffffffff1673ffffffffffffffffffffffffffffffffffffffff1663bcaa0c5560026040518263ffffffff1660e01b81526004016109e89190611eec565b602060405180830381865afa158015610a05573d6000803e3d6000fd5b505050506040513d601f19601f82011682018060405250810190610a299190611f07565b905090565b610a3661098b565b73ffffffffffffffffffffffffffffffffffffffff166338b6a3a1336040518263ffffffff1660e01b8152600401610a6e919061140e565b602060405180830381865afa158015610a8b573d6000803e3d6000fd5b505050506040513d601f19601f82011682018060405250810190610aaf9190611469565b610aee576040517f08c379a0000000000000000000000000000000000000000000000000000000008152600401610ae590611f80565b60405180910390fd5b565b6040518060600160405280600073ffffffffffffffffffffffffffffffffffffffff16815260200160006002811115610b2c57610b2b610c4d565b5b8152602001610b39610b3f565b81525090565b604051806101200160405280606081526020016060815260200160006002811115610b6d57610b6c610c4d565b5b8152602001610b7a610bb5565b815260200160608152602001606081526020016060815260200160006002811115610ba857610ba7610c4d565b5b8152602001606081525090565b60405180606001604052806000815260200160008152602001600081525090565b60008115159050919050565b610beb81610bd6565b82525050565b6000602082019050610c066000830184610be2565b92915050565b600073ffffffffffffffffffffffffffffffffffffffff82169050919050565b6000610c3782610c0c565b9050919050565b610c4781610c2c565b82525050565b7f4e487b7100000000000000000000000000000000000000000000000000000000600052602160045260246000fd5b60038110610c8d57610c8c610c4d565b5b50565b6000819050610c9e82610c7c565b919050565b6000610cae82610c90565b9050919050565b610cbe81610ca3565b82525050565b600081519050919050565b600082825260208201905092915050565b60005b83811015610cfe578082015181840152602081019050610ce3565b60008484015250505050565b6000601f19601f8301169050919050565b6000610d2682610cc4565b610d308185610ccf565b9350610d40818560208601610ce0565b610d4981610d0a565b840191505092915050565b60038110610d6557610d64610c4d565b5b50565b6000819050610d7682610d54565b919050565b6000610d8682610d68565b9050919050565b610d9681610d7b565b82525050565b6000819050919050565b610daf81610d9c565b82525050565b606082016000820151610dcb6000850182610da6565b506020820151610dde6020850182610da6565b506040820151610df16040850182610da6565b50505050565b60038110610e0857610e07610c4d565b5b50565b6000819050610e1982610df7565b919050565b6000610e2982610e0b565b9050919050565b610e3981610e1e565b82525050565b600081519050919050565b600082825260208201905092915050565b6000819050602082019050919050565b6000610e778383610da6565b60208301905092915050565b6000602082019050919050565b6000610e9b82610e3f565b610ea58185610e4a565b9350610eb083610e5b565b8060005b83811015610ee1578151610ec88882610e6b565b9750610ed383610e83565b925050600181019050610eb4565b5085935050505092915050565b6000610160830160008301518482036000860152610f0c8282610d1b565b91505060208301518482036020860152610f268282610d1b565b9150506040830151610f3b6040860182610d8d565b506060830151610f4e6060860182610db5565b50608083015184820360c0860152610f668282610d1b565b91505060a083015184820360e0860152610f808282610d1b565b91505060c0830151848203610100860152610f9b8282610d1b565b91505060e0830151610fb1610120860182610e30565b50610100830151848203610140860152610fcb8282610e90565b9150508091505092915050565b6000606083016000830151610ff06000860182610c3e565b5060208301516110036020860182610cb5565b506040830151848203604086015261101b8282610eee565b9150508091505092915050565b600060208201905081810360008301526110428184610fd8565b905092915050565b600081519050919050565b600082825260208201905092915050565b6000819050602082019050919050565b600060608301600083015161108e6000860182610c3e565b5060208301516110a16020860182610cb5565b50604083015184820360408601526110b98282610eee565b9150508091505092915050565b60006110d28383611076565b905092915050565b6000602082019050919050565b60006110f28261104a565b6110fc8185611055565b93508360208202850161110e85611066565b8060005b8581101561114a578484038952815161112b85826110c6565b9450611136836110da565b925060208a01995050600181019050611112565b50829750879550505050505092915050565b6000602082019050818103600083015261117681846110e7565b905092915050565b61118781610e1e565b82525050565b60006020820190506111a2600083018461117e565b92915050565b60006101608301600083015184820360008601526111c68282610d1b565b915050602083015184820360208601526111e08282610d1b565b91505060408301516111f56040860182610d8d565b5060608301516112086060860182610db5565b50608083015184820360c08601526112208282610d1b565b91505060a083015184820360e086015261123a8282610d1b565b91505060c08301518482036101008601526112558282610d1b565b91505060e083015161126b610120860182610e30565b506101008301518482036101408601526112858282610e90565b9150508091505092915050565b600060208201905081810360008301526112ac81846111a8565b905092915050565b600081519050919050565b600082825260208201905092915050565b6000819050602082019050919050565b60006040830160008301516112f86000860182610da6565b50602083015184820360208601526113108282610eee565b9150508091505092915050565b600061132983836112e0565b905092915050565b6000602082019050919050565b6000611349826112b4565b61135381856112bf565b935083602082028501611365856112d0565b8060005b858110156113a15784840389528151611382858261131d565b945061138d83611331565b925060208a01995050600181019050611369565b50829750879550505050505092915050565b600060208201905081810360008301526113cd818461133e565b905092915050565b6113de81610d9c565b82525050565b60006020820190506113f960008301846113d5565b92915050565b61140881610c2c565b82525050565b600060208201905061142360008301846113ff565b92915050565b6000604051905090565b600080fd5b600080fd5b61144681610bd6565b811461145157600080fd5b50565b6000815190506114638161143d565b92915050565b60006020828403121561147f5761147e611433565b5b600061148d84828501611454565b91505092915050565b600080fd5b7f4e487b7100000000000000000000000000000000000000000000000000000000600052604160045260246000fd5b6114d382610d0a565b810181811067ffffffffffffffff821117156114f2576114f161149b565b5b80604052505050565b6000611505611429565b905061151182826114ca565b919050565b600080fd5b61152481610c2c565b811461152f57600080fd5b50565b6000815190506115418161151b565b92915050565b6003811061155457600080fd5b50565b60008151905061156681611547565b92915050565b600080fd5b600080fd5b600067ffffffffffffffff8211156115915761159061149b565b5b61159a82610d0a565b9050602081019050919050565b60006115ba6115b584611576565b6114fb565b9050828152602081018484840111156115d6576115d5611571565b5b6115e1848285610ce0565b509392505050565b600082601f8301126115fe576115fd61156c565b5b815161160e8482602086016115a7565b91505092915050565b6003811061162457600080fd5b50565b60008151905061163681611617565b92915050565b61164581610d9c565b811461165057600080fd5b50565b6000815190506116628161163c565b92915050565b60006060828403121561167e5761167d611496565b5b61168860606114fb565b9050600061169884828501611653565b60008301525060206116ac84828501611653565b60208301525060406116c084828501611653565b60408301525092915050565b600381106116d957600080fd5b50565b6000815190506116eb816116cc565b92915050565b600067ffffffffffffffff82111561170c5761170b61149b565b5b602082029050602081019050919050565b600080fd5b6000611735611730846116f1565b6114fb565b905080838252602082019050602084028301858111156117585761175761171d565b5b835b81811015611781578061176d8882611653565b84526020840193505060208101905061175a565b5050509392505050565b600082601f8301126117a05761179f61156c565b5b81516117b0848260208601611722565b91505092915050565b600061016082840312156117d0576117cf611496565b5b6117db6101206114fb565b9050600082015167ffffffffffffffff8111156117fb576117fa611516565b5b611807848285016115e9565b600083015250602082015167ffffffffffffffff81111561182b5761182a611516565b5b611837848285016115e9565b602083015250604061184b84828501611627565b604083015250606061185f84828501611668565b60608301525060c082015167ffffffffffffffff81111561188357611882611516565b5b61188f848285016115e9565b60808301525060e082015167ffffffffffffffff8111156118b3576118b2611516565b5b6118bf848285016115e9565b60a08301525061010082015167ffffffffffffffff8111156118e4576118e3611516565b5b6118f0848285016115e9565b60c083015250610120611905848285016116dc565b60e08301525061014082015167ffffffffffffffff81111561192a57611929611516565b5b6119368482850161178b565b6101008301525092915050565b60006060828403121561195957611958611496565b5b61196360606114fb565b9050600061197384828501611532565b600083015250602061198784828501611557565b602083015250604082015167ffffffffffffffff8111156119ab576119aa611516565b5b6119b7848285016117b9565b60408301525092915050565b6000602082840312156119d9576119d8611433565b5b600082015167ffffffffffffffff8111156119f7576119f6611438565b5b611a0384828501611943565b91505092915050565b600060208284031215611a2257611a21611433565b5b6000611a30848285016116dc565b91505092915050565b600082825260208201905092915050565b7f53656e646572206d75737420626520612073747564792070726f6772616d206d60008201527f616e616765720000000000000000000000000000000000000000000000000000602082015250565b6000611aa6602683611a39565b9150611ab182611a4a565b604082019050919050565b60006020820190508181036000830152611ad581611a99565b9050919050565b600067ffffffffffffffff821115611af757611af661149b565b5b602082029050602081019050919050565b6000611b1b611b1684611adc565b6114fb565b90508083825260208201905060208402830185811115611b3e57611b3d61171d565b5b835b81811015611b8557805167ffffffffffffffff811115611b6357611b6261156c565b5b808601611b708982611943565b85526020850194505050602081019050611b40565b5050509392505050565b600082601f830112611ba457611ba361156c565b5b8151611bb4848260208601611b08565b91505092915050565b600060208284031215611bd357611bd2611433565b5b600082015167ffffffffffffffff811115611bf157611bf0611438565b5b611bfd84828501611b8f565b91505092915050565b600060208284031215611c1c57611c1b611433565b5b6000611c2a84828501611653565b91505092915050565b600060208284031215611c4957611c48611433565b5b600082015167ffffffffffffffff811115611c6757611c66611438565b5b611c73848285016117b9565b91505092915050565b7f53656e646572206d757374206265206c65637475726572206f7220737475647960008201527f2070726f6772616d206d616e6167657200000000000000000000000000000000602082015250565b6000611cd8603083611a39565b9150611ce382611c7c565b604082019050919050565b60006020820190508181036000830152611d0781611ccb565b9050919050565b600067ffffffffffffffff821115611d2957611d2861149b565b5b602082029050602081019050919050565b600060408284031215611d5057611d4f611496565b5b611d5a60406114fb565b90506000611d6a84828501611653565b600083015250602082015167ffffffffffffffff811115611d8e57611d8d611516565b5b611d9a848285016117b9565b60208301525092915050565b6000611db9611db484611d0e565b6114fb565b90508083825260208201905060208402830185811115611ddc57611ddb61171d565b5b835b81811015611e2357805167ffffffffffffffff811115611e0157611e0061156c565b5b808601611e0e8982611d3a565b85526020850194505050602081019050611dde565b5050509392505050565b600082601f830112611e4257611e4161156c565b5b8151611e52848260208601611da6565b91505092915050565b600060208284031215611e7157611e70611433565b5b600082015167ffffffffffffffff811115611e8f57611e8e611438565b5b611e9b84828501611e2d565b91505092915050565b60068110611eb557611eb4610c4d565b5b50565b6000819050611ec682611ea4565b919050565b6000611ed682611eb8565b9050919050565b611ee681611ecb565b82525050565b6000602082019050611f016000830184611edd565b92915050565b600060208284031215611f1d57611f1c611433565b5b6000611f2b84828501611532565b91505092915050565b7f53656e646572206d757374206265206120726567697374657265642075736572600082015250565b6000611f6a602083611a39565b9150611f7582611f34565b602082019050919050565b60006020820190508181036000830152611f9981611f5d565b905091905056fea2646970667358221220460e96f9124ba0982ed500bfea67e333c3aed75dfb7c8043ee6833f8f9d33d3364736f6c63430008110033",
  "linkReferences": {},
  "deployedLinkReferences": {}
}