{
  "_format": "hh-sol-artifact-1",
  "contractName": "AssessmentDataStorage",
  "sourceName": "contracts/data/storage/assessment/AssessmentDataStorage.sol",
  "abi": [
    {
      "inputs": [
        {
          "internalType": "address",
          "name": "accessWhitelistAddress",
          "type": "address"
        }
      ],
      "stateMutability": "nonpayable",
      "type": "constructor"
    },
    {
      "inputs": [
        {
          "internalType": "uint256",
          "name": "assessmentId",
          "type": "uint256"
        }
      ],
      "name": "getAssessment",
      "outputs": [
        {
          "components": [
            {
              "internalType": "uint256",
              "name": "assessmentId",
              "type": "uint256"
            },
            {
              "components": [
                {
                  "internalType": "string",
                  "name": "title",
                  "type": "string"
                },
                {
                  "internalType": "uint256",
                  "name": "datetime",
                  "type": "uint256"
                },
                {
                  "internalType": "string",
                  "name": "place",
                  "type": "string"
                },
                {
                  "internalType": "enum CourseDataTypes.AssessmentType",
                  "name": "assessmentType",
                  "type": "uint8"
                },
                {
                  "internalType": "uint256",
                  "name": "maxPoints",
                  "type": "uint256"
                },
                {
                  "internalType": "uint256",
                  "name": "minPoints",
                  "type": "uint256"
                },
                {
                  "internalType": "bool",
                  "name": "isRegistrationRequired",
                  "type": "bool"
                },
                {
                  "internalType": "uint256",
                  "name": "registrationStart",
                  "type": "uint256"
                },
                {
                  "internalType": "uint256",
                  "name": "registrationDeadline",
                  "type": "uint256"
                },
                {
                  "internalType": "uint256",
                  "name": "deregistrationDeadline",
                  "type": "uint256"
                }
              ],
              "internalType": "struct CourseDataTypes.AssessmentContent",
              "name": "assessmentContent",
              "type": "tuple"
            }
          ],
          "internalType": "struct CourseDataTypes.Assessment",
          "name": "",
          "type": "tuple"
        }
      ],
      "stateMutability": "view",
      "type": "function"
    },
    {
      "inputs": [
        {
          "internalType": "uint256",
          "name": "courseId",
          "type": "uint256"
        }
      ],
      "name": "getAssessmentIds",
      "outputs": [
        {
          "internalType": "uint256[]",
          "name": "",
          "type": "uint256[]"
        }
      ],
      "stateMutability": "view",
      "type": "function"
    },
    {
      "inputs": [
        {
          "internalType": "uint256",
          "name": "registrantUId",
          "type": "uint256"
        }
      ],
      "name": "getAssessmentIdsOfRegistrant",
      "outputs": [
        {
          "internalType": "uint256[]",
          "name": "",
          "type": "uint256[]"
        }
      ],
      "stateMutability": "view",
      "type": "function"
    },
    {
      "inputs": [
        {
          "internalType": "uint256",
          "name": "assessmentId",
          "type": "uint256"
        }
      ],
      "name": "getCourseIdOfAssessment",
      "outputs": [
        {
          "internalType": "uint256",
          "name": "",
          "type": "uint256"
        }
      ],
      "stateMutability": "view",
      "type": "function"
    },
    {
      "inputs": [
        {
          "internalType": "uint256",
          "name": "assessmentId",
          "type": "uint256"
        }
      ],
      "name": "getRegistrantIdsOfAssessment",
      "outputs": [
        {
          "internalType": "uint256[]",
          "name": "",
          "type": "uint256[]"
        }
      ],
      "stateMutability": "view",
      "type": "function"
    },
    {
      "inputs": [
        {
          "internalType": "uint256",
          "name": "assessmentId",
          "type": "uint256"
        },
        {
          "internalType": "uint256",
          "name": "registrantUId",
          "type": "uint256"
        }
      ],
      "name": "removeRegistrant",
      "outputs": [],
      "stateMutability": "nonpayable",
      "type": "function"
    },
    {
      "inputs": [
        {
          "internalType": "uint256",
          "name": "courseId",
          "type": "uint256"
        },
        {
          "components": [
            {
              "internalType": "uint256",
              "name": "assessmentId",
              "type": "uint256"
            },
            {
              "components": [
                {
                  "internalType": "string",
                  "name": "title",
                  "type": "string"
                },
                {
                  "internalType": "uint256",
                  "name": "datetime",
                  "type": "uint256"
                },
                {
                  "internalType": "string",
                  "name": "place",
                  "type": "string"
                },
                {
                  "internalType": "enum CourseDataTypes.AssessmentType",
                  "name": "assessmentType",
                  "type": "uint8"
                },
                {
                  "internalType": "uint256",
                  "name": "maxPoints",
                  "type": "uint256"
                },
                {
                  "internalType": "uint256",
                  "name": "minPoints",
                  "type": "uint256"
                },
                {
                  "internalType": "bool",
                  "name": "isRegistrationRequired",
                  "type": "bool"
                },
                {
                  "internalType": "uint256",
                  "name": "registrationStart",
                  "type": "uint256"
                },
                {
                  "internalType": "uint256",
                  "name": "registrationDeadline",
                  "type": "uint256"
                },
                {
                  "internalType": "uint256",
                  "name": "deregistrationDeadline",
                  "type": "uint256"
                }
              ],
              "internalType": "struct CourseDataTypes.AssessmentContent",
              "name": "assessmentContent",
              "type": "tuple"
            }
          ],
          "internalType": "struct CourseDataTypes.Assessment",
          "name": "assessment",
          "type": "tuple"
        }
      ],
      "name": "storeAssessment",
      "outputs": [],
      "stateMutability": "nonpayable",
      "type": "function"
    },
    {
      "inputs": [
        {
          "internalType": "uint256",
          "name": "assessmentId",
          "type": "uint256"
        },
        {
          "internalType": "uint256",
          "name": "registrantUId",
          "type": "uint256"
        }
      ],
      "name": "storeRegistrant",
      "outputs": [],
      "stateMutability": "nonpayable",
      "type": "function"
    }
  ],
  "bytecode": "0x60806040523480156200001157600080fd5b506040516200279e3803806200279e8339818101604052810190620000379190620000ec565b8080806000806101000a81548173ffffffffffffffffffffffffffffffffffffffff021916908373ffffffffffffffffffffffffffffffffffffffff1602179055505050506200011e565b600080fd5b600073ffffffffffffffffffffffffffffffffffffffff82169050919050565b6000620000b48262000087565b9050919050565b620000c681620000a7565b8114620000d257600080fd5b50565b600081519050620000e681620000bb565b92915050565b60006020828403121562000105576200010462000082565b5b60006200011584828501620000d5565b91505092915050565b612670806200012e6000396000f3fe608060405234801561001057600080fd5b50600436106100885760003560e01c8063b8e517871161005b578063b8e5178714610125578063e7e94b1214610155578063ecd8a67714610185578063ed373249146101a157610088565b806344b848741461008d5780635bccdece146100bd578063adfb1f8a146100d9578063b4ab4bab14610109575b600080fd5b6100a760048036038101906100a291906115eb565b6101d1565b6040516100b491906116d6565b60405180910390f35b6100d760048036038101906100d2919061171c565b610315565b005b6100f360048036038101906100ee91906115eb565b61056c565b6040516101009190611787565b60405180910390f35b610123600480360381019061011e91906117a2565b6106b8565b005b61013f600480360381019061013a91906115eb565b61088d565b60405161014c9190611a22565b60405180910390f35b61016f600480360381019061016a91906115eb565b610bbd565b60405161017c91906116d6565b60405180910390f35b61019f600480360381019061019a91906117a2565b610d40565b005b6101bb60048036038101906101b691906115eb565b610f15565b6040516101c891906116d6565b60405180910390f35b606060008054906101000a900473ffffffffffffffffffffffffffffffffffffffff1673ffffffffffffffffffffffffffffffffffffffff166313f44d10336040518263ffffffff1660e01b815260040161022c9190611a85565b602060405180830381865afa158015610249573d6000803e3d6000fd5b505050506040513d601f19601f8201168201806040525081019061026d9190611acc565b6102ac576040517f08c379a00000000000000000000000000000000000000000000000000000000081526004016102a390611b56565b60405180910390fd5b6002600083815260200190815260200160002080548060200260200160405190810160405280929190818152602001828054801561030957602002820191906000526020600020905b8154815260200190600101908083116102f5575b50505050509050919050565b60008054906101000a900473ffffffffffffffffffffffffffffffffffffffff1673ffffffffffffffffffffffffffffffffffffffff166313f44d10336040518263ffffffff1660e01b815260040161036e9190611a85565b602060405180830381865afa15801561038b573d6000803e3d6000fd5b505050506040513d601f19601f820116820180604052508101906103af9190611acc565b6103ee576040517f08c379a00000000000000000000000000000000000000000000000000000000081526004016103e590611b56565b60405180910390fd5b61042d826040518060400160405280600981526020017f436f757273652049440000000000000000000000000000000000000000000000815250611098565b61047081600001356040518060400160405280600d81526020017f4173736573736d656e7420494400000000000000000000000000000000000000815250611098565b6105158160000135600360008581526020019081526020016000208054806020026020016040519081016040528092919081815260200182805480156104d557602002820191906000526020600020905b8154815260200190600101908083116104c1575b50505050506040518060400160405280600d81526020017f4173736573736d656e7420494400000000000000000000000000000000000000815250611107565b6105258160000135836003611179565b8060046000836000013581526020019081526020016000208181610549919061223e565b905050816005600083600001358152602001908152602001600020819055505050565b60008060009054906101000a900473ffffffffffffffffffffffffffffffffffffffff1673ffffffffffffffffffffffffffffffffffffffff166313f44d10336040518263ffffffff1660e01b81526004016105c89190611a85565b602060405180830381865afa1580156105e5573d6000803e3d6000fd5b505050506040513d601f19601f820116820180604052508101906106099190611acc565b610648576040517f08c379a000000000000000000000000000000000000000000000000000000000815260040161063f90611b56565b60405180910390fd5b61069d60046000848152602001908152602001600020600001546040518060400160405280600d81526020017f4173736573736d656e74204944000000000000000000000000000000000000008152506111df565b60056000838152602001908152602001600020549050919050565b60008054906101000a900473ffffffffffffffffffffffffffffffffffffffff1673ffffffffffffffffffffffffffffffffffffffff166313f44d10336040518263ffffffff1660e01b81526004016107119190611a85565b602060405180830381865afa15801561072e573d6000803e3d6000fd5b505050506040513d601f19601f820116820180604052508101906107529190611acc565b610791576040517f08c379a000000000000000000000000000000000000000000000000000000000815260040161078890611b56565b60405180910390fd5b6107d0826040518060400160405280600d81526020017f4173736573736d656e7420494400000000000000000000000000000000000000815250611098565b610871816001600085815260200190815260200160002080548060200260200160405190810160405280929190818152602001828054801561083157602002820191906000526020600020905b81548152602001906001019080831161081d575b50505050506040518060400160405280600e81526020017f52656769737472616e7420754944000000000000000000000000000000000000815250611107565b61087d81836001611179565b61088982826002611179565b5050565b6108956114b5565b60008054906101000a900473ffffffffffffffffffffffffffffffffffffffff1673ffffffffffffffffffffffffffffffffffffffff166313f44d10336040518263ffffffff1660e01b81526004016108ee9190611a85565b602060405180830381865afa15801561090b573d6000803e3d6000fd5b505050506040513d601f19601f8201168201806040525081019061092f9190611acc565b61096e576040517f08c379a000000000000000000000000000000000000000000000000000000000815260040161096590611b56565b60405180910390fd5b6109c360046000848152602001908152602001600020600001546040518060400160405280600d81526020017f4173736573736d656e74204944000000000000000000000000000000000000008152506111df565b60046000838152602001908152602001600020604051806040016040529081600082015481526020016001820160405180610140016040529081600082018054610a0c90611d38565b80601f0160208091040260200160405190810160405280929190818152602001828054610a3890611d38565b8015610a855780601f10610a5a57610100808354040283529160200191610a85565b820191906000526020600020905b815481529060010190602001808311610a6857829003601f168201915b5050505050815260200160018201548152602001600282018054610aa890611d38565b80601f0160208091040260200160405190810160405280929190818152602001828054610ad490611d38565b8015610b215780601f10610af657610100808354040283529160200191610b21565b820191906000526020600020905b815481529060010190602001808311610b0457829003601f168201915b505050505081526020016003820160009054906101000a900460ff166001811115610b4f57610b4e611872565b5b6001811115610b6157610b60611872565b5b815260200160048201548152602001600582015481526020016006820160009054906101000a900460ff161515151581526020016007820154815260200160088201548152602001600982015481525050815250509050919050565b606060008054906101000a900473ffffffffffffffffffffffffffffffffffffffff1673ffffffffffffffffffffffffffffffffffffffff166313f44d10336040518263ffffffff1660e01b8152600401610c189190611a85565b602060405180830381865afa158015610c35573d6000803e3d6000fd5b505050506040513d601f19601f82011682018060405250810190610c599190611acc565b610c98576040517f08c379a0000000000000000000000000000000000000000000000000000000008152600401610c8f90611b56565b60405180910390fd5b610cd7826040518060400160405280600981526020017f436f757273652049440000000000000000000000000000000000000000000000815250611098565b60036000838152602001908152602001600020805480602002602001604051908101604052809291908181526020018280548015610d3457602002820191906000526020600020905b815481526020019060010190808311610d20575b50505050509050919050565b60008054906101000a900473ffffffffffffffffffffffffffffffffffffffff1673ffffffffffffffffffffffffffffffffffffffff166313f44d10336040518263ffffffff1660e01b8152600401610d999190611a85565b602060405180830381865afa158015610db6573d6000803e3d6000fd5b505050506040513d601f19601f82011682018060405250810190610dda9190611acc565b610e19576040517f08c379a0000000000000000000000000000000000000000000000000000000008152600401610e1090611b56565b60405180910390fd5b610e58826040518060400160405280600d81526020017f4173736573736d656e7420494400000000000000000000000000000000000000815250611098565b610ef98160016000858152602001908152602001600020805480602002602001604051908101604052809291908181526020018280548015610eb957602002820191906000526020600020905b815481526020019060010190808311610ea5575b50505050506040518060400160405280600e81526020017f52656769737472616e742075494400000000000000000000000000000000000081525061124e565b610f05818360016112bf565b610f11828260026112bf565b5050565b606060008054906101000a900473ffffffffffffffffffffffffffffffffffffffff1673ffffffffffffffffffffffffffffffffffffffff166313f44d10336040518263ffffffff1660e01b8152600401610f709190611a85565b602060405180830381865afa158015610f8d573d6000803e3d6000fd5b505050506040513d601f19601f82011682018060405250810190610fb19190611acc565b610ff0576040517f08c379a0000000000000000000000000000000000000000000000000000000008152600401610fe790611b56565b60405180910390fd5b61102f826040518060400160405280600d81526020017f4173736573736d656e7420494400000000000000000000000000000000000000815250611098565b6001600083815260200190815260200160002080548060200260200160405190810160405280929190818152602001828054801561108c57602002820191906000526020600020905b815481526020019060010190808311611078575b50505050509050919050565b6110a182611307565b816040516020016110b291906122d4565b60405160208183030381529060405290611102576040517f08c379a00000000000000000000000000000000000000000000000000000000081526004016110f9919061232f565b60405180910390fd5b505050565b6111118383611314565b158160405160200161112391906123e9565b60405160208183030381529060405290611173576040517f08c379a000000000000000000000000000000000000000000000000000000000815260040161116a919061232f565b60405180910390fd5b50505050565b6000816000848152602001908152602001600020905080849080600181540180825580915050600190039060005260206000200160009091909190915055808260008581526020019081526020016000209080546111d89291906114d5565b5050505050565b6111e882611307565b816040516020016111f99190612462565b60405160208183030381529060405290611249576040517f08c379a0000000000000000000000000000000000000000000000000000000008152600401611240919061232f565b60405180910390fd5b505050565b6112588383611314565b8160405160200161126991906124d0565b604051602081830303815290604052906112b9576040517f08c379a00000000000000000000000000000000000000000000000000000000081526004016112b0919061232f565b60405180910390fd5b50505050565b600081600084815260200190815260200160002090506112df848261132b565b808260008581526020019081526020016000209080546113009291906114d5565b5050505050565b6000808214159050919050565b600080611321848461143e565b1215905092915050565b6000611386838380548060200260200160405190810160405280929190818152602001828054801561137c57602002820191906000526020600020905b815481526020019060010190808311611368575b505050505061143e565b90506000811261143957600081905060008190505b600184805490506113ac919061252c565b81101561140f57836001826113c19190612560565b815481106113d2576113d1612594565b5b90600052602060002001548482815481106113f0576113ef612594565b5b906000526020600020018190555080611408906125c3565b905061139b565b50828054806114215761142061260b565b5b60019003818190600052602060002001600090559055505b505050565b600080600090505b825181101561148a578383828151811061146357611462612594565b5b60200260200101510361147957809150506114af565b80611483906125c3565b9050611446565b507fffffffffffffffffffffffffffffffffffffffffffffffffffffffffffffffff90505b92915050565b6040518060400160405280600081526020016114cf611527565b81525090565b8280548282559060005260206000209081019282156115165760005260206000209182015b828111156115155782548255916001019190600101906114fa565b5b509050611523919061158e565b5090565b6040518061014001604052806060815260200160008152602001606081526020016000600181111561155c5761155b611872565b5b815260200160008152602001600081526020016000151581526020016000815260200160008152602001600081525090565b5b808211156115a757600081600090555060010161158f565b5090565b600080fd5b600080fd5b6000819050919050565b6115c8816115b5565b81146115d357600080fd5b50565b6000813590506115e5816115bf565b92915050565b600060208284031215611601576116006115ab565b5b600061160f848285016115d6565b91505092915050565b600081519050919050565b600082825260208201905092915050565b6000819050602082019050919050565b61164d816115b5565b82525050565b600061165f8383611644565b60208301905092915050565b6000602082019050919050565b600061168382611618565b61168d8185611623565b935061169883611634565b8060005b838110156116c95781516116b08882611653565b97506116bb8361166b565b92505060018101905061169c565b5085935050505092915050565b600060208201905081810360008301526116f08184611678565b905092915050565b600080fd5b600060408284031215611713576117126116f8565b5b81905092915050565b60008060408385031215611733576117326115ab565b5b6000611741858286016115d6565b925050602083013567ffffffffffffffff811115611762576117616115b0565b5b61176e858286016116fd565b9150509250929050565b611781816115b5565b82525050565b600060208201905061179c6000830184611778565b92915050565b600080604083850312156117b9576117b86115ab565b5b60006117c7858286016115d6565b92505060206117d8858286016115d6565b9150509250929050565b600081519050919050565b600082825260208201905092915050565b60005b8381101561181c578082015181840152602081019050611801565b60008484015250505050565b6000601f19601f8301169050919050565b6000611844826117e2565b61184e81856117ed565b935061185e8185602086016117fe565b61186781611828565b840191505092915050565b7f4e487b7100000000000000000000000000000000000000000000000000000000600052602160045260246000fd5b600281106118b2576118b1611872565b5b50565b60008190506118c3826118a1565b919050565b60006118d3826118b5565b9050919050565b6118e3816118c8565b82525050565b60008115159050919050565b6118fe816118e9565b82525050565b60006101408301600083015184820360008601526119228282611839565b91505060208301516119376020860182611644565b506040830151848203604086015261194f8282611839565b915050606083015161196460608601826118da565b5060808301516119776080860182611644565b5060a083015161198a60a0860182611644565b5060c083015161199d60c08601826118f5565b5060e08301516119b060e0860182611644565b506101008301516119c5610100860182611644565b506101208301516119da610120860182611644565b508091505092915050565b60006040830160008301516119fd6000860182611644565b5060208301518482036020860152611a158282611904565b9150508091505092915050565b60006020820190508181036000830152611a3c81846119e5565b905092915050565b600073ffffffffffffffffffffffffffffffffffffffff82169050919050565b6000611a6f82611a44565b9050919050565b611a7f81611a64565b82525050565b6000602082019050611a9a6000830184611a76565b92915050565b611aa9816118e9565b8114611ab457600080fd5b50565b600081519050611ac681611aa0565b92915050565b600060208284031215611ae257611ae16115ab565b5b6000611af084828501611ab7565b91505092915050565b600082825260208201905092915050565b7f5468652073656e646572206973206e6f742077686974656c6973746564000000600082015250565b6000611b40601d83611af9565b9150611b4b82611b0a565b602082019050919050565b60006020820190508181036000830152611b6f81611b33565b9050919050565b60008135611b83816115bf565b80915050919050565b60008160001b9050919050565b60007fffffffffffffffffffffffffffffffffffffffffffffffffffffffffffffffff611bc584611b8c565b9350801983169250808416831791505092915050565b6000819050919050565b6000611c00611bfb611bf6846115b5565b611bdb565b6115b5565b9050919050565b6000819050919050565b611c1a82611be5565b611c2d611c2682611c07565b8354611b99565b8255505050565b600080fd5b600080fd5b600080fd5b60008235600161014003833603038112611c6057611c5f611c34565b5b80830191505092915050565b60008083356001602003843603038112611c8957611c88611c34565b5b80840192508235915067ffffffffffffffff821115611cab57611caa611c39565b5b602083019250600182023603831315611cc757611cc6611c3e565b5b509250929050565b600082905092915050565b7f4e487b7100000000000000000000000000000000000000000000000000000000600052604160045260246000fd5b7f4e487b7100000000000000000000000000000000000000000000000000000000600052602260045260246000fd5b60006002820490506001821680611d5057607f821691505b602082108103611d6357611d62611d09565b5b50919050565b60008190508160005260206000209050919050565b60006020601f8301049050919050565b600082821b905092915050565b600060088302611dcb7fffffffffffffffffffffffffffffffffffffffffffffffffffffffffffffffff82611d8e565b611dd58683611d8e565b95508019841693508086168417925050509392505050565b611df683611be5565b611e0a611e0282611c07565b848454611d9b565b825550505050565b600090565b611e1f611e12565b611e2a818484611ded565b505050565b5b81811015611e4e57611e43600082611e17565b600181019050611e30565b5050565b601f821115611e9357611e6481611d69565b611e6d84611d7e565b81016020851015611e7c578190505b611e90611e8885611d7e565b830182611e2f565b50505b505050565b600082821c905092915050565b6000611eb660001984600802611e98565b1980831691505092915050565b6000611ecf8383611ea5565b9150826002028217905092915050565b611ee98383611ccf565b67ffffffffffffffff811115611f0257611f01611cda565b5b611f0c8254611d38565b611f17828285611e52565b6000601f831160018114611f465760008415611f34578287013590505b611f3e8582611ec3565b865550611fa6565b601f198416611f5486611d69565b60005b82811015611f7c57848901358255600182019150602085019450602081019050611f57565b86831015611f995784890135611f95601f891682611ea5565b8355505b6001600288020188555050505b50505050505050565b611fba838383611edf565b505050565b60028110611fcc57600080fd5b50565b60008135611fdc81611fbf565b80915050919050565b600060ff611ff284611b8c565b9350801983169250808416831791505092915050565b6000612013826118b5565b9050919050565b6000819050919050565b61202d82612008565b6120406120398261201a565b8354611fe5565b8255505050565b6000813561205481611aa0565b80915050919050565b6000612068826118e9565b9050919050565b6000819050919050565b6120828261205d565b61209561208e8261206f565b8354611fe5565b8255505050565b60008101600083016120ae8185611c6c565b6120b9818386611faf565b505050506001810160208301806120cf81611b76565b90506120db8184611c11565b50505060028101604083016120f08185611c6c565b6120fb818386611faf565b5050505060038101606083018061211181611fcf565b905061211d8184612024565b50505060048101608083018061213281611b76565b905061213e8184611c11565b5050506005810160a083018061215381611b76565b905061215f8184611c11565b5050506006810160c083018061217481612047565b90506121808184612079565b5050506007810160e083018061219581611b76565b90506121a18184611c11565b505050600881016101008301806121b781611b76565b90506121c38184611c11565b505050600981016101208301806121d981611b76565b90506121e58184611c11565b5050505050565b6121f6828261209c565b5050565b60008101600083018061220c81611b76565b90506122188184611c11565b505050600181016020830161222d8185611c43565b61223781846121ec565b5050505050565b61224882826121fa565b5050565b600081905092915050565b7f496e76616c696420000000000000000000000000000000000000000000000000600082015250565b600061228d60088361224c565b915061229882612257565b600882019050919050565b60006122ae826117e2565b6122b8818561224c565b93506122c88185602086016117fe565b80840191505092915050565b60006122df82612280565b91506122eb82846122a3565b915081905092915050565b6000612301826117e2565b61230b8185611af9565b935061231b8185602086016117fe565b61232481611828565b840191505092915050565b6000602082019050818103600083015261234981846122f6565b905092915050565b7f56616c756520776974682074686520676976656e200000000000000000000000600082015250565b600061238760158361224c565b915061239282612351565b601582019050919050565b7f2068617320616c7265616479206265656e206164646564000000000000000000600082015250565b60006123d360178361224c565b91506123de8261239d565b601782019050919050565b60006123f48261237a565b915061240082846122a3565b915061240b826123c6565b915081905092915050565b7f20646f6573206e6f7420657869737420617420676976656e2049440000000000600082015250565b600061244c601b8361224c565b915061245782612416565b601b82019050919050565b600061246e82846122a3565b91506124798261243f565b915081905092915050565b7f20686173206e6f74206265656e20616464656400000000000000000000000000600082015250565b60006124ba60138361224c565b91506124c582612484565b601382019050919050565b60006124db8261237a565b91506124e782846122a3565b91506124f2826124ad565b915081905092915050565b7f4e487b7100000000000000000000000000000000000000000000000000000000600052601160045260246000fd5b6000612537826115b5565b9150612542836115b5565b925082820390508181111561255a576125596124fd565b5b92915050565b600061256b826115b5565b9150612576836115b5565b925082820190508082111561258e5761258d6124fd565b5b92915050565b7f4e487b7100000000000000000000000000000000000000000000000000000000600052603260045260246000fd5b60006125ce826115b5565b91507fffffffffffffffffffffffffffffffffffffffffffffffffffffffffffffffff8203612600576125ff6124fd565b5b600182019050919050565b7f4e487b7100000000000000000000000000000000000000000000000000000000600052603160045260246000fdfea26469706673582212204e1d3fc2776df874e7bd137446f3d8de0181acf386ebc6f8a71843828710517964736f6c63430008110033",
  "linkReferences": {},
  "deployedLinkReferences": {}
}