{
  "_format": "hh-sol-artifact-1",
  "contractName": "PerformanceView",
  "sourceName": "contracts/view/PerformanceView.sol",
  "abi": [
    {
      "inputs": [
        {
          "internalType": "address",
          "name": "addressBookAddress",
          "type": "address"
        }
      ],
      "stateMutability": "nonpayable",
      "type": "constructor"
    },
    {
      "inputs": [
        {
          "internalType": "uint256",
          "name": "assessmentId",
          "type": "uint256"
        }
      ],
      "name": "getEvaluation",
      "outputs": [
        {
          "components": [
            {
              "internalType": "bool",
              "name": "isSet",
              "type": "bool"
            },
            {
              "internalType": "uint256",
              "name": "datetime",
              "type": "uint256"
            },
            {
              "internalType": "uint256",
              "name": "achievedPoints",
              "type": "uint256"
            },
            {
              "internalType": "string",
              "name": "feedback",
              "type": "string"
            },
            {
              "internalType": "uint256",
              "name": "lecturerUId",
              "type": "uint256"
            }
          ],
          "internalType": "struct PerformanceDataTypes.Evaluation",
          "name": "",
          "type": "tuple"
        }
      ],
      "stateMutability": "view",
      "type": "function"
    },
    {
      "inputs": [
        {
          "internalType": "uint256",
          "name": "assessmentId",
          "type": "uint256"
        },
        {
          "internalType": "uint256",
          "name": "studentUId",
          "type": "uint256"
        }
      ],
      "name": "getEvaluationOfStudent",
      "outputs": [
        {
          "components": [
            {
              "internalType": "bool",
              "name": "isSet",
              "type": "bool"
            },
            {
              "internalType": "uint256",
              "name": "datetime",
              "type": "uint256"
            },
            {
              "internalType": "uint256",
              "name": "achievedPoints",
              "type": "uint256"
            },
            {
              "internalType": "string",
              "name": "feedback",
              "type": "string"
            },
            {
              "internalType": "uint256",
              "name": "lecturerUId",
              "type": "uint256"
            }
          ],
          "internalType": "struct PerformanceDataTypes.Evaluation",
          "name": "",
          "type": "tuple"
        }
      ],
      "stateMutability": "view",
      "type": "function"
    },
    {
      "inputs": [
        {
          "internalType": "uint256",
          "name": "assessmentId",
          "type": "uint256"
        }
      ],
      "name": "getExamAttendance",
      "outputs": [
        {
          "components": [
            {
              "internalType": "bool",
              "name": "isSet",
              "type": "bool"
            },
            {
              "internalType": "bool",
              "name": "hasAttended",
              "type": "bool"
            },
            {
              "internalType": "uint256",
              "name": "confirmationDateTime",
              "type": "uint256"
            }
          ],
          "internalType": "struct PerformanceDataTypes.ExamAttendance",
          "name": "",
          "type": "tuple"
        }
      ],
      "stateMutability": "view",
      "type": "function"
    },
    {
      "inputs": [
        {
          "internalType": "uint256",
          "name": "assessmentId",
          "type": "uint256"
        },
        {
          "internalType": "uint256",
          "name": "studentUId",
          "type": "uint256"
        }
      ],
      "name": "getExamAttendanceOfStudent",
      "outputs": [
        {
          "components": [
            {
              "internalType": "bool",
              "name": "isSet",
              "type": "bool"
            },
            {
              "internalType": "bool",
              "name": "hasAttended",
              "type": "bool"
            },
            {
              "internalType": "uint256",
              "name": "confirmationDateTime",
              "type": "uint256"
            }
          ],
          "internalType": "struct PerformanceDataTypes.ExamAttendance",
          "name": "",
          "type": "tuple"
        }
      ],
      "stateMutability": "view",
      "type": "function"
    },
    {
      "inputs": [
        {
          "internalType": "uint256",
          "name": "courseId",
          "type": "uint256"
        }
      ],
      "name": "getGrade",
      "outputs": [
        {
          "components": [
            {
              "internalType": "bool",
              "name": "isSet",
              "type": "bool"
            },
            {
              "internalType": "uint256",
              "name": "value",
              "type": "uint256"
            },
            {
              "internalType": "string",
              "name": "feedback",
              "type": "string"
            },
            {
              "internalType": "uint256",
              "name": "datetime",
              "type": "uint256"
            },
            {
              "internalType": "uint256",
              "name": "lecturerUId",
              "type": "uint256"
            },
            {
              "internalType": "bool",
              "name": "isFinal",
              "type": "bool"
            }
          ],
          "internalType": "struct PerformanceDataTypes.Grade",
          "name": "",
          "type": "tuple"
        }
      ],
      "stateMutability": "view",
      "type": "function"
    },
    {
      "inputs": [
        {
          "internalType": "uint256",
          "name": "courseId",
          "type": "uint256"
        },
        {
          "internalType": "uint256",
          "name": "studentUId",
          "type": "uint256"
        }
      ],
      "name": "getGradeOfStudent",
      "outputs": [
        {
          "components": [
            {
              "internalType": "bool",
              "name": "isSet",
              "type": "bool"
            },
            {
              "internalType": "uint256",
              "name": "value",
              "type": "uint256"
            },
            {
              "internalType": "string",
              "name": "feedback",
              "type": "string"
            },
            {
              "internalType": "uint256",
              "name": "datetime",
              "type": "uint256"
            },
            {
              "internalType": "uint256",
              "name": "lecturerUId",
              "type": "uint256"
            },
            {
              "internalType": "bool",
              "name": "isFinal",
              "type": "bool"
            }
          ],
          "internalType": "struct PerformanceDataTypes.Grade",
          "name": "",
          "type": "tuple"
        }
      ],
      "stateMutability": "view",
      "type": "function"
    },
    {
      "inputs": [
        {
          "internalType": "uint256",
          "name": "assessmentId",
          "type": "uint256"
        }
      ],
      "name": "getSubmission",
      "outputs": [
        {
          "components": [
            {
              "internalType": "bool",
              "name": "isSet",
              "type": "bool"
            },
            {
              "internalType": "uint256",
              "name": "submissionDatetime",
              "type": "uint256"
            },
            {
              "internalType": "string[]",
              "name": "documentHashes",
              "type": "string[]"
            }
          ],
          "internalType": "struct PerformanceDataTypes.Submission",
          "name": "",
          "type": "tuple"
        }
      ],
      "stateMutability": "view",
      "type": "function"
    },
    {
      "inputs": [
        {
          "internalType": "uint256",
          "name": "assessmentId",
          "type": "uint256"
        },
        {
          "internalType": "uint256",
          "name": "studentUId",
          "type": "uint256"
        }
      ],
      "name": "getSubmissionOfStudent",
      "outputs": [
        {
          "components": [
            {
              "internalType": "bool",
              "name": "isSet",
              "type": "bool"
            },
            {
              "internalType": "uint256",
              "name": "submissionDatetime",
              "type": "uint256"
            },
            {
              "internalType": "string[]",
              "name": "documentHashes",
              "type": "string[]"
            }
          ],
          "internalType": "struct PerformanceDataTypes.Submission",
          "name": "",
          "type": "tuple"
        }
      ],
      "stateMutability": "view",
      "type": "function"
    }
  ],
  "bytecode": "0x60806040523480156200001157600080fd5b5060405162003174380380620031748339818101604052810190620000379190620000ec565b8080806000806101000a81548173ffffffffffffffffffffffffffffffffffffffff021916908373ffffffffffffffffffffffffffffffffffffffff1602179055505050506200011e565b600080fd5b600073ffffffffffffffffffffffffffffffffffffffff82169050919050565b6000620000b48262000087565b9050919050565b620000c681620000a7565b8114620000d257600080fd5b50565b600081519050620000e681620000bb565b92915050565b60006020828403121562000105576200010462000082565b5b60006200011584828501620000d5565b91505092915050565b613046806200012e6000396000f3fe608060405234801561001057600080fd5b50600436106100885760003560e01c8063c23d4c851161005b578063c23d4c851461014d578063c964edc31461017d578063e1e0485e146101ad578063f5777b43146101dd57610088565b80632b5597581461008d5780633065aa42146100bd5780633e8686cc146100ed57806353eeac431461011d575b600080fd5b6100a760048036038101906100a29190611ead565b61020d565b6040516100b49190611f46565b60405180910390f35b6100d760048036038101906100d29190611f61565b6104b5565b6040516100e49190612143565b60405180910390f35b61010760048036038101906101029190611ead565b610763565b6040516101149190612143565b60405180910390f35b61013760048036038101906101329190611f61565b610a10565b60405161014491906121db565b60405180910390f35b61016760048036038101906101629190611ead565b610cc7565b60405161017491906121db565b60405180910390f35b61019760048036038101906101929190611f61565b610f6b565b6040516101a49190612286565b60405180910390f35b6101c760048036038101906101c29190611ead565b61119c565b6040516101d49190612286565b60405180910390f35b6101f760048036038101906101f29190611f61565b6113ba565b6040516102049190611f46565b60405180910390f35b610215611db0565b61021d611675565b60006002811115610231576102306122a8565b5b610239611737565b73ffffffffffffffffffffffffffffffffffffffff1663dd8b2914336040518263ffffffff1660e01b81526004016102719190612318565b602060405180830381865afa15801561028e573d6000803e3d6000fd5b505050506040513d601f19601f820116820180604052508101906102b29190612358565b60028111156102c4576102c36122a8565b5b14610304576040517f08c379a00000000000000000000000000000000000000000000000000000000081526004016102fb906123e2565b60405180910390fd5b600061030e611737565b73ffffffffffffffffffffffffffffffffffffffff1663e3d7e14c336040518263ffffffff1660e01b81526004016103469190612318565b602060405180830381865afa158015610363573d6000803e3d6000fd5b505050506040513d601f19601f820116820180604052508101906103879190612417565b905060006103936117da565b73ffffffffffffffffffffffffffffffffffffffff1663a31cf91f856040518263ffffffff1660e01b81526004016103cb9190612453565b602060405180830381865afa1580156103e8573d6000803e3d6000fd5b505050506040513d601f19601f8201168201806040525081019061040c9190612417565b9050610420828261041b61187d565b611920565b610429846119e0565b610431611aca565b73ffffffffffffffffffffffffffffffffffffffff1663fdd3f03683866040518363ffffffff1660e01b815260040161046b92919061246e565b606060405180830381865afa158015610488573d6000803e3d6000fd5b505050506040513d601f19601f820116820180604052508101906104ac91906125ac565b92505050919050565b6104bd611dd5565b6104c5611675565b600160028111156104d9576104d86122a8565b5b6104e1611737565b73ffffffffffffffffffffffffffffffffffffffff1663dd8b2914336040518263ffffffff1660e01b81526004016105199190612318565b602060405180830381865afa158015610536573d6000803e3d6000fd5b505050506040513d601f19601f8201168201806040525081019061055a9190612358565b600281111561056c5761056b6122a8565b5b146105ac576040517f08c379a00000000000000000000000000000000000000000000000000000000081526004016105a390612625565b60405180910390fd5b60006105b66117da565b73ffffffffffffffffffffffffffffffffffffffff1663a31cf91f856040518263ffffffff1660e01b81526004016105ee9190612453565b602060405180830381865afa15801561060b573d6000803e3d6000fd5b505050506040513d601f19601f8201168201806040525081019061062f9190612417565b9050600061063b611737565b73ffffffffffffffffffffffffffffffffffffffff1663e3d7e14c336040518263ffffffff1660e01b81526004016106739190612318565b602060405180830381865afa158015610690573d6000803e3d6000fd5b505050506040513d601f19601f820116820180604052508101906106b49190612417565b90506106c881836106c361187d565b611b6d565b6106d185611c39565b6106d9611aca565b73ffffffffffffffffffffffffffffffffffffffff1663b7ed707185876040518363ffffffff1660e01b815260040161071392919061246e565b600060405180830381865afa158015610730573d6000803e3d6000fd5b505050506040513d6000823e3d601f19601f820116820180604052508101906107599190612856565b9250505092915050565b61076b611dd5565b610773611675565b60006002811115610787576107866122a8565b5b61078f611737565b73ffffffffffffffffffffffffffffffffffffffff1663dd8b2914336040518263ffffffff1660e01b81526004016107c79190612318565b602060405180830381865afa1580156107e4573d6000803e3d6000fd5b505050506040513d601f19601f820116820180604052508101906108089190612358565b600281111561081a576108196122a8565b5b1461085a576040517f08c379a0000000000000000000000000000000000000000000000000000000008152600401610851906123e2565b60405180910390fd5b6000610864611737565b73ffffffffffffffffffffffffffffffffffffffff1663e3d7e14c336040518263ffffffff1660e01b815260040161089c9190612318565b602060405180830381865afa1580156108b9573d6000803e3d6000fd5b505050506040513d601f19601f820116820180604052508101906108dd9190612417565b905060006108e96117da565b73ffffffffffffffffffffffffffffffffffffffff1663a31cf91f856040518263ffffffff1660e01b81526004016109219190612453565b602060405180830381865afa15801561093e573d6000803e3d6000fd5b505050506040513d601f19601f820116820180604052508101906109629190612417565b9050610976828261097161187d565b611920565b61097f84611c39565b610987611aca565b73ffffffffffffffffffffffffffffffffffffffff1663b7ed707183866040518363ffffffff1660e01b81526004016109c192919061246e565b600060405180830381865afa1580156109de573d6000803e3d6000fd5b505050506040513d6000823e3d601f19601f82011682018060405250810190610a079190612856565b92505050919050565b610a18611df8565b610a20611675565b60016002811115610a3457610a336122a8565b5b610a3c611737565b73ffffffffffffffffffffffffffffffffffffffff1663dd8b2914336040518263ffffffff1660e01b8152600401610a749190612318565b602060405180830381865afa158015610a91573d6000803e3d6000fd5b505050506040513d601f19601f82011682018060405250810190610ab59190612358565b6002811115610ac757610ac66122a8565b5b14610b07576040517f08c379a0000000000000000000000000000000000000000000000000000000008152600401610afe90612625565b60405180910390fd5b6000610b11611737565b73ffffffffffffffffffffffffffffffffffffffff1663e3d7e14c336040518263ffffffff1660e01b8152600401610b499190612318565b602060405180830381865afa158015610b66573d6000803e3d6000fd5b505050506040513d601f19601f82011682018060405250810190610b8a9190612417565b90506000610b966117da565b73ffffffffffffffffffffffffffffffffffffffff1663a31cf91f866040518263ffffffff1660e01b8152600401610bce9190612453565b602060405180830381865afa158015610beb573d6000803e3d6000fd5b505050506040513d601f19601f82011682018060405250810190610c0f9190612417565b9050610c238282610c1e61187d565b611b6d565b610c358482610c3061187d565b611920565b610c3d611aca565b73ffffffffffffffffffffffffffffffffffffffff16635e4a739285876040518363ffffffff1660e01b8152600401610c7792919061246e565b600060405180830381865afa158015610c94573d6000803e3d6000fd5b505050506040513d6000823e3d601f19601f82011682018060405250810190610cbd9190612947565b9250505092915050565b610ccf611df8565b610cd7611675565b60006002811115610ceb57610cea6122a8565b5b610cf3611737565b73ffffffffffffffffffffffffffffffffffffffff1663dd8b2914336040518263ffffffff1660e01b8152600401610d2b9190612318565b602060405180830381865afa158015610d48573d6000803e3d6000fd5b505050506040513d601f19601f82011682018060405250810190610d6c9190612358565b6002811115610d7e57610d7d6122a8565b5b14610dbe576040517f08c379a0000000000000000000000000000000000000000000000000000000008152600401610db5906123e2565b60405180910390fd5b6000610dc8611737565b73ffffffffffffffffffffffffffffffffffffffff1663e3d7e14c336040518263ffffffff1660e01b8152600401610e009190612318565b602060405180830381865afa158015610e1d573d6000803e3d6000fd5b505050506040513d601f19601f82011682018060405250810190610e419190612417565b90506000610e4d6117da565b73ffffffffffffffffffffffffffffffffffffffff1663a31cf91f856040518263ffffffff1660e01b8152600401610e859190612453565b602060405180830381865afa158015610ea2573d6000803e3d6000fd5b505050506040513d601f19601f82011682018060405250810190610ec69190612417565b9050610eda8282610ed561187d565b611920565b610ee2611aca565b73ffffffffffffffffffffffffffffffffffffffff16635e4a739283866040518363ffffffff1660e01b8152600401610f1c92919061246e565b600060405180830381865afa158015610f39573d6000803e3d6000fd5b505050506040513d6000823e3d601f19601f82011682018060405250810190610f629190612947565b92505050919050565b610f73611e29565b610f7b611675565b60016002811115610f8f57610f8e6122a8565b5b610f97611737565b73ffffffffffffffffffffffffffffffffffffffff1663dd8b2914336040518263ffffffff1660e01b8152600401610fcf9190612318565b602060405180830381865afa158015610fec573d6000803e3d6000fd5b505050506040513d601f19601f820116820180604052508101906110109190612358565b6002811115611022576110216122a8565b5b14611062576040517f08c379a000000000000000000000000000000000000000000000000000000000815260040161105990612625565b60405180910390fd5b600061106c611737565b73ffffffffffffffffffffffffffffffffffffffff1663e3d7e14c336040518263ffffffff1660e01b81526004016110a49190612318565b602060405180830381865afa1580156110c1573d6000803e3d6000fd5b505050506040513d601f19601f820116820180604052508101906110e59190612417565b90506110f981856110f461187d565b611b6d565b61110b838561110661187d565b611920565b611113611aca565b73ffffffffffffffffffffffffffffffffffffffff1663374a62a084866040518363ffffffff1660e01b815260040161114d92919061246e565b600060405180830381865afa15801561116a573d6000803e3d6000fd5b505050506040513d6000823e3d601f19601f820116820180604052508101906111939190612a4c565b91505092915050565b6111a4611e29565b6111ac611675565b600060028111156111c0576111bf6122a8565b5b6111c8611737565b73ffffffffffffffffffffffffffffffffffffffff1663dd8b2914336040518263ffffffff1660e01b81526004016112009190612318565b602060405180830381865afa15801561121d573d6000803e3d6000fd5b505050506040513d601f19601f820116820180604052508101906112419190612358565b6002811115611253576112526122a8565b5b14611293576040517f08c379a000000000000000000000000000000000000000000000000000000000815260040161128a906123e2565b60405180910390fd5b600061129d611737565b73ffffffffffffffffffffffffffffffffffffffff1663e3d7e14c336040518263ffffffff1660e01b81526004016112d59190612318565b602060405180830381865afa1580156112f2573d6000803e3d6000fd5b505050506040513d601f19601f820116820180604052508101906113169190612417565b905061132a818461132561187d565b611920565b611332611aca565b73ffffffffffffffffffffffffffffffffffffffff1663374a62a082856040518363ffffffff1660e01b815260040161136c92919061246e565b600060405180830381865afa158015611389573d6000803e3d6000fd5b505050506040513d6000823e3d601f19601f820116820180604052508101906113b29190612a4c565b915050919050565b6113c2611db0565b6113ca611675565b600160028111156113de576113dd6122a8565b5b6113e6611737565b73ffffffffffffffffffffffffffffffffffffffff1663dd8b2914336040518263ffffffff1660e01b815260040161141e9190612318565b602060405180830381865afa15801561143b573d6000803e3d6000fd5b505050506040513d601f19601f8201168201806040525081019061145f9190612358565b6002811115611471576114706122a8565b5b146114b1576040517f08c379a00000000000000000000000000000000000000000000000000000000081526004016114a890612625565b60405180910390fd5b60006114bb6117da565b73ffffffffffffffffffffffffffffffffffffffff1663a31cf91f856040518263ffffffff1660e01b81526004016114f39190612453565b602060405180830381865afa158015611510573d6000803e3d6000fd5b505050506040513d601f19601f820116820180604052508101906115349190612417565b90506000611540611737565b73ffffffffffffffffffffffffffffffffffffffff1663e3d7e14c336040518263ffffffff1660e01b81526004016115789190612318565b602060405180830381865afa158015611595573d6000803e3d6000fd5b505050506040513d601f19601f820116820180604052508101906115b99190612417565b90506115cd81836115c861187d565b611b6d565b6115df84836115da61187d565b611920565b6115e8856119e0565b6115f0611aca565b73ffffffffffffffffffffffffffffffffffffffff1663fdd3f03685876040518363ffffffff1660e01b815260040161162a92919061246e565b606060405180830381865afa158015611647573d6000803e3d6000fd5b505050506040513d601f19601f8201168201806040525081019061166b91906125ac565b9250505092915050565b61167d611737565b73ffffffffffffffffffffffffffffffffffffffff166338b6a3a1336040518263ffffffff1660e01b81526004016116b59190612318565b602060405180830381865afa1580156116d2573d6000803e3d6000fd5b505050506040513d601f19601f820116820180604052508101906116f69190612a95565b611735576040517f08c379a000000000000000000000000000000000000000000000000000000000815260040161172c90612b0e565b60405180910390fd5b565b60008060009054906101000a900473ffffffffffffffffffffffffffffffffffffffff1673ffffffffffffffffffffffffffffffffffffffff1663bcaa0c5560026040518263ffffffff1660e01b81526004016117949190612b76565b602060405180830381865afa1580156117b1573d6000803e3d6000fd5b505050506040513d601f19601f820116820180604052508101906117d59190612bbd565b905090565b60008060009054906101000a900473ffffffffffffffffffffffffffffffffffffffff1673ffffffffffffffffffffffffffffffffffffffff1663bcaa0c5560016040518263ffffffff1660e01b81526004016118379190612b76565b602060405180830381865afa158015611854573d6000803e3d6000fd5b505050506040513d601f19601f820116820180604052508101906118789190612bbd565b905090565b60008060009054906101000a900473ffffffffffffffffffffffffffffffffffffffff1673ffffffffffffffffffffffffffffffffffffffff1663bcaa0c5560006040518263ffffffff1660e01b81526004016118da9190612b76565b602060405180830381865afa1580156118f7573d6000803e3d6000fd5b505050506040513d601f19601f8201168201806040525081019061191b9190612bbd565b905090565b8073ffffffffffffffffffffffffffffffffffffffff16633932708b84846040518363ffffffff1660e01b815260040161195b92919061246e565b602060405180830381865afa158015611978573d6000803e3d6000fd5b505050506040513d601f19601f8201168201806040525081019061199c9190612a95565b6119db576040517f08c379a00000000000000000000000000000000000000000000000000000000081526004016119d290612c5c565b60405180910390fd5b505050565b600060018111156119f4576119f36122a8565b5b6119fc6117da565b73ffffffffffffffffffffffffffffffffffffffff1663e9eb5356836040518263ffffffff1660e01b8152600401611a349190612453565b602060405180830381865afa158015611a51573d6000803e3d6000fd5b505050506040513d601f19601f82011682018060405250810190611a759190612ca1565b6001811115611a8757611a866122a8565b5b14611ac7576040517f08c379a0000000000000000000000000000000000000000000000000000000008152600401611abe90612d1a565b60405180910390fd5b50565b60008060009054906101000a900473ffffffffffffffffffffffffffffffffffffffff1673ffffffffffffffffffffffffffffffffffffffff1663bcaa0c5560036040518263ffffffff1660e01b8152600401611b279190612b76565b602060405180830381865afa158015611b44573d6000803e3d6000fd5b505050506040513d601f19601f82011682018060405250810190611b689190612bbd565b905090565b611bf5838273ffffffffffffffffffffffffffffffffffffffff1663bd9c1b50856040518263ffffffff1660e01b8152600401611baa9190612453565b600060405180830381865afa158015611bc7573d6000803e3d6000fd5b505050506040513d6000823e3d601f19601f82011682018060405250810190611bf09190612dfd565b611d22565b611c34576040517f08c379a0000000000000000000000000000000000000000000000000000000008152600401611c2b90612eb8565b60405180910390fd5b505050565b600180811115611c4c57611c4b6122a8565b5b611c546117da565b73ffffffffffffffffffffffffffffffffffffffff1663e9eb5356836040518263ffffffff1660e01b8152600401611c8c9190612453565b602060405180830381865afa158015611ca9573d6000803e3d6000fd5b505050506040513d601f19601f82011682018060405250810190611ccd9190612ca1565b6001811115611cdf57611cde6122a8565b5b14611d1f576040517f08c379a0000000000000000000000000000000000000000000000000000000008152600401611d1690612f4a565b60405180910390fd5b50565b600080611d2f8484611d39565b1215905092915050565b600080600090505b8251811015611d855783838281518110611d5e57611d5d612f6a565b5b602002602001015103611d745780915050611daa565b80611d7e90612fc8565b9050611d41565b507fffffffffffffffffffffffffffffffffffffffffffffffffffffffffffffffff90505b92915050565b6040518060600160405280600015158152602001600015158152602001600081525090565b604051806060016040528060001515815260200160008152602001606081525090565b6040518060a00160405280600015158152602001600081526020016000815260200160608152602001600081525090565b6040518060c00160405280600015158152602001600081526020016060815260200160008152602001600081526020016000151581525090565b6000604051905090565b600080fd5b600080fd5b6000819050919050565b611e8a81611e77565b8114611e9557600080fd5b50565b600081359050611ea781611e81565b92915050565b600060208284031215611ec357611ec2611e6d565b5b6000611ed184828501611e98565b91505092915050565b60008115159050919050565b611eef81611eda565b82525050565b611efe81611e77565b82525050565b606082016000820151611f1a6000850182611ee6565b506020820151611f2d6020850182611ee6565b506040820151611f406040850182611ef5565b50505050565b6000606082019050611f5b6000830184611f04565b92915050565b60008060408385031215611f7857611f77611e6d565b5b6000611f8685828601611e98565b9250506020611f9785828601611e98565b9150509250929050565b600081519050919050565b600082825260208201905092915050565b6000819050602082019050919050565b600081519050919050565b600082825260208201905092915050565b60005b83811015612007578082015181840152602081019050611fec565b60008484015250505050565b6000601f19601f8301169050919050565b600061202f82611fcd565b6120398185611fd8565b9350612049818560208601611fe9565b61205281612013565b840191505092915050565b60006120698383612024565b905092915050565b6000602082019050919050565b600061208982611fa1565b6120938185611fac565b9350836020820285016120a585611fbd565b8060005b858110156120e157848403895281516120c2858261205d565b94506120cd83612071565b925060208a019950506001810190506120a9565b50829750879550505050505092915050565b600060608301600083015161210b6000860182611ee6565b50602083015161211e6020860182611ef5565b5060408301518482036040860152612136828261207e565b9150508091505092915050565b6000602082019050818103600083015261215d81846120f3565b905092915050565b600060a08301600083015161217d6000860182611ee6565b5060208301516121906020860182611ef5565b5060408301516121a36040860182611ef5565b50606083015184820360608601526121bb8282612024565b91505060808301516121d06080860182611ef5565b508091505092915050565b600060208201905081810360008301526121f58184612165565b905092915050565b600060c0830160008301516122156000860182611ee6565b5060208301516122286020860182611ef5565b50604083015184820360408601526122408282612024565b91505060608301516122556060860182611ef5565b5060808301516122686080860182611ef5565b5060a083015161227b60a0860182611ee6565b508091505092915050565b600060208201905081810360008301526122a081846121fd565b905092915050565b7f4e487b7100000000000000000000000000000000000000000000000000000000600052602160045260246000fd5b600073ffffffffffffffffffffffffffffffffffffffff82169050919050565b6000612302826122d7565b9050919050565b612312816122f7565b82525050565b600060208201905061232d6000830184612309565b92915050565b6003811061234057600080fd5b50565b60008151905061235281612333565b92915050565b60006020828403121561236e5761236d611e6d565b5b600061237c84828501612343565b91505092915050565b600082825260208201905092915050565b7f53656e646572206d75737420626520612073747564656e740000000000000000600082015250565b60006123cc601883612385565b91506123d782612396565b602082019050919050565b600060208201905081810360008301526123fb816123bf565b9050919050565b60008151905061241181611e81565b92915050565b60006020828403121561242d5761242c611e6d565b5b600061243b84828501612402565b91505092915050565b61244d81611e77565b82525050565b60006020820190506124686000830184612444565b92915050565b60006040820190506124836000830185612444565b6124906020830184612444565b9392505050565b600080fd5b7f4e487b7100000000000000000000000000000000000000000000000000000000600052604160045260246000fd5b6124d482612013565b810181811067ffffffffffffffff821117156124f3576124f261249c565b5b80604052505050565b6000612506611e63565b905061251282826124cb565b919050565b600080fd5b61252581611eda565b811461253057600080fd5b50565b6000815190506125428161251c565b92915050565b60006060828403121561255e5761255d612497565b5b61256860606124fc565b9050600061257884828501612533565b600083015250602061258c84828501612533565b60208301525060406125a084828501612402565b60408301525092915050565b6000606082840312156125c2576125c1611e6d565b5b60006125d084828501612548565b91505092915050565b7f53656e646572206d7573742062652061206c6563747572657200000000000000600082015250565b600061260f601983612385565b915061261a826125d9565b602082019050919050565b6000602082019050818103600083015261263e81612602565b9050919050565b600080fd5b600067ffffffffffffffff8211156126655761266461249c565b5b602082029050602081019050919050565b600080fd5b600080fd5b600067ffffffffffffffff82111561269b5761269a61249c565b5b6126a482612013565b9050602081019050919050565b60006126c46126bf84612680565b6124fc565b9050828152602081018484840111156126e0576126df61267b565b5b6126eb848285611fe9565b509392505050565b600082601f83011261270857612707612645565b5b81516127188482602086016126b1565b91505092915050565b600061273461272f8461264a565b6124fc565b9050808382526020820190506020840283018581111561275757612756612676565b5b835b8181101561279e57805167ffffffffffffffff81111561277c5761277b612645565b5b80860161278989826126f3565b85526020850194505050602081019050612759565b5050509392505050565b600082601f8301126127bd576127bc612645565b5b81516127cd848260208601612721565b91505092915050565b6000606082840312156127ec576127eb612497565b5b6127f660606124fc565b9050600061280684828501612533565b600083015250602061281a84828501612402565b602083015250604082015167ffffffffffffffff81111561283e5761283d612517565b5b61284a848285016127a8565b60408301525092915050565b60006020828403121561286c5761286b611e6d565b5b600082015167ffffffffffffffff81111561288a57612889611e72565b5b612896848285016127d6565b91505092915050565b600060a082840312156128b5576128b4612497565b5b6128bf60a06124fc565b905060006128cf84828501612533565b60008301525060206128e384828501612402565b60208301525060406128f784828501612402565b604083015250606082015167ffffffffffffffff81111561291b5761291a612517565b5b612927848285016126f3565b606083015250608061293b84828501612402565b60808301525092915050565b60006020828403121561295d5761295c611e6d565b5b600082015167ffffffffffffffff81111561297b5761297a611e72565b5b6129878482850161289f565b91505092915050565b600060c082840312156129a6576129a5612497565b5b6129b060c06124fc565b905060006129c084828501612533565b60008301525060206129d484828501612402565b602083015250604082015167ffffffffffffffff8111156129f8576129f7612517565b5b612a04848285016126f3565b6040830152506060612a1884828501612402565b6060830152506080612a2c84828501612402565b60808301525060a0612a4084828501612533565b60a08301525092915050565b600060208284031215612a6257612a61611e6d565b5b600082015167ffffffffffffffff811115612a8057612a7f611e72565b5b612a8c84828501612990565b91505092915050565b600060208284031215612aab57612aaa611e6d565b5b6000612ab984828501612533565b91505092915050565b7f53656e646572206d757374206265206120726567697374657265642075736572600082015250565b6000612af8602083612385565b9150612b0382612ac2565b602082019050919050565b60006020820190508181036000830152612b2781612aeb565b9050919050565b60068110612b3f57612b3e6122a8565b5b50565b6000819050612b5082612b2e565b919050565b6000612b6082612b42565b9050919050565b612b7081612b55565b82525050565b6000602082019050612b8b6000830184612b67565b92915050565b612b9a816122f7565b8114612ba557600080fd5b50565b600081519050612bb781612b91565b92915050565b600060208284031215612bd357612bd2611e6d565b5b6000612be184828501612ba8565b91505092915050565b7f53747564656e74206973206e6f74207265676973746572656420746f2074686560008201527f20636f7572736500000000000000000000000000000000000000000000000000602082015250565b6000612c46602783612385565b9150612c5182612bea565b604082019050919050565b60006020820190508181036000830152612c7581612c39565b9050919050565b60028110612c8957600080fd5b50565b600081519050612c9b81612c7c565b92915050565b600060208284031215612cb757612cb6611e6d565b5b6000612cc584828501612c8c565b91505092915050565b7f54686973206173736573736d656e7420776173206e6f7420616e206578616d00600082015250565b6000612d04601f83612385565b9150612d0f82612cce565b602082019050919050565b60006020820190508181036000830152612d3381612cf7565b9050919050565b600067ffffffffffffffff821115612d5557612d5461249c565b5b602082029050602081019050919050565b6000612d79612d7484612d3a565b6124fc565b90508083825260208201905060208402830185811115612d9c57612d9b612676565b5b835b81811015612dc55780612db18882612402565b845260208401935050602081019050612d9e565b5050509392505050565b600082601f830112612de457612de3612645565b5b8151612df4848260208601612d66565b91505092915050565b600060208284031215612e1357612e12611e6d565b5b600082015167ffffffffffffffff811115612e3157612e30611e72565b5b612e3d84828501612dcf565b91505092915050565b7f4c65637475726572206973206e6f74206c6563747572696e672061742074686960008201527f7320636f75727365000000000000000000000000000000000000000000000000602082015250565b6000612ea2602883612385565b9150612ead82612e46565b604082019050919050565b60006020820190508181036000830152612ed181612e95565b9050919050565b7f54686973206173736573736d656e7420776173206e6f742061207375626d697360008201527f73696f6e00000000000000000000000000000000000000000000000000000000602082015250565b6000612f34602483612385565b9150612f3f82612ed8565b604082019050919050565b60006020820190508181036000830152612f6381612f27565b9050919050565b7f4e487b7100000000000000000000000000000000000000000000000000000000600052603260045260246000fd5b7f4e487b7100000000000000000000000000000000000000000000000000000000600052601160045260246000fd5b6000612fd382611e77565b91507fffffffffffffffffffffffffffffffffffffffffffffffffffffffffffffffff820361300557613004612f99565b5b60018201905091905056fea26469706673582212205439c0e669bbe7fdee18c38112e41eb6948582c56c4f038af4a3a12386565b0964736f6c63430008110033",
  "linkReferences": {},
  "deployedLinkReferences": {}
}