{
  "_format": "hh-sol-artifact-1",
  "contractName": "PerformanceView",
  "sourceName": "contracts/view/PerformanceView.sol",
  "abi": [
    {
      "inputs": [
        {
          "internalType": "address",
          "name": "addressBookAddress",
          "type": "address"
        }
      ],
      "stateMutability": "nonpayable",
      "type": "constructor"
    },
    {
      "inputs": [
        {
          "internalType": "uint256",
          "name": "assessmentId",
          "type": "uint256"
        }
      ],
      "name": "getEvaluation",
      "outputs": [
        {
          "components": [
            {
              "internalType": "bool",
              "name": "isSet",
              "type": "bool"
            },
            {
              "internalType": "uint256",
              "name": "datetime",
              "type": "uint256"
            },
            {
              "internalType": "uint256",
              "name": "achievedPoints",
              "type": "uint256"
            },
            {
              "internalType": "string",
              "name": "feedback",
              "type": "string"
            },
            {
              "internalType": "uint256",
              "name": "lecturerUId",
              "type": "uint256"
            }
          ],
          "internalType": "struct PerformanceDataTypes.Evaluation",
          "name": "",
          "type": "tuple"
        },
        {
          "internalType": "string",
          "name": "",
          "type": "string"
        },
        {
          "internalType": "string",
          "name": "",
          "type": "string"
        }
      ],
      "stateMutability": "view",
      "type": "function"
    },
    {
      "inputs": [
        {
          "internalType": "uint256",
          "name": "assessmentId",
          "type": "uint256"
        },
        {
          "internalType": "uint256",
          "name": "studentUId",
          "type": "uint256"
        }
      ],
      "name": "getEvaluationOfStudent",
      "outputs": [
        {
          "components": [
            {
              "internalType": "bool",
              "name": "isSet",
              "type": "bool"
            },
            {
              "internalType": "uint256",
              "name": "datetime",
              "type": "uint256"
            },
            {
              "internalType": "uint256",
              "name": "achievedPoints",
              "type": "uint256"
            },
            {
              "internalType": "string",
              "name": "feedback",
              "type": "string"
            },
            {
              "internalType": "uint256",
              "name": "lecturerUId",
              "type": "uint256"
            }
          ],
          "internalType": "struct PerformanceDataTypes.Evaluation",
          "name": "",
          "type": "tuple"
        },
        {
          "internalType": "string",
          "name": "",
          "type": "string"
        },
        {
          "internalType": "string",
          "name": "",
          "type": "string"
        }
      ],
      "stateMutability": "view",
      "type": "function"
    },
    {
      "inputs": [
        {
          "internalType": "uint256",
          "name": "assessmentId",
          "type": "uint256"
        }
      ],
      "name": "getExamAttendance",
      "outputs": [
        {
          "components": [
            {
              "internalType": "bool",
              "name": "isSet",
              "type": "bool"
            },
            {
              "internalType": "bool",
              "name": "hasAttended",
              "type": "bool"
            },
            {
              "internalType": "uint256",
              "name": "confirmationDateTime",
              "type": "uint256"
            }
          ],
          "internalType": "struct PerformanceDataTypes.ExamAttendance",
          "name": "",
          "type": "tuple"
        }
      ],
      "stateMutability": "view",
      "type": "function"
    },
    {
      "inputs": [
        {
          "internalType": "uint256",
          "name": "assessmentId",
          "type": "uint256"
        },
        {
          "internalType": "uint256",
          "name": "studentUId",
          "type": "uint256"
        }
      ],
      "name": "getExamAttendanceOfStudent",
      "outputs": [
        {
          "components": [
            {
              "internalType": "bool",
              "name": "isSet",
              "type": "bool"
            },
            {
              "internalType": "bool",
              "name": "hasAttended",
              "type": "bool"
            },
            {
              "internalType": "uint256",
              "name": "confirmationDateTime",
              "type": "uint256"
            }
          ],
          "internalType": "struct PerformanceDataTypes.ExamAttendance",
          "name": "",
          "type": "tuple"
        }
      ],
      "stateMutability": "view",
      "type": "function"
    },
    {
      "inputs": [
        {
          "internalType": "uint256",
          "name": "courseId",
          "type": "uint256"
        }
      ],
      "name": "getGrade",
      "outputs": [
        {
          "components": [
            {
              "internalType": "bool",
              "name": "isSet",
              "type": "bool"
            },
            {
              "internalType": "uint256",
              "name": "value",
              "type": "uint256"
            },
            {
              "internalType": "string",
              "name": "feedback",
              "type": "string"
            },
            {
              "internalType": "uint256",
              "name": "datetime",
              "type": "uint256"
            },
            {
              "internalType": "uint256",
              "name": "lecturerUId",
              "type": "uint256"
            },
            {
              "internalType": "bool",
              "name": "isFinal",
              "type": "bool"
            }
          ],
          "internalType": "struct PerformanceDataTypes.Grade",
          "name": "",
          "type": "tuple"
        },
        {
          "internalType": "string",
          "name": "",
          "type": "string"
        },
        {
          "internalType": "string",
          "name": "",
          "type": "string"
        }
      ],
      "stateMutability": "view",
      "type": "function"
    },
    {
      "inputs": [
        {
          "internalType": "uint256",
          "name": "courseId",
          "type": "uint256"
        },
        {
          "internalType": "uint256",
          "name": "studentUId",
          "type": "uint256"
        }
      ],
      "name": "getGradeOfStudent",
      "outputs": [
        {
          "components": [
            {
              "internalType": "bool",
              "name": "isSet",
              "type": "bool"
            },
            {
              "internalType": "uint256",
              "name": "value",
              "type": "uint256"
            },
            {
              "internalType": "string",
              "name": "feedback",
              "type": "string"
            },
            {
              "internalType": "uint256",
              "name": "datetime",
              "type": "uint256"
            },
            {
              "internalType": "uint256",
              "name": "lecturerUId",
              "type": "uint256"
            },
            {
              "internalType": "bool",
              "name": "isFinal",
              "type": "bool"
            }
          ],
          "internalType": "struct PerformanceDataTypes.Grade",
          "name": "",
          "type": "tuple"
        },
        {
          "internalType": "string",
          "name": "",
          "type": "string"
        },
        {
          "internalType": "string",
          "name": "",
          "type": "string"
        }
      ],
      "stateMutability": "view",
      "type": "function"
    },
    {
      "inputs": [
        {
          "internalType": "uint256",
          "name": "assessmentId",
          "type": "uint256"
        }
      ],
      "name": "getSubmission",
      "outputs": [
        {
          "components": [
            {
              "internalType": "bool",
              "name": "isSet",
              "type": "bool"
            },
            {
              "internalType": "uint256",
              "name": "submissionDatetime",
              "type": "uint256"
            },
            {
              "internalType": "string[]",
              "name": "documentHashes",
              "type": "string[]"
            }
          ],
          "internalType": "struct PerformanceDataTypes.Submission",
          "name": "",
          "type": "tuple"
        }
      ],
      "stateMutability": "view",
      "type": "function"
    },
    {
      "inputs": [
        {
          "internalType": "uint256",
          "name": "assessmentId",
          "type": "uint256"
        },
        {
          "internalType": "uint256",
          "name": "studentUId",
          "type": "uint256"
        }
      ],
      "name": "getSubmissionOfStudent",
      "outputs": [
        {
          "components": [
            {
              "internalType": "bool",
              "name": "isSet",
              "type": "bool"
            },
            {
              "internalType": "uint256",
              "name": "submissionDatetime",
              "type": "uint256"
            },
            {
              "internalType": "string[]",
              "name": "documentHashes",
              "type": "string[]"
            }
          ],
          "internalType": "struct PerformanceDataTypes.Submission",
          "name": "",
          "type": "tuple"
        }
      ],
      "stateMutability": "view",
      "type": "function"
    }
  ],
  "bytecode": "0x60806040523480156200001157600080fd5b5060405162003429380380620034298339818101604052810190620000379190620000ec565b8080806000806101000a81548173ffffffffffffffffffffffffffffffffffffffff021916908373ffffffffffffffffffffffffffffffffffffffff1602179055505050506200011e565b600080fd5b600073ffffffffffffffffffffffffffffffffffffffff82169050919050565b6000620000b48262000087565b9050919050565b620000c681620000a7565b8114620000d257600080fd5b50565b600081519050620000e681620000bb565b92915050565b60006020828403121562000105576200010462000082565b5b60006200011584828501620000d5565b91505092915050565b6132fb806200012e6000396000f3fe608060405234801561001057600080fd5b50600436106100885760003560e01c8063c23d4c851161005b578063c23d4c851461014f578063c964edc314610181578063e1e0485e146101b3578063f5777b43146101e557610088565b80632b5597581461008d5780633065aa42146100bd5780633e8686cc146100ed57806353eeac431461011d575b600080fd5b6100a760048036038101906100a2919061205d565b610215565b6040516100b491906120f6565b60405180910390f35b6100d760048036038101906100d29190612111565b6104bd565b6040516100e491906122f3565b60405180910390f35b6101076004803603810190610102919061205d565b61076b565b60405161011491906122f3565b60405180910390f35b61013760048036038101906101329190612111565b610a18565b604051610146939291906123d5565b60405180910390f35b6101696004803603810190610164919061205d565b610c59565b604051610178939291906123d5565b60405180910390f35b61019b60048036038101906101969190612111565b610e88565b6040516101aa939291906124aa565b60405180910390f35b6101cd60048036038101906101c8919061205d565b611043565b6040516101dc939291906124aa565b60405180910390f35b6101ff60048036038101906101fa9190612111565b6111ec565b60405161020c91906120f6565b60405180910390f35b61021d611f60565b6102256114a7565b60006002811115610239576102386124f6565b5b610241611569565b73ffffffffffffffffffffffffffffffffffffffff1663dd8b2914336040518263ffffffff1660e01b81526004016102799190612566565b602060405180830381865afa158015610296573d6000803e3d6000fd5b505050506040513d601f19601f820116820180604052508101906102ba91906125a6565b60028111156102cc576102cb6124f6565b5b1461030c576040517f08c379a00000000000000000000000000000000000000000000000000000000081526004016103039061261f565b60405180910390fd5b6000610316611569565b73ffffffffffffffffffffffffffffffffffffffff1663e3d7e14c336040518263ffffffff1660e01b815260040161034e9190612566565b602060405180830381865afa15801561036b573d6000803e3d6000fd5b505050506040513d601f19601f8201168201806040525081019061038f9190612654565b9050600061039b61160c565b73ffffffffffffffffffffffffffffffffffffffff1663a31cf91f856040518263ffffffff1660e01b81526004016103d39190612690565b602060405180830381865afa1580156103f0573d6000803e3d6000fd5b505050506040513d601f19601f820116820180604052508101906104149190612654565b905061042882826104236116af565b611752565b61043184611812565b6104396118fc565b73ffffffffffffffffffffffffffffffffffffffff1663fdd3f03683866040518363ffffffff1660e01b81526004016104739291906126ab565b606060405180830381865afa158015610490573d6000803e3d6000fd5b505050506040513d601f19601f820116820180604052508101906104b491906127e9565b92505050919050565b6104c5611f85565b6104cd6114a7565b600160028111156104e1576104e06124f6565b5b6104e9611569565b73ffffffffffffffffffffffffffffffffffffffff1663dd8b2914336040518263ffffffff1660e01b81526004016105219190612566565b602060405180830381865afa15801561053e573d6000803e3d6000fd5b505050506040513d601f19601f8201168201806040525081019061056291906125a6565b6002811115610574576105736124f6565b5b146105b4576040517f08c379a00000000000000000000000000000000000000000000000000000000081526004016105ab90612862565b60405180910390fd5b60006105be61160c565b73ffffffffffffffffffffffffffffffffffffffff1663a31cf91f856040518263ffffffff1660e01b81526004016105f69190612690565b602060405180830381865afa158015610613573d6000803e3d6000fd5b505050506040513d601f19601f820116820180604052508101906106379190612654565b90506000610643611569565b73ffffffffffffffffffffffffffffffffffffffff1663e3d7e14c336040518263ffffffff1660e01b815260040161067b9190612566565b602060405180830381865afa158015610698573d6000803e3d6000fd5b505050506040513d601f19601f820116820180604052508101906106bc9190612654565b90506106d081836106cb6116af565b61199f565b6106d985611a6b565b6106e16118fc565b73ffffffffffffffffffffffffffffffffffffffff1663b7ed707185876040518363ffffffff1660e01b815260040161071b9291906126ab565b600060405180830381865afa158015610738573d6000803e3d6000fd5b505050506040513d6000823e3d601f19601f820116820180604052508101906107619190612a93565b9250505092915050565b610773611f85565b61077b6114a7565b6000600281111561078f5761078e6124f6565b5b610797611569565b73ffffffffffffffffffffffffffffffffffffffff1663dd8b2914336040518263ffffffff1660e01b81526004016107cf9190612566565b602060405180830381865afa1580156107ec573d6000803e3d6000fd5b505050506040513d601f19601f8201168201806040525081019061081091906125a6565b6002811115610822576108216124f6565b5b14610862576040517f08c379a00000000000000000000000000000000000000000000000000000000081526004016108599061261f565b60405180910390fd5b600061086c611569565b73ffffffffffffffffffffffffffffffffffffffff1663e3d7e14c336040518263ffffffff1660e01b81526004016108a49190612566565b602060405180830381865afa1580156108c1573d6000803e3d6000fd5b505050506040513d601f19601f820116820180604052508101906108e59190612654565b905060006108f161160c565b73ffffffffffffffffffffffffffffffffffffffff1663a31cf91f856040518263ffffffff1660e01b81526004016109299190612690565b602060405180830381865afa158015610946573d6000803e3d6000fd5b505050506040513d601f19601f8201168201806040525081019061096a9190612654565b905061097e82826109796116af565b611752565b61098784611a6b565b61098f6118fc565b73ffffffffffffffffffffffffffffffffffffffff1663b7ed707183866040518363ffffffff1660e01b81526004016109c99291906126ab565b600060405180830381865afa1580156109e6573d6000803e3d6000fd5b505050506040513d6000823e3d601f19601f82011682018060405250810190610a0f9190612a93565b92505050919050565b610a20611fa8565b606080610a2b6114a7565b60016002811115610a3f57610a3e6124f6565b5b610a47611569565b73ffffffffffffffffffffffffffffffffffffffff1663dd8b2914336040518263ffffffff1660e01b8152600401610a7f9190612566565b602060405180830381865afa158015610a9c573d6000803e3d6000fd5b505050506040513d601f19601f82011682018060405250810190610ac091906125a6565b6002811115610ad257610ad16124f6565b5b14610b12576040517f08c379a0000000000000000000000000000000000000000000000000000000008152600401610b0990612862565b60405180910390fd5b6000610b1c611569565b73ffffffffffffffffffffffffffffffffffffffff1663e3d7e14c336040518263ffffffff1660e01b8152600401610b549190612566565b602060405180830381865afa158015610b71573d6000803e3d6000fd5b505050506040513d601f19601f82011682018060405250810190610b959190612654565b90506000610ba161160c565b73ffffffffffffffffffffffffffffffffffffffff1663a31cf91f886040518263ffffffff1660e01b8152600401610bd99190612690565b602060405180830381865afa158015610bf6573d6000803e3d6000fd5b505050506040513d601f19601f82011682018060405250810190610c1a9190612654565b9050610c2e8282610c296116af565b61199f565b610c408682610c3b6116af565b611752565b610c4a8188611b54565b94509450945050509250925092565b610c61611fa8565b606080610c6c6114a7565b60006002811115610c8057610c7f6124f6565b5b610c88611569565b73ffffffffffffffffffffffffffffffffffffffff1663dd8b2914336040518263ffffffff1660e01b8152600401610cc09190612566565b602060405180830381865afa158015610cdd573d6000803e3d6000fd5b505050506040513d601f19601f82011682018060405250810190610d0191906125a6565b6002811115610d1357610d126124f6565b5b14610d53576040517f08c379a0000000000000000000000000000000000000000000000000000000008152600401610d4a9061261f565b60405180910390fd5b6000610d5d611569565b73ffffffffffffffffffffffffffffffffffffffff1663e3d7e14c336040518263ffffffff1660e01b8152600401610d959190612566565b602060405180830381865afa158015610db2573d6000803e3d6000fd5b505050506040513d601f19601f82011682018060405250810190610dd69190612654565b90506000610de261160c565b73ffffffffffffffffffffffffffffffffffffffff1663a31cf91f876040518263ffffffff1660e01b8152600401610e1a9190612690565b602060405180830381865afa158015610e37573d6000803e3d6000fd5b505050506040513d601f19601f82011682018060405250810190610e5b9190612654565b9050610e6f8282610e6a6116af565b611752565b610e798187611b54565b94509450945050509193909250565b610e90611fd9565b606080610e9b6114a7565b60016002811115610eaf57610eae6124f6565b5b610eb7611569565b73ffffffffffffffffffffffffffffffffffffffff1663dd8b2914336040518263ffffffff1660e01b8152600401610eef9190612566565b602060405180830381865afa158015610f0c573d6000803e3d6000fd5b505050506040513d601f19601f82011682018060405250810190610f3091906125a6565b6002811115610f4257610f416124f6565b5b14610f82576040517f08c379a0000000000000000000000000000000000000000000000000000000008152600401610f7990612862565b60405180910390fd5b6000610f8c611569565b73ffffffffffffffffffffffffffffffffffffffff1663e3d7e14c336040518263ffffffff1660e01b8152600401610fc49190612566565b602060405180830381865afa158015610fe1573d6000803e3d6000fd5b505050506040513d601f19601f820116820180604052508101906110059190612654565b905061101981876110146116af565b61199f565b61102b85876110266116af565b611752565b6110358686611d13565b935093509350509250925092565b61104b611fd9565b6060806110566114a7565b6000600281111561106a576110696124f6565b5b611072611569565b73ffffffffffffffffffffffffffffffffffffffff1663dd8b2914336040518263ffffffff1660e01b81526004016110aa9190612566565b602060405180830381865afa1580156110c7573d6000803e3d6000fd5b505050506040513d601f19601f820116820180604052508101906110eb91906125a6565b60028111156110fd576110fc6124f6565b5b1461113d576040517f08c379a00000000000000000000000000000000000000000000000000000000081526004016111349061261f565b60405180910390fd5b6000611147611569565b73ffffffffffffffffffffffffffffffffffffffff1663e3d7e14c336040518263ffffffff1660e01b815260040161117f9190612566565b602060405180830381865afa15801561119c573d6000803e3d6000fd5b505050506040513d601f19601f820116820180604052508101906111c09190612654565b90506111d481866111cf6116af565b611752565b6111de8582611d13565b935093509350509193909250565b6111f4611f60565b6111fc6114a7565b600160028111156112105761120f6124f6565b5b611218611569565b73ffffffffffffffffffffffffffffffffffffffff1663dd8b2914336040518263ffffffff1660e01b81526004016112509190612566565b602060405180830381865afa15801561126d573d6000803e3d6000fd5b505050506040513d601f19601f8201168201806040525081019061129191906125a6565b60028111156112a3576112a26124f6565b5b146112e3576040517f08c379a00000000000000000000000000000000000000000000000000000000081526004016112da90612862565b60405180910390fd5b60006112ed61160c565b73ffffffffffffffffffffffffffffffffffffffff1663a31cf91f856040518263ffffffff1660e01b81526004016113259190612690565b602060405180830381865afa158015611342573d6000803e3d6000fd5b505050506040513d601f19601f820116820180604052508101906113669190612654565b90506000611372611569565b73ffffffffffffffffffffffffffffffffffffffff1663e3d7e14c336040518263ffffffff1660e01b81526004016113aa9190612566565b602060405180830381865afa1580156113c7573d6000803e3d6000fd5b505050506040513d601f19601f820116820180604052508101906113eb9190612654565b90506113ff81836113fa6116af565b61199f565b611411848361140c6116af565b611752565b61141a85611812565b6114226118fc565b73ffffffffffffffffffffffffffffffffffffffff1663fdd3f03685876040518363ffffffff1660e01b815260040161145c9291906126ab565b606060405180830381865afa158015611479573d6000803e3d6000fd5b505050506040513d601f19601f8201168201806040525081019061149d91906127e9565b9250505092915050565b6114af611569565b73ffffffffffffffffffffffffffffffffffffffff166338b6a3a1336040518263ffffffff1660e01b81526004016114e79190612566565b602060405180830381865afa158015611504573d6000803e3d6000fd5b505050506040513d601f19601f820116820180604052508101906115289190612adc565b611567576040517f08c379a000000000000000000000000000000000000000000000000000000000815260040161155e90612b55565b60405180910390fd5b565b60008060009054906101000a900473ffffffffffffffffffffffffffffffffffffffff1673ffffffffffffffffffffffffffffffffffffffff1663bcaa0c5560026040518263ffffffff1660e01b81526004016115c69190612bbd565b602060405180830381865afa1580156115e3573d6000803e3d6000fd5b505050506040513d601f19601f820116820180604052508101906116079190612c04565b905090565b60008060009054906101000a900473ffffffffffffffffffffffffffffffffffffffff1673ffffffffffffffffffffffffffffffffffffffff1663bcaa0c5560016040518263ffffffff1660e01b81526004016116699190612bbd565b602060405180830381865afa158015611686573d6000803e3d6000fd5b505050506040513d601f19601f820116820180604052508101906116aa9190612c04565b905090565b60008060009054906101000a900473ffffffffffffffffffffffffffffffffffffffff1673ffffffffffffffffffffffffffffffffffffffff1663bcaa0c5560006040518263ffffffff1660e01b815260040161170c9190612bbd565b602060405180830381865afa158015611729573d6000803e3d6000fd5b505050506040513d601f19601f8201168201806040525081019061174d9190612c04565b905090565b8073ffffffffffffffffffffffffffffffffffffffff16633932708b84846040518363ffffffff1660e01b815260040161178d9291906126ab565b602060405180830381865afa1580156117aa573d6000803e3d6000fd5b505050506040513d601f19601f820116820180604052508101906117ce9190612adc565b61180d576040517f08c379a000000000000000000000000000000000000000000000000000000000815260040161180490612ca3565b60405180910390fd5b505050565b60006001811115611826576118256124f6565b5b61182e61160c565b73ffffffffffffffffffffffffffffffffffffffff1663e9eb5356836040518263ffffffff1660e01b81526004016118669190612690565b602060405180830381865afa158015611883573d6000803e3d6000fd5b505050506040513d601f19601f820116820180604052508101906118a79190612ce8565b60018111156118b9576118b86124f6565b5b146118f9576040517f08c379a00000000000000000000000000000000000000000000000000000000081526004016118f090612d61565b60405180910390fd5b50565b60008060009054906101000a900473ffffffffffffffffffffffffffffffffffffffff1673ffffffffffffffffffffffffffffffffffffffff1663bcaa0c5560036040518263ffffffff1660e01b81526004016119599190612bbd565b602060405180830381865afa158015611976573d6000803e3d6000fd5b505050506040513d601f19601f8201168201806040525081019061199a9190612c04565b905090565b611a27838273ffffffffffffffffffffffffffffffffffffffff1663bd9c1b50856040518263ffffffff1660e01b81526004016119dc9190612690565b600060405180830381865afa1580156119f9573d6000803e3d6000fd5b505050506040513d6000823e3d601f19601f82011682018060405250810190611a229190612e44565b611ed2565b611a66576040517f08c379a0000000000000000000000000000000000000000000000000000000008152600401611a5d90612eff565b60405180910390fd5b505050565b600180811115611a7e57611a7d6124f6565b5b611a8661160c565b73ffffffffffffffffffffffffffffffffffffffff1663e9eb5356836040518263ffffffff1660e01b8152600401611abe9190612690565b602060405180830381865afa158015611adb573d6000803e3d6000fd5b505050506040513d601f19601f82011682018060405250810190611aff9190612ce8565b6001811115611b1157611b106124f6565b5b14611b51576040517f08c379a0000000000000000000000000000000000000000000000000000000008152600401611b4890612f91565b60405180910390fd5b50565b611b5c611fa8565b6060806000611b696118fc565b73ffffffffffffffffffffffffffffffffffffffff16635e4a739286886040518363ffffffff1660e01b8152600401611ba39291906126ab565b600060405180830381865afa158015611bc0573d6000803e3d6000fd5b505050506040513d6000823e3d601f19601f82011682018060405250810190611be99190613059565b90506000611bf56118fc565b73ffffffffffffffffffffffffffffffffffffffff1663829e90d587896040518363ffffffff1660e01b8152600401611c2f9291906126ab565b602060405180830381865afa158015611c4c573d6000803e3d6000fd5b505050506040513d601f19601f82011682018060405250810190611c709190612654565b9050600080611c7d611569565b73ffffffffffffffffffffffffffffffffffffffff1663988da80f846040518263ffffffff1660e01b8152600401611cb59190612690565b600060405180830381865afa158015611cd2573d6000803e3d6000fd5b505050506040513d6000823e3d601f19601f82011682018060405250810190611cfb91906130a2565b91509150838282965096509650505050509250925092565b611d1b611fd9565b6060806000611d286118fc565b73ffffffffffffffffffffffffffffffffffffffff1663374a62a086886040518363ffffffff1660e01b8152600401611d629291906126ab565b600060405180830381865afa158015611d7f573d6000803e3d6000fd5b505050506040513d6000823e3d601f19601f82011682018060405250810190611da891906131d6565b90506000611db46118fc565b73ffffffffffffffffffffffffffffffffffffffff1663d2ceb78887896040518363ffffffff1660e01b8152600401611dee9291906126ab565b602060405180830381865afa158015611e0b573d6000803e3d6000fd5b505050506040513d601f19601f82011682018060405250810190611e2f9190612654565b9050600080611e3c611569565b73ffffffffffffffffffffffffffffffffffffffff1663988da80f846040518263ffffffff1660e01b8152600401611e749190612690565b600060405180830381865afa158015611e91573d6000803e3d6000fd5b505050506040513d6000823e3d601f19601f82011682018060405250810190611eba91906130a2565b91509150838282965096509650505050509250925092565b600080611edf8484611ee9565b1215905092915050565b600080600090505b8251811015611f355783838281518110611f0e57611f0d61321f565b5b602002602001015103611f245780915050611f5a565b80611f2e9061327d565b9050611ef1565b507fffffffffffffffffffffffffffffffffffffffffffffffffffffffffffffffff90505b92915050565b6040518060600160405280600015158152602001600015158152602001600081525090565b604051806060016040528060001515815260200160008152602001606081525090565b6040518060a00160405280600015158152602001600081526020016000815260200160608152602001600081525090565b6040518060c00160405280600015158152602001600081526020016060815260200160008152602001600081526020016000151581525090565b6000604051905090565b600080fd5b600080fd5b6000819050919050565b61203a81612027565b811461204557600080fd5b50565b60008135905061205781612031565b92915050565b6000602082840312156120735761207261201d565b5b600061208184828501612048565b91505092915050565b60008115159050919050565b61209f8161208a565b82525050565b6120ae81612027565b82525050565b6060820160008201516120ca6000850182612096565b5060208201516120dd6020850182612096565b5060408201516120f060408501826120a5565b50505050565b600060608201905061210b60008301846120b4565b92915050565b600080604083850312156121285761212761201d565b5b600061213685828601612048565b925050602061214785828601612048565b9150509250929050565b600081519050919050565b600082825260208201905092915050565b6000819050602082019050919050565b600081519050919050565b600082825260208201905092915050565b60005b838110156121b757808201518184015260208101905061219c565b60008484015250505050565b6000601f19601f8301169050919050565b60006121df8261217d565b6121e98185612188565b93506121f9818560208601612199565b612202816121c3565b840191505092915050565b600061221983836121d4565b905092915050565b6000602082019050919050565b600061223982612151565b612243818561215c565b9350836020820285016122558561216d565b8060005b858110156122915784840389528151612272858261220d565b945061227d83612221565b925060208a01995050600181019050612259565b50829750879550505050505092915050565b60006060830160008301516122bb6000860182612096565b5060208301516122ce60208601826120a5565b50604083015184820360408601526122e6828261222e565b9150508091505092915050565b6000602082019050818103600083015261230d81846122a3565b905092915050565b600060a08301600083015161232d6000860182612096565b50602083015161234060208601826120a5565b50604083015161235360408601826120a5565b506060830151848203606086015261236b82826121d4565b915050608083015161238060808601826120a5565b508091505092915050565b600082825260208201905092915050565b60006123a78261217d565b6123b1818561238b565b93506123c1818560208601612199565b6123ca816121c3565b840191505092915050565b600060608201905081810360008301526123ef8186612315565b90508181036020830152612403818561239c565b90508181036040830152612417818461239c565b9050949350505050565b600060c0830160008301516124396000860182612096565b50602083015161244c60208601826120a5565b506040830151848203604086015261246482826121d4565b915050606083015161247960608601826120a5565b50608083015161248c60808601826120a5565b5060a083015161249f60a0860182612096565b508091505092915050565b600060608201905081810360008301526124c48186612421565b905081810360208301526124d8818561239c565b905081810360408301526124ec818461239c565b9050949350505050565b7f4e487b7100000000000000000000000000000000000000000000000000000000600052602160045260246000fd5b600073ffffffffffffffffffffffffffffffffffffffff82169050919050565b600061255082612525565b9050919050565b61256081612545565b82525050565b600060208201905061257b6000830184612557565b92915050565b6003811061258e57600080fd5b50565b6000815190506125a081612581565b92915050565b6000602082840312156125bc576125bb61201d565b5b60006125ca84828501612591565b91505092915050565b7f53656e646572206d75737420626520612073747564656e740000000000000000600082015250565b600061260960188361238b565b9150612614826125d3565b602082019050919050565b60006020820190508181036000830152612638816125fc565b9050919050565b60008151905061264e81612031565b92915050565b60006020828403121561266a5761266961201d565b5b60006126788482850161263f565b91505092915050565b61268a81612027565b82525050565b60006020820190506126a56000830184612681565b92915050565b60006040820190506126c06000830185612681565b6126cd6020830184612681565b9392505050565b600080fd5b7f4e487b7100000000000000000000000000000000000000000000000000000000600052604160045260246000fd5b612711826121c3565b810181811067ffffffffffffffff821117156127305761272f6126d9565b5b80604052505050565b6000612743612013565b905061274f8282612708565b919050565b600080fd5b6127628161208a565b811461276d57600080fd5b50565b60008151905061277f81612759565b92915050565b60006060828403121561279b5761279a6126d4565b5b6127a56060612739565b905060006127b584828501612770565b60008301525060206127c984828501612770565b60208301525060406127dd8482850161263f565b60408301525092915050565b6000606082840312156127ff576127fe61201d565b5b600061280d84828501612785565b91505092915050565b7f53656e646572206d7573742062652061206c6563747572657200000000000000600082015250565b600061284c60198361238b565b915061285782612816565b602082019050919050565b6000602082019050818103600083015261287b8161283f565b9050919050565b600080fd5b600067ffffffffffffffff8211156128a2576128a16126d9565b5b602082029050602081019050919050565b600080fd5b600080fd5b600067ffffffffffffffff8211156128d8576128d76126d9565b5b6128e1826121c3565b9050602081019050919050565b60006129016128fc846128bd565b612739565b90508281526020810184848401111561291d5761291c6128b8565b5b612928848285612199565b509392505050565b600082601f83011261294557612944612882565b5b81516129558482602086016128ee565b91505092915050565b600061297161296c84612887565b612739565b90508083825260208201905060208402830185811115612994576129936128b3565b5b835b818110156129db57805167ffffffffffffffff8111156129b9576129b8612882565b5b8086016129c68982612930565b85526020850194505050602081019050612996565b5050509392505050565b600082601f8301126129fa576129f9612882565b5b8151612a0a84826020860161295e565b91505092915050565b600060608284031215612a2957612a286126d4565b5b612a336060612739565b90506000612a4384828501612770565b6000830152506020612a578482850161263f565b602083015250604082015167ffffffffffffffff811115612a7b57612a7a612754565b5b612a87848285016129e5565b60408301525092915050565b600060208284031215612aa957612aa861201d565b5b600082015167ffffffffffffffff811115612ac757612ac6612022565b5b612ad384828501612a13565b91505092915050565b600060208284031215612af257612af161201d565b5b6000612b0084828501612770565b91505092915050565b7f53656e646572206d757374206265206120726567697374657265642075736572600082015250565b6000612b3f60208361238b565b9150612b4a82612b09565b602082019050919050565b60006020820190508181036000830152612b6e81612b32565b9050919050565b60068110612b8657612b856124f6565b5b50565b6000819050612b9782612b75565b919050565b6000612ba782612b89565b9050919050565b612bb781612b9c565b82525050565b6000602082019050612bd26000830184612bae565b92915050565b612be181612545565b8114612bec57600080fd5b50565b600081519050612bfe81612bd8565b92915050565b600060208284031215612c1a57612c1961201d565b5b6000612c2884828501612bef565b91505092915050565b7f53747564656e74206973206e6f74207265676973746572656420746f2074686560008201527f20636f7572736500000000000000000000000000000000000000000000000000602082015250565b6000612c8d60278361238b565b9150612c9882612c31565b604082019050919050565b60006020820190508181036000830152612cbc81612c80565b9050919050565b60028110612cd057600080fd5b50565b600081519050612ce281612cc3565b92915050565b600060208284031215612cfe57612cfd61201d565b5b6000612d0c84828501612cd3565b91505092915050565b7f54686973206173736573736d656e7420776173206e6f7420616e206578616d00600082015250565b6000612d4b601f8361238b565b9150612d5682612d15565b602082019050919050565b60006020820190508181036000830152612d7a81612d3e565b9050919050565b600067ffffffffffffffff821115612d9c57612d9b6126d9565b5b602082029050602081019050919050565b6000612dc0612dbb84612d81565b612739565b90508083825260208201905060208402830185811115612de357612de26128b3565b5b835b81811015612e0c5780612df8888261263f565b845260208401935050602081019050612de5565b5050509392505050565b600082601f830112612e2b57612e2a612882565b5b8151612e3b848260208601612dad565b91505092915050565b600060208284031215612e5a57612e5961201d565b5b600082015167ffffffffffffffff811115612e7857612e77612022565b5b612e8484828501612e16565b91505092915050565b7f4c65637475726572206973206e6f74206c6563747572696e672061742074686960008201527f7320636f75727365000000000000000000000000000000000000000000000000602082015250565b6000612ee960288361238b565b9150612ef482612e8d565b604082019050919050565b60006020820190508181036000830152612f1881612edc565b9050919050565b7f54686973206173736573736d656e7420776173206e6f742061207375626d697360008201527f73696f6e00000000000000000000000000000000000000000000000000000000602082015250565b6000612f7b60248361238b565b9150612f8682612f1f565b604082019050919050565b60006020820190508181036000830152612faa81612f6e565b9050919050565b600060a08284031215612fc757612fc66126d4565b5b612fd160a0612739565b90506000612fe184828501612770565b6000830152506020612ff58482850161263f565b60208301525060406130098482850161263f565b604083015250606082015167ffffffffffffffff81111561302d5761302c612754565b5b61303984828501612930565b606083015250608061304d8482850161263f565b60808301525092915050565b60006020828403121561306f5761306e61201d565b5b600082015167ffffffffffffffff81111561308d5761308c612022565b5b61309984828501612fb1565b91505092915050565b600080604083850312156130b9576130b861201d565b5b600083015167ffffffffffffffff8111156130d7576130d6612022565b5b6130e385828601612930565b925050602083015167ffffffffffffffff81111561310457613103612022565b5b61311085828601612930565b9150509250929050565b600060c082840312156131305761312f6126d4565b5b61313a60c0612739565b9050600061314a84828501612770565b600083015250602061315e8482850161263f565b602083015250604082015167ffffffffffffffff81111561318257613181612754565b5b61318e84828501612930565b60408301525060606131a28482850161263f565b60608301525060806131b68482850161263f565b60808301525060a06131ca84828501612770565b60a08301525092915050565b6000602082840312156131ec576131eb61201d565b5b600082015167ffffffffffffffff81111561320a57613209612022565b5b6132168482850161311a565b91505092915050565b7f4e487b7100000000000000000000000000000000000000000000000000000000600052603260045260246000fd5b7f4e487b7100000000000000000000000000000000000000000000000000000000600052601160045260246000fd5b600061328882612027565b91507fffffffffffffffffffffffffffffffffffffffffffffffffffffffffffffffff82036132ba576132b961324e565b5b60018201905091905056fea264697066735822122058d6c6b250cf23ee2934a00f26dc4817fba51a8076b1a80a66942ba579599b2f64736f6c63430008110033",
  "linkReferences": {},
  "deployedLinkReferences": {}
}