{
  "_format": "hh-sol-artifact-1",
  "contractName": "CourseDataManager",
  "sourceName": "contracts/data/datamanager/CourseDataManager.sol",
  "abi": [
    {
      "inputs": [
        {
          "internalType": "address",
          "name": "courseDataStorageAddress",
          "type": "address"
        },
        {
          "internalType": "address",
          "name": "accessWhitelistAddress",
          "type": "address"
        }
      ],
      "stateMutability": "nonpayable",
      "type": "constructor"
    },
    {
      "inputs": [
        {
          "internalType": "uint256",
          "name": "courseId",
          "type": "uint256"
        },
        {
          "internalType": "uint256[]",
          "name": "lecturerUIds",
          "type": "uint256[]"
        }
      ],
      "name": "addLecturers",
      "outputs": [],
      "stateMutability": "nonpayable",
      "type": "function"
    },
    {
      "inputs": [
        {
          "internalType": "uint256",
          "name": "courseId",
          "type": "uint256"
        },
        {
          "internalType": "uint256",
          "name": "uId",
          "type": "uint256"
        }
      ],
      "name": "addParticipantToCourse",
      "outputs": [],
      "stateMutability": "nonpayable",
      "type": "function"
    },
    {
      "inputs": [
        {
          "internalType": "uint256",
          "name": "courseId",
          "type": "uint256"
        },
        {
          "internalType": "uint256[]",
          "name": "studyProgramIds",
          "type": "uint256[]"
        }
      ],
      "name": "addStudyPrograms",
      "outputs": [],
      "stateMutability": "nonpayable",
      "type": "function"
    },
    {
      "inputs": [
        {
          "components": [
            {
              "internalType": "string",
              "name": "title",
              "type": "string"
            },
            {
              "internalType": "string",
              "name": "code",
              "type": "string"
            },
            {
              "internalType": "enum CourseDataTypes.CourseType",
              "name": "courseType",
              "type": "uint8"
            },
            {
              "components": [
                {
                  "internalType": "uint256",
                  "name": "year",
                  "type": "uint256"
                },
                {
                  "internalType": "enum CourseDataTypes.SemesterSeason",
                  "name": "season",
                  "type": "uint8"
                }
              ],
              "internalType": "struct CourseDataTypes.Semester",
              "name": "semester",
              "type": "tuple"
            },
            {
              "internalType": "string",
              "name": "description",
              "type": "string"
            },
            {
              "internalType": "string",
              "name": "examTopics",
              "type": "string"
            },
            {
              "internalType": "string",
              "name": "language",
              "type": "string"
            },
            {
              "internalType": "uint256",
              "name": "ects",
              "type": "uint256"
            },
            {
              "internalType": "uint256",
              "name": "maxPlaces",
              "type": "uint256"
            },
            {
              "internalType": "uint256",
              "name": "registrationStart",
              "type": "uint256"
            },
            {
              "internalType": "uint256",
              "name": "registrationDeadline",
              "type": "uint256"
            },
            {
              "internalType": "uint256",
              "name": "deregistrationDeadline",
              "type": "uint256"
            },
            {
              "components": [
                {
                  "internalType": "uint256",
                  "name": "datetime",
                  "type": "uint256"
                },
                {
                  "internalType": "string",
                  "name": "place",
                  "type": "string"
                }
              ],
              "internalType": "struct CourseDataTypes.Class[]",
              "name": "classes",
              "type": "tuple[]"
            },
            {
              "components": [
                {
                  "internalType": "uint256",
                  "name": "grade",
                  "type": "uint256"
                },
                {
                  "internalType": "uint256",
                  "name": "minPercentage",
                  "type": "uint256"
                }
              ],
              "internalType": "struct CourseDataTypes.GradeLevel[]",
              "name": "gradeLevels",
              "type": "tuple[]"
            },
            {
              "internalType": "string[]",
              "name": "requirementCourseCodes",
              "type": "string[]"
            }
          ],
          "internalType": "struct CourseDataTypes.CourseContent",
          "name": "courseContent",
          "type": "tuple"
        }
      ],
      "name": "createCourse",
      "outputs": [
        {
          "internalType": "uint256",
          "name": "",
          "type": "uint256"
        }
      ],
      "stateMutability": "nonpayable",
      "type": "function"
    },
    {
      "inputs": [],
      "name": "getAllCourseCodes",
      "outputs": [
        {
          "internalType": "string[]",
          "name": "",
          "type": "string[]"
        }
      ],
      "stateMutability": "view",
      "type": "function"
    },
    {
      "inputs": [],
      "name": "getAllCourses",
      "outputs": [
        {
          "components": [
            {
              "internalType": "uint256",
              "name": "courseId",
              "type": "uint256"
            },
            {
              "components": [
                {
                  "internalType": "string",
                  "name": "title",
                  "type": "string"
                },
                {
                  "internalType": "string",
                  "name": "code",
                  "type": "string"
                },
                {
                  "internalType": "enum CourseDataTypes.CourseType",
                  "name": "courseType",
                  "type": "uint8"
                },
                {
                  "components": [
                    {
                      "internalType": "uint256",
                      "name": "year",
                      "type": "uint256"
                    },
                    {
                      "internalType": "enum CourseDataTypes.SemesterSeason",
                      "name": "season",
                      "type": "uint8"
                    }
                  ],
                  "internalType": "struct CourseDataTypes.Semester",
                  "name": "semester",
                  "type": "tuple"
                },
                {
                  "internalType": "string",
                  "name": "description",
                  "type": "string"
                },
                {
                  "internalType": "string",
                  "name": "examTopics",
                  "type": "string"
                },
                {
                  "internalType": "string",
                  "name": "language",
                  "type": "string"
                },
                {
                  "internalType": "uint256",
                  "name": "ects",
                  "type": "uint256"
                },
                {
                  "internalType": "uint256",
                  "name": "maxPlaces",
                  "type": "uint256"
                },
                {
                  "internalType": "uint256",
                  "name": "registrationStart",
                  "type": "uint256"
                },
                {
                  "internalType": "uint256",
                  "name": "registrationDeadline",
                  "type": "uint256"
                },
                {
                  "internalType": "uint256",
                  "name": "deregistrationDeadline",
                  "type": "uint256"
                },
                {
                  "components": [
                    {
                      "internalType": "uint256",
                      "name": "datetime",
                      "type": "uint256"
                    },
                    {
                      "internalType": "string",
                      "name": "place",
                      "type": "string"
                    }
                  ],
                  "internalType": "struct CourseDataTypes.Class[]",
                  "name": "classes",
                  "type": "tuple[]"
                },
                {
                  "components": [
                    {
                      "internalType": "uint256",
                      "name": "grade",
                      "type": "uint256"
                    },
                    {
                      "internalType": "uint256",
                      "name": "minPercentage",
                      "type": "uint256"
                    }
                  ],
                  "internalType": "struct CourseDataTypes.GradeLevel[]",
                  "name": "gradeLevels",
                  "type": "tuple[]"
                },
                {
                  "internalType": "string[]",
                  "name": "requirementCourseCodes",
                  "type": "string[]"
                }
              ],
              "internalType": "struct CourseDataTypes.CourseContent",
              "name": "content",
              "type": "tuple"
            }
          ],
          "internalType": "struct CourseDataTypes.Course[]",
          "name": "",
          "type": "tuple[]"
        }
      ],
      "stateMutability": "view",
      "type": "function"
    },
    {
      "inputs": [
        {
          "internalType": "uint256",
          "name": "courseId",
          "type": "uint256"
        }
      ],
      "name": "getCourse",
      "outputs": [
        {
          "components": [
            {
              "internalType": "uint256",
              "name": "courseId",
              "type": "uint256"
            },
            {
              "components": [
                {
                  "internalType": "string",
                  "name": "title",
                  "type": "string"
                },
                {
                  "internalType": "string",
                  "name": "code",
                  "type": "string"
                },
                {
                  "internalType": "enum CourseDataTypes.CourseType",
                  "name": "courseType",
                  "type": "uint8"
                },
                {
                  "components": [
                    {
                      "internalType": "uint256",
                      "name": "year",
                      "type": "uint256"
                    },
                    {
                      "internalType": "enum CourseDataTypes.SemesterSeason",
                      "name": "season",
                      "type": "uint8"
                    }
                  ],
                  "internalType": "struct CourseDataTypes.Semester",
                  "name": "semester",
                  "type": "tuple"
                },
                {
                  "internalType": "string",
                  "name": "description",
                  "type": "string"
                },
                {
                  "internalType": "string",
                  "name": "examTopics",
                  "type": "string"
                },
                {
                  "internalType": "string",
                  "name": "language",
                  "type": "string"
                },
                {
                  "internalType": "uint256",
                  "name": "ects",
                  "type": "uint256"
                },
                {
                  "internalType": "uint256",
                  "name": "maxPlaces",
                  "type": "uint256"
                },
                {
                  "internalType": "uint256",
                  "name": "registrationStart",
                  "type": "uint256"
                },
                {
                  "internalType": "uint256",
                  "name": "registrationDeadline",
                  "type": "uint256"
                },
                {
                  "internalType": "uint256",
                  "name": "deregistrationDeadline",
                  "type": "uint256"
                },
                {
                  "components": [
                    {
                      "internalType": "uint256",
                      "name": "datetime",
                      "type": "uint256"
                    },
                    {
                      "internalType": "string",
                      "name": "place",
                      "type": "string"
                    }
                  ],
                  "internalType": "struct CourseDataTypes.Class[]",
                  "name": "classes",
                  "type": "tuple[]"
                },
                {
                  "components": [
                    {
                      "internalType": "uint256",
                      "name": "grade",
                      "type": "uint256"
                    },
                    {
                      "internalType": "uint256",
                      "name": "minPercentage",
                      "type": "uint256"
                    }
                  ],
                  "internalType": "struct CourseDataTypes.GradeLevel[]",
                  "name": "gradeLevels",
                  "type": "tuple[]"
                },
                {
                  "internalType": "string[]",
                  "name": "requirementCourseCodes",
                  "type": "string[]"
                }
              ],
              "internalType": "struct CourseDataTypes.CourseContent",
              "name": "content",
              "type": "tuple"
            }
          ],
          "internalType": "struct CourseDataTypes.Course",
          "name": "",
          "type": "tuple"
        }
      ],
      "stateMutability": "view",
      "type": "function"
    },
    {
      "inputs": [
        {
          "internalType": "uint256",
          "name": "courseId",
          "type": "uint256"
        }
      ],
      "name": "getCourseDeregistrationPeriod",
      "outputs": [
        {
          "internalType": "uint256",
          "name": "",
          "type": "uint256"
        },
        {
          "internalType": "uint256",
          "name": "",
          "type": "uint256"
        }
      ],
      "stateMutability": "view",
      "type": "function"
    },
    {
      "inputs": [
        {
          "internalType": "string",
          "name": "courseCode",
          "type": "string"
        }
      ],
      "name": "getCourseIdsToCourseCode",
      "outputs": [
        {
          "internalType": "uint256[]",
          "name": "",
          "type": "uint256[]"
        }
      ],
      "stateMutability": "view",
      "type": "function"
    },
    {
      "inputs": [
        {
          "internalType": "uint256",
          "name": "courseId",
          "type": "uint256"
        }
      ],
      "name": "getCourseMaxPlaces",
      "outputs": [
        {
          "internalType": "uint256",
          "name": "",
          "type": "uint256"
        }
      ],
      "stateMutability": "view",
      "type": "function"
    },
    {
      "inputs": [
        {
          "internalType": "uint256",
          "name": "courseId",
          "type": "uint256"
        }
      ],
      "name": "getCourseParticipantIds",
      "outputs": [
        {
          "internalType": "uint256[]",
          "name": "",
          "type": "uint256[]"
        }
      ],
      "stateMutability": "view",
      "type": "function"
    },
    {
      "inputs": [
        {
          "internalType": "uint256",
          "name": "courseId",
          "type": "uint256"
        }
      ],
      "name": "getCourseRegistrationPeriod",
      "outputs": [
        {
          "internalType": "uint256",
          "name": "",
          "type": "uint256"
        },
        {
          "internalType": "uint256",
          "name": "",
          "type": "uint256"
        }
      ],
      "stateMutability": "view",
      "type": "function"
    },
    {
      "inputs": [
        {
          "internalType": "uint256",
          "name": "courseId",
          "type": "uint256"
        }
      ],
      "name": "getCourseType",
      "outputs": [
        {
          "internalType": "enum CourseDataTypes.CourseType",
          "name": "",
          "type": "uint8"
        }
      ],
      "stateMutability": "view",
      "type": "function"
    },
    {
      "inputs": [
        {
          "internalType": "uint256[]",
          "name": "courseIds",
          "type": "uint256[]"
        }
      ],
      "name": "getCoursesToCourseIds",
      "outputs": [
        {
          "components": [
            {
              "internalType": "uint256",
              "name": "courseId",
              "type": "uint256"
            },
            {
              "components": [
                {
                  "internalType": "string",
                  "name": "title",
                  "type": "string"
                },
                {
                  "internalType": "string",
                  "name": "code",
                  "type": "string"
                },
                {
                  "internalType": "enum CourseDataTypes.CourseType",
                  "name": "courseType",
                  "type": "uint8"
                },
                {
                  "components": [
                    {
                      "internalType": "uint256",
                      "name": "year",
                      "type": "uint256"
                    },
                    {
                      "internalType": "enum CourseDataTypes.SemesterSeason",
                      "name": "season",
                      "type": "uint8"
                    }
                  ],
                  "internalType": "struct CourseDataTypes.Semester",
                  "name": "semester",
                  "type": "tuple"
                },
                {
                  "internalType": "string",
                  "name": "description",
                  "type": "string"
                },
                {
                  "internalType": "string",
                  "name": "examTopics",
                  "type": "string"
                },
                {
                  "internalType": "string",
                  "name": "language",
                  "type": "string"
                },
                {
                  "internalType": "uint256",
                  "name": "ects",
                  "type": "uint256"
                },
                {
                  "internalType": "uint256",
                  "name": "maxPlaces",
                  "type": "uint256"
                },
                {
                  "internalType": "uint256",
                  "name": "registrationStart",
                  "type": "uint256"
                },
                {
                  "internalType": "uint256",
                  "name": "registrationDeadline",
                  "type": "uint256"
                },
                {
                  "internalType": "uint256",
                  "name": "deregistrationDeadline",
                  "type": "uint256"
                },
                {
                  "components": [
                    {
                      "internalType": "uint256",
                      "name": "datetime",
                      "type": "uint256"
                    },
                    {
                      "internalType": "string",
                      "name": "place",
                      "type": "string"
                    }
                  ],
                  "internalType": "struct CourseDataTypes.Class[]",
                  "name": "classes",
                  "type": "tuple[]"
                },
                {
                  "components": [
                    {
                      "internalType": "uint256",
                      "name": "grade",
                      "type": "uint256"
                    },
                    {
                      "internalType": "uint256",
                      "name": "minPercentage",
                      "type": "uint256"
                    }
                  ],
                  "internalType": "struct CourseDataTypes.GradeLevel[]",
                  "name": "gradeLevels",
                  "type": "tuple[]"
                },
                {
                  "internalType": "string[]",
                  "name": "requirementCourseCodes",
                  "type": "string[]"
                }
              ],
              "internalType": "struct CourseDataTypes.CourseContent",
              "name": "content",
              "type": "tuple"
            }
          ],
          "internalType": "struct CourseDataTypes.Course[]",
          "name": "",
          "type": "tuple[]"
        }
      ],
      "stateMutability": "view",
      "type": "function"
    },
    {
      "inputs": [
        {
          "internalType": "uint256",
          "name": "uId",
          "type": "uint256"
        }
      ],
      "name": "getCoursesToLecturer",
      "outputs": [
        {
          "components": [
            {
              "internalType": "uint256",
              "name": "courseId",
              "type": "uint256"
            },
            {
              "components": [
                {
                  "internalType": "string",
                  "name": "title",
                  "type": "string"
                },
                {
                  "internalType": "string",
                  "name": "code",
                  "type": "string"
                },
                {
                  "internalType": "enum CourseDataTypes.CourseType",
                  "name": "courseType",
                  "type": "uint8"
                },
                {
                  "components": [
                    {
                      "internalType": "uint256",
                      "name": "year",
                      "type": "uint256"
                    },
                    {
                      "internalType": "enum CourseDataTypes.SemesterSeason",
                      "name": "season",
                      "type": "uint8"
                    }
                  ],
                  "internalType": "struct CourseDataTypes.Semester",
                  "name": "semester",
                  "type": "tuple"
                },
                {
                  "internalType": "string",
                  "name": "description",
                  "type": "string"
                },
                {
                  "internalType": "string",
                  "name": "examTopics",
                  "type": "string"
                },
                {
                  "internalType": "string",
                  "name": "language",
                  "type": "string"
                },
                {
                  "internalType": "uint256",
                  "name": "ects",
                  "type": "uint256"
                },
                {
                  "internalType": "uint256",
                  "name": "maxPlaces",
                  "type": "uint256"
                },
                {
                  "internalType": "uint256",
                  "name": "registrationStart",
                  "type": "uint256"
                },
                {
                  "internalType": "uint256",
                  "name": "registrationDeadline",
                  "type": "uint256"
                },
                {
                  "internalType": "uint256",
                  "name": "deregistrationDeadline",
                  "type": "uint256"
                },
                {
                  "components": [
                    {
                      "internalType": "uint256",
                      "name": "datetime",
                      "type": "uint256"
                    },
                    {
                      "internalType": "string",
                      "name": "place",
                      "type": "string"
                    }
                  ],
                  "internalType": "struct CourseDataTypes.Class[]",
                  "name": "classes",
                  "type": "tuple[]"
                },
                {
                  "components": [
                    {
                      "internalType": "uint256",
                      "name": "grade",
                      "type": "uint256"
                    },
                    {
                      "internalType": "uint256",
                      "name": "minPercentage",
                      "type": "uint256"
                    }
                  ],
                  "internalType": "struct CourseDataTypes.GradeLevel[]",
                  "name": "gradeLevels",
                  "type": "tuple[]"
                },
                {
                  "internalType": "string[]",
                  "name": "requirementCourseCodes",
                  "type": "string[]"
                }
              ],
              "internalType": "struct CourseDataTypes.CourseContent",
              "name": "content",
              "type": "tuple"
            }
          ],
          "internalType": "struct CourseDataTypes.Course[]",
          "name": "",
          "type": "tuple[]"
        }
      ],
      "stateMutability": "view",
      "type": "function"
    },
    {
      "inputs": [
        {
          "internalType": "uint256",
          "name": "programId",
          "type": "uint256"
        }
      ],
      "name": "getCoursesToProgramId",
      "outputs": [
        {
          "components": [
            {
              "internalType": "uint256",
              "name": "courseId",
              "type": "uint256"
            },
            {
              "components": [
                {
                  "internalType": "string",
                  "name": "title",
                  "type": "string"
                },
                {
                  "internalType": "string",
                  "name": "code",
                  "type": "string"
                },
                {
                  "internalType": "enum CourseDataTypes.CourseType",
                  "name": "courseType",
                  "type": "uint8"
                },
                {
                  "components": [
                    {
                      "internalType": "uint256",
                      "name": "year",
                      "type": "uint256"
                    },
                    {
                      "internalType": "enum CourseDataTypes.SemesterSeason",
                      "name": "season",
                      "type": "uint8"
                    }
                  ],
                  "internalType": "struct CourseDataTypes.Semester",
                  "name": "semester",
                  "type": "tuple"
                },
                {
                  "internalType": "string",
                  "name": "description",
                  "type": "string"
                },
                {
                  "internalType": "string",
                  "name": "examTopics",
                  "type": "string"
                },
                {
                  "internalType": "string",
                  "name": "language",
                  "type": "string"
                },
                {
                  "internalType": "uint256",
                  "name": "ects",
                  "type": "uint256"
                },
                {
                  "internalType": "uint256",
                  "name": "maxPlaces",
                  "type": "uint256"
                },
                {
                  "internalType": "uint256",
                  "name": "registrationStart",
                  "type": "uint256"
                },
                {
                  "internalType": "uint256",
                  "name": "registrationDeadline",
                  "type": "uint256"
                },
                {
                  "internalType": "uint256",
                  "name": "deregistrationDeadline",
                  "type": "uint256"
                },
                {
                  "components": [
                    {
                      "internalType": "uint256",
                      "name": "datetime",
                      "type": "uint256"
                    },
                    {
                      "internalType": "string",
                      "name": "place",
                      "type": "string"
                    }
                  ],
                  "internalType": "struct CourseDataTypes.Class[]",
                  "name": "classes",
                  "type": "tuple[]"
                },
                {
                  "components": [
                    {
                      "internalType": "uint256",
                      "name": "grade",
                      "type": "uint256"
                    },
                    {
                      "internalType": "uint256",
                      "name": "minPercentage",
                      "type": "uint256"
                    }
                  ],
                  "internalType": "struct CourseDataTypes.GradeLevel[]",
                  "name": "gradeLevels",
                  "type": "tuple[]"
                },
                {
                  "internalType": "string[]",
                  "name": "requirementCourseCodes",
                  "type": "string[]"
                }
              ],
              "internalType": "struct CourseDataTypes.CourseContent",
              "name": "content",
              "type": "tuple"
            }
          ],
          "internalType": "struct CourseDataTypes.Course[]",
          "name": "",
          "type": "tuple[]"
        }
      ],
      "stateMutability": "view",
      "type": "function"
    },
    {
      "inputs": [
        {
          "internalType": "uint256",
          "name": "uId",
          "type": "uint256"
        }
      ],
      "name": "getCoursesToStudent",
      "outputs": [
        {
          "components": [
            {
              "internalType": "uint256",
              "name": "courseId",
              "type": "uint256"
            },
            {
              "components": [
                {
                  "internalType": "string",
                  "name": "title",
                  "type": "string"
                },
                {
                  "internalType": "string",
                  "name": "code",
                  "type": "string"
                },
                {
                  "internalType": "enum CourseDataTypes.CourseType",
                  "name": "courseType",
                  "type": "uint8"
                },
                {
                  "components": [
                    {
                      "internalType": "uint256",
                      "name": "year",
                      "type": "uint256"
                    },
                    {
                      "internalType": "enum CourseDataTypes.SemesterSeason",
                      "name": "season",
                      "type": "uint8"
                    }
                  ],
                  "internalType": "struct CourseDataTypes.Semester",
                  "name": "semester",
                  "type": "tuple"
                },
                {
                  "internalType": "string",
                  "name": "description",
                  "type": "string"
                },
                {
                  "internalType": "string",
                  "name": "examTopics",
                  "type": "string"
                },
                {
                  "internalType": "string",
                  "name": "language",
                  "type": "string"
                },
                {
                  "internalType": "uint256",
                  "name": "ects",
                  "type": "uint256"
                },
                {
                  "internalType": "uint256",
                  "name": "maxPlaces",
                  "type": "uint256"
                },
                {
                  "internalType": "uint256",
                  "name": "registrationStart",
                  "type": "uint256"
                },
                {
                  "internalType": "uint256",
                  "name": "registrationDeadline",
                  "type": "uint256"
                },
                {
                  "internalType": "uint256",
                  "name": "deregistrationDeadline",
                  "type": "uint256"
                },
                {
                  "components": [
                    {
                      "internalType": "uint256",
                      "name": "datetime",
                      "type": "uint256"
                    },
                    {
                      "internalType": "string",
                      "name": "place",
                      "type": "string"
                    }
                  ],
                  "internalType": "struct CourseDataTypes.Class[]",
                  "name": "classes",
                  "type": "tuple[]"
                },
                {
                  "components": [
                    {
                      "internalType": "uint256",
                      "name": "grade",
                      "type": "uint256"
                    },
                    {
                      "internalType": "uint256",
                      "name": "minPercentage",
                      "type": "uint256"
                    }
                  ],
                  "internalType": "struct CourseDataTypes.GradeLevel[]",
                  "name": "gradeLevels",
                  "type": "tuple[]"
                },
                {
                  "internalType": "string[]",
                  "name": "requirementCourseCodes",
                  "type": "string[]"
                }
              ],
              "internalType": "struct CourseDataTypes.CourseContent",
              "name": "content",
              "type": "tuple"
            }
          ],
          "internalType": "struct CourseDataTypes.Course[]",
          "name": "",
          "type": "tuple[]"
        }
      ],
      "stateMutability": "view",
      "type": "function"
    },
    {
      "inputs": [
        {
          "internalType": "uint256",
          "name": "courseId",
          "type": "uint256"
        }
      ],
      "name": "getGradeLevels",
      "outputs": [
        {
          "components": [
            {
              "internalType": "uint256",
              "name": "grade",
              "type": "uint256"
            },
            {
              "internalType": "uint256",
              "name": "minPercentage",
              "type": "uint256"
            }
          ],
          "internalType": "struct CourseDataTypes.GradeLevel[]",
          "name": "",
          "type": "tuple[]"
        }
      ],
      "stateMutability": "view",
      "type": "function"
    },
    {
      "inputs": [
        {
          "internalType": "uint256",
          "name": "courseId",
          "type": "uint256"
        }
      ],
      "name": "getLecturerUIdsOfCourseId",
      "outputs": [
        {
          "internalType": "uint256[]",
          "name": "",
          "type": "uint256[]"
        }
      ],
      "stateMutability": "view",
      "type": "function"
    },
    {
      "inputs": [
        {
          "internalType": "uint256",
          "name": "courseId",
          "type": "uint256"
        }
      ],
      "name": "getRequirementCourseCodesOfCourse",
      "outputs": [
        {
          "internalType": "string[]",
          "name": "",
          "type": "string[]"
        }
      ],
      "stateMutability": "view",
      "type": "function"
    },
    {
      "inputs": [
        {
          "internalType": "uint256",
          "name": "courseId",
          "type": "uint256"
        }
      ],
      "name": "getStudyProgramIdsOfCourse",
      "outputs": [
        {
          "internalType": "uint256[]",
          "name": "",
          "type": "uint256[]"
        }
      ],
      "stateMutability": "view",
      "type": "function"
    },
    {
      "inputs": [
        {
          "internalType": "uint256",
          "name": "uId",
          "type": "uint256"
        },
        {
          "internalType": "uint256",
          "name": "courseId",
          "type": "uint256"
        }
      ],
      "name": "isRegisteredToCourse",
      "outputs": [
        {
          "internalType": "bool",
          "name": "",
          "type": "bool"
        }
      ],
      "stateMutability": "view",
      "type": "function"
    },
    {
      "inputs": [
        {
          "internalType": "uint256",
          "name": "courseId",
          "type": "uint256"
        },
        {
          "internalType": "uint256",
          "name": "uId",
          "type": "uint256"
        }
      ],
      "name": "removeParticipantFromCourse",
      "outputs": [],
      "stateMutability": "nonpayable",
      "type": "function"
    }
  ],
  "bytecode": "0x608060405262000019620000e560201b62002bb81760201c565b60026000820151816000015550503480156200003457600080fd5b50604051620052e5380380620052e583398181016040528101906200005a919062000181565b80806000806101000a81548173ffffffffffffffffffffffffffffffffffffffff021916908373ffffffffffffffffffffffffffffffffffffffff1602179055505081600160006101000a81548173ffffffffffffffffffffffffffffffffffffffff021916908373ffffffffffffffffffffffffffffffffffffffff1602179055505050620001c8565b620000ef62000104565b60405180602001604052806001815250905090565b6040518060200160405280600081525090565b600080fd5b600073ffffffffffffffffffffffffffffffffffffffff82169050919050565b600062000149826200011c565b9050919050565b6200015b816200013c565b81146200016757600080fd5b50565b6000815190506200017b8162000150565b92915050565b600080604083850312156200019b576200019a62000117565b5b6000620001ab858286016200016a565b9250506020620001be858286016200016a565b9150509250929050565b61510d80620001d86000396000f3fe608060405234801561001057600080fd5b506004361061014d5760003560e01c80637499e5dc116100c3578063bef7a5711161007c578063bef7a57114610422578063cf6c702d14610440578063d56e8ee214610470578063dddd64a0146104a0578063e9c0844a146104d0578063f0659248146105005761014d565b80637499e5dc1461031557806389eb61df14610331578063916ae6bb14610361578063ab342b8b14610391578063ad21e07a146103c2578063bd9c1b50146103f25761014d565b806316d64af71161011557806316d64af71461021d5780633932708b1461023957806348cd378c146102695780635268561f1461029957806354ace6bc146102c95780636f4f5878146102e55761014d565b806304e48bd11461015257806308ddb518146101705780630b91e28d1461018c5780630e84e79c146101bc578063151c09f1146101ed575b600080fd5b61015a610530565b60405161016791906134c0565b60405180910390f35b61018a60048036038101906101859190613522565b6106a6565b005b6101a660048036038101906101a19190613562565b610812565b6040516101b391906135cc565b60405180910390f35b6101d660048036038101906101d19190613562565b61099b565b6040516101e49291906135fd565b60405180910390f35b61020760048036038101906102029190613d8a565b610bd4565b6040516102149190613dd3565b60405180910390f35b61023760048036038101906102329190613e49565b610ea8565b005b610253600480360381019061024e9190613522565b61104e565b6040516102609190613ec4565b60405180910390f35b610283600480360381019061027e9190613562565b6111dc565b6040516102909190613f8e565b60405180910390f35b6102b360048036038101906102ae9190613562565b61135f565b6040516102c091906134c0565b60405180910390f35b6102e360048036038101906102de9190613522565b6114ea565b005b6102ff60048036038101906102fa9190613562565b611656565b60405161030c9190613f8e565b60405180910390f35b61032f600480360381019061032a9190613e49565b6117d9565b005b61034b60048036038101906103469190614006565b61197f565b6040516103589190613f8e565b60405180910390f35b61037b60048036038101906103769190613562565b611b05565b60405161038891906134c0565b60405180910390f35b6103ab60048036038101906103a69190613562565b611c90565b6040516103b99291906135fd565b60405180910390f35b6103dc60048036038101906103d79190613562565b611ec9565b6040516103e991906140d9565b60405180910390f35b61040c60048036038101906104079190613562565b61205b565b6040516104199190613f8e565b60405180910390f35b61042a6121de565b60405161043791906140d9565b60405180910390f35b61045a600480360381019061045591906141be565b612354565b60405161046791906134c0565b60405180910390f35b61048a60048036038101906104859190613562565b612588565b60405161049791906134c0565b60405180910390f35b6104ba60048036038101906104b59190613562565b612713565b6040516104c79190613dd3565b60405180910390f35b6104ea60048036038101906104e59190613562565b6128a0565b6040516104f79190614216565b60405180910390f35b61051a60048036038101906105159190613562565b612a2c565b60405161052791906142a0565b60405180910390f35b606060008054906101000a900473ffffffffffffffffffffffffffffffffffffffff1673ffffffffffffffffffffffffffffffffffffffff166313f44d10336040518263ffffffff1660e01b815260040161058b9190614303565b602060405180830381865afa1580156105a8573d6000803e3d6000fd5b505050506040513d601f19601f820116820180604052508101906105cc919061434a565b61060b576040517f08c379a0000000000000000000000000000000000000000000000000000000008152600401610602906143d4565b60405180910390fd5b600160009054906101000a900473ffffffffffffffffffffffffffffffffffffffff1673ffffffffffffffffffffffffffffffffffffffff166304e48bd16040518163ffffffff1660e01b8152600401600060405180830381865afa158015610678573d6000803e3d6000fd5b505050506040513d6000823e3d601f19601f820116820180604052508101906106a19190614b42565b905090565b60008054906101000a900473ffffffffffffffffffffffffffffffffffffffff1673ffffffffffffffffffffffffffffffffffffffff166313f44d10336040518263ffffffff1660e01b81526004016106ff9190614303565b602060405180830381865afa15801561071c573d6000803e3d6000fd5b505050506040513d601f19601f82011682018060405250810190610740919061434a565b61077f576040517f08c379a0000000000000000000000000000000000000000000000000000000008152600401610776906143d4565b60405180910390fd5b600160009054906101000a900473ffffffffffffffffffffffffffffffffffffffff1673ffffffffffffffffffffffffffffffffffffffff16634c40edf583836040518363ffffffff1660e01b81526004016107dc9291906135fd565b600060405180830381600087803b1580156107f657600080fd5b505af115801561080a573d6000803e3d6000fd5b505050505050565b61081a612d29565b60008054906101000a900473ffffffffffffffffffffffffffffffffffffffff1673ffffffffffffffffffffffffffffffffffffffff166313f44d10336040518263ffffffff1660e01b81526004016108739190614303565b602060405180830381865afa158015610890573d6000803e3d6000fd5b505050506040513d601f19601f820116820180604052508101906108b4919061434a565b6108f3576040517f08c379a00000000000000000000000000000000000000000000000000000000081526004016108ea906143d4565b60405180910390fd5b600160009054906101000a900473ffffffffffffffffffffffffffffffffffffffff1673ffffffffffffffffffffffffffffffffffffffff16630b91e28d836040518263ffffffff1660e01b815260040161094e9190613dd3565b600060405180830381865afa15801561096b573d6000803e3d6000fd5b505050506040513d6000823e3d601f19601f820116820180604052508101906109949190614b8b565b9050919050565b60008060008054906101000a900473ffffffffffffffffffffffffffffffffffffffff1673ffffffffffffffffffffffffffffffffffffffff166313f44d10336040518263ffffffff1660e01b81526004016109f79190614303565b602060405180830381865afa158015610a14573d6000803e3d6000fd5b505050506040513d601f19601f82011682018060405250810190610a38919061434a565b610a77576040517f08c379a0000000000000000000000000000000000000000000000000000000008152600401610a6e906143d4565b60405180910390fd5b600160009054906101000a900473ffffffffffffffffffffffffffffffffffffffff1673ffffffffffffffffffffffffffffffffffffffff16630b91e28d846040518263ffffffff1660e01b8152600401610ad29190613dd3565b600060405180830381865afa158015610aef573d6000803e3d6000fd5b505050506040513d6000823e3d601f19601f82011682018060405250810190610b189190614b8b565b602001516101200151600160009054906101000a900473ffffffffffffffffffffffffffffffffffffffff1673ffffffffffffffffffffffffffffffffffffffff16630b91e28d856040518263ffffffff1660e01b8152600401610b7c9190613dd3565b600060405180830381865afa158015610b99573d6000803e3d6000fd5b505050506040513d6000823e3d601f19601f82011682018060405250810190610bc29190614b8b565b60200151610160015191509150915091565b60008060009054906101000a900473ffffffffffffffffffffffffffffffffffffffff1673ffffffffffffffffffffffffffffffffffffffff166313f44d10336040518263ffffffff1660e01b8152600401610c309190614303565b602060405180830381865afa158015610c4d573d6000803e3d6000fd5b505050506040513d601f19601f82011682018060405250810190610c71919061434a565b610cb0576040517f08c379a0000000000000000000000000000000000000000000000000000000008152600401610ca7906143d4565b60405180910390fd5b610cf382600001516040518060400160405280600581526020017f5469746c65000000000000000000000000000000000000000000000000000000815250612bd5565b610d3682602001516040518060400160405280600b81526020017f436f7572736520636f6465000000000000000000000000000000000000000000815250612bd5565b610d798260c001516040518060400160405280600881526020017f4c616e6775616765000000000000000000000000000000000000000000000000815250612bd5565b60005b826101a0015151811015610def57610db6836101a001518281518110610da557610da4614bd4565b5b602002602001015160200151612c40565b836101a001518281518110610dce57610dcd614bd4565b5b6020026020010151602001818152505080610de890614c32565b9050610d7c565b506000610dfc6002612c79565b9050600160009054906101000a900473ffffffffffffffffffffffffffffffffffffffff1673ffffffffffffffffffffffffffffffffffffffff1663cc422ded6040518060400160405280848152602001868152506040518263ffffffff1660e01b8152600401610e6d91906135cc565b600060405180830381600087803b158015610e8757600080fd5b505af1158015610e9b573d6000803e3d6000fd5b5050505080915050919050565b60008054906101000a900473ffffffffffffffffffffffffffffffffffffffff1673ffffffffffffffffffffffffffffffffffffffff166313f44d10336040518263ffffffff1660e01b8152600401610f019190614303565b602060405180830381865afa158015610f1e573d6000803e3d6000fd5b505050506040513d601f19601f82011682018060405250810190610f42919061434a565b610f81576040517f08c379a0000000000000000000000000000000000000000000000000000000008152600401610f78906143d4565b60405180910390fd5b60005b8282905081101561104857600160009054906101000a900473ffffffffffffffffffffffffffffffffffffffff1673ffffffffffffffffffffffffffffffffffffffff1663be398d8785858585818110610fe157610fe0614bd4565b5b905060200201356040518363ffffffff1660e01b81526004016110059291906135fd565b600060405180830381600087803b15801561101f57600080fd5b505af1158015611033573d6000803e3d6000fd5b505050508061104190614c32565b9050610f84565b50505050565b60008060009054906101000a900473ffffffffffffffffffffffffffffffffffffffff1673ffffffffffffffffffffffffffffffffffffffff166313f44d10336040518263ffffffff1660e01b81526004016110aa9190614303565b602060405180830381865afa1580156110c7573d6000803e3d6000fd5b505050506040513d601f19601f820116820180604052508101906110eb919061434a565b61112a576040517f08c379a0000000000000000000000000000000000000000000000000000000008152600401611121906143d4565b60405180910390fd5b6111d483600160009054906101000a900473ffffffffffffffffffffffffffffffffffffffff1673ffffffffffffffffffffffffffffffffffffffff1663bc22884f856040518263ffffffff1660e01b81526004016111899190613dd3565b600060405180830381865afa1580156111a6573d6000803e3d6000fd5b505050506040513d6000823e3d601f19601f820116820180604052508101906111cf9190614d11565b612c9b565b905092915050565b606060008054906101000a900473ffffffffffffffffffffffffffffffffffffffff1673ffffffffffffffffffffffffffffffffffffffff166313f44d10336040518263ffffffff1660e01b81526004016112379190614303565b602060405180830381865afa158015611254573d6000803e3d6000fd5b505050506040513d601f19601f82011682018060405250810190611278919061434a565b6112b7576040517f08c379a00000000000000000000000000000000000000000000000000000000081526004016112ae906143d4565b60405180910390fd5b600160009054906101000a900473ffffffffffffffffffffffffffffffffffffffff1673ffffffffffffffffffffffffffffffffffffffff166348cd378c836040518263ffffffff1660e01b81526004016113129190613dd3565b600060405180830381865afa15801561132f573d6000803e3d6000fd5b505050506040513d6000823e3d601f19601f820116820180604052508101906113589190614d11565b9050919050565b606060008054906101000a900473ffffffffffffffffffffffffffffffffffffffff1673ffffffffffffffffffffffffffffffffffffffff166313f44d10336040518263ffffffff1660e01b81526004016113ba9190614303565b602060405180830381865afa1580156113d7573d6000803e3d6000fd5b505050506040513d601f19601f820116820180604052508101906113fb919061434a565b61143a576040517f08c379a0000000000000000000000000000000000000000000000000000000008152600401611431906143d4565b60405180910390fd5b6114e3600160009054906101000a900473ffffffffffffffffffffffffffffffffffffffff1673ffffffffffffffffffffffffffffffffffffffff1663e22cad07846040518263ffffffff1660e01b81526004016114989190613dd3565b600060405180830381865afa1580156114b5573d6000803e3d6000fd5b505050506040513d6000823e3d601f19601f820116820180604052508101906114de9190614d11565b612354565b9050919050565b60008054906101000a900473ffffffffffffffffffffffffffffffffffffffff1673ffffffffffffffffffffffffffffffffffffffff166313f44d10336040518263ffffffff1660e01b81526004016115439190614303565b602060405180830381865afa158015611560573d6000803e3d6000fd5b505050506040513d601f19601f82011682018060405250810190611584919061434a565b6115c3576040517f08c379a00000000000000000000000000000000000000000000000000000000081526004016115ba906143d4565b60405180910390fd5b600160009054906101000a900473ffffffffffffffffffffffffffffffffffffffff1673ffffffffffffffffffffffffffffffffffffffff166344508ad083836040518363ffffffff1660e01b81526004016116209291906135fd565b600060405180830381600087803b15801561163a57600080fd5b505af115801561164e573d6000803e3d6000fd5b505050505050565b606060008054906101000a900473ffffffffffffffffffffffffffffffffffffffff1673ffffffffffffffffffffffffffffffffffffffff166313f44d10336040518263ffffffff1660e01b81526004016116b19190614303565b602060405180830381865afa1580156116ce573d6000803e3d6000fd5b505050506040513d601f19601f820116820180604052508101906116f2919061434a565b611731576040517f08c379a0000000000000000000000000000000000000000000000000000000008152600401611728906143d4565b60405180910390fd5b600160009054906101000a900473ffffffffffffffffffffffffffffffffffffffff1673ffffffffffffffffffffffffffffffffffffffff1663bc22884f836040518263ffffffff1660e01b815260040161178c9190613dd3565b600060405180830381865afa1580156117a9573d6000803e3d6000fd5b505050506040513d6000823e3d601f19601f820116820180604052508101906117d29190614d11565b9050919050565b60008054906101000a900473ffffffffffffffffffffffffffffffffffffffff1673ffffffffffffffffffffffffffffffffffffffff166313f44d10336040518263ffffffff1660e01b81526004016118329190614303565b602060405180830381865afa15801561184f573d6000803e3d6000fd5b505050506040513d601f19601f82011682018060405250810190611873919061434a565b6118b2576040517f08c379a00000000000000000000000000000000000000000000000000000000081526004016118a9906143d4565b60405180910390fd5b60005b8282905081101561197957600160009054906101000a900473ffffffffffffffffffffffffffffffffffffffff1673ffffffffffffffffffffffffffffffffffffffff16631fc87f498585858581811061191257611911614bd4565b5b905060200201356040518363ffffffff1660e01b81526004016119369291906135fd565b600060405180830381600087803b15801561195057600080fd5b505af1158015611964573d6000803e3d6000fd5b505050508061197290614c32565b90506118b5565b50505050565b606060008054906101000a900473ffffffffffffffffffffffffffffffffffffffff1673ffffffffffffffffffffffffffffffffffffffff166313f44d10336040518263ffffffff1660e01b81526004016119da9190614303565b602060405180830381865afa1580156119f7573d6000803e3d6000fd5b505050506040513d601f19601f82011682018060405250810190611a1b919061434a565b611a5a576040517f08c379a0000000000000000000000000000000000000000000000000000000008152600401611a51906143d4565b60405180910390fd5b600160009054906101000a900473ffffffffffffffffffffffffffffffffffffffff1673ffffffffffffffffffffffffffffffffffffffff1663bb68402784846040518363ffffffff1660e01b8152600401611ab7929190614d87565b600060405180830381865afa158015611ad4573d6000803e3d6000fd5b505050506040513d6000823e3d601f19601f82011682018060405250810190611afd9190614d11565b905092915050565b606060008054906101000a900473ffffffffffffffffffffffffffffffffffffffff1673ffffffffffffffffffffffffffffffffffffffff166313f44d10336040518263ffffffff1660e01b8152600401611b609190614303565b602060405180830381865afa158015611b7d573d6000803e3d6000fd5b505050506040513d601f19601f82011682018060405250810190611ba1919061434a565b611be0576040517f08c379a0000000000000000000000000000000000000000000000000000000008152600401611bd7906143d4565b60405180910390fd5b611c89600160009054906101000a900473ffffffffffffffffffffffffffffffffffffffff1673ffffffffffffffffffffffffffffffffffffffff16634a61ddbe846040518263ffffffff1660e01b8152600401611c3e9190613dd3565b600060405180830381865afa158015611c5b573d6000803e3d6000fd5b505050506040513d6000823e3d601f19601f82011682018060405250810190611c849190614d11565b612354565b9050919050565b60008060008054906101000a900473ffffffffffffffffffffffffffffffffffffffff1673ffffffffffffffffffffffffffffffffffffffff166313f44d10336040518263ffffffff1660e01b8152600401611cec9190614303565b602060405180830381865afa158015611d09573d6000803e3d6000fd5b505050506040513d601f19601f82011682018060405250810190611d2d919061434a565b611d6c576040517f08c379a0000000000000000000000000000000000000000000000000000000008152600401611d63906143d4565b60405180910390fd5b600160009054906101000a900473ffffffffffffffffffffffffffffffffffffffff1673ffffffffffffffffffffffffffffffffffffffff16630b91e28d846040518263ffffffff1660e01b8152600401611dc79190613dd3565b600060405180830381865afa158015611de4573d6000803e3d6000fd5b505050506040513d6000823e3d601f19601f82011682018060405250810190611e0d9190614b8b565b602001516101200151600160009054906101000a900473ffffffffffffffffffffffffffffffffffffffff1673ffffffffffffffffffffffffffffffffffffffff16630b91e28d856040518263ffffffff1660e01b8152600401611e719190613dd3565b600060405180830381865afa158015611e8e573d6000803e3d6000fd5b505050506040513d6000823e3d601f19601f82011682018060405250810190611eb79190614b8b565b60200151610140015191509150915091565b606060008054906101000a900473ffffffffffffffffffffffffffffffffffffffff1673ffffffffffffffffffffffffffffffffffffffff166313f44d10336040518263ffffffff1660e01b8152600401611f249190614303565b602060405180830381865afa158015611f41573d6000803e3d6000fd5b505050506040513d601f19601f82011682018060405250810190611f65919061434a565b611fa4576040517f08c379a0000000000000000000000000000000000000000000000000000000008152600401611f9b906143d4565b60405180910390fd5b6000600160009054906101000a900473ffffffffffffffffffffffffffffffffffffffff1673ffffffffffffffffffffffffffffffffffffffff16630b91e28d846040518263ffffffff1660e01b81526004016120019190613dd3565b600060405180830381865afa15801561201e573d6000803e3d6000fd5b505050506040513d6000823e3d601f19601f820116820180604052508101906120479190614b8b565b905080602001516101c00151915050919050565b606060008054906101000a900473ffffffffffffffffffffffffffffffffffffffff1673ffffffffffffffffffffffffffffffffffffffff166313f44d10336040518263ffffffff1660e01b81526004016120b69190614303565b602060405180830381865afa1580156120d3573d6000803e3d6000fd5b505050506040513d601f19601f820116820180604052508101906120f7919061434a565b612136576040517f08c379a000000000000000000000000000000000000000000000000000000000815260040161212d906143d4565b60405180910390fd5b600160009054906101000a900473ffffffffffffffffffffffffffffffffffffffff1673ffffffffffffffffffffffffffffffffffffffff1663c233b21c836040518263ffffffff1660e01b81526004016121919190613dd3565b600060405180830381865afa1580156121ae573d6000803e3d6000fd5b505050506040513d6000823e3d601f19601f820116820180604052508101906121d79190614d11565b9050919050565b606060008054906101000a900473ffffffffffffffffffffffffffffffffffffffff1673ffffffffffffffffffffffffffffffffffffffff166313f44d10336040518263ffffffff1660e01b81526004016122399190614303565b602060405180830381865afa158015612256573d6000803e3d6000fd5b505050506040513d601f19601f8201168201806040525081019061227a919061434a565b6122b9576040517f08c379a00000000000000000000000000000000000000000000000000000000081526004016122b0906143d4565b60405180910390fd5b600160009054906101000a900473ffffffffffffffffffffffffffffffffffffffff1673ffffffffffffffffffffffffffffffffffffffff1663bef7a5716040518163ffffffff1660e01b8152600401600060405180830381865afa158015612326573d6000803e3d6000fd5b505050506040513d6000823e3d601f19601f8201168201806040525081019061234f9190614dab565b905090565b606060008054906101000a900473ffffffffffffffffffffffffffffffffffffffff1673ffffffffffffffffffffffffffffffffffffffff166313f44d10336040518263ffffffff1660e01b81526004016123af9190614303565b602060405180830381865afa1580156123cc573d6000803e3d6000fd5b505050506040513d601f19601f820116820180604052508101906123f0919061434a565b61242f576040517f08c379a0000000000000000000000000000000000000000000000000000000008152600401612426906143d4565b60405180910390fd5b6000825167ffffffffffffffff81111561244c5761244b61362b565b5b60405190808252806020026020018201604052801561248557816020015b612472612d29565b81526020019060019003908161246a5790505b50905060005b835181101561257e57600160009054906101000a900473ffffffffffffffffffffffffffffffffffffffff1673ffffffffffffffffffffffffffffffffffffffff16630b91e28d8583815181106124e5576124e4614bd4565b5b60200260200101516040518263ffffffff1660e01b81526004016125099190613dd3565b600060405180830381865afa158015612526573d6000803e3d6000fd5b505050506040513d6000823e3d601f19601f8201168201806040525081019061254f9190614b8b565b82828151811061256257612561614bd4565b5b60200260200101819052508061257790614c32565b905061248b565b5080915050919050565b606060008054906101000a900473ffffffffffffffffffffffffffffffffffffffff1673ffffffffffffffffffffffffffffffffffffffff166313f44d10336040518263ffffffff1660e01b81526004016125e39190614303565b602060405180830381865afa158015612600573d6000803e3d6000fd5b505050506040513d601f19601f82011682018060405250810190612624919061434a565b612663576040517f08c379a000000000000000000000000000000000000000000000000000000000815260040161265a906143d4565b60405180910390fd5b61270c600160009054906101000a900473ffffffffffffffffffffffffffffffffffffffff1673ffffffffffffffffffffffffffffffffffffffff166374bfedc7846040518263ffffffff1660e01b81526004016126c19190613dd3565b600060405180830381865afa1580156126de573d6000803e3d6000fd5b505050506040513d6000823e3d601f19601f820116820180604052508101906127079190614d11565b612354565b9050919050565b60008060009054906101000a900473ffffffffffffffffffffffffffffffffffffffff1673ffffffffffffffffffffffffffffffffffffffff166313f44d10336040518263ffffffff1660e01b815260040161276f9190614303565b602060405180830381865afa15801561278c573d6000803e3d6000fd5b505050506040513d601f19601f820116820180604052508101906127b0919061434a565b6127ef576040517f08c379a00000000000000000000000000000000000000000000000000000000081526004016127e6906143d4565b60405180910390fd5b600160009054906101000a900473ffffffffffffffffffffffffffffffffffffffff1673ffffffffffffffffffffffffffffffffffffffff16630b91e28d836040518263ffffffff1660e01b815260040161284a9190613dd3565b600060405180830381865afa158015612867573d6000803e3d6000fd5b505050506040513d6000823e3d601f19601f820116820180604052508101906128909190614b8b565b6020015161010001519050919050565b60008060009054906101000a900473ffffffffffffffffffffffffffffffffffffffff1673ffffffffffffffffffffffffffffffffffffffff166313f44d10336040518263ffffffff1660e01b81526004016128fc9190614303565b602060405180830381865afa158015612919573d6000803e3d6000fd5b505050506040513d601f19601f8201168201806040525081019061293d919061434a565b61297c576040517f08c379a0000000000000000000000000000000000000000000000000000000008152600401612973906143d4565b60405180910390fd5b600160009054906101000a900473ffffffffffffffffffffffffffffffffffffffff1673ffffffffffffffffffffffffffffffffffffffff16630b91e28d836040518263ffffffff1660e01b81526004016129d79190613dd3565b600060405180830381865afa1580156129f4573d6000803e3d6000fd5b505050506040513d6000823e3d601f19601f82011682018060405250810190612a1d9190614b8b565b60200151604001519050919050565b606060008054906101000a900473ffffffffffffffffffffffffffffffffffffffff1673ffffffffffffffffffffffffffffffffffffffff166313f44d10336040518263ffffffff1660e01b8152600401612a879190614303565b602060405180830381865afa158015612aa4573d6000803e3d6000fd5b505050506040513d601f19601f82011682018060405250810190612ac8919061434a565b612b07576040517f08c379a0000000000000000000000000000000000000000000000000000000008152600401612afe906143d4565b60405180910390fd5b600160009054906101000a900473ffffffffffffffffffffffffffffffffffffffff1673ffffffffffffffffffffffffffffffffffffffff16630b91e28d836040518263ffffffff1660e01b8152600401612b629190613dd3565b600060405180830381865afa158015612b7f573d6000803e3d6000fd5b505050506040513d6000823e3d601f19601f82011682018060405250810190612ba89190614b8b565b602001516101a001519050919050565b612bc0612d49565b60405180602001604052806001815250905090565b600082511181604051602001612beb9190614e7c565b60405160208183030381529060405290612c3b576040517f08c379a0000000000000000000000000000000000000000000000000000000008152600401612c329190614ed7565b60405180910390fd5b505050565b6000806004600a612c51919061502c565b90505b80831115612c7057600a83612c6991906150a6565b9250612c54565b82915050919050565b6000816000016000815480929190612c9090614c32565b919050559050919050565b600080612ca88484612cb2565b1215905092915050565b600080600090505b8251811015612cfe5783838281518110612cd757612cd6614bd4565b5b602002602001015103612ced5780915050612d23565b80612cf790614c32565b9050612cba565b507fffffffffffffffffffffffffffffffffffffffffffffffffffffffffffffffff90505b92915050565b604051806040016040528060008152602001612d43612d5c565b81525090565b6040518060200160405280600081525090565b604051806101e00160405280606081526020016060815260200160006003811115612d8a57612d89612eeb565b5b8152602001612d97612dea565b815260200160608152602001606081526020016060815260200160008152602001600081526020016000815260200160008152602001600081526020016060815260200160608152602001606081525090565b60405180604001604052806000815260200160006001811115612e1057612e0f612eeb565b5b81525090565b600081519050919050565b600082825260208201905092915050565b6000819050602082019050919050565b6000819050919050565b612e5581612e42565b82525050565b600081519050919050565b600082825260208201905092915050565b60005b83811015612e95578082015181840152602081019050612e7a565b60008484015250505050565b6000601f19601f8301169050919050565b6000612ebd82612e5b565b612ec78185612e66565b9350612ed7818560208601612e77565b612ee081612ea1565b840191505092915050565b7f4e487b7100000000000000000000000000000000000000000000000000000000600052602160045260246000fd5b60048110612f2b57612f2a612eeb565b5b50565b6000819050612f3c82612f1a565b919050565b6000612f4c82612f2e565b9050919050565b612f5c81612f41565b82525050565b60028110612f7357612f72612eeb565b5b50565b6000819050612f8482612f62565b919050565b6000612f9482612f76565b9050919050565b612fa481612f89565b82525050565b604082016000820151612fc06000850182612e4c565b506020820151612fd36020850182612f9b565b50505050565b600081519050919050565b600082825260208201905092915050565b6000819050602082019050919050565b600060408301600083015161301d6000860182612e4c565b50602083015184820360208601526130358282612eb2565b9150508091505092915050565b600061304e8383613005565b905092915050565b6000602082019050919050565b600061306e82612fd9565b6130788185612fe4565b93508360208202850161308a85612ff5565b8060005b858110156130c657848403895281516130a78582613042565b94506130b283613056565b925060208a0199505060018101905061308e565b50829750879550505050505092915050565b600081519050919050565b600082825260208201905092915050565b6000819050602082019050919050565b60408201600082015161311a6000850182612e4c565b50602082015161312d6020850182612e4c565b50505050565b600061313f8383613104565b60408301905092915050565b6000602082019050919050565b6000613163826130d8565b61316d81856130e3565b9350613178836130f4565b8060005b838110156131a95781516131908882613133565b975061319b8361314b565b92505060018101905061317c565b5085935050505092915050565b600081519050919050565b600082825260208201905092915050565b6000819050602082019050919050565b60006131ee8383612eb2565b905092915050565b6000602082019050919050565b600061320e826131b6565b61321881856131c1565b93508360208202850161322a856131d2565b8060005b85811015613266578484038952815161324785826131e2565b9450613252836131f6565b925060208a0199505060018101905061322e565b50829750879550505050505092915050565b60006102008301600083015184820360008601526132968282612eb2565b915050602083015184820360208601526132b08282612eb2565b91505060408301516132c56040860182612f53565b5060608301516132d86060860182612faa565b50608083015184820360a08601526132f08282612eb2565b91505060a083015184820360c086015261330a8282612eb2565b91505060c083015184820360e08601526133248282612eb2565b91505060e083015161333a610100860182612e4c565b5061010083015161334f610120860182612e4c565b50610120830151613364610140860182612e4c565b50610140830151613379610160860182612e4c565b5061016083015161338e610180860182612e4c565b506101808301518482036101a08601526133a88282613063565b9150506101a08301518482036101c08601526133c48282613158565b9150506101c08301518482036101e08601526133e08282613203565b9150508091505092915050565b60006040830160008301516134056000860182612e4c565b506020830151848203602086015261341d8282613278565b9150508091505092915050565b600061343683836133ed565b905092915050565b6000602082019050919050565b600061345682612e16565b6134608185612e21565b93508360208202850161347285612e32565b8060005b858110156134ae578484038952815161348f858261342a565b945061349a8361343e565b925060208a01995050600181019050613476565b50829750879550505050505092915050565b600060208201905081810360008301526134da818461344b565b905092915050565b6000604051905090565b600080fd5b600080fd5b6134ff81612e42565b811461350a57600080fd5b50565b60008135905061351c816134f6565b92915050565b60008060408385031215613539576135386134ec565b5b60006135478582860161350d565b92505060206135588582860161350d565b9150509250929050565b600060208284031215613578576135776134ec565b5b60006135868482850161350d565b91505092915050565b60006040830160008301516135a76000860182612e4c565b50602083015184820360208601526135bf8282613278565b9150508091505092915050565b600060208201905081810360008301526135e6818461358f565b905092915050565b6135f781612e42565b82525050565b600060408201905061361260008301856135ee565b61361f60208301846135ee565b9392505050565b600080fd5b7f4e487b7100000000000000000000000000000000000000000000000000000000600052604160045260246000fd5b61366382612ea1565b810181811067ffffffffffffffff821117156136825761368161362b565b5b80604052505050565b60006136956134e2565b90506136a1828261365a565b919050565b600080fd5b600080fd5b600080fd5b600067ffffffffffffffff8211156136d0576136cf61362b565b5b6136d982612ea1565b9050602081019050919050565b82818337600083830152505050565b6000613708613703846136b5565b61368b565b905082815260208101848484011115613724576137236136b0565b5b61372f8482856136e6565b509392505050565b600082601f83011261374c5761374b6136ab565b5b813561375c8482602086016136f5565b91505092915050565b6004811061377257600080fd5b50565b60008135905061378481613765565b92915050565b6002811061379757600080fd5b50565b6000813590506137a98161378a565b92915050565b6000604082840312156137c5576137c4613626565b5b6137cf604061368b565b905060006137df8482850161350d565b60008301525060206137f38482850161379a565b60208301525092915050565b600067ffffffffffffffff82111561381a5761381961362b565b5b602082029050602081019050919050565b600080fd5b60006040828403121561384657613845613626565b5b613850604061368b565b905060006138608482850161350d565b600083015250602082013567ffffffffffffffff811115613884576138836136a6565b5b61389084828501613737565b60208301525092915050565b60006138af6138aa846137ff565b61368b565b905080838252602082019050602084028301858111156138d2576138d161382b565b5b835b8181101561391957803567ffffffffffffffff8111156138f7576138f66136ab565b5b8086016139048982613830565b855260208501945050506020810190506138d4565b5050509392505050565b600082601f830112613938576139376136ab565b5b813561394884826020860161389c565b91505092915050565b600067ffffffffffffffff82111561396c5761396b61362b565b5b602082029050602081019050919050565b60006040828403121561399357613992613626565b5b61399d604061368b565b905060006139ad8482850161350d565b60008301525060206139c18482850161350d565b60208301525092915050565b60006139e06139db84613951565b61368b565b90508083825260208201905060408402830185811115613a0357613a0261382b565b5b835b81811015613a2c5780613a18888261397d565b845260208401935050604081019050613a05565b5050509392505050565b600082601f830112613a4b57613a4a6136ab565b5b8135613a5b8482602086016139cd565b91505092915050565b600067ffffffffffffffff821115613a7f57613a7e61362b565b5b602082029050602081019050919050565b6000613aa3613a9e84613a64565b61368b565b90508083825260208201905060208402830185811115613ac657613ac561382b565b5b835b81811015613b0d57803567ffffffffffffffff811115613aeb57613aea6136ab565b5b808601613af88982613737565b85526020850194505050602081019050613ac8565b5050509392505050565b600082601f830112613b2c57613b2b6136ab565b5b8135613b3c848260208601613a90565b91505092915050565b60006102008284031215613b5c57613b5b613626565b5b613b676101e061368b565b9050600082013567ffffffffffffffff811115613b8757613b866136a6565b5b613b9384828501613737565b600083015250602082013567ffffffffffffffff811115613bb757613bb66136a6565b5b613bc384828501613737565b6020830152506040613bd784828501613775565b6040830152506060613beb848285016137af565b60608301525060a082013567ffffffffffffffff811115613c0f57613c0e6136a6565b5b613c1b84828501613737565b60808301525060c082013567ffffffffffffffff811115613c3f57613c3e6136a6565b5b613c4b84828501613737565b60a08301525060e082013567ffffffffffffffff811115613c6f57613c6e6136a6565b5b613c7b84828501613737565b60c083015250610100613c908482850161350d565b60e083015250610120613ca58482850161350d565b61010083015250610140613cbb8482850161350d565b61012083015250610160613cd18482850161350d565b61014083015250610180613ce78482850161350d565b610160830152506101a082013567ffffffffffffffff811115613d0d57613d0c6136a6565b5b613d1984828501613923565b610180830152506101c082013567ffffffffffffffff811115613d3f57613d3e6136a6565b5b613d4b84828501613a36565b6101a0830152506101e082013567ffffffffffffffff811115613d7157613d706136a6565b5b613d7d84828501613b17565b6101c08301525092915050565b600060208284031215613da057613d9f6134ec565b5b600082013567ffffffffffffffff811115613dbe57613dbd6134f1565b5b613dca84828501613b45565b91505092915050565b6000602082019050613de860008301846135ee565b92915050565b600080fd5b60008083601f840112613e0957613e086136ab565b5b8235905067ffffffffffffffff811115613e2657613e25613dee565b5b602083019150836020820283011115613e4257613e4161382b565b5b9250929050565b600080600060408486031215613e6257613e616134ec565b5b6000613e708682870161350d565b935050602084013567ffffffffffffffff811115613e9157613e906134f1565b5b613e9d86828701613df3565b92509250509250925092565b60008115159050919050565b613ebe81613ea9565b82525050565b6000602082019050613ed96000830184613eb5565b92915050565b600081519050919050565b600082825260208201905092915050565b6000819050602082019050919050565b6000613f178383612e4c565b60208301905092915050565b6000602082019050919050565b6000613f3b82613edf565b613f458185613eea565b9350613f5083613efb565b8060005b83811015613f81578151613f688882613f0b565b9750613f7383613f23565b925050600181019050613f54565b5085935050505092915050565b60006020820190508181036000830152613fa88184613f30565b905092915050565b60008083601f840112613fc657613fc56136ab565b5b8235905067ffffffffffffffff811115613fe357613fe2613dee565b5b602083019150836001820283011115613fff57613ffe61382b565b5b9250929050565b6000806020838503121561401d5761401c6134ec565b5b600083013567ffffffffffffffff81111561403b5761403a6134f1565b5b61404785828601613fb0565b92509250509250929050565b600082825260208201905092915050565b600061406f826131b6565b6140798185614053565b93508360208202850161408b856131d2565b8060005b858110156140c757848403895281516140a885826131e2565b94506140b3836131f6565b925060208a0199505060018101905061408f565b50829750879550505050505092915050565b600060208201905081810360008301526140f38184614064565b905092915050565b600067ffffffffffffffff8211156141165761411561362b565b5b602082029050602081019050919050565b600061413a614135846140fb565b61368b565b9050808382526020820190506020840283018581111561415d5761415c61382b565b5b835b818110156141865780614172888261350d565b84526020840193505060208101905061415f565b5050509392505050565b600082601f8301126141a5576141a46136ab565b5b81356141b5848260208601614127565b91505092915050565b6000602082840312156141d4576141d36134ec565b5b600082013567ffffffffffffffff8111156141f2576141f16134f1565b5b6141fe84828501614190565b91505092915050565b61421081612f41565b82525050565b600060208201905061422b6000830184614207565b92915050565b600082825260208201905092915050565b600061424d826130d8565b6142578185614231565b9350614262836130f4565b8060005b8381101561429357815161427a8882613133565b97506142858361314b565b925050600181019050614266565b5085935050505092915050565b600060208201905081810360008301526142ba8184614242565b905092915050565b600073ffffffffffffffffffffffffffffffffffffffff82169050919050565b60006142ed826142c2565b9050919050565b6142fd816142e2565b82525050565b600060208201905061431860008301846142f4565b92915050565b61432781613ea9565b811461433257600080fd5b50565b6000815190506143448161431e565b92915050565b6000602082840312156143605761435f6134ec565b5b600061436e84828501614335565b91505092915050565b600082825260208201905092915050565b7f5468652073656e646572206973206e6f742077686974656c6973746564000000600082015250565b60006143be601d83614377565b91506143c982614388565b602082019050919050565b600060208201905081810360008301526143ed816143b1565b9050919050565b600067ffffffffffffffff82111561440f5761440e61362b565b5b602082029050602081019050919050565b60008151905061442f816134f6565b92915050565b6000614448614443846136b5565b61368b565b905082815260208101848484011115614464576144636136b0565b5b61446f848285612e77565b509392505050565b600082601f83011261448c5761448b6136ab565b5b815161449c848260208601614435565b91505092915050565b6000815190506144b481613765565b92915050565b6000815190506144c98161378a565b92915050565b6000604082840312156144e5576144e4613626565b5b6144ef604061368b565b905060006144ff84828501614420565b6000830152506020614513848285016144ba565b60208301525092915050565b60006040828403121561453557614534613626565b5b61453f604061368b565b9050600061454f84828501614420565b600083015250602082015167ffffffffffffffff811115614573576145726136a6565b5b61457f84828501614477565b60208301525092915050565b600061459e614599846137ff565b61368b565b905080838252602082019050602084028301858111156145c1576145c061382b565b5b835b8181101561460857805167ffffffffffffffff8111156145e6576145e56136ab565b5b8086016145f3898261451f565b855260208501945050506020810190506145c3565b5050509392505050565b600082601f830112614627576146266136ab565b5b815161463784826020860161458b565b91505092915050565b60006040828403121561465657614655613626565b5b614660604061368b565b9050600061467084828501614420565b600083015250602061468484828501614420565b60208301525092915050565b60006146a361469e84613951565b61368b565b905080838252602082019050604084028301858111156146c6576146c561382b565b5b835b818110156146ef57806146db8882614640565b8452602084019350506040810190506146c8565b5050509392505050565b600082601f83011261470e5761470d6136ab565b5b815161471e848260208601614690565b91505092915050565b600061473a61473584613a64565b61368b565b9050808382526020820190506020840283018581111561475d5761475c61382b565b5b835b818110156147a457805167ffffffffffffffff811115614782576147816136ab565b5b80860161478f8982614477565b8552602085019450505060208101905061475f565b5050509392505050565b600082601f8301126147c3576147c26136ab565b5b81516147d3848260208601614727565b91505092915050565b600061020082840312156147f3576147f2613626565b5b6147fe6101e061368b565b9050600082015167ffffffffffffffff81111561481e5761481d6136a6565b5b61482a84828501614477565b600083015250602082015167ffffffffffffffff81111561484e5761484d6136a6565b5b61485a84828501614477565b602083015250604061486e848285016144a5565b6040830152506060614882848285016144cf565b60608301525060a082015167ffffffffffffffff8111156148a6576148a56136a6565b5b6148b284828501614477565b60808301525060c082015167ffffffffffffffff8111156148d6576148d56136a6565b5b6148e284828501614477565b60a08301525060e082015167ffffffffffffffff811115614906576149056136a6565b5b61491284828501614477565b60c08301525061010061492784828501614420565b60e08301525061012061493c84828501614420565b6101008301525061014061495284828501614420565b6101208301525061016061496884828501614420565b6101408301525061018061497e84828501614420565b610160830152506101a082015167ffffffffffffffff8111156149a4576149a36136a6565b5b6149b084828501614612565b610180830152506101c082015167ffffffffffffffff8111156149d6576149d56136a6565b5b6149e2848285016146f9565b6101a0830152506101e082015167ffffffffffffffff811115614a0857614a076136a6565b5b614a14848285016147ae565b6101c08301525092915050565b600060408284031215614a3757614a36613626565b5b614a41604061368b565b90506000614a5184828501614420565b600083015250602082015167ffffffffffffffff811115614a7557614a746136a6565b5b614a81848285016147dc565b60208301525092915050565b6000614aa0614a9b846143f4565b61368b565b90508083825260208201905060208402830185811115614ac357614ac261382b565b5b835b81811015614b0a57805167ffffffffffffffff811115614ae857614ae76136ab565b5b808601614af58982614a21565b85526020850194505050602081019050614ac5565b5050509392505050565b600082601f830112614b2957614b286136ab565b5b8151614b39848260208601614a8d565b91505092915050565b600060208284031215614b5857614b576134ec565b5b600082015167ffffffffffffffff811115614b7657614b756134f1565b5b614b8284828501614b14565b91505092915050565b600060208284031215614ba157614ba06134ec565b5b600082015167ffffffffffffffff811115614bbf57614bbe6134f1565b5b614bcb84828501614a21565b91505092915050565b7f4e487b7100000000000000000000000000000000000000000000000000000000600052603260045260246000fd5b7f4e487b7100000000000000000000000000000000000000000000000000000000600052601160045260246000fd5b6000614c3d82612e42565b91507fffffffffffffffffffffffffffffffffffffffffffffffffffffffffffffffff8203614c6f57614c6e614c03565b5b600182019050919050565b6000614c8d614c88846140fb565b61368b565b90508083825260208201905060208402830185811115614cb057614caf61382b565b5b835b81811015614cd95780614cc58882614420565b845260208401935050602081019050614cb2565b5050509392505050565b600082601f830112614cf857614cf76136ab565b5b8151614d08848260208601614c7a565b91505092915050565b600060208284031215614d2757614d266134ec565b5b600082015167ffffffffffffffff811115614d4557614d446134f1565b5b614d5184828501614ce3565b91505092915050565b6000614d668385614377565b9350614d738385846136e6565b614d7c83612ea1565b840190509392505050565b60006020820190508181036000830152614da2818486614d5a565b90509392505050565b600060208284031215614dc157614dc06134ec565b5b600082015167ffffffffffffffff811115614ddf57614dde6134f1565b5b614deb848285016147ae565b91505092915050565b600081905092915050565b6000614e0a82612e5b565b614e148185614df4565b9350614e24818560208601612e77565b80840191505092915050565b7f2063616e6e6f7420626520656d70747900000000000000000000000000000000600082015250565b6000614e66601083614df4565b9150614e7182614e30565b601082019050919050565b6000614e888284614dff565b9150614e9382614e59565b915081905092915050565b6000614ea982612e5b565b614eb38185614377565b9350614ec3818560208601612e77565b614ecc81612ea1565b840191505092915050565b60006020820190508181036000830152614ef18184614e9e565b905092915050565b60008160011c9050919050565b6000808291508390505b6001851115614f5057808604811115614f2c57614f2b614c03565b5b6001851615614f3b5780820291505b8081029050614f4985614ef9565b9450614f10565b94509492505050565b600082614f695760019050615025565b81614f775760009050615025565b8160018114614f8d5760028114614f9757614fc6565b6001915050615025565b60ff841115614fa957614fa8614c03565b5b8360020a915084821115614fc057614fbf614c03565b5b50615025565b5060208310610133831016604e8410600b8410161715614ffb5782820a905083811115614ff657614ff5614c03565b5b615025565b6150088484846001614f06565b9250905081840481111561501f5761501e614c03565b5b81810290505b9392505050565b600061503782612e42565b915061504283612e42565b925061506f7fffffffffffffffffffffffffffffffffffffffffffffffffffffffffffffffff8484614f59565b905092915050565b7f4e487b7100000000000000000000000000000000000000000000000000000000600052601260045260246000fd5b60006150b182612e42565b91506150bc83612e42565b9250826150cc576150cb615077565b5b82820490509291505056fea26469706673582212209b30761f491a9f9181e7d61b29ddc6ce975ffc7b968a7c6b1ba1fa925c53be2164736f6c63430008110033",
  "linkReferences": {},
  "deployedLinkReferences": {}
}