{
  "_format": "hh-sol-artifact-1",
  "contractName": "CourseDataManager",
  "sourceName": "contracts/data/datamanager/CourseDataManager.sol",
  "abi": [
    {
      "inputs": [
        {
          "internalType": "address",
          "name": "courseDataStorageAddress",
          "type": "address"
        },
        {
          "internalType": "address",
          "name": "accessWhitelistAddress",
          "type": "address"
        }
      ],
      "stateMutability": "nonpayable",
      "type": "constructor"
    },
    {
      "inputs": [
        {
          "internalType": "uint256",
          "name": "courseId",
          "type": "uint256"
        },
        {
          "internalType": "uint256[]",
          "name": "lecturerUIds",
          "type": "uint256[]"
        }
      ],
      "name": "addLecturers",
      "outputs": [],
      "stateMutability": "nonpayable",
      "type": "function"
    },
    {
      "inputs": [
        {
          "internalType": "uint256",
          "name": "courseId",
          "type": "uint256"
        },
        {
          "internalType": "uint256",
          "name": "uId",
          "type": "uint256"
        }
      ],
      "name": "addParticipantToCourse",
      "outputs": [],
      "stateMutability": "nonpayable",
      "type": "function"
    },
    {
      "inputs": [
        {
          "internalType": "uint256",
          "name": "courseId",
          "type": "uint256"
        },
        {
          "internalType": "uint256[]",
          "name": "studyProgramIds",
          "type": "uint256[]"
        }
      ],
      "name": "addStudyPrograms",
      "outputs": [],
      "stateMutability": "nonpayable",
      "type": "function"
    },
    {
      "inputs": [
        {
          "components": [
            {
              "internalType": "string",
              "name": "title",
              "type": "string"
            },
            {
              "internalType": "string",
              "name": "code",
              "type": "string"
            },
            {
              "internalType": "enum CourseDataTypes.CourseType",
              "name": "courseType",
              "type": "uint8"
            },
            {
              "components": [
                {
                  "internalType": "uint256",
                  "name": "year",
                  "type": "uint256"
                },
                {
                  "internalType": "enum CourseDataTypes.SemesterSeason",
                  "name": "season",
                  "type": "uint8"
                }
              ],
              "internalType": "struct CourseDataTypes.Semester",
              "name": "semester",
              "type": "tuple"
            },
            {
              "internalType": "string",
              "name": "description",
              "type": "string"
            },
            {
              "internalType": "string",
              "name": "examTopics",
              "type": "string"
            },
            {
              "internalType": "string",
              "name": "language",
              "type": "string"
            },
            {
              "internalType": "uint256",
              "name": "ects",
              "type": "uint256"
            },
            {
              "internalType": "uint256",
              "name": "maxPlaces",
              "type": "uint256"
            },
            {
              "internalType": "uint256",
              "name": "registrationStart",
              "type": "uint256"
            },
            {
              "internalType": "uint256",
              "name": "registrationDeadline",
              "type": "uint256"
            },
            {
              "internalType": "uint256",
              "name": "deregistrationDeadline",
              "type": "uint256"
            },
            {
              "components": [
                {
                  "internalType": "uint256",
                  "name": "datetime",
                  "type": "uint256"
                },
                {
                  "internalType": "string",
                  "name": "place",
                  "type": "string"
                }
              ],
              "internalType": "struct CourseDataTypes.Class[]",
              "name": "classes",
              "type": "tuple[]"
            },
            {
              "components": [
                {
                  "internalType": "uint256",
                  "name": "grade",
                  "type": "uint256"
                },
                {
                  "internalType": "uint256",
                  "name": "minPercentage",
                  "type": "uint256"
                }
              ],
              "internalType": "struct CourseDataTypes.GradeLevel[]",
              "name": "gradeLevels",
              "type": "tuple[]"
            },
            {
              "internalType": "string[]",
              "name": "requirementCourseCodes",
              "type": "string[]"
            }
          ],
          "internalType": "struct CourseDataTypes.CourseContent",
          "name": "courseContent",
          "type": "tuple"
        }
      ],
      "name": "createCourse",
      "outputs": [
        {
          "internalType": "uint256",
          "name": "",
          "type": "uint256"
        }
      ],
      "stateMutability": "nonpayable",
      "type": "function"
    },
    {
      "inputs": [],
      "name": "getAllCourseCodes",
      "outputs": [
        {
          "internalType": "string[]",
          "name": "",
          "type": "string[]"
        }
      ],
      "stateMutability": "view",
      "type": "function"
    },
    {
      "inputs": [],
      "name": "getAllCourses",
      "outputs": [
        {
          "components": [
            {
              "internalType": "uint256",
              "name": "courseId",
              "type": "uint256"
            },
            {
              "components": [
                {
                  "internalType": "string",
                  "name": "title",
                  "type": "string"
                },
                {
                  "internalType": "string",
                  "name": "code",
                  "type": "string"
                },
                {
                  "internalType": "enum CourseDataTypes.CourseType",
                  "name": "courseType",
                  "type": "uint8"
                },
                {
                  "components": [
                    {
                      "internalType": "uint256",
                      "name": "year",
                      "type": "uint256"
                    },
                    {
                      "internalType": "enum CourseDataTypes.SemesterSeason",
                      "name": "season",
                      "type": "uint8"
                    }
                  ],
                  "internalType": "struct CourseDataTypes.Semester",
                  "name": "semester",
                  "type": "tuple"
                },
                {
                  "internalType": "string",
                  "name": "description",
                  "type": "string"
                },
                {
                  "internalType": "string",
                  "name": "examTopics",
                  "type": "string"
                },
                {
                  "internalType": "string",
                  "name": "language",
                  "type": "string"
                },
                {
                  "internalType": "uint256",
                  "name": "ects",
                  "type": "uint256"
                },
                {
                  "internalType": "uint256",
                  "name": "maxPlaces",
                  "type": "uint256"
                },
                {
                  "internalType": "uint256",
                  "name": "registrationStart",
                  "type": "uint256"
                },
                {
                  "internalType": "uint256",
                  "name": "registrationDeadline",
                  "type": "uint256"
                },
                {
                  "internalType": "uint256",
                  "name": "deregistrationDeadline",
                  "type": "uint256"
                },
                {
                  "components": [
                    {
                      "internalType": "uint256",
                      "name": "datetime",
                      "type": "uint256"
                    },
                    {
                      "internalType": "string",
                      "name": "place",
                      "type": "string"
                    }
                  ],
                  "internalType": "struct CourseDataTypes.Class[]",
                  "name": "classes",
                  "type": "tuple[]"
                },
                {
                  "components": [
                    {
                      "internalType": "uint256",
                      "name": "grade",
                      "type": "uint256"
                    },
                    {
                      "internalType": "uint256",
                      "name": "minPercentage",
                      "type": "uint256"
                    }
                  ],
                  "internalType": "struct CourseDataTypes.GradeLevel[]",
                  "name": "gradeLevels",
                  "type": "tuple[]"
                },
                {
                  "internalType": "string[]",
                  "name": "requirementCourseCodes",
                  "type": "string[]"
                }
              ],
              "internalType": "struct CourseDataTypes.CourseContent",
              "name": "content",
              "type": "tuple"
            }
          ],
          "internalType": "struct CourseDataTypes.Course[]",
          "name": "",
          "type": "tuple[]"
        }
      ],
      "stateMutability": "view",
      "type": "function"
    },
    {
      "inputs": [
        {
          "internalType": "uint256",
          "name": "courseId",
          "type": "uint256"
        }
      ],
      "name": "getCourse",
      "outputs": [
        {
          "components": [
            {
              "internalType": "uint256",
              "name": "courseId",
              "type": "uint256"
            },
            {
              "components": [
                {
                  "internalType": "string",
                  "name": "title",
                  "type": "string"
                },
                {
                  "internalType": "string",
                  "name": "code",
                  "type": "string"
                },
                {
                  "internalType": "enum CourseDataTypes.CourseType",
                  "name": "courseType",
                  "type": "uint8"
                },
                {
                  "components": [
                    {
                      "internalType": "uint256",
                      "name": "year",
                      "type": "uint256"
                    },
                    {
                      "internalType": "enum CourseDataTypes.SemesterSeason",
                      "name": "season",
                      "type": "uint8"
                    }
                  ],
                  "internalType": "struct CourseDataTypes.Semester",
                  "name": "semester",
                  "type": "tuple"
                },
                {
                  "internalType": "string",
                  "name": "description",
                  "type": "string"
                },
                {
                  "internalType": "string",
                  "name": "examTopics",
                  "type": "string"
                },
                {
                  "internalType": "string",
                  "name": "language",
                  "type": "string"
                },
                {
                  "internalType": "uint256",
                  "name": "ects",
                  "type": "uint256"
                },
                {
                  "internalType": "uint256",
                  "name": "maxPlaces",
                  "type": "uint256"
                },
                {
                  "internalType": "uint256",
                  "name": "registrationStart",
                  "type": "uint256"
                },
                {
                  "internalType": "uint256",
                  "name": "registrationDeadline",
                  "type": "uint256"
                },
                {
                  "internalType": "uint256",
                  "name": "deregistrationDeadline",
                  "type": "uint256"
                },
                {
                  "components": [
                    {
                      "internalType": "uint256",
                      "name": "datetime",
                      "type": "uint256"
                    },
                    {
                      "internalType": "string",
                      "name": "place",
                      "type": "string"
                    }
                  ],
                  "internalType": "struct CourseDataTypes.Class[]",
                  "name": "classes",
                  "type": "tuple[]"
                },
                {
                  "components": [
                    {
                      "internalType": "uint256",
                      "name": "grade",
                      "type": "uint256"
                    },
                    {
                      "internalType": "uint256",
                      "name": "minPercentage",
                      "type": "uint256"
                    }
                  ],
                  "internalType": "struct CourseDataTypes.GradeLevel[]",
                  "name": "gradeLevels",
                  "type": "tuple[]"
                },
                {
                  "internalType": "string[]",
                  "name": "requirementCourseCodes",
                  "type": "string[]"
                }
              ],
              "internalType": "struct CourseDataTypes.CourseContent",
              "name": "content",
              "type": "tuple"
            }
          ],
          "internalType": "struct CourseDataTypes.Course",
          "name": "",
          "type": "tuple"
        }
      ],
      "stateMutability": "view",
      "type": "function"
    },
    {
      "inputs": [
        {
          "internalType": "uint256",
          "name": "courseId",
          "type": "uint256"
        }
      ],
      "name": "getCourseDeregistrationPeriod",
      "outputs": [
        {
          "internalType": "uint256",
          "name": "",
          "type": "uint256"
        },
        {
          "internalType": "uint256",
          "name": "",
          "type": "uint256"
        }
      ],
      "stateMutability": "view",
      "type": "function"
    },
    {
      "inputs": [
        {
          "internalType": "string",
          "name": "courseCode",
          "type": "string"
        }
      ],
      "name": "getCourseIdsToCourseCode",
      "outputs": [
        {
          "internalType": "uint256[]",
          "name": "",
          "type": "uint256[]"
        }
      ],
      "stateMutability": "view",
      "type": "function"
    },
    {
      "inputs": [
        {
          "internalType": "uint256",
          "name": "courseId",
          "type": "uint256"
        }
      ],
      "name": "getCourseMaxPlaces",
      "outputs": [
        {
          "internalType": "uint256",
          "name": "",
          "type": "uint256"
        }
      ],
      "stateMutability": "view",
      "type": "function"
    },
    {
      "inputs": [
        {
          "internalType": "uint256",
          "name": "courseId",
          "type": "uint256"
        }
      ],
      "name": "getCourseParticipantIds",
      "outputs": [
        {
          "internalType": "uint256[]",
          "name": "",
          "type": "uint256[]"
        }
      ],
      "stateMutability": "view",
      "type": "function"
    },
    {
      "inputs": [
        {
          "internalType": "uint256",
          "name": "courseId",
          "type": "uint256"
        }
      ],
      "name": "getCourseRegistrationPeriod",
      "outputs": [
        {
          "internalType": "uint256",
          "name": "",
          "type": "uint256"
        },
        {
          "internalType": "uint256",
          "name": "",
          "type": "uint256"
        }
      ],
      "stateMutability": "view",
      "type": "function"
    },
    {
      "inputs": [
        {
          "internalType": "uint256",
          "name": "courseId",
          "type": "uint256"
        }
      ],
      "name": "getCourseType",
      "outputs": [
        {
          "internalType": "enum CourseDataTypes.CourseType",
          "name": "",
          "type": "uint8"
        }
      ],
      "stateMutability": "view",
      "type": "function"
    },
    {
      "inputs": [
        {
          "internalType": "uint256[]",
          "name": "courseIds",
          "type": "uint256[]"
        }
      ],
      "name": "getCoursesToCourseIds",
      "outputs": [
        {
          "components": [
            {
              "internalType": "uint256",
              "name": "courseId",
              "type": "uint256"
            },
            {
              "components": [
                {
                  "internalType": "string",
                  "name": "title",
                  "type": "string"
                },
                {
                  "internalType": "string",
                  "name": "code",
                  "type": "string"
                },
                {
                  "internalType": "enum CourseDataTypes.CourseType",
                  "name": "courseType",
                  "type": "uint8"
                },
                {
                  "components": [
                    {
                      "internalType": "uint256",
                      "name": "year",
                      "type": "uint256"
                    },
                    {
                      "internalType": "enum CourseDataTypes.SemesterSeason",
                      "name": "season",
                      "type": "uint8"
                    }
                  ],
                  "internalType": "struct CourseDataTypes.Semester",
                  "name": "semester",
                  "type": "tuple"
                },
                {
                  "internalType": "string",
                  "name": "description",
                  "type": "string"
                },
                {
                  "internalType": "string",
                  "name": "examTopics",
                  "type": "string"
                },
                {
                  "internalType": "string",
                  "name": "language",
                  "type": "string"
                },
                {
                  "internalType": "uint256",
                  "name": "ects",
                  "type": "uint256"
                },
                {
                  "internalType": "uint256",
                  "name": "maxPlaces",
                  "type": "uint256"
                },
                {
                  "internalType": "uint256",
                  "name": "registrationStart",
                  "type": "uint256"
                },
                {
                  "internalType": "uint256",
                  "name": "registrationDeadline",
                  "type": "uint256"
                },
                {
                  "internalType": "uint256",
                  "name": "deregistrationDeadline",
                  "type": "uint256"
                },
                {
                  "components": [
                    {
                      "internalType": "uint256",
                      "name": "datetime",
                      "type": "uint256"
                    },
                    {
                      "internalType": "string",
                      "name": "place",
                      "type": "string"
                    }
                  ],
                  "internalType": "struct CourseDataTypes.Class[]",
                  "name": "classes",
                  "type": "tuple[]"
                },
                {
                  "components": [
                    {
                      "internalType": "uint256",
                      "name": "grade",
                      "type": "uint256"
                    },
                    {
                      "internalType": "uint256",
                      "name": "minPercentage",
                      "type": "uint256"
                    }
                  ],
                  "internalType": "struct CourseDataTypes.GradeLevel[]",
                  "name": "gradeLevels",
                  "type": "tuple[]"
                },
                {
                  "internalType": "string[]",
                  "name": "requirementCourseCodes",
                  "type": "string[]"
                }
              ],
              "internalType": "struct CourseDataTypes.CourseContent",
              "name": "content",
              "type": "tuple"
            }
          ],
          "internalType": "struct CourseDataTypes.Course[]",
          "name": "",
          "type": "tuple[]"
        }
      ],
      "stateMutability": "view",
      "type": "function"
    },
    {
      "inputs": [
        {
          "internalType": "uint256",
          "name": "uId",
          "type": "uint256"
        }
      ],
      "name": "getCoursesToLecturer",
      "outputs": [
        {
          "components": [
            {
              "internalType": "uint256",
              "name": "courseId",
              "type": "uint256"
            },
            {
              "components": [
                {
                  "internalType": "string",
                  "name": "title",
                  "type": "string"
                },
                {
                  "internalType": "string",
                  "name": "code",
                  "type": "string"
                },
                {
                  "internalType": "enum CourseDataTypes.CourseType",
                  "name": "courseType",
                  "type": "uint8"
                },
                {
                  "components": [
                    {
                      "internalType": "uint256",
                      "name": "year",
                      "type": "uint256"
                    },
                    {
                      "internalType": "enum CourseDataTypes.SemesterSeason",
                      "name": "season",
                      "type": "uint8"
                    }
                  ],
                  "internalType": "struct CourseDataTypes.Semester",
                  "name": "semester",
                  "type": "tuple"
                },
                {
                  "internalType": "string",
                  "name": "description",
                  "type": "string"
                },
                {
                  "internalType": "string",
                  "name": "examTopics",
                  "type": "string"
                },
                {
                  "internalType": "string",
                  "name": "language",
                  "type": "string"
                },
                {
                  "internalType": "uint256",
                  "name": "ects",
                  "type": "uint256"
                },
                {
                  "internalType": "uint256",
                  "name": "maxPlaces",
                  "type": "uint256"
                },
                {
                  "internalType": "uint256",
                  "name": "registrationStart",
                  "type": "uint256"
                },
                {
                  "internalType": "uint256",
                  "name": "registrationDeadline",
                  "type": "uint256"
                },
                {
                  "internalType": "uint256",
                  "name": "deregistrationDeadline",
                  "type": "uint256"
                },
                {
                  "components": [
                    {
                      "internalType": "uint256",
                      "name": "datetime",
                      "type": "uint256"
                    },
                    {
                      "internalType": "string",
                      "name": "place",
                      "type": "string"
                    }
                  ],
                  "internalType": "struct CourseDataTypes.Class[]",
                  "name": "classes",
                  "type": "tuple[]"
                },
                {
                  "components": [
                    {
                      "internalType": "uint256",
                      "name": "grade",
                      "type": "uint256"
                    },
                    {
                      "internalType": "uint256",
                      "name": "minPercentage",
                      "type": "uint256"
                    }
                  ],
                  "internalType": "struct CourseDataTypes.GradeLevel[]",
                  "name": "gradeLevels",
                  "type": "tuple[]"
                },
                {
                  "internalType": "string[]",
                  "name": "requirementCourseCodes",
                  "type": "string[]"
                }
              ],
              "internalType": "struct CourseDataTypes.CourseContent",
              "name": "content",
              "type": "tuple"
            }
          ],
          "internalType": "struct CourseDataTypes.Course[]",
          "name": "",
          "type": "tuple[]"
        }
      ],
      "stateMutability": "view",
      "type": "function"
    },
    {
      "inputs": [
        {
          "internalType": "uint256",
          "name": "programId",
          "type": "uint256"
        }
      ],
      "name": "getCoursesToProgramId",
      "outputs": [
        {
          "components": [
            {
              "internalType": "uint256",
              "name": "courseId",
              "type": "uint256"
            },
            {
              "components": [
                {
                  "internalType": "string",
                  "name": "title",
                  "type": "string"
                },
                {
                  "internalType": "string",
                  "name": "code",
                  "type": "string"
                },
                {
                  "internalType": "enum CourseDataTypes.CourseType",
                  "name": "courseType",
                  "type": "uint8"
                },
                {
                  "components": [
                    {
                      "internalType": "uint256",
                      "name": "year",
                      "type": "uint256"
                    },
                    {
                      "internalType": "enum CourseDataTypes.SemesterSeason",
                      "name": "season",
                      "type": "uint8"
                    }
                  ],
                  "internalType": "struct CourseDataTypes.Semester",
                  "name": "semester",
                  "type": "tuple"
                },
                {
                  "internalType": "string",
                  "name": "description",
                  "type": "string"
                },
                {
                  "internalType": "string",
                  "name": "examTopics",
                  "type": "string"
                },
                {
                  "internalType": "string",
                  "name": "language",
                  "type": "string"
                },
                {
                  "internalType": "uint256",
                  "name": "ects",
                  "type": "uint256"
                },
                {
                  "internalType": "uint256",
                  "name": "maxPlaces",
                  "type": "uint256"
                },
                {
                  "internalType": "uint256",
                  "name": "registrationStart",
                  "type": "uint256"
                },
                {
                  "internalType": "uint256",
                  "name": "registrationDeadline",
                  "type": "uint256"
                },
                {
                  "internalType": "uint256",
                  "name": "deregistrationDeadline",
                  "type": "uint256"
                },
                {
                  "components": [
                    {
                      "internalType": "uint256",
                      "name": "datetime",
                      "type": "uint256"
                    },
                    {
                      "internalType": "string",
                      "name": "place",
                      "type": "string"
                    }
                  ],
                  "internalType": "struct CourseDataTypes.Class[]",
                  "name": "classes",
                  "type": "tuple[]"
                },
                {
                  "components": [
                    {
                      "internalType": "uint256",
                      "name": "grade",
                      "type": "uint256"
                    },
                    {
                      "internalType": "uint256",
                      "name": "minPercentage",
                      "type": "uint256"
                    }
                  ],
                  "internalType": "struct CourseDataTypes.GradeLevel[]",
                  "name": "gradeLevels",
                  "type": "tuple[]"
                },
                {
                  "internalType": "string[]",
                  "name": "requirementCourseCodes",
                  "type": "string[]"
                }
              ],
              "internalType": "struct CourseDataTypes.CourseContent",
              "name": "content",
              "type": "tuple"
            }
          ],
          "internalType": "struct CourseDataTypes.Course[]",
          "name": "",
          "type": "tuple[]"
        }
      ],
      "stateMutability": "view",
      "type": "function"
    },
    {
      "inputs": [
        {
          "internalType": "uint256",
          "name": "uId",
          "type": "uint256"
        }
      ],
      "name": "getCoursesToStudent",
      "outputs": [
        {
          "components": [
            {
              "internalType": "uint256",
              "name": "courseId",
              "type": "uint256"
            },
            {
              "components": [
                {
                  "internalType": "string",
                  "name": "title",
                  "type": "string"
                },
                {
                  "internalType": "string",
                  "name": "code",
                  "type": "string"
                },
                {
                  "internalType": "enum CourseDataTypes.CourseType",
                  "name": "courseType",
                  "type": "uint8"
                },
                {
                  "components": [
                    {
                      "internalType": "uint256",
                      "name": "year",
                      "type": "uint256"
                    },
                    {
                      "internalType": "enum CourseDataTypes.SemesterSeason",
                      "name": "season",
                      "type": "uint8"
                    }
                  ],
                  "internalType": "struct CourseDataTypes.Semester",
                  "name": "semester",
                  "type": "tuple"
                },
                {
                  "internalType": "string",
                  "name": "description",
                  "type": "string"
                },
                {
                  "internalType": "string",
                  "name": "examTopics",
                  "type": "string"
                },
                {
                  "internalType": "string",
                  "name": "language",
                  "type": "string"
                },
                {
                  "internalType": "uint256",
                  "name": "ects",
                  "type": "uint256"
                },
                {
                  "internalType": "uint256",
                  "name": "maxPlaces",
                  "type": "uint256"
                },
                {
                  "internalType": "uint256",
                  "name": "registrationStart",
                  "type": "uint256"
                },
                {
                  "internalType": "uint256",
                  "name": "registrationDeadline",
                  "type": "uint256"
                },
                {
                  "internalType": "uint256",
                  "name": "deregistrationDeadline",
                  "type": "uint256"
                },
                {
                  "components": [
                    {
                      "internalType": "uint256",
                      "name": "datetime",
                      "type": "uint256"
                    },
                    {
                      "internalType": "string",
                      "name": "place",
                      "type": "string"
                    }
                  ],
                  "internalType": "struct CourseDataTypes.Class[]",
                  "name": "classes",
                  "type": "tuple[]"
                },
                {
                  "components": [
                    {
                      "internalType": "uint256",
                      "name": "grade",
                      "type": "uint256"
                    },
                    {
                      "internalType": "uint256",
                      "name": "minPercentage",
                      "type": "uint256"
                    }
                  ],
                  "internalType": "struct CourseDataTypes.GradeLevel[]",
                  "name": "gradeLevels",
                  "type": "tuple[]"
                },
                {
                  "internalType": "string[]",
                  "name": "requirementCourseCodes",
                  "type": "string[]"
                }
              ],
              "internalType": "struct CourseDataTypes.CourseContent",
              "name": "content",
              "type": "tuple"
            }
          ],
          "internalType": "struct CourseDataTypes.Course[]",
          "name": "",
          "type": "tuple[]"
        }
      ],
      "stateMutability": "view",
      "type": "function"
    },
    {
      "inputs": [
        {
          "internalType": "uint256",
          "name": "courseId",
          "type": "uint256"
        }
      ],
      "name": "getGradeLevels",
      "outputs": [
        {
          "components": [
            {
              "internalType": "uint256",
              "name": "grade",
              "type": "uint256"
            },
            {
              "internalType": "uint256",
              "name": "minPercentage",
              "type": "uint256"
            }
          ],
          "internalType": "struct CourseDataTypes.GradeLevel[]",
          "name": "",
          "type": "tuple[]"
        }
      ],
      "stateMutability": "view",
      "type": "function"
    },
    {
      "inputs": [
        {
          "internalType": "uint256",
          "name": "courseId",
          "type": "uint256"
        }
      ],
      "name": "getLecturerUIdsOfCourseId",
      "outputs": [
        {
          "internalType": "uint256[]",
          "name": "",
          "type": "uint256[]"
        }
      ],
      "stateMutability": "view",
      "type": "function"
    },
    {
      "inputs": [
        {
          "internalType": "uint256",
          "name": "courseId",
          "type": "uint256"
        }
      ],
      "name": "getRequirementCourseCodesOfCourse",
      "outputs": [
        {
          "internalType": "string[]",
          "name": "",
          "type": "string[]"
        }
      ],
      "stateMutability": "view",
      "type": "function"
    },
    {
      "inputs": [
        {
          "internalType": "uint256",
          "name": "courseId",
          "type": "uint256"
        }
      ],
      "name": "getStudyProgramIdsOfCourse",
      "outputs": [
        {
          "internalType": "uint256[]",
          "name": "",
          "type": "uint256[]"
        }
      ],
      "stateMutability": "view",
      "type": "function"
    },
    {
      "inputs": [
        {
          "internalType": "uint256",
          "name": "courseId",
          "type": "uint256"
        },
        {
          "internalType": "uint256",
          "name": "uId",
          "type": "uint256"
        }
      ],
      "name": "removeParticipantFromCourse",
      "outputs": [],
      "stateMutability": "nonpayable",
      "type": "function"
    }
  ],
  "bytecode": "0x608060405262000019620000e560201b620029161760201c565b60026000820151816000015550503480156200003457600080fd5b5060405162004f8b38038062004f8b83398181016040528101906200005a919062000181565b80806000806101000a81548173ffffffffffffffffffffffffffffffffffffffff021916908373ffffffffffffffffffffffffffffffffffffffff1602179055505081600160006101000a81548173ffffffffffffffffffffffffffffffffffffffff021916908373ffffffffffffffffffffffffffffffffffffffff1602179055505050620001c8565b620000ef62000104565b60405180602001604052806001815250905090565b6040518060200160405280600081525090565b600080fd5b600073ffffffffffffffffffffffffffffffffffffffff82169050919050565b600062000149826200011c565b9050919050565b6200015b816200013c565b81146200016757600080fd5b50565b6000815190506200017b8162000150565b92915050565b600080604083850312156200019b576200019a62000117565b5b6000620001ab858286016200016a565b9250506020620001be858286016200016a565b9150509250929050565b614db380620001d86000396000f3fe608060405234801561001057600080fd5b50600436106101425760003560e01c806389eb61df116100b8578063bef7a5711161007c578063bef7a571146103e7578063cf6c702d14610405578063d56e8ee214610435578063dddd64a014610465578063e9c0844a14610495578063f0659248146104c557610142565b806389eb61df146102f6578063916ae6bb14610326578063ab342b8b14610356578063ad21e07a14610387578063bd9c1b50146103b757610142565b806316d64af71161010a57806316d64af71461021257806348cd378c1461022e5780635268561f1461025e57806354ace6bc1461028e5780636f4f5878146102aa5780637499e5dc146102da57610142565b806304e48bd11461014757806308ddb518146101655780630b91e28d146101815780630e84e79c146101b1578063151c09f1146101e2575b600080fd5b61014f6104f5565b60405161015c9190613190565b60405180910390f35b61017f600480360381019061017a91906131f2565b61066b565b005b61019b60048036038101906101969190613232565b6107d7565b6040516101a8919061329c565b60405180910390f35b6101cb60048036038101906101c69190613232565b610960565b6040516101d99291906132cd565b60405180910390f35b6101fc60048036038101906101f79190613a5a565b610b99565b6040516102099190613aa3565b60405180910390f35b61022c60048036038101906102279190613b19565b610e6d565b005b61024860048036038101906102439190613232565b611013565b6040516102559190613c28565b60405180910390f35b61027860048036038101906102739190613232565b611196565b6040516102859190613190565b60405180910390f35b6102a860048036038101906102a391906131f2565b611321565b005b6102c460048036038101906102bf9190613232565b61148d565b6040516102d19190613c28565b60405180910390f35b6102f460048036038101906102ef9190613b19565b611610565b005b610310600480360381019061030b9190613ca0565b6117b6565b60405161031d9190613c28565b60405180910390f35b610340600480360381019061033b9190613232565b61193c565b60405161034d9190613190565b60405180910390f35b610370600480360381019061036b9190613232565b611ac7565b60405161037e9291906132cd565b60405180910390f35b6103a1600480360381019061039c9190613232565b611d00565b6040516103ae9190613d73565b60405180910390f35b6103d160048036038101906103cc9190613232565b611e92565b6040516103de9190613c28565b60405180910390f35b6103ef612015565b6040516103fc9190613d73565b60405180910390f35b61041f600480360381019061041a9190613e58565b61218b565b60405161042c9190613190565b60405180910390f35b61044f600480360381019061044a9190613232565b6122e6565b60405161045c9190613190565b60405180910390f35b61047f600480360381019061047a9190613232565b612471565b60405161048c9190613aa3565b60405180910390f35b6104af60048036038101906104aa9190613232565b6125fe565b6040516104bc9190613eb0565b60405180910390f35b6104df60048036038101906104da9190613232565b61278a565b6040516104ec9190613f3a565b60405180910390f35b606060008054906101000a900473ffffffffffffffffffffffffffffffffffffffff1673ffffffffffffffffffffffffffffffffffffffff166313f44d10336040518263ffffffff1660e01b81526004016105509190613f9d565b602060405180830381865afa15801561056d573d6000803e3d6000fd5b505050506040513d601f19601f820116820180604052508101906105919190613ff0565b6105d0576040517f08c379a00000000000000000000000000000000000000000000000000000000081526004016105c79061407a565b60405180910390fd5b600160009054906101000a900473ffffffffffffffffffffffffffffffffffffffff1673ffffffffffffffffffffffffffffffffffffffff166304e48bd16040518163ffffffff1660e01b8152600401600060405180830381865afa15801561063d573d6000803e3d6000fd5b505050506040513d6000823e3d601f19601f8201168201806040525081019061066691906147e8565b905090565b60008054906101000a900473ffffffffffffffffffffffffffffffffffffffff1673ffffffffffffffffffffffffffffffffffffffff166313f44d10336040518263ffffffff1660e01b81526004016106c49190613f9d565b602060405180830381865afa1580156106e1573d6000803e3d6000fd5b505050506040513d601f19601f820116820180604052508101906107059190613ff0565b610744576040517f08c379a000000000000000000000000000000000000000000000000000000000815260040161073b9061407a565b60405180910390fd5b600160009054906101000a900473ffffffffffffffffffffffffffffffffffffffff1673ffffffffffffffffffffffffffffffffffffffff16634c40edf583836040518363ffffffff1660e01b81526004016107a19291906132cd565b600060405180830381600087803b1580156107bb57600080fd5b505af11580156107cf573d6000803e3d6000fd5b505050505050565b6107df6129f9565b60008054906101000a900473ffffffffffffffffffffffffffffffffffffffff1673ffffffffffffffffffffffffffffffffffffffff166313f44d10336040518263ffffffff1660e01b81526004016108389190613f9d565b602060405180830381865afa158015610855573d6000803e3d6000fd5b505050506040513d601f19601f820116820180604052508101906108799190613ff0565b6108b8576040517f08c379a00000000000000000000000000000000000000000000000000000000081526004016108af9061407a565b60405180910390fd5b600160009054906101000a900473ffffffffffffffffffffffffffffffffffffffff1673ffffffffffffffffffffffffffffffffffffffff16630b91e28d836040518263ffffffff1660e01b81526004016109139190613aa3565b600060405180830381865afa158015610930573d6000803e3d6000fd5b505050506040513d6000823e3d601f19601f820116820180604052508101906109599190614831565b9050919050565b60008060008054906101000a900473ffffffffffffffffffffffffffffffffffffffff1673ffffffffffffffffffffffffffffffffffffffff166313f44d10336040518263ffffffff1660e01b81526004016109bc9190613f9d565b602060405180830381865afa1580156109d9573d6000803e3d6000fd5b505050506040513d601f19601f820116820180604052508101906109fd9190613ff0565b610a3c576040517f08c379a0000000000000000000000000000000000000000000000000000000008152600401610a339061407a565b60405180910390fd5b600160009054906101000a900473ffffffffffffffffffffffffffffffffffffffff1673ffffffffffffffffffffffffffffffffffffffff16630b91e28d846040518263ffffffff1660e01b8152600401610a979190613aa3565b600060405180830381865afa158015610ab4573d6000803e3d6000fd5b505050506040513d6000823e3d601f19601f82011682018060405250810190610add9190614831565b602001516101200151600160009054906101000a900473ffffffffffffffffffffffffffffffffffffffff1673ffffffffffffffffffffffffffffffffffffffff16630b91e28d856040518263ffffffff1660e01b8152600401610b419190613aa3565b600060405180830381865afa158015610b5e573d6000803e3d6000fd5b505050506040513d6000823e3d601f19601f82011682018060405250810190610b879190614831565b60200151610160015191509150915091565b60008060009054906101000a900473ffffffffffffffffffffffffffffffffffffffff1673ffffffffffffffffffffffffffffffffffffffff166313f44d10336040518263ffffffff1660e01b8152600401610bf59190613f9d565b602060405180830381865afa158015610c12573d6000803e3d6000fd5b505050506040513d601f19601f82011682018060405250810190610c369190613ff0565b610c75576040517f08c379a0000000000000000000000000000000000000000000000000000000008152600401610c6c9061407a565b60405180910390fd5b610cb882600001516040518060400160405280600581526020017f5469746c65000000000000000000000000000000000000000000000000000000815250612933565b610cfb82602001516040518060400160405280600b81526020017f436f7572736520636f6465000000000000000000000000000000000000000000815250612933565b610d3e8260c001516040518060400160405280600881526020017f4c616e6775616765000000000000000000000000000000000000000000000000815250612933565b60005b826101a0015151811015610db457610d7b836101a001518281518110610d6a57610d6961487a565b5b60200260200101516020015161299e565b836101a001518281518110610d9357610d9261487a565b5b6020026020010151602001818152505080610dad906148d8565b9050610d41565b506000610dc160026129d7565b9050600160009054906101000a900473ffffffffffffffffffffffffffffffffffffffff1673ffffffffffffffffffffffffffffffffffffffff1663cc422ded6040518060400160405280848152602001868152506040518263ffffffff1660e01b8152600401610e32919061329c565b600060405180830381600087803b158015610e4c57600080fd5b505af1158015610e60573d6000803e3d6000fd5b5050505080915050919050565b60008054906101000a900473ffffffffffffffffffffffffffffffffffffffff1673ffffffffffffffffffffffffffffffffffffffff166313f44d10336040518263ffffffff1660e01b8152600401610ec69190613f9d565b602060405180830381865afa158015610ee3573d6000803e3d6000fd5b505050506040513d601f19601f82011682018060405250810190610f079190613ff0565b610f46576040517f08c379a0000000000000000000000000000000000000000000000000000000008152600401610f3d9061407a565b60405180910390fd5b60005b8282905081101561100d57600160009054906101000a900473ffffffffffffffffffffffffffffffffffffffff1673ffffffffffffffffffffffffffffffffffffffff1663be398d8785858585818110610fa657610fa561487a565b5b905060200201356040518363ffffffff1660e01b8152600401610fca9291906132cd565b600060405180830381600087803b158015610fe457600080fd5b505af1158015610ff8573d6000803e3d6000fd5b5050505080611006906148d8565b9050610f49565b50505050565b606060008054906101000a900473ffffffffffffffffffffffffffffffffffffffff1673ffffffffffffffffffffffffffffffffffffffff166313f44d10336040518263ffffffff1660e01b815260040161106e9190613f9d565b602060405180830381865afa15801561108b573d6000803e3d6000fd5b505050506040513d601f19601f820116820180604052508101906110af9190613ff0565b6110ee576040517f08c379a00000000000000000000000000000000000000000000000000000000081526004016110e59061407a565b60405180910390fd5b600160009054906101000a900473ffffffffffffffffffffffffffffffffffffffff1673ffffffffffffffffffffffffffffffffffffffff166348cd378c836040518263ffffffff1660e01b81526004016111499190613aa3565b600060405180830381865afa158015611166573d6000803e3d6000fd5b505050506040513d6000823e3d601f19601f8201168201806040525081019061118f91906149b7565b9050919050565b606060008054906101000a900473ffffffffffffffffffffffffffffffffffffffff1673ffffffffffffffffffffffffffffffffffffffff166313f44d10336040518263ffffffff1660e01b81526004016111f19190613f9d565b602060405180830381865afa15801561120e573d6000803e3d6000fd5b505050506040513d601f19601f820116820180604052508101906112329190613ff0565b611271576040517f08c379a00000000000000000000000000000000000000000000000000000000081526004016112689061407a565b60405180910390fd5b61131a600160009054906101000a900473ffffffffffffffffffffffffffffffffffffffff1673ffffffffffffffffffffffffffffffffffffffff1663e22cad07846040518263ffffffff1660e01b81526004016112cf9190613aa3565b600060405180830381865afa1580156112ec573d6000803e3d6000fd5b505050506040513d6000823e3d601f19601f8201168201806040525081019061131591906149b7565b61218b565b9050919050565b60008054906101000a900473ffffffffffffffffffffffffffffffffffffffff1673ffffffffffffffffffffffffffffffffffffffff166313f44d10336040518263ffffffff1660e01b815260040161137a9190613f9d565b602060405180830381865afa158015611397573d6000803e3d6000fd5b505050506040513d601f19601f820116820180604052508101906113bb9190613ff0565b6113fa576040517f08c379a00000000000000000000000000000000000000000000000000000000081526004016113f19061407a565b60405180910390fd5b600160009054906101000a900473ffffffffffffffffffffffffffffffffffffffff1673ffffffffffffffffffffffffffffffffffffffff166344508ad083836040518363ffffffff1660e01b81526004016114579291906132cd565b600060405180830381600087803b15801561147157600080fd5b505af1158015611485573d6000803e3d6000fd5b505050505050565b606060008054906101000a900473ffffffffffffffffffffffffffffffffffffffff1673ffffffffffffffffffffffffffffffffffffffff166313f44d10336040518263ffffffff1660e01b81526004016114e89190613f9d565b602060405180830381865afa158015611505573d6000803e3d6000fd5b505050506040513d601f19601f820116820180604052508101906115299190613ff0565b611568576040517f08c379a000000000000000000000000000000000000000000000000000000000815260040161155f9061407a565b60405180910390fd5b600160009054906101000a900473ffffffffffffffffffffffffffffffffffffffff1673ffffffffffffffffffffffffffffffffffffffff1663bc22884f836040518263ffffffff1660e01b81526004016115c39190613aa3565b600060405180830381865afa1580156115e0573d6000803e3d6000fd5b505050506040513d6000823e3d601f19601f8201168201806040525081019061160991906149b7565b9050919050565b60008054906101000a900473ffffffffffffffffffffffffffffffffffffffff1673ffffffffffffffffffffffffffffffffffffffff166313f44d10336040518263ffffffff1660e01b81526004016116699190613f9d565b602060405180830381865afa158015611686573d6000803e3d6000fd5b505050506040513d601f19601f820116820180604052508101906116aa9190613ff0565b6116e9576040517f08c379a00000000000000000000000000000000000000000000000000000000081526004016116e09061407a565b60405180910390fd5b60005b828290508110156117b057600160009054906101000a900473ffffffffffffffffffffffffffffffffffffffff1673ffffffffffffffffffffffffffffffffffffffff16631fc87f49858585858181106117495761174861487a565b5b905060200201356040518363ffffffff1660e01b815260040161176d9291906132cd565b600060405180830381600087803b15801561178757600080fd5b505af115801561179b573d6000803e3d6000fd5b50505050806117a9906148d8565b90506116ec565b50505050565b606060008054906101000a900473ffffffffffffffffffffffffffffffffffffffff1673ffffffffffffffffffffffffffffffffffffffff166313f44d10336040518263ffffffff1660e01b81526004016118119190613f9d565b602060405180830381865afa15801561182e573d6000803e3d6000fd5b505050506040513d601f19601f820116820180604052508101906118529190613ff0565b611891576040517f08c379a00000000000000000000000000000000000000000000000000000000081526004016118889061407a565b60405180910390fd5b600160009054906101000a900473ffffffffffffffffffffffffffffffffffffffff1673ffffffffffffffffffffffffffffffffffffffff1663bb68402784846040518363ffffffff1660e01b81526004016118ee929190614a2d565b600060405180830381865afa15801561190b573d6000803e3d6000fd5b505050506040513d6000823e3d601f19601f8201168201806040525081019061193491906149b7565b905092915050565b606060008054906101000a900473ffffffffffffffffffffffffffffffffffffffff1673ffffffffffffffffffffffffffffffffffffffff166313f44d10336040518263ffffffff1660e01b81526004016119979190613f9d565b602060405180830381865afa1580156119b4573d6000803e3d6000fd5b505050506040513d601f19601f820116820180604052508101906119d89190613ff0565b611a17576040517f08c379a0000000000000000000000000000000000000000000000000000000008152600401611a0e9061407a565b60405180910390fd5b611ac0600160009054906101000a900473ffffffffffffffffffffffffffffffffffffffff1673ffffffffffffffffffffffffffffffffffffffff16634a61ddbe846040518263ffffffff1660e01b8152600401611a759190613aa3565b600060405180830381865afa158015611a92573d6000803e3d6000fd5b505050506040513d6000823e3d601f19601f82011682018060405250810190611abb91906149b7565b61218b565b9050919050565b60008060008054906101000a900473ffffffffffffffffffffffffffffffffffffffff1673ffffffffffffffffffffffffffffffffffffffff166313f44d10336040518263ffffffff1660e01b8152600401611b239190613f9d565b602060405180830381865afa158015611b40573d6000803e3d6000fd5b505050506040513d601f19601f82011682018060405250810190611b649190613ff0565b611ba3576040517f08c379a0000000000000000000000000000000000000000000000000000000008152600401611b9a9061407a565b60405180910390fd5b600160009054906101000a900473ffffffffffffffffffffffffffffffffffffffff1673ffffffffffffffffffffffffffffffffffffffff16630b91e28d846040518263ffffffff1660e01b8152600401611bfe9190613aa3565b600060405180830381865afa158015611c1b573d6000803e3d6000fd5b505050506040513d6000823e3d601f19601f82011682018060405250810190611c449190614831565b602001516101200151600160009054906101000a900473ffffffffffffffffffffffffffffffffffffffff1673ffffffffffffffffffffffffffffffffffffffff16630b91e28d856040518263ffffffff1660e01b8152600401611ca89190613aa3565b600060405180830381865afa158015611cc5573d6000803e3d6000fd5b505050506040513d6000823e3d601f19601f82011682018060405250810190611cee9190614831565b60200151610140015191509150915091565b606060008054906101000a900473ffffffffffffffffffffffffffffffffffffffff1673ffffffffffffffffffffffffffffffffffffffff166313f44d10336040518263ffffffff1660e01b8152600401611d5b9190613f9d565b602060405180830381865afa158015611d78573d6000803e3d6000fd5b505050506040513d601f19601f82011682018060405250810190611d9c9190613ff0565b611ddb576040517f08c379a0000000000000000000000000000000000000000000000000000000008152600401611dd29061407a565b60405180910390fd5b6000600160009054906101000a900473ffffffffffffffffffffffffffffffffffffffff1673ffffffffffffffffffffffffffffffffffffffff16630b91e28d846040518263ffffffff1660e01b8152600401611e389190613aa3565b600060405180830381865afa158015611e55573d6000803e3d6000fd5b505050506040513d6000823e3d601f19601f82011682018060405250810190611e7e9190614831565b905080602001516101c00151915050919050565b606060008054906101000a900473ffffffffffffffffffffffffffffffffffffffff1673ffffffffffffffffffffffffffffffffffffffff166313f44d10336040518263ffffffff1660e01b8152600401611eed9190613f9d565b602060405180830381865afa158015611f0a573d6000803e3d6000fd5b505050506040513d601f19601f82011682018060405250810190611f2e9190613ff0565b611f6d576040517f08c379a0000000000000000000000000000000000000000000000000000000008152600401611f649061407a565b60405180910390fd5b600160009054906101000a900473ffffffffffffffffffffffffffffffffffffffff1673ffffffffffffffffffffffffffffffffffffffff1663c233b21c836040518263ffffffff1660e01b8152600401611fc89190613aa3565b600060405180830381865afa158015611fe5573d6000803e3d6000fd5b505050506040513d6000823e3d601f19601f8201168201806040525081019061200e91906149b7565b9050919050565b606060008054906101000a900473ffffffffffffffffffffffffffffffffffffffff1673ffffffffffffffffffffffffffffffffffffffff166313f44d10336040518263ffffffff1660e01b81526004016120709190613f9d565b602060405180830381865afa15801561208d573d6000803e3d6000fd5b505050506040513d601f19601f820116820180604052508101906120b19190613ff0565b6120f0576040517f08c379a00000000000000000000000000000000000000000000000000000000081526004016120e79061407a565b60405180910390fd5b600160009054906101000a900473ffffffffffffffffffffffffffffffffffffffff1673ffffffffffffffffffffffffffffffffffffffff1663bef7a5716040518163ffffffff1660e01b8152600401600060405180830381865afa15801561215d573d6000803e3d6000fd5b505050506040513d6000823e3d601f19601f820116820180604052508101906121869190614a51565b905090565b60606000825167ffffffffffffffff8111156121aa576121a96132fb565b5b6040519080825280602002602001820160405280156121e357816020015b6121d06129f9565b8152602001906001900390816121c85790505b50905060005b83518110156122dc57600160009054906101000a900473ffffffffffffffffffffffffffffffffffffffff1673ffffffffffffffffffffffffffffffffffffffff16630b91e28d8583815181106122435761224261487a565b5b60200260200101516040518263ffffffff1660e01b81526004016122679190613aa3565b600060405180830381865afa158015612284573d6000803e3d6000fd5b505050506040513d6000823e3d601f19601f820116820180604052508101906122ad9190614831565b8282815181106122c0576122bf61487a565b5b6020026020010181905250806122d5906148d8565b90506121e9565b5080915050919050565b606060008054906101000a900473ffffffffffffffffffffffffffffffffffffffff1673ffffffffffffffffffffffffffffffffffffffff166313f44d10336040518263ffffffff1660e01b81526004016123419190613f9d565b602060405180830381865afa15801561235e573d6000803e3d6000fd5b505050506040513d601f19601f820116820180604052508101906123829190613ff0565b6123c1576040517f08c379a00000000000000000000000000000000000000000000000000000000081526004016123b89061407a565b60405180910390fd5b61246a600160009054906101000a900473ffffffffffffffffffffffffffffffffffffffff1673ffffffffffffffffffffffffffffffffffffffff166374bfedc7846040518263ffffffff1660e01b815260040161241f9190613aa3565b600060405180830381865afa15801561243c573d6000803e3d6000fd5b505050506040513d6000823e3d601f19601f8201168201806040525081019061246591906149b7565b61218b565b9050919050565b60008060009054906101000a900473ffffffffffffffffffffffffffffffffffffffff1673ffffffffffffffffffffffffffffffffffffffff166313f44d10336040518263ffffffff1660e01b81526004016124cd9190613f9d565b602060405180830381865afa1580156124ea573d6000803e3d6000fd5b505050506040513d601f19601f8201168201806040525081019061250e9190613ff0565b61254d576040517f08c379a00000000000000000000000000000000000000000000000000000000081526004016125449061407a565b60405180910390fd5b600160009054906101000a900473ffffffffffffffffffffffffffffffffffffffff1673ffffffffffffffffffffffffffffffffffffffff16630b91e28d836040518263ffffffff1660e01b81526004016125a89190613aa3565b600060405180830381865afa1580156125c5573d6000803e3d6000fd5b505050506040513d6000823e3d601f19601f820116820180604052508101906125ee9190614831565b6020015161010001519050919050565b60008060009054906101000a900473ffffffffffffffffffffffffffffffffffffffff1673ffffffffffffffffffffffffffffffffffffffff166313f44d10336040518263ffffffff1660e01b815260040161265a9190613f9d565b602060405180830381865afa158015612677573d6000803e3d6000fd5b505050506040513d601f19601f8201168201806040525081019061269b9190613ff0565b6126da576040517f08c379a00000000000000000000000000000000000000000000000000000000081526004016126d19061407a565b60405180910390fd5b600160009054906101000a900473ffffffffffffffffffffffffffffffffffffffff1673ffffffffffffffffffffffffffffffffffffffff16630b91e28d836040518263ffffffff1660e01b81526004016127359190613aa3565b600060405180830381865afa158015612752573d6000803e3d6000fd5b505050506040513d6000823e3d601f19601f8201168201806040525081019061277b9190614831565b60200151604001519050919050565b606060008054906101000a900473ffffffffffffffffffffffffffffffffffffffff1673ffffffffffffffffffffffffffffffffffffffff166313f44d10336040518263ffffffff1660e01b81526004016127e59190613f9d565b602060405180830381865afa158015612802573d6000803e3d6000fd5b505050506040513d601f19601f820116820180604052508101906128269190613ff0565b612865576040517f08c379a000000000000000000000000000000000000000000000000000000000815260040161285c9061407a565b60405180910390fd5b600160009054906101000a900473ffffffffffffffffffffffffffffffffffffffff1673ffffffffffffffffffffffffffffffffffffffff16630b91e28d836040518263ffffffff1660e01b81526004016128c09190613aa3565b600060405180830381865afa1580156128dd573d6000803e3d6000fd5b505050506040513d6000823e3d601f19601f820116820180604052508101906129069190614831565b602001516101a001519050919050565b61291e612a19565b60405180602001604052806001815250905090565b6000825111816040516020016129499190614b22565b60405160208183030381529060405290612999576040517f08c379a00000000000000000000000000000000000000000000000000000000081526004016129909190614b7d565b60405180910390fd5b505050565b6000806004600a6129af9190614cd2565b90505b808311156129ce57600a836129c79190614d4c565b92506129b2565b82915050919050565b60008160000160008154809291906129ee906148d8565b919050559050919050565b604051806040016040528060008152602001612a13612a2c565b81525090565b6040518060200160405280600081525090565b604051806101e00160405280606081526020016060815260200160006003811115612a5a57612a59612bbb565b5b8152602001612a67612aba565b815260200160608152602001606081526020016060815260200160008152602001600081526020016000815260200160008152602001600081526020016060815260200160608152602001606081525090565b60405180604001604052806000815260200160006001811115612ae057612adf612bbb565b5b81525090565b600081519050919050565b600082825260208201905092915050565b6000819050602082019050919050565b6000819050919050565b612b2581612b12565b82525050565b600081519050919050565b600082825260208201905092915050565b60005b83811015612b65578082015181840152602081019050612b4a565b60008484015250505050565b6000601f19601f8301169050919050565b6000612b8d82612b2b565b612b978185612b36565b9350612ba7818560208601612b47565b612bb081612b71565b840191505092915050565b7f4e487b7100000000000000000000000000000000000000000000000000000000600052602160045260246000fd5b60048110612bfb57612bfa612bbb565b5b50565b6000819050612c0c82612bea565b919050565b6000612c1c82612bfe565b9050919050565b612c2c81612c11565b82525050565b60028110612c4357612c42612bbb565b5b50565b6000819050612c5482612c32565b919050565b6000612c6482612c46565b9050919050565b612c7481612c59565b82525050565b604082016000820151612c906000850182612b1c565b506020820151612ca36020850182612c6b565b50505050565b600081519050919050565b600082825260208201905092915050565b6000819050602082019050919050565b6000604083016000830151612ced6000860182612b1c565b5060208301518482036020860152612d058282612b82565b9150508091505092915050565b6000612d1e8383612cd5565b905092915050565b6000602082019050919050565b6000612d3e82612ca9565b612d488185612cb4565b935083602082028501612d5a85612cc5565b8060005b85811015612d965784840389528151612d778582612d12565b9450612d8283612d26565b925060208a01995050600181019050612d5e565b50829750879550505050505092915050565b600081519050919050565b600082825260208201905092915050565b6000819050602082019050919050565b604082016000820151612dea6000850182612b1c565b506020820151612dfd6020850182612b1c565b50505050565b6000612e0f8383612dd4565b60408301905092915050565b6000602082019050919050565b6000612e3382612da8565b612e3d8185612db3565b9350612e4883612dc4565b8060005b83811015612e79578151612e608882612e03565b9750612e6b83612e1b565b925050600181019050612e4c565b5085935050505092915050565b600081519050919050565b600082825260208201905092915050565b6000819050602082019050919050565b6000612ebe8383612b82565b905092915050565b6000602082019050919050565b6000612ede82612e86565b612ee88185612e91565b935083602082028501612efa85612ea2565b8060005b85811015612f365784840389528151612f178582612eb2565b9450612f2283612ec6565b925060208a01995050600181019050612efe565b50829750879550505050505092915050565b6000610200830160008301518482036000860152612f668282612b82565b91505060208301518482036020860152612f808282612b82565b9150506040830151612f956040860182612c23565b506060830151612fa86060860182612c7a565b50608083015184820360a0860152612fc08282612b82565b91505060a083015184820360c0860152612fda8282612b82565b91505060c083015184820360e0860152612ff48282612b82565b91505060e083015161300a610100860182612b1c565b5061010083015161301f610120860182612b1c565b50610120830151613034610140860182612b1c565b50610140830151613049610160860182612b1c565b5061016083015161305e610180860182612b1c565b506101808301518482036101a08601526130788282612d33565b9150506101a08301518482036101c08601526130948282612e28565b9150506101c08301518482036101e08601526130b08282612ed3565b9150508091505092915050565b60006040830160008301516130d56000860182612b1c565b50602083015184820360208601526130ed8282612f48565b9150508091505092915050565b600061310683836130bd565b905092915050565b6000602082019050919050565b600061312682612ae6565b6131308185612af1565b93508360208202850161314285612b02565b8060005b8581101561317e578484038952815161315f85826130fa565b945061316a8361310e565b925060208a01995050600181019050613146565b50829750879550505050505092915050565b600060208201905081810360008301526131aa818461311b565b905092915050565b6000604051905090565b600080fd5b600080fd5b6131cf81612b12565b81146131da57600080fd5b50565b6000813590506131ec816131c6565b92915050565b60008060408385031215613209576132086131bc565b5b6000613217858286016131dd565b9250506020613228858286016131dd565b9150509250929050565b600060208284031215613248576132476131bc565b5b6000613256848285016131dd565b91505092915050565b60006040830160008301516132776000860182612b1c565b506020830151848203602086015261328f8282612f48565b9150508091505092915050565b600060208201905081810360008301526132b6818461325f565b905092915050565b6132c781612b12565b82525050565b60006040820190506132e260008301856132be565b6132ef60208301846132be565b9392505050565b600080fd5b7f4e487b7100000000000000000000000000000000000000000000000000000000600052604160045260246000fd5b61333382612b71565b810181811067ffffffffffffffff82111715613352576133516132fb565b5b80604052505050565b60006133656131b2565b9050613371828261332a565b919050565b600080fd5b600080fd5b600080fd5b600067ffffffffffffffff8211156133a05761339f6132fb565b5b6133a982612b71565b9050602081019050919050565b82818337600083830152505050565b60006133d86133d384613385565b61335b565b9050828152602081018484840111156133f4576133f3613380565b5b6133ff8482856133b6565b509392505050565b600082601f83011261341c5761341b61337b565b5b813561342c8482602086016133c5565b91505092915050565b6004811061344257600080fd5b50565b60008135905061345481613435565b92915050565b6002811061346757600080fd5b50565b6000813590506134798161345a565b92915050565b600060408284031215613495576134946132f6565b5b61349f604061335b565b905060006134af848285016131dd565b60008301525060206134c38482850161346a565b60208301525092915050565b600067ffffffffffffffff8211156134ea576134e96132fb565b5b602082029050602081019050919050565b600080fd5b600060408284031215613516576135156132f6565b5b613520604061335b565b90506000613530848285016131dd565b600083015250602082013567ffffffffffffffff81111561355457613553613376565b5b61356084828501613407565b60208301525092915050565b600061357f61357a846134cf565b61335b565b905080838252602082019050602084028301858111156135a2576135a16134fb565b5b835b818110156135e957803567ffffffffffffffff8111156135c7576135c661337b565b5b8086016135d48982613500565b855260208501945050506020810190506135a4565b5050509392505050565b600082601f8301126136085761360761337b565b5b813561361884826020860161356c565b91505092915050565b600067ffffffffffffffff82111561363c5761363b6132fb565b5b602082029050602081019050919050565b600060408284031215613663576136626132f6565b5b61366d604061335b565b9050600061367d848285016131dd565b6000830152506020613691848285016131dd565b60208301525092915050565b60006136b06136ab84613621565b61335b565b905080838252602082019050604084028301858111156136d3576136d26134fb565b5b835b818110156136fc57806136e8888261364d565b8452602084019350506040810190506136d5565b5050509392505050565b600082601f83011261371b5761371a61337b565b5b813561372b84826020860161369d565b91505092915050565b600067ffffffffffffffff82111561374f5761374e6132fb565b5b602082029050602081019050919050565b600061377361376e84613734565b61335b565b90508083825260208201905060208402830185811115613796576137956134fb565b5b835b818110156137dd57803567ffffffffffffffff8111156137bb576137ba61337b565b5b8086016137c88982613407565b85526020850194505050602081019050613798565b5050509392505050565b600082601f8301126137fc576137fb61337b565b5b813561380c848260208601613760565b91505092915050565b6000610200828403121561382c5761382b6132f6565b5b6138376101e061335b565b9050600082013567ffffffffffffffff81111561385757613856613376565b5b61386384828501613407565b600083015250602082013567ffffffffffffffff81111561388757613886613376565b5b61389384828501613407565b60208301525060406138a784828501613445565b60408301525060606138bb8482850161347f565b60608301525060a082013567ffffffffffffffff8111156138df576138de613376565b5b6138eb84828501613407565b60808301525060c082013567ffffffffffffffff81111561390f5761390e613376565b5b61391b84828501613407565b60a08301525060e082013567ffffffffffffffff81111561393f5761393e613376565b5b61394b84828501613407565b60c083015250610100613960848285016131dd565b60e083015250610120613975848285016131dd565b6101008301525061014061398b848285016131dd565b610120830152506101606139a1848285016131dd565b610140830152506101806139b7848285016131dd565b610160830152506101a082013567ffffffffffffffff8111156139dd576139dc613376565b5b6139e9848285016135f3565b610180830152506101c082013567ffffffffffffffff811115613a0f57613a0e613376565b5b613a1b84828501613706565b6101a0830152506101e082013567ffffffffffffffff811115613a4157613a40613376565b5b613a4d848285016137e7565b6101c08301525092915050565b600060208284031215613a7057613a6f6131bc565b5b600082013567ffffffffffffffff811115613a8e57613a8d6131c1565b5b613a9a84828501613815565b91505092915050565b6000602082019050613ab860008301846132be565b92915050565b600080fd5b60008083601f840112613ad957613ad861337b565b5b8235905067ffffffffffffffff811115613af657613af5613abe565b5b602083019150836020820283011115613b1257613b116134fb565b5b9250929050565b600080600060408486031215613b3257613b316131bc565b5b6000613b40868287016131dd565b935050602084013567ffffffffffffffff811115613b6157613b606131c1565b5b613b6d86828701613ac3565b92509250509250925092565b600081519050919050565b600082825260208201905092915050565b6000819050602082019050919050565b6000613bb18383612b1c565b60208301905092915050565b6000602082019050919050565b6000613bd582613b79565b613bdf8185613b84565b9350613bea83613b95565b8060005b83811015613c1b578151613c028882613ba5565b9750613c0d83613bbd565b925050600181019050613bee565b5085935050505092915050565b60006020820190508181036000830152613c428184613bca565b905092915050565b60008083601f840112613c6057613c5f61337b565b5b8235905067ffffffffffffffff811115613c7d57613c7c613abe565b5b602083019150836001820283011115613c9957613c986134fb565b5b9250929050565b60008060208385031215613cb757613cb66131bc565b5b600083013567ffffffffffffffff811115613cd557613cd46131c1565b5b613ce185828601613c4a565b92509250509250929050565b600082825260208201905092915050565b6000613d0982612e86565b613d138185613ced565b935083602082028501613d2585612ea2565b8060005b85811015613d615784840389528151613d428582612eb2565b9450613d4d83612ec6565b925060208a01995050600181019050613d29565b50829750879550505050505092915050565b60006020820190508181036000830152613d8d8184613cfe565b905092915050565b600067ffffffffffffffff821115613db057613daf6132fb565b5b602082029050602081019050919050565b6000613dd4613dcf84613d95565b61335b565b90508083825260208201905060208402830185811115613df757613df66134fb565b5b835b81811015613e205780613e0c88826131dd565b845260208401935050602081019050613df9565b5050509392505050565b600082601f830112613e3f57613e3e61337b565b5b8135613e4f848260208601613dc1565b91505092915050565b600060208284031215613e6e57613e6d6131bc565b5b600082013567ffffffffffffffff811115613e8c57613e8b6131c1565b5b613e9884828501613e2a565b91505092915050565b613eaa81612c11565b82525050565b6000602082019050613ec56000830184613ea1565b92915050565b600082825260208201905092915050565b6000613ee782612da8565b613ef18185613ecb565b9350613efc83612dc4565b8060005b83811015613f2d578151613f148882612e03565b9750613f1f83612e1b565b925050600181019050613f00565b5085935050505092915050565b60006020820190508181036000830152613f548184613edc565b905092915050565b600073ffffffffffffffffffffffffffffffffffffffff82169050919050565b6000613f8782613f5c565b9050919050565b613f9781613f7c565b82525050565b6000602082019050613fb26000830184613f8e565b92915050565b60008115159050919050565b613fcd81613fb8565b8114613fd857600080fd5b50565b600081519050613fea81613fc4565b92915050565b600060208284031215614006576140056131bc565b5b600061401484828501613fdb565b91505092915050565b600082825260208201905092915050565b7f5468652073656e646572206973206e6f742077686974656c6973746564000000600082015250565b6000614064601d8361401d565b915061406f8261402e565b602082019050919050565b6000602082019050818103600083015261409381614057565b9050919050565b600067ffffffffffffffff8211156140b5576140b46132fb565b5b602082029050602081019050919050565b6000815190506140d5816131c6565b92915050565b60006140ee6140e984613385565b61335b565b90508281526020810184848401111561410a57614109613380565b5b614115848285612b47565b509392505050565b600082601f8301126141325761413161337b565b5b81516141428482602086016140db565b91505092915050565b60008151905061415a81613435565b92915050565b60008151905061416f8161345a565b92915050565b60006040828403121561418b5761418a6132f6565b5b614195604061335b565b905060006141a5848285016140c6565b60008301525060206141b984828501614160565b60208301525092915050565b6000604082840312156141db576141da6132f6565b5b6141e5604061335b565b905060006141f5848285016140c6565b600083015250602082015167ffffffffffffffff81111561421957614218613376565b5b6142258482850161411d565b60208301525092915050565b600061424461423f846134cf565b61335b565b90508083825260208201905060208402830185811115614267576142666134fb565b5b835b818110156142ae57805167ffffffffffffffff81111561428c5761428b61337b565b5b80860161429989826141c5565b85526020850194505050602081019050614269565b5050509392505050565b600082601f8301126142cd576142cc61337b565b5b81516142dd848260208601614231565b91505092915050565b6000604082840312156142fc576142fb6132f6565b5b614306604061335b565b90506000614316848285016140c6565b600083015250602061432a848285016140c6565b60208301525092915050565b600061434961434484613621565b61335b565b9050808382526020820190506040840283018581111561436c5761436b6134fb565b5b835b81811015614395578061438188826142e6565b84526020840193505060408101905061436e565b5050509392505050565b600082601f8301126143b4576143b361337b565b5b81516143c4848260208601614336565b91505092915050565b60006143e06143db84613734565b61335b565b90508083825260208201905060208402830185811115614403576144026134fb565b5b835b8181101561444a57805167ffffffffffffffff8111156144285761442761337b565b5b808601614435898261411d565b85526020850194505050602081019050614405565b5050509392505050565b600082601f8301126144695761446861337b565b5b81516144798482602086016143cd565b91505092915050565b60006102008284031215614499576144986132f6565b5b6144a46101e061335b565b9050600082015167ffffffffffffffff8111156144c4576144c3613376565b5b6144d08482850161411d565b600083015250602082015167ffffffffffffffff8111156144f4576144f3613376565b5b6145008482850161411d565b60208301525060406145148482850161414b565b604083015250606061452884828501614175565b60608301525060a082015167ffffffffffffffff81111561454c5761454b613376565b5b6145588482850161411d565b60808301525060c082015167ffffffffffffffff81111561457c5761457b613376565b5b6145888482850161411d565b60a08301525060e082015167ffffffffffffffff8111156145ac576145ab613376565b5b6145b88482850161411d565b60c0830152506101006145cd848285016140c6565b60e0830152506101206145e2848285016140c6565b610100830152506101406145f8848285016140c6565b6101208301525061016061460e848285016140c6565b61014083015250610180614624848285016140c6565b610160830152506101a082015167ffffffffffffffff81111561464a57614649613376565b5b614656848285016142b8565b610180830152506101c082015167ffffffffffffffff81111561467c5761467b613376565b5b6146888482850161439f565b6101a0830152506101e082015167ffffffffffffffff8111156146ae576146ad613376565b5b6146ba84828501614454565b6101c08301525092915050565b6000604082840312156146dd576146dc6132f6565b5b6146e7604061335b565b905060006146f7848285016140c6565b600083015250602082015167ffffffffffffffff81111561471b5761471a613376565b5b61472784828501614482565b60208301525092915050565b60006147466147418461409a565b61335b565b90508083825260208201905060208402830185811115614769576147686134fb565b5b835b818110156147b057805167ffffffffffffffff81111561478e5761478d61337b565b5b80860161479b89826146c7565b8552602085019450505060208101905061476b565b5050509392505050565b600082601f8301126147cf576147ce61337b565b5b81516147df848260208601614733565b91505092915050565b6000602082840312156147fe576147fd6131bc565b5b600082015167ffffffffffffffff81111561481c5761481b6131c1565b5b614828848285016147ba565b91505092915050565b600060208284031215614847576148466131bc565b5b600082015167ffffffffffffffff811115614865576148646131c1565b5b614871848285016146c7565b91505092915050565b7f4e487b7100000000000000000000000000000000000000000000000000000000600052603260045260246000fd5b7f4e487b7100000000000000000000000000000000000000000000000000000000600052601160045260246000fd5b60006148e382612b12565b91507fffffffffffffffffffffffffffffffffffffffffffffffffffffffffffffffff8203614915576149146148a9565b5b600182019050919050565b600061493361492e84613d95565b61335b565b90508083825260208201905060208402830185811115614956576149556134fb565b5b835b8181101561497f578061496b88826140c6565b845260208401935050602081019050614958565b5050509392505050565b600082601f83011261499e5761499d61337b565b5b81516149ae848260208601614920565b91505092915050565b6000602082840312156149cd576149cc6131bc565b5b600082015167ffffffffffffffff8111156149eb576149ea6131c1565b5b6149f784828501614989565b91505092915050565b6000614a0c838561401d565b9350614a198385846133b6565b614a2283612b71565b840190509392505050565b60006020820190508181036000830152614a48818486614a00565b90509392505050565b600060208284031215614a6757614a666131bc565b5b600082015167ffffffffffffffff811115614a8557614a846131c1565b5b614a9184828501614454565b91505092915050565b600081905092915050565b6000614ab082612b2b565b614aba8185614a9a565b9350614aca818560208601612b47565b80840191505092915050565b7f2063616e6e6f7420626520656d70747900000000000000000000000000000000600082015250565b6000614b0c601083614a9a565b9150614b1782614ad6565b601082019050919050565b6000614b2e8284614aa5565b9150614b3982614aff565b915081905092915050565b6000614b4f82612b2b565b614b59818561401d565b9350614b69818560208601612b47565b614b7281612b71565b840191505092915050565b60006020820190508181036000830152614b978184614b44565b905092915050565b60008160011c9050919050565b6000808291508390505b6001851115614bf657808604811115614bd257614bd16148a9565b5b6001851615614be15780820291505b8081029050614bef85614b9f565b9450614bb6565b94509492505050565b600082614c0f5760019050614ccb565b81614c1d5760009050614ccb565b8160018114614c335760028114614c3d57614c6c565b6001915050614ccb565b60ff841115614c4f57614c4e6148a9565b5b8360020a915084821115614c6657614c656148a9565b5b50614ccb565b5060208310610133831016604e8410600b8410161715614ca15782820a905083811115614c9c57614c9b6148a9565b5b614ccb565b614cae8484846001614bac565b92509050818404811115614cc557614cc46148a9565b5b81810290505b9392505050565b6000614cdd82612b12565b9150614ce883612b12565b9250614d157fffffffffffffffffffffffffffffffffffffffffffffffffffffffffffffffff8484614bff565b905092915050565b7f4e487b7100000000000000000000000000000000000000000000000000000000600052601260045260246000fd5b6000614d5782612b12565b9150614d6283612b12565b925082614d7257614d71614d1d565b5b82820490509291505056fea2646970667358221220deb7b12bd7c86881630af525ff30140c0878063df99e2a04a66d8a8d152f290d64736f6c63430008110033",
  "linkReferences": {},
  "deployedLinkReferences": {}
}