{
  "_format": "hh-sol-artifact-1",
  "contractName": "CourseDataManager",
  "sourceName": "contracts/data/datamanager/CourseDataManager.sol",
  "abi": [
    {
      "inputs": [
        {
          "internalType": "address",
          "name": "courseDataStorageAddress",
          "type": "address"
        },
        {
          "internalType": "address",
          "name": "accessWhitelistAddress",
          "type": "address"
        }
      ],
      "stateMutability": "nonpayable",
      "type": "constructor"
    },
    {
      "inputs": [
        {
          "internalType": "uint256",
          "name": "courseId",
          "type": "uint256"
        },
        {
          "internalType": "uint256[]",
          "name": "lecturerUIds",
          "type": "uint256[]"
        }
      ],
      "name": "addLecturers",
      "outputs": [],
      "stateMutability": "nonpayable",
      "type": "function"
    },
    {
      "inputs": [
        {
          "internalType": "uint256",
          "name": "courseId",
          "type": "uint256"
        },
        {
          "internalType": "uint256",
          "name": "uId",
          "type": "uint256"
        }
      ],
      "name": "addParticipantToCourse",
      "outputs": [],
      "stateMutability": "nonpayable",
      "type": "function"
    },
    {
      "inputs": [
        {
          "internalType": "uint256",
          "name": "courseId",
          "type": "uint256"
        },
        {
          "internalType": "uint256[]",
          "name": "studyProgramIds",
          "type": "uint256[]"
        }
      ],
      "name": "addStudyPrograms",
      "outputs": [],
      "stateMutability": "nonpayable",
      "type": "function"
    },
    {
      "inputs": [
        {
          "components": [
            {
              "internalType": "string",
              "name": "title",
              "type": "string"
            },
            {
              "internalType": "string",
              "name": "code",
              "type": "string"
            },
            {
              "internalType": "enum CourseDataTypes.CourseType",
              "name": "courseType",
              "type": "uint8"
            },
            {
              "components": [
                {
                  "internalType": "uint256",
                  "name": "year",
                  "type": "uint256"
                },
                {
                  "internalType": "enum CourseDataTypes.SemesterSeason",
                  "name": "season",
                  "type": "uint8"
                }
              ],
              "internalType": "struct CourseDataTypes.Semester",
              "name": "semester",
              "type": "tuple"
            },
            {
              "internalType": "string",
              "name": "description",
              "type": "string"
            },
            {
              "internalType": "string",
              "name": "examTopics",
              "type": "string"
            },
            {
              "internalType": "string",
              "name": "language",
              "type": "string"
            },
            {
              "internalType": "uint256",
              "name": "ects",
              "type": "uint256"
            },
            {
              "internalType": "uint256",
              "name": "maxPlaces",
              "type": "uint256"
            },
            {
              "internalType": "uint256",
              "name": "registrationStart",
              "type": "uint256"
            },
            {
              "internalType": "uint256",
              "name": "registrationDeadline",
              "type": "uint256"
            },
            {
              "internalType": "uint256",
              "name": "deregistrationDeadline",
              "type": "uint256"
            },
            {
              "components": [
                {
                  "internalType": "uint256",
                  "name": "datetime",
                  "type": "uint256"
                },
                {
                  "internalType": "string",
                  "name": "place",
                  "type": "string"
                }
              ],
              "internalType": "struct CourseDataTypes.Class[]",
              "name": "classes",
              "type": "tuple[]"
            },
            {
              "components": [
                {
                  "internalType": "uint256",
                  "name": "grade",
                  "type": "uint256"
                },
                {
                  "internalType": "uint256",
                  "name": "minPercentage",
                  "type": "uint256"
                }
              ],
              "internalType": "struct CourseDataTypes.GradeLevel[]",
              "name": "gradeLevels",
              "type": "tuple[]"
            },
            {
              "internalType": "string[]",
              "name": "requirementCourseCodes",
              "type": "string[]"
            }
          ],
          "internalType": "struct CourseDataTypes.CourseContent",
          "name": "courseContent",
          "type": "tuple"
        }
      ],
      "name": "createCourse",
      "outputs": [
        {
          "internalType": "uint256",
          "name": "",
          "type": "uint256"
        }
      ],
      "stateMutability": "nonpayable",
      "type": "function"
    },
    {
      "inputs": [],
      "name": "getAllCourseCodes",
      "outputs": [
        {
          "internalType": "string[]",
          "name": "",
          "type": "string[]"
        }
      ],
      "stateMutability": "view",
      "type": "function"
    },
    {
      "inputs": [],
      "name": "getAllCourses",
      "outputs": [
        {
          "components": [
            {
              "internalType": "uint256",
              "name": "courseId",
              "type": "uint256"
            },
            {
              "components": [
                {
                  "internalType": "string",
                  "name": "title",
                  "type": "string"
                },
                {
                  "internalType": "string",
                  "name": "code",
                  "type": "string"
                },
                {
                  "internalType": "enum CourseDataTypes.CourseType",
                  "name": "courseType",
                  "type": "uint8"
                },
                {
                  "components": [
                    {
                      "internalType": "uint256",
                      "name": "year",
                      "type": "uint256"
                    },
                    {
                      "internalType": "enum CourseDataTypes.SemesterSeason",
                      "name": "season",
                      "type": "uint8"
                    }
                  ],
                  "internalType": "struct CourseDataTypes.Semester",
                  "name": "semester",
                  "type": "tuple"
                },
                {
                  "internalType": "string",
                  "name": "description",
                  "type": "string"
                },
                {
                  "internalType": "string",
                  "name": "examTopics",
                  "type": "string"
                },
                {
                  "internalType": "string",
                  "name": "language",
                  "type": "string"
                },
                {
                  "internalType": "uint256",
                  "name": "ects",
                  "type": "uint256"
                },
                {
                  "internalType": "uint256",
                  "name": "maxPlaces",
                  "type": "uint256"
                },
                {
                  "internalType": "uint256",
                  "name": "registrationStart",
                  "type": "uint256"
                },
                {
                  "internalType": "uint256",
                  "name": "registrationDeadline",
                  "type": "uint256"
                },
                {
                  "internalType": "uint256",
                  "name": "deregistrationDeadline",
                  "type": "uint256"
                },
                {
                  "components": [
                    {
                      "internalType": "uint256",
                      "name": "datetime",
                      "type": "uint256"
                    },
                    {
                      "internalType": "string",
                      "name": "place",
                      "type": "string"
                    }
                  ],
                  "internalType": "struct CourseDataTypes.Class[]",
                  "name": "classes",
                  "type": "tuple[]"
                },
                {
                  "components": [
                    {
                      "internalType": "uint256",
                      "name": "grade",
                      "type": "uint256"
                    },
                    {
                      "internalType": "uint256",
                      "name": "minPercentage",
                      "type": "uint256"
                    }
                  ],
                  "internalType": "struct CourseDataTypes.GradeLevel[]",
                  "name": "gradeLevels",
                  "type": "tuple[]"
                },
                {
                  "internalType": "string[]",
                  "name": "requirementCourseCodes",
                  "type": "string[]"
                }
              ],
              "internalType": "struct CourseDataTypes.CourseContent",
              "name": "content",
              "type": "tuple"
            }
          ],
          "internalType": "struct CourseDataTypes.Course[]",
          "name": "",
          "type": "tuple[]"
        }
      ],
      "stateMutability": "view",
      "type": "function"
    },
    {
      "inputs": [
        {
          "internalType": "uint256",
          "name": "courseId",
          "type": "uint256"
        }
      ],
      "name": "getCourse",
      "outputs": [
        {
          "components": [
            {
              "internalType": "uint256",
              "name": "courseId",
              "type": "uint256"
            },
            {
              "components": [
                {
                  "internalType": "string",
                  "name": "title",
                  "type": "string"
                },
                {
                  "internalType": "string",
                  "name": "code",
                  "type": "string"
                },
                {
                  "internalType": "enum CourseDataTypes.CourseType",
                  "name": "courseType",
                  "type": "uint8"
                },
                {
                  "components": [
                    {
                      "internalType": "uint256",
                      "name": "year",
                      "type": "uint256"
                    },
                    {
                      "internalType": "enum CourseDataTypes.SemesterSeason",
                      "name": "season",
                      "type": "uint8"
                    }
                  ],
                  "internalType": "struct CourseDataTypes.Semester",
                  "name": "semester",
                  "type": "tuple"
                },
                {
                  "internalType": "string",
                  "name": "description",
                  "type": "string"
                },
                {
                  "internalType": "string",
                  "name": "examTopics",
                  "type": "string"
                },
                {
                  "internalType": "string",
                  "name": "language",
                  "type": "string"
                },
                {
                  "internalType": "uint256",
                  "name": "ects",
                  "type": "uint256"
                },
                {
                  "internalType": "uint256",
                  "name": "maxPlaces",
                  "type": "uint256"
                },
                {
                  "internalType": "uint256",
                  "name": "registrationStart",
                  "type": "uint256"
                },
                {
                  "internalType": "uint256",
                  "name": "registrationDeadline",
                  "type": "uint256"
                },
                {
                  "internalType": "uint256",
                  "name": "deregistrationDeadline",
                  "type": "uint256"
                },
                {
                  "components": [
                    {
                      "internalType": "uint256",
                      "name": "datetime",
                      "type": "uint256"
                    },
                    {
                      "internalType": "string",
                      "name": "place",
                      "type": "string"
                    }
                  ],
                  "internalType": "struct CourseDataTypes.Class[]",
                  "name": "classes",
                  "type": "tuple[]"
                },
                {
                  "components": [
                    {
                      "internalType": "uint256",
                      "name": "grade",
                      "type": "uint256"
                    },
                    {
                      "internalType": "uint256",
                      "name": "minPercentage",
                      "type": "uint256"
                    }
                  ],
                  "internalType": "struct CourseDataTypes.GradeLevel[]",
                  "name": "gradeLevels",
                  "type": "tuple[]"
                },
                {
                  "internalType": "string[]",
                  "name": "requirementCourseCodes",
                  "type": "string[]"
                }
              ],
              "internalType": "struct CourseDataTypes.CourseContent",
              "name": "content",
              "type": "tuple"
            }
          ],
          "internalType": "struct CourseDataTypes.Course",
          "name": "",
          "type": "tuple"
        }
      ],
      "stateMutability": "view",
      "type": "function"
    },
    {
      "inputs": [
        {
          "internalType": "uint256",
          "name": "courseId",
          "type": "uint256"
        }
      ],
      "name": "getCourseDeregistrationPeriod",
      "outputs": [
        {
          "internalType": "uint256",
          "name": "",
          "type": "uint256"
        },
        {
          "internalType": "uint256",
          "name": "",
          "type": "uint256"
        }
      ],
      "stateMutability": "view",
      "type": "function"
    },
    {
      "inputs": [
        {
          "internalType": "string",
          "name": "courseCode",
          "type": "string"
        }
      ],
      "name": "getCourseIdsToCourseCode",
      "outputs": [
        {
          "internalType": "uint256[]",
          "name": "",
          "type": "uint256[]"
        }
      ],
      "stateMutability": "view",
      "type": "function"
    },
    {
      "inputs": [
        {
          "internalType": "uint256",
          "name": "courseId",
          "type": "uint256"
        }
      ],
      "name": "getCourseMaxPlaces",
      "outputs": [
        {
          "internalType": "uint256",
          "name": "",
          "type": "uint256"
        }
      ],
      "stateMutability": "view",
      "type": "function"
    },
    {
      "inputs": [
        {
          "internalType": "uint256",
          "name": "courseId",
          "type": "uint256"
        }
      ],
      "name": "getCourseParticipantIds",
      "outputs": [
        {
          "internalType": "uint256[]",
          "name": "",
          "type": "uint256[]"
        }
      ],
      "stateMutability": "view",
      "type": "function"
    },
    {
      "inputs": [
        {
          "internalType": "uint256",
          "name": "courseId",
          "type": "uint256"
        }
      ],
      "name": "getCourseRegistrationPeriod",
      "outputs": [
        {
          "internalType": "uint256",
          "name": "",
          "type": "uint256"
        },
        {
          "internalType": "uint256",
          "name": "",
          "type": "uint256"
        }
      ],
      "stateMutability": "view",
      "type": "function"
    },
    {
      "inputs": [
        {
          "internalType": "uint256",
          "name": "courseId",
          "type": "uint256"
        }
      ],
      "name": "getCourseType",
      "outputs": [
        {
          "internalType": "enum CourseDataTypes.CourseType",
          "name": "",
          "type": "uint8"
        }
      ],
      "stateMutability": "view",
      "type": "function"
    },
    {
      "inputs": [
        {
          "internalType": "uint256[]",
          "name": "courseIds",
          "type": "uint256[]"
        }
      ],
      "name": "getCoursesToCourseIds",
      "outputs": [
        {
          "components": [
            {
              "internalType": "uint256",
              "name": "courseId",
              "type": "uint256"
            },
            {
              "components": [
                {
                  "internalType": "string",
                  "name": "title",
                  "type": "string"
                },
                {
                  "internalType": "string",
                  "name": "code",
                  "type": "string"
                },
                {
                  "internalType": "enum CourseDataTypes.CourseType",
                  "name": "courseType",
                  "type": "uint8"
                },
                {
                  "components": [
                    {
                      "internalType": "uint256",
                      "name": "year",
                      "type": "uint256"
                    },
                    {
                      "internalType": "enum CourseDataTypes.SemesterSeason",
                      "name": "season",
                      "type": "uint8"
                    }
                  ],
                  "internalType": "struct CourseDataTypes.Semester",
                  "name": "semester",
                  "type": "tuple"
                },
                {
                  "internalType": "string",
                  "name": "description",
                  "type": "string"
                },
                {
                  "internalType": "string",
                  "name": "examTopics",
                  "type": "string"
                },
                {
                  "internalType": "string",
                  "name": "language",
                  "type": "string"
                },
                {
                  "internalType": "uint256",
                  "name": "ects",
                  "type": "uint256"
                },
                {
                  "internalType": "uint256",
                  "name": "maxPlaces",
                  "type": "uint256"
                },
                {
                  "internalType": "uint256",
                  "name": "registrationStart",
                  "type": "uint256"
                },
                {
                  "internalType": "uint256",
                  "name": "registrationDeadline",
                  "type": "uint256"
                },
                {
                  "internalType": "uint256",
                  "name": "deregistrationDeadline",
                  "type": "uint256"
                },
                {
                  "components": [
                    {
                      "internalType": "uint256",
                      "name": "datetime",
                      "type": "uint256"
                    },
                    {
                      "internalType": "string",
                      "name": "place",
                      "type": "string"
                    }
                  ],
                  "internalType": "struct CourseDataTypes.Class[]",
                  "name": "classes",
                  "type": "tuple[]"
                },
                {
                  "components": [
                    {
                      "internalType": "uint256",
                      "name": "grade",
                      "type": "uint256"
                    },
                    {
                      "internalType": "uint256",
                      "name": "minPercentage",
                      "type": "uint256"
                    }
                  ],
                  "internalType": "struct CourseDataTypes.GradeLevel[]",
                  "name": "gradeLevels",
                  "type": "tuple[]"
                },
                {
                  "internalType": "string[]",
                  "name": "requirementCourseCodes",
                  "type": "string[]"
                }
              ],
              "internalType": "struct CourseDataTypes.CourseContent",
              "name": "content",
              "type": "tuple"
            }
          ],
          "internalType": "struct CourseDataTypes.Course[]",
          "name": "",
          "type": "tuple[]"
        }
      ],
      "stateMutability": "view",
      "type": "function"
    },
    {
      "inputs": [
        {
          "internalType": "uint256",
          "name": "uId",
          "type": "uint256"
        }
      ],
      "name": "getCoursesToLecturer",
      "outputs": [
        {
          "components": [
            {
              "internalType": "uint256",
              "name": "courseId",
              "type": "uint256"
            },
            {
              "components": [
                {
                  "internalType": "string",
                  "name": "title",
                  "type": "string"
                },
                {
                  "internalType": "string",
                  "name": "code",
                  "type": "string"
                },
                {
                  "internalType": "enum CourseDataTypes.CourseType",
                  "name": "courseType",
                  "type": "uint8"
                },
                {
                  "components": [
                    {
                      "internalType": "uint256",
                      "name": "year",
                      "type": "uint256"
                    },
                    {
                      "internalType": "enum CourseDataTypes.SemesterSeason",
                      "name": "season",
                      "type": "uint8"
                    }
                  ],
                  "internalType": "struct CourseDataTypes.Semester",
                  "name": "semester",
                  "type": "tuple"
                },
                {
                  "internalType": "string",
                  "name": "description",
                  "type": "string"
                },
                {
                  "internalType": "string",
                  "name": "examTopics",
                  "type": "string"
                },
                {
                  "internalType": "string",
                  "name": "language",
                  "type": "string"
                },
                {
                  "internalType": "uint256",
                  "name": "ects",
                  "type": "uint256"
                },
                {
                  "internalType": "uint256",
                  "name": "maxPlaces",
                  "type": "uint256"
                },
                {
                  "internalType": "uint256",
                  "name": "registrationStart",
                  "type": "uint256"
                },
                {
                  "internalType": "uint256",
                  "name": "registrationDeadline",
                  "type": "uint256"
                },
                {
                  "internalType": "uint256",
                  "name": "deregistrationDeadline",
                  "type": "uint256"
                },
                {
                  "components": [
                    {
                      "internalType": "uint256",
                      "name": "datetime",
                      "type": "uint256"
                    },
                    {
                      "internalType": "string",
                      "name": "place",
                      "type": "string"
                    }
                  ],
                  "internalType": "struct CourseDataTypes.Class[]",
                  "name": "classes",
                  "type": "tuple[]"
                },
                {
                  "components": [
                    {
                      "internalType": "uint256",
                      "name": "grade",
                      "type": "uint256"
                    },
                    {
                      "internalType": "uint256",
                      "name": "minPercentage",
                      "type": "uint256"
                    }
                  ],
                  "internalType": "struct CourseDataTypes.GradeLevel[]",
                  "name": "gradeLevels",
                  "type": "tuple[]"
                },
                {
                  "internalType": "string[]",
                  "name": "requirementCourseCodes",
                  "type": "string[]"
                }
              ],
              "internalType": "struct CourseDataTypes.CourseContent",
              "name": "content",
              "type": "tuple"
            }
          ],
          "internalType": "struct CourseDataTypes.Course[]",
          "name": "",
          "type": "tuple[]"
        }
      ],
      "stateMutability": "view",
      "type": "function"
    },
    {
      "inputs": [
        {
          "internalType": "uint256",
          "name": "programId",
          "type": "uint256"
        }
      ],
      "name": "getCoursesToProgramId",
      "outputs": [
        {
          "components": [
            {
              "internalType": "uint256",
              "name": "courseId",
              "type": "uint256"
            },
            {
              "components": [
                {
                  "internalType": "string",
                  "name": "title",
                  "type": "string"
                },
                {
                  "internalType": "string",
                  "name": "code",
                  "type": "string"
                },
                {
                  "internalType": "enum CourseDataTypes.CourseType",
                  "name": "courseType",
                  "type": "uint8"
                },
                {
                  "components": [
                    {
                      "internalType": "uint256",
                      "name": "year",
                      "type": "uint256"
                    },
                    {
                      "internalType": "enum CourseDataTypes.SemesterSeason",
                      "name": "season",
                      "type": "uint8"
                    }
                  ],
                  "internalType": "struct CourseDataTypes.Semester",
                  "name": "semester",
                  "type": "tuple"
                },
                {
                  "internalType": "string",
                  "name": "description",
                  "type": "string"
                },
                {
                  "internalType": "string",
                  "name": "examTopics",
                  "type": "string"
                },
                {
                  "internalType": "string",
                  "name": "language",
                  "type": "string"
                },
                {
                  "internalType": "uint256",
                  "name": "ects",
                  "type": "uint256"
                },
                {
                  "internalType": "uint256",
                  "name": "maxPlaces",
                  "type": "uint256"
                },
                {
                  "internalType": "uint256",
                  "name": "registrationStart",
                  "type": "uint256"
                },
                {
                  "internalType": "uint256",
                  "name": "registrationDeadline",
                  "type": "uint256"
                },
                {
                  "internalType": "uint256",
                  "name": "deregistrationDeadline",
                  "type": "uint256"
                },
                {
                  "components": [
                    {
                      "internalType": "uint256",
                      "name": "datetime",
                      "type": "uint256"
                    },
                    {
                      "internalType": "string",
                      "name": "place",
                      "type": "string"
                    }
                  ],
                  "internalType": "struct CourseDataTypes.Class[]",
                  "name": "classes",
                  "type": "tuple[]"
                },
                {
                  "components": [
                    {
                      "internalType": "uint256",
                      "name": "grade",
                      "type": "uint256"
                    },
                    {
                      "internalType": "uint256",
                      "name": "minPercentage",
                      "type": "uint256"
                    }
                  ],
                  "internalType": "struct CourseDataTypes.GradeLevel[]",
                  "name": "gradeLevels",
                  "type": "tuple[]"
                },
                {
                  "internalType": "string[]",
                  "name": "requirementCourseCodes",
                  "type": "string[]"
                }
              ],
              "internalType": "struct CourseDataTypes.CourseContent",
              "name": "content",
              "type": "tuple"
            }
          ],
          "internalType": "struct CourseDataTypes.Course[]",
          "name": "",
          "type": "tuple[]"
        }
      ],
      "stateMutability": "view",
      "type": "function"
    },
    {
      "inputs": [
        {
          "internalType": "uint256",
          "name": "uId",
          "type": "uint256"
        }
      ],
      "name": "getCoursesToStudent",
      "outputs": [
        {
          "components": [
            {
              "internalType": "uint256",
              "name": "courseId",
              "type": "uint256"
            },
            {
              "components": [
                {
                  "internalType": "string",
                  "name": "title",
                  "type": "string"
                },
                {
                  "internalType": "string",
                  "name": "code",
                  "type": "string"
                },
                {
                  "internalType": "enum CourseDataTypes.CourseType",
                  "name": "courseType",
                  "type": "uint8"
                },
                {
                  "components": [
                    {
                      "internalType": "uint256",
                      "name": "year",
                      "type": "uint256"
                    },
                    {
                      "internalType": "enum CourseDataTypes.SemesterSeason",
                      "name": "season",
                      "type": "uint8"
                    }
                  ],
                  "internalType": "struct CourseDataTypes.Semester",
                  "name": "semester",
                  "type": "tuple"
                },
                {
                  "internalType": "string",
                  "name": "description",
                  "type": "string"
                },
                {
                  "internalType": "string",
                  "name": "examTopics",
                  "type": "string"
                },
                {
                  "internalType": "string",
                  "name": "language",
                  "type": "string"
                },
                {
                  "internalType": "uint256",
                  "name": "ects",
                  "type": "uint256"
                },
                {
                  "internalType": "uint256",
                  "name": "maxPlaces",
                  "type": "uint256"
                },
                {
                  "internalType": "uint256",
                  "name": "registrationStart",
                  "type": "uint256"
                },
                {
                  "internalType": "uint256",
                  "name": "registrationDeadline",
                  "type": "uint256"
                },
                {
                  "internalType": "uint256",
                  "name": "deregistrationDeadline",
                  "type": "uint256"
                },
                {
                  "components": [
                    {
                      "internalType": "uint256",
                      "name": "datetime",
                      "type": "uint256"
                    },
                    {
                      "internalType": "string",
                      "name": "place",
                      "type": "string"
                    }
                  ],
                  "internalType": "struct CourseDataTypes.Class[]",
                  "name": "classes",
                  "type": "tuple[]"
                },
                {
                  "components": [
                    {
                      "internalType": "uint256",
                      "name": "grade",
                      "type": "uint256"
                    },
                    {
                      "internalType": "uint256",
                      "name": "minPercentage",
                      "type": "uint256"
                    }
                  ],
                  "internalType": "struct CourseDataTypes.GradeLevel[]",
                  "name": "gradeLevels",
                  "type": "tuple[]"
                },
                {
                  "internalType": "string[]",
                  "name": "requirementCourseCodes",
                  "type": "string[]"
                }
              ],
              "internalType": "struct CourseDataTypes.CourseContent",
              "name": "content",
              "type": "tuple"
            }
          ],
          "internalType": "struct CourseDataTypes.Course[]",
          "name": "",
          "type": "tuple[]"
        }
      ],
      "stateMutability": "view",
      "type": "function"
    },
    {
      "inputs": [
        {
          "internalType": "uint256",
          "name": "courseId",
          "type": "uint256"
        }
      ],
      "name": "getGradeLevels",
      "outputs": [
        {
          "components": [
            {
              "internalType": "uint256",
              "name": "grade",
              "type": "uint256"
            },
            {
              "internalType": "uint256",
              "name": "minPercentage",
              "type": "uint256"
            }
          ],
          "internalType": "struct CourseDataTypes.GradeLevel[]",
          "name": "",
          "type": "tuple[]"
        }
      ],
      "stateMutability": "view",
      "type": "function"
    },
    {
      "inputs": [
        {
          "internalType": "uint256",
          "name": "courseId",
          "type": "uint256"
        }
      ],
      "name": "getLecturerUIdsOfCourseId",
      "outputs": [
        {
          "internalType": "uint256[]",
          "name": "",
          "type": "uint256[]"
        }
      ],
      "stateMutability": "view",
      "type": "function"
    },
    {
      "inputs": [
        {
          "internalType": "uint256",
          "name": "courseId",
          "type": "uint256"
        }
      ],
      "name": "getRequirementCourseCodesOfCourse",
      "outputs": [
        {
          "internalType": "string[]",
          "name": "",
          "type": "string[]"
        }
      ],
      "stateMutability": "view",
      "type": "function"
    },
    {
      "inputs": [
        {
          "internalType": "uint256",
          "name": "courseId",
          "type": "uint256"
        }
      ],
      "name": "getStudyProgramIdsOfCourse",
      "outputs": [
        {
          "internalType": "uint256[]",
          "name": "",
          "type": "uint256[]"
        }
      ],
      "stateMutability": "view",
      "type": "function"
    },
    {
      "inputs": [
        {
          "internalType": "uint256",
          "name": "uId",
          "type": "uint256"
        },
        {
          "internalType": "uint256",
          "name": "courseId",
          "type": "uint256"
        }
      ],
      "name": "isRegisteredToCourse",
      "outputs": [
        {
          "internalType": "bool",
          "name": "",
          "type": "bool"
        }
      ],
      "stateMutability": "view",
      "type": "function"
    },
    {
      "inputs": [
        {
          "internalType": "uint256",
          "name": "courseId",
          "type": "uint256"
        },
        {
          "internalType": "uint256",
          "name": "uId",
          "type": "uint256"
        }
      ],
      "name": "removeParticipantFromCourse",
      "outputs": [],
      "stateMutability": "nonpayable",
      "type": "function"
    }
  ],
  "bytecode": "0x608060405262000019620000e560201b62002bb81760201c565b60026000820151816000015550503480156200003457600080fd5b50604051620053a0380380620053a083398181016040528101906200005a919062000181565b80806000806101000a81548173ffffffffffffffffffffffffffffffffffffffff021916908373ffffffffffffffffffffffffffffffffffffffff1602179055505081600160006101000a81548173ffffffffffffffffffffffffffffffffffffffff021916908373ffffffffffffffffffffffffffffffffffffffff1602179055505050620001c8565b620000ef62000104565b60405180602001604052806001815250905090565b6040518060200160405280600081525090565b600080fd5b600073ffffffffffffffffffffffffffffffffffffffff82169050919050565b600062000149826200011c565b9050919050565b6200015b816200013c565b81146200016757600080fd5b50565b6000815190506200017b8162000150565b92915050565b600080604083850312156200019b576200019a62000117565b5b6000620001ab858286016200016a565b9250506020620001be858286016200016a565b9150509250929050565b6151c880620001d86000396000f3fe608060405234801561001057600080fd5b506004361061014d5760003560e01c80637499e5dc116100c3578063bef7a5711161007c578063bef7a57114610422578063cf6c702d14610440578063d56e8ee214610470578063dddd64a0146104a0578063e9c0844a146104d0578063f0659248146105005761014d565b80637499e5dc1461031557806389eb61df14610331578063916ae6bb14610361578063ab342b8b14610391578063ad21e07a146103c2578063bd9c1b50146103f25761014d565b806316d64af71161011557806316d64af71461021d5780633932708b1461023957806348cd378c146102695780635268561f1461029957806354ace6bc146102c95780636f4f5878146102e55761014d565b806304e48bd11461015257806308ddb518146101705780630b91e28d1461018c5780630e84e79c146101bc578063151c09f1146101ed575b600080fd5b61015a610530565b6040516101679190613513565b60405180910390f35b61018a60048036038101906101859190613575565b6106a6565b005b6101a660048036038101906101a191906135b5565b610812565b6040516101b3919061361f565b60405180910390f35b6101d660048036038101906101d191906135b5565b61099b565b6040516101e4929190613650565b60405180910390f35b61020760048036038101906102029190613ddd565b610bd4565b6040516102149190613e26565b60405180910390f35b61023760048036038101906102329190613e9c565b610ea8565b005b610253600480360381019061024e9190613575565b61104e565b6040516102609190613f17565b60405180910390f35b610283600480360381019061027e91906135b5565b6111dc565b6040516102909190613fe1565b60405180910390f35b6102b360048036038101906102ae91906135b5565b61135f565b6040516102c09190613513565b60405180910390f35b6102e360048036038101906102de9190613575565b6114ea565b005b6102ff60048036038101906102fa91906135b5565b611656565b60405161030c9190613fe1565b60405180910390f35b61032f600480360381019061032a9190613e9c565b6117d9565b005b61034b60048036038101906103469190614059565b61197f565b6040516103589190613fe1565b60405180910390f35b61037b600480360381019061037691906135b5565b611b05565b6040516103889190613513565b60405180910390f35b6103ab60048036038101906103a691906135b5565b611c90565b6040516103b9929190613650565b60405180910390f35b6103dc60048036038101906103d791906135b5565b611ec9565b6040516103e9919061412c565b60405180910390f35b61040c600480360381019061040791906135b5565b61205b565b6040516104199190613fe1565b60405180910390f35b61042a6121de565b604051610437919061412c565b60405180910390f35b61045a60048036038101906104559190614211565b612354565b6040516104679190613513565b60405180910390f35b61048a600480360381019061048591906135b5565b612588565b6040516104979190613513565b60405180910390f35b6104ba60048036038101906104b591906135b5565b612713565b6040516104c79190613e26565b60405180910390f35b6104ea60048036038101906104e591906135b5565b6128a0565b6040516104f79190614269565b60405180910390f35b61051a600480360381019061051591906135b5565b612a2c565b60405161052791906142f3565b60405180910390f35b606060008054906101000a900473ffffffffffffffffffffffffffffffffffffffff1673ffffffffffffffffffffffffffffffffffffffff166313f44d10336040518263ffffffff1660e01b815260040161058b9190614356565b602060405180830381865afa1580156105a8573d6000803e3d6000fd5b505050506040513d601f19601f820116820180604052508101906105cc919061439d565b61060b576040517f08c379a000000000000000000000000000000000000000000000000000000000815260040161060290614427565b60405180910390fd5b600160009054906101000a900473ffffffffffffffffffffffffffffffffffffffff1673ffffffffffffffffffffffffffffffffffffffff166304e48bd16040518163ffffffff1660e01b8152600401600060405180830381865afa158015610678573d6000803e3d6000fd5b505050506040513d6000823e3d601f19601f820116820180604052508101906106a19190614b95565b905090565b60008054906101000a900473ffffffffffffffffffffffffffffffffffffffff1673ffffffffffffffffffffffffffffffffffffffff166313f44d10336040518263ffffffff1660e01b81526004016106ff9190614356565b602060405180830381865afa15801561071c573d6000803e3d6000fd5b505050506040513d601f19601f82011682018060405250810190610740919061439d565b61077f576040517f08c379a000000000000000000000000000000000000000000000000000000000815260040161077690614427565b60405180910390fd5b600160009054906101000a900473ffffffffffffffffffffffffffffffffffffffff1673ffffffffffffffffffffffffffffffffffffffff16634c40edf583836040518363ffffffff1660e01b81526004016107dc929190613650565b600060405180830381600087803b1580156107f657600080fd5b505af115801561080a573d6000803e3d6000fd5b505050505050565b61081a612d7c565b60008054906101000a900473ffffffffffffffffffffffffffffffffffffffff1673ffffffffffffffffffffffffffffffffffffffff166313f44d10336040518263ffffffff1660e01b81526004016108739190614356565b602060405180830381865afa158015610890573d6000803e3d6000fd5b505050506040513d601f19601f820116820180604052508101906108b4919061439d565b6108f3576040517f08c379a00000000000000000000000000000000000000000000000000000000081526004016108ea90614427565b60405180910390fd5b600160009054906101000a900473ffffffffffffffffffffffffffffffffffffffff1673ffffffffffffffffffffffffffffffffffffffff16630b91e28d836040518263ffffffff1660e01b815260040161094e9190613e26565b600060405180830381865afa15801561096b573d6000803e3d6000fd5b505050506040513d6000823e3d601f19601f820116820180604052508101906109949190614bde565b9050919050565b60008060008054906101000a900473ffffffffffffffffffffffffffffffffffffffff1673ffffffffffffffffffffffffffffffffffffffff166313f44d10336040518263ffffffff1660e01b81526004016109f79190614356565b602060405180830381865afa158015610a14573d6000803e3d6000fd5b505050506040513d601f19601f82011682018060405250810190610a38919061439d565b610a77576040517f08c379a0000000000000000000000000000000000000000000000000000000008152600401610a6e90614427565b60405180910390fd5b600160009054906101000a900473ffffffffffffffffffffffffffffffffffffffff1673ffffffffffffffffffffffffffffffffffffffff16630b91e28d846040518263ffffffff1660e01b8152600401610ad29190613e26565b600060405180830381865afa158015610aef573d6000803e3d6000fd5b505050506040513d6000823e3d601f19601f82011682018060405250810190610b189190614bde565b602001516101200151600160009054906101000a900473ffffffffffffffffffffffffffffffffffffffff1673ffffffffffffffffffffffffffffffffffffffff16630b91e28d856040518263ffffffff1660e01b8152600401610b7c9190613e26565b600060405180830381865afa158015610b99573d6000803e3d6000fd5b505050506040513d6000823e3d601f19601f82011682018060405250810190610bc29190614bde565b60200151610160015191509150915091565b60008060009054906101000a900473ffffffffffffffffffffffffffffffffffffffff1673ffffffffffffffffffffffffffffffffffffffff166313f44d10336040518263ffffffff1660e01b8152600401610c309190614356565b602060405180830381865afa158015610c4d573d6000803e3d6000fd5b505050506040513d601f19601f82011682018060405250810190610c71919061439d565b610cb0576040517f08c379a0000000000000000000000000000000000000000000000000000000008152600401610ca790614427565b60405180910390fd5b610cf382600001516040518060400160405280600581526020017f5469746c65000000000000000000000000000000000000000000000000000000815250612bd5565b610d3682602001516040518060400160405280600b81526020017f436f7572736520636f6465000000000000000000000000000000000000000000815250612bd5565b610d798260c001516040518060400160405280600881526020017f4c616e6775616765000000000000000000000000000000000000000000000000815250612bd5565b60005b826101a0015151811015610def57610db6836101a001518281518110610da557610da4614c27565b5b602002602001015160200151612c40565b836101a001518281518110610dce57610dcd614c27565b5b6020026020010151602001818152505080610de890614c85565b9050610d7c565b506000610dfc6002612c90565b9050600160009054906101000a900473ffffffffffffffffffffffffffffffffffffffff1673ffffffffffffffffffffffffffffffffffffffff1663cc422ded6040518060400160405280848152602001868152506040518263ffffffff1660e01b8152600401610e6d919061361f565b600060405180830381600087803b158015610e8757600080fd5b505af1158015610e9b573d6000803e3d6000fd5b5050505080915050919050565b60008054906101000a900473ffffffffffffffffffffffffffffffffffffffff1673ffffffffffffffffffffffffffffffffffffffff166313f44d10336040518263ffffffff1660e01b8152600401610f019190614356565b602060405180830381865afa158015610f1e573d6000803e3d6000fd5b505050506040513d601f19601f82011682018060405250810190610f42919061439d565b610f81576040517f08c379a0000000000000000000000000000000000000000000000000000000008152600401610f7890614427565b60405180910390fd5b60005b8282905081101561104857600160009054906101000a900473ffffffffffffffffffffffffffffffffffffffff1673ffffffffffffffffffffffffffffffffffffffff1663be398d8785858585818110610fe157610fe0614c27565b5b905060200201356040518363ffffffff1660e01b8152600401611005929190613650565b600060405180830381600087803b15801561101f57600080fd5b505af1158015611033573d6000803e3d6000fd5b505050508061104190614c85565b9050610f84565b50505050565b60008060009054906101000a900473ffffffffffffffffffffffffffffffffffffffff1673ffffffffffffffffffffffffffffffffffffffff166313f44d10336040518263ffffffff1660e01b81526004016110aa9190614356565b602060405180830381865afa1580156110c7573d6000803e3d6000fd5b505050506040513d601f19601f820116820180604052508101906110eb919061439d565b61112a576040517f08c379a000000000000000000000000000000000000000000000000000000000815260040161112190614427565b60405180910390fd5b6111d483600160009054906101000a900473ffffffffffffffffffffffffffffffffffffffff1673ffffffffffffffffffffffffffffffffffffffff1663bc22884f856040518263ffffffff1660e01b81526004016111899190613e26565b600060405180830381865afa1580156111a6573d6000803e3d6000fd5b505050506040513d6000823e3d601f19601f820116820180604052508101906111cf9190614d64565b612cb2565b905092915050565b606060008054906101000a900473ffffffffffffffffffffffffffffffffffffffff1673ffffffffffffffffffffffffffffffffffffffff166313f44d10336040518263ffffffff1660e01b81526004016112379190614356565b602060405180830381865afa158015611254573d6000803e3d6000fd5b505050506040513d601f19601f82011682018060405250810190611278919061439d565b6112b7576040517f08c379a00000000000000000000000000000000000000000000000000000000081526004016112ae90614427565b60405180910390fd5b600160009054906101000a900473ffffffffffffffffffffffffffffffffffffffff1673ffffffffffffffffffffffffffffffffffffffff166348cd378c836040518263ffffffff1660e01b81526004016113129190613e26565b600060405180830381865afa15801561132f573d6000803e3d6000fd5b505050506040513d6000823e3d601f19601f820116820180604052508101906113589190614d64565b9050919050565b606060008054906101000a900473ffffffffffffffffffffffffffffffffffffffff1673ffffffffffffffffffffffffffffffffffffffff166313f44d10336040518263ffffffff1660e01b81526004016113ba9190614356565b602060405180830381865afa1580156113d7573d6000803e3d6000fd5b505050506040513d601f19601f820116820180604052508101906113fb919061439d565b61143a576040517f08c379a000000000000000000000000000000000000000000000000000000000815260040161143190614427565b60405180910390fd5b6114e3600160009054906101000a900473ffffffffffffffffffffffffffffffffffffffff1673ffffffffffffffffffffffffffffffffffffffff1663e22cad07846040518263ffffffff1660e01b81526004016114989190613e26565b600060405180830381865afa1580156114b5573d6000803e3d6000fd5b505050506040513d6000823e3d601f19601f820116820180604052508101906114de9190614d64565b612354565b9050919050565b60008054906101000a900473ffffffffffffffffffffffffffffffffffffffff1673ffffffffffffffffffffffffffffffffffffffff166313f44d10336040518263ffffffff1660e01b81526004016115439190614356565b602060405180830381865afa158015611560573d6000803e3d6000fd5b505050506040513d601f19601f82011682018060405250810190611584919061439d565b6115c3576040517f08c379a00000000000000000000000000000000000000000000000000000000081526004016115ba90614427565b60405180910390fd5b600160009054906101000a900473ffffffffffffffffffffffffffffffffffffffff1673ffffffffffffffffffffffffffffffffffffffff166344508ad083836040518363ffffffff1660e01b8152600401611620929190613650565b600060405180830381600087803b15801561163a57600080fd5b505af115801561164e573d6000803e3d6000fd5b505050505050565b606060008054906101000a900473ffffffffffffffffffffffffffffffffffffffff1673ffffffffffffffffffffffffffffffffffffffff166313f44d10336040518263ffffffff1660e01b81526004016116b19190614356565b602060405180830381865afa1580156116ce573d6000803e3d6000fd5b505050506040513d601f19601f820116820180604052508101906116f2919061439d565b611731576040517f08c379a000000000000000000000000000000000000000000000000000000000815260040161172890614427565b60405180910390fd5b600160009054906101000a900473ffffffffffffffffffffffffffffffffffffffff1673ffffffffffffffffffffffffffffffffffffffff1663bc22884f836040518263ffffffff1660e01b815260040161178c9190613e26565b600060405180830381865afa1580156117a9573d6000803e3d6000fd5b505050506040513d6000823e3d601f19601f820116820180604052508101906117d29190614d64565b9050919050565b60008054906101000a900473ffffffffffffffffffffffffffffffffffffffff1673ffffffffffffffffffffffffffffffffffffffff166313f44d10336040518263ffffffff1660e01b81526004016118329190614356565b602060405180830381865afa15801561184f573d6000803e3d6000fd5b505050506040513d601f19601f82011682018060405250810190611873919061439d565b6118b2576040517f08c379a00000000000000000000000000000000000000000000000000000000081526004016118a990614427565b60405180910390fd5b60005b8282905081101561197957600160009054906101000a900473ffffffffffffffffffffffffffffffffffffffff1673ffffffffffffffffffffffffffffffffffffffff16631fc87f498585858581811061191257611911614c27565b5b905060200201356040518363ffffffff1660e01b8152600401611936929190613650565b600060405180830381600087803b15801561195057600080fd5b505af1158015611964573d6000803e3d6000fd5b505050508061197290614c85565b90506118b5565b50505050565b606060008054906101000a900473ffffffffffffffffffffffffffffffffffffffff1673ffffffffffffffffffffffffffffffffffffffff166313f44d10336040518263ffffffff1660e01b81526004016119da9190614356565b602060405180830381865afa1580156119f7573d6000803e3d6000fd5b505050506040513d601f19601f82011682018060405250810190611a1b919061439d565b611a5a576040517f08c379a0000000000000000000000000000000000000000000000000000000008152600401611a5190614427565b60405180910390fd5b600160009054906101000a900473ffffffffffffffffffffffffffffffffffffffff1673ffffffffffffffffffffffffffffffffffffffff1663bb68402784846040518363ffffffff1660e01b8152600401611ab7929190614dda565b600060405180830381865afa158015611ad4573d6000803e3d6000fd5b505050506040513d6000823e3d601f19601f82011682018060405250810190611afd9190614d64565b905092915050565b606060008054906101000a900473ffffffffffffffffffffffffffffffffffffffff1673ffffffffffffffffffffffffffffffffffffffff166313f44d10336040518263ffffffff1660e01b8152600401611b609190614356565b602060405180830381865afa158015611b7d573d6000803e3d6000fd5b505050506040513d601f19601f82011682018060405250810190611ba1919061439d565b611be0576040517f08c379a0000000000000000000000000000000000000000000000000000000008152600401611bd790614427565b60405180910390fd5b611c89600160009054906101000a900473ffffffffffffffffffffffffffffffffffffffff1673ffffffffffffffffffffffffffffffffffffffff16634a61ddbe846040518263ffffffff1660e01b8152600401611c3e9190613e26565b600060405180830381865afa158015611c5b573d6000803e3d6000fd5b505050506040513d6000823e3d601f19601f82011682018060405250810190611c849190614d64565b612354565b9050919050565b60008060008054906101000a900473ffffffffffffffffffffffffffffffffffffffff1673ffffffffffffffffffffffffffffffffffffffff166313f44d10336040518263ffffffff1660e01b8152600401611cec9190614356565b602060405180830381865afa158015611d09573d6000803e3d6000fd5b505050506040513d601f19601f82011682018060405250810190611d2d919061439d565b611d6c576040517f08c379a0000000000000000000000000000000000000000000000000000000008152600401611d6390614427565b60405180910390fd5b600160009054906101000a900473ffffffffffffffffffffffffffffffffffffffff1673ffffffffffffffffffffffffffffffffffffffff16630b91e28d846040518263ffffffff1660e01b8152600401611dc79190613e26565b600060405180830381865afa158015611de4573d6000803e3d6000fd5b505050506040513d6000823e3d601f19601f82011682018060405250810190611e0d9190614bde565b602001516101200151600160009054906101000a900473ffffffffffffffffffffffffffffffffffffffff1673ffffffffffffffffffffffffffffffffffffffff16630b91e28d856040518263ffffffff1660e01b8152600401611e719190613e26565b600060405180830381865afa158015611e8e573d6000803e3d6000fd5b505050506040513d6000823e3d601f19601f82011682018060405250810190611eb79190614bde565b60200151610140015191509150915091565b606060008054906101000a900473ffffffffffffffffffffffffffffffffffffffff1673ffffffffffffffffffffffffffffffffffffffff166313f44d10336040518263ffffffff1660e01b8152600401611f249190614356565b602060405180830381865afa158015611f41573d6000803e3d6000fd5b505050506040513d601f19601f82011682018060405250810190611f65919061439d565b611fa4576040517f08c379a0000000000000000000000000000000000000000000000000000000008152600401611f9b90614427565b60405180910390fd5b6000600160009054906101000a900473ffffffffffffffffffffffffffffffffffffffff1673ffffffffffffffffffffffffffffffffffffffff16630b91e28d846040518263ffffffff1660e01b81526004016120019190613e26565b600060405180830381865afa15801561201e573d6000803e3d6000fd5b505050506040513d6000823e3d601f19601f820116820180604052508101906120479190614bde565b905080602001516101c00151915050919050565b606060008054906101000a900473ffffffffffffffffffffffffffffffffffffffff1673ffffffffffffffffffffffffffffffffffffffff166313f44d10336040518263ffffffff1660e01b81526004016120b69190614356565b602060405180830381865afa1580156120d3573d6000803e3d6000fd5b505050506040513d601f19601f820116820180604052508101906120f7919061439d565b612136576040517f08c379a000000000000000000000000000000000000000000000000000000000815260040161212d90614427565b60405180910390fd5b600160009054906101000a900473ffffffffffffffffffffffffffffffffffffffff1673ffffffffffffffffffffffffffffffffffffffff1663c233b21c836040518263ffffffff1660e01b81526004016121919190613e26565b600060405180830381865afa1580156121ae573d6000803e3d6000fd5b505050506040513d6000823e3d601f19601f820116820180604052508101906121d79190614d64565b9050919050565b606060008054906101000a900473ffffffffffffffffffffffffffffffffffffffff1673ffffffffffffffffffffffffffffffffffffffff166313f44d10336040518263ffffffff1660e01b81526004016122399190614356565b602060405180830381865afa158015612256573d6000803e3d6000fd5b505050506040513d601f19601f8201168201806040525081019061227a919061439d565b6122b9576040517f08c379a00000000000000000000000000000000000000000000000000000000081526004016122b090614427565b60405180910390fd5b600160009054906101000a900473ffffffffffffffffffffffffffffffffffffffff1673ffffffffffffffffffffffffffffffffffffffff1663bef7a5716040518163ffffffff1660e01b8152600401600060405180830381865afa158015612326573d6000803e3d6000fd5b505050506040513d6000823e3d601f19601f8201168201806040525081019061234f9190614dfe565b905090565b606060008054906101000a900473ffffffffffffffffffffffffffffffffffffffff1673ffffffffffffffffffffffffffffffffffffffff166313f44d10336040518263ffffffff1660e01b81526004016123af9190614356565b602060405180830381865afa1580156123cc573d6000803e3d6000fd5b505050506040513d601f19601f820116820180604052508101906123f0919061439d565b61242f576040517f08c379a000000000000000000000000000000000000000000000000000000000815260040161242690614427565b60405180910390fd5b6000825167ffffffffffffffff81111561244c5761244b61367e565b5b60405190808252806020026020018201604052801561248557816020015b612472612d7c565b81526020019060019003908161246a5790505b50905060005b835181101561257e57600160009054906101000a900473ffffffffffffffffffffffffffffffffffffffff1673ffffffffffffffffffffffffffffffffffffffff16630b91e28d8583815181106124e5576124e4614c27565b5b60200260200101516040518263ffffffff1660e01b81526004016125099190613e26565b600060405180830381865afa158015612526573d6000803e3d6000fd5b505050506040513d6000823e3d601f19601f8201168201806040525081019061254f9190614bde565b82828151811061256257612561614c27565b5b60200260200101819052508061257790614c85565b905061248b565b5080915050919050565b606060008054906101000a900473ffffffffffffffffffffffffffffffffffffffff1673ffffffffffffffffffffffffffffffffffffffff166313f44d10336040518263ffffffff1660e01b81526004016125e39190614356565b602060405180830381865afa158015612600573d6000803e3d6000fd5b505050506040513d601f19601f82011682018060405250810190612624919061439d565b612663576040517f08c379a000000000000000000000000000000000000000000000000000000000815260040161265a90614427565b60405180910390fd5b61270c600160009054906101000a900473ffffffffffffffffffffffffffffffffffffffff1673ffffffffffffffffffffffffffffffffffffffff166374bfedc7846040518263ffffffff1660e01b81526004016126c19190613e26565b600060405180830381865afa1580156126de573d6000803e3d6000fd5b505050506040513d6000823e3d601f19601f820116820180604052508101906127079190614d64565b612354565b9050919050565b60008060009054906101000a900473ffffffffffffffffffffffffffffffffffffffff1673ffffffffffffffffffffffffffffffffffffffff166313f44d10336040518263ffffffff1660e01b815260040161276f9190614356565b602060405180830381865afa15801561278c573d6000803e3d6000fd5b505050506040513d601f19601f820116820180604052508101906127b0919061439d565b6127ef576040517f08c379a00000000000000000000000000000000000000000000000000000000081526004016127e690614427565b60405180910390fd5b600160009054906101000a900473ffffffffffffffffffffffffffffffffffffffff1673ffffffffffffffffffffffffffffffffffffffff16630b91e28d836040518263ffffffff1660e01b815260040161284a9190613e26565b600060405180830381865afa158015612867573d6000803e3d6000fd5b505050506040513d6000823e3d601f19601f820116820180604052508101906128909190614bde565b6020015161010001519050919050565b60008060009054906101000a900473ffffffffffffffffffffffffffffffffffffffff1673ffffffffffffffffffffffffffffffffffffffff166313f44d10336040518263ffffffff1660e01b81526004016128fc9190614356565b602060405180830381865afa158015612919573d6000803e3d6000fd5b505050506040513d601f19601f8201168201806040525081019061293d919061439d565b61297c576040517f08c379a000000000000000000000000000000000000000000000000000000000815260040161297390614427565b60405180910390fd5b600160009054906101000a900473ffffffffffffffffffffffffffffffffffffffff1673ffffffffffffffffffffffffffffffffffffffff16630b91e28d836040518263ffffffff1660e01b81526004016129d79190613e26565b600060405180830381865afa1580156129f4573d6000803e3d6000fd5b505050506040513d6000823e3d601f19601f82011682018060405250810190612a1d9190614bde565b60200151604001519050919050565b606060008054906101000a900473ffffffffffffffffffffffffffffffffffffffff1673ffffffffffffffffffffffffffffffffffffffff166313f44d10336040518263ffffffff1660e01b8152600401612a879190614356565b602060405180830381865afa158015612aa4573d6000803e3d6000fd5b505050506040513d601f19601f82011682018060405250810190612ac8919061439d565b612b07576040517f08c379a0000000000000000000000000000000000000000000000000000000008152600401612afe90614427565b60405180910390fd5b600160009054906101000a900473ffffffffffffffffffffffffffffffffffffffff1673ffffffffffffffffffffffffffffffffffffffff16630b91e28d836040518263ffffffff1660e01b8152600401612b629190613e26565b600060405180830381865afa158015612b7f573d6000803e3d6000fd5b505050506040513d6000823e3d601f19601f82011682018060405250810190612ba89190614bde565b602001516101a001519050919050565b612bc0612d9c565b60405180602001604052806001815250905090565b600082511181604051602001612beb9190614ecf565b60405160208183030381529060405290612c3b576040517f08c379a0000000000000000000000000000000000000000000000000000000008152600401612c329190614f2a565b60405180910390fd5b505050565b600080612c4c83612cc9565b9050600060058211612c5f576000612c6d565b600582612c6c9190614f4c565b5b905080600a612c7c91906150b3565b84612c87919061512d565b92505050919050565b6000816000016000815480929190612ca790614c85565b919050559050919050565b600080612cbf8484612d05565b1215905092915050565b600080600190505b600a8310612cfc57600181612ce6919061515e565b9050600a83612cf5919061512d565b9250612cd1565b80915050919050565b600080600090505b8251811015612d515783838281518110612d2a57612d29614c27565b5b602002602001015103612d405780915050612d76565b80612d4a90614c85565b9050612d0d565b507fffffffffffffffffffffffffffffffffffffffffffffffffffffffffffffffff90505b92915050565b604051806040016040528060008152602001612d96612daf565b81525090565b6040518060200160405280600081525090565b604051806101e00160405280606081526020016060815260200160006003811115612ddd57612ddc612f3e565b5b8152602001612dea612e3d565b815260200160608152602001606081526020016060815260200160008152602001600081526020016000815260200160008152602001600081526020016060815260200160608152602001606081525090565b60405180604001604052806000815260200160006001811115612e6357612e62612f3e565b5b81525090565b600081519050919050565b600082825260208201905092915050565b6000819050602082019050919050565b6000819050919050565b612ea881612e95565b82525050565b600081519050919050565b600082825260208201905092915050565b60005b83811015612ee8578082015181840152602081019050612ecd565b60008484015250505050565b6000601f19601f8301169050919050565b6000612f1082612eae565b612f1a8185612eb9565b9350612f2a818560208601612eca565b612f3381612ef4565b840191505092915050565b7f4e487b7100000000000000000000000000000000000000000000000000000000600052602160045260246000fd5b60048110612f7e57612f7d612f3e565b5b50565b6000819050612f8f82612f6d565b919050565b6000612f9f82612f81565b9050919050565b612faf81612f94565b82525050565b60028110612fc657612fc5612f3e565b5b50565b6000819050612fd782612fb5565b919050565b6000612fe782612fc9565b9050919050565b612ff781612fdc565b82525050565b6040820160008201516130136000850182612e9f565b5060208201516130266020850182612fee565b50505050565b600081519050919050565b600082825260208201905092915050565b6000819050602082019050919050565b60006040830160008301516130706000860182612e9f565b50602083015184820360208601526130888282612f05565b9150508091505092915050565b60006130a18383613058565b905092915050565b6000602082019050919050565b60006130c18261302c565b6130cb8185613037565b9350836020820285016130dd85613048565b8060005b8581101561311957848403895281516130fa8582613095565b9450613105836130a9565b925060208a019950506001810190506130e1565b50829750879550505050505092915050565b600081519050919050565b600082825260208201905092915050565b6000819050602082019050919050565b60408201600082015161316d6000850182612e9f565b5060208201516131806020850182612e9f565b50505050565b60006131928383613157565b60408301905092915050565b6000602082019050919050565b60006131b68261312b565b6131c08185613136565b93506131cb83613147565b8060005b838110156131fc5781516131e38882613186565b97506131ee8361319e565b9250506001810190506131cf565b5085935050505092915050565b600081519050919050565b600082825260208201905092915050565b6000819050602082019050919050565b60006132418383612f05565b905092915050565b6000602082019050919050565b600061326182613209565b61326b8185613214565b93508360208202850161327d85613225565b8060005b858110156132b9578484038952815161329a8582613235565b94506132a583613249565b925060208a01995050600181019050613281565b50829750879550505050505092915050565b60006102008301600083015184820360008601526132e98282612f05565b915050602083015184820360208601526133038282612f05565b91505060408301516133186040860182612fa6565b50606083015161332b6060860182612ffd565b50608083015184820360a08601526133438282612f05565b91505060a083015184820360c086015261335d8282612f05565b91505060c083015184820360e08601526133778282612f05565b91505060e083015161338d610100860182612e9f565b506101008301516133a2610120860182612e9f565b506101208301516133b7610140860182612e9f565b506101408301516133cc610160860182612e9f565b506101608301516133e1610180860182612e9f565b506101808301518482036101a08601526133fb82826130b6565b9150506101a08301518482036101c086015261341782826131ab565b9150506101c08301518482036101e08601526134338282613256565b9150508091505092915050565b60006040830160008301516134586000860182612e9f565b506020830151848203602086015261347082826132cb565b9150508091505092915050565b60006134898383613440565b905092915050565b6000602082019050919050565b60006134a982612e69565b6134b38185612e74565b9350836020820285016134c585612e85565b8060005b8581101561350157848403895281516134e2858261347d565b94506134ed83613491565b925060208a019950506001810190506134c9565b50829750879550505050505092915050565b6000602082019050818103600083015261352d818461349e565b905092915050565b6000604051905090565b600080fd5b600080fd5b61355281612e95565b811461355d57600080fd5b50565b60008135905061356f81613549565b92915050565b6000806040838503121561358c5761358b61353f565b5b600061359a85828601613560565b92505060206135ab85828601613560565b9150509250929050565b6000602082840312156135cb576135ca61353f565b5b60006135d984828501613560565b91505092915050565b60006040830160008301516135fa6000860182612e9f565b506020830151848203602086015261361282826132cb565b9150508091505092915050565b6000602082019050818103600083015261363981846135e2565b905092915050565b61364a81612e95565b82525050565b60006040820190506136656000830185613641565b6136726020830184613641565b9392505050565b600080fd5b7f4e487b7100000000000000000000000000000000000000000000000000000000600052604160045260246000fd5b6136b682612ef4565b810181811067ffffffffffffffff821117156136d5576136d461367e565b5b80604052505050565b60006136e8613535565b90506136f482826136ad565b919050565b600080fd5b600080fd5b600080fd5b600067ffffffffffffffff8211156137235761372261367e565b5b61372c82612ef4565b9050602081019050919050565b82818337600083830152505050565b600061375b61375684613708565b6136de565b90508281526020810184848401111561377757613776613703565b5b613782848285613739565b509392505050565b600082601f83011261379f5761379e6136fe565b5b81356137af848260208601613748565b91505092915050565b600481106137c557600080fd5b50565b6000813590506137d7816137b8565b92915050565b600281106137ea57600080fd5b50565b6000813590506137fc816137dd565b92915050565b60006040828403121561381857613817613679565b5b61382260406136de565b9050600061383284828501613560565b6000830152506020613846848285016137ed565b60208301525092915050565b600067ffffffffffffffff82111561386d5761386c61367e565b5b602082029050602081019050919050565b600080fd5b60006040828403121561389957613898613679565b5b6138a360406136de565b905060006138b384828501613560565b600083015250602082013567ffffffffffffffff8111156138d7576138d66136f9565b5b6138e38482850161378a565b60208301525092915050565b60006139026138fd84613852565b6136de565b905080838252602082019050602084028301858111156139255761392461387e565b5b835b8181101561396c57803567ffffffffffffffff81111561394a576139496136fe565b5b8086016139578982613883565b85526020850194505050602081019050613927565b5050509392505050565b600082601f83011261398b5761398a6136fe565b5b813561399b8482602086016138ef565b91505092915050565b600067ffffffffffffffff8211156139bf576139be61367e565b5b602082029050602081019050919050565b6000604082840312156139e6576139e5613679565b5b6139f060406136de565b90506000613a0084828501613560565b6000830152506020613a1484828501613560565b60208301525092915050565b6000613a33613a2e846139a4565b6136de565b90508083825260208201905060408402830185811115613a5657613a5561387e565b5b835b81811015613a7f5780613a6b88826139d0565b845260208401935050604081019050613a58565b5050509392505050565b600082601f830112613a9e57613a9d6136fe565b5b8135613aae848260208601613a20565b91505092915050565b600067ffffffffffffffff821115613ad257613ad161367e565b5b602082029050602081019050919050565b6000613af6613af184613ab7565b6136de565b90508083825260208201905060208402830185811115613b1957613b1861387e565b5b835b81811015613b6057803567ffffffffffffffff811115613b3e57613b3d6136fe565b5b808601613b4b898261378a565b85526020850194505050602081019050613b1b565b5050509392505050565b600082601f830112613b7f57613b7e6136fe565b5b8135613b8f848260208601613ae3565b91505092915050565b60006102008284031215613baf57613bae613679565b5b613bba6101e06136de565b9050600082013567ffffffffffffffff811115613bda57613bd96136f9565b5b613be68482850161378a565b600083015250602082013567ffffffffffffffff811115613c0a57613c096136f9565b5b613c168482850161378a565b6020830152506040613c2a848285016137c8565b6040830152506060613c3e84828501613802565b60608301525060a082013567ffffffffffffffff811115613c6257613c616136f9565b5b613c6e8482850161378a565b60808301525060c082013567ffffffffffffffff811115613c9257613c916136f9565b5b613c9e8482850161378a565b60a08301525060e082013567ffffffffffffffff811115613cc257613cc16136f9565b5b613cce8482850161378a565b60c083015250610100613ce384828501613560565b60e083015250610120613cf884828501613560565b61010083015250610140613d0e84828501613560565b61012083015250610160613d2484828501613560565b61014083015250610180613d3a84828501613560565b610160830152506101a082013567ffffffffffffffff811115613d6057613d5f6136f9565b5b613d6c84828501613976565b610180830152506101c082013567ffffffffffffffff811115613d9257613d916136f9565b5b613d9e84828501613a89565b6101a0830152506101e082013567ffffffffffffffff811115613dc457613dc36136f9565b5b613dd084828501613b6a565b6101c08301525092915050565b600060208284031215613df357613df261353f565b5b600082013567ffffffffffffffff811115613e1157613e10613544565b5b613e1d84828501613b98565b91505092915050565b6000602082019050613e3b6000830184613641565b92915050565b600080fd5b60008083601f840112613e5c57613e5b6136fe565b5b8235905067ffffffffffffffff811115613e7957613e78613e41565b5b602083019150836020820283011115613e9557613e9461387e565b5b9250929050565b600080600060408486031215613eb557613eb461353f565b5b6000613ec386828701613560565b935050602084013567ffffffffffffffff811115613ee457613ee3613544565b5b613ef086828701613e46565b92509250509250925092565b60008115159050919050565b613f1181613efc565b82525050565b6000602082019050613f2c6000830184613f08565b92915050565b600081519050919050565b600082825260208201905092915050565b6000819050602082019050919050565b6000613f6a8383612e9f565b60208301905092915050565b6000602082019050919050565b6000613f8e82613f32565b613f988185613f3d565b9350613fa383613f4e565b8060005b83811015613fd4578151613fbb8882613f5e565b9750613fc683613f76565b925050600181019050613fa7565b5085935050505092915050565b60006020820190508181036000830152613ffb8184613f83565b905092915050565b60008083601f840112614019576140186136fe565b5b8235905067ffffffffffffffff81111561403657614035613e41565b5b6020830191508360018202830111156140525761405161387e565b5b9250929050565b600080602083850312156140705761406f61353f565b5b600083013567ffffffffffffffff81111561408e5761408d613544565b5b61409a85828601614003565b92509250509250929050565b600082825260208201905092915050565b60006140c282613209565b6140cc81856140a6565b9350836020820285016140de85613225565b8060005b8581101561411a57848403895281516140fb8582613235565b945061410683613249565b925060208a019950506001810190506140e2565b50829750879550505050505092915050565b6000602082019050818103600083015261414681846140b7565b905092915050565b600067ffffffffffffffff8211156141695761416861367e565b5b602082029050602081019050919050565b600061418d6141888461414e565b6136de565b905080838252602082019050602084028301858111156141b0576141af61387e565b5b835b818110156141d957806141c58882613560565b8452602084019350506020810190506141b2565b5050509392505050565b600082601f8301126141f8576141f76136fe565b5b813561420884826020860161417a565b91505092915050565b6000602082840312156142275761422661353f565b5b600082013567ffffffffffffffff81111561424557614244613544565b5b614251848285016141e3565b91505092915050565b61426381612f94565b82525050565b600060208201905061427e600083018461425a565b92915050565b600082825260208201905092915050565b60006142a08261312b565b6142aa8185614284565b93506142b583613147565b8060005b838110156142e65781516142cd8882613186565b97506142d88361319e565b9250506001810190506142b9565b5085935050505092915050565b6000602082019050818103600083015261430d8184614295565b905092915050565b600073ffffffffffffffffffffffffffffffffffffffff82169050919050565b600061434082614315565b9050919050565b61435081614335565b82525050565b600060208201905061436b6000830184614347565b92915050565b61437a81613efc565b811461438557600080fd5b50565b60008151905061439781614371565b92915050565b6000602082840312156143b3576143b261353f565b5b60006143c184828501614388565b91505092915050565b600082825260208201905092915050565b7f5468652073656e646572206973206e6f742077686974656c6973746564000000600082015250565b6000614411601d836143ca565b915061441c826143db565b602082019050919050565b6000602082019050818103600083015261444081614404565b9050919050565b600067ffffffffffffffff8211156144625761446161367e565b5b602082029050602081019050919050565b60008151905061448281613549565b92915050565b600061449b61449684613708565b6136de565b9050828152602081018484840111156144b7576144b6613703565b5b6144c2848285612eca565b509392505050565b600082601f8301126144df576144de6136fe565b5b81516144ef848260208601614488565b91505092915050565b600081519050614507816137b8565b92915050565b60008151905061451c816137dd565b92915050565b60006040828403121561453857614537613679565b5b61454260406136de565b9050600061455284828501614473565b60008301525060206145668482850161450d565b60208301525092915050565b60006040828403121561458857614587613679565b5b61459260406136de565b905060006145a284828501614473565b600083015250602082015167ffffffffffffffff8111156145c6576145c56136f9565b5b6145d2848285016144ca565b60208301525092915050565b60006145f16145ec84613852565b6136de565b905080838252602082019050602084028301858111156146145761461361387e565b5b835b8181101561465b57805167ffffffffffffffff811115614639576146386136fe565b5b8086016146468982614572565b85526020850194505050602081019050614616565b5050509392505050565b600082601f83011261467a576146796136fe565b5b815161468a8482602086016145de565b91505092915050565b6000604082840312156146a9576146a8613679565b5b6146b360406136de565b905060006146c384828501614473565b60008301525060206146d784828501614473565b60208301525092915050565b60006146f66146f1846139a4565b6136de565b905080838252602082019050604084028301858111156147195761471861387e565b5b835b81811015614742578061472e8882614693565b84526020840193505060408101905061471b565b5050509392505050565b600082601f830112614761576147606136fe565b5b81516147718482602086016146e3565b91505092915050565b600061478d61478884613ab7565b6136de565b905080838252602082019050602084028301858111156147b0576147af61387e565b5b835b818110156147f757805167ffffffffffffffff8111156147d5576147d46136fe565b5b8086016147e289826144ca565b855260208501945050506020810190506147b2565b5050509392505050565b600082601f830112614816576148156136fe565b5b815161482684826020860161477a565b91505092915050565b6000610200828403121561484657614845613679565b5b6148516101e06136de565b9050600082015167ffffffffffffffff811115614871576148706136f9565b5b61487d848285016144ca565b600083015250602082015167ffffffffffffffff8111156148a1576148a06136f9565b5b6148ad848285016144ca565b60208301525060406148c1848285016144f8565b60408301525060606148d584828501614522565b60608301525060a082015167ffffffffffffffff8111156148f9576148f86136f9565b5b614905848285016144ca565b60808301525060c082015167ffffffffffffffff811115614929576149286136f9565b5b614935848285016144ca565b60a08301525060e082015167ffffffffffffffff811115614959576149586136f9565b5b614965848285016144ca565b60c08301525061010061497a84828501614473565b60e08301525061012061498f84828501614473565b610100830152506101406149a584828501614473565b610120830152506101606149bb84828501614473565b610140830152506101806149d184828501614473565b610160830152506101a082015167ffffffffffffffff8111156149f7576149f66136f9565b5b614a0384828501614665565b610180830152506101c082015167ffffffffffffffff811115614a2957614a286136f9565b5b614a358482850161474c565b6101a0830152506101e082015167ffffffffffffffff811115614a5b57614a5a6136f9565b5b614a6784828501614801565b6101c08301525092915050565b600060408284031215614a8a57614a89613679565b5b614a9460406136de565b90506000614aa484828501614473565b600083015250602082015167ffffffffffffffff811115614ac857614ac76136f9565b5b614ad48482850161482f565b60208301525092915050565b6000614af3614aee84614447565b6136de565b90508083825260208201905060208402830185811115614b1657614b1561387e565b5b835b81811015614b5d57805167ffffffffffffffff811115614b3b57614b3a6136fe565b5b808601614b488982614a74565b85526020850194505050602081019050614b18565b5050509392505050565b600082601f830112614b7c57614b7b6136fe565b5b8151614b8c848260208601614ae0565b91505092915050565b600060208284031215614bab57614baa61353f565b5b600082015167ffffffffffffffff811115614bc957614bc8613544565b5b614bd584828501614b67565b91505092915050565b600060208284031215614bf457614bf361353f565b5b600082015167ffffffffffffffff811115614c1257614c11613544565b5b614c1e84828501614a74565b91505092915050565b7f4e487b7100000000000000000000000000000000000000000000000000000000600052603260045260246000fd5b7f4e487b7100000000000000000000000000000000000000000000000000000000600052601160045260246000fd5b6000614c9082612e95565b91507fffffffffffffffffffffffffffffffffffffffffffffffffffffffffffffffff8203614cc257614cc1614c56565b5b600182019050919050565b6000614ce0614cdb8461414e565b6136de565b90508083825260208201905060208402830185811115614d0357614d0261387e565b5b835b81811015614d2c5780614d188882614473565b845260208401935050602081019050614d05565b5050509392505050565b600082601f830112614d4b57614d4a6136fe565b5b8151614d5b848260208601614ccd565b91505092915050565b600060208284031215614d7a57614d7961353f565b5b600082015167ffffffffffffffff811115614d9857614d97613544565b5b614da484828501614d36565b91505092915050565b6000614db983856143ca565b9350614dc6838584613739565b614dcf83612ef4565b840190509392505050565b60006020820190508181036000830152614df5818486614dad565b90509392505050565b600060208284031215614e1457614e1361353f565b5b600082015167ffffffffffffffff811115614e3257614e31613544565b5b614e3e84828501614801565b91505092915050565b600081905092915050565b6000614e5d82612eae565b614e678185614e47565b9350614e77818560208601612eca565b80840191505092915050565b7f2063616e6e6f7420626520656d70747900000000000000000000000000000000600082015250565b6000614eb9601083614e47565b9150614ec482614e83565b601082019050919050565b6000614edb8284614e52565b9150614ee682614eac565b915081905092915050565b6000614efc82612eae565b614f0681856143ca565b9350614f16818560208601612eca565b614f1f81612ef4565b840191505092915050565b60006020820190508181036000830152614f448184614ef1565b905092915050565b6000614f5782612e95565b9150614f6283612e95565b9250828203905081811115614f7a57614f79614c56565b5b92915050565b60008160011c9050919050565b6000808291508390505b6001851115614fd757808604811115614fb357614fb2614c56565b5b6001851615614fc25780820291505b8081029050614fd085614f80565b9450614f97565b94509492505050565b600082614ff057600190506150ac565b81614ffe57600090506150ac565b8160018114615014576002811461501e5761504d565b60019150506150ac565b60ff8411156150305761502f614c56565b5b8360020a91508482111561504757615046614c56565b5b506150ac565b5060208310610133831016604e8410600b84101617156150825782820a90508381111561507d5761507c614c56565b5b6150ac565b61508f8484846001614f8d565b925090508184048111156150a6576150a5614c56565b5b81810290505b9392505050565b60006150be82612e95565b91506150c983612e95565b92506150f67fffffffffffffffffffffffffffffffffffffffffffffffffffffffffffffffff8484614fe0565b905092915050565b7f4e487b7100000000000000000000000000000000000000000000000000000000600052601260045260246000fd5b600061513882612e95565b915061514383612e95565b925082615153576151526150fe565b5b828204905092915050565b600061516982612e95565b915061517483612e95565b925082820190508082111561518c5761518b614c56565b5b9291505056fea26469706673582212200234c9373bb661d35ec0c3ea1e6e4b30c6f4c925e867da7cab54557497d8667e64736f6c63430008110033",
  "linkReferences": {},
  "deployedLinkReferences": {}
}