{
  "_format": "hh-sol-artifact-1",
  "contractName": "StudyProgramController",
  "sourceName": "contracts/logic/StudyProgramController.sol",
  "abi": [
    {
      "inputs": [
        {
          "internalType": "address",
          "name": "addressBookAddress",
          "type": "address"
        }
      ],
      "stateMutability": "nonpayable",
      "type": "constructor"
    },
    {
      "inputs": [
        {
          "internalType": "address",
          "name": "_address",
          "type": "address"
        }
      ],
      "name": "addAdmin",
      "outputs": [],
      "stateMutability": "nonpayable",
      "type": "function"
    },
    {
      "inputs": [
        {
          "internalType": "string",
          "name": "programName",
          "type": "string"
        }
      ],
      "name": "addAdminNewStudyProgram",
      "outputs": [],
      "stateMutability": "nonpayable",
      "type": "function"
    },
    {
      "inputs": [
        {
          "internalType": "string",
          "name": "programName",
          "type": "string"
        }
      ],
      "name": "addNewStudyProgram",
      "outputs": [],
      "stateMutability": "nonpayable",
      "type": "function"
    },
    {
      "inputs": [
        {
          "internalType": "address[]",
          "name": "addresses",
          "type": "address[]"
        }
      ],
      "name": "batchAddAdmin",
      "outputs": [],
      "stateMutability": "nonpayable",
      "type": "function"
    },
    {
      "inputs": [],
      "name": "isSenderAdmin",
      "outputs": [
        {
          "internalType": "bool",
          "name": "",
          "type": "bool"
        }
      ],
      "stateMutability": "view",
      "type": "function"
    },
    {
      "inputs": [
        {
          "internalType": "address",
          "name": "_address",
          "type": "address"
        }
      ],
      "name": "removeAdmin",
      "outputs": [],
      "stateMutability": "nonpayable",
      "type": "function"
    }
  ],
  "bytecode": "0x60806040523480156200001157600080fd5b506040516200114738038062001147833981810160405281019062000037919062000143565b8080806000806101000a81548173ffffffffffffffffffffffffffffffffffffffff021916908373ffffffffffffffffffffffffffffffffffffffff160217905550505060018060003373ffffffffffffffffffffffffffffffffffffffff1673ffffffffffffffffffffffffffffffffffffffff16815260200190815260200160002060006101000a81548160ff0219169083151502179055505062000175565b600080fd5b600073ffffffffffffffffffffffffffffffffffffffff82169050919050565b60006200010b82620000de565b9050919050565b6200011d81620000fe565b81146200012957600080fd5b50565b6000815190506200013d8162000112565b92915050565b6000602082840312156200015c576200015b620000d9565b5b60006200016c848285016200012c565b91505092915050565b610fc280620001856000396000f3fe608060405234801561001057600080fd5b50600436106100625760003560e01c80631785f53c146100675780631d0d4e8b146100835780632c9ab42b146100a157806344706a3a146100bd57806370480275146100d9578063a03614bb146100f5575b600080fd5b610081600480360381019061007c9190610910565b610111565b005b61008b6101f8565b6040516100989190610958565b60405180910390f35b6100bb60048036038101906100b691906109d8565b61024c565b005b6100d760048036038101906100d29190610a7b565b61032c565b005b6100f360048036038101906100ee9190610910565b610442565b005b61010f600480360381019061010a9190610a7b565b610528565b005b600160003373ffffffffffffffffffffffffffffffffffffffff1673ffffffffffffffffffffffffffffffffffffffff16815260200190815260200160002060009054906101000a900460ff1661019d576040517f08c379a000000000000000000000000000000000000000000000000000000000815260040161019490610b4b565b60405180910390fd5b6000600160008373ffffffffffffffffffffffffffffffffffffffff1673ffffffffffffffffffffffffffffffffffffffff16815260200190815260200160002060006101000a81548160ff02191690831515021790555050565b6000600160003373ffffffffffffffffffffffffffffffffffffffff1673ffffffffffffffffffffffffffffffffffffffff16815260200190815260200160002060009054906101000a900460ff16905090565b600160003373ffffffffffffffffffffffffffffffffffffffff1673ffffffffffffffffffffffffffffffffffffffff16815260200190815260200160002060009054906101000a900460ff166102d8576040517f08c379a00000000000000000000000000000000000000000000000000000000081526004016102cf90610b4b565b60405180910390fd5b60005b82829050811015610327576103168383838181106102fc576102fb610b6b565b5b90506020020160208101906103119190610910565b610442565b8061032090610bd3565b90506102db565b505050565b600160003373ffffffffffffffffffffffffffffffffffffffff1673ffffffffffffffffffffffffffffffffffffffff16815260200190815260200160002060009054906101000a900460ff166103b8576040517f08c379a00000000000000000000000000000000000000000000000000000000081526004016103af90610b4b565b60405180910390fd5b6103c06106a0565b73ffffffffffffffffffffffffffffffffffffffff1663d8342f2c83836040518363ffffffff1660e01b81526004016103fa929190610c68565b6020604051808303816000875af1158015610419573d6000803e3d6000fd5b505050506040513d601f19601f8201168201806040525081019061043d9190610cb8565b505050565b600160003373ffffffffffffffffffffffffffffffffffffffff1673ffffffffffffffffffffffffffffffffffffffff16815260200190815260200160002060009054906101000a900460ff166104ce576040517f08c379a00000000000000000000000000000000000000000000000000000000081526004016104c590610b4b565b60405180910390fd5b60018060008373ffffffffffffffffffffffffffffffffffffffff1673ffffffffffffffffffffffffffffffffffffffff16815260200190815260200160002060006101000a81548160ff02191690831515021790555050565b610530610743565b60028081111561054357610542610ce5565b5b61054b610805565b73ffffffffffffffffffffffffffffffffffffffff1663dd8b2914336040518263ffffffff1660e01b81526004016105839190610d23565b602060405180830381865afa1580156105a0573d6000803e3d6000fd5b505050506040513d601f19601f820116820180604052508101906105c49190610d63565b60028111156105d6576105d5610ce5565b5b14610616576040517f08c379a000000000000000000000000000000000000000000000000000000000815260040161060d90610e02565b60405180910390fd5b61061e6106a0565b73ffffffffffffffffffffffffffffffffffffffff1663d8342f2c83836040518363ffffffff1660e01b8152600401610658929190610c68565b6020604051808303816000875af1158015610677573d6000803e3d6000fd5b505050506040513d601f19601f8201168201806040525081019061069b9190610cb8565b505050565b60008060009054906101000a900473ffffffffffffffffffffffffffffffffffffffff1673ffffffffffffffffffffffffffffffffffffffff1663bcaa0c5560046040518263ffffffff1660e01b81526004016106fd9190610e6a565b602060405180830381865afa15801561071a573d6000803e3d6000fd5b505050506040513d601f19601f8201168201806040525081019061073e9190610e9a565b905090565b61074b610805565b73ffffffffffffffffffffffffffffffffffffffff166338b6a3a1336040518263ffffffff1660e01b81526004016107839190610d23565b602060405180830381865afa1580156107a0573d6000803e3d6000fd5b505050506040513d601f19601f820116820180604052508101906107c49190610ef3565b610803576040517f08c379a00000000000000000000000000000000000000000000000000000000081526004016107fa90610f6c565b60405180910390fd5b565b60008060009054906101000a900473ffffffffffffffffffffffffffffffffffffffff1673ffffffffffffffffffffffffffffffffffffffff1663bcaa0c5560026040518263ffffffff1660e01b81526004016108629190610e6a565b602060405180830381865afa15801561087f573d6000803e3d6000fd5b505050506040513d601f19601f820116820180604052508101906108a39190610e9a565b905090565b600080fd5b600080fd5b600073ffffffffffffffffffffffffffffffffffffffff82169050919050565b60006108dd826108b2565b9050919050565b6108ed816108d2565b81146108f857600080fd5b50565b60008135905061090a816108e4565b92915050565b600060208284031215610926576109256108a8565b5b6000610934848285016108fb565b91505092915050565b60008115159050919050565b6109528161093d565b82525050565b600060208201905061096d6000830184610949565b92915050565b600080fd5b600080fd5b600080fd5b60008083601f84011261099857610997610973565b5b8235905067ffffffffffffffff8111156109b5576109b4610978565b5b6020830191508360208202830111156109d1576109d061097d565b5b9250929050565b600080602083850312156109ef576109ee6108a8565b5b600083013567ffffffffffffffff811115610a0d57610a0c6108ad565b5b610a1985828601610982565b92509250509250929050565b60008083601f840112610a3b57610a3a610973565b5b8235905067ffffffffffffffff811115610a5857610a57610978565b5b602083019150836001820283011115610a7457610a7361097d565b5b9250929050565b60008060208385031215610a9257610a916108a8565b5b600083013567ffffffffffffffff811115610ab057610aaf6108ad565b5b610abc85828601610a25565b92509250509250929050565b600082825260208201905092915050565b7f4f6e6c792061646d696e206164647265737365732063616e2063616c6c20746860008201527f69732066756e6374696f6e000000000000000000000000000000000000000000602082015250565b6000610b35602b83610ac8565b9150610b4082610ad9565b604082019050919050565b60006020820190508181036000830152610b6481610b28565b9050919050565b7f4e487b7100000000000000000000000000000000000000000000000000000000600052603260045260246000fd5b7f4e487b7100000000000000000000000000000000000000000000000000000000600052601160045260246000fd5b6000819050919050565b6000610bde82610bc9565b91507fffffffffffffffffffffffffffffffffffffffffffffffffffffffffffffffff8203610c1057610c0f610b9a565b5b600182019050919050565b82818337600083830152505050565b6000601f19601f8301169050919050565b6000610c478385610ac8565b9350610c54838584610c1b565b610c5d83610c2a565b840190509392505050565b60006020820190508181036000830152610c83818486610c3b565b90509392505050565b610c9581610bc9565b8114610ca057600080fd5b50565b600081519050610cb281610c8c565b92915050565b600060208284031215610cce57610ccd6108a8565b5b6000610cdc84828501610ca3565b91505092915050565b7f4e487b7100000000000000000000000000000000000000000000000000000000600052602160045260246000fd5b610d1d816108d2565b82525050565b6000602082019050610d386000830184610d14565b92915050565b60038110610d4b57600080fd5b50565b600081519050610d5d81610d3e565b92915050565b600060208284031215610d7957610d786108a8565b5b6000610d8784828501610d4e565b91505092915050565b7f53656e646572206d75737420626520612073747564792070726f6772616d206d60008201527f616e616765720000000000000000000000000000000000000000000000000000602082015250565b6000610dec602683610ac8565b9150610df782610d90565b604082019050919050565b60006020820190508181036000830152610e1b81610ddf565b9050919050565b60068110610e3357610e32610ce5565b5b50565b6000819050610e4482610e22565b919050565b6000610e5482610e36565b9050919050565b610e6481610e49565b82525050565b6000602082019050610e7f6000830184610e5b565b92915050565b600081519050610e94816108e4565b92915050565b600060208284031215610eb057610eaf6108a8565b5b6000610ebe84828501610e85565b91505092915050565b610ed08161093d565b8114610edb57600080fd5b50565b600081519050610eed81610ec7565b92915050565b600060208284031215610f0957610f086108a8565b5b6000610f1784828501610ede565b91505092915050565b7f53656e646572206d757374206265206120726567697374657265642075736572600082015250565b6000610f56602083610ac8565b9150610f6182610f20565b602082019050919050565b60006020820190508181036000830152610f8581610f49565b905091905056fea2646970667358221220cd1991ce6c6d18be3716d28b48a74b74b88af8abdd0fb796969a380bed68dcb164736f6c63430008110033",
  "linkReferences": {},
  "deployedLinkReferences": {}
}