{
  "_format": "hh-sol-artifact-1",
  "contractName": "PerformanceView",
  "sourceName": "contracts/view/PerformanceView.sol",
  "abi": [
    {
      "inputs": [
        {
          "internalType": "address",
          "name": "addressBookAddress",
          "type": "address"
        }
      ],
      "stateMutability": "nonpayable",
      "type": "constructor"
    },
    {
      "inputs": [
        {
          "internalType": "uint256",
          "name": "assessmentId",
          "type": "uint256"
        }
      ],
      "name": "getEvaluation",
      "outputs": [
        {
          "components": [
            {
              "internalType": "bool",
              "name": "isSet",
              "type": "bool"
            },
            {
              "internalType": "uint256",
              "name": "datetime",
              "type": "uint256"
            },
            {
              "internalType": "uint256",
              "name": "achievedPoints",
              "type": "uint256"
            },
            {
              "internalType": "string",
              "name": "feedback",
              "type": "string"
            },
            {
              "internalType": "uint256",
              "name": "lecturerUId",
              "type": "uint256"
            }
          ],
          "internalType": "struct PerformanceDataTypes.Evaluation",
          "name": "",
          "type": "tuple"
        },
        {
          "internalType": "string",
          "name": "",
          "type": "string"
        },
        {
          "internalType": "string",
          "name": "",
          "type": "string"
        }
      ],
      "stateMutability": "view",
      "type": "function"
    },
    {
      "inputs": [
        {
          "internalType": "uint256",
          "name": "assessmentId",
          "type": "uint256"
        },
        {
          "internalType": "uint256",
          "name": "studentUId",
          "type": "uint256"
        }
      ],
      "name": "getEvaluationOfStudent",
      "outputs": [
        {
          "components": [
            {
              "internalType": "bool",
              "name": "isSet",
              "type": "bool"
            },
            {
              "internalType": "uint256",
              "name": "datetime",
              "type": "uint256"
            },
            {
              "internalType": "uint256",
              "name": "achievedPoints",
              "type": "uint256"
            },
            {
              "internalType": "string",
              "name": "feedback",
              "type": "string"
            },
            {
              "internalType": "uint256",
              "name": "lecturerUId",
              "type": "uint256"
            }
          ],
          "internalType": "struct PerformanceDataTypes.Evaluation",
          "name": "",
          "type": "tuple"
        },
        {
          "internalType": "string",
          "name": "",
          "type": "string"
        },
        {
          "internalType": "string",
          "name": "",
          "type": "string"
        }
      ],
      "stateMutability": "view",
      "type": "function"
    },
    {
      "inputs": [
        {
          "internalType": "uint256",
          "name": "assessmentId",
          "type": "uint256"
        }
      ],
      "name": "getExamAttendance",
      "outputs": [
        {
          "components": [
            {
              "internalType": "bool",
              "name": "isSet",
              "type": "bool"
            },
            {
              "internalType": "bool",
              "name": "hasAttended",
              "type": "bool"
            },
            {
              "internalType": "uint256",
              "name": "confirmationDateTime",
              "type": "uint256"
            }
          ],
          "internalType": "struct PerformanceDataTypes.ExamAttendance",
          "name": "",
          "type": "tuple"
        }
      ],
      "stateMutability": "view",
      "type": "function"
    },
    {
      "inputs": [
        {
          "internalType": "uint256",
          "name": "assessmentId",
          "type": "uint256"
        },
        {
          "internalType": "uint256",
          "name": "studentUId",
          "type": "uint256"
        }
      ],
      "name": "getExamAttendanceOfStudent",
      "outputs": [
        {
          "components": [
            {
              "internalType": "bool",
              "name": "isSet",
              "type": "bool"
            },
            {
              "internalType": "bool",
              "name": "hasAttended",
              "type": "bool"
            },
            {
              "internalType": "uint256",
              "name": "confirmationDateTime",
              "type": "uint256"
            }
          ],
          "internalType": "struct PerformanceDataTypes.ExamAttendance",
          "name": "",
          "type": "tuple"
        }
      ],
      "stateMutability": "view",
      "type": "function"
    },
    {
      "inputs": [
        {
          "internalType": "uint256",
          "name": "courseId",
          "type": "uint256"
        }
      ],
      "name": "getGrade",
      "outputs": [
        {
          "components": [
            {
              "internalType": "bool",
              "name": "isSet",
              "type": "bool"
            },
            {
              "internalType": "uint256",
              "name": "value",
              "type": "uint256"
            },
            {
              "internalType": "string",
              "name": "feedback",
              "type": "string"
            },
            {
              "internalType": "uint256",
              "name": "datetime",
              "type": "uint256"
            },
            {
              "internalType": "uint256",
              "name": "lecturerUId",
              "type": "uint256"
            },
            {
              "internalType": "bool",
              "name": "isAutomatic",
              "type": "bool"
            }
          ],
          "internalType": "struct PerformanceDataTypes.Grade",
          "name": "",
          "type": "tuple"
        },
        {
          "internalType": "string",
          "name": "",
          "type": "string"
        },
        {
          "internalType": "string",
          "name": "",
          "type": "string"
        }
      ],
      "stateMutability": "view",
      "type": "function"
    },
    {
      "inputs": [
        {
          "internalType": "uint256",
          "name": "courseId",
          "type": "uint256"
        },
        {
          "internalType": "uint256",
          "name": "studentUId",
          "type": "uint256"
        }
      ],
      "name": "getGradeOfStudent",
      "outputs": [
        {
          "components": [
            {
              "internalType": "bool",
              "name": "isSet",
              "type": "bool"
            },
            {
              "internalType": "uint256",
              "name": "value",
              "type": "uint256"
            },
            {
              "internalType": "string",
              "name": "feedback",
              "type": "string"
            },
            {
              "internalType": "uint256",
              "name": "datetime",
              "type": "uint256"
            },
            {
              "internalType": "uint256",
              "name": "lecturerUId",
              "type": "uint256"
            },
            {
              "internalType": "bool",
              "name": "isAutomatic",
              "type": "bool"
            }
          ],
          "internalType": "struct PerformanceDataTypes.Grade",
          "name": "",
          "type": "tuple"
        },
        {
          "internalType": "string",
          "name": "",
          "type": "string"
        },
        {
          "internalType": "string",
          "name": "",
          "type": "string"
        }
      ],
      "stateMutability": "view",
      "type": "function"
    },
    {
      "inputs": [
        {
          "internalType": "uint256",
          "name": "assessmentId",
          "type": "uint256"
        }
      ],
      "name": "getSubmission",
      "outputs": [
        {
          "components": [
            {
              "internalType": "bool",
              "name": "isSet",
              "type": "bool"
            },
            {
              "internalType": "uint256",
              "name": "submissionDatetime",
              "type": "uint256"
            },
            {
              "internalType": "string[]",
              "name": "documentHashes",
              "type": "string[]"
            }
          ],
          "internalType": "struct PerformanceDataTypes.Submission",
          "name": "",
          "type": "tuple"
        }
      ],
      "stateMutability": "view",
      "type": "function"
    },
    {
      "inputs": [
        {
          "internalType": "uint256",
          "name": "assessmentId",
          "type": "uint256"
        },
        {
          "internalType": "uint256",
          "name": "studentUId",
          "type": "uint256"
        }
      ],
      "name": "getSubmissionOfStudent",
      "outputs": [
        {
          "components": [
            {
              "internalType": "bool",
              "name": "isSet",
              "type": "bool"
            },
            {
              "internalType": "uint256",
              "name": "submissionDatetime",
              "type": "uint256"
            },
            {
              "internalType": "string[]",
              "name": "documentHashes",
              "type": "string[]"
            }
          ],
          "internalType": "struct PerformanceDataTypes.Submission",
          "name": "",
          "type": "tuple"
        }
      ],
      "stateMutability": "view",
      "type": "function"
    },
    {
      "inputs": [
        {
          "internalType": "uint256",
          "name": "assessmentId",
          "type": "uint256"
        },
        {
          "internalType": "uint256",
          "name": "studentUId",
          "type": "uint256"
        }
      ],
      "name": "isEvaluationOfStudentSet",
      "outputs": [
        {
          "internalType": "bool",
          "name": "",
          "type": "bool"
        }
      ],
      "stateMutability": "view",
      "type": "function"
    },
    {
      "inputs": [
        {
          "internalType": "uint256",
          "name": "assessmentId",
          "type": "uint256"
        }
      ],
      "name": "isEvaluationSet",
      "outputs": [
        {
          "internalType": "bool",
          "name": "",
          "type": "bool"
        }
      ],
      "stateMutability": "view",
      "type": "function"
    },
    {
      "inputs": [
        {
          "internalType": "uint256",
          "name": "assessmentId",
          "type": "uint256"
        },
        {
          "internalType": "uint256",
          "name": "studentUId",
          "type": "uint256"
        }
      ],
      "name": "isExamAttendanceOfStudentSet",
      "outputs": [
        {
          "internalType": "bool",
          "name": "",
          "type": "bool"
        }
      ],
      "stateMutability": "view",
      "type": "function"
    },
    {
      "inputs": [
        {
          "internalType": "uint256",
          "name": "assessmentId",
          "type": "uint256"
        }
      ],
      "name": "isExamAttendanceSet",
      "outputs": [
        {
          "internalType": "bool",
          "name": "",
          "type": "bool"
        }
      ],
      "stateMutability": "view",
      "type": "function"
    },
    {
      "inputs": [
        {
          "internalType": "uint256",
          "name": "courseId",
          "type": "uint256"
        },
        {
          "internalType": "uint256",
          "name": "studentUId",
          "type": "uint256"
        }
      ],
      "name": "isGradeOfStudentSet",
      "outputs": [
        {
          "internalType": "bool",
          "name": "",
          "type": "bool"
        }
      ],
      "stateMutability": "view",
      "type": "function"
    },
    {
      "inputs": [
        {
          "internalType": "uint256",
          "name": "courseId",
          "type": "uint256"
        }
      ],
      "name": "isGradeSet",
      "outputs": [
        {
          "internalType": "bool",
          "name": "",
          "type": "bool"
        }
      ],
      "stateMutability": "view",
      "type": "function"
    },
    {
      "inputs": [
        {
          "internalType": "uint256",
          "name": "assessmentId",
          "type": "uint256"
        },
        {
          "internalType": "uint256",
          "name": "studentUId",
          "type": "uint256"
        }
      ],
      "name": "isSubmissionOfStudentSet",
      "outputs": [
        {
          "internalType": "bool",
          "name": "",
          "type": "bool"
        }
      ],
      "stateMutability": "view",
      "type": "function"
    },
    {
      "inputs": [
        {
          "internalType": "uint256",
          "name": "assessmentId",
          "type": "uint256"
        }
      ],
      "name": "isSubmissionSet",
      "outputs": [
        {
          "internalType": "bool",
          "name": "",
          "type": "bool"
        }
      ],
      "stateMutability": "view",
      "type": "function"
    }
  ],
  "bytecode": "0x60806040523480156200001157600080fd5b5060405162004351380380620043518339818101604052810190620000379190620000ec565b8080806000806101000a81548173ffffffffffffffffffffffffffffffffffffffff021916908373ffffffffffffffffffffffffffffffffffffffff1602179055505050506200011e565b600080fd5b600073ffffffffffffffffffffffffffffffffffffffff82169050919050565b6000620000b48262000087565b9050919050565b620000c681620000a7565b8114620000d257600080fd5b50565b600081519050620000e681620000bb565b92915050565b60006020828403121562000105576200010462000082565b5b60006200011584828501620000d5565b91505092915050565b614223806200012e6000396000f3fe608060405234801561001057600080fd5b50600436106101005760003560e01c806369af4c5611610097578063c964edc311610066578063c964edc314610349578063e1e0485e1461037b578063ed33461b146103ad578063f5777b43146103dd57610100565b806369af4c56146102875780637411e128146102b7578063b73361c5146102e7578063c23d4c851461031757610100565b806333c09532116100d357806333c09532146101c55780633e8686cc146101f557806345e231171461022557806353eeac431461025557610100565b806301c26d22146101055780630663678c146101355780632b559758146101655780633065aa4214610195575b600080fd5b61011f600480360381019061011a9190612f5b565b61040d565b60405161012c9190612fa3565b60405180910390f35b61014f600480360381019061014a9190612fbe565b610617565b60405161015c9190612fa3565b60405180910390f35b61017f600480360381019061017a9190612f5b565b61079d565b60405161018c919061305e565b60405180910390f35b6101af60048036038101906101aa9190612fbe565b6109b6565b6040516101bc919061321b565b60405180910390f35b6101df60048036038101906101da9190612fbe565b610b50565b6040516101ec9190612fa3565b60405180910390f35b61020f600480360381019061020a9190612f5b565b610cdf565b60405161021c919061321b565b60405180910390f35b61023f600480360381019061023a9190612fbe565b610efd565b60405161024c9190612fa3565b60405180910390f35b61026f600480360381019061026a9190612fbe565b611083565b60405161027e939291906132fd565b60405180910390f35b6102a1600480360381019061029c9190612f5b565b61119e565b6040516102ae9190612fa3565b60405180910390f35b6102d160048036038101906102cc9190612f5b565b6113b1565b6040516102de9190612fa3565b60405180910390f35b61030160048036038101906102fc9190612fbe565b6115c4565b60405161030e9190612fa3565b60405180910390f35b610331600480360381019061032c9190612f5b565b611753565b604051610340939291906132fd565b60405180910390f35b610363600480360381019061035e9190612fbe565b6118f3565b604051610372939291906133d2565b60405180910390f35b61039560048036038101906103909190612f5b565b611a0e565b6040516103a4939291906133d2565b60405180910390f35b6103c760048036038101906103c29190612f5b565b611bae565b6040516103d49190612fa3565b60405180910390f35b6103f760048036038101906103f29190612fbe565b611db8565b604051610404919061305e565b60405180910390f35b6000610417611f4d565b6000600281111561042b5761042a61341e565b5b61043361200f565b73ffffffffffffffffffffffffffffffffffffffff1663dd8b2914336040518263ffffffff1660e01b815260040161046b919061348e565b602060405180830381865afa158015610488573d6000803e3d6000fd5b505050506040513d601f19601f820116820180604052508101906104ac91906134ce565b60028111156104be576104bd61341e565b5b146104fe576040517f08c379a00000000000000000000000000000000000000000000000000000000081526004016104f590613547565b60405180910390fd5b610507826120b2565b600061051161200f565b73ffffffffffffffffffffffffffffffffffffffff1663e3d7e14c336040518263ffffffff1660e01b8152600401610549919061348e565b602060405180830381865afa158015610566573d6000803e3d6000fd5b505050506040513d601f19601f8201168201806040525081019061058a919061357c565b90506105946121d3565b73ffffffffffffffffffffffffffffffffffffffff1663cfca6e9782856040518363ffffffff1660e01b81526004016105ce9291906135b8565b602060405180830381865afa1580156105eb573d6000803e3d6000fd5b505050506040513d601f19601f8201168201806040525081019061060f919061360d565b915050919050565b6000610621611f4d565b600160028111156106355761063461341e565b5b61063d61200f565b73ffffffffffffffffffffffffffffffffffffffff1663dd8b2914336040518263ffffffff1660e01b8152600401610675919061348e565b602060405180830381865afa158015610692573d6000803e3d6000fd5b505050506040513d601f19601f820116820180604052508101906106b691906134ce565b60028111156106c8576106c761341e565b5b14610708576040517f08c379a00000000000000000000000000000000000000000000000000000000081526004016106ff90613686565b60405180910390fd5b6107128383612276565b61071a6121d3565b73ffffffffffffffffffffffffffffffffffffffff1663cfca6e9783856040518363ffffffff1660e01b81526004016107549291906135b8565b602060405180830381865afa158015610771573d6000803e3d6000fd5b505050506040513d601f19601f82011682018060405250810190610795919061360d565b905092915050565b6107a5612e5e565b6107ad611f4d565b600060028111156107c1576107c061341e565b5b6107c961200f565b73ffffffffffffffffffffffffffffffffffffffff1663dd8b2914336040518263ffffffff1660e01b8152600401610801919061348e565b602060405180830381865afa15801561081e573d6000803e3d6000fd5b505050506040513d601f19601f8201168201806040525081019061084291906134ce565b60028111156108545761085361341e565b5b14610894576040517f08c379a000000000000000000000000000000000000000000000000000000000815260040161088b90613547565b60405180910390fd5b61089d826120b2565b6108a6826123aa565b60006108b061200f565b73ffffffffffffffffffffffffffffffffffffffff1663e3d7e14c336040518263ffffffff1660e01b81526004016108e8919061348e565b602060405180830381865afa158015610905573d6000803e3d6000fd5b505050506040513d601f19601f82011682018060405250810190610929919061357c565b90506109336121d3565b73ffffffffffffffffffffffffffffffffffffffff1663fdd3f03682856040518363ffffffff1660e01b815260040161096d9291906135b8565b606060405180830381865afa15801561098a573d6000803e3d6000fd5b505050506040513d601f19601f820116820180604052508101906109ae919061378f565b915050919050565b6109be612e83565b6109c6611f4d565b600160028111156109da576109d961341e565b5b6109e261200f565b73ffffffffffffffffffffffffffffffffffffffff1663dd8b2914336040518263ffffffff1660e01b8152600401610a1a919061348e565b602060405180830381865afa158015610a37573d6000803e3d6000fd5b505050506040513d601f19601f82011682018060405250810190610a5b91906134ce565b6002811115610a6d57610a6c61341e565b5b14610aad576040517f08c379a0000000000000000000000000000000000000000000000000000000008152600401610aa490613686565b60405180910390fd5b610ab78383612276565b610ac083612494565b610ac86121d3565b73ffffffffffffffffffffffffffffffffffffffff1663b7ed707183856040518363ffffffff1660e01b8152600401610b029291906135b8565b600060405180830381865afa158015610b1f573d6000803e3d6000fd5b505050506040513d6000823e3d601f19601f82011682018060405250810190610b4891906139cd565b905092915050565b6000610b5a611f4d565b60016002811115610b6e57610b6d61341e565b5b610b7661200f565b73ffffffffffffffffffffffffffffffffffffffff1663dd8b2914336040518263ffffffff1660e01b8152600401610bae919061348e565b602060405180830381865afa158015610bcb573d6000803e3d6000fd5b505050506040513d601f19601f82011682018060405250810190610bef91906134ce565b6002811115610c0157610c0061341e565b5b14610c41576040517f08c379a0000000000000000000000000000000000000000000000000000000008152600401610c3890613686565b60405180910390fd5b610c4b8383612276565b610c5483612494565b610c5c6121d3565b73ffffffffffffffffffffffffffffffffffffffff16631a2a2c4a83856040518363ffffffff1660e01b8152600401610c969291906135b8565b602060405180830381865afa158015610cb3573d6000803e3d6000fd5b505050506040513d601f19601f82011682018060405250810190610cd7919061360d565b905092915050565b610ce7612e83565b610cef611f4d565b60006002811115610d0357610d0261341e565b5b610d0b61200f565b73ffffffffffffffffffffffffffffffffffffffff1663dd8b2914336040518263ffffffff1660e01b8152600401610d43919061348e565b602060405180830381865afa158015610d60573d6000803e3d6000fd5b505050506040513d601f19601f82011682018060405250810190610d8491906134ce565b6002811115610d9657610d9561341e565b5b14610dd6576040517f08c379a0000000000000000000000000000000000000000000000000000000008152600401610dcd90613547565b60405180910390fd5b610ddf826120b2565b610de882612494565b6000610df261200f565b73ffffffffffffffffffffffffffffffffffffffff1663e3d7e14c336040518263ffffffff1660e01b8152600401610e2a919061348e565b602060405180830381865afa158015610e47573d6000803e3d6000fd5b505050506040513d601f19601f82011682018060405250810190610e6b919061357c565b9050610e756121d3565b73ffffffffffffffffffffffffffffffffffffffff1663b7ed707182856040518363ffffffff1660e01b8152600401610eaf9291906135b8565b600060405180830381865afa158015610ecc573d6000803e3d6000fd5b505050506040513d6000823e3d601f19601f82011682018060405250810190610ef591906139cd565b915050919050565b6000610f07611f4d565b60016002811115610f1b57610f1a61341e565b5b610f2361200f565b73ffffffffffffffffffffffffffffffffffffffff1663dd8b2914336040518263ffffffff1660e01b8152600401610f5b919061348e565b602060405180830381865afa158015610f78573d6000803e3d6000fd5b505050506040513d601f19601f82011682018060405250810190610f9c91906134ce565b6002811115610fae57610fad61341e565b5b14610fee576040517f08c379a0000000000000000000000000000000000000000000000000000000008152600401610fe590613686565b60405180910390fd5b610ff8838361257d565b6110006121d3565b73ffffffffffffffffffffffffffffffffffffffff1663130cd89183856040518363ffffffff1660e01b815260040161103a9291906135b8565b602060405180830381865afa158015611057573d6000803e3d6000fd5b505050506040513d601f19601f8201168201806040525081019061107b919061360d565b905092915050565b61108b612ea6565b606080611096611f4d565b600160028111156110aa576110a961341e565b5b6110b261200f565b73ffffffffffffffffffffffffffffffffffffffff1663dd8b2914336040518263ffffffff1660e01b81526004016110ea919061348e565b602060405180830381865afa158015611107573d6000803e3d6000fd5b505050506040513d601f19601f8201168201806040525081019061112b91906134ce565b600281111561113d5761113c61341e565b5b1461117d576040517f08c379a000000000000000000000000000000000000000000000000000000000815260040161117490613686565b60405180910390fd5b6111878585612276565b611191858561262b565b9250925092509250925092565b60006111a8611f4d565b600060028111156111bc576111bb61341e565b5b6111c461200f565b73ffffffffffffffffffffffffffffffffffffffff1663dd8b2914336040518263ffffffff1660e01b81526004016111fc919061348e565b602060405180830381865afa158015611219573d6000803e3d6000fd5b505050506040513d601f19601f8201168201806040525081019061123d91906134ce565b600281111561124f5761124e61341e565b5b1461128f576040517f08c379a000000000000000000000000000000000000000000000000000000000815260040161128690613547565b60405180910390fd5b611298826120b2565b6112a1826123aa565b60006112ab61200f565b73ffffffffffffffffffffffffffffffffffffffff1663e3d7e14c336040518263ffffffff1660e01b81526004016112e3919061348e565b602060405180830381865afa158015611300573d6000803e3d6000fd5b505050506040513d601f19601f82011682018060405250810190611324919061357c565b905061132e6121d3565b73ffffffffffffffffffffffffffffffffffffffff1663683391e482856040518363ffffffff1660e01b81526004016113689291906135b8565b602060405180830381865afa158015611385573d6000803e3d6000fd5b505050506040513d601f19601f820116820180604052508101906113a9919061360d565b915050919050565b60006113bb611f4d565b600060028111156113cf576113ce61341e565b5b6113d761200f565b73ffffffffffffffffffffffffffffffffffffffff1663dd8b2914336040518263ffffffff1660e01b815260040161140f919061348e565b602060405180830381865afa15801561142c573d6000803e3d6000fd5b505050506040513d601f19601f8201168201806040525081019061145091906134ce565b60028111156114625761146161341e565b5b146114a2576040517f08c379a000000000000000000000000000000000000000000000000000000000815260040161149990613547565b60405180910390fd5b6114ab826120b2565b6114b482612494565b60006114be61200f565b73ffffffffffffffffffffffffffffffffffffffff1663e3d7e14c336040518263ffffffff1660e01b81526004016114f6919061348e565b602060405180830381865afa158015611513573d6000803e3d6000fd5b505050506040513d601f19601f82011682018060405250810190611537919061357c565b90506115416121d3565b73ffffffffffffffffffffffffffffffffffffffff16631a2a2c4a82856040518363ffffffff1660e01b815260040161157b9291906135b8565b602060405180830381865afa158015611598573d6000803e3d6000fd5b505050506040513d601f19601f820116820180604052508101906115bc919061360d565b915050919050565b60006115ce611f4d565b600160028111156115e2576115e161341e565b5b6115ea61200f565b73ffffffffffffffffffffffffffffffffffffffff1663dd8b2914336040518263ffffffff1660e01b8152600401611622919061348e565b602060405180830381865afa15801561163f573d6000803e3d6000fd5b505050506040513d601f19601f8201168201806040525081019061166391906134ce565b60028111156116755761167461341e565b5b146116b5576040517f08c379a00000000000000000000000000000000000000000000000000000000081526004016116ac90613686565b60405180910390fd5b6116bf8383612276565b6116c8836123aa565b6116d06121d3565b73ffffffffffffffffffffffffffffffffffffffff1663683391e483856040518363ffffffff1660e01b815260040161170a9291906135b8565b602060405180830381865afa158015611727573d6000803e3d6000fd5b505050506040513d601f19601f8201168201806040525081019061174b919061360d565b905092915050565b61175b612ea6565b606080611766611f4d565b6000600281111561177a5761177961341e565b5b61178261200f565b73ffffffffffffffffffffffffffffffffffffffff1663dd8b2914336040518263ffffffff1660e01b81526004016117ba919061348e565b602060405180830381865afa1580156117d7573d6000803e3d6000fd5b505050506040513d601f19601f820116820180604052508101906117fb91906134ce565b600281111561180d5761180c61341e565b5b1461184d576040517f08c379a000000000000000000000000000000000000000000000000000000000815260040161184490613547565b60405180910390fd5b611856846120b2565b600061186061200f565b73ffffffffffffffffffffffffffffffffffffffff1663e3d7e14c336040518263ffffffff1660e01b8152600401611898919061348e565b602060405180830381865afa1580156118b5573d6000803e3d6000fd5b505050506040513d601f19601f820116820180604052508101906118d9919061357c565b90506118e5858261262b565b935093509350509193909250565b6118fb612ed7565b606080611906611f4d565b6001600281111561191a5761191961341e565b5b61192261200f565b73ffffffffffffffffffffffffffffffffffffffff1663dd8b2914336040518263ffffffff1660e01b815260040161195a919061348e565b602060405180830381865afa158015611977573d6000803e3d6000fd5b505050506040513d601f19601f8201168201806040525081019061199b91906134ce565b60028111156119ad576119ac61341e565b5b146119ed576040517f08c379a00000000000000000000000000000000000000000000000000000000081526004016119e490613686565b60405180910390fd5b6119f7858561257d565b611a018585612847565b9250925092509250925092565b611a16612ed7565b606080611a21611f4d565b60006002811115611a3557611a3461341e565b5b611a3d61200f565b73ffffffffffffffffffffffffffffffffffffffff1663dd8b2914336040518263ffffffff1660e01b8152600401611a75919061348e565b602060405180830381865afa158015611a92573d6000803e3d6000fd5b505050506040513d601f19601f82011682018060405250810190611ab691906134ce565b6002811115611ac857611ac761341e565b5b14611b08576040517f08c379a0000000000000000000000000000000000000000000000000000000008152600401611aff90613547565b60405180910390fd5b611b1184612a63565b6000611b1b61200f565b73ffffffffffffffffffffffffffffffffffffffff1663e3d7e14c336040518263ffffffff1660e01b8152600401611b53919061348e565b602060405180830381865afa158015611b70573d6000803e3d6000fd5b505050506040513d601f19601f82011682018060405250810190611b94919061357c565b9050611ba08582612847565b935093509350509193909250565b6000611bb8611f4d565b60006002811115611bcc57611bcb61341e565b5b611bd461200f565b73ffffffffffffffffffffffffffffffffffffffff1663dd8b2914336040518263ffffffff1660e01b8152600401611c0c919061348e565b602060405180830381865afa158015611c29573d6000803e3d6000fd5b505050506040513d601f19601f82011682018060405250810190611c4d91906134ce565b6002811115611c5f57611c5e61341e565b5b14611c9f576040517f08c379a0000000000000000000000000000000000000000000000000000000008152600401611c9690613547565b60405180910390fd5b611ca882612a63565b6000611cb261200f565b73ffffffffffffffffffffffffffffffffffffffff1663e3d7e14c336040518263ffffffff1660e01b8152600401611cea919061348e565b602060405180830381865afa158015611d07573d6000803e3d6000fd5b505050506040513d601f19601f82011682018060405250810190611d2b919061357c565b9050611d356121d3565b73ffffffffffffffffffffffffffffffffffffffff1663130cd89182856040518363ffffffff1660e01b8152600401611d6f9291906135b8565b602060405180830381865afa158015611d8c573d6000803e3d6000fd5b505050506040513d601f19601f82011682018060405250810190611db0919061360d565b915050919050565b611dc0612e5e565b611dc8611f4d565b60016002811115611ddc57611ddb61341e565b5b611de461200f565b73ffffffffffffffffffffffffffffffffffffffff1663dd8b2914336040518263ffffffff1660e01b8152600401611e1c919061348e565b602060405180830381865afa158015611e39573d6000803e3d6000fd5b505050506040513d601f19601f82011682018060405250810190611e5d91906134ce565b6002811115611e6f57611e6e61341e565b5b14611eaf576040517f08c379a0000000000000000000000000000000000000000000000000000000008152600401611ea690613686565b60405180910390fd5b611eb98383612276565b611ec2836123aa565b611eca6121d3565b73ffffffffffffffffffffffffffffffffffffffff1663fdd3f03683856040518363ffffffff1660e01b8152600401611f049291906135b8565b606060405180830381865afa158015611f21573d6000803e3d6000fd5b505050506040513d601f19601f82011682018060405250810190611f45919061378f565b905092915050565b611f5561200f565b73ffffffffffffffffffffffffffffffffffffffff166338b6a3a1336040518263ffffffff1660e01b8152600401611f8d919061348e565b602060405180830381865afa158015611faa573d6000803e3d6000fd5b505050506040513d601f19601f82011682018060405250810190611fce919061360d565b61200d576040517f08c379a000000000000000000000000000000000000000000000000000000000815260040161200490613a62565b60405180910390fd5b565b60008060009054906101000a900473ffffffffffffffffffffffffffffffffffffffff1673ffffffffffffffffffffffffffffffffffffffff1663bcaa0c5560026040518263ffffffff1660e01b815260040161206c9190613aca565b602060405180830381865afa158015612089573d6000803e3d6000fd5b505050506040513d601f19601f820116820180604052508101906120ad9190613b11565b905090565b60006120bc61200f565b73ffffffffffffffffffffffffffffffffffffffff1663e3d7e14c336040518263ffffffff1660e01b81526004016120f4919061348e565b602060405180830381865afa158015612111573d6000803e3d6000fd5b505050506040513d601f19601f82011682018060405250810190612135919061357c565b90506000612141612afe565b73ffffffffffffffffffffffffffffffffffffffff1663a31cf91f846040518263ffffffff1660e01b81526004016121799190613b3e565b602060405180830381865afa158015612196573d6000803e3d6000fd5b505050506040513d601f19601f820116820180604052508101906121ba919061357c565b90506121ce82826121c9612ba1565b612c44565b505050565b60008060009054906101000a900473ffffffffffffffffffffffffffffffffffffffff1673ffffffffffffffffffffffffffffffffffffffff1663bcaa0c5560036040518263ffffffff1660e01b81526004016122309190613aca565b602060405180830381865afa15801561224d573d6000803e3d6000fd5b505050506040513d601f19601f820116820180604052508101906122719190613b11565b905090565b600061228061200f565b73ffffffffffffffffffffffffffffffffffffffff1663e3d7e14c336040518263ffffffff1660e01b81526004016122b8919061348e565b602060405180830381865afa1580156122d5573d6000803e3d6000fd5b505050506040513d601f19601f820116820180604052508101906122f9919061357c565b90506000612305612afe565b73ffffffffffffffffffffffffffffffffffffffff1663a31cf91f856040518263ffffffff1660e01b815260040161233d9190613b3e565b602060405180830381865afa15801561235a573d6000803e3d6000fd5b505050506040513d601f19601f8201168201806040525081019061237e919061357c565b9050612392828261238d612ba1565b612d04565b6123a4838261239f612ba1565b612c44565b50505050565b600060018111156123be576123bd61341e565b5b6123c6612afe565b73ffffffffffffffffffffffffffffffffffffffff1663e9eb5356836040518263ffffffff1660e01b81526004016123fe9190613b3e565b602060405180830381865afa15801561241b573d6000803e3d6000fd5b505050506040513d601f19601f8201168201806040525081019061243f9190613b7e565b60018111156124515761245061341e565b5b14612491576040517f08c379a000000000000000000000000000000000000000000000000000000000815260040161248890613bf7565b60405180910390fd5b50565b6001808111156124a7576124a661341e565b5b6124af612afe565b73ffffffffffffffffffffffffffffffffffffffff1663e9eb5356836040518263ffffffff1660e01b81526004016124e79190613b3e565b602060405180830381865afa158015612504573d6000803e3d6000fd5b505050506040513d601f19601f820116820180604052508101906125289190613b7e565b600181111561253a5761253961341e565b5b1461257a576040517f08c379a000000000000000000000000000000000000000000000000000000000815260040161257190613c89565b60405180910390fd5b50565b600061258761200f565b73ffffffffffffffffffffffffffffffffffffffff1663e3d7e14c336040518263ffffffff1660e01b81526004016125bf919061348e565b602060405180830381865afa1580156125dc573d6000803e3d6000fd5b505050506040513d601f19601f82011682018060405250810190612600919061357c565b9050612614818461260f612ba1565b612d04565b6126268284612621612ba1565b612c44565b505050565b612633612ea6565b60608060006126406121d3565b73ffffffffffffffffffffffffffffffffffffffff16635e4a739286886040518363ffffffff1660e01b815260040161267a9291906135b8565b600060405180830381865afa158015612697573d6000803e3d6000fd5b505050506040513d6000823e3d601f19601f820116820180604052508101906126c09190613d51565b905060006126cc6121d3565b73ffffffffffffffffffffffffffffffffffffffff1663829e90d587896040518363ffffffff1660e01b81526004016127069291906135b8565b602060405180830381865afa158015612723573d6000803e3d6000fd5b505050506040513d601f19601f82011682018060405250810190612747919061357c565b9050600081036127a557816040518060400160405280600681526020017f53797374656d0000000000000000000000000000000000000000000000000000815250604051806020016040528060008152509450945094505050612840565b6000806127b061200f565b73ffffffffffffffffffffffffffffffffffffffff1663988da80f846040518263ffffffff1660e01b81526004016127e89190613b3e565b600060405180830381865afa158015612805573d6000803e3d6000fd5b505050506040513d6000823e3d601f19601f8201168201806040525081019061282e9190613d9a565b91509150838282965096509650505050505b9250925092565b61284f612ed7565b606080600061285c6121d3565b73ffffffffffffffffffffffffffffffffffffffff1663374a62a086886040518363ffffffff1660e01b81526004016128969291906135b8565b600060405180830381865afa1580156128b3573d6000803e3d6000fd5b505050506040513d6000823e3d601f19601f820116820180604052508101906128dc9190613ece565b905060006128e86121d3565b73ffffffffffffffffffffffffffffffffffffffff1663d2ceb78887896040518363ffffffff1660e01b81526004016129229291906135b8565b602060405180830381865afa15801561293f573d6000803e3d6000fd5b505050506040513d601f19601f82011682018060405250810190612963919061357c565b9050600081036129c157816040518060400160405280600681526020017f53797374656d0000000000000000000000000000000000000000000000000000815250604051806020016040528060008152509450945094505050612a5c565b6000806129cc61200f565b73ffffffffffffffffffffffffffffffffffffffff1663988da80f846040518263ffffffff1660e01b8152600401612a049190613b3e565b600060405180830381865afa158015612a21573d6000803e3d6000fd5b505050506040513d6000823e3d601f19601f82011682018060405250810190612a4a9190613d9a565b91509150838282965096509650505050505b9250925092565b6000612a6d61200f565b73ffffffffffffffffffffffffffffffffffffffff1663e3d7e14c336040518263ffffffff1660e01b8152600401612aa5919061348e565b602060405180830381865afa158015612ac2573d6000803e3d6000fd5b505050506040513d601f19601f82011682018060405250810190612ae6919061357c565b9050612afa8183612af5612ba1565b612c44565b5050565b60008060009054906101000a900473ffffffffffffffffffffffffffffffffffffffff1673ffffffffffffffffffffffffffffffffffffffff1663bcaa0c5560016040518263ffffffff1660e01b8152600401612b5b9190613aca565b602060405180830381865afa158015612b78573d6000803e3d6000fd5b505050506040513d601f19601f82011682018060405250810190612b9c9190613b11565b905090565b60008060009054906101000a900473ffffffffffffffffffffffffffffffffffffffff1673ffffffffffffffffffffffffffffffffffffffff1663bcaa0c5560006040518263ffffffff1660e01b8152600401612bfe9190613aca565b602060405180830381865afa158015612c1b573d6000803e3d6000fd5b505050506040513d601f19601f82011682018060405250810190612c3f9190613b11565b905090565b8073ffffffffffffffffffffffffffffffffffffffff16633932708b84846040518363ffffffff1660e01b8152600401612c7f9291906135b8565b602060405180830381865afa158015612c9c573d6000803e3d6000fd5b505050506040513d601f19601f82011682018060405250810190612cc0919061360d565b612cff576040517f08c379a0000000000000000000000000000000000000000000000000000000008152600401612cf690613f89565b60405180910390fd5b505050565b612d8c838273ffffffffffffffffffffffffffffffffffffffff1663bd9c1b50856040518263ffffffff1660e01b8152600401612d419190613b3e565b600060405180830381865afa158015612d5e573d6000803e3d6000fd5b505050506040513d6000823e3d601f19601f82011682018060405250810190612d87919061406c565b612dd0565b612dcb576040517f08c379a0000000000000000000000000000000000000000000000000000000008152600401612dc290614127565b60405180910390fd5b505050565b600080612ddd8484612de7565b1215905092915050565b600080600090505b8251811015612e335783838281518110612e0c57612e0b614147565b5b602002602001015103612e225780915050612e58565b80612e2c906141a5565b9050612def565b507fffffffffffffffffffffffffffffffffffffffffffffffffffffffffffffffff90505b92915050565b6040518060600160405280600015158152602001600015158152602001600081525090565b604051806060016040528060001515815260200160008152602001606081525090565b6040518060a00160405280600015158152602001600081526020016000815260200160608152602001600081525090565b6040518060c00160405280600015158152602001600081526020016060815260200160008152602001600081526020016000151581525090565b6000604051905090565b600080fd5b600080fd5b6000819050919050565b612f3881612f25565b8114612f4357600080fd5b50565b600081359050612f5581612f2f565b92915050565b600060208284031215612f7157612f70612f1b565b5b6000612f7f84828501612f46565b91505092915050565b60008115159050919050565b612f9d81612f88565b82525050565b6000602082019050612fb86000830184612f94565b92915050565b60008060408385031215612fd557612fd4612f1b565b5b6000612fe385828601612f46565b9250506020612ff485828601612f46565b9150509250929050565b61300781612f88565b82525050565b61301681612f25565b82525050565b6060820160008201516130326000850182612ffe565b5060208201516130456020850182612ffe565b506040820151613058604085018261300d565b50505050565b6000606082019050613073600083018461301c565b92915050565b600081519050919050565b600082825260208201905092915050565b6000819050602082019050919050565b600081519050919050565b600082825260208201905092915050565b60005b838110156130df5780820151818401526020810190506130c4565b60008484015250505050565b6000601f19601f8301169050919050565b6000613107826130a5565b61311181856130b0565b93506131218185602086016130c1565b61312a816130eb565b840191505092915050565b600061314183836130fc565b905092915050565b6000602082019050919050565b600061316182613079565b61316b8185613084565b93508360208202850161317d85613095565b8060005b858110156131b9578484038952815161319a8582613135565b94506131a583613149565b925060208a01995050600181019050613181565b50829750879550505050505092915050565b60006060830160008301516131e36000860182612ffe565b5060208301516131f6602086018261300d565b506040830151848203604086015261320e8282613156565b9150508091505092915050565b6000602082019050818103600083015261323581846131cb565b905092915050565b600060a0830160008301516132556000860182612ffe565b506020830151613268602086018261300d565b50604083015161327b604086018261300d565b506060830151848203606086015261329382826130fc565b91505060808301516132a8608086018261300d565b508091505092915050565b600082825260208201905092915050565b60006132cf826130a5565b6132d981856132b3565b93506132e98185602086016130c1565b6132f2816130eb565b840191505092915050565b60006060820190508181036000830152613317818661323d565b9050818103602083015261332b81856132c4565b9050818103604083015261333f81846132c4565b9050949350505050565b600060c0830160008301516133616000860182612ffe565b506020830151613374602086018261300d565b506040830151848203604086015261338c82826130fc565b91505060608301516133a1606086018261300d565b5060808301516133b4608086018261300d565b5060a08301516133c760a0860182612ffe565b508091505092915050565b600060608201905081810360008301526133ec8186613349565b9050818103602083015261340081856132c4565b9050818103604083015261341481846132c4565b9050949350505050565b7f4e487b7100000000000000000000000000000000000000000000000000000000600052602160045260246000fd5b600073ffffffffffffffffffffffffffffffffffffffff82169050919050565b60006134788261344d565b9050919050565b6134888161346d565b82525050565b60006020820190506134a3600083018461347f565b92915050565b600381106134b657600080fd5b50565b6000815190506134c8816134a9565b92915050565b6000602082840312156134e4576134e3612f1b565b5b60006134f2848285016134b9565b91505092915050565b7f53656e646572206d75737420626520612073747564656e740000000000000000600082015250565b60006135316018836132b3565b915061353c826134fb565b602082019050919050565b6000602082019050818103600083015261356081613524565b9050919050565b60008151905061357681612f2f565b92915050565b60006020828403121561359257613591612f1b565b5b60006135a084828501613567565b91505092915050565b6135b281612f25565b82525050565b60006040820190506135cd60008301856135a9565b6135da60208301846135a9565b9392505050565b6135ea81612f88565b81146135f557600080fd5b50565b600081519050613607816135e1565b92915050565b60006020828403121561362357613622612f1b565b5b6000613631848285016135f8565b91505092915050565b7f53656e646572206d7573742062652061206c6563747572657200000000000000600082015250565b60006136706019836132b3565b915061367b8261363a565b602082019050919050565b6000602082019050818103600083015261369f81613663565b9050919050565b600080fd5b7f4e487b7100000000000000000000000000000000000000000000000000000000600052604160045260246000fd5b6136e3826130eb565b810181811067ffffffffffffffff82111715613702576137016136ab565b5b80604052505050565b6000613715612f11565b905061372182826136da565b919050565b600080fd5b600060608284031215613741576137406136a6565b5b61374b606061370b565b9050600061375b848285016135f8565b600083015250602061376f848285016135f8565b602083015250604061378384828501613567565b60408301525092915050565b6000606082840312156137a5576137a4612f1b565b5b60006137b38482850161372b565b91505092915050565b600080fd5b600067ffffffffffffffff8211156137dc576137db6136ab565b5b602082029050602081019050919050565b600080fd5b600080fd5b600067ffffffffffffffff821115613812576138116136ab565b5b61381b826130eb565b9050602081019050919050565b600061383b613836846137f7565b61370b565b905082815260208101848484011115613857576138566137f2565b5b6138628482856130c1565b509392505050565b600082601f83011261387f5761387e6137bc565b5b815161388f848260208601613828565b91505092915050565b60006138ab6138a6846137c1565b61370b565b905080838252602082019050602084028301858111156138ce576138cd6137ed565b5b835b8181101561391557805167ffffffffffffffff8111156138f3576138f26137bc565b5b808601613900898261386a565b855260208501945050506020810190506138d0565b5050509392505050565b600082601f830112613934576139336137bc565b5b8151613944848260208601613898565b91505092915050565b600060608284031215613963576139626136a6565b5b61396d606061370b565b9050600061397d848285016135f8565b600083015250602061399184828501613567565b602083015250604082015167ffffffffffffffff8111156139b5576139b4613726565b5b6139c18482850161391f565b60408301525092915050565b6000602082840312156139e3576139e2612f1b565b5b600082015167ffffffffffffffff811115613a0157613a00612f20565b5b613a0d8482850161394d565b91505092915050565b7f53656e646572206d757374206265206120726567697374657265642075736572600082015250565b6000613a4c6020836132b3565b9150613a5782613a16565b602082019050919050565b60006020820190508181036000830152613a7b81613a3f565b9050919050565b60068110613a9357613a9261341e565b5b50565b6000819050613aa482613a82565b919050565b6000613ab482613a96565b9050919050565b613ac481613aa9565b82525050565b6000602082019050613adf6000830184613abb565b92915050565b613aee8161346d565b8114613af957600080fd5b50565b600081519050613b0b81613ae5565b92915050565b600060208284031215613b2757613b26612f1b565b5b6000613b3584828501613afc565b91505092915050565b6000602082019050613b5360008301846135a9565b92915050565b60028110613b6657600080fd5b50565b600081519050613b7881613b59565b92915050565b600060208284031215613b9457613b93612f1b565b5b6000613ba284828501613b69565b91505092915050565b7f54686973206173736573736d656e7420776173206e6f7420616e206578616d00600082015250565b6000613be1601f836132b3565b9150613bec82613bab565b602082019050919050565b60006020820190508181036000830152613c1081613bd4565b9050919050565b7f54686973206173736573736d656e7420776173206e6f742061207375626d697360008201527f73696f6e00000000000000000000000000000000000000000000000000000000602082015250565b6000613c736024836132b3565b9150613c7e82613c17565b604082019050919050565b60006020820190508181036000830152613ca281613c66565b9050919050565b600060a08284031215613cbf57613cbe6136a6565b5b613cc960a061370b565b90506000613cd9848285016135f8565b6000830152506020613ced84828501613567565b6020830152506040613d0184828501613567565b604083015250606082015167ffffffffffffffff811115613d2557613d24613726565b5b613d318482850161386a565b6060830152506080613d4584828501613567565b60808301525092915050565b600060208284031215613d6757613d66612f1b565b5b600082015167ffffffffffffffff811115613d8557613d84612f20565b5b613d9184828501613ca9565b91505092915050565b60008060408385031215613db157613db0612f1b565b5b600083015167ffffffffffffffff811115613dcf57613dce612f20565b5b613ddb8582860161386a565b925050602083015167ffffffffffffffff811115613dfc57613dfb612f20565b5b613e088582860161386a565b9150509250929050565b600060c08284031215613e2857613e276136a6565b5b613e3260c061370b565b90506000613e42848285016135f8565b6000830152506020613e5684828501613567565b602083015250604082015167ffffffffffffffff811115613e7a57613e79613726565b5b613e868482850161386a565b6040830152506060613e9a84828501613567565b6060830152506080613eae84828501613567565b60808301525060a0613ec2848285016135f8565b60a08301525092915050565b600060208284031215613ee457613ee3612f1b565b5b600082015167ffffffffffffffff811115613f0257613f01612f20565b5b613f0e84828501613e12565b91505092915050565b7f53747564656e74206973206e6f74207265676973746572656420746f2074686560008201527f20636f7572736500000000000000000000000000000000000000000000000000602082015250565b6000613f736027836132b3565b9150613f7e82613f17565b604082019050919050565b60006020820190508181036000830152613fa281613f66565b9050919050565b600067ffffffffffffffff821115613fc457613fc36136ab565b5b602082029050602081019050919050565b6000613fe8613fe384613fa9565b61370b565b9050808382526020820190506020840283018581111561400b5761400a6137ed565b5b835b8181101561403457806140208882613567565b84526020840193505060208101905061400d565b5050509392505050565b600082601f830112614053576140526137bc565b5b8151614063848260208601613fd5565b91505092915050565b60006020828403121561408257614081612f1b565b5b600082015167ffffffffffffffff8111156140a05761409f612f20565b5b6140ac8482850161403e565b91505092915050565b7f4c65637475726572206973206e6f74206c6563747572696e672061742074686960008201527f7320636f75727365000000000000000000000000000000000000000000000000602082015250565b60006141116028836132b3565b915061411c826140b5565b604082019050919050565b6000602082019050818103600083015261414081614104565b9050919050565b7f4e487b7100000000000000000000000000000000000000000000000000000000600052603260045260246000fd5b7f4e487b7100000000000000000000000000000000000000000000000000000000600052601160045260246000fd5b60006141b082612f25565b91507fffffffffffffffffffffffffffffffffffffffffffffffffffffffffffffffff82036141e2576141e1614176565b5b60018201905091905056fea264697066735822122020ebc4950c6f020402475e681e985930489f6e510d77ed0d480071507a0147a364736f6c63430008110033",
  "linkReferences": {},
  "deployedLinkReferences": {}
}