{
  "_format": "hh-sol-artifact-1",
  "contractName": "StudyProgramController",
  "sourceName": "contracts/logic/StudyProgramController.sol",
  "abi": [
    {
      "inputs": [
        {
          "internalType": "address",
          "name": "userDataManagerAddress",
          "type": "address"
        },
        {
          "internalType": "address",
          "name": "programDataManagerAddress",
          "type": "address"
        }
      ],
      "stateMutability": "nonpayable",
      "type": "constructor"
    },
    {
      "inputs": [
        {
          "internalType": "address",
          "name": "_address",
          "type": "address"
        }
      ],
      "name": "addAdmin",
      "outputs": [],
      "stateMutability": "nonpayable",
      "type": "function"
    },
    {
      "inputs": [
        {
          "internalType": "string",
          "name": "programName",
          "type": "string"
        }
      ],
      "name": "addAdminNewStudyProgram",
      "outputs": [],
      "stateMutability": "nonpayable",
      "type": "function"
    },
    {
      "inputs": [
        {
          "internalType": "string",
          "name": "programName",
          "type": "string"
        }
      ],
      "name": "addNewStudyProgram",
      "outputs": [],
      "stateMutability": "nonpayable",
      "type": "function"
    },
    {
      "inputs": [
        {
          "internalType": "address[]",
          "name": "addresses",
          "type": "address[]"
        }
      ],
      "name": "batchAddAdmin",
      "outputs": [],
      "stateMutability": "nonpayable",
      "type": "function"
    },
    {
      "inputs": [
        {
          "internalType": "address",
          "name": "_address",
          "type": "address"
        }
      ],
      "name": "isAdmin",
      "outputs": [
        {
          "internalType": "bool",
          "name": "",
          "type": "bool"
        }
      ],
      "stateMutability": "view",
      "type": "function"
    },
    {
      "inputs": [
        {
          "internalType": "address",
          "name": "_address",
          "type": "address"
        }
      ],
      "name": "removeAdmin",
      "outputs": [],
      "stateMutability": "nonpayable",
      "type": "function"
    }
  ],
  "bytecode": "0x60806040523480156200001157600080fd5b5060405162000fc838038062000fc883398181016040528101906200003791906200019a565b8180806000806101000a81548173ffffffffffffffffffffffffffffffffffffffff021916908373ffffffffffffffffffffffffffffffffffffffff16021790555050506001600760003373ffffffffffffffffffffffffffffffffffffffff1673ffffffffffffffffffffffffffffffffffffffff16815260200190815260200160002060006101000a81548160ff021916908315150217905550620000e481620000ec60201b60201c565b5050620001e1565b80600560006101000a81548173ffffffffffffffffffffffffffffffffffffffff021916908373ffffffffffffffffffffffffffffffffffffffff16021790555050565b600080fd5b600073ffffffffffffffffffffffffffffffffffffffff82169050919050565b6000620001628262000135565b9050919050565b620001748162000155565b81146200018057600080fd5b50565b600081519050620001948162000169565b92915050565b60008060408385031215620001b457620001b362000130565b5b6000620001c48582860162000183565b9250506020620001d78582860162000183565b9150509250929050565b610dd780620001f16000396000f3fe608060405234801561001057600080fd5b50600436106100625760003560e01c80631785f53c1461006757806324d7806c146100835780632c9ab42b146100b357806344706a3a146100cf57806370480275146100eb578063a03614bb14610107575b600080fd5b610081600480360381019061007c9190610823565b610123565b005b61009d60048036038101906100989190610823565b61020a565b6040516100aa919061086b565b60405180910390f35b6100cd60048036038101906100c891906108eb565b610260565b005b6100e960048036038101906100e4919061098e565b610340565b005b61010560048036038101906101009190610823565b61045f565b005b610121600480360381019061011c919061098e565b610546565b005b600760003373ffffffffffffffffffffffffffffffffffffffff1673ffffffffffffffffffffffffffffffffffffffff16815260200190815260200160002060009054906101000a900460ff166101af576040517f08c379a00000000000000000000000000000000000000000000000000000000081526004016101a690610a5e565b60405180910390fd5b6000600760008373ffffffffffffffffffffffffffffffffffffffff1673ffffffffffffffffffffffffffffffffffffffff16815260200190815260200160002060006101000a81548160ff02191690831515021790555050565b6000600760008373ffffffffffffffffffffffffffffffffffffffff1673ffffffffffffffffffffffffffffffffffffffff16815260200190815260200160002060009054906101000a900460ff169050919050565b600760003373ffffffffffffffffffffffffffffffffffffffff1673ffffffffffffffffffffffffffffffffffffffff16815260200190815260200160002060009054906101000a900460ff166102ec576040517f08c379a00000000000000000000000000000000000000000000000000000000081526004016102e390610a5e565b60405180910390fd5b60005b8282905081101561033b5761032a8383838181106103105761030f610a7e565b5b90506020020160208101906103259190610823565b61045f565b8061033490610ae6565b90506102ef565b505050565b600760003373ffffffffffffffffffffffffffffffffffffffff1673ffffffffffffffffffffffffffffffffffffffff16815260200190815260200160002060009054906101000a900460ff166103cc576040517f08c379a00000000000000000000000000000000000000000000000000000000081526004016103c390610a5e565b60405180910390fd5b600560009054906101000a900473ffffffffffffffffffffffffffffffffffffffff1673ffffffffffffffffffffffffffffffffffffffff1663d8342f2c83836040518363ffffffff1660e01b8152600401610429929190610b7b565b600060405180830381600087803b15801561044357600080fd5b505af1158015610457573d6000803e3d6000fd5b505050505050565b600760003373ffffffffffffffffffffffffffffffffffffffff1673ffffffffffffffffffffffffffffffffffffffff16815260200190815260200160002060009054906101000a900460ff166104eb576040517f08c379a00000000000000000000000000000000000000000000000000000000081526004016104e290610a5e565b60405180910390fd5b6001600760008373ffffffffffffffffffffffffffffffffffffffff1673ffffffffffffffffffffffffffffffffffffffff16815260200190815260200160002060006101000a81548160ff02191690831515021790555050565b61054e6106e0565b60028081111561056157610560610b9f565b5b60008054906101000a900473ffffffffffffffffffffffffffffffffffffffff1673ffffffffffffffffffffffffffffffffffffffff1663dd8b2914336040518263ffffffff1660e01b81526004016105ba9190610bdd565b602060405180830381865afa1580156105d7573d6000803e3d6000fd5b505050506040513d601f19601f820116820180604052508101906105fb9190610c1d565b600281111561060d5761060c610b9f565b5b1461064d576040517f08c379a000000000000000000000000000000000000000000000000000000000815260040161064490610cbc565b60405180910390fd5b600560009054906101000a900473ffffffffffffffffffffffffffffffffffffffff1673ffffffffffffffffffffffffffffffffffffffff1663d8342f2c83836040518363ffffffff1660e01b81526004016106aa929190610b7b565b600060405180830381600087803b1580156106c457600080fd5b505af11580156106d8573d6000803e3d6000fd5b505050505050565b60008054906101000a900473ffffffffffffffffffffffffffffffffffffffff1673ffffffffffffffffffffffffffffffffffffffff166338b6a3a1336040518263ffffffff1660e01b81526004016107399190610bdd565b602060405180830381865afa158015610756573d6000803e3d6000fd5b505050506040513d601f19601f8201168201806040525081019061077a9190610d08565b6107b9576040517f08c379a00000000000000000000000000000000000000000000000000000000081526004016107b090610d81565b60405180910390fd5b565b600080fd5b600080fd5b600073ffffffffffffffffffffffffffffffffffffffff82169050919050565b60006107f0826107c5565b9050919050565b610800816107e5565b811461080b57600080fd5b50565b60008135905061081d816107f7565b92915050565b600060208284031215610839576108386107bb565b5b60006108478482850161080e565b91505092915050565b60008115159050919050565b61086581610850565b82525050565b6000602082019050610880600083018461085c565b92915050565b600080fd5b600080fd5b600080fd5b60008083601f8401126108ab576108aa610886565b5b8235905067ffffffffffffffff8111156108c8576108c761088b565b5b6020830191508360208202830111156108e4576108e3610890565b5b9250929050565b60008060208385031215610902576109016107bb565b5b600083013567ffffffffffffffff8111156109205761091f6107c0565b5b61092c85828601610895565b92509250509250929050565b60008083601f84011261094e5761094d610886565b5b8235905067ffffffffffffffff81111561096b5761096a61088b565b5b60208301915083600182028301111561098757610986610890565b5b9250929050565b600080602083850312156109a5576109a46107bb565b5b600083013567ffffffffffffffff8111156109c3576109c26107c0565b5b6109cf85828601610938565b92509250509250929050565b600082825260208201905092915050565b7f4f6e6c792061646d696e206164647265737365732063616e2063616c6c20746860008201527f69732066756e6374696f6e000000000000000000000000000000000000000000602082015250565b6000610a48602b836109db565b9150610a53826109ec565b604082019050919050565b60006020820190508181036000830152610a7781610a3b565b9050919050565b7f4e487b7100000000000000000000000000000000000000000000000000000000600052603260045260246000fd5b7f4e487b7100000000000000000000000000000000000000000000000000000000600052601160045260246000fd5b6000819050919050565b6000610af182610adc565b91507fffffffffffffffffffffffffffffffffffffffffffffffffffffffffffffffff8203610b2357610b22610aad565b5b600182019050919050565b82818337600083830152505050565b6000601f19601f8301169050919050565b6000610b5a83856109db565b9350610b67838584610b2e565b610b7083610b3d565b840190509392505050565b60006020820190508181036000830152610b96818486610b4e565b90509392505050565b7f4e487b7100000000000000000000000000000000000000000000000000000000600052602160045260246000fd5b610bd7816107e5565b82525050565b6000602082019050610bf26000830184610bce565b92915050565b60038110610c0557600080fd5b50565b600081519050610c1781610bf8565b92915050565b600060208284031215610c3357610c326107bb565b5b6000610c4184828501610c08565b91505092915050565b7f53656e646572206d75737420626520612073747564792070726f6772616d206d60008201527f616e616765720000000000000000000000000000000000000000000000000000602082015250565b6000610ca66026836109db565b9150610cb182610c4a565b604082019050919050565b60006020820190508181036000830152610cd581610c99565b9050919050565b610ce581610850565b8114610cf057600080fd5b50565b600081519050610d0281610cdc565b92915050565b600060208284031215610d1e57610d1d6107bb565b5b6000610d2c84828501610cf3565b91505092915050565b7f53656e646572206d757374206265206120726567697374657265642075736572600082015250565b6000610d6b6020836109db565b9150610d7682610d35565b602082019050919050565b60006020820190508181036000830152610d9a81610d5e565b905091905056fea2646970667358221220400705af5f6e1c62ee177b8fbbc7c1ef33b3e0f4aeff9709dba8a4950408a5dc64736f6c63430008110033",
  "linkReferences": {},
  "deployedLinkReferences": {}
}