{
  "_format": "hh-sol-artifact-1",
  "contractName": "StudyProgramController",
  "sourceName": "contracts/logic/StudyProgramController.sol",
  "abi": [
    {
      "inputs": [
        {
          "internalType": "address",
          "name": "addressBookAddress",
          "type": "address"
        }
      ],
      "stateMutability": "nonpayable",
      "type": "constructor"
    },
    {
      "inputs": [
        {
          "internalType": "address",
          "name": "_address",
          "type": "address"
        }
      ],
      "name": "addAdmin",
      "outputs": [],
      "stateMutability": "nonpayable",
      "type": "function"
    },
    {
      "inputs": [
        {
          "internalType": "string",
          "name": "programName",
          "type": "string"
        }
      ],
      "name": "addAdminNewStudyProgram",
      "outputs": [],
      "stateMutability": "nonpayable",
      "type": "function"
    },
    {
      "inputs": [
        {
          "internalType": "string",
          "name": "programName",
          "type": "string"
        }
      ],
      "name": "addNewStudyProgram",
      "outputs": [],
      "stateMutability": "nonpayable",
      "type": "function"
    },
    {
      "inputs": [
        {
          "internalType": "address[]",
          "name": "addresses",
          "type": "address[]"
        }
      ],
      "name": "batchAddAdmin",
      "outputs": [],
      "stateMutability": "nonpayable",
      "type": "function"
    },
    {
      "inputs": [
        {
          "internalType": "address",
          "name": "_address",
          "type": "address"
        }
      ],
      "name": "isAdmin",
      "outputs": [
        {
          "internalType": "bool",
          "name": "",
          "type": "bool"
        }
      ],
      "stateMutability": "view",
      "type": "function"
    },
    {
      "inputs": [
        {
          "internalType": "address",
          "name": "_address",
          "type": "address"
        }
      ],
      "name": "removeAdmin",
      "outputs": [],
      "stateMutability": "nonpayable",
      "type": "function"
    }
  ],
  "bytecode": "0x60806040523480156200001157600080fd5b50604051620010de380380620010de833981810160405281019062000037919062000143565b8080806000806101000a81548173ffffffffffffffffffffffffffffffffffffffff021916908373ffffffffffffffffffffffffffffffffffffffff160217905550505060018060003373ffffffffffffffffffffffffffffffffffffffff1673ffffffffffffffffffffffffffffffffffffffff16815260200190815260200160002060006101000a81548160ff0219169083151502179055505062000175565b600080fd5b600073ffffffffffffffffffffffffffffffffffffffff82169050919050565b60006200010b82620000de565b9050919050565b6200011d81620000fe565b81146200012957600080fd5b50565b6000815190506200013d8162000112565b92915050565b6000602082840312156200015c576200015b620000d9565b5b60006200016c848285016200012c565b91505092915050565b610f5980620001856000396000f3fe608060405234801561001057600080fd5b50600436106100625760003560e01c80631785f53c1461006757806324d7806c146100835780632c9ab42b146100b357806344706a3a146100cf57806370480275146100eb578063a03614bb14610107575b600080fd5b610081600480360381019061007c9190610900565b610123565b005b61009d60048036038101906100989190610900565b61020a565b6040516100aa9190610948565b60405180910390f35b6100cd60048036038101906100c891906109c8565b610260565b005b6100e960048036038101906100e49190610a6b565b610340565b005b61010560048036038101906101009190610900565b610444565b005b610121600480360381019061011c9190610a6b565b61052a565b005b600160003373ffffffffffffffffffffffffffffffffffffffff1673ffffffffffffffffffffffffffffffffffffffff16815260200190815260200160002060009054906101000a900460ff166101af576040517f08c379a00000000000000000000000000000000000000000000000000000000081526004016101a690610b3b565b60405180910390fd5b6000600160008373ffffffffffffffffffffffffffffffffffffffff1673ffffffffffffffffffffffffffffffffffffffff16815260200190815260200160002060006101000a81548160ff02191690831515021790555050565b6000600160008373ffffffffffffffffffffffffffffffffffffffff1673ffffffffffffffffffffffffffffffffffffffff16815260200190815260200160002060009054906101000a900460ff169050919050565b600160003373ffffffffffffffffffffffffffffffffffffffff1673ffffffffffffffffffffffffffffffffffffffff16815260200190815260200160002060009054906101000a900460ff166102ec576040517f08c379a00000000000000000000000000000000000000000000000000000000081526004016102e390610b3b565b60405180910390fd5b60005b8282905081101561033b5761032a8383838181106103105761030f610b5b565b5b90506020020160208101906103259190610900565b610444565b8061033490610bc3565b90506102ef565b505050565b600160003373ffffffffffffffffffffffffffffffffffffffff1673ffffffffffffffffffffffffffffffffffffffff16815260200190815260200160002060009054906101000a900460ff166103cc576040517f08c379a00000000000000000000000000000000000000000000000000000000081526004016103c390610b3b565b60405180910390fd5b6103d4610690565b73ffffffffffffffffffffffffffffffffffffffff1663d8342f2c83836040518363ffffffff1660e01b815260040161040e929190610c58565b600060405180830381600087803b15801561042857600080fd5b505af115801561043c573d6000803e3d6000fd5b505050505050565b600160003373ffffffffffffffffffffffffffffffffffffffff1673ffffffffffffffffffffffffffffffffffffffff16815260200190815260200160002060009054906101000a900460ff166104d0576040517f08c379a00000000000000000000000000000000000000000000000000000000081526004016104c790610b3b565b60405180910390fd5b60018060008373ffffffffffffffffffffffffffffffffffffffff1673ffffffffffffffffffffffffffffffffffffffff16815260200190815260200160002060006101000a81548160ff02191690831515021790555050565b610532610733565b60028081111561054557610544610c7c565b5b61054d6107f5565b73ffffffffffffffffffffffffffffffffffffffff1663dd8b2914336040518263ffffffff1660e01b81526004016105859190610cba565b602060405180830381865afa1580156105a2573d6000803e3d6000fd5b505050506040513d601f19601f820116820180604052508101906105c69190610cfa565b60028111156105d8576105d7610c7c565b5b14610618576040517f08c379a000000000000000000000000000000000000000000000000000000000815260040161060f90610d99565b60405180910390fd5b610620610690565b73ffffffffffffffffffffffffffffffffffffffff1663d8342f2c83836040518363ffffffff1660e01b815260040161065a929190610c58565b600060405180830381600087803b15801561067457600080fd5b505af1158015610688573d6000803e3d6000fd5b505050505050565b60008060009054906101000a900473ffffffffffffffffffffffffffffffffffffffff1673ffffffffffffffffffffffffffffffffffffffff1663bcaa0c5560046040518263ffffffff1660e01b81526004016106ed9190610e01565b602060405180830381865afa15801561070a573d6000803e3d6000fd5b505050506040513d601f19601f8201168201806040525081019061072e9190610e31565b905090565b61073b6107f5565b73ffffffffffffffffffffffffffffffffffffffff166338b6a3a1336040518263ffffffff1660e01b81526004016107739190610cba565b602060405180830381865afa158015610790573d6000803e3d6000fd5b505050506040513d601f19601f820116820180604052508101906107b49190610e8a565b6107f3576040517f08c379a00000000000000000000000000000000000000000000000000000000081526004016107ea90610f03565b60405180910390fd5b565b60008060009054906101000a900473ffffffffffffffffffffffffffffffffffffffff1673ffffffffffffffffffffffffffffffffffffffff1663bcaa0c5560026040518263ffffffff1660e01b81526004016108529190610e01565b602060405180830381865afa15801561086f573d6000803e3d6000fd5b505050506040513d601f19601f820116820180604052508101906108939190610e31565b905090565b600080fd5b600080fd5b600073ffffffffffffffffffffffffffffffffffffffff82169050919050565b60006108cd826108a2565b9050919050565b6108dd816108c2565b81146108e857600080fd5b50565b6000813590506108fa816108d4565b92915050565b60006020828403121561091657610915610898565b5b6000610924848285016108eb565b91505092915050565b60008115159050919050565b6109428161092d565b82525050565b600060208201905061095d6000830184610939565b92915050565b600080fd5b600080fd5b600080fd5b60008083601f84011261098857610987610963565b5b8235905067ffffffffffffffff8111156109a5576109a4610968565b5b6020830191508360208202830111156109c1576109c061096d565b5b9250929050565b600080602083850312156109df576109de610898565b5b600083013567ffffffffffffffff8111156109fd576109fc61089d565b5b610a0985828601610972565b92509250509250929050565b60008083601f840112610a2b57610a2a610963565b5b8235905067ffffffffffffffff811115610a4857610a47610968565b5b602083019150836001820283011115610a6457610a6361096d565b5b9250929050565b60008060208385031215610a8257610a81610898565b5b600083013567ffffffffffffffff811115610aa057610a9f61089d565b5b610aac85828601610a15565b92509250509250929050565b600082825260208201905092915050565b7f4f6e6c792061646d696e206164647265737365732063616e2063616c6c20746860008201527f69732066756e6374696f6e000000000000000000000000000000000000000000602082015250565b6000610b25602b83610ab8565b9150610b3082610ac9565b604082019050919050565b60006020820190508181036000830152610b5481610b18565b9050919050565b7f4e487b7100000000000000000000000000000000000000000000000000000000600052603260045260246000fd5b7f4e487b7100000000000000000000000000000000000000000000000000000000600052601160045260246000fd5b6000819050919050565b6000610bce82610bb9565b91507fffffffffffffffffffffffffffffffffffffffffffffffffffffffffffffffff8203610c0057610bff610b8a565b5b600182019050919050565b82818337600083830152505050565b6000601f19601f8301169050919050565b6000610c378385610ab8565b9350610c44838584610c0b565b610c4d83610c1a565b840190509392505050565b60006020820190508181036000830152610c73818486610c2b565b90509392505050565b7f4e487b7100000000000000000000000000000000000000000000000000000000600052602160045260246000fd5b610cb4816108c2565b82525050565b6000602082019050610ccf6000830184610cab565b92915050565b60038110610ce257600080fd5b50565b600081519050610cf481610cd5565b92915050565b600060208284031215610d1057610d0f610898565b5b6000610d1e84828501610ce5565b91505092915050565b7f53656e646572206d75737420626520612073747564792070726f6772616d206d60008201527f616e616765720000000000000000000000000000000000000000000000000000602082015250565b6000610d83602683610ab8565b9150610d8e82610d27565b604082019050919050565b60006020820190508181036000830152610db281610d76565b9050919050565b60068110610dca57610dc9610c7c565b5b50565b6000819050610ddb82610db9565b919050565b6000610deb82610dcd565b9050919050565b610dfb81610de0565b82525050565b6000602082019050610e166000830184610df2565b92915050565b600081519050610e2b816108d4565b92915050565b600060208284031215610e4757610e46610898565b5b6000610e5584828501610e1c565b91505092915050565b610e678161092d565b8114610e7257600080fd5b50565b600081519050610e8481610e5e565b92915050565b600060208284031215610ea057610e9f610898565b5b6000610eae84828501610e75565b91505092915050565b7f53656e646572206d757374206265206120726567697374657265642075736572600082015250565b6000610eed602083610ab8565b9150610ef882610eb7565b602082019050919050565b60006020820190508181036000830152610f1c81610ee0565b905091905056fea2646970667358221220f475e47d3fb54b94a6b9cde92cf6235fb9932e2ea93bdcedb903eb3d57cd4b6564736f6c63430008110033",
  "linkReferences": {},
  "deployedLinkReferences": {}
}