{
  "_format": "hh-sol-artifact-1",
  "contractName": "StudyProgramController",
  "sourceName": "contracts/logic/StudyProgramController.sol",
  "abi": [
    {
      "inputs": [
        {
          "internalType": "address",
          "name": "addressBookAddress",
          "type": "address"
        }
      ],
      "stateMutability": "nonpayable",
      "type": "constructor"
    },
    {
      "inputs": [
        {
          "internalType": "address",
          "name": "_address",
          "type": "address"
        }
      ],
      "name": "addAdmin",
      "outputs": [],
      "stateMutability": "nonpayable",
      "type": "function"
    },
    {
      "inputs": [
        {
          "internalType": "string",
          "name": "programName",
          "type": "string"
        }
      ],
      "name": "addAdminNewStudyProgram",
      "outputs": [],
      "stateMutability": "nonpayable",
      "type": "function"
    },
    {
      "inputs": [
        {
          "internalType": "string",
          "name": "programName",
          "type": "string"
        }
      ],
      "name": "addNewStudyProgram",
      "outputs": [],
      "stateMutability": "nonpayable",
      "type": "function"
    },
    {
      "inputs": [
        {
          "internalType": "address[]",
          "name": "addresses",
          "type": "address[]"
        }
      ],
      "name": "batchAddAdmin",
      "outputs": [],
      "stateMutability": "nonpayable",
      "type": "function"
    },
    {
      "inputs": [],
      "name": "isSenderAdmin",
      "outputs": [
        {
          "internalType": "bool",
          "name": "",
          "type": "bool"
        }
      ],
      "stateMutability": "view",
      "type": "function"
    },
    {
      "inputs": [
        {
          "internalType": "address",
          "name": "_address",
          "type": "address"
        }
      ],
      "name": "removeAdmin",
      "outputs": [],
      "stateMutability": "nonpayable",
      "type": "function"
    }
  ],
  "bytecode": "0x60806040523480156200001157600080fd5b50604051620010ca380380620010ca833981810160405281019062000037919062000143565b8080806000806101000a81548173ffffffffffffffffffffffffffffffffffffffff021916908373ffffffffffffffffffffffffffffffffffffffff160217905550505060018060003373ffffffffffffffffffffffffffffffffffffffff1673ffffffffffffffffffffffffffffffffffffffff16815260200190815260200160002060006101000a81548160ff0219169083151502179055505062000175565b600080fd5b600073ffffffffffffffffffffffffffffffffffffffff82169050919050565b60006200010b82620000de565b9050919050565b6200011d81620000fe565b81146200012957600080fd5b50565b6000815190506200013d8162000112565b92915050565b6000602082840312156200015c576200015b620000d9565b5b60006200016c848285016200012c565b91505092915050565b610f4580620001856000396000f3fe608060405234801561001057600080fd5b50600436106100625760003560e01c80631785f53c146100675780631d0d4e8b146100835780632c9ab42b146100a157806344706a3a146100bd57806370480275146100d9578063a03614bb146100f5575b600080fd5b610081600480360381019061007c91906108ec565b610111565b005b61008b6101f8565b6040516100989190610934565b60405180910390f35b6100bb60048036038101906100b691906109b4565b61024c565b005b6100d760048036038101906100d29190610a57565b61032c565b005b6100f360048036038101906100ee91906108ec565b610430565b005b61010f600480360381019061010a9190610a57565b610516565b005b600160003373ffffffffffffffffffffffffffffffffffffffff1673ffffffffffffffffffffffffffffffffffffffff16815260200190815260200160002060009054906101000a900460ff1661019d576040517f08c379a000000000000000000000000000000000000000000000000000000000815260040161019490610b27565b60405180910390fd5b6000600160008373ffffffffffffffffffffffffffffffffffffffff1673ffffffffffffffffffffffffffffffffffffffff16815260200190815260200160002060006101000a81548160ff02191690831515021790555050565b6000600160003373ffffffffffffffffffffffffffffffffffffffff1673ffffffffffffffffffffffffffffffffffffffff16815260200190815260200160002060009054906101000a900460ff16905090565b600160003373ffffffffffffffffffffffffffffffffffffffff1673ffffffffffffffffffffffffffffffffffffffff16815260200190815260200160002060009054906101000a900460ff166102d8576040517f08c379a00000000000000000000000000000000000000000000000000000000081526004016102cf90610b27565b60405180910390fd5b60005b82829050811015610327576103168383838181106102fc576102fb610b47565b5b905060200201602081019061031191906108ec565b610430565b8061032090610baf565b90506102db565b505050565b600160003373ffffffffffffffffffffffffffffffffffffffff1673ffffffffffffffffffffffffffffffffffffffff16815260200190815260200160002060009054906101000a900460ff166103b8576040517f08c379a00000000000000000000000000000000000000000000000000000000081526004016103af90610b27565b60405180910390fd5b6103c061067c565b73ffffffffffffffffffffffffffffffffffffffff1663d8342f2c83836040518363ffffffff1660e01b81526004016103fa929190610c44565b600060405180830381600087803b15801561041457600080fd5b505af1158015610428573d6000803e3d6000fd5b505050505050565b600160003373ffffffffffffffffffffffffffffffffffffffff1673ffffffffffffffffffffffffffffffffffffffff16815260200190815260200160002060009054906101000a900460ff166104bc576040517f08c379a00000000000000000000000000000000000000000000000000000000081526004016104b390610b27565b60405180910390fd5b60018060008373ffffffffffffffffffffffffffffffffffffffff1673ffffffffffffffffffffffffffffffffffffffff16815260200190815260200160002060006101000a81548160ff02191690831515021790555050565b61051e61071f565b60028081111561053157610530610c68565b5b6105396107e1565b73ffffffffffffffffffffffffffffffffffffffff1663dd8b2914336040518263ffffffff1660e01b81526004016105719190610ca6565b602060405180830381865afa15801561058e573d6000803e3d6000fd5b505050506040513d601f19601f820116820180604052508101906105b29190610ce6565b60028111156105c4576105c3610c68565b5b14610604576040517f08c379a00000000000000000000000000000000000000000000000000000000081526004016105fb90610d85565b60405180910390fd5b61060c61067c565b73ffffffffffffffffffffffffffffffffffffffff1663d8342f2c83836040518363ffffffff1660e01b8152600401610646929190610c44565b600060405180830381600087803b15801561066057600080fd5b505af1158015610674573d6000803e3d6000fd5b505050505050565b60008060009054906101000a900473ffffffffffffffffffffffffffffffffffffffff1673ffffffffffffffffffffffffffffffffffffffff1663bcaa0c5560046040518263ffffffff1660e01b81526004016106d99190610ded565b602060405180830381865afa1580156106f6573d6000803e3d6000fd5b505050506040513d601f19601f8201168201806040525081019061071a9190610e1d565b905090565b6107276107e1565b73ffffffffffffffffffffffffffffffffffffffff166338b6a3a1336040518263ffffffff1660e01b815260040161075f9190610ca6565b602060405180830381865afa15801561077c573d6000803e3d6000fd5b505050506040513d601f19601f820116820180604052508101906107a09190610e76565b6107df576040517f08c379a00000000000000000000000000000000000000000000000000000000081526004016107d690610eef565b60405180910390fd5b565b60008060009054906101000a900473ffffffffffffffffffffffffffffffffffffffff1673ffffffffffffffffffffffffffffffffffffffff1663bcaa0c5560026040518263ffffffff1660e01b815260040161083e9190610ded565b602060405180830381865afa15801561085b573d6000803e3d6000fd5b505050506040513d601f19601f8201168201806040525081019061087f9190610e1d565b905090565b600080fd5b600080fd5b600073ffffffffffffffffffffffffffffffffffffffff82169050919050565b60006108b98261088e565b9050919050565b6108c9816108ae565b81146108d457600080fd5b50565b6000813590506108e6816108c0565b92915050565b60006020828403121561090257610901610884565b5b6000610910848285016108d7565b91505092915050565b60008115159050919050565b61092e81610919565b82525050565b60006020820190506109496000830184610925565b92915050565b600080fd5b600080fd5b600080fd5b60008083601f8401126109745761097361094f565b5b8235905067ffffffffffffffff81111561099157610990610954565b5b6020830191508360208202830111156109ad576109ac610959565b5b9250929050565b600080602083850312156109cb576109ca610884565b5b600083013567ffffffffffffffff8111156109e9576109e8610889565b5b6109f58582860161095e565b92509250509250929050565b60008083601f840112610a1757610a1661094f565b5b8235905067ffffffffffffffff811115610a3457610a33610954565b5b602083019150836001820283011115610a5057610a4f610959565b5b9250929050565b60008060208385031215610a6e57610a6d610884565b5b600083013567ffffffffffffffff811115610a8c57610a8b610889565b5b610a9885828601610a01565b92509250509250929050565b600082825260208201905092915050565b7f4f6e6c792061646d696e206164647265737365732063616e2063616c6c20746860008201527f69732066756e6374696f6e000000000000000000000000000000000000000000602082015250565b6000610b11602b83610aa4565b9150610b1c82610ab5565b604082019050919050565b60006020820190508181036000830152610b4081610b04565b9050919050565b7f4e487b7100000000000000000000000000000000000000000000000000000000600052603260045260246000fd5b7f4e487b7100000000000000000000000000000000000000000000000000000000600052601160045260246000fd5b6000819050919050565b6000610bba82610ba5565b91507fffffffffffffffffffffffffffffffffffffffffffffffffffffffffffffffff8203610bec57610beb610b76565b5b600182019050919050565b82818337600083830152505050565b6000601f19601f8301169050919050565b6000610c238385610aa4565b9350610c30838584610bf7565b610c3983610c06565b840190509392505050565b60006020820190508181036000830152610c5f818486610c17565b90509392505050565b7f4e487b7100000000000000000000000000000000000000000000000000000000600052602160045260246000fd5b610ca0816108ae565b82525050565b6000602082019050610cbb6000830184610c97565b92915050565b60038110610cce57600080fd5b50565b600081519050610ce081610cc1565b92915050565b600060208284031215610cfc57610cfb610884565b5b6000610d0a84828501610cd1565b91505092915050565b7f53656e646572206d75737420626520612073747564792070726f6772616d206d60008201527f616e616765720000000000000000000000000000000000000000000000000000602082015250565b6000610d6f602683610aa4565b9150610d7a82610d13565b604082019050919050565b60006020820190508181036000830152610d9e81610d62565b9050919050565b60068110610db657610db5610c68565b5b50565b6000819050610dc782610da5565b919050565b6000610dd782610db9565b9050919050565b610de781610dcc565b82525050565b6000602082019050610e026000830184610dde565b92915050565b600081519050610e17816108c0565b92915050565b600060208284031215610e3357610e32610884565b5b6000610e4184828501610e08565b91505092915050565b610e5381610919565b8114610e5e57600080fd5b50565b600081519050610e7081610e4a565b92915050565b600060208284031215610e8c57610e8b610884565b5b6000610e9a84828501610e61565b91505092915050565b7f53656e646572206d757374206265206120726567697374657265642075736572600082015250565b6000610ed9602083610aa4565b9150610ee482610ea3565b602082019050919050565b60006020820190508181036000830152610f0881610ecc565b905091905056fea26469706673582212207fa9b60707841c21640245862d46879e05c7a4475b7e27aed48bc1cc944dfb2064736f6c63430008110033",
  "linkReferences": {},
  "deployedLinkReferences": {}
}