{
  "_format": "hh-sol-artifact-1",
  "contractName": "StudyProgramController",
  "sourceName": "contracts/logic/StudyProgramController.sol",
  "abi": [
    {
      "inputs": [
        {
          "internalType": "address",
          "name": "userDataManagerAddress",
          "type": "address"
        },
        {
          "internalType": "address",
          "name": "programDataManagerAddress",
          "type": "address"
        }
      ],
      "stateMutability": "nonpayable",
      "type": "constructor"
    },
    {
      "inputs": [
        {
          "internalType": "address",
          "name": "_address",
          "type": "address"
        }
      ],
      "name": "addAdmin",
      "outputs": [],
      "stateMutability": "nonpayable",
      "type": "function"
    },
    {
      "inputs": [
        {
          "internalType": "string",
          "name": "programName",
          "type": "string"
        }
      ],
      "name": "addAdminNewStudyProgram",
      "outputs": [],
      "stateMutability": "nonpayable",
      "type": "function"
    },
    {
      "inputs": [
        {
          "internalType": "string",
          "name": "programName",
          "type": "string"
        }
      ],
      "name": "addNewStudyProgram",
      "outputs": [],
      "stateMutability": "nonpayable",
      "type": "function"
    },
    {
      "inputs": [
        {
          "internalType": "address[]",
          "name": "addresses",
          "type": "address[]"
        }
      ],
      "name": "batchAddAdmin",
      "outputs": [],
      "stateMutability": "nonpayable",
      "type": "function"
    },
    {
      "inputs": [
        {
          "internalType": "address",
          "name": "_address",
          "type": "address"
        }
      ],
      "name": "removeAdmin",
      "outputs": [],
      "stateMutability": "nonpayable",
      "type": "function"
    }
  ],
  "bytecode": "0x608060405234801561001057600080fd5b50604051610d42380380610d428339818101604052810190610032919061018b565b8180806000806101000a81548173ffffffffffffffffffffffffffffffffffffffff021916908373ffffffffffffffffffffffffffffffffffffffff16021790555050506001600760003373ffffffffffffffffffffffffffffffffffffffff1673ffffffffffffffffffffffffffffffffffffffff16815260200190815260200160002060006101000a81548160ff0219169083151502179055506100dd816100e460201b60201c565b50506101cb565b80600560006101000a81548173ffffffffffffffffffffffffffffffffffffffff021916908373ffffffffffffffffffffffffffffffffffffffff16021790555050565b600080fd5b600073ffffffffffffffffffffffffffffffffffffffff82169050919050565b60006101588261012d565b9050919050565b6101688161014d565b811461017357600080fd5b50565b6000815190506101858161015f565b92915050565b600080604083850312156101a2576101a1610128565b5b60006101b085828601610176565b92505060206101c185828601610176565b9150509250929050565b610b68806101da6000396000f3fe608060405234801561001057600080fd5b50600436106100575760003560e01c80631785f53c1461005c5780632c9ab42b1461007857806344706a3a1461009457806370480275146100b0578063a03614bb146100cc575b600080fd5b610076600480360381019061007191906106af565b6100e8565b005b610092600480360381019061008d9190610741565b6101cf565b005b6100ae60048036038101906100a991906107e4565b6102af565b005b6100ca60048036038101906100c591906106af565b6103ce565b005b6100e660048036038101906100e191906107e4565b6104b5565b005b600760003373ffffffffffffffffffffffffffffffffffffffff1673ffffffffffffffffffffffffffffffffffffffff16815260200190815260200160002060009054906101000a900460ff16610174576040517f08c379a000000000000000000000000000000000000000000000000000000000815260040161016b906108b4565b60405180910390fd5b6000600760008373ffffffffffffffffffffffffffffffffffffffff1673ffffffffffffffffffffffffffffffffffffffff16815260200190815260200160002060006101000a81548160ff02191690831515021790555050565b600760003373ffffffffffffffffffffffffffffffffffffffff1673ffffffffffffffffffffffffffffffffffffffff16815260200190815260200160002060009054906101000a900460ff1661025b576040517f08c379a0000000000000000000000000000000000000000000000000000000008152600401610252906108b4565b60405180910390fd5b60005b828290508110156102aa5761029983838381811061027f5761027e6108d4565b5b905060200201602081019061029491906106af565b6103ce565b806102a39061093c565b905061025e565b505050565b600760003373ffffffffffffffffffffffffffffffffffffffff1673ffffffffffffffffffffffffffffffffffffffff16815260200190815260200160002060009054906101000a900460ff1661033b576040517f08c379a0000000000000000000000000000000000000000000000000000000008152600401610332906108b4565b60405180910390fd5b600560009054906101000a900473ffffffffffffffffffffffffffffffffffffffff1673ffffffffffffffffffffffffffffffffffffffff1663d8342f2c83836040518363ffffffff1660e01b81526004016103989291906109d1565b600060405180830381600087803b1580156103b257600080fd5b505af11580156103c6573d6000803e3d6000fd5b505050505050565b600760003373ffffffffffffffffffffffffffffffffffffffff1673ffffffffffffffffffffffffffffffffffffffff16815260200190815260200160002060009054906101000a900460ff1661045a576040517f08c379a0000000000000000000000000000000000000000000000000000000008152600401610451906108b4565b60405180910390fd5b6001600760008373ffffffffffffffffffffffffffffffffffffffff1673ffffffffffffffffffffffffffffffffffffffff16815260200190815260200160002060006101000a81548160ff02191690831515021790555050565b6002808111156104c8576104c76109f5565b5b60008054906101000a900473ffffffffffffffffffffffffffffffffffffffff1673ffffffffffffffffffffffffffffffffffffffff1663dd8b2914336040518263ffffffff1660e01b81526004016105219190610a33565b602060405180830381865afa15801561053e573d6000803e3d6000fd5b505050506040513d601f19601f820116820180604052508101906105629190610a73565b6002811115610574576105736109f5565b5b146105b4576040517f08c379a00000000000000000000000000000000000000000000000000000000081526004016105ab90610b12565b60405180910390fd5b600560009054906101000a900473ffffffffffffffffffffffffffffffffffffffff1673ffffffffffffffffffffffffffffffffffffffff1663d8342f2c83836040518363ffffffff1660e01b81526004016106119291906109d1565b600060405180830381600087803b15801561062b57600080fd5b505af115801561063f573d6000803e3d6000fd5b505050505050565b600080fd5b600080fd5b600073ffffffffffffffffffffffffffffffffffffffff82169050919050565b600061067c82610651565b9050919050565b61068c81610671565b811461069757600080fd5b50565b6000813590506106a981610683565b92915050565b6000602082840312156106c5576106c4610647565b5b60006106d38482850161069a565b91505092915050565b600080fd5b600080fd5b600080fd5b60008083601f840112610701576107006106dc565b5b8235905067ffffffffffffffff81111561071e5761071d6106e1565b5b60208301915083602082028301111561073a576107396106e6565b5b9250929050565b6000806020838503121561075857610757610647565b5b600083013567ffffffffffffffff8111156107765761077561064c565b5b610782858286016106eb565b92509250509250929050565b60008083601f8401126107a4576107a36106dc565b5b8235905067ffffffffffffffff8111156107c1576107c06106e1565b5b6020830191508360018202830111156107dd576107dc6106e6565b5b9250929050565b600080602083850312156107fb576107fa610647565b5b600083013567ffffffffffffffff8111156108195761081861064c565b5b6108258582860161078e565b92509250509250929050565b600082825260208201905092915050565b7f4f6e6c792061646d696e206164647265737365732063616e2063616c6c20746860008201527f69732066756e6374696f6e000000000000000000000000000000000000000000602082015250565b600061089e602b83610831565b91506108a982610842565b604082019050919050565b600060208201905081810360008301526108cd81610891565b9050919050565b7f4e487b7100000000000000000000000000000000000000000000000000000000600052603260045260246000fd5b7f4e487b7100000000000000000000000000000000000000000000000000000000600052601160045260246000fd5b6000819050919050565b600061094782610932565b91507fffffffffffffffffffffffffffffffffffffffffffffffffffffffffffffffff820361097957610978610903565b5b600182019050919050565b82818337600083830152505050565b6000601f19601f8301169050919050565b60006109b08385610831565b93506109bd838584610984565b6109c683610993565b840190509392505050565b600060208201905081810360008301526109ec8184866109a4565b90509392505050565b7f4e487b7100000000000000000000000000000000000000000000000000000000600052602160045260246000fd5b610a2d81610671565b82525050565b6000602082019050610a486000830184610a24565b92915050565b60038110610a5b57600080fd5b50565b600081519050610a6d81610a4e565b92915050565b600060208284031215610a8957610a88610647565b5b6000610a9784828501610a5e565b91505092915050565b7f53656e646572206d75737420626520612073747564792070726f6772616d206d60008201527f616e616765720000000000000000000000000000000000000000000000000000602082015250565b6000610afc602683610831565b9150610b0782610aa0565b604082019050919050565b60006020820190508181036000830152610b2b81610aef565b905091905056fea2646970667358221220979902a040a6a963988d96bfcf89a8f8b1dceb1c8631416cdacc463e3cc969a864736f6c63430008110033",
  "linkReferences": {},
  "deployedLinkReferences": {}
}