{
  "_format": "hh-sol-artifact-1",
  "contractName": "PerformanceView",
  "sourceName": "contracts/view/PerformanceView.sol",
  "abi": [
    {
      "inputs": [
        {
          "internalType": "address",
          "name": "addressBookAddress",
          "type": "address"
        }
      ],
      "stateMutability": "nonpayable",
      "type": "constructor"
    },
    {
      "inputs": [
        {
          "internalType": "uint256",
          "name": "assessmentId",
          "type": "uint256"
        }
      ],
      "name": "getEvaluation",
      "outputs": [
        {
          "components": [
            {
              "internalType": "bool",
              "name": "isSet",
              "type": "bool"
            },
            {
              "internalType": "uint256",
              "name": "datetime",
              "type": "uint256"
            },
            {
              "internalType": "uint256",
              "name": "achievedPoints",
              "type": "uint256"
            },
            {
              "internalType": "string",
              "name": "feedback",
              "type": "string"
            },
            {
              "internalType": "uint256",
              "name": "lecturerUId",
              "type": "uint256"
            }
          ],
          "internalType": "struct PerformanceDataTypes.Evaluation",
          "name": "",
          "type": "tuple"
        },
        {
          "internalType": "string",
          "name": "",
          "type": "string"
        },
        {
          "internalType": "string",
          "name": "",
          "type": "string"
        }
      ],
      "stateMutability": "view",
      "type": "function"
    },
    {
      "inputs": [
        {
          "internalType": "uint256",
          "name": "assessmentId",
          "type": "uint256"
        },
        {
          "internalType": "uint256",
          "name": "studentUId",
          "type": "uint256"
        }
      ],
      "name": "getEvaluationOfStudent",
      "outputs": [
        {
          "components": [
            {
              "internalType": "bool",
              "name": "isSet",
              "type": "bool"
            },
            {
              "internalType": "uint256",
              "name": "datetime",
              "type": "uint256"
            },
            {
              "internalType": "uint256",
              "name": "achievedPoints",
              "type": "uint256"
            },
            {
              "internalType": "string",
              "name": "feedback",
              "type": "string"
            },
            {
              "internalType": "uint256",
              "name": "lecturerUId",
              "type": "uint256"
            }
          ],
          "internalType": "struct PerformanceDataTypes.Evaluation",
          "name": "",
          "type": "tuple"
        },
        {
          "internalType": "string",
          "name": "",
          "type": "string"
        },
        {
          "internalType": "string",
          "name": "",
          "type": "string"
        }
      ],
      "stateMutability": "view",
      "type": "function"
    },
    {
      "inputs": [
        {
          "internalType": "uint256",
          "name": "assessmentId",
          "type": "uint256"
        }
      ],
      "name": "getExamAttendance",
      "outputs": [
        {
          "components": [
            {
              "internalType": "bool",
              "name": "isSet",
              "type": "bool"
            },
            {
              "internalType": "bool",
              "name": "hasAttended",
              "type": "bool"
            },
            {
              "internalType": "uint256",
              "name": "confirmationDateTime",
              "type": "uint256"
            }
          ],
          "internalType": "struct PerformanceDataTypes.ExamAttendance",
          "name": "",
          "type": "tuple"
        }
      ],
      "stateMutability": "view",
      "type": "function"
    },
    {
      "inputs": [
        {
          "internalType": "uint256",
          "name": "assessmentId",
          "type": "uint256"
        },
        {
          "internalType": "uint256",
          "name": "studentUId",
          "type": "uint256"
        }
      ],
      "name": "getExamAttendanceOfStudent",
      "outputs": [
        {
          "components": [
            {
              "internalType": "bool",
              "name": "isSet",
              "type": "bool"
            },
            {
              "internalType": "bool",
              "name": "hasAttended",
              "type": "bool"
            },
            {
              "internalType": "uint256",
              "name": "confirmationDateTime",
              "type": "uint256"
            }
          ],
          "internalType": "struct PerformanceDataTypes.ExamAttendance",
          "name": "",
          "type": "tuple"
        }
      ],
      "stateMutability": "view",
      "type": "function"
    },
    {
      "inputs": [
        {
          "internalType": "uint256",
          "name": "courseId",
          "type": "uint256"
        }
      ],
      "name": "getGrade",
      "outputs": [
        {
          "components": [
            {
              "internalType": "bool",
              "name": "isSet",
              "type": "bool"
            },
            {
              "internalType": "uint256",
              "name": "value",
              "type": "uint256"
            },
            {
              "internalType": "string",
              "name": "feedback",
              "type": "string"
            },
            {
              "internalType": "uint256",
              "name": "datetime",
              "type": "uint256"
            },
            {
              "internalType": "uint256",
              "name": "lecturerUId",
              "type": "uint256"
            },
            {
              "internalType": "bool",
              "name": "isFinal",
              "type": "bool"
            }
          ],
          "internalType": "struct PerformanceDataTypes.Grade",
          "name": "",
          "type": "tuple"
        },
        {
          "internalType": "string",
          "name": "",
          "type": "string"
        },
        {
          "internalType": "string",
          "name": "",
          "type": "string"
        }
      ],
      "stateMutability": "view",
      "type": "function"
    },
    {
      "inputs": [
        {
          "internalType": "uint256",
          "name": "courseId",
          "type": "uint256"
        },
        {
          "internalType": "uint256",
          "name": "studentUId",
          "type": "uint256"
        }
      ],
      "name": "getGradeOfStudent",
      "outputs": [
        {
          "components": [
            {
              "internalType": "bool",
              "name": "isSet",
              "type": "bool"
            },
            {
              "internalType": "uint256",
              "name": "value",
              "type": "uint256"
            },
            {
              "internalType": "string",
              "name": "feedback",
              "type": "string"
            },
            {
              "internalType": "uint256",
              "name": "datetime",
              "type": "uint256"
            },
            {
              "internalType": "uint256",
              "name": "lecturerUId",
              "type": "uint256"
            },
            {
              "internalType": "bool",
              "name": "isFinal",
              "type": "bool"
            }
          ],
          "internalType": "struct PerformanceDataTypes.Grade",
          "name": "",
          "type": "tuple"
        },
        {
          "internalType": "string",
          "name": "",
          "type": "string"
        },
        {
          "internalType": "string",
          "name": "",
          "type": "string"
        }
      ],
      "stateMutability": "view",
      "type": "function"
    },
    {
      "inputs": [
        {
          "internalType": "uint256",
          "name": "assessmentId",
          "type": "uint256"
        }
      ],
      "name": "getSubmission",
      "outputs": [
        {
          "components": [
            {
              "internalType": "bool",
              "name": "isSet",
              "type": "bool"
            },
            {
              "internalType": "uint256",
              "name": "submissionDatetime",
              "type": "uint256"
            },
            {
              "internalType": "string[]",
              "name": "documentHashes",
              "type": "string[]"
            }
          ],
          "internalType": "struct PerformanceDataTypes.Submission",
          "name": "",
          "type": "tuple"
        }
      ],
      "stateMutability": "view",
      "type": "function"
    },
    {
      "inputs": [
        {
          "internalType": "uint256",
          "name": "assessmentId",
          "type": "uint256"
        },
        {
          "internalType": "uint256",
          "name": "studentUId",
          "type": "uint256"
        }
      ],
      "name": "getSubmissionOfStudent",
      "outputs": [
        {
          "components": [
            {
              "internalType": "bool",
              "name": "isSet",
              "type": "bool"
            },
            {
              "internalType": "uint256",
              "name": "submissionDatetime",
              "type": "uint256"
            },
            {
              "internalType": "string[]",
              "name": "documentHashes",
              "type": "string[]"
            }
          ],
          "internalType": "struct PerformanceDataTypes.Submission",
          "name": "",
          "type": "tuple"
        }
      ],
      "stateMutability": "view",
      "type": "function"
    },
    {
      "inputs": [
        {
          "internalType": "uint256",
          "name": "assessmentId",
          "type": "uint256"
        },
        {
          "internalType": "uint256",
          "name": "studentUId",
          "type": "uint256"
        }
      ],
      "name": "isEvaluationOfStudentSet",
      "outputs": [
        {
          "internalType": "bool",
          "name": "",
          "type": "bool"
        }
      ],
      "stateMutability": "view",
      "type": "function"
    },
    {
      "inputs": [
        {
          "internalType": "uint256",
          "name": "assessmentId",
          "type": "uint256"
        }
      ],
      "name": "isEvaluationSet",
      "outputs": [
        {
          "internalType": "bool",
          "name": "",
          "type": "bool"
        }
      ],
      "stateMutability": "view",
      "type": "function"
    },
    {
      "inputs": [
        {
          "internalType": "uint256",
          "name": "assessmentId",
          "type": "uint256"
        },
        {
          "internalType": "uint256",
          "name": "studentUId",
          "type": "uint256"
        }
      ],
      "name": "isExamAttendanceOfStudentSet",
      "outputs": [
        {
          "internalType": "bool",
          "name": "",
          "type": "bool"
        }
      ],
      "stateMutability": "view",
      "type": "function"
    },
    {
      "inputs": [
        {
          "internalType": "uint256",
          "name": "assessmentId",
          "type": "uint256"
        }
      ],
      "name": "isExamAttendanceSet",
      "outputs": [
        {
          "internalType": "bool",
          "name": "",
          "type": "bool"
        }
      ],
      "stateMutability": "view",
      "type": "function"
    },
    {
      "inputs": [
        {
          "internalType": "uint256",
          "name": "courseId",
          "type": "uint256"
        },
        {
          "internalType": "uint256",
          "name": "studentUId",
          "type": "uint256"
        }
      ],
      "name": "isGradeOfStudentSet",
      "outputs": [
        {
          "internalType": "bool",
          "name": "",
          "type": "bool"
        }
      ],
      "stateMutability": "view",
      "type": "function"
    },
    {
      "inputs": [
        {
          "internalType": "uint256",
          "name": "courseId",
          "type": "uint256"
        }
      ],
      "name": "isGradeSet",
      "outputs": [
        {
          "internalType": "bool",
          "name": "",
          "type": "bool"
        }
      ],
      "stateMutability": "view",
      "type": "function"
    },
    {
      "inputs": [
        {
          "internalType": "uint256",
          "name": "assessmentId",
          "type": "uint256"
        },
        {
          "internalType": "uint256",
          "name": "studentUId",
          "type": "uint256"
        }
      ],
      "name": "isSubmissionOfStudentSet",
      "outputs": [
        {
          "internalType": "bool",
          "name": "",
          "type": "bool"
        }
      ],
      "stateMutability": "view",
      "type": "function"
    },
    {
      "inputs": [
        {
          "internalType": "uint256",
          "name": "assessmentId",
          "type": "uint256"
        }
      ],
      "name": "isSubmissionSet",
      "outputs": [
        {
          "internalType": "bool",
          "name": "",
          "type": "bool"
        }
      ],
      "stateMutability": "view",
      "type": "function"
    }
  ],
  "bytecode": "0x60806040523480156200001157600080fd5b5060405162004297380380620042978339818101604052810190620000379190620000ec565b8080806000806101000a81548173ffffffffffffffffffffffffffffffffffffffff021916908373ffffffffffffffffffffffffffffffffffffffff1602179055505050506200011e565b600080fd5b600073ffffffffffffffffffffffffffffffffffffffff82169050919050565b6000620000b48262000087565b9050919050565b620000c681620000a7565b8114620000d257600080fd5b50565b600081519050620000e681620000bb565b92915050565b60006020828403121562000105576200010462000082565b5b60006200011584828501620000d5565b91505092915050565b614169806200012e6000396000f3fe608060405234801561001057600080fd5b50600436106101005760003560e01c806369af4c5611610097578063c964edc311610066578063c964edc314610349578063e1e0485e1461037b578063ed33461b146103ad578063f5777b43146103dd57610100565b806369af4c56146102875780637411e128146102b7578063b73361c5146102e7578063c23d4c851461031757610100565b806333c09532116100d357806333c09532146101c55780633e8686cc146101f557806345e231171461022557806353eeac431461025557610100565b806301c26d22146101055780630663678c146101355780632b559758146101655780633065aa4214610195575b600080fd5b61011f600480360381019061011a9190612ea1565b61040d565b60405161012c9190612ee9565b60405180910390f35b61014f600480360381019061014a9190612f04565b610617565b60405161015c9190612ee9565b60405180910390f35b61017f600480360381019061017a9190612ea1565b61079d565b60405161018c9190612fa4565b60405180910390f35b6101af60048036038101906101aa9190612f04565b6109b6565b6040516101bc9190613161565b60405180910390f35b6101df60048036038101906101da9190612f04565b610b50565b6040516101ec9190612ee9565b60405180910390f35b61020f600480360381019061020a9190612ea1565b610cdf565b60405161021c9190613161565b60405180910390f35b61023f600480360381019061023a9190612f04565b610efd565b60405161024c9190612ee9565b60405180910390f35b61026f600480360381019061026a9190612f04565b611083565b60405161027e93929190613243565b60405180910390f35b6102a1600480360381019061029c9190612ea1565b61119e565b6040516102ae9190612ee9565b60405180910390f35b6102d160048036038101906102cc9190612ea1565b6113b1565b6040516102de9190612ee9565b60405180910390f35b61030160048036038101906102fc9190612f04565b6115c4565b60405161030e9190612ee9565b60405180910390f35b610331600480360381019061032c9190612ea1565b611753565b60405161034093929190613243565b60405180910390f35b610363600480360381019061035e9190612f04565b6118f3565b60405161037293929190613318565b60405180910390f35b61039560048036038101906103909190612ea1565b611a0e565b6040516103a493929190613318565b60405180910390f35b6103c760048036038101906103c29190612ea1565b611bae565b6040516103d49190612ee9565b60405180910390f35b6103f760048036038101906103f29190612f04565b611db8565b6040516104049190612fa4565b60405180910390f35b6000610417611f4d565b6000600281111561042b5761042a613364565b5b61043361200f565b73ffffffffffffffffffffffffffffffffffffffff1663dd8b2914336040518263ffffffff1660e01b815260040161046b91906133d4565b602060405180830381865afa158015610488573d6000803e3d6000fd5b505050506040513d601f19601f820116820180604052508101906104ac9190613414565b60028111156104be576104bd613364565b5b146104fe576040517f08c379a00000000000000000000000000000000000000000000000000000000081526004016104f59061348d565b60405180910390fd5b610507826120b2565b600061051161200f565b73ffffffffffffffffffffffffffffffffffffffff1663e3d7e14c336040518263ffffffff1660e01b815260040161054991906133d4565b602060405180830381865afa158015610566573d6000803e3d6000fd5b505050506040513d601f19601f8201168201806040525081019061058a91906134c2565b90506105946121d3565b73ffffffffffffffffffffffffffffffffffffffff1663cfca6e9782856040518363ffffffff1660e01b81526004016105ce9291906134fe565b602060405180830381865afa1580156105eb573d6000803e3d6000fd5b505050506040513d601f19601f8201168201806040525081019061060f9190613553565b915050919050565b6000610621611f4d565b6001600281111561063557610634613364565b5b61063d61200f565b73ffffffffffffffffffffffffffffffffffffffff1663dd8b2914336040518263ffffffff1660e01b815260040161067591906133d4565b602060405180830381865afa158015610692573d6000803e3d6000fd5b505050506040513d601f19601f820116820180604052508101906106b69190613414565b60028111156106c8576106c7613364565b5b14610708576040517f08c379a00000000000000000000000000000000000000000000000000000000081526004016106ff906135cc565b60405180910390fd5b6107128383612276565b61071a6121d3565b73ffffffffffffffffffffffffffffffffffffffff1663cfca6e9783856040518363ffffffff1660e01b81526004016107549291906134fe565b602060405180830381865afa158015610771573d6000803e3d6000fd5b505050506040513d601f19601f820116820180604052508101906107959190613553565b905092915050565b6107a5612da4565b6107ad611f4d565b600060028111156107c1576107c0613364565b5b6107c961200f565b73ffffffffffffffffffffffffffffffffffffffff1663dd8b2914336040518263ffffffff1660e01b815260040161080191906133d4565b602060405180830381865afa15801561081e573d6000803e3d6000fd5b505050506040513d601f19601f820116820180604052508101906108429190613414565b600281111561085457610853613364565b5b14610894576040517f08c379a000000000000000000000000000000000000000000000000000000000815260040161088b9061348d565b60405180910390fd5b61089d826120b2565b6108a6826123aa565b60006108b061200f565b73ffffffffffffffffffffffffffffffffffffffff1663e3d7e14c336040518263ffffffff1660e01b81526004016108e891906133d4565b602060405180830381865afa158015610905573d6000803e3d6000fd5b505050506040513d601f19601f8201168201806040525081019061092991906134c2565b90506109336121d3565b73ffffffffffffffffffffffffffffffffffffffff1663fdd3f03682856040518363ffffffff1660e01b815260040161096d9291906134fe565b606060405180830381865afa15801561098a573d6000803e3d6000fd5b505050506040513d601f19601f820116820180604052508101906109ae91906136d5565b915050919050565b6109be612dc9565b6109c6611f4d565b600160028111156109da576109d9613364565b5b6109e261200f565b73ffffffffffffffffffffffffffffffffffffffff1663dd8b2914336040518263ffffffff1660e01b8152600401610a1a91906133d4565b602060405180830381865afa158015610a37573d6000803e3d6000fd5b505050506040513d601f19601f82011682018060405250810190610a5b9190613414565b6002811115610a6d57610a6c613364565b5b14610aad576040517f08c379a0000000000000000000000000000000000000000000000000000000008152600401610aa4906135cc565b60405180910390fd5b610ab78383612276565b610ac083612494565b610ac86121d3565b73ffffffffffffffffffffffffffffffffffffffff1663b7ed707183856040518363ffffffff1660e01b8152600401610b029291906134fe565b600060405180830381865afa158015610b1f573d6000803e3d6000fd5b505050506040513d6000823e3d601f19601f82011682018060405250810190610b489190613913565b905092915050565b6000610b5a611f4d565b60016002811115610b6e57610b6d613364565b5b610b7661200f565b73ffffffffffffffffffffffffffffffffffffffff1663dd8b2914336040518263ffffffff1660e01b8152600401610bae91906133d4565b602060405180830381865afa158015610bcb573d6000803e3d6000fd5b505050506040513d601f19601f82011682018060405250810190610bef9190613414565b6002811115610c0157610c00613364565b5b14610c41576040517f08c379a0000000000000000000000000000000000000000000000000000000008152600401610c38906135cc565b60405180910390fd5b610c4b8383612276565b610c5483612494565b610c5c6121d3565b73ffffffffffffffffffffffffffffffffffffffff16631a2a2c4a83856040518363ffffffff1660e01b8152600401610c969291906134fe565b602060405180830381865afa158015610cb3573d6000803e3d6000fd5b505050506040513d601f19601f82011682018060405250810190610cd79190613553565b905092915050565b610ce7612dc9565b610cef611f4d565b60006002811115610d0357610d02613364565b5b610d0b61200f565b73ffffffffffffffffffffffffffffffffffffffff1663dd8b2914336040518263ffffffff1660e01b8152600401610d4391906133d4565b602060405180830381865afa158015610d60573d6000803e3d6000fd5b505050506040513d601f19601f82011682018060405250810190610d849190613414565b6002811115610d9657610d95613364565b5b14610dd6576040517f08c379a0000000000000000000000000000000000000000000000000000000008152600401610dcd9061348d565b60405180910390fd5b610ddf826120b2565b610de882612494565b6000610df261200f565b73ffffffffffffffffffffffffffffffffffffffff1663e3d7e14c336040518263ffffffff1660e01b8152600401610e2a91906133d4565b602060405180830381865afa158015610e47573d6000803e3d6000fd5b505050506040513d601f19601f82011682018060405250810190610e6b91906134c2565b9050610e756121d3565b73ffffffffffffffffffffffffffffffffffffffff1663b7ed707182856040518363ffffffff1660e01b8152600401610eaf9291906134fe565b600060405180830381865afa158015610ecc573d6000803e3d6000fd5b505050506040513d6000823e3d601f19601f82011682018060405250810190610ef59190613913565b915050919050565b6000610f07611f4d565b60016002811115610f1b57610f1a613364565b5b610f2361200f565b73ffffffffffffffffffffffffffffffffffffffff1663dd8b2914336040518263ffffffff1660e01b8152600401610f5b91906133d4565b602060405180830381865afa158015610f78573d6000803e3d6000fd5b505050506040513d601f19601f82011682018060405250810190610f9c9190613414565b6002811115610fae57610fad613364565b5b14610fee576040517f08c379a0000000000000000000000000000000000000000000000000000000008152600401610fe5906135cc565b60405180910390fd5b610ff8838361257d565b6110006121d3565b73ffffffffffffffffffffffffffffffffffffffff1663130cd89183856040518363ffffffff1660e01b815260040161103a9291906134fe565b602060405180830381865afa158015611057573d6000803e3d6000fd5b505050506040513d601f19601f8201168201806040525081019061107b9190613553565b905092915050565b61108b612dec565b606080611096611f4d565b600160028111156110aa576110a9613364565b5b6110b261200f565b73ffffffffffffffffffffffffffffffffffffffff1663dd8b2914336040518263ffffffff1660e01b81526004016110ea91906133d4565b602060405180830381865afa158015611107573d6000803e3d6000fd5b505050506040513d601f19601f8201168201806040525081019061112b9190613414565b600281111561113d5761113c613364565b5b1461117d576040517f08c379a0000000000000000000000000000000000000000000000000000000008152600401611174906135cc565b60405180910390fd5b6111878585612276565b611191858561262b565b9250925092509250925092565b60006111a8611f4d565b600060028111156111bc576111bb613364565b5b6111c461200f565b73ffffffffffffffffffffffffffffffffffffffff1663dd8b2914336040518263ffffffff1660e01b81526004016111fc91906133d4565b602060405180830381865afa158015611219573d6000803e3d6000fd5b505050506040513d601f19601f8201168201806040525081019061123d9190613414565b600281111561124f5761124e613364565b5b1461128f576040517f08c379a00000000000000000000000000000000000000000000000000000000081526004016112869061348d565b60405180910390fd5b611298826120b2565b6112a1826123aa565b60006112ab61200f565b73ffffffffffffffffffffffffffffffffffffffff1663e3d7e14c336040518263ffffffff1660e01b81526004016112e391906133d4565b602060405180830381865afa158015611300573d6000803e3d6000fd5b505050506040513d601f19601f8201168201806040525081019061132491906134c2565b905061132e6121d3565b73ffffffffffffffffffffffffffffffffffffffff1663683391e482856040518363ffffffff1660e01b81526004016113689291906134fe565b602060405180830381865afa158015611385573d6000803e3d6000fd5b505050506040513d601f19601f820116820180604052508101906113a99190613553565b915050919050565b60006113bb611f4d565b600060028111156113cf576113ce613364565b5b6113d761200f565b73ffffffffffffffffffffffffffffffffffffffff1663dd8b2914336040518263ffffffff1660e01b815260040161140f91906133d4565b602060405180830381865afa15801561142c573d6000803e3d6000fd5b505050506040513d601f19601f820116820180604052508101906114509190613414565b600281111561146257611461613364565b5b146114a2576040517f08c379a00000000000000000000000000000000000000000000000000000000081526004016114999061348d565b60405180910390fd5b6114ab826120b2565b6114b482612494565b60006114be61200f565b73ffffffffffffffffffffffffffffffffffffffff1663e3d7e14c336040518263ffffffff1660e01b81526004016114f691906133d4565b602060405180830381865afa158015611513573d6000803e3d6000fd5b505050506040513d601f19601f8201168201806040525081019061153791906134c2565b90506115416121d3565b73ffffffffffffffffffffffffffffffffffffffff16631a2a2c4a82856040518363ffffffff1660e01b815260040161157b9291906134fe565b602060405180830381865afa158015611598573d6000803e3d6000fd5b505050506040513d601f19601f820116820180604052508101906115bc9190613553565b915050919050565b60006115ce611f4d565b600160028111156115e2576115e1613364565b5b6115ea61200f565b73ffffffffffffffffffffffffffffffffffffffff1663dd8b2914336040518263ffffffff1660e01b815260040161162291906133d4565b602060405180830381865afa15801561163f573d6000803e3d6000fd5b505050506040513d601f19601f820116820180604052508101906116639190613414565b600281111561167557611674613364565b5b146116b5576040517f08c379a00000000000000000000000000000000000000000000000000000000081526004016116ac906135cc565b60405180910390fd5b6116bf8383612276565b6116c8836123aa565b6116d06121d3565b73ffffffffffffffffffffffffffffffffffffffff1663683391e483856040518363ffffffff1660e01b815260040161170a9291906134fe565b602060405180830381865afa158015611727573d6000803e3d6000fd5b505050506040513d601f19601f8201168201806040525081019061174b9190613553565b905092915050565b61175b612dec565b606080611766611f4d565b6000600281111561177a57611779613364565b5b61178261200f565b73ffffffffffffffffffffffffffffffffffffffff1663dd8b2914336040518263ffffffff1660e01b81526004016117ba91906133d4565b602060405180830381865afa1580156117d7573d6000803e3d6000fd5b505050506040513d601f19601f820116820180604052508101906117fb9190613414565b600281111561180d5761180c613364565b5b1461184d576040517f08c379a00000000000000000000000000000000000000000000000000000000081526004016118449061348d565b60405180910390fd5b611856846120b2565b600061186061200f565b73ffffffffffffffffffffffffffffffffffffffff1663e3d7e14c336040518263ffffffff1660e01b815260040161189891906133d4565b602060405180830381865afa1580156118b5573d6000803e3d6000fd5b505050506040513d601f19601f820116820180604052508101906118d991906134c2565b90506118e5858261262b565b935093509350509193909250565b6118fb612e1d565b606080611906611f4d565b6001600281111561191a57611919613364565b5b61192261200f565b73ffffffffffffffffffffffffffffffffffffffff1663dd8b2914336040518263ffffffff1660e01b815260040161195a91906133d4565b602060405180830381865afa158015611977573d6000803e3d6000fd5b505050506040513d601f19601f8201168201806040525081019061199b9190613414565b60028111156119ad576119ac613364565b5b146119ed576040517f08c379a00000000000000000000000000000000000000000000000000000000081526004016119e4906135cc565b60405180910390fd5b6119f7858561257d565b611a0185856127ea565b9250925092509250925092565b611a16612e1d565b606080611a21611f4d565b60006002811115611a3557611a34613364565b5b611a3d61200f565b73ffffffffffffffffffffffffffffffffffffffff1663dd8b2914336040518263ffffffff1660e01b8152600401611a7591906133d4565b602060405180830381865afa158015611a92573d6000803e3d6000fd5b505050506040513d601f19601f82011682018060405250810190611ab69190613414565b6002811115611ac857611ac7613364565b5b14611b08576040517f08c379a0000000000000000000000000000000000000000000000000000000008152600401611aff9061348d565b60405180910390fd5b611b11846129a9565b6000611b1b61200f565b73ffffffffffffffffffffffffffffffffffffffff1663e3d7e14c336040518263ffffffff1660e01b8152600401611b5391906133d4565b602060405180830381865afa158015611b70573d6000803e3d6000fd5b505050506040513d601f19601f82011682018060405250810190611b9491906134c2565b9050611ba085826127ea565b935093509350509193909250565b6000611bb8611f4d565b60006002811115611bcc57611bcb613364565b5b611bd461200f565b73ffffffffffffffffffffffffffffffffffffffff1663dd8b2914336040518263ffffffff1660e01b8152600401611c0c91906133d4565b602060405180830381865afa158015611c29573d6000803e3d6000fd5b505050506040513d601f19601f82011682018060405250810190611c4d9190613414565b6002811115611c5f57611c5e613364565b5b14611c9f576040517f08c379a0000000000000000000000000000000000000000000000000000000008152600401611c969061348d565b60405180910390fd5b611ca8826129a9565b6000611cb261200f565b73ffffffffffffffffffffffffffffffffffffffff1663e3d7e14c336040518263ffffffff1660e01b8152600401611cea91906133d4565b602060405180830381865afa158015611d07573d6000803e3d6000fd5b505050506040513d601f19601f82011682018060405250810190611d2b91906134c2565b9050611d356121d3565b73ffffffffffffffffffffffffffffffffffffffff1663130cd89182856040518363ffffffff1660e01b8152600401611d6f9291906134fe565b602060405180830381865afa158015611d8c573d6000803e3d6000fd5b505050506040513d601f19601f82011682018060405250810190611db09190613553565b915050919050565b611dc0612da4565b611dc8611f4d565b60016002811115611ddc57611ddb613364565b5b611de461200f565b73ffffffffffffffffffffffffffffffffffffffff1663dd8b2914336040518263ffffffff1660e01b8152600401611e1c91906133d4565b602060405180830381865afa158015611e39573d6000803e3d6000fd5b505050506040513d601f19601f82011682018060405250810190611e5d9190613414565b6002811115611e6f57611e6e613364565b5b14611eaf576040517f08c379a0000000000000000000000000000000000000000000000000000000008152600401611ea6906135cc565b60405180910390fd5b611eb98383612276565b611ec2836123aa565b611eca6121d3565b73ffffffffffffffffffffffffffffffffffffffff1663fdd3f03683856040518363ffffffff1660e01b8152600401611f049291906134fe565b606060405180830381865afa158015611f21573d6000803e3d6000fd5b505050506040513d601f19601f82011682018060405250810190611f4591906136d5565b905092915050565b611f5561200f565b73ffffffffffffffffffffffffffffffffffffffff166338b6a3a1336040518263ffffffff1660e01b8152600401611f8d91906133d4565b602060405180830381865afa158015611faa573d6000803e3d6000fd5b505050506040513d601f19601f82011682018060405250810190611fce9190613553565b61200d576040517f08c379a0000000000000000000000000000000000000000000000000000000008152600401612004906139a8565b60405180910390fd5b565b60008060009054906101000a900473ffffffffffffffffffffffffffffffffffffffff1673ffffffffffffffffffffffffffffffffffffffff1663bcaa0c5560026040518263ffffffff1660e01b815260040161206c9190613a10565b602060405180830381865afa158015612089573d6000803e3d6000fd5b505050506040513d601f19601f820116820180604052508101906120ad9190613a57565b905090565b60006120bc61200f565b73ffffffffffffffffffffffffffffffffffffffff1663e3d7e14c336040518263ffffffff1660e01b81526004016120f491906133d4565b602060405180830381865afa158015612111573d6000803e3d6000fd5b505050506040513d601f19601f8201168201806040525081019061213591906134c2565b90506000612141612a44565b73ffffffffffffffffffffffffffffffffffffffff1663a31cf91f846040518263ffffffff1660e01b81526004016121799190613a84565b602060405180830381865afa158015612196573d6000803e3d6000fd5b505050506040513d601f19601f820116820180604052508101906121ba91906134c2565b90506121ce82826121c9612ae7565b612b8a565b505050565b60008060009054906101000a900473ffffffffffffffffffffffffffffffffffffffff1673ffffffffffffffffffffffffffffffffffffffff1663bcaa0c5560036040518263ffffffff1660e01b81526004016122309190613a10565b602060405180830381865afa15801561224d573d6000803e3d6000fd5b505050506040513d601f19601f820116820180604052508101906122719190613a57565b905090565b600061228061200f565b73ffffffffffffffffffffffffffffffffffffffff1663e3d7e14c336040518263ffffffff1660e01b81526004016122b891906133d4565b602060405180830381865afa1580156122d5573d6000803e3d6000fd5b505050506040513d601f19601f820116820180604052508101906122f991906134c2565b90506000612305612a44565b73ffffffffffffffffffffffffffffffffffffffff1663a31cf91f856040518263ffffffff1660e01b815260040161233d9190613a84565b602060405180830381865afa15801561235a573d6000803e3d6000fd5b505050506040513d601f19601f8201168201806040525081019061237e91906134c2565b9050612392828261238d612ae7565b612c4a565b6123a4838261239f612ae7565b612b8a565b50505050565b600060018111156123be576123bd613364565b5b6123c6612a44565b73ffffffffffffffffffffffffffffffffffffffff1663e9eb5356836040518263ffffffff1660e01b81526004016123fe9190613a84565b602060405180830381865afa15801561241b573d6000803e3d6000fd5b505050506040513d601f19601f8201168201806040525081019061243f9190613ac4565b600181111561245157612450613364565b5b14612491576040517f08c379a000000000000000000000000000000000000000000000000000000000815260040161248890613b3d565b60405180910390fd5b50565b6001808111156124a7576124a6613364565b5b6124af612a44565b73ffffffffffffffffffffffffffffffffffffffff1663e9eb5356836040518263ffffffff1660e01b81526004016124e79190613a84565b602060405180830381865afa158015612504573d6000803e3d6000fd5b505050506040513d601f19601f820116820180604052508101906125289190613ac4565b600181111561253a57612539613364565b5b1461257a576040517f08c379a000000000000000000000000000000000000000000000000000000000815260040161257190613bcf565b60405180910390fd5b50565b600061258761200f565b73ffffffffffffffffffffffffffffffffffffffff1663e3d7e14c336040518263ffffffff1660e01b81526004016125bf91906133d4565b602060405180830381865afa1580156125dc573d6000803e3d6000fd5b505050506040513d601f19601f8201168201806040525081019061260091906134c2565b9050612614818461260f612ae7565b612c4a565b6126268284612621612ae7565b612b8a565b505050565b612633612dec565b60608060006126406121d3565b73ffffffffffffffffffffffffffffffffffffffff16635e4a739286886040518363ffffffff1660e01b815260040161267a9291906134fe565b600060405180830381865afa158015612697573d6000803e3d6000fd5b505050506040513d6000823e3d601f19601f820116820180604052508101906126c09190613c97565b905060006126cc6121d3565b73ffffffffffffffffffffffffffffffffffffffff1663829e90d587896040518363ffffffff1660e01b81526004016127069291906134fe565b602060405180830381865afa158015612723573d6000803e3d6000fd5b505050506040513d601f19601f8201168201806040525081019061274791906134c2565b905060008061275461200f565b73ffffffffffffffffffffffffffffffffffffffff1663988da80f846040518263ffffffff1660e01b815260040161278c9190613a84565b600060405180830381865afa1580156127a9573d6000803e3d6000fd5b505050506040513d6000823e3d601f19601f820116820180604052508101906127d29190613ce0565b91509150838282965096509650505050509250925092565b6127f2612e1d565b60608060006127ff6121d3565b73ffffffffffffffffffffffffffffffffffffffff1663374a62a086886040518363ffffffff1660e01b81526004016128399291906134fe565b600060405180830381865afa158015612856573d6000803e3d6000fd5b505050506040513d6000823e3d601f19601f8201168201806040525081019061287f9190613e14565b9050600061288b6121d3565b73ffffffffffffffffffffffffffffffffffffffff1663d2ceb78887896040518363ffffffff1660e01b81526004016128c59291906134fe565b602060405180830381865afa1580156128e2573d6000803e3d6000fd5b505050506040513d601f19601f8201168201806040525081019061290691906134c2565b905060008061291361200f565b73ffffffffffffffffffffffffffffffffffffffff1663988da80f846040518263ffffffff1660e01b815260040161294b9190613a84565b600060405180830381865afa158015612968573d6000803e3d6000fd5b505050506040513d6000823e3d601f19601f820116820180604052508101906129919190613ce0565b91509150838282965096509650505050509250925092565b60006129b361200f565b73ffffffffffffffffffffffffffffffffffffffff1663e3d7e14c336040518263ffffffff1660e01b81526004016129eb91906133d4565b602060405180830381865afa158015612a08573d6000803e3d6000fd5b505050506040513d601f19601f82011682018060405250810190612a2c91906134c2565b9050612a408183612a3b612ae7565b612b8a565b5050565b60008060009054906101000a900473ffffffffffffffffffffffffffffffffffffffff1673ffffffffffffffffffffffffffffffffffffffff1663bcaa0c5560016040518263ffffffff1660e01b8152600401612aa19190613a10565b602060405180830381865afa158015612abe573d6000803e3d6000fd5b505050506040513d601f19601f82011682018060405250810190612ae29190613a57565b905090565b60008060009054906101000a900473ffffffffffffffffffffffffffffffffffffffff1673ffffffffffffffffffffffffffffffffffffffff1663bcaa0c5560006040518263ffffffff1660e01b8152600401612b449190613a10565b602060405180830381865afa158015612b61573d6000803e3d6000fd5b505050506040513d601f19601f82011682018060405250810190612b859190613a57565b905090565b8073ffffffffffffffffffffffffffffffffffffffff16633932708b84846040518363ffffffff1660e01b8152600401612bc59291906134fe565b602060405180830381865afa158015612be2573d6000803e3d6000fd5b505050506040513d601f19601f82011682018060405250810190612c069190613553565b612c45576040517f08c379a0000000000000000000000000000000000000000000000000000000008152600401612c3c90613ecf565b60405180910390fd5b505050565b612cd2838273ffffffffffffffffffffffffffffffffffffffff1663bd9c1b50856040518263ffffffff1660e01b8152600401612c879190613a84565b600060405180830381865afa158015612ca4573d6000803e3d6000fd5b505050506040513d6000823e3d601f19601f82011682018060405250810190612ccd9190613fb2565b612d16565b612d11576040517f08c379a0000000000000000000000000000000000000000000000000000000008152600401612d089061406d565b60405180910390fd5b505050565b600080612d238484612d2d565b1215905092915050565b600080600090505b8251811015612d795783838281518110612d5257612d5161408d565b5b602002602001015103612d685780915050612d9e565b80612d72906140eb565b9050612d35565b507fffffffffffffffffffffffffffffffffffffffffffffffffffffffffffffffff90505b92915050565b6040518060600160405280600015158152602001600015158152602001600081525090565b604051806060016040528060001515815260200160008152602001606081525090565b6040518060a00160405280600015158152602001600081526020016000815260200160608152602001600081525090565b6040518060c00160405280600015158152602001600081526020016060815260200160008152602001600081526020016000151581525090565b6000604051905090565b600080fd5b600080fd5b6000819050919050565b612e7e81612e6b565b8114612e8957600080fd5b50565b600081359050612e9b81612e75565b92915050565b600060208284031215612eb757612eb6612e61565b5b6000612ec584828501612e8c565b91505092915050565b60008115159050919050565b612ee381612ece565b82525050565b6000602082019050612efe6000830184612eda565b92915050565b60008060408385031215612f1b57612f1a612e61565b5b6000612f2985828601612e8c565b9250506020612f3a85828601612e8c565b9150509250929050565b612f4d81612ece565b82525050565b612f5c81612e6b565b82525050565b606082016000820151612f786000850182612f44565b506020820151612f8b6020850182612f44565b506040820151612f9e6040850182612f53565b50505050565b6000606082019050612fb96000830184612f62565b92915050565b600081519050919050565b600082825260208201905092915050565b6000819050602082019050919050565b600081519050919050565b600082825260208201905092915050565b60005b8381101561302557808201518184015260208101905061300a565b60008484015250505050565b6000601f19601f8301169050919050565b600061304d82612feb565b6130578185612ff6565b9350613067818560208601613007565b61307081613031565b840191505092915050565b60006130878383613042565b905092915050565b6000602082019050919050565b60006130a782612fbf565b6130b18185612fca565b9350836020820285016130c385612fdb565b8060005b858110156130ff57848403895281516130e0858261307b565b94506130eb8361308f565b925060208a019950506001810190506130c7565b50829750879550505050505092915050565b60006060830160008301516131296000860182612f44565b50602083015161313c6020860182612f53565b5060408301518482036040860152613154828261309c565b9150508091505092915050565b6000602082019050818103600083015261317b8184613111565b905092915050565b600060a08301600083015161319b6000860182612f44565b5060208301516131ae6020860182612f53565b5060408301516131c16040860182612f53565b50606083015184820360608601526131d98282613042565b91505060808301516131ee6080860182612f53565b508091505092915050565b600082825260208201905092915050565b600061321582612feb565b61321f81856131f9565b935061322f818560208601613007565b61323881613031565b840191505092915050565b6000606082019050818103600083015261325d8186613183565b90508181036020830152613271818561320a565b90508181036040830152613285818461320a565b9050949350505050565b600060c0830160008301516132a76000860182612f44565b5060208301516132ba6020860182612f53565b50604083015184820360408601526132d28282613042565b91505060608301516132e76060860182612f53565b5060808301516132fa6080860182612f53565b5060a083015161330d60a0860182612f44565b508091505092915050565b60006060820190508181036000830152613332818661328f565b90508181036020830152613346818561320a565b9050818103604083015261335a818461320a565b9050949350505050565b7f4e487b7100000000000000000000000000000000000000000000000000000000600052602160045260246000fd5b600073ffffffffffffffffffffffffffffffffffffffff82169050919050565b60006133be82613393565b9050919050565b6133ce816133b3565b82525050565b60006020820190506133e960008301846133c5565b92915050565b600381106133fc57600080fd5b50565b60008151905061340e816133ef565b92915050565b60006020828403121561342a57613429612e61565b5b6000613438848285016133ff565b91505092915050565b7f53656e646572206d75737420626520612073747564656e740000000000000000600082015250565b60006134776018836131f9565b915061348282613441565b602082019050919050565b600060208201905081810360008301526134a68161346a565b9050919050565b6000815190506134bc81612e75565b92915050565b6000602082840312156134d8576134d7612e61565b5b60006134e6848285016134ad565b91505092915050565b6134f881612e6b565b82525050565b600060408201905061351360008301856134ef565b61352060208301846134ef565b9392505050565b61353081612ece565b811461353b57600080fd5b50565b60008151905061354d81613527565b92915050565b60006020828403121561356957613568612e61565b5b60006135778482850161353e565b91505092915050565b7f53656e646572206d7573742062652061206c6563747572657200000000000000600082015250565b60006135b66019836131f9565b91506135c182613580565b602082019050919050565b600060208201905081810360008301526135e5816135a9565b9050919050565b600080fd5b7f4e487b7100000000000000000000000000000000000000000000000000000000600052604160045260246000fd5b61362982613031565b810181811067ffffffffffffffff82111715613648576136476135f1565b5b80604052505050565b600061365b612e57565b90506136678282613620565b919050565b600080fd5b600060608284031215613687576136866135ec565b5b6136916060613651565b905060006136a18482850161353e565b60008301525060206136b58482850161353e565b60208301525060406136c9848285016134ad565b60408301525092915050565b6000606082840312156136eb576136ea612e61565b5b60006136f984828501613671565b91505092915050565b600080fd5b600067ffffffffffffffff821115613722576137216135f1565b5b602082029050602081019050919050565b600080fd5b600080fd5b600067ffffffffffffffff821115613758576137576135f1565b5b61376182613031565b9050602081019050919050565b600061378161377c8461373d565b613651565b90508281526020810184848401111561379d5761379c613738565b5b6137a8848285613007565b509392505050565b600082601f8301126137c5576137c4613702565b5b81516137d584826020860161376e565b91505092915050565b60006137f16137ec84613707565b613651565b9050808382526020820190506020840283018581111561381457613813613733565b5b835b8181101561385b57805167ffffffffffffffff81111561383957613838613702565b5b80860161384689826137b0565b85526020850194505050602081019050613816565b5050509392505050565b600082601f83011261387a57613879613702565b5b815161388a8482602086016137de565b91505092915050565b6000606082840312156138a9576138a86135ec565b5b6138b36060613651565b905060006138c38482850161353e565b60008301525060206138d7848285016134ad565b602083015250604082015167ffffffffffffffff8111156138fb576138fa61366c565b5b61390784828501613865565b60408301525092915050565b60006020828403121561392957613928612e61565b5b600082015167ffffffffffffffff81111561394757613946612e66565b5b61395384828501613893565b91505092915050565b7f53656e646572206d757374206265206120726567697374657265642075736572600082015250565b60006139926020836131f9565b915061399d8261395c565b602082019050919050565b600060208201905081810360008301526139c181613985565b9050919050565b600681106139d9576139d8613364565b5b50565b60008190506139ea826139c8565b919050565b60006139fa826139dc565b9050919050565b613a0a816139ef565b82525050565b6000602082019050613a256000830184613a01565b92915050565b613a34816133b3565b8114613a3f57600080fd5b50565b600081519050613a5181613a2b565b92915050565b600060208284031215613a6d57613a6c612e61565b5b6000613a7b84828501613a42565b91505092915050565b6000602082019050613a9960008301846134ef565b92915050565b60028110613aac57600080fd5b50565b600081519050613abe81613a9f565b92915050565b600060208284031215613ada57613ad9612e61565b5b6000613ae884828501613aaf565b91505092915050565b7f54686973206173736573736d656e7420776173206e6f7420616e206578616d00600082015250565b6000613b27601f836131f9565b9150613b3282613af1565b602082019050919050565b60006020820190508181036000830152613b5681613b1a565b9050919050565b7f54686973206173736573736d656e7420776173206e6f742061207375626d697360008201527f73696f6e00000000000000000000000000000000000000000000000000000000602082015250565b6000613bb96024836131f9565b9150613bc482613b5d565b604082019050919050565b60006020820190508181036000830152613be881613bac565b9050919050565b600060a08284031215613c0557613c046135ec565b5b613c0f60a0613651565b90506000613c1f8482850161353e565b6000830152506020613c33848285016134ad565b6020830152506040613c47848285016134ad565b604083015250606082015167ffffffffffffffff811115613c6b57613c6a61366c565b5b613c77848285016137b0565b6060830152506080613c8b848285016134ad565b60808301525092915050565b600060208284031215613cad57613cac612e61565b5b600082015167ffffffffffffffff811115613ccb57613cca612e66565b5b613cd784828501613bef565b91505092915050565b60008060408385031215613cf757613cf6612e61565b5b600083015167ffffffffffffffff811115613d1557613d14612e66565b5b613d21858286016137b0565b925050602083015167ffffffffffffffff811115613d4257613d41612e66565b5b613d4e858286016137b0565b9150509250929050565b600060c08284031215613d6e57613d6d6135ec565b5b613d7860c0613651565b90506000613d888482850161353e565b6000830152506020613d9c848285016134ad565b602083015250604082015167ffffffffffffffff811115613dc057613dbf61366c565b5b613dcc848285016137b0565b6040830152506060613de0848285016134ad565b6060830152506080613df4848285016134ad565b60808301525060a0613e088482850161353e565b60a08301525092915050565b600060208284031215613e2a57613e29612e61565b5b600082015167ffffffffffffffff811115613e4857613e47612e66565b5b613e5484828501613d58565b91505092915050565b7f53747564656e74206973206e6f74207265676973746572656420746f2074686560008201527f20636f7572736500000000000000000000000000000000000000000000000000602082015250565b6000613eb96027836131f9565b9150613ec482613e5d565b604082019050919050565b60006020820190508181036000830152613ee881613eac565b9050919050565b600067ffffffffffffffff821115613f0a57613f096135f1565b5b602082029050602081019050919050565b6000613f2e613f2984613eef565b613651565b90508083825260208201905060208402830185811115613f5157613f50613733565b5b835b81811015613f7a5780613f6688826134ad565b845260208401935050602081019050613f53565b5050509392505050565b600082601f830112613f9957613f98613702565b5b8151613fa9848260208601613f1b565b91505092915050565b600060208284031215613fc857613fc7612e61565b5b600082015167ffffffffffffffff811115613fe657613fe5612e66565b5b613ff284828501613f84565b91505092915050565b7f4c65637475726572206973206e6f74206c6563747572696e672061742074686960008201527f7320636f75727365000000000000000000000000000000000000000000000000602082015250565b60006140576028836131f9565b915061406282613ffb565b604082019050919050565b600060208201905081810360008301526140868161404a565b9050919050565b7f4e487b7100000000000000000000000000000000000000000000000000000000600052603260045260246000fd5b7f4e487b7100000000000000000000000000000000000000000000000000000000600052601160045260246000fd5b60006140f682612e6b565b91507fffffffffffffffffffffffffffffffffffffffffffffffffffffffffffffffff8203614128576141276140bc565b5b60018201905091905056fea2646970667358221220a94c5f7109364547539ec890147879b3957a8b639c7b81bdc1486e29518eadb064736f6c63430008110033",
  "linkReferences": {},
  "deployedLinkReferences": {}
}