{
  "_format": "hh-sol-artifact-1",
  "contractName": "UserController",
  "sourceName": "contracts/logic/UserController.sol",
  "abi": [
    {
      "inputs": [
        {
          "internalType": "address",
          "name": "userDataManagerAddress",
          "type": "address"
        },
        {
          "internalType": "address",
          "name": "programDataManagerAddress",
          "type": "address"
        },
        {
          "internalType": "address",
          "name": "registrationDataManagerAddress",
          "type": "address"
        },
        {
          "internalType": "address payable",
          "name": "faucetAddress",
          "type": "address"
        }
      ],
      "stateMutability": "nonpayable",
      "type": "constructor"
    },
    {
      "inputs": [
        {
          "internalType": "address",
          "name": "userAddress",
          "type": "address"
        }
      ],
      "name": "acceptRegistration",
      "outputs": [],
      "stateMutability": "nonpayable",
      "type": "function"
    },
    {
      "inputs": [],
      "name": "acknowledgeRegistrationResult",
      "outputs": [],
      "stateMutability": "nonpayable",
      "type": "function"
    },
    {
      "inputs": [
        {
          "internalType": "address",
          "name": "_address",
          "type": "address"
        }
      ],
      "name": "addAdmin",
      "outputs": [],
      "stateMutability": "nonpayable",
      "type": "function"
    },
    {
      "inputs": [
        {
          "internalType": "address",
          "name": "userAddress",
          "type": "address"
        }
      ],
      "name": "adminAcceptRegistration",
      "outputs": [],
      "stateMutability": "nonpayable",
      "type": "function"
    },
    {
      "inputs": [
        {
          "internalType": "address",
          "name": "userAddress",
          "type": "address"
        }
      ],
      "name": "adminRejectRegistration",
      "outputs": [],
      "stateMutability": "nonpayable",
      "type": "function"
    },
    {
      "inputs": [
        {
          "internalType": "address[]",
          "name": "addresses",
          "type": "address[]"
        }
      ],
      "name": "batchAddAdmin",
      "outputs": [],
      "stateMutability": "nonpayable",
      "type": "function"
    },
    {
      "inputs": [
        {
          "internalType": "address",
          "name": "_address",
          "type": "address"
        }
      ],
      "name": "isAdmin",
      "outputs": [
        {
          "internalType": "bool",
          "name": "",
          "type": "bool"
        }
      ],
      "stateMutability": "view",
      "type": "function"
    },
    {
      "inputs": [],
      "name": "isAutomaticAcceptanceOn",
      "outputs": [
        {
          "internalType": "bool",
          "name": "",
          "type": "bool"
        }
      ],
      "stateMutability": "view",
      "type": "function"
    },
    {
      "inputs": [
        {
          "internalType": "address",
          "name": "userAddress",
          "type": "address"
        }
      ],
      "name": "rejectRegistration",
      "outputs": [],
      "stateMutability": "nonpayable",
      "type": "function"
    },
    {
      "inputs": [
        {
          "internalType": "address",
          "name": "_address",
          "type": "address"
        }
      ],
      "name": "removeAdmin",
      "outputs": [],
      "stateMutability": "nonpayable",
      "type": "function"
    },
    {
      "inputs": [],
      "name": "requestExtraTokens",
      "outputs": [],
      "stateMutability": "nonpayable",
      "type": "function"
    },
    {
      "inputs": [
        {
          "internalType": "address",
          "name": "userAddress",
          "type": "address"
        },
        {
          "components": [
            {
              "internalType": "string",
              "name": "firstName",
              "type": "string"
            },
            {
              "internalType": "string",
              "name": "lastName",
              "type": "string"
            },
            {
              "internalType": "enum UserDataTypes.Gender",
              "name": "gender",
              "type": "uint8"
            },
            {
              "components": [
                {
                  "internalType": "uint256",
                  "name": "year",
                  "type": "uint256"
                },
                {
                  "internalType": "uint256",
                  "name": "month",
                  "type": "uint256"
                },
                {
                  "internalType": "uint256",
                  "name": "day",
                  "type": "uint256"
                }
              ],
              "internalType": "struct UserDataTypes.Date",
              "name": "dateOfBirth",
              "type": "tuple"
            },
            {
              "internalType": "string",
              "name": "nationality",
              "type": "string"
            },
            {
              "internalType": "string",
              "name": "phoneNumber",
              "type": "string"
            },
            {
              "internalType": "string",
              "name": "emailAddress",
              "type": "string"
            },
            {
              "internalType": "enum UserDataTypes.UserRole",
              "name": "role",
              "type": "uint8"
            },
            {
              "internalType": "uint256[]",
              "name": "studyProgramIds",
              "type": "uint256[]"
            }
          ],
          "internalType": "struct UserDataTypes.UserProfile",
          "name": "profile",
          "type": "tuple"
        }
      ],
      "name": "requestRegistration",
      "outputs": [],
      "stateMutability": "nonpayable",
      "type": "function"
    },
    {
      "inputs": [
        {
          "internalType": "bool",
          "name": "newValue",
          "type": "bool"
        }
      ],
      "name": "setAutomaticAcceptance",
      "outputs": [],
      "stateMutability": "nonpayable",
      "type": "function"
    }
  ],
  "bytecode": "0x60806040526000600860146101000a81548160ff0219169083151502179055503480156200002c57600080fd5b5060405162002bce38038062002bce8339818101604052810190620000529190620002e7565b8380806000806101000a81548173ffffffffffffffffffffffffffffffffffffffff021916908373ffffffffffffffffffffffffffffffffffffffff16021790555050506001600760003373ffffffffffffffffffffffffffffffffffffffff1673ffffffffffffffffffffffffffffffffffffffff16815260200190815260200160002060006101000a81548160ff021916908315150217905550620000ff846200016c60201b60201c565b6200011082620001b060201b60201c565b6200012183620001f460201b60201c565b80600860006101000a81548173ffffffffffffffffffffffffffffffffffffffff021916908373ffffffffffffffffffffffffffffffffffffffff1602179055505050505062000359565b80600160006101000a81548173ffffffffffffffffffffffffffffffffffffffff021916908373ffffffffffffffffffffffffffffffffffffffff16021790555050565b80600660006101000a81548173ffffffffffffffffffffffffffffffffffffffff021916908373ffffffffffffffffffffffffffffffffffffffff16021790555050565b80600560006101000a81548173ffffffffffffffffffffffffffffffffffffffff021916908373ffffffffffffffffffffffffffffffffffffffff16021790555050565b600080fd5b600073ffffffffffffffffffffffffffffffffffffffff82169050919050565b60006200026a826200023d565b9050919050565b6200027c816200025d565b81146200028857600080fd5b50565b6000815190506200029c8162000271565b92915050565b6000620002af826200023d565b9050919050565b620002c181620002a2565b8114620002cd57600080fd5b50565b600081519050620002e181620002b6565b92915050565b6000806000806080858703121562000304576200030362000238565b5b600062000314878288016200028b565b945050602062000327878288016200028b565b93505060406200033a878288016200028b565b92505060606200034d87828801620002d0565b91505092959194509250565b61286580620003696000396000f3fe608060405234801561001057600080fd5b50600436106100cf5760003560e01c806398f6ba431161008c578063ccc2260e11610066578063ccc2260e146101e6578063e5ba3c00146101f0578063f0b414381461020c578063f29105b114610228576100cf565b806398f6ba4314610192578063a6e70126146101ae578063b204e9f3146101ca576100cf565b80631785f53c146100d457806324d7806c146100f05780632c9ab42b14610120578063382654241461013c5780636c3585dd146101585780637048027514610176575b600080fd5b6100ee60048036038101906100e99190611307565b610232565b005b61010a60048036038101906101059190611307565b610319565b604051610117919061134f565b60405180910390f35b61013a600480360381019061013591906113cf565b61036f565b005b61015660048036038101906101519190611307565b61044f565b005b610160610564565b60405161016d919061134f565b60405180910390f35b610190600480360381019061018b9190611307565b610577565b005b6101ac60048036038101906101a79190611307565b61065e565b005b6101c860048036038101906101c39190611307565b6106f8565b005b6101e460048036038101906101df9190611307565b610792565b005b6101ee6108a7565b005b61020a60048036038101906102059190611448565b61093e565b005b6102266004803603810190610221919061149a565b6109e7565b005b610230610c2c565b005b600760003373ffffffffffffffffffffffffffffffffffffffff1673ffffffffffffffffffffffffffffffffffffffff16815260200190815260200160002060009054906101000a900460ff166102be576040517f08c379a00000000000000000000000000000000000000000000000000000000081526004016102b590611579565b60405180910390fd5b6000600760008373ffffffffffffffffffffffffffffffffffffffff1673ffffffffffffffffffffffffffffffffffffffff16815260200190815260200160002060006101000a81548160ff02191690831515021790555050565b6000600760008373ffffffffffffffffffffffffffffffffffffffff1673ffffffffffffffffffffffffffffffffffffffff16815260200190815260200160002060009054906101000a900460ff169050919050565b600760003373ffffffffffffffffffffffffffffffffffffffff1673ffffffffffffffffffffffffffffffffffffffff16815260200190815260200160002060009054906101000a900460ff166103fb576040517f08c379a00000000000000000000000000000000000000000000000000000000081526004016103f290611579565b60405180910390fd5b60005b8282905081101561044a5761043983838381811061041f5761041e611599565b5b90506020020160208101906104349190611307565b610577565b8061044390611601565b90506103fe565b505050565b610457610fb2565b60028081111561046a57610469611649565b5b60008054906101000a900473ffffffffffffffffffffffffffffffffffffffff1673ffffffffffffffffffffffffffffffffffffffff1663dd8b2914336040518263ffffffff1660e01b81526004016104c39190611687565b602060405180830381865afa1580156104e0573d6000803e3d6000fd5b505050506040513d601f19601f8201168201806040525081019061050491906116c7565b600281111561051657610515611649565b5b14610556576040517f08c379a000000000000000000000000000000000000000000000000000000000815260040161054d90611766565b60405180910390fd5b61056181600161108d565b50565b600860149054906101000a900460ff1681565b600760003373ffffffffffffffffffffffffffffffffffffffff1673ffffffffffffffffffffffffffffffffffffffff16815260200190815260200160002060009054906101000a900460ff16610603576040517f08c379a00000000000000000000000000000000000000000000000000000000081526004016105fa90611579565b60405180910390fd5b6001600760008373ffffffffffffffffffffffffffffffffffffffff1673ffffffffffffffffffffffffffffffffffffffff16815260200190815260200160002060006101000a81548160ff02191690831515021790555050565b600760003373ffffffffffffffffffffffffffffffffffffffff1673ffffffffffffffffffffffffffffffffffffffff16815260200190815260200160002060009054906101000a900460ff166106ea576040517f08c379a00000000000000000000000000000000000000000000000000000000081526004016106e190611579565b60405180910390fd5b6106f581600261108d565b50565b600760003373ffffffffffffffffffffffffffffffffffffffff1673ffffffffffffffffffffffffffffffffffffffff16815260200190815260200160002060009054906101000a900460ff16610784576040517f08c379a000000000000000000000000000000000000000000000000000000000815260040161077b90611579565b60405180910390fd5b61078f81600161108d565b50565b61079a610fb2565b6002808111156107ad576107ac611649565b5b60008054906101000a900473ffffffffffffffffffffffffffffffffffffffff1673ffffffffffffffffffffffffffffffffffffffff1663dd8b2914336040518263ffffffff1660e01b81526004016108069190611687565b602060405180830381865afa158015610823573d6000803e3d6000fd5b505050506040513d601f19601f8201168201806040525081019061084791906116c7565b600281111561085957610858611649565b5b14610899576040517f08c379a000000000000000000000000000000000000000000000000000000000815260040161089090611766565b60405180910390fd5b6108a481600261108d565b50565b6108af610fb2565b600860009054906101000a900473ffffffffffffffffffffffffffffffffffffffff1673ffffffffffffffffffffffffffffffffffffffff1663fbb013f1336040518263ffffffff1660e01b815260040161090a91906117a7565b600060405180830381600087803b15801561092457600080fd5b505af1158015610938573d6000803e3d6000fd5b50505050565b600760003373ffffffffffffffffffffffffffffffffffffffff1673ffffffffffffffffffffffffffffffffffffffff16815260200190815260200160002060009054906101000a900460ff166109ca576040517f08c379a00000000000000000000000000000000000000000000000000000000081526004016109c190611579565b60405180910390fd5b80600860146101000a81548160ff02191690831515021790555050565b600760003373ffffffffffffffffffffffffffffffffffffffff1673ffffffffffffffffffffffffffffffffffffffff16815260200190815260200160002060009054906101000a900460ff16610a73576040517f08c379a0000000000000000000000000000000000000000000000000000000008152600401610a6a90611579565b60405180910390fd5b610a7c826111b6565b60005b81806101400190610a9091906117d1565b9050811015610b7457600560009054906101000a900473ffffffffffffffffffffffffffffffffffffffff1673ffffffffffffffffffffffffffffffffffffffff16634e634eb583806101400190610ae891906117d1565b84818110610af957610af8611599565b5b905060200201356040518263ffffffff1660e01b8152600401610b1c9190611843565b600060405180830381865afa158015610b39573d6000803e3d6000fd5b505050506040513d6000823e3d601f19601f82011682018060405250810190610b629190611a5c565b5080610b6d90611601565b9050610a7f565b50600660009054906101000a900473ffffffffffffffffffffffffffffffffffffffff1673ffffffffffffffffffffffffffffffffffffffff166358cbfccd836000846040518463ffffffff1660e01b8152600401610bd593929190611f62565b600060405180830381600087803b158015610bef57600080fd5b505af1158015610c03573d6000803e3d6000fd5b50505050600860149054906101000a900460ff1615610c2857610c2782600261108d565b5b5050565b610c35336111b6565b6000600660009054906101000a900473ffffffffffffffffffffffffffffffffffffffff1673ffffffffffffffffffffffffffffffffffffffff166365b7109a336040518263ffffffff1660e01b8152600401610c929190611687565b602060405180830381865afa158015610caf573d6000803e3d6000fd5b505050506040513d601f19601f82011682018060405250810190610cd39190611fc5565b905060006002811115610ce957610ce8611649565b5b816002811115610cfc57610cfb611649565b5b03610d3c576040517f08c379a0000000000000000000000000000000000000000000000000000000008152600401610d3390612064565b60405180910390fd5b600280811115610d4f57610d4e611649565b5b816002811115610d6257610d61611649565b5b03610f2257600160009054906101000a900473ffffffffffffffffffffffffffffffffffffffff1673ffffffffffffffffffffffffffffffffffffffff16636d9521d8600660009054906101000a900473ffffffffffffffffffffffffffffffffffffffff1673ffffffffffffffffffffffffffffffffffffffff1663f5bf01fb336040518263ffffffff1660e01b8152600401610e009190611687565b600060405180830381865afa158015610e1d573d6000803e3d6000fd5b505050506040513d6000823e3d601f19601f82011682018060405250810190610e4691906123df565b6040518263ffffffff1660e01b8152600401610e6291906126a4565b600060405180830381600087803b158015610e7c57600080fd5b505af1158015610e90573d6000803e3d6000fd5b50505050600860009054906101000a900473ffffffffffffffffffffffffffffffffffffffff1673ffffffffffffffffffffffffffffffffffffffff1663fbb013f1336040518263ffffffff1660e01b8152600401610eef91906117a7565b600060405180830381600087803b158015610f0957600080fd5b505af1158015610f1d573d6000803e3d6000fd5b505050505b600660009054906101000a900473ffffffffffffffffffffffffffffffffffffffff1673ffffffffffffffffffffffffffffffffffffffff1663442fb8ab336040518263ffffffff1660e01b8152600401610f7d9190611687565b600060405180830381600087803b158015610f9757600080fd5b505af1158015610fab573d6000803e3d6000fd5b5050505050565b60008054906101000a900473ffffffffffffffffffffffffffffffffffffffff1673ffffffffffffffffffffffffffffffffffffffff166338b6a3a1336040518263ffffffff1660e01b815260040161100b9190611687565b602060405180830381865afa158015611028573d6000803e3d6000fd5b505050506040513d601f19601f8201168201806040525081019061104c91906126db565b61108b576040517f08c379a000000000000000000000000000000000000000000000000000000000815260040161108290612754565b60405180910390fd5b565b611096826111b6565b600660009054906101000a900473ffffffffffffffffffffffffffffffffffffffff1673ffffffffffffffffffffffffffffffffffffffff166351cafe0483836040518363ffffffff1660e01b81526004016110f3929190612774565b600060405180830381600087803b15801561110d57600080fd5b505af1158015611121573d6000803e3d6000fd5b50505050600860009054906101000a900473ffffffffffffffffffffffffffffffffffffffff1673ffffffffffffffffffffffffffffffffffffffff1663b21224a9836040518263ffffffff1660e01b815260040161118091906117a7565b600060405180830381600087803b15801561119a57600080fd5b505af11580156111ae573d6000803e3d6000fd5b505050505050565b600160009054906101000a900473ffffffffffffffffffffffffffffffffffffffff1673ffffffffffffffffffffffffffffffffffffffff166338b6a3a1826040518263ffffffff1660e01b81526004016112119190611687565b602060405180830381865afa15801561122e573d6000803e3d6000fd5b505050506040513d601f19601f8201168201806040525081019061125291906126db565b15611292576040517f08c379a00000000000000000000000000000000000000000000000000000000081526004016112899061280f565b60405180910390fd5b50565b6000604051905090565b600080fd5b600080fd5b600073ffffffffffffffffffffffffffffffffffffffff82169050919050565b60006112d4826112a9565b9050919050565b6112e4816112c9565b81146112ef57600080fd5b50565b600081359050611301816112db565b92915050565b60006020828403121561131d5761131c61129f565b5b600061132b848285016112f2565b91505092915050565b60008115159050919050565b61134981611334565b82525050565b60006020820190506113646000830184611340565b92915050565b600080fd5b600080fd5b600080fd5b60008083601f84011261138f5761138e61136a565b5b8235905067ffffffffffffffff8111156113ac576113ab61136f565b5b6020830191508360208202830111156113c8576113c7611374565b5b9250929050565b600080602083850312156113e6576113e561129f565b5b600083013567ffffffffffffffff811115611404576114036112a4565b5b61141085828601611379565b92509250509250929050565b61142581611334565b811461143057600080fd5b50565b6000813590506114428161141c565b92915050565b60006020828403121561145e5761145d61129f565b5b600061146c84828501611433565b91505092915050565b600080fd5b6000610160828403121561149157611490611475565b5b81905092915050565b600080604083850312156114b1576114b061129f565b5b60006114bf858286016112f2565b925050602083013567ffffffffffffffff8111156114e0576114df6112a4565b5b6114ec8582860161147a565b9150509250929050565b600082825260208201905092915050565b7f4f6e6c792061646d696e206164647265737365732063616e2063616c6c20746860008201527f69732066756e6374696f6e000000000000000000000000000000000000000000602082015250565b6000611563602b836114f6565b915061156e82611507565b604082019050919050565b6000602082019050818103600083015261159281611556565b9050919050565b7f4e487b7100000000000000000000000000000000000000000000000000000000600052603260045260246000fd5b7f4e487b7100000000000000000000000000000000000000000000000000000000600052601160045260246000fd5b6000819050919050565b600061160c826115f7565b91507fffffffffffffffffffffffffffffffffffffffffffffffffffffffffffffffff820361163e5761163d6115c8565b5b600182019050919050565b7f4e487b7100000000000000000000000000000000000000000000000000000000600052602160045260246000fd5b611681816112c9565b82525050565b600060208201905061169c6000830184611678565b92915050565b600381106116af57600080fd5b50565b6000815190506116c1816116a2565b92915050565b6000602082840312156116dd576116dc61129f565b5b60006116eb848285016116b2565b91505092915050565b7f53656e646572206d75737420626520612073747564792070726f6772616d206d60008201527f616e616765720000000000000000000000000000000000000000000000000000602082015250565b60006117506026836114f6565b915061175b826116f4565b604082019050919050565b6000602082019050818103600083015261177f81611743565b9050919050565b6000611791826112a9565b9050919050565b6117a181611786565b82525050565b60006020820190506117bc6000830184611798565b92915050565b600080fd5b600080fd5b600080fd5b600080833560016020038436030381126117ee576117ed6117c2565b5b80840192508235915067ffffffffffffffff8211156118105761180f6117c7565b5b60208301925060208202360383131561182c5761182b6117cc565b5b509250929050565b61183d816115f7565b82525050565b60006020820190506118586000830184611834565b92915050565b600080fd5b6000601f19601f8301169050919050565b7f4e487b7100000000000000000000000000000000000000000000000000000000600052604160045260246000fd5b6118ac82611863565b810181811067ffffffffffffffff821117156118cb576118ca611874565b5b80604052505050565b60006118de611295565b90506118ea82826118a3565b919050565b600080fd5b6118fd816115f7565b811461190857600080fd5b50565b60008151905061191a816118f4565b92915050565b600080fd5b600067ffffffffffffffff8211156119405761193f611874565b5b61194982611863565b9050602081019050919050565b60005b83811015611974578082015181840152602081019050611959565b60008484015250505050565b600061199361198e84611925565b6118d4565b9050828152602081018484840111156119af576119ae611920565b5b6119ba848285611956565b509392505050565b600082601f8301126119d7576119d661136a565b5b81516119e7848260208601611980565b91505092915050565b600060408284031215611a0657611a0561185e565b5b611a1060406118d4565b90506000611a208482850161190b565b600083015250602082015167ffffffffffffffff811115611a4457611a436118ef565b5b611a50848285016119c2565b60208301525092915050565b600060208284031215611a7257611a7161129f565b5b600082015167ffffffffffffffff811115611a9057611a8f6112a4565b5b611a9c848285016119f0565b91505092915050565b60038110611ab657611ab5611649565b5b50565b6000819050611ac782611aa5565b919050565b6000611ad782611ab9565b9050919050565b611ae781611acc565b82525050565b600080fd5b600080fd5b600080fd5b60008083356001602003843603038112611b1957611b18611af7565b5b83810192508235915060208301925067ffffffffffffffff821115611b4157611b40611aed565b5b600182023603831315611b5757611b56611af2565b5b509250929050565b600082825260208201905092915050565b82818337600083830152505050565b6000611b8b8385611b5f565b9350611b98838584611b70565b611ba183611863565b840190509392505050565b60038110611bb957600080fd5b50565b600081359050611bcb81611bac565b92915050565b6000611be06020840184611bbc565b905092915050565b60038110611bf957611bf8611649565b5b50565b6000819050611c0a82611be8565b919050565b6000611c1a82611bfc565b9050919050565b611c2a81611c0f565b82525050565b600082905092915050565b600081359050611c4a816118f4565b92915050565b6000611c5f6020840184611c3b565b905092915050565b611c70816115f7565b82525050565b60608201611c876000830183611c50565b611c946000850182611c67565b50611ca26020830183611c50565b611caf6020850182611c67565b50611cbd6040830183611c50565b611cca6040850182611c67565b50505050565b600081359050611cdf816116a2565b92915050565b6000611cf46020840184611cd0565b905092915050565b60038110611d0d57611d0c611649565b5b50565b6000819050611d1e82611cfc565b919050565b6000611d2e82611d10565b9050919050565b611d3e81611d23565b82525050565b60008083356001602003843603038112611d6157611d60611af7565b5b83810192508235915060208301925067ffffffffffffffff821115611d8957611d88611aed565b5b602082023603831315611d9f57611d9e611af2565b5b509250929050565b600082825260208201905092915050565b600080fd5b82818337505050565b6000611dd28385611da7565b93507f07ffffffffffffffffffffffffffffffffffffffffffffffffffffffffffffff831115611e0557611e04611db8565b5b602083029250611e16838584611dbd565b82840190509392505050565b60006101608301611e366000840184611afc565b8583036000870152611e49838284611b7f565b92505050611e5a6020840184611afc565b8583036020870152611e6d838284611b7f565b92505050611e7e6040840184611bd1565b611e8b6040860182611c21565b50611e996060840184611c30565b611ea66060860182611c76565b50611eb460c0840184611afc565b85830360c0870152611ec7838284611b7f565b92505050611ed860e0840184611afc565b85830360e0870152611eeb838284611b7f565b92505050611efd610100840184611afc565b858303610100870152611f11838284611b7f565b92505050611f23610120840184611ce5565b611f31610120860182611d35565b50611f40610140840184611d44565b858303610140870152611f54838284611dc6565b925050508091505092915050565b6000606082019050611f776000830186611678565b611f846020830185611ade565b8181036040830152611f968184611e22565b9050949350505050565b60038110611fad57600080fd5b50565b600081519050611fbf81611fa0565b92915050565b600060208284031215611fdb57611fda61129f565b5b6000611fe984828501611fb0565b91505092915050565b7f526567697374726174696f6e206973207374696c6c20756e646572207265766960008201527f6577000000000000000000000000000000000000000000000000000000000000602082015250565b600061204e6022836114f6565b915061205982611ff2565b604082019050919050565b6000602082019050818103600083015261207d81612041565b9050919050565b600081519050612093816112db565b92915050565b6000815190506120a881611bac565b92915050565b6000606082840312156120c4576120c361185e565b5b6120ce60606118d4565b905060006120de8482850161190b565b60008301525060206120f28482850161190b565b60208301525060406121068482850161190b565b60408301525092915050565b600067ffffffffffffffff82111561212d5761212c611874565b5b602082029050602081019050919050565b600061215161214c84612112565b6118d4565b9050808382526020820190506020840283018581111561217457612173611374565b5b835b8181101561219d5780612189888261190b565b845260208401935050602081019050612176565b5050509392505050565b600082601f8301126121bc576121bb61136a565b5b81516121cc84826020860161213e565b91505092915050565b600061016082840312156121ec576121eb61185e565b5b6121f76101206118d4565b9050600082015167ffffffffffffffff811115612217576122166118ef565b5b612223848285016119c2565b600083015250602082015167ffffffffffffffff811115612247576122466118ef565b5b612253848285016119c2565b602083015250604061226784828501612099565b604083015250606061227b848285016120ae565b60608301525060c082015167ffffffffffffffff81111561229f5761229e6118ef565b5b6122ab848285016119c2565b60808301525060e082015167ffffffffffffffff8111156122cf576122ce6118ef565b5b6122db848285016119c2565b60a08301525061010082015167ffffffffffffffff811115612300576122ff6118ef565b5b61230c848285016119c2565b60c083015250610120612321848285016116b2565b60e08301525061014082015167ffffffffffffffff811115612346576123456118ef565b5b612352848285016121a7565b6101008301525092915050565b6000606082840312156123755761237461185e565b5b61237f60606118d4565b9050600061238f84828501612084565b60008301525060206123a384828501611fb0565b602083015250604082015167ffffffffffffffff8111156123c7576123c66118ef565b5b6123d3848285016121d5565b60408301525092915050565b6000602082840312156123f5576123f461129f565b5b600082015167ffffffffffffffff811115612413576124126112a4565b5b61241f8482850161235f565b91505092915050565b612431816112c9565b82525050565b61244081611acc565b82525050565b600081519050919050565b600061245c82612446565b6124668185611b5f565b9350612476818560208601611956565b61247f81611863565b840191505092915050565b6060820160008201516124a06000850182611c67565b5060208201516124b36020850182611c67565b5060408201516124c66040850182611c67565b50505050565b600081519050919050565b6000819050602082019050919050565b60006124f38383611c67565b60208301905092915050565b6000602082019050919050565b6000612517826124cc565b6125218185611da7565b935061252c836124d7565b8060005b8381101561255d57815161254488826124e7565b975061254f836124ff565b925050600181019050612530565b5085935050505092915050565b60006101608301600083015184820360008601526125888282612451565b915050602083015184820360208601526125a28282612451565b91505060408301516125b76040860182611c21565b5060608301516125ca606086018261248a565b50608083015184820360c08601526125e28282612451565b91505060a083015184820360e08601526125fc8282612451565b91505060c08301518482036101008601526126178282612451565b91505060e083015161262d610120860182611d35565b50610100830151848203610140860152612647828261250c565b9150508091505092915050565b600060608301600083015161266c6000860182612428565b50602083015161267f6020860182612437565b5060408301518482036040860152612697828261256a565b9150508091505092915050565b600060208201905081810360008301526126be8184612654565b905092915050565b6000815190506126d58161141c565b92915050565b6000602082840312156126f1576126f061129f565b5b60006126ff848285016126c6565b91505092915050565b7f53656e646572206d757374206265206120726567697374657265642075736572600082015250565b600061273e6020836114f6565b915061274982612708565b602082019050919050565b6000602082019050818103600083015261276d81612731565b9050919050565b60006040820190506127896000830185611678565b6127966020830184611ade565b9392505050565b7f416464726573732068617320616c7265616479206265656e207265676973746560008201527f7265640000000000000000000000000000000000000000000000000000000000602082015250565b60006127f96023836114f6565b91506128048261279d565b604082019050919050565b60006020820190508181036000830152612828816127ec565b905091905056fea26469706673582212205c24790fbfefba4859e0765aaec5b92f4f558a9aad2b1e5b3bc5cec8352ad37964736f6c63430008110033",
  "linkReferences": {},
  "deployedLinkReferences": {}
}