{
  "_format": "hh-sol-artifact-1",
  "contractName": "UserController",
  "sourceName": "contracts/logic/UserController.sol",
  "abi": [
    {
      "inputs": [
        {
          "internalType": "address",
          "name": "addressBookAddress",
          "type": "address"
        },
        {
          "internalType": "address payable",
          "name": "faucetAddress",
          "type": "address"
        }
      ],
      "stateMutability": "nonpayable",
      "type": "constructor"
    },
    {
      "inputs": [
        {
          "internalType": "address",
          "name": "userAddress",
          "type": "address"
        }
      ],
      "name": "acceptRegistration",
      "outputs": [],
      "stateMutability": "nonpayable",
      "type": "function"
    },
    {
      "inputs": [],
      "name": "acknowledgeRegistrationResult",
      "outputs": [],
      "stateMutability": "nonpayable",
      "type": "function"
    },
    {
      "inputs": [
        {
          "internalType": "address",
          "name": "_address",
          "type": "address"
        }
      ],
      "name": "addAdmin",
      "outputs": [],
      "stateMutability": "nonpayable",
      "type": "function"
    },
    {
      "inputs": [
        {
          "internalType": "address",
          "name": "userAddress",
          "type": "address"
        }
      ],
      "name": "adminAcceptRegistration",
      "outputs": [],
      "stateMutability": "nonpayable",
      "type": "function"
    },
    {
      "inputs": [
        {
          "internalType": "address",
          "name": "userAddress",
          "type": "address"
        }
      ],
      "name": "adminRejectRegistration",
      "outputs": [],
      "stateMutability": "nonpayable",
      "type": "function"
    },
    {
      "inputs": [
        {
          "internalType": "address[]",
          "name": "addresses",
          "type": "address[]"
        }
      ],
      "name": "batchAddAdmin",
      "outputs": [],
      "stateMutability": "nonpayable",
      "type": "function"
    },
    {
      "inputs": [
        {
          "internalType": "address",
          "name": "_address",
          "type": "address"
        }
      ],
      "name": "isAdmin",
      "outputs": [
        {
          "internalType": "bool",
          "name": "",
          "type": "bool"
        }
      ],
      "stateMutability": "view",
      "type": "function"
    },
    {
      "inputs": [],
      "name": "isAutomaticAcceptanceOn",
      "outputs": [
        {
          "internalType": "bool",
          "name": "",
          "type": "bool"
        }
      ],
      "stateMutability": "view",
      "type": "function"
    },
    {
      "inputs": [
        {
          "internalType": "address",
          "name": "userAddress",
          "type": "address"
        }
      ],
      "name": "rejectRegistration",
      "outputs": [],
      "stateMutability": "nonpayable",
      "type": "function"
    },
    {
      "inputs": [
        {
          "internalType": "address",
          "name": "_address",
          "type": "address"
        }
      ],
      "name": "removeAdmin",
      "outputs": [],
      "stateMutability": "nonpayable",
      "type": "function"
    },
    {
      "inputs": [],
      "name": "requestExtraTokens",
      "outputs": [],
      "stateMutability": "nonpayable",
      "type": "function"
    },
    {
      "inputs": [
        {
          "internalType": "address",
          "name": "userAddress",
          "type": "address"
        },
        {
          "components": [
            {
              "internalType": "string",
              "name": "firstName",
              "type": "string"
            },
            {
              "internalType": "string",
              "name": "lastName",
              "type": "string"
            },
            {
              "internalType": "enum UserDataTypes.Gender",
              "name": "gender",
              "type": "uint8"
            },
            {
              "components": [
                {
                  "internalType": "uint256",
                  "name": "year",
                  "type": "uint256"
                },
                {
                  "internalType": "uint256",
                  "name": "month",
                  "type": "uint256"
                },
                {
                  "internalType": "uint256",
                  "name": "day",
                  "type": "uint256"
                }
              ],
              "internalType": "struct UserDataTypes.Date",
              "name": "dateOfBirth",
              "type": "tuple"
            },
            {
              "internalType": "string",
              "name": "nationality",
              "type": "string"
            },
            {
              "internalType": "string",
              "name": "phoneNumber",
              "type": "string"
            },
            {
              "internalType": "string",
              "name": "emailAddress",
              "type": "string"
            },
            {
              "internalType": "enum UserDataTypes.UserRole",
              "name": "role",
              "type": "uint8"
            },
            {
              "internalType": "uint256[]",
              "name": "studyProgramIds",
              "type": "uint256[]"
            }
          ],
          "internalType": "struct UserDataTypes.UserProfile",
          "name": "profile",
          "type": "tuple"
        }
      ],
      "name": "requestRegistration",
      "outputs": [],
      "stateMutability": "nonpayable",
      "type": "function"
    },
    {
      "inputs": [
        {
          "internalType": "bool",
          "name": "newValue",
          "type": "bool"
        }
      ],
      "name": "setAutomaticAcceptance",
      "outputs": [],
      "stateMutability": "nonpayable",
      "type": "function"
    }
  ],
  "bytecode": "0x60806040526000600260146101000a81548160ff0219169083151502179055503480156200002c57600080fd5b5060405162002bf638038062002bf68339818101604052810190620000529190620001e5565b8180806000806101000a81548173ffffffffffffffffffffffffffffffffffffffff021916908373ffffffffffffffffffffffffffffffffffffffff160217905550505060018060003373ffffffffffffffffffffffffffffffffffffffff1673ffffffffffffffffffffffffffffffffffffffff16815260200190815260200160002060006101000a81548160ff02191690831515021790555080600260006101000a81548173ffffffffffffffffffffffffffffffffffffffff021916908373ffffffffffffffffffffffffffffffffffffffff16021790555050506200022c565b600080fd5b600073ffffffffffffffffffffffffffffffffffffffff82169050919050565b600062000168826200013b565b9050919050565b6200017a816200015b565b81146200018657600080fd5b50565b6000815190506200019a816200016f565b92915050565b6000620001ad826200013b565b9050919050565b620001bf81620001a0565b8114620001cb57600080fd5b50565b600081519050620001df81620001b4565b92915050565b60008060408385031215620001ff57620001fe62000136565b5b60006200020f8582860162000189565b92505060206200022285828601620001ce565b9150509250929050565b6129ba806200023c6000396000f3fe608060405234801561001057600080fd5b50600436106100cf5760003560e01c806398f6ba431161008c578063ccc2260e11610066578063ccc2260e146101e6578063e5ba3c00146101f0578063f0b414381461020c578063f29105b114610228576100cf565b806398f6ba4314610192578063a6e70126146101ae578063b204e9f3146101ca576100cf565b80631785f53c146100d457806324d7806c146100f05780632c9ab42b14610120578063382654241461013c5780636c3585dd146101585780637048027514610176575b600080fd5b6100ee60048036038101906100e991906113cc565b610232565b005b61010a600480360381019061010591906113cc565b610319565b6040516101179190611414565b60405180910390f35b61013a60048036038101906101359190611494565b61036f565b005b610156600480360381019061015191906113cc565b61044f565b005b61016061054b565b60405161016d9190611414565b60405180910390f35b610190600480360381019061018b91906113cc565b61055e565b005b6101ac60048036038101906101a791906113cc565b610644565b005b6101c860048036038101906101c391906113cc565b6106de565b005b6101e460048036038101906101df91906113cc565b610778565b005b6101ee610874565b005b61020a6004803603810190610205919061150d565b61090b565b005b6102266004803603810190610221919061155f565b6109b4565b005b610230610bc3565b005b600160003373ffffffffffffffffffffffffffffffffffffffff1673ffffffffffffffffffffffffffffffffffffffff16815260200190815260200160002060009054906101000a900460ff166102be576040517f08c379a00000000000000000000000000000000000000000000000000000000081526004016102b59061163e565b60405180910390fd5b6000600160008373ffffffffffffffffffffffffffffffffffffffff1673ffffffffffffffffffffffffffffffffffffffff16815260200190815260200160002060006101000a81548160ff02191690831515021790555050565b6000600160008373ffffffffffffffffffffffffffffffffffffffff1673ffffffffffffffffffffffffffffffffffffffff16815260200190815260200160002060009054906101000a900460ff169050919050565b600160003373ffffffffffffffffffffffffffffffffffffffff1673ffffffffffffffffffffffffffffffffffffffff16815260200190815260200160002060009054906101000a900460ff166103fb576040517f08c379a00000000000000000000000000000000000000000000000000000000081526004016103f29061163e565b60405180910390fd5b60005b8282905081101561044a5761043983838381811061041f5761041e61165e565b5b905060200201602081019061043491906113cc565b61055e565b80610443906116c6565b90506103fe565b505050565b610457610edd565b60028081111561046a5761046961170e565b5b610472610f9f565b73ffffffffffffffffffffffffffffffffffffffff1663dd8b2914336040518263ffffffff1660e01b81526004016104aa919061174c565b602060405180830381865afa1580156104c7573d6000803e3d6000fd5b505050506040513d601f19601f820116820180604052508101906104eb919061178c565b60028111156104fd576104fc61170e565b5b1461053d576040517f08c379a00000000000000000000000000000000000000000000000000000000081526004016105349061182b565b60405180910390fd5b610548816001611042565b50565b600260149054906101000a900460ff1681565b600160003373ffffffffffffffffffffffffffffffffffffffff1673ffffffffffffffffffffffffffffffffffffffff16815260200190815260200160002060009054906101000a900460ff166105ea576040517f08c379a00000000000000000000000000000000000000000000000000000000081526004016105e19061163e565b60405180910390fd5b60018060008373ffffffffffffffffffffffffffffffffffffffff1673ffffffffffffffffffffffffffffffffffffffff16815260200190815260200160002060006101000a81548160ff02191690831515021790555050565b600160003373ffffffffffffffffffffffffffffffffffffffff1673ffffffffffffffffffffffffffffffffffffffff16815260200190815260200160002060009054906101000a900460ff166106d0576040517f08c379a00000000000000000000000000000000000000000000000000000000081526004016106c79061163e565b60405180910390fd5b6106db816002611042565b50565b600160003373ffffffffffffffffffffffffffffffffffffffff1673ffffffffffffffffffffffffffffffffffffffff16815260200190815260200160002060009054906101000a900460ff1661076a576040517f08c379a00000000000000000000000000000000000000000000000000000000081526004016107619061163e565b60405180910390fd5b610775816001611042565b50565b610780610edd565b6002808111156107935761079261170e565b5b61079b610f9f565b73ffffffffffffffffffffffffffffffffffffffff1663dd8b2914336040518263ffffffff1660e01b81526004016107d3919061174c565b602060405180830381865afa1580156107f0573d6000803e3d6000fd5b505050506040513d601f19601f82011682018060405250810190610814919061178c565b60028111156108265761082561170e565b5b14610866576040517f08c379a000000000000000000000000000000000000000000000000000000000815260040161085d9061182b565b60405180910390fd5b610871816002611042565b50565b61087c610edd565b600260009054906101000a900473ffffffffffffffffffffffffffffffffffffffff1673ffffffffffffffffffffffffffffffffffffffff1663fbb013f1336040518263ffffffff1660e01b81526004016108d7919061186c565b600060405180830381600087803b1580156108f157600080fd5b505af1158015610905573d6000803e3d6000fd5b50505050565b600160003373ffffffffffffffffffffffffffffffffffffffff1673ffffffffffffffffffffffffffffffffffffffff16815260200190815260200160002060009054906101000a900460ff16610997576040517f08c379a000000000000000000000000000000000000000000000000000000000815260040161098e9061163e565b60405180910390fd5b80600260146101000a81548160ff02191690831515021790555050565b600160003373ffffffffffffffffffffffffffffffffffffffff1673ffffffffffffffffffffffffffffffffffffffff16815260200190815260200160002060009054906101000a900460ff16610a40576040517f08c379a0000000000000000000000000000000000000000000000000000000008152600401610a379061163e565b60405180910390fd5b610a4982611150565b60005b81806101400190610a5d9190611896565b9050811015610b2657610a6e611214565b73ffffffffffffffffffffffffffffffffffffffff16634e634eb583806101400190610a9a9190611896565b84818110610aab57610aaa61165e565b5b905060200201356040518263ffffffff1660e01b8152600401610ace9190611908565b600060405180830381865afa158015610aeb573d6000803e3d6000fd5b505050506040513d6000823e3d601f19601f82011682018060405250810190610b149190611b21565b5080610b1f906116c6565b9050610a4c565b50610b2f6112b7565b73ffffffffffffffffffffffffffffffffffffffff166358cbfccd836000846040518463ffffffff1660e01b8152600401610b6c93929190612027565b600060405180830381600087803b158015610b8657600080fd5b505af1158015610b9a573d6000803e3d6000fd5b50505050600260149054906101000a900460ff1615610bbf57610bbe826002611042565b5b5050565b610bcc33611150565b6000610bd66112b7565b73ffffffffffffffffffffffffffffffffffffffff166365b7109a336040518263ffffffff1660e01b8152600401610c0e919061174c565b602060405180830381865afa158015610c2b573d6000803e3d6000fd5b505050506040513d601f19601f82011682018060405250810190610c4f919061208a565b905060006002811115610c6557610c6461170e565b5b816002811115610c7857610c7761170e565b5b03610cb8576040517f08c379a0000000000000000000000000000000000000000000000000000000008152600401610caf90612129565b60405180910390fd5b600280811115610ccb57610cca61170e565b5b816002811115610cde57610cdd61170e565b5b03610e6857610ceb610f9f565b73ffffffffffffffffffffffffffffffffffffffff16636d9521d8610d0e6112b7565b73ffffffffffffffffffffffffffffffffffffffff1663f5bf01fb336040518263ffffffff1660e01b8152600401610d46919061174c565b600060405180830381865afa158015610d63573d6000803e3d6000fd5b505050506040513d6000823e3d601f19601f82011682018060405250810190610d8c91906124a4565b6040518263ffffffff1660e01b8152600401610da89190612769565b600060405180830381600087803b158015610dc257600080fd5b505af1158015610dd6573d6000803e3d6000fd5b50505050600260009054906101000a900473ffffffffffffffffffffffffffffffffffffffff1673ffffffffffffffffffffffffffffffffffffffff1663fbb013f1336040518263ffffffff1660e01b8152600401610e35919061186c565b600060405180830381600087803b158015610e4f57600080fd5b505af1158015610e63573d6000803e3d6000fd5b505050505b610e706112b7565b73ffffffffffffffffffffffffffffffffffffffff1663442fb8ab336040518263ffffffff1660e01b8152600401610ea8919061174c565b600060405180830381600087803b158015610ec257600080fd5b505af1158015610ed6573d6000803e3d6000fd5b5050505050565b610ee5610f9f565b73ffffffffffffffffffffffffffffffffffffffff166338b6a3a1336040518263ffffffff1660e01b8152600401610f1d919061174c565b602060405180830381865afa158015610f3a573d6000803e3d6000fd5b505050506040513d601f19601f82011682018060405250810190610f5e91906127a0565b610f9d576040517f08c379a0000000000000000000000000000000000000000000000000000000008152600401610f9490612819565b60405180910390fd5b565b60008060009054906101000a900473ffffffffffffffffffffffffffffffffffffffff1673ffffffffffffffffffffffffffffffffffffffff1663bcaa0c5560026040518263ffffffff1660e01b8152600401610ffc9190612881565b602060405180830381865afa158015611019573d6000803e3d6000fd5b505050506040513d601f19601f8201168201806040525081019061103d919061289c565b905090565b61104b82611150565b6110536112b7565b73ffffffffffffffffffffffffffffffffffffffff166351cafe0483836040518363ffffffff1660e01b815260040161108d9291906128c9565b600060405180830381600087803b1580156110a757600080fd5b505af11580156110bb573d6000803e3d6000fd5b50505050600260009054906101000a900473ffffffffffffffffffffffffffffffffffffffff1673ffffffffffffffffffffffffffffffffffffffff1663b21224a9836040518263ffffffff1660e01b815260040161111a919061186c565b600060405180830381600087803b15801561113457600080fd5b505af1158015611148573d6000803e3d6000fd5b505050505050565b611158610f9f565b73ffffffffffffffffffffffffffffffffffffffff166338b6a3a1826040518263ffffffff1660e01b8152600401611190919061174c565b602060405180830381865afa1580156111ad573d6000803e3d6000fd5b505050506040513d601f19601f820116820180604052508101906111d191906127a0565b15611211576040517f08c379a000000000000000000000000000000000000000000000000000000000815260040161120890612964565b60405180910390fd5b50565b60008060009054906101000a900473ffffffffffffffffffffffffffffffffffffffff1673ffffffffffffffffffffffffffffffffffffffff1663bcaa0c5560046040518263ffffffff1660e01b81526004016112719190612881565b602060405180830381865afa15801561128e573d6000803e3d6000fd5b505050506040513d601f19601f820116820180604052508101906112b2919061289c565b905090565b60008060009054906101000a900473ffffffffffffffffffffffffffffffffffffffff1673ffffffffffffffffffffffffffffffffffffffff1663bcaa0c5560056040518263ffffffff1660e01b81526004016113149190612881565b602060405180830381865afa158015611331573d6000803e3d6000fd5b505050506040513d601f19601f82011682018060405250810190611355919061289c565b905090565b6000604051905090565b600080fd5b600080fd5b600073ffffffffffffffffffffffffffffffffffffffff82169050919050565b60006113998261136e565b9050919050565b6113a98161138e565b81146113b457600080fd5b50565b6000813590506113c6816113a0565b92915050565b6000602082840312156113e2576113e1611364565b5b60006113f0848285016113b7565b91505092915050565b60008115159050919050565b61140e816113f9565b82525050565b60006020820190506114296000830184611405565b92915050565b600080fd5b600080fd5b600080fd5b60008083601f8401126114545761145361142f565b5b8235905067ffffffffffffffff81111561147157611470611434565b5b60208301915083602082028301111561148d5761148c611439565b5b9250929050565b600080602083850312156114ab576114aa611364565b5b600083013567ffffffffffffffff8111156114c9576114c8611369565b5b6114d58582860161143e565b92509250509250929050565b6114ea816113f9565b81146114f557600080fd5b50565b600081359050611507816114e1565b92915050565b60006020828403121561152357611522611364565b5b6000611531848285016114f8565b91505092915050565b600080fd5b600061016082840312156115565761155561153a565b5b81905092915050565b6000806040838503121561157657611575611364565b5b6000611584858286016113b7565b925050602083013567ffffffffffffffff8111156115a5576115a4611369565b5b6115b18582860161153f565b9150509250929050565b600082825260208201905092915050565b7f4f6e6c792061646d696e206164647265737365732063616e2063616c6c20746860008201527f69732066756e6374696f6e000000000000000000000000000000000000000000602082015250565b6000611628602b836115bb565b9150611633826115cc565b604082019050919050565b600060208201905081810360008301526116578161161b565b9050919050565b7f4e487b7100000000000000000000000000000000000000000000000000000000600052603260045260246000fd5b7f4e487b7100000000000000000000000000000000000000000000000000000000600052601160045260246000fd5b6000819050919050565b60006116d1826116bc565b91507fffffffffffffffffffffffffffffffffffffffffffffffffffffffffffffffff82036117035761170261168d565b5b600182019050919050565b7f4e487b7100000000000000000000000000000000000000000000000000000000600052602160045260246000fd5b6117468161138e565b82525050565b6000602082019050611761600083018461173d565b92915050565b6003811061177457600080fd5b50565b60008151905061178681611767565b92915050565b6000602082840312156117a2576117a1611364565b5b60006117b084828501611777565b91505092915050565b7f53656e646572206d75737420626520612073747564792070726f6772616d206d60008201527f616e616765720000000000000000000000000000000000000000000000000000602082015250565b60006118156026836115bb565b9150611820826117b9565b604082019050919050565b6000602082019050818103600083015261184481611808565b9050919050565b60006118568261136e565b9050919050565b6118668161184b565b82525050565b6000602082019050611881600083018461185d565b92915050565b600080fd5b600080fd5b600080fd5b600080833560016020038436030381126118b3576118b2611887565b5b80840192508235915067ffffffffffffffff8211156118d5576118d461188c565b5b6020830192506020820236038313156118f1576118f0611891565b5b509250929050565b611902816116bc565b82525050565b600060208201905061191d60008301846118f9565b92915050565b600080fd5b6000601f19601f8301169050919050565b7f4e487b7100000000000000000000000000000000000000000000000000000000600052604160045260246000fd5b61197182611928565b810181811067ffffffffffffffff821117156119905761198f611939565b5b80604052505050565b60006119a361135a565b90506119af8282611968565b919050565b600080fd5b6119c2816116bc565b81146119cd57600080fd5b50565b6000815190506119df816119b9565b92915050565b600080fd5b600067ffffffffffffffff821115611a0557611a04611939565b5b611a0e82611928565b9050602081019050919050565b60005b83811015611a39578082015181840152602081019050611a1e565b60008484015250505050565b6000611a58611a53846119ea565b611999565b905082815260208101848484011115611a7457611a736119e5565b5b611a7f848285611a1b565b509392505050565b600082601f830112611a9c57611a9b61142f565b5b8151611aac848260208601611a45565b91505092915050565b600060408284031215611acb57611aca611923565b5b611ad56040611999565b90506000611ae5848285016119d0565b600083015250602082015167ffffffffffffffff811115611b0957611b086119b4565b5b611b1584828501611a87565b60208301525092915050565b600060208284031215611b3757611b36611364565b5b600082015167ffffffffffffffff811115611b5557611b54611369565b5b611b6184828501611ab5565b91505092915050565b60038110611b7b57611b7a61170e565b5b50565b6000819050611b8c82611b6a565b919050565b6000611b9c82611b7e565b9050919050565b611bac81611b91565b82525050565b600080fd5b600080fd5b600080fd5b60008083356001602003843603038112611bde57611bdd611bbc565b5b83810192508235915060208301925067ffffffffffffffff821115611c0657611c05611bb2565b5b600182023603831315611c1c57611c1b611bb7565b5b509250929050565b600082825260208201905092915050565b82818337600083830152505050565b6000611c508385611c24565b9350611c5d838584611c35565b611c6683611928565b840190509392505050565b60038110611c7e57600080fd5b50565b600081359050611c9081611c71565b92915050565b6000611ca56020840184611c81565b905092915050565b60038110611cbe57611cbd61170e565b5b50565b6000819050611ccf82611cad565b919050565b6000611cdf82611cc1565b9050919050565b611cef81611cd4565b82525050565b600082905092915050565b600081359050611d0f816119b9565b92915050565b6000611d246020840184611d00565b905092915050565b611d35816116bc565b82525050565b60608201611d4c6000830183611d15565b611d596000850182611d2c565b50611d676020830183611d15565b611d746020850182611d2c565b50611d826040830183611d15565b611d8f6040850182611d2c565b50505050565b600081359050611da481611767565b92915050565b6000611db96020840184611d95565b905092915050565b60038110611dd257611dd161170e565b5b50565b6000819050611de382611dc1565b919050565b6000611df382611dd5565b9050919050565b611e0381611de8565b82525050565b60008083356001602003843603038112611e2657611e25611bbc565b5b83810192508235915060208301925067ffffffffffffffff821115611e4e57611e4d611bb2565b5b602082023603831315611e6457611e63611bb7565b5b509250929050565b600082825260208201905092915050565b600080fd5b82818337505050565b6000611e978385611e6c565b93507f07ffffffffffffffffffffffffffffffffffffffffffffffffffffffffffffff831115611eca57611ec9611e7d565b5b602083029250611edb838584611e82565b82840190509392505050565b60006101608301611efb6000840184611bc1565b8583036000870152611f0e838284611c44565b92505050611f1f6020840184611bc1565b8583036020870152611f32838284611c44565b92505050611f436040840184611c96565b611f506040860182611ce6565b50611f5e6060840184611cf5565b611f6b6060860182611d3b565b50611f7960c0840184611bc1565b85830360c0870152611f8c838284611c44565b92505050611f9d60e0840184611bc1565b85830360e0870152611fb0838284611c44565b92505050611fc2610100840184611bc1565b858303610100870152611fd6838284611c44565b92505050611fe8610120840184611daa565b611ff6610120860182611dfa565b50612005610140840184611e09565b858303610140870152612019838284611e8b565b925050508091505092915050565b600060608201905061203c600083018661173d565b6120496020830185611ba3565b818103604083015261205b8184611ee7565b9050949350505050565b6003811061207257600080fd5b50565b60008151905061208481612065565b92915050565b6000602082840312156120a05761209f611364565b5b60006120ae84828501612075565b91505092915050565b7f526567697374726174696f6e206973207374696c6c20756e646572207265766960008201527f6577000000000000000000000000000000000000000000000000000000000000602082015250565b60006121136022836115bb565b915061211e826120b7565b604082019050919050565b6000602082019050818103600083015261214281612106565b9050919050565b600081519050612158816113a0565b92915050565b60008151905061216d81611c71565b92915050565b60006060828403121561218957612188611923565b5b6121936060611999565b905060006121a3848285016119d0565b60008301525060206121b7848285016119d0565b60208301525060406121cb848285016119d0565b60408301525092915050565b600067ffffffffffffffff8211156121f2576121f1611939565b5b602082029050602081019050919050565b6000612216612211846121d7565b611999565b9050808382526020820190506020840283018581111561223957612238611439565b5b835b81811015612262578061224e88826119d0565b84526020840193505060208101905061223b565b5050509392505050565b600082601f8301126122815761228061142f565b5b8151612291848260208601612203565b91505092915050565b600061016082840312156122b1576122b0611923565b5b6122bc610120611999565b9050600082015167ffffffffffffffff8111156122dc576122db6119b4565b5b6122e884828501611a87565b600083015250602082015167ffffffffffffffff81111561230c5761230b6119b4565b5b61231884828501611a87565b602083015250604061232c8482850161215e565b604083015250606061234084828501612173565b60608301525060c082015167ffffffffffffffff811115612364576123636119b4565b5b61237084828501611a87565b60808301525060e082015167ffffffffffffffff811115612394576123936119b4565b5b6123a084828501611a87565b60a08301525061010082015167ffffffffffffffff8111156123c5576123c46119b4565b5b6123d184828501611a87565b60c0830152506101206123e684828501611777565b60e08301525061014082015167ffffffffffffffff81111561240b5761240a6119b4565b5b6124178482850161226c565b6101008301525092915050565b60006060828403121561243a57612439611923565b5b6124446060611999565b9050600061245484828501612149565b600083015250602061246884828501612075565b602083015250604082015167ffffffffffffffff81111561248c5761248b6119b4565b5b6124988482850161229a565b60408301525092915050565b6000602082840312156124ba576124b9611364565b5b600082015167ffffffffffffffff8111156124d8576124d7611369565b5b6124e484828501612424565b91505092915050565b6124f68161138e565b82525050565b61250581611b91565b82525050565b600081519050919050565b60006125218261250b565b61252b8185611c24565b935061253b818560208601611a1b565b61254481611928565b840191505092915050565b6060820160008201516125656000850182611d2c565b5060208201516125786020850182611d2c565b50604082015161258b6040850182611d2c565b50505050565b600081519050919050565b6000819050602082019050919050565b60006125b88383611d2c565b60208301905092915050565b6000602082019050919050565b60006125dc82612591565b6125e68185611e6c565b93506125f18361259c565b8060005b8381101561262257815161260988826125ac565b9750612614836125c4565b9250506001810190506125f5565b5085935050505092915050565b600061016083016000830151848203600086015261264d8282612516565b915050602083015184820360208601526126678282612516565b915050604083015161267c6040860182611ce6565b50606083015161268f606086018261254f565b50608083015184820360c08601526126a78282612516565b91505060a083015184820360e08601526126c18282612516565b91505060c08301518482036101008601526126dc8282612516565b91505060e08301516126f2610120860182611dfa565b5061010083015184820361014086015261270c82826125d1565b9150508091505092915050565b600060608301600083015161273160008601826124ed565b50602083015161274460208601826124fc565b506040830151848203604086015261275c828261262f565b9150508091505092915050565b600060208201905081810360008301526127838184612719565b905092915050565b60008151905061279a816114e1565b92915050565b6000602082840312156127b6576127b5611364565b5b60006127c48482850161278b565b91505092915050565b7f53656e646572206d757374206265206120726567697374657265642075736572600082015250565b60006128036020836115bb565b915061280e826127cd565b602082019050919050565b60006020820190508181036000830152612832816127f6565b9050919050565b6006811061284a5761284961170e565b5b50565b600081905061285b82612839565b919050565b600061286b8261284d565b9050919050565b61287b81612860565b82525050565b60006020820190506128966000830184612872565b92915050565b6000602082840312156128b2576128b1611364565b5b60006128c084828501612149565b91505092915050565b60006040820190506128de600083018561173d565b6128eb6020830184611ba3565b9392505050565b7f416464726573732068617320616c7265616479206265656e207265676973746560008201527f7265640000000000000000000000000000000000000000000000000000000000602082015250565b600061294e6023836115bb565b9150612959826128f2565b604082019050919050565b6000602082019050818103600083015261297d81612941565b905091905056fea26469706673582212205650ca5cf855de321eb37ed663976d65105207609cadc7092e7ffb9c9bcfa66b64736f6c63430008110033",
  "linkReferences": {},
  "deployedLinkReferences": {}
}