{
  "_format": "hh-sol-artifact-1",
  "contractName": "UserController",
  "sourceName": "contracts/logic/UserController.sol",
  "abi": [
    {
      "inputs": [
        {
          "internalType": "address",
          "name": "addressBookAddress",
          "type": "address"
        },
        {
          "internalType": "address payable",
          "name": "faucetAddress",
          "type": "address"
        }
      ],
      "stateMutability": "nonpayable",
      "type": "constructor"
    },
    {
      "inputs": [
        {
          "internalType": "address",
          "name": "userAddress",
          "type": "address"
        }
      ],
      "name": "acceptRegistration",
      "outputs": [],
      "stateMutability": "nonpayable",
      "type": "function"
    },
    {
      "inputs": [],
      "name": "acknowledgeRegistrationResult",
      "outputs": [],
      "stateMutability": "nonpayable",
      "type": "function"
    },
    {
      "inputs": [
        {
          "internalType": "address",
          "name": "_address",
          "type": "address"
        }
      ],
      "name": "addAdmin",
      "outputs": [],
      "stateMutability": "nonpayable",
      "type": "function"
    },
    {
      "inputs": [
        {
          "internalType": "address",
          "name": "userAddress",
          "type": "address"
        }
      ],
      "name": "adminAcceptRegistration",
      "outputs": [],
      "stateMutability": "nonpayable",
      "type": "function"
    },
    {
      "inputs": [
        {
          "internalType": "address",
          "name": "userAddress",
          "type": "address"
        }
      ],
      "name": "adminRejectRegistration",
      "outputs": [],
      "stateMutability": "nonpayable",
      "type": "function"
    },
    {
      "inputs": [
        {
          "internalType": "address[]",
          "name": "addresses",
          "type": "address[]"
        }
      ],
      "name": "batchAddAdmin",
      "outputs": [],
      "stateMutability": "nonpayable",
      "type": "function"
    },
    {
      "inputs": [],
      "name": "isAutomaticAcceptanceOn",
      "outputs": [
        {
          "internalType": "bool",
          "name": "",
          "type": "bool"
        }
      ],
      "stateMutability": "view",
      "type": "function"
    },
    {
      "inputs": [],
      "name": "isSenderAdmin",
      "outputs": [
        {
          "internalType": "bool",
          "name": "",
          "type": "bool"
        }
      ],
      "stateMutability": "view",
      "type": "function"
    },
    {
      "inputs": [
        {
          "internalType": "address",
          "name": "userAddress",
          "type": "address"
        }
      ],
      "name": "rejectRegistration",
      "outputs": [],
      "stateMutability": "nonpayable",
      "type": "function"
    },
    {
      "inputs": [
        {
          "internalType": "address",
          "name": "_address",
          "type": "address"
        }
      ],
      "name": "removeAdmin",
      "outputs": [],
      "stateMutability": "nonpayable",
      "type": "function"
    },
    {
      "inputs": [],
      "name": "requestExtraTokens",
      "outputs": [],
      "stateMutability": "nonpayable",
      "type": "function"
    },
    {
      "inputs": [
        {
          "internalType": "address",
          "name": "userAddress",
          "type": "address"
        },
        {
          "components": [
            {
              "internalType": "string",
              "name": "firstName",
              "type": "string"
            },
            {
              "internalType": "string",
              "name": "lastName",
              "type": "string"
            },
            {
              "internalType": "enum UserDataTypes.Gender",
              "name": "gender",
              "type": "uint8"
            },
            {
              "components": [
                {
                  "internalType": "uint256",
                  "name": "year",
                  "type": "uint256"
                },
                {
                  "internalType": "uint256",
                  "name": "month",
                  "type": "uint256"
                },
                {
                  "internalType": "uint256",
                  "name": "day",
                  "type": "uint256"
                }
              ],
              "internalType": "struct UserDataTypes.Date",
              "name": "dateOfBirth",
              "type": "tuple"
            },
            {
              "internalType": "string",
              "name": "nationality",
              "type": "string"
            },
            {
              "internalType": "string",
              "name": "phoneNumber",
              "type": "string"
            },
            {
              "internalType": "string",
              "name": "emailAddress",
              "type": "string"
            },
            {
              "internalType": "enum UserDataTypes.UserRole",
              "name": "role",
              "type": "uint8"
            },
            {
              "internalType": "uint256[]",
              "name": "studyProgramIds",
              "type": "uint256[]"
            }
          ],
          "internalType": "struct UserDataTypes.UserProfile",
          "name": "profile",
          "type": "tuple"
        }
      ],
      "name": "requestRegistration",
      "outputs": [],
      "stateMutability": "nonpayable",
      "type": "function"
    },
    {
      "inputs": [
        {
          "internalType": "bool",
          "name": "newValue",
          "type": "bool"
        }
      ],
      "name": "setAutomaticAcceptance",
      "outputs": [],
      "stateMutability": "nonpayable",
      "type": "function"
    }
  ],
  "bytecode": "0x60806040526000600260146101000a81548160ff0219169083151502179055503480156200002c57600080fd5b5060405162002be238038062002be28339818101604052810190620000529190620001e5565b8180806000806101000a81548173ffffffffffffffffffffffffffffffffffffffff021916908373ffffffffffffffffffffffffffffffffffffffff160217905550505060018060003373ffffffffffffffffffffffffffffffffffffffff1673ffffffffffffffffffffffffffffffffffffffff16815260200190815260200160002060006101000a81548160ff02191690831515021790555080600260006101000a81548173ffffffffffffffffffffffffffffffffffffffff021916908373ffffffffffffffffffffffffffffffffffffffff16021790555050506200022c565b600080fd5b600073ffffffffffffffffffffffffffffffffffffffff82169050919050565b600062000168826200013b565b9050919050565b6200017a816200015b565b81146200018657600080fd5b50565b6000815190506200019a816200016f565b92915050565b6000620001ad826200013b565b9050919050565b620001bf81620001a0565b8114620001cb57600080fd5b50565b600081519050620001df81620001b4565b92915050565b60008060408385031215620001ff57620001fe62000136565b5b60006200020f8582860162000189565b92505060206200022285828601620001ce565b9150509250929050565b6129a6806200023c6000396000f3fe608060405234801561001057600080fd5b50600436106100cf5760003560e01c806398f6ba431161008c578063ccc2260e11610066578063ccc2260e146101d4578063e5ba3c00146101de578063f0b41438146101fa578063f29105b114610216576100cf565b806398f6ba4314610180578063a6e701261461019c578063b204e9f3146101b8576100cf565b80631785f53c146100d45780631d0d4e8b146100f05780632c9ab42b1461010e578063382654241461012a5780636c3585dd146101465780637048027514610164575b600080fd5b6100ee60048036038101906100e991906113b8565b610220565b005b6100f8610307565b6040516101059190611400565b60405180910390f35b61012860048036038101906101239190611480565b61035b565b005b610144600480360381019061013f91906113b8565b61043b565b005b61014e610537565b60405161015b9190611400565b60405180910390f35b61017e600480360381019061017991906113b8565b61054a565b005b61019a600480360381019061019591906113b8565b610630565b005b6101b660048036038101906101b191906113b8565b6106ca565b005b6101d260048036038101906101cd91906113b8565b610764565b005b6101dc610860565b005b6101f860048036038101906101f391906114f9565b6108f7565b005b610214600480360381019061020f919061154b565b6109a0565b005b61021e610baf565b005b600160003373ffffffffffffffffffffffffffffffffffffffff1673ffffffffffffffffffffffffffffffffffffffff16815260200190815260200160002060009054906101000a900460ff166102ac576040517f08c379a00000000000000000000000000000000000000000000000000000000081526004016102a39061162a565b60405180910390fd5b6000600160008373ffffffffffffffffffffffffffffffffffffffff1673ffffffffffffffffffffffffffffffffffffffff16815260200190815260200160002060006101000a81548160ff02191690831515021790555050565b6000600160003373ffffffffffffffffffffffffffffffffffffffff1673ffffffffffffffffffffffffffffffffffffffff16815260200190815260200160002060009054906101000a900460ff16905090565b600160003373ffffffffffffffffffffffffffffffffffffffff1673ffffffffffffffffffffffffffffffffffffffff16815260200190815260200160002060009054906101000a900460ff166103e7576040517f08c379a00000000000000000000000000000000000000000000000000000000081526004016103de9061162a565b60405180910390fd5b60005b828290508110156104365761042583838381811061040b5761040a61164a565b5b905060200201602081019061042091906113b8565b61054a565b8061042f906116b2565b90506103ea565b505050565b610443610ec9565b600280811115610456576104556116fa565b5b61045e610f8b565b73ffffffffffffffffffffffffffffffffffffffff1663dd8b2914336040518263ffffffff1660e01b81526004016104969190611738565b602060405180830381865afa1580156104b3573d6000803e3d6000fd5b505050506040513d601f19601f820116820180604052508101906104d79190611778565b60028111156104e9576104e86116fa565b5b14610529576040517f08c379a000000000000000000000000000000000000000000000000000000000815260040161052090611817565b60405180910390fd5b61053481600161102e565b50565b600260149054906101000a900460ff1681565b600160003373ffffffffffffffffffffffffffffffffffffffff1673ffffffffffffffffffffffffffffffffffffffff16815260200190815260200160002060009054906101000a900460ff166105d6576040517f08c379a00000000000000000000000000000000000000000000000000000000081526004016105cd9061162a565b60405180910390fd5b60018060008373ffffffffffffffffffffffffffffffffffffffff1673ffffffffffffffffffffffffffffffffffffffff16815260200190815260200160002060006101000a81548160ff02191690831515021790555050565b600160003373ffffffffffffffffffffffffffffffffffffffff1673ffffffffffffffffffffffffffffffffffffffff16815260200190815260200160002060009054906101000a900460ff166106bc576040517f08c379a00000000000000000000000000000000000000000000000000000000081526004016106b39061162a565b60405180910390fd5b6106c781600261102e565b50565b600160003373ffffffffffffffffffffffffffffffffffffffff1673ffffffffffffffffffffffffffffffffffffffff16815260200190815260200160002060009054906101000a900460ff16610756576040517f08c379a000000000000000000000000000000000000000000000000000000000815260040161074d9061162a565b60405180910390fd5b61076181600161102e565b50565b61076c610ec9565b60028081111561077f5761077e6116fa565b5b610787610f8b565b73ffffffffffffffffffffffffffffffffffffffff1663dd8b2914336040518263ffffffff1660e01b81526004016107bf9190611738565b602060405180830381865afa1580156107dc573d6000803e3d6000fd5b505050506040513d601f19601f820116820180604052508101906108009190611778565b6002811115610812576108116116fa565b5b14610852576040517f08c379a000000000000000000000000000000000000000000000000000000000815260040161084990611817565b60405180910390fd5b61085d81600261102e565b50565b610868610ec9565b600260009054906101000a900473ffffffffffffffffffffffffffffffffffffffff1673ffffffffffffffffffffffffffffffffffffffff1663fbb013f1336040518263ffffffff1660e01b81526004016108c39190611858565b600060405180830381600087803b1580156108dd57600080fd5b505af11580156108f1573d6000803e3d6000fd5b50505050565b600160003373ffffffffffffffffffffffffffffffffffffffff1673ffffffffffffffffffffffffffffffffffffffff16815260200190815260200160002060009054906101000a900460ff16610983576040517f08c379a000000000000000000000000000000000000000000000000000000000815260040161097a9061162a565b60405180910390fd5b80600260146101000a81548160ff02191690831515021790555050565b600160003373ffffffffffffffffffffffffffffffffffffffff1673ffffffffffffffffffffffffffffffffffffffff16815260200190815260200160002060009054906101000a900460ff16610a2c576040517f08c379a0000000000000000000000000000000000000000000000000000000008152600401610a239061162a565b60405180910390fd5b610a358261113c565b60005b81806101400190610a499190611882565b9050811015610b1257610a5a611200565b73ffffffffffffffffffffffffffffffffffffffff16634e634eb583806101400190610a869190611882565b84818110610a9757610a9661164a565b5b905060200201356040518263ffffffff1660e01b8152600401610aba91906118f4565b600060405180830381865afa158015610ad7573d6000803e3d6000fd5b505050506040513d6000823e3d601f19601f82011682018060405250810190610b009190611b0d565b5080610b0b906116b2565b9050610a38565b50610b1b6112a3565b73ffffffffffffffffffffffffffffffffffffffff166358cbfccd836000846040518463ffffffff1660e01b8152600401610b5893929190612013565b600060405180830381600087803b158015610b7257600080fd5b505af1158015610b86573d6000803e3d6000fd5b50505050600260149054906101000a900460ff1615610bab57610baa82600261102e565b5b5050565b610bb83361113c565b6000610bc26112a3565b73ffffffffffffffffffffffffffffffffffffffff166365b7109a336040518263ffffffff1660e01b8152600401610bfa9190611738565b602060405180830381865afa158015610c17573d6000803e3d6000fd5b505050506040513d601f19601f82011682018060405250810190610c3b9190612076565b905060006002811115610c5157610c506116fa565b5b816002811115610c6457610c636116fa565b5b03610ca4576040517f08c379a0000000000000000000000000000000000000000000000000000000008152600401610c9b90612115565b60405180910390fd5b600280811115610cb757610cb66116fa565b5b816002811115610cca57610cc96116fa565b5b03610e5457610cd7610f8b565b73ffffffffffffffffffffffffffffffffffffffff16636d9521d8610cfa6112a3565b73ffffffffffffffffffffffffffffffffffffffff1663f5bf01fb336040518263ffffffff1660e01b8152600401610d329190611738565b600060405180830381865afa158015610d4f573d6000803e3d6000fd5b505050506040513d6000823e3d601f19601f82011682018060405250810190610d789190612490565b6040518263ffffffff1660e01b8152600401610d949190612755565b600060405180830381600087803b158015610dae57600080fd5b505af1158015610dc2573d6000803e3d6000fd5b50505050600260009054906101000a900473ffffffffffffffffffffffffffffffffffffffff1673ffffffffffffffffffffffffffffffffffffffff1663fbb013f1336040518263ffffffff1660e01b8152600401610e219190611858565b600060405180830381600087803b158015610e3b57600080fd5b505af1158015610e4f573d6000803e3d6000fd5b505050505b610e5c6112a3565b73ffffffffffffffffffffffffffffffffffffffff1663442fb8ab336040518263ffffffff1660e01b8152600401610e949190611738565b600060405180830381600087803b158015610eae57600080fd5b505af1158015610ec2573d6000803e3d6000fd5b5050505050565b610ed1610f8b565b73ffffffffffffffffffffffffffffffffffffffff166338b6a3a1336040518263ffffffff1660e01b8152600401610f099190611738565b602060405180830381865afa158015610f26573d6000803e3d6000fd5b505050506040513d601f19601f82011682018060405250810190610f4a919061278c565b610f89576040517f08c379a0000000000000000000000000000000000000000000000000000000008152600401610f8090612805565b60405180910390fd5b565b60008060009054906101000a900473ffffffffffffffffffffffffffffffffffffffff1673ffffffffffffffffffffffffffffffffffffffff1663bcaa0c5560026040518263ffffffff1660e01b8152600401610fe8919061286d565b602060405180830381865afa158015611005573d6000803e3d6000fd5b505050506040513d601f19601f820116820180604052508101906110299190612888565b905090565b6110378261113c565b61103f6112a3565b73ffffffffffffffffffffffffffffffffffffffff166351cafe0483836040518363ffffffff1660e01b81526004016110799291906128b5565b600060405180830381600087803b15801561109357600080fd5b505af11580156110a7573d6000803e3d6000fd5b50505050600260009054906101000a900473ffffffffffffffffffffffffffffffffffffffff1673ffffffffffffffffffffffffffffffffffffffff1663b21224a9836040518263ffffffff1660e01b81526004016111069190611858565b600060405180830381600087803b15801561112057600080fd5b505af1158015611134573d6000803e3d6000fd5b505050505050565b611144610f8b565b73ffffffffffffffffffffffffffffffffffffffff166338b6a3a1826040518263ffffffff1660e01b815260040161117c9190611738565b602060405180830381865afa158015611199573d6000803e3d6000fd5b505050506040513d601f19601f820116820180604052508101906111bd919061278c565b156111fd576040517f08c379a00000000000000000000000000000000000000000000000000000000081526004016111f490612950565b60405180910390fd5b50565b60008060009054906101000a900473ffffffffffffffffffffffffffffffffffffffff1673ffffffffffffffffffffffffffffffffffffffff1663bcaa0c5560046040518263ffffffff1660e01b815260040161125d919061286d565b602060405180830381865afa15801561127a573d6000803e3d6000fd5b505050506040513d601f19601f8201168201806040525081019061129e9190612888565b905090565b60008060009054906101000a900473ffffffffffffffffffffffffffffffffffffffff1673ffffffffffffffffffffffffffffffffffffffff1663bcaa0c5560056040518263ffffffff1660e01b8152600401611300919061286d565b602060405180830381865afa15801561131d573d6000803e3d6000fd5b505050506040513d601f19601f820116820180604052508101906113419190612888565b905090565b6000604051905090565b600080fd5b600080fd5b600073ffffffffffffffffffffffffffffffffffffffff82169050919050565b60006113858261135a565b9050919050565b6113958161137a565b81146113a057600080fd5b50565b6000813590506113b28161138c565b92915050565b6000602082840312156113ce576113cd611350565b5b60006113dc848285016113a3565b91505092915050565b60008115159050919050565b6113fa816113e5565b82525050565b600060208201905061141560008301846113f1565b92915050565b600080fd5b600080fd5b600080fd5b60008083601f8401126114405761143f61141b565b5b8235905067ffffffffffffffff81111561145d5761145c611420565b5b60208301915083602082028301111561147957611478611425565b5b9250929050565b6000806020838503121561149757611496611350565b5b600083013567ffffffffffffffff8111156114b5576114b4611355565b5b6114c18582860161142a565b92509250509250929050565b6114d6816113e5565b81146114e157600080fd5b50565b6000813590506114f3816114cd565b92915050565b60006020828403121561150f5761150e611350565b5b600061151d848285016114e4565b91505092915050565b600080fd5b6000610160828403121561154257611541611526565b5b81905092915050565b6000806040838503121561156257611561611350565b5b6000611570858286016113a3565b925050602083013567ffffffffffffffff81111561159157611590611355565b5b61159d8582860161152b565b9150509250929050565b600082825260208201905092915050565b7f4f6e6c792061646d696e206164647265737365732063616e2063616c6c20746860008201527f69732066756e6374696f6e000000000000000000000000000000000000000000602082015250565b6000611614602b836115a7565b915061161f826115b8565b604082019050919050565b6000602082019050818103600083015261164381611607565b9050919050565b7f4e487b7100000000000000000000000000000000000000000000000000000000600052603260045260246000fd5b7f4e487b7100000000000000000000000000000000000000000000000000000000600052601160045260246000fd5b6000819050919050565b60006116bd826116a8565b91507fffffffffffffffffffffffffffffffffffffffffffffffffffffffffffffffff82036116ef576116ee611679565b5b600182019050919050565b7f4e487b7100000000000000000000000000000000000000000000000000000000600052602160045260246000fd5b6117328161137a565b82525050565b600060208201905061174d6000830184611729565b92915050565b6003811061176057600080fd5b50565b60008151905061177281611753565b92915050565b60006020828403121561178e5761178d611350565b5b600061179c84828501611763565b91505092915050565b7f53656e646572206d75737420626520612073747564792070726f6772616d206d60008201527f616e616765720000000000000000000000000000000000000000000000000000602082015250565b60006118016026836115a7565b915061180c826117a5565b604082019050919050565b60006020820190508181036000830152611830816117f4565b9050919050565b60006118428261135a565b9050919050565b61185281611837565b82525050565b600060208201905061186d6000830184611849565b92915050565b600080fd5b600080fd5b600080fd5b6000808335600160200384360303811261189f5761189e611873565b5b80840192508235915067ffffffffffffffff8211156118c1576118c0611878565b5b6020830192506020820236038313156118dd576118dc61187d565b5b509250929050565b6118ee816116a8565b82525050565b600060208201905061190960008301846118e5565b92915050565b600080fd5b6000601f19601f8301169050919050565b7f4e487b7100000000000000000000000000000000000000000000000000000000600052604160045260246000fd5b61195d82611914565b810181811067ffffffffffffffff8211171561197c5761197b611925565b5b80604052505050565b600061198f611346565b905061199b8282611954565b919050565b600080fd5b6119ae816116a8565b81146119b957600080fd5b50565b6000815190506119cb816119a5565b92915050565b600080fd5b600067ffffffffffffffff8211156119f1576119f0611925565b5b6119fa82611914565b9050602081019050919050565b60005b83811015611a25578082015181840152602081019050611a0a565b60008484015250505050565b6000611a44611a3f846119d6565b611985565b905082815260208101848484011115611a6057611a5f6119d1565b5b611a6b848285611a07565b509392505050565b600082601f830112611a8857611a8761141b565b5b8151611a98848260208601611a31565b91505092915050565b600060408284031215611ab757611ab661190f565b5b611ac16040611985565b90506000611ad1848285016119bc565b600083015250602082015167ffffffffffffffff811115611af557611af46119a0565b5b611b0184828501611a73565b60208301525092915050565b600060208284031215611b2357611b22611350565b5b600082015167ffffffffffffffff811115611b4157611b40611355565b5b611b4d84828501611aa1565b91505092915050565b60038110611b6757611b666116fa565b5b50565b6000819050611b7882611b56565b919050565b6000611b8882611b6a565b9050919050565b611b9881611b7d565b82525050565b600080fd5b600080fd5b600080fd5b60008083356001602003843603038112611bca57611bc9611ba8565b5b83810192508235915060208301925067ffffffffffffffff821115611bf257611bf1611b9e565b5b600182023603831315611c0857611c07611ba3565b5b509250929050565b600082825260208201905092915050565b82818337600083830152505050565b6000611c3c8385611c10565b9350611c49838584611c21565b611c5283611914565b840190509392505050565b60038110611c6a57600080fd5b50565b600081359050611c7c81611c5d565b92915050565b6000611c916020840184611c6d565b905092915050565b60038110611caa57611ca96116fa565b5b50565b6000819050611cbb82611c99565b919050565b6000611ccb82611cad565b9050919050565b611cdb81611cc0565b82525050565b600082905092915050565b600081359050611cfb816119a5565b92915050565b6000611d106020840184611cec565b905092915050565b611d21816116a8565b82525050565b60608201611d386000830183611d01565b611d456000850182611d18565b50611d536020830183611d01565b611d606020850182611d18565b50611d6e6040830183611d01565b611d7b6040850182611d18565b50505050565b600081359050611d9081611753565b92915050565b6000611da56020840184611d81565b905092915050565b60038110611dbe57611dbd6116fa565b5b50565b6000819050611dcf82611dad565b919050565b6000611ddf82611dc1565b9050919050565b611def81611dd4565b82525050565b60008083356001602003843603038112611e1257611e11611ba8565b5b83810192508235915060208301925067ffffffffffffffff821115611e3a57611e39611b9e565b5b602082023603831315611e5057611e4f611ba3565b5b509250929050565b600082825260208201905092915050565b600080fd5b82818337505050565b6000611e838385611e58565b93507f07ffffffffffffffffffffffffffffffffffffffffffffffffffffffffffffff831115611eb657611eb5611e69565b5b602083029250611ec7838584611e6e565b82840190509392505050565b60006101608301611ee76000840184611bad565b8583036000870152611efa838284611c30565b92505050611f0b6020840184611bad565b8583036020870152611f1e838284611c30565b92505050611f2f6040840184611c82565b611f3c6040860182611cd2565b50611f4a6060840184611ce1565b611f576060860182611d27565b50611f6560c0840184611bad565b85830360c0870152611f78838284611c30565b92505050611f8960e0840184611bad565b85830360e0870152611f9c838284611c30565b92505050611fae610100840184611bad565b858303610100870152611fc2838284611c30565b92505050611fd4610120840184611d96565b611fe2610120860182611de6565b50611ff1610140840184611df5565b858303610140870152612005838284611e77565b925050508091505092915050565b60006060820190506120286000830186611729565b6120356020830185611b8f565b81810360408301526120478184611ed3565b9050949350505050565b6003811061205e57600080fd5b50565b60008151905061207081612051565b92915050565b60006020828403121561208c5761208b611350565b5b600061209a84828501612061565b91505092915050565b7f526567697374726174696f6e206973207374696c6c20756e646572207265766960008201527f6577000000000000000000000000000000000000000000000000000000000000602082015250565b60006120ff6022836115a7565b915061210a826120a3565b604082019050919050565b6000602082019050818103600083015261212e816120f2565b9050919050565b6000815190506121448161138c565b92915050565b60008151905061215981611c5d565b92915050565b6000606082840312156121755761217461190f565b5b61217f6060611985565b9050600061218f848285016119bc565b60008301525060206121a3848285016119bc565b60208301525060406121b7848285016119bc565b60408301525092915050565b600067ffffffffffffffff8211156121de576121dd611925565b5b602082029050602081019050919050565b60006122026121fd846121c3565b611985565b9050808382526020820190506020840283018581111561222557612224611425565b5b835b8181101561224e578061223a88826119bc565b845260208401935050602081019050612227565b5050509392505050565b600082601f83011261226d5761226c61141b565b5b815161227d8482602086016121ef565b91505092915050565b6000610160828403121561229d5761229c61190f565b5b6122a8610120611985565b9050600082015167ffffffffffffffff8111156122c8576122c76119a0565b5b6122d484828501611a73565b600083015250602082015167ffffffffffffffff8111156122f8576122f76119a0565b5b61230484828501611a73565b60208301525060406123188482850161214a565b604083015250606061232c8482850161215f565b60608301525060c082015167ffffffffffffffff8111156123505761234f6119a0565b5b61235c84828501611a73565b60808301525060e082015167ffffffffffffffff8111156123805761237f6119a0565b5b61238c84828501611a73565b60a08301525061010082015167ffffffffffffffff8111156123b1576123b06119a0565b5b6123bd84828501611a73565b60c0830152506101206123d284828501611763565b60e08301525061014082015167ffffffffffffffff8111156123f7576123f66119a0565b5b61240384828501612258565b6101008301525092915050565b6000606082840312156124265761242561190f565b5b6124306060611985565b9050600061244084828501612135565b600083015250602061245484828501612061565b602083015250604082015167ffffffffffffffff811115612478576124776119a0565b5b61248484828501612286565b60408301525092915050565b6000602082840312156124a6576124a5611350565b5b600082015167ffffffffffffffff8111156124c4576124c3611355565b5b6124d084828501612410565b91505092915050565b6124e28161137a565b82525050565b6124f181611b7d565b82525050565b600081519050919050565b600061250d826124f7565b6125178185611c10565b9350612527818560208601611a07565b61253081611914565b840191505092915050565b6060820160008201516125516000850182611d18565b5060208201516125646020850182611d18565b5060408201516125776040850182611d18565b50505050565b600081519050919050565b6000819050602082019050919050565b60006125a48383611d18565b60208301905092915050565b6000602082019050919050565b60006125c88261257d565b6125d28185611e58565b93506125dd83612588565b8060005b8381101561260e5781516125f58882612598565b9750612600836125b0565b9250506001810190506125e1565b5085935050505092915050565b60006101608301600083015184820360008601526126398282612502565b915050602083015184820360208601526126538282612502565b91505060408301516126686040860182611cd2565b50606083015161267b606086018261253b565b50608083015184820360c08601526126938282612502565b91505060a083015184820360e08601526126ad8282612502565b91505060c08301518482036101008601526126c88282612502565b91505060e08301516126de610120860182611de6565b506101008301518482036101408601526126f882826125bd565b9150508091505092915050565b600060608301600083015161271d60008601826124d9565b50602083015161273060208601826124e8565b5060408301518482036040860152612748828261261b565b9150508091505092915050565b6000602082019050818103600083015261276f8184612705565b905092915050565b600081519050612786816114cd565b92915050565b6000602082840312156127a2576127a1611350565b5b60006127b084828501612777565b91505092915050565b7f53656e646572206d757374206265206120726567697374657265642075736572600082015250565b60006127ef6020836115a7565b91506127fa826127b9565b602082019050919050565b6000602082019050818103600083015261281e816127e2565b9050919050565b60068110612836576128356116fa565b5b50565b600081905061284782612825565b919050565b600061285782612839565b9050919050565b6128678161284c565b82525050565b6000602082019050612882600083018461285e565b92915050565b60006020828403121561289e5761289d611350565b5b60006128ac84828501612135565b91505092915050565b60006040820190506128ca6000830185611729565b6128d76020830184611b8f565b9392505050565b7f416464726573732068617320616c7265616479206265656e207265676973746560008201527f7265640000000000000000000000000000000000000000000000000000000000602082015250565b600061293a6023836115a7565b9150612945826128de565b604082019050919050565b600060208201905081810360008301526129698161292d565b905091905056fea264697066735822122060558feb0096d444c521736eb5e2b341a0f85448f525477df81d3ec6f099cacb64736f6c63430008110033",
  "linkReferences": {},
  "deployedLinkReferences": {}
}