{
  "_format": "hh-sol-artifact-1",
  "contractName": "UserController",
  "sourceName": "contracts/logic/UserController.sol",
  "abi": [
    {
      "inputs": [
        {
          "internalType": "address",
          "name": "userDataManagerAddress",
          "type": "address"
        },
        {
          "internalType": "address",
          "name": "programDataManagerAddress",
          "type": "address"
        },
        {
          "internalType": "address",
          "name": "registrationDataManagerAddress",
          "type": "address"
        },
        {
          "internalType": "address payable",
          "name": "faucetAddress",
          "type": "address"
        }
      ],
      "stateMutability": "nonpayable",
      "type": "constructor"
    },
    {
      "inputs": [
        {
          "internalType": "address",
          "name": "userAddress",
          "type": "address"
        }
      ],
      "name": "acceptRegistration",
      "outputs": [],
      "stateMutability": "nonpayable",
      "type": "function"
    },
    {
      "inputs": [],
      "name": "acknowledgeRegistrationResult",
      "outputs": [],
      "stateMutability": "nonpayable",
      "type": "function"
    },
    {
      "inputs": [
        {
          "internalType": "address",
          "name": "_address",
          "type": "address"
        }
      ],
      "name": "addAdmin",
      "outputs": [],
      "stateMutability": "nonpayable",
      "type": "function"
    },
    {
      "inputs": [
        {
          "internalType": "address",
          "name": "userAddress",
          "type": "address"
        }
      ],
      "name": "adminAcceptRegistration",
      "outputs": [],
      "stateMutability": "nonpayable",
      "type": "function"
    },
    {
      "inputs": [
        {
          "internalType": "address",
          "name": "userAddress",
          "type": "address"
        }
      ],
      "name": "adminRejectRegistration",
      "outputs": [],
      "stateMutability": "nonpayable",
      "type": "function"
    },
    {
      "inputs": [
        {
          "internalType": "address[]",
          "name": "addresses",
          "type": "address[]"
        }
      ],
      "name": "batchAddAdmin",
      "outputs": [],
      "stateMutability": "nonpayable",
      "type": "function"
    },
    {
      "inputs": [],
      "name": "isAutomaticAcceptanceOn",
      "outputs": [
        {
          "internalType": "bool",
          "name": "",
          "type": "bool"
        }
      ],
      "stateMutability": "view",
      "type": "function"
    },
    {
      "inputs": [
        {
          "internalType": "address",
          "name": "userAddress",
          "type": "address"
        }
      ],
      "name": "rejectRegistration",
      "outputs": [],
      "stateMutability": "nonpayable",
      "type": "function"
    },
    {
      "inputs": [
        {
          "internalType": "address",
          "name": "_address",
          "type": "address"
        }
      ],
      "name": "removeAdmin",
      "outputs": [],
      "stateMutability": "nonpayable",
      "type": "function"
    },
    {
      "inputs": [],
      "name": "requestExtraTokens",
      "outputs": [],
      "stateMutability": "nonpayable",
      "type": "function"
    },
    {
      "inputs": [
        {
          "internalType": "address",
          "name": "userAddress",
          "type": "address"
        },
        {
          "components": [
            {
              "internalType": "string",
              "name": "firstName",
              "type": "string"
            },
            {
              "internalType": "string",
              "name": "lastName",
              "type": "string"
            },
            {
              "internalType": "enum UserDataTypes.Gender",
              "name": "gender",
              "type": "uint8"
            },
            {
              "components": [
                {
                  "internalType": "uint256",
                  "name": "year",
                  "type": "uint256"
                },
                {
                  "internalType": "uint256",
                  "name": "month",
                  "type": "uint256"
                },
                {
                  "internalType": "uint256",
                  "name": "day",
                  "type": "uint256"
                }
              ],
              "internalType": "struct UserDataTypes.Date",
              "name": "dateOfBirth",
              "type": "tuple"
            },
            {
              "internalType": "string",
              "name": "nationality",
              "type": "string"
            },
            {
              "internalType": "string",
              "name": "phoneNumber",
              "type": "string"
            },
            {
              "internalType": "string",
              "name": "emailAddress",
              "type": "string"
            },
            {
              "internalType": "enum UserDataTypes.UserRole",
              "name": "role",
              "type": "uint8"
            },
            {
              "internalType": "uint256[]",
              "name": "studyProgramIds",
              "type": "uint256[]"
            }
          ],
          "internalType": "struct UserDataTypes.UserProfile",
          "name": "profile",
          "type": "tuple"
        }
      ],
      "name": "requestRegistration",
      "outputs": [],
      "stateMutability": "nonpayable",
      "type": "function"
    },
    {
      "inputs": [
        {
          "internalType": "bool",
          "name": "newValue",
          "type": "bool"
        }
      ],
      "name": "setAutomaticAcceptance",
      "outputs": [],
      "stateMutability": "nonpayable",
      "type": "function"
    }
  ],
  "bytecode": "0x60806040526000600860146101000a81548160ff0219169083151502179055503480156200002c57600080fd5b5060405162002b1338038062002b138339818101604052810190620000529190620002e7565b8380806000806101000a81548173ffffffffffffffffffffffffffffffffffffffff021916908373ffffffffffffffffffffffffffffffffffffffff16021790555050506001600760003373ffffffffffffffffffffffffffffffffffffffff1673ffffffffffffffffffffffffffffffffffffffff16815260200190815260200160002060006101000a81548160ff021916908315150217905550620000ff846200016c60201b60201c565b6200011082620001b060201b60201c565b6200012183620001f460201b60201c565b80600860006101000a81548173ffffffffffffffffffffffffffffffffffffffff021916908373ffffffffffffffffffffffffffffffffffffffff1602179055505050505062000359565b80600160006101000a81548173ffffffffffffffffffffffffffffffffffffffff021916908373ffffffffffffffffffffffffffffffffffffffff16021790555050565b80600660006101000a81548173ffffffffffffffffffffffffffffffffffffffff021916908373ffffffffffffffffffffffffffffffffffffffff16021790555050565b80600560006101000a81548173ffffffffffffffffffffffffffffffffffffffff021916908373ffffffffffffffffffffffffffffffffffffffff16021790555050565b600080fd5b600073ffffffffffffffffffffffffffffffffffffffff82169050919050565b60006200026a826200023d565b9050919050565b6200027c816200025d565b81146200028857600080fd5b50565b6000815190506200029c8162000271565b92915050565b6000620002af826200023d565b9050919050565b620002c181620002a2565b8114620002cd57600080fd5b50565b600081519050620002e181620002b6565b92915050565b6000806000806080858703121562000304576200030362000238565b5b600062000314878288016200028b565b945050602062000327878288016200028b565b93505060406200033a878288016200028b565b92505060606200034d87828801620002d0565b91505092959194509250565b6127aa80620003696000396000f3fe608060405234801561001057600080fd5b50600436106100b45760003560e01c8063a6e7012611610071578063a6e7012614610163578063b204e9f31461017f578063ccc2260e1461019b578063e5ba3c00146101a5578063f0b41438146101c1578063f29105b1146101dd576100b4565b80631785f53c146100b95780632c9ab42b146100d557806338265424146100f15780636c3585dd1461010d578063704802751461012b57806398f6ba4314610147575b600080fd5b6100d360048036038101906100ce919061124c565b6101e7565b005b6100ef60048036038101906100ea91906112de565b6102ce565b005b61010b6004803603810190610106919061124c565b6103ae565b005b6101156104bb565b6040516101229190611346565b60405180910390f35b6101456004803603810190610140919061124c565b6104ce565b005b610161600480360381019061015c919061124c565b6105b5565b005b61017d6004803603810190610178919061124c565b61064f565b005b6101996004803603810190610194919061124c565b6106e9565b005b6101a36107f6565b005b6101bf60048036038101906101ba919061138d565b61095e565b005b6101db60048036038101906101d691906113df565b610a07565b005b6101e5610c4c565b005b600760003373ffffffffffffffffffffffffffffffffffffffff1673ffffffffffffffffffffffffffffffffffffffff16815260200190815260200160002060009054906101000a900460ff16610273576040517f08c379a000000000000000000000000000000000000000000000000000000000815260040161026a906114be565b60405180910390fd5b6000600760008373ffffffffffffffffffffffffffffffffffffffff1673ffffffffffffffffffffffffffffffffffffffff16815260200190815260200160002060006101000a81548160ff02191690831515021790555050565b600760003373ffffffffffffffffffffffffffffffffffffffff1673ffffffffffffffffffffffffffffffffffffffff16815260200190815260200160002060009054906101000a900460ff1661035a576040517f08c379a0000000000000000000000000000000000000000000000000000000008152600401610351906114be565b60405180910390fd5b60005b828290508110156103a95761039883838381811061037e5761037d6114de565b5b9050602002016020810190610393919061124c565b6104ce565b806103a290611546565b905061035d565b505050565b6002808111156103c1576103c061158e565b5b60008054906101000a900473ffffffffffffffffffffffffffffffffffffffff1673ffffffffffffffffffffffffffffffffffffffff1663dd8b2914336040518263ffffffff1660e01b815260040161041a91906115cc565b602060405180830381865afa158015610437573d6000803e3d6000fd5b505050506040513d601f19601f8201168201806040525081019061045b919061160c565b600281111561046d5761046c61158e565b5b146104ad576040517f08c379a00000000000000000000000000000000000000000000000000000000081526004016104a4906116ab565b60405180910390fd5b6104b8816001610fd2565b50565b600860149054906101000a900460ff1681565b600760003373ffffffffffffffffffffffffffffffffffffffff1673ffffffffffffffffffffffffffffffffffffffff16815260200190815260200160002060009054906101000a900460ff1661055a576040517f08c379a0000000000000000000000000000000000000000000000000000000008152600401610551906114be565b60405180910390fd5b6001600760008373ffffffffffffffffffffffffffffffffffffffff1673ffffffffffffffffffffffffffffffffffffffff16815260200190815260200160002060006101000a81548160ff02191690831515021790555050565b600760003373ffffffffffffffffffffffffffffffffffffffff1673ffffffffffffffffffffffffffffffffffffffff16815260200190815260200160002060009054906101000a900460ff16610641576040517f08c379a0000000000000000000000000000000000000000000000000000000008152600401610638906114be565b60405180910390fd5b61064c816002610fd2565b50565b600760003373ffffffffffffffffffffffffffffffffffffffff1673ffffffffffffffffffffffffffffffffffffffff16815260200190815260200160002060009054906101000a900460ff166106db576040517f08c379a00000000000000000000000000000000000000000000000000000000081526004016106d2906114be565b60405180910390fd5b6106e6816001610fd2565b50565b6002808111156106fc576106fb61158e565b5b60008054906101000a900473ffffffffffffffffffffffffffffffffffffffff1673ffffffffffffffffffffffffffffffffffffffff1663dd8b2914336040518263ffffffff1660e01b815260040161075591906115cc565b602060405180830381865afa158015610772573d6000803e3d6000fd5b505050506040513d601f19601f82011682018060405250810190610796919061160c565b60028111156107a8576107a761158e565b5b146107e8576040517f08c379a00000000000000000000000000000000000000000000000000000000081526004016107df906116ab565b60405180910390fd5b6107f3816002610fd2565b50565b60008054906101000a900473ffffffffffffffffffffffffffffffffffffffff1673ffffffffffffffffffffffffffffffffffffffff166338b6a3a1336040518263ffffffff1660e01b815260040161084f91906115cc565b602060405180830381865afa15801561086c573d6000803e3d6000fd5b505050506040513d601f19601f8201168201806040525081019061089091906116e0565b6108cf576040517f08c379a00000000000000000000000000000000000000000000000000000000081526004016108c690611759565b60405180910390fd5b600860009054906101000a900473ffffffffffffffffffffffffffffffffffffffff1673ffffffffffffffffffffffffffffffffffffffff1663fbb013f1336040518263ffffffff1660e01b815260040161092a919061179a565b600060405180830381600087803b15801561094457600080fd5b505af1158015610958573d6000803e3d6000fd5b50505050565b600760003373ffffffffffffffffffffffffffffffffffffffff1673ffffffffffffffffffffffffffffffffffffffff16815260200190815260200160002060009054906101000a900460ff166109ea576040517f08c379a00000000000000000000000000000000000000000000000000000000081526004016109e1906114be565b60405180910390fd5b80600860146101000a81548160ff02191690831515021790555050565b600760003373ffffffffffffffffffffffffffffffffffffffff1673ffffffffffffffffffffffffffffffffffffffff16815260200190815260200160002060009054906101000a900460ff16610a93576040517f08c379a0000000000000000000000000000000000000000000000000000000008152600401610a8a906114be565b60405180910390fd5b610a9c826110fb565b60005b81806101400190610ab091906117c4565b9050811015610b9457600560009054906101000a900473ffffffffffffffffffffffffffffffffffffffff1673ffffffffffffffffffffffffffffffffffffffff16634e634eb583806101400190610b0891906117c4565b84818110610b1957610b186114de565b5b905060200201356040518263ffffffff1660e01b8152600401610b3c9190611836565b600060405180830381865afa158015610b59573d6000803e3d6000fd5b505050506040513d6000823e3d601f19601f82011682018060405250810190610b829190611a4f565b5080610b8d90611546565b9050610a9f565b50600660009054906101000a900473ffffffffffffffffffffffffffffffffffffffff1673ffffffffffffffffffffffffffffffffffffffff166358cbfccd836000846040518463ffffffff1660e01b8152600401610bf593929190611f55565b600060405180830381600087803b158015610c0f57600080fd5b505af1158015610c23573d6000803e3d6000fd5b50505050600860149054906101000a900460ff1615610c4857610c47826002610fd2565b5b5050565b610c55336110fb565b6000600660009054906101000a900473ffffffffffffffffffffffffffffffffffffffff1673ffffffffffffffffffffffffffffffffffffffff166365b7109a336040518263ffffffff1660e01b8152600401610cb291906115cc565b602060405180830381865afa158015610ccf573d6000803e3d6000fd5b505050506040513d601f19601f82011682018060405250810190610cf39190611fb8565b905060006002811115610d0957610d0861158e565b5b816002811115610d1c57610d1b61158e565b5b03610d5c576040517f08c379a0000000000000000000000000000000000000000000000000000000008152600401610d5390612057565b60405180910390fd5b600280811115610d6f57610d6e61158e565b5b816002811115610d8257610d8161158e565b5b03610f4257600160009054906101000a900473ffffffffffffffffffffffffffffffffffffffff1673ffffffffffffffffffffffffffffffffffffffff16636d9521d8600660009054906101000a900473ffffffffffffffffffffffffffffffffffffffff1673ffffffffffffffffffffffffffffffffffffffff1663f5bf01fb336040518263ffffffff1660e01b8152600401610e2091906115cc565b600060405180830381865afa158015610e3d573d6000803e3d6000fd5b505050506040513d6000823e3d601f19601f82011682018060405250810190610e6691906123d2565b6040518263ffffffff1660e01b8152600401610e829190612697565b600060405180830381600087803b158015610e9c57600080fd5b505af1158015610eb0573d6000803e3d6000fd5b50505050600860009054906101000a900473ffffffffffffffffffffffffffffffffffffffff1673ffffffffffffffffffffffffffffffffffffffff1663fbb013f1336040518263ffffffff1660e01b8152600401610f0f919061179a565b600060405180830381600087803b158015610f2957600080fd5b505af1158015610f3d573d6000803e3d6000fd5b505050505b600660009054906101000a900473ffffffffffffffffffffffffffffffffffffffff1673ffffffffffffffffffffffffffffffffffffffff1663442fb8ab336040518263ffffffff1660e01b8152600401610f9d91906115cc565b600060405180830381600087803b158015610fb757600080fd5b505af1158015610fcb573d6000803e3d6000fd5b5050505050565b610fdb826110fb565b600660009054906101000a900473ffffffffffffffffffffffffffffffffffffffff1673ffffffffffffffffffffffffffffffffffffffff166351cafe0483836040518363ffffffff1660e01b81526004016110389291906126b9565b600060405180830381600087803b15801561105257600080fd5b505af1158015611066573d6000803e3d6000fd5b50505050600860009054906101000a900473ffffffffffffffffffffffffffffffffffffffff1673ffffffffffffffffffffffffffffffffffffffff1663b21224a9836040518263ffffffff1660e01b81526004016110c5919061179a565b600060405180830381600087803b1580156110df57600080fd5b505af11580156110f3573d6000803e3d6000fd5b505050505050565b600160009054906101000a900473ffffffffffffffffffffffffffffffffffffffff1673ffffffffffffffffffffffffffffffffffffffff166338b6a3a1826040518263ffffffff1660e01b815260040161115691906115cc565b602060405180830381865afa158015611173573d6000803e3d6000fd5b505050506040513d601f19601f8201168201806040525081019061119791906116e0565b156111d7576040517f08c379a00000000000000000000000000000000000000000000000000000000081526004016111ce90612754565b60405180910390fd5b50565b6000604051905090565b600080fd5b600080fd5b600073ffffffffffffffffffffffffffffffffffffffff82169050919050565b6000611219826111ee565b9050919050565b6112298161120e565b811461123457600080fd5b50565b60008135905061124681611220565b92915050565b600060208284031215611262576112616111e4565b5b600061127084828501611237565b91505092915050565b600080fd5b600080fd5b600080fd5b60008083601f84011261129e5761129d611279565b5b8235905067ffffffffffffffff8111156112bb576112ba61127e565b5b6020830191508360208202830111156112d7576112d6611283565b5b9250929050565b600080602083850312156112f5576112f46111e4565b5b600083013567ffffffffffffffff811115611313576113126111e9565b5b61131f85828601611288565b92509250509250929050565b60008115159050919050565b6113408161132b565b82525050565b600060208201905061135b6000830184611337565b92915050565b61136a8161132b565b811461137557600080fd5b50565b60008135905061138781611361565b92915050565b6000602082840312156113a3576113a26111e4565b5b60006113b184828501611378565b91505092915050565b600080fd5b600061016082840312156113d6576113d56113ba565b5b81905092915050565b600080604083850312156113f6576113f56111e4565b5b600061140485828601611237565b925050602083013567ffffffffffffffff811115611425576114246111e9565b5b611431858286016113bf565b9150509250929050565b600082825260208201905092915050565b7f4f6e6c792061646d696e206164647265737365732063616e2063616c6c20746860008201527f69732066756e6374696f6e000000000000000000000000000000000000000000602082015250565b60006114a8602b8361143b565b91506114b38261144c565b604082019050919050565b600060208201905081810360008301526114d78161149b565b9050919050565b7f4e487b7100000000000000000000000000000000000000000000000000000000600052603260045260246000fd5b7f4e487b7100000000000000000000000000000000000000000000000000000000600052601160045260246000fd5b6000819050919050565b60006115518261153c565b91507fffffffffffffffffffffffffffffffffffffffffffffffffffffffffffffffff82036115835761158261150d565b5b600182019050919050565b7f4e487b7100000000000000000000000000000000000000000000000000000000600052602160045260246000fd5b6115c68161120e565b82525050565b60006020820190506115e160008301846115bd565b92915050565b600381106115f457600080fd5b50565b600081519050611606816115e7565b92915050565b600060208284031215611622576116216111e4565b5b6000611630848285016115f7565b91505092915050565b7f53656e646572206d75737420626520612073747564792070726f6772616d206d60008201527f616e616765720000000000000000000000000000000000000000000000000000602082015250565b600061169560268361143b565b91506116a082611639565b604082019050919050565b600060208201905081810360008301526116c481611688565b9050919050565b6000815190506116da81611361565b92915050565b6000602082840312156116f6576116f56111e4565b5b6000611704848285016116cb565b91505092915050565b7f53656e646572206d757374206265206120726567697374657265642075736572600082015250565b600061174360208361143b565b915061174e8261170d565b602082019050919050565b6000602082019050818103600083015261177281611736565b9050919050565b6000611784826111ee565b9050919050565b61179481611779565b82525050565b60006020820190506117af600083018461178b565b92915050565b600080fd5b600080fd5b600080fd5b600080833560016020038436030381126117e1576117e06117b5565b5b80840192508235915067ffffffffffffffff821115611803576118026117ba565b5b60208301925060208202360383131561181f5761181e6117bf565b5b509250929050565b6118308161153c565b82525050565b600060208201905061184b6000830184611827565b92915050565b600080fd5b6000601f19601f8301169050919050565b7f4e487b7100000000000000000000000000000000000000000000000000000000600052604160045260246000fd5b61189f82611856565b810181811067ffffffffffffffff821117156118be576118bd611867565b5b80604052505050565b60006118d16111da565b90506118dd8282611896565b919050565b600080fd5b6118f08161153c565b81146118fb57600080fd5b50565b60008151905061190d816118e7565b92915050565b600080fd5b600067ffffffffffffffff82111561193357611932611867565b5b61193c82611856565b9050602081019050919050565b60005b8381101561196757808201518184015260208101905061194c565b60008484015250505050565b600061198661198184611918565b6118c7565b9050828152602081018484840111156119a2576119a1611913565b5b6119ad848285611949565b509392505050565b600082601f8301126119ca576119c9611279565b5b81516119da848260208601611973565b91505092915050565b6000604082840312156119f9576119f8611851565b5b611a0360406118c7565b90506000611a13848285016118fe565b600083015250602082015167ffffffffffffffff811115611a3757611a366118e2565b5b611a43848285016119b5565b60208301525092915050565b600060208284031215611a6557611a646111e4565b5b600082015167ffffffffffffffff811115611a8357611a826111e9565b5b611a8f848285016119e3565b91505092915050565b60038110611aa957611aa861158e565b5b50565b6000819050611aba82611a98565b919050565b6000611aca82611aac565b9050919050565b611ada81611abf565b82525050565b600080fd5b600080fd5b600080fd5b60008083356001602003843603038112611b0c57611b0b611aea565b5b83810192508235915060208301925067ffffffffffffffff821115611b3457611b33611ae0565b5b600182023603831315611b4a57611b49611ae5565b5b509250929050565b600082825260208201905092915050565b82818337600083830152505050565b6000611b7e8385611b52565b9350611b8b838584611b63565b611b9483611856565b840190509392505050565b60038110611bac57600080fd5b50565b600081359050611bbe81611b9f565b92915050565b6000611bd36020840184611baf565b905092915050565b60038110611bec57611beb61158e565b5b50565b6000819050611bfd82611bdb565b919050565b6000611c0d82611bef565b9050919050565b611c1d81611c02565b82525050565b600082905092915050565b600081359050611c3d816118e7565b92915050565b6000611c526020840184611c2e565b905092915050565b611c638161153c565b82525050565b60608201611c7a6000830183611c43565b611c876000850182611c5a565b50611c956020830183611c43565b611ca26020850182611c5a565b50611cb06040830183611c43565b611cbd6040850182611c5a565b50505050565b600081359050611cd2816115e7565b92915050565b6000611ce76020840184611cc3565b905092915050565b60038110611d0057611cff61158e565b5b50565b6000819050611d1182611cef565b919050565b6000611d2182611d03565b9050919050565b611d3181611d16565b82525050565b60008083356001602003843603038112611d5457611d53611aea565b5b83810192508235915060208301925067ffffffffffffffff821115611d7c57611d7b611ae0565b5b602082023603831315611d9257611d91611ae5565b5b509250929050565b600082825260208201905092915050565b600080fd5b82818337505050565b6000611dc58385611d9a565b93507f07ffffffffffffffffffffffffffffffffffffffffffffffffffffffffffffff831115611df857611df7611dab565b5b602083029250611e09838584611db0565b82840190509392505050565b60006101608301611e296000840184611aef565b8583036000870152611e3c838284611b72565b92505050611e4d6020840184611aef565b8583036020870152611e60838284611b72565b92505050611e716040840184611bc4565b611e7e6040860182611c14565b50611e8c6060840184611c23565b611e996060860182611c69565b50611ea760c0840184611aef565b85830360c0870152611eba838284611b72565b92505050611ecb60e0840184611aef565b85830360e0870152611ede838284611b72565b92505050611ef0610100840184611aef565b858303610100870152611f04838284611b72565b92505050611f16610120840184611cd8565b611f24610120860182611d28565b50611f33610140840184611d37565b858303610140870152611f47838284611db9565b925050508091505092915050565b6000606082019050611f6a60008301866115bd565b611f776020830185611ad1565b8181036040830152611f898184611e15565b9050949350505050565b60038110611fa057600080fd5b50565b600081519050611fb281611f93565b92915050565b600060208284031215611fce57611fcd6111e4565b5b6000611fdc84828501611fa3565b91505092915050565b7f526567697374726174696f6e206973207374696c6c20756e646572207265766960008201527f6577000000000000000000000000000000000000000000000000000000000000602082015250565b600061204160228361143b565b915061204c82611fe5565b604082019050919050565b6000602082019050818103600083015261207081612034565b9050919050565b60008151905061208681611220565b92915050565b60008151905061209b81611b9f565b92915050565b6000606082840312156120b7576120b6611851565b5b6120c160606118c7565b905060006120d1848285016118fe565b60008301525060206120e5848285016118fe565b60208301525060406120f9848285016118fe565b60408301525092915050565b600067ffffffffffffffff8211156121205761211f611867565b5b602082029050602081019050919050565b600061214461213f84612105565b6118c7565b9050808382526020820190506020840283018581111561216757612166611283565b5b835b81811015612190578061217c88826118fe565b845260208401935050602081019050612169565b5050509392505050565b600082601f8301126121af576121ae611279565b5b81516121bf848260208601612131565b91505092915050565b600061016082840312156121df576121de611851565b5b6121ea6101206118c7565b9050600082015167ffffffffffffffff81111561220a576122096118e2565b5b612216848285016119b5565b600083015250602082015167ffffffffffffffff81111561223a576122396118e2565b5b612246848285016119b5565b602083015250604061225a8482850161208c565b604083015250606061226e848285016120a1565b60608301525060c082015167ffffffffffffffff811115612292576122916118e2565b5b61229e848285016119b5565b60808301525060e082015167ffffffffffffffff8111156122c2576122c16118e2565b5b6122ce848285016119b5565b60a08301525061010082015167ffffffffffffffff8111156122f3576122f26118e2565b5b6122ff848285016119b5565b60c083015250610120612314848285016115f7565b60e08301525061014082015167ffffffffffffffff811115612339576123386118e2565b5b6123458482850161219a565b6101008301525092915050565b60006060828403121561236857612367611851565b5b61237260606118c7565b9050600061238284828501612077565b600083015250602061239684828501611fa3565b602083015250604082015167ffffffffffffffff8111156123ba576123b96118e2565b5b6123c6848285016121c8565b60408301525092915050565b6000602082840312156123e8576123e76111e4565b5b600082015167ffffffffffffffff811115612406576124056111e9565b5b61241284828501612352565b91505092915050565b6124248161120e565b82525050565b61243381611abf565b82525050565b600081519050919050565b600061244f82612439565b6124598185611b52565b9350612469818560208601611949565b61247281611856565b840191505092915050565b6060820160008201516124936000850182611c5a565b5060208201516124a66020850182611c5a565b5060408201516124b96040850182611c5a565b50505050565b600081519050919050565b6000819050602082019050919050565b60006124e68383611c5a565b60208301905092915050565b6000602082019050919050565b600061250a826124bf565b6125148185611d9a565b935061251f836124ca565b8060005b8381101561255057815161253788826124da565b9750612542836124f2565b925050600181019050612523565b5085935050505092915050565b600061016083016000830151848203600086015261257b8282612444565b915050602083015184820360208601526125958282612444565b91505060408301516125aa6040860182611c14565b5060608301516125bd606086018261247d565b50608083015184820360c08601526125d58282612444565b91505060a083015184820360e08601526125ef8282612444565b91505060c083015184820361010086015261260a8282612444565b91505060e0830151612620610120860182611d28565b5061010083015184820361014086015261263a82826124ff565b9150508091505092915050565b600060608301600083015161265f600086018261241b565b506020830151612672602086018261242a565b506040830151848203604086015261268a828261255d565b9150508091505092915050565b600060208201905081810360008301526126b18184612647565b905092915050565b60006040820190506126ce60008301856115bd565b6126db6020830184611ad1565b9392505050565b7f416464726573732068617320616c7265616479206265656e207265676973746560008201527f7265640000000000000000000000000000000000000000000000000000000000602082015250565b600061273e60238361143b565b9150612749826126e2565b604082019050919050565b6000602082019050818103600083015261276d81612731565b905091905056fea264697066735822122077bd1f2f7fccf9c7a725ba17616a9bf4c0c1ed3c5da576f110ecae8685ed754564736f6c63430008110033",
  "linkReferences": {},
  "deployedLinkReferences": {}
}