{
  "_format": "hh-sol-artifact-1",
  "contractName": "UserView",
  "sourceName": "contracts/view/UserView.sol",
  "abi": [
    {
      "inputs": [
        {
          "internalType": "address",
          "name": "addressBookAddress",
          "type": "address"
        }
      ],
      "stateMutability": "nonpayable",
      "type": "constructor"
    },
    {
      "inputs": [],
      "name": "getAllUsers",
      "outputs": [
        {
          "components": [
            {
              "internalType": "uint256",
              "name": "uId",
              "type": "uint256"
            },
            {
              "components": [
                {
                  "internalType": "string",
                  "name": "firstName",
                  "type": "string"
                },
                {
                  "internalType": "string",
                  "name": "lastName",
                  "type": "string"
                },
                {
                  "internalType": "enum UserDataTypes.Gender",
                  "name": "gender",
                  "type": "uint8"
                },
                {
                  "components": [
                    {
                      "internalType": "uint256",
                      "name": "year",
                      "type": "uint256"
                    },
                    {
                      "internalType": "uint256",
                      "name": "month",
                      "type": "uint256"
                    },
                    {
                      "internalType": "uint256",
                      "name": "day",
                      "type": "uint256"
                    }
                  ],
                  "internalType": "struct UserDataTypes.Date",
                  "name": "dateOfBirth",
                  "type": "tuple"
                },
                {
                  "internalType": "string",
                  "name": "nationality",
                  "type": "string"
                },
                {
                  "internalType": "string",
                  "name": "phoneNumber",
                  "type": "string"
                },
                {
                  "internalType": "string",
                  "name": "emailAddress",
                  "type": "string"
                },
                {
                  "internalType": "enum UserDataTypes.UserRole",
                  "name": "role",
                  "type": "uint8"
                },
                {
                  "internalType": "uint256[]",
                  "name": "studyProgramIds",
                  "type": "uint256[]"
                }
              ],
              "internalType": "struct UserDataTypes.UserProfile",
              "name": "profile",
              "type": "tuple"
            }
          ],
          "internalType": "struct UserDataTypes.User[]",
          "name": "",
          "type": "tuple[]"
        }
      ],
      "stateMutability": "view",
      "type": "function"
    },
    {
      "inputs": [],
      "name": "getPendingRegistration",
      "outputs": [
        {
          "components": [
            {
              "internalType": "address",
              "name": "userAddress",
              "type": "address"
            },
            {
              "internalType": "enum UserDataTypes.RegistrationStatus",
              "name": "status",
              "type": "uint8"
            },
            {
              "components": [
                {
                  "internalType": "string",
                  "name": "firstName",
                  "type": "string"
                },
                {
                  "internalType": "string",
                  "name": "lastName",
                  "type": "string"
                },
                {
                  "internalType": "enum UserDataTypes.Gender",
                  "name": "gender",
                  "type": "uint8"
                },
                {
                  "components": [
                    {
                      "internalType": "uint256",
                      "name": "year",
                      "type": "uint256"
                    },
                    {
                      "internalType": "uint256",
                      "name": "month",
                      "type": "uint256"
                    },
                    {
                      "internalType": "uint256",
                      "name": "day",
                      "type": "uint256"
                    }
                  ],
                  "internalType": "struct UserDataTypes.Date",
                  "name": "dateOfBirth",
                  "type": "tuple"
                },
                {
                  "internalType": "string",
                  "name": "nationality",
                  "type": "string"
                },
                {
                  "internalType": "string",
                  "name": "phoneNumber",
                  "type": "string"
                },
                {
                  "internalType": "string",
                  "name": "emailAddress",
                  "type": "string"
                },
                {
                  "internalType": "enum UserDataTypes.UserRole",
                  "name": "role",
                  "type": "uint8"
                },
                {
                  "internalType": "uint256[]",
                  "name": "studyProgramIds",
                  "type": "uint256[]"
                }
              ],
              "internalType": "struct UserDataTypes.UserProfile",
              "name": "profile",
              "type": "tuple"
            }
          ],
          "internalType": "struct UserDataTypes.Registration",
          "name": "",
          "type": "tuple"
        }
      ],
      "stateMutability": "view",
      "type": "function"
    },
    {
      "inputs": [],
      "name": "getPendingRegistrations",
      "outputs": [
        {
          "components": [
            {
              "internalType": "address",
              "name": "userAddress",
              "type": "address"
            },
            {
              "internalType": "enum UserDataTypes.RegistrationStatus",
              "name": "status",
              "type": "uint8"
            },
            {
              "components": [
                {
                  "internalType": "string",
                  "name": "firstName",
                  "type": "string"
                },
                {
                  "internalType": "string",
                  "name": "lastName",
                  "type": "string"
                },
                {
                  "internalType": "enum UserDataTypes.Gender",
                  "name": "gender",
                  "type": "uint8"
                },
                {
                  "components": [
                    {
                      "internalType": "uint256",
                      "name": "year",
                      "type": "uint256"
                    },
                    {
                      "internalType": "uint256",
                      "name": "month",
                      "type": "uint256"
                    },
                    {
                      "internalType": "uint256",
                      "name": "day",
                      "type": "uint256"
                    }
                  ],
                  "internalType": "struct UserDataTypes.Date",
                  "name": "dateOfBirth",
                  "type": "tuple"
                },
                {
                  "internalType": "string",
                  "name": "nationality",
                  "type": "string"
                },
                {
                  "internalType": "string",
                  "name": "phoneNumber",
                  "type": "string"
                },
                {
                  "internalType": "string",
                  "name": "emailAddress",
                  "type": "string"
                },
                {
                  "internalType": "enum UserDataTypes.UserRole",
                  "name": "role",
                  "type": "uint8"
                },
                {
                  "internalType": "uint256[]",
                  "name": "studyProgramIds",
                  "type": "uint256[]"
                }
              ],
              "internalType": "struct UserDataTypes.UserProfile",
              "name": "profile",
              "type": "tuple"
            }
          ],
          "internalType": "struct UserDataTypes.Registration[]",
          "name": "",
          "type": "tuple[]"
        }
      ],
      "stateMutability": "view",
      "type": "function"
    },
    {
      "inputs": [],
      "name": "getProfile",
      "outputs": [
        {
          "components": [
            {
              "internalType": "string",
              "name": "firstName",
              "type": "string"
            },
            {
              "internalType": "string",
              "name": "lastName",
              "type": "string"
            },
            {
              "internalType": "enum UserDataTypes.Gender",
              "name": "gender",
              "type": "uint8"
            },
            {
              "components": [
                {
                  "internalType": "uint256",
                  "name": "year",
                  "type": "uint256"
                },
                {
                  "internalType": "uint256",
                  "name": "month",
                  "type": "uint256"
                },
                {
                  "internalType": "uint256",
                  "name": "day",
                  "type": "uint256"
                }
              ],
              "internalType": "struct UserDataTypes.Date",
              "name": "dateOfBirth",
              "type": "tuple"
            },
            {
              "internalType": "string",
              "name": "nationality",
              "type": "string"
            },
            {
              "internalType": "string",
              "name": "phoneNumber",
              "type": "string"
            },
            {
              "internalType": "string",
              "name": "emailAddress",
              "type": "string"
            },
            {
              "internalType": "enum UserDataTypes.UserRole",
              "name": "role",
              "type": "uint8"
            },
            {
              "internalType": "uint256[]",
              "name": "studyProgramIds",
              "type": "uint256[]"
            }
          ],
          "internalType": "struct UserDataTypes.UserProfile",
          "name": "",
          "type": "tuple"
        }
      ],
      "stateMutability": "view",
      "type": "function"
    },
    {
      "inputs": [],
      "name": "getUserRole",
      "outputs": [
        {
          "internalType": "enum UserDataTypes.UserRole",
          "name": "",
          "type": "uint8"
        }
      ],
      "stateMutability": "view",
      "type": "function"
    },
    {
      "inputs": [],
      "name": "isUserRegistered",
      "outputs": [
        {
          "internalType": "bool",
          "name": "",
          "type": "bool"
        }
      ],
      "stateMutability": "view",
      "type": "function"
    },
    {
      "inputs": [],
      "name": "isUserRegistrationPending",
      "outputs": [
        {
          "internalType": "bool",
          "name": "",
          "type": "bool"
        }
      ],
      "stateMutability": "view",
      "type": "function"
    }
  ],
  "bytecode": "0x60806040523480156200001157600080fd5b506040516200204b3803806200204b8339818101604052810190620000379190620000ec565b8080806000806101000a81548173ffffffffffffffffffffffffffffffffffffffff021916908373ffffffffffffffffffffffffffffffffffffffff1602179055505050506200011e565b600080fd5b600073ffffffffffffffffffffffffffffffffffffffff82169050919050565b6000620000b48262000087565b9050919050565b620000c681620000a7565b8114620000d257600080fd5b50565b600081519050620000e681620000bb565b92915050565b60006020828403121562000105576200010462000082565b5b60006200011584828501620000d5565b91505092915050565b611f1d806200012e6000396000f3fe608060405234801561001057600080fd5b506004361061007d5760003560e01c80639dedeb821161005b5780639dedeb82146100dc578063bf04a10d146100fa578063d6afc9b114610118578063e2842d79146101365761007d565b806320f3665614610082578063873138f3146100a05780638f0306e6146100be575b600080fd5b61008a610154565b6040516100979190610b38565b60405180910390f35b6100a86101dc565b6040516100b59190610b38565b60405180910390f35b6100c6610264565b6040516100d39190610f6f565b60405180910390f35b6100e46102f7565b6040516100f191906110a3565b60405180910390f35b610102610467565b60405161010f91906110d4565b60405180910390f35b6101206104ef565b60405161012d91906111d9565b60405180910390f35b61013e610610565b60405161014b91906112fa565b60405180910390f35b600061015e61082f565b73ffffffffffffffffffffffffffffffffffffffff16632ad7397e336040518263ffffffff1660e01b8152600401610196919061132b565b602060405180830381865afa1580156101b3573d6000803e3d6000fd5b505050506040513d601f19601f820116820180604052508101906101d79190611386565b905090565b60006101e66108d2565b73ffffffffffffffffffffffffffffffffffffffff166338b6a3a1336040518263ffffffff1660e01b815260040161021e919061132b565b602060405180830381865afa15801561023b573d6000803e3d6000fd5b505050506040513d601f19601f8201168201806040525081019061025f9190611386565b905090565b61026c610a37565b61027461082f565b73ffffffffffffffffffffffffffffffffffffffff1663f5bf01fb336040518263ffffffff1660e01b81526004016102ac919061132b565b600060405180830381865afa1580156102c9573d6000803e3d6000fd5b505050506040513d6000823e3d601f19601f820116820180604052508101906102f291906118e0565b905090565b6060610301610975565b60028081111561031457610313610b94565b5b61031c6108d2565b73ffffffffffffffffffffffffffffffffffffffff1663dd8b2914336040518263ffffffff1660e01b8152600401610354919061132b565b602060405180830381865afa158015610371573d6000803e3d6000fd5b505050506040513d601f19601f820116820180604052508101906103959190611929565b60028111156103a7576103a6610b94565b5b146103e7576040517f08c379a00000000000000000000000000000000000000000000000000000000081526004016103de906119d9565b60405180910390fd5b6103ef61082f565b73ffffffffffffffffffffffffffffffffffffffff1663745fb1296040518163ffffffff1660e01b8152600401600060405180830381865afa158015610439573d6000803e3d6000fd5b505050506040513d6000823e3d601f19601f820116820180604052508101906104629190611ada565b905090565b60006104716108d2565b73ffffffffffffffffffffffffffffffffffffffff1663dd8b2914336040518263ffffffff1660e01b81526004016104a9919061132b565b602060405180830381865afa1580156104c6573d6000803e3d6000fd5b505050506040513d601f19601f820116820180604052508101906104ea9190611929565b905090565b6104f7610a86565b6104ff610975565b60006105096108d2565b73ffffffffffffffffffffffffffffffffffffffff1663e3d7e14c336040518263ffffffff1660e01b8152600401610541919061132b565b602060405180830381865afa15801561055e573d6000803e3d6000fd5b505050506040513d601f19601f820116820180604052508101906105829190611b23565b905061058c6108d2565b73ffffffffffffffffffffffffffffffffffffffff1663f08f4f64826040518263ffffffff1660e01b81526004016105c49190611b5f565b600060405180830381865afa1580156105e1573d6000803e3d6000fd5b505050506040513d6000823e3d601f19601f8201168201806040525081019061060a9190611b7a565b91505090565b606061061a610975565b6001600281111561062e5761062d610b94565b5b6106366108d2565b73ffffffffffffffffffffffffffffffffffffffff1663dd8b2914336040518263ffffffff1660e01b815260040161066e919061132b565b602060405180830381865afa15801561068b573d6000803e3d6000fd5b505050506040513d601f19601f820116820180604052508101906106af9190611929565b60028111156106c1576106c0610b94565b5b148061077057506002808111156106db576106da610b94565b5b6106e36108d2565b73ffffffffffffffffffffffffffffffffffffffff1663dd8b2914336040518263ffffffff1660e01b815260040161071b919061132b565b602060405180830381865afa158015610738573d6000803e3d6000fd5b505050506040513d601f19601f8201168201806040525081019061075c9190611929565b600281111561076e5761076d610b94565b5b145b6107af576040517f08c379a00000000000000000000000000000000000000000000000000000000081526004016107a690611c35565b60405180910390fd5b6107b76108d2565b73ffffffffffffffffffffffffffffffffffffffff1663e2842d796040518163ffffffff1660e01b8152600401600060405180830381865afa158015610801573d6000803e3d6000fd5b505050506040513d6000823e3d601f19601f8201168201806040525081019061082a9190611da2565b905090565b60008060009054906101000a900473ffffffffffffffffffffffffffffffffffffffff1673ffffffffffffffffffffffffffffffffffffffff1663bcaa0c5560056040518263ffffffff1660e01b815260040161088c9190611e33565b602060405180830381865afa1580156108a9573d6000803e3d6000fd5b505050506040513d601f19601f820116820180604052508101906108cd9190611e4e565b905090565b60008060009054906101000a900473ffffffffffffffffffffffffffffffffffffffff1673ffffffffffffffffffffffffffffffffffffffff1663bcaa0c5560026040518263ffffffff1660e01b815260040161092f9190611e33565b602060405180830381865afa15801561094c573d6000803e3d6000fd5b505050506040513d601f19601f820116820180604052508101906109709190611e4e565b905090565b61097d6108d2565b73ffffffffffffffffffffffffffffffffffffffff166338b6a3a1336040518263ffffffff1660e01b81526004016109b5919061132b565b602060405180830381865afa1580156109d2573d6000803e3d6000fd5b505050506040513d601f19601f820116820180604052508101906109f69190611386565b610a35576040517f08c379a0000000000000000000000000000000000000000000000000000000008152600401610a2c90611ec7565b60405180910390fd5b565b6040518060600160405280600073ffffffffffffffffffffffffffffffffffffffff16815260200160006002811115610a7357610a72610b94565b5b8152602001610a80610a86565b81525090565b604051806101200160405280606081526020016060815260200160006002811115610ab457610ab3610b94565b5b8152602001610ac1610afc565b815260200160608152602001606081526020016060815260200160006002811115610aef57610aee610b94565b5b8152602001606081525090565b60405180606001604052806000815260200160008152602001600081525090565b60008115159050919050565b610b3281610b1d565b82525050565b6000602082019050610b4d6000830184610b29565b92915050565b600073ffffffffffffffffffffffffffffffffffffffff82169050919050565b6000610b7e82610b53565b9050919050565b610b8e81610b73565b82525050565b7f4e487b7100000000000000000000000000000000000000000000000000000000600052602160045260246000fd5b60038110610bd457610bd3610b94565b5b50565b6000819050610be582610bc3565b919050565b6000610bf582610bd7565b9050919050565b610c0581610bea565b82525050565b600081519050919050565b600082825260208201905092915050565b60005b83811015610c45578082015181840152602081019050610c2a565b60008484015250505050565b6000601f19601f8301169050919050565b6000610c6d82610c0b565b610c778185610c16565b9350610c87818560208601610c27565b610c9081610c51565b840191505092915050565b60038110610cac57610cab610b94565b5b50565b6000819050610cbd82610c9b565b919050565b6000610ccd82610caf565b9050919050565b610cdd81610cc2565b82525050565b6000819050919050565b610cf681610ce3565b82525050565b606082016000820151610d126000850182610ced565b506020820151610d256020850182610ced565b506040820151610d386040850182610ced565b50505050565b60038110610d4f57610d4e610b94565b5b50565b6000819050610d6082610d3e565b919050565b6000610d7082610d52565b9050919050565b610d8081610d65565b82525050565b600081519050919050565b600082825260208201905092915050565b6000819050602082019050919050565b6000610dbe8383610ced565b60208301905092915050565b6000602082019050919050565b6000610de282610d86565b610dec8185610d91565b9350610df783610da2565b8060005b83811015610e28578151610e0f8882610db2565b9750610e1a83610dca565b925050600181019050610dfb565b5085935050505092915050565b6000610160830160008301518482036000860152610e538282610c62565b91505060208301518482036020860152610e6d8282610c62565b9150506040830151610e826040860182610cd4565b506060830151610e956060860182610cfc565b50608083015184820360c0860152610ead8282610c62565b91505060a083015184820360e0860152610ec78282610c62565b91505060c0830151848203610100860152610ee28282610c62565b91505060e0830151610ef8610120860182610d77565b50610100830151848203610140860152610f128282610dd7565b9150508091505092915050565b6000606083016000830151610f376000860182610b85565b506020830151610f4a6020860182610bfc565b5060408301518482036040860152610f628282610e35565b9150508091505092915050565b60006020820190508181036000830152610f898184610f1f565b905092915050565b600081519050919050565b600082825260208201905092915050565b6000819050602082019050919050565b6000606083016000830151610fd56000860182610b85565b506020830151610fe86020860182610bfc565b50604083015184820360408601526110008282610e35565b9150508091505092915050565b60006110198383610fbd565b905092915050565b6000602082019050919050565b600061103982610f91565b6110438185610f9c565b93508360208202850161105585610fad565b8060005b858110156110915784840389528151611072858261100d565b945061107d83611021565b925060208a01995050600181019050611059565b50829750879550505050505092915050565b600060208201905081810360008301526110bd818461102e565b905092915050565b6110ce81610d65565b82525050565b60006020820190506110e960008301846110c5565b92915050565b600061016083016000830151848203600086015261110d8282610c62565b915050602083015184820360208601526111278282610c62565b915050604083015161113c6040860182610cd4565b50606083015161114f6060860182610cfc565b50608083015184820360c08601526111678282610c62565b91505060a083015184820360e08601526111818282610c62565b91505060c083015184820361010086015261119c8282610c62565b91505060e08301516111b2610120860182610d77565b506101008301518482036101408601526111cc8282610dd7565b9150508091505092915050565b600060208201905081810360008301526111f381846110ef565b905092915050565b600081519050919050565b600082825260208201905092915050565b6000819050602082019050919050565b600060408301600083015161123f6000860182610ced565b50602083015184820360208601526112578282610e35565b9150508091505092915050565b60006112708383611227565b905092915050565b6000602082019050919050565b6000611290826111fb565b61129a8185611206565b9350836020820285016112ac85611217565b8060005b858110156112e857848403895281516112c98582611264565b94506112d483611278565b925060208a019950506001810190506112b0565b50829750879550505050505092915050565b600060208201905081810360008301526113148184611285565b905092915050565b61132581610b73565b82525050565b6000602082019050611340600083018461131c565b92915050565b6000604051905090565b600080fd5b600080fd5b61136381610b1d565b811461136e57600080fd5b50565b6000815190506113808161135a565b92915050565b60006020828403121561139c5761139b611350565b5b60006113aa84828501611371565b91505092915050565b600080fd5b7f4e487b7100000000000000000000000000000000000000000000000000000000600052604160045260246000fd5b6113f082610c51565b810181811067ffffffffffffffff8211171561140f5761140e6113b8565b5b80604052505050565b6000611422611346565b905061142e82826113e7565b919050565b600080fd5b61144181610b73565b811461144c57600080fd5b50565b60008151905061145e81611438565b92915050565b6003811061147157600080fd5b50565b60008151905061148381611464565b92915050565b600080fd5b600080fd5b600067ffffffffffffffff8211156114ae576114ad6113b8565b5b6114b782610c51565b9050602081019050919050565b60006114d76114d284611493565b611418565b9050828152602081018484840111156114f3576114f261148e565b5b6114fe848285610c27565b509392505050565b600082601f83011261151b5761151a611489565b5b815161152b8482602086016114c4565b91505092915050565b6003811061154157600080fd5b50565b60008151905061155381611534565b92915050565b61156281610ce3565b811461156d57600080fd5b50565b60008151905061157f81611559565b92915050565b60006060828403121561159b5761159a6113b3565b5b6115a56060611418565b905060006115b584828501611570565b60008301525060206115c984828501611570565b60208301525060406115dd84828501611570565b60408301525092915050565b600381106115f657600080fd5b50565b600081519050611608816115e9565b92915050565b600067ffffffffffffffff821115611629576116286113b8565b5b602082029050602081019050919050565b600080fd5b600061165261164d8461160e565b611418565b905080838252602082019050602084028301858111156116755761167461163a565b5b835b8181101561169e578061168a8882611570565b845260208401935050602081019050611677565b5050509392505050565b600082601f8301126116bd576116bc611489565b5b81516116cd84826020860161163f565b91505092915050565b600061016082840312156116ed576116ec6113b3565b5b6116f8610120611418565b9050600082015167ffffffffffffffff81111561171857611717611433565b5b61172484828501611506565b600083015250602082015167ffffffffffffffff81111561174857611747611433565b5b61175484828501611506565b602083015250604061176884828501611544565b604083015250606061177c84828501611585565b60608301525060c082015167ffffffffffffffff8111156117a05761179f611433565b5b6117ac84828501611506565b60808301525060e082015167ffffffffffffffff8111156117d0576117cf611433565b5b6117dc84828501611506565b60a08301525061010082015167ffffffffffffffff81111561180157611800611433565b5b61180d84828501611506565b60c083015250610120611822848285016115f9565b60e08301525061014082015167ffffffffffffffff81111561184757611846611433565b5b611853848285016116a8565b6101008301525092915050565b600060608284031215611876576118756113b3565b5b6118806060611418565b905060006118908482850161144f565b60008301525060206118a484828501611474565b602083015250604082015167ffffffffffffffff8111156118c8576118c7611433565b5b6118d4848285016116d6565b60408301525092915050565b6000602082840312156118f6576118f5611350565b5b600082015167ffffffffffffffff81111561191457611913611355565b5b61192084828501611860565b91505092915050565b60006020828403121561193f5761193e611350565b5b600061194d848285016115f9565b91505092915050565b600082825260208201905092915050565b7f53656e646572206d75737420626520612073747564792070726f6772616d206d60008201527f616e616765720000000000000000000000000000000000000000000000000000602082015250565b60006119c3602683611956565b91506119ce82611967565b604082019050919050565b600060208201905081810360008301526119f2816119b6565b9050919050565b600067ffffffffffffffff821115611a1457611a136113b8565b5b602082029050602081019050919050565b6000611a38611a33846119f9565b611418565b90508083825260208201905060208402830185811115611a5b57611a5a61163a565b5b835b81811015611aa257805167ffffffffffffffff811115611a8057611a7f611489565b5b808601611a8d8982611860565b85526020850194505050602081019050611a5d565b5050509392505050565b600082601f830112611ac157611ac0611489565b5b8151611ad1848260208601611a25565b91505092915050565b600060208284031215611af057611aef611350565b5b600082015167ffffffffffffffff811115611b0e57611b0d611355565b5b611b1a84828501611aac565b91505092915050565b600060208284031215611b3957611b38611350565b5b6000611b4784828501611570565b91505092915050565b611b5981610ce3565b82525050565b6000602082019050611b746000830184611b50565b92915050565b600060208284031215611b9057611b8f611350565b5b600082015167ffffffffffffffff811115611bae57611bad611355565b5b611bba848285016116d6565b91505092915050565b7f53656e646572206d757374206265206c65637475726572206f7220737475647960008201527f2070726f6772616d206d616e6167657200000000000000000000000000000000602082015250565b6000611c1f603083611956565b9150611c2a82611bc3565b604082019050919050565b60006020820190508181036000830152611c4e81611c12565b9050919050565b600067ffffffffffffffff821115611c7057611c6f6113b8565b5b602082029050602081019050919050565b600060408284031215611c9757611c966113b3565b5b611ca16040611418565b90506000611cb184828501611570565b600083015250602082015167ffffffffffffffff811115611cd557611cd4611433565b5b611ce1848285016116d6565b60208301525092915050565b6000611d00611cfb84611c55565b611418565b90508083825260208201905060208402830185811115611d2357611d2261163a565b5b835b81811015611d6a57805167ffffffffffffffff811115611d4857611d47611489565b5b808601611d558982611c81565b85526020850194505050602081019050611d25565b5050509392505050565b600082601f830112611d8957611d88611489565b5b8151611d99848260208601611ced565b91505092915050565b600060208284031215611db857611db7611350565b5b600082015167ffffffffffffffff811115611dd657611dd5611355565b5b611de284828501611d74565b91505092915050565b60068110611dfc57611dfb610b94565b5b50565b6000819050611e0d82611deb565b919050565b6000611e1d82611dff565b9050919050565b611e2d81611e12565b82525050565b6000602082019050611e486000830184611e24565b92915050565b600060208284031215611e6457611e63611350565b5b6000611e728482850161144f565b91505092915050565b7f53656e646572206d757374206265206120726567697374657265642075736572600082015250565b6000611eb1602083611956565b9150611ebc82611e7b565b602082019050919050565b60006020820190508181036000830152611ee081611ea4565b905091905056fea2646970667358221220bb171072d2024898e6e3427ab2f24441f60e8a1baf101f612b23d9ff305efca564736f6c63430008110033",
  "linkReferences": {},
  "deployedLinkReferences": {}
}