{
  "_format": "hh-sol-artifact-1",
  "contractName": "CourseController",
  "sourceName": "contracts/logic/CourseController.sol",
  "abi": [
    {
      "inputs": [
        {
          "internalType": "address",
          "name": "addressBookAddress",
          "type": "address"
        }
      ],
      "stateMutability": "nonpayable",
      "type": "constructor"
    },
    {
      "inputs": [
        {
          "internalType": "uint256",
          "name": "courseId",
          "type": "uint256"
        },
        {
          "internalType": "uint256",
          "name": "studentUId",
          "type": "uint256"
        }
      ],
      "name": "addStudentToCourse",
      "outputs": [],
      "stateMutability": "nonpayable",
      "type": "function"
    },
    {
      "inputs": [
        {
          "components": [
            {
              "internalType": "string",
              "name": "title",
              "type": "string"
            },
            {
              "internalType": "string",
              "name": "code",
              "type": "string"
            },
            {
              "internalType": "enum CourseDataTypes.CourseType",
              "name": "courseType",
              "type": "uint8"
            },
            {
              "components": [
                {
                  "internalType": "uint256",
                  "name": "year",
                  "type": "uint256"
                },
                {
                  "internalType": "enum CourseDataTypes.SemesterSeason",
                  "name": "season",
                  "type": "uint8"
                }
              ],
              "internalType": "struct CourseDataTypes.Semester",
              "name": "semester",
              "type": "tuple"
            },
            {
              "internalType": "string",
              "name": "description",
              "type": "string"
            },
            {
              "internalType": "string",
              "name": "examTopics",
              "type": "string"
            },
            {
              "internalType": "string",
              "name": "language",
              "type": "string"
            },
            {
              "internalType": "uint256",
              "name": "ects",
              "type": "uint256"
            },
            {
              "internalType": "uint256",
              "name": "maxPlaces",
              "type": "uint256"
            },
            {
              "internalType": "uint256",
              "name": "registrationStart",
              "type": "uint256"
            },
            {
              "internalType": "uint256",
              "name": "registrationDeadline",
              "type": "uint256"
            },
            {
              "internalType": "uint256",
              "name": "deregistrationDeadline",
              "type": "uint256"
            },
            {
              "components": [
                {
                  "internalType": "uint256",
                  "name": "datetime",
                  "type": "uint256"
                },
                {
                  "internalType": "string",
                  "name": "place",
                  "type": "string"
                }
              ],
              "internalType": "struct CourseDataTypes.Class[]",
              "name": "classes",
              "type": "tuple[]"
            },
            {
              "components": [
                {
                  "internalType": "uint256",
                  "name": "grade",
                  "type": "uint256"
                },
                {
                  "internalType": "uint256",
                  "name": "minPercentage",
                  "type": "uint256"
                }
              ],
              "internalType": "struct CourseDataTypes.GradeLevel[]",
              "name": "gradeLevels",
              "type": "tuple[]"
            },
            {
              "internalType": "string[]",
              "name": "requirementCourseCodes",
              "type": "string[]"
            }
          ],
          "internalType": "struct CourseDataTypes.CourseContent",
          "name": "courseContent",
          "type": "tuple"
        },
        {
          "components": [
            {
              "internalType": "string",
              "name": "title",
              "type": "string"
            },
            {
              "internalType": "uint256",
              "name": "datetime",
              "type": "uint256"
            },
            {
              "internalType": "string",
              "name": "place",
              "type": "string"
            },
            {
              "internalType": "enum CourseDataTypes.AssessmentType",
              "name": "assessmentType",
              "type": "uint8"
            },
            {
              "internalType": "uint256",
              "name": "maxPoints",
              "type": "uint256"
            },
            {
              "internalType": "uint256",
              "name": "minPoints",
              "type": "uint256"
            },
            {
              "internalType": "bool",
              "name": "isRegistrationRequired",
              "type": "bool"
            },
            {
              "internalType": "uint256",
              "name": "registrationStart",
              "type": "uint256"
            },
            {
              "internalType": "uint256",
              "name": "registrationDeadline",
              "type": "uint256"
            },
            {
              "internalType": "uint256",
              "name": "deregistrationDeadline",
              "type": "uint256"
            }
          ],
          "internalType": "struct CourseDataTypes.AssessmentContent[]",
          "name": "assessmentContents",
          "type": "tuple[]"
        },
        {
          "internalType": "uint256[]",
          "name": "lecturerUIds",
          "type": "uint256[]"
        },
        {
          "internalType": "uint256[]",
          "name": "studyProgramIds",
          "type": "uint256[]"
        }
      ],
      "name": "createNewCourse",
      "outputs": [],
      "stateMutability": "nonpayable",
      "type": "function"
    },
    {
      "inputs": [
        {
          "internalType": "uint256",
          "name": "assessmentId",
          "type": "uint256"
        }
      ],
      "name": "deregisterFromAssessment",
      "outputs": [],
      "stateMutability": "nonpayable",
      "type": "function"
    },
    {
      "inputs": [
        {
          "internalType": "uint256",
          "name": "courseId",
          "type": "uint256"
        }
      ],
      "name": "deregisterFromCourse",
      "outputs": [],
      "stateMutability": "nonpayable",
      "type": "function"
    },
    {
      "inputs": [
        {
          "internalType": "uint256",
          "name": "assessmentId",
          "type": "uint256"
        }
      ],
      "name": "registerToAssessment",
      "outputs": [],
      "stateMutability": "nonpayable",
      "type": "function"
    },
    {
      "inputs": [
        {
          "internalType": "uint256",
          "name": "courseId",
          "type": "uint256"
        }
      ],
      "name": "registerToCourse",
      "outputs": [],
      "stateMutability": "nonpayable",
      "type": "function"
    },
    {
      "inputs": [
        {
          "internalType": "uint256",
          "name": "courseId",
          "type": "uint256"
        },
        {
          "internalType": "uint256",
          "name": "studentUId",
          "type": "uint256"
        }
      ],
      "name": "removeStudentFromCourse",
      "outputs": [],
      "stateMutability": "nonpayable",
      "type": "function"
    }
  ],
  "bytecode": "0x60806040523480156200001157600080fd5b50604051620049a4380380620049a48339818101604052810190620000379190620000ec565b8080806000806101000a81548173ffffffffffffffffffffffffffffffffffffffff021916908373ffffffffffffffffffffffffffffffffffffffff1602179055505050506200011e565b600080fd5b600073ffffffffffffffffffffffffffffffffffffffff82169050919050565b6000620000b48262000087565b9050919050565b620000c681620000a7565b8114620000d257600080fd5b50565b600081519050620000e681620000bb565b92915050565b60006020828403121562000105576200010462000082565b5b60006200011584828501620000d5565b91505092915050565b614876806200012e6000396000f3fe608060405234801561001057600080fd5b506004361061007d5760003560e01c806340b855301161005b57806340b85530146100d65780634683dfc9146100f25780636c314ea51461010e5780637c9f444e1461012a5761007d565b806320b19cbe14610082578063348c42291461009e5780633aa41d7a146100ba575b600080fd5b61009c6004803603810190610097919061266d565b610146565b005b6100b860048036038101906100b391906126ad565b610242565b005b6100d460048036038101906100cf91906126ad565b610661565b005b6100f060048036038101906100eb91906127ba565b6109e7565b005b61010c600480360381019061010791906126ad565b610f38565b005b610128600480360381019061012391906126ad565b61119d565b005b610144600480360381019061013f919061266d565b6119f6565b005b61014e611b03565b6002808111156101615761016061289f565b5b610169611bc5565b73ffffffffffffffffffffffffffffffffffffffff1663dd8b2914336040518263ffffffff1660e01b81526004016101a1919061290f565b602060405180830381865afa1580156101be573d6000803e3d6000fd5b505050506040513d601f19601f820116820180604052508101906101e2919061294f565b60028111156101f4576101f361289f565b5b14610234576040517f08c379a000000000000000000000000000000000000000000000000000000000815260040161022b906129ff565b60405180910390fd5b61023e8282611c68565b5050565b61024a611b03565b6000600281111561025e5761025d61289f565b5b610266611bc5565b73ffffffffffffffffffffffffffffffffffffffff1663dd8b2914336040518263ffffffff1660e01b815260040161029e919061290f565b602060405180830381865afa1580156102bb573d6000803e3d6000fd5b505050506040513d601f19601f820116820180604052508101906102df919061294f565b60028111156102f1576102f061289f565b5b14610331576040517f08c379a000000000000000000000000000000000000000000000000000000000815260040161032890612a6b565b60405180910390fd5b600061033b611bc5565b73ffffffffffffffffffffffffffffffffffffffff1663e3d7e14c336040518263ffffffff1660e01b8152600401610373919061290f565b602060405180830381865afa158015610390573d6000803e3d6000fd5b505050506040513d601f19601f820116820180604052508101906103b49190612aa0565b905060006103c0611ecc565b73ffffffffffffffffffffffffffffffffffffffff1663a31cf91f846040518263ffffffff1660e01b81526004016103f89190612adc565b602060405180830381865afa158015610415573d6000803e3d6000fd5b505050506040513d601f19601f820116820180604052508101906104399190612aa0565b905061044d8282610448611f6f565b612012565b610455611ecc565b73ffffffffffffffffffffffffffffffffffffffff166323ff178583856040518363ffffffff1660e01b815260040161048f929190612af7565b602060405180830381865afa1580156104ac573d6000803e3d6000fd5b505050506040513d601f19601f820116820180604052508101906104d09190612b58565b15610510576040517f08c379a000000000000000000000000000000000000000000000000000000000815260040161050790612bf7565b60405180910390fd5b60008061051b611ecc565b73ffffffffffffffffffffffffffffffffffffffff1663d8d50641866040518263ffffffff1660e01b81526004016105539190612adc565b6040805180830381865afa15801561056f573d6000803e3d6000fd5b505050506040513d601f19601f820116820180604052508101906105939190612c17565b915091508142101580156105a75750804211155b6105e6576040517f08c379a00000000000000000000000000000000000000000000000000000000081526004016105dd90612cc9565b60405180910390fd5b6105ee611ecc565b73ffffffffffffffffffffffffffffffffffffffff16632b00d6ca86866040518363ffffffff1660e01b8152600401610628929190612af7565b600060405180830381600087803b15801561064257600080fd5b505af1158015610656573d6000803e3d6000fd5b505050505050505050565b610669611b03565b6000600281111561067d5761067c61289f565b5b610685611bc5565b73ffffffffffffffffffffffffffffffffffffffff1663dd8b2914336040518263ffffffff1660e01b81526004016106bd919061290f565b602060405180830381865afa1580156106da573d6000803e3d6000fd5b505050506040513d601f19601f820116820180604052508101906106fe919061294f565b60028111156107105761070f61289f565b5b14610750576040517f08c379a000000000000000000000000000000000000000000000000000000000815260040161074790612a6b565b60405180910390fd5b600061075a611bc5565b73ffffffffffffffffffffffffffffffffffffffff1663e3d7e14c336040518263ffffffff1660e01b8152600401610792919061290f565b602060405180830381865afa1580156107af573d6000803e3d6000fd5b505050506040513d601f19601f820116820180604052508101906107d39190612aa0565b90506107dd611ecc565b73ffffffffffffffffffffffffffffffffffffffff166323ff178582846040518363ffffffff1660e01b8152600401610817929190612af7565b602060405180830381865afa158015610834573d6000803e3d6000fd5b505050506040513d601f19601f820116820180604052508101906108589190612b58565b610897576040517f08c379a000000000000000000000000000000000000000000000000000000000815260040161088e90612d5b565b60405180910390fd5b6000806108a2611ecc565b73ffffffffffffffffffffffffffffffffffffffff166360dcaa46856040518263ffffffff1660e01b81526004016108da9190612adc565b6040805180830381865afa1580156108f6573d6000803e3d6000fd5b505050506040513d601f19601f8201168201806040525081019061091a9190612c17565b9150915081421015801561092e5750804211155b61096d576040517f08c379a000000000000000000000000000000000000000000000000000000000815260040161096490612ded565b60405180910390fd5b610975611ecc565b73ffffffffffffffffffffffffffffffffffffffff1663e0d0346e85856040518363ffffffff1660e01b81526004016109af929190612af7565b600060405180830381600087803b1580156109c957600080fd5b505af11580156109dd573d6000803e3d6000fd5b5050505050505050565b6109ef611b03565b60016002811115610a0357610a0261289f565b5b610a0b611bc5565b73ffffffffffffffffffffffffffffffffffffffff1663dd8b2914336040518263ffffffff1660e01b8152600401610a43919061290f565b602060405180830381865afa158015610a60573d6000803e3d6000fd5b505050506040513d601f19601f82011682018060405250810190610a84919061294f565b6002811115610a9657610a9561289f565b5b14610ad6576040517f08c379a0000000000000000000000000000000000000000000000000000000008152600401610acd90612e59565b60405180910390fd5b60005b84849050811015610bf55760016002811115610af857610af761289f565b5b610b00611bc5565b73ffffffffffffffffffffffffffffffffffffffff1663bdf3e912878785818110610b2e57610b2d612e79565b5b905060200201356040518263ffffffff1660e01b8152600401610b519190612adc565b602060405180830381865afa158015610b6e573d6000803e3d6000fd5b505050506040513d601f19601f82011682018060405250810190610b92919061294f565b6002811115610ba457610ba361289f565b5b14610be4576040517f08c379a0000000000000000000000000000000000000000000000000000000008152600401610bdb90612f1a565b60405180910390fd5b80610bee90612f69565b9050610ad9565b50600487806101c00190610c099190612fc0565b905014610c4b576040517f08c379a0000000000000000000000000000000000000000000000000000000008152600401610c42906130bb565b60405180910390fd5b60005b87806101c00190610c5f9190612fc0565b9050811015610d2d57610c9e88806101c00190610c7c9190612fc0565b83818110610c8d57610c8c612e79565b5b9050604002016000013560056120d2565b8015610cdd5750610cdb88806101c00190610cb99190612fc0565b83818110610cca57610cc9612e79565b5b9050604002016000013560016120d2565b155b610d1c576040517f08c379a0000000000000000000000000000000000000000000000000000000008152600401610d139061314d565b60405180910390fd5b80610d2690612f69565b9050610c4e565b506000610d38611f6f565b73ffffffffffffffffffffffffffffffffffffffff1663151c09f1896040518263ffffffff1660e01b8152600401610d70919061399e565b6020604051808303816000875af1158015610d8f573d6000803e3d6000fd5b505050506040513d601f19601f82011682018060405250810190610db39190612aa0565b9050610dbd611f6f565b73ffffffffffffffffffffffffffffffffffffffff16637499e5dc8287876040518463ffffffff1660e01b8152600401610df993929190613a3b565b600060405180830381600087803b158015610e1357600080fd5b505af1158015610e27573d6000803e3d6000fd5b50505050610e33611f6f565b73ffffffffffffffffffffffffffffffffffffffff166316d64af78285856040518463ffffffff1660e01b8152600401610e6f93929190613a3b565b600060405180830381600087803b158015610e8957600080fd5b505af1158015610e9d573d6000803e3d6000fd5b50505050610ea9611ecc565b73ffffffffffffffffffffffffffffffffffffffff1663dc58e4508289896040518463ffffffff1660e01b8152600401610ee593929190613d3a565b6000604051808303816000875af1158015610f04573d6000803e3d6000fd5b505050506040513d6000823e3d601f19601f82011682018060405250810190610f2d9190613eaa565b505050505050505050565b610f40611b03565b60006002811115610f5457610f5361289f565b5b610f5c611bc5565b73ffffffffffffffffffffffffffffffffffffffff1663dd8b2914336040518263ffffffff1660e01b8152600401610f94919061290f565b602060405180830381865afa158015610fb1573d6000803e3d6000fd5b505050506040513d601f19601f82011682018060405250810190610fd5919061294f565b6002811115610fe757610fe661289f565b5b14611027576040517f08c379a000000000000000000000000000000000000000000000000000000000815260040161101e90612a6b565b60405180910390fd5b6000611031611bc5565b73ffffffffffffffffffffffffffffffffffffffff1663e3d7e14c336040518263ffffffff1660e01b8152600401611069919061290f565b602060405180830381865afa158015611086573d6000803e3d6000fd5b505050506040513d601f19601f820116820180604052508101906110aa9190612aa0565b90506000806110b7611f6f565b73ffffffffffffffffffffffffffffffffffffffff16630e84e79c856040518263ffffffff1660e01b81526004016110ef9190612adc565b6040805180830381865afa15801561110b573d6000803e3d6000fd5b505050506040513d601f19601f8201168201806040525081019061112f9190612c17565b91509150600082148061114e575081421015801561114d5750804211155b5b61118d576040517f08c379a000000000000000000000000000000000000000000000000000000000815260040161118490613f65565b60405180910390fd5b6111978484611c68565b50505050565b6111a5611b03565b600060028111156111b9576111b861289f565b5b6111c1611bc5565b73ffffffffffffffffffffffffffffffffffffffff1663dd8b2914336040518263ffffffff1660e01b81526004016111f9919061290f565b602060405180830381865afa158015611216573d6000803e3d6000fd5b505050506040513d601f19601f8201168201806040525081019061123a919061294f565b600281111561124c5761124b61289f565b5b1461128c576040517f08c379a000000000000000000000000000000000000000000000000000000000815260040161128390612a6b565b60405180910390fd5b6000611296611bc5565b73ffffffffffffffffffffffffffffffffffffffff1663e3d7e14c336040518263ffffffff1660e01b81526004016112ce919061290f565b602060405180830381865afa1580156112eb573d6000803e3d6000fd5b505050506040513d601f19601f8201168201806040525081019061130f9190612aa0565b9050600061131b611f6f565b73ffffffffffffffffffffffffffffffffffffffff166348cd378c846040518263ffffffff1660e01b81526004016113539190612adc565b600060405180830381865afa158015611370573d6000803e3d6000fd5b505050506040513d6000823e3d601f19601f820116820180604052508101906113999190613eaa565b905060006113a5611bc5565b73ffffffffffffffffffffffffffffffffffffffff16634efe9cac846040518263ffffffff1660e01b81526004016113dd9190612adc565b600060405180830381865afa1580156113fa573d6000803e3d6000fd5b505050506040513d6000823e3d601f19601f820116820180604052508101906114239190613eaa565b90506000805b835181101561146e5761145684828151811061144857611447612e79565b5b6020026020010151846120df565b91508161146e578061146790612f69565b9050611429565b50806114af576040517f08c379a00000000000000000000000000000000000000000000000000000000081526004016114a69061401d565b60405180910390fd5b60006114b9611f6f565b73ffffffffffffffffffffffffffffffffffffffff1663ad21e07a876040518263ffffffff1660e01b81526004016114f19190612adc565b600060405180830381865afa15801561150e573d6000803e3d6000fd5b505050506040513d6000823e3d601f19601f8201168201806040525081019061153791906141ee565b905060005b81518110156117b857600061154f611f6f565b73ffffffffffffffffffffffffffffffffffffffff166389eb61df84848151811061157d5761157c612e79565b5b60200260200101516040518263ffffffff1660e01b81526004016115a1919061427b565b600060405180830381865afa1580156115be573d6000803e3d6000fd5b505050506040513d6000823e3d601f19601f820116820180604052508101906115e79190613eaa565b90506000805b8251811015611764576115fe6120f6565b73ffffffffffffffffffffffffffffffffffffffff166315fea7d58a85848151811061162d5761162c612e79565b5b60200260200101516040518363ffffffff1660e01b8152600401611652929190612af7565b602060405180830381865afa15801561166f573d6000803e3d6000fd5b505050506040513d601f19601f820116820180604052508101906116939190612b58565b801561174557506117446116a56120f6565b73ffffffffffffffffffffffffffffffffffffffff1663374a62a08b8685815181106116d4576116d3612e79565b5b60200260200101516040518363ffffffff1660e01b81526004016116f9929190612af7565b600060405180830381865afa158015611716573d6000803e3d6000fd5b505050506040513d6000823e3d601f19601f8201168201806040525081019061173f9190614363565b612199565b5b156117535760019150611764565b8061175d90612f69565b90506115ed565b50806117a5576040517f08c379a000000000000000000000000000000000000000000000000000000000815260040161179c9061441e565b60405180910390fd5b5050806117b190612f69565b905061153c565b506000806117c4611f6f565b73ffffffffffffffffffffffffffffffffffffffff1663ab342b8b896040518263ffffffff1660e01b81526004016117fc9190612adc565b6040805180830381865afa158015611818573d6000803e3d6000fd5b505050506040513d601f19601f8201168201806040525081019061183c9190612c17565b91509150600082148061185b575081421015801561185a5750804211155b5b61189a576040517f08c379a0000000000000000000000000000000000000000000000000000000008152600401611891906144b0565b60405180910390fd5b6118a2611f6f565b73ffffffffffffffffffffffffffffffffffffffff1663dddd64a0896040518263ffffffff1660e01b81526004016118da9190612adc565b602060405180830381865afa1580156118f7573d6000803e3d6000fd5b505050506040513d601f19601f8201168201806040525081019061191b9190612aa0565b611923611f6f565b73ffffffffffffffffffffffffffffffffffffffff16636f4f58788a6040518263ffffffff1660e01b815260040161195b9190612adc565b600060405180830381865afa158015611978573d6000803e3d6000fd5b505050506040513d6000823e3d601f19601f820116820180604052508101906119a19190613eaa565b51106119e2576040517f08c379a00000000000000000000000000000000000000000000000000000000081526004016119d990614542565b60405180910390fd5b6119ec88886121aa565b5050505050505050565b6119fe611b03565b600280811115611a1157611a1061289f565b5b611a19611bc5565b73ffffffffffffffffffffffffffffffffffffffff1663dd8b2914336040518263ffffffff1660e01b8152600401611a51919061290f565b602060405180830381865afa158015611a6e573d6000803e3d6000fd5b505050506040513d601f19601f82011682018060405250810190611a92919061294f565b6002811115611aa457611aa361289f565b5b14611ae4576040517f08c379a0000000000000000000000000000000000000000000000000000000008152600401611adb906129ff565b60405180910390fd5b611af581611af0611bc5565b6124c8565b611aff82826121aa565b5050565b611b0b611bc5565b73ffffffffffffffffffffffffffffffffffffffff166338b6a3a1336040518263ffffffff1660e01b8152600401611b43919061290f565b602060405180830381865afa158015611b60573d6000803e3d6000fd5b505050506040513d601f19601f82011682018060405250810190611b849190612b58565b611bc3576040517f08c379a0000000000000000000000000000000000000000000000000000000008152600401611bba906145ae565b60405180910390fd5b565b60008060009054906101000a900473ffffffffffffffffffffffffffffffffffffffff1673ffffffffffffffffffffffffffffffffffffffff1663bcaa0c5560026040518263ffffffff1660e01b8152600401611c229190614616565b602060405180830381865afa158015611c3f573d6000803e3d6000fd5b505050506040513d601f19601f82011682018060405250810190611c63919061465d565b905090565b611c7a8183611c75611f6f565b612012565b611c82611f6f565b73ffffffffffffffffffffffffffffffffffffffff166354ace6bc83836040518363ffffffff1660e01b8152600401611cbc929190612af7565b600060405180830381600087803b158015611cd657600080fd5b505af1158015611cea573d6000803e3d6000fd5b505050506000611cf8611ecc565b73ffffffffffffffffffffffffffffffffffffffff1663786e0785846040518263ffffffff1660e01b8152600401611d309190612adc565b600060405180830381865afa158015611d4d573d6000803e3d6000fd5b505050506040513d6000823e3d601f19601f82011682018060405250810190611d769190613eaa565b905060005b8151811015611ec657611d8c611ecc565b73ffffffffffffffffffffffffffffffffffffffff166323ff178584848481518110611dbb57611dba612e79565b5b60200260200101516040518363ffffffff1660e01b8152600401611de0929190612af7565b602060405180830381865afa158015611dfd573d6000803e3d6000fd5b505050506040513d601f19601f82011682018060405250810190611e219190612b58565b15611eb557611e2e611ecc565b73ffffffffffffffffffffffffffffffffffffffff1663e0d0346e838381518110611e5c57611e5b612e79565b5b6020026020010151856040518363ffffffff1660e01b8152600401611e82929190612af7565b600060405180830381600087803b158015611e9c57600080fd5b505af1158015611eb0573d6000803e3d6000fd5b505050505b80611ebf90612f69565b9050611d7b565b50505050565b60008060009054906101000a900473ffffffffffffffffffffffffffffffffffffffff1673ffffffffffffffffffffffffffffffffffffffff1663bcaa0c5560016040518263ffffffff1660e01b8152600401611f299190614616565b602060405180830381865afa158015611f46573d6000803e3d6000fd5b505050506040513d601f19601f82011682018060405250810190611f6a919061465d565b905090565b60008060009054906101000a900473ffffffffffffffffffffffffffffffffffffffff1673ffffffffffffffffffffffffffffffffffffffff1663bcaa0c5560006040518263ffffffff1660e01b8152600401611fcc9190614616565b602060405180830381865afa158015611fe9573d6000803e3d6000fd5b505050506040513d601f19601f8201168201806040525081019061200d919061465d565b905090565b8073ffffffffffffffffffffffffffffffffffffffff16633932708b84846040518363ffffffff1660e01b815260040161204d929190612af7565b602060405180830381865afa15801561206a573d6000803e3d6000fd5b505050506040513d601f19601f8201168201806040525081019061208e9190612b58565b6120cd576040517f08c379a00000000000000000000000000000000000000000000000000000000081526004016120c4906146fc565b60405180910390fd5b505050565b6000818310905092915050565b6000806120ec84846125ac565b1215905092915050565b60008060009054906101000a900473ffffffffffffffffffffffffffffffffffffffff1673ffffffffffffffffffffffffffffffffffffffff1663bcaa0c5560036040518263ffffffff1660e01b81526004016121539190614616565b602060405180830381865afa158015612170573d6000803e3d6000fd5b505050506040513d601f19601f82011682018060405250810190612194919061465d565b905090565b600060058260200151109050919050565b612239816121b6611f6f565b73ffffffffffffffffffffffffffffffffffffffff16636f4f5878856040518263ffffffff1660e01b81526004016121ee9190612adc565b600060405180830381865afa15801561220b573d6000803e3d6000fd5b505050506040513d6000823e3d601f19601f820116820180604052508101906122349190613eaa565b6120df565b15612279576040517f08c379a00000000000000000000000000000000000000000000000000000000081526004016122709061478e565b60405180910390fd5b612281611f6f565b73ffffffffffffffffffffffffffffffffffffffff166308ddb51883836040518363ffffffff1660e01b81526004016122bb929190612af7565b600060405180830381600087803b1580156122d557600080fd5b505af11580156122e9573d6000803e3d6000fd5b5050505060006122f7611ecc565b73ffffffffffffffffffffffffffffffffffffffff1663786e0785846040518263ffffffff1660e01b815260040161232f9190612adc565b600060405180830381865afa15801561234c573d6000803e3d6000fd5b505050506040513d6000823e3d601f19601f820116820180604052508101906123759190613eaa565b905060005b81518110156124c25761238b611ecc565b73ffffffffffffffffffffffffffffffffffffffff166330938d708383815181106123b9576123b8612e79565b5b60200260200101516040518263ffffffff1660e01b81526004016123dd9190612adc565b602060405180830381865afa1580156123fa573d6000803e3d6000fd5b505050506040513d601f19601f8201168201806040525081019061241e9190612b58565b6124b15761242a611ecc565b73ffffffffffffffffffffffffffffffffffffffff16632b00d6ca83838151811061245857612457612e79565b5b6020026020010151856040518363ffffffff1660e01b815260040161247e929190612af7565b600060405180830381600087803b15801561249857600080fd5b505af11580156124ac573d6000803e3d6000fd5b505050505b806124bb90612f69565b905061237a565b50505050565b600060028111156124dc576124db61289f565b5b8173ffffffffffffffffffffffffffffffffffffffff1663bdf3e912846040518263ffffffff1660e01b81526004016125159190612adc565b602060405180830381865afa158015612532573d6000803e3d6000fd5b505050506040513d601f19601f82011682018060405250810190612556919061294f565b60028111156125685761256761289f565b5b146125a8576040517f08c379a000000000000000000000000000000000000000000000000000000000815260040161259f90614820565b60405180910390fd5b5050565b600080600090505b82518110156125f857838382815181106125d1576125d0612e79565b5b6020026020010151036125e7578091505061261d565b806125f190612f69565b90506125b4565b507fffffffffffffffffffffffffffffffffffffffffffffffffffffffffffffffff90505b92915050565b6000604051905090565b600080fd5b600080fd5b6000819050919050565b61264a81612637565b811461265557600080fd5b50565b60008135905061266781612641565b92915050565b600080604083850312156126845761268361262d565b5b600061269285828601612658565b92505060206126a385828601612658565b9150509250929050565b6000602082840312156126c3576126c261262d565b5b60006126d184828501612658565b91505092915050565b600080fd5b600061020082840312156126f6576126f56126da565b5b81905092915050565b600080fd5b600080fd5b600080fd5b60008083601f840112612724576127236126ff565b5b8235905067ffffffffffffffff81111561274157612740612704565b5b60208301915083602082028301111561275d5761275c612709565b5b9250929050565b60008083601f84011261277a576127796126ff565b5b8235905067ffffffffffffffff81111561279757612796612704565b5b6020830191508360208202830111156127b3576127b2612709565b5b9250929050565b60008060008060008060006080888a0312156127d9576127d861262d565b5b600088013567ffffffffffffffff8111156127f7576127f6612632565b5b6128038a828b016126df565b975050602088013567ffffffffffffffff81111561282457612823612632565b5b6128308a828b0161270e565b9650965050604088013567ffffffffffffffff81111561285357612852612632565b5b61285f8a828b01612764565b9450945050606088013567ffffffffffffffff81111561288257612881612632565b5b61288e8a828b01612764565b925092505092959891949750929550565b7f4e487b7100000000000000000000000000000000000000000000000000000000600052602160045260246000fd5b600073ffffffffffffffffffffffffffffffffffffffff82169050919050565b60006128f9826128ce565b9050919050565b612909816128ee565b82525050565b60006020820190506129246000830184612900565b92915050565b6003811061293757600080fd5b50565b6000815190506129498161292a565b92915050565b6000602082840312156129655761296461262d565b5b60006129738482850161293a565b91505092915050565b600082825260208201905092915050565b7f53656e646572206d75737420626520612073747564792070726f6772616d206d60008201527f616e616765720000000000000000000000000000000000000000000000000000602082015250565b60006129e960268361297c565b91506129f48261298d565b604082019050919050565b60006020820190508181036000830152612a18816129dc565b9050919050565b7f53656e646572206d75737420626520612073747564656e740000000000000000600082015250565b6000612a5560188361297c565b9150612a6082612a1f565b602082019050919050565b60006020820190508181036000830152612a8481612a48565b9050919050565b600081519050612a9a81612641565b92915050565b600060208284031215612ab657612ab561262d565b5b6000612ac484828501612a8b565b91505092915050565b612ad681612637565b82525050565b6000602082019050612af16000830184612acd565b92915050565b6000604082019050612b0c6000830185612acd565b612b196020830184612acd565b9392505050565b60008115159050919050565b612b3581612b20565b8114612b4057600080fd5b50565b600081519050612b5281612b2c565b92915050565b600060208284031215612b6e57612b6d61262d565b5b6000612b7c84828501612b43565b91505092915050565b7f53747564656e742068617320616c72656164792072656769737465726564207460008201527f6f2074686973206173736573736d656e74000000000000000000000000000000602082015250565b6000612be160318361297c565b9150612bec82612b85565b604082019050919050565b60006020820190508181036000830152612c1081612bd4565b9050919050565b60008060408385031215612c2e57612c2d61262d565b5b6000612c3c85828601612a8b565b9250506020612c4d85828601612a8b565b9150509250929050565b7f4173736573736d656e7420726567697374726174696f6e206973206e6f74207060008201527f6f737369626c65206174207468652074696d6500000000000000000000000000602082015250565b6000612cb360338361297c565b9150612cbe82612c57565b604082019050919050565b60006020820190508181036000830152612ce281612ca6565b9050919050565b7f53747564656e7420686173206e65766572207265676973746572656420746f2060008201527f74686973206173736573736d656e740000000000000000000000000000000000602082015250565b6000612d45602f8361297c565b9150612d5082612ce9565b604082019050919050565b60006020820190508181036000830152612d7481612d38565b9050919050565b7f4173736573736d656e74206465726567697374726174696f6e206973206e6f7460008201527f20706f737369626c65206174207468652074696d650000000000000000000000602082015250565b6000612dd760358361297c565b9150612de282612d7b565b604082019050919050565b60006020820190508181036000830152612e0681612dca565b9050919050565b7f53656e646572206d7573742062652061206c6563747572657200000000000000600082015250565b6000612e4360198361297c565b9150612e4e82612e0d565b602082019050919050565b60006020820190508181036000830152612e7281612e36565b9050919050565b7f4e487b7100000000000000000000000000000000000000000000000000000000600052603260045260246000fd5b7f50726f7669646564206c65637475726572206973206e6f74207265676973746560008201527f726564206173206c656374757265720000000000000000000000000000000000602082015250565b6000612f04602f8361297c565b9150612f0f82612ea8565b604082019050919050565b60006020820190508181036000830152612f3381612ef7565b9050919050565b7f4e487b7100000000000000000000000000000000000000000000000000000000600052601160045260246000fd5b6000612f7482612637565b91507fffffffffffffffffffffffffffffffffffffffffffffffffffffffffffffffff8203612fa657612fa5612f3a565b5b600182019050919050565b600080fd5b600080fd5b600080fd5b60008083356001602003843603038112612fdd57612fdc612fb1565b5b80840192508235915067ffffffffffffffff821115612fff57612ffe612fb6565b5b60208301925060408202360383131561301b5761301a612fbb565b5b509250929050565b7f34206772616465206c6576656c73206d7573742062652073706563696669656460008201527f2c207374617274696e672066726f6d2074686520666972737420706f7369746960208201527f7665206772616465000000000000000000000000000000000000000000000000604082015250565b60006130a560488361297c565b91506130b082613023565b606082019050919050565b600060208201905081810360008301526130d481613098565b9050919050565b7f50726f7669646564206772616465206973206f7574206f66207468652067726160008201527f6465206c696d6d69747300000000000000000000000000000000000000000000602082015250565b6000613137602a8361297c565b9150613142826130db565b604082019050919050565b600060208201905081810360008301526131668161312a565b9050919050565b600080fd5b600080fd5b600080fd5b6000808335600160200384360303811261319957613198613177565b5b83810192508235915060208301925067ffffffffffffffff8211156131c1576131c061316d565b5b6001820236038313156131d7576131d6613172565b5b509250929050565b600082825260208201905092915050565b82818337600083830152505050565b6000601f19601f8301169050919050565b600061321c83856131df565b93506132298385846131f0565b613232836131ff565b840190509392505050565b6004811061324a57600080fd5b50565b60008135905061325c8161323d565b92915050565b6000613271602084018461324d565b905092915050565b6004811061328a5761328961289f565b5b50565b600081905061329b82613279565b919050565b60006132ab8261328d565b9050919050565b6132bb816132a0565b82525050565b600082905092915050565b60006132db6020840184612658565b905092915050565b6132ec81612637565b82525050565b600281106132ff57600080fd5b50565b600081359050613311816132f2565b92915050565b60006133266020840184613302565b905092915050565b6002811061333f5761333e61289f565b5b50565b60008190506133508261332e565b919050565b600061336082613342565b9050919050565b61337081613355565b82525050565b6040820161338760008301836132cc565b61339460008501826132e3565b506133a26020830183613317565b6133af6020850182613367565b50505050565b600080833560016020038436030381126133d2576133d1613177565b5b83810192508235915060208301925067ffffffffffffffff8211156133fa576133f961316d565b5b6020820236038313156134105761340f613172565b5b509250929050565b600082825260208201905092915050565b6000819050919050565b60006040830161344660008401846132cc565b61345360008601826132e3565b50613461602084018461317c565b8583036020870152613474838284613210565b925050508091505092915050565b600061348e8383613433565b905092915050565b6000823560016040038336030381126134b2576134b1613177565b5b82810191505092915050565b6000602082019050919050565b60006134d78385613418565b9350836020840285016134e984613429565b8060005b8781101561352d5784840389526135048284613496565b61350e8582613482565b9450613519836134be565b925060208a019950506001810190506134ed565b50829750879450505050509392505050565b6000808335600160200384360303811261355c5761355b613177565b5b83810192508235915060208301925067ffffffffffffffff8211156135845761358361316d565b5b60408202360383131561359a57613599613172565b5b509250929050565b600082825260208201905092915050565b6000819050919050565b604082016135ce60008301836132cc565b6135db60008501826132e3565b506135e960208301836132cc565b6135f660208501826132e3565b50505050565b600061360883836135bd565b60408301905092915050565b600082905092915050565b6000604082019050919050565b600061363883856135a2565b9350613643826135b3565b8060005b8581101561367c576136598284613614565b61366388826135fc565b975061366e8361361f565b925050600181019050613647565b5085925050509392505050565b600080833560016020038436030381126136a6576136a5613177565b5b83810192508235915060208301925067ffffffffffffffff8211156136ce576136cd61316d565b5b6020820236038313156136e4576136e3613172565b5b509250929050565b600082825260208201905092915050565b6000819050919050565b6000613714848484613210565b90509392505050565b6000602082019050919050565b600061373683856136ec565b935083602084028501613748846136fd565b8060005b8781101561378e578484038952613763828461317c565b61376e868284613707565b95506137798461371d565b935060208b019a50505060018101905061374c565b50829750879450505050509392505050565b600061020083016137b4600084018461317c565b85830360008701526137c7838284613210565b925050506137d8602084018461317c565b85830360208701526137eb838284613210565b925050506137fc6040840184613262565b61380960408601826132b2565b5061381760608401846132c1565b6138246060860182613376565b5061383260a084018461317c565b85830360a0870152613845838284613210565b9250505061385660c084018461317c565b85830360c0870152613869838284613210565b9250505061387a60e084018461317c565b85830360e087015261388d838284613210565b9250505061389f6101008401846132cc565b6138ad6101008601826132e3565b506138bc6101208401846132cc565b6138ca6101208601826132e3565b506138d96101408401846132cc565b6138e76101408601826132e3565b506138f66101608401846132cc565b6139046101608601826132e3565b506139136101808401846132cc565b6139216101808601826132e3565b506139306101a08401846133b5565b8583036101a08701526139448382846134cb565b925050506139566101c084018461353f565b8583036101c087015261396a83828461362c565b9250505061397c6101e0840184613689565b8583036101e087015261399083828461372a565b925050508091505092915050565b600060208201905081810360008301526139b881846137a0565b905092915050565b600082825260208201905092915050565b600080fd5b82818337505050565b60006139eb83856139c0565b93507f07ffffffffffffffffffffffffffffffffffffffffffffffffffffffffffffff831115613a1e57613a1d6139d1565b5b602083029250613a2f8385846139d6565b82840190509392505050565b6000604082019050613a506000830186612acd565b8181036020830152613a638184866139df565b9050949350505050565b600082825260208201905092915050565b6000819050919050565b60028110613a9557600080fd5b50565b600081359050613aa781613a88565b92915050565b6000613abc6020840184613a98565b905092915050565b60028110613ad557613ad461289f565b5b50565b6000819050613ae682613ac4565b919050565b6000613af682613ad8565b9050919050565b613b0681613aeb565b82525050565b600081359050613b1b81612b2c565b92915050565b6000613b306020840184613b0c565b905092915050565b613b4181612b20565b82525050565b60006101408301613b5b600084018461317c565b8583036000870152613b6e838284613210565b92505050613b7f60208401846132cc565b613b8c60208601826132e3565b50613b9a604084018461317c565b8583036040870152613bad838284613210565b92505050613bbe6060840184613aad565b613bcb6060860182613afd565b50613bd960808401846132cc565b613be660808601826132e3565b50613bf460a08401846132cc565b613c0160a08601826132e3565b50613c0f60c0840184613b21565b613c1c60c0860182613b38565b50613c2a60e08401846132cc565b613c3760e08601826132e3565b50613c466101008401846132cc565b613c546101008601826132e3565b50613c636101208401846132cc565b613c716101208601826132e3565b508091505092915050565b6000613c888383613b47565b905092915050565b60008235600161014003833603038112613cad57613cac613177565b5b82810191505092915050565b6000602082019050919050565b6000613cd28385613a6d565b935083602084028501613ce484613a7e565b8060005b87811015613d28578484038952613cff8284613c90565b613d098582613c7c565b9450613d1483613cb9565b925060208a01995050600181019050613ce8565b50829750879450505050509392505050565b6000604082019050613d4f6000830186612acd565b8181036020830152613d62818486613cc6565b9050949350505050565b7f4e487b7100000000000000000000000000000000000000000000000000000000600052604160045260246000fd5b613da4826131ff565b810181811067ffffffffffffffff82111715613dc357613dc2613d6c565b5b80604052505050565b6000613dd6612623565b9050613de28282613d9b565b919050565b600067ffffffffffffffff821115613e0257613e01613d6c565b5b602082029050602081019050919050565b6000613e26613e2184613de7565b613dcc565b90508083825260208201905060208402830185811115613e4957613e48612709565b5b835b81811015613e725780613e5e8882612a8b565b845260208401935050602081019050613e4b565b5050509392505050565b600082601f830112613e9157613e906126ff565b5b8151613ea1848260208601613e13565b91505092915050565b600060208284031215613ec057613ebf61262d565b5b600082015167ffffffffffffffff811115613ede57613edd612632565b5b613eea84828501613e7c565b91505092915050565b7f436f75727365206465726567697374726174696f6e206973206e6f7420706f7360008201527f7369626c65206174207468652074696d65000000000000000000000000000000602082015250565b6000613f4f60318361297c565b9150613f5a82613ef3565b604082019050919050565b60006020820190508181036000830152613f7e81613f42565b9050919050565b7f53747564656e74206973206e6f7420656e726f6c6c656420696e20746865207360008201527f747564792070726f6772616d207468697320636f75727365206973206176616960208201527f6c61626c65206174000000000000000000000000000000000000000000000000604082015250565b600061400760488361297c565b915061401282613f85565b606082019050919050565b6000602082019050818103600083015261403681613ffa565b9050919050565b600067ffffffffffffffff82111561405857614057613d6c565b5b602082029050602081019050919050565b600080fd5b600067ffffffffffffffff82111561408957614088613d6c565b5b614092826131ff565b9050602081019050919050565b60005b838110156140bd5780820151818401526020810190506140a2565b60008484015250505050565b60006140dc6140d78461406e565b613dcc565b9050828152602081018484840111156140f8576140f7614069565b5b61410384828561409f565b509392505050565b600082601f8301126141205761411f6126ff565b5b81516141308482602086016140c9565b91505092915050565b600061414c6141478461403d565b613dcc565b9050808382526020820190506020840283018581111561416f5761416e612709565b5b835b818110156141b657805167ffffffffffffffff811115614194576141936126ff565b5b8086016141a1898261410b565b85526020850194505050602081019050614171565b5050509392505050565b600082601f8301126141d5576141d46126ff565b5b81516141e5848260208601614139565b91505092915050565b6000602082840312156142045761420361262d565b5b600082015167ffffffffffffffff81111561422257614221612632565b5b61422e848285016141c0565b91505092915050565b600081519050919050565b600061424d82614237565b614257818561297c565b935061426781856020860161409f565b614270816131ff565b840191505092915050565b600060208201905081810360008301526142958184614242565b905092915050565b600080fd5b600080fd5b600060c082840312156142bd576142bc61429d565b5b6142c760c0613dcc565b905060006142d784828501612b43565b60008301525060206142eb84828501612a8b565b602083015250604082015167ffffffffffffffff81111561430f5761430e6142a2565b5b61431b8482850161410b565b604083015250606061432f84828501612a8b565b606083015250608061434384828501612a8b565b60808301525060a061435784828501612b43565b60a08301525092915050565b6000602082840312156143795761437861262d565b5b600082015167ffffffffffffffff81111561439757614396612632565b5b6143a3848285016142a7565b91505092915050565b7f526571756972656d656e7420636f75727365206973206e6f7420636f6d706c6560008201527f7465640000000000000000000000000000000000000000000000000000000000602082015250565b600061440860238361297c565b9150614413826143ac565b604082019050919050565b60006020820190508181036000830152614437816143fb565b9050919050565b7f436f7572736520726567697374726174696f6e206973206e6f7420706f73736960008201527f626c65206174207468652074696d650000000000000000000000000000000000602082015250565b600061449a602f8361297c565b91506144a58261443e565b604082019050919050565b600060208201905081810360008301526144c98161448d565b9050919050565b7f436f7572736520686173207265616368656420697473206d6178696d756d207060008201527f61727469636970616e7473000000000000000000000000000000000000000000602082015250565b600061452c602b8361297c565b9150614537826144d0565b604082019050919050565b6000602082019050818103600083015261455b8161451f565b9050919050565b7f53656e646572206d757374206265206120726567697374657265642075736572600082015250565b600061459860208361297c565b91506145a382614562565b602082019050919050565b600060208201905081810360008301526145c78161458b565b9050919050565b600681106145df576145de61289f565b5b50565b60008190506145f0826145ce565b919050565b6000614600826145e2565b9050919050565b614610816145f5565b82525050565b600060208201905061462b6000830184614607565b92915050565b61463a816128ee565b811461464557600080fd5b50565b60008151905061465781614631565b92915050565b6000602082840312156146735761467261262d565b5b600061468184828501614648565b91505092915050565b7f53747564656e74206973206e6f74207265676973746572656420746f2074686560008201527f20636f7572736500000000000000000000000000000000000000000000000000602082015250565b60006146e660278361297c565b91506146f18261468a565b604082019050919050565b60006020820190508181036000830152614715816146d9565b9050919050565b7f53747564656e7420697320616c7265616479207265676973746572656420746f60008201527f2074686520636f75727365000000000000000000000000000000000000000000602082015250565b6000614778602b8361297c565b91506147838261471c565b604082019050919050565b600060208201905081810360008301526147a78161476b565b9050919050565b7f54686520676976656e2075494420646f6573206e6f742062656c6f6e6720746f60008201527f20612073747564656e7400000000000000000000000000000000000000000000602082015250565b600061480a602a8361297c565b9150614815826147ae565b604082019050919050565b60006020820190508181036000830152614839816147fd565b905091905056fea26469706673582212202c35579ad995a32b37c54c17a7a5c46de525ce0a8b079597eca74767c52a2ad664736f6c63430008110033",
  "linkReferences": {},
  "deployedLinkReferences": {}
}