{
  "_format": "hh-sol-artifact-1",
  "contractName": "PerformanceController",
  "sourceName": "contracts/logic/PerformanceController.sol",
  "abi": [
    {
      "inputs": [
        {
          "internalType": "address",
          "name": "addressBookAddress",
          "type": "address"
        }
      ],
      "stateMutability": "nonpayable",
      "type": "constructor"
    },
    {
      "inputs": [
        {
          "internalType": "uint256",
          "name": "assessmentId",
          "type": "uint256"
        },
        {
          "internalType": "string[]",
          "name": "documentHashes",
          "type": "string[]"
        }
      ],
      "name": "addSubmission",
      "outputs": [],
      "stateMutability": "nonpayable",
      "type": "function"
    },
    {
      "inputs": [
        {
          "internalType": "uint256",
          "name": "studentUId",
          "type": "uint256"
        },
        {
          "internalType": "uint256",
          "name": "assessmentId",
          "type": "uint256"
        },
        {
          "internalType": "bool",
          "name": "hasAttended",
          "type": "bool"
        }
      ],
      "name": "administerExamAttendance",
      "outputs": [],
      "stateMutability": "nonpayable",
      "type": "function"
    },
    {
      "inputs": [
        {
          "internalType": "uint256",
          "name": "courseId",
          "type": "uint256"
        }
      ],
      "name": "calculatePoints",
      "outputs": [
        {
          "internalType": "uint256",
          "name": "",
          "type": "uint256"
        },
        {
          "internalType": "uint256",
          "name": "",
          "type": "uint256"
        }
      ],
      "stateMutability": "view",
      "type": "function"
    },
    {
      "inputs": [
        {
          "internalType": "uint256",
          "name": "studentUId",
          "type": "uint256"
        },
        {
          "internalType": "uint256",
          "name": "courseId",
          "type": "uint256"
        }
      ],
      "name": "calculatePointsOfStudent",
      "outputs": [
        {
          "internalType": "uint256",
          "name": "",
          "type": "uint256"
        },
        {
          "internalType": "uint256",
          "name": "",
          "type": "uint256"
        }
      ],
      "stateMutability": "view",
      "type": "function"
    },
    {
      "inputs": [
        {
          "internalType": "uint256",
          "name": "studentUId",
          "type": "uint256"
        },
        {
          "internalType": "uint256",
          "name": "assessmentId",
          "type": "uint256"
        },
        {
          "internalType": "uint256",
          "name": "achievedPoints",
          "type": "uint256"
        },
        {
          "internalType": "string",
          "name": "feedback",
          "type": "string"
        }
      ],
      "name": "giveEvaluation",
      "outputs": [],
      "stateMutability": "nonpayable",
      "type": "function"
    },
    {
      "inputs": [
        {
          "internalType": "uint256",
          "name": "studentUId",
          "type": "uint256"
        },
        {
          "internalType": "uint256",
          "name": "courseId",
          "type": "uint256"
        },
        {
          "internalType": "uint256",
          "name": "grade",
          "type": "uint256"
        },
        {
          "internalType": "string",
          "name": "feedback",
          "type": "string"
        }
      ],
      "name": "giveFinalGrade",
      "outputs": [],
      "stateMutability": "nonpayable",
      "type": "function"
    },
    {
      "inputs": [
        {
          "internalType": "uint256",
          "name": "courseId",
          "type": "uint256"
        }
      ],
      "name": "updateCourseParticipantPerformances",
      "outputs": [],
      "stateMutability": "nonpayable",
      "type": "function"
    }
  ],
  "bytecode": "0x60806040523480156200001157600080fd5b5060405162004d1f38038062004d1f8339818101604052810190620000379190620000ec565b8080806000806101000a81548173ffffffffffffffffffffffffffffffffffffffff021916908373ffffffffffffffffffffffffffffffffffffffff1602179055505050506200011e565b600080fd5b600073ffffffffffffffffffffffffffffffffffffffff82169050919050565b6000620000b48262000087565b9050919050565b620000c681620000a7565b8114620000d257600080fd5b50565b600081519050620000e681620000bb565b92915050565b60006020828403121562000105576200010462000082565b5b60006200011584828501620000d5565b91505092915050565b614bf1806200012e6000396000f3fe608060405234801561001057600080fd5b506004361061007d5760003560e01c806344cb20461161005b57806344cb2046146100eb57806350add5d0146101075780635a1637be14610123578063bd42e510146101545761007d565b8063049070c1146100825780633e6abaa61461009e57806340b1ba3b146100cf575b600080fd5b61009c600480360381019061009791906130f2565b610170565b005b6100b860048036038101906100b39190613145565b6105ae565b6040516100c6929190613194565b60405180910390f35b6100e960048036038101906100e49190613222565b61075f565b005b610105600480360381019061010091906132aa565b610980565b005b610121600480360381019061011c919061332d565b610bd7565b005b61013d600480360381019061013891906132aa565b610f84565b60405161014b929190613194565b60405180910390f35b61016e60048036038101906101699190613222565b611121565b005b6101786113bd565b6001600281111561018c5761018b61338d565b5b61019461147f565b73ffffffffffffffffffffffffffffffffffffffff1663dd8b2914336040518263ffffffff1660e01b81526004016101cc91906133fd565b602060405180830381865afa1580156101e9573d6000803e3d6000fd5b505050506040513d601f19601f8201168201806040525081019061020d919061343d565b600281111561021f5761021e61338d565b5b1461025f576040517f08c379a0000000000000000000000000000000000000000000000000000000008152600401610256906134c7565b60405180910390fd5b600061026961147f565b73ffffffffffffffffffffffffffffffffffffffff1663e3d7e14c336040518263ffffffff1660e01b81526004016102a191906133fd565b602060405180830381865afa1580156102be573d6000803e3d6000fd5b505050506040513d601f19601f820116820180604052508101906102e291906134fc565b905060006102ee611522565b73ffffffffffffffffffffffffffffffffffffffff1663a31cf91f856040518263ffffffff1660e01b81526004016103269190613529565b602060405180830381865afa158015610343573d6000803e3d6000fd5b505050506040513d601f19601f8201168201806040525081019061036791906134fc565b905061037b82826103766115c5565b611668565b6000600181111561038f5761038e61338d565b5b610397611522565b73ffffffffffffffffffffffffffffffffffffffff1663e9eb5356866040518263ffffffff1660e01b81526004016103cf9190613529565b602060405180830381865afa1580156103ec573d6000803e3d6000fd5b505050506040513d601f19601f820116820180604052508101906104109190613569565b60018111156104225761042161338d565b5b14610462576040517f08c379a0000000000000000000000000000000000000000000000000000000008152600401610459906135e2565b60405180910390fd5b61046c8585611734565b6104746117fa565b73ffffffffffffffffffffffffffffffffffffffff1663683391e486866040518363ffffffff1660e01b81526004016104ae929190613194565b602060405180830381865afa1580156104cb573d6000803e3d6000fd5b505050506040513d601f19601f820116820180604052508101906104ef9190613617565b1561052f576040517f08c379a0000000000000000000000000000000000000000000000000000000008152600401610526906136b6565b60405180910390fd5b6105376117fa565b73ffffffffffffffffffffffffffffffffffffffff166323f618ee868686426040518563ffffffff1660e01b815260040161057594939291906136e5565b600060405180830381600087803b15801561058f57600080fd5b505af11580156105a3573d6000803e3d6000fd5b505050505050505050565b6000806105b96113bd565b600160028111156105cd576105cc61338d565b5b6105d561147f565b73ffffffffffffffffffffffffffffffffffffffff1663dd8b2914336040518263ffffffff1660e01b815260040161060d91906133fd565b602060405180830381865afa15801561062a573d6000803e3d6000fd5b505050506040513d601f19601f8201168201806040525081019061064e919061343d565b60028111156106605761065f61338d565b5b146106a0576040517f08c379a0000000000000000000000000000000000000000000000000000000008152600401610697906134c7565b60405180910390fd5b60006106aa61147f565b73ffffffffffffffffffffffffffffffffffffffff1663e3d7e14c336040518263ffffffff1660e01b81526004016106e291906133fd565b602060405180830381865afa1580156106ff573d6000803e3d6000fd5b505050506040513d601f19601f8201168201806040525081019061072391906134fc565b905061073781856107326115c5565b611668565b61074985856107446115c5565b61189d565b610753858561195d565b92509250509250929050565b6107676113bd565b6001600281111561077b5761077a61338d565b5b61078361147f565b73ffffffffffffffffffffffffffffffffffffffff1663dd8b2914336040518263ffffffff1660e01b81526004016107bb91906133fd565b602060405180830381865afa1580156107d8573d6000803e3d6000fd5b505050506040513d601f19601f820116820180604052508101906107fc919061343d565b600281111561080e5761080d61338d565b5b1461084e576040517f08c379a0000000000000000000000000000000000000000000000000000000008152600401610845906134c7565b60405180910390fd5b600061085861147f565b73ffffffffffffffffffffffffffffffffffffffff1663e3d7e14c336040518263ffffffff1660e01b815260040161089091906133fd565b602060405180830381865afa1580156108ad573d6000803e3d6000fd5b505050506040513d601f19601f820116820180604052508101906108d191906134fc565b90506108e581866108e06115c5565b611668565b6108f786866108f26115c5565b61189d565b6108ff6117fa565b73ffffffffffffffffffffffffffffffffffffffff166359a7dbe08787428888888860006040518963ffffffff1660e01b8152600401610946989796959493929190613777565b600060405180830381600087803b15801561096057600080fd5b505af1158015610974573d6000803e3d6000fd5b50505050505050505050565b6109886113bd565b6001600281111561099c5761099b61338d565b5b6109a461147f565b73ffffffffffffffffffffffffffffffffffffffff1663dd8b2914336040518263ffffffff1660e01b81526004016109dc91906133fd565b602060405180830381865afa1580156109f9573d6000803e3d6000fd5b505050506040513d601f19601f82011682018060405250810190610a1d919061343d565b6002811115610a2f57610a2e61338d565b5b14610a6f576040517f08c379a0000000000000000000000000000000000000000000000000000000008152600401610a66906134c7565b60405180910390fd5b6000610a7961147f565b73ffffffffffffffffffffffffffffffffffffffff1663e3d7e14c336040518263ffffffff1660e01b8152600401610ab191906133fd565b602060405180830381865afa158015610ace573d6000803e3d6000fd5b505050506040513d601f19601f82011682018060405250810190610af291906134fc565b9050610b068183610b016115c5565b611668565b6000610b106115c5565b73ffffffffffffffffffffffffffffffffffffffff16636f4f5878846040518263ffffffff1660e01b8152600401610b489190613529565b600060405180830381865afa158015610b65573d6000803e3d6000fd5b505050506040513d6000823e3d601f19601f82011682018060405250810190610b8e919061392d565b905060005b8151811015610bd157610bc0828281518110610bb257610bb1613976565b5b602002602001015185611af1565b80610bca906139d4565b9050610b93565b50505050565b610bdf6113bd565b60006002811115610bf357610bf261338d565b5b610bfb61147f565b73ffffffffffffffffffffffffffffffffffffffff1663dd8b2914336040518263ffffffff1660e01b8152600401610c3391906133fd565b602060405180830381865afa158015610c50573d6000803e3d6000fd5b505050506040513d601f19601f82011682018060405250810190610c74919061343d565b6002811115610c8657610c8561338d565b5b14610cc6576040517f08c379a0000000000000000000000000000000000000000000000000000000008152600401610cbd90613a68565b60405180910390fd5b6000610cd061147f565b73ffffffffffffffffffffffffffffffffffffffff1663e3d7e14c336040518263ffffffff1660e01b8152600401610d0891906133fd565b602060405180830381865afa158015610d25573d6000803e3d6000fd5b505050506040513d601f19601f82011682018060405250810190610d4991906134fc565b90506000610d55611522565b73ffffffffffffffffffffffffffffffffffffffff166326f63a96866040518263ffffffff1660e01b8152600401610d8d9190613529565b602060405180830381865afa158015610daa573d6000803e3d6000fd5b505050506040513d601f19601f82011682018060405250810190610dce91906134fc565b9050610dda8286611734565b600180811115610ded57610dec61338d565b5b610df5611522565b73ffffffffffffffffffffffffffffffffffffffff1663e9eb5356876040518263ffffffff1660e01b8152600401610e2d9190613529565b602060405180830381865afa158015610e4a573d6000803e3d6000fd5b505050506040513d601f19601f82011682018060405250810190610e6e9190613569565b6001811115610e8057610e7f61338d565b5b14610ec0576040517f08c379a0000000000000000000000000000000000000000000000000000000008152600401610eb790613afa565b60405180910390fd5b80421115610f03576040517f08c379a0000000000000000000000000000000000000000000000000000000008152600401610efa90613b8c565b60405180910390fd5b610f0b6117fa565b73ffffffffffffffffffffffffffffffffffffffff166325bcbe8083874288886040518663ffffffff1660e01b8152600401610f4b959493929190613d10565b600060405180830381600087803b158015610f6557600080fd5b505af1158015610f79573d6000803e3d6000fd5b505050505050505050565b600080610f8f6113bd565b60006002811115610fa357610fa261338d565b5b610fab61147f565b73ffffffffffffffffffffffffffffffffffffffff1663dd8b2914336040518263ffffffff1660e01b8152600401610fe391906133fd565b602060405180830381865afa158015611000573d6000803e3d6000fd5b505050506040513d601f19601f82011682018060405250810190611024919061343d565b60028111156110365761103561338d565b5b14611076576040517f08c379a000000000000000000000000000000000000000000000000000000000815260040161106d90613a68565b60405180910390fd5b600061108061147f565b73ffffffffffffffffffffffffffffffffffffffff1663e3d7e14c336040518263ffffffff1660e01b81526004016110b891906133fd565b602060405180830381865afa1580156110d5573d6000803e3d6000fd5b505050506040513d601f19601f820116820180604052508101906110f991906134fc565b905061110d81856111086115c5565b61189d565b611117818561195d565b9250925050915091565b6111296113bd565b6001600281111561113d5761113c61338d565b5b61114561147f565b73ffffffffffffffffffffffffffffffffffffffff1663dd8b2914336040518263ffffffff1660e01b815260040161117d91906133fd565b602060405180830381865afa15801561119a573d6000803e3d6000fd5b505050506040513d601f19601f820116820180604052508101906111be919061343d565b60028111156111d0576111cf61338d565b5b14611210576040517f08c379a0000000000000000000000000000000000000000000000000000000008152600401611207906134c7565b60405180910390fd5b600061121a61147f565b73ffffffffffffffffffffffffffffffffffffffff1663e3d7e14c336040518263ffffffff1660e01b815260040161125291906133fd565b602060405180830381865afa15801561126f573d6000803e3d6000fd5b505050506040513d601f19601f8201168201806040525081019061129391906134fc565b9050600061129f611522565b73ffffffffffffffffffffffffffffffffffffffff1663a31cf91f876040518263ffffffff1660e01b81526004016112d79190613529565b602060405180830381865afa1580156112f4573d6000803e3d6000fd5b505050506040513d601f19601f8201168201806040525081019061131891906134fc565b905061132c82826113276115c5565b611668565b6113368787611734565b61133e6117fa565b73ffffffffffffffffffffffffffffffffffffffff166379fbc85e888842898989896040518863ffffffff1660e01b81526004016113829796959493929190613d5e565b600060405180830381600087803b15801561139c57600080fd5b505af11580156113b0573d6000803e3d6000fd5b5050505050505050505050565b6113c561147f565b73ffffffffffffffffffffffffffffffffffffffff166338b6a3a1336040518263ffffffff1660e01b81526004016113fd91906133fd565b602060405180830381865afa15801561141a573d6000803e3d6000fd5b505050506040513d601f19601f8201168201806040525081019061143e9190613617565b61147d576040517f08c379a000000000000000000000000000000000000000000000000000000000815260040161147490613e14565b60405180910390fd5b565b60008060009054906101000a900473ffffffffffffffffffffffffffffffffffffffff1673ffffffffffffffffffffffffffffffffffffffff1663bcaa0c5560026040518263ffffffff1660e01b81526004016114dc9190613e7c565b602060405180830381865afa1580156114f9573d6000803e3d6000fd5b505050506040513d601f19601f8201168201806040525081019061151d9190613ec3565b905090565b60008060009054906101000a900473ffffffffffffffffffffffffffffffffffffffff1673ffffffffffffffffffffffffffffffffffffffff1663bcaa0c5560016040518263ffffffff1660e01b815260040161157f9190613e7c565b602060405180830381865afa15801561159c573d6000803e3d6000fd5b505050506040513d601f19601f820116820180604052508101906115c09190613ec3565b905090565b60008060009054906101000a900473ffffffffffffffffffffffffffffffffffffffff1673ffffffffffffffffffffffffffffffffffffffff1663bcaa0c5560006040518263ffffffff1660e01b81526004016116229190613e7c565b602060405180830381865afa15801561163f573d6000803e3d6000fd5b505050506040513d601f19601f820116820180604052508101906116639190613ec3565b905090565b6116f0838273ffffffffffffffffffffffffffffffffffffffff1663bd9c1b50856040518263ffffffff1660e01b81526004016116a59190613529565b600060405180830381865afa1580156116c2573d6000803e3d6000fd5b505050506040513d6000823e3d601f19601f820116820180604052508101906116eb919061392d565b611b13565b61172f576040517f08c379a000000000000000000000000000000000000000000000000000000000815260040161172690613f62565b60405180910390fd5b505050565b61173c611522565b73ffffffffffffffffffffffffffffffffffffffff166323ff178583836040518363ffffffff1660e01b8152600401611776929190613194565b602060405180830381865afa158015611793573d6000803e3d6000fd5b505050506040513d601f19601f820116820180604052508101906117b79190613617565b6117f6576040517f08c379a00000000000000000000000000000000000000000000000000000000081526004016117ed90613ff4565b60405180910390fd5b5050565b60008060009054906101000a900473ffffffffffffffffffffffffffffffffffffffff1673ffffffffffffffffffffffffffffffffffffffff1663bcaa0c5560036040518263ffffffff1660e01b81526004016118579190613e7c565b602060405180830381865afa158015611874573d6000803e3d6000fd5b505050506040513d601f19601f820116820180604052508101906118989190613ec3565b905090565b8073ffffffffffffffffffffffffffffffffffffffff16633932708b84846040518363ffffffff1660e01b81526004016118d8929190613194565b602060405180830381865afa1580156118f5573d6000803e3d6000fd5b505050506040513d601f19601f820116820180604052508101906119199190613617565b611958576040517f08c379a000000000000000000000000000000000000000000000000000000000815260040161194f90614086565b60405180910390fd5b505050565b600080600080600061196f8787611b2a565b905060005b8151811015611ae057611985611522565b73ffffffffffffffffffffffffffffffffffffffff1663a01a6b548383815181106119b3576119b2613976565b5b60200260200101516040518263ffffffff1660e01b81526004016119d79190613529565b602060405180830381865afa1580156119f4573d6000803e3d6000fd5b505050506040513d601f19601f82011682018060405250810190611a1891906134fc565b84611a2391906140a6565b9350611a2d6117fa565b73ffffffffffffffffffffffffffffffffffffffff16632e3b755e89848481518110611a5c57611a5b613976565b5b60200260200101516040518363ffffffff1660e01b8152600401611a81929190613194565b602060405180830381865afa158015611a9e573d6000803e3d6000fd5b505050506040513d601f19601f82011682018060405250810190611ac291906134fc565b83611acd91906140a6565b925080611ad9906139d4565b9050611974565b508183945094505050509250929050565b611afb8282611cb1565b611b058282612158565b611b0f8282612553565b5050565b600080611b2084846129d9565b1215905092915050565b606060026003811115611b4057611b3f61338d565b5b611b486115c5565b73ffffffffffffffffffffffffffffffffffffffff1663e9c0844a846040518263ffffffff1660e01b8152600401611b809190613529565b602060405180830381865afa158015611b9d573d6000803e3d6000fd5b505050506040513d601f19601f82011682018060405250810190611bc191906140ff565b6003811115611bd357611bd261338d565b5b03611c9e57600080611be58585612a50565b915091508115611c4b57611c42600067ffffffffffffffff811115611c0d57611c0c6137ef565b5b604051908082528060200260200182016040528015611c3b5781602001602082028036833780820191505090505b5082612c08565b92505050611cab565b600067ffffffffffffffff811115611c6657611c656137ef565b5b604051908082528060200260200182016040528015611c945781602001602082028036833780820191505090505b5092505050611cab565b611ca88383612ce7565b90505b92915050565b6000611cbb611522565b73ffffffffffffffffffffffffffffffffffffffff16633b4f950083856040518363ffffffff1660e01b8152600401611cf5929190613194565b600060405180830381865afa158015611d12573d6000803e3d6000fd5b505050506040513d6000823e3d601f19601f82011682018060405250810190611d3b919061392d565b905060005b815181101561215257600180811115611d5c57611d5b61338d565b5b611d64611522565b73ffffffffffffffffffffffffffffffffffffffff1663e9eb5356848481518110611d9257611d91613976565b5b60200260200101516040518263ffffffff1660e01b8152600401611db69190613529565b602060405180830381865afa158015611dd3573d6000803e3d6000fd5b505050506040513d601f19601f82011682018060405250810190611df79190613569565b6001811115611e0957611e0861338d565b5b03612141576000611e18611522565b73ffffffffffffffffffffffffffffffffffffffff166326f63a96848481518110611e4657611e45613976565b5b60200260200101516040518263ffffffff1660e01b8152600401611e6a9190613529565b602060405180830381865afa158015611e87573d6000803e3d6000fd5b505050506040513d601f19601f82011682018060405250810190611eab91906134fc565b9050611eb56117fa565b73ffffffffffffffffffffffffffffffffffffffff1663cfca6e9786858581518110611ee457611ee3613976565b5b60200260200101516040518363ffffffff1660e01b8152600401611f09929190613194565b602060405180830381865afa158015611f26573d6000803e3d6000fd5b505050506040513d601f19601f82011682018060405250810190611f4a9190613617565b80611f555750804211155b15611f605750612141565b611f686117fa565b73ffffffffffffffffffffffffffffffffffffffff16631a2a2c4a86858581518110611f9757611f96613976565b5b60200260200101516040518363ffffffff1660e01b8152600401611fbc929190613194565b602060405180830381865afa158015611fd9573d6000803e3d6000fd5b505050506040513d601f19601f82011682018060405250810190611ffd9190613617565b15806120a457508061200d6117fa565b73ffffffffffffffffffffffffffffffffffffffff16637c56af018786868151811061203c5761203b613976565b5b60200260200101516040518363ffffffff1660e01b8152600401612061929190613194565b602060405180830381865afa15801561207e573d6000803e3d6000fd5b505050506040513d601f19601f820116820180604052508101906120a291906134fc565b115b1561213f576120b16117fa565b73ffffffffffffffffffffffffffffffffffffffff1663119e7944868585815181106120e0576120df613976565b5b6020026020010151426000806040518663ffffffff1660e01b815260040161210c9594939291906141e3565b600060405180830381600087803b15801561212657600080fd5b505af115801561213a573d6000803e3d6000fd5b505050505b505b8061214b906139d4565b9050611d40565b50505050565b6000612162611522565b73ffffffffffffffffffffffffffffffffffffffff16633b4f950083856040518363ffffffff1660e01b815260040161219c929190613194565b600060405180830381865afa1580156121b9573d6000803e3d6000fd5b505050506040513d6000823e3d601f19601f820116820180604052508101906121e2919061392d565b905060005b815181101561254d57600060018111156122045761220361338d565b5b61220c611522565b73ffffffffffffffffffffffffffffffffffffffff1663e9eb535684848151811061223a57612239613976565b5b60200260200101516040518263ffffffff1660e01b815260040161225e9190613529565b602060405180830381865afa15801561227b573d6000803e3d6000fd5b505050506040513d601f19601f8201168201806040525081019061229f9190613569565b60018111156122b1576122b061338d565b5b0361253c576122be6117fa565b73ffffffffffffffffffffffffffffffffffffffff1663cfca6e97858484815181106122ed576122ec613976565b5b60200260200101516040518363ffffffff1660e01b8152600401612312929190613194565b602060405180830381865afa15801561232f573d6000803e3d6000fd5b505050506040513d601f19601f820116820180604052508101906123539190613617565b61253c5761235f6117fa565b73ffffffffffffffffffffffffffffffffffffffff1663683391e48584848151811061238e5761238d613976565b5b60200260200101516040518363ffffffff1660e01b81526004016123b3929190613194565b602060405180830381865afa1580156123d0573d6000803e3d6000fd5b505050506040513d601f19601f820116820180604052508101906123f49190613617565b80156124a05750600015156124076117fa565b73ffffffffffffffffffffffffffffffffffffffff1663b54c676a8685858151811061243657612435613976565b5b60200260200101516040518363ffffffff1660e01b815260040161245b929190613194565b602060405180830381865afa158015612478573d6000803e3d6000fd5b505050506040513d601f19601f8201168201806040525081019061249c9190613617565b1515145b1561253b576124ad6117fa565b73ffffffffffffffffffffffffffffffffffffffff1663119e7944858484815181106124dc576124db613976565b5b6020026020010151426000806040518663ffffffff1660e01b8152600401612508959493929190614295565b600060405180830381600087803b15801561252257600080fd5b505af1158015612536573d6000803e3d6000fd5b505050505b5b80612546906139d4565b90506121e7565b50505050565b61255b6117fa565b73ffffffffffffffffffffffffffffffffffffffff166315fea7d583836040518363ffffffff1660e01b8152600401612595929190613194565b602060405180830381865afa1580156125b2573d6000803e3d6000fd5b505050506040513d601f19601f820116820180604052508101906125d69190613617565b6129d55760006125e68383611b2a565b9050600260038111156125fc576125fb61338d565b5b6126046115c5565b73ffffffffffffffffffffffffffffffffffffffff1663e9c0844a846040518263ffffffff1660e01b815260040161263c9190613529565b602060405180830381865afa158015612659573d6000803e3d6000fd5b505050506040513d601f19601f8201168201806040525081019061267d91906140ff565b600381111561268f5761268e61338d565b5b036126a85760008151036126a357506129d5565b61273e565b6126b0611522565b73ffffffffffffffffffffffffffffffffffffffff1663a5478d4f836040518263ffffffff1660e01b81526004016126e89190613529565b600060405180830381865afa158015612705573d6000803e3d6000fd5b505050506040513d6000823e3d601f19601f8201168201806040525081019061272e9190614650565b518151101561273d57506129d5565b5b60005b81518110156128095761276e8483838151811061276157612760613976565b5b6020026020010151612e69565b6127f85761277a6117fa565b73ffffffffffffffffffffffffffffffffffffffff166359a7dbe08585426005600060016040518763ffffffff1660e01b81526004016127bf96959493929190614731565b600060405180830381600087803b1580156127d957600080fd5b505af11580156127ed573d6000803e3d6000fd5b5050505050506129d5565b80612802906139d4565b9050612741565b50600080612817858561195d565b9150915060006128278383613010565b905060006128336115c5565b73ffffffffffffffffffffffffffffffffffffffff1663f0659248876040518263ffffffff1660e01b815260040161286b9190613529565b600060405180830381865afa158015612888573d6000803e3d6000fd5b505050506040513d6000823e3d601f19601f820116820180604052508101906128b191906148b8565b905060006005905060005b825181101561294f578281815181106128d8576128d7613976565b5b6020026020010151602001518410158015612917575061291683828151811061290457612903613976565b5b60200260200101516000015183613026565b5b1561293e5782818151811061292f5761292e613976565b5b60200260200101516000015191505b80612948906139d4565b90506128bc565b506129586117fa565b73ffffffffffffffffffffffffffffffffffffffff166359a7dbe089894285600060016040518763ffffffff1660e01b815260040161299c96959493929190614927565b600060405180830381600087803b1580156129b657600080fd5b505af11580156129ca573d6000803e3d6000fd5b505050505050505050505b5050565b600080600090505b8251811015612a2557838382815181106129fe576129fd613976565b5b602002602001015103612a145780915050612a4a565b80612a1e906139d4565b90506129e1565b507fffffffffffffffffffffffffffffffffffffffffffffffffffffffffffffffff90505b92915050565b6000806000612a5f8585612ce7565b90506000600182511015612a7b57600081935093505050612c01565b81600081518110612a8f57612a8e613976565b5b6020026020010151905060005b8251811015612bf657612aad611522565b73ffffffffffffffffffffffffffffffffffffffff166326f63a96836040518263ffffffff1660e01b8152600401612ae59190613529565b602060405180830381865afa158015612b02573d6000803e3d6000fd5b505050506040513d601f19601f82011682018060405250810190612b2691906134fc565b612b2e611522565b73ffffffffffffffffffffffffffffffffffffffff166326f63a96858481518110612b5c57612b5b613976565b5b60200260200101516040518263ffffffff1660e01b8152600401612b809190613529565b602060405180830381865afa158015612b9d573d6000803e3d6000fd5b505050506040513d601f19601f82011682018060405250810190612bc191906134fc565b1115612be557828181518110612bda57612bd9613976565b5b602002602001015191505b80612bef906139d4565b9050612a9c565b506001819350935050505b9250929050565b6060600060018451612c1a91906140a6565b67ffffffffffffffff811115612c3357612c326137ef565b5b604051908082528060200260200182016040528015612c615781602001602082028036833780820191505090505b50905060005b8451811015612cbb57848181518110612c8357612c82613976565b5b6020026020010151828281518110612c9e57612c9d613976565b5b60200260200101818152505080612cb4906139d4565b9050612c67565b508281855181518110612cd157612cd0613976565b5b6020026020010181815250508091505092915050565b60606000612cf3611522565b73ffffffffffffffffffffffffffffffffffffffff16633b4f950084866040518363ffffffff1660e01b8152600401612d2d929190613194565b600060405180830381865afa158015612d4a573d6000803e3d6000fd5b505050506040513d6000823e3d601f19601f82011682018060405250810190612d73919061392d565b9050606060005b8251811015612e5d57612d8b6117fa565b73ffffffffffffffffffffffffffffffffffffffff1663cfca6e9787858481518110612dba57612db9613976565b5b60200260200101516040518363ffffffff1660e01b8152600401612ddf929190613194565b602060405180830381865afa158015612dfc573d6000803e3d6000fd5b505050506040513d601f19601f82011682018060405250810190612e209190613617565b15612e4c57612e4982848381518110612e3c57612e3b613976565b5b6020026020010151612c08565b91505b80612e56906139d4565b9050612d7a565b50809250505092915050565b600080612e74611522565b73ffffffffffffffffffffffffffffffffffffffff1663a31cf91f846040518263ffffffff1660e01b8152600401612eac9190613529565b602060405180830381865afa158015612ec9573d6000803e3d6000fd5b505050506040513d601f19601f82011682018060405250810190612eed91906134fc565b9050612f018482612efc6115c5565b61189d565b612f09611522565b73ffffffffffffffffffffffffffffffffffffffff16630a627852846040518263ffffffff1660e01b8152600401612f419190613529565b602060405180830381865afa158015612f5e573d6000803e3d6000fd5b505050506040513d601f19601f82011682018060405250810190612f8291906134fc565b612f8a6117fa565b73ffffffffffffffffffffffffffffffffffffffff16632e3b755e86866040518363ffffffff1660e01b8152600401612fc4929190613194565b602060405180830381865afa158015612fe1573d6000803e3d6000fd5b505050506040513d601f19601f8201168201806040525081019061300591906134fc565b101591505092915050565b600061301e83836005613033565b905092915050565b6000818310905092915050565b600081600a6130429190614ace565b8461304d9190614b19565b9350600a838561305d9190614b8a565b6130679190614b8a565b90509392505050565b6000604051905090565b600080fd5b600080fd5b6000819050919050565b61309781613084565b81146130a257600080fd5b50565b6000813590506130b48161308e565b92915050565b60008115159050919050565b6130cf816130ba565b81146130da57600080fd5b50565b6000813590506130ec816130c6565b92915050565b60008060006060848603121561310b5761310a61307a565b5b6000613119868287016130a5565b935050602061312a868287016130a5565b925050604061313b868287016130dd565b9150509250925092565b6000806040838503121561315c5761315b61307a565b5b600061316a858286016130a5565b925050602061317b858286016130a5565b9150509250929050565b61318e81613084565b82525050565b60006040820190506131a96000830185613185565b6131b66020830184613185565b9392505050565b600080fd5b600080fd5b600080fd5b60008083601f8401126131e2576131e16131bd565b5b8235905067ffffffffffffffff8111156131ff576131fe6131c2565b5b60208301915083600182028301111561321b5761321a6131c7565b5b9250929050565b60008060008060006080868803121561323e5761323d61307a565b5b600061324c888289016130a5565b955050602061325d888289016130a5565b945050604061326e888289016130a5565b935050606086013567ffffffffffffffff81111561328f5761328e61307f565b5b61329b888289016131cc565b92509250509295509295909350565b6000602082840312156132c0576132bf61307a565b5b60006132ce848285016130a5565b91505092915050565b60008083601f8401126132ed576132ec6131bd565b5b8235905067ffffffffffffffff81111561330a576133096131c2565b5b602083019150836020820283011115613326576133256131c7565b5b9250929050565b6000806000604084860312156133465761334561307a565b5b6000613354868287016130a5565b935050602084013567ffffffffffffffff8111156133755761337461307f565b5b613381868287016132d7565b92509250509250925092565b7f4e487b7100000000000000000000000000000000000000000000000000000000600052602160045260246000fd5b600073ffffffffffffffffffffffffffffffffffffffff82169050919050565b60006133e7826133bc565b9050919050565b6133f7816133dc565b82525050565b600060208201905061341260008301846133ee565b92915050565b6003811061342557600080fd5b50565b60008151905061343781613418565b92915050565b6000602082840312156134535761345261307a565b5b600061346184828501613428565b91505092915050565b600082825260208201905092915050565b7f53656e646572206d7573742062652061206c6563747572657200000000000000600082015250565b60006134b160198361346a565b91506134bc8261347b565b602082019050919050565b600060208201905081810360008301526134e0816134a4565b9050919050565b6000815190506134f68161308e565b92915050565b6000602082840312156135125761351161307a565b5b6000613520848285016134e7565b91505092915050565b600060208201905061353e6000830184613185565b92915050565b6002811061355157600080fd5b50565b60008151905061356381613544565b92915050565b60006020828403121561357f5761357e61307a565b5b600061358d84828501613554565b91505092915050565b7f54686973206173736573736d656e74206973206e6f7420616e206578616d0000600082015250565b60006135cc601e8361346a565b91506135d782613596565b602082019050919050565b600060208201905081810360008301526135fb816135bf565b9050919050565b600081519050613611816130c6565b92915050565b60006020828403121561362d5761362c61307a565b5b600061363b84828501613602565b91505092915050565b7f546869732073747564656e742773206578616d20617474656e64616e6365207760008201527f617320636f6e6669726d656420616c7265616479000000000000000000000000602082015250565b60006136a060348361346a565b91506136ab82613644565b604082019050919050565b600060208201905081810360008301526136cf81613693565b9050919050565b6136df816130ba565b82525050565b60006080820190506136fa6000830187613185565b6137076020830186613185565b61371460408301856136d6565b6137216060830184613185565b95945050505050565b82818337600083830152505050565b6000601f19601f8301169050919050565b6000613756838561346a565b935061376383858461372a565b61376c83613739565b840190509392505050565b600060e08201905061378c600083018b613185565b613799602083018a613185565b6137a66040830189613185565b6137b36060830188613185565b81810360808301526137c681868861374a565b90506137d560a0830185613185565b6137e260c08301846136d6565b9998505050505050505050565b7f4e487b7100000000000000000000000000000000000000000000000000000000600052604160045260246000fd5b61382782613739565b810181811067ffffffffffffffff82111715613846576138456137ef565b5b80604052505050565b6000613859613070565b9050613865828261381e565b919050565b600067ffffffffffffffff821115613885576138846137ef565b5b602082029050602081019050919050565b60006138a96138a48461386a565b61384f565b905080838252602082019050602084028301858111156138cc576138cb6131c7565b5b835b818110156138f557806138e188826134e7565b8452602084019350506020810190506138ce565b5050509392505050565b600082601f830112613914576139136131bd565b5b8151613924848260208601613896565b91505092915050565b6000602082840312156139435761394261307a565b5b600082015167ffffffffffffffff8111156139615761396061307f565b5b61396d848285016138ff565b91505092915050565b7f4e487b7100000000000000000000000000000000000000000000000000000000600052603260045260246000fd5b7f4e487b7100000000000000000000000000000000000000000000000000000000600052601160045260246000fd5b60006139df82613084565b91507fffffffffffffffffffffffffffffffffffffffffffffffffffffffffffffffff8203613a1157613a106139a5565b5b600182019050919050565b7f53656e646572206d75737420626520612073747564656e740000000000000000600082015250565b6000613a5260188361346a565b9150613a5d82613a1c565b602082019050919050565b60006020820190508181036000830152613a8181613a45565b9050919050565b7f54686973206173736573736d656e74206973206e6f742061207375626d69737360008201527f696f6e0000000000000000000000000000000000000000000000000000000000602082015250565b6000613ae460238361346a565b9150613aef82613a88565b604082019050919050565b60006020820190508181036000830152613b1381613ad7565b9050919050565b7f5375626d697373696f6e206973206e6f7420706f737369626c6520616674657260008201527f2074686520646561646c696e6500000000000000000000000000000000000000602082015250565b6000613b76602d8361346a565b9150613b8182613b1a565b604082019050919050565b60006020820190508181036000830152613ba581613b69565b9050919050565b600082825260208201905092915050565b6000819050919050565b600082825260208201905092915050565b6000613be48385613bc7565b9350613bf183858461372a565b613bfa83613739565b840190509392505050565b6000613c12848484613bd8565b90509392505050565b600080fd5b600080fd5b600080fd5b60008083356001602003843603038112613c4757613c46613c25565b5b83810192508235915060208301925067ffffffffffffffff821115613c6f57613c6e613c1b565b5b600182023603831315613c8557613c84613c20565b5b509250929050565b6000602082019050919050565b6000613ca68385613bac565b935083602084028501613cb884613bbd565b8060005b87811015613cfe578484038952613cd38284613c2a565b613cde868284613c05565b9550613ce984613c8d565b935060208b019a505050600181019050613cbc565b50829750879450505050509392505050565b6000608082019050613d256000830188613185565b613d326020830187613185565b613d3f6040830186613185565b8181036060830152613d52818486613c9a565b90509695505050505050565b600060c082019050613d73600083018a613185565b613d806020830189613185565b613d8d6040830188613185565b613d9a6060830187613185565b8181036080830152613dad81858761374a565b9050613dbc60a0830184613185565b98975050505050505050565b7f53656e646572206d757374206265206120726567697374657265642075736572600082015250565b6000613dfe60208361346a565b9150613e0982613dc8565b602082019050919050565b60006020820190508181036000830152613e2d81613df1565b9050919050565b60068110613e4557613e4461338d565b5b50565b6000819050613e5682613e34565b919050565b6000613e6682613e48565b9050919050565b613e7681613e5b565b82525050565b6000602082019050613e916000830184613e6d565b92915050565b613ea0816133dc565b8114613eab57600080fd5b50565b600081519050613ebd81613e97565b92915050565b600060208284031215613ed957613ed861307a565b5b6000613ee784828501613eae565b91505092915050565b7f4c65637475726572206973206e6f74206c6563747572696e672061742074686960008201527f7320636f75727365000000000000000000000000000000000000000000000000602082015250565b6000613f4c60288361346a565b9150613f5782613ef0565b604082019050919050565b60006020820190508181036000830152613f7b81613f3f565b9050919050565b7f53747564656e74206973206e6f74207265676973746572656420746f2074686960008201527f732061736573736d656e74000000000000000000000000000000000000000000602082015250565b6000613fde602b8361346a565b9150613fe982613f82565b604082019050919050565b6000602082019050818103600083015261400d81613fd1565b9050919050565b7f53747564656e74206973206e6f74207265676973746572656420746f2074686560008201527f20636f7572736500000000000000000000000000000000000000000000000000602082015250565b600061407060278361346a565b915061407b82614014565b604082019050919050565b6000602082019050818103600083015261409f81614063565b9050919050565b60006140b182613084565b91506140bc83613084565b92508282019050808211156140d4576140d36139a5565b5b92915050565b600481106140e757600080fd5b50565b6000815190506140f9816140da565b92915050565b6000602082840312156141155761411461307a565b5b6000614123848285016140ea565b91505092915050565b6000819050919050565b6000819050919050565b600061415b6141566141518461412c565b614136565b613084565b9050919050565b61416b81614140565b82525050565b7f4175746f6d617469633a204e6f207375626d697373696f6e207761732068616e60008201527f64656420696e0000000000000000000000000000000000000000000000000000602082015250565b60006141cd60268361346a565b91506141d882614171565b604082019050919050565b600060c0820190506141f86000830188613185565b6142056020830187613185565b6142126040830186613185565b61421f6060830185614162565b8181036080830152614230816141c0565b905061423f60a0830184613185565b9695505050505050565b7f4175746f6d617469633a204578616d20776173206e6f7420617474656e646564600082015250565b600061427f60208361346a565b915061428a82614249565b602082019050919050565b600060c0820190506142aa6000830188613185565b6142b76020830187613185565b6142c46040830186613185565b6142d16060830185614162565b81810360808301526142e281614272565b90506142f160a0830184613185565b9695505050505050565b600067ffffffffffffffff821115614316576143156137ef565b5b602082029050602081019050919050565b600080fd5b600080fd5b600080fd5b600067ffffffffffffffff821115614351576143506137ef565b5b61435a82613739565b9050602081019050919050565b60005b8381101561438557808201518184015260208101905061436a565b60008484015250505050565b60006143a461439f84614336565b61384f565b9050828152602081018484840111156143c0576143bf614331565b5b6143cb848285614367565b509392505050565b600082601f8301126143e8576143e76131bd565b5b81516143f8848260208601614391565b91505092915050565b6000610140828403121561441857614417614327565b5b61442361014061384f565b9050600082015167ffffffffffffffff8111156144435761444261432c565b5b61444f848285016143d3565b6000830152506020614463848285016134e7565b602083015250604082015167ffffffffffffffff8111156144875761448661432c565b5b614493848285016143d3565b60408301525060606144a784828501613554565b60608301525060806144bb848285016134e7565b60808301525060a06144cf848285016134e7565b60a08301525060c06144e384828501613602565b60c08301525060e06144f7848285016134e7565b60e08301525061010061450c848285016134e7565b61010083015250610120614522848285016134e7565b6101208301525092915050565b60006040828403121561454557614544614327565b5b61454f604061384f565b9050600061455f848285016134e7565b600083015250602082015167ffffffffffffffff8111156145835761458261432c565b5b61458f84828501614401565b60208301525092915050565b60006145ae6145a9846142fb565b61384f565b905080838252602082019050602084028301858111156145d1576145d06131c7565b5b835b8181101561461857805167ffffffffffffffff8111156145f6576145f56131bd565b5b808601614603898261452f565b855260208501945050506020810190506145d3565b5050509392505050565b600082601f830112614637576146366131bd565b5b815161464784826020860161459b565b91505092915050565b6000602082840312156146665761466561307a565b5b600082015167ffffffffffffffff8111156146845761468361307f565b5b61469084828501614622565b91505092915050565b7f4175746f6d617469633a204174206c65617374206f6e65206f6620746865206160008201527f73736573736d656e747320646964206e6f7420726561636820746865206d696e60208201527f696d756d20706f696e7473000000000000000000000000000000000000000000604082015250565b600061471b604b8361346a565b915061472682614699565b606082019050919050565b600060e0820190506147466000830189613185565b6147536020830188613185565b6147606040830187613185565b61476d6060830186613185565b818103608083015261477e8161470e565b905061478d60a0830185613185565b61479a60c08301846136d6565b979650505050505050565b600067ffffffffffffffff8211156147c0576147bf6137ef565b5b602082029050602081019050919050565b6000604082840312156147e7576147e6614327565b5b6147f1604061384f565b90506000614801848285016134e7565b6000830152506020614815848285016134e7565b60208301525092915050565b600061483461482f846147a5565b61384f565b90508083825260208201905060408402830185811115614857576148566131c7565b5b835b81811015614880578061486c88826147d1565b845260208401935050604081019050614859565b5050509392505050565b600082601f83011261489f5761489e6131bd565b5b81516148af848260208601614821565b91505092915050565b6000602082840312156148ce576148cd61307a565b5b600082015167ffffffffffffffff8111156148ec576148eb61307f565b5b6148f88482850161488a565b91505092915050565b50565b600061491160008361346a565b915061491c82614901565b600082019050919050565b600060e08201905061493c6000830189613185565b6149496020830188613185565b6149566040830187613185565b6149636060830186613185565b818103608083015261497481614904565b905061498360a0830185613185565b61499060c08301846136d6565b979650505050505050565b60008160011c9050919050565b6000808291508390505b60018511156149f2578086048111156149ce576149cd6139a5565b5b60018516156149dd5780820291505b80810290506149eb8561499b565b94506149b2565b94509492505050565b600082614a0b5760019050614ac7565b81614a195760009050614ac7565b8160018114614a2f5760028114614a3957614a68565b6001915050614ac7565b60ff841115614a4b57614a4a6139a5565b5b8360020a915084821115614a6257614a616139a5565b5b50614ac7565b5060208310610133831016604e8410600b8410161715614a9d5782820a905083811115614a9857614a976139a5565b5b614ac7565b614aaa84848460016149a8565b92509050818404811115614ac157614ac06139a5565b5b81810290505b9392505050565b6000614ad982613084565b9150614ae483613084565b9250614b117fffffffffffffffffffffffffffffffffffffffffffffffffffffffffffffffff84846149fb565b905092915050565b6000614b2482613084565b9150614b2f83613084565b9250828202614b3d81613084565b91508282048414831517614b5457614b536139a5565b5b5092915050565b7f4e487b7100000000000000000000000000000000000000000000000000000000600052601260045260246000fd5b6000614b9582613084565b9150614ba083613084565b925082614bb057614baf614b5b565b5b82820490509291505056fea26469706673582212202c8a5bebef3ace0ceca479a8da8f9cd0c3a3645b20f4dbcecc3b7589acff16c064736f6c63430008110033",
  "linkReferences": {},
  "deployedLinkReferences": {}
}