{
  "_format": "hh-sol-artifact-1",
  "contractName": "CourseController",
  "sourceName": "contracts/logic/CourseController.sol",
  "abi": [
    {
      "inputs": [
        {
          "internalType": "address",
          "name": "addressBookAddress",
          "type": "address"
        }
      ],
      "stateMutability": "nonpayable",
      "type": "constructor"
    },
    {
      "inputs": [
        {
          "internalType": "uint256",
          "name": "courseId",
          "type": "uint256"
        },
        {
          "internalType": "uint256",
          "name": "studentUId",
          "type": "uint256"
        }
      ],
      "name": "addStudentToCourse",
      "outputs": [],
      "stateMutability": "nonpayable",
      "type": "function"
    },
    {
      "inputs": [
        {
          "components": [
            {
              "internalType": "string",
              "name": "title",
              "type": "string"
            },
            {
              "internalType": "string",
              "name": "code",
              "type": "string"
            },
            {
              "internalType": "enum CourseDataTypes.CourseType",
              "name": "courseType",
              "type": "uint8"
            },
            {
              "components": [
                {
                  "internalType": "uint256",
                  "name": "year",
                  "type": "uint256"
                },
                {
                  "internalType": "enum CourseDataTypes.SemesterSeason",
                  "name": "season",
                  "type": "uint8"
                }
              ],
              "internalType": "struct CourseDataTypes.Semester",
              "name": "semester",
              "type": "tuple"
            },
            {
              "internalType": "string",
              "name": "description",
              "type": "string"
            },
            {
              "internalType": "string",
              "name": "examTopics",
              "type": "string"
            },
            {
              "internalType": "string",
              "name": "language",
              "type": "string"
            },
            {
              "internalType": "uint256",
              "name": "ects",
              "type": "uint256"
            },
            {
              "internalType": "uint256",
              "name": "maxPlaces",
              "type": "uint256"
            },
            {
              "internalType": "uint256",
              "name": "registrationStart",
              "type": "uint256"
            },
            {
              "internalType": "uint256",
              "name": "registrationDeadline",
              "type": "uint256"
            },
            {
              "internalType": "uint256",
              "name": "deregistrationDeadline",
              "type": "uint256"
            },
            {
              "components": [
                {
                  "internalType": "uint256",
                  "name": "datetime",
                  "type": "uint256"
                },
                {
                  "internalType": "string",
                  "name": "place",
                  "type": "string"
                }
              ],
              "internalType": "struct CourseDataTypes.Class[]",
              "name": "classes",
              "type": "tuple[]"
            },
            {
              "components": [
                {
                  "internalType": "uint256",
                  "name": "grade",
                  "type": "uint256"
                },
                {
                  "internalType": "uint256",
                  "name": "minPercentage",
                  "type": "uint256"
                }
              ],
              "internalType": "struct CourseDataTypes.GradeLevel[]",
              "name": "gradeLevels",
              "type": "tuple[]"
            },
            {
              "internalType": "string[]",
              "name": "requirementCourseCodes",
              "type": "string[]"
            }
          ],
          "internalType": "struct CourseDataTypes.CourseContent",
          "name": "courseContent",
          "type": "tuple"
        },
        {
          "components": [
            {
              "internalType": "string",
              "name": "title",
              "type": "string"
            },
            {
              "internalType": "uint256",
              "name": "datetime",
              "type": "uint256"
            },
            {
              "internalType": "string",
              "name": "place",
              "type": "string"
            },
            {
              "internalType": "enum CourseDataTypes.AssessmentType",
              "name": "assessmentType",
              "type": "uint8"
            },
            {
              "internalType": "uint256",
              "name": "maxPoints",
              "type": "uint256"
            },
            {
              "internalType": "uint256",
              "name": "minPoints",
              "type": "uint256"
            },
            {
              "internalType": "bool",
              "name": "isRegistrationRequired",
              "type": "bool"
            },
            {
              "internalType": "uint256",
              "name": "registrationStart",
              "type": "uint256"
            },
            {
              "internalType": "uint256",
              "name": "registrationDeadline",
              "type": "uint256"
            },
            {
              "internalType": "uint256",
              "name": "deregistrationDeadline",
              "type": "uint256"
            }
          ],
          "internalType": "struct CourseDataTypes.AssessmentContent[]",
          "name": "assessmentContents",
          "type": "tuple[]"
        },
        {
          "internalType": "uint256[]",
          "name": "lecturerUIds",
          "type": "uint256[]"
        },
        {
          "internalType": "uint256[]",
          "name": "studyProgramIds",
          "type": "uint256[]"
        }
      ],
      "name": "createNewCourse",
      "outputs": [],
      "stateMutability": "nonpayable",
      "type": "function"
    },
    {
      "inputs": [
        {
          "internalType": "uint256",
          "name": "assessmentId",
          "type": "uint256"
        }
      ],
      "name": "deregisterFromAssessment",
      "outputs": [],
      "stateMutability": "nonpayable",
      "type": "function"
    },
    {
      "inputs": [
        {
          "internalType": "uint256",
          "name": "courseId",
          "type": "uint256"
        }
      ],
      "name": "deregisterFromCourse",
      "outputs": [],
      "stateMutability": "nonpayable",
      "type": "function"
    },
    {
      "inputs": [
        {
          "internalType": "uint256",
          "name": "assessmentId",
          "type": "uint256"
        }
      ],
      "name": "registerToAssessment",
      "outputs": [],
      "stateMutability": "nonpayable",
      "type": "function"
    },
    {
      "inputs": [
        {
          "internalType": "uint256",
          "name": "courseId",
          "type": "uint256"
        }
      ],
      "name": "registerToCourse",
      "outputs": [],
      "stateMutability": "nonpayable",
      "type": "function"
    },
    {
      "inputs": [
        {
          "internalType": "uint256",
          "name": "courseId",
          "type": "uint256"
        },
        {
          "internalType": "uint256",
          "name": "studentUId",
          "type": "uint256"
        }
      ],
      "name": "removeStudentFromCourse",
      "outputs": [],
      "stateMutability": "nonpayable",
      "type": "function"
    }
  ],
  "bytecode": "0x60806040523480156200001157600080fd5b5060405162004831380380620048318339818101604052810190620000379190620000ec565b8080806000806101000a81548173ffffffffffffffffffffffffffffffffffffffff021916908373ffffffffffffffffffffffffffffffffffffffff1602179055505050506200011e565b600080fd5b600073ffffffffffffffffffffffffffffffffffffffff82169050919050565b6000620000b48262000087565b9050919050565b620000c681620000a7565b8114620000d257600080fd5b50565b600081519050620000e681620000bb565b92915050565b60006020828403121562000105576200010462000082565b5b60006200011584828501620000d5565b91505092915050565b614703806200012e6000396000f3fe608060405234801561001057600080fd5b506004361061007d5760003560e01c806340b855301161005b57806340b85530146100d65780634683dfc9146100f25780636c314ea51461010e5780637c9f444e1461012a5761007d565b806320b19cbe14610082578063348c42291461009e5780633aa41d7a146100ba575b600080fd5b61009c6004803603810190610097919061242a565b610146565b005b6100b860048036038101906100b3919061246a565b610242565b005b6100d460048036038101906100cf919061246a565b6106b0565b005b6100f060048036038101906100eb9190612577565b6109c5565b005b61010c6004803603810190610107919061246a565b610eff565b005b6101286004803603810190610123919061246a565b611164565b005b610144600480360381019061013f919061242a565b611946565b005b61014e611a53565b6002808111156101615761016061265c565b5b610169611b15565b73ffffffffffffffffffffffffffffffffffffffff1663dd8b2914336040518263ffffffff1660e01b81526004016101a191906126cc565b602060405180830381865afa1580156101be573d6000803e3d6000fd5b505050506040513d601f19601f820116820180604052508101906101e2919061270c565b60028111156101f4576101f361265c565b5b14610234576040517f08c379a000000000000000000000000000000000000000000000000000000000815260040161022b906127bc565b60405180910390fd5b61023e8282611bb8565b5050565b61024a611a53565b6000600281111561025e5761025d61265c565b5b610266611b15565b73ffffffffffffffffffffffffffffffffffffffff1663dd8b2914336040518263ffffffff1660e01b815260040161029e91906126cc565b602060405180830381865afa1580156102bb573d6000803e3d6000fd5b505050506040513d601f19601f820116820180604052508101906102df919061270c565b60028111156102f1576102f061265c565b5b14610331576040517f08c379a000000000000000000000000000000000000000000000000000000000815260040161032890612828565b60405180910390fd5b600061033b611b15565b73ffffffffffffffffffffffffffffffffffffffff1663e3d7e14c336040518263ffffffff1660e01b815260040161037391906126cc565b602060405180830381865afa158015610390573d6000803e3d6000fd5b505050506040513d601f19601f820116820180604052508101906103b4919061285d565b905060006103c0611dab565b73ffffffffffffffffffffffffffffffffffffffff1663a31cf91f846040518263ffffffff1660e01b81526004016103f89190612899565b602060405180830381865afa158015610415573d6000803e3d6000fd5b505050506040513d601f19601f82011682018060405250810190610439919061285d565b905061044d8282610448611e4e565b611ef1565b610455611dab565b73ffffffffffffffffffffffffffffffffffffffff166330938d70846040518263ffffffff1660e01b815260040161048d9190612899565b602060405180830381865afa1580156104aa573d6000803e3d6000fd5b505050506040513d601f19601f820116820180604052508101906104ce91906128ec565b61050d576040517f08c379a00000000000000000000000000000000000000000000000000000000081526004016105049061298b565b60405180910390fd5b61051f828461051a611dab565b611f40565b1561055f576040517f08c379a000000000000000000000000000000000000000000000000000000000815260040161055690612a1d565b60405180910390fd5b60008061056a611dab565b73ffffffffffffffffffffffffffffffffffffffff1663d8d50641866040518263ffffffff1660e01b81526004016105a29190612899565b6040805180830381865afa1580156105be573d6000803e3d6000fd5b505050506040513d601f19601f820116820180604052508101906105e29190612a3d565b915091508142101580156105f65750804211155b610635576040517f08c379a000000000000000000000000000000000000000000000000000000000815260040161062c90612aef565b60405180910390fd5b61063d611dab565b73ffffffffffffffffffffffffffffffffffffffff16632b00d6ca86866040518363ffffffff1660e01b8152600401610677929190612b0f565b600060405180830381600087803b15801561069157600080fd5b505af11580156106a5573d6000803e3d6000fd5b505050505050505050565b6106b8611a53565b600060028111156106cc576106cb61265c565b5b6106d4611b15565b73ffffffffffffffffffffffffffffffffffffffff1663dd8b2914336040518263ffffffff1660e01b815260040161070c91906126cc565b602060405180830381865afa158015610729573d6000803e3d6000fd5b505050506040513d601f19601f8201168201806040525081019061074d919061270c565b600281111561075f5761075e61265c565b5b1461079f576040517f08c379a000000000000000000000000000000000000000000000000000000000815260040161079690612828565b60405180910390fd5b60006107a9611b15565b73ffffffffffffffffffffffffffffffffffffffff1663e3d7e14c336040518263ffffffff1660e01b81526004016107e191906126cc565b602060405180830381865afa1580156107fe573d6000803e3d6000fd5b505050506040513d601f19601f82011682018060405250810190610822919061285d565b90506108368183610831611dab565b611f40565b610875576040517f08c379a000000000000000000000000000000000000000000000000000000000815260040161086c90612baa565b60405180910390fd5b600080610880611dab565b73ffffffffffffffffffffffffffffffffffffffff166360dcaa46856040518263ffffffff1660e01b81526004016108b89190612899565b6040805180830381865afa1580156108d4573d6000803e3d6000fd5b505050506040513d601f19601f820116820180604052508101906108f89190612a3d565b9150915081421015801561090c5750804211155b61094b576040517f08c379a000000000000000000000000000000000000000000000000000000000815260040161094290612c3c565b60405180910390fd5b610953611dab565b73ffffffffffffffffffffffffffffffffffffffff1663e0d0346e85856040518363ffffffff1660e01b815260040161098d929190612b0f565b600060405180830381600087803b1580156109a757600080fd5b505af11580156109bb573d6000803e3d6000fd5b5050505050505050565b6109cd611a53565b600160028111156109e1576109e061265c565b5b6109e9611b15565b73ffffffffffffffffffffffffffffffffffffffff1663dd8b2914336040518263ffffffff1660e01b8152600401610a2191906126cc565b602060405180830381865afa158015610a3e573d6000803e3d6000fd5b505050506040513d601f19601f82011682018060405250810190610a62919061270c565b6002811115610a7457610a7361265c565b5b14610ab4576040517f08c379a0000000000000000000000000000000000000000000000000000000008152600401610aab90612ca8565b60405180910390fd5b60005b84849050811015610bd35760016002811115610ad657610ad561265c565b5b610ade611b15565b73ffffffffffffffffffffffffffffffffffffffff1663bdf3e912878785818110610b0c57610b0b612cc8565b5b905060200201356040518263ffffffff1660e01b8152600401610b2f9190612899565b602060405180830381865afa158015610b4c573d6000803e3d6000fd5b505050506040513d601f19601f82011682018060405250810190610b70919061270c565b6002811115610b8257610b8161265c565b5b14610bc2576040517f08c379a0000000000000000000000000000000000000000000000000000000008152600401610bb990612d69565b60405180910390fd5b80610bcc90612db8565b9050610ab7565b50600487806101c00190610be79190612e0f565b905014610c29576040517f08c379a0000000000000000000000000000000000000000000000000000000008152600401610c2090612f0a565b60405180910390fd5b60005b87806101c00190610c3d9190612e0f565b9050811015610d0b57610c7c88806101c00190610c5a9190612e0f565b83818110610c6b57610c6a612cc8565b5b905060400201600001356005611fd3565b8015610cbb5750610cb988806101c00190610c979190612e0f565b83818110610ca857610ca7612cc8565b5b905060400201600001356001611fd3565b155b610cfa576040517f08c379a0000000000000000000000000000000000000000000000000000000008152600401610cf190612f9c565b60405180910390fd5b80610d0490612db8565b9050610c2c565b506000610d16611e4e565b73ffffffffffffffffffffffffffffffffffffffff1663151c09f1896040518263ffffffff1660e01b8152600401610d4e91906137ed565b6020604051808303816000875af1158015610d6d573d6000803e3d6000fd5b505050506040513d601f19601f82011682018060405250810190610d91919061285d565b9050610d9b611e4e565b73ffffffffffffffffffffffffffffffffffffffff16637499e5dc8287876040518463ffffffff1660e01b8152600401610dd79392919061388a565b600060405180830381600087803b158015610df157600080fd5b505af1158015610e05573d6000803e3d6000fd5b50505050610e11611e4e565b73ffffffffffffffffffffffffffffffffffffffff166316d64af78285856040518463ffffffff1660e01b8152600401610e4d9392919061388a565b600060405180830381600087803b158015610e6757600080fd5b505af1158015610e7b573d6000803e3d6000fd5b50505050610e87611dab565b73ffffffffffffffffffffffffffffffffffffffff16634ad541338289896040518463ffffffff1660e01b8152600401610ec393929190613b89565b600060405180830381600087803b158015610edd57600080fd5b505af1158015610ef1573d6000803e3d6000fd5b505050505050505050505050565b610f07611a53565b60006002811115610f1b57610f1a61265c565b5b610f23611b15565b73ffffffffffffffffffffffffffffffffffffffff1663dd8b2914336040518263ffffffff1660e01b8152600401610f5b91906126cc565b602060405180830381865afa158015610f78573d6000803e3d6000fd5b505050506040513d601f19601f82011682018060405250810190610f9c919061270c565b6002811115610fae57610fad61265c565b5b14610fee576040517f08c379a0000000000000000000000000000000000000000000000000000000008152600401610fe590612828565b60405180910390fd5b6000610ff8611b15565b73ffffffffffffffffffffffffffffffffffffffff1663e3d7e14c336040518263ffffffff1660e01b815260040161103091906126cc565b602060405180830381865afa15801561104d573d6000803e3d6000fd5b505050506040513d601f19601f82011682018060405250810190611071919061285d565b905060008061107e611e4e565b73ffffffffffffffffffffffffffffffffffffffff16630e84e79c856040518263ffffffff1660e01b81526004016110b69190612899565b6040805180830381865afa1580156110d2573d6000803e3d6000fd5b505050506040513d601f19601f820116820180604052508101906110f69190612a3d565b91509150600082148061111557508142101580156111145750804211155b5b611154576040517f08c379a000000000000000000000000000000000000000000000000000000000815260040161114b90613c2d565b60405180910390fd5b61115e8484611bb8565b50505050565b61116c611a53565b600060028111156111805761117f61265c565b5b611188611b15565b73ffffffffffffffffffffffffffffffffffffffff1663dd8b2914336040518263ffffffff1660e01b81526004016111c091906126cc565b602060405180830381865afa1580156111dd573d6000803e3d6000fd5b505050506040513d601f19601f82011682018060405250810190611201919061270c565b60028111156112135761121261265c565b5b14611253576040517f08c379a000000000000000000000000000000000000000000000000000000000815260040161124a90612828565b60405180910390fd5b600061125d611b15565b73ffffffffffffffffffffffffffffffffffffffff1663e3d7e14c336040518263ffffffff1660e01b815260040161129591906126cc565b602060405180830381865afa1580156112b2573d6000803e3d6000fd5b505050506040513d601f19601f820116820180604052508101906112d6919061285d565b905060006112e2611e4e565b73ffffffffffffffffffffffffffffffffffffffff166348cd378c846040518263ffffffff1660e01b815260040161131a9190612899565b600060405180830381865afa158015611337573d6000803e3d6000fd5b505050506040513d6000823e3d601f19601f820116820180604052508101906113609190613d8b565b905060005b81518110156114675761141782828151811061138457611383612cc8565b5b6020026020010151611394611b15565b73ffffffffffffffffffffffffffffffffffffffff16634efe9cac866040518263ffffffff1660e01b81526004016113cc9190612899565b600060405180830381865afa1580156113e9573d6000803e3d6000fd5b505050506040513d6000823e3d601f19601f820116820180604052508101906114129190613d8b565b611fe0565b611456576040517f08c379a000000000000000000000000000000000000000000000000000000000815260040161144d90613e6c565b60405180910390fd5b8061146090612db8565b9050611365565b506000611472611e4e565b73ffffffffffffffffffffffffffffffffffffffff1663ad21e07a856040518263ffffffff1660e01b81526004016114aa9190612899565b600060405180830381865afa1580156114c7573d6000803e3d6000fd5b505050506040513d6000823e3d601f19601f820116820180604052508101906114f0919061403d565b905060005b8151811015611709576000611508611e4e565b73ffffffffffffffffffffffffffffffffffffffff166389eb61df84848151811061153657611535612cc8565b5b60200260200101516040518263ffffffff1660e01b815260040161155a91906140ca565b600060405180830381865afa158015611577573d6000803e3d6000fd5b505050506040513d6000823e3d601f19601f820116820180604052508101906115a09190613d8b565b90506000805b8251811015611678576116596115ba611ff7565b73ffffffffffffffffffffffffffffffffffffffff1663374a62a0898685815181106115e9576115e8612cc8565b5b60200260200101516040518363ffffffff1660e01b815260040161160e929190612b0f565b600060405180830381865afa15801561162b573d6000803e3d6000fd5b505050506040513d6000823e3d601f19601f8201168201806040525081019061165491906141b2565b61209a565b156116675760019150611678565b8061167190612db8565b90506115a6565b508084848151811061168d5761168c612cc8565b5b60200260200101516040516020016116a591906142a9565b604051602081830303815290604052906116f5576040517f08c379a00000000000000000000000000000000000000000000000000000000081526004016116ec91906140ca565b60405180910390fd5b5050508061170290612db8565b90506114f5565b50600080611715611e4e565b73ffffffffffffffffffffffffffffffffffffffff1663ab342b8b876040518263ffffffff1660e01b815260040161174d9190612899565b6040805180830381865afa158015611769573d6000803e3d6000fd5b505050506040513d601f19601f8201168201806040525081019061178d9190612a3d565b9150915060008214806117ac57508142101580156117ab5750804211155b5b6117eb576040517f08c379a00000000000000000000000000000000000000000000000000000000081526004016117e29061433d565b60405180910390fd5b6117f3611e4e565b73ffffffffffffffffffffffffffffffffffffffff1663dddd64a0876040518263ffffffff1660e01b815260040161182b9190612899565b602060405180830381865afa158015611848573d6000803e3d6000fd5b505050506040513d601f19601f8201168201806040525081019061186c919061285d565b611874611e4e565b73ffffffffffffffffffffffffffffffffffffffff16636f4f5878886040518263ffffffff1660e01b81526004016118ac9190612899565b600060405180830381865afa1580156118c9573d6000803e3d6000fd5b505050506040513d6000823e3d601f19601f820116820180604052508101906118f29190613d8b565b511015611934576040517f08c379a000000000000000000000000000000000000000000000000000000000815260040161192b906143cf565b60405180910390fd5b61193e86866120ab565b505050505050565b61194e611a53565b6002808111156119615761196061265c565b5b611969611b15565b73ffffffffffffffffffffffffffffffffffffffff1663dd8b2914336040518263ffffffff1660e01b81526004016119a191906126cc565b602060405180830381865afa1580156119be573d6000803e3d6000fd5b505050506040513d601f19601f820116820180604052508101906119e2919061270c565b60028111156119f4576119f361265c565b5b14611a34576040517f08c379a0000000000000000000000000000000000000000000000000000000008152600401611a2b906127bc565b60405180910390fd5b611a4581611a40611b15565b6121f2565b611a4f82826120ab565b5050565b611a5b611b15565b73ffffffffffffffffffffffffffffffffffffffff166338b6a3a1336040518263ffffffff1660e01b8152600401611a9391906126cc565b602060405180830381865afa158015611ab0573d6000803e3d6000fd5b505050506040513d601f19601f82011682018060405250810190611ad491906128ec565b611b13576040517f08c379a0000000000000000000000000000000000000000000000000000000008152600401611b0a9061443b565b60405180910390fd5b565b60008060009054906101000a900473ffffffffffffffffffffffffffffffffffffffff1673ffffffffffffffffffffffffffffffffffffffff1663bcaa0c5560026040518263ffffffff1660e01b8152600401611b7291906144a3565b602060405180830381865afa158015611b8f573d6000803e3d6000fd5b505050506040513d601f19601f82011682018060405250810190611bb391906144ea565b905090565b611bca8183611bc5611e4e565b611ef1565b611bd2611e4e565b73ffffffffffffffffffffffffffffffffffffffff166354ace6bc83836040518363ffffffff1660e01b8152600401611c0c929190612b0f565b600060405180830381600087803b158015611c2657600080fd5b505af1158015611c3a573d6000803e3d6000fd5b505050506000611c48611dab565b73ffffffffffffffffffffffffffffffffffffffff1663786e0785846040518263ffffffff1660e01b8152600401611c809190612899565b600060405180830381865afa158015611c9d573d6000803e3d6000fd5b505050506040513d6000823e3d601f19601f82011682018060405250810190611cc69190613d8b565b905060005b8151811015611da557611d0083838381518110611ceb57611cea612cc8565b5b6020026020010151611cfb611dab565b611f40565b15611d9457611d0d611dab565b73ffffffffffffffffffffffffffffffffffffffff1663e0d0346e838381518110611d3b57611d3a612cc8565b5b6020026020010151856040518363ffffffff1660e01b8152600401611d61929190612b0f565b600060405180830381600087803b158015611d7b57600080fd5b505af1158015611d8f573d6000803e3d6000fd5b505050505b80611d9e90612db8565b9050611ccb565b50505050565b60008060009054906101000a900473ffffffffffffffffffffffffffffffffffffffff1673ffffffffffffffffffffffffffffffffffffffff1663bcaa0c5560016040518263ffffffff1660e01b8152600401611e0891906144a3565b602060405180830381865afa158015611e25573d6000803e3d6000fd5b505050506040513d601f19601f82011682018060405250810190611e4991906144ea565b905090565b60008060009054906101000a900473ffffffffffffffffffffffffffffffffffffffff1673ffffffffffffffffffffffffffffffffffffffff1663bcaa0c5560006040518263ffffffff1660e01b8152600401611eab91906144a3565b602060405180830381865afa158015611ec8573d6000803e3d6000fd5b505050506040513d601f19601f82011682018060405250810190611eec91906144ea565b905090565b611efc8383836122d6565b611f3b576040517f08c379a0000000000000000000000000000000000000000000000000000000008152600401611f3290614589565b60405180910390fd5b505050565b6000611fca848373ffffffffffffffffffffffffffffffffffffffff1663e285fd25866040518263ffffffff1660e01b8152600401611f7f9190612899565b600060405180830381865afa158015611f9c573d6000803e3d6000fd5b505050506040513d6000823e3d601f19601f82011682018060405250810190611fc59190613d8b565b611fe0565b90509392505050565b6000818310905092915050565b600080611fed8484612369565b1215905092915050565b60008060009054906101000a900473ffffffffffffffffffffffffffffffffffffffff1673ffffffffffffffffffffffffffffffffffffffff1663bcaa0c5560036040518263ffffffff1660e01b815260040161205491906144a3565b602060405180830381865afa158015612071573d6000803e3d6000fd5b505050506040513d601f19601f8201168201806040525081019061209591906144ea565b905090565b600060058260200151109050919050565b61213a816120b7611e4e565b73ffffffffffffffffffffffffffffffffffffffff16636f4f5878856040518263ffffffff1660e01b81526004016120ef9190612899565b600060405180830381865afa15801561210c573d6000803e3d6000fd5b505050506040513d6000823e3d601f19601f820116820180604052508101906121359190613d8b565b611fe0565b1561217a576040517f08c379a00000000000000000000000000000000000000000000000000000000081526004016121719061461b565b60405180910390fd5b612182611e4e565b73ffffffffffffffffffffffffffffffffffffffff166308ddb51883836040518363ffffffff1660e01b81526004016121bc929190612b0f565b600060405180830381600087803b1580156121d657600080fd5b505af11580156121ea573d6000803e3d6000fd5b505050505050565b600060028111156122065761220561265c565b5b8173ffffffffffffffffffffffffffffffffffffffff1663bdf3e912846040518263ffffffff1660e01b815260040161223f9190612899565b602060405180830381865afa15801561225c573d6000803e3d6000fd5b505050506040513d601f19601f82011682018060405250810190612280919061270c565b60028111156122925761229161265c565b5b146122d2576040517f08c379a00000000000000000000000000000000000000000000000000000000081526004016122c9906146ad565b60405180910390fd5b5050565b6000612360848373ffffffffffffffffffffffffffffffffffffffff16636f4f5878866040518263ffffffff1660e01b81526004016123159190612899565b600060405180830381865afa158015612332573d6000803e3d6000fd5b505050506040513d6000823e3d601f19601f8201168201806040525081019061235b9190613d8b565b611fe0565b90509392505050565b600080600090505b82518110156123b5578383828151811061238e5761238d612cc8565b5b6020026020010151036123a457809150506123da565b806123ae90612db8565b9050612371565b507fffffffffffffffffffffffffffffffffffffffffffffffffffffffffffffffff90505b92915050565b6000604051905090565b600080fd5b600080fd5b6000819050919050565b612407816123f4565b811461241257600080fd5b50565b600081359050612424816123fe565b92915050565b60008060408385031215612441576124406123ea565b5b600061244f85828601612415565b925050602061246085828601612415565b9150509250929050565b6000602082840312156124805761247f6123ea565b5b600061248e84828501612415565b91505092915050565b600080fd5b600061020082840312156124b3576124b2612497565b5b81905092915050565b600080fd5b600080fd5b600080fd5b60008083601f8401126124e1576124e06124bc565b5b8235905067ffffffffffffffff8111156124fe576124fd6124c1565b5b60208301915083602082028301111561251a576125196124c6565b5b9250929050565b60008083601f840112612537576125366124bc565b5b8235905067ffffffffffffffff811115612554576125536124c1565b5b6020830191508360208202830111156125705761256f6124c6565b5b9250929050565b60008060008060008060006080888a031215612596576125956123ea565b5b600088013567ffffffffffffffff8111156125b4576125b36123ef565b5b6125c08a828b0161249c565b975050602088013567ffffffffffffffff8111156125e1576125e06123ef565b5b6125ed8a828b016124cb565b9650965050604088013567ffffffffffffffff8111156126105761260f6123ef565b5b61261c8a828b01612521565b9450945050606088013567ffffffffffffffff81111561263f5761263e6123ef565b5b61264b8a828b01612521565b925092505092959891949750929550565b7f4e487b7100000000000000000000000000000000000000000000000000000000600052602160045260246000fd5b600073ffffffffffffffffffffffffffffffffffffffff82169050919050565b60006126b68261268b565b9050919050565b6126c6816126ab565b82525050565b60006020820190506126e160008301846126bd565b92915050565b600381106126f457600080fd5b50565b600081519050612706816126e7565b92915050565b600060208284031215612722576127216123ea565b5b6000612730848285016126f7565b91505092915050565b600082825260208201905092915050565b7f53656e646572206d75737420626520612073747564792070726f6772616d206d60008201527f616e616765720000000000000000000000000000000000000000000000000000602082015250565b60006127a6602683612739565b91506127b18261274a565b604082019050919050565b600060208201905081810360008301526127d581612799565b9050919050565b7f53656e646572206d75737420626520612073747564656e740000000000000000600082015250565b6000612812601883612739565b915061281d826127dc565b602082019050919050565b6000602082019050818103600083015261284181612805565b9050919050565b600081519050612857816123fe565b92915050565b600060208284031215612873576128726123ea565b5b600061288184828501612848565b91505092915050565b612893816123f4565b82525050565b60006020820190506128ae600083018461288a565b92915050565b60008115159050919050565b6128c9816128b4565b81146128d457600080fd5b50565b6000815190506128e6816128c0565b92915050565b600060208284031215612902576129016123ea565b5b6000612910848285016128d7565b91505092915050565b7f54686973206173736573736d656e7420646f6573206e6f74207265717569726560008201527f20726567697374726174696f6e00000000000000000000000000000000000000602082015250565b6000612975602d83612739565b915061298082612919565b604082019050919050565b600060208201905081810360008301526129a481612968565b9050919050565b7f53747564656e742068617320616c72656164792072656769737465726564207460008201527f6f2074686973206173736573736d656e74000000000000000000000000000000602082015250565b6000612a07603183612739565b9150612a12826129ab565b604082019050919050565b60006020820190508181036000830152612a36816129fa565b9050919050565b60008060408385031215612a5457612a536123ea565b5b6000612a6285828601612848565b9250506020612a7385828601612848565b9150509250929050565b7f4173736573736d656e7420726567697374726174696f6e206973206e6f74207060008201527f6f737369626c65206174207468652074696d6500000000000000000000000000602082015250565b6000612ad9603383612739565b9150612ae482612a7d565b604082019050919050565b60006020820190508181036000830152612b0881612acc565b9050919050565b6000604082019050612b24600083018561288a565b612b31602083018461288a565b9392505050565b7f53747564656e7420686173206e65766572207265676973746572656420746f2060008201527f74686973206173736573736d656e740000000000000000000000000000000000602082015250565b6000612b94602f83612739565b9150612b9f82612b38565b604082019050919050565b60006020820190508181036000830152612bc381612b87565b9050919050565b7f4173736573736d656e74206465726567697374726174696f6e206973206e6f7460008201527f20706f737369626c65206174207468652074696d650000000000000000000000602082015250565b6000612c26603583612739565b9150612c3182612bca565b604082019050919050565b60006020820190508181036000830152612c5581612c19565b9050919050565b7f53656e646572206d7573742062652061206c6563747572657200000000000000600082015250565b6000612c92601983612739565b9150612c9d82612c5c565b602082019050919050565b60006020820190508181036000830152612cc181612c85565b9050919050565b7f4e487b7100000000000000000000000000000000000000000000000000000000600052603260045260246000fd5b7f50726f7669646564206c65637475726572206973206e6f74207265676973746560008201527f726564206173206c656374757265720000000000000000000000000000000000602082015250565b6000612d53602f83612739565b9150612d5e82612cf7565b604082019050919050565b60006020820190508181036000830152612d8281612d46565b9050919050565b7f4e487b7100000000000000000000000000000000000000000000000000000000600052601160045260246000fd5b6000612dc3826123f4565b91507fffffffffffffffffffffffffffffffffffffffffffffffffffffffffffffffff8203612df557612df4612d89565b5b600182019050919050565b600080fd5b600080fd5b600080fd5b60008083356001602003843603038112612e2c57612e2b612e00565b5b80840192508235915067ffffffffffffffff821115612e4e57612e4d612e05565b5b602083019250604082023603831315612e6a57612e69612e0a565b5b509250929050565b7f34206772616465206c6576656c73206d7573742062652073706563696669656460008201527f2c207374617274696e672066726f6d2074686520666972737420706f7369746960208201527f7665206772616465000000000000000000000000000000000000000000000000604082015250565b6000612ef4604883612739565b9150612eff82612e72565b606082019050919050565b60006020820190508181036000830152612f2381612ee7565b9050919050565b7f50726f7669646564206772616465206973206f7574206f66207468652067726160008201527f6465206c696d6d69747300000000000000000000000000000000000000000000602082015250565b6000612f86602a83612739565b9150612f9182612f2a565b604082019050919050565b60006020820190508181036000830152612fb581612f79565b9050919050565b600080fd5b600080fd5b600080fd5b60008083356001602003843603038112612fe857612fe7612fc6565b5b83810192508235915060208301925067ffffffffffffffff8211156130105761300f612fbc565b5b60018202360383131561302657613025612fc1565b5b509250929050565b600082825260208201905092915050565b82818337600083830152505050565b6000601f19601f8301169050919050565b600061306b838561302e565b935061307883858461303f565b6130818361304e565b840190509392505050565b6004811061309957600080fd5b50565b6000813590506130ab8161308c565b92915050565b60006130c0602084018461309c565b905092915050565b600481106130d9576130d861265c565b5b50565b60008190506130ea826130c8565b919050565b60006130fa826130dc565b9050919050565b61310a816130ef565b82525050565b600082905092915050565b600061312a6020840184612415565b905092915050565b61313b816123f4565b82525050565b6002811061314e57600080fd5b50565b60008135905061316081613141565b92915050565b60006131756020840184613151565b905092915050565b6002811061318e5761318d61265c565b5b50565b600081905061319f8261317d565b919050565b60006131af82613191565b9050919050565b6131bf816131a4565b82525050565b604082016131d6600083018361311b565b6131e36000850182613132565b506131f16020830183613166565b6131fe60208501826131b6565b50505050565b6000808335600160200384360303811261322157613220612fc6565b5b83810192508235915060208301925067ffffffffffffffff82111561324957613248612fbc565b5b60208202360383131561325f5761325e612fc1565b5b509250929050565b600082825260208201905092915050565b6000819050919050565b600060408301613295600084018461311b565b6132a26000860182613132565b506132b06020840184612fcb565b85830360208701526132c383828461305f565b925050508091505092915050565b60006132dd8383613282565b905092915050565b60008235600160400383360303811261330157613300612fc6565b5b82810191505092915050565b6000602082019050919050565b60006133268385613267565b93508360208402850161333884613278565b8060005b8781101561337c57848403895261335382846132e5565b61335d85826132d1565b94506133688361330d565b925060208a0199505060018101905061333c565b50829750879450505050509392505050565b600080833560016020038436030381126133ab576133aa612fc6565b5b83810192508235915060208301925067ffffffffffffffff8211156133d3576133d2612fbc565b5b6040820236038313156133e9576133e8612fc1565b5b509250929050565b600082825260208201905092915050565b6000819050919050565b6040820161341d600083018361311b565b61342a6000850182613132565b50613438602083018361311b565b6134456020850182613132565b50505050565b6000613457838361340c565b60408301905092915050565b600082905092915050565b6000604082019050919050565b600061348783856133f1565b935061349282613402565b8060005b858110156134cb576134a88284613463565b6134b2888261344b565b97506134bd8361346e565b925050600181019050613496565b5085925050509392505050565b600080833560016020038436030381126134f5576134f4612fc6565b5b83810192508235915060208301925067ffffffffffffffff82111561351d5761351c612fbc565b5b60208202360383131561353357613532612fc1565b5b509250929050565b600082825260208201905092915050565b6000819050919050565b600061356384848461305f565b90509392505050565b6000602082019050919050565b6000613585838561353b565b9350836020840285016135978461354c565b8060005b878110156135dd5784840389526135b28284612fcb565b6135bd868284613556565b95506135c88461356c565b935060208b019a50505060018101905061359b565b50829750879450505050509392505050565b600061020083016136036000840184612fcb565b858303600087015261361683828461305f565b925050506136276020840184612fcb565b858303602087015261363a83828461305f565b9250505061364b60408401846130b1565b6136586040860182613101565b506136666060840184613110565b61367360608601826131c5565b5061368160a0840184612fcb565b85830360a087015261369483828461305f565b925050506136a560c0840184612fcb565b85830360c08701526136b883828461305f565b925050506136c960e0840184612fcb565b85830360e08701526136dc83828461305f565b925050506136ee61010084018461311b565b6136fc610100860182613132565b5061370b61012084018461311b565b613719610120860182613132565b5061372861014084018461311b565b613736610140860182613132565b5061374561016084018461311b565b613753610160860182613132565b5061376261018084018461311b565b613770610180860182613132565b5061377f6101a0840184613204565b8583036101a087015261379383828461331a565b925050506137a56101c084018461338e565b8583036101c08701526137b983828461347b565b925050506137cb6101e08401846134d8565b8583036101e08701526137df838284613579565b925050508091505092915050565b6000602082019050818103600083015261380781846135ef565b905092915050565b600082825260208201905092915050565b600080fd5b82818337505050565b600061383a838561380f565b93507f07ffffffffffffffffffffffffffffffffffffffffffffffffffffffffffffff83111561386d5761386c613820565b5b60208302925061387e838584613825565b82840190509392505050565b600060408201905061389f600083018661288a565b81810360208301526138b281848661382e565b9050949350505050565b600082825260208201905092915050565b6000819050919050565b600281106138e457600080fd5b50565b6000813590506138f6816138d7565b92915050565b600061390b60208401846138e7565b905092915050565b600281106139245761392361265c565b5b50565b600081905061393582613913565b919050565b600061394582613927565b9050919050565b6139558161393a565b82525050565b60008135905061396a816128c0565b92915050565b600061397f602084018461395b565b905092915050565b613990816128b4565b82525050565b600061014083016139aa6000840184612fcb565b85830360008701526139bd83828461305f565b925050506139ce602084018461311b565b6139db6020860182613132565b506139e96040840184612fcb565b85830360408701526139fc83828461305f565b92505050613a0d60608401846138fc565b613a1a606086018261394c565b50613a28608084018461311b565b613a356080860182613132565b50613a4360a084018461311b565b613a5060a0860182613132565b50613a5e60c0840184613970565b613a6b60c0860182613987565b50613a7960e084018461311b565b613a8660e0860182613132565b50613a9561010084018461311b565b613aa3610100860182613132565b50613ab261012084018461311b565b613ac0610120860182613132565b508091505092915050565b6000613ad78383613996565b905092915050565b60008235600161014003833603038112613afc57613afb612fc6565b5b82810191505092915050565b6000602082019050919050565b6000613b2183856138bc565b935083602084028501613b33846138cd565b8060005b87811015613b77578484038952613b4e8284613adf565b613b588582613acb565b9450613b6383613b08565b925060208a01995050600181019050613b37565b50829750879450505050509392505050565b6000604082019050613b9e600083018661288a565b8181036020830152613bb1818486613b15565b9050949350505050565b7f436f75727365206465726567697374726174696f6e206973206e6f7420706f7360008201527f7369626c65206174207468652074696d65000000000000000000000000000000602082015250565b6000613c17603183612739565b9150613c2282613bbb565b604082019050919050565b60006020820190508181036000830152613c4681613c0a565b9050919050565b7f4e487b7100000000000000000000000000000000000000000000000000000000600052604160045260246000fd5b613c858261304e565b810181811067ffffffffffffffff82111715613ca457613ca3613c4d565b5b80604052505050565b6000613cb76123e0565b9050613cc38282613c7c565b919050565b600067ffffffffffffffff821115613ce357613ce2613c4d565b5b602082029050602081019050919050565b6000613d07613d0284613cc8565b613cad565b90508083825260208201905060208402830185811115613d2a57613d296124c6565b5b835b81811015613d535780613d3f8882612848565b845260208401935050602081019050613d2c565b5050509392505050565b600082601f830112613d7257613d716124bc565b5b8151613d82848260208601613cf4565b91505092915050565b600060208284031215613da157613da06123ea565b5b600082015167ffffffffffffffff811115613dbf57613dbe6123ef565b5b613dcb84828501613d5d565b91505092915050565b7f53747564656e74206973206e6f7420656e726f6c6c656420696e20746865207360008201527f747564792070726f6772616d207468697320636f75727365206973206176616960208201527f6c61626c65206174000000000000000000000000000000000000000000000000604082015250565b6000613e56604883612739565b9150613e6182613dd4565b606082019050919050565b60006020820190508181036000830152613e8581613e49565b9050919050565b600067ffffffffffffffff821115613ea757613ea6613c4d565b5b602082029050602081019050919050565b600080fd5b600067ffffffffffffffff821115613ed857613ed7613c4d565b5b613ee18261304e565b9050602081019050919050565b60005b83811015613f0c578082015181840152602081019050613ef1565b60008484015250505050565b6000613f2b613f2684613ebd565b613cad565b905082815260208101848484011115613f4757613f46613eb8565b5b613f52848285613eee565b509392505050565b600082601f830112613f6f57613f6e6124bc565b5b8151613f7f848260208601613f18565b91505092915050565b6000613f9b613f9684613e8c565b613cad565b90508083825260208201905060208402830185811115613fbe57613fbd6124c6565b5b835b8181101561400557805167ffffffffffffffff811115613fe357613fe26124bc565b5b808601613ff08982613f5a565b85526020850194505050602081019050613fc0565b5050509392505050565b600082601f830112614024576140236124bc565b5b8151614034848260208601613f88565b91505092915050565b600060208284031215614053576140526123ea565b5b600082015167ffffffffffffffff811115614071576140706123ef565b5b61407d8482850161400f565b91505092915050565b600081519050919050565b600061409c82614086565b6140a68185612739565b93506140b6818560208601613eee565b6140bf8161304e565b840191505092915050565b600060208201905081810360008301526140e48184614091565b905092915050565b600080fd5b600080fd5b600060c0828403121561410c5761410b6140ec565b5b61411660c0613cad565b90506000614126848285016128d7565b600083015250602061413a84828501612848565b602083015250604082015167ffffffffffffffff81111561415e5761415d6140f1565b5b61416a84828501613f5a565b604083015250606061417e84828501612848565b606083015250608061419284828501612848565b60808301525060a06141a6848285016128d7565b60a08301525092915050565b6000602082840312156141c8576141c76123ea565b5b600082015167ffffffffffffffff8111156141e6576141e56123ef565b5b6141f2848285016140f6565b91505092915050565b600081905092915050565b7f526571756972656d656e7420636f75727365206973206e6f742066696c6c656460008201527f3a20000000000000000000000000000000000000000000000000000000000000602082015250565b60006142626022836141fb565b915061426d82614206565b602282019050919050565b600061428382614086565b61428d81856141fb565b935061429d818560208601613eee565b80840191505092915050565b60006142b482614255565b91506142c08284614278565b915081905092915050565b7f436f7572736520726567697374726174696f6e206973206e6f7420706f73736960008201527f626c65206174207468652074696d650000000000000000000000000000000000602082015250565b6000614327602f83612739565b9150614332826142cb565b604082019050919050565b600060208201905081810360008301526143568161431a565b9050919050565b7f436f7572736520686173207265616368656420697473206d6178696d756d207060008201527f61727469636970616e7473000000000000000000000000000000000000000000602082015250565b60006143b9602b83612739565b91506143c48261435d565b604082019050919050565b600060208201905081810360008301526143e8816143ac565b9050919050565b7f53656e646572206d757374206265206120726567697374657265642075736572600082015250565b6000614425602083612739565b9150614430826143ef565b602082019050919050565b6000602082019050818103600083015261445481614418565b9050919050565b6006811061446c5761446b61265c565b5b50565b600081905061447d8261445b565b919050565b600061448d8261446f565b9050919050565b61449d81614482565b82525050565b60006020820190506144b86000830184614494565b92915050565b6144c7816126ab565b81146144d257600080fd5b50565b6000815190506144e4816144be565b92915050565b600060208284031215614500576144ff6123ea565b5b600061450e848285016144d5565b91505092915050565b7f53747564656e74206973206e6f74207265676973746572656420746f2074686560008201527f20636f7572736500000000000000000000000000000000000000000000000000602082015250565b6000614573602783612739565b915061457e82614517565b604082019050919050565b600060208201905081810360008301526145a281614566565b9050919050565b7f53747564656e7420697320616c7265616479207265676973746572656420746f60008201527f2074686520636f75727365000000000000000000000000000000000000000000602082015250565b6000614605602b83612739565b9150614610826145a9565b604082019050919050565b60006020820190508181036000830152614634816145f8565b9050919050565b7f54686520676976656e2075494420646f6573206e6f742062656c6f6e6720746f60008201527f20612073747564656e7400000000000000000000000000000000000000000000602082015250565b6000614697602a83612739565b91506146a28261463b565b604082019050919050565b600060208201905081810360008301526146c68161468a565b905091905056fea2646970667358221220129ab03e35688b00c6e069dff960700e00866e3db7180326bc6db5d349e69f5464736f6c63430008110033",
  "linkReferences": {},
  "deployedLinkReferences": {}
}