{
  "_format": "hh-sol-artifact-1",
  "contractName": "StudyProgramStorage",
  "sourceName": "contracts/data/storage/studyprogram/StudyProgramStorage.sol",
  "abi": [
    {
      "inputs": [
        {
          "internalType": "address",
          "name": "accessWhitelistAddress",
          "type": "address"
        }
      ],
      "stateMutability": "nonpayable",
      "type": "constructor"
    },
    {
      "inputs": [],
      "name": "getAllStudyPrograms",
      "outputs": [
        {
          "components": [
            {
              "internalType": "uint256",
              "name": "programId",
              "type": "uint256"
            },
            {
              "internalType": "string",
              "name": "programName",
              "type": "string"
            }
          ],
          "internalType": "struct StudyProgramDataTypes.StudyProgram[]",
          "name": "",
          "type": "tuple[]"
        }
      ],
      "stateMutability": "view",
      "type": "function"
    },
    {
      "inputs": [
        {
          "internalType": "uint256",
          "name": "programId",
          "type": "uint256"
        }
      ],
      "name": "getStudyProgram",
      "outputs": [
        {
          "components": [
            {
              "internalType": "uint256",
              "name": "programId",
              "type": "uint256"
            },
            {
              "internalType": "string",
              "name": "programName",
              "type": "string"
            }
          ],
          "internalType": "struct StudyProgramDataTypes.StudyProgram",
          "name": "",
          "type": "tuple"
        }
      ],
      "stateMutability": "view",
      "type": "function"
    },
    {
      "inputs": [
        {
          "components": [
            {
              "internalType": "uint256",
              "name": "programId",
              "type": "uint256"
            },
            {
              "internalType": "string",
              "name": "programName",
              "type": "string"
            }
          ],
          "internalType": "struct StudyProgramDataTypes.StudyProgram",
          "name": "program",
          "type": "tuple"
        }
      ],
      "name": "storeStudyProgram",
      "outputs": [],
      "stateMutability": "nonpayable",
      "type": "function"
    }
  ],
  "bytecode": "0x60806040523480156200001157600080fd5b50604051620014d5380380620014d58339818101604052810190620000379190620000ec565b8080806000806101000a81548173ffffffffffffffffffffffffffffffffffffffff021916908373ffffffffffffffffffffffffffffffffffffffff1602179055505050506200011e565b600080fd5b600073ffffffffffffffffffffffffffffffffffffffff82169050919050565b6000620000b48262000087565b9050919050565b620000c681620000a7565b8114620000d257600080fd5b50565b600081519050620000e681620000bb565b92915050565b60006020828403121562000105576200010462000082565b5b60006200011584828501620000d5565b91505092915050565b6113a7806200012e6000396000f3fe608060405234801561001057600080fd5b50600436106100415760003560e01c806327d01076146100465780634e634eb514610062578063ad57f14c14610092575b600080fd5b610060600480360381019061005b919061086d565b6100b0565b005b61007c600480360381019061007791906108ec565b61027c565b60405161008991906109f5565b60405180910390f35b61009a610473565b6040516100a79190610b16565b60405180910390f35b60008054906101000a900473ffffffffffffffffffffffffffffffffffffffff1673ffffffffffffffffffffffffffffffffffffffff166313f44d10336040518263ffffffff1660e01b81526004016101099190610b79565b602060405180830381865afa158015610126573d6000803e3d6000fd5b505050506040513d601f19601f8201168201806040525081019061014a9190610bcc565b610189576040517f08c379a000000000000000000000000000000000000000000000000000000000815260040161018090610c56565b60405180910390fd5b6101cc81600001356040518060400160405280600a81526020017f50726f6772616d204944000000000000000000000000000000000000000000008152506106ca565b6102256001600083600001358152602001908152602001600020600001546040518060400160405280600a81526020017f50726f6772616d20494400000000000000000000000000000000000000000000815250610739565b806001600083600001358152602001908152602001600020818161024991906110dc565b90505060028160000135908060018154018082558091505060019003906000526020600020016000909190919091505550565b610284610825565b60008054906101000a900473ffffffffffffffffffffffffffffffffffffffff1673ffffffffffffffffffffffffffffffffffffffff166313f44d10336040518263ffffffff1660e01b81526004016102dd9190610b79565b602060405180830381865afa1580156102fa573d6000803e3d6000fd5b505050506040513d601f19601f8201168201806040525081019061031e9190610bcc565b61035d576040517f08c379a000000000000000000000000000000000000000000000000000000000815260040161035490610c56565b60405180910390fd5b6103b260016000848152602001908152602001600020600001546040518060400160405280600a81526020017f50726f6772616d204944000000000000000000000000000000000000000000008152506107a9565b60016000838152602001908152602001600020604051806040016040529081600082015481526020016001820180546103ea90610e0f565b80601f016020809104026020016040519081016040528092919081815260200182805461041690610e0f565b80156104635780601f1061043857610100808354040283529160200191610463565b820191906000526020600020905b81548152906001019060200180831161044657829003601f168201915b5050505050815250509050919050565b606060008054906101000a900473ffffffffffffffffffffffffffffffffffffffff1673ffffffffffffffffffffffffffffffffffffffff166313f44d10336040518263ffffffff1660e01b81526004016104ce9190610b79565b602060405180830381865afa1580156104eb573d6000803e3d6000fd5b505050506040513d601f19601f8201168201806040525081019061050f9190610bcc565b61054e576040517f08c379a000000000000000000000000000000000000000000000000000000000815260040161054590610c56565b60405180910390fd5b600060028054905067ffffffffffffffff81111561056f5761056e610db1565b5b6040519080825280602002602001820160405280156105a857816020015b610595610825565b81526020019060019003908161058d5790505b50905060005b6002805490508110156106c25760016000600283815481106105d3576105d26110ea565b5b906000526020600020015481526020019081526020016000206040518060400160405290816000820154815260200160018201805461061190610e0f565b80601f016020809104026020016040519081016040528092919081815260200182805461063d90610e0f565b801561068a5780601f1061065f5761010080835404028352916020019161068a565b820191906000526020600020905b81548152906001019060200180831161066d57829003601f168201915b5050505050815250508282815181106106a6576106a56110ea565b5b6020026020010181905250806106bb90611148565b90506105ae565b508091505090565b6106d382610818565b816040516020016106e49190611218565b60405160208183030381529060405290610734576040517f08c379a000000000000000000000000000000000000000000000000000000000815260040161072b9190611273565b60405180910390fd5b505050565b61074282610818565b158160405160200161075491906112e1565b604051602081830303815290604052906107a4576040517f08c379a000000000000000000000000000000000000000000000000000000000815260040161079b9190611273565b60405180910390fd5b505050565b6107b282610818565b816040516020016107c3919061134f565b60405160208183030381529060405290610813576040517f08c379a000000000000000000000000000000000000000000000000000000000815260040161080a9190611273565b60405180910390fd5b505050565b6000808214159050919050565b604051806040016040528060008152602001606081525090565b600080fd5b600080fd5b600080fd5b60006040828403121561086457610863610849565b5b81905092915050565b6000602082840312156108835761088261083f565b5b600082013567ffffffffffffffff8111156108a1576108a0610844565b5b6108ad8482850161084e565b91505092915050565b6000819050919050565b6108c9816108b6565b81146108d457600080fd5b50565b6000813590506108e6816108c0565b92915050565b6000602082840312156109025761090161083f565b5b6000610910848285016108d7565b91505092915050565b610922816108b6565b82525050565b600081519050919050565b600082825260208201905092915050565b60005b83811015610962578082015181840152602081019050610947565b60008484015250505050565b6000601f19601f8301169050919050565b600061098a82610928565b6109948185610933565b93506109a4818560208601610944565b6109ad8161096e565b840191505092915050565b60006040830160008301516109d06000860182610919565b50602083015184820360208601526109e8828261097f565b9150508091505092915050565b60006020820190508181036000830152610a0f81846109b8565b905092915050565b600081519050919050565b600082825260208201905092915050565b6000819050602082019050919050565b6000604083016000830151610a5b6000860182610919565b5060208301518482036020860152610a73828261097f565b9150508091505092915050565b6000610a8c8383610a43565b905092915050565b6000602082019050919050565b6000610aac82610a17565b610ab68185610a22565b935083602082028501610ac885610a33565b8060005b85811015610b045784840389528151610ae58582610a80565b9450610af083610a94565b925060208a01995050600181019050610acc565b50829750879550505050505092915050565b60006020820190508181036000830152610b308184610aa1565b905092915050565b600073ffffffffffffffffffffffffffffffffffffffff82169050919050565b6000610b6382610b38565b9050919050565b610b7381610b58565b82525050565b6000602082019050610b8e6000830184610b6a565b92915050565b60008115159050919050565b610ba981610b94565b8114610bb457600080fd5b50565b600081519050610bc681610ba0565b92915050565b600060208284031215610be257610be161083f565b5b6000610bf084828501610bb7565b91505092915050565b600082825260208201905092915050565b7f5468652073656e646572206973206e6f742077686974656c6973746564000000600082015250565b6000610c40601d83610bf9565b9150610c4b82610c0a565b602082019050919050565b60006020820190508181036000830152610c6f81610c33565b9050919050565b60008135610c83816108c0565b80915050919050565b60008160001b9050919050565b60007fffffffffffffffffffffffffffffffffffffffffffffffffffffffffffffffff610cc584610c8c565b9350801983169250808416831791505092915050565b6000819050919050565b6000610d00610cfb610cf6846108b6565b610cdb565b6108b6565b9050919050565b6000819050919050565b610d1a82610ce5565b610d2d610d2682610d07565b8354610c99565b8255505050565b600080fd5b600080fd5b600080fd5b60008083356001602003843603038112610d6057610d5f610d34565b5b80840192508235915067ffffffffffffffff821115610d8257610d81610d39565b5b602083019250600182023603831315610d9e57610d9d610d3e565b5b509250929050565b600082905092915050565b7f4e487b7100000000000000000000000000000000000000000000000000000000600052604160045260246000fd5b7f4e487b7100000000000000000000000000000000000000000000000000000000600052602260045260246000fd5b60006002820490506001821680610e2757607f821691505b602082108103610e3a57610e39610de0565b5b50919050565b60008190508160005260206000209050919050565b60006020601f8301049050919050565b600082821b905092915050565b600060088302610ea27fffffffffffffffffffffffffffffffffffffffffffffffffffffffffffffffff82610e65565b610eac8683610e65565b95508019841693508086168417925050509392505050565b610ecd83610ce5565b610ee1610ed982610d07565b848454610e72565b825550505050565b600090565b610ef6610ee9565b610f01818484610ec4565b505050565b5b81811015610f2557610f1a600082610eee565b600181019050610f07565b5050565b601f821115610f6a57610f3b81610e40565b610f4484610e55565b81016020851015610f53578190505b610f67610f5f85610e55565b830182610f06565b50505b505050565b600082821c905092915050565b6000610f8d60001984600802610f6f565b1980831691505092915050565b6000610fa68383610f7c565b9150826002028217905092915050565b610fc08383610da6565b67ffffffffffffffff811115610fd957610fd8610db1565b5b610fe38254610e0f565b610fee828285610f29565b6000601f83116001811461101d576000841561100b578287013590505b6110158582610f9a565b86555061107d565b601f19841661102b86610e40565b60005b828110156110535784890135825560018201915060208501945060208101905061102e565b86831015611070578489013561106c601f891682610f7c565b8355505b6001600288020188555050505b50505050505050565b611091838383610fb6565b505050565b6000810160008301806110a881610c76565b90506110b48184610d11565b50505060018101602083016110c98185610d43565b6110d4818386611086565b505050505050565b6110e68282611096565b5050565b7f4e487b7100000000000000000000000000000000000000000000000000000000600052603260045260246000fd5b7f4e487b7100000000000000000000000000000000000000000000000000000000600052601160045260246000fd5b6000611153826108b6565b91507fffffffffffffffffffffffffffffffffffffffffffffffffffffffffffffffff820361118557611184611119565b5b600182019050919050565b600081905092915050565b7f496e76616c696420000000000000000000000000000000000000000000000000600082015250565b60006111d1600883611190565b91506111dc8261119b565b600882019050919050565b60006111f282610928565b6111fc8185611190565b935061120c818560208601610944565b80840191505092915050565b6000611223826111c4565b915061122f82846111e7565b915081905092915050565b600061124582610928565b61124f8185610bf9565b935061125f818560208601610944565b6112688161096e565b840191505092915050565b6000602082019050818103600083015261128d818461123a565b905092915050565b7f20616c72656164792065786973747320617420676976656e2049440000000000600082015250565b60006112cb601b83611190565b91506112d682611295565b601b82019050919050565b60006112ed82846111e7565b91506112f8826112be565b915081905092915050565b7f20646f6573206e6f7420657869737420617420676976656e2049440000000000600082015250565b6000611339601b83611190565b915061134482611303565b601b82019050919050565b600061135b82846111e7565b91506113668261132c565b91508190509291505056fea26469706673582212209bbef89b4dd22b806dba11c78e480e37ed79cec1365578c700ff96f6033c1fe264736f6c63430008110033",
  "linkReferences": {},
  "deployedLinkReferences": {}
}