{
  "_format": "hh-sol-artifact-1",
  "contractName": "RegistrationDataManager",
  "sourceName": "contracts/data/datamanager/RegistrationDataManager.sol",
  "abi": [
    {
      "inputs": [
        {
          "internalType": "address",
          "name": "registrationStorageAddress",
          "type": "address"
        },
        {
          "internalType": "address",
          "name": "accessWhitelistAddress",
          "type": "address"
        }
      ],
      "stateMutability": "nonpayable",
      "type": "constructor"
    },
    {
      "inputs": [
        {
          "internalType": "address",
          "name": "_address",
          "type": "address"
        },
        {
          "internalType": "enum UserDataTypes.RegistrationStatus",
          "name": "newStatus",
          "type": "uint8"
        }
      ],
      "name": "changeRegistrationStatus",
      "outputs": [],
      "stateMutability": "nonpayable",
      "type": "function"
    },
    {
      "inputs": [
        {
          "internalType": "address",
          "name": "_address",
          "type": "address"
        },
        {
          "internalType": "enum UserDataTypes.RegistrationStatus",
          "name": "status",
          "type": "uint8"
        },
        {
          "components": [
            {
              "internalType": "string",
              "name": "firstName",
              "type": "string"
            },
            {
              "internalType": "string",
              "name": "lastName",
              "type": "string"
            },
            {
              "internalType": "enum UserDataTypes.Gender",
              "name": "gender",
              "type": "uint8"
            },
            {
              "components": [
                {
                  "internalType": "uint256",
                  "name": "year",
                  "type": "uint256"
                },
                {
                  "internalType": "uint256",
                  "name": "month",
                  "type": "uint256"
                },
                {
                  "internalType": "uint256",
                  "name": "day",
                  "type": "uint256"
                }
              ],
              "internalType": "struct UserDataTypes.Date",
              "name": "dateOfBirth",
              "type": "tuple"
            },
            {
              "internalType": "string",
              "name": "nationality",
              "type": "string"
            },
            {
              "internalType": "string",
              "name": "phoneNumber",
              "type": "string"
            },
            {
              "internalType": "string",
              "name": "emailAddress",
              "type": "string"
            },
            {
              "internalType": "enum UserDataTypes.UserRole",
              "name": "role",
              "type": "uint8"
            },
            {
              "internalType": "uint256[]",
              "name": "studyProgramIds",
              "type": "uint256[]"
            }
          ],
          "internalType": "struct UserDataTypes.UserProfile",
          "name": "profile",
          "type": "tuple"
        }
      ],
      "name": "createRegistration",
      "outputs": [],
      "stateMutability": "nonpayable",
      "type": "function"
    },
    {
      "inputs": [
        {
          "internalType": "address",
          "name": "_address",
          "type": "address"
        }
      ],
      "name": "deleteRegistration",
      "outputs": [],
      "stateMutability": "nonpayable",
      "type": "function"
    },
    {
      "inputs": [],
      "name": "getAllPendingRegistrations",
      "outputs": [
        {
          "components": [
            {
              "internalType": "address",
              "name": "userAddress",
              "type": "address"
            },
            {
              "internalType": "enum UserDataTypes.RegistrationStatus",
              "name": "status",
              "type": "uint8"
            },
            {
              "components": [
                {
                  "internalType": "string",
                  "name": "firstName",
                  "type": "string"
                },
                {
                  "internalType": "string",
                  "name": "lastName",
                  "type": "string"
                },
                {
                  "internalType": "enum UserDataTypes.Gender",
                  "name": "gender",
                  "type": "uint8"
                },
                {
                  "components": [
                    {
                      "internalType": "uint256",
                      "name": "year",
                      "type": "uint256"
                    },
                    {
                      "internalType": "uint256",
                      "name": "month",
                      "type": "uint256"
                    },
                    {
                      "internalType": "uint256",
                      "name": "day",
                      "type": "uint256"
                    }
                  ],
                  "internalType": "struct UserDataTypes.Date",
                  "name": "dateOfBirth",
                  "type": "tuple"
                },
                {
                  "internalType": "string",
                  "name": "nationality",
                  "type": "string"
                },
                {
                  "internalType": "string",
                  "name": "phoneNumber",
                  "type": "string"
                },
                {
                  "internalType": "string",
                  "name": "emailAddress",
                  "type": "string"
                },
                {
                  "internalType": "enum UserDataTypes.UserRole",
                  "name": "role",
                  "type": "uint8"
                },
                {
                  "internalType": "uint256[]",
                  "name": "studyProgramIds",
                  "type": "uint256[]"
                }
              ],
              "internalType": "struct UserDataTypes.UserProfile",
              "name": "profile",
              "type": "tuple"
            }
          ],
          "internalType": "struct UserDataTypes.Registration[]",
          "name": "",
          "type": "tuple[]"
        }
      ],
      "stateMutability": "view",
      "type": "function"
    },
    {
      "inputs": [
        {
          "internalType": "address",
          "name": "_address",
          "type": "address"
        }
      ],
      "name": "getRegistrationStatusToAddress",
      "outputs": [
        {
          "internalType": "enum UserDataTypes.RegistrationStatus",
          "name": "",
          "type": "uint8"
        }
      ],
      "stateMutability": "view",
      "type": "function"
    },
    {
      "inputs": [
        {
          "internalType": "address",
          "name": "_address",
          "type": "address"
        }
      ],
      "name": "getRegistrationToAddress",
      "outputs": [
        {
          "components": [
            {
              "internalType": "address",
              "name": "userAddress",
              "type": "address"
            },
            {
              "internalType": "enum UserDataTypes.RegistrationStatus",
              "name": "status",
              "type": "uint8"
            },
            {
              "components": [
                {
                  "internalType": "string",
                  "name": "firstName",
                  "type": "string"
                },
                {
                  "internalType": "string",
                  "name": "lastName",
                  "type": "string"
                },
                {
                  "internalType": "enum UserDataTypes.Gender",
                  "name": "gender",
                  "type": "uint8"
                },
                {
                  "components": [
                    {
                      "internalType": "uint256",
                      "name": "year",
                      "type": "uint256"
                    },
                    {
                      "internalType": "uint256",
                      "name": "month",
                      "type": "uint256"
                    },
                    {
                      "internalType": "uint256",
                      "name": "day",
                      "type": "uint256"
                    }
                  ],
                  "internalType": "struct UserDataTypes.Date",
                  "name": "dateOfBirth",
                  "type": "tuple"
                },
                {
                  "internalType": "string",
                  "name": "nationality",
                  "type": "string"
                },
                {
                  "internalType": "string",
                  "name": "phoneNumber",
                  "type": "string"
                },
                {
                  "internalType": "string",
                  "name": "emailAddress",
                  "type": "string"
                },
                {
                  "internalType": "enum UserDataTypes.UserRole",
                  "name": "role",
                  "type": "uint8"
                },
                {
                  "internalType": "uint256[]",
                  "name": "studyProgramIds",
                  "type": "uint256[]"
                }
              ],
              "internalType": "struct UserDataTypes.UserProfile",
              "name": "profile",
              "type": "tuple"
            }
          ],
          "internalType": "struct UserDataTypes.Registration",
          "name": "",
          "type": "tuple"
        }
      ],
      "stateMutability": "view",
      "type": "function"
    },
    {
      "inputs": [
        {
          "internalType": "address",
          "name": "_address",
          "type": "address"
        }
      ],
      "name": "isAddressRegistering",
      "outputs": [
        {
          "internalType": "bool",
          "name": "",
          "type": "bool"
        }
      ],
      "stateMutability": "view",
      "type": "function"
    }
  ],
  "bytecode": "0x60806040523480156200001157600080fd5b5060405162002cef38038062002cef83398181016040528101906200003791906200012c565b80806000806101000a81548173ffffffffffffffffffffffffffffffffffffffff021916908373ffffffffffffffffffffffffffffffffffffffff1602179055505081600160006101000a81548173ffffffffffffffffffffffffffffffffffffffff021916908373ffffffffffffffffffffffffffffffffffffffff160217905550505062000173565b600080fd5b600073ffffffffffffffffffffffffffffffffffffffff82169050919050565b6000620000f482620000c7565b9050919050565b6200010681620000e7565b81146200011257600080fd5b50565b6000815190506200012681620000fb565b92915050565b60008060408385031215620001465762000145620000c2565b5b6000620001568582860162000115565b9250506020620001698582860162000115565b9150509250929050565b612b6c80620001836000396000f3fe608060405234801561001057600080fd5b506004361061007d5760003560e01c806358cbfccd1161005b57806358cbfccd146100ea57806365b7109a14610106578063745fb12914610136578063f5bf01fb146101545761007d565b80632ad7397e14610082578063442fb8ab146100b257806351cafe04146100ce575b600080fd5b61009c6004803603810190610097919061142c565b610184565b6040516100a99190611474565b60405180910390f35b6100cc60048036038101906100c7919061142c565b61030f565b005b6100e860048036038101906100e391906114b4565b610478565b005b61010460048036038101906100ff9190611519565b6106b8565b005b610120600480360381019061011b919061142c565b610aac565b60405161012d91906115ff565b60405180910390f35b61013e610c34565b60405161014b9190611a5e565b60405180910390f35b61016e6004803603810190610169919061142c565b610daa565b60405161017b9190611ad0565b60405180910390f35b60008060009054906101000a900473ffffffffffffffffffffffffffffffffffffffff1673ffffffffffffffffffffffffffffffffffffffff166313f44d10336040518263ffffffff1660e01b81526004016101e09190611b01565b602060405180830381865afa1580156101fd573d6000803e3d6000fd5b505050506040513d601f19601f820116820180604052508101906102219190611b48565b610260576040517f08c379a000000000000000000000000000000000000000000000000000000000815260040161025790611bd2565b60405180910390fd5b6000600160009054906101000a900473ffffffffffffffffffffffffffffffffffffffff1673ffffffffffffffffffffffffffffffffffffffff1663f698c113846040518263ffffffff1660e01b81526004016102bd9190611b01565b600060405180830381865afa1580156102da573d6000803e3d6000fd5b505050506040513d6000823e3d601f19601f8201168201806040525081019061030391906120f8565b50905080915050919050565b60008054906101000a900473ffffffffffffffffffffffffffffffffffffffff1673ffffffffffffffffffffffffffffffffffffffff166313f44d10336040518263ffffffff1660e01b81526004016103689190611b01565b602060405180830381865afa158015610385573d6000803e3d6000fd5b505050506040513d601f19601f820116820180604052508101906103a99190611b48565b6103e8576040517f08c379a00000000000000000000000000000000000000000000000000000000081526004016103df90611bd2565b60405180910390fd5b600160009054906101000a900473ffffffffffffffffffffffffffffffffffffffff1673ffffffffffffffffffffffffffffffffffffffff16632bb9e936826040518263ffffffff1660e01b81526004016104439190611b01565b600060405180830381600087803b15801561045d57600080fd5b505af1158015610471573d6000803e3d6000fd5b5050505050565b60008054906101000a900473ffffffffffffffffffffffffffffffffffffffff1673ffffffffffffffffffffffffffffffffffffffff166313f44d10336040518263ffffffff1660e01b81526004016104d19190611b01565b602060405180830381865afa1580156104ee573d6000803e3d6000fd5b505050506040513d601f19601f820116820180604052508101906105129190611b48565b610551576040517f08c379a000000000000000000000000000000000000000000000000000000000815260040161054890611bd2565b60405180910390fd5b6000600160009054906101000a900473ffffffffffffffffffffffffffffffffffffffff1673ffffffffffffffffffffffffffffffffffffffff166372731062846040518263ffffffff1660e01b81526004016105ae9190611b01565b600060405180830381865afa1580156105cb573d6000803e3d6000fd5b505050506040513d6000823e3d601f19601f820116820180604052508101906105f49190612154565b9050818160200190600281111561060e5761060d611588565b5b9081600281111561062257610621611588565b5b81525050600160009054906101000a900473ffffffffffffffffffffffffffffffffffffffff1673ffffffffffffffffffffffffffffffffffffffff1663153cb081826040518263ffffffff1660e01b81526004016106819190611ad0565b600060405180830381600087803b15801561069b57600080fd5b505af11580156106af573d6000803e3d6000fd5b50505050505050565b60008054906101000a900473ffffffffffffffffffffffffffffffffffffffff1673ffffffffffffffffffffffffffffffffffffffff166313f44d10336040518263ffffffff1660e01b81526004016107119190611b01565b602060405180830381865afa15801561072e573d6000803e3d6000fd5b505050506040513d601f19601f820116820180604052508101906107529190611b48565b610791576040517f08c379a000000000000000000000000000000000000000000000000000000000815260040161078890611bd2565b60405180910390fd5b600073ffffffffffffffffffffffffffffffffffffffff168373ffffffffffffffffffffffffffffffffffffffff1603610800576040517f08c379a00000000000000000000000000000000000000000000000000000000081526004016107f7906121e9565b60405180910390fd5b6108918180600001906108139190612218565b8080601f016020809104026020016040519081016040528093929190818152602001838380828437600081840152601f19601f820116905080830192505050505050506040518060400160405280600a81526020017f4669727374206e616d6500000000000000000000000000000000000000000000815250610f33565b6109228180602001906108a49190612218565b8080601f016020809104026020016040519081016040528093929190818152602001838380828437600081840152601f19601f820116905080830192505050505050506040518060400160405280600981526020017f4c617374206e616d650000000000000000000000000000000000000000000000815250610f33565b6109b3818060c001906109359190612218565b8080601f016020809104026020016040519081016040528093929190818152602001838380828437600081840152601f19601f820116905080830192505050505050506040518060400160405280600b81526020017f4e6174696f6e616c697479000000000000000000000000000000000000000000815250610f33565b6109cf816060018036038101906109ca91906122f4565b610f9e565b600160009054906101000a900473ffffffffffffffffffffffffffffffffffffffff1673ffffffffffffffffffffffffffffffffffffffff1663e42c35de60405180606001604052808673ffffffffffffffffffffffffffffffffffffffff168152602001856002811115610a4757610a46611588565b5b815260200184610a56906125eb565b8152506040518263ffffffff1660e01b8152600401610a759190611ad0565b600060405180830381600087803b158015610a8f57600080fd5b505af1158015610aa3573d6000803e3d6000fd5b50505050505050565b60008060009054906101000a900473ffffffffffffffffffffffffffffffffffffffff1673ffffffffffffffffffffffffffffffffffffffff166313f44d10336040518263ffffffff1660e01b8152600401610b089190611b01565b602060405180830381865afa158015610b25573d6000803e3d6000fd5b505050506040513d601f19601f82011682018060405250810190610b499190611b48565b610b88576040517f08c379a0000000000000000000000000000000000000000000000000000000008152600401610b7f90611bd2565b60405180910390fd5b600160009054906101000a900473ffffffffffffffffffffffffffffffffffffffff1673ffffffffffffffffffffffffffffffffffffffff166372731062836040518263ffffffff1660e01b8152600401610be39190611b01565b600060405180830381865afa158015610c00573d6000803e3d6000fd5b505050506040513d6000823e3d601f19601f82011682018060405250810190610c299190612154565b602001519050919050565b606060008054906101000a900473ffffffffffffffffffffffffffffffffffffffff1673ffffffffffffffffffffffffffffffffffffffff166313f44d10336040518263ffffffff1660e01b8152600401610c8f9190611b01565b602060405180830381865afa158015610cac573d6000803e3d6000fd5b505050506040513d601f19601f82011682018060405250810190610cd09190611b48565b610d0f576040517f08c379a0000000000000000000000000000000000000000000000000000000008152600401610d0690611bd2565b60405180910390fd5b600160009054906101000a900473ffffffffffffffffffffffffffffffffffffffff1673ffffffffffffffffffffffffffffffffffffffff16630c38af4a6040518163ffffffff1660e01b8152600401600060405180830381865afa158015610d7c573d6000803e3d6000fd5b505050506040513d6000823e3d601f19601f82011682018060405250810190610da591906126df565b905090565b610db26112d4565b60008054906101000a900473ffffffffffffffffffffffffffffffffffffffff1673ffffffffffffffffffffffffffffffffffffffff166313f44d10336040518263ffffffff1660e01b8152600401610e0b9190611b01565b602060405180830381865afa158015610e28573d6000803e3d6000fd5b505050506040513d601f19601f82011682018060405250810190610e4c9190611b48565b610e8b576040517f08c379a0000000000000000000000000000000000000000000000000000000008152600401610e8290611bd2565b60405180910390fd5b600160009054906101000a900473ffffffffffffffffffffffffffffffffffffffff1673ffffffffffffffffffffffffffffffffffffffff166372731062836040518263ffffffff1660e01b8152600401610ee69190611b01565b600060405180830381865afa158015610f03573d6000803e3d6000fd5b505050506040513d6000823e3d601f19601f82011682018060405250810190610f2c9190612154565b9050919050565b600082511181604051602001610f4991906127b0565b60405160208183030381529060405290610f99576040517f08c379a0000000000000000000000000000000000000000000000000000000008152600401610f90919061280b565b60405180910390fd5b505050565b6000816000015190506000826020015190506000836040015190506000806000610fc66111ad565b9250925092508286111561100f576040517f08c379a00000000000000000000000000000000000000000000000000000000081526004016110069061289f565b60405180910390fd5b828610156110be57600c8511158015611029575060018510155b611068576040517f08c379a000000000000000000000000000000000000000000000000000000000815260040161105f90612931565b60405180910390fd5b601f841115801561107a575060018410155b6110b9576040517f08c379a00000000000000000000000000000000000000000000000000000000081526004016110b0906129c3565b60405180910390fd5b6111a4565b81851115611101576040517f08c379a00000000000000000000000000000000000000000000000000000000081526004016110f890612a55565b60405180910390fd5b8185101561115f57601f841115801561111b575060018410155b61115a576040517f08c379a0000000000000000000000000000000000000000000000000000000008152600401611151906129c3565b60405180910390fd5b6111a3565b808411156111a2576040517f08c379a000000000000000000000000000000000000000000000000000000000815260040161119990612ae7565b60405180910390fd5b5b5b50505050505050565b60008060008060008060006201518042816111cb576111ca612b07565b5b049050600062253d8c62010bd98301019050600062023ab182600402816111f5576111f4612b07565b5b059050600460038262023ab102018161121157611210612b07565b5b0582039150600062164b0960018401610fa0028161123257611231612b07565b5b059050601f6004826105b5028161124c5761124b612b07565b5b058403019250600061098f846050028161126957611268612b07565b5b059050600060508261098f028161128357611282612b07565b5b0585039050600b828161129957611298612b07565b5b05945084600c026002830103915084836031860360640201019250829850819750809650505050505050828282955095509550505050909192565b6040518060600160405280600073ffffffffffffffffffffffffffffffffffffffff168152602001600060028111156113105761130f611588565b5b815260200161131d611323565b81525090565b60405180610120016040528060608152602001606081526020016000600281111561135157611350611588565b5b815260200161135e611399565b81526020016060815260200160608152602001606081526020016000600281111561138c5761138b611588565b5b8152602001606081525090565b60405180606001604052806000815260200160008152602001600081525090565b6000604051905090565b600080fd5b600080fd5b600073ffffffffffffffffffffffffffffffffffffffff82169050919050565b60006113f9826113ce565b9050919050565b611409816113ee565b811461141457600080fd5b50565b60008135905061142681611400565b92915050565b600060208284031215611442576114416113c4565b5b600061145084828501611417565b91505092915050565b60008115159050919050565b61146e81611459565b82525050565b60006020820190506114896000830184611465565b92915050565b6003811061149c57600080fd5b50565b6000813590506114ae8161148f565b92915050565b600080604083850312156114cb576114ca6113c4565b5b60006114d985828601611417565b92505060206114ea8582860161149f565b9150509250929050565b600080fd5b600061016082840312156115105761150f6114f4565b5b81905092915050565b600080600060608486031215611532576115316113c4565b5b600061154086828701611417565b93505060206115518682870161149f565b925050604084013567ffffffffffffffff811115611572576115716113c9565b5b61157e868287016114f9565b9150509250925092565b7f4e487b7100000000000000000000000000000000000000000000000000000000600052602160045260246000fd5b600381106115c8576115c7611588565b5b50565b60008190506115d9826115b7565b919050565b60006115e9826115cb565b9050919050565b6115f9816115de565b82525050565b600060208201905061161460008301846115f0565b92915050565b600081519050919050565b600082825260208201905092915050565b6000819050602082019050919050565b61164f816113ee565b82525050565b61165e816115de565b82525050565b600081519050919050565b600082825260208201905092915050565b60005b8381101561169e578082015181840152602081019050611683565b60008484015250505050565b6000601f19601f8301169050919050565b60006116c682611664565b6116d0818561166f565b93506116e0818560208601611680565b6116e9816116aa565b840191505092915050565b6003811061170557611704611588565b5b50565b6000819050611716826116f4565b919050565b600061172682611708565b9050919050565b6117368161171b565b82525050565b6000819050919050565b61174f8161173c565b82525050565b60608201600082015161176b6000850182611746565b50602082015161177e6020850182611746565b5060408201516117916040850182611746565b50505050565b600381106117a8576117a7611588565b5b50565b60008190506117b982611797565b919050565b60006117c9826117ab565b9050919050565b6117d9816117be565b82525050565b600081519050919050565b600082825260208201905092915050565b6000819050602082019050919050565b60006118178383611746565b60208301905092915050565b6000602082019050919050565b600061183b826117df565b61184581856117ea565b9350611850836117fb565b8060005b83811015611881578151611868888261180b565b975061187383611823565b925050600181019050611854565b5085935050505092915050565b60006101608301600083015184820360008601526118ac82826116bb565b915050602083015184820360208601526118c682826116bb565b91505060408301516118db604086018261172d565b5060608301516118ee6060860182611755565b50608083015184820360c086015261190682826116bb565b91505060a083015184820360e086015261192082826116bb565b91505060c083015184820361010086015261193b82826116bb565b91505060e08301516119516101208601826117d0565b5061010083015184820361014086015261196b8282611830565b9150508091505092915050565b60006060830160008301516119906000860182611646565b5060208301516119a36020860182611655565b50604083015184820360408601526119bb828261188e565b9150508091505092915050565b60006119d48383611978565b905092915050565b6000602082019050919050565b60006119f48261161a565b6119fe8185611625565b935083602082028501611a1085611636565b8060005b85811015611a4c5784840389528151611a2d85826119c8565b9450611a38836119dc565b925060208a01995050600181019050611a14565b50829750879550505050505092915050565b60006020820190508181036000830152611a7881846119e9565b905092915050565b6000606083016000830151611a986000860182611646565b506020830151611aab6020860182611655565b5060408301518482036040860152611ac3828261188e565b9150508091505092915050565b60006020820190508181036000830152611aea8184611a80565b905092915050565b611afb816113ee565b82525050565b6000602082019050611b166000830184611af2565b92915050565b611b2581611459565b8114611b3057600080fd5b50565b600081519050611b4281611b1c565b92915050565b600060208284031215611b5e57611b5d6113c4565b5b6000611b6c84828501611b33565b91505092915050565b600082825260208201905092915050565b7f5468652073656e646572206973206e6f742077686974656c6973746564000000600082015250565b6000611bbc601d83611b75565b9150611bc782611b86565b602082019050919050565b60006020820190508181036000830152611beb81611baf565b9050919050565b600080fd5b7f4e487b7100000000000000000000000000000000000000000000000000000000600052604160045260246000fd5b611c2f826116aa565b810181811067ffffffffffffffff82111715611c4e57611c4d611bf7565b5b80604052505050565b6000611c616113ba565b9050611c6d8282611c26565b919050565b600080fd5b600081519050611c8681611400565b92915050565b600081519050611c9b8161148f565b92915050565b600080fd5b600080fd5b600067ffffffffffffffff821115611cc657611cc5611bf7565b5b611ccf826116aa565b9050602081019050919050565b6000611cef611cea84611cab565b611c57565b905082815260208101848484011115611d0b57611d0a611ca6565b5b611d16848285611680565b509392505050565b600082601f830112611d3357611d32611ca1565b5b8151611d43848260208601611cdc565b91505092915050565b60038110611d5957600080fd5b50565b600081519050611d6b81611d4c565b92915050565b611d7a8161173c565b8114611d8557600080fd5b50565b600081519050611d9781611d71565b92915050565b600060608284031215611db357611db2611bf2565b5b611dbd6060611c57565b90506000611dcd84828501611d88565b6000830152506020611de184828501611d88565b6020830152506040611df584828501611d88565b60408301525092915050565b60038110611e0e57600080fd5b50565b600081519050611e2081611e01565b92915050565b600067ffffffffffffffff821115611e4157611e40611bf7565b5b602082029050602081019050919050565b600080fd5b6000611e6a611e6584611e26565b611c57565b90508083825260208201905060208402830185811115611e8d57611e8c611e52565b5b835b81811015611eb65780611ea28882611d88565b845260208401935050602081019050611e8f565b5050509392505050565b600082601f830112611ed557611ed4611ca1565b5b8151611ee5848260208601611e57565b91505092915050565b60006101608284031215611f0557611f04611bf2565b5b611f10610120611c57565b9050600082015167ffffffffffffffff811115611f3057611f2f611c72565b5b611f3c84828501611d1e565b600083015250602082015167ffffffffffffffff811115611f6057611f5f611c72565b5b611f6c84828501611d1e565b6020830152506040611f8084828501611d5c565b6040830152506060611f9484828501611d9d565b60608301525060c082015167ffffffffffffffff811115611fb857611fb7611c72565b5b611fc484828501611d1e565b60808301525060e082015167ffffffffffffffff811115611fe857611fe7611c72565b5b611ff484828501611d1e565b60a08301525061010082015167ffffffffffffffff81111561201957612018611c72565b5b61202584828501611d1e565b60c08301525061012061203a84828501611e11565b60e08301525061014082015167ffffffffffffffff81111561205f5761205e611c72565b5b61206b84828501611ec0565b6101008301525092915050565b60006060828403121561208e5761208d611bf2565b5b6120986060611c57565b905060006120a884828501611c77565b60008301525060206120bc84828501611c8c565b602083015250604082015167ffffffffffffffff8111156120e0576120df611c72565b5b6120ec84828501611eee565b60408301525092915050565b6000806040838503121561210f5761210e6113c4565b5b600061211d85828601611b33565b925050602083015167ffffffffffffffff81111561213e5761213d6113c9565b5b61214a85828601612078565b9150509250929050565b60006020828403121561216a576121696113c4565b5b600082015167ffffffffffffffff811115612188576121876113c9565b5b61219484828501612078565b91505092915050565b7f5468652061646472657373206d75737420626520736574000000000000000000600082015250565b60006121d3601783611b75565b91506121de8261219d565b602082019050919050565b60006020820190508181036000830152612202816121c6565b9050919050565b600080fd5b600080fd5b600080fd5b6000808335600160200384360303811261223557612234612209565b5b80840192508235915067ffffffffffffffff8211156122575761225661220e565b5b60208301925060018202360383131561227357612272612213565b5b509250929050565b60008135905061228a81611d71565b92915050565b6000606082840312156122a6576122a5611bf2565b5b6122b06060611c57565b905060006122c08482850161227b565b60008301525060206122d48482850161227b565b60208301525060406122e88482850161227b565b60408301525092915050565b60006060828403121561230a576123096113c4565b5b600061231884828501612290565b91505092915050565b82818337600083830152505050565b600061234361233e84611cab565b611c57565b90508281526020810184848401111561235f5761235e611ca6565b5b61236a848285612321565b509392505050565b600082601f83011261238757612386611ca1565b5b8135612397848260208601612330565b91505092915050565b6000813590506123af81611d4c565b92915050565b6000813590506123c481611e01565b92915050565b60006123dd6123d884611e26565b611c57565b90508083825260208201905060208402830185811115612400576123ff611e52565b5b835b818110156124295780612415888261227b565b845260208401935050602081019050612402565b5050509392505050565b600082601f83011261244857612447611ca1565b5b81356124588482602086016123ca565b91505092915050565b6000610160828403121561247857612477611bf2565b5b612483610120611c57565b9050600082013567ffffffffffffffff8111156124a3576124a2611c72565b5b6124af84828501612372565b600083015250602082013567ffffffffffffffff8111156124d3576124d2611c72565b5b6124df84828501612372565b60208301525060406124f3848285016123a0565b604083015250606061250784828501612290565b60608301525060c082013567ffffffffffffffff81111561252b5761252a611c72565b5b61253784828501612372565b60808301525060e082013567ffffffffffffffff81111561255b5761255a611c72565b5b61256784828501612372565b60a08301525061010082013567ffffffffffffffff81111561258c5761258b611c72565b5b61259884828501612372565b60c0830152506101206125ad848285016123b5565b60e08301525061014082013567ffffffffffffffff8111156125d2576125d1611c72565b5b6125de84828501612433565b6101008301525092915050565b60006125f73683612461565b9050919050565b600067ffffffffffffffff82111561261957612618611bf7565b5b602082029050602081019050919050565b600061263d612638846125fe565b611c57565b905080838252602082019050602084028301858111156126605761265f611e52565b5b835b818110156126a757805167ffffffffffffffff81111561268557612684611ca1565b5b8086016126928982612078565b85526020850194505050602081019050612662565b5050509392505050565b600082601f8301126126c6576126c5611ca1565b5b81516126d684826020860161262a565b91505092915050565b6000602082840312156126f5576126f46113c4565b5b600082015167ffffffffffffffff811115612713576127126113c9565b5b61271f848285016126b1565b91505092915050565b600081905092915050565b600061273e82611664565b6127488185612728565b9350612758818560208601611680565b80840191505092915050565b7f2063616e6e6f7420626520656d70747900000000000000000000000000000000600082015250565b600061279a601083612728565b91506127a582612764565b601082019050919050565b60006127bc8284612733565b91506127c78261278d565b915081905092915050565b60006127dd82611664565b6127e78185611b75565b93506127f7818560208601611680565b612800816116aa565b840191505092915050565b6000602082019050818103600083015261282581846127d2565b905092915050565b7f426972746820796561722076616c75652063616e6e6f7420626520696e20746860008201527f6520667574757265000000000000000000000000000000000000000000000000602082015250565b6000612889602883611b75565b91506128948261282d565b604082019050919050565b600060208201905081810360008301526128b88161287c565b9050919050565b7f4269727468206d6f6e74682076616c7565206d7573742062652062657477656560008201527f6e203120616e6420313200000000000000000000000000000000000000000000602082015250565b600061291b602a83611b75565b9150612926826128bf565b604082019050919050565b6000602082019050818103600083015261294a8161290e565b9050919050565b7f4269727468206461792076616c7565206d757374206265206265747765656e2060008201527f3120616e64203331000000000000000000000000000000000000000000000000602082015250565b60006129ad602883611b75565b91506129b882612951565b604082019050919050565b600060208201905081810360008301526129dc816129a0565b9050919050565b7f4269727468206d6f6e74682076616c75652063616e6e6f7420626520696e207460008201527f6865206675747572650000000000000000000000000000000000000000000000602082015250565b6000612a3f602983611b75565b9150612a4a826129e3565b604082019050919050565b60006020820190508181036000830152612a6e81612a32565b9050919050565b7f4269727468206461792076616c75652063616e6e6f7420626520696e2074686560008201527f2066757475726500000000000000000000000000000000000000000000000000602082015250565b6000612ad1602783611b75565b9150612adc82612a75565b604082019050919050565b60006020820190508181036000830152612b0081612ac4565b9050919050565b7f4e487b7100000000000000000000000000000000000000000000000000000000600052601260045260246000fdfea26469706673582212209cabf14e5e7ceba40598ca358e84c56636b86a8def5597446921a00325ef0a5364736f6c63430008110033",
  "linkReferences": {},
  "deployedLinkReferences": {}
}