{
  "_format": "hh-sol-artifact-1",
  "contractName": "PerformanceStorage",
  "sourceName": "contracts/data/storage/performance/PerformanceStorage.sol",
  "abi": [
    {
      "inputs": [
        {
          "internalType": "address",
          "name": "accessWhitelistAddress",
          "type": "address"
        }
      ],
      "stateMutability": "nonpayable",
      "type": "constructor"
    },
    {
      "inputs": [
        {
          "internalType": "uint256",
          "name": "uId",
          "type": "uint256"
        },
        {
          "internalType": "uint256",
          "name": "assessmentId",
          "type": "uint256"
        }
      ],
      "name": "getEvaluation",
      "outputs": [
        {
          "components": [
            {
              "internalType": "bool",
              "name": "isSet",
              "type": "bool"
            },
            {
              "internalType": "uint256",
              "name": "datetime",
              "type": "uint256"
            },
            {
              "internalType": "uint256",
              "name": "achievedPoints",
              "type": "uint256"
            },
            {
              "internalType": "string",
              "name": "feedback",
              "type": "string"
            },
            {
              "internalType": "uint256",
              "name": "lecturerUId",
              "type": "uint256"
            }
          ],
          "internalType": "struct PerformanceDataTypes.Evaluation",
          "name": "",
          "type": "tuple"
        }
      ],
      "stateMutability": "view",
      "type": "function"
    },
    {
      "inputs": [
        {
          "internalType": "uint256",
          "name": "uId",
          "type": "uint256"
        },
        {
          "internalType": "uint256",
          "name": "assessmentId",
          "type": "uint256"
        }
      ],
      "name": "getEvaluationIfSet",
      "outputs": [
        {
          "internalType": "bool",
          "name": "",
          "type": "bool"
        },
        {
          "components": [
            {
              "internalType": "bool",
              "name": "isSet",
              "type": "bool"
            },
            {
              "internalType": "uint256",
              "name": "datetime",
              "type": "uint256"
            },
            {
              "internalType": "uint256",
              "name": "achievedPoints",
              "type": "uint256"
            },
            {
              "internalType": "string",
              "name": "feedback",
              "type": "string"
            },
            {
              "internalType": "uint256",
              "name": "lecturerUId",
              "type": "uint256"
            }
          ],
          "internalType": "struct PerformanceDataTypes.Evaluation",
          "name": "",
          "type": "tuple"
        }
      ],
      "stateMutability": "view",
      "type": "function"
    },
    {
      "inputs": [
        {
          "internalType": "uint256",
          "name": "uId",
          "type": "uint256"
        },
        {
          "internalType": "uint256",
          "name": "assessmentId",
          "type": "uint256"
        }
      ],
      "name": "getExamAttendance",
      "outputs": [
        {
          "components": [
            {
              "internalType": "bool",
              "name": "isSet",
              "type": "bool"
            },
            {
              "internalType": "bool",
              "name": "hasAttended",
              "type": "bool"
            },
            {
              "internalType": "uint256",
              "name": "confirmationDateTime",
              "type": "uint256"
            }
          ],
          "internalType": "struct PerformanceDataTypes.ExamAttendance",
          "name": "",
          "type": "tuple"
        }
      ],
      "stateMutability": "view",
      "type": "function"
    },
    {
      "inputs": [
        {
          "internalType": "uint256",
          "name": "uId",
          "type": "uint256"
        },
        {
          "internalType": "uint256",
          "name": "assessmentId",
          "type": "uint256"
        }
      ],
      "name": "getExamAttendanceIfSet",
      "outputs": [
        {
          "internalType": "bool",
          "name": "",
          "type": "bool"
        },
        {
          "components": [
            {
              "internalType": "bool",
              "name": "isSet",
              "type": "bool"
            },
            {
              "internalType": "bool",
              "name": "hasAttended",
              "type": "bool"
            },
            {
              "internalType": "uint256",
              "name": "confirmationDateTime",
              "type": "uint256"
            }
          ],
          "internalType": "struct PerformanceDataTypes.ExamAttendance",
          "name": "",
          "type": "tuple"
        }
      ],
      "stateMutability": "view",
      "type": "function"
    },
    {
      "inputs": [
        {
          "internalType": "uint256",
          "name": "uId",
          "type": "uint256"
        },
        {
          "internalType": "uint256",
          "name": "assessmentId",
          "type": "uint256"
        }
      ],
      "name": "getSubmission",
      "outputs": [
        {
          "components": [
            {
              "internalType": "bool",
              "name": "isSet",
              "type": "bool"
            },
            {
              "internalType": "uint256",
              "name": "submissionDatetime",
              "type": "uint256"
            },
            {
              "internalType": "string[]",
              "name": "documentHashes",
              "type": "string[]"
            }
          ],
          "internalType": "struct PerformanceDataTypes.Submission",
          "name": "",
          "type": "tuple"
        }
      ],
      "stateMutability": "view",
      "type": "function"
    },
    {
      "inputs": [
        {
          "internalType": "uint256",
          "name": "uId",
          "type": "uint256"
        },
        {
          "internalType": "uint256",
          "name": "assessmentId",
          "type": "uint256"
        }
      ],
      "name": "getSubmissionIfSet",
      "outputs": [
        {
          "internalType": "bool",
          "name": "",
          "type": "bool"
        },
        {
          "components": [
            {
              "internalType": "bool",
              "name": "isSet",
              "type": "bool"
            },
            {
              "internalType": "uint256",
              "name": "submissionDatetime",
              "type": "uint256"
            },
            {
              "internalType": "string[]",
              "name": "documentHashes",
              "type": "string[]"
            }
          ],
          "internalType": "struct PerformanceDataTypes.Submission",
          "name": "",
          "type": "tuple"
        }
      ],
      "stateMutability": "view",
      "type": "function"
    },
    {
      "inputs": [
        {
          "internalType": "uint256",
          "name": "uId",
          "type": "uint256"
        },
        {
          "internalType": "uint256",
          "name": "assessmentId",
          "type": "uint256"
        },
        {
          "components": [
            {
              "internalType": "bool",
              "name": "isSet",
              "type": "bool"
            },
            {
              "internalType": "uint256",
              "name": "datetime",
              "type": "uint256"
            },
            {
              "internalType": "uint256",
              "name": "achievedPoints",
              "type": "uint256"
            },
            {
              "internalType": "string",
              "name": "feedback",
              "type": "string"
            },
            {
              "internalType": "uint256",
              "name": "lecturerUId",
              "type": "uint256"
            }
          ],
          "internalType": "struct PerformanceDataTypes.Evaluation",
          "name": "evaluation",
          "type": "tuple"
        }
      ],
      "name": "storeEvaluation",
      "outputs": [],
      "stateMutability": "nonpayable",
      "type": "function"
    },
    {
      "inputs": [
        {
          "internalType": "uint256",
          "name": "uId",
          "type": "uint256"
        },
        {
          "internalType": "uint256",
          "name": "assessmentId",
          "type": "uint256"
        },
        {
          "components": [
            {
              "internalType": "bool",
              "name": "isSet",
              "type": "bool"
            },
            {
              "internalType": "bool",
              "name": "hasAttended",
              "type": "bool"
            },
            {
              "internalType": "uint256",
              "name": "confirmationDateTime",
              "type": "uint256"
            }
          ],
          "internalType": "struct PerformanceDataTypes.ExamAttendance",
          "name": "examAttendance",
          "type": "tuple"
        }
      ],
      "name": "storeExamAttendance",
      "outputs": [],
      "stateMutability": "nonpayable",
      "type": "function"
    },
    {
      "inputs": [
        {
          "internalType": "uint256",
          "name": "uId",
          "type": "uint256"
        },
        {
          "internalType": "uint256",
          "name": "assessmentId",
          "type": "uint256"
        },
        {
          "components": [
            {
              "internalType": "bool",
              "name": "isSet",
              "type": "bool"
            },
            {
              "internalType": "uint256",
              "name": "submissionDatetime",
              "type": "uint256"
            },
            {
              "internalType": "string[]",
              "name": "documentHashes",
              "type": "string[]"
            }
          ],
          "internalType": "struct PerformanceDataTypes.Submission",
          "name": "submission",
          "type": "tuple"
        }
      ],
      "name": "storeSubmission",
      "outputs": [],
      "stateMutability": "nonpayable",
      "type": "function"
    },
    {
      "inputs": [
        {
          "internalType": "uint256",
          "name": "uId",
          "type": "uint256"
        },
        {
          "internalType": "uint256",
          "name": "assessmentId",
          "type": "uint256"
        },
        {
          "components": [
            {
              "internalType": "bool",
              "name": "isSet",
              "type": "bool"
            },
            {
              "internalType": "uint256",
              "name": "datetime",
              "type": "uint256"
            },
            {
              "internalType": "uint256",
              "name": "achievedPoints",
              "type": "uint256"
            },
            {
              "internalType": "string",
              "name": "feedback",
              "type": "string"
            },
            {
              "internalType": "uint256",
              "name": "lecturerUId",
              "type": "uint256"
            }
          ],
          "internalType": "struct PerformanceDataTypes.Evaluation",
          "name": "evaluation",
          "type": "tuple"
        }
      ],
      "name": "updateEvaluation",
      "outputs": [],
      "stateMutability": "nonpayable",
      "type": "function"
    },
    {
      "inputs": [
        {
          "internalType": "uint256",
          "name": "uId",
          "type": "uint256"
        },
        {
          "internalType": "uint256",
          "name": "assessmentId",
          "type": "uint256"
        },
        {
          "components": [
            {
              "internalType": "bool",
              "name": "isSet",
              "type": "bool"
            },
            {
              "internalType": "uint256",
              "name": "submissionDatetime",
              "type": "uint256"
            },
            {
              "internalType": "string[]",
              "name": "documentHashes",
              "type": "string[]"
            }
          ],
          "internalType": "struct PerformanceDataTypes.Submission",
          "name": "submission",
          "type": "tuple"
        }
      ],
      "name": "updateSubmission",
      "outputs": [],
      "stateMutability": "nonpayable",
      "type": "function"
    }
  ],
  "bytecode": "0x60806040523480156200001157600080fd5b5060405162002e2538038062002e258339818101604052810190620000379190620000ec565b8080806000806101000a81548173ffffffffffffffffffffffffffffffffffffffff021916908373ffffffffffffffffffffffffffffffffffffffff1602179055505050506200011e565b600080fd5b600073ffffffffffffffffffffffffffffffffffffffff82169050919050565b6000620000b48262000087565b9050919050565b620000c681620000a7565b8114620000d257600080fd5b50565b600081519050620000e681620000bb565b92915050565b60006020828403121562000105576200010462000082565b5b60006200011584828501620000d5565b91505092915050565b612cf7806200012e6000396000f3fe608060405234801561001057600080fd5b50600436106100a95760003560e01c80635e560688116100715780635e560688146101635780637241bf621461017f578063b7ed70711461019b578063c51e6e47146101cb578063caed9c65146101fc578063fdd3f0361461022d576100a9565b80631359e12a146100ae5780631f0884ea146100df5780634c37c9cf146100fb57806356038bc0146101175780635e4a739214610133575b600080fd5b6100c860048036038101906100c391906119de565b61025d565b6040516100d6929190611a99565b60405180910390f35b6100f960048036038101906100f49190611ae6565b6103da565b005b61011560048036038101906101109190611b74565b6105dd565b005b610131600480360381019061012c9190611b74565b6107e0565b005b61014d600480360381019061014891906119de565b610965565b60405161015a9190611ce9565b60405180910390f35b61017d60048036038101906101789190611ae6565b610bbb565b005b61019960048036038101906101949190611d2a565b610d40565b005b6101b560048036038101906101b091906119de565b610f43565b6040516101c29190611e8f565b60405180910390f35b6101e560048036038101906101e091906119de565b6111cc565b6040516101f3929190611eb1565b60405180910390f35b610216600480360381019061021191906119de565b611407565b604051610224929190611ee1565b60405180910390f35b610247600480360381019061024291906119de565b61160f565b6040516102549190611f11565b60405180910390f35b6000610267611925565b60008054906101000a900473ffffffffffffffffffffffffffffffffffffffff1673ffffffffffffffffffffffffffffffffffffffff166313f44d10336040518263ffffffff1660e01b81526004016102c09190611f6d565b602060405180830381865afa1580156102dd573d6000803e3d6000fd5b505050506040513d601f19601f820116820180604052508101906103019190611fb4565b610340576040517f08c379a00000000000000000000000000000000000000000000000000000000081526004016103379061203e565b60405180910390fd5b60006002600086815260200190815260200160002060008581526020019081526020016000206040518060600160405290816000820160009054906101000a900460ff161515151581526020016000820160019054906101000a900460ff1615151515815260200160018201548152505090508060000151156103ca5760018192509250506103d3565b60008192509250505b9250929050565b60008054906101000a900473ffffffffffffffffffffffffffffffffffffffff1673ffffffffffffffffffffffffffffffffffffffff166313f44d10336040518263ffffffff1660e01b81526004016104339190611f6d565b602060405180830381865afa158015610450573d6000803e3d6000fd5b505050506040513d601f19601f820116820180604052508101906104749190611fb4565b6104b3576040517f08c379a00000000000000000000000000000000000000000000000000000000081526004016104aa9061203e565b60405180910390fd5b6104f2836040518060400160405280600381526020017f75494400000000000000000000000000000000000000000000000000000000008152506117da565b610531826040518060400160405280600d81526020017f4173736573736d656e74204944000000000000000000000000000000000000008152506117da565b6105a460016000858152602001908152602001600020600084815260200190815260200160002060000160009054906101000a900460ff166040518060400160405280600a81526020017f5375626d697373696f6e00000000000000000000000000000000000000000000815250611849565b8060016000858152602001908152602001600020600084815260200190815260200160002081816105d59190612952565b905050505050565b60008054906101000a900473ffffffffffffffffffffffffffffffffffffffff1673ffffffffffffffffffffffffffffffffffffffff166313f44d10336040518263ffffffff1660e01b81526004016106369190611f6d565b602060405180830381865afa158015610653573d6000803e3d6000fd5b505050506040513d601f19601f820116820180604052508101906106779190611fb4565b6106b6576040517f08c379a00000000000000000000000000000000000000000000000000000000081526004016106ad9061203e565b60405180910390fd5b6106f5836040518060400160405280600381526020017f75494400000000000000000000000000000000000000000000000000000000008152506117da565b610734826040518060400160405280600d81526020017f4173736573736d656e74204944000000000000000000000000000000000000008152506117da565b6107a760036000858152602001908152602001600020600084815260200190815260200160002060000160009054906101000a900460ff166040518060400160405280600a81526020017f4576616c756174696f6e00000000000000000000000000000000000000000000815250611849565b8060036000858152602001908152602001600020600084815260200190815260200160002081816107d89190612a09565b905050505050565b60008054906101000a900473ffffffffffffffffffffffffffffffffffffffff1673ffffffffffffffffffffffffffffffffffffffff166313f44d10336040518263ffffffff1660e01b81526004016108399190611f6d565b602060405180830381865afa158015610856573d6000803e3d6000fd5b505050506040513d601f19601f8201168201806040525081019061087a9190611fb4565b6108b9576040517f08c379a00000000000000000000000000000000000000000000000000000000081526004016108b09061203e565b60405180910390fd5b61092c60036000858152602001908152602001600020600084815260200190815260200160002060000160009054906101000a900460ff166040518060400160405280600a81526020017f4576616c756174696f6e000000000000000000000000000000000000000000008152506118b1565b80600360008581526020019081526020016000206000848152602001908152602001600020818161095d9190612a09565b905050505050565b61096d61194a565b60008054906101000a900473ffffffffffffffffffffffffffffffffffffffff1673ffffffffffffffffffffffffffffffffffffffff166313f44d10336040518263ffffffff1660e01b81526004016109c69190611f6d565b602060405180830381865afa1580156109e3573d6000803e3d6000fd5b505050506040513d601f19601f82011682018060405250810190610a079190611fb4565b610a46576040517f08c379a0000000000000000000000000000000000000000000000000000000008152600401610a3d9061203e565b60405180910390fd5b610ab960036000858152602001908152602001600020600084815260200190815260200160002060000160009054906101000a900460ff166040518060400160405280600a81526020017f4576616c756174696f6e000000000000000000000000000000000000000000008152506118b1565b6003600084815260200190815260200160002060008381526020019081526020016000206040518060a00160405290816000820160009054906101000a900460ff161515151581526020016001820154815260200160028201548152602001600382018054610b2790612335565b80601f0160208091040260200160405190810160405280929190818152602001828054610b5390612335565b8015610ba05780601f10610b7557610100808354040283529160200191610ba0565b820191906000526020600020905b815481529060010190602001808311610b8357829003601f168201915b50505050508152602001600482015481525050905092915050565b60008054906101000a900473ffffffffffffffffffffffffffffffffffffffff1673ffffffffffffffffffffffffffffffffffffffff166313f44d10336040518263ffffffff1660e01b8152600401610c149190611f6d565b602060405180830381865afa158015610c31573d6000803e3d6000fd5b505050506040513d601f19601f82011682018060405250810190610c559190611fb4565b610c94576040517f08c379a0000000000000000000000000000000000000000000000000000000008152600401610c8b9061203e565b60405180910390fd5b610d0760016000858152602001908152602001600020600084815260200190815260200160002060000160009054906101000a900460ff166040518060400160405280600a81526020017f5375626d697373696f6e000000000000000000000000000000000000000000008152506118b1565b806001600085815260200190815260200160002060008481526020019081526020016000208181610d389190612952565b905050505050565b60008054906101000a900473ffffffffffffffffffffffffffffffffffffffff1673ffffffffffffffffffffffffffffffffffffffff166313f44d10336040518263ffffffff1660e01b8152600401610d999190611f6d565b602060405180830381865afa158015610db6573d6000803e3d6000fd5b505050506040513d601f19601f82011682018060405250810190610dda9190611fb4565b610e19576040517f08c379a0000000000000000000000000000000000000000000000000000000008152600401610e109061203e565b60405180910390fd5b610e58836040518060400160405280600381526020017f75494400000000000000000000000000000000000000000000000000000000008152506117da565b610e97826040518060400160405280600d81526020017f4173736573736d656e74204944000000000000000000000000000000000000008152506117da565b610f0a60026000858152602001908152602001600020600084815260200190815260200160002060000160009054906101000a900460ff166040518060400160405280600f81526020017f4578616d20617474656e64616e63650000000000000000000000000000000000815250611849565b806002600085815260200190815260200160002060008481526020019081526020016000208181610f3b9190612ad2565b905050505050565b610f4b61197b565b60008054906101000a900473ffffffffffffffffffffffffffffffffffffffff1673ffffffffffffffffffffffffffffffffffffffff166313f44d10336040518263ffffffff1660e01b8152600401610fa49190611f6d565b602060405180830381865afa158015610fc1573d6000803e3d6000fd5b505050506040513d601f19601f82011682018060405250810190610fe59190611fb4565b611024576040517f08c379a000000000000000000000000000000000000000000000000000000000815260040161101b9061203e565b60405180910390fd5b61109760016000858152602001908152602001600020600084815260200190815260200160002060000160009054906101000a900460ff166040518060400160405280600a81526020017f5375626d697373696f6e000000000000000000000000000000000000000000008152506118b1565b6001600084815260200190815260200160002060008381526020019081526020016000206040518060600160405290816000820160009054906101000a900460ff161515151581526020016001820154815260200160028201805480602002602001604051908101604052809291908181526020016000905b828210156111bc57838290600052602060002001805461112f90612335565b80601f016020809104026020016040519081016040528092919081815260200182805461115b90612335565b80156111a85780601f1061117d576101008083540402835291602001916111a8565b820191906000526020600020905b81548152906001019060200180831161118b57829003601f168201915b505050505081526020019060010190611110565b5050505081525050905092915050565b60006111d661197b565b60008054906101000a900473ffffffffffffffffffffffffffffffffffffffff1673ffffffffffffffffffffffffffffffffffffffff166313f44d10336040518263ffffffff1660e01b815260040161122f9190611f6d565b602060405180830381865afa15801561124c573d6000803e3d6000fd5b505050506040513d601f19601f820116820180604052508101906112709190611fb4565b6112af576040517f08c379a00000000000000000000000000000000000000000000000000000000081526004016112a69061203e565b60405180910390fd5b60006001600086815260200190815260200160002060008581526020019081526020016000206040518060600160405290816000820160009054906101000a900460ff161515151581526020016001820154815260200160028201805480602002602001604051908101604052809291908181526020016000905b828210156113d657838290600052602060002001805461134990612335565b80601f016020809104026020016040519081016040528092919081815260200182805461137590612335565b80156113c25780601f10611397576101008083540402835291602001916113c2565b820191906000526020600020905b8154815290600101906020018083116113a557829003601f168201915b50505050508152602001906001019061132a565b505050508152505090508060000151156113f7576001819250925050611400565b60008192509250505b9250929050565b600061141161194a565b60008054906101000a900473ffffffffffffffffffffffffffffffffffffffff1673ffffffffffffffffffffffffffffffffffffffff166313f44d10336040518263ffffffff1660e01b815260040161146a9190611f6d565b602060405180830381865afa158015611487573d6000803e3d6000fd5b505050506040513d601f19601f820116820180604052508101906114ab9190611fb4565b6114ea576040517f08c379a00000000000000000000000000000000000000000000000000000000081526004016114e19061203e565b60405180910390fd5b60006003600086815260200190815260200160002060008581526020019081526020016000206040518060a00160405290816000820160009054906101000a900460ff16151515158152602001600182015481526020016002820154815260200160038201805461155a90612335565b80601f016020809104026020016040519081016040528092919081815260200182805461158690612335565b80156115d35780601f106115a8576101008083540402835291602001916115d3565b820191906000526020600020905b8154815290600101906020018083116115b657829003601f168201915b5050505050815260200160048201548152505090508060000151156115ff576001819250925050611608565b60008192509250505b9250929050565b611617611925565b60008054906101000a900473ffffffffffffffffffffffffffffffffffffffff1673ffffffffffffffffffffffffffffffffffffffff166313f44d10336040518263ffffffff1660e01b81526004016116709190611f6d565b602060405180830381865afa15801561168d573d6000803e3d6000fd5b505050506040513d601f19601f820116820180604052508101906116b19190611fb4565b6116f0576040517f08c379a00000000000000000000000000000000000000000000000000000000081526004016116e79061203e565b60405180910390fd5b61176360026000858152602001908152602001600020600084815260200190815260200160002060000160009054906101000a900460ff166040518060400160405280600f81526020017f4578616d20617474656e64616e636500000000000000000000000000000000008152506118b1565b6002600084815260200190815260200160002060008381526020019081526020016000206040518060600160405290816000820160009054906101000a900460ff161515151581526020016000820160019054906101000a900460ff16151515158152602001600182015481525050905092915050565b6117e382611918565b816040516020016117f49190612b68565b60405160208183030381529060405290611844576040517f08c379a000000000000000000000000000000000000000000000000000000000815260040161183b9190612bc3565b60405180910390fd5b505050565b81158160405160200161185c9190612c31565b604051602081830303815290604052906118ac576040517f08c379a00000000000000000000000000000000000000000000000000000000081526004016118a39190612bc3565b60405180910390fd5b505050565b81816040516020016118c39190612c9f565b60405160208183030381529060405290611913576040517f08c379a000000000000000000000000000000000000000000000000000000000815260040161190a9190612bc3565b60405180910390fd5b505050565b6000808214159050919050565b6040518060600160405280600015158152602001600015158152602001600081525090565b6040518060a00160405280600015158152602001600081526020016000815260200160608152602001600081525090565b604051806060016040528060001515815260200160008152602001606081525090565b600080fd5b600080fd5b6000819050919050565b6119bb816119a8565b81146119c657600080fd5b50565b6000813590506119d8816119b2565b92915050565b600080604083850312156119f5576119f461199e565b5b6000611a03858286016119c9565b9250506020611a14858286016119c9565b9150509250929050565b60008115159050919050565b611a3381611a1e565b82525050565b611a4281611a1e565b82525050565b611a51816119a8565b82525050565b606082016000820151611a6d6000850182611a39565b506020820151611a806020850182611a39565b506040820151611a936040850182611a48565b50505050565b6000608082019050611aae6000830185611a2a565b611abb6020830184611a57565b9392505050565b600080fd5b600060608284031215611add57611adc611ac2565b5b81905092915050565b600080600060608486031215611aff57611afe61199e565b5b6000611b0d868287016119c9565b9350506020611b1e868287016119c9565b925050604084013567ffffffffffffffff811115611b3f57611b3e6119a3565b5b611b4b86828701611ac7565b9150509250925092565b600060a08284031215611b6b57611b6a611ac2565b5b81905092915050565b600080600060608486031215611b8d57611b8c61199e565b5b6000611b9b868287016119c9565b9350506020611bac868287016119c9565b925050604084013567ffffffffffffffff811115611bcd57611bcc6119a3565b5b611bd986828701611b55565b9150509250925092565b600081519050919050565b600082825260208201905092915050565b60005b83811015611c1d578082015181840152602081019050611c02565b60008484015250505050565b6000601f19601f8301169050919050565b6000611c4582611be3565b611c4f8185611bee565b9350611c5f818560208601611bff565b611c6881611c29565b840191505092915050565b600060a083016000830151611c8b6000860182611a39565b506020830151611c9e6020860182611a48565b506040830151611cb16040860182611a48565b5060608301518482036060860152611cc98282611c3a565b9150506080830151611cde6080860182611a48565b508091505092915050565b60006020820190508181036000830152611d038184611c73565b905092915050565b600060608284031215611d2157611d20611ac2565b5b81905092915050565b600080600060a08486031215611d4357611d4261199e565b5b6000611d51868287016119c9565b9350506020611d62868287016119c9565b9250506040611d7386828701611d0b565b9150509250925092565b600081519050919050565b600082825260208201905092915050565b6000819050602082019050919050565b6000611db58383611c3a565b905092915050565b6000602082019050919050565b6000611dd582611d7d565b611ddf8185611d88565b935083602082028501611df185611d99565b8060005b85811015611e2d5784840389528151611e0e8582611da9565b9450611e1983611dbd565b925060208a01995050600181019050611df5565b50829750879550505050505092915050565b6000606083016000830151611e576000860182611a39565b506020830151611e6a6020860182611a48565b5060408301518482036040860152611e828282611dca565b9150508091505092915050565b60006020820190508181036000830152611ea98184611e3f565b905092915050565b6000604082019050611ec66000830185611a2a565b8181036020830152611ed88184611e3f565b90509392505050565b6000604082019050611ef66000830185611a2a565b8181036020830152611f088184611c73565b90509392505050565b6000606082019050611f266000830184611a57565b92915050565b600073ffffffffffffffffffffffffffffffffffffffff82169050919050565b6000611f5782611f2c565b9050919050565b611f6781611f4c565b82525050565b6000602082019050611f826000830184611f5e565b92915050565b611f9181611a1e565b8114611f9c57600080fd5b50565b600081519050611fae81611f88565b92915050565b600060208284031215611fca57611fc961199e565b5b6000611fd884828501611f9f565b91505092915050565b600082825260208201905092915050565b7f5468652073656e646572206973206e6f742077686974656c6973746564000000600082015250565b6000612028601d83611fe1565b915061203382611ff2565b602082019050919050565b600060208201905081810360008301526120578161201b565b9050919050565b7f4e487b7100000000000000000000000000000000000000000000000000000000600052600060045260246000fd5b6000813561209a81611f88565b80915050919050565b60008160001b9050919050565b600060ff6120bd846120a3565b9350801983169250808416831791505092915050565b60006120de82611a1e565b9050919050565b6000819050919050565b6120f8826120d3565b61210b612104826120e5565b83546120b0565b8255505050565b6000813561211f816119b2565b80915050919050565b60007fffffffffffffffffffffffffffffffffffffffffffffffffffffffffffffffff612154846120a3565b9350801983169250808416831791505092915050565b6000819050919050565b600061218f61218a612185846119a8565b61216a565b6119a8565b9050919050565b6000819050919050565b6121a982612174565b6121bc6121b582612196565b8354612128565b8255505050565b600080fd5b600080fd5b600080fd5b600080833560016020038436030381126121ef576121ee6121c3565b5b80840192508235915067ffffffffffffffff821115612211576122106121c8565b5b60208301925060208202360383131561222d5761222c6121cd565b5b509250929050565b6000819050919050565b6000808335600160200384360303811261225c5761225b6121c3565b5b80840192508235915067ffffffffffffffff82111561227e5761227d6121c8565b5b60208301925060018202360383131561229a576122996121cd565b5b509250929050565b7f4e487b7100000000000000000000000000000000000000000000000000000000600052604160045260246000fd5b600081549050919050565b60008190506001806001038301049050919050565b60008190508160005260206000209050919050565b7f4e487b7100000000000000000000000000000000000000000000000000000000600052602260045260246000fd5b6000600282049050600182168061234d57607f821691505b6020821081036123605761235f612306565b5b50919050565b60008190508160005260206000209050919050565b600082821c905092915050565b6123b87fffffffffffffffffffffffffffffffffffffffffffffffffffffffffffffffff8360200360080261237b565b815481168255505050565b600082821b905092915050565b6000600883026124007fffffffffffffffffffffffffffffffffffffffffffffffffffffffffffffffff826123c3565b61240a86836123c3565b95508019841693508086168417925050509392505050565b61242b83612174565b61243f61243782612196565b8484546123d0565b825550505050565b600090565b612454612447565b61245f818484612422565b505050565b5b818110156124835761247860008261244c565b600181019050612465565b5050565b60006124986000198460080261237b565b1980831691505092915050565b60006124b18383612487565b9150826002028217905092915050565b6124ca81612366565b6124d58382546124a5565b8083556000825550505050565b60006020601f8301049050919050565b602084106000811461254d57601f84116001811461251b5761251486856124a5565b8355612547565b61252483612366565b61253b612530876124e2565b820160018301612464565b61254587856124c1565b505b5061259a565b61255682612366565b61255f866124e2565b8101601f87168015612579576125788160018403612388565b5b61258d612585886124e2565b840183612464565b6001886002021785555050505b5050505050565b680100000000000000008411156125bb576125ba6122a2565b5b60208310600081146126065760208510600081146125e4576125dd86856124a5565b8355612600565b8360ff19169350836125f584612366565b556001866002020183555b50612610565b6001856002020182555b5050505050565b805461262281612335565b8084111561263757612636848284866125a1565b5b8084101561264c5761264b848284866124f2565b5b50505050565b818110156126705761266560008261244c565b600181019050612652565b5050565b61267f600082612617565b50565b600082146126935761269261205e565b5b61269c81612674565b5050565b5b818110156126bf576126b4600082612682565b6001810190506126a1565b5050565b818310156126fc576126d4826122dc565b6126dd846122dc565b6126e6836122f1565b8181018382016126f681836126a0565b50505050505b505050565b6801000000000000000082111561271b5761271a6122a2565b5b612724816122d1565b8282556127328382846126c3565b505050565b600082905092915050565b600082905092915050565b601f82111561278e5761275f81612366565b612768846124e2565b81016020851015612777578190505b61278b612783856124e2565b830182612464565b50505b505050565b61279d8383612742565b67ffffffffffffffff8111156127b6576127b56122a2565b5b6127c08254612335565b6127cb82828561274d565b6000601f8311600181146127fa57600084156127e8578287013590505b6127f285826124a5565b86555061285a565b601f19841661280886612366565b60005b828110156128305784890135825560018201915060208501945060208101905061280b565b8683101561284d5784890135612849601f891682612487565b8355505b6001600288020188555050505b50505050505050565b61286e838383612793565b505050565b61287d8383612737565b6128878183612701565b61289083612235565b612899836122f1565b60005b838110156128d2576128ae838761223f565b6128b9818386612863565b602085019450600184019350505060018101905061289c565b50505050505050565b6128e6838383612873565b505050565b6000810160008301806128fd8161208d565b905061290981846120ef565b50505060018101602083018061291e81612112565b905061292a81846121a0565b505050600281016040830161293f81856121d2565b61294a8183866128db565b505050505050565b61295c82826128eb565b5050565b6000810160008301806129728161208d565b905061297e81846120ef565b50505060018101602083018061299381612112565b905061299f81846121a0565b5050506002810160408301806129b481612112565b90506129c081846121a0565b50505060038101606083016129d5818561223f565b6129e0818386612863565b505050506004810160808301806129f681612112565b9050612a0281846121a0565b5050505050565b612a138282612960565b5050565b60008160081b9050919050565b600061ff00612a3284612a17565b9350801983169250808416831791505092915050565b612a51826120d3565b612a64612a5d826120e5565b8354612a24565b8255505050565b600081016000830180612a7d8161208d565b9050612a8981846120ef565b505050600081016020830180612a9e8161208d565b9050612aaa8184612a48565b505050600181016040830180612abf81612112565b9050612acb81846121a0565b5050505050565b612adc8282612a6b565b5050565b600081905092915050565b7f496e76616c696420000000000000000000000000000000000000000000000000600082015250565b6000612b21600883612ae0565b9150612b2c82612aeb565b600882019050919050565b6000612b4282611be3565b612b4c8185612ae0565b9350612b5c818560208601611bff565b80840191505092915050565b6000612b7382612b14565b9150612b7f8284612b37565b915081905092915050565b6000612b9582611be3565b612b9f8185611fe1565b9350612baf818560208601611bff565b612bb881611c29565b840191505092915050565b60006020820190508181036000830152612bdd8184612b8a565b905092915050565b7f2068617320616c7265616479206265656e207365740000000000000000000000600082015250565b6000612c1b601583612ae0565b9150612c2682612be5565b601582019050919050565b6000612c3d8284612b37565b9150612c4882612c0e565b915081905092915050565b7f20686173206e6f74206265656e20736574207965740000000000000000000000600082015250565b6000612c89601583612ae0565b9150612c9482612c53565b601582019050919050565b6000612cab8284612b37565b9150612cb682612c7c565b91508190509291505056fea2646970667358221220880db4892d4d7a61d86899975f6251cc264ac0e56ff0f3209b178a5a4124bdf764736f6c63430008110033",
  "linkReferences": {},
  "deployedLinkReferences": {}
}