{
  "_format": "hh-sol-artifact-1",
  "contractName": "StudyProgramView",
  "sourceName": "contracts/view/StudyProgramView.sol",
  "abi": [
    {
      "inputs": [
        {
          "internalType": "address",
          "name": "addressBookAddress",
          "type": "address"
        }
      ],
      "stateMutability": "nonpayable",
      "type": "constructor"
    },
    {
      "inputs": [],
      "name": "getAllPrograms",
      "outputs": [
        {
          "components": [
            {
              "internalType": "uint256",
              "name": "programId",
              "type": "uint256"
            },
            {
              "internalType": "string",
              "name": "programName",
              "type": "string"
            }
          ],
          "internalType": "struct StudyProgramDataTypes.StudyProgram[]",
          "name": "",
          "type": "tuple[]"
        }
      ],
      "stateMutability": "view",
      "type": "function"
    },
    {
      "inputs": [],
      "name": "getEnrolledPrograms",
      "outputs": [
        {
          "components": [
            {
              "internalType": "uint256",
              "name": "programId",
              "type": "uint256"
            },
            {
              "internalType": "string",
              "name": "programName",
              "type": "string"
            }
          ],
          "internalType": "struct StudyProgramDataTypes.StudyProgram[]",
          "name": "",
          "type": "tuple[]"
        }
      ],
      "stateMutability": "view",
      "type": "function"
    },
    {
      "inputs": [
        {
          "internalType": "uint256",
          "name": "programId",
          "type": "uint256"
        }
      ],
      "name": "getProgram",
      "outputs": [
        {
          "components": [
            {
              "internalType": "uint256",
              "name": "programId",
              "type": "uint256"
            },
            {
              "internalType": "string",
              "name": "programName",
              "type": "string"
            }
          ],
          "internalType": "struct StudyProgramDataTypes.StudyProgram",
          "name": "",
          "type": "tuple"
        }
      ],
      "stateMutability": "view",
      "type": "function"
    },
    {
      "inputs": [
        {
          "internalType": "uint256",
          "name": "courseId",
          "type": "uint256"
        }
      ],
      "name": "getStudyProgramsToCourseId",
      "outputs": [
        {
          "components": [
            {
              "internalType": "uint256",
              "name": "programId",
              "type": "uint256"
            },
            {
              "internalType": "string",
              "name": "programName",
              "type": "string"
            }
          ],
          "internalType": "struct StudyProgramDataTypes.StudyProgram[]",
          "name": "",
          "type": "tuple[]"
        }
      ],
      "stateMutability": "view",
      "type": "function"
    }
  ],
  "bytecode": "0x60806040523480156200001157600080fd5b50604051620014ae380380620014ae8339818101604052810190620000379190620000ec565b8080806000806101000a81548173ffffffffffffffffffffffffffffffffffffffff021916908373ffffffffffffffffffffffffffffffffffffffff1602179055505050506200011e565b600080fd5b600073ffffffffffffffffffffffffffffffffffffffff82169050919050565b6000620000b48262000087565b9050919050565b620000c681620000a7565b8114620000d257600080fd5b50565b600081519050620000e681620000bb565b92915050565b60006020828403121562000105576200010462000082565b5b60006200011584828501620000d5565b91505092915050565b611380806200012e6000396000f3fe608060405234801561001057600080fd5b506004361061004c5760003560e01c806359c9340414610051578063c3ecf8971461006f578063c5c44faf1461009f578063e66b446b146100cf575b600080fd5b6100596100ed565b6040516100669190610a18565b60405180910390f35b61008960048036038101906100849190610a7a565b61037a565b6040516100969190610ae4565b60405180910390f35b6100b960048036038101906100b49190610a7a565b61040f565b6040516100c69190610a18565b60405180910390f35b6100d7610529565b6040516100e49190610a18565b60405180910390f35b60606100f76105ab565b6000600281111561010b5761010a610b06565b5b61011361066d565b73ffffffffffffffffffffffffffffffffffffffff1663dd8b2914336040518263ffffffff1660e01b815260040161014b9190610b76565b602060405180830381865afa158015610168573d6000803e3d6000fd5b505050506040513d601f19601f8201168201806040525081019061018c9190610bb6565b600281111561019e5761019d610b06565b5b146101de576040517f08c379a00000000000000000000000000000000000000000000000000000000081526004016101d590610c40565b60405180910390fd5b60006101e861066d565b73ffffffffffffffffffffffffffffffffffffffff1663e3d7e14c336040518263ffffffff1660e01b81526004016102209190610b76565b602060405180830381865afa15801561023d573d6000803e3d6000fd5b505050506040513d601f19601f820116820180604052508101906102619190610c75565b9050600061026d61066d565b73ffffffffffffffffffffffffffffffffffffffff16634efe9cac836040518263ffffffff1660e01b81526004016102a59190610cb1565b600060405180830381865afa1580156102c2573d6000803e3d6000fd5b505050506040513d6000823e3d601f19601f820116820180604052508101906102eb9190610e14565b90506102f5610710565b73ffffffffffffffffffffffffffffffffffffffff1663c49c8f45826040518263ffffffff1660e01b815260040161032d9190610f0c565b600060405180830381865afa15801561034a573d6000803e3d6000fd5b505050506040513d6000823e3d601f19601f82011682018060405250810190610373919061112b565b9250505090565b610382610856565b61038a610710565b73ffffffffffffffffffffffffffffffffffffffff16634e634eb5836040518263ffffffff1660e01b81526004016103c29190610cb1565b600060405180830381865afa1580156103df573d6000803e3d6000fd5b505050506040513d6000823e3d601f19601f820116820180604052508101906104089190611174565b9050919050565b6060600061041b6107b3565b73ffffffffffffffffffffffffffffffffffffffff166348cd378c846040518263ffffffff1660e01b81526004016104539190610cb1565b600060405180830381865afa158015610470573d6000803e3d6000fd5b505050506040513d6000823e3d601f19601f820116820180604052508101906104999190610e14565b90506104a3610710565b73ffffffffffffffffffffffffffffffffffffffff1663c49c8f45826040518263ffffffff1660e01b81526004016104db9190610f0c565b600060405180830381865afa1580156104f8573d6000803e3d6000fd5b505050506040513d6000823e3d601f19601f82011682018060405250810190610521919061112b565b915050919050565b6060610533610710565b73ffffffffffffffffffffffffffffffffffffffff1663ad57f14c6040518163ffffffff1660e01b8152600401600060405180830381865afa15801561057d573d6000803e3d6000fd5b505050506040513d6000823e3d601f19601f820116820180604052508101906105a6919061112b565b905090565b6105b361066d565b73ffffffffffffffffffffffffffffffffffffffff166338b6a3a1336040518263ffffffff1660e01b81526004016105eb9190610b76565b602060405180830381865afa158015610608573d6000803e3d6000fd5b505050506040513d601f19601f8201168201806040525081019061062c91906111f5565b61066b576040517f08c379a00000000000000000000000000000000000000000000000000000000081526004016106629061126e565b60405180910390fd5b565b60008060009054906101000a900473ffffffffffffffffffffffffffffffffffffffff1673ffffffffffffffffffffffffffffffffffffffff1663bcaa0c5560026040518263ffffffff1660e01b81526004016106ca91906112d6565b602060405180830381865afa1580156106e7573d6000803e3d6000fd5b505050506040513d601f19601f8201168201806040525081019061070b919061131d565b905090565b60008060009054906101000a900473ffffffffffffffffffffffffffffffffffffffff1673ffffffffffffffffffffffffffffffffffffffff1663bcaa0c5560046040518263ffffffff1660e01b815260040161076d91906112d6565b602060405180830381865afa15801561078a573d6000803e3d6000fd5b505050506040513d601f19601f820116820180604052508101906107ae919061131d565b905090565b60008060009054906101000a900473ffffffffffffffffffffffffffffffffffffffff1673ffffffffffffffffffffffffffffffffffffffff1663bcaa0c5560006040518263ffffffff1660e01b815260040161081091906112d6565b602060405180830381865afa15801561082d573d6000803e3d6000fd5b505050506040513d601f19601f82011682018060405250810190610851919061131d565b905090565b604051806040016040528060008152602001606081525090565b600081519050919050565b600082825260208201905092915050565b6000819050602082019050919050565b6000819050919050565b6108af8161089c565b82525050565b600081519050919050565b600082825260208201905092915050565b60005b838110156108ef5780820151818401526020810190506108d4565b60008484015250505050565b6000601f19601f8301169050919050565b6000610917826108b5565b61092181856108c0565b93506109318185602086016108d1565b61093a816108fb565b840191505092915050565b600060408301600083015161095d60008601826108a6565b5060208301518482036020860152610975828261090c565b9150508091505092915050565b600061098e8383610945565b905092915050565b6000602082019050919050565b60006109ae82610870565b6109b8818561087b565b9350836020820285016109ca8561088c565b8060005b85811015610a0657848403895281516109e78582610982565b94506109f283610996565b925060208a019950506001810190506109ce565b50829750879550505050505092915050565b60006020820190508181036000830152610a3281846109a3565b905092915050565b6000604051905090565b600080fd5b600080fd5b610a578161089c565b8114610a6257600080fd5b50565b600081359050610a7481610a4e565b92915050565b600060208284031215610a9057610a8f610a44565b5b6000610a9e84828501610a65565b91505092915050565b6000604083016000830151610abf60008601826108a6565b5060208301518482036020860152610ad7828261090c565b9150508091505092915050565b60006020820190508181036000830152610afe8184610aa7565b905092915050565b7f4e487b7100000000000000000000000000000000000000000000000000000000600052602160045260246000fd5b600073ffffffffffffffffffffffffffffffffffffffff82169050919050565b6000610b6082610b35565b9050919050565b610b7081610b55565b82525050565b6000602082019050610b8b6000830184610b67565b92915050565b60038110610b9e57600080fd5b50565b600081519050610bb081610b91565b92915050565b600060208284031215610bcc57610bcb610a44565b5b6000610bda84828501610ba1565b91505092915050565b600082825260208201905092915050565b7f53656e646572206d75737420626520612073747564656e740000000000000000600082015250565b6000610c2a601883610be3565b9150610c3582610bf4565b602082019050919050565b60006020820190508181036000830152610c5981610c1d565b9050919050565b600081519050610c6f81610a4e565b92915050565b600060208284031215610c8b57610c8a610a44565b5b6000610c9984828501610c60565b91505092915050565b610cab8161089c565b82525050565b6000602082019050610cc66000830184610ca2565b92915050565b600080fd5b7f4e487b7100000000000000000000000000000000000000000000000000000000600052604160045260246000fd5b610d09826108fb565b810181811067ffffffffffffffff82111715610d2857610d27610cd1565b5b80604052505050565b6000610d3b610a3a565b9050610d478282610d00565b919050565b600067ffffffffffffffff821115610d6757610d66610cd1565b5b602082029050602081019050919050565b600080fd5b6000610d90610d8b84610d4c565b610d31565b90508083825260208201905060208402830185811115610db357610db2610d78565b5b835b81811015610ddc5780610dc88882610c60565b845260208401935050602081019050610db5565b5050509392505050565b600082601f830112610dfb57610dfa610ccc565b5b8151610e0b848260208601610d7d565b91505092915050565b600060208284031215610e2a57610e29610a44565b5b600082015167ffffffffffffffff811115610e4857610e47610a49565b5b610e5484828501610de6565b91505092915050565b600081519050919050565b600082825260208201905092915050565b6000819050602082019050919050565b6000610e9583836108a6565b60208301905092915050565b6000602082019050919050565b6000610eb982610e5d565b610ec38185610e68565b9350610ece83610e79565b8060005b83811015610eff578151610ee68882610e89565b9750610ef183610ea1565b925050600181019050610ed2565b5085935050505092915050565b60006020820190508181036000830152610f268184610eae565b905092915050565b600067ffffffffffffffff821115610f4957610f48610cd1565b5b602082029050602081019050919050565b600080fd5b600080fd5b600080fd5b600067ffffffffffffffff821115610f8457610f83610cd1565b5b610f8d826108fb565b9050602081019050919050565b6000610fad610fa884610f69565b610d31565b905082815260208101848484011115610fc957610fc8610f64565b5b610fd48482856108d1565b509392505050565b600082601f830112610ff157610ff0610ccc565b5b8151611001848260208601610f9a565b91505092915050565b6000604082840312156110205761101f610f5a565b5b61102a6040610d31565b9050600061103a84828501610c60565b600083015250602082015167ffffffffffffffff81111561105e5761105d610f5f565b5b61106a84828501610fdc565b60208301525092915050565b600061108961108484610f2e565b610d31565b905080838252602082019050602084028301858111156110ac576110ab610d78565b5b835b818110156110f357805167ffffffffffffffff8111156110d1576110d0610ccc565b5b8086016110de898261100a565b855260208501945050506020810190506110ae565b5050509392505050565b600082601f83011261111257611111610ccc565b5b8151611122848260208601611076565b91505092915050565b60006020828403121561114157611140610a44565b5b600082015167ffffffffffffffff81111561115f5761115e610a49565b5b61116b848285016110fd565b91505092915050565b60006020828403121561118a57611189610a44565b5b600082015167ffffffffffffffff8111156111a8576111a7610a49565b5b6111b48482850161100a565b91505092915050565b60008115159050919050565b6111d2816111bd565b81146111dd57600080fd5b50565b6000815190506111ef816111c9565b92915050565b60006020828403121561120b5761120a610a44565b5b6000611219848285016111e0565b91505092915050565b7f53656e646572206d757374206265206120726567697374657265642075736572600082015250565b6000611258602083610be3565b915061126382611222565b602082019050919050565b600060208201905081810360008301526112878161124b565b9050919050565b6006811061129f5761129e610b06565b5b50565b60008190506112b08261128e565b919050565b60006112c0826112a2565b9050919050565b6112d0816112b5565b82525050565b60006020820190506112eb60008301846112c7565b92915050565b6112fa81610b55565b811461130557600080fd5b50565b600081519050611317816112f1565b92915050565b60006020828403121561133357611332610a44565b5b600061134184828501611308565b9150509291505056fea2646970667358221220f5c679ae71eaaca17f0d79cf1be66f713cf9ec6e663028ffeefb0b42a3cf345164736f6c63430008110033",
  "linkReferences": {},
  "deployedLinkReferences": {}
}