{
  "_format": "hh-sol-artifact-1",
  "contractName": "Deployer",
  "sourceName": "contracts/Deployer.sol",
  "abi": [
    {
      "inputs": [],
      "stateMutability": "nonpayable",
      "type": "constructor"
    },
    {
      "inputs": [],
      "name": "assessmentDataManager",
      "outputs": [
        {
          "internalType": "address",
          "name": "",
          "type": "address"
        }
      ],
      "stateMutability": "view",
      "type": "function"
    },
    {
      "inputs": [],
      "name": "assessmentDataStorage",
      "outputs": [
        {
          "internalType": "address",
          "name": "",
          "type": "address"
        }
      ],
      "stateMutability": "view",
      "type": "function"
    },
    {
      "inputs": [
        {
          "internalType": "address",
          "name": "registratorServerWalletAddress",
          "type": "address"
        }
      ],
      "name": "configureDeployments",
      "outputs": [],
      "stateMutability": "nonpayable",
      "type": "function"
    },
    {
      "inputs": [],
      "name": "courseController",
      "outputs": [
        {
          "internalType": "address",
          "name": "",
          "type": "address"
        }
      ],
      "stateMutability": "view",
      "type": "function"
    },
    {
      "inputs": [],
      "name": "courseDataManager",
      "outputs": [
        {
          "internalType": "address",
          "name": "",
          "type": "address"
        }
      ],
      "stateMutability": "view",
      "type": "function"
    },
    {
      "inputs": [],
      "name": "courseDataStorage",
      "outputs": [
        {
          "internalType": "address",
          "name": "",
          "type": "address"
        }
      ],
      "stateMutability": "view",
      "type": "function"
    },
    {
      "inputs": [],
      "name": "courseView",
      "outputs": [
        {
          "internalType": "address",
          "name": "",
          "type": "address"
        }
      ],
      "stateMutability": "view",
      "type": "function"
    },
    {
      "inputs": [],
      "name": "datamanagerAccessWhitelist",
      "outputs": [
        {
          "internalType": "address",
          "name": "",
          "type": "address"
        }
      ],
      "stateMutability": "view",
      "type": "function"
    },
    {
      "inputs": [
        {
          "internalType": "bytes",
          "name": "contractCode",
          "type": "bytes"
        }
      ],
      "name": "deployContract",
      "outputs": [
        {
          "internalType": "address",
          "name": "",
          "type": "address"
        }
      ],
      "stateMutability": "nonpayable",
      "type": "function"
    },
    {
      "inputs": [
        {
          "internalType": "bytes",
          "name": "courseControllerContract",
          "type": "bytes"
        },
        {
          "internalType": "bytes",
          "name": "performanceControllerContract",
          "type": "bytes"
        },
        {
          "internalType": "bytes",
          "name": "studyProgramControllerContract",
          "type": "bytes"
        },
        {
          "internalType": "bytes",
          "name": "userControllerContract",
          "type": "bytes"
        },
        {
          "internalType": "bytes",
          "name": "faucetContract",
          "type": "bytes"
        }
      ],
      "name": "deployControllers",
      "outputs": [],
      "stateMutability": "nonpayable",
      "type": "function"
    },
    {
      "inputs": [
        {
          "internalType": "bytes",
          "name": "accessWhitelistContract",
          "type": "bytes"
        },
        {
          "internalType": "bytes",
          "name": "courseDataManagerContract",
          "type": "bytes"
        },
        {
          "internalType": "bytes",
          "name": "assessmentDataManagerContract",
          "type": "bytes"
        },
        {
          "internalType": "bytes",
          "name": "performanceDataManagerContract",
          "type": "bytes"
        },
        {
          "internalType": "bytes",
          "name": "programDataManagerContract",
          "type": "bytes"
        },
        {
          "internalType": "bytes",
          "name": "registrationDataManagerContract",
          "type": "bytes"
        },
        {
          "internalType": "bytes",
          "name": "userDataManagerContract",
          "type": "bytes"
        }
      ],
      "name": "deployDatamanagers",
      "outputs": [],
      "stateMutability": "nonpayable",
      "type": "function"
    },
    {
      "inputs": [
        {
          "internalType": "bytes",
          "name": "accessWhitelistContract",
          "type": "bytes"
        },
        {
          "internalType": "bytes",
          "name": "courseDataStorageContract",
          "type": "bytes"
        },
        {
          "internalType": "bytes",
          "name": "assessmentDataStorageContract",
          "type": "bytes"
        },
        {
          "internalType": "bytes",
          "name": "performanceStorageContract",
          "type": "bytes"
        }
      ],
      "name": "deployStorages1",
      "outputs": [],
      "stateMutability": "nonpayable",
      "type": "function"
    },
    {
      "inputs": [
        {
          "internalType": "bytes",
          "name": "gradeStorageContract",
          "type": "bytes"
        },
        {
          "internalType": "bytes",
          "name": "studyProgramStorageContract",
          "type": "bytes"
        },
        {
          "internalType": "bytes",
          "name": "registrationStorageContract",
          "type": "bytes"
        },
        {
          "internalType": "bytes",
          "name": "userStorageContract",
          "type": "bytes"
        }
      ],
      "name": "deployStorages2",
      "outputs": [],
      "stateMutability": "nonpayable",
      "type": "function"
    },
    {
      "inputs": [
        {
          "internalType": "bytes",
          "name": "courseViewContract",
          "type": "bytes"
        },
        {
          "internalType": "bytes",
          "name": "performanceViewContract",
          "type": "bytes"
        },
        {
          "internalType": "bytes",
          "name": "studyProgramViewContract",
          "type": "bytes"
        },
        {
          "internalType": "bytes",
          "name": "userViewContract",
          "type": "bytes"
        }
      ],
      "name": "deployViews",
      "outputs": [],
      "stateMutability": "nonpayable",
      "type": "function"
    },
    {
      "inputs": [],
      "name": "faucet",
      "outputs": [
        {
          "internalType": "address",
          "name": "",
          "type": "address"
        }
      ],
      "stateMutability": "view",
      "type": "function"
    },
    {
      "inputs": [],
      "name": "gradeStorage",
      "outputs": [
        {
          "internalType": "address",
          "name": "",
          "type": "address"
        }
      ],
      "stateMutability": "view",
      "type": "function"
    },
    {
      "inputs": [],
      "name": "performanceController",
      "outputs": [
        {
          "internalType": "address",
          "name": "",
          "type": "address"
        }
      ],
      "stateMutability": "view",
      "type": "function"
    },
    {
      "inputs": [],
      "name": "performanceDataManager",
      "outputs": [
        {
          "internalType": "address",
          "name": "",
          "type": "address"
        }
      ],
      "stateMutability": "view",
      "type": "function"
    },
    {
      "inputs": [],
      "name": "performanceStorage",
      "outputs": [
        {
          "internalType": "address",
          "name": "",
          "type": "address"
        }
      ],
      "stateMutability": "view",
      "type": "function"
    },
    {
      "inputs": [],
      "name": "performanceView",
      "outputs": [
        {
          "internalType": "address",
          "name": "",
          "type": "address"
        }
      ],
      "stateMutability": "view",
      "type": "function"
    },
    {
      "inputs": [],
      "name": "programDataManager",
      "outputs": [
        {
          "internalType": "address",
          "name": "",
          "type": "address"
        }
      ],
      "stateMutability": "view",
      "type": "function"
    },
    {
      "inputs": [],
      "name": "registrationDataManager",
      "outputs": [
        {
          "internalType": "address",
          "name": "",
          "type": "address"
        }
      ],
      "stateMutability": "view",
      "type": "function"
    },
    {
      "inputs": [],
      "name": "registrationStorage",
      "outputs": [
        {
          "internalType": "address",
          "name": "",
          "type": "address"
        }
      ],
      "stateMutability": "view",
      "type": "function"
    },
    {
      "inputs": [],
      "name": "storageAccessWhitelist",
      "outputs": [
        {
          "internalType": "address",
          "name": "",
          "type": "address"
        }
      ],
      "stateMutability": "view",
      "type": "function"
    },
    {
      "inputs": [],
      "name": "studyProgramController",
      "outputs": [
        {
          "internalType": "address",
          "name": "",
          "type": "address"
        }
      ],
      "stateMutability": "view",
      "type": "function"
    },
    {
      "inputs": [],
      "name": "studyProgramStorage",
      "outputs": [
        {
          "internalType": "address",
          "name": "",
          "type": "address"
        }
      ],
      "stateMutability": "view",
      "type": "function"
    },
    {
      "inputs": [],
      "name": "studyProgramView",
      "outputs": [
        {
          "internalType": "address",
          "name": "",
          "type": "address"
        }
      ],
      "stateMutability": "view",
      "type": "function"
    },
    {
      "inputs": [],
      "name": "userController",
      "outputs": [
        {
          "internalType": "address",
          "name": "",
          "type": "address"
        }
      ],
      "stateMutability": "view",
      "type": "function"
    },
    {
      "inputs": [],
      "name": "userDataManager",
      "outputs": [
        {
          "internalType": "address",
          "name": "",
          "type": "address"
        }
      ],
      "stateMutability": "view",
      "type": "function"
    },
    {
      "inputs": [],
      "name": "userStorage",
      "outputs": [
        {
          "internalType": "address",
          "name": "",
          "type": "address"
        }
      ],
      "stateMutability": "view",
      "type": "function"
    },
    {
      "inputs": [],
      "name": "userView",
      "outputs": [
        {
          "internalType": "address",
          "name": "",
          "type": "address"
        }
      ],
      "stateMutability": "view",
      "type": "function"
    }
  ],
  "bytecode": "0x608060405234801561001057600080fd5b5033601860006101000a81548173ffffffffffffffffffffffffffffffffffffffff021916908373ffffffffffffffffffffffffffffffffffffffff160217905550613050806100616000396000f3fe608060405234801561001057600080fd5b50600436106101e45760003560e01c80637e83389b1161010f578063ca085d1a116100a2578063de86032611610071578063de8603261461051b578063e6b2073014610539578063f3ee0ea614610555578063f965a57b14610573576101e4565b8063ca085d1a146104a5578063d650df7d146104c1578063de5f72fd146104df578063de75f964146104fd576101e4565b8063ab2aeec9116100de578063ab2aeec91461042f578063b4c2fbbd1461044d578063b562d6ee14610469578063ba42c77d14610487576101e4565b80637e83389b146103b957806398724141146103d75780639a44fd70146103f35780639f3d01b514610411576101e4565b80634590a43d1161018757806375e580791161015657806375e580791461032f578063798133dd1461034d5780637a70f0831461037d5780637cb412f21461039b576101e4565b80634590a43d146102b7578063490fb76a146102d557806369ae2aeb146102f35780637324308614610311576101e4565b80632517880c116101c35780632517880c14610241578063308588e61461025f578063381399131461027d5780633c0623df14610299576101e4565b8062b740d3146101e95780630cf50dd3146102075780630de3d56b14610223575b600080fd5b6101f1610591565b6040516101fe919061291f565b60405180910390f35b610221600480360381019061021c9190612a94565b6105b7565b005b61022b610ad1565b604051610238919061291f565b60405180910390f35b610249610af7565b604051610256919061291f565b60405180910390f35b610267610b1d565b604051610274919061291f565b60405180910390f35b61029760048036038101906102929190612bfa565b610b43565b005b6102a1610d9e565b6040516102ae919061291f565b60405180910390f35b6102bf610dc4565b6040516102cc919061291f565b60405180910390f35b6102dd610dea565b6040516102ea919061291f565b60405180910390f35b6102fb610e10565b604051610308919061291f565b60405180910390f35b610319610e34565b604051610326919061291f565b60405180910390f35b610337610e5a565b604051610344919061291f565b60405180910390f35b61036760048036038101906103629190612cd1565b610e80565b604051610374919061291f565b60405180910390f35b610385610ea2565b604051610392919061291f565b60405180910390f35b6103a3610ec8565b6040516103b0919061291f565b60405180910390f35b6103c1610eee565b6040516103ce919061291f565b60405180910390f35b6103f160048036038101906103ec9190612bfa565b610f14565b005b6103fb6112bc565b604051610408919061291f565b60405180910390f35b6104196112e2565b604051610426919061291f565b60405180910390f35b610437611308565b604051610444919061291f565b60405180910390f35b61046760048036038101906104629190612d1a565b61132e565b005b61047161178c565b60405161047e919061291f565b60405180910390f35b61048f6117b2565b60405161049c919061291f565b60405180910390f35b6104bf60048036038101906104ba9190612bfa565b6117d8565b005b6104c9611a7c565b6040516104d6919061291f565b60405180910390f35b6104e7611aa2565b6040516104f4919061291f565b60405180910390f35b610505611ac8565b604051610512919061291f565b60405180910390f35b610523611aee565b604051610530919061291f565b60405180910390f35b610553600480360381019061054e9190612e4d565b611b14565b005b61055d612866565b60405161056a919061291f565b60405180910390f35b61057b61288c565b604051610588919061291f565b60405180910390f35b600860009054906101000a900473ffffffffffffffffffffffffffffffffffffffff1681565b601860009054906101000a900473ffffffffffffffffffffffffffffffffffffffff1673ffffffffffffffffffffffffffffffffffffffff163373ffffffffffffffffffffffffffffffffffffffff161461061157600080fd5b61061a87610e80565b600860006101000a81548173ffffffffffffffffffffffffffffffffffffffff021916908373ffffffffffffffffffffffffffffffffffffffff1602179055506106d16106cc87600160009054906101000a900473ffffffffffffffffffffffffffffffffffffffff16600860009054906101000a900473ffffffffffffffffffffffffffffffffffffffff166040516020016106b8929190612e7a565b6040516020818303038152906040526128b2565b610e80565b600960006101000a81548173ffffffffffffffffffffffffffffffffffffffff021916908373ffffffffffffffffffffffffffffffffffffffff16021790555061078861078386600260009054906101000a900473ffffffffffffffffffffffffffffffffffffffff16600860009054906101000a900473ffffffffffffffffffffffffffffffffffffffff1660405160200161076f929190612e7a565b6040516020818303038152906040526128b2565b610e80565b600a60006101000a81548173ffffffffffffffffffffffffffffffffffffffff021916908373ffffffffffffffffffffffffffffffffffffffff16021790555061086361085e85600360009054906101000a900473ffffffffffffffffffffffffffffffffffffffff16600460009054906101000a900473ffffffffffffffffffffffffffffffffffffffff16600860009054906101000a900473ffffffffffffffffffffffffffffffffffffffff1660405160200161084a93929190612ea3565b6040516020818303038152906040526128b2565b610e80565b600b60006101000a81548173ffffffffffffffffffffffffffffffffffffffff021916908373ffffffffffffffffffffffffffffffffffffffff16021790555061091a61091584600560009054906101000a900473ffffffffffffffffffffffffffffffffffffffff16600860009054906101000a900473ffffffffffffffffffffffffffffffffffffffff16604051602001610901929190612e7a565b6040516020818303038152906040526128b2565b610e80565b600c60006101000a81548173ffffffffffffffffffffffffffffffffffffffff021916908373ffffffffffffffffffffffffffffffffffffffff1602179055506109d16109cc83600660009054906101000a900473ffffffffffffffffffffffffffffffffffffffff16600860009054906101000a900473ffffffffffffffffffffffffffffffffffffffff166040516020016109b8929190612e7a565b6040516020818303038152906040526128b2565b610e80565b600d60006101000a81548173ffffffffffffffffffffffffffffffffffffffff021916908373ffffffffffffffffffffffffffffffffffffffff160217905550610a88610a8382600760009054906101000a900473ffffffffffffffffffffffffffffffffffffffff16600860009054906101000a900473ffffffffffffffffffffffffffffffffffffffff16604051602001610a6f929190612e7a565b6040516020818303038152906040526128b2565b610e80565b600e60006101000a81548173ffffffffffffffffffffffffffffffffffffffff021916908373ffffffffffffffffffffffffffffffffffffffff16021790555050505050505050565b601060009054906101000a900473ffffffffffffffffffffffffffffffffffffffff1681565b601760009054906101000a900473ffffffffffffffffffffffffffffffffffffffff1681565b600e60009054906101000a900473ffffffffffffffffffffffffffffffffffffffff1681565b601860009054906101000a900473ffffffffffffffffffffffffffffffffffffffff1673ffffffffffffffffffffffffffffffffffffffff163373ffffffffffffffffffffffffffffffffffffffff1614610b9d57600080fd5b610ba684610e80565b6000806101000a81548173ffffffffffffffffffffffffffffffffffffffff021916908373ffffffffffffffffffffffffffffffffffffffff160217905550610c36610c318460008054906101000a900473ffffffffffffffffffffffffffffffffffffffff16604051602001610c1d919061291f565b6040516020818303038152906040526128b2565b610e80565b600160006101000a81548173ffffffffffffffffffffffffffffffffffffffff021916908373ffffffffffffffffffffffffffffffffffffffff160217905550610cc7610cc28360008054906101000a900473ffffffffffffffffffffffffffffffffffffffff16604051602001610cae919061291f565b6040516020818303038152906040526128b2565b610e80565b600260006101000a81548173ffffffffffffffffffffffffffffffffffffffff021916908373ffffffffffffffffffffffffffffffffffffffff160217905550610d58610d538260008054906101000a900473ffffffffffffffffffffffffffffffffffffffff16604051602001610d3f919061291f565b6040516020818303038152906040526128b2565b610e80565b600360006101000a81548173ffffffffffffffffffffffffffffffffffffffff021916908373ffffffffffffffffffffffffffffffffffffffff16021790555050505050565b600960009054906101000a900473ffffffffffffffffffffffffffffffffffffffff1681565b601560009054906101000a900473ffffffffffffffffffffffffffffffffffffffff1681565b601360009054906101000a900473ffffffffffffffffffffffffffffffffffffffff1681565b60008054906101000a900473ffffffffffffffffffffffffffffffffffffffff1681565b600c60009054906101000a900473ffffffffffffffffffffffffffffffffffffffff1681565b600760009054906101000a900473ffffffffffffffffffffffffffffffffffffffff1681565b6000808251602084016000f09050803b610e9957600080fd5b80915050919050565b600a60009054906101000a900473ffffffffffffffffffffffffffffffffffffffff1681565b600d60009054906101000a900473ffffffffffffffffffffffffffffffffffffffff1681565b600460009054906101000a900473ffffffffffffffffffffffffffffffffffffffff1681565b601860009054906101000a900473ffffffffffffffffffffffffffffffffffffffff1673ffffffffffffffffffffffffffffffffffffffff163373ffffffffffffffffffffffffffffffffffffffff1614610f6e57600080fd5b61100961100485600e60009054906101000a900473ffffffffffffffffffffffffffffffffffffffff16600960009054906101000a900473ffffffffffffffffffffffffffffffffffffffff16600a60009054906101000a900473ffffffffffffffffffffffffffffffffffffffff16604051602001610ff093929190612ea3565b6040516020818303038152906040526128b2565b610e80565b601460006101000a81548173ffffffffffffffffffffffffffffffffffffffff021916908373ffffffffffffffffffffffffffffffffffffffff16021790555061110861110384600e60009054906101000a900473ffffffffffffffffffffffffffffffffffffffff16600960009054906101000a900473ffffffffffffffffffffffffffffffffffffffff16600a60009054906101000a900473ffffffffffffffffffffffffffffffffffffffff16600b60009054906101000a900473ffffffffffffffffffffffffffffffffffffffff166040516020016110ef9493929190612eda565b6040516020818303038152906040526128b2565b610e80565b601560006101000a81548173ffffffffffffffffffffffffffffffffffffffff021916908373ffffffffffffffffffffffffffffffffffffffff1602179055506111bf6111ba83600e60009054906101000a900473ffffffffffffffffffffffffffffffffffffffff16600c60009054906101000a900473ffffffffffffffffffffffffffffffffffffffff166040516020016111a6929190612e7a565b6040516020818303038152906040526128b2565b610e80565b601660006101000a81548173ffffffffffffffffffffffffffffffffffffffff021916908373ffffffffffffffffffffffffffffffffffffffff16021790555061127661127182600e60009054906101000a900473ffffffffffffffffffffffffffffffffffffffff16600d60009054906101000a900473ffffffffffffffffffffffffffffffffffffffff1660405160200161125d929190612e7a565b6040516020818303038152906040526128b2565b610e80565b601760006101000a81548173ffffffffffffffffffffffffffffffffffffffff021916908373ffffffffffffffffffffffffffffffffffffffff16021790555050505050565b601160009054906101000a900473ffffffffffffffffffffffffffffffffffffffff1681565b601260009054906101000a900473ffffffffffffffffffffffffffffffffffffffff1681565b600b60009054906101000a900473ffffffffffffffffffffffffffffffffffffffff1681565b601860009054906101000a900473ffffffffffffffffffffffffffffffffffffffff1673ffffffffffffffffffffffffffffffffffffffff163373ffffffffffffffffffffffffffffffffffffffff161461138857600080fd5b61139181610e80565b600f60006101000a81548173ffffffffffffffffffffffffffffffffffffffff021916908373ffffffffffffffffffffffffffffffffffffffff16021790555061149061148b86600e60009054906101000a900473ffffffffffffffffffffffffffffffffffffffff16600960009054906101000a900473ffffffffffffffffffffffffffffffffffffffff16600a60009054906101000a900473ffffffffffffffffffffffffffffffffffffffff16600b60009054906101000a900473ffffffffffffffffffffffffffffffffffffffff166040516020016114779493929190612eda565b6040516020818303038152906040526128b2565b610e80565b601060006101000a81548173ffffffffffffffffffffffffffffffffffffffff021916908373ffffffffffffffffffffffffffffffffffffffff16021790555061158f61158a85600e60009054906101000a900473ffffffffffffffffffffffffffffffffffffffff16600960009054906101000a900473ffffffffffffffffffffffffffffffffffffffff16600a60009054906101000a900473ffffffffffffffffffffffffffffffffffffffff16600b60009054906101000a900473ffffffffffffffffffffffffffffffffffffffff166040516020016115769493929190612eda565b6040516020818303038152906040526128b2565b610e80565b601160006101000a81548173ffffffffffffffffffffffffffffffffffffffff021916908373ffffffffffffffffffffffffffffffffffffffff16021790555061164661164184600e60009054906101000a900473ffffffffffffffffffffffffffffffffffffffff16600c60009054906101000a900473ffffffffffffffffffffffffffffffffffffffff1660405160200161162d929190612e7a565b6040516020818303038152906040526128b2565b610e80565b601260006101000a81548173ffffffffffffffffffffffffffffffffffffffff021916908373ffffffffffffffffffffffffffffffffffffffff16021790555061174561174083600e60009054906101000a900473ffffffffffffffffffffffffffffffffffffffff16600c60009054906101000a900473ffffffffffffffffffffffffffffffffffffffff16600d60009054906101000a900473ffffffffffffffffffffffffffffffffffffffff16600f60009054906101000a900473ffffffffffffffffffffffffffffffffffffffff1660405160200161172c9493929190612f40565b6040516020818303038152906040526128b2565b610e80565b601360006101000a81548173ffffffffffffffffffffffffffffffffffffffff021916908373ffffffffffffffffffffffffffffffffffffffff1602179055505050505050565b601660009054906101000a900473ffffffffffffffffffffffffffffffffffffffff1681565b600160009054906101000a900473ffffffffffffffffffffffffffffffffffffffff1681565b601860009054906101000a900473ffffffffffffffffffffffffffffffffffffffff1673ffffffffffffffffffffffffffffffffffffffff163373ffffffffffffffffffffffffffffffffffffffff161461183257600080fd5b61188361187e8560008054906101000a900473ffffffffffffffffffffffffffffffffffffffff1660405160200161186a919061291f565b6040516020818303038152906040526128b2565b610e80565b600460006101000a81548173ffffffffffffffffffffffffffffffffffffffff021916908373ffffffffffffffffffffffffffffffffffffffff16021790555061191461190f8460008054906101000a900473ffffffffffffffffffffffffffffffffffffffff166040516020016118fb919061291f565b6040516020818303038152906040526128b2565b610e80565b600560006101000a81548173ffffffffffffffffffffffffffffffffffffffff021916908373ffffffffffffffffffffffffffffffffffffffff1602179055506119a56119a08360008054906101000a900473ffffffffffffffffffffffffffffffffffffffff1660405160200161198c919061291f565b6040516020818303038152906040526128b2565b610e80565b600660006101000a81548173ffffffffffffffffffffffffffffffffffffffff021916908373ffffffffffffffffffffffffffffffffffffffff160217905550611a36611a318260008054906101000a900473ffffffffffffffffffffffffffffffffffffffff16604051602001611a1d919061291f565b6040516020818303038152906040526128b2565b610e80565b600760006101000a81548173ffffffffffffffffffffffffffffffffffffffff021916908373ffffffffffffffffffffffffffffffffffffffff16021790555050505050565b600260009054906101000a900473ffffffffffffffffffffffffffffffffffffffff1681565b600f60009054906101000a900473ffffffffffffffffffffffffffffffffffffffff1681565b600360009054906101000a900473ffffffffffffffffffffffffffffffffffffffff1681565b600660009054906101000a900473ffffffffffffffffffffffffffffffffffffffff1681565b601860009054906101000a900473ffffffffffffffffffffffffffffffffffffffff1673ffffffffffffffffffffffffffffffffffffffff163373ffffffffffffffffffffffffffffffffffffffff1614611b6e57600080fd5b60008060009054906101000a900473ffffffffffffffffffffffffffffffffffffffff1690508073ffffffffffffffffffffffffffffffffffffffff16630ae5e739601860009054906101000a900473ffffffffffffffffffffffffffffffffffffffff166040518263ffffffff1660e01b8152600401611bef919061291f565b600060405180830381600087803b158015611c0957600080fd5b505af1158015611c1d573d6000803e3d6000fd5b505050508073ffffffffffffffffffffffffffffffffffffffff16630ae5e739600960009054906101000a900473ffffffffffffffffffffffffffffffffffffffff166040518263ffffffff1660e01b8152600401611c7c919061291f565b600060405180830381600087803b158015611c9657600080fd5b505af1158015611caa573d6000803e3d6000fd5b505050508073ffffffffffffffffffffffffffffffffffffffff16630ae5e739600a60009054906101000a900473ffffffffffffffffffffffffffffffffffffffff166040518263ffffffff1660e01b8152600401611d09919061291f565b600060405180830381600087803b158015611d2357600080fd5b505af1158015611d37573d6000803e3d6000fd5b505050508073ffffffffffffffffffffffffffffffffffffffff16630ae5e739600b60009054906101000a900473ffffffffffffffffffffffffffffffffffffffff166040518263ffffffff1660e01b8152600401611d96919061291f565b600060405180830381600087803b158015611db057600080fd5b505af1158015611dc4573d6000803e3d6000fd5b505050508073ffffffffffffffffffffffffffffffffffffffff16630ae5e739600c60009054906101000a900473ffffffffffffffffffffffffffffffffffffffff166040518263ffffffff1660e01b8152600401611e23919061291f565b600060405180830381600087803b158015611e3d57600080fd5b505af1158015611e51573d6000803e3d6000fd5b505050508073ffffffffffffffffffffffffffffffffffffffff16630ae5e739600d60009054906101000a900473ffffffffffffffffffffffffffffffffffffffff166040518263ffffffff1660e01b8152600401611eb0919061291f565b600060405180830381600087803b158015611eca57600080fd5b505af1158015611ede573d6000803e3d6000fd5b505050508073ffffffffffffffffffffffffffffffffffffffff16630ae5e739600e60009054906101000a900473ffffffffffffffffffffffffffffffffffffffff166040518263ffffffff1660e01b8152600401611f3d919061291f565b600060405180830381600087803b158015611f5757600080fd5b505af1158015611f6b573d6000803e3d6000fd5b505050506000600860009054906101000a900473ffffffffffffffffffffffffffffffffffffffff1690508073ffffffffffffffffffffffffffffffffffffffff166370480275601860009054906101000a900473ffffffffffffffffffffffffffffffffffffffff166040518263ffffffff1660e01b8152600401611ff1919061291f565b600060405180830381600087803b15801561200b57600080fd5b505af115801561201f573d6000803e3d6000fd5b505050508073ffffffffffffffffffffffffffffffffffffffff16630ae5e739601860009054906101000a900473ffffffffffffffffffffffffffffffffffffffff166040518263ffffffff1660e01b815260040161207e919061291f565b600060405180830381600087803b15801561209857600080fd5b505af11580156120ac573d6000803e3d6000fd5b505050508073ffffffffffffffffffffffffffffffffffffffff16630ae5e739601060009054906101000a900473ffffffffffffffffffffffffffffffffffffffff166040518263ffffffff1660e01b815260040161210b919061291f565b600060405180830381600087803b15801561212557600080fd5b505af1158015612139573d6000803e3d6000fd5b505050508073ffffffffffffffffffffffffffffffffffffffff16630ae5e739601160009054906101000a900473ffffffffffffffffffffffffffffffffffffffff166040518263ffffffff1660e01b8152600401612198919061291f565b600060405180830381600087803b1580156121b257600080fd5b505af11580156121c6573d6000803e3d6000fd5b505050508073ffffffffffffffffffffffffffffffffffffffff16630ae5e739601260009054906101000a900473ffffffffffffffffffffffffffffffffffffffff166040518263ffffffff1660e01b8152600401612225919061291f565b600060405180830381600087803b15801561223f57600080fd5b505af1158015612253573d6000803e3d6000fd5b505050508073ffffffffffffffffffffffffffffffffffffffff16630ae5e739601360009054906101000a900473ffffffffffffffffffffffffffffffffffffffff166040518263ffffffff1660e01b81526004016122b2919061291f565b600060405180830381600087803b1580156122cc57600080fd5b505af11580156122e0573d6000803e3d6000fd5b505050508073ffffffffffffffffffffffffffffffffffffffff16630ae5e739601460009054906101000a900473ffffffffffffffffffffffffffffffffffffffff166040518263ffffffff1660e01b815260040161233f919061291f565b600060405180830381600087803b15801561235957600080fd5b505af115801561236d573d6000803e3d6000fd5b505050508073ffffffffffffffffffffffffffffffffffffffff16630ae5e739601560009054906101000a900473ffffffffffffffffffffffffffffffffffffffff166040518263ffffffff1660e01b81526004016123cc919061291f565b600060405180830381600087803b1580156123e657600080fd5b505af11580156123fa573d6000803e3d6000fd5b505050508073ffffffffffffffffffffffffffffffffffffffff16630ae5e739601660009054906101000a900473ffffffffffffffffffffffffffffffffffffffff166040518263ffffffff1660e01b8152600401612459919061291f565b600060405180830381600087803b15801561247357600080fd5b505af1158015612487573d6000803e3d6000fd5b505050508073ffffffffffffffffffffffffffffffffffffffff16630ae5e739601760009054906101000a900473ffffffffffffffffffffffffffffffffffffffff166040518263ffffffff1660e01b81526004016124e6919061291f565b600060405180830381600087803b15801561250057600080fd5b505af1158015612514573d6000803e3d6000fd5b50505050600f60009054906101000a900473ffffffffffffffffffffffffffffffffffffffff1673ffffffffffffffffffffffffffffffffffffffff166370480275601860009054906101000a900473ffffffffffffffffffffffffffffffffffffffff166040518263ffffffff1660e01b8152600401612595919061291f565b600060405180830381600087803b1580156125af57600080fd5b505af11580156125c3573d6000803e3d6000fd5b50505050600f60009054906101000a900473ffffffffffffffffffffffffffffffffffffffff1673ffffffffffffffffffffffffffffffffffffffff166370480275601360009054906101000a900473ffffffffffffffffffffffffffffffffffffffff166040518263ffffffff1660e01b8152600401612644919061291f565b600060405180830381600087803b15801561265e57600080fd5b505af1158015612672573d6000803e3d6000fd5b50505050601260009054906101000a900473ffffffffffffffffffffffffffffffffffffffff1673ffffffffffffffffffffffffffffffffffffffff166370480275601860009054906101000a900473ffffffffffffffffffffffffffffffffffffffff166040518263ffffffff1660e01b81526004016126f3919061291f565b600060405180830381600087803b15801561270d57600080fd5b505af1158015612721573d6000803e3d6000fd5b50505050601360009054906101000a900473ffffffffffffffffffffffffffffffffffffffff1673ffffffffffffffffffffffffffffffffffffffff166370480275601860009054906101000a900473ffffffffffffffffffffffffffffffffffffffff166040518263ffffffff1660e01b81526004016127a2919061291f565b600060405180830381600087803b1580156127bc57600080fd5b505af11580156127d0573d6000803e3d6000fd5b50505050601360009054906101000a900473ffffffffffffffffffffffffffffffffffffffff1673ffffffffffffffffffffffffffffffffffffffff166370480275846040518263ffffffff1660e01b815260040161282f919061291f565b600060405180830381600087803b15801561284957600080fd5b505af115801561285d573d6000803e3d6000fd5b50505050505050565b601460009054906101000a900473ffffffffffffffffffffffffffffffffffffffff1681565b600560009054906101000a900473ffffffffffffffffffffffffffffffffffffffff1681565b606082826040516020016128c7929190612ff6565b604051602081830303815290604052905092915050565b600073ffffffffffffffffffffffffffffffffffffffff82169050919050565b6000612909826128de565b9050919050565b612919816128fe565b82525050565b60006020820190506129346000830184612910565b92915050565b6000604051905090565b600080fd5b600080fd5b600080fd5b600080fd5b6000601f19601f8301169050919050565b7f4e487b7100000000000000000000000000000000000000000000000000000000600052604160045260246000fd5b6129a182612958565b810181811067ffffffffffffffff821117156129c0576129bf612969565b5b80604052505050565b60006129d361293a565b90506129df8282612998565b919050565b600067ffffffffffffffff8211156129ff576129fe612969565b5b612a0882612958565b9050602081019050919050565b82818337600083830152505050565b6000612a37612a32846129e4565b6129c9565b905082815260208101848484011115612a5357612a52612953565b5b612a5e848285612a15565b509392505050565b600082601f830112612a7b57612a7a61294e565b5b8135612a8b848260208601612a24565b91505092915050565b600080600080600080600060e0888a031215612ab357612ab2612944565b5b600088013567ffffffffffffffff811115612ad157612ad0612949565b5b612add8a828b01612a66565b975050602088013567ffffffffffffffff811115612afe57612afd612949565b5b612b0a8a828b01612a66565b965050604088013567ffffffffffffffff811115612b2b57612b2a612949565b5b612b378a828b01612a66565b955050606088013567ffffffffffffffff811115612b5857612b57612949565b5b612b648a828b01612a66565b945050608088013567ffffffffffffffff811115612b8557612b84612949565b5b612b918a828b01612a66565b93505060a088013567ffffffffffffffff811115612bb257612bb1612949565b5b612bbe8a828b01612a66565b92505060c088013567ffffffffffffffff811115612bdf57612bde612949565b5b612beb8a828b01612a66565b91505092959891949750929550565b60008060008060808587031215612c1457612c13612944565b5b600085013567ffffffffffffffff811115612c3257612c31612949565b5b612c3e87828801612a66565b945050602085013567ffffffffffffffff811115612c5f57612c5e612949565b5b612c6b87828801612a66565b935050604085013567ffffffffffffffff811115612c8c57612c8b612949565b5b612c9887828801612a66565b925050606085013567ffffffffffffffff811115612cb957612cb8612949565b5b612cc587828801612a66565b91505092959194509250565b600060208284031215612ce757612ce6612944565b5b600082013567ffffffffffffffff811115612d0557612d04612949565b5b612d1184828501612a66565b91505092915050565b600080600080600060a08688031215612d3657612d35612944565b5b600086013567ffffffffffffffff811115612d5457612d53612949565b5b612d6088828901612a66565b955050602086013567ffffffffffffffff811115612d8157612d80612949565b5b612d8d88828901612a66565b945050604086013567ffffffffffffffff811115612dae57612dad612949565b5b612dba88828901612a66565b935050606086013567ffffffffffffffff811115612ddb57612dda612949565b5b612de788828901612a66565b925050608086013567ffffffffffffffff811115612e0857612e07612949565b5b612e1488828901612a66565b9150509295509295909350565b612e2a816128fe565b8114612e3557600080fd5b50565b600081359050612e4781612e21565b92915050565b600060208284031215612e6357612e62612944565b5b6000612e7184828501612e38565b91505092915050565b6000604082019050612e8f6000830185612910565b612e9c6020830184612910565b9392505050565b6000606082019050612eb86000830186612910565b612ec56020830185612910565b612ed26040830184612910565b949350505050565b6000608082019050612eef6000830187612910565b612efc6020830186612910565b612f096040830185612910565b612f166060830184612910565b95945050505050565b6000612f2a826128de565b9050919050565b612f3a81612f1f565b82525050565b6000608082019050612f556000830187612910565b612f626020830186612910565b612f6f6040830185612910565b612f7c6060830184612f31565b95945050505050565b600081519050919050565b600081905092915050565b60005b83811015612fb9578082015181840152602081019050612f9e565b60008484015250505050565b6000612fd082612f85565b612fda8185612f90565b9350612fea818560208601612f9b565b80840191505092915050565b60006130028285612fc5565b915061300e8284612fc5565b9150819050939250505056fea264697066735822122091af9dcabbdf78237c3785754f97ae8cdab758ee72aaf0d3300fe35b9fba575e64736f6c63430008110033",
  "linkReferences": {},
  "deployedLinkReferences": {}
}