{
  "_format": "hh-sol-artifact-1",
  "contractName": "Deployer",
  "sourceName": "contracts/Deployer.sol",
  "abi": [
    {
      "inputs": [],
      "stateMutability": "nonpayable",
      "type": "constructor"
    },
    {
      "inputs": [],
      "name": "addressBook",
      "outputs": [
        {
          "internalType": "address",
          "name": "",
          "type": "address"
        }
      ],
      "stateMutability": "view",
      "type": "function"
    },
    {
      "inputs": [],
      "name": "assessmentDataManager",
      "outputs": [
        {
          "internalType": "address",
          "name": "",
          "type": "address"
        }
      ],
      "stateMutability": "view",
      "type": "function"
    },
    {
      "inputs": [],
      "name": "assessmentDataStorage",
      "outputs": [
        {
          "internalType": "address",
          "name": "",
          "type": "address"
        }
      ],
      "stateMutability": "view",
      "type": "function"
    },
    {
      "inputs": [
        {
          "internalType": "address",
          "name": "registratorServerWalletAddress",
          "type": "address"
        }
      ],
      "name": "configureDeployments",
      "outputs": [],
      "stateMutability": "nonpayable",
      "type": "function"
    },
    {
      "inputs": [],
      "name": "courseController",
      "outputs": [
        {
          "internalType": "address",
          "name": "",
          "type": "address"
        }
      ],
      "stateMutability": "view",
      "type": "function"
    },
    {
      "inputs": [],
      "name": "courseDataManager",
      "outputs": [
        {
          "internalType": "address",
          "name": "",
          "type": "address"
        }
      ],
      "stateMutability": "view",
      "type": "function"
    },
    {
      "inputs": [],
      "name": "courseDataStorage",
      "outputs": [
        {
          "internalType": "address",
          "name": "",
          "type": "address"
        }
      ],
      "stateMutability": "view",
      "type": "function"
    },
    {
      "inputs": [],
      "name": "courseView",
      "outputs": [
        {
          "internalType": "address",
          "name": "",
          "type": "address"
        }
      ],
      "stateMutability": "view",
      "type": "function"
    },
    {
      "inputs": [],
      "name": "datamanagerAccessWhitelist",
      "outputs": [
        {
          "internalType": "address",
          "name": "",
          "type": "address"
        }
      ],
      "stateMutability": "view",
      "type": "function"
    },
    {
      "inputs": [
        {
          "internalType": "bytes",
          "name": "contractCode",
          "type": "bytes"
        }
      ],
      "name": "deployContract",
      "outputs": [
        {
          "internalType": "address",
          "name": "",
          "type": "address"
        }
      ],
      "stateMutability": "nonpayable",
      "type": "function"
    },
    {
      "inputs": [
        {
          "internalType": "bytes",
          "name": "courseControllerContract",
          "type": "bytes"
        },
        {
          "internalType": "bytes",
          "name": "performanceControllerContract",
          "type": "bytes"
        },
        {
          "internalType": "bytes",
          "name": "studyProgramControllerContract",
          "type": "bytes"
        },
        {
          "internalType": "bytes",
          "name": "userControllerContract",
          "type": "bytes"
        },
        {
          "internalType": "bytes",
          "name": "faucetContract",
          "type": "bytes"
        }
      ],
      "name": "deployControllers",
      "outputs": [],
      "stateMutability": "nonpayable",
      "type": "function"
    },
    {
      "inputs": [
        {
          "internalType": "bytes",
          "name": "accessWhitelistContract",
          "type": "bytes"
        },
        {
          "internalType": "bytes",
          "name": "courseDataManagerContract",
          "type": "bytes"
        },
        {
          "internalType": "bytes",
          "name": "assessmentDataManagerContract",
          "type": "bytes"
        },
        {
          "internalType": "bytes",
          "name": "performanceDataManagerContract",
          "type": "bytes"
        },
        {
          "internalType": "bytes",
          "name": "programDataManagerContract",
          "type": "bytes"
        },
        {
          "internalType": "bytes",
          "name": "registrationDataManagerContract",
          "type": "bytes"
        },
        {
          "internalType": "bytes",
          "name": "userDataManagerContract",
          "type": "bytes"
        }
      ],
      "name": "deployDatamanagers",
      "outputs": [],
      "stateMutability": "nonpayable",
      "type": "function"
    },
    {
      "inputs": [
        {
          "internalType": "bytes",
          "name": "addressBookContract",
          "type": "bytes"
        },
        {
          "internalType": "bytes",
          "name": "accessWhitelistContract",
          "type": "bytes"
        },
        {
          "internalType": "bytes",
          "name": "courseDataStorageContract",
          "type": "bytes"
        },
        {
          "internalType": "bytes",
          "name": "assessmentDataStorageContract",
          "type": "bytes"
        },
        {
          "internalType": "bytes",
          "name": "performanceStorageContract",
          "type": "bytes"
        }
      ],
      "name": "deployStorages1",
      "outputs": [],
      "stateMutability": "nonpayable",
      "type": "function"
    },
    {
      "inputs": [
        {
          "internalType": "bytes",
          "name": "gradeStorageContract",
          "type": "bytes"
        },
        {
          "internalType": "bytes",
          "name": "studyProgramStorageContract",
          "type": "bytes"
        },
        {
          "internalType": "bytes",
          "name": "registrationStorageContract",
          "type": "bytes"
        },
        {
          "internalType": "bytes",
          "name": "userStorageContract",
          "type": "bytes"
        }
      ],
      "name": "deployStorages2",
      "outputs": [],
      "stateMutability": "nonpayable",
      "type": "function"
    },
    {
      "inputs": [
        {
          "internalType": "bytes",
          "name": "courseViewContract",
          "type": "bytes"
        },
        {
          "internalType": "bytes",
          "name": "performanceViewContract",
          "type": "bytes"
        },
        {
          "internalType": "bytes",
          "name": "studyProgramViewContract",
          "type": "bytes"
        },
        {
          "internalType": "bytes",
          "name": "userViewContract",
          "type": "bytes"
        }
      ],
      "name": "deployViews",
      "outputs": [],
      "stateMutability": "nonpayable",
      "type": "function"
    },
    {
      "inputs": [],
      "name": "faucet",
      "outputs": [
        {
          "internalType": "address",
          "name": "",
          "type": "address"
        }
      ],
      "stateMutability": "view",
      "type": "function"
    },
    {
      "inputs": [],
      "name": "gradeStorage",
      "outputs": [
        {
          "internalType": "address",
          "name": "",
          "type": "address"
        }
      ],
      "stateMutability": "view",
      "type": "function"
    },
    {
      "inputs": [],
      "name": "performanceController",
      "outputs": [
        {
          "internalType": "address",
          "name": "",
          "type": "address"
        }
      ],
      "stateMutability": "view",
      "type": "function"
    },
    {
      "inputs": [],
      "name": "performanceDataManager",
      "outputs": [
        {
          "internalType": "address",
          "name": "",
          "type": "address"
        }
      ],
      "stateMutability": "view",
      "type": "function"
    },
    {
      "inputs": [],
      "name": "performanceStorage",
      "outputs": [
        {
          "internalType": "address",
          "name": "",
          "type": "address"
        }
      ],
      "stateMutability": "view",
      "type": "function"
    },
    {
      "inputs": [],
      "name": "performanceView",
      "outputs": [
        {
          "internalType": "address",
          "name": "",
          "type": "address"
        }
      ],
      "stateMutability": "view",
      "type": "function"
    },
    {
      "inputs": [],
      "name": "programDataManager",
      "outputs": [
        {
          "internalType": "address",
          "name": "",
          "type": "address"
        }
      ],
      "stateMutability": "view",
      "type": "function"
    },
    {
      "inputs": [],
      "name": "registrationDataManager",
      "outputs": [
        {
          "internalType": "address",
          "name": "",
          "type": "address"
        }
      ],
      "stateMutability": "view",
      "type": "function"
    },
    {
      "inputs": [],
      "name": "registrationStorage",
      "outputs": [
        {
          "internalType": "address",
          "name": "",
          "type": "address"
        }
      ],
      "stateMutability": "view",
      "type": "function"
    },
    {
      "inputs": [],
      "name": "storageAccessWhitelist",
      "outputs": [
        {
          "internalType": "address",
          "name": "",
          "type": "address"
        }
      ],
      "stateMutability": "view",
      "type": "function"
    },
    {
      "inputs": [],
      "name": "studyProgramController",
      "outputs": [
        {
          "internalType": "address",
          "name": "",
          "type": "address"
        }
      ],
      "stateMutability": "view",
      "type": "function"
    },
    {
      "inputs": [],
      "name": "studyProgramStorage",
      "outputs": [
        {
          "internalType": "address",
          "name": "",
          "type": "address"
        }
      ],
      "stateMutability": "view",
      "type": "function"
    },
    {
      "inputs": [],
      "name": "studyProgramView",
      "outputs": [
        {
          "internalType": "address",
          "name": "",
          "type": "address"
        }
      ],
      "stateMutability": "view",
      "type": "function"
    },
    {
      "inputs": [],
      "name": "userController",
      "outputs": [
        {
          "internalType": "address",
          "name": "",
          "type": "address"
        }
      ],
      "stateMutability": "view",
      "type": "function"
    },
    {
      "inputs": [],
      "name": "userDataManager",
      "outputs": [
        {
          "internalType": "address",
          "name": "",
          "type": "address"
        }
      ],
      "stateMutability": "view",
      "type": "function"
    },
    {
      "inputs": [],
      "name": "userStorage",
      "outputs": [
        {
          "internalType": "address",
          "name": "",
          "type": "address"
        }
      ],
      "stateMutability": "view",
      "type": "function"
    },
    {
      "inputs": [],
      "name": "userView",
      "outputs": [
        {
          "internalType": "address",
          "name": "",
          "type": "address"
        }
      ],
      "stateMutability": "view",
      "type": "function"
    }
  ],
  "bytecode": "0x608060405234801561001057600080fd5b5033601960006101000a81548173ffffffffffffffffffffffffffffffffffffffff021916908373ffffffffffffffffffffffffffffffffffffffff16021790555061326e806100616000396000f3fe608060405234801561001057600080fd5b50600436106101ef5760003560e01c8063987241411161010f578063d650df7d116100a2578063e6b2073011610071578063e6b2073014610544578063f3ee0ea614610560578063f5887cdd1461057e578063f965a57b1461059c576101ef565b8063d650df7d146104cc578063de5f72fd146104ea578063de75f96414610508578063de86032614610526576101ef565b8063b4c2fbbd116100de578063b4c2fbbd14610458578063b562d6ee14610474578063ba42c77d14610492578063ca085d1a146104b0576101ef565b806398724141146103e25780639a44fd70146103fe5780639f3d01b51461041c578063ab2aeec91461043a576101ef565b80634bdf888511610187578063798133dd11610156578063798133dd146103585780637a70f083146103885780637cb412f2146103a65780637e83389b146103c4576101ef565b80634bdf8885146102e257806369ae2aeb146102fe578063732430861461031c57806375e580791461033a576101ef565b8063308588e6116101c3578063308588e61461026a5780633c0623df146102885780634590a43d146102a6578063490fb76a146102c4576101ef565b8062b740d3146101f45780630cf50dd3146102125780630de3d56b1461022e5780632517880c1461024c575b600080fd5b6101fc6105ba565b6040516102099190612afe565b60405180910390f35b61022c60048036038101906102279190612c73565b6105e0565b005b610236610afa565b6040516102439190612afe565b60405180910390f35b610254610b20565b6040516102619190612afe565b60405180910390f35b610272610b46565b60405161027f9190612afe565b60405180910390f35b610290610b6c565b60405161029d9190612afe565b60405180910390f35b6102ae610b92565b6040516102bb9190612afe565b60405180910390f35b6102cc610bb8565b6040516102d99190612afe565b60405180910390f35b6102fc60048036038101906102f79190612dd9565b610bde565b005b610306610e89565b6040516103139190612afe565b60405180910390f35b610324610eaf565b6040516103319190612afe565b60405180910390f35b610342610ed5565b60405161034f9190612afe565b60405180910390f35b610372600480360381019061036d9190612ee0565b610efb565b60405161037f9190612afe565b60405180910390f35b610390610f1d565b60405161039d9190612afe565b60405180910390f35b6103ae610f43565b6040516103bb9190612afe565b60405180910390f35b6103cc610f69565b6040516103d99190612afe565b60405180910390f35b6103fc60048036038101906103f79190612f29565b610f8f565b005b610406611233565b6040516104139190612afe565b60405180910390f35b610424611259565b6040516104319190612afe565b60405180910390f35b61044261127f565b60405161044f9190612afe565b60405180910390f35b610472600480360381019061046d9190612dd9565b6112a5565b005b61047c6115b7565b6040516104899190612afe565b60405180910390f35b61049a6115dd565b6040516104a79190612afe565b60405180910390f35b6104ca60048036038101906104c59190612f29565b611603565b005b6104d46118af565b6040516104e19190612afe565b60405180910390f35b6104f26118d5565b6040516104ff9190612afe565b60405180910390f35b6105106118fb565b60405161051d9190612afe565b60405180910390f35b61052e611921565b60405161053b9190612afe565b60405180910390f35b61055e6004803603810190610559919061302c565b611947565b005b610568612a21565b6040516105759190612afe565b60405180910390f35b610586612a47565b6040516105939190612afe565b60405180910390f35b6105a4612a6b565b6040516105b19190612afe565b60405180910390f35b600960009054906101000a900473ffffffffffffffffffffffffffffffffffffffff1681565b601960009054906101000a900473ffffffffffffffffffffffffffffffffffffffff1673ffffffffffffffffffffffffffffffffffffffff163373ffffffffffffffffffffffffffffffffffffffff161461063a57600080fd5b61064387610efb565b600960006101000a81548173ffffffffffffffffffffffffffffffffffffffff021916908373ffffffffffffffffffffffffffffffffffffffff1602179055506106fa6106f587600260009054906101000a900473ffffffffffffffffffffffffffffffffffffffff16600960009054906101000a900473ffffffffffffffffffffffffffffffffffffffff166040516020016106e1929190613059565b604051602081830303815290604052612a91565b610efb565b600a60006101000a81548173ffffffffffffffffffffffffffffffffffffffff021916908373ffffffffffffffffffffffffffffffffffffffff1602179055506107b16107ac86600360009054906101000a900473ffffffffffffffffffffffffffffffffffffffff16600960009054906101000a900473ffffffffffffffffffffffffffffffffffffffff16604051602001610798929190613059565b604051602081830303815290604052612a91565b610efb565b600b60006101000a81548173ffffffffffffffffffffffffffffffffffffffff021916908373ffffffffffffffffffffffffffffffffffffffff16021790555061088c61088785600460009054906101000a900473ffffffffffffffffffffffffffffffffffffffff16600560009054906101000a900473ffffffffffffffffffffffffffffffffffffffff16600960009054906101000a900473ffffffffffffffffffffffffffffffffffffffff1660405160200161087393929190613082565b604051602081830303815290604052612a91565b610efb565b600c60006101000a81548173ffffffffffffffffffffffffffffffffffffffff021916908373ffffffffffffffffffffffffffffffffffffffff16021790555061094361093e84600660009054906101000a900473ffffffffffffffffffffffffffffffffffffffff16600960009054906101000a900473ffffffffffffffffffffffffffffffffffffffff1660405160200161092a929190613059565b604051602081830303815290604052612a91565b610efb565b600d60006101000a81548173ffffffffffffffffffffffffffffffffffffffff021916908373ffffffffffffffffffffffffffffffffffffffff1602179055506109fa6109f583600760009054906101000a900473ffffffffffffffffffffffffffffffffffffffff16600960009054906101000a900473ffffffffffffffffffffffffffffffffffffffff166040516020016109e1929190613059565b604051602081830303815290604052612a91565b610efb565b600e60006101000a81548173ffffffffffffffffffffffffffffffffffffffff021916908373ffffffffffffffffffffffffffffffffffffffff160217905550610ab1610aac82600860009054906101000a900473ffffffffffffffffffffffffffffffffffffffff16600960009054906101000a900473ffffffffffffffffffffffffffffffffffffffff16604051602001610a98929190613059565b604051602081830303815290604052612a91565b610efb565b600f60006101000a81548173ffffffffffffffffffffffffffffffffffffffff021916908373ffffffffffffffffffffffffffffffffffffffff16021790555050505050505050565b601160009054906101000a900473ffffffffffffffffffffffffffffffffffffffff1681565b601860009054906101000a900473ffffffffffffffffffffffffffffffffffffffff1681565b600f60009054906101000a900473ffffffffffffffffffffffffffffffffffffffff1681565b600a60009054906101000a900473ffffffffffffffffffffffffffffffffffffffff1681565b601660009054906101000a900473ffffffffffffffffffffffffffffffffffffffff1681565b601460009054906101000a900473ffffffffffffffffffffffffffffffffffffffff1681565b601960009054906101000a900473ffffffffffffffffffffffffffffffffffffffff1673ffffffffffffffffffffffffffffffffffffffff163373ffffffffffffffffffffffffffffffffffffffff1614610c3857600080fd5b610c4185610efb565b6000806101000a81548173ffffffffffffffffffffffffffffffffffffffff021916908373ffffffffffffffffffffffffffffffffffffffff160217905550610c8984610efb565b600160006101000a81548173ffffffffffffffffffffffffffffffffffffffff021916908373ffffffffffffffffffffffffffffffffffffffff160217905550610d1c610d1784600160009054906101000a900473ffffffffffffffffffffffffffffffffffffffff16604051602001610d039190612afe565b604051602081830303815290604052612a91565b610efb565b600260006101000a81548173ffffffffffffffffffffffffffffffffffffffff021916908373ffffffffffffffffffffffffffffffffffffffff160217905550610daf610daa83600160009054906101000a900473ffffffffffffffffffffffffffffffffffffffff16604051602001610d969190612afe565b604051602081830303815290604052612a91565b610efb565b600360006101000a81548173ffffffffffffffffffffffffffffffffffffffff021916908373ffffffffffffffffffffffffffffffffffffffff160217905550610e42610e3d82600160009054906101000a900473ffffffffffffffffffffffffffffffffffffffff16604051602001610e299190612afe565b604051602081830303815290604052612a91565b610efb565b600460006101000a81548173ffffffffffffffffffffffffffffffffffffffff021916908373ffffffffffffffffffffffffffffffffffffffff1602179055505050505050565b600160009054906101000a900473ffffffffffffffffffffffffffffffffffffffff1681565b600d60009054906101000a900473ffffffffffffffffffffffffffffffffffffffff1681565b600860009054906101000a900473ffffffffffffffffffffffffffffffffffffffff1681565b6000808251602084016000f09050803b610f1457600080fd5b80915050919050565b600b60009054906101000a900473ffffffffffffffffffffffffffffffffffffffff1681565b600e60009054906101000a900473ffffffffffffffffffffffffffffffffffffffff1681565b600560009054906101000a900473ffffffffffffffffffffffffffffffffffffffff1681565b601960009054906101000a900473ffffffffffffffffffffffffffffffffffffffff1673ffffffffffffffffffffffffffffffffffffffff163373ffffffffffffffffffffffffffffffffffffffff1614610fe957600080fd5b61103a6110358560008054906101000a900473ffffffffffffffffffffffffffffffffffffffff166040516020016110219190612afe565b604051602081830303815290604052612a91565b610efb565b601560006101000a81548173ffffffffffffffffffffffffffffffffffffffff021916908373ffffffffffffffffffffffffffffffffffffffff1602179055506110cb6110c68460008054906101000a900473ffffffffffffffffffffffffffffffffffffffff166040516020016110b29190612afe565b604051602081830303815290604052612a91565b610efb565b601660006101000a81548173ffffffffffffffffffffffffffffffffffffffff021916908373ffffffffffffffffffffffffffffffffffffffff16021790555061115c6111578360008054906101000a900473ffffffffffffffffffffffffffffffffffffffff166040516020016111439190612afe565b604051602081830303815290604052612a91565b610efb565b601760006101000a81548173ffffffffffffffffffffffffffffffffffffffff021916908373ffffffffffffffffffffffffffffffffffffffff1602179055506111ed6111e88260008054906101000a900473ffffffffffffffffffffffffffffffffffffffff166040516020016111d49190612afe565b604051602081830303815290604052612a91565b610efb565b601860006101000a81548173ffffffffffffffffffffffffffffffffffffffff021916908373ffffffffffffffffffffffffffffffffffffffff16021790555050505050565b601260009054906101000a900473ffffffffffffffffffffffffffffffffffffffff1681565b601360009054906101000a900473ffffffffffffffffffffffffffffffffffffffff1681565b600c60009054906101000a900473ffffffffffffffffffffffffffffffffffffffff1681565b601960009054906101000a900473ffffffffffffffffffffffffffffffffffffffff1673ffffffffffffffffffffffffffffffffffffffff163373ffffffffffffffffffffffffffffffffffffffff16146112ff57600080fd5b61130881610efb565b601060006101000a81548173ffffffffffffffffffffffffffffffffffffffff021916908373ffffffffffffffffffffffffffffffffffffffff1602179055506113996113948660008054906101000a900473ffffffffffffffffffffffffffffffffffffffff166040516020016113809190612afe565b604051602081830303815290604052612a91565b610efb565b601160006101000a81548173ffffffffffffffffffffffffffffffffffffffff021916908373ffffffffffffffffffffffffffffffffffffffff16021790555061142a6114258560008054906101000a900473ffffffffffffffffffffffffffffffffffffffff166040516020016114119190612afe565b604051602081830303815290604052612a91565b610efb565b601260006101000a81548173ffffffffffffffffffffffffffffffffffffffff021916908373ffffffffffffffffffffffffffffffffffffffff1602179055506114bb6114b68460008054906101000a900473ffffffffffffffffffffffffffffffffffffffff166040516020016114a29190612afe565b604051602081830303815290604052612a91565b610efb565b601360006101000a81548173ffffffffffffffffffffffffffffffffffffffff021916908373ffffffffffffffffffffffffffffffffffffffff16021790555061157061156b8360008054906101000a900473ffffffffffffffffffffffffffffffffffffffff16601060009054906101000a900473ffffffffffffffffffffffffffffffffffffffff166040516020016115579291906130da565b604051602081830303815290604052612a91565b610efb565b601460006101000a81548173ffffffffffffffffffffffffffffffffffffffff021916908373ffffffffffffffffffffffffffffffffffffffff1602179055505050505050565b601760009054906101000a900473ffffffffffffffffffffffffffffffffffffffff1681565b600260009054906101000a900473ffffffffffffffffffffffffffffffffffffffff1681565b601960009054906101000a900473ffffffffffffffffffffffffffffffffffffffff1673ffffffffffffffffffffffffffffffffffffffff163373ffffffffffffffffffffffffffffffffffffffff161461165d57600080fd5b6116b06116ab85600160009054906101000a900473ffffffffffffffffffffffffffffffffffffffff166040516020016116979190612afe565b604051602081830303815290604052612a91565b610efb565b600560006101000a81548173ffffffffffffffffffffffffffffffffffffffff021916908373ffffffffffffffffffffffffffffffffffffffff16021790555061174361173e84600160009054906101000a900473ffffffffffffffffffffffffffffffffffffffff1660405160200161172a9190612afe565b604051602081830303815290604052612a91565b610efb565b600660006101000a81548173ffffffffffffffffffffffffffffffffffffffff021916908373ffffffffffffffffffffffffffffffffffffffff1602179055506117d66117d183600160009054906101000a900473ffffffffffffffffffffffffffffffffffffffff166040516020016117bd9190612afe565b604051602081830303815290604052612a91565b610efb565b600760006101000a81548173ffffffffffffffffffffffffffffffffffffffff021916908373ffffffffffffffffffffffffffffffffffffffff16021790555061186961186482600160009054906101000a900473ffffffffffffffffffffffffffffffffffffffff166040516020016118509190612afe565b604051602081830303815290604052612a91565b610efb565b600860006101000a81548173ffffffffffffffffffffffffffffffffffffffff021916908373ffffffffffffffffffffffffffffffffffffffff16021790555050505050565b600360009054906101000a900473ffffffffffffffffffffffffffffffffffffffff1681565b601060009054906101000a900473ffffffffffffffffffffffffffffffffffffffff1681565b600460009054906101000a900473ffffffffffffffffffffffffffffffffffffffff1681565b600760009054906101000a900473ffffffffffffffffffffffffffffffffffffffff1681565b601960009054906101000a900473ffffffffffffffffffffffffffffffffffffffff1673ffffffffffffffffffffffffffffffffffffffff163373ffffffffffffffffffffffffffffffffffffffff16146119a157600080fd5b60008060009054906101000a900473ffffffffffffffffffffffffffffffffffffffff1690508073ffffffffffffffffffffffffffffffffffffffff1663d7ef01046000600a60009054906101000a900473ffffffffffffffffffffffffffffffffffffffff166040518363ffffffff1660e01b8152600401611a2592919061317a565b600060405180830381600087803b158015611a3f57600080fd5b505af1158015611a53573d6000803e3d6000fd5b505050508073ffffffffffffffffffffffffffffffffffffffff1663d7ef01046001600b60009054906101000a900473ffffffffffffffffffffffffffffffffffffffff166040518363ffffffff1660e01b8152600401611ab592919061317a565b600060405180830381600087803b158015611acf57600080fd5b505af1158015611ae3573d6000803e3d6000fd5b505050508073ffffffffffffffffffffffffffffffffffffffff1663d7ef01046003600c60009054906101000a900473ffffffffffffffffffffffffffffffffffffffff166040518363ffffffff1660e01b8152600401611b4592919061317a565b600060405180830381600087803b158015611b5f57600080fd5b505af1158015611b73573d6000803e3d6000fd5b505050508073ffffffffffffffffffffffffffffffffffffffff1663d7ef01046004600d60009054906101000a900473ffffffffffffffffffffffffffffffffffffffff166040518363ffffffff1660e01b8152600401611bd592919061317a565b600060405180830381600087803b158015611bef57600080fd5b505af1158015611c03573d6000803e3d6000fd5b505050508073ffffffffffffffffffffffffffffffffffffffff1663d7ef01046005600e60009054906101000a900473ffffffffffffffffffffffffffffffffffffffff166040518363ffffffff1660e01b8152600401611c6592919061317a565b600060405180830381600087803b158015611c7f57600080fd5b505af1158015611c93573d6000803e3d6000fd5b505050508073ffffffffffffffffffffffffffffffffffffffff1663d7ef01046002600f60009054906101000a900473ffffffffffffffffffffffffffffffffffffffff166040518363ffffffff1660e01b8152600401611cf592919061317a565b600060405180830381600087803b158015611d0f57600080fd5b505af1158015611d23573d6000803e3d6000fd5b505050506000600160009054906101000a900473ffffffffffffffffffffffffffffffffffffffff1690508073ffffffffffffffffffffffffffffffffffffffff16630ae5e739601960009054906101000a900473ffffffffffffffffffffffffffffffffffffffff166040518263ffffffff1660e01b8152600401611da99190612afe565b600060405180830381600087803b158015611dc357600080fd5b505af1158015611dd7573d6000803e3d6000fd5b505050508073ffffffffffffffffffffffffffffffffffffffff16630ae5e739600a60009054906101000a900473ffffffffffffffffffffffffffffffffffffffff166040518263ffffffff1660e01b8152600401611e369190612afe565b600060405180830381600087803b158015611e5057600080fd5b505af1158015611e64573d6000803e3d6000fd5b505050508073ffffffffffffffffffffffffffffffffffffffff16630ae5e739600b60009054906101000a900473ffffffffffffffffffffffffffffffffffffffff166040518263ffffffff1660e01b8152600401611ec39190612afe565b600060405180830381600087803b158015611edd57600080fd5b505af1158015611ef1573d6000803e3d6000fd5b505050508073ffffffffffffffffffffffffffffffffffffffff16630ae5e739600c60009054906101000a900473ffffffffffffffffffffffffffffffffffffffff166040518263ffffffff1660e01b8152600401611f509190612afe565b600060405180830381600087803b158015611f6a57600080fd5b505af1158015611f7e573d6000803e3d6000fd5b505050508073ffffffffffffffffffffffffffffffffffffffff16630ae5e739600d60009054906101000a900473ffffffffffffffffffffffffffffffffffffffff166040518263ffffffff1660e01b8152600401611fdd9190612afe565b600060405180830381600087803b158015611ff757600080fd5b505af115801561200b573d6000803e3d6000fd5b505050508073ffffffffffffffffffffffffffffffffffffffff16630ae5e739600e60009054906101000a900473ffffffffffffffffffffffffffffffffffffffff166040518263ffffffff1660e01b815260040161206a9190612afe565b600060405180830381600087803b15801561208457600080fd5b505af1158015612098573d6000803e3d6000fd5b505050508073ffffffffffffffffffffffffffffffffffffffff16630ae5e739600f60009054906101000a900473ffffffffffffffffffffffffffffffffffffffff166040518263ffffffff1660e01b81526004016120f79190612afe565b600060405180830381600087803b15801561211157600080fd5b505af1158015612125573d6000803e3d6000fd5b505050506000600960009054906101000a900473ffffffffffffffffffffffffffffffffffffffff1690508073ffffffffffffffffffffffffffffffffffffffff166370480275601960009054906101000a900473ffffffffffffffffffffffffffffffffffffffff166040518263ffffffff1660e01b81526004016121ab9190612afe565b600060405180830381600087803b1580156121c557600080fd5b505af11580156121d9573d6000803e3d6000fd5b505050508073ffffffffffffffffffffffffffffffffffffffff16630ae5e739601960009054906101000a900473ffffffffffffffffffffffffffffffffffffffff166040518263ffffffff1660e01b81526004016122389190612afe565b600060405180830381600087803b15801561225257600080fd5b505af1158015612266573d6000803e3d6000fd5b505050508073ffffffffffffffffffffffffffffffffffffffff16630ae5e739601160009054906101000a900473ffffffffffffffffffffffffffffffffffffffff166040518263ffffffff1660e01b81526004016122c59190612afe565b600060405180830381600087803b1580156122df57600080fd5b505af11580156122f3573d6000803e3d6000fd5b505050508073ffffffffffffffffffffffffffffffffffffffff16630ae5e739601260009054906101000a900473ffffffffffffffffffffffffffffffffffffffff166040518263ffffffff1660e01b81526004016123529190612afe565b600060405180830381600087803b15801561236c57600080fd5b505af1158015612380573d6000803e3d6000fd5b505050508073ffffffffffffffffffffffffffffffffffffffff16630ae5e739601360009054906101000a900473ffffffffffffffffffffffffffffffffffffffff166040518263ffffffff1660e01b81526004016123df9190612afe565b600060405180830381600087803b1580156123f957600080fd5b505af115801561240d573d6000803e3d6000fd5b505050508073ffffffffffffffffffffffffffffffffffffffff16630ae5e739601460009054906101000a900473ffffffffffffffffffffffffffffffffffffffff166040518263ffffffff1660e01b815260040161246c9190612afe565b600060405180830381600087803b15801561248657600080fd5b505af115801561249a573d6000803e3d6000fd5b505050508073ffffffffffffffffffffffffffffffffffffffff16630ae5e739601560009054906101000a900473ffffffffffffffffffffffffffffffffffffffff166040518263ffffffff1660e01b81526004016124f99190612afe565b600060405180830381600087803b15801561251357600080fd5b505af1158015612527573d6000803e3d6000fd5b505050508073ffffffffffffffffffffffffffffffffffffffff16630ae5e739601660009054906101000a900473ffffffffffffffffffffffffffffffffffffffff166040518263ffffffff1660e01b81526004016125869190612afe565b600060405180830381600087803b1580156125a057600080fd5b505af11580156125b4573d6000803e3d6000fd5b505050508073ffffffffffffffffffffffffffffffffffffffff16630ae5e739601760009054906101000a900473ffffffffffffffffffffffffffffffffffffffff166040518263ffffffff1660e01b81526004016126139190612afe565b600060405180830381600087803b15801561262d57600080fd5b505af1158015612641573d6000803e3d6000fd5b505050508073ffffffffffffffffffffffffffffffffffffffff16630ae5e739601860009054906101000a900473ffffffffffffffffffffffffffffffffffffffff166040518263ffffffff1660e01b81526004016126a09190612afe565b600060405180830381600087803b1580156126ba57600080fd5b505af11580156126ce573d6000803e3d6000fd5b50505050601060009054906101000a900473ffffffffffffffffffffffffffffffffffffffff1673ffffffffffffffffffffffffffffffffffffffff166370480275601960009054906101000a900473ffffffffffffffffffffffffffffffffffffffff166040518263ffffffff1660e01b815260040161274f9190612afe565b600060405180830381600087803b15801561276957600080fd5b505af115801561277d573d6000803e3d6000fd5b50505050601060009054906101000a900473ffffffffffffffffffffffffffffffffffffffff1673ffffffffffffffffffffffffffffffffffffffff166370480275601460009054906101000a900473ffffffffffffffffffffffffffffffffffffffff166040518263ffffffff1660e01b81526004016127fe9190612afe565b600060405180830381600087803b15801561281857600080fd5b505af115801561282c573d6000803e3d6000fd5b50505050601360009054906101000a900473ffffffffffffffffffffffffffffffffffffffff1673ffffffffffffffffffffffffffffffffffffffff166370480275601960009054906101000a900473ffffffffffffffffffffffffffffffffffffffff166040518263ffffffff1660e01b81526004016128ad9190612afe565b600060405180830381600087803b1580156128c757600080fd5b505af11580156128db573d6000803e3d6000fd5b50505050601460009054906101000a900473ffffffffffffffffffffffffffffffffffffffff1673ffffffffffffffffffffffffffffffffffffffff166370480275601960009054906101000a900473ffffffffffffffffffffffffffffffffffffffff166040518263ffffffff1660e01b815260040161295c9190612afe565b600060405180830381600087803b15801561297657600080fd5b505af115801561298a573d6000803e3d6000fd5b50505050601460009054906101000a900473ffffffffffffffffffffffffffffffffffffffff1673ffffffffffffffffffffffffffffffffffffffff166370480275856040518263ffffffff1660e01b81526004016129e99190612afe565b600060405180830381600087803b158015612a0357600080fd5b505af1158015612a17573d6000803e3d6000fd5b5050505050505050565b601560009054906101000a900473ffffffffffffffffffffffffffffffffffffffff1681565b60008054906101000a900473ffffffffffffffffffffffffffffffffffffffff1681565b600660009054906101000a900473ffffffffffffffffffffffffffffffffffffffff1681565b60608282604051602001612aa6929190613214565b604051602081830303815290604052905092915050565b600073ffffffffffffffffffffffffffffffffffffffff82169050919050565b6000612ae882612abd565b9050919050565b612af881612add565b82525050565b6000602082019050612b136000830184612aef565b92915050565b6000604051905090565b600080fd5b600080fd5b600080fd5b600080fd5b6000601f19601f8301169050919050565b7f4e487b7100000000000000000000000000000000000000000000000000000000600052604160045260246000fd5b612b8082612b37565b810181811067ffffffffffffffff82111715612b9f57612b9e612b48565b5b80604052505050565b6000612bb2612b19565b9050612bbe8282612b77565b919050565b600067ffffffffffffffff821115612bde57612bdd612b48565b5b612be782612b37565b9050602081019050919050565b82818337600083830152505050565b6000612c16612c1184612bc3565b612ba8565b905082815260208101848484011115612c3257612c31612b32565b5b612c3d848285612bf4565b509392505050565b600082601f830112612c5a57612c59612b2d565b5b8135612c6a848260208601612c03565b91505092915050565b600080600080600080600060e0888a031215612c9257612c91612b23565b5b600088013567ffffffffffffffff811115612cb057612caf612b28565b5b612cbc8a828b01612c45565b975050602088013567ffffffffffffffff811115612cdd57612cdc612b28565b5b612ce98a828b01612c45565b965050604088013567ffffffffffffffff811115612d0a57612d09612b28565b5b612d168a828b01612c45565b955050606088013567ffffffffffffffff811115612d3757612d36612b28565b5b612d438a828b01612c45565b945050608088013567ffffffffffffffff811115612d6457612d63612b28565b5b612d708a828b01612c45565b93505060a088013567ffffffffffffffff811115612d9157612d90612b28565b5b612d9d8a828b01612c45565b92505060c088013567ffffffffffffffff811115612dbe57612dbd612b28565b5b612dca8a828b01612c45565b91505092959891949750929550565b600080600080600060a08688031215612df557612df4612b23565b5b600086013567ffffffffffffffff811115612e1357612e12612b28565b5b612e1f88828901612c45565b955050602086013567ffffffffffffffff811115612e4057612e3f612b28565b5b612e4c88828901612c45565b945050604086013567ffffffffffffffff811115612e6d57612e6c612b28565b5b612e7988828901612c45565b935050606086013567ffffffffffffffff811115612e9a57612e99612b28565b5b612ea688828901612c45565b925050608086013567ffffffffffffffff811115612ec757612ec6612b28565b5b612ed388828901612c45565b9150509295509295909350565b600060208284031215612ef657612ef5612b23565b5b600082013567ffffffffffffffff811115612f1457612f13612b28565b5b612f2084828501612c45565b91505092915050565b60008060008060808587031215612f4357612f42612b23565b5b600085013567ffffffffffffffff811115612f6157612f60612b28565b5b612f6d87828801612c45565b945050602085013567ffffffffffffffff811115612f8e57612f8d612b28565b5b612f9a87828801612c45565b935050604085013567ffffffffffffffff811115612fbb57612fba612b28565b5b612fc787828801612c45565b925050606085013567ffffffffffffffff811115612fe857612fe7612b28565b5b612ff487828801612c45565b91505092959194509250565b61300981612add565b811461301457600080fd5b50565b60008135905061302681613000565b92915050565b60006020828403121561304257613041612b23565b5b600061305084828501613017565b91505092915050565b600060408201905061306e6000830185612aef565b61307b6020830184612aef565b9392505050565b60006060820190506130976000830186612aef565b6130a46020830185612aef565b6130b16040830184612aef565b949350505050565b60006130c482612abd565b9050919050565b6130d4816130b9565b82525050565b60006040820190506130ef6000830185612aef565b6130fc60208301846130cb565b9392505050565b7f4e487b7100000000000000000000000000000000000000000000000000000000600052602160045260246000fd5b6006811061314357613142613103565b5b50565b600081905061315482613132565b919050565b600061316482613146565b9050919050565b61317481613159565b82525050565b600060408201905061318f600083018561316b565b61319c6020830184612aef565b9392505050565b600081519050919050565b600081905092915050565b60005b838110156131d75780820151818401526020810190506131bc565b60008484015250505050565b60006131ee826131a3565b6131f881856131ae565b93506132088185602086016131b9565b80840191505092915050565b600061322082856131e3565b915061322c82846131e3565b9150819050939250505056fea264697066735822122029b1d77203df2a7770fe67e85fdbe1c471443d2063802027369cf5fe98deba9a64736f6c63430008110033",
  "linkReferences": {},
  "deployedLinkReferences": {}
}