{
  "_format": "hh-sol-artifact-1",
  "contractName": "ProgramDataManager",
  "sourceName": "contracts/data/datamanager/ProgramDataManager.sol",
  "abi": [
    {
      "inputs": [
        {
          "internalType": "address",
          "name": "programStorageAddress",
          "type": "address"
        },
        {
          "internalType": "address",
          "name": "accessWhitelistAddress",
          "type": "address"
        }
      ],
      "stateMutability": "nonpayable",
      "type": "constructor"
    },
    {
      "inputs": [
        {
          "internalType": "string",
          "name": "programName",
          "type": "string"
        }
      ],
      "name": "createStudyProgram",
      "outputs": [],
      "stateMutability": "nonpayable",
      "type": "function"
    },
    {
      "inputs": [],
      "name": "getAllStudyPrograms",
      "outputs": [
        {
          "components": [
            {
              "internalType": "uint256",
              "name": "programId",
              "type": "uint256"
            },
            {
              "internalType": "string",
              "name": "programName",
              "type": "string"
            }
          ],
          "internalType": "struct StudyProgramDataTypes.StudyProgram[]",
          "name": "",
          "type": "tuple[]"
        }
      ],
      "stateMutability": "view",
      "type": "function"
    },
    {
      "inputs": [
        {
          "internalType": "uint256",
          "name": "programId",
          "type": "uint256"
        }
      ],
      "name": "getStudyProgram",
      "outputs": [
        {
          "components": [
            {
              "internalType": "uint256",
              "name": "programId",
              "type": "uint256"
            },
            {
              "internalType": "string",
              "name": "programName",
              "type": "string"
            }
          ],
          "internalType": "struct StudyProgramDataTypes.StudyProgram",
          "name": "",
          "type": "tuple"
        }
      ],
      "stateMutability": "view",
      "type": "function"
    },
    {
      "inputs": [
        {
          "internalType": "uint256[]",
          "name": "programIds",
          "type": "uint256[]"
        }
      ],
      "name": "getStudyPrograms",
      "outputs": [
        {
          "components": [
            {
              "internalType": "uint256",
              "name": "programId",
              "type": "uint256"
            },
            {
              "internalType": "string",
              "name": "programName",
              "type": "string"
            }
          ],
          "internalType": "struct StudyProgramDataTypes.StudyProgram[]",
          "name": "",
          "type": "tuple[]"
        }
      ],
      "stateMutability": "view",
      "type": "function"
    }
  ],
  "bytecode": "0x608060405262000019620000e560201b620008701760201c565b60026000820151816000015550503480156200003457600080fd5b50604051620015723803806200157283398181016040528101906200005a919062000181565b80806000806101000a81548173ffffffffffffffffffffffffffffffffffffffff021916908373ffffffffffffffffffffffffffffffffffffffff1602179055505081600160006101000a81548173ffffffffffffffffffffffffffffffffffffffff021916908373ffffffffffffffffffffffffffffffffffffffff1602179055505050620001c8565b620000ef62000104565b60405180602001604052806001815250905090565b6040518060200160405280600081525090565b600080fd5b600073ffffffffffffffffffffffffffffffffffffffff82169050919050565b600062000149826200011c565b9050919050565b6200015b816200013c565b81146200016757600080fd5b50565b6000815190506200017b8162000150565b92915050565b600080604083850312156200019b576200019a62000117565b5b6000620001ab858286016200016a565b9250506020620001be858286016200016a565b9150509250929050565b61139a80620001d86000396000f3fe608060405234801561001057600080fd5b506004361061004c5760003560e01c80634e634eb514610051578063ad57f14c14610081578063c49c8f451461009f578063d8342f2c146100cf575b600080fd5b61006b60048036038101906100669190610991565b6100eb565b6040516100789190610a9a565b60405180910390f35b610089610274565b6040516100969190610bbb565b60405180910390f35b6100b960048036038101906100b49190610c42565b6103ea565b6040516100c69190610bbb565b60405180910390f35b6100e960048036038101906100e49190610ce5565b610622565b005b6100f361091a565b60008054906101000a900473ffffffffffffffffffffffffffffffffffffffff1673ffffffffffffffffffffffffffffffffffffffff166313f44d10336040518263ffffffff1660e01b815260040161014c9190610d73565b602060405180830381865afa158015610169573d6000803e3d6000fd5b505050506040513d601f19601f8201168201806040525081019061018d9190610dc6565b6101cc576040517f08c379a00000000000000000000000000000000000000000000000000000000081526004016101c390610e50565b60405180910390fd5b600160009054906101000a900473ffffffffffffffffffffffffffffffffffffffff1673ffffffffffffffffffffffffffffffffffffffff16634e634eb5836040518263ffffffff1660e01b81526004016102279190610e7f565b600060405180830381865afa158015610244573d6000803e3d6000fd5b505050506040513d6000823e3d601f19601f8201168201806040525081019061026d9190611046565b9050919050565b606060008054906101000a900473ffffffffffffffffffffffffffffffffffffffff1673ffffffffffffffffffffffffffffffffffffffff166313f44d10336040518263ffffffff1660e01b81526004016102cf9190610d73565b602060405180830381865afa1580156102ec573d6000803e3d6000fd5b505050506040513d601f19601f820116820180604052508101906103109190610dc6565b61034f576040517f08c379a000000000000000000000000000000000000000000000000000000000815260040161034690610e50565b60405180910390fd5b600160009054906101000a900473ffffffffffffffffffffffffffffffffffffffff1673ffffffffffffffffffffffffffffffffffffffff1663ad57f14c6040518163ffffffff1660e01b8152600401600060405180830381865afa1580156103bc573d6000803e3d6000fd5b505050506040513d6000823e3d601f19601f820116820180604052508101906103e59190611170565b905090565b606060008054906101000a900473ffffffffffffffffffffffffffffffffffffffff1673ffffffffffffffffffffffffffffffffffffffff166313f44d10336040518263ffffffff1660e01b81526004016104459190610d73565b602060405180830381865afa158015610462573d6000803e3d6000fd5b505050506040513d601f19601f820116820180604052508101906104869190610dc6565b6104c5576040517f08c379a00000000000000000000000000000000000000000000000000000000081526004016104bc90610e50565b60405180910390fd5b60008383905067ffffffffffffffff8111156104e4576104e3610e9f565b5b60405190808252806020026020018201604052801561051d57816020015b61050a61091a565b8152602001906001900390816105025790505b50905060005b8484905081101561061757600160009054906101000a900473ffffffffffffffffffffffffffffffffffffffff1673ffffffffffffffffffffffffffffffffffffffff16634e634eb586868481811061057f5761057e6111b9565b5b905060200201356040518263ffffffff1660e01b81526004016105a29190610e7f565b600060405180830381865afa1580156105bf573d6000803e3d6000fd5b505050506040513d6000823e3d601f19601f820116820180604052508101906105e89190611046565b8282815181106105fb576105fa6111b9565b5b60200260200101819052508061061090611217565b9050610523565b508091505092915050565b60008054906101000a900473ffffffffffffffffffffffffffffffffffffffff1673ffffffffffffffffffffffffffffffffffffffff166313f44d10336040518263ffffffff1660e01b815260040161067b9190610d73565b602060405180830381865afa158015610698573d6000803e3d6000fd5b505050506040513d601f19601f820116820180604052508101906106bc9190610dc6565b6106fb576040517f08c379a00000000000000000000000000000000000000000000000000000000081526004016106f290610e50565b60405180910390fd5b61077e82828080601f016020809104026020016040519081016040528093929190818152602001838380828437600081840152601f19601f820116905080830192505050505050506040518060400160405280600c81526020017f50726f6772616d206e616d65000000000000000000000000000000000000000081525061088d565b600160009054906101000a900473ffffffffffffffffffffffffffffffffffffffff1673ffffffffffffffffffffffffffffffffffffffff166327d0107660405180604001604052806107d160026108f8565b815260200185858080601f016020809104026020016040519081016040528093929190818152602001838380828437600081840152601f19601f820116905080830192505050505050508152506040518263ffffffff1660e01b815260040161083a9190610a9a565b600060405180830381600087803b15801561085457600080fd5b505af1158015610868573d6000803e3d6000fd5b505050505050565b610878610934565b60405180602001604052806001815250905090565b6000825111816040516020016108a391906112e7565b604051602081830303815290604052906108f3576040517f08c379a00000000000000000000000000000000000000000000000000000000081526004016108ea9190611342565b60405180910390fd5b505050565b600081600001600081548092919061090f90611217565b919050559050919050565b604051806040016040528060008152602001606081525090565b6040518060200160405280600081525090565b6000604051905090565b600080fd5b600080fd5b6000819050919050565b61096e8161095b565b811461097957600080fd5b50565b60008135905061098b81610965565b92915050565b6000602082840312156109a7576109a6610951565b5b60006109b58482850161097c565b91505092915050565b6109c78161095b565b82525050565b600081519050919050565b600082825260208201905092915050565b60005b83811015610a075780820151818401526020810190506109ec565b60008484015250505050565b6000601f19601f8301169050919050565b6000610a2f826109cd565b610a3981856109d8565b9350610a498185602086016109e9565b610a5281610a13565b840191505092915050565b6000604083016000830151610a7560008601826109be565b5060208301518482036020860152610a8d8282610a24565b9150508091505092915050565b60006020820190508181036000830152610ab48184610a5d565b905092915050565b600081519050919050565b600082825260208201905092915050565b6000819050602082019050919050565b6000604083016000830151610b0060008601826109be565b5060208301518482036020860152610b188282610a24565b9150508091505092915050565b6000610b318383610ae8565b905092915050565b6000602082019050919050565b6000610b5182610abc565b610b5b8185610ac7565b935083602082028501610b6d85610ad8565b8060005b85811015610ba95784840389528151610b8a8582610b25565b9450610b9583610b39565b925060208a01995050600181019050610b71565b50829750879550505050505092915050565b60006020820190508181036000830152610bd58184610b46565b905092915050565b600080fd5b600080fd5b600080fd5b60008083601f840112610c0257610c01610bdd565b5b8235905067ffffffffffffffff811115610c1f57610c1e610be2565b5b602083019150836020820283011115610c3b57610c3a610be7565b5b9250929050565b60008060208385031215610c5957610c58610951565b5b600083013567ffffffffffffffff811115610c7757610c76610956565b5b610c8385828601610bec565b92509250509250929050565b60008083601f840112610ca557610ca4610bdd565b5b8235905067ffffffffffffffff811115610cc257610cc1610be2565b5b602083019150836001820283011115610cde57610cdd610be7565b5b9250929050565b60008060208385031215610cfc57610cfb610951565b5b600083013567ffffffffffffffff811115610d1a57610d19610956565b5b610d2685828601610c8f565b92509250509250929050565b600073ffffffffffffffffffffffffffffffffffffffff82169050919050565b6000610d5d82610d32565b9050919050565b610d6d81610d52565b82525050565b6000602082019050610d886000830184610d64565b92915050565b60008115159050919050565b610da381610d8e565b8114610dae57600080fd5b50565b600081519050610dc081610d9a565b92915050565b600060208284031215610ddc57610ddb610951565b5b6000610dea84828501610db1565b91505092915050565b600082825260208201905092915050565b7f5468652073656e646572206973206e6f742077686974656c6973746564000000600082015250565b6000610e3a601d83610df3565b9150610e4582610e04565b602082019050919050565b60006020820190508181036000830152610e6981610e2d565b9050919050565b610e798161095b565b82525050565b6000602082019050610e946000830184610e70565b92915050565b600080fd5b7f4e487b7100000000000000000000000000000000000000000000000000000000600052604160045260246000fd5b610ed782610a13565b810181811067ffffffffffffffff82111715610ef657610ef5610e9f565b5b80604052505050565b6000610f09610947565b9050610f158282610ece565b919050565b600080fd5b600081519050610f2e81610965565b92915050565b600080fd5b600067ffffffffffffffff821115610f5457610f53610e9f565b5b610f5d82610a13565b9050602081019050919050565b6000610f7d610f7884610f39565b610eff565b905082815260208101848484011115610f9957610f98610f34565b5b610fa48482856109e9565b509392505050565b600082601f830112610fc157610fc0610bdd565b5b8151610fd1848260208601610f6a565b91505092915050565b600060408284031215610ff057610fef610e9a565b5b610ffa6040610eff565b9050600061100a84828501610f1f565b600083015250602082015167ffffffffffffffff81111561102e5761102d610f1a565b5b61103a84828501610fac565b60208301525092915050565b60006020828403121561105c5761105b610951565b5b600082015167ffffffffffffffff81111561107a57611079610956565b5b61108684828501610fda565b91505092915050565b600067ffffffffffffffff8211156110aa576110a9610e9f565b5b602082029050602081019050919050565b60006110ce6110c98461108f565b610eff565b905080838252602082019050602084028301858111156110f1576110f0610be7565b5b835b8181101561113857805167ffffffffffffffff81111561111657611115610bdd565b5b8086016111238982610fda565b855260208501945050506020810190506110f3565b5050509392505050565b600082601f83011261115757611156610bdd565b5b81516111678482602086016110bb565b91505092915050565b60006020828403121561118657611185610951565b5b600082015167ffffffffffffffff8111156111a4576111a3610956565b5b6111b084828501611142565b91505092915050565b7f4e487b7100000000000000000000000000000000000000000000000000000000600052603260045260246000fd5b7f4e487b7100000000000000000000000000000000000000000000000000000000600052601160045260246000fd5b60006112228261095b565b91507fffffffffffffffffffffffffffffffffffffffffffffffffffffffffffffffff8203611254576112536111e8565b5b600182019050919050565b600081905092915050565b6000611275826109cd565b61127f818561125f565b935061128f8185602086016109e9565b80840191505092915050565b7f2063616e6e6f7420626520656d70747900000000000000000000000000000000600082015250565b60006112d160108361125f565b91506112dc8261129b565b601082019050919050565b60006112f3828461126a565b91506112fe826112c4565b915081905092915050565b6000611314826109cd565b61131e8185610df3565b935061132e8185602086016109e9565b61133781610a13565b840191505092915050565b6000602082019050818103600083015261135c8184611309565b90509291505056fea264697066735822122016b44107fd82540d75e23f914d97a74ce121a3c94a93fafa809ae96bfba9c37364736f6c63430008110033",
  "linkReferences": {},
  "deployedLinkReferences": {}
}