{
  "_format": "hh-sol-artifact-1",
  "contractName": "ProgramDataManager",
  "sourceName": "contracts/data/datamanager/ProgramDataManager.sol",
  "abi": [
    {
      "inputs": [
        {
          "internalType": "address",
          "name": "programStorageAddress",
          "type": "address"
        },
        {
          "internalType": "address",
          "name": "accessWhitelistAddress",
          "type": "address"
        }
      ],
      "stateMutability": "nonpayable",
      "type": "constructor"
    },
    {
      "inputs": [
        {
          "internalType": "string",
          "name": "programName",
          "type": "string"
        }
      ],
      "name": "createStudyProgram",
      "outputs": [
        {
          "internalType": "uint256",
          "name": "",
          "type": "uint256"
        }
      ],
      "stateMutability": "nonpayable",
      "type": "function"
    },
    {
      "inputs": [],
      "name": "getAllStudyPrograms",
      "outputs": [
        {
          "components": [
            {
              "internalType": "uint256",
              "name": "programId",
              "type": "uint256"
            },
            {
              "internalType": "string",
              "name": "programName",
              "type": "string"
            }
          ],
          "internalType": "struct StudyProgramDataTypes.StudyProgram[]",
          "name": "",
          "type": "tuple[]"
        }
      ],
      "stateMutability": "view",
      "type": "function"
    },
    {
      "inputs": [
        {
          "internalType": "uint256",
          "name": "programId",
          "type": "uint256"
        }
      ],
      "name": "getStudyProgram",
      "outputs": [
        {
          "components": [
            {
              "internalType": "uint256",
              "name": "programId",
              "type": "uint256"
            },
            {
              "internalType": "string",
              "name": "programName",
              "type": "string"
            }
          ],
          "internalType": "struct StudyProgramDataTypes.StudyProgram",
          "name": "",
          "type": "tuple"
        }
      ],
      "stateMutability": "view",
      "type": "function"
    },
    {
      "inputs": [
        {
          "internalType": "uint256[]",
          "name": "programIds",
          "type": "uint256[]"
        }
      ],
      "name": "getStudyPrograms",
      "outputs": [
        {
          "components": [
            {
              "internalType": "uint256",
              "name": "programId",
              "type": "uint256"
            },
            {
              "internalType": "string",
              "name": "programName",
              "type": "string"
            }
          ],
          "internalType": "struct StudyProgramDataTypes.StudyProgram[]",
          "name": "",
          "type": "tuple[]"
        }
      ],
      "stateMutability": "view",
      "type": "function"
    }
  ],
  "bytecode": "0x608060405262000019620000e560201b620008c91760201c565b60026000820151816000015550503480156200003457600080fd5b50604051620015cb380380620015cb83398181016040528101906200005a919062000181565b80806000806101000a81548173ffffffffffffffffffffffffffffffffffffffff021916908373ffffffffffffffffffffffffffffffffffffffff1602179055505081600160006101000a81548173ffffffffffffffffffffffffffffffffffffffff021916908373ffffffffffffffffffffffffffffffffffffffff1602179055505050620001c8565b620000ef62000104565b60405180602001604052806001815250905090565b6040518060200160405280600081525090565b600080fd5b600073ffffffffffffffffffffffffffffffffffffffff82169050919050565b600062000149826200011c565b9050919050565b6200015b816200013c565b81146200016757600080fd5b50565b6000815190506200017b8162000150565b92915050565b600080604083850312156200019b576200019a62000117565b5b6000620001ab858286016200016a565b9250506020620001be858286016200016a565b9150509250929050565b6113f380620001d86000396000f3fe608060405234801561001057600080fd5b506004361061004c5760003560e01c80634e634eb514610051578063ad57f14c14610081578063c49c8f451461009f578063d8342f2c146100cf575b600080fd5b61006b600480360381019061006691906109ea565b6100ff565b6040516100789190610af3565b60405180910390f35b610089610288565b6040516100969190610c14565b60405180910390f35b6100b960048036038101906100b49190610c9b565b6103fe565b6040516100c69190610c14565b60405180910390f35b6100e960048036038101906100e49190610d3e565b610636565b6040516100f69190610d9a565b60405180910390f35b610107610973565b60008054906101000a900473ffffffffffffffffffffffffffffffffffffffff1673ffffffffffffffffffffffffffffffffffffffff166313f44d10336040518263ffffffff1660e01b81526004016101609190610df6565b602060405180830381865afa15801561017d573d6000803e3d6000fd5b505050506040513d601f19601f820116820180604052508101906101a19190610e49565b6101e0576040517f08c379a00000000000000000000000000000000000000000000000000000000081526004016101d790610ed3565b60405180910390fd5b600160009054906101000a900473ffffffffffffffffffffffffffffffffffffffff1673ffffffffffffffffffffffffffffffffffffffff16634e634eb5836040518263ffffffff1660e01b815260040161023b9190610d9a565b600060405180830381865afa158015610258573d6000803e3d6000fd5b505050506040513d6000823e3d601f19601f82011682018060405250810190610281919061109f565b9050919050565b606060008054906101000a900473ffffffffffffffffffffffffffffffffffffffff1673ffffffffffffffffffffffffffffffffffffffff166313f44d10336040518263ffffffff1660e01b81526004016102e39190610df6565b602060405180830381865afa158015610300573d6000803e3d6000fd5b505050506040513d601f19601f820116820180604052508101906103249190610e49565b610363576040517f08c379a000000000000000000000000000000000000000000000000000000000815260040161035a90610ed3565b60405180910390fd5b600160009054906101000a900473ffffffffffffffffffffffffffffffffffffffff1673ffffffffffffffffffffffffffffffffffffffff1663ad57f14c6040518163ffffffff1660e01b8152600401600060405180830381865afa1580156103d0573d6000803e3d6000fd5b505050506040513d6000823e3d601f19601f820116820180604052508101906103f991906111c9565b905090565b606060008054906101000a900473ffffffffffffffffffffffffffffffffffffffff1673ffffffffffffffffffffffffffffffffffffffff166313f44d10336040518263ffffffff1660e01b81526004016104599190610df6565b602060405180830381865afa158015610476573d6000803e3d6000fd5b505050506040513d601f19601f8201168201806040525081019061049a9190610e49565b6104d9576040517f08c379a00000000000000000000000000000000000000000000000000000000081526004016104d090610ed3565b60405180910390fd5b60008383905067ffffffffffffffff8111156104f8576104f7610ef8565b5b60405190808252806020026020018201604052801561053157816020015b61051e610973565b8152602001906001900390816105165790505b50905060005b8484905081101561062b57600160009054906101000a900473ffffffffffffffffffffffffffffffffffffffff1673ffffffffffffffffffffffffffffffffffffffff16634e634eb586868481811061059357610592611212565b5b905060200201356040518263ffffffff1660e01b81526004016105b69190610d9a565b600060405180830381865afa1580156105d3573d6000803e3d6000fd5b505050506040513d6000823e3d601f19601f820116820180604052508101906105fc919061109f565b82828151811061060f5761060e611212565b5b60200260200101819052508061062490611270565b9050610537565b508091505092915050565b60008060009054906101000a900473ffffffffffffffffffffffffffffffffffffffff1673ffffffffffffffffffffffffffffffffffffffff166313f44d10336040518263ffffffff1660e01b81526004016106929190610df6565b602060405180830381865afa1580156106af573d6000803e3d6000fd5b505050506040513d601f19601f820116820180604052508101906106d39190610e49565b610712576040517f08c379a000000000000000000000000000000000000000000000000000000000815260040161070990610ed3565b60405180910390fd5b61079583838080601f016020809104026020016040519081016040528093929190818152602001838380828437600081840152601f19601f820116905080830192505050505050506040518060400160405280600c81526020017f50726f6772616d206e616d6500000000000000000000000000000000000000008152506108e6565b60006107a16002610951565b9050600160009054906101000a900473ffffffffffffffffffffffffffffffffffffffff1673ffffffffffffffffffffffffffffffffffffffff166327d01076604051806040016040528084815260200187878080601f016020809104026020016040519081016040528093929190818152602001838380828437600081840152601f19601f820116905080830192505050505050508152506040518263ffffffff1660e01b81526004016108569190610af3565b600060405180830381600087803b15801561087057600080fd5b505af1158015610884573d6000803e3d6000fd5b505050507f416c1ec7e5ea8465a83d854ca2709012c86dd5d1d3395fbefb6a48a10c42c2da816040516108b79190610d9a565b60405180910390a18091505092915050565b6108d161098d565b60405180602001604052806001815250905090565b6000825111816040516020016108fc9190611340565b6040516020818303038152906040529061094c576040517f08c379a0000000000000000000000000000000000000000000000000000000008152600401610943919061139b565b60405180910390fd5b505050565b600081600001600081548092919061096890611270565b919050559050919050565b604051806040016040528060008152602001606081525090565b6040518060200160405280600081525090565b6000604051905090565b600080fd5b600080fd5b6000819050919050565b6109c7816109b4565b81146109d257600080fd5b50565b6000813590506109e4816109be565b92915050565b600060208284031215610a00576109ff6109aa565b5b6000610a0e848285016109d5565b91505092915050565b610a20816109b4565b82525050565b600081519050919050565b600082825260208201905092915050565b60005b83811015610a60578082015181840152602081019050610a45565b60008484015250505050565b6000601f19601f8301169050919050565b6000610a8882610a26565b610a928185610a31565b9350610aa2818560208601610a42565b610aab81610a6c565b840191505092915050565b6000604083016000830151610ace6000860182610a17565b5060208301518482036020860152610ae68282610a7d565b9150508091505092915050565b60006020820190508181036000830152610b0d8184610ab6565b905092915050565b600081519050919050565b600082825260208201905092915050565b6000819050602082019050919050565b6000604083016000830151610b596000860182610a17565b5060208301518482036020860152610b718282610a7d565b9150508091505092915050565b6000610b8a8383610b41565b905092915050565b6000602082019050919050565b6000610baa82610b15565b610bb48185610b20565b935083602082028501610bc685610b31565b8060005b85811015610c025784840389528151610be38582610b7e565b9450610bee83610b92565b925060208a01995050600181019050610bca565b50829750879550505050505092915050565b60006020820190508181036000830152610c2e8184610b9f565b905092915050565b600080fd5b600080fd5b600080fd5b60008083601f840112610c5b57610c5a610c36565b5b8235905067ffffffffffffffff811115610c7857610c77610c3b565b5b602083019150836020820283011115610c9457610c93610c40565b5b9250929050565b60008060208385031215610cb257610cb16109aa565b5b600083013567ffffffffffffffff811115610cd057610ccf6109af565b5b610cdc85828601610c45565b92509250509250929050565b60008083601f840112610cfe57610cfd610c36565b5b8235905067ffffffffffffffff811115610d1b57610d1a610c3b565b5b602083019150836001820283011115610d3757610d36610c40565b5b9250929050565b60008060208385031215610d5557610d546109aa565b5b600083013567ffffffffffffffff811115610d7357610d726109af565b5b610d7f85828601610ce8565b92509250509250929050565b610d94816109b4565b82525050565b6000602082019050610daf6000830184610d8b565b92915050565b600073ffffffffffffffffffffffffffffffffffffffff82169050919050565b6000610de082610db5565b9050919050565b610df081610dd5565b82525050565b6000602082019050610e0b6000830184610de7565b92915050565b60008115159050919050565b610e2681610e11565b8114610e3157600080fd5b50565b600081519050610e4381610e1d565b92915050565b600060208284031215610e5f57610e5e6109aa565b5b6000610e6d84828501610e34565b91505092915050565b600082825260208201905092915050565b7f5468652073656e646572206973206e6f742077686974656c6973746564000000600082015250565b6000610ebd601d83610e76565b9150610ec882610e87565b602082019050919050565b60006020820190508181036000830152610eec81610eb0565b9050919050565b600080fd5b7f4e487b7100000000000000000000000000000000000000000000000000000000600052604160045260246000fd5b610f3082610a6c565b810181811067ffffffffffffffff82111715610f4f57610f4e610ef8565b5b80604052505050565b6000610f626109a0565b9050610f6e8282610f27565b919050565b600080fd5b600081519050610f87816109be565b92915050565b600080fd5b600067ffffffffffffffff821115610fad57610fac610ef8565b5b610fb682610a6c565b9050602081019050919050565b6000610fd6610fd184610f92565b610f58565b905082815260208101848484011115610ff257610ff1610f8d565b5b610ffd848285610a42565b509392505050565b600082601f83011261101a57611019610c36565b5b815161102a848260208601610fc3565b91505092915050565b60006040828403121561104957611048610ef3565b5b6110536040610f58565b9050600061106384828501610f78565b600083015250602082015167ffffffffffffffff81111561108757611086610f73565b5b61109384828501611005565b60208301525092915050565b6000602082840312156110b5576110b46109aa565b5b600082015167ffffffffffffffff8111156110d3576110d26109af565b5b6110df84828501611033565b91505092915050565b600067ffffffffffffffff82111561110357611102610ef8565b5b602082029050602081019050919050565b6000611127611122846110e8565b610f58565b9050808382526020820190506020840283018581111561114a57611149610c40565b5b835b8181101561119157805167ffffffffffffffff81111561116f5761116e610c36565b5b80860161117c8982611033565b8552602085019450505060208101905061114c565b5050509392505050565b600082601f8301126111b0576111af610c36565b5b81516111c0848260208601611114565b91505092915050565b6000602082840312156111df576111de6109aa565b5b600082015167ffffffffffffffff8111156111fd576111fc6109af565b5b6112098482850161119b565b91505092915050565b7f4e487b7100000000000000000000000000000000000000000000000000000000600052603260045260246000fd5b7f4e487b7100000000000000000000000000000000000000000000000000000000600052601160045260246000fd5b600061127b826109b4565b91507fffffffffffffffffffffffffffffffffffffffffffffffffffffffffffffffff82036112ad576112ac611241565b5b600182019050919050565b600081905092915050565b60006112ce82610a26565b6112d881856112b8565b93506112e8818560208601610a42565b80840191505092915050565b7f2063616e6e6f7420626520656d70747900000000000000000000000000000000600082015250565b600061132a6010836112b8565b9150611335826112f4565b601082019050919050565b600061134c82846112c3565b91506113578261131d565b915081905092915050565b600061136d82610a26565b6113778185610e76565b9350611387818560208601610a42565b61139081610a6c565b840191505092915050565b600060208201905081810360008301526113b58184611362565b90509291505056fea2646970667358221220d0c5a22acb2b7d98dbdfd780d974d58495a5b55efa57bd882b11c59a7203b93664736f6c63430008110033",
  "linkReferences": {},
  "deployedLinkReferences": {}
}