{
  "_format": "hh-sol-artifact-1",
  "contractName": "AddressBook",
  "sourceName": "contracts/addressbook/AddressBook.sol",
  "abi": [
    {
      "inputs": [
        {
          "internalType": "enum ContractNames.Name[]",
          "name": "_names",
          "type": "uint8[]"
        },
        {
          "internalType": "address[]",
          "name": "addresses",
          "type": "address[]"
        }
      ],
      "name": "addEntries",
      "outputs": [],
      "stateMutability": "nonpayable",
      "type": "function"
    },
    {
      "inputs": [
        {
          "internalType": "enum ContractNames.Name",
          "name": "name",
          "type": "uint8"
        },
        {
          "internalType": "address",
          "name": "_address",
          "type": "address"
        }
      ],
      "name": "addEntry",
      "outputs": [],
      "stateMutability": "nonpayable",
      "type": "function"
    },
    {
      "inputs": [
        {
          "internalType": "enum ContractNames.Name",
          "name": "name",
          "type": "uint8"
        },
        {
          "internalType": "address",
          "name": "newAddress",
          "type": "address"
        }
      ],
      "name": "changeEntry",
      "outputs": [],
      "stateMutability": "nonpayable",
      "type": "function"
    },
    {
      "inputs": [
        {
          "internalType": "enum ContractNames.Name",
          "name": "name",
          "type": "uint8"
        }
      ],
      "name": "getAddress",
      "outputs": [
        {
          "internalType": "address",
          "name": "",
          "type": "address"
        }
      ],
      "stateMutability": "view",
      "type": "function"
    },
    {
      "inputs": [],
      "name": "viewStoredNames",
      "outputs": [
        {
          "internalType": "enum ContractNames.Name[]",
          "name": "",
          "type": "uint8[]"
        }
      ],
      "stateMutability": "view",
      "type": "function"
    }
  ],
  "bytecode": "0x608060405234801561001057600080fd5b50610cbe806100206000396000f3fe608060405234801561001057600080fd5b50600436106100575760003560e01c80634f1323071461005c578063bcaa0c5514610078578063be73dde1146100a8578063d7ef0104146100c6578063f5f4d361146100e2575b600080fd5b610076600480360381019061007191906105e1565b6100fe565b005b610092600480360381019061008d9190610621565b61023c565b60405161009f919061065d565b60405180910390f35b6100b0610334565b6040516100bd919061079e565b60405180910390f35b6100e060048036038101906100db91906105e1565b6103c1565b005b6100fc60048036038101906100f7919061087b565b61048e565b005b600073ffffffffffffffffffffffffffffffffffffffff1660008084600581111561012c5761012b6106a4565b5b600581111561013e5761013d6106a4565b5b815260200190815260200160002060009054906101000a900473ffffffffffffffffffffffffffffffffffffffff1673ffffffffffffffffffffffffffffffffffffffff16036101c3576040517f08c379a00000000000000000000000000000000000000000000000000000000081526004016101ba90610959565b60405180910390fd5b806000808460058111156101da576101d96106a4565b5b60058111156101ec576101eb6106a4565b5b815260200190815260200160002060006101000a81548173ffffffffffffffffffffffffffffffffffffffff021916908373ffffffffffffffffffffffffffffffffffffffff1602179055505050565b600080600080846005811115610255576102546106a4565b5b6005811115610267576102666106a4565b5b815260200190815260200160002060009054906101000a900473ffffffffffffffffffffffffffffffffffffffff169050600073ffffffffffffffffffffffffffffffffffffffff168173ffffffffffffffffffffffffffffffffffffffff161415836040516020016102da9190610a2c565b6040516020818303038152906040529061032a576040517f08c379a00000000000000000000000000000000000000000000000000000000081526004016103219190610ad1565b60405180910390fd5b5080915050919050565b606060018054806020026020016040519081016040528092919081815260200182805480156103b757602002820191906000526020600020906000905b82829054906101000a900460ff166005811115610391576103906106a4565b5b815260200190600101906020826000010492830192600103820291508084116103715790505b5050505050905090565b806000808460058111156103d8576103d76106a4565b5b60058111156103ea576103e96106a4565b5b815260200190815260200160002060006101000a81548173ffffffffffffffffffffffffffffffffffffffff021916908373ffffffffffffffffffffffffffffffffffffffff16021790555060018290806001815401808255809150506001900390600052602060002090602091828204019190069091909190916101000a81548160ff02191690836005811115610485576104846106a4565b5b02179055505050565b8181905084849050146104d6576040517f08c379a00000000000000000000000000000000000000000000000000000000081526004016104cd90610b8b565b60405180910390fd5b60005b8484905081101561054d5761053c8585838181106104fa576104f9610bab565b5b905060200201602081019061050f9190610621565b84848481811061052257610521610bab565b5b90506020020160208101906105379190610bda565b6103c1565b8061054690610c40565b90506104d9565b5050505050565b600080fd5b600080fd5b6006811061056b57600080fd5b50565b60008135905061057d8161055e565b92915050565b600073ffffffffffffffffffffffffffffffffffffffff82169050919050565b60006105ae82610583565b9050919050565b6105be816105a3565b81146105c957600080fd5b50565b6000813590506105db816105b5565b92915050565b600080604083850312156105f8576105f7610554565b5b60006106068582860161056e565b9250506020610617858286016105cc565b9150509250929050565b60006020828403121561063757610636610554565b5b60006106458482850161056e565b91505092915050565b610657816105a3565b82525050565b6000602082019050610672600083018461064e565b92915050565b600081519050919050565b600082825260208201905092915050565b6000819050602082019050919050565b7f4e487b7100000000000000000000000000000000000000000000000000000000600052602160045260246000fd5b600681106106e4576106e36106a4565b5b50565b60008190506106f5826106d3565b919050565b6000610705826106e7565b9050919050565b610715816106fa565b82525050565b6000610727838361070c565b60208301905092915050565b6000602082019050919050565b600061074b82610678565b6107558185610683565b935061076083610694565b8060005b83811015610791578151610778888261071b565b975061078383610733565b925050600181019050610764565b5085935050505092915050565b600060208201905081810360008301526107b88184610740565b905092915050565b600080fd5b600080fd5b600080fd5b60008083601f8401126107e5576107e46107c0565b5b8235905067ffffffffffffffff811115610802576108016107c5565b5b60208301915083602082028301111561081e5761081d6107ca565b5b9250929050565b60008083601f84011261083b5761083a6107c0565b5b8235905067ffffffffffffffff811115610858576108576107c5565b5b602083019150836020820283011115610874576108736107ca565b5b9250929050565b6000806000806040858703121561089557610894610554565b5b600085013567ffffffffffffffff8111156108b3576108b2610559565b5b6108bf878288016107cf565b9450945050602085013567ffffffffffffffff8111156108e2576108e1610559565b5b6108ee87828801610825565b925092505092959194509250565b600082825260208201905092915050565b7f4e616d6520646f6573206e6f7420657869737400000000000000000000000000600082015250565b60006109436013836108fc565b915061094e8261090d565b602082019050919050565b6000602082019050818103600083015261097281610936565b9050919050565b600081905092915050565b7f5468657265206973206e6f20616464726573732073746f72656420776974682060008201527f74686973206e616d653a20000000000000000000000000000000000000000000602082015250565b60006109e0602b83610979565b91506109eb82610984565b602b82019050919050565b60008160f81b9050919050565b6000610a0e826109f6565b9050919050565b610a26610a21826106fa565b610a03565b82525050565b6000610a37826109d3565b9150610a438284610a15565b60018201915081905092915050565b600081519050919050565b60005b83811015610a7b578082015181840152602081019050610a60565b60008484015250505050565b6000601f19601f8301169050919050565b6000610aa382610a52565b610aad81856108fc565b9350610abd818560208601610a5d565b610ac681610a87565b840191505092915050565b60006020820190508181036000830152610aeb8184610a98565b905092915050565b7f50726f7669646564206c697374206f66206e616d657320616e64206c6973742060008201527f6f662061646472657373657320617265206e6f74207468652073616d65206c6560208201527f6e67746800000000000000000000000000000000000000000000000000000000604082015250565b6000610b756044836108fc565b9150610b8082610af3565b606082019050919050565b60006020820190508181036000830152610ba481610b68565b9050919050565b7f4e487b7100000000000000000000000000000000000000000000000000000000600052603260045260246000fd5b600060208284031215610bf057610bef610554565b5b6000610bfe848285016105cc565b91505092915050565b7f4e487b7100000000000000000000000000000000000000000000000000000000600052601160045260246000fd5b6000819050919050565b6000610c4b82610c36565b91507fffffffffffffffffffffffffffffffffffffffffffffffffffffffffffffffff8203610c7d57610c7c610c07565b5b60018201905091905056fea2646970667358221220c710b068343e6a3f8192265c8e5e4f380a534128549284df57754ee6f66b357d64736f6c63430008110033",
  "linkReferences": {},
  "deployedLinkReferences": {}
}