{
  "_format": "hh-sol-artifact-1",
  "contractName": "UserStorage",
  "sourceName": "contracts/data/storage/user/UserStorage.sol",
  "abi": [
    {
      "inputs": [
        {
          "internalType": "address",
          "name": "accessWhitelistAddress",
          "type": "address"
        }
      ],
      "stateMutability": "nonpayable",
      "type": "constructor"
    },
    {
      "inputs": [],
      "name": "getAllUsers",
      "outputs": [
        {
          "components": [
            {
              "internalType": "uint256",
              "name": "uId",
              "type": "uint256"
            },
            {
              "components": [
                {
                  "internalType": "string",
                  "name": "firstName",
                  "type": "string"
                },
                {
                  "internalType": "string",
                  "name": "lastName",
                  "type": "string"
                },
                {
                  "internalType": "enum UserDataTypes.Gender",
                  "name": "gender",
                  "type": "uint8"
                },
                {
                  "components": [
                    {
                      "internalType": "uint256",
                      "name": "year",
                      "type": "uint256"
                    },
                    {
                      "internalType": "uint256",
                      "name": "month",
                      "type": "uint256"
                    },
                    {
                      "internalType": "uint256",
                      "name": "day",
                      "type": "uint256"
                    }
                  ],
                  "internalType": "struct UserDataTypes.Date",
                  "name": "dateOfBirth",
                  "type": "tuple"
                },
                {
                  "internalType": "string",
                  "name": "nationality",
                  "type": "string"
                },
                {
                  "internalType": "string",
                  "name": "phoneNumber",
                  "type": "string"
                },
                {
                  "internalType": "string",
                  "name": "emailAddress",
                  "type": "string"
                },
                {
                  "internalType": "enum UserDataTypes.UserRole",
                  "name": "role",
                  "type": "uint8"
                },
                {
                  "internalType": "uint256[]",
                  "name": "studyProgramIds",
                  "type": "uint256[]"
                }
              ],
              "internalType": "struct UserDataTypes.UserProfile",
              "name": "profile",
              "type": "tuple"
            }
          ],
          "internalType": "struct UserDataTypes.User[]",
          "name": "",
          "type": "tuple[]"
        }
      ],
      "stateMutability": "view",
      "type": "function"
    },
    {
      "inputs": [
        {
          "internalType": "address",
          "name": "userAddress",
          "type": "address"
        }
      ],
      "name": "getUserByAddress",
      "outputs": [
        {
          "components": [
            {
              "internalType": "uint256",
              "name": "uId",
              "type": "uint256"
            },
            {
              "components": [
                {
                  "internalType": "string",
                  "name": "firstName",
                  "type": "string"
                },
                {
                  "internalType": "string",
                  "name": "lastName",
                  "type": "string"
                },
                {
                  "internalType": "enum UserDataTypes.Gender",
                  "name": "gender",
                  "type": "uint8"
                },
                {
                  "components": [
                    {
                      "internalType": "uint256",
                      "name": "year",
                      "type": "uint256"
                    },
                    {
                      "internalType": "uint256",
                      "name": "month",
                      "type": "uint256"
                    },
                    {
                      "internalType": "uint256",
                      "name": "day",
                      "type": "uint256"
                    }
                  ],
                  "internalType": "struct UserDataTypes.Date",
                  "name": "dateOfBirth",
                  "type": "tuple"
                },
                {
                  "internalType": "string",
                  "name": "nationality",
                  "type": "string"
                },
                {
                  "internalType": "string",
                  "name": "phoneNumber",
                  "type": "string"
                },
                {
                  "internalType": "string",
                  "name": "emailAddress",
                  "type": "string"
                },
                {
                  "internalType": "enum UserDataTypes.UserRole",
                  "name": "role",
                  "type": "uint8"
                },
                {
                  "internalType": "uint256[]",
                  "name": "studyProgramIds",
                  "type": "uint256[]"
                }
              ],
              "internalType": "struct UserDataTypes.UserProfile",
              "name": "profile",
              "type": "tuple"
            }
          ],
          "internalType": "struct UserDataTypes.User",
          "name": "",
          "type": "tuple"
        }
      ],
      "stateMutability": "view",
      "type": "function"
    },
    {
      "inputs": [
        {
          "internalType": "address",
          "name": "userAddress",
          "type": "address"
        }
      ],
      "name": "getUserByAddressIfSet",
      "outputs": [
        {
          "internalType": "bool",
          "name": "",
          "type": "bool"
        },
        {
          "components": [
            {
              "internalType": "uint256",
              "name": "uId",
              "type": "uint256"
            },
            {
              "components": [
                {
                  "internalType": "string",
                  "name": "firstName",
                  "type": "string"
                },
                {
                  "internalType": "string",
                  "name": "lastName",
                  "type": "string"
                },
                {
                  "internalType": "enum UserDataTypes.Gender",
                  "name": "gender",
                  "type": "uint8"
                },
                {
                  "components": [
                    {
                      "internalType": "uint256",
                      "name": "year",
                      "type": "uint256"
                    },
                    {
                      "internalType": "uint256",
                      "name": "month",
                      "type": "uint256"
                    },
                    {
                      "internalType": "uint256",
                      "name": "day",
                      "type": "uint256"
                    }
                  ],
                  "internalType": "struct UserDataTypes.Date",
                  "name": "dateOfBirth",
                  "type": "tuple"
                },
                {
                  "internalType": "string",
                  "name": "nationality",
                  "type": "string"
                },
                {
                  "internalType": "string",
                  "name": "phoneNumber",
                  "type": "string"
                },
                {
                  "internalType": "string",
                  "name": "emailAddress",
                  "type": "string"
                },
                {
                  "internalType": "enum UserDataTypes.UserRole",
                  "name": "role",
                  "type": "uint8"
                },
                {
                  "internalType": "uint256[]",
                  "name": "studyProgramIds",
                  "type": "uint256[]"
                }
              ],
              "internalType": "struct UserDataTypes.UserProfile",
              "name": "profile",
              "type": "tuple"
            }
          ],
          "internalType": "struct UserDataTypes.User",
          "name": "",
          "type": "tuple"
        }
      ],
      "stateMutability": "view",
      "type": "function"
    },
    {
      "inputs": [
        {
          "internalType": "uint256",
          "name": "uId",
          "type": "uint256"
        }
      ],
      "name": "getUserByUId",
      "outputs": [
        {
          "components": [
            {
              "internalType": "uint256",
              "name": "uId",
              "type": "uint256"
            },
            {
              "components": [
                {
                  "internalType": "string",
                  "name": "firstName",
                  "type": "string"
                },
                {
                  "internalType": "string",
                  "name": "lastName",
                  "type": "string"
                },
                {
                  "internalType": "enum UserDataTypes.Gender",
                  "name": "gender",
                  "type": "uint8"
                },
                {
                  "components": [
                    {
                      "internalType": "uint256",
                      "name": "year",
                      "type": "uint256"
                    },
                    {
                      "internalType": "uint256",
                      "name": "month",
                      "type": "uint256"
                    },
                    {
                      "internalType": "uint256",
                      "name": "day",
                      "type": "uint256"
                    }
                  ],
                  "internalType": "struct UserDataTypes.Date",
                  "name": "dateOfBirth",
                  "type": "tuple"
                },
                {
                  "internalType": "string",
                  "name": "nationality",
                  "type": "string"
                },
                {
                  "internalType": "string",
                  "name": "phoneNumber",
                  "type": "string"
                },
                {
                  "internalType": "string",
                  "name": "emailAddress",
                  "type": "string"
                },
                {
                  "internalType": "enum UserDataTypes.UserRole",
                  "name": "role",
                  "type": "uint8"
                },
                {
                  "internalType": "uint256[]",
                  "name": "studyProgramIds",
                  "type": "uint256[]"
                }
              ],
              "internalType": "struct UserDataTypes.UserProfile",
              "name": "profile",
              "type": "tuple"
            }
          ],
          "internalType": "struct UserDataTypes.User",
          "name": "",
          "type": "tuple"
        }
      ],
      "stateMutability": "view",
      "type": "function"
    },
    {
      "inputs": [
        {
          "internalType": "address",
          "name": "userAddress",
          "type": "address"
        },
        {
          "components": [
            {
              "internalType": "uint256",
              "name": "uId",
              "type": "uint256"
            },
            {
              "components": [
                {
                  "internalType": "string",
                  "name": "firstName",
                  "type": "string"
                },
                {
                  "internalType": "string",
                  "name": "lastName",
                  "type": "string"
                },
                {
                  "internalType": "enum UserDataTypes.Gender",
                  "name": "gender",
                  "type": "uint8"
                },
                {
                  "components": [
                    {
                      "internalType": "uint256",
                      "name": "year",
                      "type": "uint256"
                    },
                    {
                      "internalType": "uint256",
                      "name": "month",
                      "type": "uint256"
                    },
                    {
                      "internalType": "uint256",
                      "name": "day",
                      "type": "uint256"
                    }
                  ],
                  "internalType": "struct UserDataTypes.Date",
                  "name": "dateOfBirth",
                  "type": "tuple"
                },
                {
                  "internalType": "string",
                  "name": "nationality",
                  "type": "string"
                },
                {
                  "internalType": "string",
                  "name": "phoneNumber",
                  "type": "string"
                },
                {
                  "internalType": "string",
                  "name": "emailAddress",
                  "type": "string"
                },
                {
                  "internalType": "enum UserDataTypes.UserRole",
                  "name": "role",
                  "type": "uint8"
                },
                {
                  "internalType": "uint256[]",
                  "name": "studyProgramIds",
                  "type": "uint256[]"
                }
              ],
              "internalType": "struct UserDataTypes.UserProfile",
              "name": "profile",
              "type": "tuple"
            }
          ],
          "internalType": "struct UserDataTypes.User",
          "name": "user",
          "type": "tuple"
        }
      ],
      "name": "storeUser",
      "outputs": [],
      "stateMutability": "nonpayable",
      "type": "function"
    },
    {
      "inputs": [
        {
          "internalType": "address",
          "name": "oldAddress",
          "type": "address"
        },
        {
          "internalType": "address",
          "name": "newAddress",
          "type": "address"
        }
      ],
      "name": "updateUserAddress",
      "outputs": [],
      "stateMutability": "nonpayable",
      "type": "function"
    }
  ],
  "bytecode": "0x60806040523480156200001157600080fd5b5060405162003448380380620034488339818101604052810190620000379190620000ec565b8080806000806101000a81548173ffffffffffffffffffffffffffffffffffffffff021916908373ffffffffffffffffffffffffffffffffffffffff1602179055505050506200011e565b600080fd5b600073ffffffffffffffffffffffffffffffffffffffff82169050919050565b6000620000b48262000087565b9050919050565b620000c681620000a7565b8114620000d257600080fd5b50565b600081519050620000e681620000bb565b92915050565b60006020828403121562000105576200010462000082565b5b60006200011584828501620000d5565b91505092915050565b61331a806200012e6000396000f3fe608060405234801561001057600080fd5b50600436106100625760003560e01c806309953c2e1461006757806364a489341461009857806369c212f6146100c857806385ab97d2146100f8578063e2769d4e14610114578063e2842d7914610130575b600080fd5b610081600480360381019061007c9190611ffd565b61014e565b60405161008f9291906123c5565b60405180910390f35b6100b260048036038101906100ad9190612421565b6106f3565b6040516100bf919061244e565b60405180910390f35b6100e260048036038101906100dd9190611ffd565b610c47565b6040516100ef919061244e565b60405180910390f35b610112600480360381019061010d9190612494565b611203565b005b61012e600480360381019061012991906124f0565b611496565b005b6101386117c9565b604051610145919061262f565b60405180910390f35b6000610158611ede565b60008054906101000a900473ffffffffffffffffffffffffffffffffffffffff1673ffffffffffffffffffffffffffffffffffffffff166313f44d10336040518263ffffffff1660e01b81526004016101b19190612660565b602060405180830381865afa1580156101ce573d6000803e3d6000fd5b505050506040513d601f19601f820116820180604052508101906101f291906126a7565b610231576040517f08c379a000000000000000000000000000000000000000000000000000000000815260040161022890612731565b60405180910390fd5b600060026000600160008773ffffffffffffffffffffffffffffffffffffffff1673ffffffffffffffffffffffffffffffffffffffff1681526020019081526020016000205481526020019081526020016000206040518060400160405290816000820154815260200160018201604051806101200160405290816000820180546102bb90612780565b80601f01602080910402602001604051908101604052809291908181526020018280546102e790612780565b80156103345780601f1061030957610100808354040283529160200191610334565b820191906000526020600020905b81548152906001019060200180831161031757829003601f168201915b5050505050815260200160018201805461034d90612780565b80601f016020809104026020016040519081016040528092919081815260200182805461037990612780565b80156103c65780601f1061039b576101008083540402835291602001916103c6565b820191906000526020600020905b8154815290600101906020018083116103a957829003601f168201915b505050505081526020016002820160009054906101000a900460ff1660028111156103f4576103f36120ee565b5b6002811115610406576104056120ee565b5b8152602001600382016040518060600160405290816000820154815260200160018201548152602001600282015481525050815260200160068201805461044c90612780565b80601f016020809104026020016040519081016040528092919081815260200182805461047890612780565b80156104c55780601f1061049a576101008083540402835291602001916104c5565b820191906000526020600020905b8154815290600101906020018083116104a857829003601f168201915b505050505081526020016007820180546104de90612780565b80601f016020809104026020016040519081016040528092919081815260200182805461050a90612780565b80156105575780601f1061052c57610100808354040283529160200191610557565b820191906000526020600020905b81548152906001019060200180831161053a57829003601f168201915b5050505050815260200160088201805461057090612780565b80601f016020809104026020016040519081016040528092919081815260200182805461059c90612780565b80156105e95780601f106105be576101008083540402835291602001916105e9565b820191906000526020600020905b8154815290600101906020018083116105cc57829003601f168201915b505050505081526020016009820160009054906101000a900460ff166002811115610617576106166120ee565b5b6002811115610629576106286120ee565b5b8152602001600a820180548060200260200160405190810160405280929190818152602001828054801561067c57602002820191906000526020600020905b815481526020019060010190808311610668575b5050505050815250508152505090506106d3600160008673ffffffffffffffffffffffffffffffffffffffff1673ffffffffffffffffffffffffffffffffffffffff16815260200190815260200160002054611d83565b156106e55760018192509250506106ee565b60008192509250505b915091565b6106fb611ede565b60008054906101000a900473ffffffffffffffffffffffffffffffffffffffff1673ffffffffffffffffffffffffffffffffffffffff166313f44d10336040518263ffffffff1660e01b81526004016107549190612660565b602060405180830381865afa158015610771573d6000803e3d6000fd5b505050506040513d601f19601f8201168201806040525081019061079591906126a7565b6107d4576040517f08c379a00000000000000000000000000000000000000000000000000000000081526004016107cb90612731565b60405180910390fd5b61082960026000848152602001908152602001600020600001546040518060400160405280600381526020017f7549440000000000000000000000000000000000000000000000000000000000815250611d90565b6002600083815260200190815260200160002060405180604001604052908160008201548152602001600182016040518061012001604052908160008201805461087290612780565b80601f016020809104026020016040519081016040528092919081815260200182805461089e90612780565b80156108eb5780601f106108c0576101008083540402835291602001916108eb565b820191906000526020600020905b8154815290600101906020018083116108ce57829003601f168201915b5050505050815260200160018201805461090490612780565b80601f016020809104026020016040519081016040528092919081815260200182805461093090612780565b801561097d5780601f106109525761010080835404028352916020019161097d565b820191906000526020600020905b81548152906001019060200180831161096057829003601f168201915b505050505081526020016002820160009054906101000a900460ff1660028111156109ab576109aa6120ee565b5b60028111156109bd576109bc6120ee565b5b81526020016003820160405180606001604052908160008201548152602001600182015481526020016002820154815250508152602001600682018054610a0390612780565b80601f0160208091040260200160405190810160405280929190818152602001828054610a2f90612780565b8015610a7c5780601f10610a5157610100808354040283529160200191610a7c565b820191906000526020600020905b815481529060010190602001808311610a5f57829003601f168201915b50505050508152602001600782018054610a9590612780565b80601f0160208091040260200160405190810160405280929190818152602001828054610ac190612780565b8015610b0e5780601f10610ae357610100808354040283529160200191610b0e565b820191906000526020600020905b815481529060010190602001808311610af157829003601f168201915b50505050508152602001600882018054610b2790612780565b80601f0160208091040260200160405190810160405280929190818152602001828054610b5390612780565b8015610ba05780601f10610b7557610100808354040283529160200191610ba0565b820191906000526020600020905b815481529060010190602001808311610b8357829003601f168201915b505050505081526020016009820160009054906101000a900460ff166002811115610bce57610bcd6120ee565b5b6002811115610be057610bdf6120ee565b5b8152602001600a8201805480602002602001604051908101604052809291908181526020018280548015610c3357602002820191906000526020600020905b815481526020019060010190808311610c1f575b505050505081525050815250509050919050565b610c4f611ede565b60008054906101000a900473ffffffffffffffffffffffffffffffffffffffff1673ffffffffffffffffffffffffffffffffffffffff166313f44d10336040518263ffffffff1660e01b8152600401610ca89190612660565b602060405180830381865afa158015610cc5573d6000803e3d6000fd5b505050506040513d601f19601f82011682018060405250810190610ce991906126a7565b610d28576040517f08c379a0000000000000000000000000000000000000000000000000000000008152600401610d1f90612731565b60405180910390fd5b610da6600160008473ffffffffffffffffffffffffffffffffffffffff1673ffffffffffffffffffffffffffffffffffffffff168152602001908152602001600020546040518060400160405280600c81526020017f5573657220616464726573730000000000000000000000000000000000000000815250611d90565b60026000600160008573ffffffffffffffffffffffffffffffffffffffff1673ffffffffffffffffffffffffffffffffffffffff168152602001908152602001600020548152602001908152602001600020604051806040016040529081600082015481526020016001820160405180610120016040529081600082018054610e2e90612780565b80601f0160208091040260200160405190810160405280929190818152602001828054610e5a90612780565b8015610ea75780601f10610e7c57610100808354040283529160200191610ea7565b820191906000526020600020905b815481529060010190602001808311610e8a57829003601f168201915b50505050508152602001600182018054610ec090612780565b80601f0160208091040260200160405190810160405280929190818152602001828054610eec90612780565b8015610f395780601f10610f0e57610100808354040283529160200191610f39565b820191906000526020600020905b815481529060010190602001808311610f1c57829003601f168201915b505050505081526020016002820160009054906101000a900460ff166002811115610f6757610f666120ee565b5b6002811115610f7957610f786120ee565b5b81526020016003820160405180606001604052908160008201548152602001600182015481526020016002820154815250508152602001600682018054610fbf90612780565b80601f0160208091040260200160405190810160405280929190818152602001828054610feb90612780565b80156110385780601f1061100d57610100808354040283529160200191611038565b820191906000526020600020905b81548152906001019060200180831161101b57829003601f168201915b5050505050815260200160078201805461105190612780565b80601f016020809104026020016040519081016040528092919081815260200182805461107d90612780565b80156110ca5780601f1061109f576101008083540402835291602001916110ca565b820191906000526020600020905b8154815290600101906020018083116110ad57829003601f168201915b505050505081526020016008820180546110e390612780565b80601f016020809104026020016040519081016040528092919081815260200182805461110f90612780565b801561115c5780601f106111315761010080835404028352916020019161115c565b820191906000526020600020905b81548152906001019060200180831161113f57829003601f168201915b505050505081526020016009820160009054906101000a900460ff16600281111561118a576111896120ee565b5b600281111561119c5761119b6120ee565b5b8152602001600a82018054806020026020016040519081016040528092919081815260200182805480156111ef57602002820191906000526020600020905b8154815260200190600101908083116111db575b505050505081525050815250509050919050565b60008054906101000a900473ffffffffffffffffffffffffffffffffffffffff1673ffffffffffffffffffffffffffffffffffffffff166313f44d10336040518263ffffffff1660e01b815260040161125c9190612660565b602060405180830381865afa158015611279573d6000803e3d6000fd5b505050506040513d601f19601f8201168201806040525081019061129d91906126a7565b6112dc576040517f08c379a00000000000000000000000000000000000000000000000000000000081526004016112d390612731565b60405180910390fd5b61135a600160008473ffffffffffffffffffffffffffffffffffffffff1673ffffffffffffffffffffffffffffffffffffffff168152602001908152602001600020546040518060400160405280600c81526020017f5573657220616464726573730000000000000000000000000000000000000000815250611dff565b61139d81600001356040518060400160405280600381526020017f7549440000000000000000000000000000000000000000000000000000000000815250611e6f565b6113f66002600083600001358152602001908152602001600020600001546040518060400160405280600381526020017f7549440000000000000000000000000000000000000000000000000000000000815250611dff565b8060000135600160008473ffffffffffffffffffffffffffffffffffffffff1673ffffffffffffffffffffffffffffffffffffffff168152602001908152602001600020819055508060026000836000013581526020019081526020016000208181611462919061307e565b9050506003816000013590806001815401808255809150506001900390600052602060002001600090919091909150555050565b60008054906101000a900473ffffffffffffffffffffffffffffffffffffffff1673ffffffffffffffffffffffffffffffffffffffff166313f44d10336040518263ffffffff1660e01b81526004016114ef9190612660565b602060405180830381865afa15801561150c573d6000803e3d6000fd5b505050506040513d601f19601f8201168201806040525081019061153091906126a7565b61156f576040517f08c379a000000000000000000000000000000000000000000000000000000000815260040161156690612731565b60405180910390fd5b6115ed600160008473ffffffffffffffffffffffffffffffffffffffff1673ffffffffffffffffffffffffffffffffffffffff168152602001908152602001600020546040518060400160405280601081526020017f4f6c642075736572206164647265737300000000000000000000000000000000815250611d90565b61166b600160008373ffffffffffffffffffffffffffffffffffffffff1673ffffffffffffffffffffffffffffffffffffffff168152602001908152602001600020546040518060400160405280601081526020017f4e65772075736572206164647265737300000000000000000000000000000000815250611dff565b6116ff60026000600160008673ffffffffffffffffffffffffffffffffffffffff1673ffffffffffffffffffffffffffffffffffffffff168152602001908152602001600020548152602001908152602001600020600001546040518060400160405280600381526020017f7549440000000000000000000000000000000000000000000000000000000000815250611d90565b600160008373ffffffffffffffffffffffffffffffffffffffff1673ffffffffffffffffffffffffffffffffffffffff16815260200190815260200160002054600160008373ffffffffffffffffffffffffffffffffffffffff1673ffffffffffffffffffffffffffffffffffffffff16815260200190815260200160002081905550600160008373ffffffffffffffffffffffffffffffffffffffff1673ffffffffffffffffffffffffffffffffffffffff168152602001908152602001600020600090555050565b606060008054906101000a900473ffffffffffffffffffffffffffffffffffffffff1673ffffffffffffffffffffffffffffffffffffffff166313f44d10336040518263ffffffff1660e01b81526004016118249190612660565b602060405180830381865afa158015611841573d6000803e3d6000fd5b505050506040513d601f19601f8201168201806040525081019061186591906126a7565b6118a4576040517f08c379a000000000000000000000000000000000000000000000000000000000815260040161189b90612731565b60405180910390fd5b600060038054905067ffffffffffffffff8111156118c5576118c4612915565b5b6040519080825280602002602001820160405280156118fe57816020015b6118eb611ede565b8152602001906001900390816118e35790505b50905060005b600380549050811015611d7b576000600260006003848154811061192b5761192a61308c565b5b9060005260206000200154815260200190815260200160002060405180604001604052908160008201548152602001600182016040518061012001604052908160008201805461197a90612780565b80601f01602080910402602001604051908101604052809291908181526020018280546119a690612780565b80156119f35780601f106119c8576101008083540402835291602001916119f3565b820191906000526020600020905b8154815290600101906020018083116119d657829003601f168201915b50505050508152602001600182018054611a0c90612780565b80601f0160208091040260200160405190810160405280929190818152602001828054611a3890612780565b8015611a855780601f10611a5a57610100808354040283529160200191611a85565b820191906000526020600020905b815481529060010190602001808311611a6857829003601f168201915b505050505081526020016002820160009054906101000a900460ff166002811115611ab357611ab26120ee565b5b6002811115611ac557611ac46120ee565b5b81526020016003820160405180606001604052908160008201548152602001600182015481526020016002820154815250508152602001600682018054611b0b90612780565b80601f0160208091040260200160405190810160405280929190818152602001828054611b3790612780565b8015611b845780601f10611b5957610100808354040283529160200191611b84565b820191906000526020600020905b815481529060010190602001808311611b6757829003601f168201915b50505050508152602001600782018054611b9d90612780565b80601f0160208091040260200160405190810160405280929190818152602001828054611bc990612780565b8015611c165780601f10611beb57610100808354040283529160200191611c16565b820191906000526020600020905b815481529060010190602001808311611bf957829003601f168201915b50505050508152602001600882018054611c2f90612780565b80601f0160208091040260200160405190810160405280929190818152602001828054611c5b90612780565b8015611ca85780601f10611c7d57610100808354040283529160200191611ca8565b820191906000526020600020905b815481529060010190602001808311611c8b57829003601f168201915b505050505081526020016009820160009054906101000a900460ff166002811115611cd657611cd56120ee565b5b6002811115611ce857611ce76120ee565b5b8152602001600a8201805480602002602001604051908101604052809291908181526020018280548015611d3b57602002820191906000526020600020905b815481526020019060010190808311611d27575b50505050508152505081525050905080838381518110611d5e57611d5d61308c565b5b60200260200101819052505080611d74906130bb565b9050611904565b508091505090565b6000808214159050919050565b611d9982611d83565b81604051602001611daa919061318b565b60405160208183030381529060405290611dfa576040517f08c379a0000000000000000000000000000000000000000000000000000000008152600401611df191906131e6565b60405180910390fd5b505050565b611e0882611d83565b1581604051602001611e1a9190613254565b60405160208183030381529060405290611e6a576040517f08c379a0000000000000000000000000000000000000000000000000000000008152600401611e6191906131e6565b60405180910390fd5b505050565b611e7882611d83565b81604051602001611e8991906132c2565b60405160208183030381529060405290611ed9576040517f08c379a0000000000000000000000000000000000000000000000000000000008152600401611ed091906131e6565b60405180910390fd5b505050565b604051806040016040528060008152602001611ef8611efe565b81525090565b604051806101200160405280606081526020016060815260200160006002811115611f2c57611f2b6120ee565b5b8152602001611f39611f74565b815260200160608152602001606081526020016060815260200160006002811115611f6757611f666120ee565b5b8152602001606081525090565b60405180606001604052806000815260200160008152602001600081525090565b600080fd5b600080fd5b600073ffffffffffffffffffffffffffffffffffffffff82169050919050565b6000611fca82611f9f565b9050919050565b611fda81611fbf565b8114611fe557600080fd5b50565b600081359050611ff781611fd1565b92915050565b60006020828403121561201357612012611f95565b5b600061202184828501611fe8565b91505092915050565b60008115159050919050565b61203f8161202a565b82525050565b6000819050919050565b61205881612045565b82525050565b600081519050919050565b600082825260208201905092915050565b60005b8381101561209857808201518184015260208101905061207d565b60008484015250505050565b6000601f19601f8301169050919050565b60006120c08261205e565b6120ca8185612069565b93506120da81856020860161207a565b6120e3816120a4565b840191505092915050565b7f4e487b7100000000000000000000000000000000000000000000000000000000600052602160045260246000fd5b6003811061212e5761212d6120ee565b5b50565b600081905061213f8261211d565b919050565b600061214f82612131565b9050919050565b61215f81612144565b82525050565b60608201600082015161217b600085018261204f565b50602082015161218e602085018261204f565b5060408201516121a1604085018261204f565b50505050565b600381106121b8576121b76120ee565b5b50565b60008190506121c9826121a7565b919050565b60006121d9826121bb565b9050919050565b6121e9816121ce565b82525050565b600081519050919050565b600082825260208201905092915050565b6000819050602082019050919050565b6000612227838361204f565b60208301905092915050565b6000602082019050919050565b600061224b826121ef565b61225581856121fa565b93506122608361220b565b8060005b83811015612291578151612278888261221b565b975061228383612233565b925050600181019050612264565b5085935050505092915050565b60006101608301600083015184820360008601526122bc82826120b5565b915050602083015184820360208601526122d682826120b5565b91505060408301516122eb6040860182612156565b5060608301516122fe6060860182612165565b50608083015184820360c086015261231682826120b5565b91505060a083015184820360e086015261233082826120b5565b91505060c083015184820361010086015261234b82826120b5565b91505060e08301516123616101208601826121e0565b5061010083015184820361014086015261237b8282612240565b9150508091505092915050565b60006040830160008301516123a0600086018261204f565b50602083015184820360208601526123b8828261229e565b9150508091505092915050565b60006040820190506123da6000830185612036565b81810360208301526123ec8184612388565b90509392505050565b6123fe81612045565b811461240957600080fd5b50565b60008135905061241b816123f5565b92915050565b60006020828403121561243757612436611f95565b5b60006124458482850161240c565b91505092915050565b600060208201905081810360008301526124688184612388565b905092915050565b600080fd5b60006040828403121561248b5761248a612470565b5b81905092915050565b600080604083850312156124ab576124aa611f95565b5b60006124b985828601611fe8565b925050602083013567ffffffffffffffff8111156124da576124d9611f9a565b5b6124e685828601612475565b9150509250929050565b6000806040838503121561250757612506611f95565b5b600061251585828601611fe8565b925050602061252685828601611fe8565b9150509250929050565b600081519050919050565b600082825260208201905092915050565b6000819050602082019050919050565b6000604083016000830151612574600086018261204f565b506020830151848203602086015261258c828261229e565b9150508091505092915050565b60006125a5838361255c565b905092915050565b6000602082019050919050565b60006125c582612530565b6125cf818561253b565b9350836020820285016125e18561254c565b8060005b8581101561261d57848403895281516125fe8582612599565b9450612609836125ad565b925060208a019950506001810190506125e5565b50829750879550505050505092915050565b6000602082019050818103600083015261264981846125ba565b905092915050565b61265a81611fbf565b82525050565b60006020820190506126756000830184612651565b92915050565b6126848161202a565b811461268f57600080fd5b50565b6000815190506126a18161267b565b92915050565b6000602082840312156126bd576126bc611f95565b5b60006126cb84828501612692565b91505092915050565b600082825260208201905092915050565b7f5468652073656e646572206973206e6f742077686974656c6973746564000000600082015250565b600061271b601d836126d4565b9150612726826126e5565b602082019050919050565b6000602082019050818103600083015261274a8161270e565b9050919050565b7f4e487b7100000000000000000000000000000000000000000000000000000000600052602260045260246000fd5b6000600282049050600182168061279857607f821691505b6020821081036127ab576127aa612751565b5b50919050565b600081356127be816123f5565b80915050919050565b60008160001b9050919050565b60007fffffffffffffffffffffffffffffffffffffffffffffffffffffffffffffffff612800846127c7565b9350801983169250808416831791505092915050565b6000819050919050565b600061283b61283661283184612045565b612816565b612045565b9050919050565b6000819050919050565b61285582612820565b61286861286182612842565b83546127d4565b8255505050565b600080fd5b600080fd5b600080fd5b6000823560016101600383360303811261289b5761289a61286f565b5b80830191505092915050565b600080833560016020038436030381126128c4576128c361286f565b5b80840192508235915067ffffffffffffffff8211156128e6576128e5612874565b5b60208301925060018202360383131561290257612901612879565b5b509250929050565b600082905092915050565b7f4e487b7100000000000000000000000000000000000000000000000000000000600052604160045260246000fd5b60008190508160005260206000209050919050565b60006020601f8301049050919050565b600082821b905092915050565b6000600883026129a67fffffffffffffffffffffffffffffffffffffffffffffffffffffffffffffffff82612969565b6129b08683612969565b95508019841693508086168417925050509392505050565b6129d183612820565b6129e56129dd82612842565b848454612976565b825550505050565b600090565b6129fa6129ed565b612a058184846129c8565b505050565b5b81811015612a2957612a1e6000826129f2565b600181019050612a0b565b5050565b601f821115612a6e57612a3f81612944565b612a4884612959565b81016020851015612a57578190505b612a6b612a6385612959565b830182612a0a565b50505b505050565b600082821c905092915050565b6000612a9160001984600802612a73565b1980831691505092915050565b6000612aaa8383612a80565b9150826002028217905092915050565b612ac4838361290a565b67ffffffffffffffff811115612add57612adc612915565b5b612ae78254612780565b612af2828285612a2d565b6000601f831160018114612b215760008415612b0f578287013590505b612b198582612a9e565b865550612b81565b601f198416612b2f86612944565b60005b82811015612b5757848901358255600182019150602085019450602081019050612b32565b86831015612b745784890135612b70601f891682612a80565b8355505b6001600288020188555050505b50505050505050565b612b95838383612aba565b505050565b60038110612ba757600080fd5b50565b60008135612bb781612b9a565b80915050919050565b600060ff612bcd846127c7565b9350801983169250808416831791505092915050565b6000612bee82612131565b9050919050565b6000819050919050565b612c0882612be3565b612c1b612c1482612bf5565b8354612bc0565b8255505050565b600081016000830180612c34816127b1565b9050612c40818461284c565b505050600181016020830180612c55816127b1565b9050612c61818461284c565b505050600281016040830180612c76816127b1565b9050612c82818461284c565b5050505050565b612c938282612c22565b5050565b60038110612ca457600080fd5b50565b60008135612cb481612c97565b80915050919050565b6000612cc8826121bb565b9050919050565b6000819050919050565b612ce282612cbd565b612cf5612cee82612ccf565b8354612bc0565b8255505050565b60008083356001602003843603038112612d1957612d1861286f565b5b80840192508235915067ffffffffffffffff821115612d3b57612d3a612874565b5b602083019250602082023603831315612d5757612d56612879565b5b509250929050565b600081549050919050565b7f4e487b7100000000000000000000000000000000000000000000000000000000600052601160045260246000fd5b60008190506001806001038301049050919050565b60008190508160005260206000209050919050565b5b81811015612de257612dd76000826129f2565b600181019050612dc4565b5050565b81831015612e1f57612df782612d99565b612e0084612d99565b612e0983612dae565b818101838201612e198183612dc3565b50505050505b505050565b68010000000000000000821115612e3e57612e3d612915565b5b612e4781612d5f565b828255612e55838284612de6565b505050565b600082905092915050565b6000819050919050565b612e798383612e5a565b67ffffffffffffffff811115612e9257612e91612915565b5b612e9c8183612e24565b612ea583612e65565b612eae83612dae565b6001830460005b81811015612eed576000612ec8856127b1565b612ed181612842565b8092506020870196505050808285015550600181019050612eb5565b5050505050505050565b612f02838383612e6f565b505050565b6000810160008301612f1981856128a7565b612f24818386612b8a565b505050506001810160208301612f3a81856128a7565b612f45818386612b8a565b50505050600281016040830180612f5b81612baa565b9050612f678184612bff565b505050600381016060830180612f7d8184612c89565b5050506006810160c08301612f9281856128a7565b612f9d818386612b8a565b505050506007810160e08301612fb381856128a7565b612fbe818386612b8a565b50505050600881016101008301612fd581856128a7565b612fe0818386612b8a565b5050505060098101610120830180612ff781612ca7565b90506130038184612cd9565b505050600a810161014083016130198185612cfc565b613024818386612ef7565b505050505050565b6130368282612f07565b5050565b60008101600083018061304c816127b1565b9050613058818461284c565b505050600181016020830161306d818561287e565b613077818461302c565b5050505050565b613088828261303a565b5050565b7f4e487b7100000000000000000000000000000000000000000000000000000000600052603260045260246000fd5b60006130c682612045565b91507fffffffffffffffffffffffffffffffffffffffffffffffffffffffffffffffff82036130f8576130f7612d6a565b5b600182019050919050565b600081905092915050565b60006131198261205e565b6131238185613103565b935061313381856020860161207a565b80840191505092915050565b7f20646f6573206e6f7420657869737420617420676976656e2049440000000000600082015250565b6000613175601b83613103565b91506131808261313f565b601b82019050919050565b6000613197828461310e565b91506131a282613168565b915081905092915050565b60006131b88261205e565b6131c281856126d4565b93506131d281856020860161207a565b6131db816120a4565b840191505092915050565b6000602082019050818103600083015261320081846131ad565b905092915050565b7f20616c72656164792065786973747320617420676976656e2049440000000000600082015250565b600061323e601b83613103565b915061324982613208565b601b82019050919050565b6000613260828461310e565b915061326b82613231565b915081905092915050565b7f496e76616c696420000000000000000000000000000000000000000000000000600082015250565b60006132ac600883613103565b91506132b782613276565b600882019050919050565b60006132cd8261329f565b91506132d9828461310e565b91508190509291505056fea2646970667358221220f8c240e5b01636beb6d285525ab8d9ff9b1c2e30464e4e5bb16379d4b9fca41264736f6c63430008110033",
  "linkReferences": {},
  "deployedLinkReferences": {}
}