{
  "_format": "hh-sol-artifact-1",
  "contractName": "CourseView",
  "sourceName": "contracts/view/CourseView.sol",
  "abi": [
    {
      "inputs": [
        {
          "internalType": "address",
          "name": "userDataManagerAddress",
          "type": "address"
        },
        {
          "internalType": "address",
          "name": "courseDataManagerAddress",
          "type": "address"
        },
        {
          "internalType": "address",
          "name": "assessmentDataManagerAddress",
          "type": "address"
        }
      ],
      "stateMutability": "nonpayable",
      "type": "constructor"
    },
    {
      "inputs": [],
      "name": "getAllCourseCodes",
      "outputs": [
        {
          "internalType": "string[]",
          "name": "",
          "type": "string[]"
        }
      ],
      "stateMutability": "view",
      "type": "function"
    },
    {
      "inputs": [],
      "name": "getAllCourses",
      "outputs": [
        {
          "components": [
            {
              "internalType": "uint256",
              "name": "courseId",
              "type": "uint256"
            },
            {
              "components": [
                {
                  "internalType": "string",
                  "name": "title",
                  "type": "string"
                },
                {
                  "internalType": "string",
                  "name": "code",
                  "type": "string"
                },
                {
                  "internalType": "enum CourseDataTypes.CourseType",
                  "name": "courseType",
                  "type": "uint8"
                },
                {
                  "components": [
                    {
                      "internalType": "uint256",
                      "name": "year",
                      "type": "uint256"
                    },
                    {
                      "internalType": "enum CourseDataTypes.SemesterSeason",
                      "name": "season",
                      "type": "uint8"
                    }
                  ],
                  "internalType": "struct CourseDataTypes.Semester",
                  "name": "semester",
                  "type": "tuple"
                },
                {
                  "internalType": "string",
                  "name": "description",
                  "type": "string"
                },
                {
                  "internalType": "string",
                  "name": "examTopics",
                  "type": "string"
                },
                {
                  "internalType": "string",
                  "name": "language",
                  "type": "string"
                },
                {
                  "internalType": "uint256",
                  "name": "ects",
                  "type": "uint256"
                },
                {
                  "internalType": "uint256",
                  "name": "maxPlaces",
                  "type": "uint256"
                },
                {
                  "internalType": "uint256",
                  "name": "registrationStart",
                  "type": "uint256"
                },
                {
                  "internalType": "uint256",
                  "name": "registrationDeadline",
                  "type": "uint256"
                },
                {
                  "internalType": "uint256",
                  "name": "deregistrationDeadline",
                  "type": "uint256"
                },
                {
                  "components": [
                    {
                      "internalType": "uint256",
                      "name": "datetime",
                      "type": "uint256"
                    },
                    {
                      "internalType": "string",
                      "name": "place",
                      "type": "string"
                    }
                  ],
                  "internalType": "struct CourseDataTypes.Class[]",
                  "name": "classes",
                  "type": "tuple[]"
                },
                {
                  "components": [
                    {
                      "internalType": "uint256",
                      "name": "grade",
                      "type": "uint256"
                    },
                    {
                      "internalType": "uint256",
                      "name": "minPercentage",
                      "type": "uint256"
                    }
                  ],
                  "internalType": "struct CourseDataTypes.GradeLevel[]",
                  "name": "gradeLevels",
                  "type": "tuple[]"
                },
                {
                  "internalType": "string[]",
                  "name": "requirementCourseCodes",
                  "type": "string[]"
                }
              ],
              "internalType": "struct CourseDataTypes.CourseContent",
              "name": "content",
              "type": "tuple"
            }
          ],
          "internalType": "struct CourseDataTypes.Course[]",
          "name": "",
          "type": "tuple[]"
        }
      ],
      "stateMutability": "view",
      "type": "function"
    },
    {
      "inputs": [
        {
          "internalType": "uint256",
          "name": "assessmentId",
          "type": "uint256"
        }
      ],
      "name": "getAssessmentParticipants",
      "outputs": [
        {
          "components": [
            {
              "internalType": "uint256",
              "name": "uId",
              "type": "uint256"
            },
            {
              "components": [
                {
                  "internalType": "string",
                  "name": "firstName",
                  "type": "string"
                },
                {
                  "internalType": "string",
                  "name": "lastName",
                  "type": "string"
                },
                {
                  "internalType": "enum UserDataTypes.Gender",
                  "name": "gender",
                  "type": "uint8"
                },
                {
                  "components": [
                    {
                      "internalType": "uint256",
                      "name": "year",
                      "type": "uint256"
                    },
                    {
                      "internalType": "uint256",
                      "name": "month",
                      "type": "uint256"
                    },
                    {
                      "internalType": "uint256",
                      "name": "day",
                      "type": "uint256"
                    }
                  ],
                  "internalType": "struct UserDataTypes.Date",
                  "name": "dateOfBirth",
                  "type": "tuple"
                },
                {
                  "internalType": "string",
                  "name": "nationality",
                  "type": "string"
                },
                {
                  "internalType": "string",
                  "name": "phoneNumber",
                  "type": "string"
                },
                {
                  "internalType": "string",
                  "name": "emailAddress",
                  "type": "string"
                },
                {
                  "internalType": "enum UserDataTypes.UserRole",
                  "name": "role",
                  "type": "uint8"
                },
                {
                  "internalType": "uint256[]",
                  "name": "studyProgramIds",
                  "type": "uint256[]"
                }
              ],
              "internalType": "struct UserDataTypes.UserProfile",
              "name": "profile",
              "type": "tuple"
            }
          ],
          "internalType": "struct UserDataTypes.User[]",
          "name": "",
          "type": "tuple[]"
        }
      ],
      "stateMutability": "view",
      "type": "function"
    },
    {
      "inputs": [],
      "name": "getCoursesLecturingAt",
      "outputs": [
        {
          "components": [
            {
              "internalType": "uint256",
              "name": "courseId",
              "type": "uint256"
            },
            {
              "components": [
                {
                  "internalType": "string",
                  "name": "title",
                  "type": "string"
                },
                {
                  "internalType": "string",
                  "name": "code",
                  "type": "string"
                },
                {
                  "internalType": "enum CourseDataTypes.CourseType",
                  "name": "courseType",
                  "type": "uint8"
                },
                {
                  "components": [
                    {
                      "internalType": "uint256",
                      "name": "year",
                      "type": "uint256"
                    },
                    {
                      "internalType": "enum CourseDataTypes.SemesterSeason",
                      "name": "season",
                      "type": "uint8"
                    }
                  ],
                  "internalType": "struct CourseDataTypes.Semester",
                  "name": "semester",
                  "type": "tuple"
                },
                {
                  "internalType": "string",
                  "name": "description",
                  "type": "string"
                },
                {
                  "internalType": "string",
                  "name": "examTopics",
                  "type": "string"
                },
                {
                  "internalType": "string",
                  "name": "language",
                  "type": "string"
                },
                {
                  "internalType": "uint256",
                  "name": "ects",
                  "type": "uint256"
                },
                {
                  "internalType": "uint256",
                  "name": "maxPlaces",
                  "type": "uint256"
                },
                {
                  "internalType": "uint256",
                  "name": "registrationStart",
                  "type": "uint256"
                },
                {
                  "internalType": "uint256",
                  "name": "registrationDeadline",
                  "type": "uint256"
                },
                {
                  "internalType": "uint256",
                  "name": "deregistrationDeadline",
                  "type": "uint256"
                },
                {
                  "components": [
                    {
                      "internalType": "uint256",
                      "name": "datetime",
                      "type": "uint256"
                    },
                    {
                      "internalType": "string",
                      "name": "place",
                      "type": "string"
                    }
                  ],
                  "internalType": "struct CourseDataTypes.Class[]",
                  "name": "classes",
                  "type": "tuple[]"
                },
                {
                  "components": [
                    {
                      "internalType": "uint256",
                      "name": "grade",
                      "type": "uint256"
                    },
                    {
                      "internalType": "uint256",
                      "name": "minPercentage",
                      "type": "uint256"
                    }
                  ],
                  "internalType": "struct CourseDataTypes.GradeLevel[]",
                  "name": "gradeLevels",
                  "type": "tuple[]"
                },
                {
                  "internalType": "string[]",
                  "name": "requirementCourseCodes",
                  "type": "string[]"
                }
              ],
              "internalType": "struct CourseDataTypes.CourseContent",
              "name": "content",
              "type": "tuple"
            }
          ],
          "internalType": "struct CourseDataTypes.Course[]",
          "name": "",
          "type": "tuple[]"
        }
      ],
      "stateMutability": "view",
      "type": "function"
    },
    {
      "inputs": [
        {
          "internalType": "string",
          "name": "code",
          "type": "string"
        }
      ],
      "name": "getCoursesToCourseCode",
      "outputs": [
        {
          "components": [
            {
              "internalType": "uint256",
              "name": "courseId",
              "type": "uint256"
            },
            {
              "components": [
                {
                  "internalType": "string",
                  "name": "title",
                  "type": "string"
                },
                {
                  "internalType": "string",
                  "name": "code",
                  "type": "string"
                },
                {
                  "internalType": "enum CourseDataTypes.CourseType",
                  "name": "courseType",
                  "type": "uint8"
                },
                {
                  "components": [
                    {
                      "internalType": "uint256",
                      "name": "year",
                      "type": "uint256"
                    },
                    {
                      "internalType": "enum CourseDataTypes.SemesterSeason",
                      "name": "season",
                      "type": "uint8"
                    }
                  ],
                  "internalType": "struct CourseDataTypes.Semester",
                  "name": "semester",
                  "type": "tuple"
                },
                {
                  "internalType": "string",
                  "name": "description",
                  "type": "string"
                },
                {
                  "internalType": "string",
                  "name": "examTopics",
                  "type": "string"
                },
                {
                  "internalType": "string",
                  "name": "language",
                  "type": "string"
                },
                {
                  "internalType": "uint256",
                  "name": "ects",
                  "type": "uint256"
                },
                {
                  "internalType": "uint256",
                  "name": "maxPlaces",
                  "type": "uint256"
                },
                {
                  "internalType": "uint256",
                  "name": "registrationStart",
                  "type": "uint256"
                },
                {
                  "internalType": "uint256",
                  "name": "registrationDeadline",
                  "type": "uint256"
                },
                {
                  "internalType": "uint256",
                  "name": "deregistrationDeadline",
                  "type": "uint256"
                },
                {
                  "components": [
                    {
                      "internalType": "uint256",
                      "name": "datetime",
                      "type": "uint256"
                    },
                    {
                      "internalType": "string",
                      "name": "place",
                      "type": "string"
                    }
                  ],
                  "internalType": "struct CourseDataTypes.Class[]",
                  "name": "classes",
                  "type": "tuple[]"
                },
                {
                  "components": [
                    {
                      "internalType": "uint256",
                      "name": "grade",
                      "type": "uint256"
                    },
                    {
                      "internalType": "uint256",
                      "name": "minPercentage",
                      "type": "uint256"
                    }
                  ],
                  "internalType": "struct CourseDataTypes.GradeLevel[]",
                  "name": "gradeLevels",
                  "type": "tuple[]"
                },
                {
                  "internalType": "string[]",
                  "name": "requirementCourseCodes",
                  "type": "string[]"
                }
              ],
              "internalType": "struct CourseDataTypes.CourseContent",
              "name": "content",
              "type": "tuple"
            }
          ],
          "internalType": "struct CourseDataTypes.Course[]",
          "name": "",
          "type": "tuple[]"
        }
      ],
      "stateMutability": "view",
      "type": "function"
    },
    {
      "inputs": [
        {
          "internalType": "uint256",
          "name": "programId",
          "type": "uint256"
        }
      ],
      "name": "getCoursesToStudyProgram",
      "outputs": [
        {
          "components": [
            {
              "internalType": "uint256",
              "name": "courseId",
              "type": "uint256"
            },
            {
              "components": [
                {
                  "internalType": "string",
                  "name": "title",
                  "type": "string"
                },
                {
                  "internalType": "string",
                  "name": "code",
                  "type": "string"
                },
                {
                  "internalType": "enum CourseDataTypes.CourseType",
                  "name": "courseType",
                  "type": "uint8"
                },
                {
                  "components": [
                    {
                      "internalType": "uint256",
                      "name": "year",
                      "type": "uint256"
                    },
                    {
                      "internalType": "enum CourseDataTypes.SemesterSeason",
                      "name": "season",
                      "type": "uint8"
                    }
                  ],
                  "internalType": "struct CourseDataTypes.Semester",
                  "name": "semester",
                  "type": "tuple"
                },
                {
                  "internalType": "string",
                  "name": "description",
                  "type": "string"
                },
                {
                  "internalType": "string",
                  "name": "examTopics",
                  "type": "string"
                },
                {
                  "internalType": "string",
                  "name": "language",
                  "type": "string"
                },
                {
                  "internalType": "uint256",
                  "name": "ects",
                  "type": "uint256"
                },
                {
                  "internalType": "uint256",
                  "name": "maxPlaces",
                  "type": "uint256"
                },
                {
                  "internalType": "uint256",
                  "name": "registrationStart",
                  "type": "uint256"
                },
                {
                  "internalType": "uint256",
                  "name": "registrationDeadline",
                  "type": "uint256"
                },
                {
                  "internalType": "uint256",
                  "name": "deregistrationDeadline",
                  "type": "uint256"
                },
                {
                  "components": [
                    {
                      "internalType": "uint256",
                      "name": "datetime",
                      "type": "uint256"
                    },
                    {
                      "internalType": "string",
                      "name": "place",
                      "type": "string"
                    }
                  ],
                  "internalType": "struct CourseDataTypes.Class[]",
                  "name": "classes",
                  "type": "tuple[]"
                },
                {
                  "components": [
                    {
                      "internalType": "uint256",
                      "name": "grade",
                      "type": "uint256"
                    },
                    {
                      "internalType": "uint256",
                      "name": "minPercentage",
                      "type": "uint256"
                    }
                  ],
                  "internalType": "struct CourseDataTypes.GradeLevel[]",
                  "name": "gradeLevels",
                  "type": "tuple[]"
                },
                {
                  "internalType": "string[]",
                  "name": "requirementCourseCodes",
                  "type": "string[]"
                }
              ],
              "internalType": "struct CourseDataTypes.CourseContent",
              "name": "content",
              "type": "tuple"
            }
          ],
          "internalType": "struct CourseDataTypes.Course[]",
          "name": "",
          "type": "tuple[]"
        }
      ],
      "stateMutability": "view",
      "type": "function"
    },
    {
      "inputs": [],
      "name": "getRegisteredCourses",
      "outputs": [
        {
          "components": [
            {
              "internalType": "uint256",
              "name": "courseId",
              "type": "uint256"
            },
            {
              "components": [
                {
                  "internalType": "string",
                  "name": "title",
                  "type": "string"
                },
                {
                  "internalType": "string",
                  "name": "code",
                  "type": "string"
                },
                {
                  "internalType": "enum CourseDataTypes.CourseType",
                  "name": "courseType",
                  "type": "uint8"
                },
                {
                  "components": [
                    {
                      "internalType": "uint256",
                      "name": "year",
                      "type": "uint256"
                    },
                    {
                      "internalType": "enum CourseDataTypes.SemesterSeason",
                      "name": "season",
                      "type": "uint8"
                    }
                  ],
                  "internalType": "struct CourseDataTypes.Semester",
                  "name": "semester",
                  "type": "tuple"
                },
                {
                  "internalType": "string",
                  "name": "description",
                  "type": "string"
                },
                {
                  "internalType": "string",
                  "name": "examTopics",
                  "type": "string"
                },
                {
                  "internalType": "string",
                  "name": "language",
                  "type": "string"
                },
                {
                  "internalType": "uint256",
                  "name": "ects",
                  "type": "uint256"
                },
                {
                  "internalType": "uint256",
                  "name": "maxPlaces",
                  "type": "uint256"
                },
                {
                  "internalType": "uint256",
                  "name": "registrationStart",
                  "type": "uint256"
                },
                {
                  "internalType": "uint256",
                  "name": "registrationDeadline",
                  "type": "uint256"
                },
                {
                  "internalType": "uint256",
                  "name": "deregistrationDeadline",
                  "type": "uint256"
                },
                {
                  "components": [
                    {
                      "internalType": "uint256",
                      "name": "datetime",
                      "type": "uint256"
                    },
                    {
                      "internalType": "string",
                      "name": "place",
                      "type": "string"
                    }
                  ],
                  "internalType": "struct CourseDataTypes.Class[]",
                  "name": "classes",
                  "type": "tuple[]"
                },
                {
                  "components": [
                    {
                      "internalType": "uint256",
                      "name": "grade",
                      "type": "uint256"
                    },
                    {
                      "internalType": "uint256",
                      "name": "minPercentage",
                      "type": "uint256"
                    }
                  ],
                  "internalType": "struct CourseDataTypes.GradeLevel[]",
                  "name": "gradeLevels",
                  "type": "tuple[]"
                },
                {
                  "internalType": "string[]",
                  "name": "requirementCourseCodes",
                  "type": "string[]"
                }
              ],
              "internalType": "struct CourseDataTypes.CourseContent",
              "name": "content",
              "type": "tuple"
            }
          ],
          "internalType": "struct CourseDataTypes.Course[]",
          "name": "",
          "type": "tuple[]"
        }
      ],
      "stateMutability": "view",
      "type": "function"
    },
    {
      "inputs": [
        {
          "internalType": "uint256",
          "name": "studentUId",
          "type": "uint256"
        }
      ],
      "name": "getRegisteredCoursesOfStudent",
      "outputs": [
        {
          "components": [
            {
              "internalType": "uint256",
              "name": "courseId",
              "type": "uint256"
            },
            {
              "components": [
                {
                  "internalType": "string",
                  "name": "title",
                  "type": "string"
                },
                {
                  "internalType": "string",
                  "name": "code",
                  "type": "string"
                },
                {
                  "internalType": "enum CourseDataTypes.CourseType",
                  "name": "courseType",
                  "type": "uint8"
                },
                {
                  "components": [
                    {
                      "internalType": "uint256",
                      "name": "year",
                      "type": "uint256"
                    },
                    {
                      "internalType": "enum CourseDataTypes.SemesterSeason",
                      "name": "season",
                      "type": "uint8"
                    }
                  ],
                  "internalType": "struct CourseDataTypes.Semester",
                  "name": "semester",
                  "type": "tuple"
                },
                {
                  "internalType": "string",
                  "name": "description",
                  "type": "string"
                },
                {
                  "internalType": "string",
                  "name": "examTopics",
                  "type": "string"
                },
                {
                  "internalType": "string",
                  "name": "language",
                  "type": "string"
                },
                {
                  "internalType": "uint256",
                  "name": "ects",
                  "type": "uint256"
                },
                {
                  "internalType": "uint256",
                  "name": "maxPlaces",
                  "type": "uint256"
                },
                {
                  "internalType": "uint256",
                  "name": "registrationStart",
                  "type": "uint256"
                },
                {
                  "internalType": "uint256",
                  "name": "registrationDeadline",
                  "type": "uint256"
                },
                {
                  "internalType": "uint256",
                  "name": "deregistrationDeadline",
                  "type": "uint256"
                },
                {
                  "components": [
                    {
                      "internalType": "uint256",
                      "name": "datetime",
                      "type": "uint256"
                    },
                    {
                      "internalType": "string",
                      "name": "place",
                      "type": "string"
                    }
                  ],
                  "internalType": "struct CourseDataTypes.Class[]",
                  "name": "classes",
                  "type": "tuple[]"
                },
                {
                  "components": [
                    {
                      "internalType": "uint256",
                      "name": "grade",
                      "type": "uint256"
                    },
                    {
                      "internalType": "uint256",
                      "name": "minPercentage",
                      "type": "uint256"
                    }
                  ],
                  "internalType": "struct CourseDataTypes.GradeLevel[]",
                  "name": "gradeLevels",
                  "type": "tuple[]"
                },
                {
                  "internalType": "string[]",
                  "name": "requirementCourseCodes",
                  "type": "string[]"
                }
              ],
              "internalType": "struct CourseDataTypes.CourseContent",
              "name": "content",
              "type": "tuple"
            }
          ],
          "internalType": "struct CourseDataTypes.Course[]",
          "name": "",
          "type": "tuple[]"
        }
      ],
      "stateMutability": "view",
      "type": "function"
    }
  ],
  "bytecode": "0x60806040523480156200001157600080fd5b50604051620031b2380380620031b28339818101604052810190620000379190620001ed565b8280806000806101000a81548173ffffffffffffffffffffffffffffffffffffffff021916908373ffffffffffffffffffffffffffffffffffffffff16021790555050506200008c83620000b760201b60201c565b6200009d82620000fb60201b60201c565b620000ae816200013f60201b60201c565b50505062000249565b80600160006101000a81548173ffffffffffffffffffffffffffffffffffffffff021916908373ffffffffffffffffffffffffffffffffffffffff16021790555050565b80600260006101000a81548173ffffffffffffffffffffffffffffffffffffffff021916908373ffffffffffffffffffffffffffffffffffffffff16021790555050565b80600360006101000a81548173ffffffffffffffffffffffffffffffffffffffff021916908373ffffffffffffffffffffffffffffffffffffffff16021790555050565b600080fd5b600073ffffffffffffffffffffffffffffffffffffffff82169050919050565b6000620001b58262000188565b9050919050565b620001c781620001a8565b8114620001d357600080fd5b50565b600081519050620001e781620001bc565b92915050565b60008060006060848603121562000209576200020862000183565b5b60006200021986828701620001d6565b93505060206200022c86828701620001d6565b92505060406200023f86828701620001d6565b9150509250925092565b612f5980620002596000396000f3fe608060405234801561001057600080fd5b50600436106100885760003560e01c8063893c592b1161005b578063893c592b14610129578063bef7a57114610159578063ce0a0a9314610177578063e094ed2a1461019557610088565b806304e48bd11461008d57806308bcb4a4146100ab578063111f3b5a146100c957806360270c7c146100f9575b600080fd5b6100956101c5565b6040516100a2919061178d565b60405180910390f35b6100b3610262565b6040516100c0919061178d565b60405180910390f35b6100e360048036038101906100de91906117ef565b6104ab565b6040516100f0919061178d565b60405180910390f35b610113600480360381019061010e91906117ef565b610555565b6040516101209190611b86565b60405180910390f35b610143600480360381019061013e91906117ef565b610940565b604051610150919061178d565b60405180910390f35b610161610b15565b60405161016e9190611c2e565b60405180910390f35b61017f610bb2565b60405161018c919061178d565b60405180910390f35b6101af60048036038101906101aa9190611cb5565b610dfb565b6040516101bc919061178d565b60405180910390f35b6060600260009054906101000a900473ffffffffffffffffffffffffffffffffffffffff1673ffffffffffffffffffffffffffffffffffffffff166304e48bd16040518163ffffffff1660e01b8152600401600060405180830381865afa158015610234573d6000803e3d6000fd5b505050506040513d6000823e3d601f19601f8201168201806040525081019061025d91906125af565b905090565b606060006002811115610278576102776111b8565b5b60008054906101000a900473ffffffffffffffffffffffffffffffffffffffff1673ffffffffffffffffffffffffffffffffffffffff1663dd8b2914336040518263ffffffff1660e01b81526004016102d19190612639565b602060405180830381865afa1580156102ee573d6000803e3d6000fd5b505050506040513d601f19601f820116820180604052508101906103129190612679565b6002811115610324576103236111b8565b5b14610364576040517f08c379a000000000000000000000000000000000000000000000000000000000815260040161035b90612703565b60405180910390fd5b6000600160009054906101000a900473ffffffffffffffffffffffffffffffffffffffff1673ffffffffffffffffffffffffffffffffffffffff1663e3d7e14c336040518263ffffffff1660e01b81526004016103c19190612639565b602060405180830381865afa1580156103de573d6000803e3d6000fd5b505050506040513d601f19601f820116820180604052508101906104029190612723565b9050600260009054906101000a900473ffffffffffffffffffffffffffffffffffffffff1673ffffffffffffffffffffffffffffffffffffffff1663916ae6bb826040518263ffffffff1660e01b815260040161045f919061275f565b600060405180830381865afa15801561047c573d6000803e3d6000fd5b505050506040513d6000823e3d601f19601f820116820180604052508101906104a591906125af565b91505090565b6060600260009054906101000a900473ffffffffffffffffffffffffffffffffffffffff1673ffffffffffffffffffffffffffffffffffffffff1663d56e8ee2836040518263ffffffff1660e01b8152600401610508919061275f565b600060405180830381865afa158015610525573d6000803e3d6000fd5b505050506040513d6000823e3d601f19601f8201168201806040525081019061054e91906125af565b9050919050565b606080600360009054906101000a900473ffffffffffffffffffffffffffffffffffffffff1673ffffffffffffffffffffffffffffffffffffffff166330938d70846040518263ffffffff1660e01b81526004016105b3919061275f565b602060405180830381865afa1580156105d0573d6000803e3d6000fd5b505050506040513d601f19601f820116820180604052508101906105f491906127b2565b156106a157600360009054906101000a900473ffffffffffffffffffffffffffffffffffffffff1673ffffffffffffffffffffffffffffffffffffffff1663e285fd25846040518263ffffffff1660e01b8152600401610654919061275f565b600060405180830381865afa158015610671573d6000803e3d6000fd5b505050506040513d6000823e3d601f19601f8201168201806040525081019061069a91906128a2565b90506107e6565b6000600360009054906101000a900473ffffffffffffffffffffffffffffffffffffffff1673ffffffffffffffffffffffffffffffffffffffff1663a31cf91f856040518263ffffffff1660e01b81526004016106fe919061275f565b602060405180830381865afa15801561071b573d6000803e3d6000fd5b505050506040513d601f19601f8201168201806040525081019061073f9190612723565b9050600260009054906101000a900473ffffffffffffffffffffffffffffffffffffffff1673ffffffffffffffffffffffffffffffffffffffff16636f4f5878826040518263ffffffff1660e01b815260040161079c919061275f565b600060405180830381865afa1580156107b9573d6000803e3d6000fd5b505050506040513d6000823e3d601f19601f820116820180604052508101906107e291906128a2565b9150505b6000815167ffffffffffffffff81111561080357610802611d02565b5b60405190808252806020026020018201604052801561083c57816020015b61082961102c565b8152602001906001900390816108215790505b50905060005b825181101561093557600160009054906101000a900473ffffffffffffffffffffffffffffffffffffffff1673ffffffffffffffffffffffffffffffffffffffff1663b0467deb84838151811061089c5761089b6128eb565b5b60200260200101516040518263ffffffff1660e01b81526004016108c0919061275f565b600060405180830381865afa1580156108dd573d6000803e3d6000fd5b505050506040513d6000823e3d601f19601f820116820180604052508101906109069190612b99565b828281518110610919576109186128eb565b5b60200260200101819052508061092e90612c11565b9050610842565b508092505050919050565b6060600280811115610955576109546111b8565b5b60008054906101000a900473ffffffffffffffffffffffffffffffffffffffff1673ffffffffffffffffffffffffffffffffffffffff1663dd8b2914336040518263ffffffff1660e01b81526004016109ae9190612639565b602060405180830381865afa1580156109cb573d6000803e3d6000fd5b505050506040513d601f19601f820116820180604052508101906109ef9190612679565b6002811115610a0157610a006111b8565b5b14610a41576040517f08c379a0000000000000000000000000000000000000000000000000000000008152600401610a3890612ccb565b60405180910390fd5b610a6d82600160009054906101000a900473ffffffffffffffffffffffffffffffffffffffff16610f48565b600260009054906101000a900473ffffffffffffffffffffffffffffffffffffffff1673ffffffffffffffffffffffffffffffffffffffff1663916ae6bb836040518263ffffffff1660e01b8152600401610ac8919061275f565b600060405180830381865afa158015610ae5573d6000803e3d6000fd5b505050506040513d6000823e3d601f19601f82011682018060405250810190610b0e91906125af565b9050919050565b6060600260009054906101000a900473ffffffffffffffffffffffffffffffffffffffff1673ffffffffffffffffffffffffffffffffffffffff1663bef7a5716040518163ffffffff1660e01b8152600401600060405180830381865afa158015610b84573d6000803e3d6000fd5b505050506040513d6000823e3d601f19601f82011682018060405250810190610bad9190612ceb565b905090565b606060016002811115610bc857610bc76111b8565b5b60008054906101000a900473ffffffffffffffffffffffffffffffffffffffff1673ffffffffffffffffffffffffffffffffffffffff1663dd8b2914336040518263ffffffff1660e01b8152600401610c219190612639565b602060405180830381865afa158015610c3e573d6000803e3d6000fd5b505050506040513d601f19601f82011682018060405250810190610c629190612679565b6002811115610c7457610c736111b8565b5b14610cb4576040517f08c379a0000000000000000000000000000000000000000000000000000000008152600401610cab90612d80565b60405180910390fd5b6000600160009054906101000a900473ffffffffffffffffffffffffffffffffffffffff1673ffffffffffffffffffffffffffffffffffffffff1663e3d7e14c336040518263ffffffff1660e01b8152600401610d119190612639565b602060405180830381865afa158015610d2e573d6000803e3d6000fd5b505050506040513d601f19601f82011682018060405250810190610d529190612723565b9050600260009054906101000a900473ffffffffffffffffffffffffffffffffffffffff1673ffffffffffffffffffffffffffffffffffffffff16635268561f826040518263ffffffff1660e01b8152600401610daf919061275f565b600060405180830381865afa158015610dcc573d6000803e3d6000fd5b505050506040513d6000823e3d601f19601f82011682018060405250810190610df591906125af565b91505090565b6060600260009054906101000a900473ffffffffffffffffffffffffffffffffffffffff1673ffffffffffffffffffffffffffffffffffffffff1663cf6c702d600260009054906101000a900473ffffffffffffffffffffffffffffffffffffffff1673ffffffffffffffffffffffffffffffffffffffff166389eb61df86866040518363ffffffff1660e01b8152600401610e98929190612ddc565b600060405180830381865afa158015610eb5573d6000803e3d6000fd5b505050506040513d6000823e3d601f19601f82011682018060405250810190610ede91906128a2565b6040518263ffffffff1660e01b8152600401610efa9190612e6f565b600060405180830381865afa158015610f17573d6000803e3d6000fd5b505050506040513d6000823e3d601f19601f82011682018060405250810190610f4091906125af565b905092915050565b60006002811115610f5c57610f5b6111b8565b5b8173ffffffffffffffffffffffffffffffffffffffff1663bdf3e912846040518263ffffffff1660e01b8152600401610f95919061275f565b602060405180830381865afa158015610fb2573d6000803e3d6000fd5b505050506040513d601f19601f82011682018060405250810190610fd69190612679565b6002811115610fe857610fe76111b8565b5b14611028576040517f08c379a000000000000000000000000000000000000000000000000000000000815260040161101f90612f03565b60405180910390fd5b5050565b60405180604001604052806000815260200161104661104c565b81525090565b60405180610120016040528060608152602001606081526020016000600281111561107a576110796111b8565b5b81526020016110876110c2565b8152602001606081526020016060815260200160608152602001600060028111156110b5576110b46111b8565b5b8152602001606081525090565b60405180606001604052806000815260200160008152602001600081525090565b600081519050919050565b600082825260208201905092915050565b6000819050602082019050919050565b6000819050919050565b6111228161110f565b82525050565b600081519050919050565b600082825260208201905092915050565b60005b83811015611162578082015181840152602081019050611147565b60008484015250505050565b6000601f19601f8301169050919050565b600061118a82611128565b6111948185611133565b93506111a4818560208601611144565b6111ad8161116e565b840191505092915050565b7f4e487b7100000000000000000000000000000000000000000000000000000000600052602160045260246000fd5b600481106111f8576111f76111b8565b5b50565b6000819050611209826111e7565b919050565b6000611219826111fb565b9050919050565b6112298161120e565b82525050565b600281106112405761123f6111b8565b5b50565b60008190506112518261122f565b919050565b600061126182611243565b9050919050565b61127181611256565b82525050565b60408201600082015161128d6000850182611119565b5060208201516112a06020850182611268565b50505050565b600081519050919050565b600082825260208201905092915050565b6000819050602082019050919050565b60006040830160008301516112ea6000860182611119565b5060208301518482036020860152611302828261117f565b9150508091505092915050565b600061131b83836112d2565b905092915050565b6000602082019050919050565b600061133b826112a6565b61134581856112b1565b935083602082028501611357856112c2565b8060005b858110156113935784840389528151611374858261130f565b945061137f83611323565b925060208a0199505060018101905061135b565b50829750879550505050505092915050565b600081519050919050565b600082825260208201905092915050565b6000819050602082019050919050565b6040820160008201516113e76000850182611119565b5060208201516113fa6020850182611119565b50505050565b600061140c83836113d1565b60408301905092915050565b6000602082019050919050565b6000611430826113a5565b61143a81856113b0565b9350611445836113c1565b8060005b8381101561147657815161145d8882611400565b975061146883611418565b925050600181019050611449565b5085935050505092915050565b600081519050919050565b600082825260208201905092915050565b6000819050602082019050919050565b60006114bb838361117f565b905092915050565b6000602082019050919050565b60006114db82611483565b6114e5818561148e565b9350836020820285016114f78561149f565b8060005b85811015611533578484038952815161151485826114af565b945061151f836114c3565b925060208a019950506001810190506114fb565b50829750879550505050505092915050565b6000610200830160008301518482036000860152611563828261117f565b9150506020830151848203602086015261157d828261117f565b91505060408301516115926040860182611220565b5060608301516115a56060860182611277565b50608083015184820360a08601526115bd828261117f565b91505060a083015184820360c08601526115d7828261117f565b91505060c083015184820360e08601526115f1828261117f565b91505060e0830151611607610100860182611119565b5061010083015161161c610120860182611119565b50610120830151611631610140860182611119565b50610140830151611646610160860182611119565b5061016083015161165b610180860182611119565b506101808301518482036101a08601526116758282611330565b9150506101a08301518482036101c08601526116918282611425565b9150506101c08301518482036101e08601526116ad82826114d0565b9150508091505092915050565b60006040830160008301516116d26000860182611119565b50602083015184820360208601526116ea8282611545565b9150508091505092915050565b600061170383836116ba565b905092915050565b6000602082019050919050565b6000611723826110e3565b61172d81856110ee565b93508360208202850161173f856110ff565b8060005b8581101561177b578484038952815161175c85826116f7565b94506117678361170b565b925060208a01995050600181019050611743565b50829750879550505050505092915050565b600060208201905081810360008301526117a78184611718565b905092915050565b6000604051905090565b600080fd5b600080fd5b6117cc8161110f565b81146117d757600080fd5b50565b6000813590506117e9816117c3565b92915050565b600060208284031215611805576118046117b9565b5b6000611813848285016117da565b91505092915050565b600081519050919050565b600082825260208201905092915050565b6000819050602082019050919050565b60038110611859576118586111b8565b5b50565b600081905061186a82611848565b919050565b600061187a8261185c565b9050919050565b61188a8161186f565b82525050565b6060820160008201516118a66000850182611119565b5060208201516118b96020850182611119565b5060408201516118cc6040850182611119565b50505050565b600381106118e3576118e26111b8565b5b50565b60008190506118f4826118d2565b919050565b6000611904826118e6565b9050919050565b611914816118f9565b82525050565b600081519050919050565b600082825260208201905092915050565b6000819050602082019050919050565b60006119528383611119565b60208301905092915050565b6000602082019050919050565b60006119768261191a565b6119808185611925565b935061198b83611936565b8060005b838110156119bc5781516119a38882611946565b97506119ae8361195e565b92505060018101905061198f565b5085935050505092915050565b60006101608301600083015184820360008601526119e7828261117f565b91505060208301518482036020860152611a01828261117f565b9150506040830151611a166040860182611881565b506060830151611a296060860182611890565b50608083015184820360c0860152611a41828261117f565b91505060a083015184820360e0860152611a5b828261117f565b91505060c0830151848203610100860152611a76828261117f565b91505060e0830151611a8c61012086018261190b565b50610100830151848203610140860152611aa6828261196b565b9150508091505092915050565b6000604083016000830151611acb6000860182611119565b5060208301518482036020860152611ae382826119c9565b9150508091505092915050565b6000611afc8383611ab3565b905092915050565b6000602082019050919050565b6000611b1c8261181c565b611b268185611827565b935083602082028501611b3885611838565b8060005b85811015611b745784840389528151611b558582611af0565b9450611b6083611b04565b925060208a01995050600181019050611b3c565b50829750879550505050505092915050565b60006020820190508181036000830152611ba08184611b11565b905092915050565b600082825260208201905092915050565b6000611bc482611483565b611bce8185611ba8565b935083602082028501611be08561149f565b8060005b85811015611c1c5784840389528151611bfd85826114af565b9450611c08836114c3565b925060208a01995050600181019050611be4565b50829750879550505050505092915050565b60006020820190508181036000830152611c488184611bb9565b905092915050565b600080fd5b600080fd5b600080fd5b60008083601f840112611c7557611c74611c50565b5b8235905067ffffffffffffffff811115611c9257611c91611c55565b5b602083019150836001820283011115611cae57611cad611c5a565b5b9250929050565b60008060208385031215611ccc57611ccb6117b9565b5b600083013567ffffffffffffffff811115611cea57611ce96117be565b5b611cf685828601611c5f565b92509250509250929050565b7f4e487b7100000000000000000000000000000000000000000000000000000000600052604160045260246000fd5b611d3a8261116e565b810181811067ffffffffffffffff82111715611d5957611d58611d02565b5b80604052505050565b6000611d6c6117af565b9050611d788282611d31565b919050565b600067ffffffffffffffff821115611d9857611d97611d02565b5b602082029050602081019050919050565b600080fd5b600080fd5b600081519050611dc2816117c3565b92915050565b600080fd5b600067ffffffffffffffff821115611de857611de7611d02565b5b611df18261116e565b9050602081019050919050565b6000611e11611e0c84611dcd565b611d62565b905082815260208101848484011115611e2d57611e2c611dc8565b5b611e38848285611144565b509392505050565b600082601f830112611e5557611e54611c50565b5b8151611e65848260208601611dfe565b91505092915050565b60048110611e7b57600080fd5b50565b600081519050611e8d81611e6e565b92915050565b60028110611ea057600080fd5b50565b600081519050611eb281611e93565b92915050565b600060408284031215611ece57611ecd611da9565b5b611ed86040611d62565b90506000611ee884828501611db3565b6000830152506020611efc84828501611ea3565b60208301525092915050565b600067ffffffffffffffff821115611f2357611f22611d02565b5b602082029050602081019050919050565b600060408284031215611f4a57611f49611da9565b5b611f546040611d62565b90506000611f6484828501611db3565b600083015250602082015167ffffffffffffffff811115611f8857611f87611dae565b5b611f9484828501611e40565b60208301525092915050565b6000611fb3611fae84611f08565b611d62565b90508083825260208201905060208402830185811115611fd657611fd5611c5a565b5b835b8181101561201d57805167ffffffffffffffff811115611ffb57611ffa611c50565b5b8086016120088982611f34565b85526020850194505050602081019050611fd8565b5050509392505050565b600082601f83011261203c5761203b611c50565b5b815161204c848260208601611fa0565b91505092915050565b600067ffffffffffffffff8211156120705761206f611d02565b5b602082029050602081019050919050565b60006040828403121561209757612096611da9565b5b6120a16040611d62565b905060006120b184828501611db3565b60008301525060206120c584828501611db3565b60208301525092915050565b60006120e46120df84612055565b611d62565b9050808382526020820190506040840283018581111561210757612106611c5a565b5b835b81811015612130578061211c8882612081565b845260208401935050604081019050612109565b5050509392505050565b600082601f83011261214f5761214e611c50565b5b815161215f8482602086016120d1565b91505092915050565b600067ffffffffffffffff82111561218357612182611d02565b5b602082029050602081019050919050565b60006121a76121a284612168565b611d62565b905080838252602082019050602084028301858111156121ca576121c9611c5a565b5b835b8181101561221157805167ffffffffffffffff8111156121ef576121ee611c50565b5b8086016121fc8982611e40565b855260208501945050506020810190506121cc565b5050509392505050565b600082601f8301126122305761222f611c50565b5b8151612240848260208601612194565b91505092915050565b600061020082840312156122605761225f611da9565b5b61226b6101e0611d62565b9050600082015167ffffffffffffffff81111561228b5761228a611dae565b5b61229784828501611e40565b600083015250602082015167ffffffffffffffff8111156122bb576122ba611dae565b5b6122c784828501611e40565b60208301525060406122db84828501611e7e565b60408301525060606122ef84828501611eb8565b60608301525060a082015167ffffffffffffffff81111561231357612312611dae565b5b61231f84828501611e40565b60808301525060c082015167ffffffffffffffff81111561234357612342611dae565b5b61234f84828501611e40565b60a08301525060e082015167ffffffffffffffff81111561237357612372611dae565b5b61237f84828501611e40565b60c08301525061010061239484828501611db3565b60e0830152506101206123a984828501611db3565b610100830152506101406123bf84828501611db3565b610120830152506101606123d584828501611db3565b610140830152506101806123eb84828501611db3565b610160830152506101a082015167ffffffffffffffff81111561241157612410611dae565b5b61241d84828501612027565b610180830152506101c082015167ffffffffffffffff81111561244357612442611dae565b5b61244f8482850161213a565b6101a0830152506101e082015167ffffffffffffffff81111561247557612474611dae565b5b6124818482850161221b565b6101c08301525092915050565b6000604082840312156124a4576124a3611da9565b5b6124ae6040611d62565b905060006124be84828501611db3565b600083015250602082015167ffffffffffffffff8111156124e2576124e1611dae565b5b6124ee84828501612249565b60208301525092915050565b600061250d61250884611d7d565b611d62565b905080838252602082019050602084028301858111156125305761252f611c5a565b5b835b8181101561257757805167ffffffffffffffff81111561255557612554611c50565b5b808601612562898261248e565b85526020850194505050602081019050612532565b5050509392505050565b600082601f83011261259657612595611c50565b5b81516125a68482602086016124fa565b91505092915050565b6000602082840312156125c5576125c46117b9565b5b600082015167ffffffffffffffff8111156125e3576125e26117be565b5b6125ef84828501612581565b91505092915050565b600073ffffffffffffffffffffffffffffffffffffffff82169050919050565b6000612623826125f8565b9050919050565b61263381612618565b82525050565b600060208201905061264e600083018461262a565b92915050565b6003811061266157600080fd5b50565b60008151905061267381612654565b92915050565b60006020828403121561268f5761268e6117b9565b5b600061269d84828501612664565b91505092915050565b600082825260208201905092915050565b7f53656e646572206d75737420626520612073747564656e740000000000000000600082015250565b60006126ed6018836126a6565b91506126f8826126b7565b602082019050919050565b6000602082019050818103600083015261271c816126e0565b9050919050565b600060208284031215612739576127386117b9565b5b600061274784828501611db3565b91505092915050565b6127598161110f565b82525050565b60006020820190506127746000830184612750565b92915050565b60008115159050919050565b61278f8161277a565b811461279a57600080fd5b50565b6000815190506127ac81612786565b92915050565b6000602082840312156127c8576127c76117b9565b5b60006127d68482850161279d565b91505092915050565b600067ffffffffffffffff8211156127fa576127f9611d02565b5b602082029050602081019050919050565b600061281e612819846127df565b611d62565b9050808382526020820190506020840283018581111561284157612840611c5a565b5b835b8181101561286a57806128568882611db3565b845260208401935050602081019050612843565b5050509392505050565b600082601f83011261288957612888611c50565b5b815161289984826020860161280b565b91505092915050565b6000602082840312156128b8576128b76117b9565b5b600082015167ffffffffffffffff8111156128d6576128d56117be565b5b6128e284828501612874565b91505092915050565b7f4e487b7100000000000000000000000000000000000000000000000000000000600052603260045260246000fd5b6003811061292757600080fd5b50565b6000815190506129398161291a565b92915050565b60006060828403121561295557612954611da9565b5b61295f6060611d62565b9050600061296f84828501611db3565b600083015250602061298384828501611db3565b602083015250604061299784828501611db3565b60408301525092915050565b600061016082840312156129ba576129b9611da9565b5b6129c5610120611d62565b9050600082015167ffffffffffffffff8111156129e5576129e4611dae565b5b6129f184828501611e40565b600083015250602082015167ffffffffffffffff811115612a1557612a14611dae565b5b612a2184828501611e40565b6020830152506040612a358482850161292a565b6040830152506060612a498482850161293f565b60608301525060c082015167ffffffffffffffff811115612a6d57612a6c611dae565b5b612a7984828501611e40565b60808301525060e082015167ffffffffffffffff811115612a9d57612a9c611dae565b5b612aa984828501611e40565b60a08301525061010082015167ffffffffffffffff811115612ace57612acd611dae565b5b612ada84828501611e40565b60c083015250610120612aef84828501612664565b60e08301525061014082015167ffffffffffffffff811115612b1457612b13611dae565b5b612b2084828501612874565b6101008301525092915050565b600060408284031215612b4357612b42611da9565b5b612b4d6040611d62565b90506000612b5d84828501611db3565b600083015250602082015167ffffffffffffffff811115612b8157612b80611dae565b5b612b8d848285016129a3565b60208301525092915050565b600060208284031215612baf57612bae6117b9565b5b600082015167ffffffffffffffff811115612bcd57612bcc6117be565b5b612bd984828501612b2d565b91505092915050565b7f4e487b7100000000000000000000000000000000000000000000000000000000600052601160045260246000fd5b6000612c1c8261110f565b91507fffffffffffffffffffffffffffffffffffffffffffffffffffffffffffffffff8203612c4e57612c4d612be2565b5b600182019050919050565b7f53656e646572206d75737420626520612073747564792070726f6772616d206d60008201527f616e616765720000000000000000000000000000000000000000000000000000602082015250565b6000612cb56026836126a6565b9150612cc082612c59565b604082019050919050565b60006020820190508181036000830152612ce481612ca8565b9050919050565b600060208284031215612d0157612d006117b9565b5b600082015167ffffffffffffffff811115612d1f57612d1e6117be565b5b612d2b8482850161221b565b91505092915050565b7f53656e646572206d7573742062652061206c6563747572657200000000000000600082015250565b6000612d6a6019836126a6565b9150612d7582612d34565b602082019050919050565b60006020820190508181036000830152612d9981612d5d565b9050919050565b82818337600083830152505050565b6000612dbb83856126a6565b9350612dc8838584612da0565b612dd18361116e565b840190509392505050565b60006020820190508181036000830152612df7818486612daf565b90509392505050565b600082825260208201905092915050565b6000612e1c8261191a565b612e268185612e00565b9350612e3183611936565b8060005b83811015612e62578151612e498882611946565b9750612e548361195e565b925050600181019050612e35565b5085935050505092915050565b60006020820190508181036000830152612e898184612e11565b905092915050565b7f54686520676976656e2075494420646f6573206e6f742062656c6f6e6720746f60008201527f20612073747564656e7400000000000000000000000000000000000000000000602082015250565b6000612eed602a836126a6565b9150612ef882612e91565b604082019050919050565b60006020820190508181036000830152612f1c81612ee0565b905091905056fea26469706673582212203071897727ab9a0fc9b5abd4fd9afd7c2390ae20459c54209458e2444d67f56064736f6c63430008110033",
  "linkReferences": {},
  "deployedLinkReferences": {}
}