{
  "_format": "hh-sol-artifact-1",
  "contractName": "CourseView",
  "sourceName": "contracts/view/CourseView.sol",
  "abi": [
    {
      "inputs": [
        {
          "internalType": "address",
          "name": "addressBookAddress",
          "type": "address"
        }
      ],
      "stateMutability": "nonpayable",
      "type": "constructor"
    },
    {
      "inputs": [],
      "name": "getAllCourseCodes",
      "outputs": [
        {
          "internalType": "string[]",
          "name": "",
          "type": "string[]"
        }
      ],
      "stateMutability": "view",
      "type": "function"
    },
    {
      "inputs": [],
      "name": "getAllCourses",
      "outputs": [
        {
          "components": [
            {
              "internalType": "uint256",
              "name": "courseId",
              "type": "uint256"
            },
            {
              "components": [
                {
                  "internalType": "string",
                  "name": "title",
                  "type": "string"
                },
                {
                  "internalType": "string",
                  "name": "code",
                  "type": "string"
                },
                {
                  "internalType": "enum CourseDataTypes.CourseType",
                  "name": "courseType",
                  "type": "uint8"
                },
                {
                  "components": [
                    {
                      "internalType": "uint256",
                      "name": "year",
                      "type": "uint256"
                    },
                    {
                      "internalType": "enum CourseDataTypes.SemesterSeason",
                      "name": "season",
                      "type": "uint8"
                    }
                  ],
                  "internalType": "struct CourseDataTypes.Semester",
                  "name": "semester",
                  "type": "tuple"
                },
                {
                  "internalType": "string",
                  "name": "description",
                  "type": "string"
                },
                {
                  "internalType": "string",
                  "name": "examTopics",
                  "type": "string"
                },
                {
                  "internalType": "string",
                  "name": "language",
                  "type": "string"
                },
                {
                  "internalType": "uint256",
                  "name": "ects",
                  "type": "uint256"
                },
                {
                  "internalType": "uint256",
                  "name": "maxPlaces",
                  "type": "uint256"
                },
                {
                  "internalType": "uint256",
                  "name": "registrationStart",
                  "type": "uint256"
                },
                {
                  "internalType": "uint256",
                  "name": "registrationDeadline",
                  "type": "uint256"
                },
                {
                  "internalType": "uint256",
                  "name": "deregistrationDeadline",
                  "type": "uint256"
                },
                {
                  "components": [
                    {
                      "internalType": "uint256",
                      "name": "datetime",
                      "type": "uint256"
                    },
                    {
                      "internalType": "string",
                      "name": "place",
                      "type": "string"
                    }
                  ],
                  "internalType": "struct CourseDataTypes.Class[]",
                  "name": "classes",
                  "type": "tuple[]"
                },
                {
                  "components": [
                    {
                      "internalType": "uint256",
                      "name": "grade",
                      "type": "uint256"
                    },
                    {
                      "internalType": "uint256",
                      "name": "minPercentage",
                      "type": "uint256"
                    }
                  ],
                  "internalType": "struct CourseDataTypes.GradeLevel[]",
                  "name": "gradeLevels",
                  "type": "tuple[]"
                },
                {
                  "internalType": "string[]",
                  "name": "requirementCourseCodes",
                  "type": "string[]"
                }
              ],
              "internalType": "struct CourseDataTypes.CourseContent",
              "name": "content",
              "type": "tuple"
            }
          ],
          "internalType": "struct CourseDataTypes.Course[]",
          "name": "",
          "type": "tuple[]"
        }
      ],
      "stateMutability": "view",
      "type": "function"
    },
    {
      "inputs": [
        {
          "internalType": "uint256",
          "name": "assessmentId",
          "type": "uint256"
        }
      ],
      "name": "getAssessmentParticipants",
      "outputs": [
        {
          "components": [
            {
              "internalType": "uint256",
              "name": "uId",
              "type": "uint256"
            },
            {
              "components": [
                {
                  "internalType": "string",
                  "name": "firstName",
                  "type": "string"
                },
                {
                  "internalType": "string",
                  "name": "lastName",
                  "type": "string"
                },
                {
                  "internalType": "enum UserDataTypes.Gender",
                  "name": "gender",
                  "type": "uint8"
                },
                {
                  "components": [
                    {
                      "internalType": "uint256",
                      "name": "year",
                      "type": "uint256"
                    },
                    {
                      "internalType": "uint256",
                      "name": "month",
                      "type": "uint256"
                    },
                    {
                      "internalType": "uint256",
                      "name": "day",
                      "type": "uint256"
                    }
                  ],
                  "internalType": "struct UserDataTypes.Date",
                  "name": "dateOfBirth",
                  "type": "tuple"
                },
                {
                  "internalType": "string",
                  "name": "nationality",
                  "type": "string"
                },
                {
                  "internalType": "string",
                  "name": "phoneNumber",
                  "type": "string"
                },
                {
                  "internalType": "string",
                  "name": "emailAddress",
                  "type": "string"
                },
                {
                  "internalType": "enum UserDataTypes.UserRole",
                  "name": "role",
                  "type": "uint8"
                },
                {
                  "internalType": "uint256[]",
                  "name": "studyProgramIds",
                  "type": "uint256[]"
                }
              ],
              "internalType": "struct UserDataTypes.UserProfile",
              "name": "profile",
              "type": "tuple"
            }
          ],
          "internalType": "struct UserDataTypes.User[]",
          "name": "",
          "type": "tuple[]"
        }
      ],
      "stateMutability": "view",
      "type": "function"
    },
    {
      "inputs": [
        {
          "internalType": "uint256",
          "name": "courseId",
          "type": "uint256"
        }
      ],
      "name": "getAssessmentsToCourseId",
      "outputs": [
        {
          "components": [
            {
              "internalType": "uint256",
              "name": "assessmentId",
              "type": "uint256"
            },
            {
              "components": [
                {
                  "internalType": "string",
                  "name": "title",
                  "type": "string"
                },
                {
                  "internalType": "uint256",
                  "name": "datetime",
                  "type": "uint256"
                },
                {
                  "internalType": "string",
                  "name": "place",
                  "type": "string"
                },
                {
                  "internalType": "enum CourseDataTypes.AssessmentType",
                  "name": "assessmentType",
                  "type": "uint8"
                },
                {
                  "internalType": "uint256",
                  "name": "maxPoints",
                  "type": "uint256"
                },
                {
                  "internalType": "uint256",
                  "name": "minPoints",
                  "type": "uint256"
                },
                {
                  "internalType": "bool",
                  "name": "isRegistrationRequired",
                  "type": "bool"
                },
                {
                  "internalType": "uint256",
                  "name": "registrationStart",
                  "type": "uint256"
                },
                {
                  "internalType": "uint256",
                  "name": "registrationDeadline",
                  "type": "uint256"
                },
                {
                  "internalType": "uint256",
                  "name": "deregistrationDeadline",
                  "type": "uint256"
                }
              ],
              "internalType": "struct CourseDataTypes.AssessmentContent",
              "name": "assessmentContent",
              "type": "tuple"
            }
          ],
          "internalType": "struct CourseDataTypes.Assessment[]",
          "name": "",
          "type": "tuple[]"
        }
      ],
      "stateMutability": "view",
      "type": "function"
    },
    {
      "inputs": [
        {
          "internalType": "uint256",
          "name": "courseId",
          "type": "uint256"
        }
      ],
      "name": "getCourseParticipants",
      "outputs": [
        {
          "components": [
            {
              "internalType": "uint256",
              "name": "uId",
              "type": "uint256"
            },
            {
              "components": [
                {
                  "internalType": "string",
                  "name": "firstName",
                  "type": "string"
                },
                {
                  "internalType": "string",
                  "name": "lastName",
                  "type": "string"
                },
                {
                  "internalType": "enum UserDataTypes.Gender",
                  "name": "gender",
                  "type": "uint8"
                },
                {
                  "components": [
                    {
                      "internalType": "uint256",
                      "name": "year",
                      "type": "uint256"
                    },
                    {
                      "internalType": "uint256",
                      "name": "month",
                      "type": "uint256"
                    },
                    {
                      "internalType": "uint256",
                      "name": "day",
                      "type": "uint256"
                    }
                  ],
                  "internalType": "struct UserDataTypes.Date",
                  "name": "dateOfBirth",
                  "type": "tuple"
                },
                {
                  "internalType": "string",
                  "name": "nationality",
                  "type": "string"
                },
                {
                  "internalType": "string",
                  "name": "phoneNumber",
                  "type": "string"
                },
                {
                  "internalType": "string",
                  "name": "emailAddress",
                  "type": "string"
                },
                {
                  "internalType": "enum UserDataTypes.UserRole",
                  "name": "role",
                  "type": "uint8"
                },
                {
                  "internalType": "uint256[]",
                  "name": "studyProgramIds",
                  "type": "uint256[]"
                }
              ],
              "internalType": "struct UserDataTypes.UserProfile",
              "name": "profile",
              "type": "tuple"
            }
          ],
          "internalType": "struct UserDataTypes.User[]",
          "name": "",
          "type": "tuple[]"
        }
      ],
      "stateMutability": "view",
      "type": "function"
    },
    {
      "inputs": [
        {
          "internalType": "uint256",
          "name": "courseId",
          "type": "uint256"
        }
      ],
      "name": "getCourseParticipantsNumber",
      "outputs": [
        {
          "internalType": "uint256",
          "name": "",
          "type": "uint256"
        }
      ],
      "stateMutability": "view",
      "type": "function"
    },
    {
      "inputs": [],
      "name": "getCoursesLecturingAt",
      "outputs": [
        {
          "components": [
            {
              "internalType": "uint256",
              "name": "courseId",
              "type": "uint256"
            },
            {
              "components": [
                {
                  "internalType": "string",
                  "name": "title",
                  "type": "string"
                },
                {
                  "internalType": "string",
                  "name": "code",
                  "type": "string"
                },
                {
                  "internalType": "enum CourseDataTypes.CourseType",
                  "name": "courseType",
                  "type": "uint8"
                },
                {
                  "components": [
                    {
                      "internalType": "uint256",
                      "name": "year",
                      "type": "uint256"
                    },
                    {
                      "internalType": "enum CourseDataTypes.SemesterSeason",
                      "name": "season",
                      "type": "uint8"
                    }
                  ],
                  "internalType": "struct CourseDataTypes.Semester",
                  "name": "semester",
                  "type": "tuple"
                },
                {
                  "internalType": "string",
                  "name": "description",
                  "type": "string"
                },
                {
                  "internalType": "string",
                  "name": "examTopics",
                  "type": "string"
                },
                {
                  "internalType": "string",
                  "name": "language",
                  "type": "string"
                },
                {
                  "internalType": "uint256",
                  "name": "ects",
                  "type": "uint256"
                },
                {
                  "internalType": "uint256",
                  "name": "maxPlaces",
                  "type": "uint256"
                },
                {
                  "internalType": "uint256",
                  "name": "registrationStart",
                  "type": "uint256"
                },
                {
                  "internalType": "uint256",
                  "name": "registrationDeadline",
                  "type": "uint256"
                },
                {
                  "internalType": "uint256",
                  "name": "deregistrationDeadline",
                  "type": "uint256"
                },
                {
                  "components": [
                    {
                      "internalType": "uint256",
                      "name": "datetime",
                      "type": "uint256"
                    },
                    {
                      "internalType": "string",
                      "name": "place",
                      "type": "string"
                    }
                  ],
                  "internalType": "struct CourseDataTypes.Class[]",
                  "name": "classes",
                  "type": "tuple[]"
                },
                {
                  "components": [
                    {
                      "internalType": "uint256",
                      "name": "grade",
                      "type": "uint256"
                    },
                    {
                      "internalType": "uint256",
                      "name": "minPercentage",
                      "type": "uint256"
                    }
                  ],
                  "internalType": "struct CourseDataTypes.GradeLevel[]",
                  "name": "gradeLevels",
                  "type": "tuple[]"
                },
                {
                  "internalType": "string[]",
                  "name": "requirementCourseCodes",
                  "type": "string[]"
                }
              ],
              "internalType": "struct CourseDataTypes.CourseContent",
              "name": "content",
              "type": "tuple"
            }
          ],
          "internalType": "struct CourseDataTypes.Course[]",
          "name": "",
          "type": "tuple[]"
        }
      ],
      "stateMutability": "view",
      "type": "function"
    },
    {
      "inputs": [
        {
          "internalType": "string",
          "name": "code",
          "type": "string"
        }
      ],
      "name": "getCoursesToCourseCode",
      "outputs": [
        {
          "components": [
            {
              "internalType": "uint256",
              "name": "courseId",
              "type": "uint256"
            },
            {
              "components": [
                {
                  "internalType": "string",
                  "name": "title",
                  "type": "string"
                },
                {
                  "internalType": "string",
                  "name": "code",
                  "type": "string"
                },
                {
                  "internalType": "enum CourseDataTypes.CourseType",
                  "name": "courseType",
                  "type": "uint8"
                },
                {
                  "components": [
                    {
                      "internalType": "uint256",
                      "name": "year",
                      "type": "uint256"
                    },
                    {
                      "internalType": "enum CourseDataTypes.SemesterSeason",
                      "name": "season",
                      "type": "uint8"
                    }
                  ],
                  "internalType": "struct CourseDataTypes.Semester",
                  "name": "semester",
                  "type": "tuple"
                },
                {
                  "internalType": "string",
                  "name": "description",
                  "type": "string"
                },
                {
                  "internalType": "string",
                  "name": "examTopics",
                  "type": "string"
                },
                {
                  "internalType": "string",
                  "name": "language",
                  "type": "string"
                },
                {
                  "internalType": "uint256",
                  "name": "ects",
                  "type": "uint256"
                },
                {
                  "internalType": "uint256",
                  "name": "maxPlaces",
                  "type": "uint256"
                },
                {
                  "internalType": "uint256",
                  "name": "registrationStart",
                  "type": "uint256"
                },
                {
                  "internalType": "uint256",
                  "name": "registrationDeadline",
                  "type": "uint256"
                },
                {
                  "internalType": "uint256",
                  "name": "deregistrationDeadline",
                  "type": "uint256"
                },
                {
                  "components": [
                    {
                      "internalType": "uint256",
                      "name": "datetime",
                      "type": "uint256"
                    },
                    {
                      "internalType": "string",
                      "name": "place",
                      "type": "string"
                    }
                  ],
                  "internalType": "struct CourseDataTypes.Class[]",
                  "name": "classes",
                  "type": "tuple[]"
                },
                {
                  "components": [
                    {
                      "internalType": "uint256",
                      "name": "grade",
                      "type": "uint256"
                    },
                    {
                      "internalType": "uint256",
                      "name": "minPercentage",
                      "type": "uint256"
                    }
                  ],
                  "internalType": "struct CourseDataTypes.GradeLevel[]",
                  "name": "gradeLevels",
                  "type": "tuple[]"
                },
                {
                  "internalType": "string[]",
                  "name": "requirementCourseCodes",
                  "type": "string[]"
                }
              ],
              "internalType": "struct CourseDataTypes.CourseContent",
              "name": "content",
              "type": "tuple"
            }
          ],
          "internalType": "struct CourseDataTypes.Course[]",
          "name": "",
          "type": "tuple[]"
        }
      ],
      "stateMutability": "view",
      "type": "function"
    },
    {
      "inputs": [
        {
          "internalType": "uint256",
          "name": "programId",
          "type": "uint256"
        }
      ],
      "name": "getCoursesToStudyProgram",
      "outputs": [
        {
          "components": [
            {
              "internalType": "uint256",
              "name": "courseId",
              "type": "uint256"
            },
            {
              "components": [
                {
                  "internalType": "string",
                  "name": "title",
                  "type": "string"
                },
                {
                  "internalType": "string",
                  "name": "code",
                  "type": "string"
                },
                {
                  "internalType": "enum CourseDataTypes.CourseType",
                  "name": "courseType",
                  "type": "uint8"
                },
                {
                  "components": [
                    {
                      "internalType": "uint256",
                      "name": "year",
                      "type": "uint256"
                    },
                    {
                      "internalType": "enum CourseDataTypes.SemesterSeason",
                      "name": "season",
                      "type": "uint8"
                    }
                  ],
                  "internalType": "struct CourseDataTypes.Semester",
                  "name": "semester",
                  "type": "tuple"
                },
                {
                  "internalType": "string",
                  "name": "description",
                  "type": "string"
                },
                {
                  "internalType": "string",
                  "name": "examTopics",
                  "type": "string"
                },
                {
                  "internalType": "string",
                  "name": "language",
                  "type": "string"
                },
                {
                  "internalType": "uint256",
                  "name": "ects",
                  "type": "uint256"
                },
                {
                  "internalType": "uint256",
                  "name": "maxPlaces",
                  "type": "uint256"
                },
                {
                  "internalType": "uint256",
                  "name": "registrationStart",
                  "type": "uint256"
                },
                {
                  "internalType": "uint256",
                  "name": "registrationDeadline",
                  "type": "uint256"
                },
                {
                  "internalType": "uint256",
                  "name": "deregistrationDeadline",
                  "type": "uint256"
                },
                {
                  "components": [
                    {
                      "internalType": "uint256",
                      "name": "datetime",
                      "type": "uint256"
                    },
                    {
                      "internalType": "string",
                      "name": "place",
                      "type": "string"
                    }
                  ],
                  "internalType": "struct CourseDataTypes.Class[]",
                  "name": "classes",
                  "type": "tuple[]"
                },
                {
                  "components": [
                    {
                      "internalType": "uint256",
                      "name": "grade",
                      "type": "uint256"
                    },
                    {
                      "internalType": "uint256",
                      "name": "minPercentage",
                      "type": "uint256"
                    }
                  ],
                  "internalType": "struct CourseDataTypes.GradeLevel[]",
                  "name": "gradeLevels",
                  "type": "tuple[]"
                },
                {
                  "internalType": "string[]",
                  "name": "requirementCourseCodes",
                  "type": "string[]"
                }
              ],
              "internalType": "struct CourseDataTypes.CourseContent",
              "name": "content",
              "type": "tuple"
            }
          ],
          "internalType": "struct CourseDataTypes.Course[]",
          "name": "",
          "type": "tuple[]"
        }
      ],
      "stateMutability": "view",
      "type": "function"
    },
    {
      "inputs": [
        {
          "internalType": "uint256",
          "name": "courseId",
          "type": "uint256"
        }
      ],
      "name": "getLecturersAtCourse",
      "outputs": [
        {
          "components": [
            {
              "internalType": "uint256",
              "name": "uId",
              "type": "uint256"
            },
            {
              "components": [
                {
                  "internalType": "string",
                  "name": "firstName",
                  "type": "string"
                },
                {
                  "internalType": "string",
                  "name": "lastName",
                  "type": "string"
                },
                {
                  "internalType": "enum UserDataTypes.Gender",
                  "name": "gender",
                  "type": "uint8"
                },
                {
                  "components": [
                    {
                      "internalType": "uint256",
                      "name": "year",
                      "type": "uint256"
                    },
                    {
                      "internalType": "uint256",
                      "name": "month",
                      "type": "uint256"
                    },
                    {
                      "internalType": "uint256",
                      "name": "day",
                      "type": "uint256"
                    }
                  ],
                  "internalType": "struct UserDataTypes.Date",
                  "name": "dateOfBirth",
                  "type": "tuple"
                },
                {
                  "internalType": "string",
                  "name": "nationality",
                  "type": "string"
                },
                {
                  "internalType": "string",
                  "name": "phoneNumber",
                  "type": "string"
                },
                {
                  "internalType": "string",
                  "name": "emailAddress",
                  "type": "string"
                },
                {
                  "internalType": "enum UserDataTypes.UserRole",
                  "name": "role",
                  "type": "uint8"
                },
                {
                  "internalType": "uint256[]",
                  "name": "studyProgramIds",
                  "type": "uint256[]"
                }
              ],
              "internalType": "struct UserDataTypes.UserProfile",
              "name": "profile",
              "type": "tuple"
            }
          ],
          "internalType": "struct UserDataTypes.User[]",
          "name": "",
          "type": "tuple[]"
        }
      ],
      "stateMutability": "view",
      "type": "function"
    },
    {
      "inputs": [],
      "name": "getRegisteredCourses",
      "outputs": [
        {
          "components": [
            {
              "internalType": "uint256",
              "name": "courseId",
              "type": "uint256"
            },
            {
              "components": [
                {
                  "internalType": "string",
                  "name": "title",
                  "type": "string"
                },
                {
                  "internalType": "string",
                  "name": "code",
                  "type": "string"
                },
                {
                  "internalType": "enum CourseDataTypes.CourseType",
                  "name": "courseType",
                  "type": "uint8"
                },
                {
                  "components": [
                    {
                      "internalType": "uint256",
                      "name": "year",
                      "type": "uint256"
                    },
                    {
                      "internalType": "enum CourseDataTypes.SemesterSeason",
                      "name": "season",
                      "type": "uint8"
                    }
                  ],
                  "internalType": "struct CourseDataTypes.Semester",
                  "name": "semester",
                  "type": "tuple"
                },
                {
                  "internalType": "string",
                  "name": "description",
                  "type": "string"
                },
                {
                  "internalType": "string",
                  "name": "examTopics",
                  "type": "string"
                },
                {
                  "internalType": "string",
                  "name": "language",
                  "type": "string"
                },
                {
                  "internalType": "uint256",
                  "name": "ects",
                  "type": "uint256"
                },
                {
                  "internalType": "uint256",
                  "name": "maxPlaces",
                  "type": "uint256"
                },
                {
                  "internalType": "uint256",
                  "name": "registrationStart",
                  "type": "uint256"
                },
                {
                  "internalType": "uint256",
                  "name": "registrationDeadline",
                  "type": "uint256"
                },
                {
                  "internalType": "uint256",
                  "name": "deregistrationDeadline",
                  "type": "uint256"
                },
                {
                  "components": [
                    {
                      "internalType": "uint256",
                      "name": "datetime",
                      "type": "uint256"
                    },
                    {
                      "internalType": "string",
                      "name": "place",
                      "type": "string"
                    }
                  ],
                  "internalType": "struct CourseDataTypes.Class[]",
                  "name": "classes",
                  "type": "tuple[]"
                },
                {
                  "components": [
                    {
                      "internalType": "uint256",
                      "name": "grade",
                      "type": "uint256"
                    },
                    {
                      "internalType": "uint256",
                      "name": "minPercentage",
                      "type": "uint256"
                    }
                  ],
                  "internalType": "struct CourseDataTypes.GradeLevel[]",
                  "name": "gradeLevels",
                  "type": "tuple[]"
                },
                {
                  "internalType": "string[]",
                  "name": "requirementCourseCodes",
                  "type": "string[]"
                }
              ],
              "internalType": "struct CourseDataTypes.CourseContent",
              "name": "content",
              "type": "tuple"
            }
          ],
          "internalType": "struct CourseDataTypes.Course[]",
          "name": "",
          "type": "tuple[]"
        }
      ],
      "stateMutability": "view",
      "type": "function"
    },
    {
      "inputs": [
        {
          "internalType": "uint256",
          "name": "studentUId",
          "type": "uint256"
        }
      ],
      "name": "getRegisteredCoursesOfStudent",
      "outputs": [
        {
          "components": [
            {
              "internalType": "uint256",
              "name": "courseId",
              "type": "uint256"
            },
            {
              "components": [
                {
                  "internalType": "string",
                  "name": "title",
                  "type": "string"
                },
                {
                  "internalType": "string",
                  "name": "code",
                  "type": "string"
                },
                {
                  "internalType": "enum CourseDataTypes.CourseType",
                  "name": "courseType",
                  "type": "uint8"
                },
                {
                  "components": [
                    {
                      "internalType": "uint256",
                      "name": "year",
                      "type": "uint256"
                    },
                    {
                      "internalType": "enum CourseDataTypes.SemesterSeason",
                      "name": "season",
                      "type": "uint8"
                    }
                  ],
                  "internalType": "struct CourseDataTypes.Semester",
                  "name": "semester",
                  "type": "tuple"
                },
                {
                  "internalType": "string",
                  "name": "description",
                  "type": "string"
                },
                {
                  "internalType": "string",
                  "name": "examTopics",
                  "type": "string"
                },
                {
                  "internalType": "string",
                  "name": "language",
                  "type": "string"
                },
                {
                  "internalType": "uint256",
                  "name": "ects",
                  "type": "uint256"
                },
                {
                  "internalType": "uint256",
                  "name": "maxPlaces",
                  "type": "uint256"
                },
                {
                  "internalType": "uint256",
                  "name": "registrationStart",
                  "type": "uint256"
                },
                {
                  "internalType": "uint256",
                  "name": "registrationDeadline",
                  "type": "uint256"
                },
                {
                  "internalType": "uint256",
                  "name": "deregistrationDeadline",
                  "type": "uint256"
                },
                {
                  "components": [
                    {
                      "internalType": "uint256",
                      "name": "datetime",
                      "type": "uint256"
                    },
                    {
                      "internalType": "string",
                      "name": "place",
                      "type": "string"
                    }
                  ],
                  "internalType": "struct CourseDataTypes.Class[]",
                  "name": "classes",
                  "type": "tuple[]"
                },
                {
                  "components": [
                    {
                      "internalType": "uint256",
                      "name": "grade",
                      "type": "uint256"
                    },
                    {
                      "internalType": "uint256",
                      "name": "minPercentage",
                      "type": "uint256"
                    }
                  ],
                  "internalType": "struct CourseDataTypes.GradeLevel[]",
                  "name": "gradeLevels",
                  "type": "tuple[]"
                },
                {
                  "internalType": "string[]",
                  "name": "requirementCourseCodes",
                  "type": "string[]"
                }
              ],
              "internalType": "struct CourseDataTypes.CourseContent",
              "name": "content",
              "type": "tuple"
            }
          ],
          "internalType": "struct CourseDataTypes.Course[]",
          "name": "",
          "type": "tuple[]"
        }
      ],
      "stateMutability": "view",
      "type": "function"
    },
    {
      "inputs": [
        {
          "internalType": "uint256",
          "name": "courseId",
          "type": "uint256"
        }
      ],
      "name": "isRegisteredAtCourse",
      "outputs": [
        {
          "internalType": "bool",
          "name": "",
          "type": "bool"
        }
      ],
      "stateMutability": "view",
      "type": "function"
    },
    {
      "inputs": [
        {
          "internalType": "uint256",
          "name": "assessmentId",
          "type": "uint256"
        }
      ],
      "name": "isRegisteredToAssesssment",
      "outputs": [
        {
          "internalType": "bool",
          "name": "",
          "type": "bool"
        }
      ],
      "stateMutability": "view",
      "type": "function"
    }
  ],
  "bytecode": "0x60806040523480156200001157600080fd5b5060405162004557380380620045578339818101604052810190620000379190620000ec565b8080806000806101000a81548173ffffffffffffffffffffffffffffffffffffffff021916908373ffffffffffffffffffffffffffffffffffffffff1602179055505050506200011e565b600080fd5b600073ffffffffffffffffffffffffffffffffffffffff82169050919050565b6000620000b48262000087565b9050919050565b620000c681620000a7565b8114620000d257600080fd5b50565b600081519050620000e681620000bb565b92915050565b60006020828403121562000105576200010462000082565b5b60006200011584828501620000d5565b91505092915050565b614429806200012e6000396000f3fe608060405234801561001057600080fd5b50600436106100ea5760003560e01c806399aa3f5d1161008c578063c003519811610066578063c003519814610299578063ce0a0a93146102c9578063e094ed2a146102e7578063eecf3df814610317576100ea565b806399aa3f5d1461021b578063a5478d4f1461024b578063bef7a5711461027b576100ea565b80634e66b6b2116100c85780634e66b6b21461015b57806360270c7c1461018b5780636dd4b38f146101bb578063893c592b146101eb576100ea565b806304e48bd1146100ef57806308bcb4a41461010d578063111f3b5a1461012b575b600080fd5b6100f7610347565b604051610104919061242d565b60405180910390f35b6101156103c9565b604051610122919061242d565b60405180910390f35b6101456004803603810190610140919061248f565b6105cb565b604051610152919061242d565b60405180910390f35b6101756004803603810190610170919061248f565b61065a565b60405161018291906124d7565b60405180910390f35b6101a560048036038101906101a0919061248f565b61085b565b6040516101b2919061285c565b60405180910390f35b6101d560048036038101906101d0919061248f565b610c96565b6040516101e2919061288d565b60405180910390f35b6102056004803603810190610200919061248f565b610d26565b604051610212919061242d565b60405180910390f35b6102356004803603810190610230919061248f565b610eb4565b604051610242919061285c565b60405180910390f35b6102656004803603810190610260919061248f565b611155565b6040516102729190612adf565b60405180910390f35b6102836111e4565b6040516102909190612b87565b60405180910390f35b6102b360048036038101906102ae919061248f565b611266565b6040516102c091906124d7565b60405180910390f35b6102d1611467565b6040516102de919061242d565b60405180910390f35b61030160048036038101906102fc9190612c0e565b611669565b60405161030e919061242d565b60405180910390f35b610331600480360381019061032c919061248f565b611780565b60405161033e919061285c565b60405180910390f35b606061035161189a565b73ffffffffffffffffffffffffffffffffffffffff166304e48bd16040518163ffffffff1660e01b8152600401600060405180830381865afa15801561039b573d6000803e3d6000fd5b505050506040513d6000823e3d601f19601f820116820180604052508101906103c49190613508565b905090565b60606103d361193d565b600060028111156103e7576103e6611e58565b5b6103ef6119ff565b73ffffffffffffffffffffffffffffffffffffffff1663dd8b2914336040518263ffffffff1660e01b81526004016104279190613592565b602060405180830381865afa158015610444573d6000803e3d6000fd5b505050506040513d601f19601f8201168201806040525081019061046891906135d2565b600281111561047a57610479611e58565b5b146104ba576040517f08c379a00000000000000000000000000000000000000000000000000000000081526004016104b19061365c565b60405180910390fd5b60006104c46119ff565b73ffffffffffffffffffffffffffffffffffffffff1663e3d7e14c336040518263ffffffff1660e01b81526004016104fc9190613592565b602060405180830381865afa158015610519573d6000803e3d6000fd5b505050506040513d601f19601f8201168201806040525081019061053d919061367c565b905061054761189a565b73ffffffffffffffffffffffffffffffffffffffff1663916ae6bb826040518263ffffffff1660e01b815260040161057f919061288d565b600060405180830381865afa15801561059c573d6000803e3d6000fd5b505050506040513d6000823e3d601f19601f820116820180604052508101906105c59190613508565b91505090565b60606105d561189a565b73ffffffffffffffffffffffffffffffffffffffff1663d56e8ee2836040518263ffffffff1660e01b815260040161060d919061288d565b600060405180830381865afa15801561062a573d6000803e3d6000fd5b505050506040513d6000823e3d601f19601f820116820180604052508101906106539190613508565b9050919050565b600061066461193d565b6000600281111561067857610677611e58565b5b6106806119ff565b73ffffffffffffffffffffffffffffffffffffffff1663dd8b2914336040518263ffffffff1660e01b81526004016106b89190613592565b602060405180830381865afa1580156106d5573d6000803e3d6000fd5b505050506040513d601f19601f820116820180604052508101906106f991906135d2565b600281111561070b5761070a611e58565b5b1461074b576040517f08c379a00000000000000000000000000000000000000000000000000000000081526004016107429061365c565b60405180910390fd5b60006107556119ff565b73ffffffffffffffffffffffffffffffffffffffff1663e3d7e14c336040518263ffffffff1660e01b815260040161078d9190613592565b602060405180830381865afa1580156107aa573d6000803e3d6000fd5b505050506040513d601f19601f820116820180604052508101906107ce919061367c565b90506107d861189a565b73ffffffffffffffffffffffffffffffffffffffff16633932708b82856040518363ffffffff1660e01b81526004016108129291906136a9565b602060405180830381865afa15801561082f573d6000803e3d6000fd5b505050506040513d601f19601f8201168201806040525081019061085391906136fe565b915050919050565b606061086561193d565b6001600281111561087957610878611e58565b5b6108816119ff565b73ffffffffffffffffffffffffffffffffffffffff1663dd8b2914336040518263ffffffff1660e01b81526004016108b99190613592565b602060405180830381865afa1580156108d6573d6000803e3d6000fd5b505050506040513d601f19601f820116820180604052508101906108fa91906135d2565b600281111561090c5761090b611e58565b5b1461094c576040517f08c379a000000000000000000000000000000000000000000000000000000000815260040161094390613777565b60405180910390fd5b60006109566119ff565b73ffffffffffffffffffffffffffffffffffffffff1663e3d7e14c336040518263ffffffff1660e01b815260040161098e9190613592565b602060405180830381865afa1580156109ab573d6000803e3d6000fd5b505050506040513d601f19601f820116820180604052508101906109cf919061367c565b905060006109db611aa2565b73ffffffffffffffffffffffffffffffffffffffff1663a31cf91f856040518263ffffffff1660e01b8152600401610a13919061288d565b602060405180830381865afa158015610a30573d6000803e3d6000fd5b505050506040513d601f19601f82011682018060405250810190610a54919061367c565b9050610a688282610a6361189a565b611b45565b6060610a72611aa2565b73ffffffffffffffffffffffffffffffffffffffff166330938d70866040518263ffffffff1660e01b8152600401610aaa919061288d565b602060405180830381865afa158015610ac7573d6000803e3d6000fd5b505050506040513d601f19601f82011682018060405250810190610aeb91906136fe565b15610b7d57610af8611aa2565b73ffffffffffffffffffffffffffffffffffffffff1663e285fd25866040518263ffffffff1660e01b8152600401610b30919061288d565b600060405180830381865afa158015610b4d573d6000803e3d6000fd5b505050506040513d6000823e3d601f19601f82011682018060405250810190610b76919061385a565b9050610c06565b610b8561189a565b73ffffffffffffffffffffffffffffffffffffffff16636f4f5878836040518263ffffffff1660e01b8152600401610bbd919061288d565b600060405180830381865afa158015610bda573d6000803e3d6000fd5b505050506040513d6000823e3d601f19601f82011682018060405250810190610c03919061385a565b90505b610c0e6119ff565b73ffffffffffffffffffffffffffffffffffffffff1663b29d96f2826040518263ffffffff1660e01b8152600401610c469190613912565b600060405180830381865afa158015610c63573d6000803e3d6000fd5b505050506040513d6000823e3d601f19601f82011682018060405250810190610c8c9190613c94565b9350505050919050565b6000610ca061189a565b73ffffffffffffffffffffffffffffffffffffffff16636f4f5878836040518263ffffffff1660e01b8152600401610cd8919061288d565b600060405180830381865afa158015610cf5573d6000803e3d6000fd5b505050506040513d6000823e3d601f19601f82011682018060405250810190610d1e919061385a565b519050919050565b6060610d3061193d565b600280811115610d4357610d42611e58565b5b610d4b6119ff565b73ffffffffffffffffffffffffffffffffffffffff1663dd8b2914336040518263ffffffff1660e01b8152600401610d839190613592565b602060405180830381865afa158015610da0573d6000803e3d6000fd5b505050506040513d601f19601f82011682018060405250810190610dc491906135d2565b6002811115610dd657610dd5611e58565b5b14610e16576040517f08c379a0000000000000000000000000000000000000000000000000000000008152600401610e0d90613d4f565b60405180910390fd5b610e2782610e226119ff565b611c11565b610e2f61189a565b73ffffffffffffffffffffffffffffffffffffffff1663916ae6bb836040518263ffffffff1660e01b8152600401610e67919061288d565b600060405180830381865afa158015610e84573d6000803e3d6000fd5b505050506040513d6000823e3d601f19601f82011682018060405250810190610ead9190613508565b9050919050565b6060610ebe61193d565b60016002811115610ed257610ed1611e58565b5b610eda6119ff565b73ffffffffffffffffffffffffffffffffffffffff1663dd8b2914336040518263ffffffff1660e01b8152600401610f129190613592565b602060405180830381865afa158015610f2f573d6000803e3d6000fd5b505050506040513d601f19601f82011682018060405250810190610f5391906135d2565b6002811115610f6557610f64611e58565b5b14610fa5576040517f08c379a0000000000000000000000000000000000000000000000000000000008152600401610f9c90613777565b60405180910390fd5b6000610faf6119ff565b73ffffffffffffffffffffffffffffffffffffffff1663e3d7e14c336040518263ffffffff1660e01b8152600401610fe79190613592565b602060405180830381865afa158015611004573d6000803e3d6000fd5b505050506040513d601f19601f82011682018060405250810190611028919061367c565b905061103c818461103761189a565b611b45565b600061104661189a565b73ffffffffffffffffffffffffffffffffffffffff16636f4f5878856040518263ffffffff1660e01b815260040161107e919061288d565b600060405180830381865afa15801561109b573d6000803e3d6000fd5b505050506040513d6000823e3d601f19601f820116820180604052508101906110c4919061385a565b90506110ce6119ff565b73ffffffffffffffffffffffffffffffffffffffff1663b29d96f2826040518263ffffffff1660e01b81526004016111069190613912565b600060405180830381865afa158015611123573d6000803e3d6000fd5b505050506040513d6000823e3d601f19601f8201168201806040525081019061114c9190613c94565b92505050919050565b606061115f611aa2565b73ffffffffffffffffffffffffffffffffffffffff1663a5478d4f836040518263ffffffff1660e01b8152600401611197919061288d565b600060405180830381865afa1580156111b4573d6000803e3d6000fd5b505050506040513d6000823e3d601f19601f820116820180604052508101906111dd919061400f565b9050919050565b60606111ee61189a565b73ffffffffffffffffffffffffffffffffffffffff1663bef7a5716040518163ffffffff1660e01b8152600401600060405180830381865afa158015611238573d6000803e3d6000fd5b505050506040513d6000823e3d601f19601f820116820180604052508101906112619190614058565b905090565b600061127061193d565b6000600281111561128457611283611e58565b5b61128c6119ff565b73ffffffffffffffffffffffffffffffffffffffff1663dd8b2914336040518263ffffffff1660e01b81526004016112c49190613592565b602060405180830381865afa1580156112e1573d6000803e3d6000fd5b505050506040513d601f19601f8201168201806040525081019061130591906135d2565b600281111561131757611316611e58565b5b14611357576040517f08c379a000000000000000000000000000000000000000000000000000000000815260040161134e9061365c565b60405180910390fd5b60006113616119ff565b73ffffffffffffffffffffffffffffffffffffffff1663e3d7e14c336040518263ffffffff1660e01b81526004016113999190613592565b602060405180830381865afa1580156113b6573d6000803e3d6000fd5b505050506040513d601f19601f820116820180604052508101906113da919061367c565b90506113e4611aa2565b73ffffffffffffffffffffffffffffffffffffffff166323ff178582856040518363ffffffff1660e01b815260040161141e9291906136a9565b602060405180830381865afa15801561143b573d6000803e3d6000fd5b505050506040513d601f19601f8201168201806040525081019061145f91906136fe565b915050919050565b606061147161193d565b6001600281111561148557611484611e58565b5b61148d6119ff565b73ffffffffffffffffffffffffffffffffffffffff1663dd8b2914336040518263ffffffff1660e01b81526004016114c59190613592565b602060405180830381865afa1580156114e2573d6000803e3d6000fd5b505050506040513d601f19601f8201168201806040525081019061150691906135d2565b600281111561151857611517611e58565b5b14611558576040517f08c379a000000000000000000000000000000000000000000000000000000000815260040161154f90613777565b60405180910390fd5b60006115626119ff565b73ffffffffffffffffffffffffffffffffffffffff1663e3d7e14c336040518263ffffffff1660e01b815260040161159a9190613592565b602060405180830381865afa1580156115b7573d6000803e3d6000fd5b505050506040513d601f19601f820116820180604052508101906115db919061367c565b90506115e561189a565b73ffffffffffffffffffffffffffffffffffffffff16635268561f826040518263ffffffff1660e01b815260040161161d919061288d565b600060405180830381865afa15801561163a573d6000803e3d6000fd5b505050506040513d6000823e3d601f19601f820116820180604052508101906116639190613508565b91505090565b606061167361189a565b73ffffffffffffffffffffffffffffffffffffffff1663cf6c702d61169661189a565b73ffffffffffffffffffffffffffffffffffffffff166389eb61df86866040518363ffffffff1660e01b81526004016116d09291906140dd565b600060405180830381865afa1580156116ed573d6000803e3d6000fd5b505050506040513d6000823e3d601f19601f82011682018060405250810190611716919061385a565b6040518263ffffffff1660e01b81526004016117329190613912565b600060405180830381865afa15801561174f573d6000803e3d6000fd5b505050506040513d6000823e3d601f19601f820116820180604052508101906117789190613508565b905092915050565b6060600061178c61189a565b73ffffffffffffffffffffffffffffffffffffffff1663bd9c1b50846040518263ffffffff1660e01b81526004016117c4919061288d565b600060405180830381865afa1580156117e1573d6000803e3d6000fd5b505050506040513d6000823e3d601f19601f8201168201806040525081019061180a919061385a565b90506118146119ff565b73ffffffffffffffffffffffffffffffffffffffff1663b29d96f2826040518263ffffffff1660e01b815260040161184c9190613912565b600060405180830381865afa158015611869573d6000803e3d6000fd5b505050506040513d6000823e3d601f19601f820116820180604052508101906118929190613c94565b915050919050565b60008060009054906101000a900473ffffffffffffffffffffffffffffffffffffffff1673ffffffffffffffffffffffffffffffffffffffff1663bcaa0c5560006040518263ffffffff1660e01b81526004016118f79190614149565b602060405180830381865afa158015611914573d6000803e3d6000fd5b505050506040513d601f19601f820116820180604052508101906119389190614190565b905090565b6119456119ff565b73ffffffffffffffffffffffffffffffffffffffff166338b6a3a1336040518263ffffffff1660e01b815260040161197d9190613592565b602060405180830381865afa15801561199a573d6000803e3d6000fd5b505050506040513d601f19601f820116820180604052508101906119be91906136fe565b6119fd576040517f08c379a00000000000000000000000000000000000000000000000000000000081526004016119f490614209565b60405180910390fd5b565b60008060009054906101000a900473ffffffffffffffffffffffffffffffffffffffff1673ffffffffffffffffffffffffffffffffffffffff1663bcaa0c5560026040518263ffffffff1660e01b8152600401611a5c9190614149565b602060405180830381865afa158015611a79573d6000803e3d6000fd5b505050506040513d601f19601f82011682018060405250810190611a9d9190614190565b905090565b60008060009054906101000a900473ffffffffffffffffffffffffffffffffffffffff1673ffffffffffffffffffffffffffffffffffffffff1663bcaa0c5560016040518263ffffffff1660e01b8152600401611aff9190614149565b602060405180830381865afa158015611b1c573d6000803e3d6000fd5b505050506040513d601f19601f82011682018060405250810190611b409190614190565b905090565b611bcd838273ffffffffffffffffffffffffffffffffffffffff1663bd9c1b50856040518263ffffffff1660e01b8152600401611b82919061288d565b600060405180830381865afa158015611b9f573d6000803e3d6000fd5b505050506040513d6000823e3d601f19601f82011682018060405250810190611bc8919061385a565b611cf5565b611c0c576040517f08c379a0000000000000000000000000000000000000000000000000000000008152600401611c039061429b565b60405180910390fd5b505050565b60006002811115611c2557611c24611e58565b5b8173ffffffffffffffffffffffffffffffffffffffff1663bdf3e912846040518263ffffffff1660e01b8152600401611c5e919061288d565b602060405180830381865afa158015611c7b573d6000803e3d6000fd5b505050506040513d601f19601f82011682018060405250810190611c9f91906135d2565b6002811115611cb157611cb0611e58565b5b14611cf1576040517f08c379a0000000000000000000000000000000000000000000000000000000008152600401611ce89061432d565b60405180910390fd5b5050565b600080611d028484611d0c565b1215905092915050565b600080600090505b8251811015611d585783838281518110611d3157611d3061434d565b5b602002602001015103611d475780915050611d7d565b80611d51906143ab565b9050611d14565b507fffffffffffffffffffffffffffffffffffffffffffffffffffffffffffffffff90505b92915050565b600081519050919050565b600082825260208201905092915050565b6000819050602082019050919050565b6000819050919050565b611dc281611daf565b82525050565b600081519050919050565b600082825260208201905092915050565b60005b83811015611e02578082015181840152602081019050611de7565b60008484015250505050565b6000601f19601f8301169050919050565b6000611e2a82611dc8565b611e348185611dd3565b9350611e44818560208601611de4565b611e4d81611e0e565b840191505092915050565b7f4e487b7100000000000000000000000000000000000000000000000000000000600052602160045260246000fd5b60048110611e9857611e97611e58565b5b50565b6000819050611ea982611e87565b919050565b6000611eb982611e9b565b9050919050565b611ec981611eae565b82525050565b60028110611ee057611edf611e58565b5b50565b6000819050611ef182611ecf565b919050565b6000611f0182611ee3565b9050919050565b611f1181611ef6565b82525050565b604082016000820151611f2d6000850182611db9565b506020820151611f406020850182611f08565b50505050565b600081519050919050565b600082825260208201905092915050565b6000819050602082019050919050565b6000604083016000830151611f8a6000860182611db9565b5060208301518482036020860152611fa28282611e1f565b9150508091505092915050565b6000611fbb8383611f72565b905092915050565b6000602082019050919050565b6000611fdb82611f46565b611fe58185611f51565b935083602082028501611ff785611f62565b8060005b8581101561203357848403895281516120148582611faf565b945061201f83611fc3565b925060208a01995050600181019050611ffb565b50829750879550505050505092915050565b600081519050919050565b600082825260208201905092915050565b6000819050602082019050919050565b6040820160008201516120876000850182611db9565b50602082015161209a6020850182611db9565b50505050565b60006120ac8383612071565b60408301905092915050565b6000602082019050919050565b60006120d082612045565b6120da8185612050565b93506120e583612061565b8060005b838110156121165781516120fd88826120a0565b9750612108836120b8565b9250506001810190506120e9565b5085935050505092915050565b600081519050919050565b600082825260208201905092915050565b6000819050602082019050919050565b600061215b8383611e1f565b905092915050565b6000602082019050919050565b600061217b82612123565b612185818561212e565b9350836020820285016121978561213f565b8060005b858110156121d357848403895281516121b4858261214f565b94506121bf83612163565b925060208a0199505060018101905061219b565b50829750879550505050505092915050565b60006102008301600083015184820360008601526122038282611e1f565b9150506020830151848203602086015261221d8282611e1f565b91505060408301516122326040860182611ec0565b5060608301516122456060860182611f17565b50608083015184820360a086015261225d8282611e1f565b91505060a083015184820360c08601526122778282611e1f565b91505060c083015184820360e08601526122918282611e1f565b91505060e08301516122a7610100860182611db9565b506101008301516122bc610120860182611db9565b506101208301516122d1610140860182611db9565b506101408301516122e6610160860182611db9565b506101608301516122fb610180860182611db9565b506101808301518482036101a08601526123158282611fd0565b9150506101a08301518482036101c086015261233182826120c5565b9150506101c08301518482036101e086015261234d8282612170565b9150508091505092915050565b60006040830160008301516123726000860182611db9565b506020830151848203602086015261238a82826121e5565b9150508091505092915050565b60006123a3838361235a565b905092915050565b6000602082019050919050565b60006123c382611d83565b6123cd8185611d8e565b9350836020820285016123df85611d9f565b8060005b8581101561241b57848403895281516123fc8582612397565b9450612407836123ab565b925060208a019950506001810190506123e3565b50829750879550505050505092915050565b6000602082019050818103600083015261244781846123b8565b905092915050565b6000604051905090565b600080fd5b600080fd5b61246c81611daf565b811461247757600080fd5b50565b60008135905061248981612463565b92915050565b6000602082840312156124a5576124a4612459565b5b60006124b38482850161247a565b91505092915050565b60008115159050919050565b6124d1816124bc565b82525050565b60006020820190506124ec60008301846124c8565b92915050565b600081519050919050565b600082825260208201905092915050565b6000819050602082019050919050565b6003811061252f5761252e611e58565b5b50565b60008190506125408261251e565b919050565b600061255082612532565b9050919050565b61256081612545565b82525050565b60608201600082015161257c6000850182611db9565b50602082015161258f6020850182611db9565b5060408201516125a26040850182611db9565b50505050565b600381106125b9576125b8611e58565b5b50565b60008190506125ca826125a8565b919050565b60006125da826125bc565b9050919050565b6125ea816125cf565b82525050565b600081519050919050565b600082825260208201905092915050565b6000819050602082019050919050565b60006126288383611db9565b60208301905092915050565b6000602082019050919050565b600061264c826125f0565b61265681856125fb565b93506126618361260c565b8060005b83811015612692578151612679888261261c565b975061268483612634565b925050600181019050612665565b5085935050505092915050565b60006101608301600083015184820360008601526126bd8282611e1f565b915050602083015184820360208601526126d78282611e1f565b91505060408301516126ec6040860182612557565b5060608301516126ff6060860182612566565b50608083015184820360c08601526127178282611e1f565b91505060a083015184820360e08601526127318282611e1f565b91505060c083015184820361010086015261274c8282611e1f565b91505060e08301516127626101208601826125e1565b5061010083015184820361014086015261277c8282612641565b9150508091505092915050565b60006040830160008301516127a16000860182611db9565b50602083015184820360208601526127b9828261269f565b9150508091505092915050565b60006127d28383612789565b905092915050565b6000602082019050919050565b60006127f2826124f2565b6127fc81856124fd565b93508360208202850161280e8561250e565b8060005b8581101561284a578484038952815161282b85826127c6565b9450612836836127da565b925060208a01995050600181019050612812565b50829750879550505050505092915050565b6000602082019050818103600083015261287681846127e7565b905092915050565b61288781611daf565b82525050565b60006020820190506128a2600083018461287e565b92915050565b600081519050919050565b600082825260208201905092915050565b6000819050602082019050919050565b600281106128e5576128e4611e58565b5b50565b60008190506128f6826128d4565b919050565b6000612906826128e8565b9050919050565b612916816128fb565b82525050565b612925816124bc565b82525050565b60006101408301600083015184820360008601526129498282611e1f565b915050602083015161295e6020860182611db9565b50604083015184820360408601526129768282611e1f565b915050606083015161298b606086018261290d565b50608083015161299e6080860182611db9565b5060a08301516129b160a0860182611db9565b5060c08301516129c460c086018261291c565b5060e08301516129d760e0860182611db9565b506101008301516129ec610100860182611db9565b50610120830151612a01610120860182611db9565b508091505092915050565b6000604083016000830151612a246000860182611db9565b5060208301518482036020860152612a3c828261292b565b9150508091505092915050565b6000612a558383612a0c565b905092915050565b6000602082019050919050565b6000612a75826128a8565b612a7f81856128b3565b935083602082028501612a91856128c4565b8060005b85811015612acd5784840389528151612aae8582612a49565b9450612ab983612a5d565b925060208a01995050600181019050612a95565b50829750879550505050505092915050565b60006020820190508181036000830152612af98184612a6a565b905092915050565b600082825260208201905092915050565b6000612b1d82612123565b612b278185612b01565b935083602082028501612b398561213f565b8060005b85811015612b755784840389528151612b56858261214f565b9450612b6183612163565b925060208a01995050600181019050612b3d565b50829750879550505050505092915050565b60006020820190508181036000830152612ba18184612b12565b905092915050565b600080fd5b600080fd5b600080fd5b60008083601f840112612bce57612bcd612ba9565b5b8235905067ffffffffffffffff811115612beb57612bea612bae565b5b602083019150836001820283011115612c0757612c06612bb3565b5b9250929050565b60008060208385031215612c2557612c24612459565b5b600083013567ffffffffffffffff811115612c4357612c4261245e565b5b612c4f85828601612bb8565b92509250509250929050565b7f4e487b7100000000000000000000000000000000000000000000000000000000600052604160045260246000fd5b612c9382611e0e565b810181811067ffffffffffffffff82111715612cb257612cb1612c5b565b5b80604052505050565b6000612cc561244f565b9050612cd18282612c8a565b919050565b600067ffffffffffffffff821115612cf157612cf0612c5b565b5b602082029050602081019050919050565b600080fd5b600080fd5b600081519050612d1b81612463565b92915050565b600080fd5b600067ffffffffffffffff821115612d4157612d40612c5b565b5b612d4a82611e0e565b9050602081019050919050565b6000612d6a612d6584612d26565b612cbb565b905082815260208101848484011115612d8657612d85612d21565b5b612d91848285611de4565b509392505050565b600082601f830112612dae57612dad612ba9565b5b8151612dbe848260208601612d57565b91505092915050565b60048110612dd457600080fd5b50565b600081519050612de681612dc7565b92915050565b60028110612df957600080fd5b50565b600081519050612e0b81612dec565b92915050565b600060408284031215612e2757612e26612d02565b5b612e316040612cbb565b90506000612e4184828501612d0c565b6000830152506020612e5584828501612dfc565b60208301525092915050565b600067ffffffffffffffff821115612e7c57612e7b612c5b565b5b602082029050602081019050919050565b600060408284031215612ea357612ea2612d02565b5b612ead6040612cbb565b90506000612ebd84828501612d0c565b600083015250602082015167ffffffffffffffff811115612ee157612ee0612d07565b5b612eed84828501612d99565b60208301525092915050565b6000612f0c612f0784612e61565b612cbb565b90508083825260208201905060208402830185811115612f2f57612f2e612bb3565b5b835b81811015612f7657805167ffffffffffffffff811115612f5457612f53612ba9565b5b808601612f618982612e8d565b85526020850194505050602081019050612f31565b5050509392505050565b600082601f830112612f9557612f94612ba9565b5b8151612fa5848260208601612ef9565b91505092915050565b600067ffffffffffffffff821115612fc957612fc8612c5b565b5b602082029050602081019050919050565b600060408284031215612ff057612fef612d02565b5b612ffa6040612cbb565b9050600061300a84828501612d0c565b600083015250602061301e84828501612d0c565b60208301525092915050565b600061303d61303884612fae565b612cbb565b905080838252602082019050604084028301858111156130605761305f612bb3565b5b835b8181101561308957806130758882612fda565b845260208401935050604081019050613062565b5050509392505050565b600082601f8301126130a8576130a7612ba9565b5b81516130b884826020860161302a565b91505092915050565b600067ffffffffffffffff8211156130dc576130db612c5b565b5b602082029050602081019050919050565b60006131006130fb846130c1565b612cbb565b9050808382526020820190506020840283018581111561312357613122612bb3565b5b835b8181101561316a57805167ffffffffffffffff81111561314857613147612ba9565b5b8086016131558982612d99565b85526020850194505050602081019050613125565b5050509392505050565b600082601f83011261318957613188612ba9565b5b81516131998482602086016130ed565b91505092915050565b600061020082840312156131b9576131b8612d02565b5b6131c46101e0612cbb565b9050600082015167ffffffffffffffff8111156131e4576131e3612d07565b5b6131f084828501612d99565b600083015250602082015167ffffffffffffffff81111561321457613213612d07565b5b61322084828501612d99565b602083015250604061323484828501612dd7565b604083015250606061324884828501612e11565b60608301525060a082015167ffffffffffffffff81111561326c5761326b612d07565b5b61327884828501612d99565b60808301525060c082015167ffffffffffffffff81111561329c5761329b612d07565b5b6132a884828501612d99565b60a08301525060e082015167ffffffffffffffff8111156132cc576132cb612d07565b5b6132d884828501612d99565b60c0830152506101006132ed84828501612d0c565b60e08301525061012061330284828501612d0c565b6101008301525061014061331884828501612d0c565b6101208301525061016061332e84828501612d0c565b6101408301525061018061334484828501612d0c565b610160830152506101a082015167ffffffffffffffff81111561336a57613369612d07565b5b61337684828501612f80565b610180830152506101c082015167ffffffffffffffff81111561339c5761339b612d07565b5b6133a884828501613093565b6101a0830152506101e082015167ffffffffffffffff8111156133ce576133cd612d07565b5b6133da84828501613174565b6101c08301525092915050565b6000604082840312156133fd576133fc612d02565b5b6134076040612cbb565b9050600061341784828501612d0c565b600083015250602082015167ffffffffffffffff81111561343b5761343a612d07565b5b613447848285016131a2565b60208301525092915050565b600061346661346184612cd6565b612cbb565b9050808382526020820190506020840283018581111561348957613488612bb3565b5b835b818110156134d057805167ffffffffffffffff8111156134ae576134ad612ba9565b5b8086016134bb89826133e7565b8552602085019450505060208101905061348b565b5050509392505050565b600082601f8301126134ef576134ee612ba9565b5b81516134ff848260208601613453565b91505092915050565b60006020828403121561351e5761351d612459565b5b600082015167ffffffffffffffff81111561353c5761353b61245e565b5b613548848285016134da565b91505092915050565b600073ffffffffffffffffffffffffffffffffffffffff82169050919050565b600061357c82613551565b9050919050565b61358c81613571565b82525050565b60006020820190506135a76000830184613583565b92915050565b600381106135ba57600080fd5b50565b6000815190506135cc816135ad565b92915050565b6000602082840312156135e8576135e7612459565b5b60006135f6848285016135bd565b91505092915050565b600082825260208201905092915050565b7f53656e646572206d75737420626520612073747564656e740000000000000000600082015250565b60006136466018836135ff565b915061365182613610565b602082019050919050565b6000602082019050818103600083015261367581613639565b9050919050565b60006020828403121561369257613691612459565b5b60006136a084828501612d0c565b91505092915050565b60006040820190506136be600083018561287e565b6136cb602083018461287e565b9392505050565b6136db816124bc565b81146136e657600080fd5b50565b6000815190506136f8816136d2565b92915050565b60006020828403121561371457613713612459565b5b6000613722848285016136e9565b91505092915050565b7f53656e646572206d7573742062652061206c6563747572657200000000000000600082015250565b60006137616019836135ff565b915061376c8261372b565b602082019050919050565b6000602082019050818103600083015261379081613754565b9050919050565b600067ffffffffffffffff8211156137b2576137b1612c5b565b5b602082029050602081019050919050565b60006137d66137d184613797565b612cbb565b905080838252602082019050602084028301858111156137f9576137f8612bb3565b5b835b81811015613822578061380e8882612d0c565b8452602084019350506020810190506137fb565b5050509392505050565b600082601f83011261384157613840612ba9565b5b81516138518482602086016137c3565b91505092915050565b6000602082840312156138705761386f612459565b5b600082015167ffffffffffffffff81111561388e5761388d61245e565b5b61389a8482850161382c565b91505092915050565b600082825260208201905092915050565b60006138bf826125f0565b6138c981856138a3565b93506138d48361260c565b8060005b838110156139055781516138ec888261261c565b97506138f783612634565b9250506001810190506138d8565b5085935050505092915050565b6000602082019050818103600083015261392c81846138b4565b905092915050565b600067ffffffffffffffff82111561394f5761394e612c5b565b5b602082029050602081019050919050565b6003811061396d57600080fd5b50565b60008151905061397f81613960565b92915050565b60006060828403121561399b5761399a612d02565b5b6139a56060612cbb565b905060006139b584828501612d0c565b60008301525060206139c984828501612d0c565b60208301525060406139dd84828501612d0c565b60408301525092915050565b60006101608284031215613a00576139ff612d02565b5b613a0b610120612cbb565b9050600082015167ffffffffffffffff811115613a2b57613a2a612d07565b5b613a3784828501612d99565b600083015250602082015167ffffffffffffffff811115613a5b57613a5a612d07565b5b613a6784828501612d99565b6020830152506040613a7b84828501613970565b6040830152506060613a8f84828501613985565b60608301525060c082015167ffffffffffffffff811115613ab357613ab2612d07565b5b613abf84828501612d99565b60808301525060e082015167ffffffffffffffff811115613ae357613ae2612d07565b5b613aef84828501612d99565b60a08301525061010082015167ffffffffffffffff811115613b1457613b13612d07565b5b613b2084828501612d99565b60c083015250610120613b35848285016135bd565b60e08301525061014082015167ffffffffffffffff811115613b5a57613b59612d07565b5b613b668482850161382c565b6101008301525092915050565b600060408284031215613b8957613b88612d02565b5b613b936040612cbb565b90506000613ba384828501612d0c565b600083015250602082015167ffffffffffffffff811115613bc757613bc6612d07565b5b613bd3848285016139e9565b60208301525092915050565b6000613bf2613bed84613934565b612cbb565b90508083825260208201905060208402830185811115613c1557613c14612bb3565b5b835b81811015613c5c57805167ffffffffffffffff811115613c3a57613c39612ba9565b5b808601613c478982613b73565b85526020850194505050602081019050613c17565b5050509392505050565b600082601f830112613c7b57613c7a612ba9565b5b8151613c8b848260208601613bdf565b91505092915050565b600060208284031215613caa57613ca9612459565b5b600082015167ffffffffffffffff811115613cc857613cc761245e565b5b613cd484828501613c66565b91505092915050565b7f53656e646572206d75737420626520612073747564792070726f6772616d206d60008201527f616e616765720000000000000000000000000000000000000000000000000000602082015250565b6000613d396026836135ff565b9150613d4482613cdd565b604082019050919050565b60006020820190508181036000830152613d6881613d2c565b9050919050565b600067ffffffffffffffff821115613d8a57613d89612c5b565b5b602082029050602081019050919050565b60028110613da857600080fd5b50565b600081519050613dba81613d9b565b92915050565b60006101408284031215613dd757613dd6612d02565b5b613de2610140612cbb565b9050600082015167ffffffffffffffff811115613e0257613e01612d07565b5b613e0e84828501612d99565b6000830152506020613e2284828501612d0c565b602083015250604082015167ffffffffffffffff811115613e4657613e45612d07565b5b613e5284828501612d99565b6040830152506060613e6684828501613dab565b6060830152506080613e7a84828501612d0c565b60808301525060a0613e8e84828501612d0c565b60a08301525060c0613ea2848285016136e9565b60c08301525060e0613eb684828501612d0c565b60e083015250610100613ecb84828501612d0c565b61010083015250610120613ee184828501612d0c565b6101208301525092915050565b600060408284031215613f0457613f03612d02565b5b613f0e6040612cbb565b90506000613f1e84828501612d0c565b600083015250602082015167ffffffffffffffff811115613f4257613f41612d07565b5b613f4e84828501613dc0565b60208301525092915050565b6000613f6d613f6884613d6f565b612cbb565b90508083825260208201905060208402830185811115613f9057613f8f612bb3565b5b835b81811015613fd757805167ffffffffffffffff811115613fb557613fb4612ba9565b5b808601613fc28982613eee565b85526020850194505050602081019050613f92565b5050509392505050565b600082601f830112613ff657613ff5612ba9565b5b8151614006848260208601613f5a565b91505092915050565b60006020828403121561402557614024612459565b5b600082015167ffffffffffffffff8111156140435761404261245e565b5b61404f84828501613fe1565b91505092915050565b60006020828403121561406e5761406d612459565b5b600082015167ffffffffffffffff81111561408c5761408b61245e565b5b61409884828501613174565b91505092915050565b82818337600083830152505050565b60006140bc83856135ff565b93506140c98385846140a1565b6140d283611e0e565b840190509392505050565b600060208201905081810360008301526140f88184866140b0565b90509392505050565b6006811061411257614111611e58565b5b50565b600081905061412382614101565b919050565b600061413382614115565b9050919050565b61414381614128565b82525050565b600060208201905061415e600083018461413a565b92915050565b61416d81613571565b811461417857600080fd5b50565b60008151905061418a81614164565b92915050565b6000602082840312156141a6576141a5612459565b5b60006141b48482850161417b565b91505092915050565b7f53656e646572206d757374206265206120726567697374657265642075736572600082015250565b60006141f36020836135ff565b91506141fe826141bd565b602082019050919050565b60006020820190508181036000830152614222816141e6565b9050919050565b7f4c65637475726572206973206e6f74206c6563747572696e672061742074686960008201527f7320636f75727365000000000000000000000000000000000000000000000000602082015250565b60006142856028836135ff565b915061429082614229565b604082019050919050565b600060208201905081810360008301526142b481614278565b9050919050565b7f54686520676976656e2075494420646f6573206e6f742062656c6f6e6720746f60008201527f20612073747564656e7400000000000000000000000000000000000000000000602082015250565b6000614317602a836135ff565b9150614322826142bb565b604082019050919050565b600060208201905081810360008301526143468161430a565b9050919050565b7f4e487b7100000000000000000000000000000000000000000000000000000000600052603260045260246000fd5b7f4e487b7100000000000000000000000000000000000000000000000000000000600052601160045260246000fd5b60006143b682611daf565b91507fffffffffffffffffffffffffffffffffffffffffffffffffffffffffffffffff82036143e8576143e761437c565b5b60018201905091905056fea26469706673582212204cb11ca0f155533181ad1f566ab25867135bbbe7dafcd9f523ef916e9202a63a64736f6c63430008110033",
  "linkReferences": {},
  "deployedLinkReferences": {}
}