{
  "_format": "hh-sol-artifact-1",
  "contractName": "CourseView",
  "sourceName": "contracts/view/CourseView.sol",
  "abi": [
    {
      "inputs": [
        {
          "internalType": "address",
          "name": "addressBookAddress",
          "type": "address"
        }
      ],
      "stateMutability": "nonpayable",
      "type": "constructor"
    },
    {
      "inputs": [],
      "name": "getAllCourseCodes",
      "outputs": [
        {
          "internalType": "string[]",
          "name": "",
          "type": "string[]"
        }
      ],
      "stateMutability": "view",
      "type": "function"
    },
    {
      "inputs": [],
      "name": "getAllCourses",
      "outputs": [
        {
          "components": [
            {
              "internalType": "uint256",
              "name": "courseId",
              "type": "uint256"
            },
            {
              "components": [
                {
                  "internalType": "string",
                  "name": "title",
                  "type": "string"
                },
                {
                  "internalType": "string",
                  "name": "code",
                  "type": "string"
                },
                {
                  "internalType": "enum CourseDataTypes.CourseType",
                  "name": "courseType",
                  "type": "uint8"
                },
                {
                  "components": [
                    {
                      "internalType": "uint256",
                      "name": "year",
                      "type": "uint256"
                    },
                    {
                      "internalType": "enum CourseDataTypes.SemesterSeason",
                      "name": "season",
                      "type": "uint8"
                    }
                  ],
                  "internalType": "struct CourseDataTypes.Semester",
                  "name": "semester",
                  "type": "tuple"
                },
                {
                  "internalType": "string",
                  "name": "description",
                  "type": "string"
                },
                {
                  "internalType": "string",
                  "name": "examTopics",
                  "type": "string"
                },
                {
                  "internalType": "string",
                  "name": "language",
                  "type": "string"
                },
                {
                  "internalType": "uint256",
                  "name": "ects",
                  "type": "uint256"
                },
                {
                  "internalType": "uint256",
                  "name": "maxPlaces",
                  "type": "uint256"
                },
                {
                  "internalType": "uint256",
                  "name": "registrationStart",
                  "type": "uint256"
                },
                {
                  "internalType": "uint256",
                  "name": "registrationDeadline",
                  "type": "uint256"
                },
                {
                  "internalType": "uint256",
                  "name": "deregistrationDeadline",
                  "type": "uint256"
                },
                {
                  "components": [
                    {
                      "internalType": "uint256",
                      "name": "datetime",
                      "type": "uint256"
                    },
                    {
                      "internalType": "string",
                      "name": "place",
                      "type": "string"
                    }
                  ],
                  "internalType": "struct CourseDataTypes.Class[]",
                  "name": "classes",
                  "type": "tuple[]"
                },
                {
                  "components": [
                    {
                      "internalType": "uint256",
                      "name": "grade",
                      "type": "uint256"
                    },
                    {
                      "internalType": "uint256",
                      "name": "minPercentage",
                      "type": "uint256"
                    }
                  ],
                  "internalType": "struct CourseDataTypes.GradeLevel[]",
                  "name": "gradeLevels",
                  "type": "tuple[]"
                },
                {
                  "internalType": "string[]",
                  "name": "requirementCourseCodes",
                  "type": "string[]"
                }
              ],
              "internalType": "struct CourseDataTypes.CourseContent",
              "name": "content",
              "type": "tuple"
            }
          ],
          "internalType": "struct CourseDataTypes.Course[]",
          "name": "",
          "type": "tuple[]"
        }
      ],
      "stateMutability": "view",
      "type": "function"
    },
    {
      "inputs": [
        {
          "internalType": "uint256",
          "name": "assessmentId",
          "type": "uint256"
        }
      ],
      "name": "getAssessmentParticipants",
      "outputs": [
        {
          "components": [
            {
              "internalType": "uint256",
              "name": "uId",
              "type": "uint256"
            },
            {
              "components": [
                {
                  "internalType": "string",
                  "name": "firstName",
                  "type": "string"
                },
                {
                  "internalType": "string",
                  "name": "lastName",
                  "type": "string"
                },
                {
                  "internalType": "enum UserDataTypes.Gender",
                  "name": "gender",
                  "type": "uint8"
                },
                {
                  "components": [
                    {
                      "internalType": "uint256",
                      "name": "year",
                      "type": "uint256"
                    },
                    {
                      "internalType": "uint256",
                      "name": "month",
                      "type": "uint256"
                    },
                    {
                      "internalType": "uint256",
                      "name": "day",
                      "type": "uint256"
                    }
                  ],
                  "internalType": "struct UserDataTypes.Date",
                  "name": "dateOfBirth",
                  "type": "tuple"
                },
                {
                  "internalType": "string",
                  "name": "nationality",
                  "type": "string"
                },
                {
                  "internalType": "string",
                  "name": "phoneNumber",
                  "type": "string"
                },
                {
                  "internalType": "string",
                  "name": "emailAddress",
                  "type": "string"
                },
                {
                  "internalType": "enum UserDataTypes.UserRole",
                  "name": "role",
                  "type": "uint8"
                },
                {
                  "internalType": "uint256[]",
                  "name": "studyProgramIds",
                  "type": "uint256[]"
                }
              ],
              "internalType": "struct UserDataTypes.UserProfile",
              "name": "profile",
              "type": "tuple"
            }
          ],
          "internalType": "struct UserDataTypes.User[]",
          "name": "",
          "type": "tuple[]"
        }
      ],
      "stateMutability": "view",
      "type": "function"
    },
    {
      "inputs": [
        {
          "internalType": "uint256",
          "name": "courseId",
          "type": "uint256"
        }
      ],
      "name": "getAssessmentsToCourseId",
      "outputs": [
        {
          "components": [
            {
              "internalType": "uint256",
              "name": "assessmentId",
              "type": "uint256"
            },
            {
              "components": [
                {
                  "internalType": "string",
                  "name": "title",
                  "type": "string"
                },
                {
                  "internalType": "uint256",
                  "name": "datetime",
                  "type": "uint256"
                },
                {
                  "internalType": "string",
                  "name": "place",
                  "type": "string"
                },
                {
                  "internalType": "enum CourseDataTypes.AssessmentType",
                  "name": "assessmentType",
                  "type": "uint8"
                },
                {
                  "internalType": "uint256",
                  "name": "maxPoints",
                  "type": "uint256"
                },
                {
                  "internalType": "uint256",
                  "name": "minPoints",
                  "type": "uint256"
                },
                {
                  "internalType": "bool",
                  "name": "isRegistrationRequired",
                  "type": "bool"
                },
                {
                  "internalType": "uint256",
                  "name": "registrationStart",
                  "type": "uint256"
                },
                {
                  "internalType": "uint256",
                  "name": "registrationDeadline",
                  "type": "uint256"
                },
                {
                  "internalType": "uint256",
                  "name": "deregistrationDeadline",
                  "type": "uint256"
                }
              ],
              "internalType": "struct CourseDataTypes.AssessmentContent",
              "name": "assessmentContent",
              "type": "tuple"
            }
          ],
          "internalType": "struct CourseDataTypes.Assessment[]",
          "name": "",
          "type": "tuple[]"
        }
      ],
      "stateMutability": "view",
      "type": "function"
    },
    {
      "inputs": [
        {
          "internalType": "uint256",
          "name": "courseId",
          "type": "uint256"
        }
      ],
      "name": "getCourseParticipants",
      "outputs": [
        {
          "components": [
            {
              "internalType": "uint256",
              "name": "uId",
              "type": "uint256"
            },
            {
              "components": [
                {
                  "internalType": "string",
                  "name": "firstName",
                  "type": "string"
                },
                {
                  "internalType": "string",
                  "name": "lastName",
                  "type": "string"
                },
                {
                  "internalType": "enum UserDataTypes.Gender",
                  "name": "gender",
                  "type": "uint8"
                },
                {
                  "components": [
                    {
                      "internalType": "uint256",
                      "name": "year",
                      "type": "uint256"
                    },
                    {
                      "internalType": "uint256",
                      "name": "month",
                      "type": "uint256"
                    },
                    {
                      "internalType": "uint256",
                      "name": "day",
                      "type": "uint256"
                    }
                  ],
                  "internalType": "struct UserDataTypes.Date",
                  "name": "dateOfBirth",
                  "type": "tuple"
                },
                {
                  "internalType": "string",
                  "name": "nationality",
                  "type": "string"
                },
                {
                  "internalType": "string",
                  "name": "phoneNumber",
                  "type": "string"
                },
                {
                  "internalType": "string",
                  "name": "emailAddress",
                  "type": "string"
                },
                {
                  "internalType": "enum UserDataTypes.UserRole",
                  "name": "role",
                  "type": "uint8"
                },
                {
                  "internalType": "uint256[]",
                  "name": "studyProgramIds",
                  "type": "uint256[]"
                }
              ],
              "internalType": "struct UserDataTypes.UserProfile",
              "name": "profile",
              "type": "tuple"
            }
          ],
          "internalType": "struct UserDataTypes.User[]",
          "name": "",
          "type": "tuple[]"
        }
      ],
      "stateMutability": "view",
      "type": "function"
    },
    {
      "inputs": [
        {
          "internalType": "uint256",
          "name": "courseId",
          "type": "uint256"
        }
      ],
      "name": "getCourseParticipantsNumber",
      "outputs": [
        {
          "internalType": "uint256",
          "name": "",
          "type": "uint256"
        }
      ],
      "stateMutability": "view",
      "type": "function"
    },
    {
      "inputs": [],
      "name": "getCoursesLecturingAt",
      "outputs": [
        {
          "components": [
            {
              "internalType": "uint256",
              "name": "courseId",
              "type": "uint256"
            },
            {
              "components": [
                {
                  "internalType": "string",
                  "name": "title",
                  "type": "string"
                },
                {
                  "internalType": "string",
                  "name": "code",
                  "type": "string"
                },
                {
                  "internalType": "enum CourseDataTypes.CourseType",
                  "name": "courseType",
                  "type": "uint8"
                },
                {
                  "components": [
                    {
                      "internalType": "uint256",
                      "name": "year",
                      "type": "uint256"
                    },
                    {
                      "internalType": "enum CourseDataTypes.SemesterSeason",
                      "name": "season",
                      "type": "uint8"
                    }
                  ],
                  "internalType": "struct CourseDataTypes.Semester",
                  "name": "semester",
                  "type": "tuple"
                },
                {
                  "internalType": "string",
                  "name": "description",
                  "type": "string"
                },
                {
                  "internalType": "string",
                  "name": "examTopics",
                  "type": "string"
                },
                {
                  "internalType": "string",
                  "name": "language",
                  "type": "string"
                },
                {
                  "internalType": "uint256",
                  "name": "ects",
                  "type": "uint256"
                },
                {
                  "internalType": "uint256",
                  "name": "maxPlaces",
                  "type": "uint256"
                },
                {
                  "internalType": "uint256",
                  "name": "registrationStart",
                  "type": "uint256"
                },
                {
                  "internalType": "uint256",
                  "name": "registrationDeadline",
                  "type": "uint256"
                },
                {
                  "internalType": "uint256",
                  "name": "deregistrationDeadline",
                  "type": "uint256"
                },
                {
                  "components": [
                    {
                      "internalType": "uint256",
                      "name": "datetime",
                      "type": "uint256"
                    },
                    {
                      "internalType": "string",
                      "name": "place",
                      "type": "string"
                    }
                  ],
                  "internalType": "struct CourseDataTypes.Class[]",
                  "name": "classes",
                  "type": "tuple[]"
                },
                {
                  "components": [
                    {
                      "internalType": "uint256",
                      "name": "grade",
                      "type": "uint256"
                    },
                    {
                      "internalType": "uint256",
                      "name": "minPercentage",
                      "type": "uint256"
                    }
                  ],
                  "internalType": "struct CourseDataTypes.GradeLevel[]",
                  "name": "gradeLevels",
                  "type": "tuple[]"
                },
                {
                  "internalType": "string[]",
                  "name": "requirementCourseCodes",
                  "type": "string[]"
                }
              ],
              "internalType": "struct CourseDataTypes.CourseContent",
              "name": "content",
              "type": "tuple"
            }
          ],
          "internalType": "struct CourseDataTypes.Course[]",
          "name": "",
          "type": "tuple[]"
        }
      ],
      "stateMutability": "view",
      "type": "function"
    },
    {
      "inputs": [
        {
          "internalType": "string",
          "name": "code",
          "type": "string"
        }
      ],
      "name": "getCoursesToCourseCode",
      "outputs": [
        {
          "components": [
            {
              "internalType": "uint256",
              "name": "courseId",
              "type": "uint256"
            },
            {
              "components": [
                {
                  "internalType": "string",
                  "name": "title",
                  "type": "string"
                },
                {
                  "internalType": "string",
                  "name": "code",
                  "type": "string"
                },
                {
                  "internalType": "enum CourseDataTypes.CourseType",
                  "name": "courseType",
                  "type": "uint8"
                },
                {
                  "components": [
                    {
                      "internalType": "uint256",
                      "name": "year",
                      "type": "uint256"
                    },
                    {
                      "internalType": "enum CourseDataTypes.SemesterSeason",
                      "name": "season",
                      "type": "uint8"
                    }
                  ],
                  "internalType": "struct CourseDataTypes.Semester",
                  "name": "semester",
                  "type": "tuple"
                },
                {
                  "internalType": "string",
                  "name": "description",
                  "type": "string"
                },
                {
                  "internalType": "string",
                  "name": "examTopics",
                  "type": "string"
                },
                {
                  "internalType": "string",
                  "name": "language",
                  "type": "string"
                },
                {
                  "internalType": "uint256",
                  "name": "ects",
                  "type": "uint256"
                },
                {
                  "internalType": "uint256",
                  "name": "maxPlaces",
                  "type": "uint256"
                },
                {
                  "internalType": "uint256",
                  "name": "registrationStart",
                  "type": "uint256"
                },
                {
                  "internalType": "uint256",
                  "name": "registrationDeadline",
                  "type": "uint256"
                },
                {
                  "internalType": "uint256",
                  "name": "deregistrationDeadline",
                  "type": "uint256"
                },
                {
                  "components": [
                    {
                      "internalType": "uint256",
                      "name": "datetime",
                      "type": "uint256"
                    },
                    {
                      "internalType": "string",
                      "name": "place",
                      "type": "string"
                    }
                  ],
                  "internalType": "struct CourseDataTypes.Class[]",
                  "name": "classes",
                  "type": "tuple[]"
                },
                {
                  "components": [
                    {
                      "internalType": "uint256",
                      "name": "grade",
                      "type": "uint256"
                    },
                    {
                      "internalType": "uint256",
                      "name": "minPercentage",
                      "type": "uint256"
                    }
                  ],
                  "internalType": "struct CourseDataTypes.GradeLevel[]",
                  "name": "gradeLevels",
                  "type": "tuple[]"
                },
                {
                  "internalType": "string[]",
                  "name": "requirementCourseCodes",
                  "type": "string[]"
                }
              ],
              "internalType": "struct CourseDataTypes.CourseContent",
              "name": "content",
              "type": "tuple"
            }
          ],
          "internalType": "struct CourseDataTypes.Course[]",
          "name": "",
          "type": "tuple[]"
        }
      ],
      "stateMutability": "view",
      "type": "function"
    },
    {
      "inputs": [
        {
          "internalType": "uint256",
          "name": "courseId",
          "type": "uint256"
        }
      ],
      "name": "getLecturersAtCourse",
      "outputs": [
        {
          "components": [
            {
              "internalType": "uint256",
              "name": "uId",
              "type": "uint256"
            },
            {
              "components": [
                {
                  "internalType": "string",
                  "name": "firstName",
                  "type": "string"
                },
                {
                  "internalType": "string",
                  "name": "lastName",
                  "type": "string"
                },
                {
                  "internalType": "enum UserDataTypes.Gender",
                  "name": "gender",
                  "type": "uint8"
                },
                {
                  "components": [
                    {
                      "internalType": "uint256",
                      "name": "year",
                      "type": "uint256"
                    },
                    {
                      "internalType": "uint256",
                      "name": "month",
                      "type": "uint256"
                    },
                    {
                      "internalType": "uint256",
                      "name": "day",
                      "type": "uint256"
                    }
                  ],
                  "internalType": "struct UserDataTypes.Date",
                  "name": "dateOfBirth",
                  "type": "tuple"
                },
                {
                  "internalType": "string",
                  "name": "nationality",
                  "type": "string"
                },
                {
                  "internalType": "string",
                  "name": "phoneNumber",
                  "type": "string"
                },
                {
                  "internalType": "string",
                  "name": "emailAddress",
                  "type": "string"
                },
                {
                  "internalType": "enum UserDataTypes.UserRole",
                  "name": "role",
                  "type": "uint8"
                },
                {
                  "internalType": "uint256[]",
                  "name": "studyProgramIds",
                  "type": "uint256[]"
                }
              ],
              "internalType": "struct UserDataTypes.UserProfile",
              "name": "profile",
              "type": "tuple"
            }
          ],
          "internalType": "struct UserDataTypes.User[]",
          "name": "",
          "type": "tuple[]"
        }
      ],
      "stateMutability": "view",
      "type": "function"
    },
    {
      "inputs": [],
      "name": "getRegisteredCourses",
      "outputs": [
        {
          "components": [
            {
              "internalType": "uint256",
              "name": "courseId",
              "type": "uint256"
            },
            {
              "components": [
                {
                  "internalType": "string",
                  "name": "title",
                  "type": "string"
                },
                {
                  "internalType": "string",
                  "name": "code",
                  "type": "string"
                },
                {
                  "internalType": "enum CourseDataTypes.CourseType",
                  "name": "courseType",
                  "type": "uint8"
                },
                {
                  "components": [
                    {
                      "internalType": "uint256",
                      "name": "year",
                      "type": "uint256"
                    },
                    {
                      "internalType": "enum CourseDataTypes.SemesterSeason",
                      "name": "season",
                      "type": "uint8"
                    }
                  ],
                  "internalType": "struct CourseDataTypes.Semester",
                  "name": "semester",
                  "type": "tuple"
                },
                {
                  "internalType": "string",
                  "name": "description",
                  "type": "string"
                },
                {
                  "internalType": "string",
                  "name": "examTopics",
                  "type": "string"
                },
                {
                  "internalType": "string",
                  "name": "language",
                  "type": "string"
                },
                {
                  "internalType": "uint256",
                  "name": "ects",
                  "type": "uint256"
                },
                {
                  "internalType": "uint256",
                  "name": "maxPlaces",
                  "type": "uint256"
                },
                {
                  "internalType": "uint256",
                  "name": "registrationStart",
                  "type": "uint256"
                },
                {
                  "internalType": "uint256",
                  "name": "registrationDeadline",
                  "type": "uint256"
                },
                {
                  "internalType": "uint256",
                  "name": "deregistrationDeadline",
                  "type": "uint256"
                },
                {
                  "components": [
                    {
                      "internalType": "uint256",
                      "name": "datetime",
                      "type": "uint256"
                    },
                    {
                      "internalType": "string",
                      "name": "place",
                      "type": "string"
                    }
                  ],
                  "internalType": "struct CourseDataTypes.Class[]",
                  "name": "classes",
                  "type": "tuple[]"
                },
                {
                  "components": [
                    {
                      "internalType": "uint256",
                      "name": "grade",
                      "type": "uint256"
                    },
                    {
                      "internalType": "uint256",
                      "name": "minPercentage",
                      "type": "uint256"
                    }
                  ],
                  "internalType": "struct CourseDataTypes.GradeLevel[]",
                  "name": "gradeLevels",
                  "type": "tuple[]"
                },
                {
                  "internalType": "string[]",
                  "name": "requirementCourseCodes",
                  "type": "string[]"
                }
              ],
              "internalType": "struct CourseDataTypes.CourseContent",
              "name": "content",
              "type": "tuple"
            }
          ],
          "internalType": "struct CourseDataTypes.Course[]",
          "name": "",
          "type": "tuple[]"
        }
      ],
      "stateMutability": "view",
      "type": "function"
    },
    {
      "inputs": [
        {
          "internalType": "uint256",
          "name": "studentUId",
          "type": "uint256"
        }
      ],
      "name": "getRegisteredCoursesOfStudent",
      "outputs": [
        {
          "components": [
            {
              "internalType": "uint256",
              "name": "courseId",
              "type": "uint256"
            },
            {
              "components": [
                {
                  "internalType": "string",
                  "name": "title",
                  "type": "string"
                },
                {
                  "internalType": "string",
                  "name": "code",
                  "type": "string"
                },
                {
                  "internalType": "enum CourseDataTypes.CourseType",
                  "name": "courseType",
                  "type": "uint8"
                },
                {
                  "components": [
                    {
                      "internalType": "uint256",
                      "name": "year",
                      "type": "uint256"
                    },
                    {
                      "internalType": "enum CourseDataTypes.SemesterSeason",
                      "name": "season",
                      "type": "uint8"
                    }
                  ],
                  "internalType": "struct CourseDataTypes.Semester",
                  "name": "semester",
                  "type": "tuple"
                },
                {
                  "internalType": "string",
                  "name": "description",
                  "type": "string"
                },
                {
                  "internalType": "string",
                  "name": "examTopics",
                  "type": "string"
                },
                {
                  "internalType": "string",
                  "name": "language",
                  "type": "string"
                },
                {
                  "internalType": "uint256",
                  "name": "ects",
                  "type": "uint256"
                },
                {
                  "internalType": "uint256",
                  "name": "maxPlaces",
                  "type": "uint256"
                },
                {
                  "internalType": "uint256",
                  "name": "registrationStart",
                  "type": "uint256"
                },
                {
                  "internalType": "uint256",
                  "name": "registrationDeadline",
                  "type": "uint256"
                },
                {
                  "internalType": "uint256",
                  "name": "deregistrationDeadline",
                  "type": "uint256"
                },
                {
                  "components": [
                    {
                      "internalType": "uint256",
                      "name": "datetime",
                      "type": "uint256"
                    },
                    {
                      "internalType": "string",
                      "name": "place",
                      "type": "string"
                    }
                  ],
                  "internalType": "struct CourseDataTypes.Class[]",
                  "name": "classes",
                  "type": "tuple[]"
                },
                {
                  "components": [
                    {
                      "internalType": "uint256",
                      "name": "grade",
                      "type": "uint256"
                    },
                    {
                      "internalType": "uint256",
                      "name": "minPercentage",
                      "type": "uint256"
                    }
                  ],
                  "internalType": "struct CourseDataTypes.GradeLevel[]",
                  "name": "gradeLevels",
                  "type": "tuple[]"
                },
                {
                  "internalType": "string[]",
                  "name": "requirementCourseCodes",
                  "type": "string[]"
                }
              ],
              "internalType": "struct CourseDataTypes.CourseContent",
              "name": "content",
              "type": "tuple"
            }
          ],
          "internalType": "struct CourseDataTypes.Course[]",
          "name": "",
          "type": "tuple[]"
        }
      ],
      "stateMutability": "view",
      "type": "function"
    },
    {
      "inputs": [
        {
          "internalType": "uint256",
          "name": "courseId",
          "type": "uint256"
        }
      ],
      "name": "isRegisteredAtCourse",
      "outputs": [
        {
          "internalType": "bool",
          "name": "",
          "type": "bool"
        }
      ],
      "stateMutability": "view",
      "type": "function"
    },
    {
      "inputs": [
        {
          "internalType": "uint256",
          "name": "assessmentId",
          "type": "uint256"
        }
      ],
      "name": "isRegisteredToAssesssment",
      "outputs": [
        {
          "internalType": "bool",
          "name": "",
          "type": "bool"
        }
      ],
      "stateMutability": "view",
      "type": "function"
    }
  ],
  "bytecode": "0x60806040523480156200001157600080fd5b506040516200447d3803806200447d8339818101604052810190620000379190620000ec565b8080806000806101000a81548173ffffffffffffffffffffffffffffffffffffffff021916908373ffffffffffffffffffffffffffffffffffffffff1602179055505050506200011e565b600080fd5b600073ffffffffffffffffffffffffffffffffffffffff82169050919050565b6000620000b48262000087565b9050919050565b620000c681620000a7565b8114620000d257600080fd5b50565b600081519050620000e681620000bb565b92915050565b60006020828403121562000105576200010462000082565b5b60006200011584828501620000d5565b91505092915050565b61434f806200012e6000396000f3fe608060405234801561001057600080fd5b50600436106100cf5760003560e01c806399aa3f5d1161008c578063c003519811610066578063c00351981461024e578063ce0a0a931461027e578063e094ed2a1461029c578063eecf3df8146102cc576100cf565b806399aa3f5d146101d0578063a5478d4f14610200578063bef7a57114610230576100cf565b806304e48bd1146100d457806308bcb4a4146100f25780634e66b6b21461011057806360270c7c146101405780636dd4b38f14610170578063893c592b146101a0575b600080fd5b6100dc6102fc565b6040516100e99190612353565b60405180910390f35b6100fa61037e565b6040516101079190612353565b60405180910390f35b61012a600480360381019061012591906123b5565b610580565b60405161013791906123fd565b60405180910390f35b61015a600480360381019061015591906123b5565b610781565b6040516101679190612782565b60405180910390f35b61018a600480360381019061018591906123b5565b610bbc565b60405161019791906127b3565b60405180910390f35b6101ba60048036038101906101b591906123b5565b610c4c565b6040516101c79190612353565b60405180910390f35b6101ea60048036038101906101e591906123b5565b610dda565b6040516101f79190612782565b60405180910390f35b61021a600480360381019061021591906123b5565b61107b565b6040516102279190612a05565b60405180910390f35b61023861110a565b6040516102459190612aad565b60405180910390f35b610268600480360381019061026391906123b5565b61118c565b60405161027591906123fd565b60405180910390f35b61028661138d565b6040516102939190612353565b60405180910390f35b6102b660048036038101906102b19190612b34565b61158f565b6040516102c39190612353565b60405180910390f35b6102e660048036038101906102e191906123b5565b6116a6565b6040516102f39190612782565b60405180910390f35b60606103066117c0565b73ffffffffffffffffffffffffffffffffffffffff166304e48bd16040518163ffffffff1660e01b8152600401600060405180830381865afa158015610350573d6000803e3d6000fd5b505050506040513d6000823e3d601f19601f82011682018060405250810190610379919061342e565b905090565b6060610388611863565b6000600281111561039c5761039b611d7e565b5b6103a4611925565b73ffffffffffffffffffffffffffffffffffffffff1663dd8b2914336040518263ffffffff1660e01b81526004016103dc91906134b8565b602060405180830381865afa1580156103f9573d6000803e3d6000fd5b505050506040513d601f19601f8201168201806040525081019061041d91906134f8565b600281111561042f5761042e611d7e565b5b1461046f576040517f08c379a000000000000000000000000000000000000000000000000000000000815260040161046690613582565b60405180910390fd5b6000610479611925565b73ffffffffffffffffffffffffffffffffffffffff1663e3d7e14c336040518263ffffffff1660e01b81526004016104b191906134b8565b602060405180830381865afa1580156104ce573d6000803e3d6000fd5b505050506040513d601f19601f820116820180604052508101906104f291906135a2565b90506104fc6117c0565b73ffffffffffffffffffffffffffffffffffffffff1663916ae6bb826040518263ffffffff1660e01b815260040161053491906127b3565b600060405180830381865afa158015610551573d6000803e3d6000fd5b505050506040513d6000823e3d601f19601f8201168201806040525081019061057a919061342e565b91505090565b600061058a611863565b6000600281111561059e5761059d611d7e565b5b6105a6611925565b73ffffffffffffffffffffffffffffffffffffffff1663dd8b2914336040518263ffffffff1660e01b81526004016105de91906134b8565b602060405180830381865afa1580156105fb573d6000803e3d6000fd5b505050506040513d601f19601f8201168201806040525081019061061f91906134f8565b600281111561063157610630611d7e565b5b14610671576040517f08c379a000000000000000000000000000000000000000000000000000000000815260040161066890613582565b60405180910390fd5b600061067b611925565b73ffffffffffffffffffffffffffffffffffffffff1663e3d7e14c336040518263ffffffff1660e01b81526004016106b391906134b8565b602060405180830381865afa1580156106d0573d6000803e3d6000fd5b505050506040513d601f19601f820116820180604052508101906106f491906135a2565b90506106fe6117c0565b73ffffffffffffffffffffffffffffffffffffffff16633932708b82856040518363ffffffff1660e01b81526004016107389291906135cf565b602060405180830381865afa158015610755573d6000803e3d6000fd5b505050506040513d601f19601f820116820180604052508101906107799190613624565b915050919050565b606061078b611863565b6001600281111561079f5761079e611d7e565b5b6107a7611925565b73ffffffffffffffffffffffffffffffffffffffff1663dd8b2914336040518263ffffffff1660e01b81526004016107df91906134b8565b602060405180830381865afa1580156107fc573d6000803e3d6000fd5b505050506040513d601f19601f8201168201806040525081019061082091906134f8565b600281111561083257610831611d7e565b5b14610872576040517f08c379a00000000000000000000000000000000000000000000000000000000081526004016108699061369d565b60405180910390fd5b600061087c611925565b73ffffffffffffffffffffffffffffffffffffffff1663e3d7e14c336040518263ffffffff1660e01b81526004016108b491906134b8565b602060405180830381865afa1580156108d1573d6000803e3d6000fd5b505050506040513d601f19601f820116820180604052508101906108f591906135a2565b905060006109016119c8565b73ffffffffffffffffffffffffffffffffffffffff1663a31cf91f856040518263ffffffff1660e01b815260040161093991906127b3565b602060405180830381865afa158015610956573d6000803e3d6000fd5b505050506040513d601f19601f8201168201806040525081019061097a91906135a2565b905061098e82826109896117c0565b611a6b565b60606109986119c8565b73ffffffffffffffffffffffffffffffffffffffff166330938d70866040518263ffffffff1660e01b81526004016109d091906127b3565b602060405180830381865afa1580156109ed573d6000803e3d6000fd5b505050506040513d601f19601f82011682018060405250810190610a119190613624565b15610aa357610a1e6119c8565b73ffffffffffffffffffffffffffffffffffffffff1663e285fd25866040518263ffffffff1660e01b8152600401610a5691906127b3565b600060405180830381865afa158015610a73573d6000803e3d6000fd5b505050506040513d6000823e3d601f19601f82011682018060405250810190610a9c9190613780565b9050610b2c565b610aab6117c0565b73ffffffffffffffffffffffffffffffffffffffff16636f4f5878836040518263ffffffff1660e01b8152600401610ae391906127b3565b600060405180830381865afa158015610b00573d6000803e3d6000fd5b505050506040513d6000823e3d601f19601f82011682018060405250810190610b299190613780565b90505b610b34611925565b73ffffffffffffffffffffffffffffffffffffffff1663b29d96f2826040518263ffffffff1660e01b8152600401610b6c9190613838565b600060405180830381865afa158015610b89573d6000803e3d6000fd5b505050506040513d6000823e3d601f19601f82011682018060405250810190610bb29190613bba565b9350505050919050565b6000610bc66117c0565b73ffffffffffffffffffffffffffffffffffffffff16636f4f5878836040518263ffffffff1660e01b8152600401610bfe91906127b3565b600060405180830381865afa158015610c1b573d6000803e3d6000fd5b505050506040513d6000823e3d601f19601f82011682018060405250810190610c449190613780565b519050919050565b6060610c56611863565b600280811115610c6957610c68611d7e565b5b610c71611925565b73ffffffffffffffffffffffffffffffffffffffff1663dd8b2914336040518263ffffffff1660e01b8152600401610ca991906134b8565b602060405180830381865afa158015610cc6573d6000803e3d6000fd5b505050506040513d601f19601f82011682018060405250810190610cea91906134f8565b6002811115610cfc57610cfb611d7e565b5b14610d3c576040517f08c379a0000000000000000000000000000000000000000000000000000000008152600401610d3390613c75565b60405180910390fd5b610d4d82610d48611925565b611b37565b610d556117c0565b73ffffffffffffffffffffffffffffffffffffffff1663916ae6bb836040518263ffffffff1660e01b8152600401610d8d91906127b3565b600060405180830381865afa158015610daa573d6000803e3d6000fd5b505050506040513d6000823e3d601f19601f82011682018060405250810190610dd3919061342e565b9050919050565b6060610de4611863565b60016002811115610df857610df7611d7e565b5b610e00611925565b73ffffffffffffffffffffffffffffffffffffffff1663dd8b2914336040518263ffffffff1660e01b8152600401610e3891906134b8565b602060405180830381865afa158015610e55573d6000803e3d6000fd5b505050506040513d601f19601f82011682018060405250810190610e7991906134f8565b6002811115610e8b57610e8a611d7e565b5b14610ecb576040517f08c379a0000000000000000000000000000000000000000000000000000000008152600401610ec29061369d565b60405180910390fd5b6000610ed5611925565b73ffffffffffffffffffffffffffffffffffffffff1663e3d7e14c336040518263ffffffff1660e01b8152600401610f0d91906134b8565b602060405180830381865afa158015610f2a573d6000803e3d6000fd5b505050506040513d601f19601f82011682018060405250810190610f4e91906135a2565b9050610f628184610f5d6117c0565b611a6b565b6000610f6c6117c0565b73ffffffffffffffffffffffffffffffffffffffff16636f4f5878856040518263ffffffff1660e01b8152600401610fa491906127b3565b600060405180830381865afa158015610fc1573d6000803e3d6000fd5b505050506040513d6000823e3d601f19601f82011682018060405250810190610fea9190613780565b9050610ff4611925565b73ffffffffffffffffffffffffffffffffffffffff1663b29d96f2826040518263ffffffff1660e01b815260040161102c9190613838565b600060405180830381865afa158015611049573d6000803e3d6000fd5b505050506040513d6000823e3d601f19601f820116820180604052508101906110729190613bba565b92505050919050565b60606110856119c8565b73ffffffffffffffffffffffffffffffffffffffff1663a5478d4f836040518263ffffffff1660e01b81526004016110bd91906127b3565b600060405180830381865afa1580156110da573d6000803e3d6000fd5b505050506040513d6000823e3d601f19601f820116820180604052508101906111039190613f35565b9050919050565b60606111146117c0565b73ffffffffffffffffffffffffffffffffffffffff1663bef7a5716040518163ffffffff1660e01b8152600401600060405180830381865afa15801561115e573d6000803e3d6000fd5b505050506040513d6000823e3d601f19601f820116820180604052508101906111879190613f7e565b905090565b6000611196611863565b600060028111156111aa576111a9611d7e565b5b6111b2611925565b73ffffffffffffffffffffffffffffffffffffffff1663dd8b2914336040518263ffffffff1660e01b81526004016111ea91906134b8565b602060405180830381865afa158015611207573d6000803e3d6000fd5b505050506040513d601f19601f8201168201806040525081019061122b91906134f8565b600281111561123d5761123c611d7e565b5b1461127d576040517f08c379a000000000000000000000000000000000000000000000000000000000815260040161127490613582565b60405180910390fd5b6000611287611925565b73ffffffffffffffffffffffffffffffffffffffff1663e3d7e14c336040518263ffffffff1660e01b81526004016112bf91906134b8565b602060405180830381865afa1580156112dc573d6000803e3d6000fd5b505050506040513d601f19601f8201168201806040525081019061130091906135a2565b905061130a6119c8565b73ffffffffffffffffffffffffffffffffffffffff166323ff178582856040518363ffffffff1660e01b81526004016113449291906135cf565b602060405180830381865afa158015611361573d6000803e3d6000fd5b505050506040513d601f19601f820116820180604052508101906113859190613624565b915050919050565b6060611397611863565b600160028111156113ab576113aa611d7e565b5b6113b3611925565b73ffffffffffffffffffffffffffffffffffffffff1663dd8b2914336040518263ffffffff1660e01b81526004016113eb91906134b8565b602060405180830381865afa158015611408573d6000803e3d6000fd5b505050506040513d601f19601f8201168201806040525081019061142c91906134f8565b600281111561143e5761143d611d7e565b5b1461147e576040517f08c379a00000000000000000000000000000000000000000000000000000000081526004016114759061369d565b60405180910390fd5b6000611488611925565b73ffffffffffffffffffffffffffffffffffffffff1663e3d7e14c336040518263ffffffff1660e01b81526004016114c091906134b8565b602060405180830381865afa1580156114dd573d6000803e3d6000fd5b505050506040513d601f19601f8201168201806040525081019061150191906135a2565b905061150b6117c0565b73ffffffffffffffffffffffffffffffffffffffff16635268561f826040518263ffffffff1660e01b815260040161154391906127b3565b600060405180830381865afa158015611560573d6000803e3d6000fd5b505050506040513d6000823e3d601f19601f82011682018060405250810190611589919061342e565b91505090565b60606115996117c0565b73ffffffffffffffffffffffffffffffffffffffff1663cf6c702d6115bc6117c0565b73ffffffffffffffffffffffffffffffffffffffff166389eb61df86866040518363ffffffff1660e01b81526004016115f6929190614003565b600060405180830381865afa158015611613573d6000803e3d6000fd5b505050506040513d6000823e3d601f19601f8201168201806040525081019061163c9190613780565b6040518263ffffffff1660e01b81526004016116589190613838565b600060405180830381865afa158015611675573d6000803e3d6000fd5b505050506040513d6000823e3d601f19601f8201168201806040525081019061169e919061342e565b905092915050565b606060006116b26117c0565b73ffffffffffffffffffffffffffffffffffffffff1663bd9c1b50846040518263ffffffff1660e01b81526004016116ea91906127b3565b600060405180830381865afa158015611707573d6000803e3d6000fd5b505050506040513d6000823e3d601f19601f820116820180604052508101906117309190613780565b905061173a611925565b73ffffffffffffffffffffffffffffffffffffffff1663b29d96f2826040518263ffffffff1660e01b81526004016117729190613838565b600060405180830381865afa15801561178f573d6000803e3d6000fd5b505050506040513d6000823e3d601f19601f820116820180604052508101906117b89190613bba565b915050919050565b60008060009054906101000a900473ffffffffffffffffffffffffffffffffffffffff1673ffffffffffffffffffffffffffffffffffffffff1663bcaa0c5560006040518263ffffffff1660e01b815260040161181d919061406f565b602060405180830381865afa15801561183a573d6000803e3d6000fd5b505050506040513d601f19601f8201168201806040525081019061185e91906140b6565b905090565b61186b611925565b73ffffffffffffffffffffffffffffffffffffffff166338b6a3a1336040518263ffffffff1660e01b81526004016118a391906134b8565b602060405180830381865afa1580156118c0573d6000803e3d6000fd5b505050506040513d601f19601f820116820180604052508101906118e49190613624565b611923576040517f08c379a000000000000000000000000000000000000000000000000000000000815260040161191a9061412f565b60405180910390fd5b565b60008060009054906101000a900473ffffffffffffffffffffffffffffffffffffffff1673ffffffffffffffffffffffffffffffffffffffff1663bcaa0c5560026040518263ffffffff1660e01b8152600401611982919061406f565b602060405180830381865afa15801561199f573d6000803e3d6000fd5b505050506040513d601f19601f820116820180604052508101906119c391906140b6565b905090565b60008060009054906101000a900473ffffffffffffffffffffffffffffffffffffffff1673ffffffffffffffffffffffffffffffffffffffff1663bcaa0c5560016040518263ffffffff1660e01b8152600401611a25919061406f565b602060405180830381865afa158015611a42573d6000803e3d6000fd5b505050506040513d601f19601f82011682018060405250810190611a6691906140b6565b905090565b611af3838273ffffffffffffffffffffffffffffffffffffffff1663bd9c1b50856040518263ffffffff1660e01b8152600401611aa891906127b3565b600060405180830381865afa158015611ac5573d6000803e3d6000fd5b505050506040513d6000823e3d601f19601f82011682018060405250810190611aee9190613780565b611c1b565b611b32576040517f08c379a0000000000000000000000000000000000000000000000000000000008152600401611b29906141c1565b60405180910390fd5b505050565b60006002811115611b4b57611b4a611d7e565b5b8173ffffffffffffffffffffffffffffffffffffffff1663bdf3e912846040518263ffffffff1660e01b8152600401611b8491906127b3565b602060405180830381865afa158015611ba1573d6000803e3d6000fd5b505050506040513d601f19601f82011682018060405250810190611bc591906134f8565b6002811115611bd757611bd6611d7e565b5b14611c17576040517f08c379a0000000000000000000000000000000000000000000000000000000008152600401611c0e90614253565b60405180910390fd5b5050565b600080611c288484611c32565b1215905092915050565b600080600090505b8251811015611c7e5783838281518110611c5757611c56614273565b5b602002602001015103611c6d5780915050611ca3565b80611c77906142d1565b9050611c3a565b507fffffffffffffffffffffffffffffffffffffffffffffffffffffffffffffffff90505b92915050565b600081519050919050565b600082825260208201905092915050565b6000819050602082019050919050565b6000819050919050565b611ce881611cd5565b82525050565b600081519050919050565b600082825260208201905092915050565b60005b83811015611d28578082015181840152602081019050611d0d565b60008484015250505050565b6000601f19601f8301169050919050565b6000611d5082611cee565b611d5a8185611cf9565b9350611d6a818560208601611d0a565b611d7381611d34565b840191505092915050565b7f4e487b7100000000000000000000000000000000000000000000000000000000600052602160045260246000fd5b60048110611dbe57611dbd611d7e565b5b50565b6000819050611dcf82611dad565b919050565b6000611ddf82611dc1565b9050919050565b611def81611dd4565b82525050565b60028110611e0657611e05611d7e565b5b50565b6000819050611e1782611df5565b919050565b6000611e2782611e09565b9050919050565b611e3781611e1c565b82525050565b604082016000820151611e536000850182611cdf565b506020820151611e666020850182611e2e565b50505050565b600081519050919050565b600082825260208201905092915050565b6000819050602082019050919050565b6000604083016000830151611eb06000860182611cdf565b5060208301518482036020860152611ec88282611d45565b9150508091505092915050565b6000611ee18383611e98565b905092915050565b6000602082019050919050565b6000611f0182611e6c565b611f0b8185611e77565b935083602082028501611f1d85611e88565b8060005b85811015611f595784840389528151611f3a8582611ed5565b9450611f4583611ee9565b925060208a01995050600181019050611f21565b50829750879550505050505092915050565b600081519050919050565b600082825260208201905092915050565b6000819050602082019050919050565b604082016000820151611fad6000850182611cdf565b506020820151611fc06020850182611cdf565b50505050565b6000611fd28383611f97565b60408301905092915050565b6000602082019050919050565b6000611ff682611f6b565b6120008185611f76565b935061200b83611f87565b8060005b8381101561203c5781516120238882611fc6565b975061202e83611fde565b92505060018101905061200f565b5085935050505092915050565b600081519050919050565b600082825260208201905092915050565b6000819050602082019050919050565b60006120818383611d45565b905092915050565b6000602082019050919050565b60006120a182612049565b6120ab8185612054565b9350836020820285016120bd85612065565b8060005b858110156120f957848403895281516120da8582612075565b94506120e583612089565b925060208a019950506001810190506120c1565b50829750879550505050505092915050565b60006102008301600083015184820360008601526121298282611d45565b915050602083015184820360208601526121438282611d45565b91505060408301516121586040860182611de6565b50606083015161216b6060860182611e3d565b50608083015184820360a08601526121838282611d45565b91505060a083015184820360c086015261219d8282611d45565b91505060c083015184820360e08601526121b78282611d45565b91505060e08301516121cd610100860182611cdf565b506101008301516121e2610120860182611cdf565b506101208301516121f7610140860182611cdf565b5061014083015161220c610160860182611cdf565b50610160830151612221610180860182611cdf565b506101808301518482036101a086015261223b8282611ef6565b9150506101a08301518482036101c08601526122578282611feb565b9150506101c08301518482036101e08601526122738282612096565b9150508091505092915050565b60006040830160008301516122986000860182611cdf565b50602083015184820360208601526122b0828261210b565b9150508091505092915050565b60006122c98383612280565b905092915050565b6000602082019050919050565b60006122e982611ca9565b6122f38185611cb4565b93508360208202850161230585611cc5565b8060005b85811015612341578484038952815161232285826122bd565b945061232d836122d1565b925060208a01995050600181019050612309565b50829750879550505050505092915050565b6000602082019050818103600083015261236d81846122de565b905092915050565b6000604051905090565b600080fd5b600080fd5b61239281611cd5565b811461239d57600080fd5b50565b6000813590506123af81612389565b92915050565b6000602082840312156123cb576123ca61237f565b5b60006123d9848285016123a0565b91505092915050565b60008115159050919050565b6123f7816123e2565b82525050565b600060208201905061241260008301846123ee565b92915050565b600081519050919050565b600082825260208201905092915050565b6000819050602082019050919050565b6003811061245557612454611d7e565b5b50565b600081905061246682612444565b919050565b600061247682612458565b9050919050565b6124868161246b565b82525050565b6060820160008201516124a26000850182611cdf565b5060208201516124b56020850182611cdf565b5060408201516124c86040850182611cdf565b50505050565b600381106124df576124de611d7e565b5b50565b60008190506124f0826124ce565b919050565b6000612500826124e2565b9050919050565b612510816124f5565b82525050565b600081519050919050565b600082825260208201905092915050565b6000819050602082019050919050565b600061254e8383611cdf565b60208301905092915050565b6000602082019050919050565b600061257282612516565b61257c8185612521565b935061258783612532565b8060005b838110156125b857815161259f8882612542565b97506125aa8361255a565b92505060018101905061258b565b5085935050505092915050565b60006101608301600083015184820360008601526125e38282611d45565b915050602083015184820360208601526125fd8282611d45565b9150506040830151612612604086018261247d565b506060830151612625606086018261248c565b50608083015184820360c086015261263d8282611d45565b91505060a083015184820360e08601526126578282611d45565b91505060c08301518482036101008601526126728282611d45565b91505060e0830151612688610120860182612507565b506101008301518482036101408601526126a28282612567565b9150508091505092915050565b60006040830160008301516126c76000860182611cdf565b50602083015184820360208601526126df82826125c5565b9150508091505092915050565b60006126f883836126af565b905092915050565b6000602082019050919050565b600061271882612418565b6127228185612423565b93508360208202850161273485612434565b8060005b85811015612770578484038952815161275185826126ec565b945061275c83612700565b925060208a01995050600181019050612738565b50829750879550505050505092915050565b6000602082019050818103600083015261279c818461270d565b905092915050565b6127ad81611cd5565b82525050565b60006020820190506127c860008301846127a4565b92915050565b600081519050919050565b600082825260208201905092915050565b6000819050602082019050919050565b6002811061280b5761280a611d7e565b5b50565b600081905061281c826127fa565b919050565b600061282c8261280e565b9050919050565b61283c81612821565b82525050565b61284b816123e2565b82525050565b600061014083016000830151848203600086015261286f8282611d45565b91505060208301516128846020860182611cdf565b506040830151848203604086015261289c8282611d45565b91505060608301516128b16060860182612833565b5060808301516128c46080860182611cdf565b5060a08301516128d760a0860182611cdf565b5060c08301516128ea60c0860182612842565b5060e08301516128fd60e0860182611cdf565b50610100830151612912610100860182611cdf565b50610120830151612927610120860182611cdf565b508091505092915050565b600060408301600083015161294a6000860182611cdf565b50602083015184820360208601526129628282612851565b9150508091505092915050565b600061297b8383612932565b905092915050565b6000602082019050919050565b600061299b826127ce565b6129a581856127d9565b9350836020820285016129b7856127ea565b8060005b858110156129f357848403895281516129d4858261296f565b94506129df83612983565b925060208a019950506001810190506129bb565b50829750879550505050505092915050565b60006020820190508181036000830152612a1f8184612990565b905092915050565b600082825260208201905092915050565b6000612a4382612049565b612a4d8185612a27565b935083602082028501612a5f85612065565b8060005b85811015612a9b5784840389528151612a7c8582612075565b9450612a8783612089565b925060208a01995050600181019050612a63565b50829750879550505050505092915050565b60006020820190508181036000830152612ac78184612a38565b905092915050565b600080fd5b600080fd5b600080fd5b60008083601f840112612af457612af3612acf565b5b8235905067ffffffffffffffff811115612b1157612b10612ad4565b5b602083019150836001820283011115612b2d57612b2c612ad9565b5b9250929050565b60008060208385031215612b4b57612b4a61237f565b5b600083013567ffffffffffffffff811115612b6957612b68612384565b5b612b7585828601612ade565b92509250509250929050565b7f4e487b7100000000000000000000000000000000000000000000000000000000600052604160045260246000fd5b612bb982611d34565b810181811067ffffffffffffffff82111715612bd857612bd7612b81565b5b80604052505050565b6000612beb612375565b9050612bf78282612bb0565b919050565b600067ffffffffffffffff821115612c1757612c16612b81565b5b602082029050602081019050919050565b600080fd5b600080fd5b600081519050612c4181612389565b92915050565b600080fd5b600067ffffffffffffffff821115612c6757612c66612b81565b5b612c7082611d34565b9050602081019050919050565b6000612c90612c8b84612c4c565b612be1565b905082815260208101848484011115612cac57612cab612c47565b5b612cb7848285611d0a565b509392505050565b600082601f830112612cd457612cd3612acf565b5b8151612ce4848260208601612c7d565b91505092915050565b60048110612cfa57600080fd5b50565b600081519050612d0c81612ced565b92915050565b60028110612d1f57600080fd5b50565b600081519050612d3181612d12565b92915050565b600060408284031215612d4d57612d4c612c28565b5b612d576040612be1565b90506000612d6784828501612c32565b6000830152506020612d7b84828501612d22565b60208301525092915050565b600067ffffffffffffffff821115612da257612da1612b81565b5b602082029050602081019050919050565b600060408284031215612dc957612dc8612c28565b5b612dd36040612be1565b90506000612de384828501612c32565b600083015250602082015167ffffffffffffffff811115612e0757612e06612c2d565b5b612e1384828501612cbf565b60208301525092915050565b6000612e32612e2d84612d87565b612be1565b90508083825260208201905060208402830185811115612e5557612e54612ad9565b5b835b81811015612e9c57805167ffffffffffffffff811115612e7a57612e79612acf565b5b808601612e878982612db3565b85526020850194505050602081019050612e57565b5050509392505050565b600082601f830112612ebb57612eba612acf565b5b8151612ecb848260208601612e1f565b91505092915050565b600067ffffffffffffffff821115612eef57612eee612b81565b5b602082029050602081019050919050565b600060408284031215612f1657612f15612c28565b5b612f206040612be1565b90506000612f3084828501612c32565b6000830152506020612f4484828501612c32565b60208301525092915050565b6000612f63612f5e84612ed4565b612be1565b90508083825260208201905060408402830185811115612f8657612f85612ad9565b5b835b81811015612faf5780612f9b8882612f00565b845260208401935050604081019050612f88565b5050509392505050565b600082601f830112612fce57612fcd612acf565b5b8151612fde848260208601612f50565b91505092915050565b600067ffffffffffffffff82111561300257613001612b81565b5b602082029050602081019050919050565b600061302661302184612fe7565b612be1565b9050808382526020820190506020840283018581111561304957613048612ad9565b5b835b8181101561309057805167ffffffffffffffff81111561306e5761306d612acf565b5b80860161307b8982612cbf565b8552602085019450505060208101905061304b565b5050509392505050565b600082601f8301126130af576130ae612acf565b5b81516130bf848260208601613013565b91505092915050565b600061020082840312156130df576130de612c28565b5b6130ea6101e0612be1565b9050600082015167ffffffffffffffff81111561310a57613109612c2d565b5b61311684828501612cbf565b600083015250602082015167ffffffffffffffff81111561313a57613139612c2d565b5b61314684828501612cbf565b602083015250604061315a84828501612cfd565b604083015250606061316e84828501612d37565b60608301525060a082015167ffffffffffffffff81111561319257613191612c2d565b5b61319e84828501612cbf565b60808301525060c082015167ffffffffffffffff8111156131c2576131c1612c2d565b5b6131ce84828501612cbf565b60a08301525060e082015167ffffffffffffffff8111156131f2576131f1612c2d565b5b6131fe84828501612cbf565b60c08301525061010061321384828501612c32565b60e08301525061012061322884828501612c32565b6101008301525061014061323e84828501612c32565b6101208301525061016061325484828501612c32565b6101408301525061018061326a84828501612c32565b610160830152506101a082015167ffffffffffffffff8111156132905761328f612c2d565b5b61329c84828501612ea6565b610180830152506101c082015167ffffffffffffffff8111156132c2576132c1612c2d565b5b6132ce84828501612fb9565b6101a0830152506101e082015167ffffffffffffffff8111156132f4576132f3612c2d565b5b6133008482850161309a565b6101c08301525092915050565b60006040828403121561332357613322612c28565b5b61332d6040612be1565b9050600061333d84828501612c32565b600083015250602082015167ffffffffffffffff81111561336157613360612c2d565b5b61336d848285016130c8565b60208301525092915050565b600061338c61338784612bfc565b612be1565b905080838252602082019050602084028301858111156133af576133ae612ad9565b5b835b818110156133f657805167ffffffffffffffff8111156133d4576133d3612acf565b5b8086016133e1898261330d565b855260208501945050506020810190506133b1565b5050509392505050565b600082601f83011261341557613414612acf565b5b8151613425848260208601613379565b91505092915050565b6000602082840312156134445761344361237f565b5b600082015167ffffffffffffffff81111561346257613461612384565b5b61346e84828501613400565b91505092915050565b600073ffffffffffffffffffffffffffffffffffffffff82169050919050565b60006134a282613477565b9050919050565b6134b281613497565b82525050565b60006020820190506134cd60008301846134a9565b92915050565b600381106134e057600080fd5b50565b6000815190506134f2816134d3565b92915050565b60006020828403121561350e5761350d61237f565b5b600061351c848285016134e3565b91505092915050565b600082825260208201905092915050565b7f53656e646572206d75737420626520612073747564656e740000000000000000600082015250565b600061356c601883613525565b915061357782613536565b602082019050919050565b6000602082019050818103600083015261359b8161355f565b9050919050565b6000602082840312156135b8576135b761237f565b5b60006135c684828501612c32565b91505092915050565b60006040820190506135e460008301856127a4565b6135f160208301846127a4565b9392505050565b613601816123e2565b811461360c57600080fd5b50565b60008151905061361e816135f8565b92915050565b60006020828403121561363a5761363961237f565b5b60006136488482850161360f565b91505092915050565b7f53656e646572206d7573742062652061206c6563747572657200000000000000600082015250565b6000613687601983613525565b915061369282613651565b602082019050919050565b600060208201905081810360008301526136b68161367a565b9050919050565b600067ffffffffffffffff8211156136d8576136d7612b81565b5b602082029050602081019050919050565b60006136fc6136f7846136bd565b612be1565b9050808382526020820190506020840283018581111561371f5761371e612ad9565b5b835b8181101561374857806137348882612c32565b845260208401935050602081019050613721565b5050509392505050565b600082601f83011261376757613766612acf565b5b81516137778482602086016136e9565b91505092915050565b6000602082840312156137965761379561237f565b5b600082015167ffffffffffffffff8111156137b4576137b3612384565b5b6137c084828501613752565b91505092915050565b600082825260208201905092915050565b60006137e582612516565b6137ef81856137c9565b93506137fa83612532565b8060005b8381101561382b5781516138128882612542565b975061381d8361255a565b9250506001810190506137fe565b5085935050505092915050565b6000602082019050818103600083015261385281846137da565b905092915050565b600067ffffffffffffffff82111561387557613874612b81565b5b602082029050602081019050919050565b6003811061389357600080fd5b50565b6000815190506138a581613886565b92915050565b6000606082840312156138c1576138c0612c28565b5b6138cb6060612be1565b905060006138db84828501612c32565b60008301525060206138ef84828501612c32565b602083015250604061390384828501612c32565b60408301525092915050565b6000610160828403121561392657613925612c28565b5b613931610120612be1565b9050600082015167ffffffffffffffff81111561395157613950612c2d565b5b61395d84828501612cbf565b600083015250602082015167ffffffffffffffff81111561398157613980612c2d565b5b61398d84828501612cbf565b60208301525060406139a184828501613896565b60408301525060606139b5848285016138ab565b60608301525060c082015167ffffffffffffffff8111156139d9576139d8612c2d565b5b6139e584828501612cbf565b60808301525060e082015167ffffffffffffffff811115613a0957613a08612c2d565b5b613a1584828501612cbf565b60a08301525061010082015167ffffffffffffffff811115613a3a57613a39612c2d565b5b613a4684828501612cbf565b60c083015250610120613a5b848285016134e3565b60e08301525061014082015167ffffffffffffffff811115613a8057613a7f612c2d565b5b613a8c84828501613752565b6101008301525092915050565b600060408284031215613aaf57613aae612c28565b5b613ab96040612be1565b90506000613ac984828501612c32565b600083015250602082015167ffffffffffffffff811115613aed57613aec612c2d565b5b613af98482850161390f565b60208301525092915050565b6000613b18613b138461385a565b612be1565b90508083825260208201905060208402830185811115613b3b57613b3a612ad9565b5b835b81811015613b8257805167ffffffffffffffff811115613b6057613b5f612acf565b5b808601613b6d8982613a99565b85526020850194505050602081019050613b3d565b5050509392505050565b600082601f830112613ba157613ba0612acf565b5b8151613bb1848260208601613b05565b91505092915050565b600060208284031215613bd057613bcf61237f565b5b600082015167ffffffffffffffff811115613bee57613bed612384565b5b613bfa84828501613b8c565b91505092915050565b7f53656e646572206d75737420626520612073747564792070726f6772616d206d60008201527f616e616765720000000000000000000000000000000000000000000000000000602082015250565b6000613c5f602683613525565b9150613c6a82613c03565b604082019050919050565b60006020820190508181036000830152613c8e81613c52565b9050919050565b600067ffffffffffffffff821115613cb057613caf612b81565b5b602082029050602081019050919050565b60028110613cce57600080fd5b50565b600081519050613ce081613cc1565b92915050565b60006101408284031215613cfd57613cfc612c28565b5b613d08610140612be1565b9050600082015167ffffffffffffffff811115613d2857613d27612c2d565b5b613d3484828501612cbf565b6000830152506020613d4884828501612c32565b602083015250604082015167ffffffffffffffff811115613d6c57613d6b612c2d565b5b613d7884828501612cbf565b6040830152506060613d8c84828501613cd1565b6060830152506080613da084828501612c32565b60808301525060a0613db484828501612c32565b60a08301525060c0613dc88482850161360f565b60c08301525060e0613ddc84828501612c32565b60e083015250610100613df184828501612c32565b61010083015250610120613e0784828501612c32565b6101208301525092915050565b600060408284031215613e2a57613e29612c28565b5b613e346040612be1565b90506000613e4484828501612c32565b600083015250602082015167ffffffffffffffff811115613e6857613e67612c2d565b5b613e7484828501613ce6565b60208301525092915050565b6000613e93613e8e84613c95565b612be1565b90508083825260208201905060208402830185811115613eb657613eb5612ad9565b5b835b81811015613efd57805167ffffffffffffffff811115613edb57613eda612acf565b5b808601613ee88982613e14565b85526020850194505050602081019050613eb8565b5050509392505050565b600082601f830112613f1c57613f1b612acf565b5b8151613f2c848260208601613e80565b91505092915050565b600060208284031215613f4b57613f4a61237f565b5b600082015167ffffffffffffffff811115613f6957613f68612384565b5b613f7584828501613f07565b91505092915050565b600060208284031215613f9457613f9361237f565b5b600082015167ffffffffffffffff811115613fb257613fb1612384565b5b613fbe8482850161309a565b91505092915050565b82818337600083830152505050565b6000613fe28385613525565b9350613fef838584613fc7565b613ff883611d34565b840190509392505050565b6000602082019050818103600083015261401e818486613fd6565b90509392505050565b6006811061403857614037611d7e565b5b50565b600081905061404982614027565b919050565b60006140598261403b565b9050919050565b6140698161404e565b82525050565b60006020820190506140846000830184614060565b92915050565b61409381613497565b811461409e57600080fd5b50565b6000815190506140b08161408a565b92915050565b6000602082840312156140cc576140cb61237f565b5b60006140da848285016140a1565b91505092915050565b7f53656e646572206d757374206265206120726567697374657265642075736572600082015250565b6000614119602083613525565b9150614124826140e3565b602082019050919050565b600060208201905081810360008301526141488161410c565b9050919050565b7f4c65637475726572206973206e6f74206c6563747572696e672061742074686960008201527f7320636f75727365000000000000000000000000000000000000000000000000602082015250565b60006141ab602883613525565b91506141b68261414f565b604082019050919050565b600060208201905081810360008301526141da8161419e565b9050919050565b7f54686520676976656e2075494420646f6573206e6f742062656c6f6e6720746f60008201527f20612073747564656e7400000000000000000000000000000000000000000000602082015250565b600061423d602a83613525565b9150614248826141e1565b604082019050919050565b6000602082019050818103600083015261426c81614230565b9050919050565b7f4e487b7100000000000000000000000000000000000000000000000000000000600052603260045260246000fd5b7f4e487b7100000000000000000000000000000000000000000000000000000000600052601160045260246000fd5b60006142dc82611cd5565b91507fffffffffffffffffffffffffffffffffffffffffffffffffffffffffffffffff820361430e5761430d6142a2565b5b60018201905091905056fea2646970667358221220f99535fef6aeea5ad5e93678eb4a98f85f2a441b84ea1642ed2798bd3ae4fd3b64736f6c63430008110033",
  "linkReferences": {},
  "deployedLinkReferences": {}
}