{
  "_format": "hh-sol-artifact-1",
  "contractName": "CourseView",
  "sourceName": "contracts/view/CourseView.sol",
  "abi": [
    {
      "inputs": [
        {
          "internalType": "address",
          "name": "addressBookAddress",
          "type": "address"
        }
      ],
      "stateMutability": "nonpayable",
      "type": "constructor"
    },
    {
      "inputs": [],
      "name": "getAllCourseCodes",
      "outputs": [
        {
          "internalType": "string[]",
          "name": "",
          "type": "string[]"
        }
      ],
      "stateMutability": "view",
      "type": "function"
    },
    {
      "inputs": [],
      "name": "getAllCourses",
      "outputs": [
        {
          "components": [
            {
              "internalType": "uint256",
              "name": "courseId",
              "type": "uint256"
            },
            {
              "components": [
                {
                  "internalType": "string",
                  "name": "title",
                  "type": "string"
                },
                {
                  "internalType": "string",
                  "name": "code",
                  "type": "string"
                },
                {
                  "internalType": "enum CourseDataTypes.CourseType",
                  "name": "courseType",
                  "type": "uint8"
                },
                {
                  "components": [
                    {
                      "internalType": "uint256",
                      "name": "year",
                      "type": "uint256"
                    },
                    {
                      "internalType": "enum CourseDataTypes.SemesterSeason",
                      "name": "season",
                      "type": "uint8"
                    }
                  ],
                  "internalType": "struct CourseDataTypes.Semester",
                  "name": "semester",
                  "type": "tuple"
                },
                {
                  "internalType": "string",
                  "name": "description",
                  "type": "string"
                },
                {
                  "internalType": "string",
                  "name": "examTopics",
                  "type": "string"
                },
                {
                  "internalType": "string",
                  "name": "language",
                  "type": "string"
                },
                {
                  "internalType": "uint256",
                  "name": "ects",
                  "type": "uint256"
                },
                {
                  "internalType": "uint256",
                  "name": "maxPlaces",
                  "type": "uint256"
                },
                {
                  "internalType": "uint256",
                  "name": "registrationStart",
                  "type": "uint256"
                },
                {
                  "internalType": "uint256",
                  "name": "registrationDeadline",
                  "type": "uint256"
                },
                {
                  "internalType": "uint256",
                  "name": "deregistrationDeadline",
                  "type": "uint256"
                },
                {
                  "components": [
                    {
                      "internalType": "uint256",
                      "name": "datetime",
                      "type": "uint256"
                    },
                    {
                      "internalType": "string",
                      "name": "place",
                      "type": "string"
                    }
                  ],
                  "internalType": "struct CourseDataTypes.Class[]",
                  "name": "classes",
                  "type": "tuple[]"
                },
                {
                  "components": [
                    {
                      "internalType": "uint256",
                      "name": "grade",
                      "type": "uint256"
                    },
                    {
                      "internalType": "uint256",
                      "name": "minPercentage",
                      "type": "uint256"
                    }
                  ],
                  "internalType": "struct CourseDataTypes.GradeLevel[]",
                  "name": "gradeLevels",
                  "type": "tuple[]"
                },
                {
                  "internalType": "string[]",
                  "name": "requirementCourseCodes",
                  "type": "string[]"
                }
              ],
              "internalType": "struct CourseDataTypes.CourseContent",
              "name": "content",
              "type": "tuple"
            }
          ],
          "internalType": "struct CourseDataTypes.Course[]",
          "name": "",
          "type": "tuple[]"
        }
      ],
      "stateMutability": "view",
      "type": "function"
    },
    {
      "inputs": [
        {
          "internalType": "uint256",
          "name": "assessmentId",
          "type": "uint256"
        }
      ],
      "name": "getAssessmentParticipants",
      "outputs": [
        {
          "components": [
            {
              "internalType": "uint256",
              "name": "uId",
              "type": "uint256"
            },
            {
              "components": [
                {
                  "internalType": "string",
                  "name": "firstName",
                  "type": "string"
                },
                {
                  "internalType": "string",
                  "name": "lastName",
                  "type": "string"
                },
                {
                  "internalType": "enum UserDataTypes.Gender",
                  "name": "gender",
                  "type": "uint8"
                },
                {
                  "components": [
                    {
                      "internalType": "uint256",
                      "name": "year",
                      "type": "uint256"
                    },
                    {
                      "internalType": "uint256",
                      "name": "month",
                      "type": "uint256"
                    },
                    {
                      "internalType": "uint256",
                      "name": "day",
                      "type": "uint256"
                    }
                  ],
                  "internalType": "struct UserDataTypes.Date",
                  "name": "dateOfBirth",
                  "type": "tuple"
                },
                {
                  "internalType": "string",
                  "name": "nationality",
                  "type": "string"
                },
                {
                  "internalType": "string",
                  "name": "phoneNumber",
                  "type": "string"
                },
                {
                  "internalType": "string",
                  "name": "emailAddress",
                  "type": "string"
                },
                {
                  "internalType": "enum UserDataTypes.UserRole",
                  "name": "role",
                  "type": "uint8"
                },
                {
                  "internalType": "uint256[]",
                  "name": "studyProgramIds",
                  "type": "uint256[]"
                }
              ],
              "internalType": "struct UserDataTypes.UserProfile",
              "name": "profile",
              "type": "tuple"
            }
          ],
          "internalType": "struct UserDataTypes.User[]",
          "name": "",
          "type": "tuple[]"
        }
      ],
      "stateMutability": "view",
      "type": "function"
    },
    {
      "inputs": [],
      "name": "getCoursesLecturingAt",
      "outputs": [
        {
          "components": [
            {
              "internalType": "uint256",
              "name": "courseId",
              "type": "uint256"
            },
            {
              "components": [
                {
                  "internalType": "string",
                  "name": "title",
                  "type": "string"
                },
                {
                  "internalType": "string",
                  "name": "code",
                  "type": "string"
                },
                {
                  "internalType": "enum CourseDataTypes.CourseType",
                  "name": "courseType",
                  "type": "uint8"
                },
                {
                  "components": [
                    {
                      "internalType": "uint256",
                      "name": "year",
                      "type": "uint256"
                    },
                    {
                      "internalType": "enum CourseDataTypes.SemesterSeason",
                      "name": "season",
                      "type": "uint8"
                    }
                  ],
                  "internalType": "struct CourseDataTypes.Semester",
                  "name": "semester",
                  "type": "tuple"
                },
                {
                  "internalType": "string",
                  "name": "description",
                  "type": "string"
                },
                {
                  "internalType": "string",
                  "name": "examTopics",
                  "type": "string"
                },
                {
                  "internalType": "string",
                  "name": "language",
                  "type": "string"
                },
                {
                  "internalType": "uint256",
                  "name": "ects",
                  "type": "uint256"
                },
                {
                  "internalType": "uint256",
                  "name": "maxPlaces",
                  "type": "uint256"
                },
                {
                  "internalType": "uint256",
                  "name": "registrationStart",
                  "type": "uint256"
                },
                {
                  "internalType": "uint256",
                  "name": "registrationDeadline",
                  "type": "uint256"
                },
                {
                  "internalType": "uint256",
                  "name": "deregistrationDeadline",
                  "type": "uint256"
                },
                {
                  "components": [
                    {
                      "internalType": "uint256",
                      "name": "datetime",
                      "type": "uint256"
                    },
                    {
                      "internalType": "string",
                      "name": "place",
                      "type": "string"
                    }
                  ],
                  "internalType": "struct CourseDataTypes.Class[]",
                  "name": "classes",
                  "type": "tuple[]"
                },
                {
                  "components": [
                    {
                      "internalType": "uint256",
                      "name": "grade",
                      "type": "uint256"
                    },
                    {
                      "internalType": "uint256",
                      "name": "minPercentage",
                      "type": "uint256"
                    }
                  ],
                  "internalType": "struct CourseDataTypes.GradeLevel[]",
                  "name": "gradeLevels",
                  "type": "tuple[]"
                },
                {
                  "internalType": "string[]",
                  "name": "requirementCourseCodes",
                  "type": "string[]"
                }
              ],
              "internalType": "struct CourseDataTypes.CourseContent",
              "name": "content",
              "type": "tuple"
            }
          ],
          "internalType": "struct CourseDataTypes.Course[]",
          "name": "",
          "type": "tuple[]"
        }
      ],
      "stateMutability": "view",
      "type": "function"
    },
    {
      "inputs": [
        {
          "internalType": "string",
          "name": "code",
          "type": "string"
        }
      ],
      "name": "getCoursesToCourseCode",
      "outputs": [
        {
          "components": [
            {
              "internalType": "uint256",
              "name": "courseId",
              "type": "uint256"
            },
            {
              "components": [
                {
                  "internalType": "string",
                  "name": "title",
                  "type": "string"
                },
                {
                  "internalType": "string",
                  "name": "code",
                  "type": "string"
                },
                {
                  "internalType": "enum CourseDataTypes.CourseType",
                  "name": "courseType",
                  "type": "uint8"
                },
                {
                  "components": [
                    {
                      "internalType": "uint256",
                      "name": "year",
                      "type": "uint256"
                    },
                    {
                      "internalType": "enum CourseDataTypes.SemesterSeason",
                      "name": "season",
                      "type": "uint8"
                    }
                  ],
                  "internalType": "struct CourseDataTypes.Semester",
                  "name": "semester",
                  "type": "tuple"
                },
                {
                  "internalType": "string",
                  "name": "description",
                  "type": "string"
                },
                {
                  "internalType": "string",
                  "name": "examTopics",
                  "type": "string"
                },
                {
                  "internalType": "string",
                  "name": "language",
                  "type": "string"
                },
                {
                  "internalType": "uint256",
                  "name": "ects",
                  "type": "uint256"
                },
                {
                  "internalType": "uint256",
                  "name": "maxPlaces",
                  "type": "uint256"
                },
                {
                  "internalType": "uint256",
                  "name": "registrationStart",
                  "type": "uint256"
                },
                {
                  "internalType": "uint256",
                  "name": "registrationDeadline",
                  "type": "uint256"
                },
                {
                  "internalType": "uint256",
                  "name": "deregistrationDeadline",
                  "type": "uint256"
                },
                {
                  "components": [
                    {
                      "internalType": "uint256",
                      "name": "datetime",
                      "type": "uint256"
                    },
                    {
                      "internalType": "string",
                      "name": "place",
                      "type": "string"
                    }
                  ],
                  "internalType": "struct CourseDataTypes.Class[]",
                  "name": "classes",
                  "type": "tuple[]"
                },
                {
                  "components": [
                    {
                      "internalType": "uint256",
                      "name": "grade",
                      "type": "uint256"
                    },
                    {
                      "internalType": "uint256",
                      "name": "minPercentage",
                      "type": "uint256"
                    }
                  ],
                  "internalType": "struct CourseDataTypes.GradeLevel[]",
                  "name": "gradeLevels",
                  "type": "tuple[]"
                },
                {
                  "internalType": "string[]",
                  "name": "requirementCourseCodes",
                  "type": "string[]"
                }
              ],
              "internalType": "struct CourseDataTypes.CourseContent",
              "name": "content",
              "type": "tuple"
            }
          ],
          "internalType": "struct CourseDataTypes.Course[]",
          "name": "",
          "type": "tuple[]"
        }
      ],
      "stateMutability": "view",
      "type": "function"
    },
    {
      "inputs": [
        {
          "internalType": "uint256",
          "name": "programId",
          "type": "uint256"
        }
      ],
      "name": "getCoursesToStudyProgram",
      "outputs": [
        {
          "components": [
            {
              "internalType": "uint256",
              "name": "courseId",
              "type": "uint256"
            },
            {
              "components": [
                {
                  "internalType": "string",
                  "name": "title",
                  "type": "string"
                },
                {
                  "internalType": "string",
                  "name": "code",
                  "type": "string"
                },
                {
                  "internalType": "enum CourseDataTypes.CourseType",
                  "name": "courseType",
                  "type": "uint8"
                },
                {
                  "components": [
                    {
                      "internalType": "uint256",
                      "name": "year",
                      "type": "uint256"
                    },
                    {
                      "internalType": "enum CourseDataTypes.SemesterSeason",
                      "name": "season",
                      "type": "uint8"
                    }
                  ],
                  "internalType": "struct CourseDataTypes.Semester",
                  "name": "semester",
                  "type": "tuple"
                },
                {
                  "internalType": "string",
                  "name": "description",
                  "type": "string"
                },
                {
                  "internalType": "string",
                  "name": "examTopics",
                  "type": "string"
                },
                {
                  "internalType": "string",
                  "name": "language",
                  "type": "string"
                },
                {
                  "internalType": "uint256",
                  "name": "ects",
                  "type": "uint256"
                },
                {
                  "internalType": "uint256",
                  "name": "maxPlaces",
                  "type": "uint256"
                },
                {
                  "internalType": "uint256",
                  "name": "registrationStart",
                  "type": "uint256"
                },
                {
                  "internalType": "uint256",
                  "name": "registrationDeadline",
                  "type": "uint256"
                },
                {
                  "internalType": "uint256",
                  "name": "deregistrationDeadline",
                  "type": "uint256"
                },
                {
                  "components": [
                    {
                      "internalType": "uint256",
                      "name": "datetime",
                      "type": "uint256"
                    },
                    {
                      "internalType": "string",
                      "name": "place",
                      "type": "string"
                    }
                  ],
                  "internalType": "struct CourseDataTypes.Class[]",
                  "name": "classes",
                  "type": "tuple[]"
                },
                {
                  "components": [
                    {
                      "internalType": "uint256",
                      "name": "grade",
                      "type": "uint256"
                    },
                    {
                      "internalType": "uint256",
                      "name": "minPercentage",
                      "type": "uint256"
                    }
                  ],
                  "internalType": "struct CourseDataTypes.GradeLevel[]",
                  "name": "gradeLevels",
                  "type": "tuple[]"
                },
                {
                  "internalType": "string[]",
                  "name": "requirementCourseCodes",
                  "type": "string[]"
                }
              ],
              "internalType": "struct CourseDataTypes.CourseContent",
              "name": "content",
              "type": "tuple"
            }
          ],
          "internalType": "struct CourseDataTypes.Course[]",
          "name": "",
          "type": "tuple[]"
        }
      ],
      "stateMutability": "view",
      "type": "function"
    },
    {
      "inputs": [],
      "name": "getRegisteredCourses",
      "outputs": [
        {
          "components": [
            {
              "internalType": "uint256",
              "name": "courseId",
              "type": "uint256"
            },
            {
              "components": [
                {
                  "internalType": "string",
                  "name": "title",
                  "type": "string"
                },
                {
                  "internalType": "string",
                  "name": "code",
                  "type": "string"
                },
                {
                  "internalType": "enum CourseDataTypes.CourseType",
                  "name": "courseType",
                  "type": "uint8"
                },
                {
                  "components": [
                    {
                      "internalType": "uint256",
                      "name": "year",
                      "type": "uint256"
                    },
                    {
                      "internalType": "enum CourseDataTypes.SemesterSeason",
                      "name": "season",
                      "type": "uint8"
                    }
                  ],
                  "internalType": "struct CourseDataTypes.Semester",
                  "name": "semester",
                  "type": "tuple"
                },
                {
                  "internalType": "string",
                  "name": "description",
                  "type": "string"
                },
                {
                  "internalType": "string",
                  "name": "examTopics",
                  "type": "string"
                },
                {
                  "internalType": "string",
                  "name": "language",
                  "type": "string"
                },
                {
                  "internalType": "uint256",
                  "name": "ects",
                  "type": "uint256"
                },
                {
                  "internalType": "uint256",
                  "name": "maxPlaces",
                  "type": "uint256"
                },
                {
                  "internalType": "uint256",
                  "name": "registrationStart",
                  "type": "uint256"
                },
                {
                  "internalType": "uint256",
                  "name": "registrationDeadline",
                  "type": "uint256"
                },
                {
                  "internalType": "uint256",
                  "name": "deregistrationDeadline",
                  "type": "uint256"
                },
                {
                  "components": [
                    {
                      "internalType": "uint256",
                      "name": "datetime",
                      "type": "uint256"
                    },
                    {
                      "internalType": "string",
                      "name": "place",
                      "type": "string"
                    }
                  ],
                  "internalType": "struct CourseDataTypes.Class[]",
                  "name": "classes",
                  "type": "tuple[]"
                },
                {
                  "components": [
                    {
                      "internalType": "uint256",
                      "name": "grade",
                      "type": "uint256"
                    },
                    {
                      "internalType": "uint256",
                      "name": "minPercentage",
                      "type": "uint256"
                    }
                  ],
                  "internalType": "struct CourseDataTypes.GradeLevel[]",
                  "name": "gradeLevels",
                  "type": "tuple[]"
                },
                {
                  "internalType": "string[]",
                  "name": "requirementCourseCodes",
                  "type": "string[]"
                }
              ],
              "internalType": "struct CourseDataTypes.CourseContent",
              "name": "content",
              "type": "tuple"
            }
          ],
          "internalType": "struct CourseDataTypes.Course[]",
          "name": "",
          "type": "tuple[]"
        }
      ],
      "stateMutability": "view",
      "type": "function"
    },
    {
      "inputs": [
        {
          "internalType": "uint256",
          "name": "studentUId",
          "type": "uint256"
        }
      ],
      "name": "getRegisteredCoursesOfStudent",
      "outputs": [
        {
          "components": [
            {
              "internalType": "uint256",
              "name": "courseId",
              "type": "uint256"
            },
            {
              "components": [
                {
                  "internalType": "string",
                  "name": "title",
                  "type": "string"
                },
                {
                  "internalType": "string",
                  "name": "code",
                  "type": "string"
                },
                {
                  "internalType": "enum CourseDataTypes.CourseType",
                  "name": "courseType",
                  "type": "uint8"
                },
                {
                  "components": [
                    {
                      "internalType": "uint256",
                      "name": "year",
                      "type": "uint256"
                    },
                    {
                      "internalType": "enum CourseDataTypes.SemesterSeason",
                      "name": "season",
                      "type": "uint8"
                    }
                  ],
                  "internalType": "struct CourseDataTypes.Semester",
                  "name": "semester",
                  "type": "tuple"
                },
                {
                  "internalType": "string",
                  "name": "description",
                  "type": "string"
                },
                {
                  "internalType": "string",
                  "name": "examTopics",
                  "type": "string"
                },
                {
                  "internalType": "string",
                  "name": "language",
                  "type": "string"
                },
                {
                  "internalType": "uint256",
                  "name": "ects",
                  "type": "uint256"
                },
                {
                  "internalType": "uint256",
                  "name": "maxPlaces",
                  "type": "uint256"
                },
                {
                  "internalType": "uint256",
                  "name": "registrationStart",
                  "type": "uint256"
                },
                {
                  "internalType": "uint256",
                  "name": "registrationDeadline",
                  "type": "uint256"
                },
                {
                  "internalType": "uint256",
                  "name": "deregistrationDeadline",
                  "type": "uint256"
                },
                {
                  "components": [
                    {
                      "internalType": "uint256",
                      "name": "datetime",
                      "type": "uint256"
                    },
                    {
                      "internalType": "string",
                      "name": "place",
                      "type": "string"
                    }
                  ],
                  "internalType": "struct CourseDataTypes.Class[]",
                  "name": "classes",
                  "type": "tuple[]"
                },
                {
                  "components": [
                    {
                      "internalType": "uint256",
                      "name": "grade",
                      "type": "uint256"
                    },
                    {
                      "internalType": "uint256",
                      "name": "minPercentage",
                      "type": "uint256"
                    }
                  ],
                  "internalType": "struct CourseDataTypes.GradeLevel[]",
                  "name": "gradeLevels",
                  "type": "tuple[]"
                },
                {
                  "internalType": "string[]",
                  "name": "requirementCourseCodes",
                  "type": "string[]"
                }
              ],
              "internalType": "struct CourseDataTypes.CourseContent",
              "name": "content",
              "type": "tuple"
            }
          ],
          "internalType": "struct CourseDataTypes.Course[]",
          "name": "",
          "type": "tuple[]"
        }
      ],
      "stateMutability": "view",
      "type": "function"
    }
  ],
  "bytecode": "0x60806040523480156200001157600080fd5b5060405162003277380380620032778339818101604052810190620000379190620000ec565b8080806000806101000a81548173ffffffffffffffffffffffffffffffffffffffff021916908373ffffffffffffffffffffffffffffffffffffffff1602179055505050506200011e565b600080fd5b600073ffffffffffffffffffffffffffffffffffffffff82169050919050565b6000620000b48262000087565b9050919050565b620000c681620000a7565b8114620000d257600080fd5b50565b600081519050620000e681620000bb565b92915050565b60006020828403121562000105576200010462000082565b5b60006200011584828501620000d5565b91505092915050565b613149806200012e6000396000f3fe608060405234801561001057600080fd5b50600436106100885760003560e01c8063893c592b1161005b578063893c592b14610129578063bef7a57114610159578063ce0a0a9314610177578063e094ed2a1461019557610088565b806304e48bd11461008d57806308bcb4a4146100ab578063111f3b5a146100c957806360270c7c146100f9575b600080fd5b6100956101c5565b6040516100a29190611855565b60405180910390f35b6100b3610247565b6040516100c09190611855565b60405180910390f35b6100e360048036038101906100de91906118b7565b610449565b6040516100f09190611855565b60405180910390f35b610113600480360381019061010e91906118b7565b6104d8565b6040516101209190611c4e565b60405180910390f35b610143600480360381019061013e91906118b7565b61083c565b6040516101509190611855565b60405180910390f35b6101616109ca565b60405161016e9190611cf6565b60405180910390f35b61017f610a4c565b60405161018c9190611855565b60405180910390f35b6101af60048036038101906101aa9190611d7d565b610c4e565b6040516101bc9190611855565b60405180910390f35b60606101cf610d65565b73ffffffffffffffffffffffffffffffffffffffff166304e48bd16040518163ffffffff1660e01b8152600401600060405180830381865afa158015610219573d6000803e3d6000fd5b505050506040513d6000823e3d601f19601f820116820180604052508101906102429190612677565b905090565b6060610251610e08565b6000600281111561026557610264611280565b5b61026d610eca565b73ffffffffffffffffffffffffffffffffffffffff1663dd8b2914336040518263ffffffff1660e01b81526004016102a59190612701565b602060405180830381865afa1580156102c2573d6000803e3d6000fd5b505050506040513d601f19601f820116820180604052508101906102e69190612741565b60028111156102f8576102f7611280565b5b14610338576040517f08c379a000000000000000000000000000000000000000000000000000000000815260040161032f906127cb565b60405180910390fd5b6000610342610eca565b73ffffffffffffffffffffffffffffffffffffffff1663e3d7e14c336040518263ffffffff1660e01b815260040161037a9190612701565b602060405180830381865afa158015610397573d6000803e3d6000fd5b505050506040513d601f19601f820116820180604052508101906103bb91906127eb565b90506103c5610d65565b73ffffffffffffffffffffffffffffffffffffffff1663916ae6bb826040518263ffffffff1660e01b81526004016103fd9190612827565b600060405180830381865afa15801561041a573d6000803e3d6000fd5b505050506040513d6000823e3d601f19601f820116820180604052508101906104439190612677565b91505090565b6060610453610d65565b73ffffffffffffffffffffffffffffffffffffffff1663d56e8ee2836040518263ffffffff1660e01b815260040161048b9190612827565b600060405180830381865afa1580156104a8573d6000803e3d6000fd5b505050506040513d6000823e3d601f19601f820116820180604052508101906104d19190612677565b9050919050565b6060806104e3610f6d565b73ffffffffffffffffffffffffffffffffffffffff166330938d70846040518263ffffffff1660e01b815260040161051b9190612827565b602060405180830381865afa158015610538573d6000803e3d6000fd5b505050506040513d601f19601f8201168201806040525081019061055c919061287a565b156105ee57610569610f6d565b73ffffffffffffffffffffffffffffffffffffffff1663e285fd25846040518263ffffffff1660e01b81526004016105a19190612827565b600060405180830381865afa1580156105be573d6000803e3d6000fd5b505050506040513d6000823e3d601f19601f820116820180604052508101906105e7919061296a565b90506106fd565b60006105f8610f6d565b73ffffffffffffffffffffffffffffffffffffffff1663a31cf91f856040518263ffffffff1660e01b81526004016106309190612827565b602060405180830381865afa15801561064d573d6000803e3d6000fd5b505050506040513d601f19601f8201168201806040525081019061067191906127eb565b905061067b610d65565b73ffffffffffffffffffffffffffffffffffffffff16636f4f5878826040518263ffffffff1660e01b81526004016106b39190612827565b600060405180830381865afa1580156106d0573d6000803e3d6000fd5b505050506040513d6000823e3d601f19601f820116820180604052508101906106f9919061296a565b9150505b6000815167ffffffffffffffff81111561071a57610719611dca565b5b60405190808252806020026020018201604052801561075357816020015b6107406110f4565b8152602001906001900390816107385790505b50905060005b82518110156108315761076a610eca565b73ffffffffffffffffffffffffffffffffffffffff1663b0467deb848381518110610798576107976129b3565b5b60200260200101516040518263ffffffff1660e01b81526004016107bc9190612827565b600060405180830381865afa1580156107d9573d6000803e3d6000fd5b505050506040513d6000823e3d601f19601f820116820180604052508101906108029190612c61565b828281518110610815576108146129b3565b5b60200260200101819052508061082a90612cd9565b9050610759565b508092505050919050565b6060610846610e08565b60028081111561085957610858611280565b5b610861610eca565b73ffffffffffffffffffffffffffffffffffffffff1663dd8b2914336040518263ffffffff1660e01b81526004016108999190612701565b602060405180830381865afa1580156108b6573d6000803e3d6000fd5b505050506040513d601f19601f820116820180604052508101906108da9190612741565b60028111156108ec576108eb611280565b5b1461092c576040517f08c379a000000000000000000000000000000000000000000000000000000000815260040161092390612d93565b60405180910390fd5b61093d82610938610eca565b611010565b610945610d65565b73ffffffffffffffffffffffffffffffffffffffff1663916ae6bb836040518263ffffffff1660e01b815260040161097d9190612827565b600060405180830381865afa15801561099a573d6000803e3d6000fd5b505050506040513d6000823e3d601f19601f820116820180604052508101906109c39190612677565b9050919050565b60606109d4610d65565b73ffffffffffffffffffffffffffffffffffffffff1663bef7a5716040518163ffffffff1660e01b8152600401600060405180830381865afa158015610a1e573d6000803e3d6000fd5b505050506040513d6000823e3d601f19601f82011682018060405250810190610a479190612db3565b905090565b6060610a56610e08565b60016002811115610a6a57610a69611280565b5b610a72610eca565b73ffffffffffffffffffffffffffffffffffffffff1663dd8b2914336040518263ffffffff1660e01b8152600401610aaa9190612701565b602060405180830381865afa158015610ac7573d6000803e3d6000fd5b505050506040513d601f19601f82011682018060405250810190610aeb9190612741565b6002811115610afd57610afc611280565b5b14610b3d576040517f08c379a0000000000000000000000000000000000000000000000000000000008152600401610b3490612e48565b60405180910390fd5b6000610b47610eca565b73ffffffffffffffffffffffffffffffffffffffff1663e3d7e14c336040518263ffffffff1660e01b8152600401610b7f9190612701565b602060405180830381865afa158015610b9c573d6000803e3d6000fd5b505050506040513d601f19601f82011682018060405250810190610bc091906127eb565b9050610bca610d65565b73ffffffffffffffffffffffffffffffffffffffff16635268561f826040518263ffffffff1660e01b8152600401610c029190612827565b600060405180830381865afa158015610c1f573d6000803e3d6000fd5b505050506040513d6000823e3d601f19601f82011682018060405250810190610c489190612677565b91505090565b6060610c58610d65565b73ffffffffffffffffffffffffffffffffffffffff1663cf6c702d610c7b610d65565b73ffffffffffffffffffffffffffffffffffffffff166389eb61df86866040518363ffffffff1660e01b8152600401610cb5929190612ea4565b600060405180830381865afa158015610cd2573d6000803e3d6000fd5b505050506040513d6000823e3d601f19601f82011682018060405250810190610cfb919061296a565b6040518263ffffffff1660e01b8152600401610d179190612f37565b600060405180830381865afa158015610d34573d6000803e3d6000fd5b505050506040513d6000823e3d601f19601f82011682018060405250810190610d5d9190612677565b905092915050565b60008060009054906101000a900473ffffffffffffffffffffffffffffffffffffffff1673ffffffffffffffffffffffffffffffffffffffff1663bcaa0c5560006040518263ffffffff1660e01b8152600401610dc29190612fa1565b602060405180830381865afa158015610ddf573d6000803e3d6000fd5b505050506040513d601f19601f82011682018060405250810190610e039190612fe8565b905090565b610e10610eca565b73ffffffffffffffffffffffffffffffffffffffff166338b6a3a1336040518263ffffffff1660e01b8152600401610e489190612701565b602060405180830381865afa158015610e65573d6000803e3d6000fd5b505050506040513d601f19601f82011682018060405250810190610e89919061287a565b610ec8576040517f08c379a0000000000000000000000000000000000000000000000000000000008152600401610ebf90613061565b60405180910390fd5b565b60008060009054906101000a900473ffffffffffffffffffffffffffffffffffffffff1673ffffffffffffffffffffffffffffffffffffffff1663bcaa0c5560026040518263ffffffff1660e01b8152600401610f279190612fa1565b602060405180830381865afa158015610f44573d6000803e3d6000fd5b505050506040513d601f19601f82011682018060405250810190610f689190612fe8565b905090565b60008060009054906101000a900473ffffffffffffffffffffffffffffffffffffffff1673ffffffffffffffffffffffffffffffffffffffff1663bcaa0c5560016040518263ffffffff1660e01b8152600401610fca9190612fa1565b602060405180830381865afa158015610fe7573d6000803e3d6000fd5b505050506040513d601f19601f8201168201806040525081019061100b9190612fe8565b905090565b6000600281111561102457611023611280565b5b8173ffffffffffffffffffffffffffffffffffffffff1663bdf3e912846040518263ffffffff1660e01b815260040161105d9190612827565b602060405180830381865afa15801561107a573d6000803e3d6000fd5b505050506040513d601f19601f8201168201806040525081019061109e9190612741565b60028111156110b0576110af611280565b5b146110f0576040517f08c379a00000000000000000000000000000000000000000000000000000000081526004016110e7906130f3565b60405180910390fd5b5050565b60405180604001604052806000815260200161110e611114565b81525090565b60405180610120016040528060608152602001606081526020016000600281111561114257611141611280565b5b815260200161114f61118a565b81526020016060815260200160608152602001606081526020016000600281111561117d5761117c611280565b5b8152602001606081525090565b60405180606001604052806000815260200160008152602001600081525090565b600081519050919050565b600082825260208201905092915050565b6000819050602082019050919050565b6000819050919050565b6111ea816111d7565b82525050565b600081519050919050565b600082825260208201905092915050565b60005b8381101561122a57808201518184015260208101905061120f565b60008484015250505050565b6000601f19601f8301169050919050565b6000611252826111f0565b61125c81856111fb565b935061126c81856020860161120c565b61127581611236565b840191505092915050565b7f4e487b7100000000000000000000000000000000000000000000000000000000600052602160045260246000fd5b600481106112c0576112bf611280565b5b50565b60008190506112d1826112af565b919050565b60006112e1826112c3565b9050919050565b6112f1816112d6565b82525050565b6002811061130857611307611280565b5b50565b6000819050611319826112f7565b919050565b60006113298261130b565b9050919050565b6113398161131e565b82525050565b60408201600082015161135560008501826111e1565b5060208201516113686020850182611330565b50505050565b600081519050919050565b600082825260208201905092915050565b6000819050602082019050919050565b60006040830160008301516113b260008601826111e1565b50602083015184820360208601526113ca8282611247565b9150508091505092915050565b60006113e3838361139a565b905092915050565b6000602082019050919050565b60006114038261136e565b61140d8185611379565b93508360208202850161141f8561138a565b8060005b8581101561145b578484038952815161143c85826113d7565b9450611447836113eb565b925060208a01995050600181019050611423565b50829750879550505050505092915050565b600081519050919050565b600082825260208201905092915050565b6000819050602082019050919050565b6040820160008201516114af60008501826111e1565b5060208201516114c260208501826111e1565b50505050565b60006114d48383611499565b60408301905092915050565b6000602082019050919050565b60006114f88261146d565b6115028185611478565b935061150d83611489565b8060005b8381101561153e57815161152588826114c8565b9750611530836114e0565b925050600181019050611511565b5085935050505092915050565b600081519050919050565b600082825260208201905092915050565b6000819050602082019050919050565b60006115838383611247565b905092915050565b6000602082019050919050565b60006115a38261154b565b6115ad8185611556565b9350836020820285016115bf85611567565b8060005b858110156115fb57848403895281516115dc8582611577565b94506115e78361158b565b925060208a019950506001810190506115c3565b50829750879550505050505092915050565b600061020083016000830151848203600086015261162b8282611247565b915050602083015184820360208601526116458282611247565b915050604083015161165a60408601826112e8565b50606083015161166d606086018261133f565b50608083015184820360a08601526116858282611247565b91505060a083015184820360c086015261169f8282611247565b91505060c083015184820360e08601526116b98282611247565b91505060e08301516116cf6101008601826111e1565b506101008301516116e46101208601826111e1565b506101208301516116f96101408601826111e1565b5061014083015161170e6101608601826111e1565b506101608301516117236101808601826111e1565b506101808301518482036101a086015261173d82826113f8565b9150506101a08301518482036101c086015261175982826114ed565b9150506101c08301518482036101e08601526117758282611598565b9150508091505092915050565b600060408301600083015161179a60008601826111e1565b50602083015184820360208601526117b2828261160d565b9150508091505092915050565b60006117cb8383611782565b905092915050565b6000602082019050919050565b60006117eb826111ab565b6117f581856111b6565b935083602082028501611807856111c7565b8060005b85811015611843578484038952815161182485826117bf565b945061182f836117d3565b925060208a0199505060018101905061180b565b50829750879550505050505092915050565b6000602082019050818103600083015261186f81846117e0565b905092915050565b6000604051905090565b600080fd5b600080fd5b611894816111d7565b811461189f57600080fd5b50565b6000813590506118b18161188b565b92915050565b6000602082840312156118cd576118cc611881565b5b60006118db848285016118a2565b91505092915050565b600081519050919050565b600082825260208201905092915050565b6000819050602082019050919050565b6003811061192157611920611280565b5b50565b600081905061193282611910565b919050565b600061194282611924565b9050919050565b61195281611937565b82525050565b60608201600082015161196e60008501826111e1565b50602082015161198160208501826111e1565b50604082015161199460408501826111e1565b50505050565b600381106119ab576119aa611280565b5b50565b60008190506119bc8261199a565b919050565b60006119cc826119ae565b9050919050565b6119dc816119c1565b82525050565b600081519050919050565b600082825260208201905092915050565b6000819050602082019050919050565b6000611a1a83836111e1565b60208301905092915050565b6000602082019050919050565b6000611a3e826119e2565b611a4881856119ed565b9350611a53836119fe565b8060005b83811015611a84578151611a6b8882611a0e565b9750611a7683611a26565b925050600181019050611a57565b5085935050505092915050565b6000610160830160008301518482036000860152611aaf8282611247565b91505060208301518482036020860152611ac98282611247565b9150506040830151611ade6040860182611949565b506060830151611af16060860182611958565b50608083015184820360c0860152611b098282611247565b91505060a083015184820360e0860152611b238282611247565b91505060c0830151848203610100860152611b3e8282611247565b91505060e0830151611b546101208601826119d3565b50610100830151848203610140860152611b6e8282611a33565b9150508091505092915050565b6000604083016000830151611b9360008601826111e1565b5060208301518482036020860152611bab8282611a91565b9150508091505092915050565b6000611bc48383611b7b565b905092915050565b6000602082019050919050565b6000611be4826118e4565b611bee81856118ef565b935083602082028501611c0085611900565b8060005b85811015611c3c5784840389528151611c1d8582611bb8565b9450611c2883611bcc565b925060208a01995050600181019050611c04565b50829750879550505050505092915050565b60006020820190508181036000830152611c688184611bd9565b905092915050565b600082825260208201905092915050565b6000611c8c8261154b565b611c968185611c70565b935083602082028501611ca885611567565b8060005b85811015611ce45784840389528151611cc58582611577565b9450611cd08361158b565b925060208a01995050600181019050611cac565b50829750879550505050505092915050565b60006020820190508181036000830152611d108184611c81565b905092915050565b600080fd5b600080fd5b600080fd5b60008083601f840112611d3d57611d3c611d18565b5b8235905067ffffffffffffffff811115611d5a57611d59611d1d565b5b602083019150836001820283011115611d7657611d75611d22565b5b9250929050565b60008060208385031215611d9457611d93611881565b5b600083013567ffffffffffffffff811115611db257611db1611886565b5b611dbe85828601611d27565b92509250509250929050565b7f4e487b7100000000000000000000000000000000000000000000000000000000600052604160045260246000fd5b611e0282611236565b810181811067ffffffffffffffff82111715611e2157611e20611dca565b5b80604052505050565b6000611e34611877565b9050611e408282611df9565b919050565b600067ffffffffffffffff821115611e6057611e5f611dca565b5b602082029050602081019050919050565b600080fd5b600080fd5b600081519050611e8a8161188b565b92915050565b600080fd5b600067ffffffffffffffff821115611eb057611eaf611dca565b5b611eb982611236565b9050602081019050919050565b6000611ed9611ed484611e95565b611e2a565b905082815260208101848484011115611ef557611ef4611e90565b5b611f0084828561120c565b509392505050565b600082601f830112611f1d57611f1c611d18565b5b8151611f2d848260208601611ec6565b91505092915050565b60048110611f4357600080fd5b50565b600081519050611f5581611f36565b92915050565b60028110611f6857600080fd5b50565b600081519050611f7a81611f5b565b92915050565b600060408284031215611f9657611f95611e71565b5b611fa06040611e2a565b90506000611fb084828501611e7b565b6000830152506020611fc484828501611f6b565b60208301525092915050565b600067ffffffffffffffff821115611feb57611fea611dca565b5b602082029050602081019050919050565b60006040828403121561201257612011611e71565b5b61201c6040611e2a565b9050600061202c84828501611e7b565b600083015250602082015167ffffffffffffffff8111156120505761204f611e76565b5b61205c84828501611f08565b60208301525092915050565b600061207b61207684611fd0565b611e2a565b9050808382526020820190506020840283018581111561209e5761209d611d22565b5b835b818110156120e557805167ffffffffffffffff8111156120c3576120c2611d18565b5b8086016120d08982611ffc565b855260208501945050506020810190506120a0565b5050509392505050565b600082601f83011261210457612103611d18565b5b8151612114848260208601612068565b91505092915050565b600067ffffffffffffffff82111561213857612137611dca565b5b602082029050602081019050919050565b60006040828403121561215f5761215e611e71565b5b6121696040611e2a565b9050600061217984828501611e7b565b600083015250602061218d84828501611e7b565b60208301525092915050565b60006121ac6121a78461211d565b611e2a565b905080838252602082019050604084028301858111156121cf576121ce611d22565b5b835b818110156121f857806121e48882612149565b8452602084019350506040810190506121d1565b5050509392505050565b600082601f83011261221757612216611d18565b5b8151612227848260208601612199565b91505092915050565b600067ffffffffffffffff82111561224b5761224a611dca565b5b602082029050602081019050919050565b600061226f61226a84612230565b611e2a565b9050808382526020820190506020840283018581111561229257612291611d22565b5b835b818110156122d957805167ffffffffffffffff8111156122b7576122b6611d18565b5b8086016122c48982611f08565b85526020850194505050602081019050612294565b5050509392505050565b600082601f8301126122f8576122f7611d18565b5b815161230884826020860161225c565b91505092915050565b6000610200828403121561232857612327611e71565b5b6123336101e0611e2a565b9050600082015167ffffffffffffffff81111561235357612352611e76565b5b61235f84828501611f08565b600083015250602082015167ffffffffffffffff81111561238357612382611e76565b5b61238f84828501611f08565b60208301525060406123a384828501611f46565b60408301525060606123b784828501611f80565b60608301525060a082015167ffffffffffffffff8111156123db576123da611e76565b5b6123e784828501611f08565b60808301525060c082015167ffffffffffffffff81111561240b5761240a611e76565b5b61241784828501611f08565b60a08301525060e082015167ffffffffffffffff81111561243b5761243a611e76565b5b61244784828501611f08565b60c08301525061010061245c84828501611e7b565b60e08301525061012061247184828501611e7b565b6101008301525061014061248784828501611e7b565b6101208301525061016061249d84828501611e7b565b610140830152506101806124b384828501611e7b565b610160830152506101a082015167ffffffffffffffff8111156124d9576124d8611e76565b5b6124e5848285016120ef565b610180830152506101c082015167ffffffffffffffff81111561250b5761250a611e76565b5b61251784828501612202565b6101a0830152506101e082015167ffffffffffffffff81111561253d5761253c611e76565b5b612549848285016122e3565b6101c08301525092915050565b60006040828403121561256c5761256b611e71565b5b6125766040611e2a565b9050600061258684828501611e7b565b600083015250602082015167ffffffffffffffff8111156125aa576125a9611e76565b5b6125b684828501612311565b60208301525092915050565b60006125d56125d084611e45565b611e2a565b905080838252602082019050602084028301858111156125f8576125f7611d22565b5b835b8181101561263f57805167ffffffffffffffff81111561261d5761261c611d18565b5b80860161262a8982612556565b855260208501945050506020810190506125fa565b5050509392505050565b600082601f83011261265e5761265d611d18565b5b815161266e8482602086016125c2565b91505092915050565b60006020828403121561268d5761268c611881565b5b600082015167ffffffffffffffff8111156126ab576126aa611886565b5b6126b784828501612649565b91505092915050565b600073ffffffffffffffffffffffffffffffffffffffff82169050919050565b60006126eb826126c0565b9050919050565b6126fb816126e0565b82525050565b600060208201905061271660008301846126f2565b92915050565b6003811061272957600080fd5b50565b60008151905061273b8161271c565b92915050565b60006020828403121561275757612756611881565b5b60006127658482850161272c565b91505092915050565b600082825260208201905092915050565b7f53656e646572206d75737420626520612073747564656e740000000000000000600082015250565b60006127b560188361276e565b91506127c08261277f565b602082019050919050565b600060208201905081810360008301526127e4816127a8565b9050919050565b60006020828403121561280157612800611881565b5b600061280f84828501611e7b565b91505092915050565b612821816111d7565b82525050565b600060208201905061283c6000830184612818565b92915050565b60008115159050919050565b61285781612842565b811461286257600080fd5b50565b6000815190506128748161284e565b92915050565b6000602082840312156128905761288f611881565b5b600061289e84828501612865565b91505092915050565b600067ffffffffffffffff8211156128c2576128c1611dca565b5b602082029050602081019050919050565b60006128e66128e1846128a7565b611e2a565b9050808382526020820190506020840283018581111561290957612908611d22565b5b835b81811015612932578061291e8882611e7b565b84526020840193505060208101905061290b565b5050509392505050565b600082601f83011261295157612950611d18565b5b81516129618482602086016128d3565b91505092915050565b6000602082840312156129805761297f611881565b5b600082015167ffffffffffffffff81111561299e5761299d611886565b5b6129aa8482850161293c565b91505092915050565b7f4e487b7100000000000000000000000000000000000000000000000000000000600052603260045260246000fd5b600381106129ef57600080fd5b50565b600081519050612a01816129e2565b92915050565b600060608284031215612a1d57612a1c611e71565b5b612a276060611e2a565b90506000612a3784828501611e7b565b6000830152506020612a4b84828501611e7b565b6020830152506040612a5f84828501611e7b565b60408301525092915050565b60006101608284031215612a8257612a81611e71565b5b612a8d610120611e2a565b9050600082015167ffffffffffffffff811115612aad57612aac611e76565b5b612ab984828501611f08565b600083015250602082015167ffffffffffffffff811115612add57612adc611e76565b5b612ae984828501611f08565b6020830152506040612afd848285016129f2565b6040830152506060612b1184828501612a07565b60608301525060c082015167ffffffffffffffff811115612b3557612b34611e76565b5b612b4184828501611f08565b60808301525060e082015167ffffffffffffffff811115612b6557612b64611e76565b5b612b7184828501611f08565b60a08301525061010082015167ffffffffffffffff811115612b9657612b95611e76565b5b612ba284828501611f08565b60c083015250610120612bb78482850161272c565b60e08301525061014082015167ffffffffffffffff811115612bdc57612bdb611e76565b5b612be88482850161293c565b6101008301525092915050565b600060408284031215612c0b57612c0a611e71565b5b612c156040611e2a565b90506000612c2584828501611e7b565b600083015250602082015167ffffffffffffffff811115612c4957612c48611e76565b5b612c5584828501612a6b565b60208301525092915050565b600060208284031215612c7757612c76611881565b5b600082015167ffffffffffffffff811115612c9557612c94611886565b5b612ca184828501612bf5565b91505092915050565b7f4e487b7100000000000000000000000000000000000000000000000000000000600052601160045260246000fd5b6000612ce4826111d7565b91507fffffffffffffffffffffffffffffffffffffffffffffffffffffffffffffffff8203612d1657612d15612caa565b5b600182019050919050565b7f53656e646572206d75737420626520612073747564792070726f6772616d206d60008201527f616e616765720000000000000000000000000000000000000000000000000000602082015250565b6000612d7d60268361276e565b9150612d8882612d21565b604082019050919050565b60006020820190508181036000830152612dac81612d70565b9050919050565b600060208284031215612dc957612dc8611881565b5b600082015167ffffffffffffffff811115612de757612de6611886565b5b612df3848285016122e3565b91505092915050565b7f53656e646572206d7573742062652061206c6563747572657200000000000000600082015250565b6000612e3260198361276e565b9150612e3d82612dfc565b602082019050919050565b60006020820190508181036000830152612e6181612e25565b9050919050565b82818337600083830152505050565b6000612e83838561276e565b9350612e90838584612e68565b612e9983611236565b840190509392505050565b60006020820190508181036000830152612ebf818486612e77565b90509392505050565b600082825260208201905092915050565b6000612ee4826119e2565b612eee8185612ec8565b9350612ef9836119fe565b8060005b83811015612f2a578151612f118882611a0e565b9750612f1c83611a26565b925050600181019050612efd565b5085935050505092915050565b60006020820190508181036000830152612f518184612ed9565b905092915050565b60068110612f6a57612f69611280565b5b50565b6000819050612f7b82612f59565b919050565b6000612f8b82612f6d565b9050919050565b612f9b81612f80565b82525050565b6000602082019050612fb66000830184612f92565b92915050565b612fc5816126e0565b8114612fd057600080fd5b50565b600081519050612fe281612fbc565b92915050565b600060208284031215612ffe57612ffd611881565b5b600061300c84828501612fd3565b91505092915050565b7f53656e646572206d757374206265206120726567697374657265642075736572600082015250565b600061304b60208361276e565b915061305682613015565b602082019050919050565b6000602082019050818103600083015261307a8161303e565b9050919050565b7f54686520676976656e2075494420646f6573206e6f742062656c6f6e6720746f60008201527f20612073747564656e7400000000000000000000000000000000000000000000602082015250565b60006130dd602a8361276e565b91506130e882613081565b604082019050919050565b6000602082019050818103600083015261310c816130d0565b905091905056fea2646970667358221220c582b1bd425698b219ad772cc547b6306631c5c33dd31d97baf362aa398fa4ad64736f6c63430008110033",
  "linkReferences": {},
  "deployedLinkReferences": {}
}