{
  "_format": "hh-sol-artifact-1",
  "contractName": "CourseView",
  "sourceName": "contracts/view/CourseView.sol",
  "abi": [
    {
      "inputs": [
        {
          "internalType": "address",
          "name": "addressBookAddress",
          "type": "address"
        }
      ],
      "stateMutability": "nonpayable",
      "type": "constructor"
    },
    {
      "inputs": [],
      "name": "getAllCourseCodes",
      "outputs": [
        {
          "internalType": "string[]",
          "name": "",
          "type": "string[]"
        }
      ],
      "stateMutability": "view",
      "type": "function"
    },
    {
      "inputs": [],
      "name": "getAllCourses",
      "outputs": [
        {
          "components": [
            {
              "internalType": "uint256",
              "name": "courseId",
              "type": "uint256"
            },
            {
              "components": [
                {
                  "internalType": "string",
                  "name": "title",
                  "type": "string"
                },
                {
                  "internalType": "string",
                  "name": "code",
                  "type": "string"
                },
                {
                  "internalType": "enum CourseDataTypes.CourseType",
                  "name": "courseType",
                  "type": "uint8"
                },
                {
                  "components": [
                    {
                      "internalType": "uint256",
                      "name": "year",
                      "type": "uint256"
                    },
                    {
                      "internalType": "enum CourseDataTypes.SemesterSeason",
                      "name": "season",
                      "type": "uint8"
                    }
                  ],
                  "internalType": "struct CourseDataTypes.Semester",
                  "name": "semester",
                  "type": "tuple"
                },
                {
                  "internalType": "string",
                  "name": "description",
                  "type": "string"
                },
                {
                  "internalType": "string",
                  "name": "examTopics",
                  "type": "string"
                },
                {
                  "internalType": "string",
                  "name": "language",
                  "type": "string"
                },
                {
                  "internalType": "uint256",
                  "name": "ects",
                  "type": "uint256"
                },
                {
                  "internalType": "uint256",
                  "name": "maxPlaces",
                  "type": "uint256"
                },
                {
                  "internalType": "uint256",
                  "name": "registrationStart",
                  "type": "uint256"
                },
                {
                  "internalType": "uint256",
                  "name": "registrationDeadline",
                  "type": "uint256"
                },
                {
                  "internalType": "uint256",
                  "name": "deregistrationDeadline",
                  "type": "uint256"
                },
                {
                  "components": [
                    {
                      "internalType": "uint256",
                      "name": "datetime",
                      "type": "uint256"
                    },
                    {
                      "internalType": "string",
                      "name": "place",
                      "type": "string"
                    }
                  ],
                  "internalType": "struct CourseDataTypes.Class[]",
                  "name": "classes",
                  "type": "tuple[]"
                },
                {
                  "components": [
                    {
                      "internalType": "uint256",
                      "name": "grade",
                      "type": "uint256"
                    },
                    {
                      "internalType": "uint256",
                      "name": "minPercentage",
                      "type": "uint256"
                    }
                  ],
                  "internalType": "struct CourseDataTypes.GradeLevel[]",
                  "name": "gradeLevels",
                  "type": "tuple[]"
                },
                {
                  "internalType": "string[]",
                  "name": "requirementCourseCodes",
                  "type": "string[]"
                }
              ],
              "internalType": "struct CourseDataTypes.CourseContent",
              "name": "content",
              "type": "tuple"
            }
          ],
          "internalType": "struct CourseDataTypes.Course[]",
          "name": "",
          "type": "tuple[]"
        }
      ],
      "stateMutability": "view",
      "type": "function"
    },
    {
      "inputs": [
        {
          "internalType": "uint256",
          "name": "assessmentId",
          "type": "uint256"
        }
      ],
      "name": "getAssessmentParticipants",
      "outputs": [
        {
          "components": [
            {
              "internalType": "uint256",
              "name": "uId",
              "type": "uint256"
            },
            {
              "components": [
                {
                  "internalType": "string",
                  "name": "firstName",
                  "type": "string"
                },
                {
                  "internalType": "string",
                  "name": "lastName",
                  "type": "string"
                },
                {
                  "internalType": "enum UserDataTypes.Gender",
                  "name": "gender",
                  "type": "uint8"
                },
                {
                  "components": [
                    {
                      "internalType": "uint256",
                      "name": "year",
                      "type": "uint256"
                    },
                    {
                      "internalType": "uint256",
                      "name": "month",
                      "type": "uint256"
                    },
                    {
                      "internalType": "uint256",
                      "name": "day",
                      "type": "uint256"
                    }
                  ],
                  "internalType": "struct UserDataTypes.Date",
                  "name": "dateOfBirth",
                  "type": "tuple"
                },
                {
                  "internalType": "string",
                  "name": "nationality",
                  "type": "string"
                },
                {
                  "internalType": "string",
                  "name": "phoneNumber",
                  "type": "string"
                },
                {
                  "internalType": "string",
                  "name": "emailAddress",
                  "type": "string"
                },
                {
                  "internalType": "enum UserDataTypes.UserRole",
                  "name": "role",
                  "type": "uint8"
                },
                {
                  "internalType": "uint256[]",
                  "name": "studyProgramIds",
                  "type": "uint256[]"
                }
              ],
              "internalType": "struct UserDataTypes.UserProfile",
              "name": "profile",
              "type": "tuple"
            }
          ],
          "internalType": "struct UserDataTypes.User[]",
          "name": "",
          "type": "tuple[]"
        }
      ],
      "stateMutability": "view",
      "type": "function"
    },
    {
      "inputs": [
        {
          "internalType": "uint256",
          "name": "courseId",
          "type": "uint256"
        }
      ],
      "name": "getAssessmentsToCourseId",
      "outputs": [
        {
          "components": [
            {
              "internalType": "uint256",
              "name": "assessmentId",
              "type": "uint256"
            },
            {
              "components": [
                {
                  "internalType": "string",
                  "name": "title",
                  "type": "string"
                },
                {
                  "internalType": "uint256",
                  "name": "datetime",
                  "type": "uint256"
                },
                {
                  "internalType": "string",
                  "name": "place",
                  "type": "string"
                },
                {
                  "internalType": "enum CourseDataTypes.AssessmentType",
                  "name": "assessmentType",
                  "type": "uint8"
                },
                {
                  "internalType": "uint256",
                  "name": "maxPoints",
                  "type": "uint256"
                },
                {
                  "internalType": "uint256",
                  "name": "minPoints",
                  "type": "uint256"
                },
                {
                  "internalType": "bool",
                  "name": "isRegistrationRequired",
                  "type": "bool"
                },
                {
                  "internalType": "uint256",
                  "name": "registrationStart",
                  "type": "uint256"
                },
                {
                  "internalType": "uint256",
                  "name": "registrationDeadline",
                  "type": "uint256"
                },
                {
                  "internalType": "uint256",
                  "name": "deregistrationDeadline",
                  "type": "uint256"
                }
              ],
              "internalType": "struct CourseDataTypes.AssessmentContent",
              "name": "assessmentContent",
              "type": "tuple"
            }
          ],
          "internalType": "struct CourseDataTypes.Assessment[]",
          "name": "",
          "type": "tuple[]"
        }
      ],
      "stateMutability": "view",
      "type": "function"
    },
    {
      "inputs": [
        {
          "internalType": "uint256",
          "name": "courseId",
          "type": "uint256"
        }
      ],
      "name": "getCourseParticipants",
      "outputs": [
        {
          "components": [
            {
              "internalType": "uint256",
              "name": "uId",
              "type": "uint256"
            },
            {
              "components": [
                {
                  "internalType": "string",
                  "name": "firstName",
                  "type": "string"
                },
                {
                  "internalType": "string",
                  "name": "lastName",
                  "type": "string"
                },
                {
                  "internalType": "enum UserDataTypes.Gender",
                  "name": "gender",
                  "type": "uint8"
                },
                {
                  "components": [
                    {
                      "internalType": "uint256",
                      "name": "year",
                      "type": "uint256"
                    },
                    {
                      "internalType": "uint256",
                      "name": "month",
                      "type": "uint256"
                    },
                    {
                      "internalType": "uint256",
                      "name": "day",
                      "type": "uint256"
                    }
                  ],
                  "internalType": "struct UserDataTypes.Date",
                  "name": "dateOfBirth",
                  "type": "tuple"
                },
                {
                  "internalType": "string",
                  "name": "nationality",
                  "type": "string"
                },
                {
                  "internalType": "string",
                  "name": "phoneNumber",
                  "type": "string"
                },
                {
                  "internalType": "string",
                  "name": "emailAddress",
                  "type": "string"
                },
                {
                  "internalType": "enum UserDataTypes.UserRole",
                  "name": "role",
                  "type": "uint8"
                },
                {
                  "internalType": "uint256[]",
                  "name": "studyProgramIds",
                  "type": "uint256[]"
                }
              ],
              "internalType": "struct UserDataTypes.UserProfile",
              "name": "profile",
              "type": "tuple"
            }
          ],
          "internalType": "struct UserDataTypes.User[]",
          "name": "",
          "type": "tuple[]"
        }
      ],
      "stateMutability": "view",
      "type": "function"
    },
    {
      "inputs": [
        {
          "internalType": "uint256",
          "name": "courseId",
          "type": "uint256"
        }
      ],
      "name": "getCourseParticipantsNumber",
      "outputs": [
        {
          "internalType": "uint256",
          "name": "",
          "type": "uint256"
        }
      ],
      "stateMutability": "view",
      "type": "function"
    },
    {
      "inputs": [],
      "name": "getCoursesLecturingAt",
      "outputs": [
        {
          "components": [
            {
              "internalType": "uint256",
              "name": "courseId",
              "type": "uint256"
            },
            {
              "components": [
                {
                  "internalType": "string",
                  "name": "title",
                  "type": "string"
                },
                {
                  "internalType": "string",
                  "name": "code",
                  "type": "string"
                },
                {
                  "internalType": "enum CourseDataTypes.CourseType",
                  "name": "courseType",
                  "type": "uint8"
                },
                {
                  "components": [
                    {
                      "internalType": "uint256",
                      "name": "year",
                      "type": "uint256"
                    },
                    {
                      "internalType": "enum CourseDataTypes.SemesterSeason",
                      "name": "season",
                      "type": "uint8"
                    }
                  ],
                  "internalType": "struct CourseDataTypes.Semester",
                  "name": "semester",
                  "type": "tuple"
                },
                {
                  "internalType": "string",
                  "name": "description",
                  "type": "string"
                },
                {
                  "internalType": "string",
                  "name": "examTopics",
                  "type": "string"
                },
                {
                  "internalType": "string",
                  "name": "language",
                  "type": "string"
                },
                {
                  "internalType": "uint256",
                  "name": "ects",
                  "type": "uint256"
                },
                {
                  "internalType": "uint256",
                  "name": "maxPlaces",
                  "type": "uint256"
                },
                {
                  "internalType": "uint256",
                  "name": "registrationStart",
                  "type": "uint256"
                },
                {
                  "internalType": "uint256",
                  "name": "registrationDeadline",
                  "type": "uint256"
                },
                {
                  "internalType": "uint256",
                  "name": "deregistrationDeadline",
                  "type": "uint256"
                },
                {
                  "components": [
                    {
                      "internalType": "uint256",
                      "name": "datetime",
                      "type": "uint256"
                    },
                    {
                      "internalType": "string",
                      "name": "place",
                      "type": "string"
                    }
                  ],
                  "internalType": "struct CourseDataTypes.Class[]",
                  "name": "classes",
                  "type": "tuple[]"
                },
                {
                  "components": [
                    {
                      "internalType": "uint256",
                      "name": "grade",
                      "type": "uint256"
                    },
                    {
                      "internalType": "uint256",
                      "name": "minPercentage",
                      "type": "uint256"
                    }
                  ],
                  "internalType": "struct CourseDataTypes.GradeLevel[]",
                  "name": "gradeLevels",
                  "type": "tuple[]"
                },
                {
                  "internalType": "string[]",
                  "name": "requirementCourseCodes",
                  "type": "string[]"
                }
              ],
              "internalType": "struct CourseDataTypes.CourseContent",
              "name": "content",
              "type": "tuple"
            }
          ],
          "internalType": "struct CourseDataTypes.Course[]",
          "name": "",
          "type": "tuple[]"
        }
      ],
      "stateMutability": "view",
      "type": "function"
    },
    {
      "inputs": [
        {
          "internalType": "string",
          "name": "code",
          "type": "string"
        }
      ],
      "name": "getCoursesToCourseCode",
      "outputs": [
        {
          "components": [
            {
              "internalType": "uint256",
              "name": "courseId",
              "type": "uint256"
            },
            {
              "components": [
                {
                  "internalType": "string",
                  "name": "title",
                  "type": "string"
                },
                {
                  "internalType": "string",
                  "name": "code",
                  "type": "string"
                },
                {
                  "internalType": "enum CourseDataTypes.CourseType",
                  "name": "courseType",
                  "type": "uint8"
                },
                {
                  "components": [
                    {
                      "internalType": "uint256",
                      "name": "year",
                      "type": "uint256"
                    },
                    {
                      "internalType": "enum CourseDataTypes.SemesterSeason",
                      "name": "season",
                      "type": "uint8"
                    }
                  ],
                  "internalType": "struct CourseDataTypes.Semester",
                  "name": "semester",
                  "type": "tuple"
                },
                {
                  "internalType": "string",
                  "name": "description",
                  "type": "string"
                },
                {
                  "internalType": "string",
                  "name": "examTopics",
                  "type": "string"
                },
                {
                  "internalType": "string",
                  "name": "language",
                  "type": "string"
                },
                {
                  "internalType": "uint256",
                  "name": "ects",
                  "type": "uint256"
                },
                {
                  "internalType": "uint256",
                  "name": "maxPlaces",
                  "type": "uint256"
                },
                {
                  "internalType": "uint256",
                  "name": "registrationStart",
                  "type": "uint256"
                },
                {
                  "internalType": "uint256",
                  "name": "registrationDeadline",
                  "type": "uint256"
                },
                {
                  "internalType": "uint256",
                  "name": "deregistrationDeadline",
                  "type": "uint256"
                },
                {
                  "components": [
                    {
                      "internalType": "uint256",
                      "name": "datetime",
                      "type": "uint256"
                    },
                    {
                      "internalType": "string",
                      "name": "place",
                      "type": "string"
                    }
                  ],
                  "internalType": "struct CourseDataTypes.Class[]",
                  "name": "classes",
                  "type": "tuple[]"
                },
                {
                  "components": [
                    {
                      "internalType": "uint256",
                      "name": "grade",
                      "type": "uint256"
                    },
                    {
                      "internalType": "uint256",
                      "name": "minPercentage",
                      "type": "uint256"
                    }
                  ],
                  "internalType": "struct CourseDataTypes.GradeLevel[]",
                  "name": "gradeLevels",
                  "type": "tuple[]"
                },
                {
                  "internalType": "string[]",
                  "name": "requirementCourseCodes",
                  "type": "string[]"
                }
              ],
              "internalType": "struct CourseDataTypes.CourseContent",
              "name": "content",
              "type": "tuple"
            }
          ],
          "internalType": "struct CourseDataTypes.Course[]",
          "name": "",
          "type": "tuple[]"
        }
      ],
      "stateMutability": "view",
      "type": "function"
    },
    {
      "inputs": [
        {
          "internalType": "uint256",
          "name": "courseId",
          "type": "uint256"
        }
      ],
      "name": "getLecturersAtCourse",
      "outputs": [
        {
          "components": [
            {
              "internalType": "uint256",
              "name": "uId",
              "type": "uint256"
            },
            {
              "components": [
                {
                  "internalType": "string",
                  "name": "firstName",
                  "type": "string"
                },
                {
                  "internalType": "string",
                  "name": "lastName",
                  "type": "string"
                },
                {
                  "internalType": "enum UserDataTypes.Gender",
                  "name": "gender",
                  "type": "uint8"
                },
                {
                  "components": [
                    {
                      "internalType": "uint256",
                      "name": "year",
                      "type": "uint256"
                    },
                    {
                      "internalType": "uint256",
                      "name": "month",
                      "type": "uint256"
                    },
                    {
                      "internalType": "uint256",
                      "name": "day",
                      "type": "uint256"
                    }
                  ],
                  "internalType": "struct UserDataTypes.Date",
                  "name": "dateOfBirth",
                  "type": "tuple"
                },
                {
                  "internalType": "string",
                  "name": "nationality",
                  "type": "string"
                },
                {
                  "internalType": "string",
                  "name": "phoneNumber",
                  "type": "string"
                },
                {
                  "internalType": "string",
                  "name": "emailAddress",
                  "type": "string"
                },
                {
                  "internalType": "enum UserDataTypes.UserRole",
                  "name": "role",
                  "type": "uint8"
                },
                {
                  "internalType": "uint256[]",
                  "name": "studyProgramIds",
                  "type": "uint256[]"
                }
              ],
              "internalType": "struct UserDataTypes.UserProfile",
              "name": "profile",
              "type": "tuple"
            }
          ],
          "internalType": "struct UserDataTypes.User[]",
          "name": "",
          "type": "tuple[]"
        }
      ],
      "stateMutability": "view",
      "type": "function"
    },
    {
      "inputs": [],
      "name": "getRegisteredCourses",
      "outputs": [
        {
          "components": [
            {
              "internalType": "uint256",
              "name": "courseId",
              "type": "uint256"
            },
            {
              "components": [
                {
                  "internalType": "string",
                  "name": "title",
                  "type": "string"
                },
                {
                  "internalType": "string",
                  "name": "code",
                  "type": "string"
                },
                {
                  "internalType": "enum CourseDataTypes.CourseType",
                  "name": "courseType",
                  "type": "uint8"
                },
                {
                  "components": [
                    {
                      "internalType": "uint256",
                      "name": "year",
                      "type": "uint256"
                    },
                    {
                      "internalType": "enum CourseDataTypes.SemesterSeason",
                      "name": "season",
                      "type": "uint8"
                    }
                  ],
                  "internalType": "struct CourseDataTypes.Semester",
                  "name": "semester",
                  "type": "tuple"
                },
                {
                  "internalType": "string",
                  "name": "description",
                  "type": "string"
                },
                {
                  "internalType": "string",
                  "name": "examTopics",
                  "type": "string"
                },
                {
                  "internalType": "string",
                  "name": "language",
                  "type": "string"
                },
                {
                  "internalType": "uint256",
                  "name": "ects",
                  "type": "uint256"
                },
                {
                  "internalType": "uint256",
                  "name": "maxPlaces",
                  "type": "uint256"
                },
                {
                  "internalType": "uint256",
                  "name": "registrationStart",
                  "type": "uint256"
                },
                {
                  "internalType": "uint256",
                  "name": "registrationDeadline",
                  "type": "uint256"
                },
                {
                  "internalType": "uint256",
                  "name": "deregistrationDeadline",
                  "type": "uint256"
                },
                {
                  "components": [
                    {
                      "internalType": "uint256",
                      "name": "datetime",
                      "type": "uint256"
                    },
                    {
                      "internalType": "string",
                      "name": "place",
                      "type": "string"
                    }
                  ],
                  "internalType": "struct CourseDataTypes.Class[]",
                  "name": "classes",
                  "type": "tuple[]"
                },
                {
                  "components": [
                    {
                      "internalType": "uint256",
                      "name": "grade",
                      "type": "uint256"
                    },
                    {
                      "internalType": "uint256",
                      "name": "minPercentage",
                      "type": "uint256"
                    }
                  ],
                  "internalType": "struct CourseDataTypes.GradeLevel[]",
                  "name": "gradeLevels",
                  "type": "tuple[]"
                },
                {
                  "internalType": "string[]",
                  "name": "requirementCourseCodes",
                  "type": "string[]"
                }
              ],
              "internalType": "struct CourseDataTypes.CourseContent",
              "name": "content",
              "type": "tuple"
            }
          ],
          "internalType": "struct CourseDataTypes.Course[]",
          "name": "",
          "type": "tuple[]"
        }
      ],
      "stateMutability": "view",
      "type": "function"
    },
    {
      "inputs": [
        {
          "internalType": "uint256",
          "name": "studentUId",
          "type": "uint256"
        }
      ],
      "name": "getRegisteredCoursesOfStudent",
      "outputs": [
        {
          "components": [
            {
              "internalType": "uint256",
              "name": "courseId",
              "type": "uint256"
            },
            {
              "components": [
                {
                  "internalType": "string",
                  "name": "title",
                  "type": "string"
                },
                {
                  "internalType": "string",
                  "name": "code",
                  "type": "string"
                },
                {
                  "internalType": "enum CourseDataTypes.CourseType",
                  "name": "courseType",
                  "type": "uint8"
                },
                {
                  "components": [
                    {
                      "internalType": "uint256",
                      "name": "year",
                      "type": "uint256"
                    },
                    {
                      "internalType": "enum CourseDataTypes.SemesterSeason",
                      "name": "season",
                      "type": "uint8"
                    }
                  ],
                  "internalType": "struct CourseDataTypes.Semester",
                  "name": "semester",
                  "type": "tuple"
                },
                {
                  "internalType": "string",
                  "name": "description",
                  "type": "string"
                },
                {
                  "internalType": "string",
                  "name": "examTopics",
                  "type": "string"
                },
                {
                  "internalType": "string",
                  "name": "language",
                  "type": "string"
                },
                {
                  "internalType": "uint256",
                  "name": "ects",
                  "type": "uint256"
                },
                {
                  "internalType": "uint256",
                  "name": "maxPlaces",
                  "type": "uint256"
                },
                {
                  "internalType": "uint256",
                  "name": "registrationStart",
                  "type": "uint256"
                },
                {
                  "internalType": "uint256",
                  "name": "registrationDeadline",
                  "type": "uint256"
                },
                {
                  "internalType": "uint256",
                  "name": "deregistrationDeadline",
                  "type": "uint256"
                },
                {
                  "components": [
                    {
                      "internalType": "uint256",
                      "name": "datetime",
                      "type": "uint256"
                    },
                    {
                      "internalType": "string",
                      "name": "place",
                      "type": "string"
                    }
                  ],
                  "internalType": "struct CourseDataTypes.Class[]",
                  "name": "classes",
                  "type": "tuple[]"
                },
                {
                  "components": [
                    {
                      "internalType": "uint256",
                      "name": "grade",
                      "type": "uint256"
                    },
                    {
                      "internalType": "uint256",
                      "name": "minPercentage",
                      "type": "uint256"
                    }
                  ],
                  "internalType": "struct CourseDataTypes.GradeLevel[]",
                  "name": "gradeLevels",
                  "type": "tuple[]"
                },
                {
                  "internalType": "string[]",
                  "name": "requirementCourseCodes",
                  "type": "string[]"
                }
              ],
              "internalType": "struct CourseDataTypes.CourseContent",
              "name": "content",
              "type": "tuple"
            }
          ],
          "internalType": "struct CourseDataTypes.Course[]",
          "name": "",
          "type": "tuple[]"
        }
      ],
      "stateMutability": "view",
      "type": "function"
    },
    {
      "inputs": [
        {
          "internalType": "uint256",
          "name": "courseId",
          "type": "uint256"
        }
      ],
      "name": "isRegisteredAtCourse",
      "outputs": [
        {
          "internalType": "bool",
          "name": "",
          "type": "bool"
        }
      ],
      "stateMutability": "view",
      "type": "function"
    },
    {
      "inputs": [
        {
          "internalType": "uint256",
          "name": "assessmentId",
          "type": "uint256"
        }
      ],
      "name": "isRegisteredToAssessment",
      "outputs": [
        {
          "internalType": "bool",
          "name": "",
          "type": "bool"
        }
      ],
      "stateMutability": "view",
      "type": "function"
    }
  ],
  "bytecode": "0x60806040523480156200001157600080fd5b5060405162004615380380620046158339818101604052810190620000379190620000ec565b8080806000806101000a81548173ffffffffffffffffffffffffffffffffffffffff021916908373ffffffffffffffffffffffffffffffffffffffff1602179055505050506200011e565b600080fd5b600073ffffffffffffffffffffffffffffffffffffffff82169050919050565b6000620000b48262000087565b9050919050565b620000c681620000a7565b8114620000d257600080fd5b50565b600081519050620000e681620000bb565b92915050565b60006020828403121562000105576200010462000082565b5b60006200011584828501620000d5565b91505092915050565b6144e7806200012e6000396000f3fe608060405234801561001057600080fd5b50600436106100cf5760003560e01c8063893c592b1161008c578063bef7a57111610066578063bef7a57114610260578063ce0a0a931461027e578063e094ed2a1461029c578063eecf3df8146102cc576100cf565b8063893c592b146101d057806399aa3f5d14610200578063a5478d4f14610230576100cf565b806304e48bd1146100d457806308bcb4a4146100f25780634e66b6b21461011057806360270c7c146101405780636dd4b38f14610170578063874ad78f146101a0575b600080fd5b6100dc6102fc565b6040516100e991906124eb565b60405180910390f35b6100fa61037e565b60405161010791906124eb565b60405180910390f35b61012a6004803603810190610125919061254d565b610580565b6040516101379190612595565b60405180910390f35b61015a6004803603810190610155919061254d565b610781565b604051610167919061291a565b60405180910390f35b61018a6004803603810190610185919061254d565b610bbc565b604051610197919061294b565b60405180910390f35b6101ba60048036038101906101b5919061254d565b610c4c565b6040516101c79190612595565b60405180910390f35b6101ea60048036038101906101e5919061254d565b610fe5565b6040516101f791906124eb565b60405180910390f35b61021a6004803603810190610215919061254d565b611173565b604051610227919061291a565b60405180910390f35b61024a6004803603810190610245919061254d565b611414565b6040516102579190612b9d565b60405180910390f35b6102686114a3565b6040516102759190612c45565b60405180910390f35b610286611525565b60405161029391906124eb565b60405180910390f35b6102b660048036038101906102b19190612ccc565b611727565b6040516102c391906124eb565b60405180910390f35b6102e660048036038101906102e1919061254d565b61183e565b6040516102f3919061291a565b60405180910390f35b6060610306611958565b73ffffffffffffffffffffffffffffffffffffffff166304e48bd16040518163ffffffff1660e01b8152600401600060405180830381865afa158015610350573d6000803e3d6000fd5b505050506040513d6000823e3d601f19601f8201168201806040525081019061037991906135c6565b905090565b60606103886119fb565b6000600281111561039c5761039b611f16565b5b6103a4611abd565b73ffffffffffffffffffffffffffffffffffffffff1663dd8b2914336040518263ffffffff1660e01b81526004016103dc9190613650565b602060405180830381865afa1580156103f9573d6000803e3d6000fd5b505050506040513d601f19601f8201168201806040525081019061041d9190613690565b600281111561042f5761042e611f16565b5b1461046f576040517f08c379a00000000000000000000000000000000000000000000000000000000081526004016104669061371a565b60405180910390fd5b6000610479611abd565b73ffffffffffffffffffffffffffffffffffffffff1663e3d7e14c336040518263ffffffff1660e01b81526004016104b19190613650565b602060405180830381865afa1580156104ce573d6000803e3d6000fd5b505050506040513d601f19601f820116820180604052508101906104f2919061373a565b90506104fc611958565b73ffffffffffffffffffffffffffffffffffffffff1663916ae6bb826040518263ffffffff1660e01b8152600401610534919061294b565b600060405180830381865afa158015610551573d6000803e3d6000fd5b505050506040513d6000823e3d601f19601f8201168201806040525081019061057a91906135c6565b91505090565b600061058a6119fb565b6000600281111561059e5761059d611f16565b5b6105a6611abd565b73ffffffffffffffffffffffffffffffffffffffff1663dd8b2914336040518263ffffffff1660e01b81526004016105de9190613650565b602060405180830381865afa1580156105fb573d6000803e3d6000fd5b505050506040513d601f19601f8201168201806040525081019061061f9190613690565b600281111561063157610630611f16565b5b14610671576040517f08c379a00000000000000000000000000000000000000000000000000000000081526004016106689061371a565b60405180910390fd5b600061067b611abd565b73ffffffffffffffffffffffffffffffffffffffff1663e3d7e14c336040518263ffffffff1660e01b81526004016106b39190613650565b602060405180830381865afa1580156106d0573d6000803e3d6000fd5b505050506040513d601f19601f820116820180604052508101906106f4919061373a565b90506106fe611958565b73ffffffffffffffffffffffffffffffffffffffff16633932708b82856040518363ffffffff1660e01b8152600401610738929190613767565b602060405180830381865afa158015610755573d6000803e3d6000fd5b505050506040513d601f19601f8201168201806040525081019061077991906137bc565b915050919050565b606061078b6119fb565b6001600281111561079f5761079e611f16565b5b6107a7611abd565b73ffffffffffffffffffffffffffffffffffffffff1663dd8b2914336040518263ffffffff1660e01b81526004016107df9190613650565b602060405180830381865afa1580156107fc573d6000803e3d6000fd5b505050506040513d601f19601f820116820180604052508101906108209190613690565b600281111561083257610831611f16565b5b14610872576040517f08c379a000000000000000000000000000000000000000000000000000000000815260040161086990613835565b60405180910390fd5b600061087c611abd565b73ffffffffffffffffffffffffffffffffffffffff1663e3d7e14c336040518263ffffffff1660e01b81526004016108b49190613650565b602060405180830381865afa1580156108d1573d6000803e3d6000fd5b505050506040513d601f19601f820116820180604052508101906108f5919061373a565b90506000610901611b60565b73ffffffffffffffffffffffffffffffffffffffff1663a31cf91f856040518263ffffffff1660e01b8152600401610939919061294b565b602060405180830381865afa158015610956573d6000803e3d6000fd5b505050506040513d601f19601f8201168201806040525081019061097a919061373a565b905061098e8282610989611958565b611c03565b6060610998611b60565b73ffffffffffffffffffffffffffffffffffffffff166330938d70866040518263ffffffff1660e01b81526004016109d0919061294b565b602060405180830381865afa1580156109ed573d6000803e3d6000fd5b505050506040513d601f19601f82011682018060405250810190610a1191906137bc565b15610aa357610a1e611b60565b73ffffffffffffffffffffffffffffffffffffffff1663e285fd25866040518263ffffffff1660e01b8152600401610a56919061294b565b600060405180830381865afa158015610a73573d6000803e3d6000fd5b505050506040513d6000823e3d601f19601f82011682018060405250810190610a9c9190613918565b9050610b2c565b610aab611958565b73ffffffffffffffffffffffffffffffffffffffff16636f4f5878836040518263ffffffff1660e01b8152600401610ae3919061294b565b600060405180830381865afa158015610b00573d6000803e3d6000fd5b505050506040513d6000823e3d601f19601f82011682018060405250810190610b299190613918565b90505b610b34611abd565b73ffffffffffffffffffffffffffffffffffffffff1663b29d96f2826040518263ffffffff1660e01b8152600401610b6c91906139d0565b600060405180830381865afa158015610b89573d6000803e3d6000fd5b505050506040513d6000823e3d601f19601f82011682018060405250810190610bb29190613d52565b9350505050919050565b6000610bc6611958565b73ffffffffffffffffffffffffffffffffffffffff16636f4f5878836040518263ffffffff1660e01b8152600401610bfe919061294b565b600060405180830381865afa158015610c1b573d6000803e3d6000fd5b505050506040513d6000823e3d601f19601f82011682018060405250810190610c449190613918565b519050919050565b6000610c566119fb565b60006002811115610c6a57610c69611f16565b5b610c72611abd565b73ffffffffffffffffffffffffffffffffffffffff1663dd8b2914336040518263ffffffff1660e01b8152600401610caa9190613650565b602060405180830381865afa158015610cc7573d6000803e3d6000fd5b505050506040513d601f19601f82011682018060405250810190610ceb9190613690565b6002811115610cfd57610cfc611f16565b5b14610d3d576040517f08c379a0000000000000000000000000000000000000000000000000000000008152600401610d349061371a565b60405180910390fd5b6000610d47611abd565b73ffffffffffffffffffffffffffffffffffffffff1663e3d7e14c336040518263ffffffff1660e01b8152600401610d7f9190613650565b602060405180830381865afa158015610d9c573d6000803e3d6000fd5b505050506040513d601f19601f82011682018060405250810190610dc0919061373a565b9050610dca611b60565b73ffffffffffffffffffffffffffffffffffffffff166330938d70846040518263ffffffff1660e01b8152600401610e02919061294b565b602060405180830381865afa158015610e1f573d6000803e3d6000fd5b505050506040513d601f19601f82011682018060405250810190610e4391906137bc565b15610ed357610e50611b60565b73ffffffffffffffffffffffffffffffffffffffff166323ff178582856040518363ffffffff1660e01b8152600401610e8a929190613767565b602060405180830381865afa158015610ea7573d6000803e3d6000fd5b505050506040513d601f19601f82011682018060405250810190610ecb91906137bc565b915050610fe0565b6000610edd611b60565b73ffffffffffffffffffffffffffffffffffffffff1663a31cf91f856040518263ffffffff1660e01b8152600401610f15919061294b565b602060405180830381865afa158015610f32573d6000803e3d6000fd5b505050506040513d601f19601f82011682018060405250810190610f56919061373a565b9050610f60611958565b73ffffffffffffffffffffffffffffffffffffffff16633932708b83836040518363ffffffff1660e01b8152600401610f9a929190613767565b602060405180830381865afa158015610fb7573d6000803e3d6000fd5b505050506040513d601f19601f82011682018060405250810190610fdb91906137bc565b925050505b919050565b6060610fef6119fb565b60028081111561100257611001611f16565b5b61100a611abd565b73ffffffffffffffffffffffffffffffffffffffff1663dd8b2914336040518263ffffffff1660e01b81526004016110429190613650565b602060405180830381865afa15801561105f573d6000803e3d6000fd5b505050506040513d601f19601f820116820180604052508101906110839190613690565b600281111561109557611094611f16565b5b146110d5576040517f08c379a00000000000000000000000000000000000000000000000000000000081526004016110cc90613e0d565b60405180910390fd5b6110e6826110e1611abd565b611ccf565b6110ee611958565b73ffffffffffffffffffffffffffffffffffffffff1663916ae6bb836040518263ffffffff1660e01b8152600401611126919061294b565b600060405180830381865afa158015611143573d6000803e3d6000fd5b505050506040513d6000823e3d601f19601f8201168201806040525081019061116c91906135c6565b9050919050565b606061117d6119fb565b6001600281111561119157611190611f16565b5b611199611abd565b73ffffffffffffffffffffffffffffffffffffffff1663dd8b2914336040518263ffffffff1660e01b81526004016111d19190613650565b602060405180830381865afa1580156111ee573d6000803e3d6000fd5b505050506040513d601f19601f820116820180604052508101906112129190613690565b600281111561122457611223611f16565b5b14611264576040517f08c379a000000000000000000000000000000000000000000000000000000000815260040161125b90613835565b60405180910390fd5b600061126e611abd565b73ffffffffffffffffffffffffffffffffffffffff1663e3d7e14c336040518263ffffffff1660e01b81526004016112a69190613650565b602060405180830381865afa1580156112c3573d6000803e3d6000fd5b505050506040513d601f19601f820116820180604052508101906112e7919061373a565b90506112fb81846112f6611958565b611c03565b6000611305611958565b73ffffffffffffffffffffffffffffffffffffffff16636f4f5878856040518263ffffffff1660e01b815260040161133d919061294b565b600060405180830381865afa15801561135a573d6000803e3d6000fd5b505050506040513d6000823e3d601f19601f820116820180604052508101906113839190613918565b905061138d611abd565b73ffffffffffffffffffffffffffffffffffffffff1663b29d96f2826040518263ffffffff1660e01b81526004016113c591906139d0565b600060405180830381865afa1580156113e2573d6000803e3d6000fd5b505050506040513d6000823e3d601f19601f8201168201806040525081019061140b9190613d52565b92505050919050565b606061141e611b60565b73ffffffffffffffffffffffffffffffffffffffff1663a5478d4f836040518263ffffffff1660e01b8152600401611456919061294b565b600060405180830381865afa158015611473573d6000803e3d6000fd5b505050506040513d6000823e3d601f19601f8201168201806040525081019061149c91906140cd565b9050919050565b60606114ad611958565b73ffffffffffffffffffffffffffffffffffffffff1663bef7a5716040518163ffffffff1660e01b8152600401600060405180830381865afa1580156114f7573d6000803e3d6000fd5b505050506040513d6000823e3d601f19601f820116820180604052508101906115209190614116565b905090565b606061152f6119fb565b6001600281111561154357611542611f16565b5b61154b611abd565b73ffffffffffffffffffffffffffffffffffffffff1663dd8b2914336040518263ffffffff1660e01b81526004016115839190613650565b602060405180830381865afa1580156115a0573d6000803e3d6000fd5b505050506040513d601f19601f820116820180604052508101906115c49190613690565b60028111156115d6576115d5611f16565b5b14611616576040517f08c379a000000000000000000000000000000000000000000000000000000000815260040161160d90613835565b60405180910390fd5b6000611620611abd565b73ffffffffffffffffffffffffffffffffffffffff1663e3d7e14c336040518263ffffffff1660e01b81526004016116589190613650565b602060405180830381865afa158015611675573d6000803e3d6000fd5b505050506040513d601f19601f82011682018060405250810190611699919061373a565b90506116a3611958565b73ffffffffffffffffffffffffffffffffffffffff16635268561f826040518263ffffffff1660e01b81526004016116db919061294b565b600060405180830381865afa1580156116f8573d6000803e3d6000fd5b505050506040513d6000823e3d601f19601f8201168201806040525081019061172191906135c6565b91505090565b6060611731611958565b73ffffffffffffffffffffffffffffffffffffffff1663cf6c702d611754611958565b73ffffffffffffffffffffffffffffffffffffffff166389eb61df86866040518363ffffffff1660e01b815260040161178e92919061419b565b600060405180830381865afa1580156117ab573d6000803e3d6000fd5b505050506040513d6000823e3d601f19601f820116820180604052508101906117d49190613918565b6040518263ffffffff1660e01b81526004016117f091906139d0565b600060405180830381865afa15801561180d573d6000803e3d6000fd5b505050506040513d6000823e3d601f19601f8201168201806040525081019061183691906135c6565b905092915050565b6060600061184a611958565b73ffffffffffffffffffffffffffffffffffffffff1663bd9c1b50846040518263ffffffff1660e01b8152600401611882919061294b565b600060405180830381865afa15801561189f573d6000803e3d6000fd5b505050506040513d6000823e3d601f19601f820116820180604052508101906118c89190613918565b90506118d2611abd565b73ffffffffffffffffffffffffffffffffffffffff1663b29d96f2826040518263ffffffff1660e01b815260040161190a91906139d0565b600060405180830381865afa158015611927573d6000803e3d6000fd5b505050506040513d6000823e3d601f19601f820116820180604052508101906119509190613d52565b915050919050565b60008060009054906101000a900473ffffffffffffffffffffffffffffffffffffffff1673ffffffffffffffffffffffffffffffffffffffff1663bcaa0c5560006040518263ffffffff1660e01b81526004016119b59190614207565b602060405180830381865afa1580156119d2573d6000803e3d6000fd5b505050506040513d601f19601f820116820180604052508101906119f6919061424e565b905090565b611a03611abd565b73ffffffffffffffffffffffffffffffffffffffff166338b6a3a1336040518263ffffffff1660e01b8152600401611a3b9190613650565b602060405180830381865afa158015611a58573d6000803e3d6000fd5b505050506040513d601f19601f82011682018060405250810190611a7c91906137bc565b611abb576040517f08c379a0000000000000000000000000000000000000000000000000000000008152600401611ab2906142c7565b60405180910390fd5b565b60008060009054906101000a900473ffffffffffffffffffffffffffffffffffffffff1673ffffffffffffffffffffffffffffffffffffffff1663bcaa0c5560026040518263ffffffff1660e01b8152600401611b1a9190614207565b602060405180830381865afa158015611b37573d6000803e3d6000fd5b505050506040513d601f19601f82011682018060405250810190611b5b919061424e565b905090565b60008060009054906101000a900473ffffffffffffffffffffffffffffffffffffffff1673ffffffffffffffffffffffffffffffffffffffff1663bcaa0c5560016040518263ffffffff1660e01b8152600401611bbd9190614207565b602060405180830381865afa158015611bda573d6000803e3d6000fd5b505050506040513d601f19601f82011682018060405250810190611bfe919061424e565b905090565b611c8b838273ffffffffffffffffffffffffffffffffffffffff1663bd9c1b50856040518263ffffffff1660e01b8152600401611c40919061294b565b600060405180830381865afa158015611c5d573d6000803e3d6000fd5b505050506040513d6000823e3d601f19601f82011682018060405250810190611c869190613918565b611db3565b611cca576040517f08c379a0000000000000000000000000000000000000000000000000000000008152600401611cc190614359565b60405180910390fd5b505050565b60006002811115611ce357611ce2611f16565b5b8173ffffffffffffffffffffffffffffffffffffffff1663bdf3e912846040518263ffffffff1660e01b8152600401611d1c919061294b565b602060405180830381865afa158015611d39573d6000803e3d6000fd5b505050506040513d601f19601f82011682018060405250810190611d5d9190613690565b6002811115611d6f57611d6e611f16565b5b14611daf576040517f08c379a0000000000000000000000000000000000000000000000000000000008152600401611da6906143eb565b60405180910390fd5b5050565b600080611dc08484611dca565b1215905092915050565b600080600090505b8251811015611e165783838281518110611def57611dee61440b565b5b602002602001015103611e055780915050611e3b565b80611e0f90614469565b9050611dd2565b507fffffffffffffffffffffffffffffffffffffffffffffffffffffffffffffffff90505b92915050565b600081519050919050565b600082825260208201905092915050565b6000819050602082019050919050565b6000819050919050565b611e8081611e6d565b82525050565b600081519050919050565b600082825260208201905092915050565b60005b83811015611ec0578082015181840152602081019050611ea5565b60008484015250505050565b6000601f19601f8301169050919050565b6000611ee882611e86565b611ef28185611e91565b9350611f02818560208601611ea2565b611f0b81611ecc565b840191505092915050565b7f4e487b7100000000000000000000000000000000000000000000000000000000600052602160045260246000fd5b60048110611f5657611f55611f16565b5b50565b6000819050611f6782611f45565b919050565b6000611f7782611f59565b9050919050565b611f8781611f6c565b82525050565b60028110611f9e57611f9d611f16565b5b50565b6000819050611faf82611f8d565b919050565b6000611fbf82611fa1565b9050919050565b611fcf81611fb4565b82525050565b604082016000820151611feb6000850182611e77565b506020820151611ffe6020850182611fc6565b50505050565b600081519050919050565b600082825260208201905092915050565b6000819050602082019050919050565b60006040830160008301516120486000860182611e77565b50602083015184820360208601526120608282611edd565b9150508091505092915050565b60006120798383612030565b905092915050565b6000602082019050919050565b600061209982612004565b6120a3818561200f565b9350836020820285016120b585612020565b8060005b858110156120f157848403895281516120d2858261206d565b94506120dd83612081565b925060208a019950506001810190506120b9565b50829750879550505050505092915050565b600081519050919050565b600082825260208201905092915050565b6000819050602082019050919050565b6040820160008201516121456000850182611e77565b5060208201516121586020850182611e77565b50505050565b600061216a838361212f565b60408301905092915050565b6000602082019050919050565b600061218e82612103565b612198818561210e565b93506121a38361211f565b8060005b838110156121d45781516121bb888261215e565b97506121c683612176565b9250506001810190506121a7565b5085935050505092915050565b600081519050919050565b600082825260208201905092915050565b6000819050602082019050919050565b60006122198383611edd565b905092915050565b6000602082019050919050565b6000612239826121e1565b61224381856121ec565b935083602082028501612255856121fd565b8060005b858110156122915784840389528151612272858261220d565b945061227d83612221565b925060208a01995050600181019050612259565b50829750879550505050505092915050565b60006102008301600083015184820360008601526122c18282611edd565b915050602083015184820360208601526122db8282611edd565b91505060408301516122f06040860182611f7e565b5060608301516123036060860182611fd5565b50608083015184820360a086015261231b8282611edd565b91505060a083015184820360c08601526123358282611edd565b91505060c083015184820360e086015261234f8282611edd565b91505060e0830151612365610100860182611e77565b5061010083015161237a610120860182611e77565b5061012083015161238f610140860182611e77565b506101408301516123a4610160860182611e77565b506101608301516123b9610180860182611e77565b506101808301518482036101a08601526123d3828261208e565b9150506101a08301518482036101c08601526123ef8282612183565b9150506101c08301518482036101e086015261240b828261222e565b9150508091505092915050565b60006040830160008301516124306000860182611e77565b506020830151848203602086015261244882826122a3565b9150508091505092915050565b60006124618383612418565b905092915050565b6000602082019050919050565b600061248182611e41565b61248b8185611e4c565b93508360208202850161249d85611e5d565b8060005b858110156124d957848403895281516124ba8582612455565b94506124c583612469565b925060208a019950506001810190506124a1565b50829750879550505050505092915050565b600060208201905081810360008301526125058184612476565b905092915050565b6000604051905090565b600080fd5b600080fd5b61252a81611e6d565b811461253557600080fd5b50565b60008135905061254781612521565b92915050565b60006020828403121561256357612562612517565b5b600061257184828501612538565b91505092915050565b60008115159050919050565b61258f8161257a565b82525050565b60006020820190506125aa6000830184612586565b92915050565b600081519050919050565b600082825260208201905092915050565b6000819050602082019050919050565b600381106125ed576125ec611f16565b5b50565b60008190506125fe826125dc565b919050565b600061260e826125f0565b9050919050565b61261e81612603565b82525050565b60608201600082015161263a6000850182611e77565b50602082015161264d6020850182611e77565b5060408201516126606040850182611e77565b50505050565b6003811061267757612676611f16565b5b50565b600081905061268882612666565b919050565b60006126988261267a565b9050919050565b6126a88161268d565b82525050565b600081519050919050565b600082825260208201905092915050565b6000819050602082019050919050565b60006126e68383611e77565b60208301905092915050565b6000602082019050919050565b600061270a826126ae565b61271481856126b9565b935061271f836126ca565b8060005b8381101561275057815161273788826126da565b9750612742836126f2565b925050600181019050612723565b5085935050505092915050565b600061016083016000830151848203600086015261277b8282611edd565b915050602083015184820360208601526127958282611edd565b91505060408301516127aa6040860182612615565b5060608301516127bd6060860182612624565b50608083015184820360c08601526127d58282611edd565b91505060a083015184820360e08601526127ef8282611edd565b91505060c083015184820361010086015261280a8282611edd565b91505060e083015161282061012086018261269f565b5061010083015184820361014086015261283a82826126ff565b9150508091505092915050565b600060408301600083015161285f6000860182611e77565b5060208301518482036020860152612877828261275d565b9150508091505092915050565b60006128908383612847565b905092915050565b6000602082019050919050565b60006128b0826125b0565b6128ba81856125bb565b9350836020820285016128cc856125cc565b8060005b8581101561290857848403895281516128e98582612884565b94506128f483612898565b925060208a019950506001810190506128d0565b50829750879550505050505092915050565b6000602082019050818103600083015261293481846128a5565b905092915050565b61294581611e6d565b82525050565b6000602082019050612960600083018461293c565b92915050565b600081519050919050565b600082825260208201905092915050565b6000819050602082019050919050565b600281106129a3576129a2611f16565b5b50565b60008190506129b482612992565b919050565b60006129c4826129a6565b9050919050565b6129d4816129b9565b82525050565b6129e38161257a565b82525050565b6000610140830160008301518482036000860152612a078282611edd565b9150506020830151612a1c6020860182611e77565b5060408301518482036040860152612a348282611edd565b9150506060830151612a4960608601826129cb565b506080830151612a5c6080860182611e77565b5060a0830151612a6f60a0860182611e77565b5060c0830151612a8260c08601826129da565b5060e0830151612a9560e0860182611e77565b50610100830151612aaa610100860182611e77565b50610120830151612abf610120860182611e77565b508091505092915050565b6000604083016000830151612ae26000860182611e77565b5060208301518482036020860152612afa82826129e9565b9150508091505092915050565b6000612b138383612aca565b905092915050565b6000602082019050919050565b6000612b3382612966565b612b3d8185612971565b935083602082028501612b4f85612982565b8060005b85811015612b8b5784840389528151612b6c8582612b07565b9450612b7783612b1b565b925060208a01995050600181019050612b53565b50829750879550505050505092915050565b60006020820190508181036000830152612bb78184612b28565b905092915050565b600082825260208201905092915050565b6000612bdb826121e1565b612be58185612bbf565b935083602082028501612bf7856121fd565b8060005b85811015612c335784840389528151612c14858261220d565b9450612c1f83612221565b925060208a01995050600181019050612bfb565b50829750879550505050505092915050565b60006020820190508181036000830152612c5f8184612bd0565b905092915050565b600080fd5b600080fd5b600080fd5b60008083601f840112612c8c57612c8b612c67565b5b8235905067ffffffffffffffff811115612ca957612ca8612c6c565b5b602083019150836001820283011115612cc557612cc4612c71565b5b9250929050565b60008060208385031215612ce357612ce2612517565b5b600083013567ffffffffffffffff811115612d0157612d0061251c565b5b612d0d85828601612c76565b92509250509250929050565b7f4e487b7100000000000000000000000000000000000000000000000000000000600052604160045260246000fd5b612d5182611ecc565b810181811067ffffffffffffffff82111715612d7057612d6f612d19565b5b80604052505050565b6000612d8361250d565b9050612d8f8282612d48565b919050565b600067ffffffffffffffff821115612daf57612dae612d19565b5b602082029050602081019050919050565b600080fd5b600080fd5b600081519050612dd981612521565b92915050565b600080fd5b600067ffffffffffffffff821115612dff57612dfe612d19565b5b612e0882611ecc565b9050602081019050919050565b6000612e28612e2384612de4565b612d79565b905082815260208101848484011115612e4457612e43612ddf565b5b612e4f848285611ea2565b509392505050565b600082601f830112612e6c57612e6b612c67565b5b8151612e7c848260208601612e15565b91505092915050565b60048110612e9257600080fd5b50565b600081519050612ea481612e85565b92915050565b60028110612eb757600080fd5b50565b600081519050612ec981612eaa565b92915050565b600060408284031215612ee557612ee4612dc0565b5b612eef6040612d79565b90506000612eff84828501612dca565b6000830152506020612f1384828501612eba565b60208301525092915050565b600067ffffffffffffffff821115612f3a57612f39612d19565b5b602082029050602081019050919050565b600060408284031215612f6157612f60612dc0565b5b612f6b6040612d79565b90506000612f7b84828501612dca565b600083015250602082015167ffffffffffffffff811115612f9f57612f9e612dc5565b5b612fab84828501612e57565b60208301525092915050565b6000612fca612fc584612f1f565b612d79565b90508083825260208201905060208402830185811115612fed57612fec612c71565b5b835b8181101561303457805167ffffffffffffffff81111561301257613011612c67565b5b80860161301f8982612f4b565b85526020850194505050602081019050612fef565b5050509392505050565b600082601f83011261305357613052612c67565b5b8151613063848260208601612fb7565b91505092915050565b600067ffffffffffffffff82111561308757613086612d19565b5b602082029050602081019050919050565b6000604082840312156130ae576130ad612dc0565b5b6130b86040612d79565b905060006130c884828501612dca565b60008301525060206130dc84828501612dca565b60208301525092915050565b60006130fb6130f68461306c565b612d79565b9050808382526020820190506040840283018581111561311e5761311d612c71565b5b835b8181101561314757806131338882613098565b845260208401935050604081019050613120565b5050509392505050565b600082601f83011261316657613165612c67565b5b81516131768482602086016130e8565b91505092915050565b600067ffffffffffffffff82111561319a57613199612d19565b5b602082029050602081019050919050565b60006131be6131b98461317f565b612d79565b905080838252602082019050602084028301858111156131e1576131e0612c71565b5b835b8181101561322857805167ffffffffffffffff81111561320657613205612c67565b5b8086016132138982612e57565b855260208501945050506020810190506131e3565b5050509392505050565b600082601f83011261324757613246612c67565b5b81516132578482602086016131ab565b91505092915050565b6000610200828403121561327757613276612dc0565b5b6132826101e0612d79565b9050600082015167ffffffffffffffff8111156132a2576132a1612dc5565b5b6132ae84828501612e57565b600083015250602082015167ffffffffffffffff8111156132d2576132d1612dc5565b5b6132de84828501612e57565b60208301525060406132f284828501612e95565b604083015250606061330684828501612ecf565b60608301525060a082015167ffffffffffffffff81111561332a57613329612dc5565b5b61333684828501612e57565b60808301525060c082015167ffffffffffffffff81111561335a57613359612dc5565b5b61336684828501612e57565b60a08301525060e082015167ffffffffffffffff81111561338a57613389612dc5565b5b61339684828501612e57565b60c0830152506101006133ab84828501612dca565b60e0830152506101206133c084828501612dca565b610100830152506101406133d684828501612dca565b610120830152506101606133ec84828501612dca565b6101408301525061018061340284828501612dca565b610160830152506101a082015167ffffffffffffffff81111561342857613427612dc5565b5b6134348482850161303e565b610180830152506101c082015167ffffffffffffffff81111561345a57613459612dc5565b5b61346684828501613151565b6101a0830152506101e082015167ffffffffffffffff81111561348c5761348b612dc5565b5b61349884828501613232565b6101c08301525092915050565b6000604082840312156134bb576134ba612dc0565b5b6134c56040612d79565b905060006134d584828501612dca565b600083015250602082015167ffffffffffffffff8111156134f9576134f8612dc5565b5b61350584828501613260565b60208301525092915050565b600061352461351f84612d94565b612d79565b9050808382526020820190506020840283018581111561354757613546612c71565b5b835b8181101561358e57805167ffffffffffffffff81111561356c5761356b612c67565b5b80860161357989826134a5565b85526020850194505050602081019050613549565b5050509392505050565b600082601f8301126135ad576135ac612c67565b5b81516135bd848260208601613511565b91505092915050565b6000602082840312156135dc576135db612517565b5b600082015167ffffffffffffffff8111156135fa576135f961251c565b5b61360684828501613598565b91505092915050565b600073ffffffffffffffffffffffffffffffffffffffff82169050919050565b600061363a8261360f565b9050919050565b61364a8161362f565b82525050565b60006020820190506136656000830184613641565b92915050565b6003811061367857600080fd5b50565b60008151905061368a8161366b565b92915050565b6000602082840312156136a6576136a5612517565b5b60006136b48482850161367b565b91505092915050565b600082825260208201905092915050565b7f53656e646572206d75737420626520612073747564656e740000000000000000600082015250565b60006137046018836136bd565b915061370f826136ce565b602082019050919050565b60006020820190508181036000830152613733816136f7565b9050919050565b6000602082840312156137505761374f612517565b5b600061375e84828501612dca565b91505092915050565b600060408201905061377c600083018561293c565b613789602083018461293c565b9392505050565b6137998161257a565b81146137a457600080fd5b50565b6000815190506137b681613790565b92915050565b6000602082840312156137d2576137d1612517565b5b60006137e0848285016137a7565b91505092915050565b7f53656e646572206d7573742062652061206c6563747572657200000000000000600082015250565b600061381f6019836136bd565b915061382a826137e9565b602082019050919050565b6000602082019050818103600083015261384e81613812565b9050919050565b600067ffffffffffffffff8211156138705761386f612d19565b5b602082029050602081019050919050565b600061389461388f84613855565b612d79565b905080838252602082019050602084028301858111156138b7576138b6612c71565b5b835b818110156138e057806138cc8882612dca565b8452602084019350506020810190506138b9565b5050509392505050565b600082601f8301126138ff576138fe612c67565b5b815161390f848260208601613881565b91505092915050565b60006020828403121561392e5761392d612517565b5b600082015167ffffffffffffffff81111561394c5761394b61251c565b5b613958848285016138ea565b91505092915050565b600082825260208201905092915050565b600061397d826126ae565b6139878185613961565b9350613992836126ca565b8060005b838110156139c35781516139aa88826126da565b97506139b5836126f2565b925050600181019050613996565b5085935050505092915050565b600060208201905081810360008301526139ea8184613972565b905092915050565b600067ffffffffffffffff821115613a0d57613a0c612d19565b5b602082029050602081019050919050565b60038110613a2b57600080fd5b50565b600081519050613a3d81613a1e565b92915050565b600060608284031215613a5957613a58612dc0565b5b613a636060612d79565b90506000613a7384828501612dca565b6000830152506020613a8784828501612dca565b6020830152506040613a9b84828501612dca565b60408301525092915050565b60006101608284031215613abe57613abd612dc0565b5b613ac9610120612d79565b9050600082015167ffffffffffffffff811115613ae957613ae8612dc5565b5b613af584828501612e57565b600083015250602082015167ffffffffffffffff811115613b1957613b18612dc5565b5b613b2584828501612e57565b6020830152506040613b3984828501613a2e565b6040830152506060613b4d84828501613a43565b60608301525060c082015167ffffffffffffffff811115613b7157613b70612dc5565b5b613b7d84828501612e57565b60808301525060e082015167ffffffffffffffff811115613ba157613ba0612dc5565b5b613bad84828501612e57565b60a08301525061010082015167ffffffffffffffff811115613bd257613bd1612dc5565b5b613bde84828501612e57565b60c083015250610120613bf38482850161367b565b60e08301525061014082015167ffffffffffffffff811115613c1857613c17612dc5565b5b613c24848285016138ea565b6101008301525092915050565b600060408284031215613c4757613c46612dc0565b5b613c516040612d79565b90506000613c6184828501612dca565b600083015250602082015167ffffffffffffffff811115613c8557613c84612dc5565b5b613c9184828501613aa7565b60208301525092915050565b6000613cb0613cab846139f2565b612d79565b90508083825260208201905060208402830185811115613cd357613cd2612c71565b5b835b81811015613d1a57805167ffffffffffffffff811115613cf857613cf7612c67565b5b808601613d058982613c31565b85526020850194505050602081019050613cd5565b5050509392505050565b600082601f830112613d3957613d38612c67565b5b8151613d49848260208601613c9d565b91505092915050565b600060208284031215613d6857613d67612517565b5b600082015167ffffffffffffffff811115613d8657613d8561251c565b5b613d9284828501613d24565b91505092915050565b7f53656e646572206d75737420626520612073747564792070726f6772616d206d60008201527f616e616765720000000000000000000000000000000000000000000000000000602082015250565b6000613df76026836136bd565b9150613e0282613d9b565b604082019050919050565b60006020820190508181036000830152613e2681613dea565b9050919050565b600067ffffffffffffffff821115613e4857613e47612d19565b5b602082029050602081019050919050565b60028110613e6657600080fd5b50565b600081519050613e7881613e59565b92915050565b60006101408284031215613e9557613e94612dc0565b5b613ea0610140612d79565b9050600082015167ffffffffffffffff811115613ec057613ebf612dc5565b5b613ecc84828501612e57565b6000830152506020613ee084828501612dca565b602083015250604082015167ffffffffffffffff811115613f0457613f03612dc5565b5b613f1084828501612e57565b6040830152506060613f2484828501613e69565b6060830152506080613f3884828501612dca565b60808301525060a0613f4c84828501612dca565b60a08301525060c0613f60848285016137a7565b60c08301525060e0613f7484828501612dca565b60e083015250610100613f8984828501612dca565b61010083015250610120613f9f84828501612dca565b6101208301525092915050565b600060408284031215613fc257613fc1612dc0565b5b613fcc6040612d79565b90506000613fdc84828501612dca565b600083015250602082015167ffffffffffffffff81111561400057613fff612dc5565b5b61400c84828501613e7e565b60208301525092915050565b600061402b61402684613e2d565b612d79565b9050808382526020820190506020840283018581111561404e5761404d612c71565b5b835b8181101561409557805167ffffffffffffffff81111561407357614072612c67565b5b8086016140808982613fac565b85526020850194505050602081019050614050565b5050509392505050565b600082601f8301126140b4576140b3612c67565b5b81516140c4848260208601614018565b91505092915050565b6000602082840312156140e3576140e2612517565b5b600082015167ffffffffffffffff8111156141015761410061251c565b5b61410d8482850161409f565b91505092915050565b60006020828403121561412c5761412b612517565b5b600082015167ffffffffffffffff81111561414a5761414961251c565b5b61415684828501613232565b91505092915050565b82818337600083830152505050565b600061417a83856136bd565b935061418783858461415f565b61419083611ecc565b840190509392505050565b600060208201905081810360008301526141b681848661416e565b90509392505050565b600681106141d0576141cf611f16565b5b50565b60008190506141e1826141bf565b919050565b60006141f1826141d3565b9050919050565b614201816141e6565b82525050565b600060208201905061421c60008301846141f8565b92915050565b61422b8161362f565b811461423657600080fd5b50565b60008151905061424881614222565b92915050565b60006020828403121561426457614263612517565b5b600061427284828501614239565b91505092915050565b7f53656e646572206d757374206265206120726567697374657265642075736572600082015250565b60006142b16020836136bd565b91506142bc8261427b565b602082019050919050565b600060208201905081810360008301526142e0816142a4565b9050919050565b7f4c65637475726572206973206e6f74206c6563747572696e672061742074686960008201527f7320636f75727365000000000000000000000000000000000000000000000000602082015250565b60006143436028836136bd565b915061434e826142e7565b604082019050919050565b6000602082019050818103600083015261437281614336565b9050919050565b7f54686520676976656e2075494420646f6573206e6f742062656c6f6e6720746f60008201527f20612073747564656e7400000000000000000000000000000000000000000000602082015250565b60006143d5602a836136bd565b91506143e082614379565b604082019050919050565b60006020820190508181036000830152614404816143c8565b9050919050565b7f4e487b7100000000000000000000000000000000000000000000000000000000600052603260045260246000fd5b7f4e487b7100000000000000000000000000000000000000000000000000000000600052601160045260246000fd5b600061447482611e6d565b91507fffffffffffffffffffffffffffffffffffffffffffffffffffffffffffffffff82036144a6576144a561443a565b5b60018201905091905056fea26469706673582212203dd3faefd47dd7c410fcd90c7ae4e59ffbabaa43c6820d95f0f3d97b397788d664736f6c63430008110033",
  "linkReferences": {},
  "deployedLinkReferences": {}
}