{
  "_format": "hh-sol-artifact-1",
  "contractName": "UserDataManager",
  "sourceName": "contracts/data/datamanager/UserDataManager.sol",
  "abi": [
    {
      "inputs": [
        {
          "internalType": "address",
          "name": "userStorageAddress",
          "type": "address"
        },
        {
          "internalType": "address",
          "name": "accessWhitelistAddress",
          "type": "address"
        }
      ],
      "stateMutability": "nonpayable",
      "type": "constructor"
    },
    {
      "inputs": [
        {
          "components": [
            {
              "internalType": "address",
              "name": "userAddress",
              "type": "address"
            },
            {
              "internalType": "enum UserDataTypes.RegistrationStatus",
              "name": "status",
              "type": "uint8"
            },
            {
              "components": [
                {
                  "internalType": "string",
                  "name": "firstName",
                  "type": "string"
                },
                {
                  "internalType": "string",
                  "name": "lastName",
                  "type": "string"
                },
                {
                  "internalType": "enum UserDataTypes.Gender",
                  "name": "gender",
                  "type": "uint8"
                },
                {
                  "components": [
                    {
                      "internalType": "uint256",
                      "name": "year",
                      "type": "uint256"
                    },
                    {
                      "internalType": "uint256",
                      "name": "month",
                      "type": "uint256"
                    },
                    {
                      "internalType": "uint256",
                      "name": "day",
                      "type": "uint256"
                    }
                  ],
                  "internalType": "struct UserDataTypes.Date",
                  "name": "dateOfBirth",
                  "type": "tuple"
                },
                {
                  "internalType": "string",
                  "name": "nationality",
                  "type": "string"
                },
                {
                  "internalType": "string",
                  "name": "phoneNumber",
                  "type": "string"
                },
                {
                  "internalType": "string",
                  "name": "emailAddress",
                  "type": "string"
                },
                {
                  "internalType": "enum UserDataTypes.UserRole",
                  "name": "role",
                  "type": "uint8"
                },
                {
                  "internalType": "uint256[]",
                  "name": "studyProgramIds",
                  "type": "uint256[]"
                }
              ],
              "internalType": "struct UserDataTypes.UserProfile",
              "name": "profile",
              "type": "tuple"
            }
          ],
          "internalType": "struct UserDataTypes.Registration",
          "name": "registration",
          "type": "tuple"
        }
      ],
      "name": "createUser",
      "outputs": [],
      "stateMutability": "nonpayable",
      "type": "function"
    },
    {
      "inputs": [],
      "name": "getAllUsers",
      "outputs": [
        {
          "components": [
            {
              "internalType": "uint256",
              "name": "uId",
              "type": "uint256"
            },
            {
              "components": [
                {
                  "internalType": "string",
                  "name": "firstName",
                  "type": "string"
                },
                {
                  "internalType": "string",
                  "name": "lastName",
                  "type": "string"
                },
                {
                  "internalType": "enum UserDataTypes.Gender",
                  "name": "gender",
                  "type": "uint8"
                },
                {
                  "components": [
                    {
                      "internalType": "uint256",
                      "name": "year",
                      "type": "uint256"
                    },
                    {
                      "internalType": "uint256",
                      "name": "month",
                      "type": "uint256"
                    },
                    {
                      "internalType": "uint256",
                      "name": "day",
                      "type": "uint256"
                    }
                  ],
                  "internalType": "struct UserDataTypes.Date",
                  "name": "dateOfBirth",
                  "type": "tuple"
                },
                {
                  "internalType": "string",
                  "name": "nationality",
                  "type": "string"
                },
                {
                  "internalType": "string",
                  "name": "phoneNumber",
                  "type": "string"
                },
                {
                  "internalType": "string",
                  "name": "emailAddress",
                  "type": "string"
                },
                {
                  "internalType": "enum UserDataTypes.UserRole",
                  "name": "role",
                  "type": "uint8"
                },
                {
                  "internalType": "uint256[]",
                  "name": "studyProgramIds",
                  "type": "uint256[]"
                }
              ],
              "internalType": "struct UserDataTypes.UserProfile",
              "name": "profile",
              "type": "tuple"
            }
          ],
          "internalType": "struct UserDataTypes.User[]",
          "name": "",
          "type": "tuple[]"
        }
      ],
      "stateMutability": "view",
      "type": "function"
    },
    {
      "inputs": [
        {
          "internalType": "uint256",
          "name": "uId",
          "type": "uint256"
        }
      ],
      "name": "getEnrolledProgramIds",
      "outputs": [
        {
          "internalType": "uint256[]",
          "name": "",
          "type": "uint256[]"
        }
      ],
      "stateMutability": "view",
      "type": "function"
    },
    {
      "inputs": [
        {
          "internalType": "uint256",
          "name": "uId",
          "type": "uint256"
        }
      ],
      "name": "getProfile",
      "outputs": [
        {
          "components": [
            {
              "internalType": "string",
              "name": "firstName",
              "type": "string"
            },
            {
              "internalType": "string",
              "name": "lastName",
              "type": "string"
            },
            {
              "internalType": "enum UserDataTypes.Gender",
              "name": "gender",
              "type": "uint8"
            },
            {
              "components": [
                {
                  "internalType": "uint256",
                  "name": "year",
                  "type": "uint256"
                },
                {
                  "internalType": "uint256",
                  "name": "month",
                  "type": "uint256"
                },
                {
                  "internalType": "uint256",
                  "name": "day",
                  "type": "uint256"
                }
              ],
              "internalType": "struct UserDataTypes.Date",
              "name": "dateOfBirth",
              "type": "tuple"
            },
            {
              "internalType": "string",
              "name": "nationality",
              "type": "string"
            },
            {
              "internalType": "string",
              "name": "phoneNumber",
              "type": "string"
            },
            {
              "internalType": "string",
              "name": "emailAddress",
              "type": "string"
            },
            {
              "internalType": "enum UserDataTypes.UserRole",
              "name": "role",
              "type": "uint8"
            },
            {
              "internalType": "uint256[]",
              "name": "studyProgramIds",
              "type": "uint256[]"
            }
          ],
          "internalType": "struct UserDataTypes.UserProfile",
          "name": "",
          "type": "tuple"
        }
      ],
      "stateMutability": "view",
      "type": "function"
    },
    {
      "inputs": [
        {
          "internalType": "address",
          "name": "userAddress",
          "type": "address"
        }
      ],
      "name": "getUIdToAddress",
      "outputs": [
        {
          "internalType": "uint256",
          "name": "",
          "type": "uint256"
        }
      ],
      "stateMutability": "view",
      "type": "function"
    },
    {
      "inputs": [
        {
          "internalType": "uint256",
          "name": "uId",
          "type": "uint256"
        }
      ],
      "name": "getUser",
      "outputs": [
        {
          "components": [
            {
              "internalType": "uint256",
              "name": "uId",
              "type": "uint256"
            },
            {
              "components": [
                {
                  "internalType": "string",
                  "name": "firstName",
                  "type": "string"
                },
                {
                  "internalType": "string",
                  "name": "lastName",
                  "type": "string"
                },
                {
                  "internalType": "enum UserDataTypes.Gender",
                  "name": "gender",
                  "type": "uint8"
                },
                {
                  "components": [
                    {
                      "internalType": "uint256",
                      "name": "year",
                      "type": "uint256"
                    },
                    {
                      "internalType": "uint256",
                      "name": "month",
                      "type": "uint256"
                    },
                    {
                      "internalType": "uint256",
                      "name": "day",
                      "type": "uint256"
                    }
                  ],
                  "internalType": "struct UserDataTypes.Date",
                  "name": "dateOfBirth",
                  "type": "tuple"
                },
                {
                  "internalType": "string",
                  "name": "nationality",
                  "type": "string"
                },
                {
                  "internalType": "string",
                  "name": "phoneNumber",
                  "type": "string"
                },
                {
                  "internalType": "string",
                  "name": "emailAddress",
                  "type": "string"
                },
                {
                  "internalType": "enum UserDataTypes.UserRole",
                  "name": "role",
                  "type": "uint8"
                },
                {
                  "internalType": "uint256[]",
                  "name": "studyProgramIds",
                  "type": "uint256[]"
                }
              ],
              "internalType": "struct UserDataTypes.UserProfile",
              "name": "profile",
              "type": "tuple"
            }
          ],
          "internalType": "struct UserDataTypes.User",
          "name": "",
          "type": "tuple"
        }
      ],
      "stateMutability": "view",
      "type": "function"
    },
    {
      "inputs": [
        {
          "internalType": "address",
          "name": "userAddress",
          "type": "address"
        }
      ],
      "name": "getUserRoleAtAddress",
      "outputs": [
        {
          "internalType": "enum UserDataTypes.UserRole",
          "name": "",
          "type": "uint8"
        }
      ],
      "stateMutability": "view",
      "type": "function"
    },
    {
      "inputs": [
        {
          "internalType": "uint256",
          "name": "uId",
          "type": "uint256"
        }
      ],
      "name": "getUserRoleAtUId",
      "outputs": [
        {
          "internalType": "enum UserDataTypes.UserRole",
          "name": "",
          "type": "uint8"
        }
      ],
      "stateMutability": "view",
      "type": "function"
    },
    {
      "inputs": [
        {
          "internalType": "uint256[]",
          "name": "uIds",
          "type": "uint256[]"
        }
      ],
      "name": "getUsers",
      "outputs": [
        {
          "components": [
            {
              "internalType": "uint256",
              "name": "uId",
              "type": "uint256"
            },
            {
              "components": [
                {
                  "internalType": "string",
                  "name": "firstName",
                  "type": "string"
                },
                {
                  "internalType": "string",
                  "name": "lastName",
                  "type": "string"
                },
                {
                  "internalType": "enum UserDataTypes.Gender",
                  "name": "gender",
                  "type": "uint8"
                },
                {
                  "components": [
                    {
                      "internalType": "uint256",
                      "name": "year",
                      "type": "uint256"
                    },
                    {
                      "internalType": "uint256",
                      "name": "month",
                      "type": "uint256"
                    },
                    {
                      "internalType": "uint256",
                      "name": "day",
                      "type": "uint256"
                    }
                  ],
                  "internalType": "struct UserDataTypes.Date",
                  "name": "dateOfBirth",
                  "type": "tuple"
                },
                {
                  "internalType": "string",
                  "name": "nationality",
                  "type": "string"
                },
                {
                  "internalType": "string",
                  "name": "phoneNumber",
                  "type": "string"
                },
                {
                  "internalType": "string",
                  "name": "emailAddress",
                  "type": "string"
                },
                {
                  "internalType": "enum UserDataTypes.UserRole",
                  "name": "role",
                  "type": "uint8"
                },
                {
                  "internalType": "uint256[]",
                  "name": "studyProgramIds",
                  "type": "uint256[]"
                }
              ],
              "internalType": "struct UserDataTypes.UserProfile",
              "name": "profile",
              "type": "tuple"
            }
          ],
          "internalType": "struct UserDataTypes.User[]",
          "name": "",
          "type": "tuple[]"
        }
      ],
      "stateMutability": "view",
      "type": "function"
    },
    {
      "inputs": [
        {
          "internalType": "address",
          "name": "_address",
          "type": "address"
        }
      ],
      "name": "isAddressRegistered",
      "outputs": [
        {
          "internalType": "bool",
          "name": "",
          "type": "bool"
        }
      ],
      "stateMutability": "view",
      "type": "function"
    }
  ],
  "bytecode": "0x608060405262000019620000e560201b620013641760201c565b60026000820151816000015550503480156200003457600080fd5b50604051620033ec380380620033ec83398181016040528101906200005a919062000181565b80806000806101000a81548173ffffffffffffffffffffffffffffffffffffffff021916908373ffffffffffffffffffffffffffffffffffffffff1602179055505081600160006101000a81548173ffffffffffffffffffffffffffffffffffffffff021916908373ffffffffffffffffffffffffffffffffffffffff1602179055505050620001c8565b620000ef62000104565b60405180602001604052806001815250905090565b6040518060200160405280600081525090565b600080fd5b600073ffffffffffffffffffffffffffffffffffffffff82169050919050565b600062000149826200011c565b9050919050565b6200015b816200013c565b81146200016757600080fd5b50565b6000815190506200017b8162000150565b92915050565b600080604083850312156200019b576200019a62000117565b5b6000620001ab858286016200016a565b9250506020620001be858286016200016a565b9150509250929050565b61321480620001d86000396000f3fe608060405234801561001057600080fd5b506004361061009e5760003560e01c8063bdf3e91211610066578063bdf3e9121461017f578063dd8b2914146101af578063e2842d79146101df578063e3d7e14c146101fd578063f08f4f641461022d5761009e565b806338b6a3a1146100a35780634efe9cac146100d35780636d9521d814610103578063b0467deb1461011f578063b29d96f21461014f575b600080fd5b6100bd60048036038101906100b89190611880565b61025d565b6040516100ca91906118c8565b60405180910390f35b6100ed60048036038101906100e89190611919565b6103e8565b6040516100fa9190611a04565b60405180910390f35b61011d60048036038101906101189190611a4a565b610574565b005b61013960048036038101906101349190611919565b6109b2565b6040516101469190611dba565b60405180910390f35b61016960048036038101906101649190611e41565b610b3b565b6040516101769190611f8d565b60405180910390f35b61019960048036038101906101949190611919565b610c9a565b6040516101a69190611fbe565b60405180910390f35b6101c960048036038101906101c49190611880565b610e26565b6040516101d69190611fbe565b60405180910390f35b6101e7610fb2565b6040516101f49190611f8d565b60405180910390f35b61021760048036038101906102129190611880565b61104f565b6040516102249190611fe8565b60405180910390f35b61024760048036038101906102429190611919565b6111d7565b60405161025491906120ed565b60405180910390f35b60008060009054906101000a900473ffffffffffffffffffffffffffffffffffffffff1673ffffffffffffffffffffffffffffffffffffffff166313f44d10336040518263ffffffff1660e01b81526004016102b9919061211e565b602060405180830381865afa1580156102d6573d6000803e3d6000fd5b505050506040513d601f19601f820116820180604052508101906102fa9190612165565b610339576040517f08c379a0000000000000000000000000000000000000000000000000000000008152600401610330906121ef565b60405180910390fd5b6000600160009054906101000a900473ffffffffffffffffffffffffffffffffffffffff1673ffffffffffffffffffffffffffffffffffffffff166309953c2e846040518263ffffffff1660e01b8152600401610396919061211e565b600060405180830381865afa1580156103b3573d6000803e3d6000fd5b505050506040513d6000823e3d601f19601f820116820180604052508101906103dc91906126b6565b50905080915050919050565b606060008054906101000a900473ffffffffffffffffffffffffffffffffffffffff1673ffffffffffffffffffffffffffffffffffffffff166313f44d10336040518263ffffffff1660e01b8152600401610443919061211e565b602060405180830381865afa158015610460573d6000803e3d6000fd5b505050506040513d601f19601f820116820180604052508101906104849190612165565b6104c3576040517f08c379a00000000000000000000000000000000000000000000000000000000081526004016104ba906121ef565b60405180910390fd5b600160009054906101000a900473ffffffffffffffffffffffffffffffffffffffff1673ffffffffffffffffffffffffffffffffffffffff166364a48934836040518263ffffffff1660e01b815260040161051e9190611fe8565b600060405180830381865afa15801561053b573d6000803e3d6000fd5b505050506040513d6000823e3d601f19601f820116820180604052508101906105649190612712565b6020015161010001519050919050565b60008054906101000a900473ffffffffffffffffffffffffffffffffffffffff1673ffffffffffffffffffffffffffffffffffffffff166313f44d10336040518263ffffffff1660e01b81526004016105cd919061211e565b602060405180830381865afa1580156105ea573d6000803e3d6000fd5b505050506040513d601f19601f8201168201806040525081019061060e9190612165565b61064d576040517f08c379a0000000000000000000000000000000000000000000000000000000008152600401610644906121ef565b60405180910390fd5b600073ffffffffffffffffffffffffffffffffffffffff168160000160208101906106789190611880565b73ffffffffffffffffffffffffffffffffffffffff16036106ce576040517f08c379a00000000000000000000000000000000000000000000000000000000081526004016106c5906127a7565b60405180910390fd5b61076e8180604001906106e191906127d6565b80600001906106f091906127ff565b8080601f016020809104026020016040519081016040528093929190818152602001838380828437600081840152601f19601f820116905080830192505050505050506040518060400160405280600a81526020017f4669727374206e616d6500000000000000000000000000000000000000000000815250611381565b61080e81806040019061078191906127d6565b806020019061079091906127ff565b8080601f016020809104026020016040519081016040528093929190818152602001838380828437600081840152601f19601f820116905080830192505050505050506040518060400160405280600981526020017f4c617374206e616d650000000000000000000000000000000000000000000000815250611381565b6108ae81806040019061082191906127d6565b8060c0019061083091906127ff565b8080601f016020809104026020016040519081016040528093929190818152602001838380828437600081840152601f19601f820116905080830192505050505050506040518060400160405280600b81526020017f4e6174696f6e616c697479000000000000000000000000000000000000000000815250611381565b6108d98180604001906108c191906127d6565b6060018036038101906108d491906128c6565b6113ec565b600160009054906101000a900473ffffffffffffffffffffffffffffffffffffffff1673ffffffffffffffffffffffffffffffffffffffff166385ab97d282600001602081019061092a9190611880565b604051806040016040528061093f60026115fb565b815260200185806040019061095491906127d6565b61095d90612bbd565b8152506040518363ffffffff1660e01b815260040161097d929190612bd0565b600060405180830381600087803b15801561099757600080fd5b505af11580156109ab573d6000803e3d6000fd5b5050505050565b6109ba611744565b60008054906101000a900473ffffffffffffffffffffffffffffffffffffffff1673ffffffffffffffffffffffffffffffffffffffff166313f44d10336040518263ffffffff1660e01b8152600401610a13919061211e565b602060405180830381865afa158015610a30573d6000803e3d6000fd5b505050506040513d601f19601f82011682018060405250810190610a549190612165565b610a93576040517f08c379a0000000000000000000000000000000000000000000000000000000008152600401610a8a906121ef565b60405180910390fd5b600160009054906101000a900473ffffffffffffffffffffffffffffffffffffffff1673ffffffffffffffffffffffffffffffffffffffff166364a48934836040518263ffffffff1660e01b8152600401610aee9190611fe8565b600060405180830381865afa158015610b0b573d6000803e3d6000fd5b505050506040513d6000823e3d601f19601f82011682018060405250810190610b349190612712565b9050919050565b606060008383905067ffffffffffffffff811115610b5c57610b5b612214565b5b604051908082528060200260200182016040528015610b9557816020015b610b82611744565b815260200190600190039081610b7a5790505b50905060005b84849050811015610c8f57600160009054906101000a900473ffffffffffffffffffffffffffffffffffffffff1673ffffffffffffffffffffffffffffffffffffffff166364a48934868684818110610bf757610bf6612c00565b5b905060200201356040518263ffffffff1660e01b8152600401610c1a9190611fe8565b600060405180830381865afa158015610c37573d6000803e3d6000fd5b505050506040513d6000823e3d601f19601f82011682018060405250810190610c609190612712565b828281518110610c7357610c72612c00565b5b602002602001018190525080610c8890612c5e565b9050610b9b565b508091505092915050565b60008060009054906101000a900473ffffffffffffffffffffffffffffffffffffffff1673ffffffffffffffffffffffffffffffffffffffff166313f44d10336040518263ffffffff1660e01b8152600401610cf6919061211e565b602060405180830381865afa158015610d13573d6000803e3d6000fd5b505050506040513d601f19601f82011682018060405250810190610d379190612165565b610d76576040517f08c379a0000000000000000000000000000000000000000000000000000000008152600401610d6d906121ef565b60405180910390fd5b600160009054906101000a900473ffffffffffffffffffffffffffffffffffffffff1673ffffffffffffffffffffffffffffffffffffffff166364a48934836040518263ffffffff1660e01b8152600401610dd19190611fe8565b600060405180830381865afa158015610dee573d6000803e3d6000fd5b505050506040513d6000823e3d601f19601f82011682018060405250810190610e179190612712565b6020015160e001519050919050565b60008060009054906101000a900473ffffffffffffffffffffffffffffffffffffffff1673ffffffffffffffffffffffffffffffffffffffff166313f44d10336040518263ffffffff1660e01b8152600401610e82919061211e565b602060405180830381865afa158015610e9f573d6000803e3d6000fd5b505050506040513d601f19601f82011682018060405250810190610ec39190612165565b610f02576040517f08c379a0000000000000000000000000000000000000000000000000000000008152600401610ef9906121ef565b60405180910390fd5b600160009054906101000a900473ffffffffffffffffffffffffffffffffffffffff1673ffffffffffffffffffffffffffffffffffffffff166369c212f6836040518263ffffffff1660e01b8152600401610f5d919061211e565b600060405180830381865afa158015610f7a573d6000803e3d6000fd5b505050506040513d6000823e3d601f19601f82011682018060405250810190610fa39190612712565b6020015160e001519050919050565b6060600160009054906101000a900473ffffffffffffffffffffffffffffffffffffffff1673ffffffffffffffffffffffffffffffffffffffff1663e2842d796040518163ffffffff1660e01b8152600401600060405180830381865afa158015611021573d6000803e3d6000fd5b505050506040513d6000823e3d601f19601f8201168201806040525081019061104a9190612d87565b905090565b60008060009054906101000a900473ffffffffffffffffffffffffffffffffffffffff1673ffffffffffffffffffffffffffffffffffffffff166313f44d10336040518263ffffffff1660e01b81526004016110ab919061211e565b602060405180830381865afa1580156110c8573d6000803e3d6000fd5b505050506040513d601f19601f820116820180604052508101906110ec9190612165565b61112b576040517f08c379a0000000000000000000000000000000000000000000000000000000008152600401611122906121ef565b60405180910390fd5b600160009054906101000a900473ffffffffffffffffffffffffffffffffffffffff1673ffffffffffffffffffffffffffffffffffffffff166369c212f6836040518263ffffffff1660e01b8152600401611186919061211e565b600060405180830381865afa1580156111a3573d6000803e3d6000fd5b505050506040513d6000823e3d601f19601f820116820180604052508101906111cc9190612712565b600001519050919050565b6111df611764565b60008054906101000a900473ffffffffffffffffffffffffffffffffffffffff1673ffffffffffffffffffffffffffffffffffffffff166313f44d10336040518263ffffffff1660e01b8152600401611238919061211e565b602060405180830381865afa158015611255573d6000803e3d6000fd5b505050506040513d601f19601f820116820180604052508101906112799190612165565b6112b8576040517f08c379a00000000000000000000000000000000000000000000000000000000081526004016112af906121ef565b60405180910390fd5b600160009054906101000a900473ffffffffffffffffffffffffffffffffffffffff1673ffffffffffffffffffffffffffffffffffffffff166364a48934836040518263ffffffff1660e01b81526004016113139190611fe8565b600060405180830381865afa158015611330573d6000803e3d6000fd5b505050506040513d6000823e3d601f19601f820116820180604052508101906113599190612712565b602001519050919050565b61136c6117da565b60405180602001604052806001815250905090565b6000825111816040516020016113979190612e58565b604051602081830303815290604052906113e7576040517f08c379a00000000000000000000000000000000000000000000000000000000081526004016113de9190612eb3565b60405180910390fd5b505050565b600081600001519050600082602001519050600083604001519050600080600061141461161d565b9250925092508286111561145d576040517f08c379a000000000000000000000000000000000000000000000000000000000815260040161145490612f47565b60405180910390fd5b8286101561150c57600c8511158015611477575060018510155b6114b6576040517f08c379a00000000000000000000000000000000000000000000000000000000081526004016114ad90612fd9565b60405180910390fd5b601f84111580156114c8575060018410155b611507576040517f08c379a00000000000000000000000000000000000000000000000000000000081526004016114fe9061306b565b60405180910390fd5b6115f2565b8185111561154f576040517f08c379a0000000000000000000000000000000000000000000000000000000008152600401611546906130fd565b60405180910390fd5b818510156115ad57601f8411158015611569575060018410155b6115a8576040517f08c379a000000000000000000000000000000000000000000000000000000000815260040161159f9061306b565b60405180910390fd5b6115f1565b808411156115f0576040517f08c379a00000000000000000000000000000000000000000000000000000000081526004016115e79061318f565b60405180910390fd5b5b5b50505050505050565b600081600001600081548092919061161290612c5e565b919050559050919050565b600080600080600080600062015180428161163b5761163a6131af565b5b049050600062253d8c62010bd98301019050600062023ab18260040281611665576116646131af565b5b059050600460038262023ab1020181611681576116806131af565b5b0582039150600062164b0960018401610fa002816116a2576116a16131af565b5b059050601f6004826105b502816116bc576116bb6131af565b5b058403019250600061098f84605002816116d9576116d86131af565b5b059050600060508261098f02816116f3576116f26131af565b5b0585039050600b8281611709576117086131af565b5b05945084600c026002830103915084836031860360640201019250829850819750809650505050505050828282955095509550505050909192565b60405180604001604052806000815260200161175e611764565b81525090565b60405180610120016040528060608152602001606081526020016000600281111561179257611791611b23565b5b815260200161179f6117ed565b8152602001606081526020016060815260200160608152602001600060028111156117cd576117cc611b23565b5b8152602001606081525090565b6040518060200160405280600081525090565b60405180606001604052806000815260200160008152602001600081525090565b6000604051905090565b600080fd5b600080fd5b600073ffffffffffffffffffffffffffffffffffffffff82169050919050565b600061184d82611822565b9050919050565b61185d81611842565b811461186857600080fd5b50565b60008135905061187a81611854565b92915050565b60006020828403121561189657611895611818565b5b60006118a48482850161186b565b91505092915050565b60008115159050919050565b6118c2816118ad565b82525050565b60006020820190506118dd60008301846118b9565b92915050565b6000819050919050565b6118f6816118e3565b811461190157600080fd5b50565b600081359050611913816118ed565b92915050565b60006020828403121561192f5761192e611818565b5b600061193d84828501611904565b91505092915050565b600081519050919050565b600082825260208201905092915050565b6000819050602082019050919050565b61197b816118e3565b82525050565b600061198d8383611972565b60208301905092915050565b6000602082019050919050565b60006119b182611946565b6119bb8185611951565b93506119c683611962565b8060005b838110156119f75781516119de8882611981565b97506119e983611999565b9250506001810190506119ca565b5085935050505092915050565b60006020820190508181036000830152611a1e81846119a6565b905092915050565b600080fd5b600060608284031215611a4157611a40611a26565b5b81905092915050565b600060208284031215611a6057611a5f611818565b5b600082013567ffffffffffffffff811115611a7e57611a7d61181d565b5b611a8a84828501611a2b565b91505092915050565b600081519050919050565b600082825260208201905092915050565b60005b83811015611acd578082015181840152602081019050611ab2565b60008484015250505050565b6000601f19601f8301169050919050565b6000611af582611a93565b611aff8185611a9e565b9350611b0f818560208601611aaf565b611b1881611ad9565b840191505092915050565b7f4e487b7100000000000000000000000000000000000000000000000000000000600052602160045260246000fd5b60038110611b6357611b62611b23565b5b50565b6000819050611b7482611b52565b919050565b6000611b8482611b66565b9050919050565b611b9481611b79565b82525050565b606082016000820151611bb06000850182611972565b506020820151611bc36020850182611972565b506040820151611bd66040850182611972565b50505050565b60038110611bed57611bec611b23565b5b50565b6000819050611bfe82611bdc565b919050565b6000611c0e82611bf0565b9050919050565b611c1e81611c03565b82525050565b600082825260208201905092915050565b6000611c4082611946565b611c4a8185611c24565b9350611c5583611962565b8060005b83811015611c86578151611c6d8882611981565b9750611c7883611999565b925050600181019050611c59565b5085935050505092915050565b6000610160830160008301518482036000860152611cb18282611aea565b91505060208301518482036020860152611ccb8282611aea565b9150506040830151611ce06040860182611b8b565b506060830151611cf36060860182611b9a565b50608083015184820360c0860152611d0b8282611aea565b91505060a083015184820360e0860152611d258282611aea565b91505060c0830151848203610100860152611d408282611aea565b91505060e0830151611d56610120860182611c15565b50610100830151848203610140860152611d708282611c35565b9150508091505092915050565b6000604083016000830151611d956000860182611972565b5060208301518482036020860152611dad8282611c93565b9150508091505092915050565b60006020820190508181036000830152611dd48184611d7d565b905092915050565b600080fd5b600080fd5b600080fd5b60008083601f840112611e0157611e00611ddc565b5b8235905067ffffffffffffffff811115611e1e57611e1d611de1565b5b602083019150836020820283011115611e3a57611e39611de6565b5b9250929050565b60008060208385031215611e5857611e57611818565b5b600083013567ffffffffffffffff811115611e7657611e7561181d565b5b611e8285828601611deb565b92509250509250929050565b600081519050919050565b600082825260208201905092915050565b6000819050602082019050919050565b6000604083016000830151611ed26000860182611972565b5060208301518482036020860152611eea8282611c93565b9150508091505092915050565b6000611f038383611eba565b905092915050565b6000602082019050919050565b6000611f2382611e8e565b611f2d8185611e99565b935083602082028501611f3f85611eaa565b8060005b85811015611f7b5784840389528151611f5c8582611ef7565b9450611f6783611f0b565b925060208a01995050600181019050611f43565b50829750879550505050505092915050565b60006020820190508181036000830152611fa78184611f18565b905092915050565b611fb881611c03565b82525050565b6000602082019050611fd36000830184611faf565b92915050565b611fe2816118e3565b82525050565b6000602082019050611ffd6000830184611fd9565b92915050565b60006101608301600083015184820360008601526120218282611aea565b9150506020830151848203602086015261203b8282611aea565b91505060408301516120506040860182611b8b565b5060608301516120636060860182611b9a565b50608083015184820360c086015261207b8282611aea565b91505060a083015184820360e08601526120958282611aea565b91505060c08301518482036101008601526120b08282611aea565b91505060e08301516120c6610120860182611c15565b506101008301518482036101408601526120e08282611c35565b9150508091505092915050565b600060208201905081810360008301526121078184612003565b905092915050565b61211881611842565b82525050565b6000602082019050612133600083018461210f565b92915050565b612142816118ad565b811461214d57600080fd5b50565b60008151905061215f81612139565b92915050565b60006020828403121561217b5761217a611818565b5b600061218984828501612150565b91505092915050565b600082825260208201905092915050565b7f5468652073656e646572206973206e6f742077686974656c6973746564000000600082015250565b60006121d9601d83612192565b91506121e4826121a3565b602082019050919050565b60006020820190508181036000830152612208816121cc565b9050919050565b600080fd5b7f4e487b7100000000000000000000000000000000000000000000000000000000600052604160045260246000fd5b61224c82611ad9565b810181811067ffffffffffffffff8211171561226b5761226a612214565b5b80604052505050565b600061227e61180e565b905061228a8282612243565b919050565b600080fd5b6000815190506122a3816118ed565b92915050565b600080fd5b600067ffffffffffffffff8211156122c9576122c8612214565b5b6122d282611ad9565b9050602081019050919050565b60006122f26122ed846122ae565b612274565b90508281526020810184848401111561230e5761230d6122a9565b5b612319848285611aaf565b509392505050565b600082601f83011261233657612335611ddc565b5b81516123468482602086016122df565b91505092915050565b6003811061235c57600080fd5b50565b60008151905061236e8161234f565b92915050565b60006060828403121561238a5761238961220f565b5b6123946060612274565b905060006123a484828501612294565b60008301525060206123b884828501612294565b60208301525060406123cc84828501612294565b60408301525092915050565b600381106123e557600080fd5b50565b6000815190506123f7816123d8565b92915050565b600067ffffffffffffffff82111561241857612417612214565b5b602082029050602081019050919050565b600061243c612437846123fd565b612274565b9050808382526020820190506020840283018581111561245f5761245e611de6565b5b835b8181101561248857806124748882612294565b845260208401935050602081019050612461565b5050509392505050565b600082601f8301126124a7576124a6611ddc565b5b81516124b7848260208601612429565b91505092915050565b600061016082840312156124d7576124d661220f565b5b6124e2610120612274565b9050600082015167ffffffffffffffff8111156125025761250161228f565b5b61250e84828501612321565b600083015250602082015167ffffffffffffffff8111156125325761253161228f565b5b61253e84828501612321565b60208301525060406125528482850161235f565b604083015250606061256684828501612374565b60608301525060c082015167ffffffffffffffff81111561258a5761258961228f565b5b61259684828501612321565b60808301525060e082015167ffffffffffffffff8111156125ba576125b961228f565b5b6125c684828501612321565b60a08301525061010082015167ffffffffffffffff8111156125eb576125ea61228f565b5b6125f784828501612321565b60c08301525061012061260c848285016123e8565b60e08301525061014082015167ffffffffffffffff8111156126315761263061228f565b5b61263d84828501612492565b6101008301525092915050565b6000604082840312156126605761265f61220f565b5b61266a6040612274565b9050600061267a84828501612294565b600083015250602082015167ffffffffffffffff81111561269e5761269d61228f565b5b6126aa848285016124c0565b60208301525092915050565b600080604083850312156126cd576126cc611818565b5b60006126db85828601612150565b925050602083015167ffffffffffffffff8111156126fc576126fb61181d565b5b6127088582860161264a565b9150509250929050565b60006020828403121561272857612727611818565b5b600082015167ffffffffffffffff8111156127465761274561181d565b5b6127528482850161264a565b91505092915050565b7f5468652061646472657373206d75737420626520736574000000000000000000600082015250565b6000612791601783612192565b915061279c8261275b565b602082019050919050565b600060208201905081810360008301526127c081612784565b9050919050565b600080fd5b600080fd5b600080fd5b600082356001610160038336030381126127f3576127f26127c7565b5b80830191505092915050565b6000808335600160200384360303811261281c5761281b6127c7565b5b80840192508235915067ffffffffffffffff82111561283e5761283d6127cc565b5b60208301925060018202360383131561285a576128596127d1565b5b509250929050565b6000606082840312156128785761287761220f565b5b6128826060612274565b9050600061289284828501611904565b60008301525060206128a684828501611904565b60208301525060406128ba84828501611904565b60408301525092915050565b6000606082840312156128dc576128db611818565b5b60006128ea84828501612862565b91505092915050565b82818337600083830152505050565b6000612915612910846122ae565b612274565b905082815260208101848484011115612931576129306122a9565b5b61293c8482856128f3565b509392505050565b600082601f83011261295957612958611ddc565b5b8135612969848260208601612902565b91505092915050565b6000813590506129818161234f565b92915050565b600081359050612996816123d8565b92915050565b60006129af6129aa846123fd565b612274565b905080838252602082019050602084028301858111156129d2576129d1611de6565b5b835b818110156129fb57806129e78882611904565b8452602084019350506020810190506129d4565b5050509392505050565b600082601f830112612a1a57612a19611ddc565b5b8135612a2a84826020860161299c565b91505092915050565b60006101608284031215612a4a57612a4961220f565b5b612a55610120612274565b9050600082013567ffffffffffffffff811115612a7557612a7461228f565b5b612a8184828501612944565b600083015250602082013567ffffffffffffffff811115612aa557612aa461228f565b5b612ab184828501612944565b6020830152506040612ac584828501612972565b6040830152506060612ad984828501612862565b60608301525060c082013567ffffffffffffffff811115612afd57612afc61228f565b5b612b0984828501612944565b60808301525060e082013567ffffffffffffffff811115612b2d57612b2c61228f565b5b612b3984828501612944565b60a08301525061010082013567ffffffffffffffff811115612b5e57612b5d61228f565b5b612b6a84828501612944565b60c083015250610120612b7f84828501612987565b60e08301525061014082013567ffffffffffffffff811115612ba457612ba361228f565b5b612bb084828501612a05565b6101008301525092915050565b6000612bc93683612a33565b9050919050565b6000604082019050612be5600083018561210f565b8181036020830152612bf78184611d7d565b90509392505050565b7f4e487b7100000000000000000000000000000000000000000000000000000000600052603260045260246000fd5b7f4e487b7100000000000000000000000000000000000000000000000000000000600052601160045260246000fd5b6000612c69826118e3565b91507fffffffffffffffffffffffffffffffffffffffffffffffffffffffffffffffff8203612c9b57612c9a612c2f565b5b600182019050919050565b600067ffffffffffffffff821115612cc157612cc0612214565b5b602082029050602081019050919050565b6000612ce5612ce084612ca6565b612274565b90508083825260208201905060208402830185811115612d0857612d07611de6565b5b835b81811015612d4f57805167ffffffffffffffff811115612d2d57612d2c611ddc565b5b808601612d3a898261264a565b85526020850194505050602081019050612d0a565b5050509392505050565b600082601f830112612d6e57612d6d611ddc565b5b8151612d7e848260208601612cd2565b91505092915050565b600060208284031215612d9d57612d9c611818565b5b600082015167ffffffffffffffff811115612dbb57612dba61181d565b5b612dc784828501612d59565b91505092915050565b600081905092915050565b6000612de682611a93565b612df08185612dd0565b9350612e00818560208601611aaf565b80840191505092915050565b7f2063616e6e6f7420626520656d70747900000000000000000000000000000000600082015250565b6000612e42601083612dd0565b9150612e4d82612e0c565b601082019050919050565b6000612e648284612ddb565b9150612e6f82612e35565b915081905092915050565b6000612e8582611a93565b612e8f8185612192565b9350612e9f818560208601611aaf565b612ea881611ad9565b840191505092915050565b60006020820190508181036000830152612ecd8184612e7a565b905092915050565b7f426972746820796561722076616c75652063616e6e6f7420626520696e20746860008201527f6520667574757265000000000000000000000000000000000000000000000000602082015250565b6000612f31602883612192565b9150612f3c82612ed5565b604082019050919050565b60006020820190508181036000830152612f6081612f24565b9050919050565b7f4269727468206d6f6e74682076616c7565206d7573742062652062657477656560008201527f6e203120616e6420313200000000000000000000000000000000000000000000602082015250565b6000612fc3602a83612192565b9150612fce82612f67565b604082019050919050565b60006020820190508181036000830152612ff281612fb6565b9050919050565b7f4269727468206461792076616c7565206d757374206265206265747765656e2060008201527f3120616e64203331000000000000000000000000000000000000000000000000602082015250565b6000613055602883612192565b915061306082612ff9565b604082019050919050565b6000602082019050818103600083015261308481613048565b9050919050565b7f4269727468206d6f6e74682076616c75652063616e6e6f7420626520696e207460008201527f6865206675747572650000000000000000000000000000000000000000000000602082015250565b60006130e7602983612192565b91506130f28261308b565b604082019050919050565b60006020820190508181036000830152613116816130da565b9050919050565b7f4269727468206461792076616c75652063616e6e6f7420626520696e2074686560008201527f2066757475726500000000000000000000000000000000000000000000000000602082015250565b6000613179602783612192565b91506131848261311d565b604082019050919050565b600060208201905081810360008301526131a88161316c565b9050919050565b7f4e487b7100000000000000000000000000000000000000000000000000000000600052601260045260246000fdfea26469706673582212204c138e443b73d62f075dfa5950e9e9340e0ad61f20e496db1d1be8a16e8fca5864736f6c63430008110033",
  "linkReferences": {},
  "deployedLinkReferences": {}
}