{
  "_format": "hh-sol-artifact-1",
  "contractName": "UserDataManager",
  "sourceName": "contracts/data/datamanager/UserDataManager.sol",
  "abi": [
    {
      "inputs": [
        {
          "internalType": "address",
          "name": "userStorageAddress",
          "type": "address"
        },
        {
          "internalType": "address",
          "name": "accessWhitelistAddress",
          "type": "address"
        }
      ],
      "stateMutability": "nonpayable",
      "type": "constructor"
    },
    {
      "inputs": [
        {
          "components": [
            {
              "internalType": "address",
              "name": "userAddress",
              "type": "address"
            },
            {
              "internalType": "enum UserDataTypes.RegistrationStatus",
              "name": "status",
              "type": "uint8"
            },
            {
              "components": [
                {
                  "internalType": "string",
                  "name": "firstName",
                  "type": "string"
                },
                {
                  "internalType": "string",
                  "name": "lastName",
                  "type": "string"
                },
                {
                  "internalType": "enum UserDataTypes.Gender",
                  "name": "gender",
                  "type": "uint8"
                },
                {
                  "components": [
                    {
                      "internalType": "uint256",
                      "name": "year",
                      "type": "uint256"
                    },
                    {
                      "internalType": "uint256",
                      "name": "month",
                      "type": "uint256"
                    },
                    {
                      "internalType": "uint256",
                      "name": "day",
                      "type": "uint256"
                    }
                  ],
                  "internalType": "struct UserDataTypes.Date",
                  "name": "dateOfBirth",
                  "type": "tuple"
                },
                {
                  "internalType": "string",
                  "name": "nationality",
                  "type": "string"
                },
                {
                  "internalType": "string",
                  "name": "phoneNumber",
                  "type": "string"
                },
                {
                  "internalType": "string",
                  "name": "emailAddress",
                  "type": "string"
                },
                {
                  "internalType": "enum UserDataTypes.UserRole",
                  "name": "role",
                  "type": "uint8"
                },
                {
                  "internalType": "uint256[]",
                  "name": "studyProgramIds",
                  "type": "uint256[]"
                }
              ],
              "internalType": "struct UserDataTypes.UserProfile",
              "name": "profile",
              "type": "tuple"
            }
          ],
          "internalType": "struct UserDataTypes.Registration",
          "name": "registration",
          "type": "tuple"
        }
      ],
      "name": "createUser",
      "outputs": [],
      "stateMutability": "nonpayable",
      "type": "function"
    },
    {
      "inputs": [],
      "name": "getAllUsers",
      "outputs": [
        {
          "components": [
            {
              "internalType": "uint256",
              "name": "uId",
              "type": "uint256"
            },
            {
              "components": [
                {
                  "internalType": "string",
                  "name": "firstName",
                  "type": "string"
                },
                {
                  "internalType": "string",
                  "name": "lastName",
                  "type": "string"
                },
                {
                  "internalType": "enum UserDataTypes.Gender",
                  "name": "gender",
                  "type": "uint8"
                },
                {
                  "components": [
                    {
                      "internalType": "uint256",
                      "name": "year",
                      "type": "uint256"
                    },
                    {
                      "internalType": "uint256",
                      "name": "month",
                      "type": "uint256"
                    },
                    {
                      "internalType": "uint256",
                      "name": "day",
                      "type": "uint256"
                    }
                  ],
                  "internalType": "struct UserDataTypes.Date",
                  "name": "dateOfBirth",
                  "type": "tuple"
                },
                {
                  "internalType": "string",
                  "name": "nationality",
                  "type": "string"
                },
                {
                  "internalType": "string",
                  "name": "phoneNumber",
                  "type": "string"
                },
                {
                  "internalType": "string",
                  "name": "emailAddress",
                  "type": "string"
                },
                {
                  "internalType": "enum UserDataTypes.UserRole",
                  "name": "role",
                  "type": "uint8"
                },
                {
                  "internalType": "uint256[]",
                  "name": "studyProgramIds",
                  "type": "uint256[]"
                }
              ],
              "internalType": "struct UserDataTypes.UserProfile",
              "name": "profile",
              "type": "tuple"
            }
          ],
          "internalType": "struct UserDataTypes.User[]",
          "name": "",
          "type": "tuple[]"
        }
      ],
      "stateMutability": "view",
      "type": "function"
    },
    {
      "inputs": [
        {
          "internalType": "uint256",
          "name": "uId",
          "type": "uint256"
        }
      ],
      "name": "getEnrolledProgramIds",
      "outputs": [
        {
          "internalType": "uint256[]",
          "name": "",
          "type": "uint256[]"
        }
      ],
      "stateMutability": "view",
      "type": "function"
    },
    {
      "inputs": [
        {
          "internalType": "uint256",
          "name": "uId",
          "type": "uint256"
        }
      ],
      "name": "getProfile",
      "outputs": [
        {
          "components": [
            {
              "internalType": "string",
              "name": "firstName",
              "type": "string"
            },
            {
              "internalType": "string",
              "name": "lastName",
              "type": "string"
            },
            {
              "internalType": "enum UserDataTypes.Gender",
              "name": "gender",
              "type": "uint8"
            },
            {
              "components": [
                {
                  "internalType": "uint256",
                  "name": "year",
                  "type": "uint256"
                },
                {
                  "internalType": "uint256",
                  "name": "month",
                  "type": "uint256"
                },
                {
                  "internalType": "uint256",
                  "name": "day",
                  "type": "uint256"
                }
              ],
              "internalType": "struct UserDataTypes.Date",
              "name": "dateOfBirth",
              "type": "tuple"
            },
            {
              "internalType": "string",
              "name": "nationality",
              "type": "string"
            },
            {
              "internalType": "string",
              "name": "phoneNumber",
              "type": "string"
            },
            {
              "internalType": "string",
              "name": "emailAddress",
              "type": "string"
            },
            {
              "internalType": "enum UserDataTypes.UserRole",
              "name": "role",
              "type": "uint8"
            },
            {
              "internalType": "uint256[]",
              "name": "studyProgramIds",
              "type": "uint256[]"
            }
          ],
          "internalType": "struct UserDataTypes.UserProfile",
          "name": "",
          "type": "tuple"
        }
      ],
      "stateMutability": "view",
      "type": "function"
    },
    {
      "inputs": [
        {
          "internalType": "address",
          "name": "userAddress",
          "type": "address"
        }
      ],
      "name": "getUIdToAddress",
      "outputs": [
        {
          "internalType": "uint256",
          "name": "",
          "type": "uint256"
        }
      ],
      "stateMutability": "view",
      "type": "function"
    },
    {
      "inputs": [
        {
          "internalType": "uint256",
          "name": "uId",
          "type": "uint256"
        }
      ],
      "name": "getUser",
      "outputs": [
        {
          "components": [
            {
              "internalType": "uint256",
              "name": "uId",
              "type": "uint256"
            },
            {
              "components": [
                {
                  "internalType": "string",
                  "name": "firstName",
                  "type": "string"
                },
                {
                  "internalType": "string",
                  "name": "lastName",
                  "type": "string"
                },
                {
                  "internalType": "enum UserDataTypes.Gender",
                  "name": "gender",
                  "type": "uint8"
                },
                {
                  "components": [
                    {
                      "internalType": "uint256",
                      "name": "year",
                      "type": "uint256"
                    },
                    {
                      "internalType": "uint256",
                      "name": "month",
                      "type": "uint256"
                    },
                    {
                      "internalType": "uint256",
                      "name": "day",
                      "type": "uint256"
                    }
                  ],
                  "internalType": "struct UserDataTypes.Date",
                  "name": "dateOfBirth",
                  "type": "tuple"
                },
                {
                  "internalType": "string",
                  "name": "nationality",
                  "type": "string"
                },
                {
                  "internalType": "string",
                  "name": "phoneNumber",
                  "type": "string"
                },
                {
                  "internalType": "string",
                  "name": "emailAddress",
                  "type": "string"
                },
                {
                  "internalType": "enum UserDataTypes.UserRole",
                  "name": "role",
                  "type": "uint8"
                },
                {
                  "internalType": "uint256[]",
                  "name": "studyProgramIds",
                  "type": "uint256[]"
                }
              ],
              "internalType": "struct UserDataTypes.UserProfile",
              "name": "profile",
              "type": "tuple"
            }
          ],
          "internalType": "struct UserDataTypes.User",
          "name": "",
          "type": "tuple"
        }
      ],
      "stateMutability": "view",
      "type": "function"
    },
    {
      "inputs": [
        {
          "internalType": "address",
          "name": "userAddress",
          "type": "address"
        }
      ],
      "name": "getUserRoleAtAddress",
      "outputs": [
        {
          "internalType": "enum UserDataTypes.UserRole",
          "name": "",
          "type": "uint8"
        }
      ],
      "stateMutability": "view",
      "type": "function"
    },
    {
      "inputs": [
        {
          "internalType": "uint256",
          "name": "uId",
          "type": "uint256"
        }
      ],
      "name": "getUserRoleAtUId",
      "outputs": [
        {
          "internalType": "enum UserDataTypes.UserRole",
          "name": "",
          "type": "uint8"
        }
      ],
      "stateMutability": "view",
      "type": "function"
    },
    {
      "inputs": [
        {
          "internalType": "address",
          "name": "_address",
          "type": "address"
        }
      ],
      "name": "isAddressRegistered",
      "outputs": [
        {
          "internalType": "bool",
          "name": "",
          "type": "bool"
        }
      ],
      "stateMutability": "view",
      "type": "function"
    }
  ],
  "bytecode": "0x608060405262000019620000e560201b62000bd61760201c565b60026000820151816000015550503480156200003457600080fd5b5060405162002b8738038062002b8783398181016040528101906200005a919062000181565b80806000806101000a81548173ffffffffffffffffffffffffffffffffffffffff021916908373ffffffffffffffffffffffffffffffffffffffff1602179055505081600160006101000a81548173ffffffffffffffffffffffffffffffffffffffff021916908373ffffffffffffffffffffffffffffffffffffffff1602179055505050620001c8565b620000ef62000104565b60405180602001604052806001815250905090565b6040518060200160405280600081525090565b600080fd5b600073ffffffffffffffffffffffffffffffffffffffff82169050919050565b600062000149826200011c565b9050919050565b6200015b816200013c565b81146200016757600080fd5b50565b6000815190506200017b8162000150565b92915050565b600080604083850312156200019b576200019a62000117565b5b6000620001ab858286016200016a565b9250506020620001be858286016200016a565b9150509250929050565b6129af80620001d86000396000f3fe608060405234801561001057600080fd5b50600436106100935760003560e01c8063bdf3e91211610066578063bdf3e91214610144578063dd8b291414610174578063e2842d79146101a4578063e3d7e14c146101c2578063f08f4f64146101f257610093565b806338b6a3a1146100985780634efe9cac146100c85780636d9521d8146100f8578063b0467deb14610114575b600080fd5b6100b260048036038101906100ad91906110f2565b610222565b6040516100bf919061113a565b60405180910390f35b6100e260048036038101906100dd919061118b565b6102d2565b6040516100ef9190611276565b60405180910390f35b610112600480360381019061010d91906112bc565b610385565b005b61012e6004803603810190610129919061118b565b6107c3565b60405161013b919061162c565b60405180910390f35b61015e6004803603810190610159919061118b565b610873565b60405161016b919061165d565b60405180910390f35b61018e600480360381019061018991906110f2565b610925565b60405161019b919061165d565b60405180910390f35b6101ac6109d7565b6040516101b99190611777565b60405180910390f35b6101dc60048036038101906101d791906110f2565b610a74565b6040516101e991906117a8565b60405180910390f35b61020c6004803603810190610207919061118b565b610b22565b60405161021991906118ad565b60405180910390f35b600080600160009054906101000a900473ffffffffffffffffffffffffffffffffffffffff1673ffffffffffffffffffffffffffffffffffffffff166309953c2e846040518263ffffffff1660e01b815260040161028091906118de565b600060405180830381865afa15801561029d573d6000803e3d6000fd5b505050506040513d6000823e3d601f19601f820116820180604052508101906102c69190611dd6565b50905080915050919050565b6060600160009054906101000a900473ffffffffffffffffffffffffffffffffffffffff1673ffffffffffffffffffffffffffffffffffffffff166364a48934836040518263ffffffff1660e01b815260040161032f91906117a8565b600060405180830381865afa15801561034c573d6000803e3d6000fd5b505050506040513d6000823e3d601f19601f820116820180604052508101906103759190611e32565b6020015161010001519050919050565b60008054906101000a900473ffffffffffffffffffffffffffffffffffffffff1673ffffffffffffffffffffffffffffffffffffffff166313f44d10336040518263ffffffff1660e01b81526004016103de91906118de565b602060405180830381865afa1580156103fb573d6000803e3d6000fd5b505050506040513d601f19601f8201168201806040525081019061041f9190611e7b565b61045e576040517f08c379a000000000000000000000000000000000000000000000000000000000815260040161045590611f05565b60405180910390fd5b600073ffffffffffffffffffffffffffffffffffffffff1681600001602081019061048991906110f2565b73ffffffffffffffffffffffffffffffffffffffff16036104df576040517f08c379a00000000000000000000000000000000000000000000000000000000081526004016104d690611f71565b60405180910390fd5b61057f8180604001906104f29190611fa0565b80600001906105019190611fc9565b8080601f016020809104026020016040519081016040528093929190818152602001838380828437600081840152601f19601f820116905080830192505050505050506040518060400160405280600a81526020017f4669727374206e616d6500000000000000000000000000000000000000000000815250610bf3565b61061f8180604001906105929190611fa0565b80602001906105a19190611fc9565b8080601f016020809104026020016040519081016040528093929190818152602001838380828437600081840152601f19601f820116905080830192505050505050506040518060400160405280600981526020017f4c617374206e616d650000000000000000000000000000000000000000000000815250610bf3565b6106bf8180604001906106329190611fa0565b8060c001906106419190611fc9565b8080601f016020809104026020016040519081016040528093929190818152602001838380828437600081840152601f19601f820116905080830192505050505050506040518060400160405280600b81526020017f4e6174696f6e616c697479000000000000000000000000000000000000000000815250610bf3565b6106ea8180604001906106d29190611fa0565b6060018036038101906106e59190612090565b610c5e565b600160009054906101000a900473ffffffffffffffffffffffffffffffffffffffff1673ffffffffffffffffffffffffffffffffffffffff166385ab97d282600001602081019061073b91906110f2565b60405180604001604052806107506002610e6d565b81526020018580604001906107659190611fa0565b61076e90612387565b8152506040518363ffffffff1660e01b815260040161078e92919061239a565b600060405180830381600087803b1580156107a857600080fd5b505af11580156107bc573d6000803e3d6000fd5b5050505050565b6107cb610fb6565b600160009054906101000a900473ffffffffffffffffffffffffffffffffffffffff1673ffffffffffffffffffffffffffffffffffffffff166364a48934836040518263ffffffff1660e01b815260040161082691906117a8565b600060405180830381865afa158015610843573d6000803e3d6000fd5b505050506040513d6000823e3d601f19601f8201168201806040525081019061086c9190611e32565b9050919050565b6000600160009054906101000a900473ffffffffffffffffffffffffffffffffffffffff1673ffffffffffffffffffffffffffffffffffffffff166364a48934836040518263ffffffff1660e01b81526004016108d091906117a8565b600060405180830381865afa1580156108ed573d6000803e3d6000fd5b505050506040513d6000823e3d601f19601f820116820180604052508101906109169190611e32565b6020015160e001519050919050565b6000600160009054906101000a900473ffffffffffffffffffffffffffffffffffffffff1673ffffffffffffffffffffffffffffffffffffffff166369c212f6836040518263ffffffff1660e01b815260040161098291906118de565b600060405180830381865afa15801561099f573d6000803e3d6000fd5b505050506040513d6000823e3d601f19601f820116820180604052508101906109c89190611e32565b6020015160e001519050919050565b6060600160009054906101000a900473ffffffffffffffffffffffffffffffffffffffff1673ffffffffffffffffffffffffffffffffffffffff1663e2842d796040518163ffffffff1660e01b8152600401600060405180830381865afa158015610a46573d6000803e3d6000fd5b505050506040513d6000823e3d601f19601f82011682018060405250810190610a6f91906124ab565b905090565b6000600160009054906101000a900473ffffffffffffffffffffffffffffffffffffffff1673ffffffffffffffffffffffffffffffffffffffff166369c212f6836040518263ffffffff1660e01b8152600401610ad191906118de565b600060405180830381865afa158015610aee573d6000803e3d6000fd5b505050506040513d6000823e3d601f19601f82011682018060405250810190610b179190611e32565b600001519050919050565b610b2a610fd6565b600160009054906101000a900473ffffffffffffffffffffffffffffffffffffffff1673ffffffffffffffffffffffffffffffffffffffff166364a48934836040518263ffffffff1660e01b8152600401610b8591906117a8565b600060405180830381865afa158015610ba2573d6000803e3d6000fd5b505050506040513d6000823e3d601f19601f82011682018060405250810190610bcb9190611e32565b602001519050919050565b610bde61104c565b60405180602001604052806001815250905090565b600082511181604051602001610c09919061257c565b60405160208183030381529060405290610c59576040517f08c379a0000000000000000000000000000000000000000000000000000000008152600401610c5091906125d7565b60405180910390fd5b505050565b6000816000015190506000826020015190506000836040015190506000806000610c86610e8f565b92509250925082861115610ccf576040517f08c379a0000000000000000000000000000000000000000000000000000000008152600401610cc69061266b565b60405180910390fd5b82861015610d7e57600c8511158015610ce9575060018510155b610d28576040517f08c379a0000000000000000000000000000000000000000000000000000000008152600401610d1f906126fd565b60405180910390fd5b601f8411158015610d3a575060018410155b610d79576040517f08c379a0000000000000000000000000000000000000000000000000000000008152600401610d709061278f565b60405180910390fd5b610e64565b81851115610dc1576040517f08c379a0000000000000000000000000000000000000000000000000000000008152600401610db890612821565b60405180910390fd5b81851015610e1f57601f8411158015610ddb575060018410155b610e1a576040517f08c379a0000000000000000000000000000000000000000000000000000000008152600401610e119061278f565b60405180910390fd5b610e63565b80841115610e62576040517f08c379a0000000000000000000000000000000000000000000000000000000008152600401610e59906128b3565b60405180910390fd5b5b5b50505050505050565b6000816000016000815480929190610e8490612902565b919050559050919050565b6000806000806000806000620151804281610ead57610eac61294a565b5b049050600062253d8c62010bd98301019050600062023ab18260040281610ed757610ed661294a565b5b059050600460038262023ab1020181610ef357610ef261294a565b5b0582039150600062164b0960018401610fa00281610f1457610f1361294a565b5b059050601f6004826105b50281610f2e57610f2d61294a565b5b058403019250600061098f8460500281610f4b57610f4a61294a565b5b059050600060508261098f0281610f6557610f6461294a565b5b0585039050600b8281610f7b57610f7a61294a565b5b05945084600c026002830103915084836031860360640201019250829850819750809650505050505050828282955095509550505050909192565b604051806040016040528060008152602001610fd0610fd6565b81525090565b60405180610120016040528060608152602001606081526020016000600281111561100457611003611395565b5b815260200161101161105f565b81526020016060815260200160608152602001606081526020016000600281111561103f5761103e611395565b5b8152602001606081525090565b6040518060200160405280600081525090565b60405180606001604052806000815260200160008152602001600081525090565b6000604051905090565b600080fd5b600080fd5b600073ffffffffffffffffffffffffffffffffffffffff82169050919050565b60006110bf82611094565b9050919050565b6110cf816110b4565b81146110da57600080fd5b50565b6000813590506110ec816110c6565b92915050565b6000602082840312156111085761110761108a565b5b6000611116848285016110dd565b91505092915050565b60008115159050919050565b6111348161111f565b82525050565b600060208201905061114f600083018461112b565b92915050565b6000819050919050565b61116881611155565b811461117357600080fd5b50565b6000813590506111858161115f565b92915050565b6000602082840312156111a1576111a061108a565b5b60006111af84828501611176565b91505092915050565b600081519050919050565b600082825260208201905092915050565b6000819050602082019050919050565b6111ed81611155565b82525050565b60006111ff83836111e4565b60208301905092915050565b6000602082019050919050565b6000611223826111b8565b61122d81856111c3565b9350611238836111d4565b8060005b8381101561126957815161125088826111f3565b975061125b8361120b565b92505060018101905061123c565b5085935050505092915050565b600060208201905081810360008301526112908184611218565b905092915050565b600080fd5b6000606082840312156112b3576112b2611298565b5b81905092915050565b6000602082840312156112d2576112d161108a565b5b600082013567ffffffffffffffff8111156112f0576112ef61108f565b5b6112fc8482850161129d565b91505092915050565b600081519050919050565b600082825260208201905092915050565b60005b8381101561133f578082015181840152602081019050611324565b60008484015250505050565b6000601f19601f8301169050919050565b600061136782611305565b6113718185611310565b9350611381818560208601611321565b61138a8161134b565b840191505092915050565b7f4e487b7100000000000000000000000000000000000000000000000000000000600052602160045260246000fd5b600381106113d5576113d4611395565b5b50565b60008190506113e6826113c4565b919050565b60006113f6826113d8565b9050919050565b611406816113eb565b82525050565b60608201600082015161142260008501826111e4565b50602082015161143560208501826111e4565b50604082015161144860408501826111e4565b50505050565b6003811061145f5761145e611395565b5b50565b60008190506114708261144e565b919050565b600061148082611462565b9050919050565b61149081611475565b82525050565b600082825260208201905092915050565b60006114b2826111b8565b6114bc8185611496565b93506114c7836111d4565b8060005b838110156114f85781516114df88826111f3565b97506114ea8361120b565b9250506001810190506114cb565b5085935050505092915050565b6000610160830160008301518482036000860152611523828261135c565b9150506020830151848203602086015261153d828261135c565b915050604083015161155260408601826113fd565b506060830151611565606086018261140c565b50608083015184820360c086015261157d828261135c565b91505060a083015184820360e0860152611597828261135c565b91505060c08301518482036101008601526115b2828261135c565b91505060e08301516115c8610120860182611487565b506101008301518482036101408601526115e282826114a7565b9150508091505092915050565b600060408301600083015161160760008601826111e4565b506020830151848203602086015261161f8282611505565b9150508091505092915050565b6000602082019050818103600083015261164681846115ef565b905092915050565b61165781611475565b82525050565b6000602082019050611672600083018461164e565b92915050565b600081519050919050565b600082825260208201905092915050565b6000819050602082019050919050565b60006040830160008301516116bc60008601826111e4565b50602083015184820360208601526116d48282611505565b9150508091505092915050565b60006116ed83836116a4565b905092915050565b6000602082019050919050565b600061170d82611678565b6117178185611683565b93508360208202850161172985611694565b8060005b85811015611765578484038952815161174685826116e1565b9450611751836116f5565b925060208a0199505060018101905061172d565b50829750879550505050505092915050565b600060208201905081810360008301526117918184611702565b905092915050565b6117a281611155565b82525050565b60006020820190506117bd6000830184611799565b92915050565b60006101608301600083015184820360008601526117e1828261135c565b915050602083015184820360208601526117fb828261135c565b915050604083015161181060408601826113fd565b506060830151611823606086018261140c565b50608083015184820360c086015261183b828261135c565b91505060a083015184820360e0860152611855828261135c565b91505060c0830151848203610100860152611870828261135c565b91505060e0830151611886610120860182611487565b506101008301518482036101408601526118a082826114a7565b9150508091505092915050565b600060208201905081810360008301526118c781846117c3565b905092915050565b6118d8816110b4565b82525050565b60006020820190506118f360008301846118cf565b92915050565b6119028161111f565b811461190d57600080fd5b50565b60008151905061191f816118f9565b92915050565b600080fd5b7f4e487b7100000000000000000000000000000000000000000000000000000000600052604160045260246000fd5b6119628261134b565b810181811067ffffffffffffffff821117156119815761198061192a565b5b80604052505050565b6000611994611080565b90506119a08282611959565b919050565b600080fd5b6000815190506119b98161115f565b92915050565b600080fd5b600080fd5b600067ffffffffffffffff8211156119e4576119e361192a565b5b6119ed8261134b565b9050602081019050919050565b6000611a0d611a08846119c9565b61198a565b905082815260208101848484011115611a2957611a286119c4565b5b611a34848285611321565b509392505050565b600082601f830112611a5157611a506119bf565b5b8151611a618482602086016119fa565b91505092915050565b60038110611a7757600080fd5b50565b600081519050611a8981611a6a565b92915050565b600060608284031215611aa557611aa4611925565b5b611aaf606061198a565b90506000611abf848285016119aa565b6000830152506020611ad3848285016119aa565b6020830152506040611ae7848285016119aa565b60408301525092915050565b60038110611b0057600080fd5b50565b600081519050611b1281611af3565b92915050565b600067ffffffffffffffff821115611b3357611b3261192a565b5b602082029050602081019050919050565b600080fd5b6000611b5c611b5784611b18565b61198a565b90508083825260208201905060208402830185811115611b7f57611b7e611b44565b5b835b81811015611ba85780611b9488826119aa565b845260208401935050602081019050611b81565b5050509392505050565b600082601f830112611bc757611bc66119bf565b5b8151611bd7848260208601611b49565b91505092915050565b60006101608284031215611bf757611bf6611925565b5b611c0261012061198a565b9050600082015167ffffffffffffffff811115611c2257611c216119a5565b5b611c2e84828501611a3c565b600083015250602082015167ffffffffffffffff811115611c5257611c516119a5565b5b611c5e84828501611a3c565b6020830152506040611c7284828501611a7a565b6040830152506060611c8684828501611a8f565b60608301525060c082015167ffffffffffffffff811115611caa57611ca96119a5565b5b611cb684828501611a3c565b60808301525060e082015167ffffffffffffffff811115611cda57611cd96119a5565b5b611ce684828501611a3c565b60a08301525061010082015167ffffffffffffffff811115611d0b57611d0a6119a5565b5b611d1784828501611a3c565b60c083015250610120611d2c84828501611b03565b60e08301525061014082015167ffffffffffffffff811115611d5157611d506119a5565b5b611d5d84828501611bb2565b6101008301525092915050565b600060408284031215611d8057611d7f611925565b5b611d8a604061198a565b90506000611d9a848285016119aa565b600083015250602082015167ffffffffffffffff811115611dbe57611dbd6119a5565b5b611dca84828501611be0565b60208301525092915050565b60008060408385031215611ded57611dec61108a565b5b6000611dfb85828601611910565b925050602083015167ffffffffffffffff811115611e1c57611e1b61108f565b5b611e2885828601611d6a565b9150509250929050565b600060208284031215611e4857611e4761108a565b5b600082015167ffffffffffffffff811115611e6657611e6561108f565b5b611e7284828501611d6a565b91505092915050565b600060208284031215611e9157611e9061108a565b5b6000611e9f84828501611910565b91505092915050565b600082825260208201905092915050565b7f5468652073656e646572206973206e6f742077686974656c6973746564000000600082015250565b6000611eef601d83611ea8565b9150611efa82611eb9565b602082019050919050565b60006020820190508181036000830152611f1e81611ee2565b9050919050565b7f5468652061646472657373206d75737420626520736574000000000000000000600082015250565b6000611f5b601783611ea8565b9150611f6682611f25565b602082019050919050565b60006020820190508181036000830152611f8a81611f4e565b9050919050565b600080fd5b600080fd5b600080fd5b60008235600161016003833603038112611fbd57611fbc611f91565b5b80830191505092915050565b60008083356001602003843603038112611fe657611fe5611f91565b5b80840192508235915067ffffffffffffffff82111561200857612007611f96565b5b60208301925060018202360383131561202457612023611f9b565b5b509250929050565b60006060828403121561204257612041611925565b5b61204c606061198a565b9050600061205c84828501611176565b600083015250602061207084828501611176565b602083015250604061208484828501611176565b60408301525092915050565b6000606082840312156120a6576120a561108a565b5b60006120b48482850161202c565b91505092915050565b82818337600083830152505050565b60006120df6120da846119c9565b61198a565b9050828152602081018484840111156120fb576120fa6119c4565b5b6121068482856120bd565b509392505050565b600082601f830112612123576121226119bf565b5b81356121338482602086016120cc565b91505092915050565b60008135905061214b81611a6a565b92915050565b60008135905061216081611af3565b92915050565b600061217961217484611b18565b61198a565b9050808382526020820190506020840283018581111561219c5761219b611b44565b5b835b818110156121c557806121b18882611176565b84526020840193505060208101905061219e565b5050509392505050565b600082601f8301126121e4576121e36119bf565b5b81356121f4848260208601612166565b91505092915050565b6000610160828403121561221457612213611925565b5b61221f61012061198a565b9050600082013567ffffffffffffffff81111561223f5761223e6119a5565b5b61224b8482850161210e565b600083015250602082013567ffffffffffffffff81111561226f5761226e6119a5565b5b61227b8482850161210e565b602083015250604061228f8482850161213c565b60408301525060606122a38482850161202c565b60608301525060c082013567ffffffffffffffff8111156122c7576122c66119a5565b5b6122d38482850161210e565b60808301525060e082013567ffffffffffffffff8111156122f7576122f66119a5565b5b6123038482850161210e565b60a08301525061010082013567ffffffffffffffff811115612328576123276119a5565b5b6123348482850161210e565b60c08301525061012061234984828501612151565b60e08301525061014082013567ffffffffffffffff81111561236e5761236d6119a5565b5b61237a848285016121cf565b6101008301525092915050565b600061239336836121fd565b9050919050565b60006040820190506123af60008301856118cf565b81810360208301526123c181846115ef565b90509392505050565b600067ffffffffffffffff8211156123e5576123e461192a565b5b602082029050602081019050919050565b6000612409612404846123ca565b61198a565b9050808382526020820190506020840283018581111561242c5761242b611b44565b5b835b8181101561247357805167ffffffffffffffff811115612451576124506119bf565b5b80860161245e8982611d6a565b8552602085019450505060208101905061242e565b5050509392505050565b600082601f830112612492576124916119bf565b5b81516124a28482602086016123f6565b91505092915050565b6000602082840312156124c1576124c061108a565b5b600082015167ffffffffffffffff8111156124df576124de61108f565b5b6124eb8482850161247d565b91505092915050565b600081905092915050565b600061250a82611305565b61251481856124f4565b9350612524818560208601611321565b80840191505092915050565b7f2063616e6e6f7420626520656d70747900000000000000000000000000000000600082015250565b60006125666010836124f4565b915061257182612530565b601082019050919050565b600061258882846124ff565b915061259382612559565b915081905092915050565b60006125a982611305565b6125b38185611ea8565b93506125c3818560208601611321565b6125cc8161134b565b840191505092915050565b600060208201905081810360008301526125f1818461259e565b905092915050565b7f426972746820796561722076616c75652063616e6e6f7420626520696e20746860008201527f6520667574757265000000000000000000000000000000000000000000000000602082015250565b6000612655602883611ea8565b9150612660826125f9565b604082019050919050565b6000602082019050818103600083015261268481612648565b9050919050565b7f4269727468206d6f6e74682076616c7565206d7573742062652062657477656560008201527f6e203120616e6420313200000000000000000000000000000000000000000000602082015250565b60006126e7602a83611ea8565b91506126f28261268b565b604082019050919050565b60006020820190508181036000830152612716816126da565b9050919050565b7f4269727468206461792076616c7565206d757374206265206265747765656e2060008201527f3120616e64203331000000000000000000000000000000000000000000000000602082015250565b6000612779602883611ea8565b91506127848261271d565b604082019050919050565b600060208201905081810360008301526127a88161276c565b9050919050565b7f4269727468206d6f6e74682076616c75652063616e6e6f7420626520696e207460008201527f6865206675747572650000000000000000000000000000000000000000000000602082015250565b600061280b602983611ea8565b9150612816826127af565b604082019050919050565b6000602082019050818103600083015261283a816127fe565b9050919050565b7f4269727468206461792076616c75652063616e6e6f7420626520696e2074686560008201527f2066757475726500000000000000000000000000000000000000000000000000602082015250565b600061289d602783611ea8565b91506128a882612841565b604082019050919050565b600060208201905081810360008301526128cc81612890565b9050919050565b7f4e487b7100000000000000000000000000000000000000000000000000000000600052601160045260246000fd5b600061290d82611155565b91507fffffffffffffffffffffffffffffffffffffffffffffffffffffffffffffffff820361293f5761293e6128d3565b5b600182019050919050565b7f4e487b7100000000000000000000000000000000000000000000000000000000600052601260045260246000fdfea26469706673582212207d4191c3820f564ae648d0fd455628c537be77b5abac10c448a5f454c02a3a9464736f6c63430008110033",
  "linkReferences": {},
  "deployedLinkReferences": {}
}