{
  "_format": "hh-sol-artifact-1",
  "contractName": "UserDataManager",
  "sourceName": "contracts/data/datamanager/UserDataManager.sol",
  "abi": [
    {
      "inputs": [
        {
          "internalType": "address",
          "name": "userStorageAddress",
          "type": "address"
        },
        {
          "internalType": "address",
          "name": "accessWhitelistAddress",
          "type": "address"
        }
      ],
      "stateMutability": "nonpayable",
      "type": "constructor"
    },
    {
      "inputs": [
        {
          "components": [
            {
              "internalType": "address",
              "name": "userAddress",
              "type": "address"
            },
            {
              "internalType": "enum UserDataTypes.RegistrationStatus",
              "name": "status",
              "type": "uint8"
            },
            {
              "components": [
                {
                  "internalType": "string",
                  "name": "firstName",
                  "type": "string"
                },
                {
                  "internalType": "string",
                  "name": "lastName",
                  "type": "string"
                },
                {
                  "internalType": "enum UserDataTypes.Gender",
                  "name": "gender",
                  "type": "uint8"
                },
                {
                  "components": [
                    {
                      "internalType": "uint256",
                      "name": "year",
                      "type": "uint256"
                    },
                    {
                      "internalType": "uint256",
                      "name": "month",
                      "type": "uint256"
                    },
                    {
                      "internalType": "uint256",
                      "name": "day",
                      "type": "uint256"
                    }
                  ],
                  "internalType": "struct UserDataTypes.Date",
                  "name": "dateOfBirth",
                  "type": "tuple"
                },
                {
                  "internalType": "string",
                  "name": "nationality",
                  "type": "string"
                },
                {
                  "internalType": "string",
                  "name": "phoneNumber",
                  "type": "string"
                },
                {
                  "internalType": "string",
                  "name": "emailAddress",
                  "type": "string"
                },
                {
                  "internalType": "enum UserDataTypes.UserRole",
                  "name": "role",
                  "type": "uint8"
                },
                {
                  "internalType": "uint256[]",
                  "name": "studyProgramIds",
                  "type": "uint256[]"
                }
              ],
              "internalType": "struct UserDataTypes.UserProfile",
              "name": "profile",
              "type": "tuple"
            }
          ],
          "internalType": "struct UserDataTypes.Registration",
          "name": "registration",
          "type": "tuple"
        }
      ],
      "name": "createUser",
      "outputs": [],
      "stateMutability": "nonpayable",
      "type": "function"
    },
    {
      "inputs": [],
      "name": "getAllUsers",
      "outputs": [
        {
          "components": [
            {
              "internalType": "uint256",
              "name": "uId",
              "type": "uint256"
            },
            {
              "components": [
                {
                  "internalType": "string",
                  "name": "firstName",
                  "type": "string"
                },
                {
                  "internalType": "string",
                  "name": "lastName",
                  "type": "string"
                },
                {
                  "internalType": "enum UserDataTypes.Gender",
                  "name": "gender",
                  "type": "uint8"
                },
                {
                  "components": [
                    {
                      "internalType": "uint256",
                      "name": "year",
                      "type": "uint256"
                    },
                    {
                      "internalType": "uint256",
                      "name": "month",
                      "type": "uint256"
                    },
                    {
                      "internalType": "uint256",
                      "name": "day",
                      "type": "uint256"
                    }
                  ],
                  "internalType": "struct UserDataTypes.Date",
                  "name": "dateOfBirth",
                  "type": "tuple"
                },
                {
                  "internalType": "string",
                  "name": "nationality",
                  "type": "string"
                },
                {
                  "internalType": "string",
                  "name": "phoneNumber",
                  "type": "string"
                },
                {
                  "internalType": "string",
                  "name": "emailAddress",
                  "type": "string"
                },
                {
                  "internalType": "enum UserDataTypes.UserRole",
                  "name": "role",
                  "type": "uint8"
                },
                {
                  "internalType": "uint256[]",
                  "name": "studyProgramIds",
                  "type": "uint256[]"
                }
              ],
              "internalType": "struct UserDataTypes.UserProfile",
              "name": "profile",
              "type": "tuple"
            }
          ],
          "internalType": "struct UserDataTypes.User[]",
          "name": "",
          "type": "tuple[]"
        }
      ],
      "stateMutability": "view",
      "type": "function"
    },
    {
      "inputs": [
        {
          "internalType": "uint256",
          "name": "uId",
          "type": "uint256"
        }
      ],
      "name": "getEnrolledProgramIds",
      "outputs": [
        {
          "internalType": "uint256[]",
          "name": "",
          "type": "uint256[]"
        }
      ],
      "stateMutability": "view",
      "type": "function"
    },
    {
      "inputs": [
        {
          "internalType": "uint256",
          "name": "uId",
          "type": "uint256"
        }
      ],
      "name": "getProfile",
      "outputs": [
        {
          "components": [
            {
              "internalType": "string",
              "name": "firstName",
              "type": "string"
            },
            {
              "internalType": "string",
              "name": "lastName",
              "type": "string"
            },
            {
              "internalType": "enum UserDataTypes.Gender",
              "name": "gender",
              "type": "uint8"
            },
            {
              "components": [
                {
                  "internalType": "uint256",
                  "name": "year",
                  "type": "uint256"
                },
                {
                  "internalType": "uint256",
                  "name": "month",
                  "type": "uint256"
                },
                {
                  "internalType": "uint256",
                  "name": "day",
                  "type": "uint256"
                }
              ],
              "internalType": "struct UserDataTypes.Date",
              "name": "dateOfBirth",
              "type": "tuple"
            },
            {
              "internalType": "string",
              "name": "nationality",
              "type": "string"
            },
            {
              "internalType": "string",
              "name": "phoneNumber",
              "type": "string"
            },
            {
              "internalType": "string",
              "name": "emailAddress",
              "type": "string"
            },
            {
              "internalType": "enum UserDataTypes.UserRole",
              "name": "role",
              "type": "uint8"
            },
            {
              "internalType": "uint256[]",
              "name": "studyProgramIds",
              "type": "uint256[]"
            }
          ],
          "internalType": "struct UserDataTypes.UserProfile",
          "name": "",
          "type": "tuple"
        }
      ],
      "stateMutability": "view",
      "type": "function"
    },
    {
      "inputs": [
        {
          "internalType": "address",
          "name": "userAddress",
          "type": "address"
        }
      ],
      "name": "getUIdToAddress",
      "outputs": [
        {
          "internalType": "uint256",
          "name": "",
          "type": "uint256"
        }
      ],
      "stateMutability": "view",
      "type": "function"
    },
    {
      "inputs": [
        {
          "internalType": "uint256",
          "name": "uId",
          "type": "uint256"
        }
      ],
      "name": "getUser",
      "outputs": [
        {
          "components": [
            {
              "internalType": "uint256",
              "name": "uId",
              "type": "uint256"
            },
            {
              "components": [
                {
                  "internalType": "string",
                  "name": "firstName",
                  "type": "string"
                },
                {
                  "internalType": "string",
                  "name": "lastName",
                  "type": "string"
                },
                {
                  "internalType": "enum UserDataTypes.Gender",
                  "name": "gender",
                  "type": "uint8"
                },
                {
                  "components": [
                    {
                      "internalType": "uint256",
                      "name": "year",
                      "type": "uint256"
                    },
                    {
                      "internalType": "uint256",
                      "name": "month",
                      "type": "uint256"
                    },
                    {
                      "internalType": "uint256",
                      "name": "day",
                      "type": "uint256"
                    }
                  ],
                  "internalType": "struct UserDataTypes.Date",
                  "name": "dateOfBirth",
                  "type": "tuple"
                },
                {
                  "internalType": "string",
                  "name": "nationality",
                  "type": "string"
                },
                {
                  "internalType": "string",
                  "name": "phoneNumber",
                  "type": "string"
                },
                {
                  "internalType": "string",
                  "name": "emailAddress",
                  "type": "string"
                },
                {
                  "internalType": "enum UserDataTypes.UserRole",
                  "name": "role",
                  "type": "uint8"
                },
                {
                  "internalType": "uint256[]",
                  "name": "studyProgramIds",
                  "type": "uint256[]"
                }
              ],
              "internalType": "struct UserDataTypes.UserProfile",
              "name": "profile",
              "type": "tuple"
            }
          ],
          "internalType": "struct UserDataTypes.User",
          "name": "",
          "type": "tuple"
        }
      ],
      "stateMutability": "view",
      "type": "function"
    },
    {
      "inputs": [
        {
          "internalType": "uint256",
          "name": "uId",
          "type": "uint256"
        }
      ],
      "name": "getUserName",
      "outputs": [
        {
          "internalType": "string",
          "name": "",
          "type": "string"
        },
        {
          "internalType": "string",
          "name": "",
          "type": "string"
        }
      ],
      "stateMutability": "view",
      "type": "function"
    },
    {
      "inputs": [
        {
          "internalType": "address",
          "name": "userAddress",
          "type": "address"
        }
      ],
      "name": "getUserRoleAtAddress",
      "outputs": [
        {
          "internalType": "enum UserDataTypes.UserRole",
          "name": "",
          "type": "uint8"
        }
      ],
      "stateMutability": "view",
      "type": "function"
    },
    {
      "inputs": [
        {
          "internalType": "uint256",
          "name": "uId",
          "type": "uint256"
        }
      ],
      "name": "getUserRoleAtUId",
      "outputs": [
        {
          "internalType": "enum UserDataTypes.UserRole",
          "name": "",
          "type": "uint8"
        }
      ],
      "stateMutability": "view",
      "type": "function"
    },
    {
      "inputs": [
        {
          "internalType": "uint256[]",
          "name": "uIds",
          "type": "uint256[]"
        }
      ],
      "name": "getUsers",
      "outputs": [
        {
          "components": [
            {
              "internalType": "uint256",
              "name": "uId",
              "type": "uint256"
            },
            {
              "components": [
                {
                  "internalType": "string",
                  "name": "firstName",
                  "type": "string"
                },
                {
                  "internalType": "string",
                  "name": "lastName",
                  "type": "string"
                },
                {
                  "internalType": "enum UserDataTypes.Gender",
                  "name": "gender",
                  "type": "uint8"
                },
                {
                  "components": [
                    {
                      "internalType": "uint256",
                      "name": "year",
                      "type": "uint256"
                    },
                    {
                      "internalType": "uint256",
                      "name": "month",
                      "type": "uint256"
                    },
                    {
                      "internalType": "uint256",
                      "name": "day",
                      "type": "uint256"
                    }
                  ],
                  "internalType": "struct UserDataTypes.Date",
                  "name": "dateOfBirth",
                  "type": "tuple"
                },
                {
                  "internalType": "string",
                  "name": "nationality",
                  "type": "string"
                },
                {
                  "internalType": "string",
                  "name": "phoneNumber",
                  "type": "string"
                },
                {
                  "internalType": "string",
                  "name": "emailAddress",
                  "type": "string"
                },
                {
                  "internalType": "enum UserDataTypes.UserRole",
                  "name": "role",
                  "type": "uint8"
                },
                {
                  "internalType": "uint256[]",
                  "name": "studyProgramIds",
                  "type": "uint256[]"
                }
              ],
              "internalType": "struct UserDataTypes.UserProfile",
              "name": "profile",
              "type": "tuple"
            }
          ],
          "internalType": "struct UserDataTypes.User[]",
          "name": "",
          "type": "tuple[]"
        }
      ],
      "stateMutability": "view",
      "type": "function"
    },
    {
      "inputs": [
        {
          "internalType": "address",
          "name": "_address",
          "type": "address"
        }
      ],
      "name": "isAddressRegistered",
      "outputs": [
        {
          "internalType": "bool",
          "name": "",
          "type": "bool"
        }
      ],
      "stateMutability": "view",
      "type": "function"
    }
  ],
  "bytecode": "0x608060405262000019620000e560201b6200153d1760201c565b60026000820151816000015550503480156200003457600080fd5b50604051620035fc380380620035fc83398181016040528101906200005a919062000181565b80806000806101000a81548173ffffffffffffffffffffffffffffffffffffffff021916908373ffffffffffffffffffffffffffffffffffffffff1602179055505081600160006101000a81548173ffffffffffffffffffffffffffffffffffffffff021916908373ffffffffffffffffffffffffffffffffffffffff1602179055505050620001c8565b620000ef62000104565b60405180602001604052806001815250905090565b6040518060200160405280600081525090565b600080fd5b600073ffffffffffffffffffffffffffffffffffffffff82169050919050565b600062000149826200011c565b9050919050565b6200015b816200013c565b81146200016757600080fd5b50565b6000815190506200017b8162000150565b92915050565b600080604083850312156200019b576200019a62000117565b5b6000620001ab858286016200016a565b9250506020620001be858286016200016a565b9150509250929050565b61342480620001d86000396000f3fe608060405234801561001057600080fd5b50600436106100a95760003560e01c8063b29d96f211610071578063b29d96f21461018b578063bdf3e912146101bb578063dd8b2914146101eb578063e2842d791461021b578063e3d7e14c14610239578063f08f4f6414610269576100a9565b806338b6a3a1146100ae5780634efe9cac146100de5780636d9521d81461010e578063988da80f1461012a578063b0467deb1461015b575b600080fd5b6100c860048036038101906100c39190611a59565b610299565b6040516100d59190611aa1565b60405180910390f35b6100f860048036038101906100f39190611af2565b610424565b6040516101059190611bdd565b60405180910390f35b61012860048036038101906101239190611c23565b6105b0565b005b610144600480360381019061013f9190611af2565b6109ee565b604051610152929190611cfc565b60405180910390f35b61017560048036038101906101709190611af2565b610b8b565b6040516101829190612014565b60405180910390f35b6101a560048036038101906101a0919061209b565b610d14565b6040516101b291906121e7565b60405180910390f35b6101d560048036038101906101d09190611af2565b610e73565b6040516101e29190612218565b60405180910390f35b61020560048036038101906102009190611a59565b610fff565b6040516102129190612218565b60405180910390f35b61022361118b565b60405161023091906121e7565b60405180910390f35b610253600480360381019061024e9190611a59565b611228565b6040516102609190612242565b60405180910390f35b610283600480360381019061027e9190611af2565b6113b0565b6040516102909190612347565b60405180910390f35b60008060009054906101000a900473ffffffffffffffffffffffffffffffffffffffff1673ffffffffffffffffffffffffffffffffffffffff166313f44d10336040518263ffffffff1660e01b81526004016102f59190612378565b602060405180830381865afa158015610312573d6000803e3d6000fd5b505050506040513d601f19601f8201168201806040525081019061033691906123bf565b610375576040517f08c379a000000000000000000000000000000000000000000000000000000000815260040161036c90612438565b60405180910390fd5b6000600160009054906101000a900473ffffffffffffffffffffffffffffffffffffffff1673ffffffffffffffffffffffffffffffffffffffff166309953c2e846040518263ffffffff1660e01b81526004016103d29190612378565b600060405180830381865afa1580156103ef573d6000803e3d6000fd5b505050506040513d6000823e3d601f19601f8201168201806040525081019061041891906128ff565b50905080915050919050565b606060008054906101000a900473ffffffffffffffffffffffffffffffffffffffff1673ffffffffffffffffffffffffffffffffffffffff166313f44d10336040518263ffffffff1660e01b815260040161047f9190612378565b602060405180830381865afa15801561049c573d6000803e3d6000fd5b505050506040513d601f19601f820116820180604052508101906104c091906123bf565b6104ff576040517f08c379a00000000000000000000000000000000000000000000000000000000081526004016104f690612438565b60405180910390fd5b600160009054906101000a900473ffffffffffffffffffffffffffffffffffffffff1673ffffffffffffffffffffffffffffffffffffffff166364a48934836040518263ffffffff1660e01b815260040161055a9190612242565b600060405180830381865afa158015610577573d6000803e3d6000fd5b505050506040513d6000823e3d601f19601f820116820180604052508101906105a0919061295b565b6020015161010001519050919050565b60008054906101000a900473ffffffffffffffffffffffffffffffffffffffff1673ffffffffffffffffffffffffffffffffffffffff166313f44d10336040518263ffffffff1660e01b81526004016106099190612378565b602060405180830381865afa158015610626573d6000803e3d6000fd5b505050506040513d601f19601f8201168201806040525081019061064a91906123bf565b610689576040517f08c379a000000000000000000000000000000000000000000000000000000000815260040161068090612438565b60405180910390fd5b600073ffffffffffffffffffffffffffffffffffffffff168160000160208101906106b49190611a59565b73ffffffffffffffffffffffffffffffffffffffff160361070a576040517f08c379a0000000000000000000000000000000000000000000000000000000008152600401610701906129f0565b60405180910390fd5b6107aa81806040019061071d9190612a1f565b806000019061072c9190612a48565b8080601f016020809104026020016040519081016040528093929190818152602001838380828437600081840152601f19601f820116905080830192505050505050506040518060400160405280600a81526020017f4669727374206e616d650000000000000000000000000000000000000000000081525061155a565b61084a8180604001906107bd9190612a1f565b80602001906107cc9190612a48565b8080601f016020809104026020016040519081016040528093929190818152602001838380828437600081840152601f19601f820116905080830192505050505050506040518060400160405280600981526020017f4c617374206e616d65000000000000000000000000000000000000000000000081525061155a565b6108ea81806040019061085d9190612a1f565b8060c0019061086c9190612a48565b8080601f016020809104026020016040519081016040528093929190818152602001838380828437600081840152601f19601f820116905080830192505050505050506040518060400160405280600b81526020017f4e6174696f6e616c69747900000000000000000000000000000000000000000081525061155a565b6109158180604001906108fd9190612a1f565b6060018036038101906109109190612b0f565b6115c5565b600160009054906101000a900473ffffffffffffffffffffffffffffffffffffffff1673ffffffffffffffffffffffffffffffffffffffff166385ab97d28260000160208101906109669190611a59565b604051806040016040528061097b60026117d4565b81526020018580604001906109909190612a1f565b61099990612e06565b8152506040518363ffffffff1660e01b81526004016109b9929190612e19565b600060405180830381600087803b1580156109d357600080fd5b505af11580156109e7573d6000803e3d6000fd5b5050505050565b60608060008054906101000a900473ffffffffffffffffffffffffffffffffffffffff1673ffffffffffffffffffffffffffffffffffffffff166313f44d10336040518263ffffffff1660e01b8152600401610a4a9190612378565b602060405180830381865afa158015610a67573d6000803e3d6000fd5b505050506040513d601f19601f82011682018060405250810190610a8b91906123bf565b610aca576040517f08c379a0000000000000000000000000000000000000000000000000000000008152600401610ac190612438565b60405180910390fd5b6000600160009054906101000a900473ffffffffffffffffffffffffffffffffffffffff1673ffffffffffffffffffffffffffffffffffffffff166364a48934856040518263ffffffff1660e01b8152600401610b279190612242565b600060405180830381865afa158015610b44573d6000803e3d6000fd5b505050506040513d6000823e3d601f19601f82011682018060405250810190610b6d919061295b565b90508060200151600001518160200151602001519250925050915091565b610b9361191d565b60008054906101000a900473ffffffffffffffffffffffffffffffffffffffff1673ffffffffffffffffffffffffffffffffffffffff166313f44d10336040518263ffffffff1660e01b8152600401610bec9190612378565b602060405180830381865afa158015610c09573d6000803e3d6000fd5b505050506040513d601f19601f82011682018060405250810190610c2d91906123bf565b610c6c576040517f08c379a0000000000000000000000000000000000000000000000000000000008152600401610c6390612438565b60405180910390fd5b600160009054906101000a900473ffffffffffffffffffffffffffffffffffffffff1673ffffffffffffffffffffffffffffffffffffffff166364a48934836040518263ffffffff1660e01b8152600401610cc79190612242565b600060405180830381865afa158015610ce4573d6000803e3d6000fd5b505050506040513d6000823e3d601f19601f82011682018060405250810190610d0d919061295b565b9050919050565b606060008383905067ffffffffffffffff811115610d3557610d3461245d565b5b604051908082528060200260200182016040528015610d6e57816020015b610d5b61191d565b815260200190600190039081610d535790505b50905060005b84849050811015610e6857600160009054906101000a900473ffffffffffffffffffffffffffffffffffffffff1673ffffffffffffffffffffffffffffffffffffffff166364a48934868684818110610dd057610dcf612e49565b5b905060200201356040518263ffffffff1660e01b8152600401610df39190612242565b600060405180830381865afa158015610e10573d6000803e3d6000fd5b505050506040513d6000823e3d601f19601f82011682018060405250810190610e39919061295b565b828281518110610e4c57610e4b612e49565b5b602002602001018190525080610e6190612ea7565b9050610d74565b508091505092915050565b60008060009054906101000a900473ffffffffffffffffffffffffffffffffffffffff1673ffffffffffffffffffffffffffffffffffffffff166313f44d10336040518263ffffffff1660e01b8152600401610ecf9190612378565b602060405180830381865afa158015610eec573d6000803e3d6000fd5b505050506040513d601f19601f82011682018060405250810190610f1091906123bf565b610f4f576040517f08c379a0000000000000000000000000000000000000000000000000000000008152600401610f4690612438565b60405180910390fd5b600160009054906101000a900473ffffffffffffffffffffffffffffffffffffffff1673ffffffffffffffffffffffffffffffffffffffff166364a48934836040518263ffffffff1660e01b8152600401610faa9190612242565b600060405180830381865afa158015610fc7573d6000803e3d6000fd5b505050506040513d6000823e3d601f19601f82011682018060405250810190610ff0919061295b565b6020015160e001519050919050565b60008060009054906101000a900473ffffffffffffffffffffffffffffffffffffffff1673ffffffffffffffffffffffffffffffffffffffff166313f44d10336040518263ffffffff1660e01b815260040161105b9190612378565b602060405180830381865afa158015611078573d6000803e3d6000fd5b505050506040513d601f19601f8201168201806040525081019061109c91906123bf565b6110db576040517f08c379a00000000000000000000000000000000000000000000000000000000081526004016110d290612438565b60405180910390fd5b600160009054906101000a900473ffffffffffffffffffffffffffffffffffffffff1673ffffffffffffffffffffffffffffffffffffffff166369c212f6836040518263ffffffff1660e01b81526004016111369190612378565b600060405180830381865afa158015611153573d6000803e3d6000fd5b505050506040513d6000823e3d601f19601f8201168201806040525081019061117c919061295b565b6020015160e001519050919050565b6060600160009054906101000a900473ffffffffffffffffffffffffffffffffffffffff1673ffffffffffffffffffffffffffffffffffffffff1663e2842d796040518163ffffffff1660e01b8152600401600060405180830381865afa1580156111fa573d6000803e3d6000fd5b505050506040513d6000823e3d601f19601f820116820180604052508101906112239190612fd0565b905090565b60008060009054906101000a900473ffffffffffffffffffffffffffffffffffffffff1673ffffffffffffffffffffffffffffffffffffffff166313f44d10336040518263ffffffff1660e01b81526004016112849190612378565b602060405180830381865afa1580156112a1573d6000803e3d6000fd5b505050506040513d601f19601f820116820180604052508101906112c591906123bf565b611304576040517f08c379a00000000000000000000000000000000000000000000000000000000081526004016112fb90612438565b60405180910390fd5b600160009054906101000a900473ffffffffffffffffffffffffffffffffffffffff1673ffffffffffffffffffffffffffffffffffffffff166369c212f6836040518263ffffffff1660e01b815260040161135f9190612378565b600060405180830381865afa15801561137c573d6000803e3d6000fd5b505050506040513d6000823e3d601f19601f820116820180604052508101906113a5919061295b565b600001519050919050565b6113b861193d565b60008054906101000a900473ffffffffffffffffffffffffffffffffffffffff1673ffffffffffffffffffffffffffffffffffffffff166313f44d10336040518263ffffffff1660e01b81526004016114119190612378565b602060405180830381865afa15801561142e573d6000803e3d6000fd5b505050506040513d601f19601f8201168201806040525081019061145291906123bf565b611491576040517f08c379a000000000000000000000000000000000000000000000000000000000815260040161148890612438565b60405180910390fd5b600160009054906101000a900473ffffffffffffffffffffffffffffffffffffffff1673ffffffffffffffffffffffffffffffffffffffff166364a48934836040518263ffffffff1660e01b81526004016114ec9190612242565b600060405180830381865afa158015611509573d6000803e3d6000fd5b505050506040513d6000823e3d601f19601f82011682018060405250810190611532919061295b565b602001519050919050565b6115456119b3565b60405180602001604052806001815250905090565b60008251118160405160200161157091906130a1565b604051602081830303815290604052906115c0576040517f08c379a00000000000000000000000000000000000000000000000000000000081526004016115b791906130c3565b60405180910390fd5b505050565b60008160000151905060008260200151905060008360400151905060008060006115ed6117f6565b92509250925082861115611636576040517f08c379a000000000000000000000000000000000000000000000000000000000815260040161162d90613157565b60405180910390fd5b828610156116e557600c8511158015611650575060018510155b61168f576040517f08c379a0000000000000000000000000000000000000000000000000000000008152600401611686906131e9565b60405180910390fd5b601f84111580156116a1575060018410155b6116e0576040517f08c379a00000000000000000000000000000000000000000000000000000000081526004016116d79061327b565b60405180910390fd5b6117cb565b81851115611728576040517f08c379a000000000000000000000000000000000000000000000000000000000815260040161171f9061330d565b60405180910390fd5b8185101561178657601f8411158015611742575060018410155b611781576040517f08c379a00000000000000000000000000000000000000000000000000000000081526004016117789061327b565b60405180910390fd5b6117ca565b808411156117c9576040517f08c379a00000000000000000000000000000000000000000000000000000000081526004016117c09061339f565b60405180910390fd5b5b5b50505050505050565b60008160000160008154809291906117eb90612ea7565b919050559050919050565b6000806000806000806000620151804281611814576118136133bf565b5b049050600062253d8c62010bd98301019050600062023ab1826004028161183e5761183d6133bf565b5b059050600460038262023ab102018161185a576118596133bf565b5b0582039150600062164b0960018401610fa0028161187b5761187a6133bf565b5b059050601f6004826105b50281611895576118946133bf565b5b058403019250600061098f84605002816118b2576118b16133bf565b5b059050600060508261098f02816118cc576118cb6133bf565b5b0585039050600b82816118e2576118e16133bf565b5b05945084600c026002830103915084836031860360640201019250829850819750809650505050505050828282955095509550505050909192565b60405180604001604052806000815260200161193761193d565b81525090565b60405180610120016040528060608152602001606081526020016000600281111561196b5761196a611d7d565b5b81526020016119786119c6565b8152602001606081526020016060815260200160608152602001600060028111156119a6576119a5611d7d565b5b8152602001606081525090565b6040518060200160405280600081525090565b60405180606001604052806000815260200160008152602001600081525090565b6000604051905090565b600080fd5b600080fd5b600073ffffffffffffffffffffffffffffffffffffffff82169050919050565b6000611a26826119fb565b9050919050565b611a3681611a1b565b8114611a4157600080fd5b50565b600081359050611a5381611a2d565b92915050565b600060208284031215611a6f57611a6e6119f1565b5b6000611a7d84828501611a44565b91505092915050565b60008115159050919050565b611a9b81611a86565b82525050565b6000602082019050611ab66000830184611a92565b92915050565b6000819050919050565b611acf81611abc565b8114611ada57600080fd5b50565b600081359050611aec81611ac6565b92915050565b600060208284031215611b0857611b076119f1565b5b6000611b1684828501611add565b91505092915050565b600081519050919050565b600082825260208201905092915050565b6000819050602082019050919050565b611b5481611abc565b82525050565b6000611b668383611b4b565b60208301905092915050565b6000602082019050919050565b6000611b8a82611b1f565b611b948185611b2a565b9350611b9f83611b3b565b8060005b83811015611bd0578151611bb78882611b5a565b9750611bc283611b72565b925050600181019050611ba3565b5085935050505092915050565b60006020820190508181036000830152611bf78184611b7f565b905092915050565b600080fd5b600060608284031215611c1a57611c19611bff565b5b81905092915050565b600060208284031215611c3957611c386119f1565b5b600082013567ffffffffffffffff811115611c5757611c566119f6565b5b611c6384828501611c04565b91505092915050565b600081519050919050565b600082825260208201905092915050565b60005b83811015611ca6578082015181840152602081019050611c8b565b60008484015250505050565b6000601f19601f8301169050919050565b6000611cce82611c6c565b611cd88185611c77565b9350611ce8818560208601611c88565b611cf181611cb2565b840191505092915050565b60006040820190508181036000830152611d168185611cc3565b90508181036020830152611d2a8184611cc3565b90509392505050565b600082825260208201905092915050565b6000611d4f82611c6c565b611d598185611d33565b9350611d69818560208601611c88565b611d7281611cb2565b840191505092915050565b7f4e487b7100000000000000000000000000000000000000000000000000000000600052602160045260246000fd5b60038110611dbd57611dbc611d7d565b5b50565b6000819050611dce82611dac565b919050565b6000611dde82611dc0565b9050919050565b611dee81611dd3565b82525050565b606082016000820151611e0a6000850182611b4b565b506020820151611e1d6020850182611b4b565b506040820151611e306040850182611b4b565b50505050565b60038110611e4757611e46611d7d565b5b50565b6000819050611e5882611e36565b919050565b6000611e6882611e4a565b9050919050565b611e7881611e5d565b82525050565b600082825260208201905092915050565b6000611e9a82611b1f565b611ea48185611e7e565b9350611eaf83611b3b565b8060005b83811015611ee0578151611ec78882611b5a565b9750611ed283611b72565b925050600181019050611eb3565b5085935050505092915050565b6000610160830160008301518482036000860152611f0b8282611d44565b91505060208301518482036020860152611f258282611d44565b9150506040830151611f3a6040860182611de5565b506060830151611f4d6060860182611df4565b50608083015184820360c0860152611f658282611d44565b91505060a083015184820360e0860152611f7f8282611d44565b91505060c0830151848203610100860152611f9a8282611d44565b91505060e0830151611fb0610120860182611e6f565b50610100830151848203610140860152611fca8282611e8f565b9150508091505092915050565b6000604083016000830151611fef6000860182611b4b565b50602083015184820360208601526120078282611eed565b9150508091505092915050565b6000602082019050818103600083015261202e8184611fd7565b905092915050565b600080fd5b600080fd5b600080fd5b60008083601f84011261205b5761205a612036565b5b8235905067ffffffffffffffff8111156120785761207761203b565b5b60208301915083602082028301111561209457612093612040565b5b9250929050565b600080602083850312156120b2576120b16119f1565b5b600083013567ffffffffffffffff8111156120d0576120cf6119f6565b5b6120dc85828601612045565b92509250509250929050565b600081519050919050565b600082825260208201905092915050565b6000819050602082019050919050565b600060408301600083015161212c6000860182611b4b565b50602083015184820360208601526121448282611eed565b9150508091505092915050565b600061215d8383612114565b905092915050565b6000602082019050919050565b600061217d826120e8565b61218781856120f3565b93508360208202850161219985612104565b8060005b858110156121d557848403895281516121b68582612151565b94506121c183612165565b925060208a0199505060018101905061219d565b50829750879550505050505092915050565b600060208201905081810360008301526122018184612172565b905092915050565b61221281611e5d565b82525050565b600060208201905061222d6000830184612209565b92915050565b61223c81611abc565b82525050565b60006020820190506122576000830184612233565b92915050565b600061016083016000830151848203600086015261227b8282611d44565b915050602083015184820360208601526122958282611d44565b91505060408301516122aa6040860182611de5565b5060608301516122bd6060860182611df4565b50608083015184820360c08601526122d58282611d44565b91505060a083015184820360e08601526122ef8282611d44565b91505060c083015184820361010086015261230a8282611d44565b91505060e0830151612320610120860182611e6f565b5061010083015184820361014086015261233a8282611e8f565b9150508091505092915050565b60006020820190508181036000830152612361818461225d565b905092915050565b61237281611a1b565b82525050565b600060208201905061238d6000830184612369565b92915050565b61239c81611a86565b81146123a757600080fd5b50565b6000815190506123b981612393565b92915050565b6000602082840312156123d5576123d46119f1565b5b60006123e3848285016123aa565b91505092915050565b7f5468652073656e646572206973206e6f742077686974656c6973746564000000600082015250565b6000612422601d83611c77565b915061242d826123ec565b602082019050919050565b6000602082019050818103600083015261245181612415565b9050919050565b600080fd5b7f4e487b7100000000000000000000000000000000000000000000000000000000600052604160045260246000fd5b61249582611cb2565b810181811067ffffffffffffffff821117156124b4576124b361245d565b5b80604052505050565b60006124c76119e7565b90506124d3828261248c565b919050565b600080fd5b6000815190506124ec81611ac6565b92915050565b600080fd5b600067ffffffffffffffff8211156125125761251161245d565b5b61251b82611cb2565b9050602081019050919050565b600061253b612536846124f7565b6124bd565b905082815260208101848484011115612557576125566124f2565b5b612562848285611c88565b509392505050565b600082601f83011261257f5761257e612036565b5b815161258f848260208601612528565b91505092915050565b600381106125a557600080fd5b50565b6000815190506125b781612598565b92915050565b6000606082840312156125d3576125d2612458565b5b6125dd60606124bd565b905060006125ed848285016124dd565b6000830152506020612601848285016124dd565b6020830152506040612615848285016124dd565b60408301525092915050565b6003811061262e57600080fd5b50565b60008151905061264081612621565b92915050565b600067ffffffffffffffff8211156126615761266061245d565b5b602082029050602081019050919050565b600061268561268084612646565b6124bd565b905080838252602082019050602084028301858111156126a8576126a7612040565b5b835b818110156126d157806126bd88826124dd565b8452602084019350506020810190506126aa565b5050509392505050565b600082601f8301126126f0576126ef612036565b5b8151612700848260208601612672565b91505092915050565b600061016082840312156127205761271f612458565b5b61272b6101206124bd565b9050600082015167ffffffffffffffff81111561274b5761274a6124d8565b5b6127578482850161256a565b600083015250602082015167ffffffffffffffff81111561277b5761277a6124d8565b5b6127878482850161256a565b602083015250604061279b848285016125a8565b60408301525060606127af848285016125bd565b60608301525060c082015167ffffffffffffffff8111156127d3576127d26124d8565b5b6127df8482850161256a565b60808301525060e082015167ffffffffffffffff811115612803576128026124d8565b5b61280f8482850161256a565b60a08301525061010082015167ffffffffffffffff811115612834576128336124d8565b5b6128408482850161256a565b60c08301525061012061285584828501612631565b60e08301525061014082015167ffffffffffffffff81111561287a576128796124d8565b5b612886848285016126db565b6101008301525092915050565b6000604082840312156128a9576128a8612458565b5b6128b360406124bd565b905060006128c3848285016124dd565b600083015250602082015167ffffffffffffffff8111156128e7576128e66124d8565b5b6128f384828501612709565b60208301525092915050565b60008060408385031215612916576129156119f1565b5b6000612924858286016123aa565b925050602083015167ffffffffffffffff811115612945576129446119f6565b5b61295185828601612893565b9150509250929050565b600060208284031215612971576129706119f1565b5b600082015167ffffffffffffffff81111561298f5761298e6119f6565b5b61299b84828501612893565b91505092915050565b7f5468652061646472657373206d75737420626520736574000000000000000000600082015250565b60006129da601783611c77565b91506129e5826129a4565b602082019050919050565b60006020820190508181036000830152612a09816129cd565b9050919050565b600080fd5b600080fd5b600080fd5b60008235600161016003833603038112612a3c57612a3b612a10565b5b80830191505092915050565b60008083356001602003843603038112612a6557612a64612a10565b5b80840192508235915067ffffffffffffffff821115612a8757612a86612a15565b5b602083019250600182023603831315612aa357612aa2612a1a565b5b509250929050565b600060608284031215612ac157612ac0612458565b5b612acb60606124bd565b90506000612adb84828501611add565b6000830152506020612aef84828501611add565b6020830152506040612b0384828501611add565b60408301525092915050565b600060608284031215612b2557612b246119f1565b5b6000612b3384828501612aab565b91505092915050565b82818337600083830152505050565b6000612b5e612b59846124f7565b6124bd565b905082815260208101848484011115612b7a57612b796124f2565b5b612b85848285612b3c565b509392505050565b600082601f830112612ba257612ba1612036565b5b8135612bb2848260208601612b4b565b91505092915050565b600081359050612bca81612598565b92915050565b600081359050612bdf81612621565b92915050565b6000612bf8612bf384612646565b6124bd565b90508083825260208201905060208402830185811115612c1b57612c1a612040565b5b835b81811015612c445780612c308882611add565b845260208401935050602081019050612c1d565b5050509392505050565b600082601f830112612c6357612c62612036565b5b8135612c73848260208601612be5565b91505092915050565b60006101608284031215612c9357612c92612458565b5b612c9e6101206124bd565b9050600082013567ffffffffffffffff811115612cbe57612cbd6124d8565b5b612cca84828501612b8d565b600083015250602082013567ffffffffffffffff811115612cee57612ced6124d8565b5b612cfa84828501612b8d565b6020830152506040612d0e84828501612bbb565b6040830152506060612d2284828501612aab565b60608301525060c082013567ffffffffffffffff811115612d4657612d456124d8565b5b612d5284828501612b8d565b60808301525060e082013567ffffffffffffffff811115612d7657612d756124d8565b5b612d8284828501612b8d565b60a08301525061010082013567ffffffffffffffff811115612da757612da66124d8565b5b612db384828501612b8d565b60c083015250610120612dc884828501612bd0565b60e08301525061014082013567ffffffffffffffff811115612ded57612dec6124d8565b5b612df984828501612c4e565b6101008301525092915050565b6000612e123683612c7c565b9050919050565b6000604082019050612e2e6000830185612369565b8181036020830152612e408184611fd7565b90509392505050565b7f4e487b7100000000000000000000000000000000000000000000000000000000600052603260045260246000fd5b7f4e487b7100000000000000000000000000000000000000000000000000000000600052601160045260246000fd5b6000612eb282611abc565b91507fffffffffffffffffffffffffffffffffffffffffffffffffffffffffffffffff8203612ee457612ee3612e78565b5b600182019050919050565b600067ffffffffffffffff821115612f0a57612f0961245d565b5b602082029050602081019050919050565b6000612f2e612f2984612eef565b6124bd565b90508083825260208201905060208402830185811115612f5157612f50612040565b5b835b81811015612f9857805167ffffffffffffffff811115612f7657612f75612036565b5b808601612f838982612893565b85526020850194505050602081019050612f53565b5050509392505050565b600082601f830112612fb757612fb6612036565b5b8151612fc7848260208601612f1b565b91505092915050565b600060208284031215612fe657612fe56119f1565b5b600082015167ffffffffffffffff811115613004576130036119f6565b5b61301084828501612fa2565b91505092915050565b600081905092915050565b600061302f82611c6c565b6130398185613019565b9350613049818560208601611c88565b80840191505092915050565b7f2063616e6e6f7420626520656d70747900000000000000000000000000000000600082015250565b600061308b601083613019565b915061309682613055565b601082019050919050565b60006130ad8284613024565b91506130b88261307e565b915081905092915050565b600060208201905081810360008301526130dd8184611cc3565b905092915050565b7f426972746820796561722076616c75652063616e6e6f7420626520696e20746860008201527f6520667574757265000000000000000000000000000000000000000000000000602082015250565b6000613141602883611c77565b915061314c826130e5565b604082019050919050565b6000602082019050818103600083015261317081613134565b9050919050565b7f4269727468206d6f6e74682076616c7565206d7573742062652062657477656560008201527f6e203120616e6420313200000000000000000000000000000000000000000000602082015250565b60006131d3602a83611c77565b91506131de82613177565b604082019050919050565b60006020820190508181036000830152613202816131c6565b9050919050565b7f4269727468206461792076616c7565206d757374206265206265747765656e2060008201527f3120616e64203331000000000000000000000000000000000000000000000000602082015250565b6000613265602883611c77565b915061327082613209565b604082019050919050565b6000602082019050818103600083015261329481613258565b9050919050565b7f4269727468206d6f6e74682076616c75652063616e6e6f7420626520696e207460008201527f6865206675747572650000000000000000000000000000000000000000000000602082015250565b60006132f7602983611c77565b91506133028261329b565b604082019050919050565b60006020820190508181036000830152613326816132ea565b9050919050565b7f4269727468206461792076616c75652063616e6e6f7420626520696e2074686560008201527f2066757475726500000000000000000000000000000000000000000000000000602082015250565b6000613389602783611c77565b91506133948261332d565b604082019050919050565b600060208201905081810360008301526133b88161337c565b9050919050565b7f4e487b7100000000000000000000000000000000000000000000000000000000600052601260045260246000fdfea26469706673582212200989d88eea9fa384fe49307530bab343d4f33d0ecc3de7ab90a8f26fa7d9852b64736f6c63430008110033",
  "linkReferences": {},
  "deployedLinkReferences": {}
}