{
  "_format": "hh-sol-artifact-1",
  "contractName": "RegistrationStorage",
  "sourceName": "contracts/data/storage/user/RegistrationStorage.sol",
  "abi": [
    {
      "inputs": [
        {
          "internalType": "address",
          "name": "accessWhitelistAddress",
          "type": "address"
        }
      ],
      "stateMutability": "nonpayable",
      "type": "constructor"
    },
    {
      "inputs": [],
      "name": "getAllRegistrations",
      "outputs": [
        {
          "components": [
            {
              "internalType": "address",
              "name": "userAddress",
              "type": "address"
            },
            {
              "internalType": "enum UserDataTypes.RegistrationStatus",
              "name": "status",
              "type": "uint8"
            },
            {
              "components": [
                {
                  "internalType": "string",
                  "name": "firstName",
                  "type": "string"
                },
                {
                  "internalType": "string",
                  "name": "lastName",
                  "type": "string"
                },
                {
                  "internalType": "enum UserDataTypes.Gender",
                  "name": "gender",
                  "type": "uint8"
                },
                {
                  "components": [
                    {
                      "internalType": "uint256",
                      "name": "year",
                      "type": "uint256"
                    },
                    {
                      "internalType": "uint256",
                      "name": "month",
                      "type": "uint256"
                    },
                    {
                      "internalType": "uint256",
                      "name": "day",
                      "type": "uint256"
                    }
                  ],
                  "internalType": "struct UserDataTypes.Date",
                  "name": "dateOfBirth",
                  "type": "tuple"
                },
                {
                  "internalType": "string",
                  "name": "nationality",
                  "type": "string"
                },
                {
                  "internalType": "string",
                  "name": "phoneNumber",
                  "type": "string"
                },
                {
                  "internalType": "string",
                  "name": "emailAddress",
                  "type": "string"
                },
                {
                  "internalType": "enum UserDataTypes.UserRole",
                  "name": "role",
                  "type": "uint8"
                },
                {
                  "internalType": "uint256[]",
                  "name": "studyProgramIds",
                  "type": "uint256[]"
                }
              ],
              "internalType": "struct UserDataTypes.UserProfile",
              "name": "profile",
              "type": "tuple"
            }
          ],
          "internalType": "struct UserDataTypes.Registration[]",
          "name": "",
          "type": "tuple[]"
        }
      ],
      "stateMutability": "view",
      "type": "function"
    },
    {
      "inputs": [
        {
          "internalType": "address",
          "name": "userAddress",
          "type": "address"
        }
      ],
      "name": "getRegistration",
      "outputs": [
        {
          "components": [
            {
              "internalType": "address",
              "name": "userAddress",
              "type": "address"
            },
            {
              "internalType": "enum UserDataTypes.RegistrationStatus",
              "name": "status",
              "type": "uint8"
            },
            {
              "components": [
                {
                  "internalType": "string",
                  "name": "firstName",
                  "type": "string"
                },
                {
                  "internalType": "string",
                  "name": "lastName",
                  "type": "string"
                },
                {
                  "internalType": "enum UserDataTypes.Gender",
                  "name": "gender",
                  "type": "uint8"
                },
                {
                  "components": [
                    {
                      "internalType": "uint256",
                      "name": "year",
                      "type": "uint256"
                    },
                    {
                      "internalType": "uint256",
                      "name": "month",
                      "type": "uint256"
                    },
                    {
                      "internalType": "uint256",
                      "name": "day",
                      "type": "uint256"
                    }
                  ],
                  "internalType": "struct UserDataTypes.Date",
                  "name": "dateOfBirth",
                  "type": "tuple"
                },
                {
                  "internalType": "string",
                  "name": "nationality",
                  "type": "string"
                },
                {
                  "internalType": "string",
                  "name": "phoneNumber",
                  "type": "string"
                },
                {
                  "internalType": "string",
                  "name": "emailAddress",
                  "type": "string"
                },
                {
                  "internalType": "enum UserDataTypes.UserRole",
                  "name": "role",
                  "type": "uint8"
                },
                {
                  "internalType": "uint256[]",
                  "name": "studyProgramIds",
                  "type": "uint256[]"
                }
              ],
              "internalType": "struct UserDataTypes.UserProfile",
              "name": "profile",
              "type": "tuple"
            }
          ],
          "internalType": "struct UserDataTypes.Registration",
          "name": "",
          "type": "tuple"
        }
      ],
      "stateMutability": "view",
      "type": "function"
    },
    {
      "inputs": [
        {
          "internalType": "address",
          "name": "userAddress",
          "type": "address"
        }
      ],
      "name": "getRegistrationIfSet",
      "outputs": [
        {
          "internalType": "bool",
          "name": "",
          "type": "bool"
        },
        {
          "components": [
            {
              "internalType": "address",
              "name": "userAddress",
              "type": "address"
            },
            {
              "internalType": "enum UserDataTypes.RegistrationStatus",
              "name": "status",
              "type": "uint8"
            },
            {
              "components": [
                {
                  "internalType": "string",
                  "name": "firstName",
                  "type": "string"
                },
                {
                  "internalType": "string",
                  "name": "lastName",
                  "type": "string"
                },
                {
                  "internalType": "enum UserDataTypes.Gender",
                  "name": "gender",
                  "type": "uint8"
                },
                {
                  "components": [
                    {
                      "internalType": "uint256",
                      "name": "year",
                      "type": "uint256"
                    },
                    {
                      "internalType": "uint256",
                      "name": "month",
                      "type": "uint256"
                    },
                    {
                      "internalType": "uint256",
                      "name": "day",
                      "type": "uint256"
                    }
                  ],
                  "internalType": "struct UserDataTypes.Date",
                  "name": "dateOfBirth",
                  "type": "tuple"
                },
                {
                  "internalType": "string",
                  "name": "nationality",
                  "type": "string"
                },
                {
                  "internalType": "string",
                  "name": "phoneNumber",
                  "type": "string"
                },
                {
                  "internalType": "string",
                  "name": "emailAddress",
                  "type": "string"
                },
                {
                  "internalType": "enum UserDataTypes.UserRole",
                  "name": "role",
                  "type": "uint8"
                },
                {
                  "internalType": "uint256[]",
                  "name": "studyProgramIds",
                  "type": "uint256[]"
                }
              ],
              "internalType": "struct UserDataTypes.UserProfile",
              "name": "profile",
              "type": "tuple"
            }
          ],
          "internalType": "struct UserDataTypes.Registration",
          "name": "",
          "type": "tuple"
        }
      ],
      "stateMutability": "view",
      "type": "function"
    },
    {
      "inputs": [
        {
          "internalType": "address",
          "name": "userAddress",
          "type": "address"
        }
      ],
      "name": "removeRegistration",
      "outputs": [],
      "stateMutability": "nonpayable",
      "type": "function"
    },
    {
      "inputs": [
        {
          "components": [
            {
              "internalType": "address",
              "name": "userAddress",
              "type": "address"
            },
            {
              "internalType": "enum UserDataTypes.RegistrationStatus",
              "name": "status",
              "type": "uint8"
            },
            {
              "components": [
                {
                  "internalType": "string",
                  "name": "firstName",
                  "type": "string"
                },
                {
                  "internalType": "string",
                  "name": "lastName",
                  "type": "string"
                },
                {
                  "internalType": "enum UserDataTypes.Gender",
                  "name": "gender",
                  "type": "uint8"
                },
                {
                  "components": [
                    {
                      "internalType": "uint256",
                      "name": "year",
                      "type": "uint256"
                    },
                    {
                      "internalType": "uint256",
                      "name": "month",
                      "type": "uint256"
                    },
                    {
                      "internalType": "uint256",
                      "name": "day",
                      "type": "uint256"
                    }
                  ],
                  "internalType": "struct UserDataTypes.Date",
                  "name": "dateOfBirth",
                  "type": "tuple"
                },
                {
                  "internalType": "string",
                  "name": "nationality",
                  "type": "string"
                },
                {
                  "internalType": "string",
                  "name": "phoneNumber",
                  "type": "string"
                },
                {
                  "internalType": "string",
                  "name": "emailAddress",
                  "type": "string"
                },
                {
                  "internalType": "enum UserDataTypes.UserRole",
                  "name": "role",
                  "type": "uint8"
                },
                {
                  "internalType": "uint256[]",
                  "name": "studyProgramIds",
                  "type": "uint256[]"
                }
              ],
              "internalType": "struct UserDataTypes.UserProfile",
              "name": "profile",
              "type": "tuple"
            }
          ],
          "internalType": "struct UserDataTypes.Registration",
          "name": "registration",
          "type": "tuple"
        }
      ],
      "name": "storeRegistration",
      "outputs": [],
      "stateMutability": "nonpayable",
      "type": "function"
    },
    {
      "inputs": [
        {
          "components": [
            {
              "internalType": "address",
              "name": "userAddress",
              "type": "address"
            },
            {
              "internalType": "enum UserDataTypes.RegistrationStatus",
              "name": "status",
              "type": "uint8"
            },
            {
              "components": [
                {
                  "internalType": "string",
                  "name": "firstName",
                  "type": "string"
                },
                {
                  "internalType": "string",
                  "name": "lastName",
                  "type": "string"
                },
                {
                  "internalType": "enum UserDataTypes.Gender",
                  "name": "gender",
                  "type": "uint8"
                },
                {
                  "components": [
                    {
                      "internalType": "uint256",
                      "name": "year",
                      "type": "uint256"
                    },
                    {
                      "internalType": "uint256",
                      "name": "month",
                      "type": "uint256"
                    },
                    {
                      "internalType": "uint256",
                      "name": "day",
                      "type": "uint256"
                    }
                  ],
                  "internalType": "struct UserDataTypes.Date",
                  "name": "dateOfBirth",
                  "type": "tuple"
                },
                {
                  "internalType": "string",
                  "name": "nationality",
                  "type": "string"
                },
                {
                  "internalType": "string",
                  "name": "phoneNumber",
                  "type": "string"
                },
                {
                  "internalType": "string",
                  "name": "emailAddress",
                  "type": "string"
                },
                {
                  "internalType": "enum UserDataTypes.UserRole",
                  "name": "role",
                  "type": "uint8"
                },
                {
                  "internalType": "uint256[]",
                  "name": "studyProgramIds",
                  "type": "uint256[]"
                }
              ],
              "internalType": "struct UserDataTypes.UserProfile",
              "name": "profile",
              "type": "tuple"
            }
          ],
          "internalType": "struct UserDataTypes.Registration",
          "name": "registration",
          "type": "tuple"
        }
      ],
      "name": "updateRegistration",
      "outputs": [],
      "stateMutability": "nonpayable",
      "type": "function"
    }
  ],
  "bytecode": "0x60806040523480156200001157600080fd5b5060405162003628380380620036288339818101604052810190620000379190620000ec565b8080806000806101000a81548173ffffffffffffffffffffffffffffffffffffffff021916908373ffffffffffffffffffffffffffffffffffffffff1602179055505050506200011e565b600080fd5b600073ffffffffffffffffffffffffffffffffffffffff82169050919050565b6000620000b48262000087565b9050919050565b620000c681620000a7565b8114620000d257600080fd5b50565b600081519050620000e681620000bb565b92915050565b60006020828403121562000105576200010462000082565b5b60006200011584828501620000d5565b91505092915050565b6134fa806200012e6000396000f3fe608060405234801561001057600080fd5b50600436106100625760003560e01c80630c38af4a14610067578063153cb081146100855780632bb9e936146100a157806372731062146100bd578063e42c35de146100ed578063f698c11314610109575b600080fd5b61006f61013a565b60405161007c91906124b9565b60405180910390f35b61009f600480360381019061009a9190612509565b6107c1565b005b6100bb60048036038101906100b6919061257e565b6109b1565b005b6100d760048036038101906100d2919061257e565b610c64565b6040516100e491906125fb565b60405180910390f35b61010760048036038101906101029190612509565b6112b7565b005b610123600480360381019061011e919061257e565b61151c565b604051610131929190612638565b60405180910390f35b606060008054906101000a900473ffffffffffffffffffffffffffffffffffffffff1673ffffffffffffffffffffffffffffffffffffffff166313f44d10336040518263ffffffff1660e01b81526004016101959190612677565b602060405180830381865afa1580156101b2573d6000803e3d6000fd5b505050506040513d601f19601f820116820180604052508101906101d691906126be565b610215576040517f08c379a000000000000000000000000000000000000000000000000000000000815260040161020c90612748565b60405180910390fd5b600060028054905067ffffffffffffffff81111561023657610235612768565b5b60405190808252806020026020018201604052801561026f57816020015b61025c611e77565b8152602001906001900390816102545790505b50905060005b6002805490508110156107b957600160006002838154811061029a57610299612797565b5b9060005260206000200160009054906101000a900473ffffffffffffffffffffffffffffffffffffffff1673ffffffffffffffffffffffffffffffffffffffff1673ffffffffffffffffffffffffffffffffffffffff1681526020019081526020016000206040518060600160405290816000820160009054906101000a900473ffffffffffffffffffffffffffffffffffffffff1673ffffffffffffffffffffffffffffffffffffffff1673ffffffffffffffffffffffffffffffffffffffff1681526020016000820160149054906101000a900460ff16600281111561038557610384612048565b5b600281111561039757610396612048565b5b815260200160018201604051806101200160405290816000820180546103bc906127f5565b80601f01602080910402602001604051908101604052809291908181526020018280546103e8906127f5565b80156104355780601f1061040a57610100808354040283529160200191610435565b820191906000526020600020905b81548152906001019060200180831161041857829003601f168201915b5050505050815260200160018201805461044e906127f5565b80601f016020809104026020016040519081016040528092919081815260200182805461047a906127f5565b80156104c75780601f1061049c576101008083540402835291602001916104c7565b820191906000526020600020905b8154815290600101906020018083116104aa57829003601f168201915b505050505081526020016002820160009054906101000a900460ff1660028111156104f5576104f4612048565b5b600281111561050757610506612048565b5b8152602001600382016040518060600160405290816000820154815260200160018201548152602001600282015481525050815260200160068201805461054d906127f5565b80601f0160208091040260200160405190810160405280929190818152602001828054610579906127f5565b80156105c65780601f1061059b576101008083540402835291602001916105c6565b820191906000526020600020905b8154815290600101906020018083116105a957829003601f168201915b505050505081526020016007820180546105df906127f5565b80601f016020809104026020016040519081016040528092919081815260200182805461060b906127f5565b80156106585780601f1061062d57610100808354040283529160200191610658565b820191906000526020600020905b81548152906001019060200180831161063b57829003601f168201915b50505050508152602001600882018054610671906127f5565b80601f016020809104026020016040519081016040528092919081815260200182805461069d906127f5565b80156106ea5780601f106106bf576101008083540402835291602001916106ea565b820191906000526020600020905b8154815290600101906020018083116106cd57829003601f168201915b505050505081526020016009820160009054906101000a900460ff16600281111561071857610717612048565b5b600281111561072a57610729612048565b5b8152602001600a820180548060200260200160405190810160405280929190818152602001828054801561077d57602002820191906000526020600020905b815481526020019060010190808311610769575b5050505050815250508152505082828151811061079d5761079c612797565b5b6020026020010181905250806107b290612855565b9050610275565b508091505090565b60008054906101000a900473ffffffffffffffffffffffffffffffffffffffff1673ffffffffffffffffffffffffffffffffffffffff166313f44d10336040518263ffffffff1660e01b815260040161081a9190612677565b602060405180830381865afa158015610837573d6000803e3d6000fd5b505050506040513d601f19601f8201168201806040525081019061085b91906126be565b61089a576040517f08c379a000000000000000000000000000000000000000000000000000000000815260040161089190612748565b60405180910390fd5b61094d600160008360000160208101906108b4919061257e565b73ffffffffffffffffffffffffffffffffffffffff1673ffffffffffffffffffffffffffffffffffffffff16815260200190815260200160002060000160009054906101000a900473ffffffffffffffffffffffffffffffffffffffff166040518060400160405280600c81526020017f526567697374726174696f6e0000000000000000000000000000000000000000815250611afa565b8060016000836000016020810190610965919061257e565b73ffffffffffffffffffffffffffffffffffffffff1673ffffffffffffffffffffffffffffffffffffffff16815260200190815260200160002081816109ab91906132ac565b90505050565b60008054906101000a900473ffffffffffffffffffffffffffffffffffffffff1673ffffffffffffffffffffffffffffffffffffffff166313f44d10336040518263ffffffff1660e01b8152600401610a0a9190612677565b602060405180830381865afa158015610a27573d6000803e3d6000fd5b505050506040513d601f19601f82011682018060405250810190610a4b91906126be565b610a8a576040517f08c379a0000000000000000000000000000000000000000000000000000000008152600401610a8190612748565b60405180910390fd5b610b2b600160008373ffffffffffffffffffffffffffffffffffffffff1673ffffffffffffffffffffffffffffffffffffffff16815260200190815260200160002060000160009054906101000a900473ffffffffffffffffffffffffffffffffffffffff166040518060400160405280600c81526020017f526567697374726174696f6e0000000000000000000000000000000000000000815250611afa565b600160008273ffffffffffffffffffffffffffffffffffffffff1673ffffffffffffffffffffffffffffffffffffffff168152602001908152602001600020600080820160006101000a81549073ffffffffffffffffffffffffffffffffffffffff02191690556000820160146101000a81549060ff02191690556001820160008082016000610bbb9190611ec6565b600182016000610bcb9190611ec6565b6002820160006101000a81549060ff021916905560038201600080820160009055600182016000905560028201600090555050600682016000610c0e9190611ec6565b600782016000610c1e9190611ec6565b600882016000610c2e9190611ec6565b6009820160006101000a81549060ff0219169055600a82016000610c529190611f06565b50505050610c61816002611b69565b50565b610c6c611e77565b60008054906101000a900473ffffffffffffffffffffffffffffffffffffffff1673ffffffffffffffffffffffffffffffffffffffff166313f44d10336040518263ffffffff1660e01b8152600401610cc59190612677565b602060405180830381865afa158015610ce2573d6000803e3d6000fd5b505050506040513d601f19601f82011682018060405250810190610d0691906126be565b610d45576040517f08c379a0000000000000000000000000000000000000000000000000000000008152600401610d3c90612748565b60405180910390fd5b610de6600160008473ffffffffffffffffffffffffffffffffffffffff1673ffffffffffffffffffffffffffffffffffffffff16815260200190815260200160002060000160009054906101000a900473ffffffffffffffffffffffffffffffffffffffff166040518060400160405280600c81526020017f526567697374726174696f6e0000000000000000000000000000000000000000815250611afa565b600160008373ffffffffffffffffffffffffffffffffffffffff1673ffffffffffffffffffffffffffffffffffffffff1681526020019081526020016000206040518060600160405290816000820160009054906101000a900473ffffffffffffffffffffffffffffffffffffffff1673ffffffffffffffffffffffffffffffffffffffff1673ffffffffffffffffffffffffffffffffffffffff1681526020016000820160149054906101000a900460ff166002811115610eab57610eaa612048565b5b6002811115610ebd57610ebc612048565b5b81526020016001820160405180610120016040529081600082018054610ee2906127f5565b80601f0160208091040260200160405190810160405280929190818152602001828054610f0e906127f5565b8015610f5b5780601f10610f3057610100808354040283529160200191610f5b565b820191906000526020600020905b815481529060010190602001808311610f3e57829003601f168201915b50505050508152602001600182018054610f74906127f5565b80601f0160208091040260200160405190810160405280929190818152602001828054610fa0906127f5565b8015610fed5780601f10610fc257610100808354040283529160200191610fed565b820191906000526020600020905b815481529060010190602001808311610fd057829003601f168201915b505050505081526020016002820160009054906101000a900460ff16600281111561101b5761101a612048565b5b600281111561102d5761102c612048565b5b81526020016003820160405180606001604052908160008201548152602001600182015481526020016002820154815250508152602001600682018054611073906127f5565b80601f016020809104026020016040519081016040528092919081815260200182805461109f906127f5565b80156110ec5780601f106110c1576101008083540402835291602001916110ec565b820191906000526020600020905b8154815290600101906020018083116110cf57829003601f168201915b50505050508152602001600782018054611105906127f5565b80601f0160208091040260200160405190810160405280929190818152602001828054611131906127f5565b801561117e5780601f106111535761010080835404028352916020019161117e565b820191906000526020600020905b81548152906001019060200180831161116157829003601f168201915b50505050508152602001600882018054611197906127f5565b80601f01602080910402602001604051908101604052809291908181526020018280546111c3906127f5565b80156112105780601f106111e557610100808354040283529160200191611210565b820191906000526020600020905b8154815290600101906020018083116111f357829003601f168201915b505050505081526020016009820160009054906101000a900460ff16600281111561123e5761123d612048565b5b60028111156112505761124f612048565b5b8152602001600a82018054806020026020016040519081016040528092919081815260200182805480156112a357602002820191906000526020600020905b81548152602001906001019080831161128f575b505050505081525050815250509050919050565b60008054906101000a900473ffffffffffffffffffffffffffffffffffffffff1673ffffffffffffffffffffffffffffffffffffffff166313f44d10336040518263ffffffff1660e01b81526004016113109190612677565b602060405180830381865afa15801561132d573d6000803e3d6000fd5b505050506040513d601f19601f8201168201806040525081019061135191906126be565b611390576040517f08c379a000000000000000000000000000000000000000000000000000000000815260040161138790612748565b60405180910390fd5b611443600160008360000160208101906113aa919061257e565b73ffffffffffffffffffffffffffffffffffffffff1673ffffffffffffffffffffffffffffffffffffffff16815260200190815260200160002060000160009054906101000a900473ffffffffffffffffffffffffffffffffffffffff166040518060400160405280600c81526020017f526567697374726174696f6e0000000000000000000000000000000000000000815250611d2b565b806001600083600001602081019061145b919061257e565b73ffffffffffffffffffffffffffffffffffffffff1673ffffffffffffffffffffffffffffffffffffffff16815260200190815260200160002081816114a191906132ac565b90505060028160000160208101906114b9919061257e565b9080600181540180825580915050600190039060005260206000200160009091909190916101000a81548173ffffffffffffffffffffffffffffffffffffffff021916908373ffffffffffffffffffffffffffffffffffffffff16021790555050565b6000611526611e77565b60008054906101000a900473ffffffffffffffffffffffffffffffffffffffff1673ffffffffffffffffffffffffffffffffffffffff166313f44d10336040518263ffffffff1660e01b815260040161157f9190612677565b602060405180830381865afa15801561159c573d6000803e3d6000fd5b505050506040513d601f19601f820116820180604052508101906115c091906126be565b6115ff576040517f08c379a00000000000000000000000000000000000000000000000000000000081526004016115f690612748565b60405180910390fd5b6000600160008573ffffffffffffffffffffffffffffffffffffffff1673ffffffffffffffffffffffffffffffffffffffff1681526020019081526020016000206040518060600160405290816000820160009054906101000a900473ffffffffffffffffffffffffffffffffffffffff1673ffffffffffffffffffffffffffffffffffffffff1673ffffffffffffffffffffffffffffffffffffffff1681526020016000820160149054906101000a900460ff1660028111156116c6576116c5612048565b5b60028111156116d8576116d7612048565b5b815260200160018201604051806101200160405290816000820180546116fd906127f5565b80601f0160208091040260200160405190810160405280929190818152602001828054611729906127f5565b80156117765780601f1061174b57610100808354040283529160200191611776565b820191906000526020600020905b81548152906001019060200180831161175957829003601f168201915b5050505050815260200160018201805461178f906127f5565b80601f01602080910402602001604051908101604052809291908181526020018280546117bb906127f5565b80156118085780601f106117dd57610100808354040283529160200191611808565b820191906000526020600020905b8154815290600101906020018083116117eb57829003601f168201915b505050505081526020016002820160009054906101000a900460ff16600281111561183657611835612048565b5b600281111561184857611847612048565b5b8152602001600382016040518060600160405290816000820154815260200160018201548152602001600282015481525050815260200160068201805461188e906127f5565b80601f01602080910402602001604051908101604052809291908181526020018280546118ba906127f5565b80156119075780601f106118dc57610100808354040283529160200191611907565b820191906000526020600020905b8154815290600101906020018083116118ea57829003601f168201915b50505050508152602001600782018054611920906127f5565b80601f016020809104026020016040519081016040528092919081815260200182805461194c906127f5565b80156119995780601f1061196e57610100808354040283529160200191611999565b820191906000526020600020905b81548152906001019060200180831161197c57829003601f168201915b505050505081526020016008820180546119b2906127f5565b80601f01602080910402602001604051908101604052809291908181526020018280546119de906127f5565b8015611a2b5780601f10611a0057610100808354040283529160200191611a2b565b820191906000526020600020905b815481529060010190602001808311611a0e57829003601f168201915b505050505081526020016009820160009054906101000a900460ff166002811115611a5957611a58612048565b5b6002811115611a6b57611a6a612048565b5b8152602001600a8201805480602002602001604051908101604052809291908181526020018280548015611abe57602002820191906000526020600020905b815481526020019060010190808311611aaa575b505050505081525050815250509050611ada8160000151611d9b565b15611aec576001819250925050611af5565b60008192509250505b915091565b611b0382611d9b565b81604051602001611b149190613342565b60405160208183030381529060405290611b64576040517f08c379a0000000000000000000000000000000000000000000000000000000008152600401611b5b919061339d565b60405180910390fd5b505050565b6000611bfa8383805480602002602001604051908101604052809291908181526020018280548015611bf057602002820191906000526020600020905b8160009054906101000a900473ffffffffffffffffffffffffffffffffffffffff1673ffffffffffffffffffffffffffffffffffffffff1681526020019060010190808311611ba6575b5050505050611dd4565b905060008112611d2657600081905060008190505b60018480549050611c2091906133bf565b811015611cdd5783600182611c3591906133f3565b81548110611c4657611c45612797565b5b9060005260206000200160009054906101000a900473ffffffffffffffffffffffffffffffffffffffff16848281548110611c8457611c83612797565b5b9060005260206000200160006101000a81548173ffffffffffffffffffffffffffffffffffffffff021916908373ffffffffffffffffffffffffffffffffffffffff16021790555080611cd690612855565b9050611c0f565b5082805480611cef57611cee613427565b5b6001900381819060005260206000200160006101000a81549073ffffffffffffffffffffffffffffffffffffffff02191690559055505b505050565b611d3482611d9b565b1581604051602001611d4691906134a2565b60405160208183030381529060405290611d96576040517f08c379a0000000000000000000000000000000000000000000000000000000008152600401611d8d919061339d565b60405180910390fd5b505050565b60008073ffffffffffffffffffffffffffffffffffffffff168273ffffffffffffffffffffffffffffffffffffffff1614159050919050565b600080600090505b8251811015611e4c578373ffffffffffffffffffffffffffffffffffffffff16838281518110611e0f57611e0e612797565b5b602002602001015173ffffffffffffffffffffffffffffffffffffffff1603611e3b5780915050611e71565b80611e4590612855565b9050611ddc565b507fffffffffffffffffffffffffffffffffffffffffffffffffffffffffffffffff90505b92915050565b6040518060600160405280600073ffffffffffffffffffffffffffffffffffffffff16815260200160006002811115611eb357611eb2612048565b5b8152602001611ec0611f27565b81525090565b508054611ed2906127f5565b6000825580601f10611ee45750611f03565b601f016020900490600052602060002090810190611f029190611f9d565b5b50565b5080546000825590600052602060002090810190611f249190611f9d565b50565b604051806101200160405280606081526020016060815260200160006002811115611f5557611f54612048565b5b8152602001611f62611fba565b815260200160608152602001606081526020016060815260200160006002811115611f9057611f8f612048565b5b8152602001606081525090565b5b80821115611fb6576000816000905550600101611f9e565b5090565b60405180606001604052806000815260200160008152602001600081525090565b600081519050919050565b600082825260208201905092915050565b6000819050602082019050919050565b600073ffffffffffffffffffffffffffffffffffffffff82169050919050565b600061203282612007565b9050919050565b61204281612027565b82525050565b7f4e487b7100000000000000000000000000000000000000000000000000000000600052602160045260246000fd5b6003811061208857612087612048565b5b50565b600081905061209982612077565b919050565b60006120a98261208b565b9050919050565b6120b98161209e565b82525050565b600081519050919050565b600082825260208201905092915050565b60005b838110156120f95780820151818401526020810190506120de565b60008484015250505050565b6000601f19601f8301169050919050565b6000612121826120bf565b61212b81856120ca565b935061213b8185602086016120db565b61214481612105565b840191505092915050565b600381106121605761215f612048565b5b50565b60008190506121718261214f565b919050565b600061218182612163565b9050919050565b61219181612176565b82525050565b6000819050919050565b6121aa81612197565b82525050565b6060820160008201516121c660008501826121a1565b5060208201516121d960208501826121a1565b5060408201516121ec60408501826121a1565b50505050565b6003811061220357612202612048565b5b50565b6000819050612214826121f2565b919050565b600061222482612206565b9050919050565b61223481612219565b82525050565b600081519050919050565b600082825260208201905092915050565b6000819050602082019050919050565b600061227283836121a1565b60208301905092915050565b6000602082019050919050565b60006122968261223a565b6122a08185612245565b93506122ab83612256565b8060005b838110156122dc5781516122c38882612266565b97506122ce8361227e565b9250506001810190506122af565b5085935050505092915050565b60006101608301600083015184820360008601526123078282612116565b915050602083015184820360208601526123218282612116565b91505060408301516123366040860182612188565b50606083015161234960608601826121b0565b50608083015184820360c08601526123618282612116565b91505060a083015184820360e086015261237b8282612116565b91505060c08301518482036101008601526123968282612116565b91505060e08301516123ac61012086018261222b565b506101008301518482036101408601526123c6828261228b565b9150508091505092915050565b60006060830160008301516123eb6000860182612039565b5060208301516123fe60208601826120b0565b506040830151848203604086015261241682826122e9565b9150508091505092915050565b600061242f83836123d3565b905092915050565b6000602082019050919050565b600061244f82611fdb565b6124598185611fe6565b93508360208202850161246b85611ff7565b8060005b858110156124a757848403895281516124888582612423565b945061249383612437565b925060208a0199505060018101905061246f565b50829750879550505050505092915050565b600060208201905081810360008301526124d38184612444565b905092915050565b600080fd5b600080fd5b600080fd5b600060608284031215612500576124ff6124e5565b5b81905092915050565b60006020828403121561251f5761251e6124db565b5b600082013567ffffffffffffffff81111561253d5761253c6124e0565b5b612549848285016124ea565b91505092915050565b61255b81612027565b811461256657600080fd5b50565b60008135905061257881612552565b92915050565b600060208284031215612594576125936124db565b5b60006125a284828501612569565b91505092915050565b60006060830160008301516125c36000860182612039565b5060208301516125d660208601826120b0565b50604083015184820360408601526125ee82826122e9565b9150508091505092915050565b6000602082019050818103600083015261261581846125ab565b905092915050565b60008115159050919050565b6126328161261d565b82525050565b600060408201905061264d6000830185612629565b818103602083015261265f81846125ab565b90509392505050565b61267181612027565b82525050565b600060208201905061268c6000830184612668565b92915050565b61269b8161261d565b81146126a657600080fd5b50565b6000815190506126b881612692565b92915050565b6000602082840312156126d4576126d36124db565b5b60006126e2848285016126a9565b91505092915050565b600082825260208201905092915050565b7f5468652073656e646572206973206e6f742077686974656c6973746564000000600082015250565b6000612732601d836126eb565b915061273d826126fc565b602082019050919050565b6000602082019050818103600083015261276181612725565b9050919050565b7f4e487b7100000000000000000000000000000000000000000000000000000000600052604160045260246000fd5b7f4e487b7100000000000000000000000000000000000000000000000000000000600052603260045260246000fd5b7f4e487b7100000000000000000000000000000000000000000000000000000000600052602260045260246000fd5b6000600282049050600182168061280d57607f821691505b6020821081036128205761281f6127c6565b5b50919050565b7f4e487b7100000000000000000000000000000000000000000000000000000000600052601160045260246000fd5b600061286082612197565b91507fffffffffffffffffffffffffffffffffffffffffffffffffffffffffffffffff820361289257612891612826565b5b600182019050919050565b600081356128aa81612552565b80915050919050565b60008160001b9050919050565b600073ffffffffffffffffffffffffffffffffffffffff6128e0846128b3565b9350801983169250808416831791505092915050565b6000819050919050565b600061291b61291661291184612007565b6128f6565b612007565b9050919050565b600061292d82612900565b9050919050565b600061293f82612922565b9050919050565b6000819050919050565b61295982612934565b61296c61296582612946565b83546128c0565b8255505050565b6003811061298057600080fd5b50565b6000813561299081612973565b80915050919050565b60008160a01b9050919050565b600074ff00000000000000000000000000000000000000006129c784612999565b9350801983169250808416831791505092915050565b60006129e88261208b565b9050919050565b6000819050919050565b612a02826129dd565b612a15612a0e826129ef565b83546129a6565b8255505050565b600080fd5b600080fd5b600080fd5b60008235600161016003833603038112612a4857612a47612a1c565b5b80830191505092915050565b60008083356001602003843603038112612a7157612a70612a1c565b5b80840192508235915067ffffffffffffffff821115612a9357612a92612a21565b5b602083019250600182023603831315612aaf57612aae612a26565b5b509250929050565b600082905092915050565b60008190508160005260206000209050919050565b60006020601f8301049050919050565b600082821b905092915050565b600060088302612b247fffffffffffffffffffffffffffffffffffffffffffffffffffffffffffffffff82612ae7565b612b2e8683612ae7565b95508019841693508086168417925050509392505050565b6000612b61612b5c612b5784612197565b6128f6565b612197565b9050919050565b6000819050919050565b612b7b83612b46565b612b8f612b8782612b68565b848454612af4565b825550505050565b600090565b612ba4612b97565b612baf818484612b72565b505050565b5b81811015612bd357612bc8600082612b9c565b600181019050612bb5565b5050565b601f821115612c1857612be981612ac2565b612bf284612ad7565b81016020851015612c01578190505b612c15612c0d85612ad7565b830182612bb4565b50505b505050565b600082821c905092915050565b6000612c3b60001984600802612c1d565b1980831691505092915050565b6000612c548383612c2a565b9150826002028217905092915050565b612c6e8383612ab7565b67ffffffffffffffff811115612c8757612c86612768565b5b612c9182546127f5565b612c9c828285612bd7565b6000601f831160018114612ccb5760008415612cb9578287013590505b612cc38582612c48565b865550612d2b565b601f198416612cd986612ac2565b60005b82811015612d0157848901358255600182019150602085019450602081019050612cdc565b86831015612d1e5784890135612d1a601f891682612c2a565b8355505b6001600288020188555050505b50505050505050565b612d3f838383612c64565b505050565b60038110612d5157600080fd5b50565b60008135612d6181612d44565b80915050919050565b600060ff612d77846128b3565b9350801983169250808416831791505092915050565b6000612d9882612163565b9050919050565b6000819050919050565b612db282612d8d565b612dc5612dbe82612d9f565b8354612d6a565b8255505050565b612dd581612197565b8114612de057600080fd5b50565b60008135612df081612dcc565b80915050919050565b60007fffffffffffffffffffffffffffffffffffffffffffffffffffffffffffffffff612e25846128b3565b9350801983169250808416831791505092915050565b612e4482612b46565b612e57612e5082612b68565b8354612df9565b8255505050565b600081016000830180612e7081612de3565b9050612e7c8184612e3b565b505050600181016020830180612e9181612de3565b9050612e9d8184612e3b565b505050600281016040830180612eb281612de3565b9050612ebe8184612e3b565b5050505050565b612ecf8282612e5e565b5050565b60038110612ee057600080fd5b50565b60008135612ef081612ed3565b80915050919050565b6000612f0482612206565b9050919050565b6000819050919050565b612f1e82612ef9565b612f31612f2a82612f0b565b8354612d6a565b8255505050565b60008083356001602003843603038112612f5557612f54612a1c565b5b80840192508235915067ffffffffffffffff821115612f7757612f76612a21565b5b602083019250602082023603831315612f9357612f92612a26565b5b509250929050565b600081549050919050565b60008190506001806001038301049050919050565b60008190508160005260206000209050919050565b5b81811015612fef57612fe4600082612b9c565b600181019050612fd1565b5050565b8183101561302c5761300482612fa6565b61300d84612fa6565b61301683612fbb565b8181018382016130268183612fd0565b50505050505b505050565b6801000000000000000082111561304b5761304a612768565b5b61305481612f9b565b828255613062838284612ff3565b505050565b600082905092915050565b6000819050919050565b6130868383613067565b67ffffffffffffffff81111561309f5761309e612768565b5b6130a98183613031565b6130b283613072565b6130bb83612fbb565b6001830460005b818110156130fa5760006130d585612de3565b6130de81612b68565b80925060208701965050508082850155506001810190506130c2565b5050505050505050565b61310f83838361307c565b505050565b60008101600083016131268185612a54565b613131818386612d34565b5050505060018101602083016131478185612a54565b613152818386612d34565b5050505060028101604083018061316881612d54565b90506131748184612da9565b50505060038101606083018061318a8184612ec5565b5050506006810160c0830161319f8185612a54565b6131aa818386612d34565b505050506007810160e083016131c08185612a54565b6131cb818386612d34565b505050506008810161010083016131e28185612a54565b6131ed818386612d34565b505050506009810161012083018061320481612ee3565b90506132108184612f15565b505050600a810161014083016132268185612f38565b613231818386613104565b505050505050565b6132438282613114565b5050565b6000810160008301806132598161289d565b90506132658184612950565b50505060008101602083018061327a81612983565b905061328681846129f9565b505050600181016040830161329b8185612a2b565b6132a58184613239565b5050505050565b6132b68282613247565b5050565b600081905092915050565b60006132d0826120bf565b6132da81856132ba565b93506132ea8185602086016120db565b80840191505092915050565b7f20646f6573206e6f7420657869737420617420676976656e2061646472657373600082015250565b600061332c6020836132ba565b9150613337826132f6565b602082019050919050565b600061334e82846132c5565b91506133598261331f565b915081905092915050565b600061336f826120bf565b61337981856126eb565b93506133898185602086016120db565b61339281612105565b840191505092915050565b600060208201905081810360008301526133b78184613364565b905092915050565b60006133ca82612197565b91506133d583612197565b92508282039050818111156133ed576133ec612826565b5b92915050565b60006133fe82612197565b915061340983612197565b925082820190508082111561342157613420612826565b5b92915050565b7f4e487b7100000000000000000000000000000000000000000000000000000000600052603160045260246000fd5b7f20616c72656164792065786973747320617420676976656e2061646472657373600082015250565b600061348c6020836132ba565b915061349782613456565b602082019050919050565b60006134ae82846132c5565b91506134b98261347f565b91508190509291505056fea2646970667358221220aa276fbbb2add1166053629b37e03201ce9eeb264371478f15756ff5933aae4564736f6c63430008110033",
  "linkReferences": {},
  "deployedLinkReferences": {}
}