{
  "_format": "hh-sol-artifact-1",
  "contractName": "RegistrationStorage",
  "sourceName": "contracts/data/storage/user/RegistrationStorage.sol",
  "abi": [
    {
      "inputs": [
        {
          "internalType": "address",
          "name": "accessWhitelistAddress",
          "type": "address"
        }
      ],
      "stateMutability": "nonpayable",
      "type": "constructor"
    },
    {
      "inputs": [],
      "name": "getAllRegistrations",
      "outputs": [
        {
          "components": [
            {
              "internalType": "address",
              "name": "userAddress",
              "type": "address"
            },
            {
              "internalType": "enum UserDataTypes.RegistrationStatus",
              "name": "status",
              "type": "uint8"
            },
            {
              "components": [
                {
                  "internalType": "string",
                  "name": "firstName",
                  "type": "string"
                },
                {
                  "internalType": "string",
                  "name": "lastName",
                  "type": "string"
                },
                {
                  "internalType": "enum UserDataTypes.Gender",
                  "name": "gender",
                  "type": "uint8"
                },
                {
                  "components": [
                    {
                      "internalType": "uint256",
                      "name": "year",
                      "type": "uint256"
                    },
                    {
                      "internalType": "uint256",
                      "name": "month",
                      "type": "uint256"
                    },
                    {
                      "internalType": "uint256",
                      "name": "day",
                      "type": "uint256"
                    }
                  ],
                  "internalType": "struct UserDataTypes.Date",
                  "name": "dateOfBirth",
                  "type": "tuple"
                },
                {
                  "internalType": "string",
                  "name": "nationality",
                  "type": "string"
                },
                {
                  "internalType": "string",
                  "name": "phoneNumber",
                  "type": "string"
                },
                {
                  "internalType": "string",
                  "name": "emailAddress",
                  "type": "string"
                },
                {
                  "internalType": "enum UserDataTypes.UserRole",
                  "name": "role",
                  "type": "uint8"
                },
                {
                  "internalType": "uint256[]",
                  "name": "studyProgramIds",
                  "type": "uint256[]"
                }
              ],
              "internalType": "struct UserDataTypes.UserProfile",
              "name": "profile",
              "type": "tuple"
            }
          ],
          "internalType": "struct UserDataTypes.Registration[]",
          "name": "",
          "type": "tuple[]"
        }
      ],
      "stateMutability": "view",
      "type": "function"
    },
    {
      "inputs": [
        {
          "internalType": "address",
          "name": "userAddress",
          "type": "address"
        }
      ],
      "name": "getRegistration",
      "outputs": [
        {
          "components": [
            {
              "internalType": "address",
              "name": "userAddress",
              "type": "address"
            },
            {
              "internalType": "enum UserDataTypes.RegistrationStatus",
              "name": "status",
              "type": "uint8"
            },
            {
              "components": [
                {
                  "internalType": "string",
                  "name": "firstName",
                  "type": "string"
                },
                {
                  "internalType": "string",
                  "name": "lastName",
                  "type": "string"
                },
                {
                  "internalType": "enum UserDataTypes.Gender",
                  "name": "gender",
                  "type": "uint8"
                },
                {
                  "components": [
                    {
                      "internalType": "uint256",
                      "name": "year",
                      "type": "uint256"
                    },
                    {
                      "internalType": "uint256",
                      "name": "month",
                      "type": "uint256"
                    },
                    {
                      "internalType": "uint256",
                      "name": "day",
                      "type": "uint256"
                    }
                  ],
                  "internalType": "struct UserDataTypes.Date",
                  "name": "dateOfBirth",
                  "type": "tuple"
                },
                {
                  "internalType": "string",
                  "name": "nationality",
                  "type": "string"
                },
                {
                  "internalType": "string",
                  "name": "phoneNumber",
                  "type": "string"
                },
                {
                  "internalType": "string",
                  "name": "emailAddress",
                  "type": "string"
                },
                {
                  "internalType": "enum UserDataTypes.UserRole",
                  "name": "role",
                  "type": "uint8"
                },
                {
                  "internalType": "uint256[]",
                  "name": "studyProgramIds",
                  "type": "uint256[]"
                }
              ],
              "internalType": "struct UserDataTypes.UserProfile",
              "name": "profile",
              "type": "tuple"
            }
          ],
          "internalType": "struct UserDataTypes.Registration",
          "name": "",
          "type": "tuple"
        }
      ],
      "stateMutability": "view",
      "type": "function"
    },
    {
      "inputs": [
        {
          "internalType": "address",
          "name": "userAddress",
          "type": "address"
        }
      ],
      "name": "removeRegistration",
      "outputs": [],
      "stateMutability": "nonpayable",
      "type": "function"
    },
    {
      "inputs": [
        {
          "components": [
            {
              "internalType": "address",
              "name": "userAddress",
              "type": "address"
            },
            {
              "internalType": "enum UserDataTypes.RegistrationStatus",
              "name": "status",
              "type": "uint8"
            },
            {
              "components": [
                {
                  "internalType": "string",
                  "name": "firstName",
                  "type": "string"
                },
                {
                  "internalType": "string",
                  "name": "lastName",
                  "type": "string"
                },
                {
                  "internalType": "enum UserDataTypes.Gender",
                  "name": "gender",
                  "type": "uint8"
                },
                {
                  "components": [
                    {
                      "internalType": "uint256",
                      "name": "year",
                      "type": "uint256"
                    },
                    {
                      "internalType": "uint256",
                      "name": "month",
                      "type": "uint256"
                    },
                    {
                      "internalType": "uint256",
                      "name": "day",
                      "type": "uint256"
                    }
                  ],
                  "internalType": "struct UserDataTypes.Date",
                  "name": "dateOfBirth",
                  "type": "tuple"
                },
                {
                  "internalType": "string",
                  "name": "nationality",
                  "type": "string"
                },
                {
                  "internalType": "string",
                  "name": "phoneNumber",
                  "type": "string"
                },
                {
                  "internalType": "string",
                  "name": "emailAddress",
                  "type": "string"
                },
                {
                  "internalType": "enum UserDataTypes.UserRole",
                  "name": "role",
                  "type": "uint8"
                },
                {
                  "internalType": "uint256[]",
                  "name": "studyProgramIds",
                  "type": "uint256[]"
                }
              ],
              "internalType": "struct UserDataTypes.UserProfile",
              "name": "profile",
              "type": "tuple"
            }
          ],
          "internalType": "struct UserDataTypes.Registration",
          "name": "registration",
          "type": "tuple"
        }
      ],
      "name": "storeRegistration",
      "outputs": [],
      "stateMutability": "nonpayable",
      "type": "function"
    },
    {
      "inputs": [
        {
          "components": [
            {
              "internalType": "address",
              "name": "userAddress",
              "type": "address"
            },
            {
              "internalType": "enum UserDataTypes.RegistrationStatus",
              "name": "status",
              "type": "uint8"
            },
            {
              "components": [
                {
                  "internalType": "string",
                  "name": "firstName",
                  "type": "string"
                },
                {
                  "internalType": "string",
                  "name": "lastName",
                  "type": "string"
                },
                {
                  "internalType": "enum UserDataTypes.Gender",
                  "name": "gender",
                  "type": "uint8"
                },
                {
                  "components": [
                    {
                      "internalType": "uint256",
                      "name": "year",
                      "type": "uint256"
                    },
                    {
                      "internalType": "uint256",
                      "name": "month",
                      "type": "uint256"
                    },
                    {
                      "internalType": "uint256",
                      "name": "day",
                      "type": "uint256"
                    }
                  ],
                  "internalType": "struct UserDataTypes.Date",
                  "name": "dateOfBirth",
                  "type": "tuple"
                },
                {
                  "internalType": "string",
                  "name": "nationality",
                  "type": "string"
                },
                {
                  "internalType": "string",
                  "name": "phoneNumber",
                  "type": "string"
                },
                {
                  "internalType": "string",
                  "name": "emailAddress",
                  "type": "string"
                },
                {
                  "internalType": "enum UserDataTypes.UserRole",
                  "name": "role",
                  "type": "uint8"
                },
                {
                  "internalType": "uint256[]",
                  "name": "studyProgramIds",
                  "type": "uint256[]"
                }
              ],
              "internalType": "struct UserDataTypes.UserProfile",
              "name": "profile",
              "type": "tuple"
            }
          ],
          "internalType": "struct UserDataTypes.Registration",
          "name": "registration",
          "type": "tuple"
        }
      ],
      "name": "updateRegistration",
      "outputs": [],
      "stateMutability": "nonpayable",
      "type": "function"
    }
  ],
  "bytecode": "0x60806040523480156200001157600080fd5b5060405162002fcf38038062002fcf8339818101604052810190620000379190620000ec565b8080806000806101000a81548173ffffffffffffffffffffffffffffffffffffffff021916908373ffffffffffffffffffffffffffffffffffffffff1602179055505050506200011e565b600080fd5b600073ffffffffffffffffffffffffffffffffffffffff82169050919050565b6000620000b48262000087565b9050919050565b620000c681620000a7565b8114620000d257600080fd5b50565b600081519050620000e681620000bb565b92915050565b60006020828403121562000105576200010462000082565b5b60006200011584828501620000d5565b91505092915050565b612ea1806200012e6000396000f3fe608060405234801561001057600080fd5b50600436106100575760003560e01c80630c38af4a1461005c578063153cb0811461007a5780632bb9e9361461009657806372731062146100b2578063e42c35de146100e2575b600080fd5b6100646100fe565b6040516100719190611e9f565b60405180910390f35b610094600480360381019061008f9190611eef565b610785565b005b6100b060048036038101906100ab9190611f64565b610975565b005b6100cc60048036038101906100c79190611f64565b610c28565b6040516100d99190611fe1565b60405180910390f35b6100fc60048036038101906100f79190611eef565b61127b565b005b606060008054906101000a900473ffffffffffffffffffffffffffffffffffffffff1673ffffffffffffffffffffffffffffffffffffffff166313f44d10336040518263ffffffff1660e01b81526004016101599190612012565b602060405180830381865afa158015610176573d6000803e3d6000fd5b505050506040513d601f19601f8201168201806040525081019061019a9190612065565b6101d9576040517f08c379a00000000000000000000000000000000000000000000000000000000081526004016101d0906120ef565b60405180910390fd5b600060028054905067ffffffffffffffff8111156101fa576101f961210f565b5b60405190808252806020026020018201604052801561023357816020015b61022061185d565b8152602001906001900390816102185790505b50905060005b60028054905081101561077d57600160006002838154811061025e5761025d61213e565b5b9060005260206000200160009054906101000a900473ffffffffffffffffffffffffffffffffffffffff1673ffffffffffffffffffffffffffffffffffffffff1673ffffffffffffffffffffffffffffffffffffffff1681526020019081526020016000206040518060600160405290816000820160009054906101000a900473ffffffffffffffffffffffffffffffffffffffff1673ffffffffffffffffffffffffffffffffffffffff1673ffffffffffffffffffffffffffffffffffffffff1681526020016000820160149054906101000a900460ff16600281111561034957610348611a2e565b5b600281111561035b5761035a611a2e565b5b815260200160018201604051806101200160405290816000820180546103809061219c565b80601f01602080910402602001604051908101604052809291908181526020018280546103ac9061219c565b80156103f95780601f106103ce576101008083540402835291602001916103f9565b820191906000526020600020905b8154815290600101906020018083116103dc57829003601f168201915b505050505081526020016001820180546104129061219c565b80601f016020809104026020016040519081016040528092919081815260200182805461043e9061219c565b801561048b5780601f106104605761010080835404028352916020019161048b565b820191906000526020600020905b81548152906001019060200180831161046e57829003601f168201915b505050505081526020016002820160009054906101000a900460ff1660028111156104b9576104b8611a2e565b5b60028111156104cb576104ca611a2e565b5b815260200160038201604051806060016040529081600082015481526020016001820154815260200160028201548152505081526020016006820180546105119061219c565b80601f016020809104026020016040519081016040528092919081815260200182805461053d9061219c565b801561058a5780601f1061055f5761010080835404028352916020019161058a565b820191906000526020600020905b81548152906001019060200180831161056d57829003601f168201915b505050505081526020016007820180546105a39061219c565b80601f01602080910402602001604051908101604052809291908181526020018280546105cf9061219c565b801561061c5780601f106105f15761010080835404028352916020019161061c565b820191906000526020600020905b8154815290600101906020018083116105ff57829003601f168201915b505050505081526020016008820180546106359061219c565b80601f01602080910402602001604051908101604052809291908181526020018280546106619061219c565b80156106ae5780601f10610683576101008083540402835291602001916106ae565b820191906000526020600020905b81548152906001019060200180831161069157829003601f168201915b505050505081526020016009820160009054906101000a900460ff1660028111156106dc576106db611a2e565b5b60028111156106ee576106ed611a2e565b5b8152602001600a820180548060200260200160405190810160405280929190818152602001828054801561074157602002820191906000526020600020905b81548152602001906001019080831161072d575b505050505081525050815250508282815181106107615761076061213e565b5b602002602001018190525080610776906121fc565b9050610239565b508091505090565b60008054906101000a900473ffffffffffffffffffffffffffffffffffffffff1673ffffffffffffffffffffffffffffffffffffffff166313f44d10336040518263ffffffff1660e01b81526004016107de9190612012565b602060405180830381865afa1580156107fb573d6000803e3d6000fd5b505050506040513d601f19601f8201168201806040525081019061081f9190612065565b61085e576040517f08c379a0000000000000000000000000000000000000000000000000000000008152600401610855906120ef565b60405180910390fd5b610911600160008360000160208101906108789190611f64565b73ffffffffffffffffffffffffffffffffffffffff1673ffffffffffffffffffffffffffffffffffffffff16815260200190815260200160002060000160009054906101000a900473ffffffffffffffffffffffffffffffffffffffff166040518060400160405280600c81526020017f526567697374726174696f6e00000000000000000000000000000000000000008152506114e0565b80600160008360000160208101906109299190611f64565b73ffffffffffffffffffffffffffffffffffffffff1673ffffffffffffffffffffffffffffffffffffffff168152602001908152602001600020818161096f9190612c53565b90505050565b60008054906101000a900473ffffffffffffffffffffffffffffffffffffffff1673ffffffffffffffffffffffffffffffffffffffff166313f44d10336040518263ffffffff1660e01b81526004016109ce9190612012565b602060405180830381865afa1580156109eb573d6000803e3d6000fd5b505050506040513d601f19601f82011682018060405250810190610a0f9190612065565b610a4e576040517f08c379a0000000000000000000000000000000000000000000000000000000008152600401610a45906120ef565b60405180910390fd5b610aef600160008373ffffffffffffffffffffffffffffffffffffffff1673ffffffffffffffffffffffffffffffffffffffff16815260200190815260200160002060000160009054906101000a900473ffffffffffffffffffffffffffffffffffffffff166040518060400160405280600c81526020017f526567697374726174696f6e00000000000000000000000000000000000000008152506114e0565b600160008273ffffffffffffffffffffffffffffffffffffffff1673ffffffffffffffffffffffffffffffffffffffff168152602001908152602001600020600080820160006101000a81549073ffffffffffffffffffffffffffffffffffffffff02191690556000820160146101000a81549060ff02191690556001820160008082016000610b7f91906118ac565b600182016000610b8f91906118ac565b6002820160006101000a81549060ff021916905560038201600080820160009055600182016000905560028201600090555050600682016000610bd291906118ac565b600782016000610be291906118ac565b600882016000610bf291906118ac565b6009820160006101000a81549060ff0219169055600a82016000610c1691906118ec565b50505050610c2581600261154f565b50565b610c3061185d565b60008054906101000a900473ffffffffffffffffffffffffffffffffffffffff1673ffffffffffffffffffffffffffffffffffffffff166313f44d10336040518263ffffffff1660e01b8152600401610c899190612012565b602060405180830381865afa158015610ca6573d6000803e3d6000fd5b505050506040513d601f19601f82011682018060405250810190610cca9190612065565b610d09576040517f08c379a0000000000000000000000000000000000000000000000000000000008152600401610d00906120ef565b60405180910390fd5b610daa600160008473ffffffffffffffffffffffffffffffffffffffff1673ffffffffffffffffffffffffffffffffffffffff16815260200190815260200160002060000160009054906101000a900473ffffffffffffffffffffffffffffffffffffffff166040518060400160405280600c81526020017f526567697374726174696f6e00000000000000000000000000000000000000008152506114e0565b600160008373ffffffffffffffffffffffffffffffffffffffff1673ffffffffffffffffffffffffffffffffffffffff1681526020019081526020016000206040518060600160405290816000820160009054906101000a900473ffffffffffffffffffffffffffffffffffffffff1673ffffffffffffffffffffffffffffffffffffffff1673ffffffffffffffffffffffffffffffffffffffff1681526020016000820160149054906101000a900460ff166002811115610e6f57610e6e611a2e565b5b6002811115610e8157610e80611a2e565b5b81526020016001820160405180610120016040529081600082018054610ea69061219c565b80601f0160208091040260200160405190810160405280929190818152602001828054610ed29061219c565b8015610f1f5780601f10610ef457610100808354040283529160200191610f1f565b820191906000526020600020905b815481529060010190602001808311610f0257829003601f168201915b50505050508152602001600182018054610f389061219c565b80601f0160208091040260200160405190810160405280929190818152602001828054610f649061219c565b8015610fb15780601f10610f8657610100808354040283529160200191610fb1565b820191906000526020600020905b815481529060010190602001808311610f9457829003601f168201915b505050505081526020016002820160009054906101000a900460ff166002811115610fdf57610fde611a2e565b5b6002811115610ff157610ff0611a2e565b5b815260200160038201604051806060016040529081600082015481526020016001820154815260200160028201548152505081526020016006820180546110379061219c565b80601f01602080910402602001604051908101604052809291908181526020018280546110639061219c565b80156110b05780601f10611085576101008083540402835291602001916110b0565b820191906000526020600020905b81548152906001019060200180831161109357829003601f168201915b505050505081526020016007820180546110c99061219c565b80601f01602080910402602001604051908101604052809291908181526020018280546110f59061219c565b80156111425780601f1061111757610100808354040283529160200191611142565b820191906000526020600020905b81548152906001019060200180831161112557829003601f168201915b5050505050815260200160088201805461115b9061219c565b80601f01602080910402602001604051908101604052809291908181526020018280546111879061219c565b80156111d45780601f106111a9576101008083540402835291602001916111d4565b820191906000526020600020905b8154815290600101906020018083116111b757829003601f168201915b505050505081526020016009820160009054906101000a900460ff16600281111561120257611201611a2e565b5b600281111561121457611213611a2e565b5b8152602001600a820180548060200260200160405190810160405280929190818152602001828054801561126757602002820191906000526020600020905b815481526020019060010190808311611253575b505050505081525050815250509050919050565b60008054906101000a900473ffffffffffffffffffffffffffffffffffffffff1673ffffffffffffffffffffffffffffffffffffffff166313f44d10336040518263ffffffff1660e01b81526004016112d49190612012565b602060405180830381865afa1580156112f1573d6000803e3d6000fd5b505050506040513d601f19601f820116820180604052508101906113159190612065565b611354576040517f08c379a000000000000000000000000000000000000000000000000000000000815260040161134b906120ef565b60405180910390fd5b6114076001600083600001602081019061136e9190611f64565b73ffffffffffffffffffffffffffffffffffffffff1673ffffffffffffffffffffffffffffffffffffffff16815260200190815260200160002060000160009054906101000a900473ffffffffffffffffffffffffffffffffffffffff166040518060400160405280600c81526020017f526567697374726174696f6e0000000000000000000000000000000000000000815250611711565b806001600083600001602081019061141f9190611f64565b73ffffffffffffffffffffffffffffffffffffffff1673ffffffffffffffffffffffffffffffffffffffff16815260200190815260200160002081816114659190612c53565b905050600281600001602081019061147d9190611f64565b9080600181540180825580915050600190039060005260206000200160009091909190916101000a81548173ffffffffffffffffffffffffffffffffffffffff021916908373ffffffffffffffffffffffffffffffffffffffff16021790555050565b6114e982611781565b816040516020016114fa9190612ce9565b6040516020818303038152906040529061154a576040517f08c379a00000000000000000000000000000000000000000000000000000000081526004016115419190612d44565b60405180910390fd5b505050565b60006115e083838054806020026020016040519081016040528092919081815260200182805480156115d657602002820191906000526020600020905b8160009054906101000a900473ffffffffffffffffffffffffffffffffffffffff1673ffffffffffffffffffffffffffffffffffffffff168152602001906001019080831161158c575b50505050506117ba565b90506000811261170c57600081905060008190505b600184805490506116069190612d66565b8110156116c3578360018261161b9190612d9a565b8154811061162c5761162b61213e565b5b9060005260206000200160009054906101000a900473ffffffffffffffffffffffffffffffffffffffff1684828154811061166a5761166961213e565b5b9060005260206000200160006101000a81548173ffffffffffffffffffffffffffffffffffffffff021916908373ffffffffffffffffffffffffffffffffffffffff160217905550806116bc906121fc565b90506115f5565b50828054806116d5576116d4612dce565b5b6001900381819060005260206000200160006101000a81549073ffffffffffffffffffffffffffffffffffffffff02191690559055505b505050565b61171a82611781565b158160405160200161172c9190612e49565b6040516020818303038152906040529061177c576040517f08c379a00000000000000000000000000000000000000000000000000000000081526004016117739190612d44565b60405180910390fd5b505050565b60008073ffffffffffffffffffffffffffffffffffffffff168273ffffffffffffffffffffffffffffffffffffffff1614159050919050565b600080600090505b8251811015611832578373ffffffffffffffffffffffffffffffffffffffff168382815181106117f5576117f461213e565b5b602002602001015173ffffffffffffffffffffffffffffffffffffffff16036118215780915050611857565b8061182b906121fc565b90506117c2565b507fffffffffffffffffffffffffffffffffffffffffffffffffffffffffffffffff90505b92915050565b6040518060600160405280600073ffffffffffffffffffffffffffffffffffffffff1681526020016000600281111561189957611898611a2e565b5b81526020016118a661190d565b81525090565b5080546118b89061219c565b6000825580601f106118ca57506118e9565b601f0160209004906000526020600020908101906118e89190611983565b5b50565b508054600082559060005260206000209081019061190a9190611983565b50565b60405180610120016040528060608152602001606081526020016000600281111561193b5761193a611a2e565b5b81526020016119486119a0565b81526020016060815260200160608152602001606081526020016000600281111561197657611975611a2e565b5b8152602001606081525090565b5b8082111561199c576000816000905550600101611984565b5090565b60405180606001604052806000815260200160008152602001600081525090565b600081519050919050565b600082825260208201905092915050565b6000819050602082019050919050565b600073ffffffffffffffffffffffffffffffffffffffff82169050919050565b6000611a18826119ed565b9050919050565b611a2881611a0d565b82525050565b7f4e487b7100000000000000000000000000000000000000000000000000000000600052602160045260246000fd5b60038110611a6e57611a6d611a2e565b5b50565b6000819050611a7f82611a5d565b919050565b6000611a8f82611a71565b9050919050565b611a9f81611a84565b82525050565b600081519050919050565b600082825260208201905092915050565b60005b83811015611adf578082015181840152602081019050611ac4565b60008484015250505050565b6000601f19601f8301169050919050565b6000611b0782611aa5565b611b118185611ab0565b9350611b21818560208601611ac1565b611b2a81611aeb565b840191505092915050565b60038110611b4657611b45611a2e565b5b50565b6000819050611b5782611b35565b919050565b6000611b6782611b49565b9050919050565b611b7781611b5c565b82525050565b6000819050919050565b611b9081611b7d565b82525050565b606082016000820151611bac6000850182611b87565b506020820151611bbf6020850182611b87565b506040820151611bd26040850182611b87565b50505050565b60038110611be957611be8611a2e565b5b50565b6000819050611bfa82611bd8565b919050565b6000611c0a82611bec565b9050919050565b611c1a81611bff565b82525050565b600081519050919050565b600082825260208201905092915050565b6000819050602082019050919050565b6000611c588383611b87565b60208301905092915050565b6000602082019050919050565b6000611c7c82611c20565b611c868185611c2b565b9350611c9183611c3c565b8060005b83811015611cc2578151611ca98882611c4c565b9750611cb483611c64565b925050600181019050611c95565b5085935050505092915050565b6000610160830160008301518482036000860152611ced8282611afc565b91505060208301518482036020860152611d078282611afc565b9150506040830151611d1c6040860182611b6e565b506060830151611d2f6060860182611b96565b50608083015184820360c0860152611d478282611afc565b91505060a083015184820360e0860152611d618282611afc565b91505060c0830151848203610100860152611d7c8282611afc565b91505060e0830151611d92610120860182611c11565b50610100830151848203610140860152611dac8282611c71565b9150508091505092915050565b6000606083016000830151611dd16000860182611a1f565b506020830151611de46020860182611a96565b5060408301518482036040860152611dfc8282611ccf565b9150508091505092915050565b6000611e158383611db9565b905092915050565b6000602082019050919050565b6000611e35826119c1565b611e3f81856119cc565b935083602082028501611e51856119dd565b8060005b85811015611e8d5784840389528151611e6e8582611e09565b9450611e7983611e1d565b925060208a01995050600181019050611e55565b50829750879550505050505092915050565b60006020820190508181036000830152611eb98184611e2a565b905092915050565b600080fd5b600080fd5b600080fd5b600060608284031215611ee657611ee5611ecb565b5b81905092915050565b600060208284031215611f0557611f04611ec1565b5b600082013567ffffffffffffffff811115611f2357611f22611ec6565b5b611f2f84828501611ed0565b91505092915050565b611f4181611a0d565b8114611f4c57600080fd5b50565b600081359050611f5e81611f38565b92915050565b600060208284031215611f7a57611f79611ec1565b5b6000611f8884828501611f4f565b91505092915050565b6000606083016000830151611fa96000860182611a1f565b506020830151611fbc6020860182611a96565b5060408301518482036040860152611fd48282611ccf565b9150508091505092915050565b60006020820190508181036000830152611ffb8184611f91565b905092915050565b61200c81611a0d565b82525050565b60006020820190506120276000830184612003565b92915050565b60008115159050919050565b6120428161202d565b811461204d57600080fd5b50565b60008151905061205f81612039565b92915050565b60006020828403121561207b5761207a611ec1565b5b600061208984828501612050565b91505092915050565b600082825260208201905092915050565b7f5468652073656e646572206973206e6f742077686974656c6973746564000000600082015250565b60006120d9601d83612092565b91506120e4826120a3565b602082019050919050565b60006020820190508181036000830152612108816120cc565b9050919050565b7f4e487b7100000000000000000000000000000000000000000000000000000000600052604160045260246000fd5b7f4e487b7100000000000000000000000000000000000000000000000000000000600052603260045260246000fd5b7f4e487b7100000000000000000000000000000000000000000000000000000000600052602260045260246000fd5b600060028204905060018216806121b457607f821691505b6020821081036121c7576121c661216d565b5b50919050565b7f4e487b7100000000000000000000000000000000000000000000000000000000600052601160045260246000fd5b600061220782611b7d565b91507fffffffffffffffffffffffffffffffffffffffffffffffffffffffffffffffff8203612239576122386121cd565b5b600182019050919050565b6000813561225181611f38565b80915050919050565b60008160001b9050919050565b600073ffffffffffffffffffffffffffffffffffffffff6122878461225a565b9350801983169250808416831791505092915050565b6000819050919050565b60006122c26122bd6122b8846119ed565b61229d565b6119ed565b9050919050565b60006122d4826122a7565b9050919050565b60006122e6826122c9565b9050919050565b6000819050919050565b612300826122db565b61231361230c826122ed565b8354612267565b8255505050565b6003811061232757600080fd5b50565b600081356123378161231a565b80915050919050565b60008160a01b9050919050565b600074ff000000000000000000000000000000000000000061236e84612340565b9350801983169250808416831791505092915050565b600061238f82611a71565b9050919050565b6000819050919050565b6123a982612384565b6123bc6123b582612396565b835461234d565b8255505050565b600080fd5b600080fd5b600080fd5b600082356001610160038336030381126123ef576123ee6123c3565b5b80830191505092915050565b60008083356001602003843603038112612418576124176123c3565b5b80840192508235915067ffffffffffffffff82111561243a576124396123c8565b5b602083019250600182023603831315612456576124556123cd565b5b509250929050565b600082905092915050565b60008190508160005260206000209050919050565b60006020601f8301049050919050565b600082821b905092915050565b6000600883026124cb7fffffffffffffffffffffffffffffffffffffffffffffffffffffffffffffffff8261248e565b6124d5868361248e565b95508019841693508086168417925050509392505050565b60006125086125036124fe84611b7d565b61229d565b611b7d565b9050919050565b6000819050919050565b612522836124ed565b61253661252e8261250f565b84845461249b565b825550505050565b600090565b61254b61253e565b612556818484612519565b505050565b5b8181101561257a5761256f600082612543565b60018101905061255c565b5050565b601f8211156125bf5761259081612469565b6125998461247e565b810160208510156125a8578190505b6125bc6125b48561247e565b83018261255b565b50505b505050565b600082821c905092915050565b60006125e2600019846008026125c4565b1980831691505092915050565b60006125fb83836125d1565b9150826002028217905092915050565b612615838361245e565b67ffffffffffffffff81111561262e5761262d61210f565b5b612638825461219c565b61264382828561257e565b6000601f8311600181146126725760008415612660578287013590505b61266a85826125ef565b8655506126d2565b601f19841661268086612469565b60005b828110156126a857848901358255600182019150602085019450602081019050612683565b868310156126c557848901356126c1601f8916826125d1565b8355505b6001600288020188555050505b50505050505050565b6126e683838361260b565b505050565b600381106126f857600080fd5b50565b60008135612708816126eb565b80915050919050565b600060ff61271e8461225a565b9350801983169250808416831791505092915050565b600061273f82611b49565b9050919050565b6000819050919050565b61275982612734565b61276c61276582612746565b8354612711565b8255505050565b61277c81611b7d565b811461278757600080fd5b50565b6000813561279781612773565b80915050919050565b60007fffffffffffffffffffffffffffffffffffffffffffffffffffffffffffffffff6127cc8461225a565b9350801983169250808416831791505092915050565b6127eb826124ed565b6127fe6127f78261250f565b83546127a0565b8255505050565b6000810160008301806128178161278a565b905061282381846127e2565b5050506001810160208301806128388161278a565b905061284481846127e2565b5050506002810160408301806128598161278a565b905061286581846127e2565b5050505050565b6128768282612805565b5050565b6003811061288757600080fd5b50565b600081356128978161287a565b80915050919050565b60006128ab82611bec565b9050919050565b6000819050919050565b6128c5826128a0565b6128d86128d1826128b2565b8354612711565b8255505050565b600080833560016020038436030381126128fc576128fb6123c3565b5b80840192508235915067ffffffffffffffff82111561291e5761291d6123c8565b5b60208301925060208202360383131561293a576129396123cd565b5b509250929050565b600081549050919050565b60008190506001806001038301049050919050565b60008190508160005260206000209050919050565b5b818110156129965761298b600082612543565b600181019050612978565b5050565b818310156129d3576129ab8261294d565b6129b48461294d565b6129bd83612962565b8181018382016129cd8183612977565b50505050505b505050565b680100000000000000008211156129f2576129f161210f565b5b6129fb81612942565b828255612a0983828461299a565b505050565b600082905092915050565b6000819050919050565b612a2d8383612a0e565b67ffffffffffffffff811115612a4657612a4561210f565b5b612a5081836129d8565b612a5983612a19565b612a6283612962565b6001830460005b81811015612aa1576000612a7c8561278a565b612a858161250f565b8092506020870196505050808285015550600181019050612a69565b5050505050505050565b612ab6838383612a23565b505050565b6000810160008301612acd81856123fb565b612ad88183866126db565b505050506001810160208301612aee81856123fb565b612af98183866126db565b50505050600281016040830180612b0f816126fb565b9050612b1b8184612750565b505050600381016060830180612b31818461286c565b5050506006810160c08301612b4681856123fb565b612b518183866126db565b505050506007810160e08301612b6781856123fb565b612b728183866126db565b50505050600881016101008301612b8981856123fb565b612b948183866126db565b5050505060098101610120830180612bab8161288a565b9050612bb781846128bc565b505050600a81016101408301612bcd81856128df565b612bd8818386612aab565b505050505050565b612bea8282612abb565b5050565b600081016000830180612c0081612244565b9050612c0c81846122f7565b505050600081016020830180612c218161232a565b9050612c2d81846123a0565b5050506001810160408301612c4281856123d2565b612c4c8184612be0565b5050505050565b612c5d8282612bee565b5050565b600081905092915050565b6000612c7782611aa5565b612c818185612c61565b9350612c91818560208601611ac1565b80840191505092915050565b7f20646f6573206e6f7420657869737420617420676976656e2061646472657373600082015250565b6000612cd3602083612c61565b9150612cde82612c9d565b602082019050919050565b6000612cf58284612c6c565b9150612d0082612cc6565b915081905092915050565b6000612d1682611aa5565b612d208185612092565b9350612d30818560208601611ac1565b612d3981611aeb565b840191505092915050565b60006020820190508181036000830152612d5e8184612d0b565b905092915050565b6000612d7182611b7d565b9150612d7c83611b7d565b9250828203905081811115612d9457612d936121cd565b5b92915050565b6000612da582611b7d565b9150612db083611b7d565b9250828201905080821115612dc857612dc76121cd565b5b92915050565b7f4e487b7100000000000000000000000000000000000000000000000000000000600052603160045260246000fd5b7f20616c72656164792065786973747320617420676976656e2061646472657373600082015250565b6000612e33602083612c61565b9150612e3e82612dfd565b602082019050919050565b6000612e558284612c6c565b9150612e6082612e26565b91508190509291505056fea2646970667358221220bfab18123841fd65765eb585a4570780bce91459a5a883e67fb7f024abf62eb364736f6c63430008110033",
  "linkReferences": {},
  "deployedLinkReferences": {}
}