{
  "_format": "hh-sol-artifact-1",
  "contractName": "ProgramDataManager",
  "sourceName": "contracts/data/datamanager/ProgramDataManager.sol",
  "abi": [
    {
      "inputs": [
        {
          "internalType": "address",
          "name": "programStorageAddress",
          "type": "address"
        },
        {
          "internalType": "address",
          "name": "accessWhitelistAddress",
          "type": "address"
        }
      ],
      "stateMutability": "nonpayable",
      "type": "constructor"
    },
    {
      "inputs": [
        {
          "internalType": "string",
          "name": "programName",
          "type": "string"
        }
      ],
      "name": "createStudyProgram",
      "outputs": [],
      "stateMutability": "nonpayable",
      "type": "function"
    },
    {
      "inputs": [],
      "name": "getAllStudyPrograms",
      "outputs": [
        {
          "components": [
            {
              "internalType": "uint256",
              "name": "programId",
              "type": "uint256"
            },
            {
              "internalType": "string",
              "name": "programName",
              "type": "string"
            }
          ],
          "internalType": "struct StudyProgramDataTypes.StudyProgram[]",
          "name": "",
          "type": "tuple[]"
        }
      ],
      "stateMutability": "view",
      "type": "function"
    },
    {
      "inputs": [
        {
          "internalType": "uint256",
          "name": "programId",
          "type": "uint256"
        }
      ],
      "name": "getStudyProgram",
      "outputs": [
        {
          "components": [
            {
              "internalType": "uint256",
              "name": "programId",
              "type": "uint256"
            },
            {
              "internalType": "string",
              "name": "programName",
              "type": "string"
            }
          ],
          "internalType": "struct StudyProgramDataTypes.StudyProgram",
          "name": "",
          "type": "tuple"
        }
      ],
      "stateMutability": "view",
      "type": "function"
    }
  ],
  "bytecode": "0x608060405262000019620000e560201b620005fd1760201c565b60026000820151816000015550503480156200003457600080fd5b506040516200122d3803806200122d83398181016040528101906200005a919062000181565b80806000806101000a81548173ffffffffffffffffffffffffffffffffffffffff021916908373ffffffffffffffffffffffffffffffffffffffff1602179055505081600160006101000a81548173ffffffffffffffffffffffffffffffffffffffff021916908373ffffffffffffffffffffffffffffffffffffffff1602179055505050620001c8565b620000ef62000104565b60405180602001604052806001815250905090565b6040518060200160405280600081525090565b600080fd5b600073ffffffffffffffffffffffffffffffffffffffff82169050919050565b600062000149826200011c565b9050919050565b6200015b816200013c565b81146200016757600080fd5b50565b6000815190506200017b8162000150565b92915050565b600080604083850312156200019b576200019a62000117565b5b6000620001ab858286016200016a565b9250506020620001be858286016200016a565b9150509250929050565b61105580620001d86000396000f3fe608060405234801561001057600080fd5b50600436106100415760003560e01c80634e634eb514610046578063ad57f14c14610076578063d8342f2c14610094575b600080fd5b610060600480360381019061005b919061071e565b6100b0565b60405161006d9190610827565b60405180910390f35b61007e610239565b60405161008b9190610948565b60405180910390f35b6100ae60048036038101906100a991906109cf565b6103af565b005b6100b86106a7565b60008054906101000a900473ffffffffffffffffffffffffffffffffffffffff1673ffffffffffffffffffffffffffffffffffffffff166313f44d10336040518263ffffffff1660e01b81526004016101119190610a5d565b602060405180830381865afa15801561012e573d6000803e3d6000fd5b505050506040513d601f19601f820116820180604052508101906101529190610ab0565b610191576040517f08c379a000000000000000000000000000000000000000000000000000000000815260040161018890610b3a565b60405180910390fd5b600160009054906101000a900473ffffffffffffffffffffffffffffffffffffffff1673ffffffffffffffffffffffffffffffffffffffff16634e634eb5836040518263ffffffff1660e01b81526004016101ec9190610b69565b600060405180830381865afa158015610209573d6000803e3d6000fd5b505050506040513d6000823e3d601f19601f820116820180604052508101906102329190610d30565b9050919050565b606060008054906101000a900473ffffffffffffffffffffffffffffffffffffffff1673ffffffffffffffffffffffffffffffffffffffff166313f44d10336040518263ffffffff1660e01b81526004016102949190610a5d565b602060405180830381865afa1580156102b1573d6000803e3d6000fd5b505050506040513d601f19601f820116820180604052508101906102d59190610ab0565b610314576040517f08c379a000000000000000000000000000000000000000000000000000000000815260040161030b90610b3a565b60405180910390fd5b600160009054906101000a900473ffffffffffffffffffffffffffffffffffffffff1673ffffffffffffffffffffffffffffffffffffffff1663ad57f14c6040518163ffffffff1660e01b8152600401600060405180830381865afa158015610381573d6000803e3d6000fd5b505050506040513d6000823e3d601f19601f820116820180604052508101906103aa9190610e5a565b905090565b60008054906101000a900473ffffffffffffffffffffffffffffffffffffffff1673ffffffffffffffffffffffffffffffffffffffff166313f44d10336040518263ffffffff1660e01b81526004016104089190610a5d565b602060405180830381865afa158015610425573d6000803e3d6000fd5b505050506040513d601f19601f820116820180604052508101906104499190610ab0565b610488576040517f08c379a000000000000000000000000000000000000000000000000000000000815260040161047f90610b3a565b60405180910390fd5b61050b82828080601f016020809104026020016040519081016040528093929190818152602001838380828437600081840152601f19601f820116905080830192505050505050506040518060400160405280600c81526020017f50726f6772616d206e616d65000000000000000000000000000000000000000081525061061a565b600160009054906101000a900473ffffffffffffffffffffffffffffffffffffffff1673ffffffffffffffffffffffffffffffffffffffff166327d01076604051806040016040528061055e6002610685565b815260200185858080601f016020809104026020016040519081016040528093929190818152602001838380828437600081840152601f19601f820116905080830192505050505050508152506040518263ffffffff1660e01b81526004016105c79190610827565b600060405180830381600087803b1580156105e157600080fd5b505af11580156105f5573d6000803e3d6000fd5b505050505050565b6106056106c1565b60405180602001604052806001815250905090565b6000825111816040516020016106309190610f2b565b60405160208183030381529060405290610680576040517f08c379a00000000000000000000000000000000000000000000000000000000081526004016106779190610f86565b60405180910390fd5b505050565b600081600001600081548092919061069c90610fd7565b919050559050919050565b604051806040016040528060008152602001606081525090565b6040518060200160405280600081525090565b6000604051905090565b600080fd5b600080fd5b6000819050919050565b6106fb816106e8565b811461070657600080fd5b50565b600081359050610718816106f2565b92915050565b600060208284031215610734576107336106de565b5b600061074284828501610709565b91505092915050565b610754816106e8565b82525050565b600081519050919050565b600082825260208201905092915050565b60005b83811015610794578082015181840152602081019050610779565b60008484015250505050565b6000601f19601f8301169050919050565b60006107bc8261075a565b6107c68185610765565b93506107d6818560208601610776565b6107df816107a0565b840191505092915050565b6000604083016000830151610802600086018261074b565b506020830151848203602086015261081a82826107b1565b9150508091505092915050565b6000602082019050818103600083015261084181846107ea565b905092915050565b600081519050919050565b600082825260208201905092915050565b6000819050602082019050919050565b600060408301600083015161088d600086018261074b565b50602083015184820360208601526108a582826107b1565b9150508091505092915050565b60006108be8383610875565b905092915050565b6000602082019050919050565b60006108de82610849565b6108e88185610854565b9350836020820285016108fa85610865565b8060005b85811015610936578484038952815161091785826108b2565b9450610922836108c6565b925060208a019950506001810190506108fe565b50829750879550505050505092915050565b6000602082019050818103600083015261096281846108d3565b905092915050565b600080fd5b600080fd5b600080fd5b60008083601f84011261098f5761098e61096a565b5b8235905067ffffffffffffffff8111156109ac576109ab61096f565b5b6020830191508360018202830111156109c8576109c7610974565b5b9250929050565b600080602083850312156109e6576109e56106de565b5b600083013567ffffffffffffffff811115610a0457610a036106e3565b5b610a1085828601610979565b92509250509250929050565b600073ffffffffffffffffffffffffffffffffffffffff82169050919050565b6000610a4782610a1c565b9050919050565b610a5781610a3c565b82525050565b6000602082019050610a726000830184610a4e565b92915050565b60008115159050919050565b610a8d81610a78565b8114610a9857600080fd5b50565b600081519050610aaa81610a84565b92915050565b600060208284031215610ac657610ac56106de565b5b6000610ad484828501610a9b565b91505092915050565b600082825260208201905092915050565b7f5468652073656e646572206973206e6f742077686974656c6973746564000000600082015250565b6000610b24601d83610add565b9150610b2f82610aee565b602082019050919050565b60006020820190508181036000830152610b5381610b17565b9050919050565b610b63816106e8565b82525050565b6000602082019050610b7e6000830184610b5a565b92915050565b600080fd5b7f4e487b7100000000000000000000000000000000000000000000000000000000600052604160045260246000fd5b610bc1826107a0565b810181811067ffffffffffffffff82111715610be057610bdf610b89565b5b80604052505050565b6000610bf36106d4565b9050610bff8282610bb8565b919050565b600080fd5b600081519050610c18816106f2565b92915050565b600080fd5b600067ffffffffffffffff821115610c3e57610c3d610b89565b5b610c47826107a0565b9050602081019050919050565b6000610c67610c6284610c23565b610be9565b905082815260208101848484011115610c8357610c82610c1e565b5b610c8e848285610776565b509392505050565b600082601f830112610cab57610caa61096a565b5b8151610cbb848260208601610c54565b91505092915050565b600060408284031215610cda57610cd9610b84565b5b610ce46040610be9565b90506000610cf484828501610c09565b600083015250602082015167ffffffffffffffff811115610d1857610d17610c04565b5b610d2484828501610c96565b60208301525092915050565b600060208284031215610d4657610d456106de565b5b600082015167ffffffffffffffff811115610d6457610d636106e3565b5b610d7084828501610cc4565b91505092915050565b600067ffffffffffffffff821115610d9457610d93610b89565b5b602082029050602081019050919050565b6000610db8610db384610d79565b610be9565b90508083825260208201905060208402830185811115610ddb57610dda610974565b5b835b81811015610e2257805167ffffffffffffffff811115610e0057610dff61096a565b5b808601610e0d8982610cc4565b85526020850194505050602081019050610ddd565b5050509392505050565b600082601f830112610e4157610e4061096a565b5b8151610e51848260208601610da5565b91505092915050565b600060208284031215610e7057610e6f6106de565b5b600082015167ffffffffffffffff811115610e8e57610e8d6106e3565b5b610e9a84828501610e2c565b91505092915050565b600081905092915050565b6000610eb98261075a565b610ec38185610ea3565b9350610ed3818560208601610776565b80840191505092915050565b7f2063616e6e6f7420626520656d70747900000000000000000000000000000000600082015250565b6000610f15601083610ea3565b9150610f2082610edf565b601082019050919050565b6000610f378284610eae565b9150610f4282610f08565b915081905092915050565b6000610f588261075a565b610f628185610add565b9350610f72818560208601610776565b610f7b816107a0565b840191505092915050565b60006020820190508181036000830152610fa08184610f4d565b905092915050565b7f4e487b7100000000000000000000000000000000000000000000000000000000600052601160045260246000fd5b6000610fe2826106e8565b91507fffffffffffffffffffffffffffffffffffffffffffffffffffffffffffffffff820361101457611013610fa8565b5b60018201905091905056fea2646970667358221220c35b5b4c3e9d706635a951edd96fa7ef8baac10b7159c935f4b810f5150f780a64736f6c63430008110033",
  "linkReferences": {},
  "deployedLinkReferences": {}
}