{
  "_format": "hh-sol-artifact-1",
  "contractName": "StudyProgramView",
  "sourceName": "contracts/view/StudyProgramView.sol",
  "abi": [
    {
      "inputs": [
        {
          "internalType": "address",
          "name": "addressBookAddress",
          "type": "address"
        }
      ],
      "stateMutability": "nonpayable",
      "type": "constructor"
    },
    {
      "inputs": [],
      "name": "getAllPrograms",
      "outputs": [
        {
          "components": [
            {
              "internalType": "uint256",
              "name": "programId",
              "type": "uint256"
            },
            {
              "internalType": "string",
              "name": "programName",
              "type": "string"
            }
          ],
          "internalType": "struct StudyProgramDataTypes.StudyProgram[]",
          "name": "",
          "type": "tuple[]"
        }
      ],
      "stateMutability": "view",
      "type": "function"
    },
    {
      "inputs": [],
      "name": "getEnrolledPrograms",
      "outputs": [
        {
          "components": [
            {
              "internalType": "uint256",
              "name": "programId",
              "type": "uint256"
            },
            {
              "internalType": "string",
              "name": "programName",
              "type": "string"
            }
          ],
          "internalType": "struct StudyProgramDataTypes.StudyProgram[]",
          "name": "",
          "type": "tuple[]"
        }
      ],
      "stateMutability": "view",
      "type": "function"
    },
    {
      "inputs": [
        {
          "internalType": "uint256",
          "name": "programId",
          "type": "uint256"
        }
      ],
      "name": "getProgram",
      "outputs": [
        {
          "components": [
            {
              "internalType": "uint256",
              "name": "programId",
              "type": "uint256"
            },
            {
              "internalType": "string",
              "name": "programName",
              "type": "string"
            }
          ],
          "internalType": "struct StudyProgramDataTypes.StudyProgram",
          "name": "",
          "type": "tuple"
        }
      ],
      "stateMutability": "view",
      "type": "function"
    }
  ],
  "bytecode": "0x60806040523480156200001157600080fd5b506040516200133c3803806200133c8339818101604052810190620000379190620000ec565b8080806000806101000a81548173ffffffffffffffffffffffffffffffffffffffff021916908373ffffffffffffffffffffffffffffffffffffffff1602179055505050506200011e565b600080fd5b600073ffffffffffffffffffffffffffffffffffffffff82169050919050565b6000620000b48262000087565b9050919050565b620000c681620000a7565b8114620000d257600080fd5b50565b600081519050620000e681620000bb565b92915050565b60006020828403121562000105576200010462000082565b5b60006200011584828501620000d5565b91505092915050565b61120e806200012e6000396000f3fe608060405234801561001057600080fd5b50600436106100415760003560e01c806359c9340414610046578063c3ecf89714610064578063e66b446b14610094575b600080fd5b61004e6100b2565b60405161005b91906108d1565b60405180910390f35b61007e60048036038101906100799190610933565b6103f0565b60405161008b919061099d565b60405180910390f35b61009c610485565b6040516100a991906108d1565b60405180910390f35b60606100bc610507565b600060028111156100d0576100cf6109bf565b5b6100d86105c9565b73ffffffffffffffffffffffffffffffffffffffff1663dd8b2914336040518263ffffffff1660e01b81526004016101109190610a2f565b602060405180830381865afa15801561012d573d6000803e3d6000fd5b505050506040513d601f19601f820116820180604052508101906101519190610a6f565b6002811115610163576101626109bf565b5b146101a3576040517f08c379a000000000000000000000000000000000000000000000000000000000815260040161019a90610af9565b60405180910390fd5b60006101ad6105c9565b73ffffffffffffffffffffffffffffffffffffffff1663e3d7e14c336040518263ffffffff1660e01b81526004016101e59190610a2f565b602060405180830381865afa158015610202573d6000803e3d6000fd5b505050506040513d601f19601f820116820180604052508101906102269190610b2e565b905060006102326105c9565b73ffffffffffffffffffffffffffffffffffffffff16634efe9cac836040518263ffffffff1660e01b815260040161026a9190610b6a565b600060405180830381865afa158015610287573d6000803e3d6000fd5b505050506040513d6000823e3d601f19601f820116820180604052508101906102b09190610ccd565b90506000815167ffffffffffffffff8111156102cf576102ce610b8a565b5b60405190808252806020026020018201604052801561030857816020015b6102f561070f565b8152602001906001900390816102ed5790505b50905060005b82518110156103e65761031f61066c565b73ffffffffffffffffffffffffffffffffffffffff16634e634eb584838151811061034d5761034c610d16565b5b60200260200101516040518263ffffffff1660e01b81526004016103719190610b6a565b600060405180830381865afa15801561038e573d6000803e3d6000fd5b505050506040513d6000823e3d601f19601f820116820180604052508101906103b79190610e61565b8282815181106103ca576103c9610d16565b5b6020026020010181905250806103df90610ed9565b905061030e565b5080935050505090565b6103f861070f565b61040061066c565b73ffffffffffffffffffffffffffffffffffffffff16634e634eb5836040518263ffffffff1660e01b81526004016104389190610b6a565b600060405180830381865afa158015610455573d6000803e3d6000fd5b505050506040513d6000823e3d601f19601f8201168201806040525081019061047e9190610e61565b9050919050565b606061048f61066c565b73ffffffffffffffffffffffffffffffffffffffff1663ad57f14c6040518163ffffffff1660e01b8152600401600060405180830381865afa1580156104d9573d6000803e3d6000fd5b505050506040513d6000823e3d601f19601f820116820180604052508101906105029190611002565b905090565b61050f6105c9565b73ffffffffffffffffffffffffffffffffffffffff166338b6a3a1336040518263ffffffff1660e01b81526004016105479190610a2f565b602060405180830381865afa158015610564573d6000803e3d6000fd5b505050506040513d601f19601f820116820180604052508101906105889190611083565b6105c7576040517f08c379a00000000000000000000000000000000000000000000000000000000081526004016105be906110fc565b60405180910390fd5b565b60008060009054906101000a900473ffffffffffffffffffffffffffffffffffffffff1673ffffffffffffffffffffffffffffffffffffffff1663bcaa0c5560026040518263ffffffff1660e01b81526004016106269190611164565b602060405180830381865afa158015610643573d6000803e3d6000fd5b505050506040513d601f19601f8201168201806040525081019061066791906111ab565b905090565b60008060009054906101000a900473ffffffffffffffffffffffffffffffffffffffff1673ffffffffffffffffffffffffffffffffffffffff1663bcaa0c5560046040518263ffffffff1660e01b81526004016106c99190611164565b602060405180830381865afa1580156106e6573d6000803e3d6000fd5b505050506040513d601f19601f8201168201806040525081019061070a91906111ab565b905090565b604051806040016040528060008152602001606081525090565b600081519050919050565b600082825260208201905092915050565b6000819050602082019050919050565b6000819050919050565b61076881610755565b82525050565b600081519050919050565b600082825260208201905092915050565b60005b838110156107a857808201518184015260208101905061078d565b60008484015250505050565b6000601f19601f8301169050919050565b60006107d08261076e565b6107da8185610779565b93506107ea81856020860161078a565b6107f3816107b4565b840191505092915050565b6000604083016000830151610816600086018261075f565b506020830151848203602086015261082e82826107c5565b9150508091505092915050565b600061084783836107fe565b905092915050565b6000602082019050919050565b600061086782610729565b6108718185610734565b93508360208202850161088385610745565b8060005b858110156108bf57848403895281516108a0858261083b565b94506108ab8361084f565b925060208a01995050600181019050610887565b50829750879550505050505092915050565b600060208201905081810360008301526108eb818461085c565b905092915050565b6000604051905090565b600080fd5b600080fd5b61091081610755565b811461091b57600080fd5b50565b60008135905061092d81610907565b92915050565b600060208284031215610949576109486108fd565b5b60006109578482850161091e565b91505092915050565b6000604083016000830151610978600086018261075f565b506020830151848203602086015261099082826107c5565b9150508091505092915050565b600060208201905081810360008301526109b78184610960565b905092915050565b7f4e487b7100000000000000000000000000000000000000000000000000000000600052602160045260246000fd5b600073ffffffffffffffffffffffffffffffffffffffff82169050919050565b6000610a19826109ee565b9050919050565b610a2981610a0e565b82525050565b6000602082019050610a446000830184610a20565b92915050565b60038110610a5757600080fd5b50565b600081519050610a6981610a4a565b92915050565b600060208284031215610a8557610a846108fd565b5b6000610a9384828501610a5a565b91505092915050565b600082825260208201905092915050565b7f53656e646572206d75737420626520612073747564656e740000000000000000600082015250565b6000610ae3601883610a9c565b9150610aee82610aad565b602082019050919050565b60006020820190508181036000830152610b1281610ad6565b9050919050565b600081519050610b2881610907565b92915050565b600060208284031215610b4457610b436108fd565b5b6000610b5284828501610b19565b91505092915050565b610b6481610755565b82525050565b6000602082019050610b7f6000830184610b5b565b92915050565b600080fd5b7f4e487b7100000000000000000000000000000000000000000000000000000000600052604160045260246000fd5b610bc2826107b4565b810181811067ffffffffffffffff82111715610be157610be0610b8a565b5b80604052505050565b6000610bf46108f3565b9050610c008282610bb9565b919050565b600067ffffffffffffffff821115610c2057610c1f610b8a565b5b602082029050602081019050919050565b600080fd5b6000610c49610c4484610c05565b610bea565b90508083825260208201905060208402830185811115610c6c57610c6b610c31565b5b835b81811015610c955780610c818882610b19565b845260208401935050602081019050610c6e565b5050509392505050565b600082601f830112610cb457610cb3610b85565b5b8151610cc4848260208601610c36565b91505092915050565b600060208284031215610ce357610ce26108fd565b5b600082015167ffffffffffffffff811115610d0157610d00610902565b5b610d0d84828501610c9f565b91505092915050565b7f4e487b7100000000000000000000000000000000000000000000000000000000600052603260045260246000fd5b600080fd5b600080fd5b600080fd5b600067ffffffffffffffff821115610d6f57610d6e610b8a565b5b610d78826107b4565b9050602081019050919050565b6000610d98610d9384610d54565b610bea565b905082815260208101848484011115610db457610db3610d4f565b5b610dbf84828561078a565b509392505050565b600082601f830112610ddc57610ddb610b85565b5b8151610dec848260208601610d85565b91505092915050565b600060408284031215610e0b57610e0a610d45565b5b610e156040610bea565b90506000610e2584828501610b19565b600083015250602082015167ffffffffffffffff811115610e4957610e48610d4a565b5b610e5584828501610dc7565b60208301525092915050565b600060208284031215610e7757610e766108fd565b5b600082015167ffffffffffffffff811115610e9557610e94610902565b5b610ea184828501610df5565b91505092915050565b7f4e487b7100000000000000000000000000000000000000000000000000000000600052601160045260246000fd5b6000610ee482610755565b91507fffffffffffffffffffffffffffffffffffffffffffffffffffffffffffffffff8203610f1657610f15610eaa565b5b600182019050919050565b600067ffffffffffffffff821115610f3c57610f3b610b8a565b5b602082029050602081019050919050565b6000610f60610f5b84610f21565b610bea565b90508083825260208201905060208402830185811115610f8357610f82610c31565b5b835b81811015610fca57805167ffffffffffffffff811115610fa857610fa7610b85565b5b808601610fb58982610df5565b85526020850194505050602081019050610f85565b5050509392505050565b600082601f830112610fe957610fe8610b85565b5b8151610ff9848260208601610f4d565b91505092915050565b600060208284031215611018576110176108fd565b5b600082015167ffffffffffffffff81111561103657611035610902565b5b61104284828501610fd4565b91505092915050565b60008115159050919050565b6110608161104b565b811461106b57600080fd5b50565b60008151905061107d81611057565b92915050565b600060208284031215611099576110986108fd565b5b60006110a78482850161106e565b91505092915050565b7f53656e646572206d757374206265206120726567697374657265642075736572600082015250565b60006110e6602083610a9c565b91506110f1826110b0565b602082019050919050565b60006020820190508181036000830152611115816110d9565b9050919050565b6006811061112d5761112c6109bf565b5b50565b600081905061113e8261111c565b919050565b600061114e82611130565b9050919050565b61115e81611143565b82525050565b60006020820190506111796000830184611155565b92915050565b61118881610a0e565b811461119357600080fd5b50565b6000815190506111a58161117f565b92915050565b6000602082840312156111c1576111c06108fd565b5b60006111cf84828501611196565b9150509291505056fea2646970667358221220efd4e2575ef73dfa82becb88bb1692309ea0349ab8321793fe98ab7c63139b6e64736f6c63430008110033",
  "linkReferences": {},
  "deployedLinkReferences": {}
}