{
  "_format": "hh-sol-artifact-1",
  "contractName": "StudyProgramView",
  "sourceName": "contracts/view/StudyProgramView.sol",
  "abi": [
    {
      "inputs": [
        {
          "internalType": "address",
          "name": "addressBookAddress",
          "type": "address"
        }
      ],
      "stateMutability": "nonpayable",
      "type": "constructor"
    },
    {
      "inputs": [],
      "name": "getAllPrograms",
      "outputs": [
        {
          "components": [
            {
              "internalType": "uint256",
              "name": "programId",
              "type": "uint256"
            },
            {
              "internalType": "string",
              "name": "programName",
              "type": "string"
            }
          ],
          "internalType": "struct StudyProgramDataTypes.StudyProgram[]",
          "name": "",
          "type": "tuple[]"
        }
      ],
      "stateMutability": "view",
      "type": "function"
    },
    {
      "inputs": [],
      "name": "getEnrolledPrograms",
      "outputs": [
        {
          "components": [
            {
              "internalType": "uint256",
              "name": "programId",
              "type": "uint256"
            },
            {
              "internalType": "string",
              "name": "programName",
              "type": "string"
            }
          ],
          "internalType": "struct StudyProgramDataTypes.StudyProgram[]",
          "name": "",
          "type": "tuple[]"
        }
      ],
      "stateMutability": "view",
      "type": "function"
    },
    {
      "inputs": [
        {
          "internalType": "uint256",
          "name": "programId",
          "type": "uint256"
        }
      ],
      "name": "getProgram",
      "outputs": [
        {
          "components": [
            {
              "internalType": "uint256",
              "name": "programId",
              "type": "uint256"
            },
            {
              "internalType": "string",
              "name": "programName",
              "type": "string"
            }
          ],
          "internalType": "struct StudyProgramDataTypes.StudyProgram",
          "name": "",
          "type": "tuple"
        }
      ],
      "stateMutability": "view",
      "type": "function"
    }
  ],
  "bytecode": "0x60806040523480156200001157600080fd5b50604051620012b6380380620012b68339818101604052810190620000379190620000ec565b8080806000806101000a81548173ffffffffffffffffffffffffffffffffffffffff021916908373ffffffffffffffffffffffffffffffffffffffff1602179055505050506200011e565b600080fd5b600073ffffffffffffffffffffffffffffffffffffffff82169050919050565b6000620000b48262000087565b9050919050565b620000c681620000a7565b8114620000d257600080fd5b50565b600081519050620000e681620000bb565b92915050565b60006020828403121562000105576200010462000082565b5b60006200011584828501620000d5565b91505092915050565b611188806200012e6000396000f3fe608060405234801561001057600080fd5b50600436106100415760003560e01c806359c9340414610046578063c3ecf89714610064578063e66b446b14610094575b600080fd5b61004e6100b2565b60405161005b9190610820565b60405180910390f35b61007e60048036038101906100799190610882565b61033f565b60405161008b91906108ec565b60405180910390f35b61009c6103d4565b6040516100a99190610820565b60405180910390f35b60606100bc610456565b600060028111156100d0576100cf61090e565b5b6100d8610518565b73ffffffffffffffffffffffffffffffffffffffff1663dd8b2914336040518263ffffffff1660e01b8152600401610110919061097e565b602060405180830381865afa15801561012d573d6000803e3d6000fd5b505050506040513d601f19601f8201168201806040525081019061015191906109be565b60028111156101635761016261090e565b5b146101a3576040517f08c379a000000000000000000000000000000000000000000000000000000000815260040161019a90610a48565b60405180910390fd5b60006101ad610518565b73ffffffffffffffffffffffffffffffffffffffff1663e3d7e14c336040518263ffffffff1660e01b81526004016101e5919061097e565b602060405180830381865afa158015610202573d6000803e3d6000fd5b505050506040513d601f19601f820116820180604052508101906102269190610a7d565b90506000610232610518565b73ffffffffffffffffffffffffffffffffffffffff16634efe9cac836040518263ffffffff1660e01b815260040161026a9190610ab9565b600060405180830381865afa158015610287573d6000803e3d6000fd5b505050506040513d6000823e3d601f19601f820116820180604052508101906102b09190610c1c565b90506102ba6105bb565b73ffffffffffffffffffffffffffffffffffffffff1663c49c8f45826040518263ffffffff1660e01b81526004016102f29190610d14565b600060405180830381865afa15801561030f573d6000803e3d6000fd5b505050506040513d6000823e3d601f19601f820116820180604052508101906103389190610f33565b9250505090565b61034761065e565b61034f6105bb565b73ffffffffffffffffffffffffffffffffffffffff16634e634eb5836040518263ffffffff1660e01b81526004016103879190610ab9565b600060405180830381865afa1580156103a4573d6000803e3d6000fd5b505050506040513d6000823e3d601f19601f820116820180604052508101906103cd9190610f7c565b9050919050565b60606103de6105bb565b73ffffffffffffffffffffffffffffffffffffffff1663ad57f14c6040518163ffffffff1660e01b8152600401600060405180830381865afa158015610428573d6000803e3d6000fd5b505050506040513d6000823e3d601f19601f820116820180604052508101906104519190610f33565b905090565b61045e610518565b73ffffffffffffffffffffffffffffffffffffffff166338b6a3a1336040518263ffffffff1660e01b8152600401610496919061097e565b602060405180830381865afa1580156104b3573d6000803e3d6000fd5b505050506040513d601f19601f820116820180604052508101906104d79190610ffd565b610516576040517f08c379a000000000000000000000000000000000000000000000000000000000815260040161050d90611076565b60405180910390fd5b565b60008060009054906101000a900473ffffffffffffffffffffffffffffffffffffffff1673ffffffffffffffffffffffffffffffffffffffff1663bcaa0c5560026040518263ffffffff1660e01b815260040161057591906110de565b602060405180830381865afa158015610592573d6000803e3d6000fd5b505050506040513d601f19601f820116820180604052508101906105b69190611125565b905090565b60008060009054906101000a900473ffffffffffffffffffffffffffffffffffffffff1673ffffffffffffffffffffffffffffffffffffffff1663bcaa0c5560046040518263ffffffff1660e01b815260040161061891906110de565b602060405180830381865afa158015610635573d6000803e3d6000fd5b505050506040513d601f19601f820116820180604052508101906106599190611125565b905090565b604051806040016040528060008152602001606081525090565b600081519050919050565b600082825260208201905092915050565b6000819050602082019050919050565b6000819050919050565b6106b7816106a4565b82525050565b600081519050919050565b600082825260208201905092915050565b60005b838110156106f75780820151818401526020810190506106dc565b60008484015250505050565b6000601f19601f8301169050919050565b600061071f826106bd565b61072981856106c8565b93506107398185602086016106d9565b61074281610703565b840191505092915050565b600060408301600083015161076560008601826106ae565b506020830151848203602086015261077d8282610714565b9150508091505092915050565b6000610796838361074d565b905092915050565b6000602082019050919050565b60006107b682610678565b6107c08185610683565b9350836020820285016107d285610694565b8060005b8581101561080e57848403895281516107ef858261078a565b94506107fa8361079e565b925060208a019950506001810190506107d6565b50829750879550505050505092915050565b6000602082019050818103600083015261083a81846107ab565b905092915050565b6000604051905090565b600080fd5b600080fd5b61085f816106a4565b811461086a57600080fd5b50565b60008135905061087c81610856565b92915050565b6000602082840312156108985761089761084c565b5b60006108a68482850161086d565b91505092915050565b60006040830160008301516108c760008601826106ae565b50602083015184820360208601526108df8282610714565b9150508091505092915050565b6000602082019050818103600083015261090681846108af565b905092915050565b7f4e487b7100000000000000000000000000000000000000000000000000000000600052602160045260246000fd5b600073ffffffffffffffffffffffffffffffffffffffff82169050919050565b60006109688261093d565b9050919050565b6109788161095d565b82525050565b6000602082019050610993600083018461096f565b92915050565b600381106109a657600080fd5b50565b6000815190506109b881610999565b92915050565b6000602082840312156109d4576109d361084c565b5b60006109e2848285016109a9565b91505092915050565b600082825260208201905092915050565b7f53656e646572206d75737420626520612073747564656e740000000000000000600082015250565b6000610a326018836109eb565b9150610a3d826109fc565b602082019050919050565b60006020820190508181036000830152610a6181610a25565b9050919050565b600081519050610a7781610856565b92915050565b600060208284031215610a9357610a9261084c565b5b6000610aa184828501610a68565b91505092915050565b610ab3816106a4565b82525050565b6000602082019050610ace6000830184610aaa565b92915050565b600080fd5b7f4e487b7100000000000000000000000000000000000000000000000000000000600052604160045260246000fd5b610b1182610703565b810181811067ffffffffffffffff82111715610b3057610b2f610ad9565b5b80604052505050565b6000610b43610842565b9050610b4f8282610b08565b919050565b600067ffffffffffffffff821115610b6f57610b6e610ad9565b5b602082029050602081019050919050565b600080fd5b6000610b98610b9384610b54565b610b39565b90508083825260208201905060208402830185811115610bbb57610bba610b80565b5b835b81811015610be45780610bd08882610a68565b845260208401935050602081019050610bbd565b5050509392505050565b600082601f830112610c0357610c02610ad4565b5b8151610c13848260208601610b85565b91505092915050565b600060208284031215610c3257610c3161084c565b5b600082015167ffffffffffffffff811115610c5057610c4f610851565b5b610c5c84828501610bee565b91505092915050565b600081519050919050565b600082825260208201905092915050565b6000819050602082019050919050565b6000610c9d83836106ae565b60208301905092915050565b6000602082019050919050565b6000610cc182610c65565b610ccb8185610c70565b9350610cd683610c81565b8060005b83811015610d07578151610cee8882610c91565b9750610cf983610ca9565b925050600181019050610cda565b5085935050505092915050565b60006020820190508181036000830152610d2e8184610cb6565b905092915050565b600067ffffffffffffffff821115610d5157610d50610ad9565b5b602082029050602081019050919050565b600080fd5b600080fd5b600080fd5b600067ffffffffffffffff821115610d8c57610d8b610ad9565b5b610d9582610703565b9050602081019050919050565b6000610db5610db084610d71565b610b39565b905082815260208101848484011115610dd157610dd0610d6c565b5b610ddc8482856106d9565b509392505050565b600082601f830112610df957610df8610ad4565b5b8151610e09848260208601610da2565b91505092915050565b600060408284031215610e2857610e27610d62565b5b610e326040610b39565b90506000610e4284828501610a68565b600083015250602082015167ffffffffffffffff811115610e6657610e65610d67565b5b610e7284828501610de4565b60208301525092915050565b6000610e91610e8c84610d36565b610b39565b90508083825260208201905060208402830185811115610eb457610eb3610b80565b5b835b81811015610efb57805167ffffffffffffffff811115610ed957610ed8610ad4565b5b808601610ee68982610e12565b85526020850194505050602081019050610eb6565b5050509392505050565b600082601f830112610f1a57610f19610ad4565b5b8151610f2a848260208601610e7e565b91505092915050565b600060208284031215610f4957610f4861084c565b5b600082015167ffffffffffffffff811115610f6757610f66610851565b5b610f7384828501610f05565b91505092915050565b600060208284031215610f9257610f9161084c565b5b600082015167ffffffffffffffff811115610fb057610faf610851565b5b610fbc84828501610e12565b91505092915050565b60008115159050919050565b610fda81610fc5565b8114610fe557600080fd5b50565b600081519050610ff781610fd1565b92915050565b6000602082840312156110135761101261084c565b5b600061102184828501610fe8565b91505092915050565b7f53656e646572206d757374206265206120726567697374657265642075736572600082015250565b60006110606020836109eb565b915061106b8261102a565b602082019050919050565b6000602082019050818103600083015261108f81611053565b9050919050565b600681106110a7576110a661090e565b5b50565b60008190506110b882611096565b919050565b60006110c8826110aa565b9050919050565b6110d8816110bd565b82525050565b60006020820190506110f360008301846110cf565b92915050565b6111028161095d565b811461110d57600080fd5b50565b60008151905061111f816110f9565b92915050565b60006020828403121561113b5761113a61084c565b5b600061114984828501611110565b9150509291505056fea264697066735822122099b0e6411e2b7cf34094222195797b34ca79dccd22e51e498ead4d43a26b9d5264736f6c63430008110033",
  "linkReferences": {},
  "deployedLinkReferences": {}
}