{
  "_format": "hh-sol-artifact-1",
  "contractName": "StudyProgramView",
  "sourceName": "contracts/view/StudyProgramView.sol",
  "abi": [
    {
      "inputs": [
        {
          "internalType": "address",
          "name": "userDataManagerAddress",
          "type": "address"
        },
        {
          "internalType": "address",
          "name": "programDataManagerAddress",
          "type": "address"
        }
      ],
      "stateMutability": "nonpayable",
      "type": "constructor"
    },
    {
      "inputs": [],
      "name": "getAllPrograms",
      "outputs": [
        {
          "components": [
            {
              "internalType": "uint256",
              "name": "programId",
              "type": "uint256"
            },
            {
              "internalType": "string",
              "name": "programName",
              "type": "string"
            }
          ],
          "internalType": "struct StudyProgramDataTypes.StudyProgram[]",
          "name": "",
          "type": "tuple[]"
        }
      ],
      "stateMutability": "view",
      "type": "function"
    },
    {
      "inputs": [],
      "name": "getEnrolledPrograms",
      "outputs": [
        {
          "components": [
            {
              "internalType": "uint256",
              "name": "programId",
              "type": "uint256"
            },
            {
              "internalType": "string",
              "name": "programName",
              "type": "string"
            }
          ],
          "internalType": "struct StudyProgramDataTypes.StudyProgram[]",
          "name": "",
          "type": "tuple[]"
        }
      ],
      "stateMutability": "view",
      "type": "function"
    }
  ],
  "bytecode": "0x60806040523480156200001157600080fd5b5060405162000f7338038062000f73833981810160405281019062000037919062000197565b8180806000806101000a81548173ffffffffffffffffffffffffffffffffffffffff021916908373ffffffffffffffffffffffffffffffffffffffff16021790555050506200008c82620000a560201b60201c565b6200009d81620000e960201b60201c565b5050620001de565b80600160006101000a81548173ffffffffffffffffffffffffffffffffffffffff021916908373ffffffffffffffffffffffffffffffffffffffff16021790555050565b80600560006101000a81548173ffffffffffffffffffffffffffffffffffffffff021916908373ffffffffffffffffffffffffffffffffffffffff16021790555050565b600080fd5b600073ffffffffffffffffffffffffffffffffffffffff82169050919050565b60006200015f8262000132565b9050919050565b620001718162000152565b81146200017d57600080fd5b50565b600081519050620001918162000166565b92915050565b60008060408385031215620001b157620001b06200012d565b5b6000620001c18582860162000180565b9250506020620001d48582860162000180565b9150509250929050565b610d8580620001ee6000396000f3fe608060405234801561001057600080fd5b50600436106100365760003560e01c806359c934041461003b578063e66b446b14610059575b600080fd5b610043610077565b6040516100509190610676565b60405180910390f35b610061610417565b60405161006e9190610676565b60405180910390f35b60606000600281111561008d5761008c610698565b5b60008054906101000a900473ffffffffffffffffffffffffffffffffffffffff1673ffffffffffffffffffffffffffffffffffffffff1663dd8b2914336040518263ffffffff1660e01b81526004016100e69190610708565b602060405180830381865afa158015610103573d6000803e3d6000fd5b505050506040513d601f19601f82011682018060405250810190610127919061075c565b600281111561013957610138610698565b5b14610179576040517f08c379a0000000000000000000000000000000000000000000000000000000008152600401610170906107e6565b60405180910390fd5b6000600160009054906101000a900473ffffffffffffffffffffffffffffffffffffffff1673ffffffffffffffffffffffffffffffffffffffff1663e3d7e14c336040518263ffffffff1660e01b81526004016101d69190610708565b602060405180830381865afa1580156101f3573d6000803e3d6000fd5b505050506040513d601f19601f820116820180604052508101906102179190610832565b90506000600160009054906101000a900473ffffffffffffffffffffffffffffffffffffffff1673ffffffffffffffffffffffffffffffffffffffff16634efe9cac836040518263ffffffff1660e01b8152600401610276919061086e565b600060405180830381865afa158015610293573d6000803e3d6000fd5b505050506040513d6000823e3d601f19601f820116820180604052508101906102bc91906109d1565b90506000815167ffffffffffffffff8111156102db576102da61088e565b5b60405190808252806020026020018201604052801561031457816020015b6103016104b4565b8152602001906001900390816102f95790505b50905060005b825181101561040d57600560009054906101000a900473ffffffffffffffffffffffffffffffffffffffff1673ffffffffffffffffffffffffffffffffffffffff16634e634eb584838151811061037457610373610a1a565b5b60200260200101516040518263ffffffff1660e01b8152600401610398919061086e565b600060405180830381865afa1580156103b5573d6000803e3d6000fd5b505050506040513d6000823e3d601f19601f820116820180604052508101906103de9190610b65565b8282815181106103f1576103f0610a1a565b5b60200260200101819052508061040690610bdd565b905061031a565b5080935050505090565b6060600560009054906101000a900473ffffffffffffffffffffffffffffffffffffffff1673ffffffffffffffffffffffffffffffffffffffff1663ad57f14c6040518163ffffffff1660e01b8152600401600060405180830381865afa158015610486573d6000803e3d6000fd5b505050506040513d6000823e3d601f19601f820116820180604052508101906104af9190610d06565b905090565b604051806040016040528060008152602001606081525090565b600081519050919050565b600082825260208201905092915050565b6000819050602082019050919050565b6000819050919050565b61050d816104fa565b82525050565b600081519050919050565b600082825260208201905092915050565b60005b8381101561054d578082015181840152602081019050610532565b60008484015250505050565b6000601f19601f8301169050919050565b600061057582610513565b61057f818561051e565b935061058f81856020860161052f565b61059881610559565b840191505092915050565b60006040830160008301516105bb6000860182610504565b50602083015184820360208601526105d3828261056a565b9150508091505092915050565b60006105ec83836105a3565b905092915050565b6000602082019050919050565b600061060c826104ce565b61061681856104d9565b935083602082028501610628856104ea565b8060005b85811015610664578484038952815161064585826105e0565b9450610650836105f4565b925060208a0199505060018101905061062c565b50829750879550505050505092915050565b600060208201905081810360008301526106908184610601565b905092915050565b7f4e487b7100000000000000000000000000000000000000000000000000000000600052602160045260246000fd5b600073ffffffffffffffffffffffffffffffffffffffff82169050919050565b60006106f2826106c7565b9050919050565b610702816106e7565b82525050565b600060208201905061071d60008301846106f9565b92915050565b6000604051905090565b600080fd5b600080fd5b6003811061074457600080fd5b50565b60008151905061075681610737565b92915050565b6000602082840312156107725761077161072d565b5b600061078084828501610747565b91505092915050565b600082825260208201905092915050565b7f53656e646572206d75737420626520612073747564656e740000000000000000600082015250565b60006107d0601883610789565b91506107db8261079a565b602082019050919050565b600060208201905081810360008301526107ff816107c3565b9050919050565b61080f816104fa565b811461081a57600080fd5b50565b60008151905061082c81610806565b92915050565b6000602082840312156108485761084761072d565b5b60006108568482850161081d565b91505092915050565b610868816104fa565b82525050565b6000602082019050610883600083018461085f565b92915050565b600080fd5b7f4e487b7100000000000000000000000000000000000000000000000000000000600052604160045260246000fd5b6108c682610559565b810181811067ffffffffffffffff821117156108e5576108e461088e565b5b80604052505050565b60006108f8610723565b905061090482826108bd565b919050565b600067ffffffffffffffff8211156109245761092361088e565b5b602082029050602081019050919050565b600080fd5b600061094d61094884610909565b6108ee565b905080838252602082019050602084028301858111156109705761096f610935565b5b835b818110156109995780610985888261081d565b845260208401935050602081019050610972565b5050509392505050565b600082601f8301126109b8576109b7610889565b5b81516109c884826020860161093a565b91505092915050565b6000602082840312156109e7576109e661072d565b5b600082015167ffffffffffffffff811115610a0557610a04610732565b5b610a11848285016109a3565b91505092915050565b7f4e487b7100000000000000000000000000000000000000000000000000000000600052603260045260246000fd5b600080fd5b600080fd5b600080fd5b600067ffffffffffffffff821115610a7357610a7261088e565b5b610a7c82610559565b9050602081019050919050565b6000610a9c610a9784610a58565b6108ee565b905082815260208101848484011115610ab857610ab7610a53565b5b610ac384828561052f565b509392505050565b600082601f830112610ae057610adf610889565b5b8151610af0848260208601610a89565b91505092915050565b600060408284031215610b0f57610b0e610a49565b5b610b1960406108ee565b90506000610b298482850161081d565b600083015250602082015167ffffffffffffffff811115610b4d57610b4c610a4e565b5b610b5984828501610acb565b60208301525092915050565b600060208284031215610b7b57610b7a61072d565b5b600082015167ffffffffffffffff811115610b9957610b98610732565b5b610ba584828501610af9565b91505092915050565b7f4e487b7100000000000000000000000000000000000000000000000000000000600052601160045260246000fd5b6000610be8826104fa565b91507fffffffffffffffffffffffffffffffffffffffffffffffffffffffffffffffff8203610c1a57610c19610bae565b5b600182019050919050565b600067ffffffffffffffff821115610c4057610c3f61088e565b5b602082029050602081019050919050565b6000610c64610c5f84610c25565b6108ee565b90508083825260208201905060208402830185811115610c8757610c86610935565b5b835b81811015610cce57805167ffffffffffffffff811115610cac57610cab610889565b5b808601610cb98982610af9565b85526020850194505050602081019050610c89565b5050509392505050565b600082601f830112610ced57610cec610889565b5b8151610cfd848260208601610c51565b91505092915050565b600060208284031215610d1c57610d1b61072d565b5b600082015167ffffffffffffffff811115610d3a57610d39610732565b5b610d4684828501610cd8565b9150509291505056fea2646970667358221220e7c9382ea4554c916383cce7e90f15749f051daf7bea298b5248928b8ca3ea5464736f6c63430008110033",
  "linkReferences": {},
  "deployedLinkReferences": {}
}