{
  "_format": "hh-sol-artifact-1",
  "contractName": "StudyProgramView",
  "sourceName": "contracts/view/StudyProgramView.sol",
  "abi": [
    {
      "inputs": [
        {
          "internalType": "address",
          "name": "addressBookAddress",
          "type": "address"
        }
      ],
      "stateMutability": "nonpayable",
      "type": "constructor"
    },
    {
      "inputs": [],
      "name": "getAllPrograms",
      "outputs": [
        {
          "components": [
            {
              "internalType": "uint256",
              "name": "programId",
              "type": "uint256"
            },
            {
              "internalType": "string",
              "name": "programName",
              "type": "string"
            }
          ],
          "internalType": "struct StudyProgramDataTypes.StudyProgram[]",
          "name": "",
          "type": "tuple[]"
        }
      ],
      "stateMutability": "view",
      "type": "function"
    },
    {
      "inputs": [],
      "name": "getEnrolledPrograms",
      "outputs": [
        {
          "components": [
            {
              "internalType": "uint256",
              "name": "programId",
              "type": "uint256"
            },
            {
              "internalType": "string",
              "name": "programName",
              "type": "string"
            }
          ],
          "internalType": "struct StudyProgramDataTypes.StudyProgram[]",
          "name": "",
          "type": "tuple[]"
        }
      ],
      "stateMutability": "view",
      "type": "function"
    }
  ],
  "bytecode": "0x60806040523480156200001157600080fd5b50604051620011cb380380620011cb8339818101604052810190620000379190620000ec565b8080806000806101000a81548173ffffffffffffffffffffffffffffffffffffffff021916908373ffffffffffffffffffffffffffffffffffffffff1602179055505050506200011e565b600080fd5b600073ffffffffffffffffffffffffffffffffffffffff82169050919050565b6000620000b48262000087565b9050919050565b620000c681620000a7565b8114620000d257600080fd5b50565b600081519050620000e681620000bb565b92915050565b60006020828403121562000105576200010462000082565b5b60006200011584828501620000d5565b91505092915050565b61109d806200012e6000396000f3fe608060405234801561001057600080fd5b50600436106100365760003560e01c806359c934041461003b578063e66b446b14610059575b600080fd5b610043610077565b6040516100509190610801565b60405180910390f35b6100616103b5565b60405161006e9190610801565b60405180910390f35b6060610081610437565b6000600281111561009557610094610823565b5b61009d6104f9565b73ffffffffffffffffffffffffffffffffffffffff1663dd8b2914336040518263ffffffff1660e01b81526004016100d59190610893565b602060405180830381865afa1580156100f2573d6000803e3d6000fd5b505050506040513d601f19601f8201168201806040525081019061011691906108e7565b600281111561012857610127610823565b5b14610168576040517f08c379a000000000000000000000000000000000000000000000000000000000815260040161015f90610971565b60405180910390fd5b60006101726104f9565b73ffffffffffffffffffffffffffffffffffffffff1663e3d7e14c336040518263ffffffff1660e01b81526004016101aa9190610893565b602060405180830381865afa1580156101c7573d6000803e3d6000fd5b505050506040513d601f19601f820116820180604052508101906101eb91906109bd565b905060006101f76104f9565b73ffffffffffffffffffffffffffffffffffffffff16634efe9cac836040518263ffffffff1660e01b815260040161022f91906109f9565b600060405180830381865afa15801561024c573d6000803e3d6000fd5b505050506040513d6000823e3d601f19601f820116820180604052508101906102759190610b5c565b90506000815167ffffffffffffffff81111561029457610293610a19565b5b6040519080825280602002602001820160405280156102cd57816020015b6102ba61063f565b8152602001906001900390816102b25790505b50905060005b82518110156103ab576102e461059c565b73ffffffffffffffffffffffffffffffffffffffff16634e634eb584838151811061031257610311610ba5565b5b60200260200101516040518263ffffffff1660e01b815260040161033691906109f9565b600060405180830381865afa158015610353573d6000803e3d6000fd5b505050506040513d6000823e3d601f19601f8201168201806040525081019061037c9190610cf0565b82828151811061038f5761038e610ba5565b5b6020026020010181905250806103a490610d68565b90506102d3565b5080935050505090565b60606103bf61059c565b73ffffffffffffffffffffffffffffffffffffffff1663ad57f14c6040518163ffffffff1660e01b8152600401600060405180830381865afa158015610409573d6000803e3d6000fd5b505050506040513d6000823e3d601f19601f820116820180604052508101906104329190610e91565b905090565b61043f6104f9565b73ffffffffffffffffffffffffffffffffffffffff166338b6a3a1336040518263ffffffff1660e01b81526004016104779190610893565b602060405180830381865afa158015610494573d6000803e3d6000fd5b505050506040513d601f19601f820116820180604052508101906104b89190610f12565b6104f7576040517f08c379a00000000000000000000000000000000000000000000000000000000081526004016104ee90610f8b565b60405180910390fd5b565b60008060009054906101000a900473ffffffffffffffffffffffffffffffffffffffff1673ffffffffffffffffffffffffffffffffffffffff1663bcaa0c5560026040518263ffffffff1660e01b81526004016105569190610ff3565b602060405180830381865afa158015610573573d6000803e3d6000fd5b505050506040513d601f19601f82011682018060405250810190610597919061103a565b905090565b60008060009054906101000a900473ffffffffffffffffffffffffffffffffffffffff1673ffffffffffffffffffffffffffffffffffffffff1663bcaa0c5560046040518263ffffffff1660e01b81526004016105f99190610ff3565b602060405180830381865afa158015610616573d6000803e3d6000fd5b505050506040513d601f19601f8201168201806040525081019061063a919061103a565b905090565b604051806040016040528060008152602001606081525090565b600081519050919050565b600082825260208201905092915050565b6000819050602082019050919050565b6000819050919050565b61069881610685565b82525050565b600081519050919050565b600082825260208201905092915050565b60005b838110156106d85780820151818401526020810190506106bd565b60008484015250505050565b6000601f19601f8301169050919050565b60006107008261069e565b61070a81856106a9565b935061071a8185602086016106ba565b610723816106e4565b840191505092915050565b6000604083016000830151610746600086018261068f565b506020830151848203602086015261075e82826106f5565b9150508091505092915050565b6000610777838361072e565b905092915050565b6000602082019050919050565b600061079782610659565b6107a18185610664565b9350836020820285016107b385610675565b8060005b858110156107ef57848403895281516107d0858261076b565b94506107db8361077f565b925060208a019950506001810190506107b7565b50829750879550505050505092915050565b6000602082019050818103600083015261081b818461078c565b905092915050565b7f4e487b7100000000000000000000000000000000000000000000000000000000600052602160045260246000fd5b600073ffffffffffffffffffffffffffffffffffffffff82169050919050565b600061087d82610852565b9050919050565b61088d81610872565b82525050565b60006020820190506108a86000830184610884565b92915050565b6000604051905090565b600080fd5b600080fd5b600381106108cf57600080fd5b50565b6000815190506108e1816108c2565b92915050565b6000602082840312156108fd576108fc6108b8565b5b600061090b848285016108d2565b91505092915050565b600082825260208201905092915050565b7f53656e646572206d75737420626520612073747564656e740000000000000000600082015250565b600061095b601883610914565b915061096682610925565b602082019050919050565b6000602082019050818103600083015261098a8161094e565b9050919050565b61099a81610685565b81146109a557600080fd5b50565b6000815190506109b781610991565b92915050565b6000602082840312156109d3576109d26108b8565b5b60006109e1848285016109a8565b91505092915050565b6109f381610685565b82525050565b6000602082019050610a0e60008301846109ea565b92915050565b600080fd5b7f4e487b7100000000000000000000000000000000000000000000000000000000600052604160045260246000fd5b610a51826106e4565b810181811067ffffffffffffffff82111715610a7057610a6f610a19565b5b80604052505050565b6000610a836108ae565b9050610a8f8282610a48565b919050565b600067ffffffffffffffff821115610aaf57610aae610a19565b5b602082029050602081019050919050565b600080fd5b6000610ad8610ad384610a94565b610a79565b90508083825260208201905060208402830185811115610afb57610afa610ac0565b5b835b81811015610b245780610b1088826109a8565b845260208401935050602081019050610afd565b5050509392505050565b600082601f830112610b4357610b42610a14565b5b8151610b53848260208601610ac5565b91505092915050565b600060208284031215610b7257610b716108b8565b5b600082015167ffffffffffffffff811115610b9057610b8f6108bd565b5b610b9c84828501610b2e565b91505092915050565b7f4e487b7100000000000000000000000000000000000000000000000000000000600052603260045260246000fd5b600080fd5b600080fd5b600080fd5b600067ffffffffffffffff821115610bfe57610bfd610a19565b5b610c07826106e4565b9050602081019050919050565b6000610c27610c2284610be3565b610a79565b905082815260208101848484011115610c4357610c42610bde565b5b610c4e8482856106ba565b509392505050565b600082601f830112610c6b57610c6a610a14565b5b8151610c7b848260208601610c14565b91505092915050565b600060408284031215610c9a57610c99610bd4565b5b610ca46040610a79565b90506000610cb4848285016109a8565b600083015250602082015167ffffffffffffffff811115610cd857610cd7610bd9565b5b610ce484828501610c56565b60208301525092915050565b600060208284031215610d0657610d056108b8565b5b600082015167ffffffffffffffff811115610d2457610d236108bd565b5b610d3084828501610c84565b91505092915050565b7f4e487b7100000000000000000000000000000000000000000000000000000000600052601160045260246000fd5b6000610d7382610685565b91507fffffffffffffffffffffffffffffffffffffffffffffffffffffffffffffffff8203610da557610da4610d39565b5b600182019050919050565b600067ffffffffffffffff821115610dcb57610dca610a19565b5b602082029050602081019050919050565b6000610def610dea84610db0565b610a79565b90508083825260208201905060208402830185811115610e1257610e11610ac0565b5b835b81811015610e5957805167ffffffffffffffff811115610e3757610e36610a14565b5b808601610e448982610c84565b85526020850194505050602081019050610e14565b5050509392505050565b600082601f830112610e7857610e77610a14565b5b8151610e88848260208601610ddc565b91505092915050565b600060208284031215610ea757610ea66108b8565b5b600082015167ffffffffffffffff811115610ec557610ec46108bd565b5b610ed184828501610e63565b91505092915050565b60008115159050919050565b610eef81610eda565b8114610efa57600080fd5b50565b600081519050610f0c81610ee6565b92915050565b600060208284031215610f2857610f276108b8565b5b6000610f3684828501610efd565b91505092915050565b7f53656e646572206d757374206265206120726567697374657265642075736572600082015250565b6000610f75602083610914565b9150610f8082610f3f565b602082019050919050565b60006020820190508181036000830152610fa481610f68565b9050919050565b60068110610fbc57610fbb610823565b5b50565b6000819050610fcd82610fab565b919050565b6000610fdd82610fbf565b9050919050565b610fed81610fd2565b82525050565b60006020820190506110086000830184610fe4565b92915050565b61101781610872565b811461102257600080fd5b50565b6000815190506110348161100e565b92915050565b6000602082840312156110505761104f6108b8565b5b600061105e84828501611025565b9150509291505056fea2646970667358221220c4f8ead2276ba41abc2d4e18803dcf5054bb68535ba1ef422a0b8ccdbfc6d85d64736f6c63430008110033",
  "linkReferences": {},
  "deployedLinkReferences": {}
}