{
  "_format": "hh-sol-artifact-1",
  "contractName": "RegistrationDataManager",
  "sourceName": "contracts/data/datamanager/RegistrationDataManager.sol",
  "abi": [
    {
      "inputs": [
        {
          "internalType": "address",
          "name": "registrationStorageAddress",
          "type": "address"
        },
        {
          "internalType": "address",
          "name": "accessWhitelistAddress",
          "type": "address"
        }
      ],
      "stateMutability": "nonpayable",
      "type": "constructor"
    },
    {
      "inputs": [
        {
          "internalType": "address",
          "name": "_address",
          "type": "address"
        },
        {
          "internalType": "enum UserDataTypes.RegistrationStatus",
          "name": "newStatus",
          "type": "uint8"
        }
      ],
      "name": "changeRegistrationStatus",
      "outputs": [],
      "stateMutability": "nonpayable",
      "type": "function"
    },
    {
      "inputs": [
        {
          "internalType": "address",
          "name": "_address",
          "type": "address"
        },
        {
          "internalType": "enum UserDataTypes.RegistrationStatus",
          "name": "status",
          "type": "uint8"
        },
        {
          "components": [
            {
              "internalType": "string",
              "name": "firstName",
              "type": "string"
            },
            {
              "internalType": "string",
              "name": "lastName",
              "type": "string"
            },
            {
              "internalType": "enum UserDataTypes.Gender",
              "name": "gender",
              "type": "uint8"
            },
            {
              "components": [
                {
                  "internalType": "uint256",
                  "name": "year",
                  "type": "uint256"
                },
                {
                  "internalType": "uint256",
                  "name": "month",
                  "type": "uint256"
                },
                {
                  "internalType": "uint256",
                  "name": "day",
                  "type": "uint256"
                }
              ],
              "internalType": "struct UserDataTypes.Date",
              "name": "dateOfBirth",
              "type": "tuple"
            },
            {
              "internalType": "string",
              "name": "nationality",
              "type": "string"
            },
            {
              "internalType": "string",
              "name": "phoneNumber",
              "type": "string"
            },
            {
              "internalType": "string",
              "name": "emailAddress",
              "type": "string"
            },
            {
              "internalType": "enum UserDataTypes.UserRole",
              "name": "role",
              "type": "uint8"
            },
            {
              "internalType": "uint256[]",
              "name": "studyProgramIds",
              "type": "uint256[]"
            }
          ],
          "internalType": "struct UserDataTypes.UserProfile",
          "name": "profile",
          "type": "tuple"
        }
      ],
      "name": "createRegistration",
      "outputs": [],
      "stateMutability": "nonpayable",
      "type": "function"
    },
    {
      "inputs": [
        {
          "internalType": "address",
          "name": "_address",
          "type": "address"
        }
      ],
      "name": "deleteRegistration",
      "outputs": [],
      "stateMutability": "nonpayable",
      "type": "function"
    },
    {
      "inputs": [],
      "name": "getAllPendingRegistrations",
      "outputs": [
        {
          "components": [
            {
              "internalType": "address",
              "name": "userAddress",
              "type": "address"
            },
            {
              "internalType": "enum UserDataTypes.RegistrationStatus",
              "name": "status",
              "type": "uint8"
            },
            {
              "components": [
                {
                  "internalType": "string",
                  "name": "firstName",
                  "type": "string"
                },
                {
                  "internalType": "string",
                  "name": "lastName",
                  "type": "string"
                },
                {
                  "internalType": "enum UserDataTypes.Gender",
                  "name": "gender",
                  "type": "uint8"
                },
                {
                  "components": [
                    {
                      "internalType": "uint256",
                      "name": "year",
                      "type": "uint256"
                    },
                    {
                      "internalType": "uint256",
                      "name": "month",
                      "type": "uint256"
                    },
                    {
                      "internalType": "uint256",
                      "name": "day",
                      "type": "uint256"
                    }
                  ],
                  "internalType": "struct UserDataTypes.Date",
                  "name": "dateOfBirth",
                  "type": "tuple"
                },
                {
                  "internalType": "string",
                  "name": "nationality",
                  "type": "string"
                },
                {
                  "internalType": "string",
                  "name": "phoneNumber",
                  "type": "string"
                },
                {
                  "internalType": "string",
                  "name": "emailAddress",
                  "type": "string"
                },
                {
                  "internalType": "enum UserDataTypes.UserRole",
                  "name": "role",
                  "type": "uint8"
                },
                {
                  "internalType": "uint256[]",
                  "name": "studyProgramIds",
                  "type": "uint256[]"
                }
              ],
              "internalType": "struct UserDataTypes.UserProfile",
              "name": "profile",
              "type": "tuple"
            }
          ],
          "internalType": "struct UserDataTypes.Registration[]",
          "name": "",
          "type": "tuple[]"
        }
      ],
      "stateMutability": "view",
      "type": "function"
    },
    {
      "inputs": [
        {
          "internalType": "address",
          "name": "_address",
          "type": "address"
        }
      ],
      "name": "getRegistrationStatusToAddress",
      "outputs": [
        {
          "internalType": "enum UserDataTypes.RegistrationStatus",
          "name": "",
          "type": "uint8"
        }
      ],
      "stateMutability": "view",
      "type": "function"
    },
    {
      "inputs": [
        {
          "internalType": "address",
          "name": "_address",
          "type": "address"
        }
      ],
      "name": "getRegistrationToAddress",
      "outputs": [
        {
          "components": [
            {
              "internalType": "address",
              "name": "userAddress",
              "type": "address"
            },
            {
              "internalType": "enum UserDataTypes.RegistrationStatus",
              "name": "status",
              "type": "uint8"
            },
            {
              "components": [
                {
                  "internalType": "string",
                  "name": "firstName",
                  "type": "string"
                },
                {
                  "internalType": "string",
                  "name": "lastName",
                  "type": "string"
                },
                {
                  "internalType": "enum UserDataTypes.Gender",
                  "name": "gender",
                  "type": "uint8"
                },
                {
                  "components": [
                    {
                      "internalType": "uint256",
                      "name": "year",
                      "type": "uint256"
                    },
                    {
                      "internalType": "uint256",
                      "name": "month",
                      "type": "uint256"
                    },
                    {
                      "internalType": "uint256",
                      "name": "day",
                      "type": "uint256"
                    }
                  ],
                  "internalType": "struct UserDataTypes.Date",
                  "name": "dateOfBirth",
                  "type": "tuple"
                },
                {
                  "internalType": "string",
                  "name": "nationality",
                  "type": "string"
                },
                {
                  "internalType": "string",
                  "name": "phoneNumber",
                  "type": "string"
                },
                {
                  "internalType": "string",
                  "name": "emailAddress",
                  "type": "string"
                },
                {
                  "internalType": "enum UserDataTypes.UserRole",
                  "name": "role",
                  "type": "uint8"
                },
                {
                  "internalType": "uint256[]",
                  "name": "studyProgramIds",
                  "type": "uint256[]"
                }
              ],
              "internalType": "struct UserDataTypes.UserProfile",
              "name": "profile",
              "type": "tuple"
            }
          ],
          "internalType": "struct UserDataTypes.Registration",
          "name": "",
          "type": "tuple"
        }
      ],
      "stateMutability": "view",
      "type": "function"
    }
  ],
  "bytecode": "0x60806040523480156200001157600080fd5b50604051620028073803806200280783398181016040528101906200003791906200012c565b80806000806101000a81548173ffffffffffffffffffffffffffffffffffffffff021916908373ffffffffffffffffffffffffffffffffffffffff1602179055505081600160006101000a81548173ffffffffffffffffffffffffffffffffffffffff021916908373ffffffffffffffffffffffffffffffffffffffff160217905550505062000173565b600080fd5b600073ffffffffffffffffffffffffffffffffffffffff82169050919050565b6000620000f482620000c7565b9050919050565b6200010681620000e7565b81146200011257600080fd5b50565b6000815190506200012681620000fb565b92915050565b60008060408385031215620001465762000145620000c2565b5b6000620001568582860162000115565b9250506020620001698582860162000115565b9150509250929050565b61268480620001836000396000f3fe608060405234801561001057600080fd5b50600436106100625760003560e01c8063442fb8ab1461006757806351cafe041461008357806358cbfccd1461009f57806365b7109a146100bb578063745fb129146100eb578063f5bf01fb14610109575b600080fd5b610081600480360381019061007c9190610fca565b610139565b005b61009d6004803603810190610098919061101c565b6102a2565b005b6100b960048036038101906100b49190611081565b6104e2565b005b6100d560048036038101906100d09190610fca565b6108d6565b6040516100e29190611167565b60405180910390f35b6100f3610984565b60405161010091906115c6565b60405180910390f35b610123600480360381019061011e9190610fca565b610a21565b6040516101309190611638565b60405180910390f35b60008054906101000a900473ffffffffffffffffffffffffffffffffffffffff1673ffffffffffffffffffffffffffffffffffffffff166313f44d10336040518263ffffffff1660e01b81526004016101929190611669565b602060405180830381865afa1580156101af573d6000803e3d6000fd5b505050506040513d601f19601f820116820180604052508101906101d391906116bc565b610212576040517f08c379a000000000000000000000000000000000000000000000000000000000815260040161020990611746565b60405180910390fd5b600160009054906101000a900473ffffffffffffffffffffffffffffffffffffffff1673ffffffffffffffffffffffffffffffffffffffff16632bb9e936826040518263ffffffff1660e01b815260040161026d9190611669565b600060405180830381600087803b15801561028757600080fd5b505af115801561029b573d6000803e3d6000fd5b5050505050565b60008054906101000a900473ffffffffffffffffffffffffffffffffffffffff1673ffffffffffffffffffffffffffffffffffffffff166313f44d10336040518263ffffffff1660e01b81526004016102fb9190611669565b602060405180830381865afa158015610318573d6000803e3d6000fd5b505050506040513d601f19601f8201168201806040525081019061033c91906116bc565b61037b576040517f08c379a000000000000000000000000000000000000000000000000000000000815260040161037290611746565b60405180910390fd5b6000600160009054906101000a900473ffffffffffffffffffffffffffffffffffffffff1673ffffffffffffffffffffffffffffffffffffffff166372731062846040518263ffffffff1660e01b81526004016103d89190611669565b600060405180830381865afa1580156103f5573d6000803e3d6000fd5b505050506040513d6000823e3d601f19601f8201168201806040525081019061041e9190611c6c565b90508181602001906002811115610438576104376110f0565b5b9081600281111561044c5761044b6110f0565b5b81525050600160009054906101000a900473ffffffffffffffffffffffffffffffffffffffff1673ffffffffffffffffffffffffffffffffffffffff1663153cb081826040518263ffffffff1660e01b81526004016104ab9190611638565b600060405180830381600087803b1580156104c557600080fd5b505af11580156104d9573d6000803e3d6000fd5b50505050505050565b60008054906101000a900473ffffffffffffffffffffffffffffffffffffffff1673ffffffffffffffffffffffffffffffffffffffff166313f44d10336040518263ffffffff1660e01b815260040161053b9190611669565b602060405180830381865afa158015610558573d6000803e3d6000fd5b505050506040513d601f19601f8201168201806040525081019061057c91906116bc565b6105bb576040517f08c379a00000000000000000000000000000000000000000000000000000000081526004016105b290611746565b60405180910390fd5b600073ffffffffffffffffffffffffffffffffffffffff168373ffffffffffffffffffffffffffffffffffffffff160361062a576040517f08c379a000000000000000000000000000000000000000000000000000000000815260040161062190611d01565b60405180910390fd5b6106bb81806000019061063d9190611d30565b8080601f016020809104026020016040519081016040528093929190818152602001838380828437600081840152601f19601f820116905080830192505050505050506040518060400160405280600a81526020017f4669727374206e616d6500000000000000000000000000000000000000000000815250610ad1565b61074c8180602001906106ce9190611d30565b8080601f016020809104026020016040519081016040528093929190818152602001838380828437600081840152601f19601f820116905080830192505050505050506040518060400160405280600981526020017f4c617374206e616d650000000000000000000000000000000000000000000000815250610ad1565b6107dd818060c0019061075f9190611d30565b8080601f016020809104026020016040519081016040528093929190818152602001838380828437600081840152601f19601f820116905080830192505050505050506040518060400160405280600b81526020017f4e6174696f6e616c697479000000000000000000000000000000000000000000815250610ad1565b6107f9816060018036038101906107f49190611e0c565b610b3c565b600160009054906101000a900473ffffffffffffffffffffffffffffffffffffffff1673ffffffffffffffffffffffffffffffffffffffff1663e42c35de60405180606001604052808673ffffffffffffffffffffffffffffffffffffffff168152602001856002811115610871576108706110f0565b5b81526020018461088090612103565b8152506040518263ffffffff1660e01b815260040161089f9190611638565b600060405180830381600087803b1580156108b957600080fd5b505af11580156108cd573d6000803e3d6000fd5b50505050505050565b6000600160009054906101000a900473ffffffffffffffffffffffffffffffffffffffff1673ffffffffffffffffffffffffffffffffffffffff166372731062836040518263ffffffff1660e01b81526004016109339190611669565b600060405180830381865afa158015610950573d6000803e3d6000fd5b505050506040513d6000823e3d601f19601f820116820180604052508101906109799190611c6c565b602001519050919050565b6060600160009054906101000a900473ffffffffffffffffffffffffffffffffffffffff1673ffffffffffffffffffffffffffffffffffffffff16630c38af4a6040518163ffffffff1660e01b8152600401600060405180830381865afa1580156109f3573d6000803e3d6000fd5b505050506040513d6000823e3d601f19601f82011682018060405250810190610a1c91906121f7565b905090565b610a29610e72565b600160009054906101000a900473ffffffffffffffffffffffffffffffffffffffff1673ffffffffffffffffffffffffffffffffffffffff166372731062836040518263ffffffff1660e01b8152600401610a849190611669565b600060405180830381865afa158015610aa1573d6000803e3d6000fd5b505050506040513d6000823e3d601f19601f82011682018060405250810190610aca9190611c6c565b9050919050565b600082511181604051602001610ae791906122c8565b60405160208183030381529060405290610b37576040517f08c379a0000000000000000000000000000000000000000000000000000000008152600401610b2e9190612323565b60405180910390fd5b505050565b6000816000015190506000826020015190506000836040015190506000806000610b64610d4b565b92509250925082861115610bad576040517f08c379a0000000000000000000000000000000000000000000000000000000008152600401610ba4906123b7565b60405180910390fd5b82861015610c5c57600c8511158015610bc7575060018510155b610c06576040517f08c379a0000000000000000000000000000000000000000000000000000000008152600401610bfd90612449565b60405180910390fd5b601f8411158015610c18575060018410155b610c57576040517f08c379a0000000000000000000000000000000000000000000000000000000008152600401610c4e906124db565b60405180910390fd5b610d42565b81851115610c9f576040517f08c379a0000000000000000000000000000000000000000000000000000000008152600401610c969061256d565b60405180910390fd5b81851015610cfd57601f8411158015610cb9575060018410155b610cf8576040517f08c379a0000000000000000000000000000000000000000000000000000000008152600401610cef906124db565b60405180910390fd5b610d41565b80841115610d40576040517f08c379a0000000000000000000000000000000000000000000000000000000008152600401610d37906125ff565b60405180910390fd5b5b5b50505050505050565b6000806000806000806000620151804281610d6957610d6861261f565b5b049050600062253d8c62010bd98301019050600062023ab18260040281610d9357610d9261261f565b5b059050600460038262023ab1020181610daf57610dae61261f565b5b0582039150600062164b0960018401610fa00281610dd057610dcf61261f565b5b059050601f6004826105b50281610dea57610de961261f565b5b058403019250600061098f8460500281610e0757610e0661261f565b5b059050600060508261098f0281610e2157610e2061261f565b5b0585039050600b8281610e3757610e3661261f565b5b05945084600c026002830103915084836031860360640201019250829850819750809650505050505050828282955095509550505050909192565b6040518060600160405280600073ffffffffffffffffffffffffffffffffffffffff16815260200160006002811115610eae57610ead6110f0565b5b8152602001610ebb610ec1565b81525090565b604051806101200160405280606081526020016060815260200160006002811115610eef57610eee6110f0565b5b8152602001610efc610f37565b815260200160608152602001606081526020016060815260200160006002811115610f2a57610f296110f0565b5b8152602001606081525090565b60405180606001604052806000815260200160008152602001600081525090565b6000604051905090565b600080fd5b600080fd5b600073ffffffffffffffffffffffffffffffffffffffff82169050919050565b6000610f9782610f6c565b9050919050565b610fa781610f8c565b8114610fb257600080fd5b50565b600081359050610fc481610f9e565b92915050565b600060208284031215610fe057610fdf610f62565b5b6000610fee84828501610fb5565b91505092915050565b6003811061100457600080fd5b50565b60008135905061101681610ff7565b92915050565b6000806040838503121561103357611032610f62565b5b600061104185828601610fb5565b925050602061105285828601611007565b9150509250929050565b600080fd5b600061016082840312156110785761107761105c565b5b81905092915050565b60008060006060848603121561109a57611099610f62565b5b60006110a886828701610fb5565b93505060206110b986828701611007565b925050604084013567ffffffffffffffff8111156110da576110d9610f67565b5b6110e686828701611061565b9150509250925092565b7f4e487b7100000000000000000000000000000000000000000000000000000000600052602160045260246000fd5b600381106111305761112f6110f0565b5b50565b60008190506111418261111f565b919050565b600061115182611133565b9050919050565b61116181611146565b82525050565b600060208201905061117c6000830184611158565b92915050565b600081519050919050565b600082825260208201905092915050565b6000819050602082019050919050565b6111b781610f8c565b82525050565b6111c681611146565b82525050565b600081519050919050565b600082825260208201905092915050565b60005b838110156112065780820151818401526020810190506111eb565b60008484015250505050565b6000601f19601f8301169050919050565b600061122e826111cc565b61123881856111d7565b93506112488185602086016111e8565b61125181611212565b840191505092915050565b6003811061126d5761126c6110f0565b5b50565b600081905061127e8261125c565b919050565b600061128e82611270565b9050919050565b61129e81611283565b82525050565b6000819050919050565b6112b7816112a4565b82525050565b6060820160008201516112d360008501826112ae565b5060208201516112e660208501826112ae565b5060408201516112f960408501826112ae565b50505050565b600381106113105761130f6110f0565b5b50565b6000819050611321826112ff565b919050565b600061133182611313565b9050919050565b61134181611326565b82525050565b600081519050919050565b600082825260208201905092915050565b6000819050602082019050919050565b600061137f83836112ae565b60208301905092915050565b6000602082019050919050565b60006113a382611347565b6113ad8185611352565b93506113b883611363565b8060005b838110156113e95781516113d08882611373565b97506113db8361138b565b9250506001810190506113bc565b5085935050505092915050565b60006101608301600083015184820360008601526114148282611223565b9150506020830151848203602086015261142e8282611223565b91505060408301516114436040860182611295565b50606083015161145660608601826112bd565b50608083015184820360c086015261146e8282611223565b91505060a083015184820360e08601526114888282611223565b91505060c08301518482036101008601526114a38282611223565b91505060e08301516114b9610120860182611338565b506101008301518482036101408601526114d38282611398565b9150508091505092915050565b60006060830160008301516114f860008601826111ae565b50602083015161150b60208601826111bd565b506040830151848203604086015261152382826113f6565b9150508091505092915050565b600061153c83836114e0565b905092915050565b6000602082019050919050565b600061155c82611182565b611566818561118d565b9350836020820285016115788561119e565b8060005b858110156115b457848403895281516115958582611530565b94506115a083611544565b925060208a0199505060018101905061157c565b50829750879550505050505092915050565b600060208201905081810360008301526115e08184611551565b905092915050565b600060608301600083015161160060008601826111ae565b50602083015161161360208601826111bd565b506040830151848203604086015261162b82826113f6565b9150508091505092915050565b6000602082019050818103600083015261165281846115e8565b905092915050565b61166381610f8c565b82525050565b600060208201905061167e600083018461165a565b92915050565b60008115159050919050565b61169981611684565b81146116a457600080fd5b50565b6000815190506116b681611690565b92915050565b6000602082840312156116d2576116d1610f62565b5b60006116e0848285016116a7565b91505092915050565b600082825260208201905092915050565b7f5468652073656e646572206973206e6f742077686974656c6973746564000000600082015250565b6000611730601d836116e9565b915061173b826116fa565b602082019050919050565b6000602082019050818103600083015261175f81611723565b9050919050565b600080fd5b7f4e487b7100000000000000000000000000000000000000000000000000000000600052604160045260246000fd5b6117a382611212565b810181811067ffffffffffffffff821117156117c2576117c161176b565b5b80604052505050565b60006117d5610f58565b90506117e1828261179a565b919050565b600080fd5b6000815190506117fa81610f9e565b92915050565b60008151905061180f81610ff7565b92915050565b600080fd5b600080fd5b600067ffffffffffffffff82111561183a5761183961176b565b5b61184382611212565b9050602081019050919050565b600061186361185e8461181f565b6117cb565b90508281526020810184848401111561187f5761187e61181a565b5b61188a8482856111e8565b509392505050565b600082601f8301126118a7576118a6611815565b5b81516118b7848260208601611850565b91505092915050565b600381106118cd57600080fd5b50565b6000815190506118df816118c0565b92915050565b6118ee816112a4565b81146118f957600080fd5b50565b60008151905061190b816118e5565b92915050565b60006060828403121561192757611926611766565b5b61193160606117cb565b90506000611941848285016118fc565b6000830152506020611955848285016118fc565b6020830152506040611969848285016118fc565b60408301525092915050565b6003811061198257600080fd5b50565b60008151905061199481611975565b92915050565b600067ffffffffffffffff8211156119b5576119b461176b565b5b602082029050602081019050919050565b600080fd5b60006119de6119d98461199a565b6117cb565b90508083825260208201905060208402830185811115611a0157611a006119c6565b5b835b81811015611a2a5780611a1688826118fc565b845260208401935050602081019050611a03565b5050509392505050565b600082601f830112611a4957611a48611815565b5b8151611a598482602086016119cb565b91505092915050565b60006101608284031215611a7957611a78611766565b5b611a846101206117cb565b9050600082015167ffffffffffffffff811115611aa457611aa36117e6565b5b611ab084828501611892565b600083015250602082015167ffffffffffffffff811115611ad457611ad36117e6565b5b611ae084828501611892565b6020830152506040611af4848285016118d0565b6040830152506060611b0884828501611911565b60608301525060c082015167ffffffffffffffff811115611b2c57611b2b6117e6565b5b611b3884828501611892565b60808301525060e082015167ffffffffffffffff811115611b5c57611b5b6117e6565b5b611b6884828501611892565b60a08301525061010082015167ffffffffffffffff811115611b8d57611b8c6117e6565b5b611b9984828501611892565b60c083015250610120611bae84828501611985565b60e08301525061014082015167ffffffffffffffff811115611bd357611bd26117e6565b5b611bdf84828501611a34565b6101008301525092915050565b600060608284031215611c0257611c01611766565b5b611c0c60606117cb565b90506000611c1c848285016117eb565b6000830152506020611c3084828501611800565b602083015250604082015167ffffffffffffffff811115611c5457611c536117e6565b5b611c6084828501611a62565b60408301525092915050565b600060208284031215611c8257611c81610f62565b5b600082015167ffffffffffffffff811115611ca057611c9f610f67565b5b611cac84828501611bec565b91505092915050565b7f5468652061646472657373206d75737420626520736574000000000000000000600082015250565b6000611ceb6017836116e9565b9150611cf682611cb5565b602082019050919050565b60006020820190508181036000830152611d1a81611cde565b9050919050565b600080fd5b600080fd5b600080fd5b60008083356001602003843603038112611d4d57611d4c611d21565b5b80840192508235915067ffffffffffffffff821115611d6f57611d6e611d26565b5b602083019250600182023603831315611d8b57611d8a611d2b565b5b509250929050565b600081359050611da2816118e5565b92915050565b600060608284031215611dbe57611dbd611766565b5b611dc860606117cb565b90506000611dd884828501611d93565b6000830152506020611dec84828501611d93565b6020830152506040611e0084828501611d93565b60408301525092915050565b600060608284031215611e2257611e21610f62565b5b6000611e3084828501611da8565b91505092915050565b82818337600083830152505050565b6000611e5b611e568461181f565b6117cb565b905082815260208101848484011115611e7757611e7661181a565b5b611e82848285611e39565b509392505050565b600082601f830112611e9f57611e9e611815565b5b8135611eaf848260208601611e48565b91505092915050565b600081359050611ec7816118c0565b92915050565b600081359050611edc81611975565b92915050565b6000611ef5611ef08461199a565b6117cb565b90508083825260208201905060208402830185811115611f1857611f176119c6565b5b835b81811015611f415780611f2d8882611d93565b845260208401935050602081019050611f1a565b5050509392505050565b600082601f830112611f6057611f5f611815565b5b8135611f70848260208601611ee2565b91505092915050565b60006101608284031215611f9057611f8f611766565b5b611f9b6101206117cb565b9050600082013567ffffffffffffffff811115611fbb57611fba6117e6565b5b611fc784828501611e8a565b600083015250602082013567ffffffffffffffff811115611feb57611fea6117e6565b5b611ff784828501611e8a565b602083015250604061200b84828501611eb8565b604083015250606061201f84828501611da8565b60608301525060c082013567ffffffffffffffff811115612043576120426117e6565b5b61204f84828501611e8a565b60808301525060e082013567ffffffffffffffff811115612073576120726117e6565b5b61207f84828501611e8a565b60a08301525061010082013567ffffffffffffffff8111156120a4576120a36117e6565b5b6120b084828501611e8a565b60c0830152506101206120c584828501611ecd565b60e08301525061014082013567ffffffffffffffff8111156120ea576120e96117e6565b5b6120f684828501611f4b565b6101008301525092915050565b600061210f3683611f79565b9050919050565b600067ffffffffffffffff8211156121315761213061176b565b5b602082029050602081019050919050565b600061215561215084612116565b6117cb565b90508083825260208201905060208402830185811115612178576121776119c6565b5b835b818110156121bf57805167ffffffffffffffff81111561219d5761219c611815565b5b8086016121aa8982611bec565b8552602085019450505060208101905061217a565b5050509392505050565b600082601f8301126121de576121dd611815565b5b81516121ee848260208601612142565b91505092915050565b60006020828403121561220d5761220c610f62565b5b600082015167ffffffffffffffff81111561222b5761222a610f67565b5b612237848285016121c9565b91505092915050565b600081905092915050565b6000612256826111cc565b6122608185612240565b93506122708185602086016111e8565b80840191505092915050565b7f2063616e6e6f7420626520656d70747900000000000000000000000000000000600082015250565b60006122b2601083612240565b91506122bd8261227c565b601082019050919050565b60006122d4828461224b565b91506122df826122a5565b915081905092915050565b60006122f5826111cc565b6122ff81856116e9565b935061230f8185602086016111e8565b61231881611212565b840191505092915050565b6000602082019050818103600083015261233d81846122ea565b905092915050565b7f426972746820796561722076616c75652063616e6e6f7420626520696e20746860008201527f6520667574757265000000000000000000000000000000000000000000000000602082015250565b60006123a16028836116e9565b91506123ac82612345565b604082019050919050565b600060208201905081810360008301526123d081612394565b9050919050565b7f4269727468206d6f6e74682076616c7565206d7573742062652062657477656560008201527f6e203120616e6420313200000000000000000000000000000000000000000000602082015250565b6000612433602a836116e9565b915061243e826123d7565b604082019050919050565b6000602082019050818103600083015261246281612426565b9050919050565b7f4269727468206461792076616c7565206d757374206265206265747765656e2060008201527f3120616e64203331000000000000000000000000000000000000000000000000602082015250565b60006124c56028836116e9565b91506124d082612469565b604082019050919050565b600060208201905081810360008301526124f4816124b8565b9050919050565b7f4269727468206d6f6e74682076616c75652063616e6e6f7420626520696e207460008201527f6865206675747572650000000000000000000000000000000000000000000000602082015250565b60006125576029836116e9565b9150612562826124fb565b604082019050919050565b600060208201905081810360008301526125868161254a565b9050919050565b7f4269727468206461792076616c75652063616e6e6f7420626520696e2074686560008201527f2066757475726500000000000000000000000000000000000000000000000000602082015250565b60006125e96027836116e9565b91506125f48261258d565b604082019050919050565b60006020820190508181036000830152612618816125dc565b9050919050565b7f4e487b7100000000000000000000000000000000000000000000000000000000600052601260045260246000fdfea264697066735822122045ef37b0a7a81af5ef28e75792001bf02a89f0c5ad71c1f51943435a5072aca764736f6c63430008110033",
  "linkReferences": {},
  "deployedLinkReferences": {}
}