{
  "_format": "hh-sol-artifact-1",
  "contractName": "RegistrationDataManager",
  "sourceName": "contracts/data/datamanager/RegistrationDataManager.sol",
  "abi": [
    {
      "inputs": [
        {
          "internalType": "address",
          "name": "registrationStorageAddress",
          "type": "address"
        },
        {
          "internalType": "address",
          "name": "accessWhitelistAddress",
          "type": "address"
        }
      ],
      "stateMutability": "nonpayable",
      "type": "constructor"
    },
    {
      "inputs": [
        {
          "internalType": "address",
          "name": "_address",
          "type": "address"
        },
        {
          "internalType": "enum UserDataTypes.RegistrationStatus",
          "name": "newStatus",
          "type": "uint8"
        }
      ],
      "name": "changeRegistrationStatus",
      "outputs": [],
      "stateMutability": "nonpayable",
      "type": "function"
    },
    {
      "inputs": [
        {
          "internalType": "address",
          "name": "_address",
          "type": "address"
        },
        {
          "internalType": "enum UserDataTypes.RegistrationStatus",
          "name": "status",
          "type": "uint8"
        },
        {
          "components": [
            {
              "internalType": "string",
              "name": "firstName",
              "type": "string"
            },
            {
              "internalType": "string",
              "name": "lastName",
              "type": "string"
            },
            {
              "internalType": "enum UserDataTypes.Gender",
              "name": "gender",
              "type": "uint8"
            },
            {
              "components": [
                {
                  "internalType": "uint256",
                  "name": "year",
                  "type": "uint256"
                },
                {
                  "internalType": "uint256",
                  "name": "month",
                  "type": "uint256"
                },
                {
                  "internalType": "uint256",
                  "name": "day",
                  "type": "uint256"
                }
              ],
              "internalType": "struct UserDataTypes.Date",
              "name": "dateOfBirth",
              "type": "tuple"
            },
            {
              "internalType": "string",
              "name": "nationality",
              "type": "string"
            },
            {
              "internalType": "string",
              "name": "phoneNumber",
              "type": "string"
            },
            {
              "internalType": "string",
              "name": "emailAddress",
              "type": "string"
            },
            {
              "internalType": "enum UserDataTypes.UserRole",
              "name": "role",
              "type": "uint8"
            },
            {
              "internalType": "uint256[]",
              "name": "studyProgramIds",
              "type": "uint256[]"
            }
          ],
          "internalType": "struct UserDataTypes.UserProfile",
          "name": "profile",
          "type": "tuple"
        }
      ],
      "name": "createRegistration",
      "outputs": [],
      "stateMutability": "nonpayable",
      "type": "function"
    },
    {
      "inputs": [
        {
          "internalType": "address",
          "name": "_address",
          "type": "address"
        }
      ],
      "name": "deleteRegistration",
      "outputs": [],
      "stateMutability": "nonpayable",
      "type": "function"
    },
    {
      "inputs": [],
      "name": "getAllPendingRegistrations",
      "outputs": [
        {
          "components": [
            {
              "internalType": "address",
              "name": "userAddress",
              "type": "address"
            },
            {
              "internalType": "enum UserDataTypes.RegistrationStatus",
              "name": "status",
              "type": "uint8"
            },
            {
              "components": [
                {
                  "internalType": "string",
                  "name": "firstName",
                  "type": "string"
                },
                {
                  "internalType": "string",
                  "name": "lastName",
                  "type": "string"
                },
                {
                  "internalType": "enum UserDataTypes.Gender",
                  "name": "gender",
                  "type": "uint8"
                },
                {
                  "components": [
                    {
                      "internalType": "uint256",
                      "name": "year",
                      "type": "uint256"
                    },
                    {
                      "internalType": "uint256",
                      "name": "month",
                      "type": "uint256"
                    },
                    {
                      "internalType": "uint256",
                      "name": "day",
                      "type": "uint256"
                    }
                  ],
                  "internalType": "struct UserDataTypes.Date",
                  "name": "dateOfBirth",
                  "type": "tuple"
                },
                {
                  "internalType": "string",
                  "name": "nationality",
                  "type": "string"
                },
                {
                  "internalType": "string",
                  "name": "phoneNumber",
                  "type": "string"
                },
                {
                  "internalType": "string",
                  "name": "emailAddress",
                  "type": "string"
                },
                {
                  "internalType": "enum UserDataTypes.UserRole",
                  "name": "role",
                  "type": "uint8"
                },
                {
                  "internalType": "uint256[]",
                  "name": "studyProgramIds",
                  "type": "uint256[]"
                }
              ],
              "internalType": "struct UserDataTypes.UserProfile",
              "name": "profile",
              "type": "tuple"
            }
          ],
          "internalType": "struct UserDataTypes.Registration[]",
          "name": "",
          "type": "tuple[]"
        }
      ],
      "stateMutability": "view",
      "type": "function"
    },
    {
      "inputs": [
        {
          "internalType": "address",
          "name": "_address",
          "type": "address"
        }
      ],
      "name": "getRegistrationStatusToAddress",
      "outputs": [
        {
          "internalType": "enum UserDataTypes.RegistrationStatus",
          "name": "",
          "type": "uint8"
        }
      ],
      "stateMutability": "view",
      "type": "function"
    },
    {
      "inputs": [
        {
          "internalType": "address",
          "name": "_address",
          "type": "address"
        }
      ],
      "name": "getRegistrationToAddress",
      "outputs": [
        {
          "components": [
            {
              "internalType": "address",
              "name": "userAddress",
              "type": "address"
            },
            {
              "internalType": "enum UserDataTypes.RegistrationStatus",
              "name": "status",
              "type": "uint8"
            },
            {
              "components": [
                {
                  "internalType": "string",
                  "name": "firstName",
                  "type": "string"
                },
                {
                  "internalType": "string",
                  "name": "lastName",
                  "type": "string"
                },
                {
                  "internalType": "enum UserDataTypes.Gender",
                  "name": "gender",
                  "type": "uint8"
                },
                {
                  "components": [
                    {
                      "internalType": "uint256",
                      "name": "year",
                      "type": "uint256"
                    },
                    {
                      "internalType": "uint256",
                      "name": "month",
                      "type": "uint256"
                    },
                    {
                      "internalType": "uint256",
                      "name": "day",
                      "type": "uint256"
                    }
                  ],
                  "internalType": "struct UserDataTypes.Date",
                  "name": "dateOfBirth",
                  "type": "tuple"
                },
                {
                  "internalType": "string",
                  "name": "nationality",
                  "type": "string"
                },
                {
                  "internalType": "string",
                  "name": "phoneNumber",
                  "type": "string"
                },
                {
                  "internalType": "string",
                  "name": "emailAddress",
                  "type": "string"
                },
                {
                  "internalType": "enum UserDataTypes.UserRole",
                  "name": "role",
                  "type": "uint8"
                },
                {
                  "internalType": "uint256[]",
                  "name": "studyProgramIds",
                  "type": "uint256[]"
                }
              ],
              "internalType": "struct UserDataTypes.UserProfile",
              "name": "profile",
              "type": "tuple"
            }
          ],
          "internalType": "struct UserDataTypes.Registration",
          "name": "",
          "type": "tuple"
        }
      ],
      "stateMutability": "view",
      "type": "function"
    },
    {
      "inputs": [
        {
          "internalType": "address",
          "name": "_address",
          "type": "address"
        }
      ],
      "name": "isAddressRegistering",
      "outputs": [
        {
          "internalType": "bool",
          "name": "",
          "type": "bool"
        }
      ],
      "stateMutability": "view",
      "type": "function"
    }
  ],
  "bytecode": "0x60806040523480156200001157600080fd5b50604051620029883803806200298883398181016040528101906200003791906200012c565b80806000806101000a81548173ffffffffffffffffffffffffffffffffffffffff021916908373ffffffffffffffffffffffffffffffffffffffff1602179055505081600160006101000a81548173ffffffffffffffffffffffffffffffffffffffff021916908373ffffffffffffffffffffffffffffffffffffffff160217905550505062000173565b600080fd5b600073ffffffffffffffffffffffffffffffffffffffff82169050919050565b6000620000f482620000c7565b9050919050565b6200010681620000e7565b81146200011257600080fd5b50565b6000815190506200012681620000fb565b92915050565b60008060408385031215620001465762000145620000c2565b5b6000620001568582860162000115565b9250506020620001698582860162000115565b9150509250929050565b61280580620001836000396000f3fe608060405234801561001057600080fd5b506004361061007d5760003560e01c806358cbfccd1161005b57806358cbfccd146100ea57806365b7109a14610106578063745fb12914610136578063f5bf01fb146101545761007d565b80632ad7397e14610082578063442fb8ab146100b257806351cafe04146100ce575b600080fd5b61009c600480360381019061009791906110c5565b610184565b6040516100a9919061110d565b60405180910390f35b6100cc60048036038101906100c791906110c5565b610234565b005b6100e860048036038101906100e3919061114d565b61039d565b005b61010460048036038101906100ff91906111b2565b6105dd565b005b610120600480360381019061011b91906110c5565b6109d1565b60405161012d9190611298565b60405180910390f35b61013e610a7f565b60405161014b91906116f7565b60405180910390f35b61016e600480360381019061016991906110c5565b610b1c565b60405161017b9190611769565b60405180910390f35b600080600160009054906101000a900473ffffffffffffffffffffffffffffffffffffffff1673ffffffffffffffffffffffffffffffffffffffff1663f698c113846040518263ffffffff1660e01b81526004016101e2919061179a565b600060405180830381865afa1580156101ff573d6000803e3d6000fd5b505050506040513d6000823e3d601f19601f820116820180604052508101906102289190611ce7565b50905080915050919050565b60008054906101000a900473ffffffffffffffffffffffffffffffffffffffff1673ffffffffffffffffffffffffffffffffffffffff166313f44d10336040518263ffffffff1660e01b815260040161028d919061179a565b602060405180830381865afa1580156102aa573d6000803e3d6000fd5b505050506040513d601f19601f820116820180604052508101906102ce9190611d43565b61030d576040517f08c379a000000000000000000000000000000000000000000000000000000000815260040161030490611dcd565b60405180910390fd5b600160009054906101000a900473ffffffffffffffffffffffffffffffffffffffff1673ffffffffffffffffffffffffffffffffffffffff16632bb9e936826040518263ffffffff1660e01b8152600401610368919061179a565b600060405180830381600087803b15801561038257600080fd5b505af1158015610396573d6000803e3d6000fd5b5050505050565b60008054906101000a900473ffffffffffffffffffffffffffffffffffffffff1673ffffffffffffffffffffffffffffffffffffffff166313f44d10336040518263ffffffff1660e01b81526004016103f6919061179a565b602060405180830381865afa158015610413573d6000803e3d6000fd5b505050506040513d601f19601f820116820180604052508101906104379190611d43565b610476576040517f08c379a000000000000000000000000000000000000000000000000000000000815260040161046d90611dcd565b60405180910390fd5b6000600160009054906101000a900473ffffffffffffffffffffffffffffffffffffffff1673ffffffffffffffffffffffffffffffffffffffff166372731062846040518263ffffffff1660e01b81526004016104d3919061179a565b600060405180830381865afa1580156104f0573d6000803e3d6000fd5b505050506040513d6000823e3d601f19601f820116820180604052508101906105199190611ded565b9050818160200190600281111561053357610532611221565b5b9081600281111561054757610546611221565b5b81525050600160009054906101000a900473ffffffffffffffffffffffffffffffffffffffff1673ffffffffffffffffffffffffffffffffffffffff1663153cb081826040518263ffffffff1660e01b81526004016105a69190611769565b600060405180830381600087803b1580156105c057600080fd5b505af11580156105d4573d6000803e3d6000fd5b50505050505050565b60008054906101000a900473ffffffffffffffffffffffffffffffffffffffff1673ffffffffffffffffffffffffffffffffffffffff166313f44d10336040518263ffffffff1660e01b8152600401610636919061179a565b602060405180830381865afa158015610653573d6000803e3d6000fd5b505050506040513d601f19601f820116820180604052508101906106779190611d43565b6106b6576040517f08c379a00000000000000000000000000000000000000000000000000000000081526004016106ad90611dcd565b60405180910390fd5b600073ffffffffffffffffffffffffffffffffffffffff168373ffffffffffffffffffffffffffffffffffffffff1603610725576040517f08c379a000000000000000000000000000000000000000000000000000000000815260040161071c90611e82565b60405180910390fd5b6107b68180600001906107389190611eb1565b8080601f016020809104026020016040519081016040528093929190818152602001838380828437600081840152601f19601f820116905080830192505050505050506040518060400160405280600a81526020017f4669727374206e616d6500000000000000000000000000000000000000000000815250610bcc565b6108478180602001906107c99190611eb1565b8080601f016020809104026020016040519081016040528093929190818152602001838380828437600081840152601f19601f820116905080830192505050505050506040518060400160405280600981526020017f4c617374206e616d650000000000000000000000000000000000000000000000815250610bcc565b6108d8818060c0019061085a9190611eb1565b8080601f016020809104026020016040519081016040528093929190818152602001838380828437600081840152601f19601f820116905080830192505050505050506040518060400160405280600b81526020017f4e6174696f6e616c697479000000000000000000000000000000000000000000815250610bcc565b6108f4816060018036038101906108ef9190611f8d565b610c37565b600160009054906101000a900473ffffffffffffffffffffffffffffffffffffffff1673ffffffffffffffffffffffffffffffffffffffff1663e42c35de60405180606001604052808673ffffffffffffffffffffffffffffffffffffffff16815260200185600281111561096c5761096b611221565b5b81526020018461097b90612284565b8152506040518263ffffffff1660e01b815260040161099a9190611769565b600060405180830381600087803b1580156109b457600080fd5b505af11580156109c8573d6000803e3d6000fd5b50505050505050565b6000600160009054906101000a900473ffffffffffffffffffffffffffffffffffffffff1673ffffffffffffffffffffffffffffffffffffffff166372731062836040518263ffffffff1660e01b8152600401610a2e919061179a565b600060405180830381865afa158015610a4b573d6000803e3d6000fd5b505050506040513d6000823e3d601f19601f82011682018060405250810190610a749190611ded565b602001519050919050565b6060600160009054906101000a900473ffffffffffffffffffffffffffffffffffffffff1673ffffffffffffffffffffffffffffffffffffffff16630c38af4a6040518163ffffffff1660e01b8152600401600060405180830381865afa158015610aee573d6000803e3d6000fd5b505050506040513d6000823e3d601f19601f82011682018060405250810190610b179190612378565b905090565b610b24610f6d565b600160009054906101000a900473ffffffffffffffffffffffffffffffffffffffff1673ffffffffffffffffffffffffffffffffffffffff166372731062836040518263ffffffff1660e01b8152600401610b7f919061179a565b600060405180830381865afa158015610b9c573d6000803e3d6000fd5b505050506040513d6000823e3d601f19601f82011682018060405250810190610bc59190611ded565b9050919050565b600082511181604051602001610be29190612449565b60405160208183030381529060405290610c32576040517f08c379a0000000000000000000000000000000000000000000000000000000008152600401610c2991906124a4565b60405180910390fd5b505050565b6000816000015190506000826020015190506000836040015190506000806000610c5f610e46565b92509250925082861115610ca8576040517f08c379a0000000000000000000000000000000000000000000000000000000008152600401610c9f90612538565b60405180910390fd5b82861015610d5757600c8511158015610cc2575060018510155b610d01576040517f08c379a0000000000000000000000000000000000000000000000000000000008152600401610cf8906125ca565b60405180910390fd5b601f8411158015610d13575060018410155b610d52576040517f08c379a0000000000000000000000000000000000000000000000000000000008152600401610d499061265c565b60405180910390fd5b610e3d565b81851115610d9a576040517f08c379a0000000000000000000000000000000000000000000000000000000008152600401610d91906126ee565b60405180910390fd5b81851015610df857601f8411158015610db4575060018410155b610df3576040517f08c379a0000000000000000000000000000000000000000000000000000000008152600401610dea9061265c565b60405180910390fd5b610e3c565b80841115610e3b576040517f08c379a0000000000000000000000000000000000000000000000000000000008152600401610e3290612780565b60405180910390fd5b5b5b50505050505050565b6000806000806000806000620151804281610e6457610e636127a0565b5b049050600062253d8c62010bd98301019050600062023ab18260040281610e8e57610e8d6127a0565b5b059050600460038262023ab1020181610eaa57610ea96127a0565b5b0582039150600062164b0960018401610fa00281610ecb57610eca6127a0565b5b059050601f6004826105b50281610ee557610ee46127a0565b5b058403019250600061098f8460500281610f0257610f016127a0565b5b059050600060508261098f0281610f1c57610f1b6127a0565b5b0585039050600b8281610f3257610f316127a0565b5b05945084600c026002830103915084836031860360640201019250829850819750809650505050505050828282955095509550505050909192565b6040518060600160405280600073ffffffffffffffffffffffffffffffffffffffff16815260200160006002811115610fa957610fa8611221565b5b8152602001610fb6610fbc565b81525090565b604051806101200160405280606081526020016060815260200160006002811115610fea57610fe9611221565b5b8152602001610ff7611032565b81526020016060815260200160608152602001606081526020016000600281111561102557611024611221565b5b8152602001606081525090565b60405180606001604052806000815260200160008152602001600081525090565b6000604051905090565b600080fd5b600080fd5b600073ffffffffffffffffffffffffffffffffffffffff82169050919050565b600061109282611067565b9050919050565b6110a281611087565b81146110ad57600080fd5b50565b6000813590506110bf81611099565b92915050565b6000602082840312156110db576110da61105d565b5b60006110e9848285016110b0565b91505092915050565b60008115159050919050565b611107816110f2565b82525050565b600060208201905061112260008301846110fe565b92915050565b6003811061113557600080fd5b50565b60008135905061114781611128565b92915050565b600080604083850312156111645761116361105d565b5b6000611172858286016110b0565b925050602061118385828601611138565b9150509250929050565b600080fd5b600061016082840312156111a9576111a861118d565b5b81905092915050565b6000806000606084860312156111cb576111ca61105d565b5b60006111d9868287016110b0565b93505060206111ea86828701611138565b925050604084013567ffffffffffffffff81111561120b5761120a611062565b5b61121786828701611192565b9150509250925092565b7f4e487b7100000000000000000000000000000000000000000000000000000000600052602160045260246000fd5b6003811061126157611260611221565b5b50565b600081905061127282611250565b919050565b600061128282611264565b9050919050565b61129281611277565b82525050565b60006020820190506112ad6000830184611289565b92915050565b600081519050919050565b600082825260208201905092915050565b6000819050602082019050919050565b6112e881611087565b82525050565b6112f781611277565b82525050565b600081519050919050565b600082825260208201905092915050565b60005b8381101561133757808201518184015260208101905061131c565b60008484015250505050565b6000601f19601f8301169050919050565b600061135f826112fd565b6113698185611308565b9350611379818560208601611319565b61138281611343565b840191505092915050565b6003811061139e5761139d611221565b5b50565b60008190506113af8261138d565b919050565b60006113bf826113a1565b9050919050565b6113cf816113b4565b82525050565b6000819050919050565b6113e8816113d5565b82525050565b60608201600082015161140460008501826113df565b50602082015161141760208501826113df565b50604082015161142a60408501826113df565b50505050565b6003811061144157611440611221565b5b50565b600081905061145282611430565b919050565b600061146282611444565b9050919050565b61147281611457565b82525050565b600081519050919050565b600082825260208201905092915050565b6000819050602082019050919050565b60006114b083836113df565b60208301905092915050565b6000602082019050919050565b60006114d482611478565b6114de8185611483565b93506114e983611494565b8060005b8381101561151a57815161150188826114a4565b975061150c836114bc565b9250506001810190506114ed565b5085935050505092915050565b60006101608301600083015184820360008601526115458282611354565b9150506020830151848203602086015261155f8282611354565b915050604083015161157460408601826113c6565b50606083015161158760608601826113ee565b50608083015184820360c086015261159f8282611354565b91505060a083015184820360e08601526115b98282611354565b91505060c08301518482036101008601526115d48282611354565b91505060e08301516115ea610120860182611469565b5061010083015184820361014086015261160482826114c9565b9150508091505092915050565b600060608301600083015161162960008601826112df565b50602083015161163c60208601826112ee565b50604083015184820360408601526116548282611527565b9150508091505092915050565b600061166d8383611611565b905092915050565b6000602082019050919050565b600061168d826112b3565b61169781856112be565b9350836020820285016116a9856112cf565b8060005b858110156116e557848403895281516116c68582611661565b94506116d183611675565b925060208a019950506001810190506116ad565b50829750879550505050505092915050565b600060208201905081810360008301526117118184611682565b905092915050565b600060608301600083015161173160008601826112df565b50602083015161174460208601826112ee565b506040830151848203604086015261175c8282611527565b9150508091505092915050565b600060208201905081810360008301526117838184611719565b905092915050565b61179481611087565b82525050565b60006020820190506117af600083018461178b565b92915050565b6117be816110f2565b81146117c957600080fd5b50565b6000815190506117db816117b5565b92915050565b600080fd5b7f4e487b7100000000000000000000000000000000000000000000000000000000600052604160045260246000fd5b61181e82611343565b810181811067ffffffffffffffff8211171561183d5761183c6117e6565b5b80604052505050565b6000611850611053565b905061185c8282611815565b919050565b600080fd5b60008151905061187581611099565b92915050565b60008151905061188a81611128565b92915050565b600080fd5b600080fd5b600067ffffffffffffffff8211156118b5576118b46117e6565b5b6118be82611343565b9050602081019050919050565b60006118de6118d98461189a565b611846565b9050828152602081018484840111156118fa576118f9611895565b5b611905848285611319565b509392505050565b600082601f83011261192257611921611890565b5b81516119328482602086016118cb565b91505092915050565b6003811061194857600080fd5b50565b60008151905061195a8161193b565b92915050565b611969816113d5565b811461197457600080fd5b50565b60008151905061198681611960565b92915050565b6000606082840312156119a2576119a16117e1565b5b6119ac6060611846565b905060006119bc84828501611977565b60008301525060206119d084828501611977565b60208301525060406119e484828501611977565b60408301525092915050565b600381106119fd57600080fd5b50565b600081519050611a0f816119f0565b92915050565b600067ffffffffffffffff821115611a3057611a2f6117e6565b5b602082029050602081019050919050565b600080fd5b6000611a59611a5484611a15565b611846565b90508083825260208201905060208402830185811115611a7c57611a7b611a41565b5b835b81811015611aa55780611a918882611977565b845260208401935050602081019050611a7e565b5050509392505050565b600082601f830112611ac457611ac3611890565b5b8151611ad4848260208601611a46565b91505092915050565b60006101608284031215611af457611af36117e1565b5b611aff610120611846565b9050600082015167ffffffffffffffff811115611b1f57611b1e611861565b5b611b2b8482850161190d565b600083015250602082015167ffffffffffffffff811115611b4f57611b4e611861565b5b611b5b8482850161190d565b6020830152506040611b6f8482850161194b565b6040830152506060611b838482850161198c565b60608301525060c082015167ffffffffffffffff811115611ba757611ba6611861565b5b611bb38482850161190d565b60808301525060e082015167ffffffffffffffff811115611bd757611bd6611861565b5b611be38482850161190d565b60a08301525061010082015167ffffffffffffffff811115611c0857611c07611861565b5b611c148482850161190d565b60c083015250610120611c2984828501611a00565b60e08301525061014082015167ffffffffffffffff811115611c4e57611c4d611861565b5b611c5a84828501611aaf565b6101008301525092915050565b600060608284031215611c7d57611c7c6117e1565b5b611c876060611846565b90506000611c9784828501611866565b6000830152506020611cab8482850161187b565b602083015250604082015167ffffffffffffffff811115611ccf57611cce611861565b5b611cdb84828501611add565b60408301525092915050565b60008060408385031215611cfe57611cfd61105d565b5b6000611d0c858286016117cc565b925050602083015167ffffffffffffffff811115611d2d57611d2c611062565b5b611d3985828601611c67565b9150509250929050565b600060208284031215611d5957611d5861105d565b5b6000611d67848285016117cc565b91505092915050565b600082825260208201905092915050565b7f5468652073656e646572206973206e6f742077686974656c6973746564000000600082015250565b6000611db7601d83611d70565b9150611dc282611d81565b602082019050919050565b60006020820190508181036000830152611de681611daa565b9050919050565b600060208284031215611e0357611e0261105d565b5b600082015167ffffffffffffffff811115611e2157611e20611062565b5b611e2d84828501611c67565b91505092915050565b7f5468652061646472657373206d75737420626520736574000000000000000000600082015250565b6000611e6c601783611d70565b9150611e7782611e36565b602082019050919050565b60006020820190508181036000830152611e9b81611e5f565b9050919050565b600080fd5b600080fd5b600080fd5b60008083356001602003843603038112611ece57611ecd611ea2565b5b80840192508235915067ffffffffffffffff821115611ef057611eef611ea7565b5b602083019250600182023603831315611f0c57611f0b611eac565b5b509250929050565b600081359050611f2381611960565b92915050565b600060608284031215611f3f57611f3e6117e1565b5b611f496060611846565b90506000611f5984828501611f14565b6000830152506020611f6d84828501611f14565b6020830152506040611f8184828501611f14565b60408301525092915050565b600060608284031215611fa357611fa261105d565b5b6000611fb184828501611f29565b91505092915050565b82818337600083830152505050565b6000611fdc611fd78461189a565b611846565b905082815260208101848484011115611ff857611ff7611895565b5b612003848285611fba565b509392505050565b600082601f8301126120205761201f611890565b5b8135612030848260208601611fc9565b91505092915050565b6000813590506120488161193b565b92915050565b60008135905061205d816119f0565b92915050565b600061207661207184611a15565b611846565b9050808382526020820190506020840283018581111561209957612098611a41565b5b835b818110156120c257806120ae8882611f14565b84526020840193505060208101905061209b565b5050509392505050565b600082601f8301126120e1576120e0611890565b5b81356120f1848260208601612063565b91505092915050565b60006101608284031215612111576121106117e1565b5b61211c610120611846565b9050600082013567ffffffffffffffff81111561213c5761213b611861565b5b6121488482850161200b565b600083015250602082013567ffffffffffffffff81111561216c5761216b611861565b5b6121788482850161200b565b602083015250604061218c84828501612039565b60408301525060606121a084828501611f29565b60608301525060c082013567ffffffffffffffff8111156121c4576121c3611861565b5b6121d08482850161200b565b60808301525060e082013567ffffffffffffffff8111156121f4576121f3611861565b5b6122008482850161200b565b60a08301525061010082013567ffffffffffffffff81111561222557612224611861565b5b6122318482850161200b565b60c0830152506101206122468482850161204e565b60e08301525061014082013567ffffffffffffffff81111561226b5761226a611861565b5b612277848285016120cc565b6101008301525092915050565b600061229036836120fa565b9050919050565b600067ffffffffffffffff8211156122b2576122b16117e6565b5b602082029050602081019050919050565b60006122d66122d184612297565b611846565b905080838252602082019050602084028301858111156122f9576122f8611a41565b5b835b8181101561234057805167ffffffffffffffff81111561231e5761231d611890565b5b80860161232b8982611c67565b855260208501945050506020810190506122fb565b5050509392505050565b600082601f83011261235f5761235e611890565b5b815161236f8482602086016122c3565b91505092915050565b60006020828403121561238e5761238d61105d565b5b600082015167ffffffffffffffff8111156123ac576123ab611062565b5b6123b88482850161234a565b91505092915050565b600081905092915050565b60006123d7826112fd565b6123e181856123c1565b93506123f1818560208601611319565b80840191505092915050565b7f2063616e6e6f7420626520656d70747900000000000000000000000000000000600082015250565b60006124336010836123c1565b915061243e826123fd565b601082019050919050565b600061245582846123cc565b915061246082612426565b915081905092915050565b6000612476826112fd565b6124808185611d70565b9350612490818560208601611319565b61249981611343565b840191505092915050565b600060208201905081810360008301526124be818461246b565b905092915050565b7f426972746820796561722076616c75652063616e6e6f7420626520696e20746860008201527f6520667574757265000000000000000000000000000000000000000000000000602082015250565b6000612522602883611d70565b915061252d826124c6565b604082019050919050565b6000602082019050818103600083015261255181612515565b9050919050565b7f4269727468206d6f6e74682076616c7565206d7573742062652062657477656560008201527f6e203120616e6420313200000000000000000000000000000000000000000000602082015250565b60006125b4602a83611d70565b91506125bf82612558565b604082019050919050565b600060208201905081810360008301526125e3816125a7565b9050919050565b7f4269727468206461792076616c7565206d757374206265206265747765656e2060008201527f3120616e64203331000000000000000000000000000000000000000000000000602082015250565b6000612646602883611d70565b9150612651826125ea565b604082019050919050565b6000602082019050818103600083015261267581612639565b9050919050565b7f4269727468206d6f6e74682076616c75652063616e6e6f7420626520696e207460008201527f6865206675747572650000000000000000000000000000000000000000000000602082015250565b60006126d8602983611d70565b91506126e38261267c565b604082019050919050565b60006020820190508181036000830152612707816126cb565b9050919050565b7f4269727468206461792076616c75652063616e6e6f7420626520696e2074686560008201527f2066757475726500000000000000000000000000000000000000000000000000602082015250565b600061276a602783611d70565b91506127758261270e565b604082019050919050565b600060208201905081810360008301526127998161275d565b9050919050565b7f4e487b7100000000000000000000000000000000000000000000000000000000600052601260045260246000fdfea26469706673582212209854a033e3cb0574d7591d53bbc98c10792a5f1157e04b10f751770826a7b64f64736f6c63430008110033",
  "linkReferences": {},
  "deployedLinkReferences": {}
}